{
  "_format": "hh-sol-artifact-1",
  "contractName": "DelegationCheckerMock",
  "sourceName": "contracts/mock/DelegationCheckerMock.sol",
  "abi": [
    {
      "inputs": [
        {
          "internalType": "address",
          "name": "",
          "type": "address"
        }
      ],
      "name": "delegated",
      "outputs": [
        {
          "internalType": "bool",
          "name": "",
          "type": "bool"
        }
      ],
      "stateMutability": "view",
      "type": "function"
    },
    {
      "inputs": [
        {
          "internalType": "address",
          "name": "user",
          "type": "address"
        }
      ],
      "name": "isDelegated",
      "outputs": [
        {
          "internalType": "bool",
          "name": "",
          "type": "bool"
        }
      ],
      "stateMutability": "view",
      "type": "function"
    },
    {
      "inputs": [
        {
          "internalType": "address",
          "name": "user",
          "type": "address"
        },
        {
          "internalType": "bool",
          "name": "status",
          "type": "bool"
        }
      ],
      "name": "setDelegated",
      "outputs": [],
      "stateMutability": "nonpayable",
      "type": "function"
    }
  ],
  "bytecode": "0x6080806040523461001657610134908161001c8239f35b600080fdfe60806040818152600436101561001457600080fd5b600091823560e01c9081633e28391d146100ce575080634cb2c889146100825763f3598ad91461004357600080fd5b3461007e57602036600319011261007e5760209160ff9082906001600160a01b0361006c61010c565b16815280855220541690519015158152f35b5080fd5b503461007e578060031936011261007e5761009b61010c565b90602435918215158093036100ca5760018060a01b031683528260205282209060ff8019835416911617905580f35b8380fd5b919050346101085760203660031901126101085760209260ff91906001600160a01b036100f961010c565b16815280855220541615158152f35b8280fd5b600435906001600160a01b038216820361012257565b600080fdfea164736f6c6343000813000a",
  "linkReferences": {},
  "deployedLinkReferences": {}
}