{
  "_format": "hh-sol-artifact-1",
  "contractName": "TokenICO",
  "sourceName": "contracts/TokenICO.sol",
  "abi": [
    {
      "inputs": [],
      "stateMutability": "nonpayable",
      "type": "constructor"
    },
    {
      "anonymous": false,
      "inputs": [
        {
          "indexed": false,
          "internalType": "uint256",
          "name": "oldAPY",
          "type": "uint256"
        },
        {
          "indexed": false,
          "internalType": "uint256",
          "name": "newAPY",
          "type": "uint256"
        }
      ],
      "name": "APYUpdated",
      "type": "event"
    },
    {
      "anonymous": false,
      "inputs": [
        {
          "indexed": true,
          "internalType": "address",
          "name": "user",
          "type": "address"
        },
        {
          "indexed": false,
          "internalType": "bool",
          "name": "blocked",
          "type": "bool"
        }
      ],
      "name": "AddressBlocked",
      "type": "event"
    },
    {
      "anonymous": false,
      "inputs": [
        {
          "indexed": true,
          "internalType": "address",
          "name": "newChecker",
          "type": "address"
        }
      ],
      "name": "DelegationCheckerUpdated",
      "type": "event"
    },
    {
      "anonymous": false,
      "inputs": [
        {
          "indexed": true,
          "internalType": "address",
          "name": "user",
          "type": "address"
        },
        {
          "indexed": true,
          "internalType": "uint256",
          "name": "stakeId",
          "type": "uint256"
        },
        {
          "indexed": false,
          "internalType": "uint256",
          "name": "amount",
          "type": "uint256"
        },
        {
          "indexed": false,
          "internalType": "uint256",
          "name": "penalty",
          "type": "uint256"
        }
      ],
      "name": "EarlyUnstake",
      "type": "event"
    },
    {
      "anonymous": false,
      "inputs": [
        {
          "indexed": false,
          "internalType": "uint256",
          "name": "oldMinStake",
          "type": "uint256"
        },
        {
          "indexed": false,
          "internalType": "uint256",
          "name": "newMinStake",
          "type": "uint256"
        }
      ],
      "name": "MinStakeUpdated",
      "type": "event"
    },
    {
      "anonymous": false,
      "inputs": [
        {
          "indexed": false,
          "internalType": "string",
          "name": "priceType",
          "type": "string"
        },
        {
          "indexed": false,
          "internalType": "uint256",
          "name": "oldPrice",
          "type": "uint256"
        },
        {
          "indexed": false,
          "internalType": "uint256",
          "name": "newPrice",
          "type": "uint256"
        }
      ],
      "name": "PriceUpdated",
      "type": "event"
    },
    {
      "anonymous": false,
      "inputs": [
        {
          "indexed": false,
          "internalType": "uint256",
          "name": "oldPercentage",
          "type": "uint256"
        },
        {
          "indexed": false,
          "internalType": "uint256",
          "name": "newPercentage",
          "type": "uint256"
        }
      ],
      "name": "ReferralPercentageUpdated",
      "type": "event"
    },
    {
      "anonymous": false,
      "inputs": [
        {
          "indexed": true,
          "internalType": "address",
          "name": "referrer",
          "type": "address"
        },
        {
          "indexed": true,
          "internalType": "address",
          "name": "referee",
          "type": "address"
        }
      ],
      "name": "ReferralRegistered",
      "type": "event"
    },
    {
      "anonymous": false,
      "inputs": [
        {
          "indexed": true,
          "internalType": "address",
          "name": "referrer",
          "type": "address"
        },
        {
          "indexed": true,
          "internalType": "address",
          "name": "referee",
          "type": "address"
        },
        {
          "indexed": false,
          "internalType": "uint256",
          "name": "amount",
          "type": "uint256"
        }
      ],
      "name": "ReferralRewardPaid",
      "type": "event"
    },
    {
      "anonymous": false,
      "inputs": [
        {
          "indexed": true,
          "internalType": "address",
          "name": "user",
          "type": "address"
        },
        {
          "indexed": true,
          "internalType": "uint256",
          "name": "stakeId",
          "type": "uint256"
        },
        {
          "indexed": false,
          "internalType": "uint256",
          "name": "reward",
          "type": "uint256"
        }
      ],
      "name": "RewardHarvested",
      "type": "event"
    },
    {
      "anonymous": false,
      "inputs": [
        {
          "indexed": true,
          "internalType": "address",
          "name": "oldSigner",
          "type": "address"
        },
        {
          "indexed": true,
          "internalType": "address",
          "name": "newSigner",
          "type": "address"
        }
      ],
      "name": "SignerUpdated",
      "type": "event"
    },
    {
      "anonymous": false,
      "inputs": [
        {
          "indexed": true,
          "internalType": "address",
          "name": "buyer",
          "type": "address"
        },
        {
          "indexed": true,
          "internalType": "address",
          "name": "stablecoin",
          "type": "address"
        },
        {
          "indexed": false,
          "internalType": "uint256",
          "name": "stablecoinAmount",
          "type": "uint256"
        },
        {
          "indexed": false,
          "internalType": "uint256",
          "name": "bnbPaid",
          "type": "uint256"
        },
        {
          "indexed": false,
          "internalType": "uint256",
          "name": "timestamp",
          "type": "uint256"
        }
      ],
      "name": "StablecoinSold",
      "type": "event"
    },
    {
      "anonymous": false,
      "inputs": [
        {
          "indexed": true,
          "internalType": "address",
          "name": "user",
          "type": "address"
        },
        {
          "indexed": true,
          "internalType": "uint256",
          "name": "stakeId",
          "type": "uint256"
        },
        {
          "indexed": false,
          "internalType": "uint256",
          "name": "amount",
          "type": "uint256"
        },
        {
          "indexed": false,
          "internalType": "uint256",
          "name": "lockPeriod",
          "type": "uint256"
        }
      ],
      "name": "Staked",
      "type": "event"
    },
    {
      "anonymous": false,
      "inputs": [
        {
          "indexed": true,
          "internalType": "address",
          "name": "wallet",
          "type": "address"
        },
        {
          "indexed": false,
          "internalType": "bool",
          "name": "blocked",
          "type": "bool"
        }
      ],
      "name": "SweeperUpdated",
      "type": "event"
    },
    {
      "anonymous": false,
      "inputs": [
        {
          "indexed": true,
          "internalType": "address",
          "name": "buyer",
          "type": "address"
        },
        {
          "indexed": true,
          "internalType": "address",
          "name": "paymentMethod",
          "type": "address"
        },
        {
          "indexed": false,
          "internalType": "uint256",
          "name": "amountPaid",
          "type": "uint256"
        },
        {
          "indexed": false,
          "internalType": "uint256",
          "name": "tokensBought",
          "type": "uint256"
        },
        {
          "indexed": false,
          "internalType": "uint256",
          "name": "timestamp",
          "type": "uint256"
        }
      ],
      "name": "TokensPurchased",
      "type": "event"
    },
    {
      "anonymous": false,
      "inputs": [
        {
          "indexed": true,
          "internalType": "address",
          "name": "user",
          "type": "address"
        },
        {
          "indexed": true,
          "internalType": "uint256",
          "name": "stakeId",
          "type": "uint256"
        },
        {
          "indexed": false,
          "internalType": "uint256",
          "name": "amount",
          "type": "uint256"
        }
      ],
      "name": "Unstaked",
      "type": "event"
    },
    {
      "anonymous": false,
      "inputs": [
        {
          "indexed": true,
          "internalType": "address",
          "name": "user",
          "type": "address"
        },
        {
          "indexed": false,
          "internalType": "uint256",
          "name": "nonce",
          "type": "uint256"
        }
      ],
      "name": "VoucherConsumed",
      "type": "event"
    },
    {
      "inputs": [],
      "name": "DOMAIN_SEPARATOR",
      "outputs": [
        {
          "internalType": "bytes32",
          "name": "",
          "type": "bytes32"
        }
      ],
      "stateMutability": "view",
      "type": "function"
    },
    {
      "inputs": [],
      "name": "EARLY_WITHDRAWAL_PENALTY_PERCENT",
      "outputs": [
        {
          "internalType": "uint256",
          "name": "",
          "type": "uint256"
        }
      ],
      "stateMutability": "view",
      "type": "function"
    },
    {
      "inputs": [],
      "name": "TOTAL_TOKENS_FOR_SALE",
      "outputs": [
        {
          "internalType": "uint256",
          "name": "",
          "type": "uint256"
        }
      ],
      "stateMutability": "view",
      "type": "function"
    },
    {
      "inputs": [],
      "name": "WAITLIST_ALLOCATION",
      "outputs": [
        {
          "internalType": "uint256",
          "name": "",
          "type": "uint256"
        }
      ],
      "stateMutability": "view",
      "type": "function"
    },
    {
      "inputs": [],
      "name": "WL_REF_TYPEHASH",
      "outputs": [
        {
          "internalType": "bytes32",
          "name": "",
          "type": "bytes32"
        }
      ],
      "stateMutability": "view",
      "type": "function"
    },
    {
      "inputs": [
        {
          "internalType": "uint256",
          "name": "",
          "type": "uint256"
        }
      ],
      "name": "allTransactions",
      "outputs": [
        {
          "internalType": "uint256",
          "name": "timestamp",
          "type": "uint256"
        },
        {
          "internalType": "address",
          "name": "user",
          "type": "address"
        },
        {
          "internalType": "address",
          "name": "tokenIn",
          "type": "address"
        },
        {
          "internalType": "address",
          "name": "tokenOut",
          "type": "address"
        },
        {
          "internalType": "uint256",
          "name": "amountIn",
          "type": "uint256"
        },
        {
          "internalType": "uint256",
          "name": "amountOut",
          "type": "uint256"
        },
        {
          "internalType": "string",
          "name": "transactionType",
          "type": "string"
        }
      ],
      "stateMutability": "view",
      "type": "function"
    },
    {
      "inputs": [],
      "name": "baseAPY",
      "outputs": [
        {
          "internalType": "uint256",
          "name": "",
          "type": "uint256"
        }
      ],
      "stateMutability": "view",
      "type": "function"
    },
    {
      "inputs": [
        {
          "internalType": "address",
          "name": "",
          "type": "address"
        }
      ],
      "name": "blockedAddresses",
      "outputs": [
        {
          "internalType": "bool",
          "name": "",
          "type": "bool"
        }
      ],
      "stateMutability": "view",
      "type": "function"
    },
    {
      "inputs": [],
      "name": "bnbPriceFeed",
      "outputs": [
        {
          "internalType": "contract AggregatorV3Interface",
          "name": "",
          "type": "address"
        }
      ],
      "stateMutability": "view",
      "type": "function"
    },
    {
      "inputs": [],
      "name": "bnbRatio",
      "outputs": [
        {
          "internalType": "uint256",
          "name": "",
          "type": "uint256"
        }
      ],
      "stateMutability": "view",
      "type": "function"
    },
    {
      "inputs": [],
      "name": "btcAddress",
      "outputs": [
        {
          "internalType": "address",
          "name": "",
          "type": "address"
        }
      ],
      "stateMutability": "view",
      "type": "function"
    },
    {
      "inputs": [],
      "name": "btcPriceFeed",
      "outputs": [
        {
          "internalType": "contract AggregatorV3Interface",
          "name": "",
          "type": "address"
        }
      ],
      "stateMutability": "view",
      "type": "function"
    },
    {
      "inputs": [],
      "name": "btcRatio",
      "outputs": [
        {
          "internalType": "uint256",
          "name": "",
          "type": "uint256"
        }
      ],
      "stateMutability": "view",
      "type": "function"
    },
    {
      "inputs": [],
      "name": "buyWithBNB",
      "outputs": [],
      "stateMutability": "payable",
      "type": "function"
    },
    {
      "inputs": [
        {
          "components": [
            {
              "internalType": "address",
              "name": "user",
              "type": "address"
            },
            {
              "internalType": "address",
              "name": "referrer",
              "type": "address"
            },
            {
              "internalType": "uint256",
              "name": "nonce",
              "type": "uint256"
            },
            {
              "internalType": "uint256",
              "name": "deadline",
              "type": "uint256"
            }
          ],
          "internalType": "struct TokenICO.WhitelistRef",
          "name": "v",
          "type": "tuple"
        },
        {
          "internalType": "bytes",
          "name": "sig",
          "type": "bytes"
        }
      ],
      "name": "buyWithBNB_Voucher",
      "outputs": [],
      "stateMutability": "payable",
      "type": "function"
    },
    {
      "inputs": [
        {
          "internalType": "uint256",
          "name": "btcAmount",
          "type": "uint256"
        }
      ],
      "name": "buyWithBTC",
      "outputs": [],
      "stateMutability": "nonpayable",
      "type": "function"
    },
    {
      "inputs": [
        {
          "components": [
            {
              "internalType": "address",
              "name": "user",
              "type": "address"
            },
            {
              "internalType": "address",
              "name": "referrer",
              "type": "address"
            },
            {
              "internalType": "uint256",
              "name": "nonce",
              "type": "uint256"
            },
            {
              "internalType": "uint256",
              "name": "deadline",
              "type": "uint256"
            }
          ],
          "internalType": "struct TokenICO.WhitelistRef",
          "name": "v",
          "type": "tuple"
        },
        {
          "internalType": "bytes",
          "name": "sig",
          "type": "bytes"
        },
        {
          "internalType": "uint256",
          "name": "btcAmount",
          "type": "uint256"
        }
      ],
      "name": "buyWithBTC_Voucher",
      "outputs": [],
      "stateMutability": "nonpayable",
      "type": "function"
    },
    {
      "inputs": [
        {
          "internalType": "uint256",
          "name": "ethAmount",
          "type": "uint256"
        }
      ],
      "name": "buyWithETH",
      "outputs": [],
      "stateMutability": "nonpayable",
      "type": "function"
    },
    {
      "inputs": [
        {
          "components": [
            {
              "internalType": "address",
              "name": "user",
              "type": "address"
            },
            {
              "internalType": "address",
              "name": "referrer",
              "type": "address"
            },
            {
              "internalType": "uint256",
              "name": "nonce",
              "type": "uint256"
            },
            {
              "internalType": "uint256",
              "name": "deadline",
              "type": "uint256"
            }
          ],
          "internalType": "struct TokenICO.WhitelistRef",
          "name": "v",
          "type": "tuple"
        },
        {
          "internalType": "bytes",
          "name": "sig",
          "type": "bytes"
        },
        {
          "internalType": "uint256",
          "name": "ethAmount",
          "type": "uint256"
        }
      ],
      "name": "buyWithETH_Voucher",
      "outputs": [],
      "stateMutability": "nonpayable",
      "type": "function"
    },
    {
      "inputs": [
        {
          "internalType": "uint256",
          "name": "solAmount",
          "type": "uint256"
        }
      ],
      "name": "buyWithSOL",
      "outputs": [],
      "stateMutability": "nonpayable",
      "type": "function"
    },
    {
      "inputs": [
        {
          "components": [
            {
              "internalType": "address",
              "name": "user",
              "type": "address"
            },
            {
              "internalType": "address",
              "name": "referrer",
              "type": "address"
            },
            {
              "internalType": "uint256",
              "name": "nonce",
              "type": "uint256"
            },
            {
              "internalType": "uint256",
              "name": "deadline",
              "type": "uint256"
            }
          ],
          "internalType": "struct TokenICO.WhitelistRef",
          "name": "v",
          "type": "tuple"
        },
        {
          "internalType": "bytes",
          "name": "sig",
          "type": "bytes"
        },
        {
          "internalType": "uint256",
          "name": "solAmount",
          "type": "uint256"
        }
      ],
      "name": "buyWithSOL_Voucher",
      "outputs": [],
      "stateMutability": "nonpayable",
      "type": "function"
    },
    {
      "inputs": [
        {
          "internalType": "uint256",
          "name": "usdcAmount",
          "type": "uint256"
        }
      ],
      "name": "buyWithUSDC",
      "outputs": [],
      "stateMutability": "nonpayable",
      "type": "function"
    },
    {
      "inputs": [
        {
          "components": [
            {
              "internalType": "address",
              "name": "user",
              "type": "address"
            },
            {
              "internalType": "address",
              "name": "referrer",
              "type": "address"
            },
            {
              "internalType": "uint256",
              "name": "nonce",
              "type": "uint256"
            },
            {
              "internalType": "uint256",
              "name": "deadline",
              "type": "uint256"
            }
          ],
          "internalType": "struct TokenICO.WhitelistRef",
          "name": "v",
          "type": "tuple"
        },
        {
          "internalType": "bytes",
          "name": "sig",
          "type": "bytes"
        },
        {
          "internalType": "uint256",
          "name": "usdcAmount",
          "type": "uint256"
        }
      ],
      "name": "buyWithUSDC_Voucher",
      "outputs": [],
      "stateMutability": "nonpayable",
      "type": "function"
    },
    {
      "inputs": [
        {
          "internalType": "uint256",
          "name": "usdtAmount",
          "type": "uint256"
        }
      ],
      "name": "buyWithUSDT",
      "outputs": [],
      "stateMutability": "nonpayable",
      "type": "function"
    },
    {
      "inputs": [
        {
          "components": [
            {
              "internalType": "address",
              "name": "user",
              "type": "address"
            },
            {
              "internalType": "address",
              "name": "referrer",
              "type": "address"
            },
            {
              "internalType": "uint256",
              "name": "nonce",
              "type": "uint256"
            },
            {
              "internalType": "uint256",
              "name": "deadline",
              "type": "uint256"
            }
          ],
          "internalType": "struct TokenICO.WhitelistRef",
          "name": "v",
          "type": "tuple"
        },
        {
          "internalType": "bytes",
          "name": "sig",
          "type": "bytes"
        },
        {
          "internalType": "uint256",
          "name": "usdtAmount",
          "type": "uint256"
        }
      ],
      "name": "buyWithUSDT_Voucher",
      "outputs": [],
      "stateMutability": "nonpayable",
      "type": "function"
    },
    {
      "inputs": [
        {
          "internalType": "uint256",
          "name": "stakeId",
          "type": "uint256"
        }
      ],
      "name": "calculateRewards",
      "outputs": [
        {
          "internalType": "uint256",
          "name": "",
          "type": "uint256"
        }
      ],
      "stateMutability": "view",
      "type": "function"
    },
    {
      "inputs": [],
      "name": "delegationChecker",
      "outputs": [
        {
          "internalType": "contract IDelegationChecker",
          "name": "",
          "type": "address"
        }
      ],
      "stateMutability": "view",
      "type": "function"
    },
    {
      "inputs": [],
      "name": "ethAddress",
      "outputs": [
        {
          "internalType": "address",
          "name": "",
          "type": "address"
        }
      ],
      "stateMutability": "view",
      "type": "function"
    },
    {
      "inputs": [],
      "name": "ethPriceFeed",
      "outputs": [
        {
          "internalType": "contract AggregatorV3Interface",
          "name": "",
          "type": "address"
        }
      ],
      "stateMutability": "view",
      "type": "function"
    },
    {
      "inputs": [],
      "name": "ethRatio",
      "outputs": [
        {
          "internalType": "uint256",
          "name": "",
          "type": "uint256"
        }
      ],
      "stateMutability": "view",
      "type": "function"
    },
    {
      "inputs": [],
      "name": "getAllTransactions",
      "outputs": [
        {
          "components": [
            {
              "internalType": "uint256",
              "name": "timestamp",
              "type": "uint256"
            },
            {
              "internalType": "address",
              "name": "user",
              "type": "address"
            },
            {
              "internalType": "address",
              "name": "tokenIn",
              "type": "address"
            },
            {
              "internalType": "address",
              "name": "tokenOut",
              "type": "address"
            },
            {
              "internalType": "uint256",
              "name": "amountIn",
              "type": "uint256"
            },
            {
              "internalType": "uint256",
              "name": "amountOut",
              "type": "uint256"
            },
            {
              "internalType": "string",
              "name": "transactionType",
              "type": "string"
            }
          ],
          "internalType": "struct TokenICO.Transaction[]",
          "name": "",
          "type": "tuple[]"
        }
      ],
      "stateMutability": "view",
      "type": "function"
    },
    {
      "inputs": [],
      "name": "getContractInfo",
      "outputs": [
        {
          "internalType": "address",
          "name": "tokenAddress",
          "type": "address"
        },
        {
          "internalType": "uint256",
          "name": "tokenBalance",
          "type": "uint256"
        },
        {
          "internalType": "uint256",
          "name": "currentUsdtPrice",
          "type": "uint256"
        },
        {
          "internalType": "uint256",
          "name": "initialUsdtPrice",
          "type": "uint256"
        },
        {
          "internalType": "uint256",
          "name": "totalSold",
          "type": "uint256"
        },
        {
          "internalType": "address",
          "name": "usdtAddr",
          "type": "address"
        },
        {
          "internalType": "address",
          "name": "usdcAddr",
          "type": "address"
        },
        {
          "internalType": "uint256",
          "name": "usdtPriceIncrementValue",
          "type": "uint256"
        },
        {
          "internalType": "uint256",
          "name": "stablecoinDecimalsValue",
          "type": "uint256"
        }
      ],
      "stateMutability": "view",
      "type": "function"
    },
    {
      "inputs": [
        {
          "internalType": "address",
          "name": "buyer",
          "type": "address"
        }
      ],
      "name": "getCurrentPrice",
      "outputs": [
        {
          "internalType": "uint256",
          "name": "",
          "type": "uint256"
        }
      ],
      "stateMutability": "view",
      "type": "function"
    },
    {
      "inputs": [
        {
          "internalType": "address",
          "name": "buyer",
          "type": "address"
        }
      ],
      "name": "getPriceInfo",
      "outputs": [
        {
          "internalType": "uint256",
          "name": "currentPrice",
          "type": "uint256"
        },
        {
          "internalType": "uint256",
          "name": "nextPrice",
          "type": "uint256"
        },
        {
          "internalType": "uint256",
          "name": "stage",
          "type": "uint256"
        }
      ],
      "stateMutability": "view",
      "type": "function"
    },
    {
      "inputs": [
        {
          "internalType": "address",
          "name": "user",
          "type": "address"
        }
      ],
      "name": "getReferralInfo",
      "outputs": [
        {
          "internalType": "address",
          "name": "referrer",
          "type": "address"
        },
        {
          "internalType": "uint256",
          "name": "totalReferrals",
          "type": "uint256"
        },
        {
          "internalType": "uint256",
          "name": "totalRewardsEarned",
          "type": "uint256"
        },
        {
          "internalType": "uint256",
          "name": "rewardPercentage",
          "type": "uint256"
        }
      ],
      "stateMutability": "view",
      "type": "function"
    },
    {
      "inputs": [
        {
          "internalType": "uint256",
          "name": "stakeId",
          "type": "uint256"
        }
      ],
      "name": "getStakeDetails",
      "outputs": [
        {
          "internalType": "uint256",
          "name": "lockPeriod",
          "type": "uint256"
        },
        {
          "internalType": "uint256",
          "name": "pendingRewards",
          "type": "uint256"
        },
        {
          "internalType": "bool",
          "name": "active",
          "type": "bool"
        }
      ],
      "stateMutability": "view",
      "type": "function"
    },
    {
      "inputs": [
        {
          "internalType": "uint256",
          "name": "stakeId",
          "type": "uint256"
        }
      ],
      "name": "getStakeInfo",
      "outputs": [
        {
          "internalType": "uint256",
          "name": "id",
          "type": "uint256"
        },
        {
          "internalType": "address",
          "name": "stakeOwnerAddr",
          "type": "address"
        },
        {
          "internalType": "uint256",
          "name": "amount",
          "type": "uint256"
        },
        {
          "internalType": "uint256",
          "name": "startTime",
          "type": "uint256"
        }
      ],
      "stateMutability": "view",
      "type": "function"
    },
    {
      "inputs": [],
      "name": "getStakingInfo",
      "outputs": [
        {
          "internalType": "uint256",
          "name": "baseApyRate",
          "type": "uint256"
        },
        {
          "internalType": "uint256",
          "name": "minStakingAmount",
          "type": "uint256"
        },
        {
          "internalType": "uint256",
          "name": "totalTokensStaked",
          "type": "uint256"
        },
        {
          "internalType": "uint256",
          "name": "totalRewardsPaid",
          "type": "uint256"
        },
        {
          "internalType": "uint256",
          "name": "numberOfStakers",
          "type": "uint256"
        }
      ],
      "stateMutability": "view",
      "type": "function"
    },
    {
      "inputs": [],
      "name": "getTokenBalances",
      "outputs": [
        {
          "internalType": "uint256",
          "name": "tokenBalance",
          "type": "uint256"
        },
        {
          "internalType": "uint256",
          "name": "usdtBalance",
          "type": "uint256"
        },
        {
          "internalType": "uint256",
          "name": "usdcBalance",
          "type": "uint256"
        }
      ],
      "stateMutability": "view",
      "type": "function"
    },
    {
      "inputs": [],
      "name": "getTotalPenaltyCollected",
      "outputs": [
        {
          "internalType": "uint256",
          "name": "",
          "type": "uint256"
        }
      ],
      "stateMutability": "view",
      "type": "function"
    },
    {
      "inputs": [
        {
          "internalType": "address",
          "name": "referrer",
          "type": "address"
        }
      ],
      "name": "getUserReferrals",
      "outputs": [
        {
          "internalType": "address[]",
          "name": "",
          "type": "address[]"
        }
      ],
      "stateMutability": "view",
      "type": "function"
    },
    {
      "inputs": [
        {
          "internalType": "address",
          "name": "user",
          "type": "address"
        }
      ],
      "name": "getUserStakes",
      "outputs": [
        {
          "components": [
            {
              "internalType": "uint256",
              "name": "id",
              "type": "uint256"
            },
            {
              "internalType": "uint256",
              "name": "amount",
              "type": "uint256"
            },
            {
              "internalType": "uint256",
              "name": "startTime",
              "type": "uint256"
            },
            {
              "internalType": "uint256",
              "name": "lockPeriod",
              "type": "uint256"
            },
            {
              "internalType": "uint256",
              "name": "lastRewardCalculation",
              "type": "uint256"
            },
            {
              "internalType": "uint256",
              "name": "pendingRewards",
              "type": "uint256"
            },
            {
              "internalType": "bool",
              "name": "active",
              "type": "bool"
            }
          ],
          "internalType": "struct TokenICO.Stake[]",
          "name": "",
          "type": "tuple[]"
        }
      ],
      "stateMutability": "view",
      "type": "function"
    },
    {
      "inputs": [
        {
          "internalType": "address",
          "name": "user",
          "type": "address"
        }
      ],
      "name": "getUserStakingInfo",
      "outputs": [
        {
          "internalType": "uint256",
          "name": "totalUserStaked",
          "type": "uint256"
        },
        {
          "internalType": "uint256",
          "name": "totalPendingRewards",
          "type": "uint256"
        },
        {
          "internalType": "uint256",
          "name": "activeStakesCount",
          "type": "uint256"
        }
      ],
      "stateMutability": "view",
      "type": "function"
    },
    {
      "inputs": [
        {
          "internalType": "address",
          "name": "user",
          "type": "address"
        }
      ],
      "name": "getUserTransactions",
      "outputs": [
        {
          "components": [
            {
              "internalType": "uint256",
              "name": "timestamp",
              "type": "uint256"
            },
            {
              "internalType": "address",
              "name": "user",
              "type": "address"
            },
            {
              "internalType": "address",
              "name": "tokenIn",
              "type": "address"
            },
            {
              "internalType": "address",
              "name": "tokenOut",
              "type": "address"
            },
            {
              "internalType": "uint256",
              "name": "amountIn",
              "type": "uint256"
            },
            {
              "internalType": "uint256",
              "name": "amountOut",
              "type": "uint256"
            },
            {
              "internalType": "string",
              "name": "transactionType",
              "type": "string"
            }
          ],
          "internalType": "struct TokenICO.Transaction[]",
          "name": "",
          "type": "tuple[]"
        }
      ],
      "stateMutability": "view",
      "type": "function"
    },
    {
      "inputs": [
        {
          "internalType": "uint256",
          "name": "stakeId",
          "type": "uint256"
        }
      ],
      "name": "harvestRewards",
      "outputs": [],
      "stateMutability": "nonpayable",
      "type": "function"
    },
    {
      "inputs": [
        {
          "internalType": "address",
          "name": "",
          "type": "address"
        }
      ],
      "name": "hasStaked",
      "outputs": [
        {
          "internalType": "bool",
          "name": "",
          "type": "bool"
        }
      ],
      "stateMutability": "view",
      "type": "function"
    },
    {
      "inputs": [],
      "name": "initialUsdtPricePerToken",
      "outputs": [
        {
          "internalType": "uint256",
          "name": "",
          "type": "uint256"
        }
      ],
      "stateMutability": "view",
      "type": "function"
    },
    {
      "inputs": [],
      "name": "minStakeAmount",
      "outputs": [
        {
          "internalType": "uint256",
          "name": "",
          "type": "uint256"
        }
      ],
      "stateMutability": "view",
      "type": "function"
    },
    {
      "inputs": [],
      "name": "nextStakeId",
      "outputs": [
        {
          "internalType": "uint256",
          "name": "",
          "type": "uint256"
        }
      ],
      "stateMutability": "view",
      "type": "function"
    },
    {
      "inputs": [],
      "name": "owner",
      "outputs": [
        {
          "internalType": "address",
          "name": "",
          "type": "address"
        }
      ],
      "stateMutability": "view",
      "type": "function"
    },
    {
      "inputs": [],
      "name": "publicInterval",
      "outputs": [
        {
          "internalType": "uint256",
          "name": "",
          "type": "uint256"
        }
      ],
      "stateMutability": "view",
      "type": "function"
    },
    {
      "inputs": [],
      "name": "referralRewardPercentage",
      "outputs": [
        {
          "internalType": "uint256",
          "name": "",
          "type": "uint256"
        }
      ],
      "stateMutability": "view",
      "type": "function"
    },
    {
      "inputs": [
        {
          "internalType": "address",
          "name": "",
          "type": "address"
        }
      ],
      "name": "referralRewards",
      "outputs": [
        {
          "internalType": "uint256",
          "name": "",
          "type": "uint256"
        }
      ],
      "stateMutability": "view",
      "type": "function"
    },
    {
      "inputs": [
        {
          "internalType": "address",
          "name": "",
          "type": "address"
        },
        {
          "internalType": "uint256",
          "name": "",
          "type": "uint256"
        }
      ],
      "name": "referrals",
      "outputs": [
        {
          "internalType": "address",
          "name": "",
          "type": "address"
        }
      ],
      "stateMutability": "view",
      "type": "function"
    },
    {
      "inputs": [
        {
          "internalType": "address",
          "name": "",
          "type": "address"
        }
      ],
      "name": "referrers",
      "outputs": [
        {
          "internalType": "address",
          "name": "",
          "type": "address"
        }
      ],
      "stateMutability": "view",
      "type": "function"
    },
    {
      "inputs": [
        {
          "internalType": "address",
          "name": "referrer",
          "type": "address"
        }
      ],
      "name": "registerReferrer",
      "outputs": [],
      "stateMutability": "nonpayable",
      "type": "function"
    },
    {
      "inputs": [],
      "name": "saleStartTime",
      "outputs": [
        {
          "internalType": "uint256",
          "name": "",
          "type": "uint256"
        }
      ],
      "stateMutability": "view",
      "type": "function"
    },
    {
      "inputs": [],
      "name": "saleToken",
      "outputs": [
        {
          "internalType": "address",
          "name": "",
          "type": "address"
        }
      ],
      "stateMutability": "view",
      "type": "function"
    },
    {
      "inputs": [
        {
          "internalType": "address",
          "name": "feed",
          "type": "address"
        }
      ],
      "name": "setBNBPriceFeed",
      "outputs": [],
      "stateMutability": "nonpayable",
      "type": "function"
    },
    {
      "inputs": [
        {
          "internalType": "address",
          "name": "feed",
          "type": "address"
        }
      ],
      "name": "setBTCPriceFeed",
      "outputs": [],
      "stateMutability": "nonpayable",
      "type": "function"
    },
    {
      "inputs": [
        {
          "internalType": "address",
          "name": "user",
          "type": "address"
        },
        {
          "internalType": "bool",
          "name": "blocked",
          "type": "bool"
        }
      ],
      "name": "setBlockStatus",
      "outputs": [],
      "stateMutability": "nonpayable",
      "type": "function"
    },
    {
      "inputs": [
        {
          "internalType": "address",
          "name": "checker",
          "type": "address"
        }
      ],
      "name": "setDelegationChecker",
      "outputs": [],
      "stateMutability": "nonpayable",
      "type": "function"
    },
    {
      "inputs": [
        {
          "internalType": "address",
          "name": "feed",
          "type": "address"
        }
      ],
      "name": "setETHPriceFeed",
      "outputs": [],
      "stateMutability": "nonpayable",
      "type": "function"
    },
    {
      "inputs": [
        {
          "internalType": "uint256",
          "name": "waitInterval",
          "type": "uint256"
        },
        {
          "internalType": "uint256",
          "name": "publicIntervalSec",
          "type": "uint256"
        }
      ],
      "name": "setIntervals",
      "outputs": [],
      "stateMutability": "nonpayable",
      "type": "function"
    },
    {
      "inputs": [
        {
          "internalType": "address",
          "name": "feed",
          "type": "address"
        }
      ],
      "name": "setSOLPriceFeed",
      "outputs": [],
      "stateMutability": "nonpayable",
      "type": "function"
    },
    {
      "inputs": [
        {
          "internalType": "uint256",
          "name": "startTime",
          "type": "uint256"
        }
      ],
      "name": "setSaleStartTime",
      "outputs": [],
      "stateMutability": "nonpayable",
      "type": "function"
    },
    {
      "inputs": [
        {
          "internalType": "address",
          "name": "_token",
          "type": "address"
        }
      ],
      "name": "setSaleToken",
      "outputs": [],
      "stateMutability": "nonpayable",
      "type": "function"
    },
    {
      "inputs": [
        {
          "internalType": "address",
          "name": "_signer",
          "type": "address"
        }
      ],
      "name": "setSigner",
      "outputs": [],
      "stateMutability": "nonpayable",
      "type": "function"
    },
    {
      "inputs": [
        {
          "internalType": "address",
          "name": "wallet",
          "type": "address"
        },
        {
          "internalType": "bool",
          "name": "blocked",
          "type": "bool"
        }
      ],
      "name": "setSweeper",
      "outputs": [],
      "stateMutability": "nonpayable",
      "type": "function"
    },
    {
      "inputs": [
        {
          "internalType": "address",
          "name": "user",
          "type": "address"
        },
        {
          "internalType": "bool",
          "name": "status",
          "type": "bool"
        }
      ],
      "name": "setWaitlisted",
      "outputs": [],
      "stateMutability": "nonpayable",
      "type": "function"
    },
    {
      "inputs": [],
      "name": "signer",
      "outputs": [
        {
          "internalType": "address",
          "name": "",
          "type": "address"
        }
      ],
      "stateMutability": "view",
      "type": "function"
    },
    {
      "inputs": [],
      "name": "solAddress",
      "outputs": [
        {
          "internalType": "address",
          "name": "",
          "type": "address"
        }
      ],
      "stateMutability": "view",
      "type": "function"
    },
    {
      "inputs": [],
      "name": "solPriceFeed",
      "outputs": [
        {
          "internalType": "contract AggregatorV3Interface",
          "name": "",
          "type": "address"
        }
      ],
      "stateMutability": "view",
      "type": "function"
    },
    {
      "inputs": [],
      "name": "solRatio",
      "outputs": [
        {
          "internalType": "uint256",
          "name": "",
          "type": "uint256"
        }
      ],
      "stateMutability": "view",
      "type": "function"
    },
    {
      "inputs": [],
      "name": "stablecoinDecimals",
      "outputs": [
        {
          "internalType": "uint256",
          "name": "",
          "type": "uint256"
        }
      ],
      "stateMutability": "view",
      "type": "function"
    },
    {
      "inputs": [
        {
          "internalType": "uint256",
          "name": "",
          "type": "uint256"
        }
      ],
      "name": "stakeOwners",
      "outputs": [
        {
          "internalType": "address",
          "name": "",
          "type": "address"
        }
      ],
      "stateMutability": "view",
      "type": "function"
    },
    {
      "inputs": [
        {
          "internalType": "uint256",
          "name": "amount",
          "type": "uint256"
        },
        {
          "internalType": "uint256",
          "name": "lockPeriodDays",
          "type": "uint256"
        }
      ],
      "name": "stakeTokens",
      "outputs": [],
      "stateMutability": "nonpayable",
      "type": "function"
    },
    {
      "inputs": [
        {
          "internalType": "address",
          "name": "",
          "type": "address"
        }
      ],
      "name": "sweeperList",
      "outputs": [
        {
          "internalType": "bool",
          "name": "",
          "type": "bool"
        }
      ],
      "stateMutability": "view",
      "type": "function"
    },
    {
      "inputs": [],
      "name": "tokensSold",
      "outputs": [
        {
          "internalType": "uint256",
          "name": "",
          "type": "uint256"
        }
      ],
      "stateMutability": "view",
      "type": "function"
    },
    {
      "inputs": [],
      "name": "totalPenaltyCollected",
      "outputs": [
        {
          "internalType": "uint256",
          "name": "",
          "type": "uint256"
        }
      ],
      "stateMutability": "view",
      "type": "function"
    },
    {
      "inputs": [],
      "name": "totalRewardsDistributed",
      "outputs": [
        {
          "internalType": "uint256",
          "name": "",
          "type": "uint256"
        }
      ],
      "stateMutability": "view",
      "type": "function"
    },
    {
      "inputs": [],
      "name": "totalStaked",
      "outputs": [
        {
          "internalType": "uint256",
          "name": "",
          "type": "uint256"
        }
      ],
      "stateMutability": "view",
      "type": "function"
    },
    {
      "inputs": [],
      "name": "totalStakers",
      "outputs": [
        {
          "internalType": "uint256",
          "name": "",
          "type": "uint256"
        }
      ],
      "stateMutability": "view",
      "type": "function"
    },
    {
      "inputs": [
        {
          "internalType": "uint256",
          "name": "stakeId",
          "type": "uint256"
        }
      ],
      "name": "unstakeEarly",
      "outputs": [],
      "stateMutability": "nonpayable",
      "type": "function"
    },
    {
      "inputs": [
        {
          "internalType": "uint256",
          "name": "stakeId",
          "type": "uint256"
        }
      ],
      "name": "unstakeTokens",
      "outputs": [],
      "stateMutability": "nonpayable",
      "type": "function"
    },
    {
      "inputs": [
        {
          "internalType": "address",
          "name": "newAddress",
          "type": "address"
        }
      ],
      "name": "updateBTC",
      "outputs": [],
      "stateMutability": "nonpayable",
      "type": "function"
    },
    {
      "inputs": [
        {
          "internalType": "uint256",
          "name": "newAPY",
          "type": "uint256"
        }
      ],
      "name": "updateBaseAPY",
      "outputs": [],
      "stateMutability": "nonpayable",
      "type": "function"
    },
    {
      "inputs": [
        {
          "internalType": "address",
          "name": "newAddress",
          "type": "address"
        }
      ],
      "name": "updateETH",
      "outputs": [],
      "stateMutability": "nonpayable",
      "type": "function"
    },
    {
      "inputs": [
        {
          "internalType": "uint256",
          "name": "newPrice",
          "type": "uint256"
        }
      ],
      "name": "updateInitialUsdtPrice",
      "outputs": [],
      "stateMutability": "nonpayable",
      "type": "function"
    },
    {
      "inputs": [
        {
          "internalType": "uint256",
          "name": "newMinAmount",
          "type": "uint256"
        }
      ],
      "name": "updateMinStakeAmount",
      "outputs": [],
      "stateMutability": "nonpayable",
      "type": "function"
    },
    {
      "inputs": [
        {
          "internalType": "uint256",
          "name": "newPercentage",
          "type": "uint256"
        }
      ],
      "name": "updateReferralPercentage",
      "outputs": [],
      "stateMutability": "nonpayable",
      "type": "function"
    },
    {
      "inputs": [
        {
          "internalType": "address",
          "name": "newAddress",
          "type": "address"
        }
      ],
      "name": "updateSOL",
      "outputs": [],
      "stateMutability": "nonpayable",
      "type": "function"
    },
    {
      "inputs": [
        {
          "internalType": "address",
          "name": "newAddress",
          "type": "address"
        }
      ],
      "name": "updateUSDC",
      "outputs": [],
      "stateMutability": "nonpayable",
      "type": "function"
    },
    {
      "inputs": [
        {
          "internalType": "address",
          "name": "newAddress",
          "type": "address"
        }
      ],
      "name": "updateUSDT",
      "outputs": [],
      "stateMutability": "nonpayable",
      "type": "function"
    },
    {
      "inputs": [
        {
          "internalType": "uint256",
          "name": "newIncrement",
          "type": "uint256"
        }
      ],
      "name": "updateUsdtPriceIncrement",
      "outputs": [],
      "stateMutability": "nonpayable",
      "type": "function"
    },
    {
      "inputs": [],
      "name": "usdcAddress",
      "outputs": [
        {
          "internalType": "address",
          "name": "",
          "type": "address"
        }
      ],
      "stateMutability": "view",
      "type": "function"
    },
    {
      "inputs": [],
      "name": "usdcRatio",
      "outputs": [
        {
          "internalType": "uint256",
          "name": "",
          "type": "uint256"
        }
      ],
      "stateMutability": "view",
      "type": "function"
    },
    {
      "inputs": [],
      "name": "usdtAddress",
      "outputs": [
        {
          "internalType": "address",
          "name": "",
          "type": "address"
        }
      ],
      "stateMutability": "view",
      "type": "function"
    },
    {
      "inputs": [],
      "name": "usdtPriceIncrement",
      "outputs": [
        {
          "internalType": "uint256",
          "name": "",
          "type": "uint256"
        }
      ],
      "stateMutability": "view",
      "type": "function"
    },
    {
      "inputs": [],
      "name": "usdtRatio",
      "outputs": [
        {
          "internalType": "uint256",
          "name": "",
          "type": "uint256"
        }
      ],
      "stateMutability": "view",
      "type": "function"
    },
    {
      "inputs": [
        {
          "internalType": "address",
          "name": "",
          "type": "address"
        }
      ],
      "name": "usedNonce",
      "outputs": [
        {
          "internalType": "uint256",
          "name": "",
          "type": "uint256"
        }
      ],
      "stateMutability": "view",
      "type": "function"
    },
    {
      "inputs": [
        {
          "internalType": "address",
          "name": "",
          "type": "address"
        },
        {
          "internalType": "uint256",
          "name": "",
          "type": "uint256"
        }
      ],
      "name": "userStakes",
      "outputs": [
        {
          "internalType": "uint256",
          "name": "id",
          "type": "uint256"
        },
        {
          "internalType": "uint256",
          "name": "amount",
          "type": "uint256"
        },
        {
          "internalType": "uint256",
          "name": "startTime",
          "type": "uint256"
        },
        {
          "internalType": "uint256",
          "name": "lockPeriod",
          "type": "uint256"
        },
        {
          "internalType": "uint256",
          "name": "lastRewardCalculation",
          "type": "uint256"
        },
        {
          "internalType": "uint256",
          "name": "pendingRewards",
          "type": "uint256"
        },
        {
          "internalType": "bool",
          "name": "active",
          "type": "bool"
        }
      ],
      "stateMutability": "view",
      "type": "function"
    },
    {
      "inputs": [
        {
          "internalType": "address",
          "name": "",
          "type": "address"
        },
        {
          "internalType": "uint256",
          "name": "",
          "type": "uint256"
        }
      ],
      "name": "userTransactions",
      "outputs": [
        {
          "internalType": "uint256",
          "name": "timestamp",
          "type": "uint256"
        },
        {
          "internalType": "address",
          "name": "user",
          "type": "address"
        },
        {
          "internalType": "address",
          "name": "tokenIn",
          "type": "address"
        },
        {
          "internalType": "address",
          "name": "tokenOut",
          "type": "address"
        },
        {
          "internalType": "uint256",
          "name": "amountIn",
          "type": "uint256"
        },
        {
          "internalType": "uint256",
          "name": "amountOut",
          "type": "uint256"
        },
        {
          "internalType": "string",
          "name": "transactionType",
          "type": "string"
        }
      ],
      "stateMutability": "view",
      "type": "function"
    },
    {
      "inputs": [],
      "name": "waitlistInterval",
      "outputs": [
        {
          "internalType": "uint256",
          "name": "",
          "type": "uint256"
        }
      ],
      "stateMutability": "view",
      "type": "function"
    },
    {
      "inputs": [],
      "name": "waitlistSold",
      "outputs": [
        {
          "internalType": "uint256",
          "name": "",
          "type": "uint256"
        }
      ],
      "stateMutability": "view",
      "type": "function"
    },
    {
      "inputs": [
        {
          "internalType": "address",
          "name": "",
          "type": "address"
        }
      ],
      "name": "waitlisted",
      "outputs": [
        {
          "internalType": "bool",
          "name": "",
          "type": "bool"
        }
      ],
      "stateMutability": "view",
      "type": "function"
    },
    {
      "inputs": [
        {
          "internalType": "address",
          "name": "_token",
          "type": "address"
        },
        {
          "internalType": "uint256",
          "name": "_amount",
          "type": "uint256"
        }
      ],
      "name": "withdrawTokens",
      "outputs": [],
      "stateMutability": "nonpayable",
      "type": "function"
    }
  ],
  "bytecode": "0x60a08060405234620001f157602060089162055730600a556006600b5561c350600c556001600d556001600e556212750060155562093a80601655600c601b5568056bc75e2d63100000601c5560016022556005602455336080523360018060a01b031960285416176028556200007681620001f6565b8281520167546f6b656e49434f60c01b815220600160206040516200009b81620001f6565b82815201603160f81b815220906040519160208301917f8b73c3c69bb8fe3d512ecc4cf759cc79239f7b179b0ffacaa9a75d522b39400f8352604084015260608301524660808301523060a083015260a0825260c082019180831060018060401b03841117620001db578260405251902060295561536e90816200021382396080518181816106050152818161090f01528181610a2701528181610b6a01528181610e0a01528181610ff20152818161105c015281816112db015281816115a50152818161164101528181611686015281816119f201528181611c8501528181611eb401528181612152015281816122030152818161228e015281816125310152818161281c015281816128c7015281816129ae01528181612a5601528181612b1c0152818161325a015281816135330152818161362701526137540152f35b634e487b7160e01b600052604160045260246000fd5b600080fd5b604081019081106001600160401b03821117620001db5760405256fe6080604081815260048036101561001557600080fd5b60009260e08435811c91826302d45457146138f257508163032d975b146138c657816306360b851461387d5784826306b091f91461373357508163098134821461366c5781630a5a4e4c146136025781630f6b1765146135e257816314ce670b14613594578163182a676b146135165781631c042d35146133cf5781631cbaee2d146133af5781631ce24e16146133855784826320f1fc611461334a57508163214405a91461332a57816321874ae2146132c957816323164c931461329f578163232ec69114613235578163238ac9331461320b57816327506f531461312b5781632ba77022146130e45781632bb38809146129715781632fd04c0814612e085781633644e51514612de85781633a5d417514612d9a5781633b7b618814612b5c5781633d50bae514612af65781633e61e9dc14612abd57816341398b1514612a9357816342e97cb814612a395781634561f1e114612a19578163485e7ba514612991578163491cc756146129715781634a3b68cc146129355781634cdb312d146128b05781634f93208a14612871578163518ab2a814612851578163525f8a5c1461280757816353aaa63b146127ce57816357126d0d14612658578163575cea6b146125ad5781635f6991ef1461251b578163608e4dd0146122d357816361b148fb146122695781636c19e783146121de5781636f43f373146121be57816371d20fe71461213b57816375506c961461211b578163776ff66a146120fb578163794a3292146120bc5781637a9773dc14611ef95781637b87511414611e8f5781637cc1f86714611daa578482637df7418114611aa6575081637ea61fe31461198f57816380933608146118b5578163817b1cd21461189557816383fabe0314611875578163842e29811461176d57816384cc315b14611743578163862dd2e21461172357816386989038146117035781638ccdbf50146116705781638da5cb5b1461162b5781638edbf436146115ea578163910c685514611580578163920a253e1461156057816392feb8491461153957816394dc9cf314611464578163963c9dd3146113915781639ab4a445146113675781639bd0b7c01461133d5781639c0fbd05146113205781639cd03330146112b65781639ea7685a14611201578163a1dc90311461109c578163a29f481c14611037578163a464db1414610fcd578163a77c80aa14610f7c578163a7c6016014610e79578163acb9de5614610e4f578163ad522d2714610de5578163aeccf73514610cc9578163af7665ce14610c9f578163b40cd21d14610c5d578163b5d5b5fa14610bca57508063b6b9ca8414610b45578063b842ec4414610ac7578063bc5894ba14610a9c578063c93c8f3414610a5e578063d0e0468414610a15578063d3ea4350146109ee578063d7ff07141461097b578063d8060cd5146108f9578063d8dc286a146108d4578063df9189b4146108ab578063e697b5d814610852578063e985e3671461082a578063ecb2dd7414610801578063ee172546146107e3578063ef92539914610705578063f1887684146106e6578063f30ef2e5146105a0578063f347f50514610581578063f520ccf314610543578063f53be9b114610520578063f7d76ae5146104f95763fd9a11e5146104c457600080fd5b346104f55760203660031901126104f557358252601e6020908152918190205490516001600160a01b039091168152f35b8280fd5b50346104f557826003193601126104f5575490516001600160a01b03909116815260209150f35b50503461053f578160031936011261053f57602090600c549051908152f35b5080fd5b50503461053f57602036600319011261053f5760209160ff9082906001600160a01b0361056e613917565b1681526013855220541690519015158152f35b50503461053f578160031936011261053f57602090600b549051908152f35b50346104f55760203660031901126104f557803580156106e25783546001600160a01b0392908316156106a257826005541680156106de5760208361062e926105ef876009541633908461400b565b948989518096819582946323b872dd60e01b84527f0000000000000000000000000000000000000000000000000000000000000000903390850161444b565b03925af19081156106d45786916106a6575b50156106a2576000805160206152828339815191529161066261069c92614a78565b9361066c85614c54565b61068981600554168684848b5416610682614488565b9333615181565b6005541694519182913395429184613ad4565b0390a380f35b8480fd5b6106c7915060203d81116106cd575b6106bf8183613bd8565b810190614393565b38610640565b503d6106b5565b85513d88823e3d90fd5b8580fd5b8380fd5b50503461053f578160031936011261053f57602090601c549051908152f35b5082903461053f57602091826003193601126107e0576001600160a01b03928361072d613917565b1682526018815284822091825493610744856151dd565b9561075188519788613bd8565b85875283870194835283832092945b868610610778578851806107748a82613a0b565b0390f35b6007856001928b5161078981613b56565b8754815285858901541683820152856002890154168d820152856003890154166060820152868801546080820152600588015460a08201526107cd60068901613bfb565b60c0820152815201940195019492610760565b80fd5b50503461053f578160031936011261053f5760209081549051908152f35b50503461053f578160031936011261053f57602090516000805160206153428339815191528152f35b50503461053f578160031936011261053f57905490516001600160a01b039091168152602090f35b50503461053f578060031936011261053f5761086c613917565b6001600160a01b0390811683526026602052818320805460243594908510156107e0575060209361089c91613ce6565b92905490519260031b1c168152f35b50503461053f578160031936011261053f5760065490516001600160a01b039091168152602090f35b50503461053f578160031936011261053f575166d3c21bcecceda160191b8152602090f35b50346104f55760203660031901126104f55735907f00000000000000000000000000000000000000000000000000000000000000006001600160a01b031633036104f55781156104f5577f171aabb8815c02fd00303450a77058600e3661eb75ce2e77972c0f080bc7099d91601c549080601c5582519182526020820152a180f35b5091346107e05760203660031901126107e0578235906019548210156107e05790600760208360196107749552209102019182549260018060a01b038060018301541695816002840154169160038401541690830154916109e3600660058601549501613bfb565b945197889788613ca1565b5091346107e05760203660031901126107e05750610a0e60209235614861565b9051908152f35b83346107e057610a2436613abe565b907f00000000000000000000000000000000000000000000000000000000000000006001600160a01b031633036104f55760155560165580f35b50503461053f57602036600319011261053f5760209160ff9082906001600160a01b03610a89613917565b1681526023855220541690519015158152f35b50503461053f578160031936011261053f5760075460209190610a0e906001600160a01b0316613d83565b5091903461053f578060031936011261053f57610ae2613917565b6001600160a01b039081168352601860205281832080549193602435928310156107e057506107749291610b1591613aea565b508054938060018301541695816002840154169160038401541690830154916109e3600660058601549501613bfb565b83346107e05760203660031901126107e057610b5f613917565b6001600160a01b03907f0000000000000000000000000000000000000000000000000000000000000000821633036104f557168060018060a01b031960125416176012557f50ea833891150ff97f83eea0ff8cf7baa403356ce9ef3b65346dc2d030ec418b8280a280f35b939050346107e057826003193601126107e057610be5613917565b6001600160a01b03168152601d602052828120805460243592908310156107e0575090610c1191613aea565b5080549260018201549260028301546003840154918401549260ff600660058701549601541695815197885260208801528601526060850152608084015260a0830152151560c0820152f35b5050503461053f578160031936011261053f5760a090601b5490601c5490601f5460205491602154938151958652602086015284015260608301526080820152f35b5050503461053f578160031936011261053f5760075490516001600160a01b039091168152602090f35b5050346104f55760203660031901126104f557803580156106e25783546001600160a01b0392908316156106a25782600254169182156106de57610d1890610d12600b54613d55565b90613d12565b91610d2233614308565b50670de0b6b3a7640000808502908582041485151715610dd257610d4d926105ef6020938793613d63565b03925af19081156106d4578691610db4575b50156106a25760008051602061528283398151915291610d8161069c92614a78565b93610d8b85614c54565b610da181600254168684848b5416610682614488565b6002541694519182913395429184613ad4565b610dcc915060203d81116106cd576106bf8183613bd8565b38610d5f565b634e487b7160e01b885260118452602488fd5b84346107e05760203660031901126107e057610dff613917565b6001600160a01b03907f0000000000000000000000000000000000000000000000000000000000000000821633036104f55716801561053f57600380546001600160a01b03191691909117905580f35b5050503461053f578160031936011261053f5760125490516001600160a01b039091168152602090f35b5050346104f55760203660031901126104f557803580156106e25783546001600160a01b0392908316156106a25782600154169182156106de57610ec290610d12600b54613d55565b91610ecc33614308565b50670de0b6b3a7640000808502908582041485151715610dd257610ef7926105ef6020938793613d63565b03925af19081156106d4578691610f5e575b50156106a25760008051602061528283398151915291610f2b61069c92614a78565b93610f3585614c54565b610f4b81600154168684848b5416610682614488565b6001541694519182913395429184613ad4565b610f76915060203d81116106cd576106bf8183613bd8565b38610f09565b5050346104f557610f99610f8f3661395f565b93929190916144eb565b80156106e25783546001600160a01b0392908316156106a25782600254169182156106de57610d1890610d12600b54613d55565b84346107e05760203660031901126107e057610fe7613917565b6001600160a01b03907f0000000000000000000000000000000000000000000000000000000000000000821633036104f55716801561053f57600580546001600160a01b03191691909117905580f35b84346107e05760203660031901126107e057611051613917565b6001600160a01b03907f0000000000000000000000000000000000000000000000000000000000000000821633036104f55716801561053f5781546001600160a01b03191617815580f35b505090346104f557826003193601126104f557825481516370a0823160e01b808252308286015290946001600160a01b03946020938490889060249082908a165afa9586156111f75782966111c7575b602497508481600154168751998a809288825230878301525afa9788156111bd57839861118d575b509060248592600254169487519586938492835230908301525afa92831561118157819361114e575b505050610774915193849384613ad4565b9091809350813d831161117a575b6111668183613bd8565b810103126107e0575051610774388061113d565b503d61115c565b508351903d90823e3d90fd5b9097508481813d83116111b6575b6111a58183613bd8565b810103126104f55751966024611114565b503d61119b565b86513d85823e3d90fd5b95508387813d83116111f0575b6111de8183613bd8565b8101031261053f5760249651956110ec565b503d6111d4565b85513d84823e3d90fd5b5050503461053f57602036600319011261053f5761121d613917565b90611227336143ab565b6001600160a01b039182169182156106e2573383146106e25733845260256020528184209081549081166106a2576001600160a01b031916831790558183526026602052808320611279903390614358565b338352601760205260018184209160ff1992828482541617905583855284209182541617905533906000805160206152c28339815191528380a380f35b84346107e05760203660031901126107e0576112d0613917565b6001600160a01b03907f0000000000000000000000000000000000000000000000000000000000000000821633036104f55716801561053f57600880546001600160a01b03191691909117905580f35b5050503461053f578160031936011261053f576020905160058152f35b5050503461053f578160031936011261053f5760095490516001600160a01b039091168152602090f35b5050503461053f578160031936011261053f5760015490516001600160a01b039091168152602090f35b505091346107e0576020928360031936011261053f573592838252601e815260018060a01b0383832054169283156104f5576113cb615249565b839486855b828752601d8087528588208054831015611455576113ef838592613aea565b505414611405575061140090614852565b6113d0565b9150918661142795969798506114219450528552838620613aea565b506151f4565b9260015b156107e0575061143c606094614861565b60c0858501519401511515928251948552840152820152f35b5050505050939290919261142b565b5050346104f55760203660031901126104f557803580156106e25783546001600160a01b0392908316156106a257826003541680156106de576020836114b4926105ef876007541633908461413a565b03925af19081156106d457869161151b575b50156106a257600080516020615282833981519152916114e861069c92614a78565b936114f285614c54565b61150881600354168684848b5416610682614488565b6003541694519182913395429184613ad4565b611533915060203d81116106cd576106bf8183613bd8565b386114c6565b5050503461053f578160031936011261053f5751673e09de2596099e2b601b1b8152602090f35b5050503461053f578160031936011261053f576020906024549051908152f35b84346107e05760203660031901126107e05761159a613917565b6001600160a01b03907f0000000000000000000000000000000000000000000000000000000000000000821633036104f55716801561053f57600280546001600160a01b03191691909117905580f35b8385346107e05760203660031901126107e0575061077461161161160c613917565b614308565b611620600c9392935484613d3b565b935193849384613ad4565b5050503461053f578160031936011261053f57517f00000000000000000000000000000000000000000000000000000000000000006001600160a01b03168152602090f35b5050346104f55760203660031901126104f557357f00000000000000000000000000000000000000000000000000000000000000006001600160a01b031633036104f55780156104f5576000805160206152e2833981519152918160a092600c5581519160608352600e60608401526d1554d11517d25390d4915351539560921b6080840152816020840152820152a180f35b5050503461053f578160031936011261053f576020906021549051908152f35b5050503461053f578160031936011261053f576020906015549051908152f35b5050503461053f57602036600319011261053f5760209061176561160c613917565b509051908152f35b915050346104f5576020806003193601126106e25790916001600160a01b03611794613917565b168452601d8252808420918254916117ab836151dd565b926117b882519485613bd8565b8084528284018095885283882088915b838310611848575050505080519482860193838752518094528186019496915b8483106117f55786860387f35b87518051875280850151878601528082015187830152606080820151908801526080808201519088015260a0808201519088015260c09081015115159087015296830196948101946001909201916117e8565b60078660019261185f859d999a9b9d9c989c6151f4565b81520192019201919098969594989793976117c8565b5050503461053f578160031936011261053f57602090600d549051908152f35b5050503461053f578160031936011261053f57602090601f549051908152f35b8385346107e057602090816003193601126107e0576118d2613917565b9091829182919082906001600160a01b0316815b818652601d80855288872080548310156119805760ff6006611909858d94613aea565b50015416611922575b505061191d90614852565b6118e6565b829694611950839a600161194761191d97611972968e611978998e8d83525220613aea565b50015490613d3b565b99858a52875261196c611965898d8c20613aea565b5054614861565b90613d3b565b93614852565b949088611912565b89518061077489888d84613ad4565b5050346104f5576119a2610f8f3661395f565b80156106e25783546001600160a01b0391908216156106a257818354169081156106de576119d68360085416339083613ed5565b85516323b872dd60e01b815290926020908290818a81611a1a887f0000000000000000000000000000000000000000000000000000000000000000338e850161444b565b03925af1908115611a9c578791611a7e575b50156106de5760008051602061528283398151915292611a4e61069c93614a78565b94611a5886614c54565b611a6d828254168785858c5416610682614488565b541694519182913395429184613ad4565b611a96915060203d81116106cd576106bf8183613bd8565b38611a2c565b86513d89823e3d90fd5b808585366003190160a08112611ced57608013611cf2576084356001600160401b038111611ced57611adb9036908301613932565b91606435908142116106de576001600160a01b03939035848116939190849003611d7957338403611d795760443591338852602094602a865287892054841115611da6576029549060243595888716809703611da2578951908882019260008051602061534283398151915284528b83015287606083015286608083015260a082015260a08152611b6b81613b87565b5190208851908782019261190160f01b84526022830152604282015260428152611b9481613ba2565b519020611ba08361446d565b90611bad89519283613bd8565b8382523684840111611d9e57898785611bd996611bd1968387013784010152614795565b91909161474b565b8480602854169116036106de57338652602a835280858720558451908152600080516020615322833981519152833392a28491811515908180611d91575b80611d7d575b8481611d5e575b50611d0b575b601790338852528486209260ff19936001858254161790556106de57611cf6575b50503415611cf2578083541615611cf257611c73611c6e3383600654163461413a565b614a78565b91611c7d83614c54565b8380808034867f0000000000000000000000000000000000000000000000000000000000000000165af1611caf6144a7565b5015611ced57611cdd6000805160206152828339815191529285541684611cd4614488565b91349033615122565b518061069c339442903484613ad4565b505050fd5b5050fd5b84526001838520918254161790558480611c4b565b926106de57338087526025845285872080546001600160a01b0319168417905582875260268452858720611d3f9190614358565b6017869333846000805160206152c28339815191528a80a39050611c2a565b9050611d79578287526011815260ff86882054161584611c24565b8680fd5b503387526025815284868820541615611c1d565b5086935033831415611c17565b8980fd5b8a80fd5b8880fd5b929050346106e257836003193601126106e257835481516370a0823160e01b815230938101939093526001600160a01b039081169390602084602481885afa938415611e85578694611e4d575b506101209550611e0561426e565b5090600a54600f54908260015416926002541693600c5496600b549881519a8b5260208b01528901526060880152608087015260a086015260c0850152830152610100820152f35b9093506020813d8211611e7d575b81611e6860209383613bd8565b810103126106de576101209550519238611df7565b3d9150611e5b565b83513d88823e3d90fd5b84346107e05760203660031901126107e057611ea9613917565b6001600160a01b03907f0000000000000000000000000000000000000000000000000000000000000000821633036104f55716801561053f57600780546001600160a01b03191691909117905580f35b505091346107e057806003193601126107e0576009546001600160a01b03169081156107e0578251633fabe5a360e21b81529160a0838681845afa9283156120b2578293612064575b508183131561053f5790602085939285519485809263313ce56760e01b82525afa928315611181578193612027575b50611f7a61426e565b5091633b9aca00908082029182040361201457600b54601281019081811161200157600901908111611fee5760ff91610d12611fb592613d55565b931690604d8211611fdb57602085610a0e86611fd58787600a0a90613d12565b90613d63565b634e487b7160e01b815260118652602490fd5b634e487b7160e01b835260118752602483fd5b634e487b7160e01b845260118852602484fd5b634e487b7160e01b825260118652602482fd5b9092506020813d821161205c575b8161204260209383613bd8565b810103126104f5575160ff811681036104f5579138611f71565b3d9150612035565b90925060a0813d82116120aa575b8161207f60a09383613bd8565b8101031261053f5761209081613cfe565b506120a2608060208301519201613cfe565b509138611f42565b3d9150612072565b84513d84823e3d90fd5b5050503461053f57602036600319011261053f5760209160ff9082906001600160a01b036120e8613917565b1681526017855220541690519015158152f35b5050503461053f578160031936011261053f576020906016549051908152f35b5050503461053f578160031936011261053f576020906022549051908152f35b5050346104f55760203660031901126104f55735907f00000000000000000000000000000000000000000000000000000000000000006001600160a01b031633036104f55781156104f5577f787a1fca55641ce34a438271930bbb9401df20db2b4f510d4f252227d85df43d91601b549080601b5582519182526020820152a180f35b5050503461053f578160031936011261053f57602090600e549051908152f35b84346107e05760203660031901126107e0576121f8613917565b6001600160a01b03907f0000000000000000000000000000000000000000000000000000000000000000821633036104f557816028549116809282167f2d025324f0a785e8c12d0a0d91a9caa49df4ef20ff87e0df7213a1d4f3157beb8580a36001600160a01b0319161760285580f35b84346107e05760203660031901126107e057612283613917565b6001600160a01b03907f0000000000000000000000000000000000000000000000000000000000000000821633036104f55716801561053f57600180546001600160a01b03191691909117905580f35b505090346104f557602090816003193601126106e2578235916122f5336143ab565b828552601e8152818520546001600160a01b03949033908616036106de579293859384919082805b338a52601d808752878b208054831015612513579961233e83829b9c613aea565b505414612357575061234f90614852565b97969761231d565b94509697505033885282845261236f86868a20613aea565b509560ff6006809801541615611da657338952838552600261239382888c20613aea565b500154338a5284865260036123aa83898d20613aea565b50015490620151809182810292818404149015171561250057906123cd91613d3b565b4210611da6576123dc88614861565b96338a528486526124086123f283898d20613aea565b509260018094015496338d528852888c20613aea565b500160ff198154169055601f61241f858254613d48565b90555b156124fc5761246191849161243633614b9b565b6124408886613d3b565b918a5416908a885180968195829463a9059cbb60e01b845233908401614a5d565b03925af19081156124f25787916124d5575b50156106de578484151591826124c3575b8451908152600080516020615302833981519152843392a36124a4578480f35b6000805160206152a283398151915291519283523392a3388080808480f35b6124ce868554613d3b565b8455612484565b6124ec9150833d85116106cd576106bf8183613bd8565b38612473565b84513d89823e3d90fd5b8780fd5b634e487b7160e01b8b526011845260248bfd5b505050612422565b5050346104f55760203660031901126104f557357f00000000000000000000000000000000000000000000000000000000000000006001600160a01b031633036104f55780156104f5576000805160206152e28339815191529160a091600a549181600a5580519260608452600a606085015269555344545f505249434560b01b60808501526020840152820152a180f35b5050503461053f576020806003193601126104f5576001600160a01b0392836125d4613917565b1681526026825282812091835190818185549182815201908195855282852090855b818110612642575050508261260c910383613bd8565b8451948186019282875251809352850193925b82811061262c5785850386f35b835187168552938101939281019260010161261f565b82548a16845292840192600192830192016125f6565b505090346104f557602091826003193601126106e25780359161267a336143ab565b828552601e8452808520546001600160a01b03949033908616036106de578594865b338852601d80845284892080548310156127c1576126bb838992613aea565b5054146126d157506126cc90614852565b61269c565b9192939495965033885281845260ff60066126ee83888c20613aea565b50015416156124fc5761270087614861565b958615611da65761275d9361273788938795338d528087528c6005612727848d8420613aea565b500155338d528652888c20613aea565b5082429101558954169089875180968195829463a9059cbb60e01b845233908401614a5d565b03925af1908115611e855786916127a4575b50156106a2576000805160206152a283398151915291612790848354613d3b565b8255519283523392a360015b156107e05780f35b6127bb9150823d84116106cd576106bf8183613bd8565b3861276f565b505050505050505061279c565b5050503461053f57602036600319011261053f5760209181906001600160a01b036127f7613917565b1681526027845220549051908152f35b84833461053f57602036600319011261053f577f00000000000000000000000000000000000000000000000000000000000000006001600160a01b0316330361053f573560145580f35b5050503461053f578160031936011261053f57602090600f549051908152f35b5050503461053f57602036600319011261053f5760209160ff9082906001600160a01b0361289d613917565b1681526011855220541690519015158152f35b5050346104f55760203660031901126104f55735907f00000000000000000000000000000000000000000000000000000000000000006001600160a01b031633036104f557601482116104f5577fd968a3cc702265c3ab67356df15ca21d50167b011f198b963e2a868e04e3d5e091602454908060245582519182526020820152a180f35b5050503461053f57602036600319011261053f576020916001600160a01b0390829082612960613917565b168152602585522054169051908152f35b5050503461053f578160031936011261053f57602090601a549051908152f35b5050503461053f576129a23661399c565b6001600160a01b0391907f0000000000000000000000000000000000000000000000000000000000000000831633036106a2577f73843a5065350bf0f7e39089149d74b4ef62cc29b0e3eb1983e9c910c2149afe92602092169384865260138352612a0f8282882061425d565b519015158152a280f35b5050503461053f578160031936011261053f576020906010549051908152f35b5050503461053f57612a4a3661399c565b90916001600160a01b037f0000000000000000000000000000000000000000000000000000000000000000811633036106a257612a90931684526017602052832061425d565b80f35b5050503461053f578160031936011261053f5760035490516001600160a01b039091168152602090f35b5050503461053f57602036600319011261053f5760209181906001600160a01b03612ae6613917565b168152602a845220549051908152f35b84833461053f57602036600319011261053f57612b11613917565b6001600160a01b03907f0000000000000000000000000000000000000000000000000000000000000000821633036106e2571680156104f55781546001600160a01b03191617905580f35b8285853461053f57612b6d36613abe565b612b79929192336143ab565b601c5483106106e25783546001600160a01b031680156106a257601e82148015612d90575b8015612d86575b8015612d7b575b156106a2579082918685945180926323b872dd60e01b8252818981612bda60209b8c9730903390850161444b565b03925af1908115611e85578691612d5e575b50156106a25760225493612bff85614852565b6022558251612c0d81613b56565b85815281810185815284820142815260608301858152608084019042825260a08501928b845260c086019460018652338d52601d8852898d20805490600160401b821015612d4a5790612c6591600182018155613aea565b979097612d3857927fb4caaf29adda3eefee3ad552a8e85058589bf834c7466cae4ee58787f70589ed9b9c9d9e92612cc898979592600697955189555160018901555160028801555160038701555190850155516005840155511515910161425d565b858752601e815282872080546001600160a01b03191633179055601f54612cf0908690613d3b565b601f5533875260238152828720805460ff811615612d19575b505082519485528401523392a380f35b60ff19166001179055602154612d2e90614852565b6021558780612d09565b634e487b7160e01b8e528d8f5260248efd5b8f8f6041602492634e487b7160e01b835252fd5b612d759150853d87116106cd576106bf8183613bd8565b87612bec565b5061016d8214612bac565b5060b48214612ba5565b50605a8214612b9e565b5050346104f557612dad610f8f3661395f565b80156106e25783546001600160a01b0392908316156106a257826003541680156106de576020836114b4926105ef876007541633908461413a565b5050503461053f578160031936011261053f576020906029549051908152f35b505091346107e0576020928360031936011261053f578035612e29336143ab565b808352601e8552838320546001600160a01b03959033908716036106e2578394845b338652601d80845282872080548310156130d657612e6a838792613aea565b505414612e805750612e7b90614852565b612e4b565b91929394959650338752818452612e9981848920613aea565b5060ff60068092015416156124fc573388528285526002612ebc83868b20613aea565b5001543389528386526003612ed384878c20613aea565b5001549062015180918281029281840414901517156130c35799612efd87928b9c9b999a9b613d3b565b93612f078a614861565b93338a52868452612f1a82898c20613aea565b5091886001809401549b80984210613067575b90612f449291612f9298999a338252885220613aea565b500160ff198154169055601f612f5b8a8254613d48565b905599612f7185612f6c888c613d48565b613d3b565b918c5416908c885180968195829463a9059cbb60e01b845233908401614a5d565b03925af190811561305d578991613040575b50156124fc57808691613014575b50508015612ff6577f9c9ec3cfa814b0112b71c20d0b0ab54dead00a99fd389c174df717d2f1d364039282519485528401523392a35b156107e057612a9033614b9b565b509060008051602061530283398151915291519283523392a3612fe8565b61301f818654613d3b565b855583519081526000805160206152a2833981519152853392a38438612fb2565b6130579150853d87116106cd576106bf8183613bd8565b38612fa4565b84513d8b823e3d90fd5b5050919350919394506005808a02908a8204148a1517156130b05791612f44899492898f6064612f929997049a601a6130a18d8254613d3b565b90559a99985090919250612f2d565b634e487b7160e01b8d5260118c5260248dfd5b634e487b7160e01b8a526011895260248afd5b505050505050509150612fe8565b5050346104f5576130f7610f8f3661395f565b80156106e25783546001600160a01b0392908316156106a25782600154169182156106de57610ec290610d12600b54613d55565b505082346107e057806003193601126107e057906019549061314c826151dd565b9261315985519485613bd8565b82845260198152906020907f944998273e477b495144fb8794c914197f3ccb46be2900f4698fd0ef743c9695908286015b85851061319e578751806107748982613a0b565b6007846001928a516131af81613b56565b86548152848060a01b0380868901541684830152806002890154168d8301526003880154166060820152858701546080820152600587015460a08201526131f860068801613bfb565b60c082015281520193019401939161318a565b5050503461053f578160031936011261053f5760285490516001600160a01b039091168152602090f35b84346107e05760203660031901126107e05761324f613917565b6001600160a01b03907f0000000000000000000000000000000000000000000000000000000000000000821633036104f55716801561053f57600980546001600160a01b03191691909117905580f35b5050503461053f578160031936011261053f5760085490516001600160a01b039091168152602090f35b5050503461053f57602036600319011261053f576080916001600160a01b03806132f1613917565b16825260256020528282205416916026602052808083205492602760205220549060245492815194855260208501528301526060820152f35b5050503461053f578160031936011261053f57602090601b549051908152f35b8085816003193601126133825734156133825781546001600160a01b0390811615611cf257611c73611c6e826006541633903461413a565b50fd5b5050503461053f578160031936011261053f5760055490516001600160a01b039091168152602090f35b5050503461053f578160031936011261053f576020906014549051908152f35b505091346107e057806003193601126107e0576008546001600160a01b03169081156107e0578251633fabe5a360e21b81529160a0838681845afa9283156120b25782936134c8575b508183131561053f5790602085939285519485809263313ce56760e01b82525afa92831561118157819361348b575b5061345061426e565b50916305f5e100908082029182040361201457600b54601281019081811161200157600a01908111611fee5760ff91610d12611fb592613d55565b9092506020813d82116134c0575b816134a660209383613bd8565b810103126104f5575160ff811681036104f5579138613447565b3d9150613499565b90925060a0813d821161350e575b816134e360a09383613bd8565b8101031261053f576134f481613cfe565b50613506608060208301519201613cfe565b509138613418565b3d91506134d6565b5050503461053f576135273661399c565b6001600160a01b0391907f0000000000000000000000000000000000000000000000000000000000000000831633036106a2577fdda6207409a585801122fb885dcaa8074f9a21f25ff2def680c67f01a86c2c9b92602092169384865260118352612a0f8282882061425d565b5050346104f5576135a7610f8f3661395f565b80156106e25783546001600160a01b0392908316156106a257826005541680156106de5760208361062e926105ef876009541633908461400b565b5050503461053f578160031936011261053f57602090600a549051908152f35b84346107e05760203660031901126107e05761361c613917565b6001600160a01b03907f0000000000000000000000000000000000000000000000000000000000000000821633036104f55716801561053f57600680546001600160a01b03191691909117905580f35b505090346104f557602091826003193601126106e2573591828452601e815260018060a01b0382852054169182156106a2576136a6615249565b8594865b858852601d8086528489208054831015613727576136c9838592613aea565b5054146136df57506136da90614852565b6136aa565b909150856136fc9495969750611421935088528552838720613aea565b9060015b156106a2576080945081519381848401519301519382519586528501528301526060820152f35b50505050919293613700565b8481853461053f578260031936011261053f5761374e613917565b602435917f0000000000000000000000000000000000000000000000000000000000000000906001600160a01b0380831633036106de578086541693169283146137fa575b855163a9059cbb60e01b815294602094869493859384926137b79290918401614a5d565b03925af19182156137f1575082916137d3575b50156107e05780f35b6137eb915060203d81116106cd576106bf8183613bd8565b826137ca565b513d84823e3d90fd5b92919085516370a0823160e01b81523085820152602081602481865afa8015613873578690613840575b6138329150601f5490613d48565b83116106a257909192613793565b506020813d821161386b575b8161385960209383613bd8565b810103126106de576138329051613824565b3d915061384c565b87513d88823e3d90fd5b5050346104f55760203660031901126104f557803580156106e25783546001600160a01b0391908216156106a257818354169081156106de576119d68360085416339083613ed5565b5050503461053f578160031936011261053f5760065460209190610a0e906001600160a01b0316613d83565b85903461053f578160031936011261053f576002546001600160a01b03168152602090f35b600435906001600160a01b038216820361392d57565b600080fd5b9181601f8401121561392d578235916001600160401b03831161392d576020838186019501011161392d57565b90600319820160c0811261392d5760801361392d57600491608435906001600160401b03821161392d57613994918401613932565b909160a43590565b604090600319011261392d576004356001600160a01b038116810361392d5790602435801515810361392d5790565b919082519283825260005b8481106139f7575050826000602080949584010152601f8019910116010190565b6020818301810151848301820152016139d6565b602080820190808352835180925260409283810182858560051b8401019601946000925b858410613a40575050505050505090565b909192939495968580613aad600193603f198682030188528b5180518252858060a01b0380858301511685840152808983015116898401526060908183015116908301526080808201519083015260a0808201519083015260c0809101519160e0809282015201906139cb565b990194019401929594939190613a2f565b604090600319011261392d576004359060243590565b6040919493926060820195825260208201520152565b8054821015613b06576000526007602060002091020190600090565b634e487b7160e01b600052603260045260246000fd5b90600182811c92168015613b4c575b6020831014613b3657565b634e487b7160e01b600052602260045260246000fd5b91607f1691613b2b565b60e081019081106001600160401b03821117613b7157604052565b634e487b7160e01b600052604160045260246000fd5b60c081019081106001600160401b03821117613b7157604052565b608081019081106001600160401b03821117613b7157604052565b604081019081106001600160401b03821117613b7157604052565b601f909101601f19168101906001600160401b03821190821017613b7157604052565b9060405191826000825492613c0f84613b1c565b908184526001948581169081600014613c7e5750600114613c3b575b5050613c3992500383613bd8565b565b9093915060005260209081600020936000915b818310613c66575050613c3993508201013880613c2b565b85548884018501529485019487945091830191613c4e565b915050613c3994506020925060ff191682840152151560051b8201013880613c2b565b9360e09592613ce398979492865260018060a01b0392838092166020880152166040860152166060840152608083015260a08201528160c082015201906139cb565b90565b8054821015613b065760005260206000200190600090565b51906001600160501b038216820361392d57565b81810292918115918404141715613d2557565b634e487b7160e01b600052601160045260246000fd5b91908201809211613d2557565b91908203918211613d2557565b604d8111613d2557600a0a90565b8115613d6d570490565b634e487b7160e01b600052601260045260246000fd5b6001600160a01b0316801561392d57604051633fabe5a360e21b81529060a082600481845afa918215613e7b57600092613e87575b50600082131561392d5760206004916040519283809263313ce56760e01b82525afa908115613e7b57600091613e40575b50613df261426e565b5091670de0b6b3a76400009080820291820403613d2557600b54601281018111613d255760ff91610d12613e2592613d55565b9116604d8111613d2557613ce392611fd591600a0a90613d12565b6020813d8211613e73575b81613e5860209383613bd8565b8101031261053f57519060ff821682036107e0575038613de9565b3d9150613e4b565b6040513d6000823e3d90fd5b909160a0823d8211613ecd575b81613ea160a09383613bd8565b810103126107e05750613eb381613cfe565b50613ec5608060208301519201613cfe565b509038613db8565b3d9150613e94565b916001600160a01b0390911690811561392d57604051633fabe5a360e21b81529060a082600481865afa918215613e7b57600092613fbd575b50600082131561392d5760206004936040519485809263313ce56760e01b82525afa928315613e7b57600093613f7c575b5090613f4d613f5492614308565b5093613d12565b600b546012810190818111613d2557600a01908111613d255760ff91610d12613e2592613d55565b6020939193813d8211613fb5575b81613f9760209383613bd8565b8101031261053f57519060ff821682036107e0575091613f4d613f3f565b3d9150613f8a565b909160a0823d8211614003575b81613fd760a09383613bd8565b810103126107e05750613fe981613cfe565b50613ffb608060208301519201613cfe565b509038613f0e565b3d9150613fca565b916001600160a01b0390911690811561392d57604051633fabe5a360e21b81529060a082600481865afa918215613e7b576000926140ec575b50600082131561392d5760206004936040519485809263313ce56760e01b82525afa928315613e7b576000936140ab575b5090613f4d61408392614308565b600b546012810190818111613d2557600901908111613d255760ff91610d12613e2592613d55565b6020939193813d82116140e4575b816140c660209383613bd8565b8101031261053f57519060ff821682036107e0575091613f4d614075565b3d91506140b9565b909160a0823d8211614132575b8161410660a09383613bd8565b810103126107e0575061411881613cfe565b5061412a608060208301519201613cfe565b509038614044565b3d91506140f9565b916001600160a01b0390911690811561392d57604051633fabe5a360e21b81529060a082600481865afa918215613e7b5760009261420f575b50600082131561392d5760206004936040519485809263313ce56760e01b82525afa928315613e7b576000936141ce575b5090613f4d6141b292614308565b600b54601281018111613d255760ff91610d12613e2592613d55565b6020939193813d8211614207575b816141e960209383613bd8565b8101031261053f57519060ff821682036107e0575091613f4d6141a4565b3d91506141dc565b909160a0823d8211614255575b8161422960a09383613bd8565b810103126107e0575061423b81613cfe565b5061424d608060208301519201613cfe565b509038614173565b3d915061421c565b9060ff801983541691151516179055565b601454801580156142ff575b6142f5576000805260176020527fd840e16649f6b9a295d95876f4633d3a6b10b55e8162971cf78afd886d5ec89b5460ff16156142ed576015545b80156142e2576142c86142cd9242613d48565b613d63565b6142df600a5461196c600c5484613d12565b91565b5050600a5490600090565b6016546142b5565b50600a5490600090565b5080421061427a565b601454908115801561434f575b6142e2576001600160a01b031660009081526017602052604090205460ff16156142ed5760155480156142e2576142c86142cd9242613d48565b50814210614315565b8054600160401b811015613b715761437591600182018155613ce6565b819291549060031b9160018060a01b03809116831b921b1916179055565b9081602091031261392d5751801515810361392d5790565b6001600160a01b0390811660008181526011602052604081205490929060ff166104f557601360205260ff6040842054166104f5576012541690816143ef57505050565b602090602460405180948193633e28391d60e01b835260048301525afa908115614440578291614422575b506107e05750565b61443a915060203d81116106cd576106bf8183613bd8565b3861441a565b6040513d84823e3d90fd5b6001600160a01b03918216815291166020820152604081019190915260600190565b6001600160401b038111613b7157601f01601f191660200190565b6040519061449582613bbd565b600382526242555960e81b6020830152565b3d156144d2573d906144b88261446d565b916144c66040519384613bd8565b82523d6000602084013e565b606090565b356001600160a01b038116810361392d5790565b919060608301359182421161392d57614503846144d7565b6001600160a01b039490339086160361392d576040928382013590600093338552602093602a8552868620548411156106de576029549085614544826144d7565b9101986145508a6144d7565b908b8a5192818a8501956000805160206153428339815191528752168c85015216606083015286608083015260a082015260a0815261458e81613b87565b5190208751908682019261190160f01b845260228301526042820152604281526145b781613ba2565b519020906145c48161446d565b926145d188519485613bd8565b8184523682820111611d7957918686838694611bd196836145f799013784010152614795565b8680602854169116036104f55790601791338452602a825280858520558451908152600080516020615322833981519152823392a285614636866144d7565b16151580614737575b80614723575b80614704575b61469c575b338352528181209360ff19946001868254161790558061466f856144d7565b1661467c575b5050505050565b6146876001946144d7565b16815220918254161790553880808080614675565b6146a5856144d7565b3384526025825284842080546001600160a01b031916918816919091179055856146ce866144d7565b168352602681526146e133858520614358565b33866146ec876144d7565b166000805160206152c28339815191528580a3614650565b508561470f866144d7565b1683526011815260ff84842054161561464b565b503383526025815285848420541615614645565b503386614743876144d7565b16141561463f565b600581101561477f578061475c5750565b6001810361476957600080fd5b6002810361477657600080fd5b60031461392d57565b634e487b7160e01b600052602160045260246000fd5b9060418151146000146147c3576147bf916020820151906060604084015193015160001a906147cd565b9091565b5050600090600290565b9291906fa2a8918ca85bafe22016d0b997e4df60600160ff1b0383116148465791608094939160ff602094604051948552168484015260408301526060820152600093849182805260015afa156148395781516001600160a01b03811615614833579190565b50600190565b50604051903d90823e3d90fd5b50505050600090600390565b6000198114613d255760010190565b6000818152601e60209081526040808320546001600160a01b03169081156106e2579293849390849081808080805b888b52601d808b52888c208054831015614a4c576148af838992613aea565b5054146148c557506148c090614852565b614890565b96509a50505050505082855280845285828620906148e291613aea565b50600501549583865281855280838720906148fc91613aea565b506004015492848752828652818188209061491691613aea565b50926001809401549686895281815283838a209061493391613aea565b50600301549689525286209061494891613aea565b506006015460ff16905b156106a257156106e257428114614a455761496d9042613d48565b92601b548092605a81146000146149cb5750506003820291808304600314901517156149b75750613ce393926149ab63bbf81e00936149b09360011c905b613d12565b0490613d3b565b634e487b7160e01b81526011600452602490fd5b60b48103614a015750508160011b91808304600214901517156149b75750613ce393926149ab63bbf81e00936149b09390613d12565b61016d9194935014614a26575b50613ce393926149ab63bbf81e00936149b093613d12565b60038392930291808304600314901517156149b7575090613ce3614a0e565b5050505090565b505050965096509793509050614952565b6001600160a01b039091168152602081019190915260400190565b600033815260206025815260018060a01b039060408281852054169283151580614b86575b614aa957505050505090565b6064614ab760245488613d12565b049481815416848451809263a9059cbb60e01b8252818581614add8d8d60048401614a5d565b03925af19081156120b2578291614b69575b50156107e0577f94ccb86446750660ec532b1beb1fb55f5ba2fffca042c4c53f4c080e72595b389392918186614b5f935260278552838120614b32898254613d3b565b905554168688845192614b4484613bbd565b6008845267149151915494905360c21b878501528089615181565b519384523393a390565b614b809150853d87116106cd576106bf8183613bd8565b38614aef565b508385526011835260ff828620541615614a9d565b600090815b6001600160a01b0382166000908152601d602052604090208054821015614c4c576006614bcf8360ff93613aea565b50015416614be557614be090614852565b614ba0565b50905060015b1580614c2a575b614bf95750565b6001600160a01b03166000908152602360205260409020805460ff191690556021548015613d255760001901602155565b506001600160a01b03811660009081526023602052604090205460ff16614bf2565b505090614beb565b614c5d336143ab565b600080546040516370a0823160e01b815230600482015291926020926001600160a01b03909216918381602481865afa908115614dd8579082918691614da7575b50106106e257600f54673e09de2596099e2b601b1b614cbd8383613d3b565b116106a25733855260178452604085205460ff1615614d79575060105466d3c21bcecceda160191b614cef8383613d3b565b116106a257849282614d058694614d3594613d3b565b6010555b614d1581600f54613d3b565b600f5560405194858094819363a9059cbb60e01b83523360048401614a5d565b03925af1918215614d6e578392614d51575b5050156107e05750565b614d679250803d106106cd576106bf8183613bd8565b3880614d47565b6040513d85823e3d90fd5b614d9682612f6c67f753b67a89598b0b60191b9360105490613d48565b116106e257614d3584928492614d09565b809250858092503d8311614dd1575b614dc08183613bd8565b810103126106a25781905138614c9e565b503d614db6565b6040513d87823e3d90fd5b601954600160401b811015613b7157600180820180601955821015613b06576000906019825260c0600660209460078686209102018651815583810160018060a01b039081888a0151169060018060a01b03199182825416179055600283018260408b01511682825416179055600383019160608a015116908254161790556080870151600482015560a08701516005820155019401519182519260018060401b038411614f7c57614e958654613b1c565b601f8111614f36575b508491601f8511600114614ed7579394508492919083614ecc575b50501b916000199060031b1c1916179055565b015192503880614eb9565b86815285812093958591601f198316915b88838310614f1c5750505010614f03575b505050811b019055565b015160001960f88460031b161c19169055388080614ef9565b858701518855909601959485019487935090810190614ee8565b868352858320601f860160051c810191878710614f72575b601f0160051c019084905b828110614f67575050614e9e565b848155018490614f59565b9091508190614f4e565b634e487b7160e01b82526041600452602482fd5b8054600160401b811015613b7157614faf906001928382018155613aea565b61510c578251815560208084015183830180546001600160a01b039283166001600160a01b031991821617909155604086015160028501805491841691831691909117905560608601516003850180549190931691161790556080840151600483015560a0840151600583015560c0909301518051600690920193906001600160401b038311613b71576150438554613b1c565b601f81116150c3575b5081601f841160011461507a5750928293918392600094614ecc5750501b916000199060031b1c1916179055565b919083601f1981168760005284600020946000905b888383106150a95750505010614f0357505050811b019055565b85870151885590960195948501948793509081019061508f565b6000868152838120601f860160051c810192858710615102575b601f0160051c019186905b8381106150f75750505061504c565b8281550186906150e8565b90925082906150dd565b634e487b7160e01b600052600060045260246000fd5b92613c399491926040519461513686613b56565b42865260018060a01b038091169485602088015260006040880152166060860152608085015260a084015260c0830152600052601860205261517c816040600020614f90565b614de3565b92613c3995929491936040519561519787613b56565b42875260018060a01b0380809316968760208a0152166040880152166060860152608085015260a084015260c0830152600052601860205261517c816040600020614f90565b6001600160401b038111613b715760051b60200190565b9060405161520181613b56565b60c060ff600683958054855260018101546020860152600281015460408601526003810154606086015260048101546080860152600581015460a08601520154161515910152565b6040519061525682613b56565b8160c06000918281528260208201528260408201528260608201528260808201528260a0820152015256fe377aadedb6b2a771959584d10a6a36eccb5f56b4eb3a48525f76108d2660d8d4f87cfa2d5feaea949ad65bb76a26d8553381bcb6382adbc83dedd48961bf32d95f1ca2fcc108b751843a763e60d2201f593516109d7dbb1b700468f2d4190bb76e838f2a03741f5f2aff5480963b672fb0dd8430a4dc75db9b67ce009733c9fe7fc4727e062e336010f2c282598ef5f14facb3de68cf8195c2f23e1454b2b74eb23e07a4fc171f5f9242d4254c3b66b893beaab2f3787495c0f2d09dd3ef972691b089318bbdf627bacec662873c12cc3afdc69db73f084d7726e9ce2907280aa164736f6c6343000813000a",
  "linkReferences": {},
  "deployedLinkReferences": {}
}