{"contracts/mock/SavitriCoin.sol":{"SavitriCoin":{"abi":[{"inputs":[],"stateMutability":"nonpayable","type":"constructor"},{"anonymous":false,"inputs":[{"indexed":true,"internalType":"address","name":"user","type":"address"},{"indexed":false,"internalType":"bool","name":"blocked","type":"bool"}],"name":"AddressBlocked","type":"event"},{"anonymous":false,"inputs":[{"indexed":true,"internalType":"address","name":"owner","type":"address"},{"indexed":true,"internalType":"address","name":"spender","type":"address"},{"indexed":false,"internalType":"uint256","name":"value","type":"uint256"}],"name":"Approval","type":"event"},{"anonymous":false,"inputs":[{"indexed":true,"internalType":"address","name":"previousOwner","type":"address"},{"indexed":true,"internalType":"address","name":"newOwner","type":"address"}],"name":"OwnershipTransferred","type":"event"},{"anonymous":false,"inputs":[{"indexed":true,"internalType":"address","name":"from","type":"address"},{"indexed":true,"internalType":"address","name":"to","type":"address"},{"indexed":false,"internalType":"uint256","name":"value","type":"uint256"}],"name":"Transfer","type":"event"},{"inputs":[{"internalType":"address","name":"owner","type":"address"},{"internalType":"address","name":"spender","type":"address"}],"name":"allowance","outputs":[{"internalType":"uint256","name":"","type":"uint256"}],"stateMutability":"view","type":"function"},{"inputs":[{"internalType":"address","name":"","type":"address"}],"name":"allowedSenders","outputs":[{"internalType":"bool","name":"","type":"bool"}],"stateMutability":"view","type":"function"},{"inputs":[{"internalType":"address","name":"spender","type":"address"},{"internalType":"uint256","name":"amount","type":"uint256"}],"name":"approve","outputs":[{"internalType":"bool","name":"","type":"bool"}],"stateMutability":"nonpayable","type":"function"},{"inputs":[{"internalType":"address","name":"account","type":"address"}],"name":"balanceOf","outputs":[{"internalType":"uint256","name":"","type":"uint256"}],"stateMutability":"view","type":"function"},{"inputs":[{"internalType":"address","name":"","type":"address"}],"name":"blockedAddresses","outputs":[{"internalType":"bool","name":"","type":"bool"}],"stateMutability":"view","type":"function"},{"inputs":[],"name":"decimals","outputs":[{"internalType":"uint8","name":"","type":"uint8"}],"stateMutability":"view","type":"function"},{"inputs":[{"internalType":"address","name":"spender","type":"address"},{"internalType":"uint256","name":"subtractedValue","type":"uint256"}],"name":"decreaseAllowance","outputs":[{"internalType":"bool","name":"","type":"bool"}],"stateMutability":"nonpayable","type":"function"},{"inputs":[{"internalType":"address","name":"spender","type":"address"},{"internalType":"uint256","name":"addedValue","type":"uint256"}],"name":"increaseAllowance","outputs":[{"internalType":"bool","name":"","type":"bool"}],"stateMutability":"nonpayable","type":"function"},{"inputs":[],"name":"name","outputs":[{"internalType":"string","name":"","type":"string"}],"stateMutability":"view","type":"function"},{"inputs":[],"name":"owner","outputs":[{"internalType":"address","name":"","type":"address"}],"stateMutability":"view","type":"function"},{"inputs":[],"name":"renounceOwnership","outputs":[],"stateMutability":"nonpayable","type":"function"},{"inputs":[{"internalType":"address","name":"user","type":"address"},{"internalType":"bool","name":"allowed","type":"bool"}],"name":"setAllowedSender","outputs":[],"stateMutability":"nonpayable","type":"function"},{"inputs":[{"internalType":"address","name":"user","type":"address"},{"internalType":"bool","name":"blocked","type":"bool"}],"name":"setBlockStatus","outputs":[],"stateMutability":"nonpayable","type":"function"},{"inputs":[{"internalType":"bool","name":"enabled","type":"bool"}],"name":"setTransfersEnabled","outputs":[],"stateMutability":"nonpayable","type":"function"},{"inputs":[],"name":"symbol","outputs":[{"internalType":"string","name":"","type":"string"}],"stateMutability":"view","type":"function"},{"inputs":[],"name":"totalSupply","outputs":[{"internalType":"uint256","name":"","type":"uint256"}],"stateMutability":"view","type":"function"},{"inputs":[{"internalType":"address","name":"to","type":"address"},{"internalType":"uint256","name":"amount","type":"uint256"}],"name":"transfer","outputs":[{"internalType":"bool","name":"","type":"bool"}],"stateMutability":"nonpayable","type":"function"},{"inputs":[{"internalType":"address","name":"from","type":"address"},{"internalType":"address","name":"to","type":"address"},{"internalType":"uint256","name":"amount","type":"uint256"}],"name":"transferFrom","outputs":[{"internalType":"bool","name":"","type":"bool"}],"stateMutability":"nonpayable","type":"function"},{"inputs":[{"internalType":"address","name":"newOwner","type":"address"}],"name":"transferOwnership","outputs":[],"stateMutability":"nonpayable","type":"function"},{"inputs":[],"name":"transfersEnabled","outputs":[{"internalType":"bool","name":"","type":"bool"}],"stateMutability":"view","type":"function"}],"evm":{"bytecode":{"linkReferences":{},"object":"60803462000200576001600160401b039060409080820183811182821017620002f6578252600c815260206b29b0bb34ba39349021b7b4b760a11b8183015282519383850185811082821117620002f657845260038086526229a0ab60e91b838701528351828111620002f6578154906001958683811c93168015620003eb575b86841014620003d5578190601f938481116200037f575b50869084831160011462000318576000926200030c575b505060001982851b1c191690861b1782555b8651928311620002f65760049687548681811c91168015620002eb575b86821014620002d65790818386959493116200027c575b5085918411600114620002115760009362000205575b505082851b92600019911b1c19161784555b60058054336001600160a01b031982168117909255845191906001600160a01b03167f8be0079c531659141344cd1fd0a4f28419497f9722a3daafe3b4186f6b6457e0600080a3331562000200576002546b01f04ef12cb04cf15800000090818101809111620001eb57600794959650600255336000526000835285600020818154019055815260007fddf252ad1be2c89b69c2b068fc378daa952ba7f163c4a11628f55a4df523b3ef833393a33360005252816000209060ff19825416179055516109629081620003f78239f35b601187634e487b7160e01b6000525260246000fd5b600080fd5b0151915038806200010a565b9190869450601f1984169289600052866000209360005b888282106200026557505085116200024a575b50505050811b0184556200011c565b01519060f884600019921b161c19169055388080806200023b565b8385015187558a9890960195938401930162000228565b909192935088600052856000208380870160051c820192888810620002cc575b9189918897969594930160051c01915b828110620002bc575050620000f4565b60008155879650899101620002ac565b925081926200029c565b602289634e487b7160e01b6000525260246000fd5b90607f1690620000dd565b634e487b7160e01b600052604160045260246000fd5b015190503880620000ae565b90889350601f1983169186600052886000209260005b8a8282106200036857505084116200034f575b505050811b018255620000c0565b015160001983871b60f8161c1916905538808062000341565b8385015186558c979095019493840193016200032e565b90915084600052866000208480850160051c820192898610620003cb575b918a91869594930160051c01915b828110620003bb57505062000097565b600081558594508a9101620003ab565b925081926200039d565b634e487b7160e01b600052602260045260246000fd5b92607f16926200008056fe608060408181526004918236101561001657600080fd5b600092833560e01c91826306fdde03146106dc57508163095ea7b3146106b257816318160ddd14610693578163182a676b1461061857816323b872dd1461059157816326b9ce131461055a578163313ce5671461053e57816339509351146104d75781634b52ffb0146104825781634f93208a1461044457816370a082311461040d578163715018a6146103c25781638da5cb5b1461039957816395d89b411461029857508063a457c2d714610241578063a9059cbb14610211578063bef97c87146101ee578063dd62ed3e146101a6578063f2fde38b146101415763fadbcf481461010157600080fd5b3461013d57602036600319011261013d5760209160ff9082906001600160a01b0361012a6107df565b1681526007855220541690519015158152f35b5080fd5b82346101a35760203660031901126101a35761015b6107df565b61016361081f565b6001600160a01b0390811690811561019f57600580546001600160a01b031981168417909155166000805160206109368339815191528380a380f35b8280fd5b80fd5b503461013d578060031936011261013d57806020926101c36107df565b6101cb6107fa565b6001600160a01b0391821683526001865283832091168252845220549051908152f35b503461013d578160031936011261013d5760209060ff6008541690519015158152f35b503461013d578060031936011261013d5760209061023a6102306107df565b6024359033610833565b5160018152f35b503461013d578060031936011261013d5761025a6107df565b338352600160209081528284206001600160a01b0383168552905281832054909260243591908282106101a357509261023a916020940390336108d4565b83833461013d578160031936011261013d57805190828454600181811c9080831692831561038f575b602093848410811461037c578388529081156103605750600114610328575b505050829003601f01601f19168201926001600160401b038411838510176103155750829182610311925282610796565b0390f35b634e487b7160e01b815260418552602490fd5b919250868652828620918387935b83851061034c57505050508301018580806102e0565b805488860183015293019284908201610336565b60ff1916878501525050151560051b84010190508580806102e0565b634e487b7160e01b895260228a52602489fd5b91607f16916102c1565b50503461013d578160031936011261013d5760055490516001600160a01b039091168152602090f35b83346101a357806003193601126101a3576103db61081f565b600580546001600160a01b0319811690915581906001600160a01b03166000805160206109368339815191528280a380f35b50503461013d57602036600319011261013d5760209181906001600160a01b036104356107df565b16815280845220549051908152f35b50503461013d57602036600319011261013d5760209160ff9082906001600160a01b0361046f6107df565b1681526006855220541690519015158152f35b50503461013d578060031936011261013d576104d4906104a06107df565b906104a9610810565b916104b261081f565b60018060a01b03168452600760205283209060ff801983541691151516179055565b80f35b8284346101a357816003193601126101a3576104f16107df565b338252600160209081528383206001600160a01b038316845290528282205460243581019290831061052b5760208461023a8585336108d4565b634e487b7160e01b815260118552602490fd5b50503461013d578160031936011261013d576020905160128152f35b83903461013d57602036600319011261013d573580151580910361013d5761058061081f565b60ff80196008541691161760085580f35b50503461013d57606036600319011261013d576105ac6107df565b6105b46107fa565b6001600160a01b03821684526001602081815284862033875290528385205460443595929392909182016105f1575b60208561023a888787610833565b8582106101a3575091849161060e60209661023a950333836108d4565b91948193506105e3565b50503461013d578060031936011261013d577fdda6207409a585801122fb885dcaa8074f9a21f25ff2def680c67f01a86c2c9b60206106556107df565b61065d610810565b9061066661081f565b6001600160a01b031680865260068352848620805460ff191660ff8415151617905593519015158152a280f35b50503461013d578160031936011261013d576020906002549051908152f35b50503461013d578060031936011261013d5760209061023a6106d26107df565b60243590336108d4565b8490843461019f578260031936011261019f5782600354600181811c9080831692831561078c575b602093848410811461037c57838852908115610360575060011461075357505050829003601f01601f19168201926001600160401b038411838510176103155750829182610311925282610796565b91925060038652828620918387935b83851061077857505050508301018580806102e0565b805488860183015293019284908201610762565b91607f1691610704565b6020808252825181830181905290939260005b8281106107cb57505060409293506000838284010152601f8019910116010190565b8181018601518482016040015285016107a9565b600435906001600160a01b03821682036107f557565b600080fd5b602435906001600160a01b03821682036107f557565b6024359081151582036107f557565b6005546001600160a01b031633036107f557565b6001600160a01b039081169182156107f557169182156107f5576000828152600660205260ff6040822054166101a35760ff60085416156108c0575b8060205260408120805483811061019f5760209284927fddf252ad1be2c89b69c2b068fc378daa952ba7f163c4a11628f55a4df523b3ef9560409303905586815220818154019055604051908152a3565b600760205260ff60408220541661086f5780fd5b6001600160a01b039081169182156107f557169182156107f55760207f8c5be1e5ebec7d5bd14f71427d1e84f3dd0314c0f7b2291e5b200ac8c7c3b925918360005260018252604060002085600052825280604060002055604051908152a356fe8be0079c531659141344cd1fd0a4f28419497f9722a3daafe3b4186f6b6457e0a164736f6c6343000813000a","opcodes":"PUSH1 0x80 CALLVALUE PUSH3 0x200 JUMPI PUSH1 0x1 PUSH1 0x1 PUSH1 0x40 SHL SUB SWAP1 PUSH1 0x40 SWAP1 DUP1 DUP3 ADD DUP4 DUP2 GT DUP3 DUP3 LT OR PUSH3 0x2F6 JUMPI DUP3 MSTORE PUSH1 0xC DUP2 MSTORE PUSH1 0x20 PUSH12 0x29B0BB34BA39349021B7B4B7 PUSH1 0xA1 SHL DUP2 DUP4 ADD MSTORE DUP3 MLOAD SWAP4 DUP4 DUP6 ADD DUP6 DUP2 LT DUP3 DUP3 GT OR PUSH3 0x2F6 JUMPI DUP5 MSTORE PUSH1 0x3 DUP1 DUP7 MSTORE PUSH3 0x29A0AB PUSH1 0xE9 SHL DUP4 DUP8 ADD MSTORE DUP4 MLOAD DUP3 DUP2 GT PUSH3 0x2F6 JUMPI DUP2 SLOAD SWAP1 PUSH1 0x1 SWAP6 DUP7 DUP4 DUP2 SHR SWAP4 AND DUP1 ISZERO PUSH3 0x3EB JUMPI JUMPDEST DUP7 DUP5 LT EQ PUSH3 0x3D5 JUMPI DUP2 SWAP1 PUSH1 0x1F SWAP4 DUP5 DUP2 GT PUSH3 0x37F JUMPI JUMPDEST POP DUP7 SWAP1 DUP5 DUP4 GT PUSH1 0x1 EQ PUSH3 0x318 JUMPI PUSH1 0x0 SWAP3 PUSH3 0x30C JUMPI JUMPDEST POP POP PUSH1 0x0 NOT DUP3 DUP6 SHL SHR NOT AND SWAP1 DUP7 SHL OR DUP3 SSTORE JUMPDEST DUP7 MLOAD SWAP3 DUP4 GT PUSH3 0x2F6 JUMPI PUSH1 0x4 SWAP7 DUP8 SLOAD DUP7 DUP2 DUP2 SHR SWAP2 AND DUP1 ISZERO PUSH3 0x2EB JUMPI JUMPDEST DUP7 DUP3 LT EQ PUSH3 0x2D6 JUMPI SWAP1 DUP2 DUP4 DUP7 SWAP6 SWAP5 SWAP4 GT PUSH3 0x27C JUMPI JUMPDEST POP DUP6 SWAP2 DUP5 GT PUSH1 0x1 EQ PUSH3 0x211 JUMPI PUSH1 0x0 SWAP4 PUSH3 0x205 JUMPI JUMPDEST POP POP DUP3 DUP6 SHL SWAP3 PUSH1 0x0 NOT SWAP2 SHL SHR NOT AND OR DUP5 SSTORE JUMPDEST PUSH1 0x5 DUP1 SLOAD CALLER PUSH1 0x1 PUSH1 0x1 PUSH1 0xA0 SHL SUB NOT DUP3 AND DUP2 OR SWAP1 SWAP3 SSTORE DUP5 MLOAD SWAP2 SWAP1 PUSH1 0x1 PUSH1 0x1 PUSH1 0xA0 SHL SUB AND PUSH32 0x8BE0079C531659141344CD1FD0A4F28419497F9722A3DAAFE3B4186F6B6457E0 PUSH1 0x0 DUP1 LOG3 CALLER ISZERO PUSH3 0x200 JUMPI PUSH1 0x2 SLOAD PUSH12 0x1F04EF12CB04CF158000000 SWAP1 DUP2 DUP2 ADD DUP1 SWAP2 GT PUSH3 0x1EB JUMPI PUSH1 0x7 SWAP5 SWAP6 SWAP7 POP PUSH1 0x2 SSTORE CALLER PUSH1 0x0 MSTORE PUSH1 0x0 DUP4 MSTORE DUP6 PUSH1 0x0 KECCAK256 DUP2 DUP2 SLOAD ADD SWAP1 SSTORE DUP2 MSTORE PUSH1 0x0 PUSH32 0xDDF252AD1BE2C89B69C2B068FC378DAA952BA7F163C4A11628F55A4DF523B3EF DUP4 CALLER SWAP4 LOG3 CALLER PUSH1 0x0 MSTORE MSTORE DUP2 PUSH1 0x0 KECCAK256 SWAP1 PUSH1 0xFF NOT DUP3 SLOAD AND OR SWAP1 SSTORE MLOAD PUSH2 0x962 SWAP1 DUP2 PUSH3 0x3F7 DUP3 CODECOPY RETURN JUMPDEST PUSH1 0x11 DUP8 PUSH4 0x4E487B71 PUSH1 0xE0 SHL PUSH1 0x0 MSTORE MSTORE PUSH1 0x24 PUSH1 0x0 REVERT JUMPDEST PUSH1 0x0 DUP1 REVERT JUMPDEST ADD MLOAD SWAP2 POP CODESIZE DUP1 PUSH3 0x10A JUMP JUMPDEST SWAP2 SWAP1 DUP7 SWAP5 POP PUSH1 0x1F NOT DUP5 AND SWAP3 DUP10 PUSH1 0x0 MSTORE DUP7 PUSH1 0x0 KECCAK256 SWAP4 PUSH1 0x0 JUMPDEST DUP9 DUP3 DUP3 LT PUSH3 0x265 JUMPI POP POP DUP6 GT PUSH3 0x24A JUMPI JUMPDEST POP POP POP POP DUP2 SHL ADD DUP5 SSTORE PUSH3 0x11C JUMP JUMPDEST ADD MLOAD SWAP1 PUSH1 0xF8 DUP5 PUSH1 0x0 NOT SWAP3 SHL AND SHR NOT AND SWAP1 SSTORE CODESIZE DUP1 DUP1 DUP1 PUSH3 0x23B JUMP JUMPDEST DUP4 DUP6 ADD MLOAD DUP8 SSTORE DUP11 SWAP9 SWAP1 SWAP7 ADD SWAP6 SWAP4 DUP5 ADD SWAP4 ADD PUSH3 0x228 JUMP JUMPDEST SWAP1 SWAP2 SWAP3 SWAP4 POP DUP9 PUSH1 0x0 MSTORE DUP6 PUSH1 0x0 KECCAK256 DUP4 DUP1 DUP8 ADD PUSH1 0x5 SHR DUP3 ADD SWAP3 DUP9 DUP9 LT PUSH3 0x2CC JUMPI JUMPDEST SWAP2 DUP10 SWAP2 DUP9 SWAP8 SWAP7 SWAP6 SWAP5 SWAP4 ADD PUSH1 0x5 SHR ADD SWAP2 JUMPDEST DUP3 DUP2 LT PUSH3 0x2BC JUMPI POP POP PUSH3 0xF4 JUMP JUMPDEST PUSH1 0x0 DUP2 SSTORE DUP8 SWAP7 POP DUP10 SWAP2 ADD PUSH3 0x2AC JUMP JUMPDEST SWAP3 POP DUP2 SWAP3 PUSH3 0x29C JUMP JUMPDEST PUSH1 0x22 DUP10 PUSH4 0x4E487B71 PUSH1 0xE0 SHL PUSH1 0x0 MSTORE MSTORE PUSH1 0x24 PUSH1 0x0 REVERT JUMPDEST SWAP1 PUSH1 0x7F AND SWAP1 PUSH3 0xDD JUMP JUMPDEST PUSH4 0x4E487B71 PUSH1 0xE0 SHL PUSH1 0x0 MSTORE PUSH1 0x41 PUSH1 0x4 MSTORE PUSH1 0x24 PUSH1 0x0 REVERT JUMPDEST ADD MLOAD SWAP1 POP CODESIZE DUP1 PUSH3 0xAE JUMP JUMPDEST SWAP1 DUP9 SWAP4 POP PUSH1 0x1F NOT DUP4 AND SWAP2 DUP7 PUSH1 0x0 MSTORE DUP9 PUSH1 0x0 KECCAK256 SWAP3 PUSH1 0x0 JUMPDEST DUP11 DUP3 DUP3 LT PUSH3 0x368 JUMPI POP POP DUP5 GT PUSH3 0x34F JUMPI JUMPDEST POP POP POP DUP2 SHL ADD DUP3 SSTORE PUSH3 0xC0 JUMP JUMPDEST ADD MLOAD PUSH1 0x0 NOT DUP4 DUP8 SHL PUSH1 0xF8 AND SHR NOT AND SWAP1 SSTORE CODESIZE DUP1 DUP1 PUSH3 0x341 JUMP JUMPDEST DUP4 DUP6 ADD MLOAD DUP7 SSTORE DUP13 SWAP8 SWAP1 SWAP6 ADD SWAP5 SWAP4 DUP5 ADD SWAP4 ADD PUSH3 0x32E JUMP JUMPDEST SWAP1 SWAP2 POP DUP5 PUSH1 0x0 MSTORE DUP7 PUSH1 0x0 KECCAK256 DUP5 DUP1 DUP6 ADD PUSH1 0x5 SHR DUP3 ADD SWAP3 DUP10 DUP7 LT PUSH3 0x3CB JUMPI JUMPDEST SWAP2 DUP11 SWAP2 DUP7 SWAP6 SWAP5 SWAP4 ADD PUSH1 0x5 SHR ADD SWAP2 JUMPDEST DUP3 DUP2 LT PUSH3 0x3BB JUMPI POP POP PUSH3 0x97 JUMP JUMPDEST PUSH1 0x0 DUP2 SSTORE DUP6 SWAP5 POP DUP11 SWAP2 ADD PUSH3 0x3AB JUMP JUMPDEST SWAP3 POP DUP2 SWAP3 PUSH3 0x39D JUMP JUMPDEST PUSH4 0x4E487B71 PUSH1 0xE0 SHL PUSH1 0x0 MSTORE PUSH1 0x22 PUSH1 0x4 MSTORE PUSH1 0x24 PUSH1 0x0 REVERT JUMPDEST SWAP3 PUSH1 0x7F AND SWAP3 PUSH3 0x80 JUMP INVALID PUSH1 0x80 PUSH1 0x40 DUP2 DUP2 MSTORE PUSH1 0x4 SWAP2 DUP3 CALLDATASIZE LT ISZERO PUSH2 0x16 JUMPI PUSH1 0x0 DUP1 REVERT JUMPDEST PUSH1 0x0 SWAP3 DUP4 CALLDATALOAD PUSH1 0xE0 SHR SWAP2 DUP3 PUSH4 0x6FDDE03 EQ PUSH2 0x6DC JUMPI POP DUP2 PUSH4 0x95EA7B3 EQ PUSH2 0x6B2 JUMPI DUP2 PUSH4 0x18160DDD EQ PUSH2 0x693 JUMPI DUP2 PUSH4 0x182A676B EQ PUSH2 0x618 JUMPI DUP2 PUSH4 0x23B872DD EQ PUSH2 0x591 JUMPI DUP2 PUSH4 0x26B9CE13 EQ PUSH2 0x55A JUMPI DUP2 PUSH4 0x313CE567 EQ PUSH2 0x53E JUMPI DUP2 PUSH4 0x39509351 EQ PUSH2 0x4D7 JUMPI DUP2 PUSH4 0x4B52FFB0 EQ PUSH2 0x482 JUMPI DUP2 PUSH4 0x4F93208A EQ PUSH2 0x444 JUMPI DUP2 PUSH4 0x70A08231 EQ PUSH2 0x40D JUMPI DUP2 PUSH4 0x715018A6 EQ PUSH2 0x3C2 JUMPI DUP2 PUSH4 0x8DA5CB5B EQ PUSH2 0x399 JUMPI DUP2 PUSH4 0x95D89B41 EQ PUSH2 0x298 JUMPI POP DUP1 PUSH4 0xA457C2D7 EQ PUSH2 0x241 JUMPI DUP1 PUSH4 0xA9059CBB EQ PUSH2 0x211 JUMPI DUP1 PUSH4 0xBEF97C87 EQ PUSH2 0x1EE JUMPI DUP1 PUSH4 0xDD62ED3E EQ PUSH2 0x1A6 JUMPI DUP1 PUSH4 0xF2FDE38B EQ PUSH2 0x141 JUMPI PUSH4 0xFADBCF48 EQ PUSH2 0x101 JUMPI PUSH1 0x0 DUP1 REVERT JUMPDEST CALLVALUE PUSH2 0x13D JUMPI PUSH1 0x20 CALLDATASIZE PUSH1 0x3 NOT ADD SLT PUSH2 0x13D JUMPI PUSH1 0x20 SWAP2 PUSH1 0xFF SWAP1 DUP3 SWAP1 PUSH1 0x1 PUSH1 0x1 PUSH1 0xA0 SHL SUB PUSH2 0x12A PUSH2 0x7DF JUMP JUMPDEST AND DUP2 MSTORE PUSH1 0x7 DUP6 MSTORE KECCAK256 SLOAD AND SWAP1 MLOAD SWAP1 ISZERO ISZERO DUP2 MSTORE RETURN JUMPDEST POP DUP1 REVERT JUMPDEST DUP3 CALLVALUE PUSH2 0x1A3 JUMPI PUSH1 0x20 CALLDATASIZE PUSH1 0x3 NOT ADD SLT PUSH2 0x1A3 JUMPI PUSH2 0x15B PUSH2 0x7DF JUMP JUMPDEST PUSH2 0x163 PUSH2 0x81F JUMP JUMPDEST PUSH1 0x1 PUSH1 0x1 PUSH1 0xA0 SHL SUB SWAP1 DUP2 AND SWAP1 DUP2 ISZERO PUSH2 0x19F JUMPI PUSH1 0x5 DUP1 SLOAD PUSH1 0x1 PUSH1 0x1 PUSH1 0xA0 SHL SUB NOT DUP2 AND DUP5 OR SWAP1 SWAP2 SSTORE AND PUSH1 0x0 DUP1 MLOAD PUSH1 0x20 PUSH2 0x936 DUP4 CODECOPY DUP2 MLOAD SWAP2 MSTORE DUP4 DUP1 LOG3 DUP1 RETURN JUMPDEST DUP3 DUP1 REVERT JUMPDEST DUP1 REVERT JUMPDEST POP CALLVALUE PUSH2 0x13D JUMPI DUP1 PUSH1 0x3 NOT CALLDATASIZE ADD SLT PUSH2 0x13D JUMPI DUP1 PUSH1 0x20 SWAP3 PUSH2 0x1C3 PUSH2 0x7DF JUMP JUMPDEST PUSH2 0x1CB PUSH2 0x7FA JUMP JUMPDEST PUSH1 0x1 PUSH1 0x1 PUSH1 0xA0 SHL SUB SWAP2 DUP3 AND DUP4 MSTORE PUSH1 0x1 DUP7 MSTORE DUP4 DUP4 KECCAK256 SWAP2 AND DUP3 MSTORE DUP5 MSTORE KECCAK256 SLOAD SWAP1 MLOAD SWAP1 DUP2 MSTORE RETURN JUMPDEST POP CALLVALUE PUSH2 0x13D JUMPI DUP2 PUSH1 0x3 NOT CALLDATASIZE ADD SLT PUSH2 0x13D JUMPI PUSH1 0x20 SWAP1 PUSH1 0xFF PUSH1 0x8 SLOAD AND SWAP1 MLOAD SWAP1 ISZERO ISZERO DUP2 MSTORE RETURN JUMPDEST POP CALLVALUE PUSH2 0x13D JUMPI DUP1 PUSH1 0x3 NOT CALLDATASIZE ADD SLT PUSH2 0x13D JUMPI PUSH1 0x20 SWAP1 PUSH2 0x23A PUSH2 0x230 PUSH2 0x7DF JUMP JUMPDEST PUSH1 0x24 CALLDATALOAD SWAP1 CALLER PUSH2 0x833 JUMP JUMPDEST MLOAD PUSH1 0x1 DUP2 MSTORE RETURN JUMPDEST POP CALLVALUE PUSH2 0x13D JUMPI DUP1 PUSH1 0x3 NOT CALLDATASIZE ADD SLT PUSH2 0x13D JUMPI PUSH2 0x25A PUSH2 0x7DF JUMP JUMPDEST CALLER DUP4 MSTORE PUSH1 0x1 PUSH1 0x20 SWAP1 DUP2 MSTORE DUP3 DUP5 KECCAK256 PUSH1 0x1 PUSH1 0x1 PUSH1 0xA0 SHL SUB DUP4 AND DUP6 MSTORE SWAP1 MSTORE DUP2 DUP4 KECCAK256 SLOAD SWAP1 SWAP3 PUSH1 0x24 CALLDATALOAD SWAP2 SWAP1 DUP3 DUP3 LT PUSH2 0x1A3 JUMPI POP SWAP3 PUSH2 0x23A SWAP2 PUSH1 0x20 SWAP5 SUB SWAP1 CALLER PUSH2 0x8D4 JUMP JUMPDEST DUP4 DUP4 CALLVALUE PUSH2 0x13D JUMPI DUP2 PUSH1 0x3 NOT CALLDATASIZE ADD SLT PUSH2 0x13D JUMPI DUP1 MLOAD SWAP1 DUP3 DUP5 SLOAD PUSH1 0x1 DUP2 DUP2 SHR SWAP1 DUP1 DUP4 AND SWAP3 DUP4 ISZERO PUSH2 0x38F JUMPI JUMPDEST PUSH1 0x20 SWAP4 DUP5 DUP5 LT DUP2 EQ PUSH2 0x37C JUMPI DUP4 DUP9 MSTORE SWAP1 DUP2 ISZERO PUSH2 0x360 JUMPI POP PUSH1 0x1 EQ PUSH2 0x328 JUMPI JUMPDEST POP POP POP DUP3 SWAP1 SUB PUSH1 0x1F ADD PUSH1 0x1F NOT AND DUP3 ADD SWAP3 PUSH1 0x1 PUSH1 0x1 PUSH1 0x40 SHL SUB DUP5 GT DUP4 DUP6 LT OR PUSH2 0x315 JUMPI POP DUP3 SWAP2 DUP3 PUSH2 0x311 SWAP3 MSTORE DUP3 PUSH2 0x796 JUMP JUMPDEST SUB SWAP1 RETURN JUMPDEST PUSH4 0x4E487B71 PUSH1 0xE0 SHL DUP2 MSTORE PUSH1 0x41 DUP6 MSTORE PUSH1 0x24 SWAP1 REVERT JUMPDEST SWAP2 SWAP3 POP DUP7 DUP7 MSTORE DUP3 DUP7 KECCAK256 SWAP2 DUP4 DUP8 SWAP4 JUMPDEST DUP4 DUP6 LT PUSH2 0x34C JUMPI POP POP POP POP DUP4 ADD ADD DUP6 DUP1 DUP1 PUSH2 0x2E0 JUMP JUMPDEST DUP1 SLOAD DUP9 DUP7 ADD DUP4 ADD MSTORE SWAP4 ADD SWAP3 DUP5 SWAP1 DUP3 ADD PUSH2 0x336 JUMP JUMPDEST PUSH1 0xFF NOT AND DUP8 DUP6 ADD MSTORE POP POP ISZERO ISZERO PUSH1 0x5 SHL DUP5 ADD ADD SWAP1 POP DUP6 DUP1 DUP1 PUSH2 0x2E0 JUMP JUMPDEST PUSH4 0x4E487B71 PUSH1 0xE0 SHL DUP10 MSTORE PUSH1 0x22 DUP11 MSTORE PUSH1 0x24 DUP10 REVERT JUMPDEST SWAP2 PUSH1 0x7F AND SWAP2 PUSH2 0x2C1 JUMP JUMPDEST POP POP CALLVALUE PUSH2 0x13D JUMPI DUP2 PUSH1 0x3 NOT CALLDATASIZE ADD SLT PUSH2 0x13D JUMPI PUSH1 0x5 SLOAD SWAP1 MLOAD PUSH1 0x1 PUSH1 0x1 PUSH1 0xA0 SHL SUB SWAP1 SWAP2 AND DUP2 MSTORE PUSH1 0x20 SWAP1 RETURN JUMPDEST DUP4 CALLVALUE PUSH2 0x1A3 JUMPI DUP1 PUSH1 0x3 NOT CALLDATASIZE ADD SLT PUSH2 0x1A3 JUMPI PUSH2 0x3DB PUSH2 0x81F JUMP JUMPDEST PUSH1 0x5 DUP1 SLOAD PUSH1 0x1 PUSH1 0x1 PUSH1 0xA0 SHL SUB NOT DUP2 AND SWAP1 SWAP2 SSTORE DUP2 SWAP1 PUSH1 0x1 PUSH1 0x1 PUSH1 0xA0 SHL SUB AND PUSH1 0x0 DUP1 MLOAD PUSH1 0x20 PUSH2 0x936 DUP4 CODECOPY DUP2 MLOAD SWAP2 MSTORE DUP3 DUP1 LOG3 DUP1 RETURN JUMPDEST POP POP CALLVALUE PUSH2 0x13D JUMPI PUSH1 0x20 CALLDATASIZE PUSH1 0x3 NOT ADD SLT PUSH2 0x13D JUMPI PUSH1 0x20 SWAP2 DUP2 SWAP1 PUSH1 0x1 PUSH1 0x1 PUSH1 0xA0 SHL SUB PUSH2 0x435 PUSH2 0x7DF JUMP JUMPDEST AND DUP2 MSTORE DUP1 DUP5 MSTORE KECCAK256 SLOAD SWAP1 MLOAD SWAP1 DUP2 MSTORE RETURN JUMPDEST POP POP CALLVALUE PUSH2 0x13D JUMPI PUSH1 0x20 CALLDATASIZE PUSH1 0x3 NOT ADD SLT PUSH2 0x13D JUMPI PUSH1 0x20 SWAP2 PUSH1 0xFF SWAP1 DUP3 SWAP1 PUSH1 0x1 PUSH1 0x1 PUSH1 0xA0 SHL SUB PUSH2 0x46F PUSH2 0x7DF JUMP JUMPDEST AND DUP2 MSTORE PUSH1 0x6 DUP6 MSTORE KECCAK256 SLOAD AND SWAP1 MLOAD SWAP1 ISZERO ISZERO DUP2 MSTORE RETURN JUMPDEST POP POP CALLVALUE PUSH2 0x13D JUMPI DUP1 PUSH1 0x3 NOT CALLDATASIZE ADD SLT PUSH2 0x13D JUMPI PUSH2 0x4D4 SWAP1 PUSH2 0x4A0 PUSH2 0x7DF JUMP JUMPDEST SWAP1 PUSH2 0x4A9 PUSH2 0x810 JUMP JUMPDEST SWAP2 PUSH2 0x4B2 PUSH2 0x81F JUMP JUMPDEST PUSH1 0x1 DUP1 PUSH1 0xA0 SHL SUB AND DUP5 MSTORE PUSH1 0x7 PUSH1 0x20 MSTORE DUP4 KECCAK256 SWAP1 PUSH1 0xFF DUP1 NOT DUP4 SLOAD AND SWAP2 ISZERO ISZERO AND OR SWAP1 SSTORE JUMP JUMPDEST DUP1 RETURN JUMPDEST DUP3 DUP5 CALLVALUE PUSH2 0x1A3 JUMPI DUP2 PUSH1 0x3 NOT CALLDATASIZE ADD SLT PUSH2 0x1A3 JUMPI PUSH2 0x4F1 PUSH2 0x7DF JUMP JUMPDEST CALLER DUP3 MSTORE PUSH1 0x1 PUSH1 0x20 SWAP1 DUP2 MSTORE DUP4 DUP4 KECCAK256 PUSH1 0x1 PUSH1 0x1 PUSH1 0xA0 SHL SUB DUP4 AND DUP5 MSTORE SWAP1 MSTORE DUP3 DUP3 KECCAK256 SLOAD PUSH1 0x24 CALLDATALOAD DUP2 ADD SWAP3 SWAP1 DUP4 LT PUSH2 0x52B JUMPI PUSH1 0x20 DUP5 PUSH2 0x23A DUP6 DUP6 CALLER PUSH2 0x8D4 JUMP JUMPDEST PUSH4 0x4E487B71 PUSH1 0xE0 SHL DUP2 MSTORE PUSH1 0x11 DUP6 MSTORE PUSH1 0x24 SWAP1 REVERT JUMPDEST POP POP CALLVALUE PUSH2 0x13D JUMPI DUP2 PUSH1 0x3 NOT CALLDATASIZE ADD SLT PUSH2 0x13D JUMPI PUSH1 0x20 SWAP1 MLOAD PUSH1 0x12 DUP2 MSTORE RETURN JUMPDEST DUP4 SWAP1 CALLVALUE PUSH2 0x13D JUMPI PUSH1 0x20 CALLDATASIZE PUSH1 0x3 NOT ADD SLT PUSH2 0x13D JUMPI CALLDATALOAD DUP1 ISZERO ISZERO DUP1 SWAP2 SUB PUSH2 0x13D JUMPI PUSH2 0x580 PUSH2 0x81F JUMP JUMPDEST PUSH1 0xFF DUP1 NOT PUSH1 0x8 SLOAD AND SWAP2 AND OR PUSH1 0x8 SSTORE DUP1 RETURN JUMPDEST POP POP CALLVALUE PUSH2 0x13D JUMPI PUSH1 0x60 CALLDATASIZE PUSH1 0x3 NOT ADD SLT PUSH2 0x13D JUMPI PUSH2 0x5AC PUSH2 0x7DF JUMP JUMPDEST PUSH2 0x5B4 PUSH2 0x7FA JUMP JUMPDEST PUSH1 0x1 PUSH1 0x1 PUSH1 0xA0 SHL SUB DUP3 AND DUP5 MSTORE PUSH1 0x1 PUSH1 0x20 DUP2 DUP2 MSTORE DUP5 DUP7 KECCAK256 CALLER DUP8 MSTORE SWAP1 MSTORE DUP4 DUP6 KECCAK256 SLOAD PUSH1 0x44 CALLDATALOAD SWAP6 SWAP3 SWAP4 SWAP3 SWAP1 SWAP2 DUP3 ADD PUSH2 0x5F1 JUMPI JUMPDEST PUSH1 0x20 DUP6 PUSH2 0x23A DUP9 DUP8 DUP8 PUSH2 0x833 JUMP JUMPDEST DUP6 DUP3 LT PUSH2 0x1A3 JUMPI POP SWAP2 DUP5 SWAP2 PUSH2 0x60E PUSH1 0x20 SWAP7 PUSH2 0x23A SWAP6 SUB CALLER DUP4 PUSH2 0x8D4 JUMP JUMPDEST SWAP2 SWAP5 DUP2 SWAP4 POP PUSH2 0x5E3 JUMP JUMPDEST POP POP CALLVALUE PUSH2 0x13D JUMPI DUP1 PUSH1 0x3 NOT CALLDATASIZE ADD SLT PUSH2 0x13D JUMPI PUSH32 0xDDA6207409A585801122FB885DCAA8074F9A21F25FF2DEF680C67F01A86C2C9B PUSH1 0x20 PUSH2 0x655 PUSH2 0x7DF JUMP JUMPDEST PUSH2 0x65D PUSH2 0x810 JUMP JUMPDEST SWAP1 PUSH2 0x666 PUSH2 0x81F JUMP JUMPDEST PUSH1 0x1 PUSH1 0x1 PUSH1 0xA0 SHL SUB AND DUP1 DUP7 MSTORE PUSH1 0x6 DUP4 MSTORE DUP5 DUP7 KECCAK256 DUP1 SLOAD PUSH1 0xFF NOT AND PUSH1 0xFF DUP5 ISZERO ISZERO AND OR SWAP1 SSTORE SWAP4 MLOAD SWAP1 ISZERO ISZERO DUP2 MSTORE LOG2 DUP1 RETURN JUMPDEST POP POP CALLVALUE PUSH2 0x13D JUMPI DUP2 PUSH1 0x3 NOT CALLDATASIZE ADD SLT PUSH2 0x13D JUMPI PUSH1 0x20 SWAP1 PUSH1 0x2 SLOAD SWAP1 MLOAD SWAP1 DUP2 MSTORE RETURN JUMPDEST POP POP CALLVALUE PUSH2 0x13D JUMPI DUP1 PUSH1 0x3 NOT CALLDATASIZE ADD SLT PUSH2 0x13D JUMPI PUSH1 0x20 SWAP1 PUSH2 0x23A PUSH2 0x6D2 PUSH2 0x7DF JUMP JUMPDEST PUSH1 0x24 CALLDATALOAD SWAP1 CALLER PUSH2 0x8D4 JUMP JUMPDEST DUP5 SWAP1 DUP5 CALLVALUE PUSH2 0x19F JUMPI DUP3 PUSH1 0x3 NOT CALLDATASIZE ADD SLT PUSH2 0x19F JUMPI DUP3 PUSH1 0x3 SLOAD PUSH1 0x1 DUP2 DUP2 SHR SWAP1 DUP1 DUP4 AND SWAP3 DUP4 ISZERO PUSH2 0x78C JUMPI JUMPDEST PUSH1 0x20 SWAP4 DUP5 DUP5 LT DUP2 EQ PUSH2 0x37C JUMPI DUP4 DUP9 MSTORE SWAP1 DUP2 ISZERO PUSH2 0x360 JUMPI POP PUSH1 0x1 EQ PUSH2 0x753 JUMPI POP POP POP DUP3 SWAP1 SUB PUSH1 0x1F ADD PUSH1 0x1F NOT AND DUP3 ADD SWAP3 PUSH1 0x1 PUSH1 0x1 PUSH1 0x40 SHL SUB DUP5 GT DUP4 DUP6 LT OR PUSH2 0x315 JUMPI POP DUP3 SWAP2 DUP3 PUSH2 0x311 SWAP3 MSTORE DUP3 PUSH2 0x796 JUMP JUMPDEST SWAP2 SWAP3 POP PUSH1 0x3 DUP7 MSTORE DUP3 DUP7 KECCAK256 SWAP2 DUP4 DUP8 SWAP4 JUMPDEST DUP4 DUP6 LT PUSH2 0x778 JUMPI POP POP POP POP DUP4 ADD ADD DUP6 DUP1 DUP1 PUSH2 0x2E0 JUMP JUMPDEST DUP1 SLOAD DUP9 DUP7 ADD DUP4 ADD MSTORE SWAP4 ADD SWAP3 DUP5 SWAP1 DUP3 ADD PUSH2 0x762 JUMP JUMPDEST SWAP2 PUSH1 0x7F AND SWAP2 PUSH2 0x704 JUMP JUMPDEST PUSH1 0x20 DUP1 DUP3 MSTORE DUP3 MLOAD DUP2 DUP4 ADD DUP2 SWAP1 MSTORE SWAP1 SWAP4 SWAP3 PUSH1 0x0 JUMPDEST DUP3 DUP2 LT PUSH2 0x7CB JUMPI POP POP PUSH1 0x40 SWAP3 SWAP4 POP PUSH1 0x0 DUP4 DUP3 DUP5 ADD ADD MSTORE PUSH1 0x1F DUP1 NOT SWAP2 ADD AND ADD ADD SWAP1 JUMP JUMPDEST DUP2 DUP2 ADD DUP7 ADD MLOAD DUP5 DUP3 ADD PUSH1 0x40 ADD MSTORE DUP6 ADD PUSH2 0x7A9 JUMP JUMPDEST PUSH1 0x4 CALLDATALOAD SWAP1 PUSH1 0x1 PUSH1 0x1 PUSH1 0xA0 SHL SUB DUP3 AND DUP3 SUB PUSH2 0x7F5 JUMPI JUMP JUMPDEST PUSH1 0x0 DUP1 REVERT JUMPDEST PUSH1 0x24 CALLDATALOAD SWAP1 PUSH1 0x1 PUSH1 0x1 PUSH1 0xA0 SHL SUB DUP3 AND DUP3 SUB PUSH2 0x7F5 JUMPI JUMP JUMPDEST PUSH1 0x24 CALLDATALOAD SWAP1 DUP2 ISZERO ISZERO DUP3 SUB PUSH2 0x7F5 JUMPI JUMP JUMPDEST PUSH1 0x5 SLOAD PUSH1 0x1 PUSH1 0x1 PUSH1 0xA0 SHL SUB AND CALLER SUB PUSH2 0x7F5 JUMPI JUMP JUMPDEST PUSH1 0x1 PUSH1 0x1 PUSH1 0xA0 SHL SUB SWAP1 DUP2 AND SWAP2 DUP3 ISZERO PUSH2 0x7F5 JUMPI AND SWAP2 DUP3 ISZERO PUSH2 0x7F5 JUMPI PUSH1 0x0 DUP3 DUP2 MSTORE PUSH1 0x6 PUSH1 0x20 MSTORE PUSH1 0xFF PUSH1 0x40 DUP3 KECCAK256 SLOAD AND PUSH2 0x1A3 JUMPI PUSH1 0xFF PUSH1 0x8 SLOAD AND ISZERO PUSH2 0x8C0 JUMPI JUMPDEST DUP1 PUSH1 0x20 MSTORE PUSH1 0x40 DUP2 KECCAK256 DUP1 SLOAD DUP4 DUP2 LT PUSH2 0x19F JUMPI PUSH1 0x20 SWAP3 DUP5 SWAP3 PUSH32 0xDDF252AD1BE2C89B69C2B068FC378DAA952BA7F163C4A11628F55A4DF523B3EF SWAP6 PUSH1 0x40 SWAP4 SUB SWAP1 SSTORE DUP7 DUP2 MSTORE KECCAK256 DUP2 DUP2 SLOAD ADD SWAP1 SSTORE PUSH1 0x40 MLOAD SWAP1 DUP2 MSTORE LOG3 JUMP JUMPDEST PUSH1 0x7 PUSH1 0x20 MSTORE PUSH1 0xFF PUSH1 0x40 DUP3 KECCAK256 SLOAD AND PUSH2 0x86F JUMPI DUP1 REVERT JUMPDEST PUSH1 0x1 PUSH1 0x1 PUSH1 0xA0 SHL SUB SWAP1 DUP2 AND SWAP2 DUP3 ISZERO PUSH2 0x7F5 JUMPI AND SWAP2 DUP3 ISZERO PUSH2 0x7F5 JUMPI PUSH1 0x20 PUSH32 0x8C5BE1E5EBEC7D5BD14F71427D1E84F3DD0314C0F7B2291E5B200AC8C7C3B925 SWAP2 DUP4 PUSH1 0x0 MSTORE PUSH1 0x1 DUP3 MSTORE PUSH1 0x40 PUSH1 0x0 KECCAK256 DUP6 PUSH1 0x0 MSTORE DUP3 MSTORE DUP1 PUSH1 0x40 PUSH1 0x0 KECCAK256 SSTORE PUSH1 0x40 MLOAD SWAP1 DUP2 MSTORE LOG3 JUMP INVALID DUP12 0xE0 SMOD SWAP13 MSTORE8 AND MSIZE EQ SGT PREVRANDAO 0xCD 0x1F 0xD0 LOG4 CALLCODE DUP5 NOT 0x49 PUSH32 0x9722A3DAAFE3B4186F6B6457E0A164736F6C6343000813000A00000000000000 "},"methodIdentifiers":{"allowance(address,address)":"dd62ed3e","allowedSenders(address)":"fadbcf48","approve(address,uint256)":"095ea7b3","balanceOf(address)":"70a08231","blockedAddresses(address)":"4f93208a","decimals()":"313ce567","decreaseAllowance(address,uint256)":"a457c2d7","increaseAllowance(address,uint256)":"39509351","name()":"06fdde03","owner()":"8da5cb5b","renounceOwnership()":"715018a6","setAllowedSender(address,bool)":"4b52ffb0","setBlockStatus(address,bool)":"182a676b","setTransfersEnabled(bool)":"26b9ce13","symbol()":"95d89b41","totalSupply()":"18160ddd","transfer(address,uint256)":"a9059cbb","transferFrom(address,address,uint256)":"23b872dd","transferOwnership(address)":"f2fde38b","transfersEnabled()":"bef97c87"}}}}}