{"contracts/TokenICO.sol":{"TokenICO":{"abi":[{"inputs":[],"stateMutability":"nonpayable","type":"constructor"},{"anonymous":false,"inputs":[{"indexed":false,"internalType":"uint256","name":"oldAPY","type":"uint256"},{"indexed":false,"internalType":"uint256","name":"newAPY","type":"uint256"}],"name":"APYUpdated","type":"event"},{"anonymous":false,"inputs":[{"indexed":true,"internalType":"address","name":"user","type":"address"},{"indexed":false,"internalType":"bool","name":"blocked","type":"bool"}],"name":"AddressBlocked","type":"event"},{"anonymous":false,"inputs":[{"indexed":true,"internalType":"address","name":"newChecker","type":"address"}],"name":"DelegationCheckerUpdated","type":"event"},{"anonymous":false,"inputs":[{"indexed":true,"internalType":"address","name":"user","type":"address"},{"indexed":true,"internalType":"uint256","name":"stakeId","type":"uint256"},{"indexed":false,"internalType":"uint256","name":"amount","type":"uint256"},{"indexed":false,"internalType":"uint256","name":"penalty","type":"uint256"}],"name":"EarlyUnstake","type":"event"},{"anonymous":false,"inputs":[{"indexed":false,"internalType":"uint256","name":"oldMinStake","type":"uint256"},{"indexed":false,"internalType":"uint256","name":"newMinStake","type":"uint256"}],"name":"MinStakeUpdated","type":"event"},{"anonymous":false,"inputs":[{"indexed":false,"internalType":"string","name":"priceType","type":"string"},{"indexed":false,"internalType":"uint256","name":"oldPrice","type":"uint256"},{"indexed":false,"internalType":"uint256","name":"newPrice","type":"uint256"}],"name":"PriceUpdated","type":"event"},{"anonymous":false,"inputs":[{"indexed":false,"internalType":"uint256","name":"oldPercentage","type":"uint256"},{"indexed":false,"internalType":"uint256","name":"newPercentage","type":"uint256"}],"name":"ReferralPercentageUpdated","type":"event"},{"anonymous":false,"inputs":[{"indexed":true,"internalType":"address","name":"referrer","type":"address"},{"indexed":true,"internalType":"address","name":"referee","type":"address"}],"name":"ReferralRegistered","type":"event"},{"anonymous":false,"inputs":[{"indexed":true,"internalType":"address","name":"referrer","type":"address"},{"indexed":true,"internalType":"address","name":"referee","type":"address"},{"indexed":false,"internalType":"uint256","name":"amount","type":"uint256"}],"name":"ReferralRewardPaid","type":"event"},{"anonymous":false,"inputs":[{"indexed":true,"internalType":"address","name":"user","type":"address"},{"indexed":true,"internalType":"uint256","name":"stakeId","type":"uint256"},{"indexed":false,"internalType":"uint256","name":"reward","type":"uint256"}],"name":"RewardHarvested","type":"event"},{"anonymous":false,"inputs":[{"indexed":true,"internalType":"address","name":"oldSigner","type":"address"},{"indexed":true,"internalType":"address","name":"newSigner","type":"address"}],"name":"SignerUpdated","type":"event"},{"anonymous":false,"inputs":[{"indexed":true,"internalType":"address","name":"buyer","type":"address"},{"indexed":true,"internalType":"address","name":"stablecoin","type":"address"},{"indexed":false,"internalType":"uint256","name":"stablecoinAmount","type":"uint256"},{"indexed":false,"internalType":"uint256","name":"bnbPaid","type":"uint256"},{"indexed":false,"internalType":"uint256","name":"timestamp","type":"uint256"}],"name":"StablecoinSold","type":"event"},{"anonymous":false,"inputs":[{"indexed":true,"internalType":"address","name":"user","type":"address"},{"indexed":true,"internalType":"uint256","name":"stakeId","type":"uint256"},{"indexed":false,"internalType":"uint256","name":"amount","type":"uint256"},{"indexed":false,"internalType":"uint256","name":"lockPeriod","type":"uint256"}],"name":"Staked","type":"event"},{"anonymous":false,"inputs":[{"indexed":true,"internalType":"address","name":"wallet","type":"address"},{"indexed":false,"internalType":"bool","name":"blocked","type":"bool"}],"name":"SweeperUpdated","type":"event"},{"anonymous":false,"inputs":[{"indexed":true,"internalType":"address","name":"buyer","type":"address"},{"indexed":true,"internalType":"address","name":"paymentMethod","type":"address"},{"indexed":false,"internalType":"uint256","name":"amountPaid","type":"uint256"},{"indexed":false,"internalType":"uint256","name":"tokensBought","type":"uint256"},{"indexed":false,"internalType":"uint256","name":"timestamp","type":"uint256"}],"name":"TokensPurchased","type":"event"},{"anonymous":false,"inputs":[{"indexed":true,"internalType":"address","name":"user","type":"address"},{"indexed":true,"internalType":"uint256","name":"stakeId","type":"uint256"},{"indexed":false,"internalType":"uint256","name":"amount","type":"uint256"}],"name":"Unstaked","type":"event"},{"anonymous":false,"inputs":[{"indexed":true,"internalType":"address","name":"user","type":"address"},{"indexed":false,"internalType":"uint256","name":"nonce","type":"uint256"}],"name":"VoucherConsumed","type":"event"},{"inputs":[],"name":"DOMAIN_SEPARATOR","outputs":[{"internalType":"bytes32","name":"","type":"bytes32"}],"stateMutability":"view","type":"function"},{"inputs":[],"name":"EARLY_WITHDRAWAL_PENALTY_PERCENT","outputs":[{"internalType":"uint256","name":"","type":"uint256"}],"stateMutability":"view","type":"function"},{"inputs":[],"name":"TOTAL_TOKENS_FOR_SALE","outputs":[{"internalType":"uint256","name":"","type":"uint256"}],"stateMutability":"view","type":"function"},{"inputs":[],"name":"WAITLIST_ALLOCATION","outputs":[{"internalType":"uint256","name":"","type":"uint256"}],"stateMutability":"view","type":"function"},{"inputs":[],"name":"WL_REF_TYPEHASH","outputs":[{"internalType":"bytes32","name":"","type":"bytes32"}],"stateMutability":"view","type":"function"},{"inputs":[{"internalType":"uint256","name":"","type":"uint256"}],"name":"allTransactions","outputs":[{"internalType":"uint256","name":"timestamp","type":"uint256"},{"internalType":"address","name":"user","type":"address"},{"internalType":"address","name":"tokenIn","type":"address"},{"internalType":"address","name":"tokenOut","type":"address"},{"internalType":"uint256","name":"amountIn","type":"uint256"},{"internalType":"uint256","name":"amountOut","type":"uint256"},{"internalType":"string","name":"transactionType","type":"string"}],"stateMutability":"view","type":"function"},{"inputs":[],"name":"baseAPY","outputs":[{"internalType":"uint256","name":"","type":"uint256"}],"stateMutability":"view","type":"function"},{"inputs":[{"internalType":"address","name":"","type":"address"}],"name":"blockedAddresses","outputs":[{"internalType":"bool","name":"","type":"bool"}],"stateMutability":"view","type":"function"},{"inputs":[],"name":"bnbPriceFeed","outputs":[{"internalType":"contract AggregatorV3Interface","name":"","type":"address"}],"stateMutability":"view","type":"function"},{"inputs":[],"name":"bnbRatio","outputs":[{"internalType":"uint256","name":"","type":"uint256"}],"stateMutability":"view","type":"function"},{"inputs":[],"name":"btcAddress","outputs":[{"internalType":"address","name":"","type":"address"}],"stateMutability":"view","type":"function"},{"inputs":[],"name":"btcPriceFeed","outputs":[{"internalType":"contract AggregatorV3Interface","name":"","type":"address"}],"stateMutability":"view","type":"function"},{"inputs":[],"name":"btcRatio","outputs":[{"internalType":"uint256","name":"","type":"uint256"}],"stateMutability":"view","type":"function"},{"inputs":[],"name":"buyWithBNB","outputs":[],"stateMutability":"payable","type":"function"},{"inputs":[{"components":[{"internalType":"address","name":"user","type":"address"},{"internalType":"address","name":"referrer","type":"address"},{"internalType":"uint256","name":"nonce","type":"uint256"},{"internalType":"uint256","name":"deadline","type":"uint256"}],"internalType":"struct TokenICO.WhitelistRef","name":"v","type":"tuple"},{"internalType":"bytes","name":"sig","type":"bytes"}],"name":"buyWithBNB_Voucher","outputs":[],"stateMutability":"payable","type":"function"},{"inputs":[{"internalType":"uint256","name":"btcAmount","type":"uint256"}],"name":"buyWithBTC","outputs":[],"stateMutability":"nonpayable","type":"function"},{"inputs":[{"components":[{"internalType":"address","name":"user","type":"address"},{"internalType":"address","name":"referrer","type":"address"},{"internalType":"uint256","name":"nonce","type":"uint256"},{"internalType":"uint256","name":"deadline","type":"uint256"}],"internalType":"struct TokenICO.WhitelistRef","name":"v","type":"tuple"},{"internalType":"bytes","name":"sig","type":"bytes"},{"internalType":"uint256","name":"btcAmount","type":"uint256"}],"name":"buyWithBTC_Voucher","outputs":[],"stateMutability":"nonpayable","type":"function"},{"inputs":[{"internalType":"uint256","name":"ethAmount","type":"uint256"}],"name":"buyWithETH","outputs":[],"stateMutability":"nonpayable","type":"function"},{"inputs":[{"components":[{"internalType":"address","name":"user","type":"address"},{"internalType":"address","name":"referrer","type":"address"},{"internalType":"uint256","name":"nonce","type":"uint256"},{"internalType":"uint256","name":"deadline","type":"uint256"}],"internalType":"struct TokenICO.WhitelistRef","name":"v","type":"tuple"},{"internalType":"bytes","name":"sig","type":"bytes"},{"internalType":"uint256","name":"ethAmount","type":"uint256"}],"name":"buyWithETH_Voucher","outputs":[],"stateMutability":"nonpayable","type":"function"},{"inputs":[{"internalType":"uint256","name":"solAmount","type":"uint256"}],"name":"buyWithSOL","outputs":[],"stateMutability":"nonpayable","type":"function"},{"inputs":[{"components":[{"internalType":"address","name":"user","type":"address"},{"internalType":"address","name":"referrer","type":"address"},{"internalType":"uint256","name":"nonce","type":"uint256"},{"internalType":"uint256","name":"deadline","type":"uint256"}],"internalType":"struct TokenICO.WhitelistRef","name":"v","type":"tuple"},{"internalType":"bytes","name":"sig","type":"bytes"},{"internalType":"uint256","name":"solAmount","type":"uint256"}],"name":"buyWithSOL_Voucher","outputs":[],"stateMutability":"nonpayable","type":"function"},{"inputs":[{"internalType":"uint256","name":"usdcAmount","type":"uint256"}],"name":"buyWithUSDC","outputs":[],"stateMutability":"nonpayable","type":"function"},{"inputs":[{"components":[{"internalType":"address","name":"user","type":"address"},{"internalType":"address","name":"referrer","type":"address"},{"internalType":"uint256","name":"nonce","type":"uint256"},{"internalType":"uint256","name":"deadline","type":"uint256"}],"internalType":"struct TokenICO.WhitelistRef","name":"v","type":"tuple"},{"internalType":"bytes","name":"sig","type":"bytes"},{"internalType":"uint256","name":"usdcAmount","type":"uint256"}],"name":"buyWithUSDC_Voucher","outputs":[],"stateMutability":"nonpayable","type":"function"},{"inputs":[{"internalType":"uint256","name":"usdtAmount","type":"uint256"}],"name":"buyWithUSDT","outputs":[],"stateMutability":"nonpayable","type":"function"},{"inputs":[{"components":[{"internalType":"address","name":"user","type":"address"},{"internalType":"address","name":"referrer","type":"address"},{"internalType":"uint256","name":"nonce","type":"uint256"},{"internalType":"uint256","name":"deadline","type":"uint256"}],"internalType":"struct TokenICO.WhitelistRef","name":"v","type":"tuple"},{"internalType":"bytes","name":"sig","type":"bytes"},{"internalType":"uint256","name":"usdtAmount","type":"uint256"}],"name":"buyWithUSDT_Voucher","outputs":[],"stateMutability":"nonpayable","type":"function"},{"inputs":[{"internalType":"uint256","name":"stakeId","type":"uint256"}],"name":"calculateRewards","outputs":[{"internalType":"uint256","name":"","type":"uint256"}],"stateMutability":"view","type":"function"},{"inputs":[],"name":"delegationChecker","outputs":[{"internalType":"contract IDelegationChecker","name":"","type":"address"}],"stateMutability":"view","type":"function"},{"inputs":[],"name":"ethAddress","outputs":[{"internalType":"address","name":"","type":"address"}],"stateMutability":"view","type":"function"},{"inputs":[],"name":"ethPriceFeed","outputs":[{"internalType":"contract AggregatorV3Interface","name":"","type":"address"}],"stateMutability":"view","type":"function"},{"inputs":[],"name":"ethRatio","outputs":[{"internalType":"uint256","name":"","type":"uint256"}],"stateMutability":"view","type":"function"},{"inputs":[],"name":"getAllTransactions","outputs":[{"components":[{"internalType":"uint256","name":"timestamp","type":"uint256"},{"internalType":"address","name":"user","type":"address"},{"internalType":"address","name":"tokenIn","type":"address"},{"internalType":"address","name":"tokenOut","type":"address"},{"internalType":"uint256","name":"amountIn","type":"uint256"},{"internalType":"uint256","name":"amountOut","type":"uint256"},{"internalType":"string","name":"transactionType","type":"string"}],"internalType":"struct TokenICO.Transaction[]","name":"","type":"tuple[]"}],"stateMutability":"view","type":"function"},{"inputs":[],"name":"getContractInfo","outputs":[{"internalType":"address","name":"tokenAddress","type":"address"},{"internalType":"uint256","name":"tokenBalance","type":"uint256"},{"internalType":"uint256","name":"currentUsdtPrice","type":"uint256"},{"internalType":"uint256","name":"initialUsdtPrice","type":"uint256"},{"internalType":"uint256","name":"totalSold","type":"uint256"},{"internalType":"address","name":"usdtAddr","type":"address"},{"internalType":"address","name":"usdcAddr","type":"address"},{"internalType":"uint256","name":"usdtPriceIncrementValue","type":"uint256"},{"internalType":"uint256","name":"stablecoinDecimalsValue","type":"uint256"}],"stateMutability":"view","type":"function"},{"inputs":[{"internalType":"address","name":"buyer","type":"address"}],"name":"getCurrentPrice","outputs":[{"internalType":"uint256","name":"","type":"uint256"}],"stateMutability":"view","type":"function"},{"inputs":[{"internalType":"address","name":"buyer","type":"address"}],"name":"getPriceInfo","outputs":[{"internalType":"uint256","name":"currentPrice","type":"uint256"},{"internalType":"uint256","name":"nextPrice","type":"uint256"},{"internalType":"uint256","name":"stage","type":"uint256"}],"stateMutability":"view","type":"function"},{"inputs":[{"internalType":"address","name":"user","type":"address"}],"name":"getReferralInfo","outputs":[{"internalType":"address","name":"referrer","type":"address"},{"internalType":"uint256","name":"totalReferrals","type":"uint256"},{"internalType":"uint256","name":"totalRewardsEarned","type":"uint256"},{"internalType":"uint256","name":"rewardPercentage","type":"uint256"}],"stateMutability":"view","type":"function"},{"inputs":[{"internalType":"uint256","name":"stakeId","type":"uint256"}],"name":"getStakeDetails","outputs":[{"internalType":"uint256","name":"lockPeriod","type":"uint256"},{"internalType":"uint256","name":"pendingRewards","type":"uint256"},{"internalType":"bool","name":"active","type":"bool"}],"stateMutability":"view","type":"function"},{"inputs":[{"internalType":"uint256","name":"stakeId","type":"uint256"}],"name":"getStakeInfo","outputs":[{"internalType":"uint256","name":"id","type":"uint256"},{"internalType":"address","name":"stakeOwnerAddr","type":"address"},{"internalType":"uint256","name":"amount","type":"uint256"},{"internalType":"uint256","name":"startTime","type":"uint256"}],"stateMutability":"view","type":"function"},{"inputs":[],"name":"getStakingInfo","outputs":[{"internalType":"uint256","name":"baseApyRate","type":"uint256"},{"internalType":"uint256","name":"minStakingAmount","type":"uint256"},{"internalType":"uint256","name":"totalTokensStaked","type":"uint256"},{"internalType":"uint256","name":"totalRewardsPaid","type":"uint256"},{"internalType":"uint256","name":"numberOfStakers","type":"uint256"}],"stateMutability":"view","type":"function"},{"inputs":[],"name":"getTokenBalances","outputs":[{"internalType":"uint256","name":"tokenBalance","type":"uint256"},{"internalType":"uint256","name":"usdtBalance","type":"uint256"},{"internalType":"uint256","name":"usdcBalance","type":"uint256"}],"stateMutability":"view","type":"function"},{"inputs":[],"name":"getTotalPenaltyCollected","outputs":[{"internalType":"uint256","name":"","type":"uint256"}],"stateMutability":"view","type":"function"},{"inputs":[{"internalType":"address","name":"referrer","type":"address"}],"name":"getUserReferrals","outputs":[{"internalType":"address[]","name":"","type":"address[]"}],"stateMutability":"view","type":"function"},{"inputs":[{"internalType":"address","name":"user","type":"address"}],"name":"getUserStakes","outputs":[{"components":[{"internalType":"uint256","name":"id","type":"uint256"},{"internalType":"uint256","name":"amount","type":"uint256"},{"internalType":"uint256","name":"startTime","type":"uint256"},{"internalType":"uint256","name":"lockPeriod","type":"uint256"},{"internalType":"uint256","name":"lastRewardCalculation","type":"uint256"},{"internalType":"uint256","name":"pendingRewards","type":"uint256"},{"internalType":"bool","name":"active","type":"bool"}],"internalType":"struct TokenICO.Stake[]","name":"","type":"tuple[]"}],"stateMutability":"view","type":"function"},{"inputs":[{"internalType":"address","name":"user","type":"address"}],"name":"getUserStakingInfo","outputs":[{"internalType":"uint256","name":"totalUserStaked","type":"uint256"},{"internalType":"uint256","name":"totalPendingRewards","type":"uint256"},{"internalType":"uint256","name":"activeStakesCount","type":"uint256"}],"stateMutability":"view","type":"function"},{"inputs":[{"internalType":"address","name":"user","type":"address"}],"name":"getUserTransactions","outputs":[{"components":[{"internalType":"uint256","name":"timestamp","type":"uint256"},{"internalType":"address","name":"user","type":"address"},{"internalType":"address","name":"tokenIn","type":"address"},{"internalType":"address","name":"tokenOut","type":"address"},{"internalType":"uint256","name":"amountIn","type":"uint256"},{"internalType":"uint256","name":"amountOut","type":"uint256"},{"internalType":"string","name":"transactionType","type":"string"}],"internalType":"struct TokenICO.Transaction[]","name":"","type":"tuple[]"}],"stateMutability":"view","type":"function"},{"inputs":[{"internalType":"uint256","name":"stakeId","type":"uint256"}],"name":"harvestRewards","outputs":[],"stateMutability":"nonpayable","type":"function"},{"inputs":[{"internalType":"address","name":"","type":"address"}],"name":"hasStaked","outputs":[{"internalType":"bool","name":"","type":"bool"}],"stateMutability":"view","type":"function"},{"inputs":[],"name":"initialUsdtPricePerToken","outputs":[{"internalType":"uint256","name":"","type":"uint256"}],"stateMutability":"view","type":"function"},{"inputs":[],"name":"minStakeAmount","outputs":[{"internalType":"uint256","name":"","type":"uint256"}],"stateMutability":"view","type":"function"},{"inputs":[],"name":"nextStakeId","outputs":[{"internalType":"uint256","name":"","type":"uint256"}],"stateMutability":"view","type":"function"},{"inputs":[],"name":"owner","outputs":[{"internalType":"address","name":"","type":"address"}],"stateMutability":"view","type":"function"},{"inputs":[],"name":"publicInterval","outputs":[{"internalType":"uint256","name":"","type":"uint256"}],"stateMutability":"view","type":"function"},{"inputs":[],"name":"referralRewardPercentage","outputs":[{"internalType":"uint256","name":"","type":"uint256"}],"stateMutability":"view","type":"function"},{"inputs":[{"internalType":"address","name":"","type":"address"}],"name":"referralRewards","outputs":[{"internalType":"uint256","name":"","type":"uint256"}],"stateMutability":"view","type":"function"},{"inputs":[{"internalType":"address","name":"","type":"address"},{"internalType":"uint256","name":"","type":"uint256"}],"name":"referrals","outputs":[{"internalType":"address","name":"","type":"address"}],"stateMutability":"view","type":"function"},{"inputs":[{"internalType":"address","name":"","type":"address"}],"name":"referrers","outputs":[{"internalType":"address","name":"","type":"address"}],"stateMutability":"view","type":"function"},{"inputs":[{"internalType":"address","name":"referrer","type":"address"}],"name":"registerReferrer","outputs":[],"stateMutability":"nonpayable","type":"function"},{"inputs":[],"name":"saleStartTime","outputs":[{"internalType":"uint256","name":"","type":"uint256"}],"stateMutability":"view","type":"function"},{"inputs":[],"name":"saleToken","outputs":[{"internalType":"address","name":"","type":"address"}],"stateMutability":"view","type":"function"},{"inputs":[{"internalType":"address","name":"feed","type":"address"}],"name":"setBNBPriceFeed","outputs":[],"stateMutability":"nonpayable","type":"function"},{"inputs":[{"internalType":"address","name":"feed","type":"address"}],"name":"setBTCPriceFeed","outputs":[],"stateMutability":"nonpayable","type":"function"},{"inputs":[{"internalType":"address","name":"user","type":"address"},{"internalType":"bool","name":"blocked","type":"bool"}],"name":"setBlockStatus","outputs":[],"stateMutability":"nonpayable","type":"function"},{"inputs":[{"internalType":"address","name":"checker","type":"address"}],"name":"setDelegationChecker","outputs":[],"stateMutability":"nonpayable","type":"function"},{"inputs":[{"internalType":"address","name":"feed","type":"address"}],"name":"setETHPriceFeed","outputs":[],"stateMutability":"nonpayable","type":"function"},{"inputs":[{"internalType":"uint256","name":"waitInterval","type":"uint256"},{"internalType":"uint256","name":"publicIntervalSec","type":"uint256"}],"name":"setIntervals","outputs":[],"stateMutability":"nonpayable","type":"function"},{"inputs":[{"internalType":"address","name":"feed","type":"address"}],"name":"setSOLPriceFeed","outputs":[],"stateMutability":"nonpayable","type":"function"},{"inputs":[{"internalType":"uint256","name":"startTime","type":"uint256"}],"name":"setSaleStartTime","outputs":[],"stateMutability":"nonpayable","type":"function"},{"inputs":[{"internalType":"address","name":"_token","type":"address"}],"name":"setSaleToken","outputs":[],"stateMutability":"nonpayable","type":"function"},{"inputs":[{"internalType":"address","name":"_signer","type":"address"}],"name":"setSigner","outputs":[],"stateMutability":"nonpayable","type":"function"},{"inputs":[{"internalType":"address","name":"wallet","type":"address"},{"internalType":"bool","name":"blocked","type":"bool"}],"name":"setSweeper","outputs":[],"stateMutability":"nonpayable","type":"function"},{"inputs":[{"internalType":"address","name":"user","type":"address"},{"internalType":"bool","name":"status","type":"bool"}],"name":"setWaitlisted","outputs":[],"stateMutability":"nonpayable","type":"function"},{"inputs":[],"name":"signer","outputs":[{"internalType":"address","name":"","type":"address"}],"stateMutability":"view","type":"function"},{"inputs":[],"name":"solAddress","outputs":[{"internalType":"address","name":"","type":"address"}],"stateMutability":"view","type":"function"},{"inputs":[],"name":"solPriceFeed","outputs":[{"internalType":"contract AggregatorV3Interface","name":"","type":"address"}],"stateMutability":"view","type":"function"},{"inputs":[],"name":"solRatio","outputs":[{"internalType":"uint256","name":"","type":"uint256"}],"stateMutability":"view","type":"function"},{"inputs":[],"name":"stablecoinDecimals","outputs":[{"internalType":"uint256","name":"","type":"uint256"}],"stateMutability":"view","type":"function"},{"inputs":[{"internalType":"uint256","name":"","type":"uint256"}],"name":"stakeOwners","outputs":[{"internalType":"address","name":"","type":"address"}],"stateMutability":"view","type":"function"},{"inputs":[{"internalType":"uint256","name":"amount","type":"uint256"},{"internalType":"uint256","name":"lockPeriodDays","type":"uint256"}],"name":"stakeTokens","outputs":[],"stateMutability":"nonpayable","type":"function"},{"inputs":[{"internalType":"address","name":"","type":"address"}],"name":"sweeperList","outputs":[{"internalType":"bool","name":"","type":"bool"}],"stateMutability":"view","type":"function"},{"inputs":[],"name":"tokensSold","outputs":[{"internalType":"uint256","name":"","type":"uint256"}],"stateMutability":"view","type":"function"},{"inputs":[],"name":"totalPenaltyCollected","outputs":[{"internalType":"uint256","name":"","type":"uint256"}],"stateMutability":"view","type":"function"},{"inputs":[],"name":"totalRewardsDistributed","outputs":[{"internalType":"uint256","name":"","type":"uint256"}],"stateMutability":"view","type":"function"},{"inputs":[],"name":"totalStaked","outputs":[{"internalType":"uint256","name":"","type":"uint256"}],"stateMutability":"view","type":"function"},{"inputs":[],"name":"totalStakers","outputs":[{"internalType":"uint256","name":"","type":"uint256"}],"stateMutability":"view","type":"function"},{"inputs":[{"internalType":"uint256","name":"stakeId","type":"uint256"}],"name":"unstakeEarly","outputs":[],"stateMutability":"nonpayable","type":"function"},{"inputs":[{"internalType":"uint256","name":"stakeId","type":"uint256"}],"name":"unstakeTokens","outputs":[],"stateMutability":"nonpayable","type":"function"},{"inputs":[{"internalType":"address","name":"newAddress","type":"address"}],"name":"updateBTC","outputs":[],"stateMutability":"nonpayable","type":"function"},{"inputs":[{"internalType":"uint256","name":"newAPY","type":"uint256"}],"name":"updateBaseAPY","outputs":[],"stateMutability":"nonpayable","type":"function"},{"inputs":[{"internalType":"address","name":"newAddress","type":"address"}],"name":"updateETH","outputs":[],"stateMutability":"nonpayable","type":"function"},{"inputs":[{"internalType":"uint256","name":"newPrice","type":"uint256"}],"name":"updateInitialUsdtPrice","outputs":[],"stateMutability":"nonpayable","type":"function"},{"inputs":[{"internalType":"uint256","name":"newMinAmount","type":"uint256"}],"name":"updateMinStakeAmount","outputs":[],"stateMutability":"nonpayable","type":"function"},{"inputs":[{"internalType":"uint256","name":"newPercentage","type":"uint256"}],"name":"updateReferralPercentage","outputs":[],"stateMutability":"nonpayable","type":"function"},{"inputs":[{"internalType":"address","name":"newAddress","type":"address"}],"name":"updateSOL","outputs":[],"stateMutability":"nonpayable","type":"function"},{"inputs":[{"internalType":"address","name":"newAddress","type":"address"}],"name":"updateUSDC","outputs":[],"stateMutability":"nonpayable","type":"function"},{"inputs":[{"internalType":"address","name":"newAddress","type":"address"}],"name":"updateUSDT","outputs":[],"stateMutability":"nonpayable","type":"function"},{"inputs":[{"internalType":"uint256","name":"newIncrement","type":"uint256"}],"name":"updateUsdtPriceIncrement","outputs":[],"stateMutability":"nonpayable","type":"function"},{"inputs":[],"name":"usdcAddress","outputs":[{"internalType":"address","name":"","type":"address"}],"stateMutability":"view","type":"function"},{"inputs":[],"name":"usdcRatio","outputs":[{"internalType":"uint256","name":"","type":"uint256"}],"stateMutability":"view","type":"function"},{"inputs":[],"name":"usdtAddress","outputs":[{"internalType":"address","name":"","type":"address"}],"stateMutability":"view","type":"function"},{"inputs":[],"name":"usdtPriceIncrement","outputs":[{"internalType":"uint256","name":"","type":"uint256"}],"stateMutability":"view","type":"function"},{"inputs":[],"name":"usdtRatio","outputs":[{"internalType":"uint256","name":"","type":"uint256"}],"stateMutability":"view","type":"function"},{"inputs":[{"internalType":"address","name":"","type":"address"}],"name":"usedNonce","outputs":[{"internalType":"uint256","name":"","type":"uint256"}],"stateMutability":"view","type":"function"},{"inputs":[{"internalType":"address","name":"","type":"address"},{"internalType":"uint256","name":"","type":"uint256"}],"name":"userStakes","outputs":[{"internalType":"uint256","name":"id","type":"uint256"},{"internalType":"uint256","name":"amount","type":"uint256"},{"internalType":"uint256","name":"startTime","type":"uint256"},{"internalType":"uint256","name":"lockPeriod","type":"uint256"},{"internalType":"uint256","name":"lastRewardCalculation","type":"uint256"},{"internalType":"uint256","name":"pendingRewards","type":"uint256"},{"internalType":"bool","name":"active","type":"bool"}],"stateMutability":"view","type":"function"},{"inputs":[{"internalType":"address","name":"","type":"address"},{"internalType":"uint256","name":"","type":"uint256"}],"name":"userTransactions","outputs":[{"internalType":"uint256","name":"timestamp","type":"uint256"},{"internalType":"address","name":"user","type":"address"},{"internalType":"address","name":"tokenIn","type":"address"},{"internalType":"address","name":"tokenOut","type":"address"},{"internalType":"uint256","name":"amountIn","type":"uint256"},{"internalType":"uint256","name":"amountOut","type":"uint256"},{"internalType":"string","name":"transactionType","type":"string"}],"stateMutability":"view","type":"function"},{"inputs":[],"name":"waitlistInterval","outputs":[{"internalType":"uint256","name":"","type":"uint256"}],"stateMutability":"view","type":"function"},{"inputs":[],"name":"waitlistSold","outputs":[{"internalType":"uint256","name":"","type":"uint256"}],"stateMutability":"view","type":"function"},{"inputs":[{"internalType":"address","name":"","type":"address"}],"name":"waitlisted","outputs":[{"internalType":"bool","name":"","type":"bool"}],"stateMutability":"view","type":"function"},{"inputs":[{"internalType":"address","name":"_token","type":"address"},{"internalType":"uint256","name":"_amount","type":"uint256"}],"name":"withdrawTokens","outputs":[],"stateMutability":"nonpayable","type":"function"}],"evm":{"bytecode":{"linkReferences":{},"object":"60a08060405234620001f157602060089162055730600a556006600b5561c350600c556001600d556001600e556212750060155562093a80601655600c601b5568056bc75e2d63100000601c5560016022556005602455336080523360018060a01b031960285416176028556200007681620001f6565b8281520167546f6b656e49434f60c01b815220600160206040516200009b81620001f6565b82815201603160f81b815220906040519160208301917f8b73c3c69bb8fe3d512ecc4cf759cc79239f7b179b0ffacaa9a75d522b39400f8352604084015260608301524660808301523060a083015260a0825260c082019180831060018060401b03841117620001db578260405251902060295561536e90816200021382396080518181816106050152818161090f01528181610a2701528181610b6a01528181610e0a01528181610ff20152818161105c015281816112db015281816115a50152818161164101528181611686015281816119f201528181611c8501528181611eb401528181612152015281816122030152818161228e015281816125310152818161281c015281816128c7015281816129ae01528181612a5601528181612b1c0152818161325a015281816135330152818161362701526137540152f35b634e487b7160e01b600052604160045260246000fd5b600080fd5b604081019081106001600160401b03821117620001db5760405256fe6080604081815260048036101561001557600080fd5b60009260e08435811c91826302d45457146138f257508163032d975b146138c657816306360b851461387d5784826306b091f91461373357508163098134821461366c5781630a5a4e4c146136025781630f6b1765146135e257816314ce670b14613594578163182a676b146135165781631c042d35146133cf5781631cbaee2d146133af5781631ce24e16146133855784826320f1fc611461334a57508163214405a91461332a57816321874ae2146132c957816323164c931461329f578163232ec69114613235578163238ac9331461320b57816327506f531461312b5781632ba77022146130e45781632bb38809146129715781632fd04c0814612e085781633644e51514612de85781633a5d417514612d9a5781633b7b618814612b5c5781633d50bae514612af65781633e61e9dc14612abd57816341398b1514612a9357816342e97cb814612a395781634561f1e114612a19578163485e7ba514612991578163491cc756146129715781634a3b68cc146129355781634cdb312d146128b05781634f93208a14612871578163518ab2a814612851578163525f8a5c1461280757816353aaa63b146127ce57816357126d0d14612658578163575cea6b146125ad5781635f6991ef1461251b578163608e4dd0146122d357816361b148fb146122695781636c19e783146121de5781636f43f373146121be57816371d20fe71461213b57816375506c961461211b578163776ff66a146120fb578163794a3292146120bc5781637a9773dc14611ef95781637b87511414611e8f5781637cc1f86714611daa578482637df7418114611aa6575081637ea61fe31461198f57816380933608146118b5578163817b1cd21461189557816383fabe0314611875578163842e29811461176d57816384cc315b14611743578163862dd2e21461172357816386989038146117035781638ccdbf50146116705781638da5cb5b1461162b5781638edbf436146115ea578163910c685514611580578163920a253e1461156057816392feb8491461153957816394dc9cf314611464578163963c9dd3146113915781639ab4a445146113675781639bd0b7c01461133d5781639c0fbd05146113205781639cd03330146112b65781639ea7685a14611201578163a1dc90311461109c578163a29f481c14611037578163a464db1414610fcd578163a77c80aa14610f7c578163a7c6016014610e79578163acb9de5614610e4f578163ad522d2714610de5578163aeccf73514610cc9578163af7665ce14610c9f578163b40cd21d14610c5d578163b5d5b5fa14610bca57508063b6b9ca8414610b45578063b842ec4414610ac7578063bc5894ba14610a9c578063c93c8f3414610a5e578063d0e0468414610a15578063d3ea4350146109ee578063d7ff07141461097b578063d8060cd5146108f9578063d8dc286a146108d4578063df9189b4146108ab578063e697b5d814610852578063e985e3671461082a578063ecb2dd7414610801578063ee172546146107e3578063ef92539914610705578063f1887684146106e6578063f30ef2e5146105a0578063f347f50514610581578063f520ccf314610543578063f53be9b114610520578063f7d76ae5146104f95763fd9a11e5146104c457600080fd5b346104f55760203660031901126104f557358252601e6020908152918190205490516001600160a01b039091168152f35b8280fd5b50346104f557826003193601126104f5575490516001600160a01b03909116815260209150f35b50503461053f578160031936011261053f57602090600c549051908152f35b5080fd5b50503461053f57602036600319011261053f5760209160ff9082906001600160a01b0361056e613917565b1681526013855220541690519015158152f35b50503461053f578160031936011261053f57602090600b549051908152f35b50346104f55760203660031901126104f557803580156106e25783546001600160a01b0392908316156106a257826005541680156106de5760208361062e926105ef876009541633908461400b565b948989518096819582946323b872dd60e01b84527f0000000000000000000000000000000000000000000000000000000000000000903390850161444b565b03925af19081156106d45786916106a6575b50156106a2576000805160206152828339815191529161066261069c92614a78565b9361066c85614c54565b61068981600554168684848b5416610682614488565b9333615181565b6005541694519182913395429184613ad4565b0390a380f35b8480fd5b6106c7915060203d81116106cd575b6106bf8183613bd8565b810190614393565b38610640565b503d6106b5565b85513d88823e3d90fd5b8580fd5b8380fd5b50503461053f578160031936011261053f57602090601c549051908152f35b5082903461053f57602091826003193601126107e0576001600160a01b03928361072d613917565b1682526018815284822091825493610744856151dd565b9561075188519788613bd8565b85875283870194835283832092945b868610610778578851806107748a82613a0b565b0390f35b6007856001928b5161078981613b56565b8754815285858901541683820152856002890154168d820152856003890154166060820152868801546080820152600588015460a08201526107cd60068901613bfb565b60c0820152815201940195019492610760565b80fd5b50503461053f578160031936011261053f5760209081549051908152f35b50503461053f578160031936011261053f57602090516000805160206153428339815191528152f35b50503461053f578160031936011261053f57905490516001600160a01b039091168152602090f35b50503461053f578060031936011261053f5761086c613917565b6001600160a01b0390811683526026602052818320805460243594908510156107e0575060209361089c91613ce6565b92905490519260031b1c168152f35b50503461053f578160031936011261053f5760065490516001600160a01b039091168152602090f35b50503461053f578160031936011261053f575166d3c21bcecceda160191b8152602090f35b50346104f55760203660031901126104f55735907f00000000000000000000000000000000000000000000000000000000000000006001600160a01b031633036104f55781156104f5577f171aabb8815c02fd00303450a77058600e3661eb75ce2e77972c0f080bc7099d91601c549080601c5582519182526020820152a180f35b5091346107e05760203660031901126107e0578235906019548210156107e05790600760208360196107749552209102019182549260018060a01b038060018301541695816002840154169160038401541690830154916109e3600660058601549501613bfb565b945197889788613ca1565b5091346107e05760203660031901126107e05750610a0e60209235614861565b9051908152f35b83346107e057610a2436613abe565b907f00000000000000000000000000000000000000000000000000000000000000006001600160a01b031633036104f55760155560165580f35b50503461053f57602036600319011261053f5760209160ff9082906001600160a01b03610a89613917565b1681526023855220541690519015158152f35b50503461053f578160031936011261053f5760075460209190610a0e906001600160a01b0316613d83565b5091903461053f578060031936011261053f57610ae2613917565b6001600160a01b039081168352601860205281832080549193602435928310156107e057506107749291610b1591613aea565b508054938060018301541695816002840154169160038401541690830154916109e3600660058601549501613bfb565b83346107e05760203660031901126107e057610b5f613917565b6001600160a01b03907f0000000000000000000000000000000000000000000000000000000000000000821633036104f557168060018060a01b031960125416176012557f50ea833891150ff97f83eea0ff8cf7baa403356ce9ef3b65346dc2d030ec418b8280a280f35b939050346107e057826003193601126107e057610be5613917565b6001600160a01b03168152601d602052828120805460243592908310156107e0575090610c1191613aea565b5080549260018201549260028301546003840154918401549260ff600660058701549601541695815197885260208801528601526060850152608084015260a0830152151560c0820152f35b5050503461053f578160031936011261053f5760a090601b5490601c5490601f5460205491602154938151958652602086015284015260608301526080820152f35b5050503461053f578160031936011261053f5760075490516001600160a01b039091168152602090f35b5050346104f55760203660031901126104f557803580156106e25783546001600160a01b0392908316156106a25782600254169182156106de57610d1890610d12600b54613d55565b90613d12565b91610d2233614308565b50670de0b6b3a7640000808502908582041485151715610dd257610d4d926105ef6020938793613d63565b03925af19081156106d4578691610db4575b50156106a25760008051602061528283398151915291610d8161069c92614a78565b93610d8b85614c54565b610da181600254168684848b5416610682614488565b6002541694519182913395429184613ad4565b610dcc915060203d81116106cd576106bf8183613bd8565b38610d5f565b634e487b7160e01b885260118452602488fd5b84346107e05760203660031901126107e057610dff613917565b6001600160a01b03907f0000000000000000000000000000000000000000000000000000000000000000821633036104f55716801561053f57600380546001600160a01b03191691909117905580f35b5050503461053f578160031936011261053f5760125490516001600160a01b039091168152602090f35b5050346104f55760203660031901126104f557803580156106e25783546001600160a01b0392908316156106a25782600154169182156106de57610ec290610d12600b54613d55565b91610ecc33614308565b50670de0b6b3a7640000808502908582041485151715610dd257610ef7926105ef6020938793613d63565b03925af19081156106d4578691610f5e575b50156106a25760008051602061528283398151915291610f2b61069c92614a78565b93610f3585614c54565b610f4b81600154168684848b5416610682614488565b6001541694519182913395429184613ad4565b610f76915060203d81116106cd576106bf8183613bd8565b38610f09565b5050346104f557610f99610f8f3661395f565b93929190916144eb565b80156106e25783546001600160a01b0392908316156106a25782600254169182156106de57610d1890610d12600b54613d55565b84346107e05760203660031901126107e057610fe7613917565b6001600160a01b03907f0000000000000000000000000000000000000000000000000000000000000000821633036104f55716801561053f57600580546001600160a01b03191691909117905580f35b84346107e05760203660031901126107e057611051613917565b6001600160a01b03907f0000000000000000000000000000000000000000000000000000000000000000821633036104f55716801561053f5781546001600160a01b03191617815580f35b505090346104f557826003193601126104f557825481516370a0823160e01b808252308286015290946001600160a01b03946020938490889060249082908a165afa9586156111f75782966111c7575b602497508481600154168751998a809288825230878301525afa9788156111bd57839861118d575b509060248592600254169487519586938492835230908301525afa92831561118157819361114e575b505050610774915193849384613ad4565b9091809350813d831161117a575b6111668183613bd8565b810103126107e0575051610774388061113d565b503d61115c565b508351903d90823e3d90fd5b9097508481813d83116111b6575b6111a58183613bd8565b810103126104f55751966024611114565b503d61119b565b86513d85823e3d90fd5b95508387813d83116111f0575b6111de8183613bd8565b8101031261053f5760249651956110ec565b503d6111d4565b85513d84823e3d90fd5b5050503461053f57602036600319011261053f5761121d613917565b90611227336143ab565b6001600160a01b039182169182156106e2573383146106e25733845260256020528184209081549081166106a2576001600160a01b031916831790558183526026602052808320611279903390614358565b338352601760205260018184209160ff1992828482541617905583855284209182541617905533906000805160206152c28339815191528380a380f35b84346107e05760203660031901126107e0576112d0613917565b6001600160a01b03907f0000000000000000000000000000000000000000000000000000000000000000821633036104f55716801561053f57600880546001600160a01b03191691909117905580f35b5050503461053f578160031936011261053f576020905160058152f35b5050503461053f578160031936011261053f5760095490516001600160a01b039091168152602090f35b5050503461053f578160031936011261053f5760015490516001600160a01b039091168152602090f35b505091346107e0576020928360031936011261053f573592838252601e815260018060a01b0383832054169283156104f5576113cb615249565b839486855b828752601d8087528588208054831015611455576113ef838592613aea565b505414611405575061140090614852565b6113d0565b9150918661142795969798506114219450528552838620613aea565b506151f4565b9260015b156107e0575061143c606094614861565b60c0858501519401511515928251948552840152820152f35b5050505050939290919261142b565b5050346104f55760203660031901126104f557803580156106e25783546001600160a01b0392908316156106a257826003541680156106de576020836114b4926105ef876007541633908461413a565b03925af19081156106d457869161151b575b50156106a257600080516020615282833981519152916114e861069c92614a78565b936114f285614c54565b61150881600354168684848b5416610682614488565b6003541694519182913395429184613ad4565b611533915060203d81116106cd576106bf8183613bd8565b386114c6565b5050503461053f578160031936011261053f5751673e09de2596099e2b601b1b8152602090f35b5050503461053f578160031936011261053f576020906024549051908152f35b84346107e05760203660031901126107e05761159a613917565b6001600160a01b03907f0000000000000000000000000000000000000000000000000000000000000000821633036104f55716801561053f57600280546001600160a01b03191691909117905580f35b8385346107e05760203660031901126107e0575061077461161161160c613917565b614308565b611620600c9392935484613d3b565b935193849384613ad4565b5050503461053f578160031936011261053f57517f00000000000000000000000000000000000000000000000000000000000000006001600160a01b03168152602090f35b5050346104f55760203660031901126104f557357f00000000000000000000000000000000000000000000000000000000000000006001600160a01b031633036104f55780156104f5576000805160206152e2833981519152918160a092600c5581519160608352600e60608401526d1554d11517d25390d4915351539560921b6080840152816020840152820152a180f35b5050503461053f578160031936011261053f576020906021549051908152f35b5050503461053f578160031936011261053f576020906015549051908152f35b5050503461053f57602036600319011261053f5760209061176561160c613917565b509051908152f35b915050346104f5576020806003193601126106e25790916001600160a01b03611794613917565b168452601d8252808420918254916117ab836151dd565b926117b882519485613bd8565b8084528284018095885283882088915b838310611848575050505080519482860193838752518094528186019496915b8483106117f55786860387f35b87518051875280850151878601528082015187830152606080820151908801526080808201519088015260a0808201519088015260c09081015115159087015296830196948101946001909201916117e8565b60078660019261185f859d999a9b9d9c989c6151f4565b81520192019201919098969594989793976117c8565b5050503461053f578160031936011261053f57602090600d549051908152f35b5050503461053f578160031936011261053f57602090601f549051908152f35b8385346107e057602090816003193601126107e0576118d2613917565b9091829182919082906001600160a01b0316815b818652601d80855288872080548310156119805760ff6006611909858d94613aea565b50015416611922575b505061191d90614852565b6118e6565b829694611950839a600161194761191d97611972968e611978998e8d83525220613aea565b50015490613d3b565b99858a52875261196c611965898d8c20613aea565b5054614861565b90613d3b565b93614852565b949088611912565b89518061077489888d84613ad4565b5050346104f5576119a2610f8f3661395f565b80156106e25783546001600160a01b0391908216156106a257818354169081156106de576119d68360085416339083613ed5565b85516323b872dd60e01b815290926020908290818a81611a1a887f0000000000000000000000000000000000000000000000000000000000000000338e850161444b565b03925af1908115611a9c578791611a7e575b50156106de5760008051602061528283398151915292611a4e61069c93614a78565b94611a5886614c54565b611a6d828254168785858c5416610682614488565b541694519182913395429184613ad4565b611a96915060203d81116106cd576106bf8183613bd8565b38611a2c565b86513d89823e3d90fd5b808585366003190160a08112611ced57608013611cf2576084356001600160401b038111611ced57611adb9036908301613932565b91606435908142116106de576001600160a01b03939035848116939190849003611d7957338403611d795760443591338852602094602a865287892054841115611da6576029549060243595888716809703611da2578951908882019260008051602061534283398151915284528b83015287606083015286608083015260a082015260a08152611b6b81613b87565b5190208851908782019261190160f01b84526022830152604282015260428152611b9481613ba2565b519020611ba08361446d565b90611bad89519283613bd8565b8382523684840111611d9e57898785611bd996611bd1968387013784010152614795565b91909161474b565b8480602854169116036106de57338652602a835280858720558451908152600080516020615322833981519152833392a28491811515908180611d91575b80611d7d575b8481611d5e575b50611d0b575b601790338852528486209260ff19936001858254161790556106de57611cf6575b50503415611cf2578083541615611cf257611c73611c6e3383600654163461413a565b614a78565b91611c7d83614c54565b8380808034867f0000000000000000000000000000000000000000000000000000000000000000165af1611caf6144a7565b5015611ced57611cdd6000805160206152828339815191529285541684611cd4614488565b91349033615122565b518061069c339442903484613ad4565b505050fd5b5050fd5b84526001838520918254161790558480611c4b565b926106de57338087526025845285872080546001600160a01b0319168417905582875260268452858720611d3f9190614358565b6017869333846000805160206152c28339815191528a80a39050611c2a565b9050611d79578287526011815260ff86882054161584611c24565b8680fd5b503387526025815284868820541615611c1d565b5086935033831415611c17565b8980fd5b8a80fd5b8880fd5b929050346106e257836003193601126106e257835481516370a0823160e01b815230938101939093526001600160a01b039081169390602084602481885afa938415611e85578694611e4d575b506101209550611e0561426e565b5090600a54600f54908260015416926002541693600c5496600b549881519a8b5260208b01528901526060880152608087015260a086015260c0850152830152610100820152f35b9093506020813d8211611e7d575b81611e6860209383613bd8565b810103126106de576101209550519238611df7565b3d9150611e5b565b83513d88823e3d90fd5b84346107e05760203660031901126107e057611ea9613917565b6001600160a01b03907f0000000000000000000000000000000000000000000000000000000000000000821633036104f55716801561053f57600780546001600160a01b03191691909117905580f35b505091346107e057806003193601126107e0576009546001600160a01b03169081156107e0578251633fabe5a360e21b81529160a0838681845afa9283156120b2578293612064575b508183131561053f5790602085939285519485809263313ce56760e01b82525afa928315611181578193612027575b50611f7a61426e565b5091633b9aca00908082029182040361201457600b54601281019081811161200157600901908111611fee5760ff91610d12611fb592613d55565b931690604d8211611fdb57602085610a0e86611fd58787600a0a90613d12565b90613d63565b634e487b7160e01b815260118652602490fd5b634e487b7160e01b835260118752602483fd5b634e487b7160e01b845260118852602484fd5b634e487b7160e01b825260118652602482fd5b9092506020813d821161205c575b8161204260209383613bd8565b810103126104f5575160ff811681036104f5579138611f71565b3d9150612035565b90925060a0813d82116120aa575b8161207f60a09383613bd8565b8101031261053f5761209081613cfe565b506120a2608060208301519201613cfe565b509138611f42565b3d9150612072565b84513d84823e3d90fd5b5050503461053f57602036600319011261053f5760209160ff9082906001600160a01b036120e8613917565b1681526017855220541690519015158152f35b5050503461053f578160031936011261053f576020906016549051908152f35b5050503461053f578160031936011261053f576020906022549051908152f35b5050346104f55760203660031901126104f55735907f00000000000000000000000000000000000000000000000000000000000000006001600160a01b031633036104f55781156104f5577f787a1fca55641ce34a438271930bbb9401df20db2b4f510d4f252227d85df43d91601b549080601b5582519182526020820152a180f35b5050503461053f578160031936011261053f57602090600e549051908152f35b84346107e05760203660031901126107e0576121f8613917565b6001600160a01b03907f0000000000000000000000000000000000000000000000000000000000000000821633036104f557816028549116809282167f2d025324f0a785e8c12d0a0d91a9caa49df4ef20ff87e0df7213a1d4f3157beb8580a36001600160a01b0319161760285580f35b84346107e05760203660031901126107e057612283613917565b6001600160a01b03907f0000000000000000000000000000000000000000000000000000000000000000821633036104f55716801561053f57600180546001600160a01b03191691909117905580f35b505090346104f557602090816003193601126106e2578235916122f5336143ab565b828552601e8152818520546001600160a01b03949033908616036106de579293859384919082805b338a52601d808752878b208054831015612513579961233e83829b9c613aea565b505414612357575061234f90614852565b97969761231d565b94509697505033885282845261236f86868a20613aea565b509560ff6006809801541615611da657338952838552600261239382888c20613aea565b500154338a5284865260036123aa83898d20613aea565b50015490620151809182810292818404149015171561250057906123cd91613d3b565b4210611da6576123dc88614861565b96338a528486526124086123f283898d20613aea565b509260018094015496338d528852888c20613aea565b500160ff198154169055601f61241f858254613d48565b90555b156124fc5761246191849161243633614b9b565b6124408886613d3b565b918a5416908a885180968195829463a9059cbb60e01b845233908401614a5d565b03925af19081156124f25787916124d5575b50156106de578484151591826124c3575b8451908152600080516020615302833981519152843392a36124a4578480f35b6000805160206152a283398151915291519283523392a3388080808480f35b6124ce868554613d3b565b8455612484565b6124ec9150833d85116106cd576106bf8183613bd8565b38612473565b84513d89823e3d90fd5b8780fd5b634e487b7160e01b8b526011845260248bfd5b505050612422565b5050346104f55760203660031901126104f557357f00000000000000000000000000000000000000000000000000000000000000006001600160a01b031633036104f55780156104f5576000805160206152e28339815191529160a091600a549181600a5580519260608452600a606085015269555344545f505249434560b01b60808501526020840152820152a180f35b5050503461053f576020806003193601126104f5576001600160a01b0392836125d4613917565b1681526026825282812091835190818185549182815201908195855282852090855b818110612642575050508261260c910383613bd8565b8451948186019282875251809352850193925b82811061262c5785850386f35b835187168552938101939281019260010161261f565b82548a16845292840192600192830192016125f6565b505090346104f557602091826003193601126106e25780359161267a336143ab565b828552601e8452808520546001600160a01b03949033908616036106de578594865b338852601d80845284892080548310156127c1576126bb838992613aea565b5054146126d157506126cc90614852565b61269c565b9192939495965033885281845260ff60066126ee83888c20613aea565b50015416156124fc5761270087614861565b958615611da65761275d9361273788938795338d528087528c6005612727848d8420613aea565b500155338d528652888c20613aea565b5082429101558954169089875180968195829463a9059cbb60e01b845233908401614a5d565b03925af1908115611e855786916127a4575b50156106a2576000805160206152a283398151915291612790848354613d3b565b8255519283523392a360015b156107e05780f35b6127bb9150823d84116106cd576106bf8183613bd8565b3861276f565b505050505050505061279c565b5050503461053f57602036600319011261053f5760209181906001600160a01b036127f7613917565b1681526027845220549051908152f35b84833461053f57602036600319011261053f577f00000000000000000000000000000000000000000000000000000000000000006001600160a01b0316330361053f573560145580f35b5050503461053f578160031936011261053f57602090600f549051908152f35b5050503461053f57602036600319011261053f5760209160ff9082906001600160a01b0361289d613917565b1681526011855220541690519015158152f35b5050346104f55760203660031901126104f55735907f00000000000000000000000000000000000000000000000000000000000000006001600160a01b031633036104f557601482116104f5577fd968a3cc702265c3ab67356df15ca21d50167b011f198b963e2a868e04e3d5e091602454908060245582519182526020820152a180f35b5050503461053f57602036600319011261053f576020916001600160a01b0390829082612960613917565b168152602585522054169051908152f35b5050503461053f578160031936011261053f57602090601a549051908152f35b5050503461053f576129a23661399c565b6001600160a01b0391907f0000000000000000000000000000000000000000000000000000000000000000831633036106a2577f73843a5065350bf0f7e39089149d74b4ef62cc29b0e3eb1983e9c910c2149afe92602092169384865260138352612a0f8282882061425d565b519015158152a280f35b5050503461053f578160031936011261053f576020906010549051908152f35b5050503461053f57612a4a3661399c565b90916001600160a01b037f0000000000000000000000000000000000000000000000000000000000000000811633036106a257612a90931684526017602052832061425d565b80f35b5050503461053f578160031936011261053f5760035490516001600160a01b039091168152602090f35b5050503461053f57602036600319011261053f5760209181906001600160a01b03612ae6613917565b168152602a845220549051908152f35b84833461053f57602036600319011261053f57612b11613917565b6001600160a01b03907f0000000000000000000000000000000000000000000000000000000000000000821633036106e2571680156104f55781546001600160a01b03191617905580f35b8285853461053f57612b6d36613abe565b612b79929192336143ab565b601c5483106106e25783546001600160a01b031680156106a257601e82148015612d90575b8015612d86575b8015612d7b575b156106a2579082918685945180926323b872dd60e01b8252818981612bda60209b8c9730903390850161444b565b03925af1908115611e85578691612d5e575b50156106a25760225493612bff85614852565b6022558251612c0d81613b56565b85815281810185815284820142815260608301858152608084019042825260a08501928b845260c086019460018652338d52601d8852898d20805490600160401b821015612d4a5790612c6591600182018155613aea565b979097612d3857927fb4caaf29adda3eefee3ad552a8e85058589bf834c7466cae4ee58787f70589ed9b9c9d9e92612cc898979592600697955189555160018901555160028801555160038701555190850155516005840155511515910161425d565b858752601e815282872080546001600160a01b03191633179055601f54612cf0908690613d3b565b601f5533875260238152828720805460ff811615612d19575b505082519485528401523392a380f35b60ff19166001179055602154612d2e90614852565b6021558780612d09565b634e487b7160e01b8e528d8f5260248efd5b8f8f6041602492634e487b7160e01b835252fd5b612d759150853d87116106cd576106bf8183613bd8565b87612bec565b5061016d8214612bac565b5060b48214612ba5565b50605a8214612b9e565b5050346104f557612dad610f8f3661395f565b80156106e25783546001600160a01b0392908316156106a257826003541680156106de576020836114b4926105ef876007541633908461413a565b5050503461053f578160031936011261053f576020906029549051908152f35b505091346107e0576020928360031936011261053f578035612e29336143ab565b808352601e8552838320546001600160a01b03959033908716036106e2578394845b338652601d80845282872080548310156130d657612e6a838792613aea565b505414612e805750612e7b90614852565b612e4b565b91929394959650338752818452612e9981848920613aea565b5060ff60068092015416156124fc573388528285526002612ebc83868b20613aea565b5001543389528386526003612ed384878c20613aea565b5001549062015180918281029281840414901517156130c35799612efd87928b9c9b999a9b613d3b565b93612f078a614861565b93338a52868452612f1a82898c20613aea565b5091886001809401549b80984210613067575b90612f449291612f9298999a338252885220613aea565b500160ff198154169055601f612f5b8a8254613d48565b905599612f7185612f6c888c613d48565b613d3b565b918c5416908c885180968195829463a9059cbb60e01b845233908401614a5d565b03925af190811561305d578991613040575b50156124fc57808691613014575b50508015612ff6577f9c9ec3cfa814b0112b71c20d0b0ab54dead00a99fd389c174df717d2f1d364039282519485528401523392a35b156107e057612a9033614b9b565b509060008051602061530283398151915291519283523392a3612fe8565b61301f818654613d3b565b855583519081526000805160206152a2833981519152853392a38438612fb2565b6130579150853d87116106cd576106bf8183613bd8565b38612fa4565b84513d8b823e3d90fd5b5050919350919394506005808a02908a8204148a1517156130b05791612f44899492898f6064612f929997049a601a6130a18d8254613d3b565b90559a99985090919250612f2d565b634e487b7160e01b8d5260118c5260248dfd5b634e487b7160e01b8a526011895260248afd5b505050505050509150612fe8565b5050346104f5576130f7610f8f3661395f565b80156106e25783546001600160a01b0392908316156106a25782600154169182156106de57610ec290610d12600b54613d55565b505082346107e057806003193601126107e057906019549061314c826151dd565b9261315985519485613bd8565b82845260198152906020907f944998273e477b495144fb8794c914197f3ccb46be2900f4698fd0ef743c9695908286015b85851061319e578751806107748982613a0b565b6007846001928a516131af81613b56565b86548152848060a01b0380868901541684830152806002890154168d8301526003880154166060820152858701546080820152600587015460a08201526131f860068801613bfb565b60c082015281520193019401939161318a565b5050503461053f578160031936011261053f5760285490516001600160a01b039091168152602090f35b84346107e05760203660031901126107e05761324f613917565b6001600160a01b03907f0000000000000000000000000000000000000000000000000000000000000000821633036104f55716801561053f57600980546001600160a01b03191691909117905580f35b5050503461053f578160031936011261053f5760085490516001600160a01b039091168152602090f35b5050503461053f57602036600319011261053f576080916001600160a01b03806132f1613917565b16825260256020528282205416916026602052808083205492602760205220549060245492815194855260208501528301526060820152f35b5050503461053f578160031936011261053f57602090601b549051908152f35b8085816003193601126133825734156133825781546001600160a01b0390811615611cf257611c73611c6e826006541633903461413a565b50fd5b5050503461053f578160031936011261053f5760055490516001600160a01b039091168152602090f35b5050503461053f578160031936011261053f576020906014549051908152f35b505091346107e057806003193601126107e0576008546001600160a01b03169081156107e0578251633fabe5a360e21b81529160a0838681845afa9283156120b25782936134c8575b508183131561053f5790602085939285519485809263313ce56760e01b82525afa92831561118157819361348b575b5061345061426e565b50916305f5e100908082029182040361201457600b54601281019081811161200157600a01908111611fee5760ff91610d12611fb592613d55565b9092506020813d82116134c0575b816134a660209383613bd8565b810103126104f5575160ff811681036104f5579138613447565b3d9150613499565b90925060a0813d821161350e575b816134e360a09383613bd8565b8101031261053f576134f481613cfe565b50613506608060208301519201613cfe565b509138613418565b3d91506134d6565b5050503461053f576135273661399c565b6001600160a01b0391907f0000000000000000000000000000000000000000000000000000000000000000831633036106a2577fdda6207409a585801122fb885dcaa8074f9a21f25ff2def680c67f01a86c2c9b92602092169384865260118352612a0f8282882061425d565b5050346104f5576135a7610f8f3661395f565b80156106e25783546001600160a01b0392908316156106a257826005541680156106de5760208361062e926105ef876009541633908461400b565b5050503461053f578160031936011261053f57602090600a549051908152f35b84346107e05760203660031901126107e05761361c613917565b6001600160a01b03907f0000000000000000000000000000000000000000000000000000000000000000821633036104f55716801561053f57600680546001600160a01b03191691909117905580f35b505090346104f557602091826003193601126106e2573591828452601e815260018060a01b0382852054169182156106a2576136a6615249565b8594865b858852601d8086528489208054831015613727576136c9838592613aea565b5054146136df57506136da90614852565b6136aa565b909150856136fc9495969750611421935088528552838720613aea565b9060015b156106a2576080945081519381848401519301519382519586528501528301526060820152f35b50505050919293613700565b8481853461053f578260031936011261053f5761374e613917565b602435917f0000000000000000000000000000000000000000000000000000000000000000906001600160a01b0380831633036106de578086541693169283146137fa575b855163a9059cbb60e01b815294602094869493859384926137b79290918401614a5d565b03925af19182156137f1575082916137d3575b50156107e05780f35b6137eb915060203d81116106cd576106bf8183613bd8565b826137ca565b513d84823e3d90fd5b92919085516370a0823160e01b81523085820152602081602481865afa8015613873578690613840575b6138329150601f5490613d48565b83116106a257909192613793565b506020813d821161386b575b8161385960209383613bd8565b810103126106de576138329051613824565b3d915061384c565b87513d88823e3d90fd5b5050346104f55760203660031901126104f557803580156106e25783546001600160a01b0391908216156106a257818354169081156106de576119d68360085416339083613ed5565b5050503461053f578160031936011261053f5760065460209190610a0e906001600160a01b0316613d83565b85903461053f578160031936011261053f576002546001600160a01b03168152602090f35b600435906001600160a01b038216820361392d57565b600080fd5b9181601f8401121561392d578235916001600160401b03831161392d576020838186019501011161392d57565b90600319820160c0811261392d5760801361392d57600491608435906001600160401b03821161392d57613994918401613932565b909160a43590565b604090600319011261392d576004356001600160a01b038116810361392d5790602435801515810361392d5790565b919082519283825260005b8481106139f7575050826000602080949584010152601f8019910116010190565b6020818301810151848301820152016139d6565b602080820190808352835180925260409283810182858560051b8401019601946000925b858410613a40575050505050505090565b909192939495968580613aad600193603f198682030188528b5180518252858060a01b0380858301511685840152808983015116898401526060908183015116908301526080808201519083015260a0808201519083015260c0809101519160e0809282015201906139cb565b990194019401929594939190613a2f565b604090600319011261392d576004359060243590565b6040919493926060820195825260208201520152565b8054821015613b06576000526007602060002091020190600090565b634e487b7160e01b600052603260045260246000fd5b90600182811c92168015613b4c575b6020831014613b3657565b634e487b7160e01b600052602260045260246000fd5b91607f1691613b2b565b60e081019081106001600160401b03821117613b7157604052565b634e487b7160e01b600052604160045260246000fd5b60c081019081106001600160401b03821117613b7157604052565b608081019081106001600160401b03821117613b7157604052565b604081019081106001600160401b03821117613b7157604052565b601f909101601f19168101906001600160401b03821190821017613b7157604052565b9060405191826000825492613c0f84613b1c565b908184526001948581169081600014613c7e5750600114613c3b575b5050613c3992500383613bd8565b565b9093915060005260209081600020936000915b818310613c66575050613c3993508201013880613c2b565b85548884018501529485019487945091830191613c4e565b915050613c3994506020925060ff191682840152151560051b8201013880613c2b565b9360e09592613ce398979492865260018060a01b0392838092166020880152166040860152166060840152608083015260a08201528160c082015201906139cb565b90565b8054821015613b065760005260206000200190600090565b51906001600160501b038216820361392d57565b81810292918115918404141715613d2557565b634e487b7160e01b600052601160045260246000fd5b91908201809211613d2557565b91908203918211613d2557565b604d8111613d2557600a0a90565b8115613d6d570490565b634e487b7160e01b600052601260045260246000fd5b6001600160a01b0316801561392d57604051633fabe5a360e21b81529060a082600481845afa918215613e7b57600092613e87575b50600082131561392d5760206004916040519283809263313ce56760e01b82525afa908115613e7b57600091613e40575b50613df261426e565b5091670de0b6b3a76400009080820291820403613d2557600b54601281018111613d255760ff91610d12613e2592613d55565b9116604d8111613d2557613ce392611fd591600a0a90613d12565b6020813d8211613e73575b81613e5860209383613bd8565b8101031261053f57519060ff821682036107e0575038613de9565b3d9150613e4b565b6040513d6000823e3d90fd5b909160a0823d8211613ecd575b81613ea160a09383613bd8565b810103126107e05750613eb381613cfe565b50613ec5608060208301519201613cfe565b509038613db8565b3d9150613e94565b916001600160a01b0390911690811561392d57604051633fabe5a360e21b81529060a082600481865afa918215613e7b57600092613fbd575b50600082131561392d5760206004936040519485809263313ce56760e01b82525afa928315613e7b57600093613f7c575b5090613f4d613f5492614308565b5093613d12565b600b546012810190818111613d2557600a01908111613d255760ff91610d12613e2592613d55565b6020939193813d8211613fb5575b81613f9760209383613bd8565b8101031261053f57519060ff821682036107e0575091613f4d613f3f565b3d9150613f8a565b909160a0823d8211614003575b81613fd760a09383613bd8565b810103126107e05750613fe981613cfe565b50613ffb608060208301519201613cfe565b509038613f0e565b3d9150613fca565b916001600160a01b0390911690811561392d57604051633fabe5a360e21b81529060a082600481865afa918215613e7b576000926140ec575b50600082131561392d5760206004936040519485809263313ce56760e01b82525afa928315613e7b576000936140ab575b5090613f4d61408392614308565b600b546012810190818111613d2557600901908111613d255760ff91610d12613e2592613d55565b6020939193813d82116140e4575b816140c660209383613bd8565b8101031261053f57519060ff821682036107e0575091613f4d614075565b3d91506140b9565b909160a0823d8211614132575b8161410660a09383613bd8565b810103126107e0575061411881613cfe565b5061412a608060208301519201613cfe565b509038614044565b3d91506140f9565b916001600160a01b0390911690811561392d57604051633fabe5a360e21b81529060a082600481865afa918215613e7b5760009261420f575b50600082131561392d5760206004936040519485809263313ce56760e01b82525afa928315613e7b576000936141ce575b5090613f4d6141b292614308565b600b54601281018111613d255760ff91610d12613e2592613d55565b6020939193813d8211614207575b816141e960209383613bd8565b8101031261053f57519060ff821682036107e0575091613f4d6141a4565b3d91506141dc565b909160a0823d8211614255575b8161422960a09383613bd8565b810103126107e0575061423b81613cfe565b5061424d608060208301519201613cfe565b509038614173565b3d915061421c565b9060ff801983541691151516179055565b601454801580156142ff575b6142f5576000805260176020527fd840e16649f6b9a295d95876f4633d3a6b10b55e8162971cf78afd886d5ec89b5460ff16156142ed576015545b80156142e2576142c86142cd9242613d48565b613d63565b6142df600a5461196c600c5484613d12565b91565b5050600a5490600090565b6016546142b5565b50600a5490600090565b5080421061427a565b601454908115801561434f575b6142e2576001600160a01b031660009081526017602052604090205460ff16156142ed5760155480156142e2576142c86142cd9242613d48565b50814210614315565b8054600160401b811015613b715761437591600182018155613ce6565b819291549060031b9160018060a01b03809116831b921b1916179055565b9081602091031261392d5751801515810361392d5790565b6001600160a01b0390811660008181526011602052604081205490929060ff166104f557601360205260ff6040842054166104f5576012541690816143ef57505050565b602090602460405180948193633e28391d60e01b835260048301525afa908115614440578291614422575b506107e05750565b61443a915060203d81116106cd576106bf8183613bd8565b3861441a565b6040513d84823e3d90fd5b6001600160a01b03918216815291166020820152604081019190915260600190565b6001600160401b038111613b7157601f01601f191660200190565b6040519061449582613bbd565b600382526242555960e81b6020830152565b3d156144d2573d906144b88261446d565b916144c66040519384613bd8565b82523d6000602084013e565b606090565b356001600160a01b038116810361392d5790565b919060608301359182421161392d57614503846144d7565b6001600160a01b039490339086160361392d576040928382013590600093338552602093602a8552868620548411156106de576029549085614544826144d7565b9101986145508a6144d7565b908b8a5192818a8501956000805160206153428339815191528752168c85015216606083015286608083015260a082015260a0815261458e81613b87565b5190208751908682019261190160f01b845260228301526042820152604281526145b781613ba2565b519020906145c48161446d565b926145d188519485613bd8565b8184523682820111611d7957918686838694611bd196836145f799013784010152614795565b8680602854169116036104f55790601791338452602a825280858520558451908152600080516020615322833981519152823392a285614636866144d7565b16151580614737575b80614723575b80614704575b61469c575b338352528181209360ff19946001868254161790558061466f856144d7565b1661467c575b5050505050565b6146876001946144d7565b16815220918254161790553880808080614675565b6146a5856144d7565b3384526025825284842080546001600160a01b031916918816919091179055856146ce866144d7565b168352602681526146e133858520614358565b33866146ec876144d7565b166000805160206152c28339815191528580a3614650565b508561470f866144d7565b1683526011815260ff84842054161561464b565b503383526025815285848420541615614645565b503386614743876144d7565b16141561463f565b600581101561477f578061475c5750565b6001810361476957600080fd5b6002810361477657600080fd5b60031461392d57565b634e487b7160e01b600052602160045260246000fd5b9060418151146000146147c3576147bf916020820151906060604084015193015160001a906147cd565b9091565b5050600090600290565b9291906fa2a8918ca85bafe22016d0b997e4df60600160ff1b0383116148465791608094939160ff602094604051948552168484015260408301526060820152600093849182805260015afa156148395781516001600160a01b03811615614833579190565b50600190565b50604051903d90823e3d90fd5b50505050600090600390565b6000198114613d255760010190565b6000818152601e60209081526040808320546001600160a01b03169081156106e2579293849390849081808080805b888b52601d808b52888c208054831015614a4c576148af838992613aea565b5054146148c557506148c090614852565b614890565b96509a50505050505082855280845285828620906148e291613aea565b50600501549583865281855280838720906148fc91613aea565b506004015492848752828652818188209061491691613aea565b50926001809401549686895281815283838a209061493391613aea565b50600301549689525286209061494891613aea565b506006015460ff16905b156106a257156106e257428114614a455761496d9042613d48565b92601b548092605a81146000146149cb5750506003820291808304600314901517156149b75750613ce393926149ab63bbf81e00936149b09360011c905b613d12565b0490613d3b565b634e487b7160e01b81526011600452602490fd5b60b48103614a015750508160011b91808304600214901517156149b75750613ce393926149ab63bbf81e00936149b09390613d12565b61016d9194935014614a26575b50613ce393926149ab63bbf81e00936149b093613d12565b60038392930291808304600314901517156149b7575090613ce3614a0e565b5050505090565b505050965096509793509050614952565b6001600160a01b039091168152602081019190915260400190565b600033815260206025815260018060a01b039060408281852054169283151580614b86575b614aa957505050505090565b6064614ab760245488613d12565b049481815416848451809263a9059cbb60e01b8252818581614add8d8d60048401614a5d565b03925af19081156120b2578291614b69575b50156107e0577f94ccb86446750660ec532b1beb1fb55f5ba2fffca042c4c53f4c080e72595b389392918186614b5f935260278552838120614b32898254613d3b565b905554168688845192614b4484613bbd565b6008845267149151915494905360c21b878501528089615181565b519384523393a390565b614b809150853d87116106cd576106bf8183613bd8565b38614aef565b508385526011835260ff828620541615614a9d565b600090815b6001600160a01b0382166000908152601d602052604090208054821015614c4c576006614bcf8360ff93613aea565b50015416614be557614be090614852565b614ba0565b50905060015b1580614c2a575b614bf95750565b6001600160a01b03166000908152602360205260409020805460ff191690556021548015613d255760001901602155565b506001600160a01b03811660009081526023602052604090205460ff16614bf2565b505090614beb565b614c5d336143ab565b600080546040516370a0823160e01b815230600482015291926020926001600160a01b03909216918381602481865afa908115614dd8579082918691614da7575b50106106e257600f54673e09de2596099e2b601b1b614cbd8383613d3b565b116106a25733855260178452604085205460ff1615614d79575060105466d3c21bcecceda160191b614cef8383613d3b565b116106a257849282614d058694614d3594613d3b565b6010555b614d1581600f54613d3b565b600f5560405194858094819363a9059cbb60e01b83523360048401614a5d565b03925af1918215614d6e578392614d51575b5050156107e05750565b614d679250803d106106cd576106bf8183613bd8565b3880614d47565b6040513d85823e3d90fd5b614d9682612f6c67f753b67a89598b0b60191b9360105490613d48565b116106e257614d3584928492614d09565b809250858092503d8311614dd1575b614dc08183613bd8565b810103126106a25781905138614c9e565b503d614db6565b6040513d87823e3d90fd5b601954600160401b811015613b7157600180820180601955821015613b06576000906019825260c0600660209460078686209102018651815583810160018060a01b039081888a0151169060018060a01b03199182825416179055600283018260408b01511682825416179055600383019160608a015116908254161790556080870151600482015560a08701516005820155019401519182519260018060401b038411614f7c57614e958654613b1c565b601f8111614f36575b508491601f8511600114614ed7579394508492919083614ecc575b50501b916000199060031b1c1916179055565b015192503880614eb9565b86815285812093958591601f198316915b88838310614f1c5750505010614f03575b505050811b019055565b015160001960f88460031b161c19169055388080614ef9565b858701518855909601959485019487935090810190614ee8565b868352858320601f860160051c810191878710614f72575b601f0160051c019084905b828110614f67575050614e9e565b848155018490614f59565b9091508190614f4e565b634e487b7160e01b82526041600452602482fd5b8054600160401b811015613b7157614faf906001928382018155613aea565b61510c578251815560208084015183830180546001600160a01b039283166001600160a01b031991821617909155604086015160028501805491841691831691909117905560608601516003850180549190931691161790556080840151600483015560a0840151600583015560c0909301518051600690920193906001600160401b038311613b71576150438554613b1c565b601f81116150c3575b5081601f841160011461507a5750928293918392600094614ecc5750501b916000199060031b1c1916179055565b919083601f1981168760005284600020946000905b888383106150a95750505010614f0357505050811b019055565b85870151885590960195948501948793509081019061508f565b6000868152838120601f860160051c810192858710615102575b601f0160051c019186905b8381106150f75750505061504c565b8281550186906150e8565b90925082906150dd565b634e487b7160e01b600052600060045260246000fd5b92613c399491926040519461513686613b56565b42865260018060a01b038091169485602088015260006040880152166060860152608085015260a084015260c0830152600052601860205261517c816040600020614f90565b614de3565b92613c3995929491936040519561519787613b56565b42875260018060a01b0380809316968760208a0152166040880152166060860152608085015260a084015260c0830152600052601860205261517c816040600020614f90565b6001600160401b038111613b715760051b60200190565b9060405161520181613b56565b60c060ff600683958054855260018101546020860152600281015460408601526003810154606086015260048101546080860152600581015460a08601520154161515910152565b6040519061525682613b56565b8160c06000918281528260208201528260408201528260608201528260808201528260a0820152015256fe377aadedb6b2a771959584d10a6a36eccb5f56b4eb3a48525f76108d2660d8d4f87cfa2d5feaea949ad65bb76a26d8553381bcb6382adbc83dedd48961bf32d95f1ca2fcc108b751843a763e60d2201f593516109d7dbb1b700468f2d4190bb76e838f2a03741f5f2aff5480963b672fb0dd8430a4dc75db9b67ce009733c9fe7fc4727e062e336010f2c282598ef5f14facb3de68cf8195c2f23e1454b2b74eb23e07a4fc171f5f9242d4254c3b66b893beaab2f3787495c0f2d09dd3ef972691b089318bbdf627bacec662873c12cc3afdc69db73f084d7726e9ce2907280aa164736f6c6343000813000a","opcodes":"PUSH1 0xA0 DUP1 PUSH1 0x40 MSTORE CALLVALUE PUSH3 0x1F1 JUMPI PUSH1 0x20 PUSH1 0x8 SWAP2 PUSH3 0x55730 PUSH1 0xA SSTORE PUSH1 0x6 PUSH1 0xB SSTORE PUSH2 0xC350 PUSH1 0xC SSTORE PUSH1 0x1 PUSH1 0xD SSTORE PUSH1 0x1 PUSH1 0xE SSTORE PUSH3 0x127500 PUSH1 0x15 SSTORE PUSH3 0x93A80 PUSH1 0x16 SSTORE PUSH1 0xC PUSH1 0x1B SSTORE PUSH9 0x56BC75E2D63100000 PUSH1 0x1C SSTORE PUSH1 0x1 PUSH1 0x22 SSTORE PUSH1 0x5 PUSH1 0x24 SSTORE CALLER PUSH1 0x80 MSTORE CALLER PUSH1 0x1 DUP1 PUSH1 0xA0 SHL SUB NOT PUSH1 0x28 SLOAD AND OR PUSH1 0x28 SSTORE PUSH3 0x76 DUP2 PUSH3 0x1F6 JUMP JUMPDEST DUP3 DUP2 MSTORE ADD PUSH8 0x546F6B656E49434F PUSH1 0xC0 SHL DUP2 MSTORE KECCAK256 PUSH1 0x1 PUSH1 0x20 PUSH1 0x40 MLOAD PUSH3 0x9B DUP2 PUSH3 0x1F6 JUMP JUMPDEST DUP3 DUP2 MSTORE ADD PUSH1 0x31 PUSH1 0xF8 SHL DUP2 MSTORE KECCAK256 SWAP1 PUSH1 0x40 MLOAD SWAP2 PUSH1 0x20 DUP4 ADD SWAP2 PUSH32 0x8B73C3C69BB8FE3D512ECC4CF759CC79239F7B179B0FFACAA9A75D522B39400F DUP4 MSTORE PUSH1 0x40 DUP5 ADD MSTORE PUSH1 0x60 DUP4 ADD MSTORE CHAINID PUSH1 0x80 DUP4 ADD MSTORE ADDRESS PUSH1 0xA0 DUP4 ADD MSTORE PUSH1 0xA0 DUP3 MSTORE PUSH1 0xC0 DUP3 ADD SWAP2 DUP1 DUP4 LT PUSH1 0x1 DUP1 PUSH1 0x40 SHL SUB DUP5 GT OR PUSH3 0x1DB JUMPI DUP3 PUSH1 0x40 MSTORE MLOAD SWAP1 KECCAK256 PUSH1 0x29 SSTORE PUSH2 0x536E SWAP1 DUP2 PUSH3 0x213 DUP3 CODECOPY PUSH1 0x80 MLOAD DUP2 DUP2 DUP2 PUSH2 0x605 ADD MSTORE DUP2 DUP2 PUSH2 0x90F ADD MSTORE DUP2 DUP2 PUSH2 0xA27 ADD MSTORE DUP2 DUP2 PUSH2 0xB6A ADD MSTORE DUP2 DUP2 PUSH2 0xE0A ADD MSTORE DUP2 DUP2 PUSH2 0xFF2 ADD MSTORE DUP2 DUP2 PUSH2 0x105C ADD MSTORE DUP2 DUP2 PUSH2 0x12DB ADD MSTORE DUP2 DUP2 PUSH2 0x15A5 ADD MSTORE DUP2 DUP2 PUSH2 0x1641 ADD MSTORE DUP2 DUP2 PUSH2 0x1686 ADD MSTORE DUP2 DUP2 PUSH2 0x19F2 ADD MSTORE DUP2 DUP2 PUSH2 0x1C85 ADD MSTORE DUP2 DUP2 PUSH2 0x1EB4 ADD MSTORE DUP2 DUP2 PUSH2 0x2152 ADD MSTORE DUP2 DUP2 PUSH2 0x2203 ADD MSTORE DUP2 DUP2 PUSH2 0x228E ADD MSTORE DUP2 DUP2 PUSH2 0x2531 ADD MSTORE DUP2 DUP2 PUSH2 0x281C ADD MSTORE DUP2 DUP2 PUSH2 0x28C7 ADD MSTORE DUP2 DUP2 PUSH2 0x29AE ADD MSTORE DUP2 DUP2 PUSH2 0x2A56 ADD MSTORE DUP2 DUP2 PUSH2 0x2B1C ADD MSTORE DUP2 DUP2 PUSH2 0x325A ADD MSTORE DUP2 DUP2 PUSH2 0x3533 ADD MSTORE DUP2 DUP2 PUSH2 0x3627 ADD MSTORE PUSH2 0x3754 ADD MSTORE RETURN JUMPDEST PUSH4 0x4E487B71 PUSH1 0xE0 SHL PUSH1 0x0 MSTORE PUSH1 0x41 PUSH1 0x4 MSTORE PUSH1 0x24 PUSH1 0x0 REVERT JUMPDEST PUSH1 0x0 DUP1 REVERT JUMPDEST PUSH1 0x40 DUP2 ADD SWAP1 DUP2 LT PUSH1 0x1 PUSH1 0x1 PUSH1 0x40 SHL SUB DUP3 GT OR PUSH3 0x1DB JUMPI PUSH1 0x40 MSTORE JUMP INVALID PUSH1 0x80 PUSH1 0x40 DUP2 DUP2 MSTORE PUSH1 0x4 DUP1 CALLDATASIZE LT ISZERO PUSH2 0x15 JUMPI PUSH1 0x0 DUP1 REVERT JUMPDEST PUSH1 0x0 SWAP3 PUSH1 0xE0 DUP5 CALLDATALOAD DUP2 SHR SWAP2 DUP3 PUSH4 0x2D45457 EQ PUSH2 0x38F2 JUMPI POP DUP2 PUSH4 0x32D975B EQ PUSH2 0x38C6 JUMPI DUP2 PUSH4 0x6360B85 EQ PUSH2 0x387D JUMPI DUP5 DUP3 PUSH4 0x6B091F9 EQ PUSH2 0x3733 JUMPI POP DUP2 PUSH4 0x9813482 EQ PUSH2 0x366C JUMPI DUP2 PUSH4 0xA5A4E4C EQ PUSH2 0x3602 JUMPI DUP2 PUSH4 0xF6B1765 EQ PUSH2 0x35E2 JUMPI DUP2 PUSH4 0x14CE670B EQ PUSH2 0x3594 JUMPI DUP2 PUSH4 0x182A676B EQ PUSH2 0x3516 JUMPI DUP2 PUSH4 0x1C042D35 EQ PUSH2 0x33CF JUMPI DUP2 PUSH4 0x1CBAEE2D EQ PUSH2 0x33AF JUMPI DUP2 PUSH4 0x1CE24E16 EQ PUSH2 0x3385 JUMPI DUP5 DUP3 PUSH4 0x20F1FC61 EQ PUSH2 0x334A JUMPI POP DUP2 PUSH4 0x214405A9 EQ PUSH2 0x332A JUMPI DUP2 PUSH4 0x21874AE2 EQ PUSH2 0x32C9 JUMPI DUP2 PUSH4 0x23164C93 EQ PUSH2 0x329F JUMPI DUP2 PUSH4 0x232EC691 EQ PUSH2 0x3235 JUMPI DUP2 PUSH4 0x238AC933 EQ PUSH2 0x320B JUMPI DUP2 PUSH4 0x27506F53 EQ PUSH2 0x312B JUMPI DUP2 PUSH4 0x2BA77022 EQ PUSH2 0x30E4 JUMPI DUP2 PUSH4 0x2BB38809 EQ PUSH2 0x2971 JUMPI DUP2 PUSH4 0x2FD04C08 EQ PUSH2 0x2E08 JUMPI DUP2 PUSH4 0x3644E515 EQ PUSH2 0x2DE8 JUMPI DUP2 PUSH4 0x3A5D4175 EQ PUSH2 0x2D9A JUMPI DUP2 PUSH4 0x3B7B6188 EQ PUSH2 0x2B5C JUMPI DUP2 PUSH4 0x3D50BAE5 EQ PUSH2 0x2AF6 JUMPI DUP2 PUSH4 0x3E61E9DC EQ PUSH2 0x2ABD JUMPI DUP2 PUSH4 0x41398B15 EQ PUSH2 0x2A93 JUMPI DUP2 PUSH4 0x42E97CB8 EQ PUSH2 0x2A39 JUMPI DUP2 PUSH4 0x4561F1E1 EQ PUSH2 0x2A19 JUMPI DUP2 PUSH4 0x485E7BA5 EQ PUSH2 0x2991 JUMPI DUP2 PUSH4 0x491CC756 EQ PUSH2 0x2971 JUMPI DUP2 PUSH4 0x4A3B68CC EQ PUSH2 0x2935 JUMPI DUP2 PUSH4 0x4CDB312D EQ PUSH2 0x28B0 JUMPI DUP2 PUSH4 0x4F93208A EQ PUSH2 0x2871 JUMPI DUP2 PUSH4 0x518AB2A8 EQ PUSH2 0x2851 JUMPI DUP2 PUSH4 0x525F8A5C EQ PUSH2 0x2807 JUMPI DUP2 PUSH4 0x53AAA63B EQ PUSH2 0x27CE JUMPI DUP2 PUSH4 0x57126D0D EQ PUSH2 0x2658 JUMPI DUP2 PUSH4 0x575CEA6B EQ PUSH2 0x25AD JUMPI DUP2 PUSH4 0x5F6991EF EQ PUSH2 0x251B JUMPI DUP2 PUSH4 0x608E4DD0 EQ PUSH2 0x22D3 JUMPI DUP2 PUSH4 0x61B148FB EQ PUSH2 0x2269 JUMPI DUP2 PUSH4 0x6C19E783 EQ PUSH2 0x21DE JUMPI DUP2 PUSH4 0x6F43F373 EQ PUSH2 0x21BE JUMPI DUP2 PUSH4 0x71D20FE7 EQ PUSH2 0x213B JUMPI DUP2 PUSH4 0x75506C96 EQ PUSH2 0x211B JUMPI DUP2 PUSH4 0x776FF66A EQ PUSH2 0x20FB JUMPI DUP2 PUSH4 0x794A3292 EQ PUSH2 0x20BC JUMPI DUP2 PUSH4 0x7A9773DC EQ PUSH2 0x1EF9 JUMPI DUP2 PUSH4 0x7B875114 EQ PUSH2 0x1E8F JUMPI DUP2 PUSH4 0x7CC1F867 EQ PUSH2 0x1DAA JUMPI DUP5 DUP3 PUSH4 0x7DF74181 EQ PUSH2 0x1AA6 JUMPI POP DUP2 PUSH4 0x7EA61FE3 EQ PUSH2 0x198F JUMPI DUP2 PUSH4 0x80933608 EQ PUSH2 0x18B5 JUMPI DUP2 PUSH4 0x817B1CD2 EQ PUSH2 0x1895 JUMPI DUP2 PUSH4 0x83FABE03 EQ PUSH2 0x1875 JUMPI DUP2 PUSH4 0x842E2981 EQ PUSH2 0x176D JUMPI DUP2 PUSH4 0x84CC315B EQ PUSH2 0x1743 JUMPI DUP2 PUSH4 0x862DD2E2 EQ PUSH2 0x1723 JUMPI DUP2 PUSH4 0x86989038 EQ PUSH2 0x1703 JUMPI DUP2 PUSH4 0x8CCDBF50 EQ PUSH2 0x1670 JUMPI DUP2 PUSH4 0x8DA5CB5B EQ PUSH2 0x162B JUMPI DUP2 PUSH4 0x8EDBF436 EQ PUSH2 0x15EA JUMPI DUP2 PUSH4 0x910C6855 EQ PUSH2 0x1580 JUMPI DUP2 PUSH4 0x920A253E EQ PUSH2 0x1560 JUMPI DUP2 PUSH4 0x92FEB849 EQ PUSH2 0x1539 JUMPI DUP2 PUSH4 0x94DC9CF3 EQ PUSH2 0x1464 JUMPI DUP2 PUSH4 0x963C9DD3 EQ PUSH2 0x1391 JUMPI DUP2 PUSH4 0x9AB4A445 EQ PUSH2 0x1367 JUMPI DUP2 PUSH4 0x9BD0B7C0 EQ PUSH2 0x133D JUMPI DUP2 PUSH4 0x9C0FBD05 EQ PUSH2 0x1320 JUMPI DUP2 PUSH4 0x9CD03330 EQ PUSH2 0x12B6 JUMPI DUP2 PUSH4 0x9EA7685A EQ PUSH2 0x1201 JUMPI DUP2 PUSH4 0xA1DC9031 EQ PUSH2 0x109C JUMPI DUP2 PUSH4 0xA29F481C EQ PUSH2 0x1037 JUMPI DUP2 PUSH4 0xA464DB14 EQ PUSH2 0xFCD JUMPI DUP2 PUSH4 0xA77C80AA EQ PUSH2 0xF7C JUMPI DUP2 PUSH4 0xA7C60160 EQ PUSH2 0xE79 JUMPI DUP2 PUSH4 0xACB9DE56 EQ PUSH2 0xE4F JUMPI DUP2 PUSH4 0xAD522D27 EQ PUSH2 0xDE5 JUMPI DUP2 PUSH4 0xAECCF735 EQ PUSH2 0xCC9 JUMPI DUP2 PUSH4 0xAF7665CE EQ PUSH2 0xC9F JUMPI DUP2 PUSH4 0xB40CD21D EQ PUSH2 0xC5D JUMPI DUP2 PUSH4 0xB5D5B5FA EQ PUSH2 0xBCA JUMPI POP DUP1 PUSH4 0xB6B9CA84 EQ PUSH2 0xB45 JUMPI DUP1 PUSH4 0xB842EC44 EQ PUSH2 0xAC7 JUMPI DUP1 PUSH4 0xBC5894BA EQ PUSH2 0xA9C JUMPI DUP1 PUSH4 0xC93C8F34 EQ PUSH2 0xA5E JUMPI DUP1 PUSH4 0xD0E04684 EQ PUSH2 0xA15 JUMPI DUP1 PUSH4 0xD3EA4350 EQ PUSH2 0x9EE JUMPI DUP1 PUSH4 0xD7FF0714 EQ PUSH2 0x97B JUMPI DUP1 PUSH4 0xD8060CD5 EQ PUSH2 0x8F9 JUMPI DUP1 PUSH4 0xD8DC286A EQ PUSH2 0x8D4 JUMPI DUP1 PUSH4 0xDF9189B4 EQ PUSH2 0x8AB JUMPI DUP1 PUSH4 0xE697B5D8 EQ PUSH2 0x852 JUMPI DUP1 PUSH4 0xE985E367 EQ PUSH2 0x82A JUMPI DUP1 PUSH4 0xECB2DD74 EQ PUSH2 0x801 JUMPI DUP1 PUSH4 0xEE172546 EQ PUSH2 0x7E3 JUMPI DUP1 PUSH4 0xEF925399 EQ PUSH2 0x705 JUMPI DUP1 PUSH4 0xF1887684 EQ PUSH2 0x6E6 JUMPI DUP1 PUSH4 0xF30EF2E5 EQ PUSH2 0x5A0 JUMPI DUP1 PUSH4 0xF347F505 EQ PUSH2 0x581 JUMPI DUP1 PUSH4 0xF520CCF3 EQ PUSH2 0x543 JUMPI DUP1 PUSH4 0xF53BE9B1 EQ PUSH2 0x520 JUMPI DUP1 PUSH4 0xF7D76AE5 EQ PUSH2 0x4F9 JUMPI PUSH4 0xFD9A11E5 EQ PUSH2 0x4C4 JUMPI PUSH1 0x0 DUP1 REVERT JUMPDEST CALLVALUE PUSH2 0x4F5 JUMPI PUSH1 0x20 CALLDATASIZE PUSH1 0x3 NOT ADD SLT PUSH2 0x4F5 JUMPI CALLDATALOAD DUP3 MSTORE PUSH1 0x1E PUSH1 0x20 SWAP1 DUP2 MSTORE SWAP2 DUP2 SWAP1 KECCAK256 SLOAD SWAP1 MLOAD PUSH1 0x1 PUSH1 0x1 PUSH1 0xA0 SHL SUB SWAP1 SWAP2 AND DUP2 MSTORE RETURN JUMPDEST DUP3 DUP1 REVERT JUMPDEST POP CALLVALUE PUSH2 0x4F5 JUMPI DUP3 PUSH1 0x3 NOT CALLDATASIZE ADD SLT PUSH2 0x4F5 JUMPI SLOAD SWAP1 MLOAD PUSH1 0x1 PUSH1 0x1 PUSH1 0xA0 SHL SUB SWAP1 SWAP2 AND DUP2 MSTORE PUSH1 0x20 SWAP2 POP RETURN JUMPDEST POP POP CALLVALUE PUSH2 0x53F JUMPI DUP2 PUSH1 0x3 NOT CALLDATASIZE ADD SLT PUSH2 0x53F JUMPI PUSH1 0x20 SWAP1 PUSH1 0xC SLOAD SWAP1 MLOAD SWAP1 DUP2 MSTORE RETURN JUMPDEST POP DUP1 REVERT JUMPDEST POP POP CALLVALUE PUSH2 0x53F JUMPI PUSH1 0x20 CALLDATASIZE PUSH1 0x3 NOT ADD SLT PUSH2 0x53F JUMPI PUSH1 0x20 SWAP2 PUSH1 0xFF SWAP1 DUP3 SWAP1 PUSH1 0x1 PUSH1 0x1 PUSH1 0xA0 SHL SUB PUSH2 0x56E PUSH2 0x3917 JUMP JUMPDEST AND DUP2 MSTORE PUSH1 0x13 DUP6 MSTORE KECCAK256 SLOAD AND SWAP1 MLOAD SWAP1 ISZERO ISZERO DUP2 MSTORE RETURN JUMPDEST POP POP CALLVALUE PUSH2 0x53F JUMPI DUP2 PUSH1 0x3 NOT CALLDATASIZE ADD SLT PUSH2 0x53F JUMPI PUSH1 0x20 SWAP1 PUSH1 0xB SLOAD SWAP1 MLOAD SWAP1 DUP2 MSTORE RETURN JUMPDEST POP CALLVALUE PUSH2 0x4F5 JUMPI PUSH1 0x20 CALLDATASIZE PUSH1 0x3 NOT ADD SLT PUSH2 0x4F5 JUMPI DUP1 CALLDATALOAD DUP1 ISZERO PUSH2 0x6E2 JUMPI DUP4 SLOAD PUSH1 0x1 PUSH1 0x1 PUSH1 0xA0 SHL SUB SWAP3 SWAP1 DUP4 AND ISZERO PUSH2 0x6A2 JUMPI DUP3 PUSH1 0x5 SLOAD AND DUP1 ISZERO PUSH2 0x6DE JUMPI PUSH1 0x20 DUP4 PUSH2 0x62E SWAP3 PUSH2 0x5EF DUP8 PUSH1 0x9 SLOAD AND CALLER SWAP1 DUP5 PUSH2 0x400B JUMP JUMPDEST SWAP5 DUP10 DUP10 MLOAD DUP1 SWAP7 DUP2 SWAP6 DUP3 SWAP5 PUSH4 0x23B872DD PUSH1 0xE0 SHL DUP5 MSTORE PUSH32 0x0 SWAP1 CALLER SWAP1 DUP6 ADD PUSH2 0x444B JUMP JUMPDEST SUB SWAP3 GAS CALL SWAP1 DUP2 ISZERO PUSH2 0x6D4 JUMPI DUP7 SWAP2 PUSH2 0x6A6 JUMPI JUMPDEST POP ISZERO PUSH2 0x6A2 JUMPI PUSH1 0x0 DUP1 MLOAD PUSH1 0x20 PUSH2 0x5282 DUP4 CODECOPY DUP2 MLOAD SWAP2 MSTORE SWAP2 PUSH2 0x662 PUSH2 0x69C SWAP3 PUSH2 0x4A78 JUMP JUMPDEST SWAP4 PUSH2 0x66C DUP6 PUSH2 0x4C54 JUMP JUMPDEST PUSH2 0x689 DUP2 PUSH1 0x5 SLOAD AND DUP7 DUP5 DUP5 DUP12 SLOAD AND PUSH2 0x682 PUSH2 0x4488 JUMP JUMPDEST SWAP4 CALLER PUSH2 0x5181 JUMP JUMPDEST PUSH1 0x5 SLOAD AND SWAP5 MLOAD SWAP2 DUP3 SWAP2 CALLER SWAP6 TIMESTAMP SWAP2 DUP5 PUSH2 0x3AD4 JUMP JUMPDEST SUB SWAP1 LOG3 DUP1 RETURN JUMPDEST DUP5 DUP1 REVERT JUMPDEST PUSH2 0x6C7 SWAP2 POP PUSH1 0x20 RETURNDATASIZE DUP2 GT PUSH2 0x6CD JUMPI JUMPDEST PUSH2 0x6BF DUP2 DUP4 PUSH2 0x3BD8 JUMP JUMPDEST DUP2 ADD SWAP1 PUSH2 0x4393 JUMP JUMPDEST CODESIZE PUSH2 0x640 JUMP JUMPDEST POP RETURNDATASIZE PUSH2 0x6B5 JUMP JUMPDEST DUP6 MLOAD RETURNDATASIZE DUP9 DUP3 RETURNDATACOPY RETURNDATASIZE SWAP1 REVERT JUMPDEST DUP6 DUP1 REVERT JUMPDEST DUP4 DUP1 REVERT JUMPDEST POP POP CALLVALUE PUSH2 0x53F JUMPI DUP2 PUSH1 0x3 NOT CALLDATASIZE ADD SLT PUSH2 0x53F JUMPI PUSH1 0x20 SWAP1 PUSH1 0x1C SLOAD SWAP1 MLOAD SWAP1 DUP2 MSTORE RETURN JUMPDEST POP DUP3 SWAP1 CALLVALUE PUSH2 0x53F JUMPI PUSH1 0x20 SWAP2 DUP3 PUSH1 0x3 NOT CALLDATASIZE ADD SLT PUSH2 0x7E0 JUMPI PUSH1 0x1 PUSH1 0x1 PUSH1 0xA0 SHL SUB SWAP3 DUP4 PUSH2 0x72D PUSH2 0x3917 JUMP JUMPDEST AND DUP3 MSTORE PUSH1 0x18 DUP2 MSTORE DUP5 DUP3 KECCAK256 SWAP2 DUP3 SLOAD SWAP4 PUSH2 0x744 DUP6 PUSH2 0x51DD JUMP JUMPDEST SWAP6 PUSH2 0x751 DUP9 MLOAD SWAP8 DUP9 PUSH2 0x3BD8 JUMP JUMPDEST DUP6 DUP8 MSTORE DUP4 DUP8 ADD SWAP5 DUP4 MSTORE DUP4 DUP4 KECCAK256 SWAP3 SWAP5 JUMPDEST DUP7 DUP7 LT PUSH2 0x778 JUMPI DUP9 MLOAD DUP1 PUSH2 0x774 DUP11 DUP3 PUSH2 0x3A0B JUMP JUMPDEST SUB SWAP1 RETURN JUMPDEST PUSH1 0x7 DUP6 PUSH1 0x1 SWAP3 DUP12 MLOAD PUSH2 0x789 DUP2 PUSH2 0x3B56 JUMP JUMPDEST DUP8 SLOAD DUP2 MSTORE DUP6 DUP6 DUP10 ADD SLOAD AND DUP4 DUP3 ADD MSTORE DUP6 PUSH1 0x2 DUP10 ADD SLOAD AND DUP14 DUP3 ADD MSTORE DUP6 PUSH1 0x3 DUP10 ADD SLOAD AND PUSH1 0x60 DUP3 ADD MSTORE DUP7 DUP9 ADD SLOAD PUSH1 0x80 DUP3 ADD MSTORE PUSH1 0x5 DUP9 ADD SLOAD PUSH1 0xA0 DUP3 ADD MSTORE PUSH2 0x7CD PUSH1 0x6 DUP10 ADD PUSH2 0x3BFB JUMP JUMPDEST PUSH1 0xC0 DUP3 ADD MSTORE DUP2 MSTORE ADD SWAP5 ADD SWAP6 ADD SWAP5 SWAP3 PUSH2 0x760 JUMP JUMPDEST DUP1 REVERT JUMPDEST POP POP CALLVALUE PUSH2 0x53F JUMPI DUP2 PUSH1 0x3 NOT CALLDATASIZE ADD SLT PUSH2 0x53F JUMPI PUSH1 0x20 SWAP1 DUP2 SLOAD SWAP1 MLOAD SWAP1 DUP2 MSTORE RETURN JUMPDEST POP POP CALLVALUE PUSH2 0x53F JUMPI DUP2 PUSH1 0x3 NOT CALLDATASIZE ADD SLT PUSH2 0x53F JUMPI PUSH1 0x20 SWAP1 MLOAD PUSH1 0x0 DUP1 MLOAD PUSH1 0x20 PUSH2 0x5342 DUP4 CODECOPY DUP2 MLOAD SWAP2 MSTORE DUP2 MSTORE RETURN JUMPDEST POP POP CALLVALUE PUSH2 0x53F JUMPI DUP2 PUSH1 0x3 NOT CALLDATASIZE ADD SLT PUSH2 0x53F JUMPI SWAP1 SLOAD SWAP1 MLOAD PUSH1 0x1 PUSH1 0x1 PUSH1 0xA0 SHL SUB SWAP1 SWAP2 AND DUP2 MSTORE PUSH1 0x20 SWAP1 RETURN JUMPDEST POP POP CALLVALUE PUSH2 0x53F JUMPI DUP1 PUSH1 0x3 NOT CALLDATASIZE ADD SLT PUSH2 0x53F JUMPI PUSH2 0x86C PUSH2 0x3917 JUMP JUMPDEST PUSH1 0x1 PUSH1 0x1 PUSH1 0xA0 SHL SUB SWAP1 DUP2 AND DUP4 MSTORE PUSH1 0x26 PUSH1 0x20 MSTORE DUP2 DUP4 KECCAK256 DUP1 SLOAD PUSH1 0x24 CALLDATALOAD SWAP5 SWAP1 DUP6 LT ISZERO PUSH2 0x7E0 JUMPI POP PUSH1 0x20 SWAP4 PUSH2 0x89C SWAP2 PUSH2 0x3CE6 JUMP JUMPDEST SWAP3 SWAP1 SLOAD SWAP1 MLOAD SWAP3 PUSH1 0x3 SHL SHR AND DUP2 MSTORE RETURN JUMPDEST POP POP CALLVALUE PUSH2 0x53F JUMPI DUP2 PUSH1 0x3 NOT CALLDATASIZE ADD SLT PUSH2 0x53F JUMPI PUSH1 0x6 SLOAD SWAP1 MLOAD PUSH1 0x1 PUSH1 0x1 PUSH1 0xA0 SHL SUB SWAP1 SWAP2 AND DUP2 MSTORE PUSH1 0x20 SWAP1 RETURN JUMPDEST POP POP CALLVALUE PUSH2 0x53F JUMPI DUP2 PUSH1 0x3 NOT CALLDATASIZE ADD SLT PUSH2 0x53F JUMPI MLOAD PUSH7 0xD3C21BCECCEDA1 PUSH1 0x19 SHL DUP2 MSTORE PUSH1 0x20 SWAP1 RETURN JUMPDEST POP CALLVALUE PUSH2 0x4F5 JUMPI PUSH1 0x20 CALLDATASIZE PUSH1 0x3 NOT ADD SLT PUSH2 0x4F5 JUMPI CALLDATALOAD SWAP1 PUSH32 0x0 PUSH1 0x1 PUSH1 0x1 PUSH1 0xA0 SHL SUB AND CALLER SUB PUSH2 0x4F5 JUMPI DUP2 ISZERO PUSH2 0x4F5 JUMPI PUSH32 0x171AABB8815C02FD00303450A77058600E3661EB75CE2E77972C0F080BC7099D SWAP2 PUSH1 0x1C SLOAD SWAP1 DUP1 PUSH1 0x1C SSTORE DUP3 MLOAD SWAP2 DUP3 MSTORE PUSH1 0x20 DUP3 ADD MSTORE LOG1 DUP1 RETURN JUMPDEST POP SWAP2 CALLVALUE PUSH2 0x7E0 JUMPI PUSH1 0x20 CALLDATASIZE PUSH1 0x3 NOT ADD SLT PUSH2 0x7E0 JUMPI DUP3 CALLDATALOAD SWAP1 PUSH1 0x19 SLOAD DUP3 LT ISZERO PUSH2 0x7E0 JUMPI SWAP1 PUSH1 0x7 PUSH1 0x20 DUP4 PUSH1 0x19 PUSH2 0x774 SWAP6 MSTORE KECCAK256 SWAP2 MUL ADD SWAP2 DUP3 SLOAD SWAP3 PUSH1 0x1 DUP1 PUSH1 0xA0 SHL SUB DUP1 PUSH1 0x1 DUP4 ADD SLOAD AND SWAP6 DUP2 PUSH1 0x2 DUP5 ADD SLOAD AND SWAP2 PUSH1 0x3 DUP5 ADD SLOAD AND SWAP1 DUP4 ADD SLOAD SWAP2 PUSH2 0x9E3 PUSH1 0x6 PUSH1 0x5 DUP7 ADD SLOAD SWAP6 ADD PUSH2 0x3BFB JUMP JUMPDEST SWAP5 MLOAD SWAP8 DUP9 SWAP8 DUP9 PUSH2 0x3CA1 JUMP JUMPDEST POP SWAP2 CALLVALUE PUSH2 0x7E0 JUMPI PUSH1 0x20 CALLDATASIZE PUSH1 0x3 NOT ADD SLT PUSH2 0x7E0 JUMPI POP PUSH2 0xA0E PUSH1 0x20 SWAP3 CALLDATALOAD PUSH2 0x4861 JUMP JUMPDEST SWAP1 MLOAD SWAP1 DUP2 MSTORE RETURN JUMPDEST DUP4 CALLVALUE PUSH2 0x7E0 JUMPI PUSH2 0xA24 CALLDATASIZE PUSH2 0x3ABE JUMP JUMPDEST SWAP1 PUSH32 0x0 PUSH1 0x1 PUSH1 0x1 PUSH1 0xA0 SHL SUB AND CALLER SUB PUSH2 0x4F5 JUMPI PUSH1 0x15 SSTORE PUSH1 0x16 SSTORE DUP1 RETURN JUMPDEST POP POP CALLVALUE PUSH2 0x53F JUMPI PUSH1 0x20 CALLDATASIZE PUSH1 0x3 NOT ADD SLT PUSH2 0x53F JUMPI PUSH1 0x20 SWAP2 PUSH1 0xFF SWAP1 DUP3 SWAP1 PUSH1 0x1 PUSH1 0x1 PUSH1 0xA0 SHL SUB PUSH2 0xA89 PUSH2 0x3917 JUMP JUMPDEST AND DUP2 MSTORE PUSH1 0x23 DUP6 MSTORE KECCAK256 SLOAD AND SWAP1 MLOAD SWAP1 ISZERO ISZERO DUP2 MSTORE RETURN JUMPDEST POP POP CALLVALUE PUSH2 0x53F JUMPI DUP2 PUSH1 0x3 NOT CALLDATASIZE ADD SLT PUSH2 0x53F JUMPI PUSH1 0x7 SLOAD PUSH1 0x20 SWAP2 SWAP1 PUSH2 0xA0E SWAP1 PUSH1 0x1 PUSH1 0x1 PUSH1 0xA0 SHL SUB AND PUSH2 0x3D83 JUMP JUMPDEST POP SWAP2 SWAP1 CALLVALUE PUSH2 0x53F JUMPI DUP1 PUSH1 0x3 NOT CALLDATASIZE ADD SLT PUSH2 0x53F JUMPI PUSH2 0xAE2 PUSH2 0x3917 JUMP JUMPDEST PUSH1 0x1 PUSH1 0x1 PUSH1 0xA0 SHL SUB SWAP1 DUP2 AND DUP4 MSTORE PUSH1 0x18 PUSH1 0x20 MSTORE DUP2 DUP4 KECCAK256 DUP1 SLOAD SWAP2 SWAP4 PUSH1 0x24 CALLDATALOAD SWAP3 DUP4 LT ISZERO PUSH2 0x7E0 JUMPI POP PUSH2 0x774 SWAP3 SWAP2 PUSH2 0xB15 SWAP2 PUSH2 0x3AEA JUMP JUMPDEST POP DUP1 SLOAD SWAP4 DUP1 PUSH1 0x1 DUP4 ADD SLOAD AND SWAP6 DUP2 PUSH1 0x2 DUP5 ADD SLOAD AND SWAP2 PUSH1 0x3 DUP5 ADD SLOAD AND SWAP1 DUP4 ADD SLOAD SWAP2 PUSH2 0x9E3 PUSH1 0x6 PUSH1 0x5 DUP7 ADD SLOAD SWAP6 ADD PUSH2 0x3BFB JUMP JUMPDEST DUP4 CALLVALUE PUSH2 0x7E0 JUMPI PUSH1 0x20 CALLDATASIZE PUSH1 0x3 NOT ADD SLT PUSH2 0x7E0 JUMPI PUSH2 0xB5F PUSH2 0x3917 JUMP JUMPDEST PUSH1 0x1 PUSH1 0x1 PUSH1 0xA0 SHL SUB SWAP1 PUSH32 0x0 DUP3 AND CALLER SUB PUSH2 0x4F5 JUMPI AND DUP1 PUSH1 0x1 DUP1 PUSH1 0xA0 SHL SUB NOT PUSH1 0x12 SLOAD AND OR PUSH1 0x12 SSTORE PUSH32 0x50EA833891150FF97F83EEA0FF8CF7BAA403356CE9EF3B65346DC2D030EC418B DUP3 DUP1 LOG2 DUP1 RETURN JUMPDEST SWAP4 SWAP1 POP CALLVALUE PUSH2 0x7E0 JUMPI DUP3 PUSH1 0x3 NOT CALLDATASIZE ADD SLT PUSH2 0x7E0 JUMPI PUSH2 0xBE5 PUSH2 0x3917 JUMP JUMPDEST PUSH1 0x1 PUSH1 0x1 PUSH1 0xA0 SHL SUB AND DUP2 MSTORE PUSH1 0x1D PUSH1 0x20 MSTORE DUP3 DUP2 KECCAK256 DUP1 SLOAD PUSH1 0x24 CALLDATALOAD SWAP3 SWAP1 DUP4 LT ISZERO PUSH2 0x7E0 JUMPI POP SWAP1 PUSH2 0xC11 SWAP2 PUSH2 0x3AEA JUMP JUMPDEST POP DUP1 SLOAD SWAP3 PUSH1 0x1 DUP3 ADD SLOAD SWAP3 PUSH1 0x2 DUP4 ADD SLOAD PUSH1 0x3 DUP5 ADD SLOAD SWAP2 DUP5 ADD SLOAD SWAP3 PUSH1 0xFF PUSH1 0x6 PUSH1 0x5 DUP8 ADD SLOAD SWAP7 ADD SLOAD AND SWAP6 DUP2 MLOAD SWAP8 DUP9 MSTORE PUSH1 0x20 DUP9 ADD MSTORE DUP7 ADD MSTORE PUSH1 0x60 DUP6 ADD MSTORE PUSH1 0x80 DUP5 ADD MSTORE PUSH1 0xA0 DUP4 ADD MSTORE ISZERO ISZERO PUSH1 0xC0 DUP3 ADD MSTORE RETURN JUMPDEST POP POP POP CALLVALUE PUSH2 0x53F JUMPI DUP2 PUSH1 0x3 NOT CALLDATASIZE ADD SLT PUSH2 0x53F JUMPI PUSH1 0xA0 SWAP1 PUSH1 0x1B SLOAD SWAP1 PUSH1 0x1C SLOAD SWAP1 PUSH1 0x1F SLOAD PUSH1 0x20 SLOAD SWAP2 PUSH1 0x21 SLOAD SWAP4 DUP2 MLOAD SWAP6 DUP7 MSTORE PUSH1 0x20 DUP7 ADD MSTORE DUP5 ADD MSTORE PUSH1 0x60 DUP4 ADD MSTORE PUSH1 0x80 DUP3 ADD MSTORE RETURN JUMPDEST POP POP POP CALLVALUE PUSH2 0x53F JUMPI DUP2 PUSH1 0x3 NOT CALLDATASIZE ADD SLT PUSH2 0x53F JUMPI PUSH1 0x7 SLOAD SWAP1 MLOAD PUSH1 0x1 PUSH1 0x1 PUSH1 0xA0 SHL SUB SWAP1 SWAP2 AND DUP2 MSTORE PUSH1 0x20 SWAP1 RETURN JUMPDEST POP POP CALLVALUE PUSH2 0x4F5 JUMPI PUSH1 0x20 CALLDATASIZE PUSH1 0x3 NOT ADD SLT PUSH2 0x4F5 JUMPI DUP1 CALLDATALOAD DUP1 ISZERO PUSH2 0x6E2 JUMPI DUP4 SLOAD PUSH1 0x1 PUSH1 0x1 PUSH1 0xA0 SHL SUB SWAP3 SWAP1 DUP4 AND ISZERO PUSH2 0x6A2 JUMPI DUP3 PUSH1 0x2 SLOAD AND SWAP2 DUP3 ISZERO PUSH2 0x6DE JUMPI PUSH2 0xD18 SWAP1 PUSH2 0xD12 PUSH1 0xB SLOAD PUSH2 0x3D55 JUMP JUMPDEST SWAP1 PUSH2 0x3D12 JUMP JUMPDEST SWAP2 PUSH2 0xD22 CALLER PUSH2 0x4308 JUMP JUMPDEST POP PUSH8 0xDE0B6B3A7640000 DUP1 DUP6 MUL SWAP1 DUP6 DUP3 DIV EQ DUP6 ISZERO OR ISZERO PUSH2 0xDD2 JUMPI PUSH2 0xD4D SWAP3 PUSH2 0x5EF PUSH1 0x20 SWAP4 DUP8 SWAP4 PUSH2 0x3D63 JUMP JUMPDEST SUB SWAP3 GAS CALL SWAP1 DUP2 ISZERO PUSH2 0x6D4 JUMPI DUP7 SWAP2 PUSH2 0xDB4 JUMPI JUMPDEST POP ISZERO PUSH2 0x6A2 JUMPI PUSH1 0x0 DUP1 MLOAD PUSH1 0x20 PUSH2 0x5282 DUP4 CODECOPY DUP2 MLOAD SWAP2 MSTORE SWAP2 PUSH2 0xD81 PUSH2 0x69C SWAP3 PUSH2 0x4A78 JUMP JUMPDEST SWAP4 PUSH2 0xD8B DUP6 PUSH2 0x4C54 JUMP JUMPDEST PUSH2 0xDA1 DUP2 PUSH1 0x2 SLOAD AND DUP7 DUP5 DUP5 DUP12 SLOAD AND PUSH2 0x682 PUSH2 0x4488 JUMP JUMPDEST PUSH1 0x2 SLOAD AND SWAP5 MLOAD SWAP2 DUP3 SWAP2 CALLER SWAP6 TIMESTAMP SWAP2 DUP5 PUSH2 0x3AD4 JUMP JUMPDEST PUSH2 0xDCC SWAP2 POP PUSH1 0x20 RETURNDATASIZE DUP2 GT PUSH2 0x6CD JUMPI PUSH2 0x6BF DUP2 DUP4 PUSH2 0x3BD8 JUMP JUMPDEST CODESIZE PUSH2 0xD5F JUMP JUMPDEST PUSH4 0x4E487B71 PUSH1 0xE0 SHL DUP9 MSTORE PUSH1 0x11 DUP5 MSTORE PUSH1 0x24 DUP9 REVERT JUMPDEST DUP5 CALLVALUE PUSH2 0x7E0 JUMPI PUSH1 0x20 CALLDATASIZE PUSH1 0x3 NOT ADD SLT PUSH2 0x7E0 JUMPI PUSH2 0xDFF PUSH2 0x3917 JUMP JUMPDEST PUSH1 0x1 PUSH1 0x1 PUSH1 0xA0 SHL SUB SWAP1 PUSH32 0x0 DUP3 AND CALLER SUB PUSH2 0x4F5 JUMPI AND DUP1 ISZERO PUSH2 0x53F JUMPI PUSH1 0x3 DUP1 SLOAD PUSH1 0x1 PUSH1 0x1 PUSH1 0xA0 SHL SUB NOT AND SWAP2 SWAP1 SWAP2 OR SWAP1 SSTORE DUP1 RETURN JUMPDEST POP POP POP CALLVALUE PUSH2 0x53F JUMPI DUP2 PUSH1 0x3 NOT CALLDATASIZE ADD SLT PUSH2 0x53F JUMPI PUSH1 0x12 SLOAD SWAP1 MLOAD PUSH1 0x1 PUSH1 0x1 PUSH1 0xA0 SHL SUB SWAP1 SWAP2 AND DUP2 MSTORE PUSH1 0x20 SWAP1 RETURN JUMPDEST POP POP CALLVALUE PUSH2 0x4F5 JUMPI PUSH1 0x20 CALLDATASIZE PUSH1 0x3 NOT ADD SLT PUSH2 0x4F5 JUMPI DUP1 CALLDATALOAD DUP1 ISZERO PUSH2 0x6E2 JUMPI DUP4 SLOAD PUSH1 0x1 PUSH1 0x1 PUSH1 0xA0 SHL SUB SWAP3 SWAP1 DUP4 AND ISZERO PUSH2 0x6A2 JUMPI DUP3 PUSH1 0x1 SLOAD AND SWAP2 DUP3 ISZERO PUSH2 0x6DE JUMPI PUSH2 0xEC2 SWAP1 PUSH2 0xD12 PUSH1 0xB SLOAD PUSH2 0x3D55 JUMP JUMPDEST SWAP2 PUSH2 0xECC CALLER PUSH2 0x4308 JUMP JUMPDEST POP PUSH8 0xDE0B6B3A7640000 DUP1 DUP6 MUL SWAP1 DUP6 DUP3 DIV EQ DUP6 ISZERO OR ISZERO PUSH2 0xDD2 JUMPI PUSH2 0xEF7 SWAP3 PUSH2 0x5EF PUSH1 0x20 SWAP4 DUP8 SWAP4 PUSH2 0x3D63 JUMP JUMPDEST SUB SWAP3 GAS CALL SWAP1 DUP2 ISZERO PUSH2 0x6D4 JUMPI DUP7 SWAP2 PUSH2 0xF5E JUMPI JUMPDEST POP ISZERO PUSH2 0x6A2 JUMPI PUSH1 0x0 DUP1 MLOAD PUSH1 0x20 PUSH2 0x5282 DUP4 CODECOPY DUP2 MLOAD SWAP2 MSTORE SWAP2 PUSH2 0xF2B PUSH2 0x69C SWAP3 PUSH2 0x4A78 JUMP JUMPDEST SWAP4 PUSH2 0xF35 DUP6 PUSH2 0x4C54 JUMP JUMPDEST PUSH2 0xF4B DUP2 PUSH1 0x1 SLOAD AND DUP7 DUP5 DUP5 DUP12 SLOAD AND PUSH2 0x682 PUSH2 0x4488 JUMP JUMPDEST PUSH1 0x1 SLOAD AND SWAP5 MLOAD SWAP2 DUP3 SWAP2 CALLER SWAP6 TIMESTAMP SWAP2 DUP5 PUSH2 0x3AD4 JUMP JUMPDEST PUSH2 0xF76 SWAP2 POP PUSH1 0x20 RETURNDATASIZE DUP2 GT PUSH2 0x6CD JUMPI PUSH2 0x6BF DUP2 DUP4 PUSH2 0x3BD8 JUMP JUMPDEST CODESIZE PUSH2 0xF09 JUMP JUMPDEST POP POP CALLVALUE PUSH2 0x4F5 JUMPI PUSH2 0xF99 PUSH2 0xF8F CALLDATASIZE PUSH2 0x395F JUMP JUMPDEST SWAP4 SWAP3 SWAP2 SWAP1 SWAP2 PUSH2 0x44EB JUMP JUMPDEST DUP1 ISZERO PUSH2 0x6E2 JUMPI DUP4 SLOAD PUSH1 0x1 PUSH1 0x1 PUSH1 0xA0 SHL SUB SWAP3 SWAP1 DUP4 AND ISZERO PUSH2 0x6A2 JUMPI DUP3 PUSH1 0x2 SLOAD AND SWAP2 DUP3 ISZERO PUSH2 0x6DE JUMPI PUSH2 0xD18 SWAP1 PUSH2 0xD12 PUSH1 0xB SLOAD PUSH2 0x3D55 JUMP JUMPDEST DUP5 CALLVALUE PUSH2 0x7E0 JUMPI PUSH1 0x20 CALLDATASIZE PUSH1 0x3 NOT ADD SLT PUSH2 0x7E0 JUMPI PUSH2 0xFE7 PUSH2 0x3917 JUMP JUMPDEST PUSH1 0x1 PUSH1 0x1 PUSH1 0xA0 SHL SUB SWAP1 PUSH32 0x0 DUP3 AND CALLER SUB PUSH2 0x4F5 JUMPI AND DUP1 ISZERO PUSH2 0x53F JUMPI PUSH1 0x5 DUP1 SLOAD PUSH1 0x1 PUSH1 0x1 PUSH1 0xA0 SHL SUB NOT AND SWAP2 SWAP1 SWAP2 OR SWAP1 SSTORE DUP1 RETURN JUMPDEST DUP5 CALLVALUE PUSH2 0x7E0 JUMPI PUSH1 0x20 CALLDATASIZE PUSH1 0x3 NOT ADD SLT PUSH2 0x7E0 JUMPI PUSH2 0x1051 PUSH2 0x3917 JUMP JUMPDEST PUSH1 0x1 PUSH1 0x1 PUSH1 0xA0 SHL SUB SWAP1 PUSH32 0x0 DUP3 AND CALLER SUB PUSH2 0x4F5 JUMPI AND DUP1 ISZERO PUSH2 0x53F JUMPI DUP2 SLOAD PUSH1 0x1 PUSH1 0x1 PUSH1 0xA0 SHL SUB NOT AND OR DUP2 SSTORE DUP1 RETURN JUMPDEST POP POP SWAP1 CALLVALUE PUSH2 0x4F5 JUMPI DUP3 PUSH1 0x3 NOT CALLDATASIZE ADD SLT PUSH2 0x4F5 JUMPI DUP3 SLOAD DUP2 MLOAD PUSH4 0x70A08231 PUSH1 0xE0 SHL DUP1 DUP3 MSTORE ADDRESS DUP3 DUP7 ADD MSTORE SWAP1 SWAP5 PUSH1 0x1 PUSH1 0x1 PUSH1 0xA0 SHL SUB SWAP5 PUSH1 0x20 SWAP4 DUP5 SWAP1 DUP9 SWAP1 PUSH1 0x24 SWAP1 DUP3 SWAP1 DUP11 AND GAS STATICCALL SWAP6 DUP7 ISZERO PUSH2 0x11F7 JUMPI DUP3 SWAP7 PUSH2 0x11C7 JUMPI JUMPDEST PUSH1 0x24 SWAP8 POP DUP5 DUP2 PUSH1 0x1 SLOAD AND DUP8 MLOAD SWAP10 DUP11 DUP1 SWAP3 DUP9 DUP3 MSTORE ADDRESS DUP8 DUP4 ADD MSTORE GAS STATICCALL SWAP8 DUP9 ISZERO PUSH2 0x11BD JUMPI DUP4 SWAP9 PUSH2 0x118D JUMPI JUMPDEST POP SWAP1 PUSH1 0x24 DUP6 SWAP3 PUSH1 0x2 SLOAD AND SWAP5 DUP8 MLOAD SWAP6 DUP7 SWAP4 DUP5 SWAP3 DUP4 MSTORE ADDRESS SWAP1 DUP4 ADD MSTORE GAS STATICCALL SWAP3 DUP4 ISZERO PUSH2 0x1181 JUMPI DUP2 SWAP4 PUSH2 0x114E JUMPI JUMPDEST POP POP POP PUSH2 0x774 SWAP2 MLOAD SWAP4 DUP5 SWAP4 DUP5 PUSH2 0x3AD4 JUMP JUMPDEST SWAP1 SWAP2 DUP1 SWAP4 POP DUP2 RETURNDATASIZE DUP4 GT PUSH2 0x117A JUMPI JUMPDEST PUSH2 0x1166 DUP2 DUP4 PUSH2 0x3BD8 JUMP JUMPDEST DUP2 ADD SUB SLT PUSH2 0x7E0 JUMPI POP MLOAD PUSH2 0x774 CODESIZE DUP1 PUSH2 0x113D JUMP JUMPDEST POP RETURNDATASIZE PUSH2 0x115C JUMP JUMPDEST POP DUP4 MLOAD SWAP1 RETURNDATASIZE SWAP1 DUP3 RETURNDATACOPY RETURNDATASIZE SWAP1 REVERT JUMPDEST SWAP1 SWAP8 POP DUP5 DUP2 DUP2 RETURNDATASIZE DUP4 GT PUSH2 0x11B6 JUMPI JUMPDEST PUSH2 0x11A5 DUP2 DUP4 PUSH2 0x3BD8 JUMP JUMPDEST DUP2 ADD SUB SLT PUSH2 0x4F5 JUMPI MLOAD SWAP7 PUSH1 0x24 PUSH2 0x1114 JUMP JUMPDEST POP RETURNDATASIZE PUSH2 0x119B JUMP JUMPDEST DUP7 MLOAD RETURNDATASIZE DUP6 DUP3 RETURNDATACOPY RETURNDATASIZE SWAP1 REVERT JUMPDEST SWAP6 POP DUP4 DUP8 DUP2 RETURNDATASIZE DUP4 GT PUSH2 0x11F0 JUMPI JUMPDEST PUSH2 0x11DE DUP2 DUP4 PUSH2 0x3BD8 JUMP JUMPDEST DUP2 ADD SUB SLT PUSH2 0x53F JUMPI PUSH1 0x24 SWAP7 MLOAD SWAP6 PUSH2 0x10EC JUMP JUMPDEST POP RETURNDATASIZE PUSH2 0x11D4 JUMP JUMPDEST DUP6 MLOAD RETURNDATASIZE DUP5 DUP3 RETURNDATACOPY RETURNDATASIZE SWAP1 REVERT JUMPDEST POP POP POP CALLVALUE PUSH2 0x53F JUMPI PUSH1 0x20 CALLDATASIZE PUSH1 0x3 NOT ADD SLT PUSH2 0x53F JUMPI PUSH2 0x121D PUSH2 0x3917 JUMP JUMPDEST SWAP1 PUSH2 0x1227 CALLER PUSH2 0x43AB JUMP JUMPDEST PUSH1 0x1 PUSH1 0x1 PUSH1 0xA0 SHL SUB SWAP2 DUP3 AND SWAP2 DUP3 ISZERO PUSH2 0x6E2 JUMPI CALLER DUP4 EQ PUSH2 0x6E2 JUMPI CALLER DUP5 MSTORE PUSH1 0x25 PUSH1 0x20 MSTORE DUP2 DUP5 KECCAK256 SWAP1 DUP2 SLOAD SWAP1 DUP2 AND PUSH2 0x6A2 JUMPI PUSH1 0x1 PUSH1 0x1 PUSH1 0xA0 SHL SUB NOT AND DUP4 OR SWAP1 SSTORE DUP2 DUP4 MSTORE PUSH1 0x26 PUSH1 0x20 MSTORE DUP1 DUP4 KECCAK256 PUSH2 0x1279 SWAP1 CALLER SWAP1 PUSH2 0x4358 JUMP JUMPDEST CALLER DUP4 MSTORE PUSH1 0x17 PUSH1 0x20 MSTORE PUSH1 0x1 DUP2 DUP5 KECCAK256 SWAP2 PUSH1 0xFF NOT SWAP3 DUP3 DUP5 DUP3 SLOAD AND OR SWAP1 SSTORE DUP4 DUP6 MSTORE DUP5 KECCAK256 SWAP2 DUP3 SLOAD AND OR SWAP1 SSTORE CALLER SWAP1 PUSH1 0x0 DUP1 MLOAD PUSH1 0x20 PUSH2 0x52C2 DUP4 CODECOPY DUP2 MLOAD SWAP2 MSTORE DUP4 DUP1 LOG3 DUP1 RETURN JUMPDEST DUP5 CALLVALUE PUSH2 0x7E0 JUMPI PUSH1 0x20 CALLDATASIZE PUSH1 0x3 NOT ADD SLT PUSH2 0x7E0 JUMPI PUSH2 0x12D0 PUSH2 0x3917 JUMP JUMPDEST PUSH1 0x1 PUSH1 0x1 PUSH1 0xA0 SHL SUB SWAP1 PUSH32 0x0 DUP3 AND CALLER SUB PUSH2 0x4F5 JUMPI AND DUP1 ISZERO PUSH2 0x53F JUMPI PUSH1 0x8 DUP1 SLOAD PUSH1 0x1 PUSH1 0x1 PUSH1 0xA0 SHL SUB NOT AND SWAP2 SWAP1 SWAP2 OR SWAP1 SSTORE DUP1 RETURN JUMPDEST POP POP POP CALLVALUE PUSH2 0x53F JUMPI DUP2 PUSH1 0x3 NOT CALLDATASIZE ADD SLT PUSH2 0x53F JUMPI PUSH1 0x20 SWAP1 MLOAD PUSH1 0x5 DUP2 MSTORE RETURN JUMPDEST POP POP POP CALLVALUE PUSH2 0x53F JUMPI DUP2 PUSH1 0x3 NOT CALLDATASIZE ADD SLT PUSH2 0x53F JUMPI PUSH1 0x9 SLOAD SWAP1 MLOAD PUSH1 0x1 PUSH1 0x1 PUSH1 0xA0 SHL SUB SWAP1 SWAP2 AND DUP2 MSTORE PUSH1 0x20 SWAP1 RETURN JUMPDEST POP POP POP CALLVALUE PUSH2 0x53F JUMPI DUP2 PUSH1 0x3 NOT CALLDATASIZE ADD SLT PUSH2 0x53F JUMPI PUSH1 0x1 SLOAD SWAP1 MLOAD PUSH1 0x1 PUSH1 0x1 PUSH1 0xA0 SHL SUB SWAP1 SWAP2 AND DUP2 MSTORE PUSH1 0x20 SWAP1 RETURN JUMPDEST POP POP SWAP2 CALLVALUE PUSH2 0x7E0 JUMPI PUSH1 0x20 SWAP3 DUP4 PUSH1 0x3 NOT CALLDATASIZE ADD SLT PUSH2 0x53F JUMPI CALLDATALOAD SWAP3 DUP4 DUP3 MSTORE PUSH1 0x1E DUP2 MSTORE PUSH1 0x1 DUP1 PUSH1 0xA0 SHL SUB DUP4 DUP4 KECCAK256 SLOAD AND SWAP3 DUP4 ISZERO PUSH2 0x4F5 JUMPI PUSH2 0x13CB PUSH2 0x5249 JUMP JUMPDEST DUP4 SWAP5 DUP7 DUP6 JUMPDEST DUP3 DUP8 MSTORE PUSH1 0x1D DUP1 DUP8 MSTORE DUP6 DUP9 KECCAK256 DUP1 SLOAD DUP4 LT ISZERO PUSH2 0x1455 JUMPI PUSH2 0x13EF DUP4 DUP6 SWAP3 PUSH2 0x3AEA JUMP JUMPDEST POP SLOAD EQ PUSH2 0x1405 JUMPI POP PUSH2 0x1400 SWAP1 PUSH2 0x4852 JUMP JUMPDEST PUSH2 0x13D0 JUMP JUMPDEST SWAP2 POP SWAP2 DUP7 PUSH2 0x1427 SWAP6 SWAP7 SWAP8 SWAP9 POP PUSH2 0x1421 SWAP5 POP MSTORE DUP6 MSTORE DUP4 DUP7 KECCAK256 PUSH2 0x3AEA JUMP JUMPDEST POP PUSH2 0x51F4 JUMP JUMPDEST SWAP3 PUSH1 0x1 JUMPDEST ISZERO PUSH2 0x7E0 JUMPI POP PUSH2 0x143C PUSH1 0x60 SWAP5 PUSH2 0x4861 JUMP JUMPDEST PUSH1 0xC0 DUP6 DUP6 ADD MLOAD SWAP5 ADD MLOAD ISZERO ISZERO SWAP3 DUP3 MLOAD SWAP5 DUP6 MSTORE DUP5 ADD MSTORE DUP3 ADD MSTORE RETURN JUMPDEST POP POP POP POP POP SWAP4 SWAP3 SWAP1 SWAP2 SWAP3 PUSH2 0x142B JUMP JUMPDEST POP POP CALLVALUE PUSH2 0x4F5 JUMPI PUSH1 0x20 CALLDATASIZE PUSH1 0x3 NOT ADD SLT PUSH2 0x4F5 JUMPI DUP1 CALLDATALOAD DUP1 ISZERO PUSH2 0x6E2 JUMPI DUP4 SLOAD PUSH1 0x1 PUSH1 0x1 PUSH1 0xA0 SHL SUB SWAP3 SWAP1 DUP4 AND ISZERO PUSH2 0x6A2 JUMPI DUP3 PUSH1 0x3 SLOAD AND DUP1 ISZERO PUSH2 0x6DE JUMPI PUSH1 0x20 DUP4 PUSH2 0x14B4 SWAP3 PUSH2 0x5EF DUP8 PUSH1 0x7 SLOAD AND CALLER SWAP1 DUP5 PUSH2 0x413A JUMP JUMPDEST SUB SWAP3 GAS CALL SWAP1 DUP2 ISZERO PUSH2 0x6D4 JUMPI DUP7 SWAP2 PUSH2 0x151B JUMPI JUMPDEST POP ISZERO PUSH2 0x6A2 JUMPI PUSH1 0x0 DUP1 MLOAD PUSH1 0x20 PUSH2 0x5282 DUP4 CODECOPY DUP2 MLOAD SWAP2 MSTORE SWAP2 PUSH2 0x14E8 PUSH2 0x69C SWAP3 PUSH2 0x4A78 JUMP JUMPDEST SWAP4 PUSH2 0x14F2 DUP6 PUSH2 0x4C54 JUMP JUMPDEST PUSH2 0x1508 DUP2 PUSH1 0x3 SLOAD AND DUP7 DUP5 DUP5 DUP12 SLOAD AND PUSH2 0x682 PUSH2 0x4488 JUMP JUMPDEST PUSH1 0x3 SLOAD AND SWAP5 MLOAD SWAP2 DUP3 SWAP2 CALLER SWAP6 TIMESTAMP SWAP2 DUP5 PUSH2 0x3AD4 JUMP JUMPDEST PUSH2 0x1533 SWAP2 POP PUSH1 0x20 RETURNDATASIZE DUP2 GT PUSH2 0x6CD JUMPI PUSH2 0x6BF DUP2 DUP4 PUSH2 0x3BD8 JUMP JUMPDEST CODESIZE PUSH2 0x14C6 JUMP JUMPDEST POP POP POP CALLVALUE PUSH2 0x53F JUMPI DUP2 PUSH1 0x3 NOT CALLDATASIZE ADD SLT PUSH2 0x53F JUMPI MLOAD PUSH8 0x3E09DE2596099E2B PUSH1 0x1B SHL DUP2 MSTORE PUSH1 0x20 SWAP1 RETURN JUMPDEST POP POP POP CALLVALUE PUSH2 0x53F JUMPI DUP2 PUSH1 0x3 NOT CALLDATASIZE ADD SLT PUSH2 0x53F JUMPI PUSH1 0x20 SWAP1 PUSH1 0x24 SLOAD SWAP1 MLOAD SWAP1 DUP2 MSTORE RETURN JUMPDEST DUP5 CALLVALUE PUSH2 0x7E0 JUMPI PUSH1 0x20 CALLDATASIZE PUSH1 0x3 NOT ADD SLT PUSH2 0x7E0 JUMPI PUSH2 0x159A PUSH2 0x3917 JUMP JUMPDEST PUSH1 0x1 PUSH1 0x1 PUSH1 0xA0 SHL SUB SWAP1 PUSH32 0x0 DUP3 AND CALLER SUB PUSH2 0x4F5 JUMPI AND DUP1 ISZERO PUSH2 0x53F JUMPI PUSH1 0x2 DUP1 SLOAD PUSH1 0x1 PUSH1 0x1 PUSH1 0xA0 SHL SUB NOT AND SWAP2 SWAP1 SWAP2 OR SWAP1 SSTORE DUP1 RETURN JUMPDEST DUP4 DUP6 CALLVALUE PUSH2 0x7E0 JUMPI PUSH1 0x20 CALLDATASIZE PUSH1 0x3 NOT ADD SLT PUSH2 0x7E0 JUMPI POP PUSH2 0x774 PUSH2 0x1611 PUSH2 0x160C PUSH2 0x3917 JUMP JUMPDEST PUSH2 0x4308 JUMP JUMPDEST PUSH2 0x1620 PUSH1 0xC SWAP4 SWAP3 SWAP4 SLOAD DUP5 PUSH2 0x3D3B JUMP JUMPDEST SWAP4 MLOAD SWAP4 DUP5 SWAP4 DUP5 PUSH2 0x3AD4 JUMP JUMPDEST POP POP POP CALLVALUE PUSH2 0x53F JUMPI DUP2 PUSH1 0x3 NOT CALLDATASIZE ADD SLT PUSH2 0x53F JUMPI MLOAD PUSH32 0x0 PUSH1 0x1 PUSH1 0x1 PUSH1 0xA0 SHL SUB AND DUP2 MSTORE PUSH1 0x20 SWAP1 RETURN JUMPDEST POP POP CALLVALUE PUSH2 0x4F5 JUMPI PUSH1 0x20 CALLDATASIZE PUSH1 0x3 NOT ADD SLT PUSH2 0x4F5 JUMPI CALLDATALOAD PUSH32 0x0 PUSH1 0x1 PUSH1 0x1 PUSH1 0xA0 SHL SUB AND CALLER SUB PUSH2 0x4F5 JUMPI DUP1 ISZERO PUSH2 0x4F5 JUMPI PUSH1 0x0 DUP1 MLOAD PUSH1 0x20 PUSH2 0x52E2 DUP4 CODECOPY DUP2 MLOAD SWAP2 MSTORE SWAP2 DUP2 PUSH1 0xA0 SWAP3 PUSH1 0xC SSTORE DUP2 MLOAD SWAP2 PUSH1 0x60 DUP4 MSTORE PUSH1 0xE PUSH1 0x60 DUP5 ADD MSTORE PUSH14 0x1554D11517D25390D49153515395 PUSH1 0x92 SHL PUSH1 0x80 DUP5 ADD MSTORE DUP2 PUSH1 0x20 DUP5 ADD MSTORE DUP3 ADD MSTORE LOG1 DUP1 RETURN JUMPDEST POP POP POP CALLVALUE PUSH2 0x53F JUMPI DUP2 PUSH1 0x3 NOT CALLDATASIZE ADD SLT PUSH2 0x53F JUMPI PUSH1 0x20 SWAP1 PUSH1 0x21 SLOAD SWAP1 MLOAD SWAP1 DUP2 MSTORE RETURN JUMPDEST POP POP POP CALLVALUE PUSH2 0x53F JUMPI DUP2 PUSH1 0x3 NOT CALLDATASIZE ADD SLT PUSH2 0x53F JUMPI PUSH1 0x20 SWAP1 PUSH1 0x15 SLOAD SWAP1 MLOAD SWAP1 DUP2 MSTORE RETURN JUMPDEST POP POP POP CALLVALUE PUSH2 0x53F JUMPI PUSH1 0x20 CALLDATASIZE PUSH1 0x3 NOT ADD SLT PUSH2 0x53F JUMPI PUSH1 0x20 SWAP1 PUSH2 0x1765 PUSH2 0x160C PUSH2 0x3917 JUMP JUMPDEST POP SWAP1 MLOAD SWAP1 DUP2 MSTORE RETURN JUMPDEST SWAP2 POP POP CALLVALUE PUSH2 0x4F5 JUMPI PUSH1 0x20 DUP1 PUSH1 0x3 NOT CALLDATASIZE ADD SLT PUSH2 0x6E2 JUMPI SWAP1 SWAP2 PUSH1 0x1 PUSH1 0x1 PUSH1 0xA0 SHL SUB PUSH2 0x1794 PUSH2 0x3917 JUMP JUMPDEST AND DUP5 MSTORE PUSH1 0x1D DUP3 MSTORE DUP1 DUP5 KECCAK256 SWAP2 DUP3 SLOAD SWAP2 PUSH2 0x17AB DUP4 PUSH2 0x51DD JUMP JUMPDEST SWAP3 PUSH2 0x17B8 DUP3 MLOAD SWAP5 DUP6 PUSH2 0x3BD8 JUMP JUMPDEST DUP1 DUP5 MSTORE DUP3 DUP5 ADD DUP1 SWAP6 DUP9 MSTORE DUP4 DUP9 KECCAK256 DUP9 SWAP2 JUMPDEST DUP4 DUP4 LT PUSH2 0x1848 JUMPI POP POP POP POP DUP1 MLOAD SWAP5 DUP3 DUP7 ADD SWAP4 DUP4 DUP8 MSTORE MLOAD DUP1 SWAP5 MSTORE DUP2 DUP7 ADD SWAP5 SWAP7 SWAP2 JUMPDEST DUP5 DUP4 LT PUSH2 0x17F5 JUMPI DUP7 DUP7 SUB DUP8 RETURN JUMPDEST DUP8 MLOAD DUP1 MLOAD DUP8 MSTORE DUP1 DUP6 ADD MLOAD DUP8 DUP7 ADD MSTORE DUP1 DUP3 ADD MLOAD DUP8 DUP4 ADD MSTORE PUSH1 0x60 DUP1 DUP3 ADD MLOAD SWAP1 DUP9 ADD MSTORE PUSH1 0x80 DUP1 DUP3 ADD MLOAD SWAP1 DUP9 ADD MSTORE PUSH1 0xA0 DUP1 DUP3 ADD MLOAD SWAP1 DUP9 ADD MSTORE PUSH1 0xC0 SWAP1 DUP2 ADD MLOAD ISZERO ISZERO SWAP1 DUP8 ADD MSTORE SWAP7 DUP4 ADD SWAP7 SWAP5 DUP2 ADD SWAP5 PUSH1 0x1 SWAP1 SWAP3 ADD SWAP2 PUSH2 0x17E8 JUMP JUMPDEST PUSH1 0x7 DUP7 PUSH1 0x1 SWAP3 PUSH2 0x185F DUP6 SWAP14 SWAP10 SWAP11 SWAP12 SWAP14 SWAP13 SWAP9 SWAP13 PUSH2 0x51F4 JUMP JUMPDEST DUP2 MSTORE ADD SWAP3 ADD SWAP3 ADD SWAP2 SWAP1 SWAP9 SWAP7 SWAP6 SWAP5 SWAP9 SWAP8 SWAP4 SWAP8 PUSH2 0x17C8 JUMP JUMPDEST POP POP POP CALLVALUE PUSH2 0x53F JUMPI DUP2 PUSH1 0x3 NOT CALLDATASIZE ADD SLT PUSH2 0x53F JUMPI PUSH1 0x20 SWAP1 PUSH1 0xD SLOAD SWAP1 MLOAD SWAP1 DUP2 MSTORE RETURN JUMPDEST POP POP POP CALLVALUE PUSH2 0x53F JUMPI DUP2 PUSH1 0x3 NOT CALLDATASIZE ADD SLT PUSH2 0x53F JUMPI PUSH1 0x20 SWAP1 PUSH1 0x1F SLOAD SWAP1 MLOAD SWAP1 DUP2 MSTORE RETURN JUMPDEST DUP4 DUP6 CALLVALUE PUSH2 0x7E0 JUMPI PUSH1 0x20 SWAP1 DUP2 PUSH1 0x3 NOT CALLDATASIZE ADD SLT PUSH2 0x7E0 JUMPI PUSH2 0x18D2 PUSH2 0x3917 JUMP JUMPDEST SWAP1 SWAP2 DUP3 SWAP2 DUP3 SWAP2 SWAP1 DUP3 SWAP1 PUSH1 0x1 PUSH1 0x1 PUSH1 0xA0 SHL SUB AND DUP2 JUMPDEST DUP2 DUP7 MSTORE PUSH1 0x1D DUP1 DUP6 MSTORE DUP9 DUP8 KECCAK256 DUP1 SLOAD DUP4 LT ISZERO PUSH2 0x1980 JUMPI PUSH1 0xFF PUSH1 0x6 PUSH2 0x1909 DUP6 DUP14 SWAP5 PUSH2 0x3AEA JUMP JUMPDEST POP ADD SLOAD AND PUSH2 0x1922 JUMPI JUMPDEST POP POP PUSH2 0x191D SWAP1 PUSH2 0x4852 JUMP JUMPDEST PUSH2 0x18E6 JUMP JUMPDEST DUP3 SWAP7 SWAP5 PUSH2 0x1950 DUP4 SWAP11 PUSH1 0x1 PUSH2 0x1947 PUSH2 0x191D SWAP8 PUSH2 0x1972 SWAP7 DUP15 PUSH2 0x1978 SWAP10 DUP15 DUP14 DUP4 MSTORE MSTORE KECCAK256 PUSH2 0x3AEA JUMP JUMPDEST POP ADD SLOAD SWAP1 PUSH2 0x3D3B JUMP JUMPDEST SWAP10 DUP6 DUP11 MSTORE DUP8 MSTORE PUSH2 0x196C PUSH2 0x1965 DUP10 DUP14 DUP13 KECCAK256 PUSH2 0x3AEA JUMP JUMPDEST POP SLOAD PUSH2 0x4861 JUMP JUMPDEST SWAP1 PUSH2 0x3D3B JUMP JUMPDEST SWAP4 PUSH2 0x4852 JUMP JUMPDEST SWAP5 SWAP1 DUP9 PUSH2 0x1912 JUMP JUMPDEST DUP10 MLOAD DUP1 PUSH2 0x774 DUP10 DUP9 DUP14 DUP5 PUSH2 0x3AD4 JUMP JUMPDEST POP POP CALLVALUE PUSH2 0x4F5 JUMPI PUSH2 0x19A2 PUSH2 0xF8F CALLDATASIZE PUSH2 0x395F JUMP JUMPDEST DUP1 ISZERO PUSH2 0x6E2 JUMPI DUP4 SLOAD PUSH1 0x1 PUSH1 0x1 PUSH1 0xA0 SHL SUB SWAP2 SWAP1 DUP3 AND ISZERO PUSH2 0x6A2 JUMPI DUP2 DUP4 SLOAD AND SWAP1 DUP2 ISZERO PUSH2 0x6DE JUMPI PUSH2 0x19D6 DUP4 PUSH1 0x8 SLOAD AND CALLER SWAP1 DUP4 PUSH2 0x3ED5 JUMP JUMPDEST DUP6 MLOAD PUSH4 0x23B872DD PUSH1 0xE0 SHL DUP2 MSTORE SWAP1 SWAP3 PUSH1 0x20 SWAP1 DUP3 SWAP1 DUP2 DUP11 DUP2 PUSH2 0x1A1A DUP9 PUSH32 0x0 CALLER DUP15 DUP6 ADD PUSH2 0x444B JUMP JUMPDEST SUB SWAP3 GAS CALL SWAP1 DUP2 ISZERO PUSH2 0x1A9C JUMPI DUP8 SWAP2 PUSH2 0x1A7E JUMPI JUMPDEST POP ISZERO PUSH2 0x6DE JUMPI PUSH1 0x0 DUP1 MLOAD PUSH1 0x20 PUSH2 0x5282 DUP4 CODECOPY DUP2 MLOAD SWAP2 MSTORE SWAP3 PUSH2 0x1A4E PUSH2 0x69C SWAP4 PUSH2 0x4A78 JUMP JUMPDEST SWAP5 PUSH2 0x1A58 DUP7 PUSH2 0x4C54 JUMP JUMPDEST PUSH2 0x1A6D DUP3 DUP3 SLOAD AND DUP8 DUP6 DUP6 DUP13 SLOAD AND PUSH2 0x682 PUSH2 0x4488 JUMP JUMPDEST SLOAD AND SWAP5 MLOAD SWAP2 DUP3 SWAP2 CALLER SWAP6 TIMESTAMP SWAP2 DUP5 PUSH2 0x3AD4 JUMP JUMPDEST PUSH2 0x1A96 SWAP2 POP PUSH1 0x20 RETURNDATASIZE DUP2 GT PUSH2 0x6CD JUMPI PUSH2 0x6BF DUP2 DUP4 PUSH2 0x3BD8 JUMP JUMPDEST CODESIZE PUSH2 0x1A2C JUMP JUMPDEST DUP7 MLOAD RETURNDATASIZE DUP10 DUP3 RETURNDATACOPY RETURNDATASIZE SWAP1 REVERT JUMPDEST DUP1 DUP6 DUP6 CALLDATASIZE PUSH1 0x3 NOT ADD PUSH1 0xA0 DUP2 SLT PUSH2 0x1CED JUMPI PUSH1 0x80 SGT PUSH2 0x1CF2 JUMPI PUSH1 0x84 CALLDATALOAD PUSH1 0x1 PUSH1 0x1 PUSH1 0x40 SHL SUB DUP2 GT PUSH2 0x1CED JUMPI PUSH2 0x1ADB SWAP1 CALLDATASIZE SWAP1 DUP4 ADD PUSH2 0x3932 JUMP JUMPDEST SWAP2 PUSH1 0x64 CALLDATALOAD SWAP1 DUP2 TIMESTAMP GT PUSH2 0x6DE JUMPI PUSH1 0x1 PUSH1 0x1 PUSH1 0xA0 SHL SUB SWAP4 SWAP1 CALLDATALOAD DUP5 DUP2 AND SWAP4 SWAP2 SWAP1 DUP5 SWAP1 SUB PUSH2 0x1D79 JUMPI CALLER DUP5 SUB PUSH2 0x1D79 JUMPI PUSH1 0x44 CALLDATALOAD SWAP2 CALLER DUP9 MSTORE PUSH1 0x20 SWAP5 PUSH1 0x2A DUP7 MSTORE DUP8 DUP10 KECCAK256 SLOAD DUP5 GT ISZERO PUSH2 0x1DA6 JUMPI PUSH1 0x29 SLOAD SWAP1 PUSH1 0x24 CALLDATALOAD SWAP6 DUP9 DUP8 AND DUP1 SWAP8 SUB PUSH2 0x1DA2 JUMPI DUP10 MLOAD SWAP1 DUP9 DUP3 ADD SWAP3 PUSH1 0x0 DUP1 MLOAD PUSH1 0x20 PUSH2 0x5342 DUP4 CODECOPY DUP2 MLOAD SWAP2 MSTORE DUP5 MSTORE DUP12 DUP4 ADD MSTORE DUP8 PUSH1 0x60 DUP4 ADD MSTORE DUP7 PUSH1 0x80 DUP4 ADD MSTORE PUSH1 0xA0 DUP3 ADD MSTORE PUSH1 0xA0 DUP2 MSTORE PUSH2 0x1B6B DUP2 PUSH2 0x3B87 JUMP JUMPDEST MLOAD SWAP1 KECCAK256 DUP9 MLOAD SWAP1 DUP8 DUP3 ADD SWAP3 PUSH2 0x1901 PUSH1 0xF0 SHL DUP5 MSTORE PUSH1 0x22 DUP4 ADD MSTORE PUSH1 0x42 DUP3 ADD MSTORE PUSH1 0x42 DUP2 MSTORE PUSH2 0x1B94 DUP2 PUSH2 0x3BA2 JUMP JUMPDEST MLOAD SWAP1 KECCAK256 PUSH2 0x1BA0 DUP4 PUSH2 0x446D JUMP JUMPDEST SWAP1 PUSH2 0x1BAD DUP10 MLOAD SWAP3 DUP4 PUSH2 0x3BD8 JUMP JUMPDEST DUP4 DUP3 MSTORE CALLDATASIZE DUP5 DUP5 ADD GT PUSH2 0x1D9E JUMPI DUP10 DUP8 DUP6 PUSH2 0x1BD9 SWAP7 PUSH2 0x1BD1 SWAP7 DUP4 DUP8 ADD CALLDATACOPY DUP5 ADD ADD MSTORE PUSH2 0x4795 JUMP JUMPDEST SWAP2 SWAP1 SWAP2 PUSH2 0x474B JUMP JUMPDEST DUP5 DUP1 PUSH1 0x28 SLOAD AND SWAP2 AND SUB PUSH2 0x6DE JUMPI CALLER DUP7 MSTORE PUSH1 0x2A DUP4 MSTORE DUP1 DUP6 DUP8 KECCAK256 SSTORE DUP5 MLOAD SWAP1 DUP2 MSTORE PUSH1 0x0 DUP1 MLOAD PUSH1 0x20 PUSH2 0x5322 DUP4 CODECOPY DUP2 MLOAD SWAP2 MSTORE DUP4 CALLER SWAP3 LOG2 DUP5 SWAP2 DUP2 ISZERO ISZERO SWAP1 DUP2 DUP1 PUSH2 0x1D91 JUMPI JUMPDEST DUP1 PUSH2 0x1D7D JUMPI JUMPDEST DUP5 DUP2 PUSH2 0x1D5E JUMPI JUMPDEST POP PUSH2 0x1D0B JUMPI JUMPDEST PUSH1 0x17 SWAP1 CALLER DUP9 MSTORE MSTORE DUP5 DUP7 KECCAK256 SWAP3 PUSH1 0xFF NOT SWAP4 PUSH1 0x1 DUP6 DUP3 SLOAD AND OR SWAP1 SSTORE PUSH2 0x6DE JUMPI PUSH2 0x1CF6 JUMPI JUMPDEST POP POP CALLVALUE ISZERO PUSH2 0x1CF2 JUMPI DUP1 DUP4 SLOAD AND ISZERO PUSH2 0x1CF2 JUMPI PUSH2 0x1C73 PUSH2 0x1C6E CALLER DUP4 PUSH1 0x6 SLOAD AND CALLVALUE PUSH2 0x413A JUMP JUMPDEST PUSH2 0x4A78 JUMP JUMPDEST SWAP2 PUSH2 0x1C7D DUP4 PUSH2 0x4C54 JUMP JUMPDEST DUP4 DUP1 DUP1 DUP1 CALLVALUE DUP7 PUSH32 0x0 AND GAS CALL PUSH2 0x1CAF PUSH2 0x44A7 JUMP JUMPDEST POP ISZERO PUSH2 0x1CED JUMPI PUSH2 0x1CDD PUSH1 0x0 DUP1 MLOAD PUSH1 0x20 PUSH2 0x5282 DUP4 CODECOPY DUP2 MLOAD SWAP2 MSTORE SWAP3 DUP6 SLOAD AND DUP5 PUSH2 0x1CD4 PUSH2 0x4488 JUMP JUMPDEST SWAP2 CALLVALUE SWAP1 CALLER PUSH2 0x5122 JUMP JUMPDEST MLOAD DUP1 PUSH2 0x69C CALLER SWAP5 TIMESTAMP SWAP1 CALLVALUE DUP5 PUSH2 0x3AD4 JUMP JUMPDEST POP POP POP REVERT JUMPDEST POP POP REVERT JUMPDEST DUP5 MSTORE PUSH1 0x1 DUP4 DUP6 KECCAK256 SWAP2 DUP3 SLOAD AND OR SWAP1 SSTORE DUP5 DUP1 PUSH2 0x1C4B JUMP JUMPDEST SWAP3 PUSH2 0x6DE JUMPI CALLER DUP1 DUP8 MSTORE PUSH1 0x25 DUP5 MSTORE DUP6 DUP8 KECCAK256 DUP1 SLOAD PUSH1 0x1 PUSH1 0x1 PUSH1 0xA0 SHL SUB NOT AND DUP5 OR SWAP1 SSTORE DUP3 DUP8 MSTORE PUSH1 0x26 DUP5 MSTORE DUP6 DUP8 KECCAK256 PUSH2 0x1D3F SWAP2 SWAP1 PUSH2 0x4358 JUMP JUMPDEST PUSH1 0x17 DUP7 SWAP4 CALLER DUP5 PUSH1 0x0 DUP1 MLOAD PUSH1 0x20 PUSH2 0x52C2 DUP4 CODECOPY DUP2 MLOAD SWAP2 MSTORE DUP11 DUP1 LOG3 SWAP1 POP PUSH2 0x1C2A JUMP JUMPDEST SWAP1 POP PUSH2 0x1D79 JUMPI DUP3 DUP8 MSTORE PUSH1 0x11 DUP2 MSTORE PUSH1 0xFF DUP7 DUP9 KECCAK256 SLOAD AND ISZERO DUP5 PUSH2 0x1C24 JUMP JUMPDEST DUP7 DUP1 REVERT JUMPDEST POP CALLER DUP8 MSTORE PUSH1 0x25 DUP2 MSTORE DUP5 DUP7 DUP9 KECCAK256 SLOAD AND ISZERO PUSH2 0x1C1D JUMP JUMPDEST POP DUP7 SWAP4 POP CALLER DUP4 EQ ISZERO PUSH2 0x1C17 JUMP JUMPDEST DUP10 DUP1 REVERT JUMPDEST DUP11 DUP1 REVERT JUMPDEST DUP9 DUP1 REVERT JUMPDEST SWAP3 SWAP1 POP CALLVALUE PUSH2 0x6E2 JUMPI DUP4 PUSH1 0x3 NOT CALLDATASIZE ADD SLT PUSH2 0x6E2 JUMPI DUP4 SLOAD DUP2 MLOAD PUSH4 0x70A08231 PUSH1 0xE0 SHL DUP2 MSTORE ADDRESS SWAP4 DUP2 ADD SWAP4 SWAP1 SWAP4 MSTORE PUSH1 0x1 PUSH1 0x1 PUSH1 0xA0 SHL SUB SWAP1 DUP2 AND SWAP4 SWAP1 PUSH1 0x20 DUP5 PUSH1 0x24 DUP2 DUP9 GAS STATICCALL SWAP4 DUP5 ISZERO PUSH2 0x1E85 JUMPI DUP7 SWAP5 PUSH2 0x1E4D JUMPI JUMPDEST POP PUSH2 0x120 SWAP6 POP PUSH2 0x1E05 PUSH2 0x426E JUMP JUMPDEST POP SWAP1 PUSH1 0xA SLOAD PUSH1 0xF SLOAD SWAP1 DUP3 PUSH1 0x1 SLOAD AND SWAP3 PUSH1 0x2 SLOAD AND SWAP4 PUSH1 0xC SLOAD SWAP7 PUSH1 0xB SLOAD SWAP9 DUP2 MLOAD SWAP11 DUP12 MSTORE PUSH1 0x20 DUP12 ADD MSTORE DUP10 ADD MSTORE PUSH1 0x60 DUP9 ADD MSTORE PUSH1 0x80 DUP8 ADD MSTORE PUSH1 0xA0 DUP7 ADD MSTORE PUSH1 0xC0 DUP6 ADD MSTORE DUP4 ADD MSTORE PUSH2 0x100 DUP3 ADD MSTORE RETURN JUMPDEST SWAP1 SWAP4 POP PUSH1 0x20 DUP2 RETURNDATASIZE DUP3 GT PUSH2 0x1E7D JUMPI JUMPDEST DUP2 PUSH2 0x1E68 PUSH1 0x20 SWAP4 DUP4 PUSH2 0x3BD8 JUMP JUMPDEST DUP2 ADD SUB SLT PUSH2 0x6DE JUMPI PUSH2 0x120 SWAP6 POP MLOAD SWAP3 CODESIZE PUSH2 0x1DF7 JUMP JUMPDEST RETURNDATASIZE SWAP2 POP PUSH2 0x1E5B JUMP JUMPDEST DUP4 MLOAD RETURNDATASIZE DUP9 DUP3 RETURNDATACOPY RETURNDATASIZE SWAP1 REVERT JUMPDEST DUP5 CALLVALUE PUSH2 0x7E0 JUMPI PUSH1 0x20 CALLDATASIZE PUSH1 0x3 NOT ADD SLT PUSH2 0x7E0 JUMPI PUSH2 0x1EA9 PUSH2 0x3917 JUMP JUMPDEST PUSH1 0x1 PUSH1 0x1 PUSH1 0xA0 SHL SUB SWAP1 PUSH32 0x0 DUP3 AND CALLER SUB PUSH2 0x4F5 JUMPI AND DUP1 ISZERO PUSH2 0x53F JUMPI PUSH1 0x7 DUP1 SLOAD PUSH1 0x1 PUSH1 0x1 PUSH1 0xA0 SHL SUB NOT AND SWAP2 SWAP1 SWAP2 OR SWAP1 SSTORE DUP1 RETURN JUMPDEST POP POP SWAP2 CALLVALUE PUSH2 0x7E0 JUMPI DUP1 PUSH1 0x3 NOT CALLDATASIZE ADD SLT PUSH2 0x7E0 JUMPI PUSH1 0x9 SLOAD PUSH1 0x1 PUSH1 0x1 PUSH1 0xA0 SHL SUB AND SWAP1 DUP2 ISZERO PUSH2 0x7E0 JUMPI DUP3 MLOAD PUSH4 0x3FABE5A3 PUSH1 0xE2 SHL DUP2 MSTORE SWAP2 PUSH1 0xA0 DUP4 DUP7 DUP2 DUP5 GAS STATICCALL SWAP3 DUP4 ISZERO PUSH2 0x20B2 JUMPI DUP3 SWAP4 PUSH2 0x2064 JUMPI JUMPDEST POP DUP2 DUP4 SGT ISZERO PUSH2 0x53F JUMPI SWAP1 PUSH1 0x20 DUP6 SWAP4 SWAP3 DUP6 MLOAD SWAP5 DUP6 DUP1 SWAP3 PUSH4 0x313CE567 PUSH1 0xE0 SHL DUP3 MSTORE GAS STATICCALL SWAP3 DUP4 ISZERO PUSH2 0x1181 JUMPI DUP2 SWAP4 PUSH2 0x2027 JUMPI JUMPDEST POP PUSH2 0x1F7A PUSH2 0x426E JUMP JUMPDEST POP SWAP2 PUSH4 0x3B9ACA00 SWAP1 DUP1 DUP3 MUL SWAP2 DUP3 DIV SUB PUSH2 0x2014 JUMPI PUSH1 0xB SLOAD PUSH1 0x12 DUP2 ADD SWAP1 DUP2 DUP2 GT PUSH2 0x2001 JUMPI PUSH1 0x9 ADD SWAP1 DUP2 GT PUSH2 0x1FEE JUMPI PUSH1 0xFF SWAP2 PUSH2 0xD12 PUSH2 0x1FB5 SWAP3 PUSH2 0x3D55 JUMP JUMPDEST SWAP4 AND SWAP1 PUSH1 0x4D DUP3 GT PUSH2 0x1FDB JUMPI PUSH1 0x20 DUP6 PUSH2 0xA0E DUP7 PUSH2 0x1FD5 DUP8 DUP8 PUSH1 0xA EXP SWAP1 PUSH2 0x3D12 JUMP JUMPDEST SWAP1 PUSH2 0x3D63 JUMP JUMPDEST PUSH4 0x4E487B71 PUSH1 0xE0 SHL DUP2 MSTORE PUSH1 0x11 DUP7 MSTORE PUSH1 0x24 SWAP1 REVERT JUMPDEST PUSH4 0x4E487B71 PUSH1 0xE0 SHL DUP4 MSTORE PUSH1 0x11 DUP8 MSTORE PUSH1 0x24 DUP4 REVERT JUMPDEST PUSH4 0x4E487B71 PUSH1 0xE0 SHL DUP5 MSTORE PUSH1 0x11 DUP9 MSTORE PUSH1 0x24 DUP5 REVERT JUMPDEST PUSH4 0x4E487B71 PUSH1 0xE0 SHL DUP3 MSTORE PUSH1 0x11 DUP7 MSTORE PUSH1 0x24 DUP3 REVERT JUMPDEST SWAP1 SWAP3 POP PUSH1 0x20 DUP2 RETURNDATASIZE DUP3 GT PUSH2 0x205C JUMPI JUMPDEST DUP2 PUSH2 0x2042 PUSH1 0x20 SWAP4 DUP4 PUSH2 0x3BD8 JUMP JUMPDEST DUP2 ADD SUB SLT PUSH2 0x4F5 JUMPI MLOAD PUSH1 0xFF DUP2 AND DUP2 SUB PUSH2 0x4F5 JUMPI SWAP2 CODESIZE PUSH2 0x1F71 JUMP JUMPDEST RETURNDATASIZE SWAP2 POP PUSH2 0x2035 JUMP JUMPDEST SWAP1 SWAP3 POP PUSH1 0xA0 DUP2 RETURNDATASIZE DUP3 GT PUSH2 0x20AA JUMPI JUMPDEST DUP2 PUSH2 0x207F PUSH1 0xA0 SWAP4 DUP4 PUSH2 0x3BD8 JUMP JUMPDEST DUP2 ADD SUB SLT PUSH2 0x53F JUMPI PUSH2 0x2090 DUP2 PUSH2 0x3CFE JUMP JUMPDEST POP PUSH2 0x20A2 PUSH1 0x80 PUSH1 0x20 DUP4 ADD MLOAD SWAP3 ADD PUSH2 0x3CFE JUMP JUMPDEST POP SWAP2 CODESIZE PUSH2 0x1F42 JUMP JUMPDEST RETURNDATASIZE SWAP2 POP PUSH2 0x2072 JUMP JUMPDEST DUP5 MLOAD RETURNDATASIZE DUP5 DUP3 RETURNDATACOPY RETURNDATASIZE SWAP1 REVERT JUMPDEST POP POP POP CALLVALUE PUSH2 0x53F JUMPI PUSH1 0x20 CALLDATASIZE PUSH1 0x3 NOT ADD SLT PUSH2 0x53F JUMPI PUSH1 0x20 SWAP2 PUSH1 0xFF SWAP1 DUP3 SWAP1 PUSH1 0x1 PUSH1 0x1 PUSH1 0xA0 SHL SUB PUSH2 0x20E8 PUSH2 0x3917 JUMP JUMPDEST AND DUP2 MSTORE PUSH1 0x17 DUP6 MSTORE KECCAK256 SLOAD AND SWAP1 MLOAD SWAP1 ISZERO ISZERO DUP2 MSTORE RETURN JUMPDEST POP POP POP CALLVALUE PUSH2 0x53F JUMPI DUP2 PUSH1 0x3 NOT CALLDATASIZE ADD SLT PUSH2 0x53F JUMPI PUSH1 0x20 SWAP1 PUSH1 0x16 SLOAD SWAP1 MLOAD SWAP1 DUP2 MSTORE RETURN JUMPDEST POP POP POP CALLVALUE PUSH2 0x53F JUMPI DUP2 PUSH1 0x3 NOT CALLDATASIZE ADD SLT PUSH2 0x53F JUMPI PUSH1 0x20 SWAP1 PUSH1 0x22 SLOAD SWAP1 MLOAD SWAP1 DUP2 MSTORE RETURN JUMPDEST POP POP CALLVALUE PUSH2 0x4F5 JUMPI PUSH1 0x20 CALLDATASIZE PUSH1 0x3 NOT ADD SLT PUSH2 0x4F5 JUMPI CALLDATALOAD SWAP1 PUSH32 0x0 PUSH1 0x1 PUSH1 0x1 PUSH1 0xA0 SHL SUB AND CALLER SUB PUSH2 0x4F5 JUMPI DUP2 ISZERO PUSH2 0x4F5 JUMPI PUSH32 0x787A1FCA55641CE34A438271930BBB9401DF20DB2B4F510D4F252227D85DF43D SWAP2 PUSH1 0x1B SLOAD SWAP1 DUP1 PUSH1 0x1B SSTORE DUP3 MLOAD SWAP2 DUP3 MSTORE PUSH1 0x20 DUP3 ADD MSTORE LOG1 DUP1 RETURN JUMPDEST POP POP POP CALLVALUE PUSH2 0x53F JUMPI DUP2 PUSH1 0x3 NOT CALLDATASIZE ADD SLT PUSH2 0x53F JUMPI PUSH1 0x20 SWAP1 PUSH1 0xE SLOAD SWAP1 MLOAD SWAP1 DUP2 MSTORE RETURN JUMPDEST DUP5 CALLVALUE PUSH2 0x7E0 JUMPI PUSH1 0x20 CALLDATASIZE PUSH1 0x3 NOT ADD SLT PUSH2 0x7E0 JUMPI PUSH2 0x21F8 PUSH2 0x3917 JUMP JUMPDEST PUSH1 0x1 PUSH1 0x1 PUSH1 0xA0 SHL SUB SWAP1 PUSH32 0x0 DUP3 AND CALLER SUB PUSH2 0x4F5 JUMPI DUP2 PUSH1 0x28 SLOAD SWAP2 AND DUP1 SWAP3 DUP3 AND PUSH32 0x2D025324F0A785E8C12D0A0D91A9CAA49DF4EF20FF87E0DF7213A1D4F3157BEB DUP6 DUP1 LOG3 PUSH1 0x1 PUSH1 0x1 PUSH1 0xA0 SHL SUB NOT AND OR PUSH1 0x28 SSTORE DUP1 RETURN JUMPDEST DUP5 CALLVALUE PUSH2 0x7E0 JUMPI PUSH1 0x20 CALLDATASIZE PUSH1 0x3 NOT ADD SLT PUSH2 0x7E0 JUMPI PUSH2 0x2283 PUSH2 0x3917 JUMP JUMPDEST PUSH1 0x1 PUSH1 0x1 PUSH1 0xA0 SHL SUB SWAP1 PUSH32 0x0 DUP3 AND CALLER SUB PUSH2 0x4F5 JUMPI AND DUP1 ISZERO PUSH2 0x53F JUMPI PUSH1 0x1 DUP1 SLOAD PUSH1 0x1 PUSH1 0x1 PUSH1 0xA0 SHL SUB NOT AND SWAP2 SWAP1 SWAP2 OR SWAP1 SSTORE DUP1 RETURN JUMPDEST POP POP SWAP1 CALLVALUE PUSH2 0x4F5 JUMPI PUSH1 0x20 SWAP1 DUP2 PUSH1 0x3 NOT CALLDATASIZE ADD SLT PUSH2 0x6E2 JUMPI DUP3 CALLDATALOAD SWAP2 PUSH2 0x22F5 CALLER PUSH2 0x43AB JUMP JUMPDEST DUP3 DUP6 MSTORE PUSH1 0x1E DUP2 MSTORE DUP2 DUP6 KECCAK256 SLOAD PUSH1 0x1 PUSH1 0x1 PUSH1 0xA0 SHL SUB SWAP5 SWAP1 CALLER SWAP1 DUP7 AND SUB PUSH2 0x6DE JUMPI SWAP3 SWAP4 DUP6 SWAP4 DUP5 SWAP2 SWAP1 DUP3 DUP1 JUMPDEST CALLER DUP11 MSTORE PUSH1 0x1D DUP1 DUP8 MSTORE DUP8 DUP12 KECCAK256 DUP1 SLOAD DUP4 LT ISZERO PUSH2 0x2513 JUMPI SWAP10 PUSH2 0x233E DUP4 DUP3 SWAP12 SWAP13 PUSH2 0x3AEA JUMP JUMPDEST POP SLOAD EQ PUSH2 0x2357 JUMPI POP PUSH2 0x234F SWAP1 PUSH2 0x4852 JUMP JUMPDEST SWAP8 SWAP7 SWAP8 PUSH2 0x231D JUMP JUMPDEST SWAP5 POP SWAP7 SWAP8 POP POP CALLER DUP9 MSTORE DUP3 DUP5 MSTORE PUSH2 0x236F DUP7 DUP7 DUP11 KECCAK256 PUSH2 0x3AEA JUMP JUMPDEST POP SWAP6 PUSH1 0xFF PUSH1 0x6 DUP1 SWAP9 ADD SLOAD AND ISZERO PUSH2 0x1DA6 JUMPI CALLER DUP10 MSTORE DUP4 DUP6 MSTORE PUSH1 0x2 PUSH2 0x2393 DUP3 DUP9 DUP13 KECCAK256 PUSH2 0x3AEA JUMP JUMPDEST POP ADD SLOAD CALLER DUP11 MSTORE DUP5 DUP7 MSTORE PUSH1 0x3 PUSH2 0x23AA DUP4 DUP10 DUP14 KECCAK256 PUSH2 0x3AEA JUMP JUMPDEST POP ADD SLOAD SWAP1 PUSH3 0x15180 SWAP2 DUP3 DUP2 MUL SWAP3 DUP2 DUP5 DIV EQ SWAP1 ISZERO OR ISZERO PUSH2 0x2500 JUMPI SWAP1 PUSH2 0x23CD SWAP2 PUSH2 0x3D3B JUMP JUMPDEST TIMESTAMP LT PUSH2 0x1DA6 JUMPI PUSH2 0x23DC DUP9 PUSH2 0x4861 JUMP JUMPDEST SWAP7 CALLER DUP11 MSTORE DUP5 DUP7 MSTORE PUSH2 0x2408 PUSH2 0x23F2 DUP4 DUP10 DUP14 KECCAK256 PUSH2 0x3AEA JUMP JUMPDEST POP SWAP3 PUSH1 0x1 DUP1 SWAP5 ADD SLOAD SWAP7 CALLER DUP14 MSTORE DUP9 MSTORE DUP9 DUP13 KECCAK256 PUSH2 0x3AEA JUMP JUMPDEST POP ADD PUSH1 0xFF NOT DUP2 SLOAD AND SWAP1 SSTORE PUSH1 0x1F PUSH2 0x241F DUP6 DUP3 SLOAD PUSH2 0x3D48 JUMP JUMPDEST SWAP1 SSTORE JUMPDEST ISZERO PUSH2 0x24FC JUMPI PUSH2 0x2461 SWAP2 DUP5 SWAP2 PUSH2 0x2436 CALLER PUSH2 0x4B9B JUMP JUMPDEST PUSH2 0x2440 DUP9 DUP7 PUSH2 0x3D3B JUMP JUMPDEST SWAP2 DUP11 SLOAD AND SWAP1 DUP11 DUP9 MLOAD DUP1 SWAP7 DUP2 SWAP6 DUP3 SWAP5 PUSH4 0xA9059CBB PUSH1 0xE0 SHL DUP5 MSTORE CALLER SWAP1 DUP5 ADD PUSH2 0x4A5D JUMP JUMPDEST SUB SWAP3 GAS CALL SWAP1 DUP2 ISZERO PUSH2 0x24F2 JUMPI DUP8 SWAP2 PUSH2 0x24D5 JUMPI JUMPDEST POP ISZERO PUSH2 0x6DE JUMPI DUP5 DUP5 ISZERO ISZERO SWAP2 DUP3 PUSH2 0x24C3 JUMPI JUMPDEST DUP5 MLOAD SWAP1 DUP2 MSTORE PUSH1 0x0 DUP1 MLOAD PUSH1 0x20 PUSH2 0x5302 DUP4 CODECOPY DUP2 MLOAD SWAP2 MSTORE DUP5 CALLER SWAP3 LOG3 PUSH2 0x24A4 JUMPI DUP5 DUP1 RETURN JUMPDEST PUSH1 0x0 DUP1 MLOAD PUSH1 0x20 PUSH2 0x52A2 DUP4 CODECOPY DUP2 MLOAD SWAP2 MSTORE SWAP2 MLOAD SWAP3 DUP4 MSTORE CALLER SWAP3 LOG3 CODESIZE DUP1 DUP1 DUP1 DUP5 DUP1 RETURN JUMPDEST PUSH2 0x24CE DUP7 DUP6 SLOAD PUSH2 0x3D3B JUMP JUMPDEST DUP5 SSTORE PUSH2 0x2484 JUMP JUMPDEST PUSH2 0x24EC SWAP2 POP DUP4 RETURNDATASIZE DUP6 GT PUSH2 0x6CD JUMPI PUSH2 0x6BF DUP2 DUP4 PUSH2 0x3BD8 JUMP JUMPDEST CODESIZE PUSH2 0x2473 JUMP JUMPDEST DUP5 MLOAD RETURNDATASIZE DUP10 DUP3 RETURNDATACOPY RETURNDATASIZE SWAP1 REVERT JUMPDEST DUP8 DUP1 REVERT JUMPDEST PUSH4 0x4E487B71 PUSH1 0xE0 SHL DUP12 MSTORE PUSH1 0x11 DUP5 MSTORE PUSH1 0x24 DUP12 REVERT JUMPDEST POP POP POP PUSH2 0x2422 JUMP JUMPDEST POP POP CALLVALUE PUSH2 0x4F5 JUMPI PUSH1 0x20 CALLDATASIZE PUSH1 0x3 NOT ADD SLT PUSH2 0x4F5 JUMPI CALLDATALOAD PUSH32 0x0 PUSH1 0x1 PUSH1 0x1 PUSH1 0xA0 SHL SUB AND CALLER SUB PUSH2 0x4F5 JUMPI DUP1 ISZERO PUSH2 0x4F5 JUMPI PUSH1 0x0 DUP1 MLOAD PUSH1 0x20 PUSH2 0x52E2 DUP4 CODECOPY DUP2 MLOAD SWAP2 MSTORE SWAP2 PUSH1 0xA0 SWAP2 PUSH1 0xA SLOAD SWAP2 DUP2 PUSH1 0xA SSTORE DUP1 MLOAD SWAP3 PUSH1 0x60 DUP5 MSTORE PUSH1 0xA PUSH1 0x60 DUP6 ADD MSTORE PUSH10 0x555344545F5052494345 PUSH1 0xB0 SHL PUSH1 0x80 DUP6 ADD MSTORE PUSH1 0x20 DUP5 ADD MSTORE DUP3 ADD MSTORE LOG1 DUP1 RETURN JUMPDEST POP POP POP CALLVALUE PUSH2 0x53F JUMPI PUSH1 0x20 DUP1 PUSH1 0x3 NOT CALLDATASIZE ADD SLT PUSH2 0x4F5 JUMPI PUSH1 0x1 PUSH1 0x1 PUSH1 0xA0 SHL SUB SWAP3 DUP4 PUSH2 0x25D4 PUSH2 0x3917 JUMP JUMPDEST AND DUP2 MSTORE PUSH1 0x26 DUP3 MSTORE DUP3 DUP2 KECCAK256 SWAP2 DUP4 MLOAD SWAP1 DUP2 DUP2 DUP6 SLOAD SWAP2 DUP3 DUP2 MSTORE ADD SWAP1 DUP2 SWAP6 DUP6 MSTORE DUP3 DUP6 KECCAK256 SWAP1 DUP6 JUMPDEST DUP2 DUP2 LT PUSH2 0x2642 JUMPI POP POP POP DUP3 PUSH2 0x260C SWAP2 SUB DUP4 PUSH2 0x3BD8 JUMP JUMPDEST DUP5 MLOAD SWAP5 DUP2 DUP7 ADD SWAP3 DUP3 DUP8 MSTORE MLOAD DUP1 SWAP4 MSTORE DUP6 ADD SWAP4 SWAP3 JUMPDEST DUP3 DUP2 LT PUSH2 0x262C JUMPI DUP6 DUP6 SUB DUP7 RETURN JUMPDEST DUP4 MLOAD DUP8 AND DUP6 MSTORE SWAP4 DUP2 ADD SWAP4 SWAP3 DUP2 ADD SWAP3 PUSH1 0x1 ADD PUSH2 0x261F JUMP JUMPDEST DUP3 SLOAD DUP11 AND DUP5 MSTORE SWAP3 DUP5 ADD SWAP3 PUSH1 0x1 SWAP3 DUP4 ADD SWAP3 ADD PUSH2 0x25F6 JUMP JUMPDEST POP POP SWAP1 CALLVALUE PUSH2 0x4F5 JUMPI PUSH1 0x20 SWAP2 DUP3 PUSH1 0x3 NOT CALLDATASIZE ADD SLT PUSH2 0x6E2 JUMPI DUP1 CALLDATALOAD SWAP2 PUSH2 0x267A CALLER PUSH2 0x43AB JUMP JUMPDEST DUP3 DUP6 MSTORE PUSH1 0x1E DUP5 MSTORE DUP1 DUP6 KECCAK256 SLOAD PUSH1 0x1 PUSH1 0x1 PUSH1 0xA0 SHL SUB SWAP5 SWAP1 CALLER SWAP1 DUP7 AND SUB PUSH2 0x6DE JUMPI DUP6 SWAP5 DUP7 JUMPDEST CALLER DUP9 MSTORE PUSH1 0x1D DUP1 DUP5 MSTORE DUP5 DUP10 KECCAK256 DUP1 SLOAD DUP4 LT ISZERO PUSH2 0x27C1 JUMPI PUSH2 0x26BB DUP4 DUP10 SWAP3 PUSH2 0x3AEA JUMP JUMPDEST POP SLOAD EQ PUSH2 0x26D1 JUMPI POP PUSH2 0x26CC SWAP1 PUSH2 0x4852 JUMP JUMPDEST PUSH2 0x269C JUMP JUMPDEST SWAP2 SWAP3 SWAP4 SWAP5 SWAP6 SWAP7 POP CALLER DUP9 MSTORE DUP2 DUP5 MSTORE PUSH1 0xFF PUSH1 0x6 PUSH2 0x26EE DUP4 DUP9 DUP13 KECCAK256 PUSH2 0x3AEA JUMP JUMPDEST POP ADD SLOAD AND ISZERO PUSH2 0x24FC JUMPI PUSH2 0x2700 DUP8 PUSH2 0x4861 JUMP JUMPDEST SWAP6 DUP7 ISZERO PUSH2 0x1DA6 JUMPI PUSH2 0x275D SWAP4 PUSH2 0x2737 DUP9 SWAP4 DUP8 SWAP6 CALLER DUP14 MSTORE DUP1 DUP8 MSTORE DUP13 PUSH1 0x5 PUSH2 0x2727 DUP5 DUP14 DUP5 KECCAK256 PUSH2 0x3AEA JUMP JUMPDEST POP ADD SSTORE CALLER DUP14 MSTORE DUP7 MSTORE DUP9 DUP13 KECCAK256 PUSH2 0x3AEA JUMP JUMPDEST POP DUP3 TIMESTAMP SWAP2 ADD SSTORE DUP10 SLOAD AND SWAP1 DUP10 DUP8 MLOAD DUP1 SWAP7 DUP2 SWAP6 DUP3 SWAP5 PUSH4 0xA9059CBB PUSH1 0xE0 SHL DUP5 MSTORE CALLER SWAP1 DUP5 ADD PUSH2 0x4A5D JUMP JUMPDEST SUB SWAP3 GAS CALL SWAP1 DUP2 ISZERO PUSH2 0x1E85 JUMPI DUP7 SWAP2 PUSH2 0x27A4 JUMPI JUMPDEST POP ISZERO PUSH2 0x6A2 JUMPI PUSH1 0x0 DUP1 MLOAD PUSH1 0x20 PUSH2 0x52A2 DUP4 CODECOPY DUP2 MLOAD SWAP2 MSTORE SWAP2 PUSH2 0x2790 DUP5 DUP4 SLOAD PUSH2 0x3D3B JUMP JUMPDEST DUP3 SSTORE MLOAD SWAP3 DUP4 MSTORE CALLER SWAP3 LOG3 PUSH1 0x1 JUMPDEST ISZERO PUSH2 0x7E0 JUMPI DUP1 RETURN JUMPDEST PUSH2 0x27BB SWAP2 POP DUP3 RETURNDATASIZE DUP5 GT PUSH2 0x6CD JUMPI PUSH2 0x6BF DUP2 DUP4 PUSH2 0x3BD8 JUMP JUMPDEST CODESIZE PUSH2 0x276F JUMP JUMPDEST POP POP POP POP POP POP POP POP PUSH2 0x279C JUMP JUMPDEST POP POP POP CALLVALUE PUSH2 0x53F JUMPI PUSH1 0x20 CALLDATASIZE PUSH1 0x3 NOT ADD SLT PUSH2 0x53F JUMPI PUSH1 0x20 SWAP2 DUP2 SWAP1 PUSH1 0x1 PUSH1 0x1 PUSH1 0xA0 SHL SUB PUSH2 0x27F7 PUSH2 0x3917 JUMP JUMPDEST AND DUP2 MSTORE PUSH1 0x27 DUP5 MSTORE KECCAK256 SLOAD SWAP1 MLOAD SWAP1 DUP2 MSTORE RETURN JUMPDEST DUP5 DUP4 CALLVALUE PUSH2 0x53F JUMPI PUSH1 0x20 CALLDATASIZE PUSH1 0x3 NOT ADD SLT PUSH2 0x53F JUMPI PUSH32 0x0 PUSH1 0x1 PUSH1 0x1 PUSH1 0xA0 SHL SUB AND CALLER SUB PUSH2 0x53F JUMPI CALLDATALOAD PUSH1 0x14 SSTORE DUP1 RETURN JUMPDEST POP POP POP CALLVALUE PUSH2 0x53F JUMPI DUP2 PUSH1 0x3 NOT CALLDATASIZE ADD SLT PUSH2 0x53F JUMPI PUSH1 0x20 SWAP1 PUSH1 0xF SLOAD SWAP1 MLOAD SWAP1 DUP2 MSTORE RETURN JUMPDEST POP POP POP CALLVALUE PUSH2 0x53F JUMPI PUSH1 0x20 CALLDATASIZE PUSH1 0x3 NOT ADD SLT PUSH2 0x53F JUMPI PUSH1 0x20 SWAP2 PUSH1 0xFF SWAP1 DUP3 SWAP1 PUSH1 0x1 PUSH1 0x1 PUSH1 0xA0 SHL SUB PUSH2 0x289D PUSH2 0x3917 JUMP JUMPDEST AND DUP2 MSTORE PUSH1 0x11 DUP6 MSTORE KECCAK256 SLOAD AND SWAP1 MLOAD SWAP1 ISZERO ISZERO DUP2 MSTORE RETURN JUMPDEST POP POP CALLVALUE PUSH2 0x4F5 JUMPI PUSH1 0x20 CALLDATASIZE PUSH1 0x3 NOT ADD SLT PUSH2 0x4F5 JUMPI CALLDATALOAD SWAP1 PUSH32 0x0 PUSH1 0x1 PUSH1 0x1 PUSH1 0xA0 SHL SUB AND CALLER SUB PUSH2 0x4F5 JUMPI PUSH1 0x14 DUP3 GT PUSH2 0x4F5 JUMPI PUSH32 0xD968A3CC702265C3AB67356DF15CA21D50167B011F198B963E2A868E04E3D5E0 SWAP2 PUSH1 0x24 SLOAD SWAP1 DUP1 PUSH1 0x24 SSTORE DUP3 MLOAD SWAP2 DUP3 MSTORE PUSH1 0x20 DUP3 ADD MSTORE LOG1 DUP1 RETURN JUMPDEST POP POP POP CALLVALUE PUSH2 0x53F JUMPI PUSH1 0x20 CALLDATASIZE PUSH1 0x3 NOT ADD SLT PUSH2 0x53F JUMPI PUSH1 0x20 SWAP2 PUSH1 0x1 PUSH1 0x1 PUSH1 0xA0 SHL SUB SWAP1 DUP3 SWAP1 DUP3 PUSH2 0x2960 PUSH2 0x3917 JUMP JUMPDEST AND DUP2 MSTORE PUSH1 0x25 DUP6 MSTORE KECCAK256 SLOAD AND SWAP1 MLOAD SWAP1 DUP2 MSTORE RETURN JUMPDEST POP POP POP CALLVALUE PUSH2 0x53F JUMPI DUP2 PUSH1 0x3 NOT CALLDATASIZE ADD SLT PUSH2 0x53F JUMPI PUSH1 0x20 SWAP1 PUSH1 0x1A SLOAD SWAP1 MLOAD SWAP1 DUP2 MSTORE RETURN JUMPDEST POP POP POP CALLVALUE PUSH2 0x53F JUMPI PUSH2 0x29A2 CALLDATASIZE PUSH2 0x399C JUMP JUMPDEST PUSH1 0x1 PUSH1 0x1 PUSH1 0xA0 SHL SUB SWAP2 SWAP1 PUSH32 0x0 DUP4 AND CALLER SUB PUSH2 0x6A2 JUMPI PUSH32 0x73843A5065350BF0F7E39089149D74B4EF62CC29B0E3EB1983E9C910C2149AFE SWAP3 PUSH1 0x20 SWAP3 AND SWAP4 DUP5 DUP7 MSTORE PUSH1 0x13 DUP4 MSTORE PUSH2 0x2A0F DUP3 DUP3 DUP9 KECCAK256 PUSH2 0x425D JUMP JUMPDEST MLOAD SWAP1 ISZERO ISZERO DUP2 MSTORE LOG2 DUP1 RETURN JUMPDEST POP POP POP CALLVALUE PUSH2 0x53F JUMPI DUP2 PUSH1 0x3 NOT CALLDATASIZE ADD SLT PUSH2 0x53F JUMPI PUSH1 0x20 SWAP1 PUSH1 0x10 SLOAD SWAP1 MLOAD SWAP1 DUP2 MSTORE RETURN JUMPDEST POP POP POP CALLVALUE PUSH2 0x53F JUMPI PUSH2 0x2A4A CALLDATASIZE PUSH2 0x399C JUMP JUMPDEST SWAP1 SWAP2 PUSH1 0x1 PUSH1 0x1 PUSH1 0xA0 SHL SUB PUSH32 0x0 DUP2 AND CALLER SUB PUSH2 0x6A2 JUMPI PUSH2 0x2A90 SWAP4 AND DUP5 MSTORE PUSH1 0x17 PUSH1 0x20 MSTORE DUP4 KECCAK256 PUSH2 0x425D JUMP JUMPDEST DUP1 RETURN JUMPDEST POP POP POP CALLVALUE PUSH2 0x53F JUMPI DUP2 PUSH1 0x3 NOT CALLDATASIZE ADD SLT PUSH2 0x53F JUMPI PUSH1 0x3 SLOAD SWAP1 MLOAD PUSH1 0x1 PUSH1 0x1 PUSH1 0xA0 SHL SUB SWAP1 SWAP2 AND DUP2 MSTORE PUSH1 0x20 SWAP1 RETURN JUMPDEST POP POP POP CALLVALUE PUSH2 0x53F JUMPI PUSH1 0x20 CALLDATASIZE PUSH1 0x3 NOT ADD SLT PUSH2 0x53F JUMPI PUSH1 0x20 SWAP2 DUP2 SWAP1 PUSH1 0x1 PUSH1 0x1 PUSH1 0xA0 SHL SUB PUSH2 0x2AE6 PUSH2 0x3917 JUMP JUMPDEST AND DUP2 MSTORE PUSH1 0x2A DUP5 MSTORE KECCAK256 SLOAD SWAP1 MLOAD SWAP1 DUP2 MSTORE RETURN JUMPDEST DUP5 DUP4 CALLVALUE PUSH2 0x53F JUMPI PUSH1 0x20 CALLDATASIZE PUSH1 0x3 NOT ADD SLT PUSH2 0x53F JUMPI PUSH2 0x2B11 PUSH2 0x3917 JUMP JUMPDEST PUSH1 0x1 PUSH1 0x1 PUSH1 0xA0 SHL SUB SWAP1 PUSH32 0x0 DUP3 AND CALLER SUB PUSH2 0x6E2 JUMPI AND DUP1 ISZERO PUSH2 0x4F5 JUMPI DUP2 SLOAD PUSH1 0x1 PUSH1 0x1 PUSH1 0xA0 SHL SUB NOT AND OR SWAP1 SSTORE DUP1 RETURN JUMPDEST DUP3 DUP6 DUP6 CALLVALUE PUSH2 0x53F JUMPI PUSH2 0x2B6D CALLDATASIZE PUSH2 0x3ABE JUMP JUMPDEST PUSH2 0x2B79 SWAP3 SWAP2 SWAP3 CALLER PUSH2 0x43AB JUMP JUMPDEST PUSH1 0x1C SLOAD DUP4 LT PUSH2 0x6E2 JUMPI DUP4 SLOAD PUSH1 0x1 PUSH1 0x1 PUSH1 0xA0 SHL SUB AND DUP1 ISZERO PUSH2 0x6A2 JUMPI PUSH1 0x1E DUP3 EQ DUP1 ISZERO PUSH2 0x2D90 JUMPI JUMPDEST DUP1 ISZERO PUSH2 0x2D86 JUMPI JUMPDEST DUP1 ISZERO PUSH2 0x2D7B JUMPI JUMPDEST ISZERO PUSH2 0x6A2 JUMPI SWAP1 DUP3 SWAP2 DUP7 DUP6 SWAP5 MLOAD DUP1 SWAP3 PUSH4 0x23B872DD PUSH1 0xE0 SHL DUP3 MSTORE DUP2 DUP10 DUP2 PUSH2 0x2BDA PUSH1 0x20 SWAP12 DUP13 SWAP8 ADDRESS SWAP1 CALLER SWAP1 DUP6 ADD PUSH2 0x444B JUMP JUMPDEST SUB SWAP3 GAS CALL SWAP1 DUP2 ISZERO PUSH2 0x1E85 JUMPI DUP7 SWAP2 PUSH2 0x2D5E JUMPI JUMPDEST POP ISZERO PUSH2 0x6A2 JUMPI PUSH1 0x22 SLOAD SWAP4 PUSH2 0x2BFF DUP6 PUSH2 0x4852 JUMP JUMPDEST PUSH1 0x22 SSTORE DUP3 MLOAD PUSH2 0x2C0D DUP2 PUSH2 0x3B56 JUMP JUMPDEST DUP6 DUP2 MSTORE DUP2 DUP2 ADD DUP6 DUP2 MSTORE DUP5 DUP3 ADD TIMESTAMP DUP2 MSTORE PUSH1 0x60 DUP4 ADD DUP6 DUP2 MSTORE PUSH1 0x80 DUP5 ADD SWAP1 TIMESTAMP DUP3 MSTORE PUSH1 0xA0 DUP6 ADD SWAP3 DUP12 DUP5 MSTORE PUSH1 0xC0 DUP7 ADD SWAP5 PUSH1 0x1 DUP7 MSTORE CALLER DUP14 MSTORE PUSH1 0x1D DUP9 MSTORE DUP10 DUP14 KECCAK256 DUP1 SLOAD SWAP1 PUSH1 0x1 PUSH1 0x40 SHL DUP3 LT ISZERO PUSH2 0x2D4A JUMPI SWAP1 PUSH2 0x2C65 SWAP2 PUSH1 0x1 DUP3 ADD DUP2 SSTORE PUSH2 0x3AEA JUMP JUMPDEST SWAP8 SWAP1 SWAP8 PUSH2 0x2D38 JUMPI SWAP3 PUSH32 0xB4CAAF29ADDA3EEFEE3AD552A8E85058589BF834C7466CAE4EE58787F70589ED SWAP12 SWAP13 SWAP14 SWAP15 SWAP3 PUSH2 0x2CC8 SWAP9 SWAP8 SWAP6 SWAP3 PUSH1 0x6 SWAP8 SWAP6 MLOAD DUP10 SSTORE MLOAD PUSH1 0x1 DUP10 ADD SSTORE MLOAD PUSH1 0x2 DUP9 ADD SSTORE MLOAD PUSH1 0x3 DUP8 ADD SSTORE MLOAD SWAP1 DUP6 ADD SSTORE MLOAD PUSH1 0x5 DUP5 ADD SSTORE MLOAD ISZERO ISZERO SWAP2 ADD PUSH2 0x425D JUMP JUMPDEST DUP6 DUP8 MSTORE PUSH1 0x1E DUP2 MSTORE DUP3 DUP8 KECCAK256 DUP1 SLOAD PUSH1 0x1 PUSH1 0x1 PUSH1 0xA0 SHL SUB NOT AND CALLER OR SWAP1 SSTORE PUSH1 0x1F SLOAD PUSH2 0x2CF0 SWAP1 DUP7 SWAP1 PUSH2 0x3D3B JUMP JUMPDEST PUSH1 0x1F SSTORE CALLER DUP8 MSTORE PUSH1 0x23 DUP2 MSTORE DUP3 DUP8 KECCAK256 DUP1 SLOAD PUSH1 0xFF DUP2 AND ISZERO PUSH2 0x2D19 JUMPI JUMPDEST POP POP DUP3 MLOAD SWAP5 DUP6 MSTORE DUP5 ADD MSTORE CALLER SWAP3 LOG3 DUP1 RETURN JUMPDEST PUSH1 0xFF NOT AND PUSH1 0x1 OR SWAP1 SSTORE PUSH1 0x21 SLOAD PUSH2 0x2D2E SWAP1 PUSH2 0x4852 JUMP JUMPDEST PUSH1 0x21 SSTORE DUP8 DUP1 PUSH2 0x2D09 JUMP JUMPDEST PUSH4 0x4E487B71 PUSH1 0xE0 SHL DUP15 MSTORE DUP14 DUP16 MSTORE PUSH1 0x24 DUP15 REVERT JUMPDEST DUP16 DUP16 PUSH1 0x41 PUSH1 0x24 SWAP3 PUSH4 0x4E487B71 PUSH1 0xE0 SHL DUP4 MSTORE MSTORE REVERT JUMPDEST PUSH2 0x2D75 SWAP2 POP DUP6 RETURNDATASIZE DUP8 GT PUSH2 0x6CD JUMPI PUSH2 0x6BF DUP2 DUP4 PUSH2 0x3BD8 JUMP JUMPDEST DUP8 PUSH2 0x2BEC JUMP JUMPDEST POP PUSH2 0x16D DUP3 EQ PUSH2 0x2BAC JUMP JUMPDEST POP PUSH1 0xB4 DUP3 EQ PUSH2 0x2BA5 JUMP JUMPDEST POP PUSH1 0x5A DUP3 EQ PUSH2 0x2B9E JUMP JUMPDEST POP POP CALLVALUE PUSH2 0x4F5 JUMPI PUSH2 0x2DAD PUSH2 0xF8F CALLDATASIZE PUSH2 0x395F JUMP JUMPDEST DUP1 ISZERO PUSH2 0x6E2 JUMPI DUP4 SLOAD PUSH1 0x1 PUSH1 0x1 PUSH1 0xA0 SHL SUB SWAP3 SWAP1 DUP4 AND ISZERO PUSH2 0x6A2 JUMPI DUP3 PUSH1 0x3 SLOAD AND DUP1 ISZERO PUSH2 0x6DE JUMPI PUSH1 0x20 DUP4 PUSH2 0x14B4 SWAP3 PUSH2 0x5EF DUP8 PUSH1 0x7 SLOAD AND CALLER SWAP1 DUP5 PUSH2 0x413A JUMP JUMPDEST POP POP POP CALLVALUE PUSH2 0x53F JUMPI DUP2 PUSH1 0x3 NOT CALLDATASIZE ADD SLT PUSH2 0x53F JUMPI PUSH1 0x20 SWAP1 PUSH1 0x29 SLOAD SWAP1 MLOAD SWAP1 DUP2 MSTORE RETURN JUMPDEST POP POP SWAP2 CALLVALUE PUSH2 0x7E0 JUMPI PUSH1 0x20 SWAP3 DUP4 PUSH1 0x3 NOT CALLDATASIZE ADD SLT PUSH2 0x53F JUMPI DUP1 CALLDATALOAD PUSH2 0x2E29 CALLER PUSH2 0x43AB JUMP JUMPDEST DUP1 DUP4 MSTORE PUSH1 0x1E DUP6 MSTORE DUP4 DUP4 KECCAK256 SLOAD PUSH1 0x1 PUSH1 0x1 PUSH1 0xA0 SHL SUB SWAP6 SWAP1 CALLER SWAP1 DUP8 AND SUB PUSH2 0x6E2 JUMPI DUP4 SWAP5 DUP5 JUMPDEST CALLER DUP7 MSTORE PUSH1 0x1D DUP1 DUP5 MSTORE DUP3 DUP8 KECCAK256 DUP1 SLOAD DUP4 LT ISZERO PUSH2 0x30D6 JUMPI PUSH2 0x2E6A DUP4 DUP8 SWAP3 PUSH2 0x3AEA JUMP JUMPDEST POP SLOAD EQ PUSH2 0x2E80 JUMPI POP PUSH2 0x2E7B SWAP1 PUSH2 0x4852 JUMP JUMPDEST PUSH2 0x2E4B JUMP JUMPDEST SWAP2 SWAP3 SWAP4 SWAP5 SWAP6 SWAP7 POP CALLER DUP8 MSTORE DUP2 DUP5 MSTORE PUSH2 0x2E99 DUP2 DUP5 DUP10 KECCAK256 PUSH2 0x3AEA JUMP JUMPDEST POP PUSH1 0xFF PUSH1 0x6 DUP1 SWAP3 ADD SLOAD AND ISZERO PUSH2 0x24FC JUMPI CALLER DUP9 MSTORE DUP3 DUP6 MSTORE PUSH1 0x2 PUSH2 0x2EBC DUP4 DUP7 DUP12 KECCAK256 PUSH2 0x3AEA JUMP JUMPDEST POP ADD SLOAD CALLER DUP10 MSTORE DUP4 DUP7 MSTORE PUSH1 0x3 PUSH2 0x2ED3 DUP5 DUP8 DUP13 KECCAK256 PUSH2 0x3AEA JUMP JUMPDEST POP ADD SLOAD SWAP1 PUSH3 0x15180 SWAP2 DUP3 DUP2 MUL SWAP3 DUP2 DUP5 DIV EQ SWAP1 ISZERO OR ISZERO PUSH2 0x30C3 JUMPI SWAP10 PUSH2 0x2EFD DUP8 SWAP3 DUP12 SWAP13 SWAP12 SWAP10 SWAP11 SWAP12 PUSH2 0x3D3B JUMP JUMPDEST SWAP4 PUSH2 0x2F07 DUP11 PUSH2 0x4861 JUMP JUMPDEST SWAP4 CALLER DUP11 MSTORE DUP7 DUP5 MSTORE PUSH2 0x2F1A DUP3 DUP10 DUP13 KECCAK256 PUSH2 0x3AEA JUMP JUMPDEST POP SWAP2 DUP9 PUSH1 0x1 DUP1 SWAP5 ADD SLOAD SWAP12 DUP1 SWAP9 TIMESTAMP LT PUSH2 0x3067 JUMPI JUMPDEST SWAP1 PUSH2 0x2F44 SWAP3 SWAP2 PUSH2 0x2F92 SWAP9 SWAP10 SWAP11 CALLER DUP3 MSTORE DUP9 MSTORE KECCAK256 PUSH2 0x3AEA JUMP JUMPDEST POP ADD PUSH1 0xFF NOT DUP2 SLOAD AND SWAP1 SSTORE PUSH1 0x1F PUSH2 0x2F5B DUP11 DUP3 SLOAD PUSH2 0x3D48 JUMP JUMPDEST SWAP1 SSTORE SWAP10 PUSH2 0x2F71 DUP6 PUSH2 0x2F6C DUP9 DUP13 PUSH2 0x3D48 JUMP JUMPDEST PUSH2 0x3D3B JUMP JUMPDEST SWAP2 DUP13 SLOAD AND SWAP1 DUP13 DUP9 MLOAD DUP1 SWAP7 DUP2 SWAP6 DUP3 SWAP5 PUSH4 0xA9059CBB PUSH1 0xE0 SHL DUP5 MSTORE CALLER SWAP1 DUP5 ADD PUSH2 0x4A5D JUMP JUMPDEST SUB SWAP3 GAS CALL SWAP1 DUP2 ISZERO PUSH2 0x305D JUMPI DUP10 SWAP2 PUSH2 0x3040 JUMPI JUMPDEST POP ISZERO PUSH2 0x24FC JUMPI DUP1 DUP7 SWAP2 PUSH2 0x3014 JUMPI JUMPDEST POP POP DUP1 ISZERO PUSH2 0x2FF6 JUMPI PUSH32 0x9C9EC3CFA814B0112B71C20D0B0AB54DEAD00A99FD389C174DF717D2F1D36403 SWAP3 DUP3 MLOAD SWAP5 DUP6 MSTORE DUP5 ADD MSTORE CALLER SWAP3 LOG3 JUMPDEST ISZERO PUSH2 0x7E0 JUMPI PUSH2 0x2A90 CALLER PUSH2 0x4B9B JUMP JUMPDEST POP SWAP1 PUSH1 0x0 DUP1 MLOAD PUSH1 0x20 PUSH2 0x5302 DUP4 CODECOPY DUP2 MLOAD SWAP2 MSTORE SWAP2 MLOAD SWAP3 DUP4 MSTORE CALLER SWAP3 LOG3 PUSH2 0x2FE8 JUMP JUMPDEST PUSH2 0x301F DUP2 DUP7 SLOAD PUSH2 0x3D3B JUMP JUMPDEST DUP6 SSTORE DUP4 MLOAD SWAP1 DUP2 MSTORE PUSH1 0x0 DUP1 MLOAD PUSH1 0x20 PUSH2 0x52A2 DUP4 CODECOPY DUP2 MLOAD SWAP2 MSTORE DUP6 CALLER SWAP3 LOG3 DUP5 CODESIZE PUSH2 0x2FB2 JUMP JUMPDEST PUSH2 0x3057 SWAP2 POP DUP6 RETURNDATASIZE DUP8 GT PUSH2 0x6CD JUMPI PUSH2 0x6BF DUP2 DUP4 PUSH2 0x3BD8 JUMP JUMPDEST CODESIZE PUSH2 0x2FA4 JUMP JUMPDEST DUP5 MLOAD RETURNDATASIZE DUP12 DUP3 RETURNDATACOPY RETURNDATASIZE SWAP1 REVERT JUMPDEST POP POP SWAP2 SWAP4 POP SWAP2 SWAP4 SWAP5 POP PUSH1 0x5 DUP1 DUP11 MUL SWAP1 DUP11 DUP3 DIV EQ DUP11 ISZERO OR ISZERO PUSH2 0x30B0 JUMPI SWAP2 PUSH2 0x2F44 DUP10 SWAP5 SWAP3 DUP10 DUP16 PUSH1 0x64 PUSH2 0x2F92 SWAP10 SWAP8 DIV SWAP11 PUSH1 0x1A PUSH2 0x30A1 DUP14 DUP3 SLOAD PUSH2 0x3D3B JUMP JUMPDEST SWAP1 SSTORE SWAP11 SWAP10 SWAP9 POP SWAP1 SWAP2 SWAP3 POP PUSH2 0x2F2D JUMP JUMPDEST PUSH4 0x4E487B71 PUSH1 0xE0 SHL DUP14 MSTORE PUSH1 0x11 DUP13 MSTORE PUSH1 0x24 DUP14 REVERT JUMPDEST PUSH4 0x4E487B71 PUSH1 0xE0 SHL DUP11 MSTORE PUSH1 0x11 DUP10 MSTORE PUSH1 0x24 DUP11 REVERT JUMPDEST POP POP POP POP POP POP POP SWAP2 POP PUSH2 0x2FE8 JUMP JUMPDEST POP POP CALLVALUE PUSH2 0x4F5 JUMPI PUSH2 0x30F7 PUSH2 0xF8F CALLDATASIZE PUSH2 0x395F JUMP JUMPDEST DUP1 ISZERO PUSH2 0x6E2 JUMPI DUP4 SLOAD PUSH1 0x1 PUSH1 0x1 PUSH1 0xA0 SHL SUB SWAP3 SWAP1 DUP4 AND ISZERO PUSH2 0x6A2 JUMPI DUP3 PUSH1 0x1 SLOAD AND SWAP2 DUP3 ISZERO PUSH2 0x6DE JUMPI PUSH2 0xEC2 SWAP1 PUSH2 0xD12 PUSH1 0xB SLOAD PUSH2 0x3D55 JUMP JUMPDEST POP POP DUP3 CALLVALUE PUSH2 0x7E0 JUMPI DUP1 PUSH1 0x3 NOT CALLDATASIZE ADD SLT PUSH2 0x7E0 JUMPI SWAP1 PUSH1 0x19 SLOAD SWAP1 PUSH2 0x314C DUP3 PUSH2 0x51DD JUMP JUMPDEST SWAP3 PUSH2 0x3159 DUP6 MLOAD SWAP5 DUP6 PUSH2 0x3BD8 JUMP JUMPDEST DUP3 DUP5 MSTORE PUSH1 0x19 DUP2 MSTORE SWAP1 PUSH1 0x20 SWAP1 PUSH32 0x944998273E477B495144FB8794C914197F3CCB46BE2900F4698FD0EF743C9695 SWAP1 DUP3 DUP7 ADD JUMPDEST DUP6 DUP6 LT PUSH2 0x319E JUMPI DUP8 MLOAD DUP1 PUSH2 0x774 DUP10 DUP3 PUSH2 0x3A0B JUMP JUMPDEST PUSH1 0x7 DUP5 PUSH1 0x1 SWAP3 DUP11 MLOAD PUSH2 0x31AF DUP2 PUSH2 0x3B56 JUMP JUMPDEST DUP7 SLOAD DUP2 MSTORE DUP5 DUP1 PUSH1 0xA0 SHL SUB DUP1 DUP7 DUP10 ADD SLOAD AND DUP5 DUP4 ADD MSTORE DUP1 PUSH1 0x2 DUP10 ADD SLOAD AND DUP14 DUP4 ADD MSTORE PUSH1 0x3 DUP9 ADD SLOAD AND PUSH1 0x60 DUP3 ADD MSTORE DUP6 DUP8 ADD SLOAD PUSH1 0x80 DUP3 ADD MSTORE PUSH1 0x5 DUP8 ADD SLOAD PUSH1 0xA0 DUP3 ADD MSTORE PUSH2 0x31F8 PUSH1 0x6 DUP9 ADD PUSH2 0x3BFB JUMP JUMPDEST PUSH1 0xC0 DUP3 ADD MSTORE DUP2 MSTORE ADD SWAP4 ADD SWAP5 ADD SWAP4 SWAP2 PUSH2 0x318A JUMP JUMPDEST POP POP POP CALLVALUE PUSH2 0x53F JUMPI DUP2 PUSH1 0x3 NOT CALLDATASIZE ADD SLT PUSH2 0x53F JUMPI PUSH1 0x28 SLOAD SWAP1 MLOAD PUSH1 0x1 PUSH1 0x1 PUSH1 0xA0 SHL SUB SWAP1 SWAP2 AND DUP2 MSTORE PUSH1 0x20 SWAP1 RETURN JUMPDEST DUP5 CALLVALUE PUSH2 0x7E0 JUMPI PUSH1 0x20 CALLDATASIZE PUSH1 0x3 NOT ADD SLT PUSH2 0x7E0 JUMPI PUSH2 0x324F PUSH2 0x3917 JUMP JUMPDEST PUSH1 0x1 PUSH1 0x1 PUSH1 0xA0 SHL SUB SWAP1 PUSH32 0x0 DUP3 AND CALLER SUB PUSH2 0x4F5 JUMPI AND DUP1 ISZERO PUSH2 0x53F JUMPI PUSH1 0x9 DUP1 SLOAD PUSH1 0x1 PUSH1 0x1 PUSH1 0xA0 SHL SUB NOT AND SWAP2 SWAP1 SWAP2 OR SWAP1 SSTORE DUP1 RETURN JUMPDEST POP POP POP CALLVALUE PUSH2 0x53F JUMPI DUP2 PUSH1 0x3 NOT CALLDATASIZE ADD SLT PUSH2 0x53F JUMPI PUSH1 0x8 SLOAD SWAP1 MLOAD PUSH1 0x1 PUSH1 0x1 PUSH1 0xA0 SHL SUB SWAP1 SWAP2 AND DUP2 MSTORE PUSH1 0x20 SWAP1 RETURN JUMPDEST POP POP POP CALLVALUE PUSH2 0x53F JUMPI PUSH1 0x20 CALLDATASIZE PUSH1 0x3 NOT ADD SLT PUSH2 0x53F JUMPI PUSH1 0x80 SWAP2 PUSH1 0x1 PUSH1 0x1 PUSH1 0xA0 SHL SUB DUP1 PUSH2 0x32F1 PUSH2 0x3917 JUMP JUMPDEST AND DUP3 MSTORE PUSH1 0x25 PUSH1 0x20 MSTORE DUP3 DUP3 KECCAK256 SLOAD AND SWAP2 PUSH1 0x26 PUSH1 0x20 MSTORE DUP1 DUP1 DUP4 KECCAK256 SLOAD SWAP3 PUSH1 0x27 PUSH1 0x20 MSTORE KECCAK256 SLOAD SWAP1 PUSH1 0x24 SLOAD SWAP3 DUP2 MLOAD SWAP5 DUP6 MSTORE PUSH1 0x20 DUP6 ADD MSTORE DUP4 ADD MSTORE PUSH1 0x60 DUP3 ADD MSTORE RETURN JUMPDEST POP POP POP CALLVALUE PUSH2 0x53F JUMPI DUP2 PUSH1 0x3 NOT CALLDATASIZE ADD SLT PUSH2 0x53F JUMPI PUSH1 0x20 SWAP1 PUSH1 0x1B SLOAD SWAP1 MLOAD SWAP1 DUP2 MSTORE RETURN JUMPDEST DUP1 DUP6 DUP2 PUSH1 0x3 NOT CALLDATASIZE ADD SLT PUSH2 0x3382 JUMPI CALLVALUE ISZERO PUSH2 0x3382 JUMPI DUP2 SLOAD PUSH1 0x1 PUSH1 0x1 PUSH1 0xA0 SHL SUB SWAP1 DUP2 AND ISZERO PUSH2 0x1CF2 JUMPI PUSH2 0x1C73 PUSH2 0x1C6E DUP3 PUSH1 0x6 SLOAD AND CALLER SWAP1 CALLVALUE PUSH2 0x413A JUMP JUMPDEST POP REVERT JUMPDEST POP POP POP CALLVALUE PUSH2 0x53F JUMPI DUP2 PUSH1 0x3 NOT CALLDATASIZE ADD SLT PUSH2 0x53F JUMPI PUSH1 0x5 SLOAD SWAP1 MLOAD PUSH1 0x1 PUSH1 0x1 PUSH1 0xA0 SHL SUB SWAP1 SWAP2 AND DUP2 MSTORE PUSH1 0x20 SWAP1 RETURN JUMPDEST POP POP POP CALLVALUE PUSH2 0x53F JUMPI DUP2 PUSH1 0x3 NOT CALLDATASIZE ADD SLT PUSH2 0x53F JUMPI PUSH1 0x20 SWAP1 PUSH1 0x14 SLOAD SWAP1 MLOAD SWAP1 DUP2 MSTORE RETURN JUMPDEST POP POP SWAP2 CALLVALUE PUSH2 0x7E0 JUMPI DUP1 PUSH1 0x3 NOT CALLDATASIZE ADD SLT PUSH2 0x7E0 JUMPI PUSH1 0x8 SLOAD PUSH1 0x1 PUSH1 0x1 PUSH1 0xA0 SHL SUB AND SWAP1 DUP2 ISZERO PUSH2 0x7E0 JUMPI DUP3 MLOAD PUSH4 0x3FABE5A3 PUSH1 0xE2 SHL DUP2 MSTORE SWAP2 PUSH1 0xA0 DUP4 DUP7 DUP2 DUP5 GAS STATICCALL SWAP3 DUP4 ISZERO PUSH2 0x20B2 JUMPI DUP3 SWAP4 PUSH2 0x34C8 JUMPI JUMPDEST POP DUP2 DUP4 SGT ISZERO PUSH2 0x53F JUMPI SWAP1 PUSH1 0x20 DUP6 SWAP4 SWAP3 DUP6 MLOAD SWAP5 DUP6 DUP1 SWAP3 PUSH4 0x313CE567 PUSH1 0xE0 SHL DUP3 MSTORE GAS STATICCALL SWAP3 DUP4 ISZERO PUSH2 0x1181 JUMPI DUP2 SWAP4 PUSH2 0x348B JUMPI JUMPDEST POP PUSH2 0x3450 PUSH2 0x426E JUMP JUMPDEST POP SWAP2 PUSH4 0x5F5E100 SWAP1 DUP1 DUP3 MUL SWAP2 DUP3 DIV SUB PUSH2 0x2014 JUMPI PUSH1 0xB SLOAD PUSH1 0x12 DUP2 ADD SWAP1 DUP2 DUP2 GT PUSH2 0x2001 JUMPI PUSH1 0xA ADD SWAP1 DUP2 GT PUSH2 0x1FEE JUMPI PUSH1 0xFF SWAP2 PUSH2 0xD12 PUSH2 0x1FB5 SWAP3 PUSH2 0x3D55 JUMP JUMPDEST SWAP1 SWAP3 POP PUSH1 0x20 DUP2 RETURNDATASIZE DUP3 GT PUSH2 0x34C0 JUMPI JUMPDEST DUP2 PUSH2 0x34A6 PUSH1 0x20 SWAP4 DUP4 PUSH2 0x3BD8 JUMP JUMPDEST DUP2 ADD SUB SLT PUSH2 0x4F5 JUMPI MLOAD PUSH1 0xFF DUP2 AND DUP2 SUB PUSH2 0x4F5 JUMPI SWAP2 CODESIZE PUSH2 0x3447 JUMP JUMPDEST RETURNDATASIZE SWAP2 POP PUSH2 0x3499 JUMP JUMPDEST SWAP1 SWAP3 POP PUSH1 0xA0 DUP2 RETURNDATASIZE DUP3 GT PUSH2 0x350E JUMPI JUMPDEST DUP2 PUSH2 0x34E3 PUSH1 0xA0 SWAP4 DUP4 PUSH2 0x3BD8 JUMP JUMPDEST DUP2 ADD SUB SLT PUSH2 0x53F JUMPI PUSH2 0x34F4 DUP2 PUSH2 0x3CFE JUMP JUMPDEST POP PUSH2 0x3506 PUSH1 0x80 PUSH1 0x20 DUP4 ADD MLOAD SWAP3 ADD PUSH2 0x3CFE JUMP JUMPDEST POP SWAP2 CODESIZE PUSH2 0x3418 JUMP JUMPDEST RETURNDATASIZE SWAP2 POP PUSH2 0x34D6 JUMP JUMPDEST POP POP POP CALLVALUE PUSH2 0x53F JUMPI PUSH2 0x3527 CALLDATASIZE PUSH2 0x399C JUMP JUMPDEST PUSH1 0x1 PUSH1 0x1 PUSH1 0xA0 SHL SUB SWAP2 SWAP1 PUSH32 0x0 DUP4 AND CALLER SUB PUSH2 0x6A2 JUMPI PUSH32 0xDDA6207409A585801122FB885DCAA8074F9A21F25FF2DEF680C67F01A86C2C9B SWAP3 PUSH1 0x20 SWAP3 AND SWAP4 DUP5 DUP7 MSTORE PUSH1 0x11 DUP4 MSTORE PUSH2 0x2A0F DUP3 DUP3 DUP9 KECCAK256 PUSH2 0x425D JUMP JUMPDEST POP POP CALLVALUE PUSH2 0x4F5 JUMPI PUSH2 0x35A7 PUSH2 0xF8F CALLDATASIZE PUSH2 0x395F JUMP JUMPDEST DUP1 ISZERO PUSH2 0x6E2 JUMPI DUP4 SLOAD PUSH1 0x1 PUSH1 0x1 PUSH1 0xA0 SHL SUB SWAP3 SWAP1 DUP4 AND ISZERO PUSH2 0x6A2 JUMPI DUP3 PUSH1 0x5 SLOAD AND DUP1 ISZERO PUSH2 0x6DE JUMPI PUSH1 0x20 DUP4 PUSH2 0x62E SWAP3 PUSH2 0x5EF DUP8 PUSH1 0x9 SLOAD AND CALLER SWAP1 DUP5 PUSH2 0x400B JUMP JUMPDEST POP POP POP CALLVALUE PUSH2 0x53F JUMPI DUP2 PUSH1 0x3 NOT CALLDATASIZE ADD SLT PUSH2 0x53F JUMPI PUSH1 0x20 SWAP1 PUSH1 0xA SLOAD SWAP1 MLOAD SWAP1 DUP2 MSTORE RETURN JUMPDEST DUP5 CALLVALUE PUSH2 0x7E0 JUMPI PUSH1 0x20 CALLDATASIZE PUSH1 0x3 NOT ADD SLT PUSH2 0x7E0 JUMPI PUSH2 0x361C PUSH2 0x3917 JUMP JUMPDEST PUSH1 0x1 PUSH1 0x1 PUSH1 0xA0 SHL SUB SWAP1 PUSH32 0x0 DUP3 AND CALLER SUB PUSH2 0x4F5 JUMPI AND DUP1 ISZERO PUSH2 0x53F JUMPI PUSH1 0x6 DUP1 SLOAD PUSH1 0x1 PUSH1 0x1 PUSH1 0xA0 SHL SUB NOT AND SWAP2 SWAP1 SWAP2 OR SWAP1 SSTORE DUP1 RETURN JUMPDEST POP POP SWAP1 CALLVALUE PUSH2 0x4F5 JUMPI PUSH1 0x20 SWAP2 DUP3 PUSH1 0x3 NOT CALLDATASIZE ADD SLT PUSH2 0x6E2 JUMPI CALLDATALOAD SWAP2 DUP3 DUP5 MSTORE PUSH1 0x1E DUP2 MSTORE PUSH1 0x1 DUP1 PUSH1 0xA0 SHL SUB DUP3 DUP6 KECCAK256 SLOAD AND SWAP2 DUP3 ISZERO PUSH2 0x6A2 JUMPI PUSH2 0x36A6 PUSH2 0x5249 JUMP JUMPDEST DUP6 SWAP5 DUP7 JUMPDEST DUP6 DUP9 MSTORE PUSH1 0x1D DUP1 DUP7 MSTORE DUP5 DUP10 KECCAK256 DUP1 SLOAD DUP4 LT ISZERO PUSH2 0x3727 JUMPI PUSH2 0x36C9 DUP4 DUP6 SWAP3 PUSH2 0x3AEA JUMP JUMPDEST POP SLOAD EQ PUSH2 0x36DF JUMPI POP PUSH2 0x36DA SWAP1 PUSH2 0x4852 JUMP JUMPDEST PUSH2 0x36AA JUMP JUMPDEST SWAP1 SWAP2 POP DUP6 PUSH2 0x36FC SWAP5 SWAP6 SWAP7 SWAP8 POP PUSH2 0x1421 SWAP4 POP DUP9 MSTORE DUP6 MSTORE DUP4 DUP8 KECCAK256 PUSH2 0x3AEA JUMP JUMPDEST SWAP1 PUSH1 0x1 JUMPDEST ISZERO PUSH2 0x6A2 JUMPI PUSH1 0x80 SWAP5 POP DUP2 MLOAD SWAP4 DUP2 DUP5 DUP5 ADD MLOAD SWAP4 ADD MLOAD SWAP4 DUP3 MLOAD SWAP6 DUP7 MSTORE DUP6 ADD MSTORE DUP4 ADD MSTORE PUSH1 0x60 DUP3 ADD MSTORE RETURN JUMPDEST POP POP POP POP SWAP2 SWAP3 SWAP4 PUSH2 0x3700 JUMP JUMPDEST DUP5 DUP2 DUP6 CALLVALUE PUSH2 0x53F JUMPI DUP3 PUSH1 0x3 NOT CALLDATASIZE ADD SLT PUSH2 0x53F JUMPI PUSH2 0x374E PUSH2 0x3917 JUMP JUMPDEST PUSH1 0x24 CALLDATALOAD SWAP2 PUSH32 0x0 SWAP1 PUSH1 0x1 PUSH1 0x1 PUSH1 0xA0 SHL SUB DUP1 DUP4 AND CALLER SUB PUSH2 0x6DE JUMPI DUP1 DUP7 SLOAD AND SWAP4 AND SWAP3 DUP4 EQ PUSH2 0x37FA JUMPI JUMPDEST DUP6 MLOAD PUSH4 0xA9059CBB PUSH1 0xE0 SHL DUP2 MSTORE SWAP5 PUSH1 0x20 SWAP5 DUP7 SWAP5 SWAP4 DUP6 SWAP4 DUP5 SWAP3 PUSH2 0x37B7 SWAP3 SWAP1 SWAP2 DUP5 ADD PUSH2 0x4A5D JUMP JUMPDEST SUB SWAP3 GAS CALL SWAP2 DUP3 ISZERO PUSH2 0x37F1 JUMPI POP DUP3 SWAP2 PUSH2 0x37D3 JUMPI JUMPDEST POP ISZERO PUSH2 0x7E0 JUMPI DUP1 RETURN JUMPDEST PUSH2 0x37EB SWAP2 POP PUSH1 0x20 RETURNDATASIZE DUP2 GT PUSH2 0x6CD JUMPI PUSH2 0x6BF DUP2 DUP4 PUSH2 0x3BD8 JUMP JUMPDEST DUP3 PUSH2 0x37CA JUMP JUMPDEST MLOAD RETURNDATASIZE DUP5 DUP3 RETURNDATACOPY RETURNDATASIZE SWAP1 REVERT JUMPDEST SWAP3 SWAP2 SWAP1 DUP6 MLOAD PUSH4 0x70A08231 PUSH1 0xE0 SHL DUP2 MSTORE ADDRESS DUP6 DUP3 ADD MSTORE PUSH1 0x20 DUP2 PUSH1 0x24 DUP2 DUP7 GAS STATICCALL DUP1 ISZERO PUSH2 0x3873 JUMPI DUP7 SWAP1 PUSH2 0x3840 JUMPI JUMPDEST PUSH2 0x3832 SWAP2 POP PUSH1 0x1F SLOAD SWAP1 PUSH2 0x3D48 JUMP JUMPDEST DUP4 GT PUSH2 0x6A2 JUMPI SWAP1 SWAP2 SWAP3 PUSH2 0x3793 JUMP JUMPDEST POP PUSH1 0x20 DUP2 RETURNDATASIZE DUP3 GT PUSH2 0x386B JUMPI JUMPDEST DUP2 PUSH2 0x3859 PUSH1 0x20 SWAP4 DUP4 PUSH2 0x3BD8 JUMP JUMPDEST DUP2 ADD SUB SLT PUSH2 0x6DE JUMPI PUSH2 0x3832 SWAP1 MLOAD PUSH2 0x3824 JUMP JUMPDEST RETURNDATASIZE SWAP2 POP PUSH2 0x384C JUMP JUMPDEST DUP8 MLOAD RETURNDATASIZE DUP9 DUP3 RETURNDATACOPY RETURNDATASIZE SWAP1 REVERT JUMPDEST POP POP CALLVALUE PUSH2 0x4F5 JUMPI PUSH1 0x20 CALLDATASIZE PUSH1 0x3 NOT ADD SLT PUSH2 0x4F5 JUMPI DUP1 CALLDATALOAD DUP1 ISZERO PUSH2 0x6E2 JUMPI DUP4 SLOAD PUSH1 0x1 PUSH1 0x1 PUSH1 0xA0 SHL SUB SWAP2 SWAP1 DUP3 AND ISZERO PUSH2 0x6A2 JUMPI DUP2 DUP4 SLOAD AND SWAP1 DUP2 ISZERO PUSH2 0x6DE JUMPI PUSH2 0x19D6 DUP4 PUSH1 0x8 SLOAD AND CALLER SWAP1 DUP4 PUSH2 0x3ED5 JUMP JUMPDEST POP POP POP CALLVALUE PUSH2 0x53F JUMPI DUP2 PUSH1 0x3 NOT CALLDATASIZE ADD SLT PUSH2 0x53F JUMPI PUSH1 0x6 SLOAD PUSH1 0x20 SWAP2 SWAP1 PUSH2 0xA0E SWAP1 PUSH1 0x1 PUSH1 0x1 PUSH1 0xA0 SHL SUB AND PUSH2 0x3D83 JUMP JUMPDEST DUP6 SWAP1 CALLVALUE PUSH2 0x53F JUMPI DUP2 PUSH1 0x3 NOT CALLDATASIZE ADD SLT PUSH2 0x53F JUMPI PUSH1 0x2 SLOAD PUSH1 0x1 PUSH1 0x1 PUSH1 0xA0 SHL SUB AND DUP2 MSTORE PUSH1 0x20 SWAP1 RETURN JUMPDEST PUSH1 0x4 CALLDATALOAD SWAP1 PUSH1 0x1 PUSH1 0x1 PUSH1 0xA0 SHL SUB DUP3 AND DUP3 SUB PUSH2 0x392D JUMPI JUMP JUMPDEST PUSH1 0x0 DUP1 REVERT JUMPDEST SWAP2 DUP2 PUSH1 0x1F DUP5 ADD SLT ISZERO PUSH2 0x392D JUMPI DUP3 CALLDATALOAD SWAP2 PUSH1 0x1 PUSH1 0x1 PUSH1 0x40 SHL SUB DUP4 GT PUSH2 0x392D JUMPI PUSH1 0x20 DUP4 DUP2 DUP7 ADD SWAP6 ADD ADD GT PUSH2 0x392D JUMPI JUMP JUMPDEST SWAP1 PUSH1 0x3 NOT DUP3 ADD PUSH1 0xC0 DUP2 SLT PUSH2 0x392D JUMPI PUSH1 0x80 SGT PUSH2 0x392D JUMPI PUSH1 0x4 SWAP2 PUSH1 0x84 CALLDATALOAD SWAP1 PUSH1 0x1 PUSH1 0x1 PUSH1 0x40 SHL SUB DUP3 GT PUSH2 0x392D JUMPI PUSH2 0x3994 SWAP2 DUP5 ADD PUSH2 0x3932 JUMP JUMPDEST SWAP1 SWAP2 PUSH1 0xA4 CALLDATALOAD SWAP1 JUMP JUMPDEST PUSH1 0x40 SWAP1 PUSH1 0x3 NOT ADD SLT PUSH2 0x392D JUMPI PUSH1 0x4 CALLDATALOAD PUSH1 0x1 PUSH1 0x1 PUSH1 0xA0 SHL SUB DUP2 AND DUP2 SUB PUSH2 0x392D JUMPI SWAP1 PUSH1 0x24 CALLDATALOAD DUP1 ISZERO ISZERO DUP2 SUB PUSH2 0x392D JUMPI SWAP1 JUMP JUMPDEST SWAP2 SWAP1 DUP3 MLOAD SWAP3 DUP4 DUP3 MSTORE PUSH1 0x0 JUMPDEST DUP5 DUP2 LT PUSH2 0x39F7 JUMPI POP POP DUP3 PUSH1 0x0 PUSH1 0x20 DUP1 SWAP5 SWAP6 DUP5 ADD ADD MSTORE PUSH1 0x1F DUP1 NOT SWAP2 ADD AND ADD ADD SWAP1 JUMP JUMPDEST PUSH1 0x20 DUP2 DUP4 ADD DUP2 ADD MLOAD DUP5 DUP4 ADD DUP3 ADD MSTORE ADD PUSH2 0x39D6 JUMP JUMPDEST PUSH1 0x20 DUP1 DUP3 ADD SWAP1 DUP1 DUP4 MSTORE DUP4 MLOAD DUP1 SWAP3 MSTORE PUSH1 0x40 SWAP3 DUP4 DUP2 ADD DUP3 DUP6 DUP6 PUSH1 0x5 SHL DUP5 ADD ADD SWAP7 ADD SWAP5 PUSH1 0x0 SWAP3 JUMPDEST DUP6 DUP5 LT PUSH2 0x3A40 JUMPI POP POP POP POP POP POP POP SWAP1 JUMP JUMPDEST SWAP1 SWAP2 SWAP3 SWAP4 SWAP5 SWAP6 SWAP7 DUP6 DUP1 PUSH2 0x3AAD PUSH1 0x1 SWAP4 PUSH1 0x3F NOT DUP7 DUP3 SUB ADD DUP9 MSTORE DUP12 MLOAD DUP1 MLOAD DUP3 MSTORE DUP6 DUP1 PUSH1 0xA0 SHL SUB DUP1 DUP6 DUP4 ADD MLOAD AND DUP6 DUP5 ADD MSTORE DUP1 DUP10 DUP4 ADD MLOAD AND DUP10 DUP5 ADD MSTORE PUSH1 0x60 SWAP1 DUP2 DUP4 ADD MLOAD AND SWAP1 DUP4 ADD MSTORE PUSH1 0x80 DUP1 DUP3 ADD MLOAD SWAP1 DUP4 ADD MSTORE PUSH1 0xA0 DUP1 DUP3 ADD MLOAD SWAP1 DUP4 ADD MSTORE PUSH1 0xC0 DUP1 SWAP2 ADD MLOAD SWAP2 PUSH1 0xE0 DUP1 SWAP3 DUP3 ADD MSTORE ADD SWAP1 PUSH2 0x39CB JUMP JUMPDEST SWAP10 ADD SWAP5 ADD SWAP5 ADD SWAP3 SWAP6 SWAP5 SWAP4 SWAP2 SWAP1 PUSH2 0x3A2F JUMP JUMPDEST PUSH1 0x40 SWAP1 PUSH1 0x3 NOT ADD SLT PUSH2 0x392D JUMPI PUSH1 0x4 CALLDATALOAD SWAP1 PUSH1 0x24 CALLDATALOAD SWAP1 JUMP JUMPDEST PUSH1 0x40 SWAP2 SWAP5 SWAP4 SWAP3 PUSH1 0x60 DUP3 ADD SWAP6 DUP3 MSTORE PUSH1 0x20 DUP3 ADD MSTORE ADD MSTORE JUMP JUMPDEST DUP1 SLOAD DUP3 LT ISZERO PUSH2 0x3B06 JUMPI PUSH1 0x0 MSTORE PUSH1 0x7 PUSH1 0x20 PUSH1 0x0 KECCAK256 SWAP2 MUL ADD SWAP1 PUSH1 0x0 SWAP1 JUMP JUMPDEST PUSH4 0x4E487B71 PUSH1 0xE0 SHL PUSH1 0x0 MSTORE PUSH1 0x32 PUSH1 0x4 MSTORE PUSH1 0x24 PUSH1 0x0 REVERT JUMPDEST SWAP1 PUSH1 0x1 DUP3 DUP2 SHR SWAP3 AND DUP1 ISZERO PUSH2 0x3B4C JUMPI JUMPDEST PUSH1 0x20 DUP4 LT EQ PUSH2 0x3B36 JUMPI JUMP JUMPDEST PUSH4 0x4E487B71 PUSH1 0xE0 SHL PUSH1 0x0 MSTORE PUSH1 0x22 PUSH1 0x4 MSTORE PUSH1 0x24 PUSH1 0x0 REVERT JUMPDEST SWAP2 PUSH1 0x7F AND SWAP2 PUSH2 0x3B2B JUMP JUMPDEST PUSH1 0xE0 DUP2 ADD SWAP1 DUP2 LT PUSH1 0x1 PUSH1 0x1 PUSH1 0x40 SHL SUB DUP3 GT OR PUSH2 0x3B71 JUMPI PUSH1 0x40 MSTORE JUMP JUMPDEST PUSH4 0x4E487B71 PUSH1 0xE0 SHL PUSH1 0x0 MSTORE PUSH1 0x41 PUSH1 0x4 MSTORE PUSH1 0x24 PUSH1 0x0 REVERT JUMPDEST PUSH1 0xC0 DUP2 ADD SWAP1 DUP2 LT PUSH1 0x1 PUSH1 0x1 PUSH1 0x40 SHL SUB DUP3 GT OR PUSH2 0x3B71 JUMPI PUSH1 0x40 MSTORE JUMP JUMPDEST PUSH1 0x80 DUP2 ADD SWAP1 DUP2 LT PUSH1 0x1 PUSH1 0x1 PUSH1 0x40 SHL SUB DUP3 GT OR PUSH2 0x3B71 JUMPI PUSH1 0x40 MSTORE JUMP JUMPDEST PUSH1 0x40 DUP2 ADD SWAP1 DUP2 LT PUSH1 0x1 PUSH1 0x1 PUSH1 0x40 SHL SUB DUP3 GT OR PUSH2 0x3B71 JUMPI PUSH1 0x40 MSTORE JUMP JUMPDEST PUSH1 0x1F SWAP1 SWAP2 ADD PUSH1 0x1F NOT AND DUP2 ADD SWAP1 PUSH1 0x1 PUSH1 0x1 PUSH1 0x40 SHL SUB DUP3 GT SWAP1 DUP3 LT OR PUSH2 0x3B71 JUMPI PUSH1 0x40 MSTORE JUMP JUMPDEST SWAP1 PUSH1 0x40 MLOAD SWAP2 DUP3 PUSH1 0x0 DUP3 SLOAD SWAP3 PUSH2 0x3C0F DUP5 PUSH2 0x3B1C JUMP JUMPDEST SWAP1 DUP2 DUP5 MSTORE PUSH1 0x1 SWAP5 DUP6 DUP2 AND SWAP1 DUP2 PUSH1 0x0 EQ PUSH2 0x3C7E JUMPI POP PUSH1 0x1 EQ PUSH2 0x3C3B JUMPI JUMPDEST POP POP PUSH2 0x3C39 SWAP3 POP SUB DUP4 PUSH2 0x3BD8 JUMP JUMPDEST JUMP JUMPDEST SWAP1 SWAP4 SWAP2 POP PUSH1 0x0 MSTORE PUSH1 0x20 SWAP1 DUP2 PUSH1 0x0 KECCAK256 SWAP4 PUSH1 0x0 SWAP2 JUMPDEST DUP2 DUP4 LT PUSH2 0x3C66 JUMPI POP POP PUSH2 0x3C39 SWAP4 POP DUP3 ADD ADD CODESIZE DUP1 PUSH2 0x3C2B JUMP JUMPDEST DUP6 SLOAD DUP9 DUP5 ADD DUP6 ADD MSTORE SWAP5 DUP6 ADD SWAP5 DUP8 SWAP5 POP SWAP2 DUP4 ADD SWAP2 PUSH2 0x3C4E JUMP JUMPDEST SWAP2 POP POP PUSH2 0x3C39 SWAP5 POP PUSH1 0x20 SWAP3 POP PUSH1 0xFF NOT AND DUP3 DUP5 ADD MSTORE ISZERO ISZERO PUSH1 0x5 SHL DUP3 ADD ADD CODESIZE DUP1 PUSH2 0x3C2B JUMP JUMPDEST SWAP4 PUSH1 0xE0 SWAP6 SWAP3 PUSH2 0x3CE3 SWAP9 SWAP8 SWAP5 SWAP3 DUP7 MSTORE PUSH1 0x1 DUP1 PUSH1 0xA0 SHL SUB SWAP3 DUP4 DUP1 SWAP3 AND PUSH1 0x20 DUP9 ADD MSTORE AND PUSH1 0x40 DUP7 ADD MSTORE AND PUSH1 0x60 DUP5 ADD MSTORE PUSH1 0x80 DUP4 ADD MSTORE PUSH1 0xA0 DUP3 ADD MSTORE DUP2 PUSH1 0xC0 DUP3 ADD MSTORE ADD SWAP1 PUSH2 0x39CB JUMP JUMPDEST SWAP1 JUMP JUMPDEST DUP1 SLOAD DUP3 LT ISZERO PUSH2 0x3B06 JUMPI PUSH1 0x0 MSTORE PUSH1 0x20 PUSH1 0x0 KECCAK256 ADD SWAP1 PUSH1 0x0 SWAP1 JUMP JUMPDEST MLOAD SWAP1 PUSH1 0x1 PUSH1 0x1 PUSH1 0x50 SHL SUB DUP3 AND DUP3 SUB PUSH2 0x392D JUMPI JUMP JUMPDEST DUP2 DUP2 MUL SWAP3 SWAP2 DUP2 ISZERO SWAP2 DUP5 DIV EQ OR ISZERO PUSH2 0x3D25 JUMPI JUMP JUMPDEST PUSH4 0x4E487B71 PUSH1 0xE0 SHL PUSH1 0x0 MSTORE PUSH1 0x11 PUSH1 0x4 MSTORE PUSH1 0x24 PUSH1 0x0 REVERT JUMPDEST SWAP2 SWAP1 DUP3 ADD DUP1 SWAP3 GT PUSH2 0x3D25 JUMPI JUMP JUMPDEST SWAP2 SWAP1 DUP3 SUB SWAP2 DUP3 GT PUSH2 0x3D25 JUMPI JUMP JUMPDEST PUSH1 0x4D DUP2 GT PUSH2 0x3D25 JUMPI PUSH1 0xA EXP SWAP1 JUMP JUMPDEST DUP2 ISZERO PUSH2 0x3D6D JUMPI DIV SWAP1 JUMP JUMPDEST PUSH4 0x4E487B71 PUSH1 0xE0 SHL PUSH1 0x0 MSTORE PUSH1 0x12 PUSH1 0x4 MSTORE PUSH1 0x24 PUSH1 0x0 REVERT JUMPDEST PUSH1 0x1 PUSH1 0x1 PUSH1 0xA0 SHL SUB AND DUP1 ISZERO PUSH2 0x392D JUMPI PUSH1 0x40 MLOAD PUSH4 0x3FABE5A3 PUSH1 0xE2 SHL DUP2 MSTORE SWAP1 PUSH1 0xA0 DUP3 PUSH1 0x4 DUP2 DUP5 GAS STATICCALL SWAP2 DUP3 ISZERO PUSH2 0x3E7B JUMPI PUSH1 0x0 SWAP3 PUSH2 0x3E87 JUMPI JUMPDEST POP PUSH1 0x0 DUP3 SGT ISZERO PUSH2 0x392D JUMPI PUSH1 0x20 PUSH1 0x4 SWAP2 PUSH1 0x40 MLOAD SWAP3 DUP4 DUP1 SWAP3 PUSH4 0x313CE567 PUSH1 0xE0 SHL DUP3 MSTORE GAS STATICCALL SWAP1 DUP2 ISZERO PUSH2 0x3E7B JUMPI PUSH1 0x0 SWAP2 PUSH2 0x3E40 JUMPI JUMPDEST POP PUSH2 0x3DF2 PUSH2 0x426E JUMP JUMPDEST POP SWAP2 PUSH8 0xDE0B6B3A7640000 SWAP1 DUP1 DUP3 MUL SWAP2 DUP3 DIV SUB PUSH2 0x3D25 JUMPI PUSH1 0xB SLOAD PUSH1 0x12 DUP2 ADD DUP2 GT PUSH2 0x3D25 JUMPI PUSH1 0xFF SWAP2 PUSH2 0xD12 PUSH2 0x3E25 SWAP3 PUSH2 0x3D55 JUMP JUMPDEST SWAP2 AND PUSH1 0x4D DUP2 GT PUSH2 0x3D25 JUMPI PUSH2 0x3CE3 SWAP3 PUSH2 0x1FD5 SWAP2 PUSH1 0xA EXP SWAP1 PUSH2 0x3D12 JUMP JUMPDEST PUSH1 0x20 DUP2 RETURNDATASIZE DUP3 GT PUSH2 0x3E73 JUMPI JUMPDEST DUP2 PUSH2 0x3E58 PUSH1 0x20 SWAP4 DUP4 PUSH2 0x3BD8 JUMP JUMPDEST DUP2 ADD SUB SLT PUSH2 0x53F JUMPI MLOAD SWAP1 PUSH1 0xFF DUP3 AND DUP3 SUB PUSH2 0x7E0 JUMPI POP CODESIZE PUSH2 0x3DE9 JUMP JUMPDEST RETURNDATASIZE SWAP2 POP PUSH2 0x3E4B JUMP JUMPDEST PUSH1 0x40 MLOAD RETURNDATASIZE PUSH1 0x0 DUP3 RETURNDATACOPY RETURNDATASIZE SWAP1 REVERT JUMPDEST SWAP1 SWAP2 PUSH1 0xA0 DUP3 RETURNDATASIZE DUP3 GT PUSH2 0x3ECD JUMPI JUMPDEST DUP2 PUSH2 0x3EA1 PUSH1 0xA0 SWAP4 DUP4 PUSH2 0x3BD8 JUMP JUMPDEST DUP2 ADD SUB SLT PUSH2 0x7E0 JUMPI POP PUSH2 0x3EB3 DUP2 PUSH2 0x3CFE JUMP JUMPDEST POP PUSH2 0x3EC5 PUSH1 0x80 PUSH1 0x20 DUP4 ADD MLOAD SWAP3 ADD PUSH2 0x3CFE JUMP JUMPDEST POP SWAP1 CODESIZE PUSH2 0x3DB8 JUMP JUMPDEST RETURNDATASIZE SWAP2 POP PUSH2 0x3E94 JUMP JUMPDEST SWAP2 PUSH1 0x1 PUSH1 0x1 PUSH1 0xA0 SHL SUB SWAP1 SWAP2 AND SWAP1 DUP2 ISZERO PUSH2 0x392D JUMPI PUSH1 0x40 MLOAD PUSH4 0x3FABE5A3 PUSH1 0xE2 SHL DUP2 MSTORE SWAP1 PUSH1 0xA0 DUP3 PUSH1 0x4 DUP2 DUP7 GAS STATICCALL SWAP2 DUP3 ISZERO PUSH2 0x3E7B JUMPI PUSH1 0x0 SWAP3 PUSH2 0x3FBD JUMPI JUMPDEST POP PUSH1 0x0 DUP3 SGT ISZERO PUSH2 0x392D JUMPI PUSH1 0x20 PUSH1 0x4 SWAP4 PUSH1 0x40 MLOAD SWAP5 DUP6 DUP1 SWAP3 PUSH4 0x313CE567 PUSH1 0xE0 SHL DUP3 MSTORE GAS STATICCALL SWAP3 DUP4 ISZERO PUSH2 0x3E7B JUMPI PUSH1 0x0 SWAP4 PUSH2 0x3F7C JUMPI JUMPDEST POP SWAP1 PUSH2 0x3F4D PUSH2 0x3F54 SWAP3 PUSH2 0x4308 JUMP JUMPDEST POP SWAP4 PUSH2 0x3D12 JUMP JUMPDEST PUSH1 0xB SLOAD PUSH1 0x12 DUP2 ADD SWAP1 DUP2 DUP2 GT PUSH2 0x3D25 JUMPI PUSH1 0xA ADD SWAP1 DUP2 GT PUSH2 0x3D25 JUMPI PUSH1 0xFF SWAP2 PUSH2 0xD12 PUSH2 0x3E25 SWAP3 PUSH2 0x3D55 JUMP JUMPDEST PUSH1 0x20 SWAP4 SWAP2 SWAP4 DUP2 RETURNDATASIZE DUP3 GT PUSH2 0x3FB5 JUMPI JUMPDEST DUP2 PUSH2 0x3F97 PUSH1 0x20 SWAP4 DUP4 PUSH2 0x3BD8 JUMP JUMPDEST DUP2 ADD SUB SLT PUSH2 0x53F JUMPI MLOAD SWAP1 PUSH1 0xFF DUP3 AND DUP3 SUB PUSH2 0x7E0 JUMPI POP SWAP2 PUSH2 0x3F4D PUSH2 0x3F3F JUMP JUMPDEST RETURNDATASIZE SWAP2 POP PUSH2 0x3F8A JUMP JUMPDEST SWAP1 SWAP2 PUSH1 0xA0 DUP3 RETURNDATASIZE DUP3 GT PUSH2 0x4003 JUMPI JUMPDEST DUP2 PUSH2 0x3FD7 PUSH1 0xA0 SWAP4 DUP4 PUSH2 0x3BD8 JUMP JUMPDEST DUP2 ADD SUB SLT PUSH2 0x7E0 JUMPI POP PUSH2 0x3FE9 DUP2 PUSH2 0x3CFE JUMP JUMPDEST POP PUSH2 0x3FFB PUSH1 0x80 PUSH1 0x20 DUP4 ADD MLOAD SWAP3 ADD PUSH2 0x3CFE JUMP JUMPDEST POP SWAP1 CODESIZE PUSH2 0x3F0E JUMP JUMPDEST RETURNDATASIZE SWAP2 POP PUSH2 0x3FCA JUMP JUMPDEST SWAP2 PUSH1 0x1 PUSH1 0x1 PUSH1 0xA0 SHL SUB SWAP1 SWAP2 AND SWAP1 DUP2 ISZERO PUSH2 0x392D JUMPI PUSH1 0x40 MLOAD PUSH4 0x3FABE5A3 PUSH1 0xE2 SHL DUP2 MSTORE SWAP1 PUSH1 0xA0 DUP3 PUSH1 0x4 DUP2 DUP7 GAS STATICCALL SWAP2 DUP3 ISZERO PUSH2 0x3E7B JUMPI PUSH1 0x0 SWAP3 PUSH2 0x40EC JUMPI JUMPDEST POP PUSH1 0x0 DUP3 SGT ISZERO PUSH2 0x392D JUMPI PUSH1 0x20 PUSH1 0x4 SWAP4 PUSH1 0x40 MLOAD SWAP5 DUP6 DUP1 SWAP3 PUSH4 0x313CE567 PUSH1 0xE0 SHL DUP3 MSTORE GAS STATICCALL SWAP3 DUP4 ISZERO PUSH2 0x3E7B JUMPI PUSH1 0x0 SWAP4 PUSH2 0x40AB JUMPI JUMPDEST POP SWAP1 PUSH2 0x3F4D PUSH2 0x4083 SWAP3 PUSH2 0x4308 JUMP JUMPDEST PUSH1 0xB SLOAD PUSH1 0x12 DUP2 ADD SWAP1 DUP2 DUP2 GT PUSH2 0x3D25 JUMPI PUSH1 0x9 ADD SWAP1 DUP2 GT PUSH2 0x3D25 JUMPI PUSH1 0xFF SWAP2 PUSH2 0xD12 PUSH2 0x3E25 SWAP3 PUSH2 0x3D55 JUMP JUMPDEST PUSH1 0x20 SWAP4 SWAP2 SWAP4 DUP2 RETURNDATASIZE DUP3 GT PUSH2 0x40E4 JUMPI JUMPDEST DUP2 PUSH2 0x40C6 PUSH1 0x20 SWAP4 DUP4 PUSH2 0x3BD8 JUMP JUMPDEST DUP2 ADD SUB SLT PUSH2 0x53F JUMPI MLOAD SWAP1 PUSH1 0xFF DUP3 AND DUP3 SUB PUSH2 0x7E0 JUMPI POP SWAP2 PUSH2 0x3F4D PUSH2 0x4075 JUMP JUMPDEST RETURNDATASIZE SWAP2 POP PUSH2 0x40B9 JUMP JUMPDEST SWAP1 SWAP2 PUSH1 0xA0 DUP3 RETURNDATASIZE DUP3 GT PUSH2 0x4132 JUMPI JUMPDEST DUP2 PUSH2 0x4106 PUSH1 0xA0 SWAP4 DUP4 PUSH2 0x3BD8 JUMP JUMPDEST DUP2 ADD SUB SLT PUSH2 0x7E0 JUMPI POP PUSH2 0x4118 DUP2 PUSH2 0x3CFE JUMP JUMPDEST POP PUSH2 0x412A PUSH1 0x80 PUSH1 0x20 DUP4 ADD MLOAD SWAP3 ADD PUSH2 0x3CFE JUMP JUMPDEST POP SWAP1 CODESIZE PUSH2 0x4044 JUMP JUMPDEST RETURNDATASIZE SWAP2 POP PUSH2 0x40F9 JUMP JUMPDEST SWAP2 PUSH1 0x1 PUSH1 0x1 PUSH1 0xA0 SHL SUB SWAP1 SWAP2 AND SWAP1 DUP2 ISZERO PUSH2 0x392D JUMPI PUSH1 0x40 MLOAD PUSH4 0x3FABE5A3 PUSH1 0xE2 SHL DUP2 MSTORE SWAP1 PUSH1 0xA0 DUP3 PUSH1 0x4 DUP2 DUP7 GAS STATICCALL SWAP2 DUP3 ISZERO PUSH2 0x3E7B JUMPI PUSH1 0x0 SWAP3 PUSH2 0x420F JUMPI JUMPDEST POP PUSH1 0x0 DUP3 SGT ISZERO PUSH2 0x392D JUMPI PUSH1 0x20 PUSH1 0x4 SWAP4 PUSH1 0x40 MLOAD SWAP5 DUP6 DUP1 SWAP3 PUSH4 0x313CE567 PUSH1 0xE0 SHL DUP3 MSTORE GAS STATICCALL SWAP3 DUP4 ISZERO PUSH2 0x3E7B JUMPI PUSH1 0x0 SWAP4 PUSH2 0x41CE JUMPI JUMPDEST POP SWAP1 PUSH2 0x3F4D PUSH2 0x41B2 SWAP3 PUSH2 0x4308 JUMP JUMPDEST PUSH1 0xB SLOAD PUSH1 0x12 DUP2 ADD DUP2 GT PUSH2 0x3D25 JUMPI PUSH1 0xFF SWAP2 PUSH2 0xD12 PUSH2 0x3E25 SWAP3 PUSH2 0x3D55 JUMP JUMPDEST PUSH1 0x20 SWAP4 SWAP2 SWAP4 DUP2 RETURNDATASIZE DUP3 GT PUSH2 0x4207 JUMPI JUMPDEST DUP2 PUSH2 0x41E9 PUSH1 0x20 SWAP4 DUP4 PUSH2 0x3BD8 JUMP JUMPDEST DUP2 ADD SUB SLT PUSH2 0x53F JUMPI MLOAD SWAP1 PUSH1 0xFF DUP3 AND DUP3 SUB PUSH2 0x7E0 JUMPI POP SWAP2 PUSH2 0x3F4D PUSH2 0x41A4 JUMP JUMPDEST RETURNDATASIZE SWAP2 POP PUSH2 0x41DC JUMP JUMPDEST SWAP1 SWAP2 PUSH1 0xA0 DUP3 RETURNDATASIZE DUP3 GT PUSH2 0x4255 JUMPI JUMPDEST DUP2 PUSH2 0x4229 PUSH1 0xA0 SWAP4 DUP4 PUSH2 0x3BD8 JUMP JUMPDEST DUP2 ADD SUB SLT PUSH2 0x7E0 JUMPI POP PUSH2 0x423B DUP2 PUSH2 0x3CFE JUMP JUMPDEST POP PUSH2 0x424D PUSH1 0x80 PUSH1 0x20 DUP4 ADD MLOAD SWAP3 ADD PUSH2 0x3CFE JUMP JUMPDEST POP SWAP1 CODESIZE PUSH2 0x4173 JUMP JUMPDEST RETURNDATASIZE SWAP2 POP PUSH2 0x421C JUMP JUMPDEST SWAP1 PUSH1 0xFF DUP1 NOT DUP4 SLOAD AND SWAP2 ISZERO ISZERO AND OR SWAP1 SSTORE JUMP JUMPDEST PUSH1 0x14 SLOAD DUP1 ISZERO DUP1 ISZERO PUSH2 0x42FF JUMPI JUMPDEST PUSH2 0x42F5 JUMPI PUSH1 0x0 DUP1 MSTORE PUSH1 0x17 PUSH1 0x20 MSTORE PUSH32 0xD840E16649F6B9A295D95876F4633D3A6B10B55E8162971CF78AFD886D5EC89B SLOAD PUSH1 0xFF AND ISZERO PUSH2 0x42ED JUMPI PUSH1 0x15 SLOAD JUMPDEST DUP1 ISZERO PUSH2 0x42E2 JUMPI PUSH2 0x42C8 PUSH2 0x42CD SWAP3 TIMESTAMP PUSH2 0x3D48 JUMP JUMPDEST PUSH2 0x3D63 JUMP JUMPDEST PUSH2 0x42DF PUSH1 0xA SLOAD PUSH2 0x196C PUSH1 0xC SLOAD DUP5 PUSH2 0x3D12 JUMP JUMPDEST SWAP2 JUMP JUMPDEST POP POP PUSH1 0xA SLOAD SWAP1 PUSH1 0x0 SWAP1 JUMP JUMPDEST PUSH1 0x16 SLOAD PUSH2 0x42B5 JUMP JUMPDEST POP PUSH1 0xA SLOAD SWAP1 PUSH1 0x0 SWAP1 JUMP JUMPDEST POP DUP1 TIMESTAMP LT PUSH2 0x427A JUMP JUMPDEST PUSH1 0x14 SLOAD SWAP1 DUP2 ISZERO DUP1 ISZERO PUSH2 0x434F JUMPI JUMPDEST PUSH2 0x42E2 JUMPI PUSH1 0x1 PUSH1 0x1 PUSH1 0xA0 SHL SUB AND PUSH1 0x0 SWAP1 DUP2 MSTORE PUSH1 0x17 PUSH1 0x20 MSTORE PUSH1 0x40 SWAP1 KECCAK256 SLOAD PUSH1 0xFF AND ISZERO PUSH2 0x42ED JUMPI PUSH1 0x15 SLOAD DUP1 ISZERO PUSH2 0x42E2 JUMPI PUSH2 0x42C8 PUSH2 0x42CD SWAP3 TIMESTAMP PUSH2 0x3D48 JUMP JUMPDEST POP DUP2 TIMESTAMP LT PUSH2 0x4315 JUMP JUMPDEST DUP1 SLOAD PUSH1 0x1 PUSH1 0x40 SHL DUP2 LT ISZERO PUSH2 0x3B71 JUMPI PUSH2 0x4375 SWAP2 PUSH1 0x1 DUP3 ADD DUP2 SSTORE PUSH2 0x3CE6 JUMP JUMPDEST DUP2 SWAP3 SWAP2 SLOAD SWAP1 PUSH1 0x3 SHL SWAP2 PUSH1 0x1 DUP1 PUSH1 0xA0 SHL SUB DUP1 SWAP2 AND DUP4 SHL SWAP3 SHL NOT AND OR SWAP1 SSTORE JUMP JUMPDEST SWAP1 DUP2 PUSH1 0x20 SWAP2 SUB SLT PUSH2 0x392D JUMPI MLOAD DUP1 ISZERO ISZERO DUP2 SUB PUSH2 0x392D JUMPI SWAP1 JUMP JUMPDEST PUSH1 0x1 PUSH1 0x1 PUSH1 0xA0 SHL SUB SWAP1 DUP2 AND PUSH1 0x0 DUP2 DUP2 MSTORE PUSH1 0x11 PUSH1 0x20 MSTORE PUSH1 0x40 DUP2 KECCAK256 SLOAD SWAP1 SWAP3 SWAP1 PUSH1 0xFF AND PUSH2 0x4F5 JUMPI PUSH1 0x13 PUSH1 0x20 MSTORE PUSH1 0xFF PUSH1 0x40 DUP5 KECCAK256 SLOAD AND PUSH2 0x4F5 JUMPI PUSH1 0x12 SLOAD AND SWAP1 DUP2 PUSH2 0x43EF JUMPI POP POP POP JUMP JUMPDEST PUSH1 0x20 SWAP1 PUSH1 0x24 PUSH1 0x40 MLOAD DUP1 SWAP5 DUP2 SWAP4 PUSH4 0x3E28391D PUSH1 0xE0 SHL DUP4 MSTORE PUSH1 0x4 DUP4 ADD MSTORE GAS STATICCALL SWAP1 DUP2 ISZERO PUSH2 0x4440 JUMPI DUP3 SWAP2 PUSH2 0x4422 JUMPI JUMPDEST POP PUSH2 0x7E0 JUMPI POP JUMP JUMPDEST PUSH2 0x443A SWAP2 POP PUSH1 0x20 RETURNDATASIZE DUP2 GT PUSH2 0x6CD JUMPI PUSH2 0x6BF DUP2 DUP4 PUSH2 0x3BD8 JUMP JUMPDEST CODESIZE PUSH2 0x441A JUMP JUMPDEST PUSH1 0x40 MLOAD RETURNDATASIZE DUP5 DUP3 RETURNDATACOPY RETURNDATASIZE SWAP1 REVERT JUMPDEST PUSH1 0x1 PUSH1 0x1 PUSH1 0xA0 SHL SUB SWAP2 DUP3 AND DUP2 MSTORE SWAP2 AND PUSH1 0x20 DUP3 ADD MSTORE PUSH1 0x40 DUP2 ADD SWAP2 SWAP1 SWAP2 MSTORE PUSH1 0x60 ADD SWAP1 JUMP JUMPDEST PUSH1 0x1 PUSH1 0x1 PUSH1 0x40 SHL SUB DUP2 GT PUSH2 0x3B71 JUMPI PUSH1 0x1F ADD PUSH1 0x1F NOT AND PUSH1 0x20 ADD SWAP1 JUMP JUMPDEST PUSH1 0x40 MLOAD SWAP1 PUSH2 0x4495 DUP3 PUSH2 0x3BBD JUMP JUMPDEST PUSH1 0x3 DUP3 MSTORE PUSH3 0x425559 PUSH1 0xE8 SHL PUSH1 0x20 DUP4 ADD MSTORE JUMP JUMPDEST RETURNDATASIZE ISZERO PUSH2 0x44D2 JUMPI RETURNDATASIZE SWAP1 PUSH2 0x44B8 DUP3 PUSH2 0x446D JUMP JUMPDEST SWAP2 PUSH2 0x44C6 PUSH1 0x40 MLOAD SWAP4 DUP5 PUSH2 0x3BD8 JUMP JUMPDEST DUP3 MSTORE RETURNDATASIZE PUSH1 0x0 PUSH1 0x20 DUP5 ADD RETURNDATACOPY JUMP JUMPDEST PUSH1 0x60 SWAP1 JUMP JUMPDEST CALLDATALOAD PUSH1 0x1 PUSH1 0x1 PUSH1 0xA0 SHL SUB DUP2 AND DUP2 SUB PUSH2 0x392D JUMPI SWAP1 JUMP JUMPDEST SWAP2 SWAP1 PUSH1 0x60 DUP4 ADD CALLDATALOAD SWAP2 DUP3 TIMESTAMP GT PUSH2 0x392D JUMPI PUSH2 0x4503 DUP5 PUSH2 0x44D7 JUMP JUMPDEST PUSH1 0x1 PUSH1 0x1 PUSH1 0xA0 SHL SUB SWAP5 SWAP1 CALLER SWAP1 DUP7 AND SUB PUSH2 0x392D JUMPI PUSH1 0x40 SWAP3 DUP4 DUP3 ADD CALLDATALOAD SWAP1 PUSH1 0x0 SWAP4 CALLER DUP6 MSTORE PUSH1 0x20 SWAP4 PUSH1 0x2A DUP6 MSTORE DUP7 DUP7 KECCAK256 SLOAD DUP5 GT ISZERO PUSH2 0x6DE JUMPI PUSH1 0x29 SLOAD SWAP1 DUP6 PUSH2 0x4544 DUP3 PUSH2 0x44D7 JUMP JUMPDEST SWAP2 ADD SWAP9 PUSH2 0x4550 DUP11 PUSH2 0x44D7 JUMP JUMPDEST SWAP1 DUP12 DUP11 MLOAD SWAP3 DUP2 DUP11 DUP6 ADD SWAP6 PUSH1 0x0 DUP1 MLOAD PUSH1 0x20 PUSH2 0x5342 DUP4 CODECOPY DUP2 MLOAD SWAP2 MSTORE DUP8 MSTORE AND DUP13 DUP6 ADD MSTORE AND PUSH1 0x60 DUP4 ADD MSTORE DUP7 PUSH1 0x80 DUP4 ADD MSTORE PUSH1 0xA0 DUP3 ADD MSTORE PUSH1 0xA0 DUP2 MSTORE PUSH2 0x458E DUP2 PUSH2 0x3B87 JUMP JUMPDEST MLOAD SWAP1 KECCAK256 DUP8 MLOAD SWAP1 DUP7 DUP3 ADD SWAP3 PUSH2 0x1901 PUSH1 0xF0 SHL DUP5 MSTORE PUSH1 0x22 DUP4 ADD MSTORE PUSH1 0x42 DUP3 ADD MSTORE PUSH1 0x42 DUP2 MSTORE PUSH2 0x45B7 DUP2 PUSH2 0x3BA2 JUMP JUMPDEST MLOAD SWAP1 KECCAK256 SWAP1 PUSH2 0x45C4 DUP2 PUSH2 0x446D JUMP JUMPDEST SWAP3 PUSH2 0x45D1 DUP9 MLOAD SWAP5 DUP6 PUSH2 0x3BD8 JUMP JUMPDEST DUP2 DUP5 MSTORE CALLDATASIZE DUP3 DUP3 ADD GT PUSH2 0x1D79 JUMPI SWAP2 DUP7 DUP7 DUP4 DUP7 SWAP5 PUSH2 0x1BD1 SWAP7 DUP4 PUSH2 0x45F7 SWAP10 ADD CALLDATACOPY DUP5 ADD ADD MSTORE PUSH2 0x4795 JUMP JUMPDEST DUP7 DUP1 PUSH1 0x28 SLOAD AND SWAP2 AND SUB PUSH2 0x4F5 JUMPI SWAP1 PUSH1 0x17 SWAP2 CALLER DUP5 MSTORE PUSH1 0x2A DUP3 MSTORE DUP1 DUP6 DUP6 KECCAK256 SSTORE DUP5 MLOAD SWAP1 DUP2 MSTORE PUSH1 0x0 DUP1 MLOAD PUSH1 0x20 PUSH2 0x5322 DUP4 CODECOPY DUP2 MLOAD SWAP2 MSTORE DUP3 CALLER SWAP3 LOG2 DUP6 PUSH2 0x4636 DUP7 PUSH2 0x44D7 JUMP JUMPDEST AND ISZERO ISZERO DUP1 PUSH2 0x4737 JUMPI JUMPDEST DUP1 PUSH2 0x4723 JUMPI JUMPDEST DUP1 PUSH2 0x4704 JUMPI JUMPDEST PUSH2 0x469C JUMPI JUMPDEST CALLER DUP4 MSTORE MSTORE DUP2 DUP2 KECCAK256 SWAP4 PUSH1 0xFF NOT SWAP5 PUSH1 0x1 DUP7 DUP3 SLOAD AND OR SWAP1 SSTORE DUP1 PUSH2 0x466F DUP6 PUSH2 0x44D7 JUMP JUMPDEST AND PUSH2 0x467C JUMPI JUMPDEST POP POP POP POP POP JUMP JUMPDEST PUSH2 0x4687 PUSH1 0x1 SWAP5 PUSH2 0x44D7 JUMP JUMPDEST AND DUP2 MSTORE KECCAK256 SWAP2 DUP3 SLOAD AND OR SWAP1 SSTORE CODESIZE DUP1 DUP1 DUP1 DUP1 PUSH2 0x4675 JUMP JUMPDEST PUSH2 0x46A5 DUP6 PUSH2 0x44D7 JUMP JUMPDEST CALLER DUP5 MSTORE PUSH1 0x25 DUP3 MSTORE DUP5 DUP5 KECCAK256 DUP1 SLOAD PUSH1 0x1 PUSH1 0x1 PUSH1 0xA0 SHL SUB NOT AND SWAP2 DUP9 AND SWAP2 SWAP1 SWAP2 OR SWAP1 SSTORE DUP6 PUSH2 0x46CE DUP7 PUSH2 0x44D7 JUMP JUMPDEST AND DUP4 MSTORE PUSH1 0x26 DUP2 MSTORE PUSH2 0x46E1 CALLER DUP6 DUP6 KECCAK256 PUSH2 0x4358 JUMP JUMPDEST CALLER DUP7 PUSH2 0x46EC DUP8 PUSH2 0x44D7 JUMP JUMPDEST AND PUSH1 0x0 DUP1 MLOAD PUSH1 0x20 PUSH2 0x52C2 DUP4 CODECOPY DUP2 MLOAD SWAP2 MSTORE DUP6 DUP1 LOG3 PUSH2 0x4650 JUMP JUMPDEST POP DUP6 PUSH2 0x470F DUP7 PUSH2 0x44D7 JUMP JUMPDEST AND DUP4 MSTORE PUSH1 0x11 DUP2 MSTORE PUSH1 0xFF DUP5 DUP5 KECCAK256 SLOAD AND ISZERO PUSH2 0x464B JUMP JUMPDEST POP CALLER DUP4 MSTORE PUSH1 0x25 DUP2 MSTORE DUP6 DUP5 DUP5 KECCAK256 SLOAD AND ISZERO PUSH2 0x4645 JUMP JUMPDEST POP CALLER DUP7 PUSH2 0x4743 DUP8 PUSH2 0x44D7 JUMP JUMPDEST AND EQ ISZERO PUSH2 0x463F JUMP JUMPDEST PUSH1 0x5 DUP2 LT ISZERO PUSH2 0x477F JUMPI DUP1 PUSH2 0x475C JUMPI POP JUMP JUMPDEST PUSH1 0x1 DUP2 SUB PUSH2 0x4769 JUMPI PUSH1 0x0 DUP1 REVERT JUMPDEST PUSH1 0x2 DUP2 SUB PUSH2 0x4776 JUMPI PUSH1 0x0 DUP1 REVERT JUMPDEST PUSH1 0x3 EQ PUSH2 0x392D JUMPI JUMP JUMPDEST PUSH4 0x4E487B71 PUSH1 0xE0 SHL PUSH1 0x0 MSTORE PUSH1 0x21 PUSH1 0x4 MSTORE PUSH1 0x24 PUSH1 0x0 REVERT JUMPDEST SWAP1 PUSH1 0x41 DUP2 MLOAD EQ PUSH1 0x0 EQ PUSH2 0x47C3 JUMPI PUSH2 0x47BF SWAP2 PUSH1 0x20 DUP3 ADD MLOAD SWAP1 PUSH1 0x60 PUSH1 0x40 DUP5 ADD MLOAD SWAP4 ADD MLOAD PUSH1 0x0 BYTE SWAP1 PUSH2 0x47CD JUMP JUMPDEST SWAP1 SWAP2 JUMP JUMPDEST POP POP PUSH1 0x0 SWAP1 PUSH1 0x2 SWAP1 JUMP JUMPDEST SWAP3 SWAP2 SWAP1 PUSH16 0xA2A8918CA85BAFE22016D0B997E4DF60 PUSH1 0x1 PUSH1 0xFF SHL SUB DUP4 GT PUSH2 0x4846 JUMPI SWAP2 PUSH1 0x80 SWAP5 SWAP4 SWAP2 PUSH1 0xFF PUSH1 0x20 SWAP5 PUSH1 0x40 MLOAD SWAP5 DUP6 MSTORE AND DUP5 DUP5 ADD MSTORE PUSH1 0x40 DUP4 ADD MSTORE PUSH1 0x60 DUP3 ADD MSTORE PUSH1 0x0 SWAP4 DUP5 SWAP2 DUP3 DUP1 MSTORE PUSH1 0x1 GAS STATICCALL ISZERO PUSH2 0x4839 JUMPI DUP2 MLOAD PUSH1 0x1 PUSH1 0x1 PUSH1 0xA0 SHL SUB DUP2 AND ISZERO PUSH2 0x4833 JUMPI SWAP2 SWAP1 JUMP JUMPDEST POP PUSH1 0x1 SWAP1 JUMP JUMPDEST POP PUSH1 0x40 MLOAD SWAP1 RETURNDATASIZE SWAP1 DUP3 RETURNDATACOPY RETURNDATASIZE SWAP1 REVERT JUMPDEST POP POP POP POP PUSH1 0x0 SWAP1 PUSH1 0x3 SWAP1 JUMP JUMPDEST PUSH1 0x0 NOT DUP2 EQ PUSH2 0x3D25 JUMPI PUSH1 0x1 ADD SWAP1 JUMP JUMPDEST PUSH1 0x0 DUP2 DUP2 MSTORE PUSH1 0x1E PUSH1 0x20 SWAP1 DUP2 MSTORE PUSH1 0x40 DUP1 DUP4 KECCAK256 SLOAD PUSH1 0x1 PUSH1 0x1 PUSH1 0xA0 SHL SUB AND SWAP1 DUP2 ISZERO PUSH2 0x6E2 JUMPI SWAP3 SWAP4 DUP5 SWAP4 SWAP1 DUP5 SWAP1 DUP2 DUP1 DUP1 DUP1 DUP1 JUMPDEST DUP9 DUP12 MSTORE PUSH1 0x1D DUP1 DUP12 MSTORE DUP9 DUP13 KECCAK256 DUP1 SLOAD DUP4 LT ISZERO PUSH2 0x4A4C JUMPI PUSH2 0x48AF DUP4 DUP10 SWAP3 PUSH2 0x3AEA JUMP JUMPDEST POP SLOAD EQ PUSH2 0x48C5 JUMPI POP PUSH2 0x48C0 SWAP1 PUSH2 0x4852 JUMP JUMPDEST PUSH2 0x4890 JUMP JUMPDEST SWAP7 POP SWAP11 POP POP POP POP POP POP DUP3 DUP6 MSTORE DUP1 DUP5 MSTORE DUP6 DUP3 DUP7 KECCAK256 SWAP1 PUSH2 0x48E2 SWAP2 PUSH2 0x3AEA JUMP JUMPDEST POP PUSH1 0x5 ADD SLOAD SWAP6 DUP4 DUP7 MSTORE DUP2 DUP6 MSTORE DUP1 DUP4 DUP8 KECCAK256 SWAP1 PUSH2 0x48FC SWAP2 PUSH2 0x3AEA JUMP JUMPDEST POP PUSH1 0x4 ADD SLOAD SWAP3 DUP5 DUP8 MSTORE DUP3 DUP7 MSTORE DUP2 DUP2 DUP9 KECCAK256 SWAP1 PUSH2 0x4916 SWAP2 PUSH2 0x3AEA JUMP JUMPDEST POP SWAP3 PUSH1 0x1 DUP1 SWAP5 ADD SLOAD SWAP7 DUP7 DUP10 MSTORE DUP2 DUP2 MSTORE DUP4 DUP4 DUP11 KECCAK256 SWAP1 PUSH2 0x4933 SWAP2 PUSH2 0x3AEA JUMP JUMPDEST POP PUSH1 0x3 ADD SLOAD SWAP7 DUP10 MSTORE MSTORE DUP7 KECCAK256 SWAP1 PUSH2 0x4948 SWAP2 PUSH2 0x3AEA JUMP JUMPDEST POP PUSH1 0x6 ADD SLOAD PUSH1 0xFF AND SWAP1 JUMPDEST ISZERO PUSH2 0x6A2 JUMPI ISZERO PUSH2 0x6E2 JUMPI TIMESTAMP DUP2 EQ PUSH2 0x4A45 JUMPI PUSH2 0x496D SWAP1 TIMESTAMP PUSH2 0x3D48 JUMP JUMPDEST SWAP3 PUSH1 0x1B SLOAD DUP1 SWAP3 PUSH1 0x5A DUP2 EQ PUSH1 0x0 EQ PUSH2 0x49CB JUMPI POP POP PUSH1 0x3 DUP3 MUL SWAP2 DUP1 DUP4 DIV PUSH1 0x3 EQ SWAP1 ISZERO OR ISZERO PUSH2 0x49B7 JUMPI POP PUSH2 0x3CE3 SWAP4 SWAP3 PUSH2 0x49AB PUSH4 0xBBF81E00 SWAP4 PUSH2 0x49B0 SWAP4 PUSH1 0x1 SHR SWAP1 JUMPDEST PUSH2 0x3D12 JUMP JUMPDEST DIV SWAP1 PUSH2 0x3D3B JUMP JUMPDEST PUSH4 0x4E487B71 PUSH1 0xE0 SHL DUP2 MSTORE PUSH1 0x11 PUSH1 0x4 MSTORE PUSH1 0x24 SWAP1 REVERT JUMPDEST PUSH1 0xB4 DUP2 SUB PUSH2 0x4A01 JUMPI POP POP DUP2 PUSH1 0x1 SHL SWAP2 DUP1 DUP4 DIV PUSH1 0x2 EQ SWAP1 ISZERO OR ISZERO PUSH2 0x49B7 JUMPI POP PUSH2 0x3CE3 SWAP4 SWAP3 PUSH2 0x49AB PUSH4 0xBBF81E00 SWAP4 PUSH2 0x49B0 SWAP4 SWAP1 PUSH2 0x3D12 JUMP JUMPDEST PUSH2 0x16D SWAP2 SWAP5 SWAP4 POP EQ PUSH2 0x4A26 JUMPI JUMPDEST POP PUSH2 0x3CE3 SWAP4 SWAP3 PUSH2 0x49AB PUSH4 0xBBF81E00 SWAP4 PUSH2 0x49B0 SWAP4 PUSH2 0x3D12 JUMP JUMPDEST PUSH1 0x3 DUP4 SWAP3 SWAP4 MUL SWAP2 DUP1 DUP4 DIV PUSH1 0x3 EQ SWAP1 ISZERO OR ISZERO PUSH2 0x49B7 JUMPI POP SWAP1 PUSH2 0x3CE3 PUSH2 0x4A0E JUMP JUMPDEST POP POP POP POP SWAP1 JUMP JUMPDEST POP POP POP SWAP7 POP SWAP7 POP SWAP8 SWAP4 POP SWAP1 POP PUSH2 0x4952 JUMP JUMPDEST PUSH1 0x1 PUSH1 0x1 PUSH1 0xA0 SHL SUB SWAP1 SWAP2 AND DUP2 MSTORE PUSH1 0x20 DUP2 ADD SWAP2 SWAP1 SWAP2 MSTORE PUSH1 0x40 ADD SWAP1 JUMP JUMPDEST PUSH1 0x0 CALLER DUP2 MSTORE PUSH1 0x20 PUSH1 0x25 DUP2 MSTORE PUSH1 0x1 DUP1 PUSH1 0xA0 SHL SUB SWAP1 PUSH1 0x40 DUP3 DUP2 DUP6 KECCAK256 SLOAD AND SWAP3 DUP4 ISZERO ISZERO DUP1 PUSH2 0x4B86 JUMPI JUMPDEST PUSH2 0x4AA9 JUMPI POP POP POP POP POP SWAP1 JUMP JUMPDEST PUSH1 0x64 PUSH2 0x4AB7 PUSH1 0x24 SLOAD DUP9 PUSH2 0x3D12 JUMP JUMPDEST DIV SWAP5 DUP2 DUP2 SLOAD AND DUP5 DUP5 MLOAD DUP1 SWAP3 PUSH4 0xA9059CBB PUSH1 0xE0 SHL DUP3 MSTORE DUP2 DUP6 DUP2 PUSH2 0x4ADD DUP14 DUP14 PUSH1 0x4 DUP5 ADD PUSH2 0x4A5D JUMP JUMPDEST SUB SWAP3 GAS CALL SWAP1 DUP2 ISZERO PUSH2 0x20B2 JUMPI DUP3 SWAP2 PUSH2 0x4B69 JUMPI JUMPDEST POP ISZERO PUSH2 0x7E0 JUMPI PUSH32 0x94CCB86446750660EC532B1BEB1FB55F5BA2FFFCA042C4C53F4C080E72595B38 SWAP4 SWAP3 SWAP2 DUP2 DUP7 PUSH2 0x4B5F SWAP4 MSTORE PUSH1 0x27 DUP6 MSTORE DUP4 DUP2 KECCAK256 PUSH2 0x4B32 DUP10 DUP3 SLOAD PUSH2 0x3D3B JUMP JUMPDEST SWAP1 SSTORE SLOAD AND DUP7 DUP9 DUP5 MLOAD SWAP3 PUSH2 0x4B44 DUP5 PUSH2 0x3BBD JUMP JUMPDEST PUSH1 0x8 DUP5 MSTORE PUSH8 0x1491519154949053 PUSH1 0xC2 SHL DUP8 DUP6 ADD MSTORE DUP1 DUP10 PUSH2 0x5181 JUMP JUMPDEST MLOAD SWAP4 DUP5 MSTORE CALLER SWAP4 LOG3 SWAP1 JUMP JUMPDEST PUSH2 0x4B80 SWAP2 POP DUP6 RETURNDATASIZE DUP8 GT PUSH2 0x6CD JUMPI PUSH2 0x6BF DUP2 DUP4 PUSH2 0x3BD8 JUMP JUMPDEST CODESIZE PUSH2 0x4AEF JUMP JUMPDEST POP DUP4 DUP6 MSTORE PUSH1 0x11 DUP4 MSTORE PUSH1 0xFF DUP3 DUP7 KECCAK256 SLOAD AND ISZERO PUSH2 0x4A9D JUMP JUMPDEST PUSH1 0x0 SWAP1 DUP2 JUMPDEST PUSH1 0x1 PUSH1 0x1 PUSH1 0xA0 SHL SUB DUP3 AND PUSH1 0x0 SWAP1 DUP2 MSTORE PUSH1 0x1D PUSH1 0x20 MSTORE PUSH1 0x40 SWAP1 KECCAK256 DUP1 SLOAD DUP3 LT ISZERO PUSH2 0x4C4C JUMPI PUSH1 0x6 PUSH2 0x4BCF DUP4 PUSH1 0xFF SWAP4 PUSH2 0x3AEA JUMP JUMPDEST POP ADD SLOAD AND PUSH2 0x4BE5 JUMPI PUSH2 0x4BE0 SWAP1 PUSH2 0x4852 JUMP JUMPDEST PUSH2 0x4BA0 JUMP JUMPDEST POP SWAP1 POP PUSH1 0x1 JUMPDEST ISZERO DUP1 PUSH2 0x4C2A JUMPI JUMPDEST PUSH2 0x4BF9 JUMPI POP JUMP JUMPDEST PUSH1 0x1 PUSH1 0x1 PUSH1 0xA0 SHL SUB AND PUSH1 0x0 SWAP1 DUP2 MSTORE PUSH1 0x23 PUSH1 0x20 MSTORE PUSH1 0x40 SWAP1 KECCAK256 DUP1 SLOAD PUSH1 0xFF NOT AND SWAP1 SSTORE PUSH1 0x21 SLOAD DUP1 ISZERO PUSH2 0x3D25 JUMPI PUSH1 0x0 NOT ADD PUSH1 0x21 SSTORE JUMP JUMPDEST POP PUSH1 0x1 PUSH1 0x1 PUSH1 0xA0 SHL SUB DUP2 AND PUSH1 0x0 SWAP1 DUP2 MSTORE PUSH1 0x23 PUSH1 0x20 MSTORE PUSH1 0x40 SWAP1 KECCAK256 SLOAD PUSH1 0xFF AND PUSH2 0x4BF2 JUMP JUMPDEST POP POP SWAP1 PUSH2 0x4BEB JUMP JUMPDEST PUSH2 0x4C5D CALLER PUSH2 0x43AB JUMP JUMPDEST PUSH1 0x0 DUP1 SLOAD PUSH1 0x40 MLOAD PUSH4 0x70A08231 PUSH1 0xE0 SHL DUP2 MSTORE ADDRESS PUSH1 0x4 DUP3 ADD MSTORE SWAP2 SWAP3 PUSH1 0x20 SWAP3 PUSH1 0x1 PUSH1 0x1 PUSH1 0xA0 SHL SUB SWAP1 SWAP3 AND SWAP2 DUP4 DUP2 PUSH1 0x24 DUP2 DUP7 GAS STATICCALL SWAP1 DUP2 ISZERO PUSH2 0x4DD8 JUMPI SWAP1 DUP3 SWAP2 DUP7 SWAP2 PUSH2 0x4DA7 JUMPI JUMPDEST POP LT PUSH2 0x6E2 JUMPI PUSH1 0xF SLOAD PUSH8 0x3E09DE2596099E2B PUSH1 0x1B SHL PUSH2 0x4CBD DUP4 DUP4 PUSH2 0x3D3B JUMP JUMPDEST GT PUSH2 0x6A2 JUMPI CALLER DUP6 MSTORE PUSH1 0x17 DUP5 MSTORE PUSH1 0x40 DUP6 KECCAK256 SLOAD PUSH1 0xFF AND ISZERO PUSH2 0x4D79 JUMPI POP PUSH1 0x10 SLOAD PUSH7 0xD3C21BCECCEDA1 PUSH1 0x19 SHL PUSH2 0x4CEF DUP4 DUP4 PUSH2 0x3D3B JUMP JUMPDEST GT PUSH2 0x6A2 JUMPI DUP5 SWAP3 DUP3 PUSH2 0x4D05 DUP7 SWAP5 PUSH2 0x4D35 SWAP5 PUSH2 0x3D3B JUMP JUMPDEST PUSH1 0x10 SSTORE JUMPDEST PUSH2 0x4D15 DUP2 PUSH1 0xF SLOAD PUSH2 0x3D3B JUMP JUMPDEST PUSH1 0xF SSTORE PUSH1 0x40 MLOAD SWAP5 DUP6 DUP1 SWAP5 DUP2 SWAP4 PUSH4 0xA9059CBB PUSH1 0xE0 SHL DUP4 MSTORE CALLER PUSH1 0x4 DUP5 ADD PUSH2 0x4A5D JUMP JUMPDEST SUB SWAP3 GAS CALL SWAP2 DUP3 ISZERO PUSH2 0x4D6E JUMPI DUP4 SWAP3 PUSH2 0x4D51 JUMPI JUMPDEST POP POP ISZERO PUSH2 0x7E0 JUMPI POP JUMP JUMPDEST PUSH2 0x4D67 SWAP3 POP DUP1 RETURNDATASIZE LT PUSH2 0x6CD JUMPI PUSH2 0x6BF DUP2 DUP4 PUSH2 0x3BD8 JUMP JUMPDEST CODESIZE DUP1 PUSH2 0x4D47 JUMP JUMPDEST PUSH1 0x40 MLOAD RETURNDATASIZE DUP6 DUP3 RETURNDATACOPY RETURNDATASIZE SWAP1 REVERT JUMPDEST PUSH2 0x4D96 DUP3 PUSH2 0x2F6C PUSH8 0xF753B67A89598B0B PUSH1 0x19 SHL SWAP4 PUSH1 0x10 SLOAD SWAP1 PUSH2 0x3D48 JUMP JUMPDEST GT PUSH2 0x6E2 JUMPI PUSH2 0x4D35 DUP5 SWAP3 DUP5 SWAP3 PUSH2 0x4D09 JUMP JUMPDEST DUP1 SWAP3 POP DUP6 DUP1 SWAP3 POP RETURNDATASIZE DUP4 GT PUSH2 0x4DD1 JUMPI JUMPDEST PUSH2 0x4DC0 DUP2 DUP4 PUSH2 0x3BD8 JUMP JUMPDEST DUP2 ADD SUB SLT PUSH2 0x6A2 JUMPI DUP2 SWAP1 MLOAD CODESIZE PUSH2 0x4C9E JUMP JUMPDEST POP RETURNDATASIZE PUSH2 0x4DB6 JUMP JUMPDEST PUSH1 0x40 MLOAD RETURNDATASIZE DUP8 DUP3 RETURNDATACOPY RETURNDATASIZE SWAP1 REVERT JUMPDEST PUSH1 0x19 SLOAD PUSH1 0x1 PUSH1 0x40 SHL DUP2 LT ISZERO PUSH2 0x3B71 JUMPI PUSH1 0x1 DUP1 DUP3 ADD DUP1 PUSH1 0x19 SSTORE DUP3 LT ISZERO PUSH2 0x3B06 JUMPI PUSH1 0x0 SWAP1 PUSH1 0x19 DUP3 MSTORE PUSH1 0xC0 PUSH1 0x6 PUSH1 0x20 SWAP5 PUSH1 0x7 DUP7 DUP7 KECCAK256 SWAP2 MUL ADD DUP7 MLOAD DUP2 SSTORE DUP4 DUP2 ADD PUSH1 0x1 DUP1 PUSH1 0xA0 SHL SUB SWAP1 DUP2 DUP9 DUP11 ADD MLOAD AND SWAP1 PUSH1 0x1 DUP1 PUSH1 0xA0 SHL SUB NOT SWAP2 DUP3 DUP3 SLOAD AND OR SWAP1 SSTORE PUSH1 0x2 DUP4 ADD DUP3 PUSH1 0x40 DUP12 ADD MLOAD AND DUP3 DUP3 SLOAD AND OR SWAP1 SSTORE PUSH1 0x3 DUP4 ADD SWAP2 PUSH1 0x60 DUP11 ADD MLOAD AND SWAP1 DUP3 SLOAD AND OR SWAP1 SSTORE PUSH1 0x80 DUP8 ADD MLOAD PUSH1 0x4 DUP3 ADD SSTORE PUSH1 0xA0 DUP8 ADD MLOAD PUSH1 0x5 DUP3 ADD SSTORE ADD SWAP5 ADD MLOAD SWAP2 DUP3 MLOAD SWAP3 PUSH1 0x1 DUP1 PUSH1 0x40 SHL SUB DUP5 GT PUSH2 0x4F7C JUMPI PUSH2 0x4E95 DUP7 SLOAD PUSH2 0x3B1C JUMP JUMPDEST PUSH1 0x1F DUP2 GT PUSH2 0x4F36 JUMPI JUMPDEST POP DUP5 SWAP2 PUSH1 0x1F DUP6 GT PUSH1 0x1 EQ PUSH2 0x4ED7 JUMPI SWAP4 SWAP5 POP DUP5 SWAP3 SWAP2 SWAP1 DUP4 PUSH2 0x4ECC JUMPI JUMPDEST POP POP SHL SWAP2 PUSH1 0x0 NOT SWAP1 PUSH1 0x3 SHL SHR NOT AND OR SWAP1 SSTORE JUMP JUMPDEST ADD MLOAD SWAP3 POP CODESIZE DUP1 PUSH2 0x4EB9 JUMP JUMPDEST DUP7 DUP2 MSTORE DUP6 DUP2 KECCAK256 SWAP4 SWAP6 DUP6 SWAP2 PUSH1 0x1F NOT DUP4 AND SWAP2 JUMPDEST DUP9 DUP4 DUP4 LT PUSH2 0x4F1C JUMPI POP POP POP LT PUSH2 0x4F03 JUMPI JUMPDEST POP POP POP DUP2 SHL ADD SWAP1 SSTORE JUMP JUMPDEST ADD MLOAD PUSH1 0x0 NOT PUSH1 0xF8 DUP5 PUSH1 0x3 SHL AND SHR NOT AND SWAP1 SSTORE CODESIZE DUP1 DUP1 PUSH2 0x4EF9 JUMP JUMPDEST DUP6 DUP8 ADD MLOAD DUP9 SSTORE SWAP1 SWAP7 ADD SWAP6 SWAP5 DUP6 ADD SWAP5 DUP8 SWAP4 POP SWAP1 DUP2 ADD SWAP1 PUSH2 0x4EE8 JUMP JUMPDEST DUP7 DUP4 MSTORE DUP6 DUP4 KECCAK256 PUSH1 0x1F DUP7 ADD PUSH1 0x5 SHR DUP2 ADD SWAP2 DUP8 DUP8 LT PUSH2 0x4F72 JUMPI JUMPDEST PUSH1 0x1F ADD PUSH1 0x5 SHR ADD SWAP1 DUP5 SWAP1 JUMPDEST DUP3 DUP2 LT PUSH2 0x4F67 JUMPI POP POP PUSH2 0x4E9E JUMP JUMPDEST DUP5 DUP2 SSTORE ADD DUP5 SWAP1 PUSH2 0x4F59 JUMP JUMPDEST SWAP1 SWAP2 POP DUP2 SWAP1 PUSH2 0x4F4E JUMP JUMPDEST PUSH4 0x4E487B71 PUSH1 0xE0 SHL DUP3 MSTORE PUSH1 0x41 PUSH1 0x4 MSTORE PUSH1 0x24 DUP3 REVERT JUMPDEST DUP1 SLOAD PUSH1 0x1 PUSH1 0x40 SHL DUP2 LT ISZERO PUSH2 0x3B71 JUMPI PUSH2 0x4FAF SWAP1 PUSH1 0x1 SWAP3 DUP4 DUP3 ADD DUP2 SSTORE PUSH2 0x3AEA JUMP JUMPDEST PUSH2 0x510C JUMPI DUP3 MLOAD DUP2 SSTORE PUSH1 0x20 DUP1 DUP5 ADD MLOAD DUP4 DUP4 ADD DUP1 SLOAD PUSH1 0x1 PUSH1 0x1 PUSH1 0xA0 SHL SUB SWAP3 DUP4 AND PUSH1 0x1 PUSH1 0x1 PUSH1 0xA0 SHL SUB NOT SWAP2 DUP3 AND OR SWAP1 SWAP2 SSTORE PUSH1 0x40 DUP7 ADD MLOAD PUSH1 0x2 DUP6 ADD DUP1 SLOAD SWAP2 DUP5 AND SWAP2 DUP4 AND SWAP2 SWAP1 SWAP2 OR SWAP1 SSTORE PUSH1 0x60 DUP7 ADD MLOAD PUSH1 0x3 DUP6 ADD DUP1 SLOAD SWAP2 SWAP1 SWAP4 AND SWAP2 AND OR SWAP1 SSTORE PUSH1 0x80 DUP5 ADD MLOAD PUSH1 0x4 DUP4 ADD SSTORE PUSH1 0xA0 DUP5 ADD MLOAD PUSH1 0x5 DUP4 ADD SSTORE PUSH1 0xC0 SWAP1 SWAP4 ADD MLOAD DUP1 MLOAD PUSH1 0x6 SWAP1 SWAP3 ADD SWAP4 SWAP1 PUSH1 0x1 PUSH1 0x1 PUSH1 0x40 SHL SUB DUP4 GT PUSH2 0x3B71 JUMPI PUSH2 0x5043 DUP6 SLOAD PUSH2 0x3B1C JUMP JUMPDEST PUSH1 0x1F DUP2 GT PUSH2 0x50C3 JUMPI JUMPDEST POP DUP2 PUSH1 0x1F DUP5 GT PUSH1 0x1 EQ PUSH2 0x507A JUMPI POP SWAP3 DUP3 SWAP4 SWAP2 DUP4 SWAP3 PUSH1 0x0 SWAP5 PUSH2 0x4ECC JUMPI POP POP SHL SWAP2 PUSH1 0x0 NOT SWAP1 PUSH1 0x3 SHL SHR NOT AND OR SWAP1 SSTORE JUMP JUMPDEST SWAP2 SWAP1 DUP4 PUSH1 0x1F NOT DUP2 AND DUP8 PUSH1 0x0 MSTORE DUP5 PUSH1 0x0 KECCAK256 SWAP5 PUSH1 0x0 SWAP1 JUMPDEST DUP9 DUP4 DUP4 LT PUSH2 0x50A9 JUMPI POP POP POP LT PUSH2 0x4F03 JUMPI POP POP POP DUP2 SHL ADD SWAP1 SSTORE JUMP JUMPDEST DUP6 DUP8 ADD MLOAD DUP9 SSTORE SWAP1 SWAP7 ADD SWAP6 SWAP5 DUP6 ADD SWAP5 DUP8 SWAP4 POP SWAP1 DUP2 ADD SWAP1 PUSH2 0x508F JUMP JUMPDEST PUSH1 0x0 DUP7 DUP2 MSTORE DUP4 DUP2 KECCAK256 PUSH1 0x1F DUP7 ADD PUSH1 0x5 SHR DUP2 ADD SWAP3 DUP6 DUP8 LT PUSH2 0x5102 JUMPI JUMPDEST PUSH1 0x1F ADD PUSH1 0x5 SHR ADD SWAP2 DUP7 SWAP1 JUMPDEST DUP4 DUP2 LT PUSH2 0x50F7 JUMPI POP POP POP PUSH2 0x504C JUMP JUMPDEST DUP3 DUP2 SSTORE ADD DUP7 SWAP1 PUSH2 0x50E8 JUMP JUMPDEST SWAP1 SWAP3 POP DUP3 SWAP1 PUSH2 0x50DD JUMP JUMPDEST PUSH4 0x4E487B71 PUSH1 0xE0 SHL PUSH1 0x0 MSTORE PUSH1 0x0 PUSH1 0x4 MSTORE PUSH1 0x24 PUSH1 0x0 REVERT JUMPDEST SWAP3 PUSH2 0x3C39 SWAP5 SWAP2 SWAP3 PUSH1 0x40 MLOAD SWAP5 PUSH2 0x5136 DUP7 PUSH2 0x3B56 JUMP JUMPDEST TIMESTAMP DUP7 MSTORE PUSH1 0x1 DUP1 PUSH1 0xA0 SHL SUB DUP1 SWAP2 AND SWAP5 DUP6 PUSH1 0x20 DUP9 ADD MSTORE PUSH1 0x0 PUSH1 0x40 DUP9 ADD MSTORE AND PUSH1 0x60 DUP7 ADD MSTORE PUSH1 0x80 DUP6 ADD MSTORE PUSH1 0xA0 DUP5 ADD MSTORE PUSH1 0xC0 DUP4 ADD MSTORE PUSH1 0x0 MSTORE PUSH1 0x18 PUSH1 0x20 MSTORE PUSH2 0x517C DUP2 PUSH1 0x40 PUSH1 0x0 KECCAK256 PUSH2 0x4F90 JUMP JUMPDEST PUSH2 0x4DE3 JUMP JUMPDEST SWAP3 PUSH2 0x3C39 SWAP6 SWAP3 SWAP5 SWAP2 SWAP4 PUSH1 0x40 MLOAD SWAP6 PUSH2 0x5197 DUP8 PUSH2 0x3B56 JUMP JUMPDEST TIMESTAMP DUP8 MSTORE PUSH1 0x1 DUP1 PUSH1 0xA0 SHL SUB DUP1 DUP1 SWAP4 AND SWAP7 DUP8 PUSH1 0x20 DUP11 ADD MSTORE AND PUSH1 0x40 DUP9 ADD MSTORE AND PUSH1 0x60 DUP7 ADD MSTORE PUSH1 0x80 DUP6 ADD MSTORE PUSH1 0xA0 DUP5 ADD MSTORE PUSH1 0xC0 DUP4 ADD MSTORE PUSH1 0x0 MSTORE PUSH1 0x18 PUSH1 0x20 MSTORE PUSH2 0x517C DUP2 PUSH1 0x40 PUSH1 0x0 KECCAK256 PUSH2 0x4F90 JUMP JUMPDEST PUSH1 0x1 PUSH1 0x1 PUSH1 0x40 SHL SUB DUP2 GT PUSH2 0x3B71 JUMPI PUSH1 0x5 SHL PUSH1 0x20 ADD SWAP1 JUMP JUMPDEST SWAP1 PUSH1 0x40 MLOAD PUSH2 0x5201 DUP2 PUSH2 0x3B56 JUMP JUMPDEST PUSH1 0xC0 PUSH1 0xFF PUSH1 0x6 DUP4 SWAP6 DUP1 SLOAD DUP6 MSTORE PUSH1 0x1 DUP2 ADD SLOAD PUSH1 0x20 DUP7 ADD MSTORE PUSH1 0x2 DUP2 ADD SLOAD PUSH1 0x40 DUP7 ADD MSTORE PUSH1 0x3 DUP2 ADD SLOAD PUSH1 0x60 DUP7 ADD MSTORE PUSH1 0x4 DUP2 ADD SLOAD PUSH1 0x80 DUP7 ADD MSTORE PUSH1 0x5 DUP2 ADD SLOAD PUSH1 0xA0 DUP7 ADD MSTORE ADD SLOAD AND ISZERO ISZERO SWAP2 ADD MSTORE JUMP JUMPDEST PUSH1 0x40 MLOAD SWAP1 PUSH2 0x5256 DUP3 PUSH2 0x3B56 JUMP JUMPDEST DUP2 PUSH1 0xC0 PUSH1 0x0 SWAP2 DUP3 DUP2 MSTORE DUP3 PUSH1 0x20 DUP3 ADD MSTORE DUP3 PUSH1 0x40 DUP3 ADD MSTORE DUP3 PUSH1 0x60 DUP3 ADD MSTORE DUP3 PUSH1 0x80 DUP3 ADD MSTORE DUP3 PUSH1 0xA0 DUP3 ADD MSTORE ADD MSTORE JUMP INVALID CALLDATACOPY PUSH27 0xADEDB6B2A771959584D10A6A36ECCB5F56B4EB3A48525F76108D26 PUSH1 0xD8 0xD4 0xF8 PUSH29 0xFA2D5FEAEA949AD65BB76A26D8553381BCB6382ADBC83DEDD48961BF32 0xD9 0x5F SHR LOG2 0xFC 0xC1 ADDMOD 0xB7 MLOAD DUP5 GASPRICE PUSH23 0x3E60D2201F593516109D7DBB1B700468F2D4190BB76E83 DUP16 0x2A SUB PUSH21 0x1F5F2AFF5480963B672FB0DD8430A4DC75DB9B67CE STOP SWAP8 CALLER 0xC9 INVALID PUSH32 0xC4727E062E336010F2C282598EF5F14FACB3DE68CF8195C2F23E1454B2B74EB2 RETURNDATACOPY SMOD LOG4 0xFC OR 0x1F 0x5F SWAP3 TIMESTAMP 0xD4 0x25 0x4C EXTCODESIZE PUSH7 0xB893BEAAB2F378 PUSH21 0x95C0F2D09DD3EF972691B089318BBDF627BACEC662 DUP8 EXTCODECOPY SLT 0xCC GASPRICE REVERT 0xC6 SWAP14 0xB7 EXTCODEHASH ADDMOD 0x4D PUSH24 0x26E9CE2907280AA164736F6C6343000813000A0000000000 "},"methodIdentifiers":{"DOMAIN_SEPARATOR()":"3644e515","EARLY_WITHDRAWAL_PENALTY_PERCENT()":"9c0fbd05","TOTAL_TOKENS_FOR_SALE()":"92feb849","WAITLIST_ALLOCATION()":"d8dc286a","WL_REF_TYPEHASH()":"ecb2dd74","allTransactions(uint256)":"d7ff0714","baseAPY()":"214405a9","blockedAddresses(address)":"4f93208a","bnbPriceFeed()":"df9189b4","bnbRatio()":"032d975b","btcAddress()":"f7d76ae5","btcPriceFeed()":"23164c93","btcRatio()":"1c042d35","buyWithBNB()":"20f1fc61","buyWithBNB_Voucher((address,address,uint256,uint256),bytes)":"7df74181","buyWithBTC(uint256)":"06360b85","buyWithBTC_Voucher((address,address,uint256,uint256),bytes,uint256)":"7ea61fe3","buyWithETH(uint256)":"94dc9cf3","buyWithETH_Voucher((address,address,uint256,uint256),bytes,uint256)":"3a5d4175","buyWithSOL(uint256)":"f30ef2e5","buyWithSOL_Voucher((address,address,uint256,uint256),bytes,uint256)":"14ce670b","buyWithUSDC(uint256)":"aeccf735","buyWithUSDC_Voucher((address,address,uint256,uint256),bytes,uint256)":"a77c80aa","buyWithUSDT(uint256)":"a7c60160","buyWithUSDT_Voucher((address,address,uint256,uint256),bytes,uint256)":"2ba77022","calculateRewards(uint256)":"d3ea4350","delegationChecker()":"acb9de56","ethAddress()":"41398b15","ethPriceFeed()":"af7665ce","ethRatio()":"bc5894ba","getAllTransactions()":"27506f53","getContractInfo()":"7cc1f867","getCurrentPrice(address)":"84cc315b","getPriceInfo(address)":"8edbf436","getReferralInfo(address)":"21874ae2","getStakeDetails(uint256)":"963c9dd3","getStakeInfo(uint256)":"09813482","getStakingInfo()":"b40cd21d","getTokenBalances()":"a1dc9031","getTotalPenaltyCollected()":"491cc756","getUserReferrals(address)":"575cea6b","getUserStakes(address)":"842e2981","getUserStakingInfo(address)":"80933608","getUserTransactions(address)":"ef925399","harvestRewards(uint256)":"57126d0d","hasStaked(address)":"c93c8f34","initialUsdtPricePerToken()":"0f6b1765","minStakeAmount()":"f1887684","nextStakeId()":"75506c96","owner()":"8da5cb5b","publicInterval()":"776ff66a","referralRewardPercentage()":"920a253e","referralRewards(address)":"53aaa63b","referrals(address,uint256)":"e697b5d8","referrers(address)":"4a3b68cc","registerReferrer(address)":"9ea7685a","saleStartTime()":"1cbaee2d","saleToken()":"e985e367","setBNBPriceFeed(address)":"0a5a4e4c","setBTCPriceFeed(address)":"9cd03330","setBlockStatus(address,bool)":"182a676b","setDelegationChecker(address)":"b6b9ca84","setETHPriceFeed(address)":"7b875114","setIntervals(uint256,uint256)":"d0e04684","setSOLPriceFeed(address)":"232ec691","setSaleStartTime(uint256)":"525f8a5c","setSaleToken(address)":"a29f481c","setSigner(address)":"6c19e783","setSweeper(address,bool)":"485e7ba5","setWaitlisted(address,bool)":"42e97cb8","signer()":"238ac933","solAddress()":"1ce24e16","solPriceFeed()":"9bd0b7c0","solRatio()":"7a9773dc","stablecoinDecimals()":"f347f505","stakeOwners(uint256)":"fd9a11e5","stakeTokens(uint256,uint256)":"3b7b6188","sweeperList(address)":"f520ccf3","tokensSold()":"518ab2a8","totalPenaltyCollected()":"2bb38809","totalRewardsDistributed()":"ee172546","totalStaked()":"817b1cd2","totalStakers()":"86989038","unstakeEarly(uint256)":"2fd04c08","unstakeTokens(uint256)":"608e4dd0","updateBTC(address)":"3d50bae5","updateBaseAPY(uint256)":"71d20fe7","updateETH(address)":"ad522d27","updateInitialUsdtPrice(uint256)":"5f6991ef","updateMinStakeAmount(uint256)":"d8060cd5","updateReferralPercentage(uint256)":"4cdb312d","updateSOL(address)":"a464db14","updateUSDC(address)":"910c6855","updateUSDT(address)":"61b148fb","updateUsdtPriceIncrement(uint256)":"8ccdbf50","usdcAddress()":"02d45457","usdcRatio()":"6f43f373","usdtAddress()":"9ab4a445","usdtPriceIncrement()":"f53be9b1","usdtRatio()":"83fabe03","usedNonce(address)":"3e61e9dc","userStakes(address,uint256)":"b5d5b5fa","userTransactions(address,uint256)":"b842ec44","waitlistInterval()":"862dd2e2","waitlistSold()":"4561f1e1","waitlisted(address)":"794a3292","withdrawTokens(address,uint256)":"06b091f9"}}}}}