{"contracts/mock/MockPriceFeed.sol":{"MockPriceFeed":{"abi":[{"inputs":[{"internalType":"uint8","name":"_decimals","type":"uint8"},{"internalType":"int256","name":"initialAnswer","type":"int256"}],"stateMutability":"nonpayable","type":"constructor"},{"inputs":[],"name":"decimals","outputs":[{"internalType":"uint8","name":"","type":"uint8"}],"stateMutability":"view","type":"function"},{"inputs":[],"name":"latestRoundData","outputs":[{"internalType":"uint80","name":"roundId","type":"uint80"},{"internalType":"int256","name":"answer","type":"int256"},{"internalType":"uint256","name":"startedAt","type":"uint256"},{"internalType":"uint256","name":"updatedAt","type":"uint256"},{"internalType":"uint80","name":"answeredInRound","type":"uint80"}],"stateMutability":"view","type":"function"},{"inputs":[{"internalType":"int256","name":"newAnswer","type":"int256"}],"name":"updateAnswer","outputs":[],"stateMutability":"nonpayable","type":"function"}],"evm":{"bytecode":{"linkReferences":{},"object":"60803461006c57601f61014238819003918201601f19168301916001600160401b0383118484101761007157808492604094855283398101031261006c5780519060ff821680920361006c57602001519060ff19600054161760005560015560405160ba90816100888239f35b600080fd5b634e487b7160e01b600052604160045260246000fdfe6080806040526004361015601257600080fd5b600090813560e01c908163313ce56714608e57508063a87a20ce1460755763feaf968c14603e57600080fd5b346072578060031936011260725760a090600154906040519181835260208301528060408301528060608301526080820152f35b80fd5b5034607257602036600319011260725760043560015580f35b90503460a9578160031936011260a95760ff60209254168152f35b5080fdfea164736f6c6343000813000a","opcodes":"PUSH1 0x80 CALLVALUE PUSH2 0x6C JUMPI PUSH1 0x1F PUSH2 0x142 CODESIZE DUP2 SWAP1 SUB SWAP2 DUP3 ADD PUSH1 0x1F NOT AND DUP4 ADD SWAP2 PUSH1 0x1 PUSH1 0x1 PUSH1 0x40 SHL SUB DUP4 GT DUP5 DUP5 LT OR PUSH2 0x71 JUMPI DUP1 DUP5 SWAP3 PUSH1 0x40 SWAP5 DUP6 MSTORE DUP4 CODECOPY DUP2 ADD SUB SLT PUSH2 0x6C JUMPI DUP1 MLOAD SWAP1 PUSH1 0xFF DUP3 AND DUP1 SWAP3 SUB PUSH2 0x6C JUMPI PUSH1 0x20 ADD MLOAD SWAP1 PUSH1 0xFF NOT PUSH1 0x0 SLOAD AND OR PUSH1 0x0 SSTORE PUSH1 0x1 SSTORE PUSH1 0x40 MLOAD PUSH1 0xBA SWAP1 DUP2 PUSH2 0x88 DUP3 CODECOPY RETURN JUMPDEST PUSH1 0x0 DUP1 REVERT JUMPDEST PUSH4 0x4E487B71 PUSH1 0xE0 SHL PUSH1 0x0 MSTORE PUSH1 0x41 PUSH1 0x4 MSTORE PUSH1 0x24 PUSH1 0x0 REVERT INVALID PUSH1 0x80 DUP1 PUSH1 0x40 MSTORE PUSH1 0x4 CALLDATASIZE LT ISZERO PUSH1 0x12 JUMPI PUSH1 0x0 DUP1 REVERT JUMPDEST PUSH1 0x0 SWAP1 DUP2 CALLDATALOAD PUSH1 0xE0 SHR SWAP1 DUP2 PUSH4 0x313CE567 EQ PUSH1 0x8E JUMPI POP DUP1 PUSH4 0xA87A20CE EQ PUSH1 0x75 JUMPI PUSH4 0xFEAF968C EQ PUSH1 0x3E JUMPI PUSH1 0x0 DUP1 REVERT JUMPDEST CALLVALUE PUSH1 0x72 JUMPI DUP1 PUSH1 0x3 NOT CALLDATASIZE ADD SLT PUSH1 0x72 JUMPI PUSH1 0xA0 SWAP1 PUSH1 0x1 SLOAD SWAP1 PUSH1 0x40 MLOAD SWAP2 DUP2 DUP4 MSTORE PUSH1 0x20 DUP4 ADD MSTORE DUP1 PUSH1 0x40 DUP4 ADD MSTORE DUP1 PUSH1 0x60 DUP4 ADD MSTORE PUSH1 0x80 DUP3 ADD MSTORE RETURN JUMPDEST DUP1 REVERT JUMPDEST POP CALLVALUE PUSH1 0x72 JUMPI PUSH1 0x20 CALLDATASIZE PUSH1 0x3 NOT ADD SLT PUSH1 0x72 JUMPI PUSH1 0x4 CALLDATALOAD PUSH1 0x1 SSTORE DUP1 RETURN JUMPDEST SWAP1 POP CALLVALUE PUSH1 0xA9 JUMPI DUP2 PUSH1 0x3 NOT CALLDATASIZE ADD SLT PUSH1 0xA9 JUMPI PUSH1 0xFF PUSH1 0x20 SWAP3 SLOAD AND DUP2 MSTORE RETURN JUMPDEST POP DUP1 REVERT INVALID LOG1 PUSH5 0x736F6C6343 STOP ADDMOD SGT STOP EXP "},"methodIdentifiers":{"decimals()":"313ce567","latestRoundData()":"feaf968c","updateAnswer(int256)":"a87a20ce"}}}}}