{
  "_format": "hh-sol-artifact-1",
  "contractName": "TokenICO",
  "sourceName": "contracts/TokenICO.sol",
  "abi": [
    {
      "inputs": [],
      "stateMutability": "nonpayable",
      "type": "constructor"
    },
    {
      "anonymous": false,
      "inputs": [
        {
          "indexed": false,
          "internalType": "uint256",
          "name": "oldAPY",
          "type": "uint256"
        },
        {
          "indexed": false,
          "internalType": "uint256",
          "name": "newAPY",
          "type": "uint256"
        }
      ],
      "name": "APYUpdated",
      "type": "event"
    },
    {
      "anonymous": false,
      "inputs": [
        {
          "indexed": true,
          "internalType": "address",
          "name": "user",
          "type": "address"
        },
        {
          "indexed": false,
          "internalType": "bool",
          "name": "blocked",
          "type": "bool"
        }
      ],
      "name": "AddressBlocked",
      "type": "event"
    },
    {
      "anonymous": false,
      "inputs": [
        {
          "indexed": true,
          "internalType": "address",
          "name": "user",
          "type": "address"
        },
        {
          "indexed": true,
          "internalType": "uint256",
          "name": "stakeId",
          "type": "uint256"
        },
        {
          "indexed": false,
          "internalType": "uint256",
          "name": "amount",
          "type": "uint256"
        },
        {
          "indexed": false,
          "internalType": "uint256",
          "name": "penalty",
          "type": "uint256"
        }
      ],
      "name": "EarlyUnstake",
      "type": "event"
    },
    {
      "anonymous": false,
      "inputs": [
        {
          "indexed": false,
          "internalType": "uint256",
          "name": "oldMinStake",
          "type": "uint256"
        },
        {
          "indexed": false,
          "internalType": "uint256",
          "name": "newMinStake",
          "type": "uint256"
        }
      ],
      "name": "MinStakeUpdated",
      "type": "event"
    },
    {
      "anonymous": false,
      "inputs": [
        {
          "indexed": false,
          "internalType": "string",
          "name": "priceType",
          "type": "string"
        },
        {
          "indexed": false,
          "internalType": "uint256",
          "name": "oldPrice",
          "type": "uint256"
        },
        {
          "indexed": false,
          "internalType": "uint256",
          "name": "newPrice",
          "type": "uint256"
        }
      ],
      "name": "PriceUpdated",
      "type": "event"
    },
    {
      "anonymous": false,
      "inputs": [
        {
          "indexed": false,
          "internalType": "uint256",
          "name": "oldPercentage",
          "type": "uint256"
        },
        {
          "indexed": false,
          "internalType": "uint256",
          "name": "newPercentage",
          "type": "uint256"
        }
      ],
      "name": "ReferralPercentageUpdated",
      "type": "event"
    },
    {
      "anonymous": false,
      "inputs": [
        {
          "indexed": true,
          "internalType": "address",
          "name": "referrer",
          "type": "address"
        },
        {
          "indexed": true,
          "internalType": "address",
          "name": "referee",
          "type": "address"
        }
      ],
      "name": "ReferralRegistered",
      "type": "event"
    },
    {
      "anonymous": false,
      "inputs": [
        {
          "indexed": true,
          "internalType": "address",
          "name": "referrer",
          "type": "address"
        },
        {
          "indexed": true,
          "internalType": "address",
          "name": "referee",
          "type": "address"
        },
        {
          "indexed": false,
          "internalType": "uint256",
          "name": "amount",
          "type": "uint256"
        }
      ],
      "name": "ReferralRewardPaid",
      "type": "event"
    },
    {
      "anonymous": false,
      "inputs": [
        {
          "indexed": true,
          "internalType": "address",
          "name": "user",
          "type": "address"
        },
        {
          "indexed": true,
          "internalType": "uint256",
          "name": "stakeId",
          "type": "uint256"
        },
        {
          "indexed": false,
          "internalType": "uint256",
          "name": "reward",
          "type": "uint256"
        }
      ],
      "name": "RewardHarvested",
      "type": "event"
    },
    {
      "anonymous": false,
      "inputs": [
        {
          "indexed": true,
          "internalType": "address",
          "name": "buyer",
          "type": "address"
        },
        {
          "indexed": true,
          "internalType": "address",
          "name": "stablecoin",
          "type": "address"
        },
        {
          "indexed": false,
          "internalType": "uint256",
          "name": "stablecoinAmount",
          "type": "uint256"
        },
        {
          "indexed": false,
          "internalType": "uint256",
          "name": "ethPaid",
          "type": "uint256"
        },
        {
          "indexed": false,
          "internalType": "uint256",
          "name": "timestamp",
          "type": "uint256"
        }
      ],
      "name": "StablecoinSold",
      "type": "event"
    },
    {
      "anonymous": false,
      "inputs": [
        {
          "indexed": true,
          "internalType": "address",
          "name": "user",
          "type": "address"
        },
        {
          "indexed": true,
          "internalType": "uint256",
          "name": "stakeId",
          "type": "uint256"
        },
        {
          "indexed": false,
          "internalType": "uint256",
          "name": "amount",
          "type": "uint256"
        },
        {
          "indexed": false,
          "internalType": "uint256",
          "name": "lockPeriod",
          "type": "uint256"
        }
      ],
      "name": "Staked",
      "type": "event"
    },
    {
      "anonymous": false,
      "inputs": [
        {
          "indexed": true,
          "internalType": "address",
          "name": "buyer",
          "type": "address"
        },
        {
          "indexed": true,
          "internalType": "address",
          "name": "paymentMethod",
          "type": "address"
        },
        {
          "indexed": false,
          "internalType": "uint256",
          "name": "amountPaid",
          "type": "uint256"
        },
        {
          "indexed": false,
          "internalType": "uint256",
          "name": "tokensBought",
          "type": "uint256"
        },
        {
          "indexed": false,
          "internalType": "uint256",
          "name": "timestamp",
          "type": "uint256"
        }
      ],
      "name": "TokensPurchased",
      "type": "event"
    },
    {
      "anonymous": false,
      "inputs": [
        {
          "indexed": true,
          "internalType": "address",
          "name": "user",
          "type": "address"
        },
        {
          "indexed": true,
          "internalType": "uint256",
          "name": "stakeId",
          "type": "uint256"
        },
        {
          "indexed": false,
          "internalType": "uint256",
          "name": "amount",
          "type": "uint256"
        }
      ],
      "name": "Unstaked",
      "type": "event"
    },
    {
      "inputs": [],
      "name": "EARLY_WITHDRAWAL_PENALTY_PERCENT",
      "outputs": [
        {
          "internalType": "uint256",
          "name": "",
          "type": "uint256"
        }
      ],
      "stateMutability": "view",
      "type": "function"
    },
    {
      "inputs": [
        {
          "internalType": "uint256",
          "name": "",
          "type": "uint256"
        }
      ],
      "name": "allTransactions",
      "outputs": [
        {
          "internalType": "uint256",
          "name": "timestamp",
          "type": "uint256"
        },
        {
          "internalType": "address",
          "name": "user",
          "type": "address"
        },
        {
          "internalType": "address",
          "name": "tokenIn",
          "type": "address"
        },
        {
          "internalType": "address",
          "name": "tokenOut",
          "type": "address"
        },
        {
          "internalType": "uint256",
          "name": "amountIn",
          "type": "uint256"
        },
        {
          "internalType": "uint256",
          "name": "amountOut",
          "type": "uint256"
        },
        {
          "internalType": "string",
          "name": "transactionType",
          "type": "string"
        }
      ],
      "stateMutability": "view",
      "type": "function"
    },
    {
      "inputs": [],
      "name": "baseAPY",
      "outputs": [
        {
          "internalType": "uint256",
          "name": "",
          "type": "uint256"
        }
      ],
      "stateMutability": "view",
      "type": "function"
    },
    {
      "inputs": [
        {
          "internalType": "address",
          "name": "",
          "type": "address"
        }
      ],
      "name": "blockedAddresses",
      "outputs": [
        {
          "internalType": "bool",
          "name": "",
          "type": "bool"
        }
      ],
      "stateMutability": "view",
      "type": "function"
    },
    {
      "inputs": [],
      "name": "bnbAddress",
      "outputs": [
        {
          "internalType": "address",
          "name": "",
          "type": "address"
        }
      ],
      "stateMutability": "view",
      "type": "function"
    },
    {
      "inputs": [],
      "name": "bnbRatio",
      "outputs": [
        {
          "internalType": "uint256",
          "name": "",
          "type": "uint256"
        }
      ],
      "stateMutability": "view",
      "type": "function"
    },
    {
      "inputs": [],
      "name": "buyUSDC",
      "outputs": [],
      "stateMutability": "payable",
      "type": "function"
    },
    {
      "inputs": [],
      "name": "buyUSDT",
      "outputs": [],
      "stateMutability": "payable",
      "type": "function"
    },
    {
      "inputs": [
        {
          "internalType": "uint256",
          "name": "bnbAmount",
          "type": "uint256"
        }
      ],
      "name": "buyWithBNB",
      "outputs": [],
      "stateMutability": "nonpayable",
      "type": "function"
    },
    {
      "inputs": [],
      "name": "buyWithETH",
      "outputs": [],
      "stateMutability": "payable",
      "type": "function"
    },
    {
      "inputs": [
        {
          "internalType": "uint256",
          "name": "solAmount",
          "type": "uint256"
        }
      ],
      "name": "buyWithSOL",
      "outputs": [],
      "stateMutability": "nonpayable",
      "type": "function"
    },
    {
      "inputs": [
        {
          "internalType": "uint256",
          "name": "usdcAmount",
          "type": "uint256"
        }
      ],
      "name": "buyWithUSDC",
      "outputs": [],
      "stateMutability": "nonpayable",
      "type": "function"
    },
    {
      "inputs": [
        {
          "internalType": "uint256",
          "name": "usdtAmount",
          "type": "uint256"
        }
      ],
      "name": "buyWithUSDT",
      "outputs": [],
      "stateMutability": "nonpayable",
      "type": "function"
    },
    {
      "inputs": [
        {
          "internalType": "uint256",
          "name": "stakeId",
          "type": "uint256"
        }
      ],
      "name": "calculateRewards",
      "outputs": [
        {
          "internalType": "uint256",
          "name": "",
          "type": "uint256"
        }
      ],
      "stateMutability": "view",
      "type": "function"
    },
    {
      "inputs": [],
      "name": "ethPriceForStablecoin",
      "outputs": [
        {
          "internalType": "uint256",
          "name": "",
          "type": "uint256"
        }
      ],
      "stateMutability": "view",
      "type": "function"
    },
    {
      "inputs": [],
      "name": "ethPriceForToken",
      "outputs": [
        {
          "internalType": "uint256",
          "name": "",
          "type": "uint256"
        }
      ],
      "stateMutability": "view",
      "type": "function"
    },
    {
      "inputs": [],
      "name": "getAllTransactions",
      "outputs": [
        {
          "components": [
            {
              "internalType": "uint256",
              "name": "timestamp",
              "type": "uint256"
            },
            {
              "internalType": "address",
              "name": "user",
              "type": "address"
            },
            {
              "internalType": "address",
              "name": "tokenIn",
              "type": "address"
            },
            {
              "internalType": "address",
              "name": "tokenOut",
              "type": "address"
            },
            {
              "internalType": "uint256",
              "name": "amountIn",
              "type": "uint256"
            },
            {
              "internalType": "uint256",
              "name": "amountOut",
              "type": "uint256"
            },
            {
              "internalType": "string",
              "name": "transactionType",
              "type": "string"
            }
          ],
          "internalType": "struct TokenICO.Transaction[]",
          "name": "",
          "type": "tuple[]"
        }
      ],
      "stateMutability": "view",
      "type": "function"
    },
    {
      "inputs": [],
      "name": "getContractInfo",
      "outputs": [
        {
          "internalType": "address",
          "name": "tokenAddress",
          "type": "address"
        },
        {
          "internalType": "uint256",
          "name": "tokenBalance",
          "type": "uint256"
        },
        {
          "internalType": "uint256",
          "name": "ethPrice",
          "type": "uint256"
        },
        {
          "internalType": "uint256",
          "name": "stablecoinPrice",
          "type": "uint256"
        },
        {
          "internalType": "uint256",
          "name": "totalSold",
          "type": "uint256"
        },
        {
          "internalType": "address",
          "name": "usdtAddr",
          "type": "address"
        },
        {
          "internalType": "address",
          "name": "usdcAddr",
          "type": "address"
        },
        {
          "internalType": "uint256",
          "name": "usdtTokenRatio",
          "type": "uint256"
        },
        {
          "internalType": "uint256",
          "name": "usdcTokenRatio",
          "type": "uint256"
        }
      ],
      "stateMutability": "view",
      "type": "function"
    },
    {
      "inputs": [
        {
          "internalType": "address",
          "name": "user",
          "type": "address"
        }
      ],
      "name": "getReferralInfo",
      "outputs": [
        {
          "internalType": "address",
          "name": "referrer",
          "type": "address"
        },
        {
          "internalType": "uint256",
          "name": "totalReferrals",
          "type": "uint256"
        },
        {
          "internalType": "uint256",
          "name": "totalRewardsEarned",
          "type": "uint256"
        },
        {
          "internalType": "uint256",
          "name": "rewardPercentage",
          "type": "uint256"
        }
      ],
      "stateMutability": "view",
      "type": "function"
    },
    {
      "inputs": [
        {
          "internalType": "uint256",
          "name": "stakeId",
          "type": "uint256"
        }
      ],
      "name": "getStakeDetails",
      "outputs": [
        {
          "internalType": "uint256",
          "name": "lockPeriod",
          "type": "uint256"
        },
        {
          "internalType": "uint256",
          "name": "pendingRewards",
          "type": "uint256"
        },
        {
          "internalType": "bool",
          "name": "active",
          "type": "bool"
        }
      ],
      "stateMutability": "view",
      "type": "function"
    },
    {
      "inputs": [
        {
          "internalType": "uint256",
          "name": "stakeId",
          "type": "uint256"
        }
      ],
      "name": "getStakeInfo",
      "outputs": [
        {
          "internalType": "uint256",
          "name": "id",
          "type": "uint256"
        },
        {
          "internalType": "address",
          "name": "stakeOwnerAddr",
          "type": "address"
        },
        {
          "internalType": "uint256",
          "name": "amount",
          "type": "uint256"
        },
        {
          "internalType": "uint256",
          "name": "startTime",
          "type": "uint256"
        }
      ],
      "stateMutability": "view",
      "type": "function"
    },
    {
      "inputs": [],
      "name": "getStakingInfo",
      "outputs": [
        {
          "internalType": "uint256",
          "name": "baseApyRate",
          "type": "uint256"
        },
        {
          "internalType": "uint256",
          "name": "minStakingAmount",
          "type": "uint256"
        },
        {
          "internalType": "uint256",
          "name": "totalTokensStaked",
          "type": "uint256"
        },
        {
          "internalType": "uint256",
          "name": "totalRewardsPaid",
          "type": "uint256"
        },
        {
          "internalType": "uint256",
          "name": "numberOfStakers",
          "type": "uint256"
        }
      ],
      "stateMutability": "view",
      "type": "function"
    },
    {
      "inputs": [],
      "name": "getTokenBalances",
      "outputs": [
        {
          "internalType": "uint256",
          "name": "tokenBalance",
          "type": "uint256"
        },
        {
          "internalType": "uint256",
          "name": "usdtBalance",
          "type": "uint256"
        },
        {
          "internalType": "uint256",
          "name": "usdcBalance",
          "type": "uint256"
        }
      ],
      "stateMutability": "view",
      "type": "function"
    },
    {
      "inputs": [],
      "name": "getTotalPenaltyCollected",
      "outputs": [
        {
          "internalType": "uint256",
          "name": "",
          "type": "uint256"
        }
      ],
      "stateMutability": "view",
      "type": "function"
    },
    {
      "inputs": [
        {
          "internalType": "address",
          "name": "referrer",
          "type": "address"
        }
      ],
      "name": "getUserReferrals",
      "outputs": [
        {
          "internalType": "address[]",
          "name": "",
          "type": "address[]"
        }
      ],
      "stateMutability": "view",
      "type": "function"
    },
    {
      "inputs": [
        {
          "internalType": "address",
          "name": "user",
          "type": "address"
        }
      ],
      "name": "getUserStakes",
      "outputs": [
        {
          "components": [
            {
              "internalType": "uint256",
              "name": "id",
              "type": "uint256"
            },
            {
              "internalType": "uint256",
              "name": "amount",
              "type": "uint256"
            },
            {
              "internalType": "uint256",
              "name": "startTime",
              "type": "uint256"
            },
            {
              "internalType": "uint256",
              "name": "lockPeriod",
              "type": "uint256"
            },
            {
              "internalType": "uint256",
              "name": "lastRewardCalculation",
              "type": "uint256"
            },
            {
              "internalType": "uint256",
              "name": "pendingRewards",
              "type": "uint256"
            },
            {
              "internalType": "bool",
              "name": "active",
              "type": "bool"
            }
          ],
          "internalType": "struct TokenICO.Stake[]",
          "name": "",
          "type": "tuple[]"
        }
      ],
      "stateMutability": "view",
      "type": "function"
    },
    {
      "inputs": [
        {
          "internalType": "address",
          "name": "user",
          "type": "address"
        }
      ],
      "name": "getUserStakingInfo",
      "outputs": [
        {
          "internalType": "uint256",
          "name": "totalUserStaked",
          "type": "uint256"
        },
        {
          "internalType": "uint256",
          "name": "totalPendingRewards",
          "type": "uint256"
        },
        {
          "internalType": "uint256",
          "name": "activeStakesCount",
          "type": "uint256"
        }
      ],
      "stateMutability": "view",
      "type": "function"
    },
    {
      "inputs": [
        {
          "internalType": "address",
          "name": "user",
          "type": "address"
        }
      ],
      "name": "getUserTransactions",
      "outputs": [
        {
          "components": [
            {
              "internalType": "uint256",
              "name": "timestamp",
              "type": "uint256"
            },
            {
              "internalType": "address",
              "name": "user",
              "type": "address"
            },
            {
              "internalType": "address",
              "name": "tokenIn",
              "type": "address"
            },
            {
              "internalType": "address",
              "name": "tokenOut",
              "type": "address"
            },
            {
              "internalType": "uint256",
              "name": "amountIn",
              "type": "uint256"
            },
            {
              "internalType": "uint256",
              "name": "amountOut",
              "type": "uint256"
            },
            {
              "internalType": "string",
              "name": "transactionType",
              "type": "string"
            }
          ],
          "internalType": "struct TokenICO.Transaction[]",
          "name": "",
          "type": "tuple[]"
        }
      ],
      "stateMutability": "view",
      "type": "function"
    },
    {
      "inputs": [
        {
          "internalType": "uint256",
          "name": "stakeId",
          "type": "uint256"
        }
      ],
      "name": "harvestRewards",
      "outputs": [],
      "stateMutability": "nonpayable",
      "type": "function"
    },
    {
      "inputs": [
        {
          "internalType": "address",
          "name": "",
          "type": "address"
        }
      ],
      "name": "hasStaked",
      "outputs": [
        {
          "internalType": "bool",
          "name": "",
          "type": "bool"
        }
      ],
      "stateMutability": "view",
      "type": "function"
    },
    {
      "inputs": [],
      "name": "minStakeAmount",
      "outputs": [
        {
          "internalType": "uint256",
          "name": "",
          "type": "uint256"
        }
      ],
      "stateMutability": "view",
      "type": "function"
    },
    {
      "inputs": [],
      "name": "nextStakeId",
      "outputs": [
        {
          "internalType": "uint256",
          "name": "",
          "type": "uint256"
        }
      ],
      "stateMutability": "view",
      "type": "function"
    },
    {
      "inputs": [],
      "name": "owner",
      "outputs": [
        {
          "internalType": "address",
          "name": "",
          "type": "address"
        }
      ],
      "stateMutability": "view",
      "type": "function"
    },
    {
      "inputs": [],
      "name": "referralRewardPercentage",
      "outputs": [
        {
          "internalType": "uint256",
          "name": "",
          "type": "uint256"
        }
      ],
      "stateMutability": "view",
      "type": "function"
    },
    {
      "inputs": [
        {
          "internalType": "address",
          "name": "",
          "type": "address"
        }
      ],
      "name": "referralRewards",
      "outputs": [
        {
          "internalType": "uint256",
          "name": "",
          "type": "uint256"
        }
      ],
      "stateMutability": "view",
      "type": "function"
    },
    {
      "inputs": [
        {
          "internalType": "address",
          "name": "",
          "type": "address"
        },
        {
          "internalType": "uint256",
          "name": "",
          "type": "uint256"
        }
      ],
      "name": "referrals",
      "outputs": [
        {
          "internalType": "address",
          "name": "",
          "type": "address"
        }
      ],
      "stateMutability": "view",
      "type": "function"
    },
    {
      "inputs": [
        {
          "internalType": "address",
          "name": "",
          "type": "address"
        }
      ],
      "name": "referrers",
      "outputs": [
        {
          "internalType": "address",
          "name": "",
          "type": "address"
        }
      ],
      "stateMutability": "view",
      "type": "function"
    },
    {
      "inputs": [
        {
          "internalType": "address",
          "name": "referrer",
          "type": "address"
        }
      ],
      "name": "registerReferrer",
      "outputs": [],
      "stateMutability": "nonpayable",
      "type": "function"
    },
    {
      "inputs": [],
      "name": "saleToken",
      "outputs": [
        {
          "internalType": "address",
          "name": "",
          "type": "address"
        }
      ],
      "stateMutability": "view",
      "type": "function"
    },
    {
      "inputs": [
        {
          "internalType": "address",
          "name": "user",
          "type": "address"
        },
        {
          "internalType": "bool",
          "name": "blocked",
          "type": "bool"
        }
      ],
      "name": "setBlockStatus",
      "outputs": [],
      "stateMutability": "nonpayable",
      "type": "function"
    },
    {
      "inputs": [
        {
          "internalType": "address",
          "name": "_token",
          "type": "address"
        }
      ],
      "name": "setSaleToken",
      "outputs": [],
      "stateMutability": "nonpayable",
      "type": "function"
    },
    {
      "inputs": [],
      "name": "solAddress",
      "outputs": [
        {
          "internalType": "address",
          "name": "",
          "type": "address"
        }
      ],
      "stateMutability": "view",
      "type": "function"
    },
    {
      "inputs": [],
      "name": "solRatio",
      "outputs": [
        {
          "internalType": "uint256",
          "name": "",
          "type": "uint256"
        }
      ],
      "stateMutability": "view",
      "type": "function"
    },
    {
      "inputs": [
        {
          "internalType": "uint256",
          "name": "",
          "type": "uint256"
        }
      ],
      "name": "stakeOwners",
      "outputs": [
        {
          "internalType": "address",
          "name": "",
          "type": "address"
        }
      ],
      "stateMutability": "view",
      "type": "function"
    },
    {
      "inputs": [
        {
          "internalType": "uint256",
          "name": "amount",
          "type": "uint256"
        },
        {
          "internalType": "uint256",
          "name": "lockPeriodDays",
          "type": "uint256"
        }
      ],
      "name": "stakeTokens",
      "outputs": [],
      "stateMutability": "nonpayable",
      "type": "function"
    },
    {
      "inputs": [],
      "name": "tokensSold",
      "outputs": [
        {
          "internalType": "uint256",
          "name": "",
          "type": "uint256"
        }
      ],
      "stateMutability": "view",
      "type": "function"
    },
    {
      "inputs": [],
      "name": "totalPenaltyCollected",
      "outputs": [
        {
          "internalType": "uint256",
          "name": "",
          "type": "uint256"
        }
      ],
      "stateMutability": "view",
      "type": "function"
    },
    {
      "inputs": [],
      "name": "totalRewardsDistributed",
      "outputs": [
        {
          "internalType": "uint256",
          "name": "",
          "type": "uint256"
        }
      ],
      "stateMutability": "view",
      "type": "function"
    },
    {
      "inputs": [],
      "name": "totalStaked",
      "outputs": [
        {
          "internalType": "uint256",
          "name": "",
          "type": "uint256"
        }
      ],
      "stateMutability": "view",
      "type": "function"
    },
    {
      "inputs": [],
      "name": "totalStakers",
      "outputs": [
        {
          "internalType": "uint256",
          "name": "",
          "type": "uint256"
        }
      ],
      "stateMutability": "view",
      "type": "function"
    },
    {
      "inputs": [
        {
          "internalType": "uint256",
          "name": "stakeId",
          "type": "uint256"
        }
      ],
      "name": "unstakeEarly",
      "outputs": [],
      "stateMutability": "nonpayable",
      "type": "function"
    },
    {
      "inputs": [
        {
          "internalType": "uint256",
          "name": "stakeId",
          "type": "uint256"
        }
      ],
      "name": "unstakeTokens",
      "outputs": [],
      "stateMutability": "nonpayable",
      "type": "function"
    },
    {
      "inputs": [
        {
          "internalType": "address",
          "name": "newAddress",
          "type": "address"
        },
        {
          "internalType": "uint256",
          "name": "newRatio",
          "type": "uint256"
        }
      ],
      "name": "updateBNB",
      "outputs": [],
      "stateMutability": "nonpayable",
      "type": "function"
    },
    {
      "inputs": [
        {
          "internalType": "uint256",
          "name": "newAPY",
          "type": "uint256"
        }
      ],
      "name": "updateBaseAPY",
      "outputs": [],
      "stateMutability": "nonpayable",
      "type": "function"
    },
    {
      "inputs": [
        {
          "internalType": "uint256",
          "name": "newMinAmount",
          "type": "uint256"
        }
      ],
      "name": "updateMinStakeAmount",
      "outputs": [],
      "stateMutability": "nonpayable",
      "type": "function"
    },
    {
      "inputs": [
        {
          "internalType": "uint256",
          "name": "newPercentage",
          "type": "uint256"
        }
      ],
      "name": "updateReferralPercentage",
      "outputs": [],
      "stateMutability": "nonpayable",
      "type": "function"
    },
    {
      "inputs": [
        {
          "internalType": "address",
          "name": "newAddress",
          "type": "address"
        },
        {
          "internalType": "uint256",
          "name": "newRatio",
          "type": "uint256"
        }
      ],
      "name": "updateSOL",
      "outputs": [],
      "stateMutability": "nonpayable",
      "type": "function"
    },
    {
      "inputs": [
        {
          "internalType": "uint256",
          "name": "newPrice",
          "type": "uint256"
        }
      ],
      "name": "updateStablecoinPrice",
      "outputs": [],
      "stateMutability": "nonpayable",
      "type": "function"
    },
    {
      "inputs": [
        {
          "internalType": "uint256",
          "name": "newPrice",
          "type": "uint256"
        }
      ],
      "name": "updateTokenPrice",
      "outputs": [],
      "stateMutability": "nonpayable",
      "type": "function"
    },
    {
      "inputs": [
        {
          "internalType": "address",
          "name": "newAddress",
          "type": "address"
        },
        {
          "internalType": "uint256",
          "name": "newRatio",
          "type": "uint256"
        }
      ],
      "name": "updateUSDC",
      "outputs": [],
      "stateMutability": "nonpayable",
      "type": "function"
    },
    {
      "inputs": [
        {
          "internalType": "address",
          "name": "newAddress",
          "type": "address"
        },
        {
          "internalType": "uint256",
          "name": "newRatio",
          "type": "uint256"
        }
      ],
      "name": "updateUSDT",
      "outputs": [],
      "stateMutability": "nonpayable",
      "type": "function"
    },
    {
      "inputs": [],
      "name": "usdcAddress",
      "outputs": [
        {
          "internalType": "address",
          "name": "",
          "type": "address"
        }
      ],
      "stateMutability": "view",
      "type": "function"
    },
    {
      "inputs": [],
      "name": "usdcRatio",
      "outputs": [
        {
          "internalType": "uint256",
          "name": "",
          "type": "uint256"
        }
      ],
      "stateMutability": "view",
      "type": "function"
    },
    {
      "inputs": [],
      "name": "usdtAddress",
      "outputs": [
        {
          "internalType": "address",
          "name": "",
          "type": "address"
        }
      ],
      "stateMutability": "view",
      "type": "function"
    },
    {
      "inputs": [],
      "name": "usdtRatio",
      "outputs": [
        {
          "internalType": "uint256",
          "name": "",
          "type": "uint256"
        }
      ],
      "stateMutability": "view",
      "type": "function"
    },
    {
      "inputs": [
        {
          "internalType": "address",
          "name": "",
          "type": "address"
        },
        {
          "internalType": "uint256",
          "name": "",
          "type": "uint256"
        }
      ],
      "name": "userStakes",
      "outputs": [
        {
          "internalType": "uint256",
          "name": "id",
          "type": "uint256"
        },
        {
          "internalType": "uint256",
          "name": "amount",
          "type": "uint256"
        },
        {
          "internalType": "uint256",
          "name": "startTime",
          "type": "uint256"
        },
        {
          "internalType": "uint256",
          "name": "lockPeriod",
          "type": "uint256"
        },
        {
          "internalType": "uint256",
          "name": "lastRewardCalculation",
          "type": "uint256"
        },
        {
          "internalType": "uint256",
          "name": "pendingRewards",
          "type": "uint256"
        },
        {
          "internalType": "bool",
          "name": "active",
          "type": "bool"
        }
      ],
      "stateMutability": "view",
      "type": "function"
    },
    {
      "inputs": [
        {
          "internalType": "address",
          "name": "",
          "type": "address"
        },
        {
          "internalType": "uint256",
          "name": "",
          "type": "uint256"
        }
      ],
      "name": "userTransactions",
      "outputs": [
        {
          "internalType": "uint256",
          "name": "timestamp",
          "type": "uint256"
        },
        {
          "internalType": "address",
          "name": "user",
          "type": "address"
        },
        {
          "internalType": "address",
          "name": "tokenIn",
          "type": "address"
        },
        {
          "internalType": "address",
          "name": "tokenOut",
          "type": "address"
        },
        {
          "internalType": "uint256",
          "name": "amountIn",
          "type": "uint256"
        },
        {
          "internalType": "uint256",
          "name": "amountOut",
          "type": "uint256"
        },
        {
          "internalType": "string",
          "name": "transactionType",
          "type": "string"
        }
      ],
      "stateMutability": "view",
      "type": "function"
    },
    {
      "inputs": [
        {
          "internalType": "address",
          "name": "_token",
          "type": "address"
        },
        {
          "internalType": "uint256",
          "name": "_amount",
          "type": "uint256"
        }
      ],
      "name": "withdrawTokens",
      "outputs": [],
      "stateMutability": "nonpayable",
      "type": "function"
    }
  ],
  "bytecode": "0x60a080604052346100e75766038d7ea4c6800080600555600655600c60105568056bc75e2d6310000060115560016017556005601955336080526014600755601460085560146009556014600a5561494190816100ed823960805181818161041d015281816106f7015281816107e601528181610b3d01528181610e1301528181610f25015281816110e8015281816111e4015281816116b101528181611a6a01528181611b7a01528181611c220152818161207c015281816125200152818161293e01528181612eb401528181613052015281816131330152818161322101526133790152f35b600080fdfe6080604081815260048036101561001557600080fd5b60009260e08435811c91826302d454571461354857508163032d975b1461352857816306b091f9146133585781630981348214613288578163150d283d14613183578163182a676b146130d15781631ce24e16146130a95781631e37c60614613025578163214405a91461300557816321874ae214612fa4578163251545da14612da457816327506f5314612cc45781632bb38809146126055781632fd04c0814612995578163366b17d6146129115781633b7b618814612625578163491cc756146126055781634a3b68cc146125c95781634cdb312d146125045781634f93208a146124c5578163518ab2a8146124a557816353aaa63b1461246c57816357126d0d1461223d578163575cea6b146121925781635b36504014611f6c578163608e4dd014611c9057816363219c7214611be3578163676c0d7714611b3b5781636f43f37314611b1b57816371d20fe714611a4e57816375506c9614611a2e5781637a9773dc14611a0e5781637cc1f8671461192b5781638093360814611848578163817b1cd21461182857816383fabe0314611808578163842e29811461170057816386989038146116e05781638da5cb5b1461169b578163920a253e1461167b578163963c9dd3146115a05781639ab4a445146115765781639c0fbd05146115595781639ea7685a1461139f578163a1dc903114611229578163a29f481c146111bb578163a7c601601461102d578163aeccf73514610e6a578163b006984f14610de6578163b40cd21d14610da4578163b5d5b5fa14610d1157508063b842ec4414610c93578063c3333dfb14610a8c578063c605af5314610a6d578063c93c8f3414610a2f578063d11c583a14610a06578063d3ea4350146109df578063d7ff071414610897578063d8060cd5146107cb578063e697b5d814610772578063e985e3671461074a578063ebcd3a13146106ca578063ee172546146106ab578063ef925399146105cd578063f1887684146105ae578063f30ef2e514610369578063f34a00fb146103465763fd9a11e51461031157600080fd5b346103425760203660031901126103425735825260136020908152918190205490516001600160a01b039091168152f35b8280fd5b5050346103655781600319360112610365576020906006549051908152f35b5080fd5b5034610342576020806003193601126105aa57813590338552600c815261039660ff858720541615613949565b81156103a28115613af1565b85546001600160a01b0392906103bb90841615156139c6565b82855416801561057257633b9aca00928386029386850414171561055f576103e5600a5486613a07565b92670de0b6b3a76400009384810294818604149015171561054c5787516323b872dd60e01b8152338882019081526001600160a01b037f0000000000000000000000000000000000000000000000000000000000000000166020820152604081019290925291839183919082908c90829060600103925af1908115610542578891610515575b50156104dd5750916104d79161048f6000805160206148ec83398151915294613ff8565b9461049986614232565b6104b5828254168785858c54166104ae613ad2565b93336147ea565b5416945191829133954291846040919493926060820195825260208201520152565b0390a380f35b8460649187519162461bcd60e51b8352820152601360248201527214d3d3081d1c985b9cd9995c8819985a5b1959606a1b6044820152fd5b6105359150823d841161053b575b61052d8183613735565b810190613b7f565b3861046b565b503d610523565b87513d8a823e3d90fd5b634e487b7160e01b895260118752602489fd5b634e487b7160e01b885260118652602488fd5b865162461bcd60e51b8152808701839052601260248201527114d3d3081b9bdd0818dbdb999a59dd5c995960721b6044820152606490fd5b8380fd5b5050346103655781600319360112610365576020906011549051908152f35b5082903461036557602091826003193601126106a8576001600160a01b0392836105f561356d565b168252600d81528482209182549361060c85614846565b9561061988519788613735565b85875283870194835283832092945b8686106106405788518061063c8a826135c8565b0390f35b6007856001928b51610651816136e7565b8754815285858901541683820152856002890154168d820152856003890154166060820152868801546080820152600588015460a082015261069560068901613757565b60c0820152815201940195019492610628565b80fd5b5050346103655781600319360112610365576020906015549051908152f35b50903461034257366003190112610365576106e361356d565b60243591906001600160a01b039061071e337f000000000000000000000000000000000000000000000000000000000000000084161461385a565b1661072a8115156138cf565b61073583151561390d565b81546001600160a01b031916179055600a5580f35b505034610365578160031936011261036557905490516001600160a01b039091168152602090f35b50503461036557806003193601126103655761078c61356d565b6001600160a01b039081168352601b602052818320805460243594908510156106a857506020936107bc91613842565b92905490519260031b1c168152f35b503461034257602036600319011261034257803590610814337f00000000000000000000000000000000000000000000000000000000000000006001600160a01b03161461385a565b81156108545750907f171aabb8815c02fd00303450a77058600e3661eb75ce2e77972c0f080bc7099d91601154908060115582519182526020820152a180f35b606490602084519162461bcd60e51b8352820152602060248201527f4d696e207374616b65206d7573742062652067726561746572207468616e20306044820152fd5b50346103425760203660031901126103425735600e5481101561034257600e6007929352029061063c827fbb7b4a454dc3493923482f07822329ed19e8244eff582cc204f8554c3620c3fd01549160018060a01b0393847fbb7b4a454dc3493923482f07822329ed19e8244eff582cc204f8554c3620c3fe8201541694807fbb7b4a454dc3493923482f07822329ed19e8244eff582cc204f8554c3620c3ff83015416907fbb7b4a454dc3493923482f07822329ed19e8244eff582cc204f8554c3620c400830154167fbb7b4a454dc3493923482f07822329ed19e8244eff582cc204f8554c3620c401830154916109d47fbb7b4a454dc3493923482f07822329ed19e8244eff582cc204f8554c3620c4037fbb7b4a454dc3493923482f07822329ed19e8244eff582cc204f8554c3620c4028601549501613757565b9451978897886137fd565b5091346106a85760203660031901126106a857506109ff60209235613dac565b9051908152f35b50503461036557816003193601126103655760035490516001600160a01b039091168152602090f35b5050346103655760203660031901126103655760209160ff9082906001600160a01b03610a5a61356d565b1681526018855220541690519015158152f35b5050346103655781600319360112610365576020906005549051908152f35b503461034257602090816003193601126105aa57803590338552600c8352610aba60ff858720541615613949565b811590610ac78215613af1565b85546001600160a01b039490610ae090861615156139c6565b84600354168015610c5b57670de0b6b3a7640000938486029086820486141715610c4857610b1060095487613a07565b858102958187041490151715610c485787516323b872dd60e01b8152338582019081526001600160a01b037f0000000000000000000000000000000000000000000000000000000000000000166020820152604081019290925291839183919082908c90829060600103925af1908115610542578891610c2b575b5015610bf35750506000805160206148ec83398151915291610baf6104d792613ff8565b93610bb985614232565b610bcf81600354168684848b54166104ae613ad2565b60035416945191829133954291846040919493926060820195825260208201520152565b855162461bcd60e51b8152918201526013602482015272109390881d1c985b9cd9995c8819985a5b1959606a1b604482015260649150fd5b610c429150823d841161053b5761052d8183613735565b38610b8b565b634e487b7160e01b895260118452602489fd5b865162461bcd60e51b81528084018390526012602482015271109390881b9bdd0818dbdb999a59dd5c995960721b6044820152606490fd5b50919034610365578060031936011261036557610cae61356d565b6001600160a01b039081168352600d60205281832080549193602435928310156106a8575061063c9291610ce19161367b565b508054938060018301541695816002840154169160038401541690830154916109d4600660058601549501613757565b939050346106a857826003193601126106a857610d2c61356d565b6001600160a01b031681526012602052828120805460243592908310156106a8575090610d589161367b565b5080549260018201549260028301546003840154918401549260ff600660058701549601541695815197885260208801528601526060850152608084015260a0830152151560c0820152f35b5050503461036557816003193601126103655760a090601054906011549060145460155491601654938151958652602086015284015260608301526080820152f35b50505034610365573660031901126106a857610e0061356d565b602435906001600160a01b0390610e3a337f000000000000000000000000000000000000000000000000000000000000000084161461385a565b16610e468115156138cf565b610e5182151561390d565b6001600160601b0360a01b600154161760015560075580f35b50503461034257602036600319011261034257803590338452600c602052610e9860ff848620541615613949565b811591610ea58315613af1565b84546001600160a01b039390610ebe90851615156139c6565b8360025416610ece811515613bda565b620f4240918284029284840414171561101a57610eed60085484613a07565b93670de0b6b3a7640000948581029581870414901517156110075786516323b872dd60e01b8152339181019182526001600160a01b037f0000000000000000000000000000000000000000000000000000000000000000166020838101919091526040830194909452939291849182908a90829060600103925af18015610ffd576000805160206148ec83398151915293610f96610f9b926104d7958a91610fdf575b50613c1c565b613ff8565b93610fa585614232565b610fbb81600254168684848b54166104ae613ad2565b60025416945191829133954291846040919493926060820195825260208201520152565b610ff7915060203d811161053b5761052d8183613735565b38610f90565b85513d88823e3d90fd5b634e487b7160e01b885260119052602487fd5b634e487b7160e01b875260118452602487fd5b50503461034257602036600319011261034257803590338452600c60205261105b60ff848620541615613949565b8115916110688315613af1565b84546001600160a01b03939061108190851615156139c6565b8360015416611091811515613b3d565b620f4240918284029284840414171561101a576110b060075484613a07565b93670de0b6b3a7640000948581029581870414901517156110075786516323b872dd60e01b8152339181019182526001600160a01b037f0000000000000000000000000000000000000000000000000000000000000000166020838101919091526040830194909452939291849182908a90829060600103925af18015610ffd576000805160206148ec83398151915293610f96611159926104d7958a9161119d575b50613b97565b9361116385614232565b61117981600154168684848b54166104ae613ad2565b60015416945191829133954291846040919493926060820195825260208201520152565b6111b5915060203d811161053b5761052d8183613735565b38611153565b84346106a85760203660031901126106a8576111d561356d565b6001600160a01b039061120b337f000000000000000000000000000000000000000000000000000000000000000084161461385a565b166112178115156138cf565b81546001600160a01b03191617815580f35b50509034610342578260031936011261034257825481516370a0823160e01b808252308286015290946001600160a01b03946020938490889060249082908a165afa958615611395578296611365575b602497508481600154168751998a809288825230878301525afa97881561135b57839861132b575b509060248592600254169487519586938492835230908301525afa92831561131f5781936112ec575b50505061063c9151938493846040919493926060820195825260208201520152565b9091809350813d8311611318575b6113048183613735565b810103126106a857505161063c38806112ca565b503d6112fa565b508351903d90823e3d90fd5b9097508481813d8311611354575b6113438183613735565b8101031261034257519660246112a1565b503d611339565b86513d85823e3d90fd5b95508387813d831161138e575b61137c8183613735565b81010312610365576024965195611279565b503d611372565b85513d84823e3d90fd5b828585346103655760209081600319360112610342576113bd61356d565b90338452600c83526113d560ff828620541615613949565b6001600160a01b03918216928315611517573384146114dd57338552601a815282828620541661149057338552601a815281852080546001600160a01b03191685179055838552601b90528320805490600160401b82101561147d579061144191600182018155613842565b819291549060031b9133831b921b191617905533907f5f1ca2fcc108b751843a763e60d2201f593516109d7dbb1b700468f2d4190bb78380a380f35b634e487b7160e01b855260418652602485fd5b8590608492519162461bcd60e51b8352820152602260248201527f416c72656164792072656769737465726564207769746820612072656665727260448201526132b960f11b6064820152fd5b8590606492519162461bcd60e51b8352820152601560248201527421b0b73737ba103932b332b9103cb7bab939b2b63360591b6044820152fd5b8590606492519162461bcd60e51b8352820152601860248201527f496e76616c6964207265666572726572206164647265737300000000000000006044820152fd5b505050346103655781600319360112610365576020905160058152f35b5050503461036557816003193601126103655760015490516001600160a01b039091168152602090f35b50503461034257602090816003193601126105aa573580845260138252828420546001600160a01b0316939092906115d9851515613cdf565b6115e16148b3565b8195825b8184526012808752858520805483101561166657611604838a9261367b565b50541461161a575061161590613cc3565b6115e5565b6060985061163d93508486916116379461164d975288522061367b565b5061485e565b936116486001613d22565b613dac565b60c0858501519401511515928251948552840152820152f35b505050509361164d9150611648606096613d22565b505050346103655781600319360112610365576020906019549051908152f35b50505034610365578160031936011261036557517f00000000000000000000000000000000000000000000000000000000000000006001600160a01b03168152602090f35b505050346103655781600319360112610365576020906016549051908152f35b91505034610342576020806003193601126105aa5790916001600160a01b0361172761356d565b168452601282528084209182549161173e83614846565b9261174b82519485613735565b8084528284018095885283882088915b8383106117db575050505080519482860193838752518094528186019496915b8483106117885786860387f35b87518051875280850151878601528082015187830152606080820151908801526080808201519088015260a0808201519088015260c090810151151590870152968301969481019460019092019161177b565b6007866001926117f2859d999a9b9d9c989c61485e565b815201920192019190989695949897939761175b565b505050346103655781600319360112610365576020906007549051908152f35b505050346103655781600319360112610365576020906014549051908152f35b8385346106a857602090816003193601126106a85761186561356d565b9091829182919082906001600160a01b0316815b818652601280855288872080548310156119135760ff600661189c858d9461367b565b500154166118b5575b50506118b090613cc3565b611879565b8296946118e3839a60016118da6118b097611905968e61190b998e8d8352522061367b565b50015490613cd2565b99858a5287526118ff6118f8898d8c2061367b565b5054613dac565b90613cd2565b93613cc3565b9490886118a5565b89518981526020810186905260408101889052606090f35b929050346105aa57836003193601126105aa57835481516370a0823160e01b815230938101939093526001600160a01b039081169390602084602481885afa938415611a045786946119c8575b50610120955060055490600654600b54908260015416926002541693600754966008549881519a8b5260208b01528901526060880152608087015260a086015260c0850152830152610100820152f35b9093506020813d82116119fc575b816119e360209383613735565b810103126119f8576101209550519238611978565b8580fd5b3d91506119d6565b83513d88823e3d90fd5b50505034610365578160031936011261036557602090600a549051908152f35b505050346103655781600319360112610365576020906017549051908152f35b50503461034257602036600319011261034257803590611a98337f00000000000000000000000000000000000000000000000000000000000000006001600160a01b03161461385a565b8115611ad85750907f787a1fca55641ce34a438271930bbb9401df20db2b4f510d4f252227d85df43d91601054908060105582519182526020820152a180f35b606490602084519162461bcd60e51b8352820152601a60248201527f415059206d7573742062652067726561746572207468616e20300000000000006044820152fd5b505050346103655781600319360112610365576020906008549051908152f35b505034610342576020366003190112610342577f6e838f2a03741f5f2aff5480963b672fb0dd8430a4dc75db9b67ce009733c9fe9160a09135611ba8337f00000000000000000000000000000000000000000000000000000000000000006001600160a01b03161461385a565b611bb3811515613893565b60055491816005558051926060845260056060850152642a27a5a2a760d91b60808501526020840152820152a180f35b505034610342576020366003190112610342577f6e838f2a03741f5f2aff5480963b672fb0dd8430a4dc75db9b67ce009733c9fe9160a09135611c50337f00000000000000000000000000000000000000000000000000000000000000006001600160a01b03161461385a565b611c5b811515613893565b600654918160065580519260608452600a60608501526929aa20a12622a1a7a4a760b11b60808501526020840152820152a180f35b5050903461034257602090816003193601126105aa578291923592338552600c815260ff611cc381848820541615613949565b84865260138252828620546001600160a01b0390611ce49082163314613fba565b8694859283805b338b526012808852888c208054831015611f58579a611d0c83829c9d61367b565b505414611d255750611d1d90613cc3565b989798611ceb565b955097985050338952838552611d4e611d4088888c2061367b565b509160068093015416613d60565b3389528385526002611d6288888c2061367b565b500154338a528486526003611d7989898d2061367b565b500154906201518091828102928184041490151715611f455790611d9c91613cd2565b4210611f0b57918491611dff8a611e4595611de1611db98d613dac565b9b3384528988528b611dcd8282872061367b565b50946001809601549b3382528a522061367b565b500160ff1981541690556014611df8888254613d9f565b9055613d22565b611e0833614179565b611e128886613cd2565b8a54885163a9059cbb60e01b8152339381019384526020840192909252909485939091169183918c918391604090910190565b03925af1908115611f015790611e62918891611ee4575b50613c7f565b848415159182611ed0575b84519081527f7fc4727e062e336010f2c282598ef5f14facb3de68cf8195c2f23e1454b2b74e843392a3611e9f578480f35b7ff87cfa2d5feaea949ad65bb76a26d8553381bcb6382adbc83dedd48961bf32d991519283523392a3388080808480f35b611edc86601554613cd2565b601555611e6d565b611efb9150843d861161053b5761052d8183613735565b38611e5c565b84513d89823e3d90fd5b855162461bcd60e51b8152808301869052601460248201527314dd1a5b1b081a5b881b1bd8dac81c195c9a5bd960621b6044820152606490fd5b634e487b7160e01b8b526011845260248bfd5b505050611e4593915091611dff8693613d22565b505082600319360112610342573383526020600c8152611f9260ff848620541615613949565b341590611f9f821561398a565b6001546001600160a01b039290831690611fba821515613b3d565b620f4240908134029134830414171561217f57600654611fd991613a30565b9385516370a0823160e01b815230828201528381602481865afa8015610542578691899161214a575b501061210757855163a9059cbb60e01b81523391810191825260208201869052939291829185919082908a90829060400103925af18015610ffd577f48a1f8a6c840b32621ceab4439a2ccd00b337e705dfdcdec0b40c49abf3e6be3936120719288926120ea575b5050613b97565b6120ac8580808034867f0000000000000000000000000000000000000000000000000000000000000000165af16120a6613a50565b50613a90565b6120c68160015416846120bd613c5f565b9134903361478b565b600154935192835234602084015242604084015290921691339180606081016104d7565b6121009250803d1061053b5761052d8183613735565b388061206a565b855162461bcd60e51b8152908101839052601b60248201527f496e73756666696369656e742055534454206c697175696469747900000000006044820152606490fd5b809250858092503d8311612178575b6121638183613735565b810103126121745785905138612002565b8780fd5b503d612159565b634e487b7160e01b875260118552602487fd5b5050503461036557602080600319360112610342576001600160a01b0392836121b961356d565b168152601b825282812091835190818185549182815201908195855282852090855b81811061222757505050826121f1910383613735565b8451948186019282875251809352850193925b8281106122115785850386f35b8351871685529381019392810192600101612204565b82548a16845292840192600192830192016121db565b50503461034257602090816003193601126105aa57803591338552600c815260ff9361226e85828820541615613949565b83865260138252808620546001600160a01b0393906122909085163314613fba565b8693875b3389526012808652848a208054831015612459576122b3838a9261367b565b5054146122c957506122c490613cc3565b612294565b96976122f291929394959650338a5287875260066122e984888d2061367b565b50015416613d60565b6122fb87613dac565b95861561241e579061232c91338a5280875289600561231c8489842061367b565b500155338a52865284892061367b565b5042908301558654835163a9059cbb60e01b815233818501908152602081018890529092869284928390036040019183918c91165af19081156124145787916123f7575b50156123bd5750907ff87cfa2d5feaea949ad65bb76a26d8553381bcb6382adbc83dedd48961bf32d99160156123a7858254613cd2565b9055519283523392a36123ba6001613d22565b80f35b82606492519162461bcd60e51b8352820152601660248201527514995dd85c99081d1c985b9cd9995c8819985a5b195960521b6044820152fd5b61240e9150843d861161053b5761052d8183613735565b38612370565b83513d89823e3d90fd5b845162461bcd60e51b81528085018790526015602482015274139bc81c995dd85c991cc81d1bc81a185c9d995cdd605a1b6044820152606490fd5b5050505050505090506123ba9150613d22565b505050346103655760203660031901126103655760209181906001600160a01b0361249561356d565b168152601c845220549051908152f35b50505034610365578160031936011261036557602090600b549051908152f35b505050346103655760203660031901126103655760209160ff9082906001600160a01b036124f161356d565b168152600c855220541690519015158152f35b5050346103425760203660031901126103425780359061254e337f00000000000000000000000000000000000000000000000000000000000000006001600160a01b03161461385a565b601482116125905750907fd968a3cc702265c3ab67356df15ca21d50167b011f198b963e2a868e04e3d5e091601954908060195582519182526020820152a180f35b606490602084519162461bcd60e51b835282015260136024820152720a0cae4c6cadce8c2ceca40e8dede40d0d2ced606b1b6044820152fd5b50505034610365576020366003190112610365576020916001600160a01b03908290826125f461356d565b168152601a85522054169051908152f35b50505034610365578160031936011261036557602090600f549051908152f35b82858534610365578060031936011261036557823560243591338452602092600c845261265860ff838720541615613949565b60115483106128ce5784546001600160a01b03166126778115156139c6565b601e821480156128c4575b80156128ba575b80156128af575b156128765782516323b872dd60e01b815233818901908152306020820152604081018690529091869183919082908a90829060600103925af1908115611a0457906126e19187916128595750613c7f565b601754936126ee85613cc3565b60175582516126fc816136e7565b85815281810185815284820142815260608301858152608084019042825260a08501928b845260c086019460018652338d5260128852898d20805490600160401b82101561284557906127549160018201815561367b565b97909761283357927fb4caaf29adda3eefee3ad552a8e85058589bf834c7466cae4ee58787f70589ed9b9c9d9e926127c39897959260069795518955516001890155516002880155516003870155519085015551600584015551151591019060ff801983541691151516179055565b85875260138152828720336001600160601b0360a01b8254161790556127eb85601454613cd2565b60145533875260188152828720805460ff811615612814575b505082519485528401523392a380f35b60ff1916600117905560165461282990613cc3565b6016558780612804565b634e487b7160e01b8e528d8f5260248efd5b8f8f6041602492634e487b7160e01b835252fd5b6128709150863d881161053b5761052d8183613735565b88611e5c565b825162461bcd60e51b81528088018690526013602482015272125b9d985b1a59081b1bd8dac81c195c9a5bd9606a1b6044820152606490fd5b5061016d8214612690565b5060b48214612689565b50605a8214612682565b815162461bcd60e51b8152808701859052601a60248201527f416d6f756e742062656c6f77206d696e696d756d207374616b650000000000006044820152606490fd5b50505034610365573660031901126106a85761292b61356d565b602435906001600160a01b0390612965337f000000000000000000000000000000000000000000000000000000000000000084161461385a565b166129718115156138cf565b61297c82151561390d565b6001600160601b0360a01b600354161760035560095580f35b505091346106a8576020928360031936011261036557803590338352600c855260ff916129c783868620541615613949565b80845260138652848420546001600160a01b0396906129e99088163314613fba565b8495855b33875260128084528288208054831015612cb157612a0c83879261367b565b505414612a225750612a1d90613cc3565b6129ed565b9192939495969750338852818452612a4d612a3f82858b2061367b565b509760068099015416613d60565b3388528184526002612a6182858b2061367b565b5001543389528285526003612a7883868c2061367b565b500154906201518091828102928184041490151715612c9e5799612aa386928b9c9b98999a9b613cd2565b92612aad89613dac565b9a338952858452612ac082888b2061367b565b5091876001809401549a80974210612c44575b90612ae99291612b49989933825288522061367b565b500160ff1981541690556014612b00898254613d9f565b905598612b168b612b11878b613d9f565b613cd2565b8c54875163a9059cbb60e01b8152339381019384526020840192909252909485939091169183918e918391604090910190565b03925af1908115612c3a5797612b6a8792612baa9a8c91612c235750613c7f565b80612be3575b50508015612bb3577f9c9ec3cfa814b0112b71c20d0b0ab54dead00a99fd389c174df717d2f1d364039282519485528401523392a3613d22565b6123ba33614179565b50907f7fc4727e062e336010f2c282598ef5f14facb3de68cf8195c2f23e1454b2b74e91519283523392a3613d22565b6015612bf0828254613cd2565b905583519081527ff87cfa2d5feaea949ad65bb76a26d8553381bcb6382adbc83dedd48961bf32d9853392a38438612b70565b611efb9150873d891161053b5761052d8183613735565b83513d8b823e3d90fd5b50509193509193506005808902908982041489151715612c8b5791612ae9889492888f6064612b4999970499600f612c7d8c8254613cd2565b905599985090919250612ad3565b634e487b7160e01b8d5260118b5260248dfd5b634e487b7160e01b8a526011885260248afd5b50505050505050509150612baa90613d22565b505082346106a857806003193601126106a85790600e5490612ce582614846565b92612cf285519485613735565b828452600e8152906020907fbb7b4a454dc3493923482f07822329ed19e8244eff582cc204f8554c3620c3fd908286015b858510612d375787518061063c89826135c8565b6007846001928a51612d48816136e7565b86548152848060a01b0380868901541684830152806002890154168d8301526003880154166060820152858701546080820152600587015460a0820152612d9160068801613757565b60c0820152815201930194019391612d23565b505082600319360112610342573383526020600c8152612dca60ff848620541615613949565b341590612dd7821561398a565b6002546001600160a01b039290831690612df2821515613bda565b620f4240908134029134830414171561217f57600654612e1191613a30565b9385516370a0823160e01b815230828201528381602481865afa80156105425786918991612f73575b5010612f3057855163a9059cbb60e01b81523391810191825260208201869052939291829185919082908a90829060400103925af18015610ffd577f48a1f8a6c840b32621ceab4439a2ccd00b337e705dfdcdec0b40c49abf3e6be393612ea9928892612f13575b5050613c1c565b612ede8580808034867f0000000000000000000000000000000000000000000000000000000000000000165af16120a6613a50565b612eef8160025416846120bd613c5f565b600254935192835234602084015242604084015290921691339180606081016104d7565b612f299250803d1061053b5761052d8183613735565b3880612ea2565b855162461bcd60e51b8152908101839052601b60248201527f496e73756666696369656e742055534443206c697175696469747900000000006044820152606490fd5b809250858092503d8311612f9d575b612f8c8183613735565b810103126121745785905138612e3a565b503d612f82565b50505034610365576020366003190112610365576080916001600160a01b0380612fcc61356d565b168252601a602052828220541691601b602052808083205492601c60205220549060195492815194855260208501528301526060820152f35b505050346103655781600319360112610365576020906010549051908152f35b50505034610365573660031901126106a85761303f61356d565b602435906001600160a01b0390613079337f000000000000000000000000000000000000000000000000000000000000000084161461385a565b166130858115156138cf565b61309082151561390d565b6001600160601b0360a01b600254161760025560085580f35b5050346103425782600319360112610342575490516001600160a01b03909116815260209150f35b505050346103655780600319360112610365576130ec61356d565b906024359182151580840361317f577fdda6207409a585801122fb885dcaa8074f9a21f25ff2def680c67f01a86c2c9b92602092613177906001600160a01b039061315a337f000000000000000000000000000000000000000000000000000000000000000084161461385a565b1695868852600c85528288209060ff801983541691151516179055565b51908152a280f35b8480fd5b8285858160031936011261036557338252600c6020526131a960ff828420541615613949565b3415906131b6821561398a565b82546001600160a01b0392906131cf90841615156139c6565b670de0b6b3a764000090813402913483041417156132755783929161325761320c610f966000805160206148ec8339815191529460055490613a30565b9361321685614232565b61324b8680808034867f0000000000000000000000000000000000000000000000000000000000000000165af16120a6613a50565b855416846120bd613ad2565b513481526020810192909252426040830152339180606081016104d7565b634e487b7160e01b845260118552602484fd5b8385843461036557602090816003193601126103425735928383526013825260018060a01b038184205416926132bf841515613cdf565b6132c76148b3565b8195825b86845260128087528585208054831015613346576132ea83859261367b565b50541461330057506132fb90613cc3565b6132cb565b608098506116379350859192509361331d9488825287522061367b565b906133286001613d22565b81519381848401519301519382519586528501528301526060820152f35b50505050919050613328608095613d22565b5050903461034257806003193601126103425761337361356d565b602435907f00000000000000000000000000000000000000000000000000000000000000006001600160a01b036133ad338284161461385a565b808754169216918214613468575b835163a9059cbb60e01b81526001600160a01b03909116858201908152602081810194909452909291839182908890829060400103925af190811561345e578491613440575b501561340b578280f35b906020606492519162461bcd60e51b8352820152600f60248201526e151c985b9cd9995c8819985a5b1959608a1b6044820152fd5b613458915060203d811161053b5761052d8183613735565b38613401565b82513d86823e3d90fd5b83516370a0823160e01b81523086820152602081602481865afa801561351e5787906134e7575b61349d915060145490613d9f565b8311156133bb57835162461bcd60e51b8152602081870152601d60248201527f43616e6e6f74207769746864726177207374616b656420746f6b656e730000006044820152606490fd5b506020813d8211613516575b8161350060209383613735565b810103126135125761349d905161348f565b8680fd5b3d91506134f3565b85513d89823e3d90fd5b505050346103655781600319360112610365576020906009549051908152f35b8590346103655781600319360112610365576002546001600160a01b03168152602090f35b600435906001600160a01b038216820361358357565b600080fd5b919082519283825260005b8481106135b4575050826000602080949584010152601f8019910116010190565b602081830181015184830182015201613593565b602080820190808352835180925260409283810182858560051b8401019601946000925b8584106135fd575050505050505090565b90919293949596858061366a600193603f198682030188528b5180518252858060a01b0380858301511685840152808983015116898401526060908183015116908301526080808201519083015260a0808201519083015260c0809101519160e080928201520190613588565b9901940194019295949391906135ec565b8054821015613697576000526007602060002091020190600090565b634e487b7160e01b600052603260045260246000fd5b90600182811c921680156136dd575b60208310146136c757565b634e487b7160e01b600052602260045260246000fd5b91607f16916136bc565b60e0810190811067ffffffffffffffff82111761370357604052565b634e487b7160e01b600052604160045260246000fd5b6040810190811067ffffffffffffffff82111761370357604052565b90601f8019910116810190811067ffffffffffffffff82111761370357604052565b906040519182600082549261376b846136ad565b9081845260019485811690816000146137da5750600114613797575b505061379592500383613735565b565b9093915060005260209081600020936000915b8183106137c257505061379593508201013880613787565b855488840185015294850194879450918301916137aa565b91505061379594506020925060ff191682840152151560051b8201013880613787565b9360e0959261383f98979492865260018060a01b0392838092166020880152166040860152166060840152608083015260a08201528160c08201520190613588565b90565b80548210156136975760005260206000200190600090565b1561386157565b60405162461bcd60e51b815260206004820152600a60248201526927b7363c9037bbb732b960b11b6044820152606490fd5b1561389a57565b60405162461bcd60e51b815260206004820152600d60248201526c496e76616c696420707269636560981b6044820152606490fd5b156138d657565b60405162461bcd60e51b815260206004820152600f60248201526e496e76616c6964206164647265737360881b6044820152606490fd5b1561391457565b60405162461bcd60e51b815260206004820152600d60248201526c496e76616c696420726174696f60981b6044820152606490fd5b1561395057565b60405162461bcd60e51b81526020600482015260126024820152711059191c995cdcc81a5cc8189b1bd8dad95960721b6044820152606490fd5b1561399157565b60405162461bcd60e51b815260206004820152600d60248201526c09aeae6e840e6cadcc8408aa89609b1b6044820152606490fd5b156139cd57565b60405162461bcd60e51b815260206004820152601260248201527114d85b19481d1bdad95b881b9bdd081cd95d60721b6044820152606490fd5b81810292918115918404141715613a1a57565b634e487b7160e01b600052601160045260246000fd5b8115613a3a570490565b634e487b7160e01b600052601260045260246000fd5b3d15613a8b573d9067ffffffffffffffff82116137035760405191613a7f601f8201601f191660200184613735565b82523d6000602084013e565b606090565b15613a9757565b60405162461bcd60e51b8152602060048201526013602482015272115512081d1c985b9cd9995c8819985a5b1959606a1b6044820152606490fd5b60405190613adf82613719565b600382526242555960e81b6020830152565b15613af857565b60405162461bcd60e51b815260206004820152601d60248201527f416d6f756e74206d7573742062652067726561746572207468616e20300000006044820152606490fd5b15613b4457565b60405162461bcd60e51b81526020600482015260136024820152721554d115081b9bdd0818dbdb999a59dd5c9959606a1b6044820152606490fd5b90816020910312613583575180151581036135835790565b15613b9e57565b60405162461bcd60e51b81526020600482015260146024820152731554d115081d1c985b9cd9995c8819985a5b195960621b6044820152606490fd5b15613be157565b60405162461bcd60e51b81526020600482015260136024820152721554d110c81b9bdd0818dbdb999a59dd5c9959606a1b6044820152606490fd5b15613c2357565b60405162461bcd60e51b81526020600482015260146024820152731554d110c81d1c985b9cd9995c8819985a5b195960621b6044820152606490fd5b60405190613c6c82613719565b600482526314d1531360e21b6020830152565b15613c8657565b60405162461bcd60e51b8152602060048201526015602482015274151bdad95b881d1c985b9cd9995c8819985a5b1959605a1b6044820152606490fd5b6000198114613a1a5760010190565b91908201809211613a1a57565b15613ce657565b60405162461bcd60e51b815260206004820152601460248201527314dd185ad948191bd95cc81b9bdd08195e1a5cdd60621b6044820152606490fd5b15613d2957565b60405162461bcd60e51b815260206004820152600f60248201526e14dd185ad9481b9bdd08199bdd5b99608a1b6044820152606490fd5b15613d6757565b60405162461bcd60e51b815260206004820152601060248201526f5374616b65206e6f742061637469766560801b6044820152606490fd5b91908203918211613a1a57565b6000818152601360209081526040808320546001600160a01b031690613dd3821515613cdf565b9293849390849081808080805b888b526012808b52888c208054831015613fa157613dff83899261367b565b505414613e155750613e1090613cc3565b613de0565b96509a5050505050508285528084528582862090613e329161367b565b5060050154958386528185528083872090613e4c9161367b565b5060040154928487528286528181882090613e669161367b565b50926001809401549686895281815283838a2090613e839161367b565b506003015496895252862090613e989161367b565b506006015460ff16613eac613eb192613d22565b613d60565b428114613f9a57613ec29042613d9f565b926010548092605a8114600014613f20575050600382029180830460031490151715613f0c575061383f9392613f0063bbf81e0093613f059360011c905b613a07565b0490613cd2565b634e487b7160e01b81526011600452602490fd5b60b48103613f565750508160011b9180830460021490151715613f0c575061383f9392613f0063bbf81e0093613f059390613a07565b61016d9194935014613f7b575b5061383f9392613f0063bbf81e0093613f0593613a07565b6003839293029180830460031490151715613f0c57509061383f613f63565b5050505090565b50505096509650979350613eb1929150613eac90613d22565b15613fc157565b60405162461bcd60e51b815260206004820152600f60248201526e2737ba1039ba30b5b29037bbb732b960891b6044820152606490fd5b60003381526020601a815260018060a01b039060408281852054169283151580614164575b61402957505050505090565b606461403760195488613a07565b8654845163a9059cbb60e01b81526001600160a01b03881660048201529290910460248301819052969190859082906044908290869088165af190811561415a57829161413d575b50156140f9577f94ccb86446750660ec532b1beb1fb55f5ba2fffca042c4c53f4c080e72595b3893929181866140ef9352601c85528381206140c2898254613cd2565b9055541686888451926140d484613719565b6008845267149151915494905360c21b8785015280896147ea565b519384523393a390565b825162461bcd60e51b815260048101859052601f60248201527f526566657272616c20726577617264207472616e73666572206661696c6564006044820152606490fd5b6141549150853d871161053b5761052d8183613735565b3861407f565b84513d84823e3d90fd5b50838552600c835260ff82862054161561401d565b600090815b6001600160a01b0382166000908152601260205260409020805482101561422a5760066141ad8360ff9361367b565b500154166141c3576141be90613cc3565b61417e565b50905060015b1580614208575b6141d75750565b6001600160a01b03166000908152601860205260409020805460ff191690556016548015613a1a5760001901601655565b506001600160a01b03811660009081526018602052604090205460ff166141d0565b5050906141c9565b600080546040516370a0823160e01b8152306004820152919392916020916001600160a01b0316908281602481855afa80156143695784918791614338575b50106142f35760405163a9059cbb60e01b8152336004820152602481018490529082908290604490829089905af19182156142e857906142be92916142c69596926142cb575b5050613c7f565b600b54613cd2565b600b55565b6142e19250803d1061053b5761052d8183613735565b38806142b7565b6040513d87823e3d90fd5b60405162461bcd60e51b815260048101839052601a60248201527f496e73756666696369656e7420746f6b656e2062616c616e63650000000000006044820152606490fd5b809250848092503d8311614362575b6143518183613735565b810103126119f85783905138614271565b503d614347565b6040513d88823e3d90fd5b600e54600160401b8110156137035760019081810180600e55811015613697576007600091600e835202918351837fbb7b4a454dc3493923482f07822329ed19e8244eff582cc204f8554c3620c3fd015560c07fbb7b4a454dc3493923482f07822329ed19e8244eff582cc204f8554c3620c4037fbb7b4a454dc3493923482f07822329ed19e8244eff582cc204f8554c3620c3fe85019460018060a01b0360209681888a015116906001600160601b0360a01b91828254161790557fbb7b4a454dc3493923482f07822329ed19e8244eff582cc204f8554c3620c3ff83018260408b015116828254161790557fbb7b4a454dc3493923482f07822329ed19e8244eff582cc204f8554c3620c40083019160608a0151169082541617905560808701517fbb7b4a454dc3493923482f07822329ed19e8244eff582cc204f8554c3620c40182015560a08701517fbb7b4a454dc3493923482f07822329ed19e8244eff582cc204f8554c3620c402820155019401519182519267ffffffffffffffff84116145ec5761450586546136ad565b601f81116145a6575b508491601f851160011461454757939450849291908361453c575b50501b916000199060031b1c1916179055565b015192503880614529565b86815285812093958591601f198316915b8883831061458c5750505010614573575b505050811b019055565b015160001960f88460031b161c19169055388080614569565b858701518855909601959485019487935090810190614558565b868352858320601f860160051c8101918787106145e2575b601f0160051c019084905b8281106145d757505061450e565b8481550184906145c9565b90915081906145be565b634e487b7160e01b82526041600452602482fd5b8054600160401b8110156137035761461f90600192838201815561367b565b614775578251815560c060068383019260018060a01b03602094818689015116906001600160601b0360a01b9182825416179055600283018260408a015116828254161790556003830191606089015116908254161790556080860151600482015560a08601516005820155019301519081519167ffffffffffffffff8311613703576146ac85546136ad565b601f811161472c575b5081601f84116001146146e3575092829391839260009461453c5750501b916000199060031b1c1916179055565b919083601f1981168760005284600020946000905b88838310614712575050501061457357505050811b019055565b8587015188559096019594850194879350908101906146f8565b6000868152838120601f860160051c81019285871061476b575b601f0160051c019186905b838110614760575050506146b5565b828155018690614751565b9092508290614746565b634e487b7160e01b600052600060045260246000fd5b926137959491926040519461479f866136e7565b42865260018060a01b038091169485602088015260006040880152166060860152608085015260a084015260c0830152600052600d6020526147e5816040600020614600565b614374565b92613795959294919360405195614800876136e7565b42875260018060a01b0380809316968760208a0152166040880152166060860152608085015260a084015260c0830152600052600d6020526147e5816040600020614600565b67ffffffffffffffff81116137035760051b60200190565b9060405161486b816136e7565b60c060ff600683958054855260018101546020860152600281015460408601526003810154606086015260048101546080860152600581015460a08601520154161515910152565b604051906148c0826136e7565b8160c06000918281528260208201528260408201528260608201528260808201528260a0820152015256fe377aadedb6b2a771959584d10a6a36eccb5f56b4eb3a48525f76108d2660d8d4a2646970667358221220fcd6d8d06931b99c344800b101d5dfc79b97fb52b8c050aba3ab3a20d74582f464736f6c63430008130033",
  "linkReferences": {},
  "deployedLinkReferences": {}
}