{
  "_format": "hh-sol-artifact-1",
  "contractName": "TokenICO",
  "sourceName": "contracts/TokenICO.sol",
  "abi": [
    {
      "inputs": [],
      "stateMutability": "nonpayable",
      "type": "constructor"
    },
    {
      "anonymous": false,
      "inputs": [
        {
          "indexed": false,
          "internalType": "uint256",
          "name": "oldAPY",
          "type": "uint256"
        },
        {
          "indexed": false,
          "internalType": "uint256",
          "name": "newAPY",
          "type": "uint256"
        }
      ],
      "name": "APYUpdated",
      "type": "event"
    },
    {
      "anonymous": false,
      "inputs": [
        {
          "indexed": true,
          "internalType": "address",
          "name": "user",
          "type": "address"
        },
        {
          "indexed": false,
          "internalType": "bool",
          "name": "blocked",
          "type": "bool"
        }
      ],
      "name": "AddressBlocked",
      "type": "event"
    },
    {
      "anonymous": false,
      "inputs": [
        {
          "indexed": true,
          "internalType": "address",
          "name": "user",
          "type": "address"
        },
        {
          "indexed": true,
          "internalType": "uint256",
          "name": "stakeId",
          "type": "uint256"
        },
        {
          "indexed": false,
          "internalType": "uint256",
          "name": "amount",
          "type": "uint256"
        },
        {
          "indexed": false,
          "internalType": "uint256",
          "name": "penalty",
          "type": "uint256"
        }
      ],
      "name": "EarlyUnstake",
      "type": "event"
    },
    {
      "anonymous": false,
      "inputs": [
        {
          "indexed": false,
          "internalType": "uint256",
          "name": "oldMinStake",
          "type": "uint256"
        },
        {
          "indexed": false,
          "internalType": "uint256",
          "name": "newMinStake",
          "type": "uint256"
        }
      ],
      "name": "MinStakeUpdated",
      "type": "event"
    },
    {
      "anonymous": false,
      "inputs": [
        {
          "indexed": false,
          "internalType": "string",
          "name": "priceType",
          "type": "string"
        },
        {
          "indexed": false,
          "internalType": "uint256",
          "name": "oldPrice",
          "type": "uint256"
        },
        {
          "indexed": false,
          "internalType": "uint256",
          "name": "newPrice",
          "type": "uint256"
        }
      ],
      "name": "PriceUpdated",
      "type": "event"
    },
    {
      "anonymous": false,
      "inputs": [
        {
          "indexed": false,
          "internalType": "uint256",
          "name": "oldPercentage",
          "type": "uint256"
        },
        {
          "indexed": false,
          "internalType": "uint256",
          "name": "newPercentage",
          "type": "uint256"
        }
      ],
      "name": "ReferralPercentageUpdated",
      "type": "event"
    },
    {
      "anonymous": false,
      "inputs": [
        {
          "indexed": true,
          "internalType": "address",
          "name": "referrer",
          "type": "address"
        },
        {
          "indexed": true,
          "internalType": "address",
          "name": "referee",
          "type": "address"
        }
      ],
      "name": "ReferralRegistered",
      "type": "event"
    },
    {
      "anonymous": false,
      "inputs": [
        {
          "indexed": true,
          "internalType": "address",
          "name": "referrer",
          "type": "address"
        },
        {
          "indexed": true,
          "internalType": "address",
          "name": "referee",
          "type": "address"
        },
        {
          "indexed": false,
          "internalType": "uint256",
          "name": "amount",
          "type": "uint256"
        }
      ],
      "name": "ReferralRewardPaid",
      "type": "event"
    },
    {
      "anonymous": false,
      "inputs": [
        {
          "indexed": true,
          "internalType": "address",
          "name": "user",
          "type": "address"
        },
        {
          "indexed": true,
          "internalType": "uint256",
          "name": "stakeId",
          "type": "uint256"
        },
        {
          "indexed": false,
          "internalType": "uint256",
          "name": "reward",
          "type": "uint256"
        }
      ],
      "name": "RewardHarvested",
      "type": "event"
    },
    {
      "anonymous": false,
      "inputs": [
        {
          "indexed": true,
          "internalType": "address",
          "name": "buyer",
          "type": "address"
        },
        {
          "indexed": true,
          "internalType": "address",
          "name": "stablecoin",
          "type": "address"
        },
        {
          "indexed": false,
          "internalType": "uint256",
          "name": "stablecoinAmount",
          "type": "uint256"
        },
        {
          "indexed": false,
          "internalType": "uint256",
          "name": "ethPaid",
          "type": "uint256"
        },
        {
          "indexed": false,
          "internalType": "uint256",
          "name": "timestamp",
          "type": "uint256"
        }
      ],
      "name": "StablecoinSold",
      "type": "event"
    },
    {
      "anonymous": false,
      "inputs": [
        {
          "indexed": true,
          "internalType": "address",
          "name": "user",
          "type": "address"
        },
        {
          "indexed": true,
          "internalType": "uint256",
          "name": "stakeId",
          "type": "uint256"
        },
        {
          "indexed": false,
          "internalType": "uint256",
          "name": "amount",
          "type": "uint256"
        },
        {
          "indexed": false,
          "internalType": "uint256",
          "name": "lockPeriod",
          "type": "uint256"
        }
      ],
      "name": "Staked",
      "type": "event"
    },
    {
      "anonymous": false,
      "inputs": [
        {
          "indexed": true,
          "internalType": "address",
          "name": "buyer",
          "type": "address"
        },
        {
          "indexed": true,
          "internalType": "address",
          "name": "paymentMethod",
          "type": "address"
        },
        {
          "indexed": false,
          "internalType": "uint256",
          "name": "amountPaid",
          "type": "uint256"
        },
        {
          "indexed": false,
          "internalType": "uint256",
          "name": "tokensBought",
          "type": "uint256"
        },
        {
          "indexed": false,
          "internalType": "uint256",
          "name": "timestamp",
          "type": "uint256"
        }
      ],
      "name": "TokensPurchased",
      "type": "event"
    },
    {
      "anonymous": false,
      "inputs": [
        {
          "indexed": true,
          "internalType": "address",
          "name": "user",
          "type": "address"
        },
        {
          "indexed": true,
          "internalType": "uint256",
          "name": "stakeId",
          "type": "uint256"
        },
        {
          "indexed": false,
          "internalType": "uint256",
          "name": "amount",
          "type": "uint256"
        }
      ],
      "name": "Unstaked",
      "type": "event"
    },
    {
      "inputs": [],
      "name": "EARLY_WITHDRAWAL_PENALTY_PERCENT",
      "outputs": [
        {
          "internalType": "uint256",
          "name": "",
          "type": "uint256"
        }
      ],
      "stateMutability": "view",
      "type": "function"
    },
    {
      "inputs": [
        {
          "internalType": "uint256",
          "name": "",
          "type": "uint256"
        }
      ],
      "name": "allTransactions",
      "outputs": [
        {
          "internalType": "uint256",
          "name": "timestamp",
          "type": "uint256"
        },
        {
          "internalType": "address",
          "name": "user",
          "type": "address"
        },
        {
          "internalType": "address",
          "name": "tokenIn",
          "type": "address"
        },
        {
          "internalType": "address",
          "name": "tokenOut",
          "type": "address"
        },
        {
          "internalType": "uint256",
          "name": "amountIn",
          "type": "uint256"
        },
        {
          "internalType": "uint256",
          "name": "amountOut",
          "type": "uint256"
        },
        {
          "internalType": "string",
          "name": "transactionType",
          "type": "string"
        }
      ],
      "stateMutability": "view",
      "type": "function"
    },
    {
      "inputs": [],
      "name": "baseAPY",
      "outputs": [
        {
          "internalType": "uint256",
          "name": "",
          "type": "uint256"
        }
      ],
      "stateMutability": "view",
      "type": "function"
    },
    {
      "inputs": [
        {
          "internalType": "address",
          "name": "",
          "type": "address"
        }
      ],
      "name": "blockedAddresses",
      "outputs": [
        {
          "internalType": "bool",
          "name": "",
          "type": "bool"
        }
      ],
      "stateMutability": "view",
      "type": "function"
    },
    {
      "inputs": [],
      "name": "bnbAddress",
      "outputs": [
        {
          "internalType": "address",
          "name": "",
          "type": "address"
        }
      ],
      "stateMutability": "view",
      "type": "function"
    },
    {
      "inputs": [],
      "name": "bnbRatio",
      "outputs": [
        {
          "internalType": "uint256",
          "name": "",
          "type": "uint256"
        }
      ],
      "stateMutability": "view",
      "type": "function"
    },
    {
      "inputs": [],
      "name": "btcAddress",
      "outputs": [
        {
          "internalType": "address",
          "name": "",
          "type": "address"
        }
      ],
      "stateMutability": "view",
      "type": "function"
    },
    {
      "inputs": [],
      "name": "btcRatio",
      "outputs": [
        {
          "internalType": "uint256",
          "name": "",
          "type": "uint256"
        }
      ],
      "stateMutability": "view",
      "type": "function"
    },
    {
      "inputs": [],
      "name": "buyUSDC",
      "outputs": [],
      "stateMutability": "payable",
      "type": "function"
    },
    {
      "inputs": [],
      "name": "buyUSDT",
      "outputs": [],
      "stateMutability": "payable",
      "type": "function"
    },
    {
      "inputs": [
        {
          "internalType": "uint256",
          "name": "bnbAmount",
          "type": "uint256"
        }
      ],
      "name": "buyWithBNB",
      "outputs": [],
      "stateMutability": "nonpayable",
      "type": "function"
    },
    {
      "inputs": [
        {
          "internalType": "uint256",
          "name": "btcAmount",
          "type": "uint256"
        }
      ],
      "name": "buyWithBTC",
      "outputs": [],
      "stateMutability": "nonpayable",
      "type": "function"
    },
    {
      "inputs": [],
      "name": "buyWithETH",
      "outputs": [],
      "stateMutability": "payable",
      "type": "function"
    },
    {
      "inputs": [
        {
          "internalType": "uint256",
          "name": "solAmount",
          "type": "uint256"
        }
      ],
      "name": "buyWithSOL",
      "outputs": [],
      "stateMutability": "nonpayable",
      "type": "function"
    },
    {
      "inputs": [
        {
          "internalType": "uint256",
          "name": "usdcAmount",
          "type": "uint256"
        }
      ],
      "name": "buyWithUSDC",
      "outputs": [],
      "stateMutability": "nonpayable",
      "type": "function"
    },
    {
      "inputs": [
        {
          "internalType": "uint256",
          "name": "usdtAmount",
          "type": "uint256"
        }
      ],
      "name": "buyWithUSDT",
      "outputs": [],
      "stateMutability": "nonpayable",
      "type": "function"
    },
    {
      "inputs": [
        {
          "internalType": "uint256",
          "name": "stakeId",
          "type": "uint256"
        }
      ],
      "name": "calculateRewards",
      "outputs": [
        {
          "internalType": "uint256",
          "name": "",
          "type": "uint256"
        }
      ],
      "stateMutability": "view",
      "type": "function"
    },
    {
      "inputs": [],
      "name": "ethPriceForStablecoin",
      "outputs": [
        {
          "internalType": "uint256",
          "name": "",
          "type": "uint256"
        }
      ],
      "stateMutability": "view",
      "type": "function"
    },
    {
      "inputs": [],
      "name": "ethPriceForToken",
      "outputs": [
        {
          "internalType": "uint256",
          "name": "",
          "type": "uint256"
        }
      ],
      "stateMutability": "view",
      "type": "function"
    },
    {
      "inputs": [],
      "name": "getAllTransactions",
      "outputs": [
        {
          "components": [
            {
              "internalType": "uint256",
              "name": "timestamp",
              "type": "uint256"
            },
            {
              "internalType": "address",
              "name": "user",
              "type": "address"
            },
            {
              "internalType": "address",
              "name": "tokenIn",
              "type": "address"
            },
            {
              "internalType": "address",
              "name": "tokenOut",
              "type": "address"
            },
            {
              "internalType": "uint256",
              "name": "amountIn",
              "type": "uint256"
            },
            {
              "internalType": "uint256",
              "name": "amountOut",
              "type": "uint256"
            },
            {
              "internalType": "string",
              "name": "transactionType",
              "type": "string"
            }
          ],
          "internalType": "struct TokenICO.Transaction[]",
          "name": "",
          "type": "tuple[]"
        }
      ],
      "stateMutability": "view",
      "type": "function"
    },
    {
      "inputs": [],
      "name": "getContractInfo",
      "outputs": [
        {
          "internalType": "address",
          "name": "tokenAddress",
          "type": "address"
        },
        {
          "internalType": "uint256",
          "name": "tokenBalance",
          "type": "uint256"
        },
        {
          "internalType": "uint256",
          "name": "ethPrice",
          "type": "uint256"
        },
        {
          "internalType": "uint256",
          "name": "stablecoinPrice",
          "type": "uint256"
        },
        {
          "internalType": "uint256",
          "name": "totalSold",
          "type": "uint256"
        },
        {
          "internalType": "address",
          "name": "usdtAddr",
          "type": "address"
        },
        {
          "internalType": "address",
          "name": "usdcAddr",
          "type": "address"
        },
        {
          "internalType": "uint256",
          "name": "usdtTokenRatio",
          "type": "uint256"
        },
        {
          "internalType": "uint256",
          "name": "usdcTokenRatio",
          "type": "uint256"
        }
      ],
      "stateMutability": "view",
      "type": "function"
    },
    {
      "inputs": [
        {
          "internalType": "address",
          "name": "user",
          "type": "address"
        }
      ],
      "name": "getReferralInfo",
      "outputs": [
        {
          "internalType": "address",
          "name": "referrer",
          "type": "address"
        },
        {
          "internalType": "uint256",
          "name": "totalReferrals",
          "type": "uint256"
        },
        {
          "internalType": "uint256",
          "name": "totalRewardsEarned",
          "type": "uint256"
        },
        {
          "internalType": "uint256",
          "name": "rewardPercentage",
          "type": "uint256"
        }
      ],
      "stateMutability": "view",
      "type": "function"
    },
    {
      "inputs": [
        {
          "internalType": "uint256",
          "name": "stakeId",
          "type": "uint256"
        }
      ],
      "name": "getStakeDetails",
      "outputs": [
        {
          "internalType": "uint256",
          "name": "lockPeriod",
          "type": "uint256"
        },
        {
          "internalType": "uint256",
          "name": "pendingRewards",
          "type": "uint256"
        },
        {
          "internalType": "bool",
          "name": "active",
          "type": "bool"
        }
      ],
      "stateMutability": "view",
      "type": "function"
    },
    {
      "inputs": [
        {
          "internalType": "uint256",
          "name": "stakeId",
          "type": "uint256"
        }
      ],
      "name": "getStakeInfo",
      "outputs": [
        {
          "internalType": "uint256",
          "name": "id",
          "type": "uint256"
        },
        {
          "internalType": "address",
          "name": "stakeOwnerAddr",
          "type": "address"
        },
        {
          "internalType": "uint256",
          "name": "amount",
          "type": "uint256"
        },
        {
          "internalType": "uint256",
          "name": "startTime",
          "type": "uint256"
        }
      ],
      "stateMutability": "view",
      "type": "function"
    },
    {
      "inputs": [],
      "name": "getStakingInfo",
      "outputs": [
        {
          "internalType": "uint256",
          "name": "baseApyRate",
          "type": "uint256"
        },
        {
          "internalType": "uint256",
          "name": "minStakingAmount",
          "type": "uint256"
        },
        {
          "internalType": "uint256",
          "name": "totalTokensStaked",
          "type": "uint256"
        },
        {
          "internalType": "uint256",
          "name": "totalRewardsPaid",
          "type": "uint256"
        },
        {
          "internalType": "uint256",
          "name": "numberOfStakers",
          "type": "uint256"
        }
      ],
      "stateMutability": "view",
      "type": "function"
    },
    {
      "inputs": [],
      "name": "getTokenBalances",
      "outputs": [
        {
          "internalType": "uint256",
          "name": "tokenBalance",
          "type": "uint256"
        },
        {
          "internalType": "uint256",
          "name": "usdtBalance",
          "type": "uint256"
        },
        {
          "internalType": "uint256",
          "name": "usdcBalance",
          "type": "uint256"
        }
      ],
      "stateMutability": "view",
      "type": "function"
    },
    {
      "inputs": [],
      "name": "getTotalPenaltyCollected",
      "outputs": [
        {
          "internalType": "uint256",
          "name": "",
          "type": "uint256"
        }
      ],
      "stateMutability": "view",
      "type": "function"
    },
    {
      "inputs": [
        {
          "internalType": "address",
          "name": "referrer",
          "type": "address"
        }
      ],
      "name": "getUserReferrals",
      "outputs": [
        {
          "internalType": "address[]",
          "name": "",
          "type": "address[]"
        }
      ],
      "stateMutability": "view",
      "type": "function"
    },
    {
      "inputs": [
        {
          "internalType": "address",
          "name": "user",
          "type": "address"
        }
      ],
      "name": "getUserStakes",
      "outputs": [
        {
          "components": [
            {
              "internalType": "uint256",
              "name": "id",
              "type": "uint256"
            },
            {
              "internalType": "uint256",
              "name": "amount",
              "type": "uint256"
            },
            {
              "internalType": "uint256",
              "name": "startTime",
              "type": "uint256"
            },
            {
              "internalType": "uint256",
              "name": "lockPeriod",
              "type": "uint256"
            },
            {
              "internalType": "uint256",
              "name": "lastRewardCalculation",
              "type": "uint256"
            },
            {
              "internalType": "uint256",
              "name": "pendingRewards",
              "type": "uint256"
            },
            {
              "internalType": "bool",
              "name": "active",
              "type": "bool"
            }
          ],
          "internalType": "struct TokenICO.Stake[]",
          "name": "",
          "type": "tuple[]"
        }
      ],
      "stateMutability": "view",
      "type": "function"
    },
    {
      "inputs": [
        {
          "internalType": "address",
          "name": "user",
          "type": "address"
        }
      ],
      "name": "getUserStakingInfo",
      "outputs": [
        {
          "internalType": "uint256",
          "name": "totalUserStaked",
          "type": "uint256"
        },
        {
          "internalType": "uint256",
          "name": "totalPendingRewards",
          "type": "uint256"
        },
        {
          "internalType": "uint256",
          "name": "activeStakesCount",
          "type": "uint256"
        }
      ],
      "stateMutability": "view",
      "type": "function"
    },
    {
      "inputs": [
        {
          "internalType": "address",
          "name": "user",
          "type": "address"
        }
      ],
      "name": "getUserTransactions",
      "outputs": [
        {
          "components": [
            {
              "internalType": "uint256",
              "name": "timestamp",
              "type": "uint256"
            },
            {
              "internalType": "address",
              "name": "user",
              "type": "address"
            },
            {
              "internalType": "address",
              "name": "tokenIn",
              "type": "address"
            },
            {
              "internalType": "address",
              "name": "tokenOut",
              "type": "address"
            },
            {
              "internalType": "uint256",
              "name": "amountIn",
              "type": "uint256"
            },
            {
              "internalType": "uint256",
              "name": "amountOut",
              "type": "uint256"
            },
            {
              "internalType": "string",
              "name": "transactionType",
              "type": "string"
            }
          ],
          "internalType": "struct TokenICO.Transaction[]",
          "name": "",
          "type": "tuple[]"
        }
      ],
      "stateMutability": "view",
      "type": "function"
    },
    {
      "inputs": [
        {
          "internalType": "uint256",
          "name": "stakeId",
          "type": "uint256"
        }
      ],
      "name": "harvestRewards",
      "outputs": [],
      "stateMutability": "nonpayable",
      "type": "function"
    },
    {
      "inputs": [
        {
          "internalType": "address",
          "name": "",
          "type": "address"
        }
      ],
      "name": "hasStaked",
      "outputs": [
        {
          "internalType": "bool",
          "name": "",
          "type": "bool"
        }
      ],
      "stateMutability": "view",
      "type": "function"
    },
    {
      "inputs": [],
      "name": "minStakeAmount",
      "outputs": [
        {
          "internalType": "uint256",
          "name": "",
          "type": "uint256"
        }
      ],
      "stateMutability": "view",
      "type": "function"
    },
    {
      "inputs": [],
      "name": "nextStakeId",
      "outputs": [
        {
          "internalType": "uint256",
          "name": "",
          "type": "uint256"
        }
      ],
      "stateMutability": "view",
      "type": "function"
    },
    {
      "inputs": [],
      "name": "owner",
      "outputs": [
        {
          "internalType": "address",
          "name": "",
          "type": "address"
        }
      ],
      "stateMutability": "view",
      "type": "function"
    },
    {
      "inputs": [],
      "name": "referralRewardPercentage",
      "outputs": [
        {
          "internalType": "uint256",
          "name": "",
          "type": "uint256"
        }
      ],
      "stateMutability": "view",
      "type": "function"
    },
    {
      "inputs": [
        {
          "internalType": "address",
          "name": "",
          "type": "address"
        }
      ],
      "name": "referralRewards",
      "outputs": [
        {
          "internalType": "uint256",
          "name": "",
          "type": "uint256"
        }
      ],
      "stateMutability": "view",
      "type": "function"
    },
    {
      "inputs": [
        {
          "internalType": "address",
          "name": "",
          "type": "address"
        },
        {
          "internalType": "uint256",
          "name": "",
          "type": "uint256"
        }
      ],
      "name": "referrals",
      "outputs": [
        {
          "internalType": "address",
          "name": "",
          "type": "address"
        }
      ],
      "stateMutability": "view",
      "type": "function"
    },
    {
      "inputs": [
        {
          "internalType": "address",
          "name": "",
          "type": "address"
        }
      ],
      "name": "referrers",
      "outputs": [
        {
          "internalType": "address",
          "name": "",
          "type": "address"
        }
      ],
      "stateMutability": "view",
      "type": "function"
    },
    {
      "inputs": [
        {
          "internalType": "address",
          "name": "referrer",
          "type": "address"
        }
      ],
      "name": "registerReferrer",
      "outputs": [],
      "stateMutability": "nonpayable",
      "type": "function"
    },
    {
      "inputs": [],
      "name": "saleToken",
      "outputs": [
        {
          "internalType": "address",
          "name": "",
          "type": "address"
        }
      ],
      "stateMutability": "view",
      "type": "function"
    },
    {
      "inputs": [
        {
          "internalType": "address",
          "name": "user",
          "type": "address"
        },
        {
          "internalType": "bool",
          "name": "blocked",
          "type": "bool"
        }
      ],
      "name": "setBlockStatus",
      "outputs": [],
      "stateMutability": "nonpayable",
      "type": "function"
    },
    {
      "inputs": [
        {
          "internalType": "address",
          "name": "_token",
          "type": "address"
        }
      ],
      "name": "setSaleToken",
      "outputs": [],
      "stateMutability": "nonpayable",
      "type": "function"
    },
    {
      "inputs": [],
      "name": "solAddress",
      "outputs": [
        {
          "internalType": "address",
          "name": "",
          "type": "address"
        }
      ],
      "stateMutability": "view",
      "type": "function"
    },
    {
      "inputs": [],
      "name": "solRatio",
      "outputs": [
        {
          "internalType": "uint256",
          "name": "",
          "type": "uint256"
        }
      ],
      "stateMutability": "view",
      "type": "function"
    },
    {
      "inputs": [
        {
          "internalType": "uint256",
          "name": "",
          "type": "uint256"
        }
      ],
      "name": "stakeOwners",
      "outputs": [
        {
          "internalType": "address",
          "name": "",
          "type": "address"
        }
      ],
      "stateMutability": "view",
      "type": "function"
    },
    {
      "inputs": [
        {
          "internalType": "uint256",
          "name": "amount",
          "type": "uint256"
        },
        {
          "internalType": "uint256",
          "name": "lockPeriodDays",
          "type": "uint256"
        }
      ],
      "name": "stakeTokens",
      "outputs": [],
      "stateMutability": "nonpayable",
      "type": "function"
    },
    {
      "inputs": [],
      "name": "tokensSold",
      "outputs": [
        {
          "internalType": "uint256",
          "name": "",
          "type": "uint256"
        }
      ],
      "stateMutability": "view",
      "type": "function"
    },
    {
      "inputs": [],
      "name": "totalPenaltyCollected",
      "outputs": [
        {
          "internalType": "uint256",
          "name": "",
          "type": "uint256"
        }
      ],
      "stateMutability": "view",
      "type": "function"
    },
    {
      "inputs": [],
      "name": "totalRewardsDistributed",
      "outputs": [
        {
          "internalType": "uint256",
          "name": "",
          "type": "uint256"
        }
      ],
      "stateMutability": "view",
      "type": "function"
    },
    {
      "inputs": [],
      "name": "totalStaked",
      "outputs": [
        {
          "internalType": "uint256",
          "name": "",
          "type": "uint256"
        }
      ],
      "stateMutability": "view",
      "type": "function"
    },
    {
      "inputs": [],
      "name": "totalStakers",
      "outputs": [
        {
          "internalType": "uint256",
          "name": "",
          "type": "uint256"
        }
      ],
      "stateMutability": "view",
      "type": "function"
    },
    {
      "inputs": [
        {
          "internalType": "uint256",
          "name": "stakeId",
          "type": "uint256"
        }
      ],
      "name": "unstakeEarly",
      "outputs": [],
      "stateMutability": "nonpayable",
      "type": "function"
    },
    {
      "inputs": [
        {
          "internalType": "uint256",
          "name": "stakeId",
          "type": "uint256"
        }
      ],
      "name": "unstakeTokens",
      "outputs": [],
      "stateMutability": "nonpayable",
      "type": "function"
    },
    {
      "inputs": [
        {
          "internalType": "address",
          "name": "newAddress",
          "type": "address"
        },
        {
          "internalType": "uint256",
          "name": "newRatio",
          "type": "uint256"
        }
      ],
      "name": "updateBNB",
      "outputs": [],
      "stateMutability": "nonpayable",
      "type": "function"
    },
    {
      "inputs": [
        {
          "internalType": "address",
          "name": "newAddress",
          "type": "address"
        },
        {
          "internalType": "uint256",
          "name": "newRatio",
          "type": "uint256"
        }
      ],
      "name": "updateBTC",
      "outputs": [],
      "stateMutability": "nonpayable",
      "type": "function"
    },
    {
      "inputs": [
        {
          "internalType": "uint256",
          "name": "newAPY",
          "type": "uint256"
        }
      ],
      "name": "updateBaseAPY",
      "outputs": [],
      "stateMutability": "nonpayable",
      "type": "function"
    },
    {
      "inputs": [
        {
          "internalType": "uint256",
          "name": "newMinAmount",
          "type": "uint256"
        }
      ],
      "name": "updateMinStakeAmount",
      "outputs": [],
      "stateMutability": "nonpayable",
      "type": "function"
    },
    {
      "inputs": [
        {
          "internalType": "uint256",
          "name": "newPercentage",
          "type": "uint256"
        }
      ],
      "name": "updateReferralPercentage",
      "outputs": [],
      "stateMutability": "nonpayable",
      "type": "function"
    },
    {
      "inputs": [
        {
          "internalType": "address",
          "name": "newAddress",
          "type": "address"
        },
        {
          "internalType": "uint256",
          "name": "newRatio",
          "type": "uint256"
        }
      ],
      "name": "updateSOL",
      "outputs": [],
      "stateMutability": "nonpayable",
      "type": "function"
    },
    {
      "inputs": [
        {
          "internalType": "uint256",
          "name": "newPrice",
          "type": "uint256"
        }
      ],
      "name": "updateStablecoinPrice",
      "outputs": [],
      "stateMutability": "nonpayable",
      "type": "function"
    },
    {
      "inputs": [
        {
          "internalType": "uint256",
          "name": "newPrice",
          "type": "uint256"
        }
      ],
      "name": "updateTokenPrice",
      "outputs": [],
      "stateMutability": "nonpayable",
      "type": "function"
    },
    {
      "inputs": [
        {
          "internalType": "address",
          "name": "newAddress",
          "type": "address"
        },
        {
          "internalType": "uint256",
          "name": "newRatio",
          "type": "uint256"
        }
      ],
      "name": "updateUSDC",
      "outputs": [],
      "stateMutability": "nonpayable",
      "type": "function"
    },
    {
      "inputs": [
        {
          "internalType": "address",
          "name": "newAddress",
          "type": "address"
        },
        {
          "internalType": "uint256",
          "name": "newRatio",
          "type": "uint256"
        }
      ],
      "name": "updateUSDT",
      "outputs": [],
      "stateMutability": "nonpayable",
      "type": "function"
    },
    {
      "inputs": [],
      "name": "usdcAddress",
      "outputs": [
        {
          "internalType": "address",
          "name": "",
          "type": "address"
        }
      ],
      "stateMutability": "view",
      "type": "function"
    },
    {
      "inputs": [],
      "name": "usdcRatio",
      "outputs": [
        {
          "internalType": "uint256",
          "name": "",
          "type": "uint256"
        }
      ],
      "stateMutability": "view",
      "type": "function"
    },
    {
      "inputs": [],
      "name": "usdtAddress",
      "outputs": [
        {
          "internalType": "address",
          "name": "",
          "type": "address"
        }
      ],
      "stateMutability": "view",
      "type": "function"
    },
    {
      "inputs": [],
      "name": "usdtRatio",
      "outputs": [
        {
          "internalType": "uint256",
          "name": "",
          "type": "uint256"
        }
      ],
      "stateMutability": "view",
      "type": "function"
    },
    {
      "inputs": [
        {
          "internalType": "address",
          "name": "",
          "type": "address"
        },
        {
          "internalType": "uint256",
          "name": "",
          "type": "uint256"
        }
      ],
      "name": "userStakes",
      "outputs": [
        {
          "internalType": "uint256",
          "name": "id",
          "type": "uint256"
        },
        {
          "internalType": "uint256",
          "name": "amount",
          "type": "uint256"
        },
        {
          "internalType": "uint256",
          "name": "startTime",
          "type": "uint256"
        },
        {
          "internalType": "uint256",
          "name": "lockPeriod",
          "type": "uint256"
        },
        {
          "internalType": "uint256",
          "name": "lastRewardCalculation",
          "type": "uint256"
        },
        {
          "internalType": "uint256",
          "name": "pendingRewards",
          "type": "uint256"
        },
        {
          "internalType": "bool",
          "name": "active",
          "type": "bool"
        }
      ],
      "stateMutability": "view",
      "type": "function"
    },
    {
      "inputs": [
        {
          "internalType": "address",
          "name": "",
          "type": "address"
        },
        {
          "internalType": "uint256",
          "name": "",
          "type": "uint256"
        }
      ],
      "name": "userTransactions",
      "outputs": [
        {
          "internalType": "uint256",
          "name": "timestamp",
          "type": "uint256"
        },
        {
          "internalType": "address",
          "name": "user",
          "type": "address"
        },
        {
          "internalType": "address",
          "name": "tokenIn",
          "type": "address"
        },
        {
          "internalType": "address",
          "name": "tokenOut",
          "type": "address"
        },
        {
          "internalType": "uint256",
          "name": "amountIn",
          "type": "uint256"
        },
        {
          "internalType": "uint256",
          "name": "amountOut",
          "type": "uint256"
        },
        {
          "internalType": "string",
          "name": "transactionType",
          "type": "string"
        }
      ],
      "stateMutability": "view",
      "type": "function"
    },
    {
      "inputs": [
        {
          "internalType": "address",
          "name": "_token",
          "type": "address"
        },
        {
          "internalType": "uint256",
          "name": "_amount",
          "type": "uint256"
        }
      ],
      "name": "withdrawTokens",
      "outputs": [],
      "stateMutability": "nonpayable",
      "type": "function"
    }
  ],
  "bytecode": "0x60a080604052346100f55766038d7ea4c6800080600655600755600c60125568056bc75e2d6310000060135560016019556005601b5533608052601460085560146009556014600a556014600c55614c4790816100fb82396080518181816104730152818161074f0152818161084201528181610b9901528181610e5c01528181610f6e015281816111310152818161122d015281816116fa01528181611ab301528181611bc301528181611c6b015281816120c3015281816125680152818161298701528181612a0701528181612f7d0152818161311b0152818161321e0152818161330c0152818161346401526136c80152f35b600080fdfe6080604081815260048036101561001557600080fd5b60009260e08435811c91826302d454571461384e57508163032d975b1461382e57816306360b851461361357816306b091f9146134435781630981348214613373578163150d283d1461326e578163182a676b146131bc5781631c042d351461319c5781631ce24e16146131725781631e37c606146130ee578163214405a9146130ce57816321874ae21461306d578163251545da14612e6d57816327506f5314612d8d5781632bb388091461264d5781632fd04c0814612a5e578163366b17d6146129da5781633a94be2d146129595781633b7b61881461266d578163491cc7561461264d5781634a3b68cc146126115781634cdb312d1461254c5781634f93208a1461250d578163518ab2a8146124ed57816353aaa63b146124b457816357126d0d14612284578163575cea6b146121d95781635b36504014611fb3578163608e4dd014611cd957816363219c7214611c2c578163676c0d7714611b845781636f43f37314611b6457816371d20fe714611a9757816375506c9614611a775781637a9773dc14611a575781637cc1f867146119745781638093360814611891578163817b1cd21461187157816383fabe0314611851578163842e29811461174957816386989038146117295781638da5cb5b146116e4578163920a253e146116c4578163963c9dd3146115e95781639ab4a445146115bf5781639c0fbd05146115a25781639ea7685a146113e8578163a1dc903114611272578163a29f481c14611204578163a7c6016014611076578163aeccf73514610eb3578163b006984f14610e2f578163b40cd21d14610ded578163b5d5b5fa14610d5a57508063b842ec4414610cdc578063c3333dfb14610ae8578063c605af5314610ac9578063c93c8f3414610a8b578063d11c583a14610a62578063d3ea435014610a3b578063d7ff0714146108f3578063d8060cd514610827578063e697b5d8146107ce578063e985e367146107a6578063ebcd3a1314610723578063ee17254614610704578063ef92539914610626578063f188768414610607578063f30ef2e5146103bc578063f34a00fb14610399578063f7d76ae5146103725763fd9a11e51461033d57600080fd5b3461036e57602036600319011261036e5735825260156020908152918190205490516001600160a01b039091168152f35b8280fd5b503461036e578260031936011261036e575490516001600160a01b03909116815260209150f35b5050346103b857816003193601126103b8576020906007549051908152f35b5080fd5b503461036e576020908160031936011261060357803590338552600e83526103ea60ff858720541615613c4f565b8115906103f78215613df7565b85546001600160a01b0394906104109086161515613ccc565b846005541680156105cb57633b9aca0093848602948686041417156105b85761043b600c5486613d0d565b93670de0b6b3a7640000948581029581870414901517156105a55787516323b872dd60e01b8152338582019081526001600160a01b037f0000000000000000000000000000000000000000000000000000000000000000166020820152604081019290925291839183919082908c90829060600103925af190811561059b57889161056e575b5015610536575050600080516020614bf2833981519152916104e5610530926142fe565b936104ef85614538565b61050c81600554168684848b5416610505613dd8565b9333614af0565b60055416945191829133954291846040919493926060820195825260208201520152565b0390a380f35b855162461bcd60e51b815291820152601360248201527214d3d3081d1c985b9cd9995c8819985a5b1959606a1b604482015260649150fd5b61058e9150823d8411610594575b6105868183613a3b565b810190613e85565b386104c1565b503d61057c565b87513d8a823e3d90fd5b634e487b7160e01b895260118452602489fd5b634e487b7160e01b885260118352602488fd5b865162461bcd60e51b8152808401839052601260248201527114d3d3081b9bdd0818dbdb999a59dd5c995960721b6044820152606490fd5b8380fd5b5050346103b857816003193601126103b8576020906013549051908152f35b508290346103b85760209182600319360112610701576001600160a01b03928361064e613873565b168252600f81528482209182549361066585614b4c565b9561067288519788613a3b565b85875283870194835283832092945b868610610699578851806106958a826138ce565b0390f35b6007856001928b516106aa816139ed565b8754815285858901541683820152856002890154168d820152856003890154166060820152868801546080820152600588015460a08201526106ee60068901613a5d565b60c0820152815201940195019492610681565b80fd5b5050346103b857816003193601126103b8576020906017549051908152f35b5050346103b8573660031901126107015761073c613873565b602435906001600160a01b0390610776337f0000000000000000000000000000000000000000000000000000000000000000841614613b60565b16610782811515613bd5565b61078d821515613c13565b6001600160601b0360a01b6005541617600555600c5580f35b5050346103b857816003193601126103b857905490516001600160a01b039091168152602090f35b5050346103b857806003193601126103b8576107e8613873565b6001600160a01b039081168352601d60205281832080546024359490851015610701575060209361081891613b48565b92905490519260031b1c168152f35b503461036e57602036600319011261036e57803590610870337f00000000000000000000000000000000000000000000000000000000000000006001600160a01b031614613b60565b81156108b05750907f171aabb8815c02fd00303450a77058600e3661eb75ce2e77972c0f080bc7099d91601354908060135582519182526020820152a180f35b606490602084519162461bcd60e51b8352820152602060248201527f4d696e207374616b65206d7573742062652067726561746572207468616e20306044820152fd5b503461036e57602036600319011261036e573560105481101561036e57601060079293520290610695827f1b6847dc741a1b0cd08d278845f9d819d87b734759afb55fe2de5cb82a9ae67201549160018060a01b0393847f1b6847dc741a1b0cd08d278845f9d819d87b734759afb55fe2de5cb82a9ae6738201541694807f1b6847dc741a1b0cd08d278845f9d819d87b734759afb55fe2de5cb82a9ae67483015416907f1b6847dc741a1b0cd08d278845f9d819d87b734759afb55fe2de5cb82a9ae675830154167f1b6847dc741a1b0cd08d278845f9d819d87b734759afb55fe2de5cb82a9ae67683015491610a307f1b6847dc741a1b0cd08d278845f9d819d87b734759afb55fe2de5cb82a9ae6787f1b6847dc741a1b0cd08d278845f9d819d87b734759afb55fe2de5cb82a9ae6778601549501613a5d565b945197889788613b03565b5091346107015760203660031901126107015750610a5b602092356140b2565b9051908152f35b5050346103b857816003193601126103b85760035490516001600160a01b039091168152602090f35b5050346103b85760203660031901126103b85760209160ff9082906001600160a01b03610ab6613873565b168152601a855220541690519015158152f35b5050346103b857816003193601126103b8576020906006549051908152f35b503461036e576020908160031936011261060357803590338552600e8352610b1660ff858720541615613c4f565b811590610b238215613df7565b85546001600160a01b039490610b3c9086161515613ccc565b84600354168015610ca457670de0b6b3a76400009384860290868204861417156105a557610b6c600a5487613d0d565b8581029581870414901517156105a55787516323b872dd60e01b8152338582019081526001600160a01b037f0000000000000000000000000000000000000000000000000000000000000000166020820152604081019290925291839183919082908c90829060600103925af190811561059b578891610c87575b5015610c4f575050600080516020614bf283398151915291610c0b610530926142fe565b93610c1585614538565b610c2b81600354168684848b5416610505613dd8565b60035416945191829133954291846040919493926060820195825260208201520152565b855162461bcd60e51b8152918201526013602482015272109390881d1c985b9cd9995c8819985a5b1959606a1b604482015260649150fd5b610c9e9150823d8411610594576105868183613a3b565b38610be7565b865162461bcd60e51b81528084018390526012602482015271109390881b9bdd0818dbdb999a59dd5c995960721b6044820152606490fd5b509190346103b857806003193601126103b857610cf7613873565b6001600160a01b039081168352600f602052818320805491936024359283101561070157506106959291610d2a91613981565b50805493806001830154169581600284015416916003840154169083015491610a30600660058601549501613a5d565b93905034610701578260031936011261070157610d75613873565b6001600160a01b03168152601460205282812080546024359290831015610701575090610da191613981565b5080549260018201549260028301546003840154918401549260ff600660058701549601541695815197885260208801528601526060850152608084015260a0830152151560c0820152f35b505050346103b857816003193601126103b85760a090601254906013549060165460175491601854938151958652602086015284015260608301526080820152f35b505050346103b85736600319011261070157610e49613873565b602435906001600160a01b0390610e83337f0000000000000000000000000000000000000000000000000000000000000000841614613b60565b16610e8f811515613bd5565b610e9a821515613c13565b6001600160601b0360a01b600154161760015560085580f35b50503461036e57602036600319011261036e57803590338452600e602052610ee160ff848620541615613c4f565b811591610eee8315613df7565b84546001600160a01b039390610f079085161515613ccc565b8360025416610f17811515613ee0565b620f4240918284029284840414171561106357610f3660095484613d0d565b93670de0b6b3a7640000948581029581870414901517156110505786516323b872dd60e01b8152339181019182526001600160a01b037f0000000000000000000000000000000000000000000000000000000000000000166020838101919091526040830194909452939291849182908a90829060600103925af1801561104657600080516020614bf283398151915293610fdf610fe492610530958a91611028575b50613f22565b6142fe565b93610fee85614538565b61100481600254168684848b5416610505613dd8565b60025416945191829133954291846040919493926060820195825260208201520152565b611040915060203d8111610594576105868183613a3b565b38610fd9565b85513d88823e3d90fd5b634e487b7160e01b885260119052602487fd5b634e487b7160e01b875260118452602487fd5b50503461036e57602036600319011261036e57803590338452600e6020526110a460ff848620541615613c4f565b8115916110b18315613df7565b84546001600160a01b0393906110ca9085161515613ccc565b83600154166110da811515613e43565b620f42409182840292848404141715611063576110f960085484613d0d565b93670de0b6b3a7640000948581029581870414901517156110505786516323b872dd60e01b8152339181019182526001600160a01b037f0000000000000000000000000000000000000000000000000000000000000000166020838101919091526040830194909452939291849182908a90829060600103925af1801561104657600080516020614bf283398151915293610fdf6111a292610530958a916111e6575b50613e9d565b936111ac85614538565b6111c281600154168684848b5416610505613dd8565b60015416945191829133954291846040919493926060820195825260208201520152565b6111fe915060203d8111610594576105868183613a3b565b3861119c565b84346107015760203660031901126107015761121e613873565b6001600160a01b0390611254337f0000000000000000000000000000000000000000000000000000000000000000841614613b60565b16611260811515613bd5565b81546001600160a01b03191617815580f35b5050903461036e578260031936011261036e57825481516370a0823160e01b808252308286015290946001600160a01b03946020938490889060249082908a165afa9586156113de5782966113ae575b602497508481600154168751998a809288825230878301525afa9788156113a4578398611374575b509060248592600254169487519586938492835230908301525afa928315611368578193611335575b5050506106959151938493846040919493926060820195825260208201520152565b9091809350813d8311611361575b61134d8183613a3b565b810103126107015750516106953880611313565b503d611343565b508351903d90823e3d90fd5b9097508481813d831161139d575b61138c8183613a3b565b8101031261036e57519660246112ea565b503d611382565b86513d85823e3d90fd5b95508387813d83116113d7575b6113c58183613a3b565b810103126103b85760249651956112c2565b503d6113bb565b85513d84823e3d90fd5b828585346103b8576020908160031936011261036e57611406613873565b90338452600e835261141e60ff828620541615613c4f565b6001600160a01b039182169283156115605733841461152657338552601c81528282862054166114d957338552601c815281852080546001600160a01b03191685179055838552601d90528320805490600160401b8210156114c6579061148a91600182018155613b48565b819291549060031b9133831b921b191617905533907f5f1ca2fcc108b751843a763e60d2201f593516109d7dbb1b700468f2d4190bb78380a380f35b634e487b7160e01b855260418652602485fd5b8590608492519162461bcd60e51b8352820152602260248201527f416c72656164792072656769737465726564207769746820612072656665727260448201526132b960f11b6064820152fd5b8590606492519162461bcd60e51b8352820152601560248201527421b0b73737ba103932b332b9103cb7bab939b2b63360591b6044820152fd5b8590606492519162461bcd60e51b8352820152601860248201527f496e76616c6964207265666572726572206164647265737300000000000000006044820152fd5b505050346103b857816003193601126103b8576020905160058152f35b505050346103b857816003193601126103b85760015490516001600160a01b039091168152602090f35b50503461036e5760209081600319360112610603573580845260158252828420546001600160a01b031693909290611622851515613fe5565b61162a614bb9565b8195825b818452601480875285852080548310156116af5761164d838a92613981565b505414611663575061165e90613fc9565b61162e565b606098506116869350848691611680946116969752885220613981565b50614b64565b936116916001614028565b6140b2565b60c0858501519401511515928251948552840152820152f35b50505050936116969150611691606096614028565b505050346103b857816003193601126103b857602090601b549051908152f35b505050346103b857816003193601126103b857517f00000000000000000000000000000000000000000000000000000000000000006001600160a01b03168152602090f35b505050346103b857816003193601126103b8576020906018549051908152f35b9150503461036e576020806003193601126106035790916001600160a01b03611770613873565b168452601482528084209182549161178783614b4c565b9261179482519485613a3b565b8084528284018095885283882088915b838310611824575050505080519482860193838752518094528186019496915b8483106117d15786860387f35b87518051875280850151878601528082015187830152606080820151908801526080808201519088015260a0808201519088015260c09081015115159087015296830196948101946001909201916117c4565b60078660019261183b859d999a9b9d9c989c614b64565b81520192019201919098969594989793976117a4565b505050346103b857816003193601126103b8576020906008549051908152f35b505050346103b857816003193601126103b8576020906016549051908152f35b8385346107015760209081600319360112610701576118ae613873565b9091829182919082906001600160a01b0316815b8186526014808552888720805483101561195c5760ff60066118e5858d94613981565b500154166118fe575b50506118f990613fc9565b6118c2565b82969461192c839a60016119236118f99761194e968e611954998e8d83525220613981565b50015490613fd8565b99858a528752611948611941898d8c20613981565b50546140b2565b90613fd8565b93613fc9565b9490886118ee565b89518981526020810186905260408101889052606090f35b92905034610603578360031936011261060357835481516370a0823160e01b815230938101939093526001600160a01b039081169390602084602481885afa938415611a4d578694611a11575b50610120955060065490600754600d54908260015416926002541693600854966009549881519a8b5260208b01528901526060880152608087015260a086015260c0850152830152610100820152f35b9093506020813d8211611a45575b81611a2c60209383613a3b565b81010312611a415761012095505192386119c1565b8580fd5b3d9150611a1f565b83513d88823e3d90fd5b505050346103b857816003193601126103b857602090600c549051908152f35b505050346103b857816003193601126103b8576020906019549051908152f35b50503461036e57602036600319011261036e57803590611ae1337f00000000000000000000000000000000000000000000000000000000000000006001600160a01b031614613b60565b8115611b215750907f787a1fca55641ce34a438271930bbb9401df20db2b4f510d4f252227d85df43d91601254908060125582519182526020820152a180f35b606490602084519162461bcd60e51b8352820152601a60248201527f415059206d7573742062652067726561746572207468616e20300000000000006044820152fd5b505050346103b857816003193601126103b8576020906009549051908152f35b50503461036e57602036600319011261036e577f6e838f2a03741f5f2aff5480963b672fb0dd8430a4dc75db9b67ce009733c9fe9160a09135611bf1337f00000000000000000000000000000000000000000000000000000000000000006001600160a01b031614613b60565b611bfc811515613b99565b60065491816006558051926060845260056060850152642a27a5a2a760d91b60808501526020840152820152a180f35b50503461036e57602036600319011261036e577f6e838f2a03741f5f2aff5480963b672fb0dd8430a4dc75db9b67ce009733c9fe9160a09135611c99337f00000000000000000000000000000000000000000000000000000000000000006001600160a01b031614613b60565b611ca4811515613b99565b600754918160075580519260608452600a60608501526929aa20a12622a1a7a4a760b11b60808501526020840152820152a180f35b5050903461036e5760209081600319360112610603578291923592338552600e815260ff611d0c81848820541615613c4f565b84865260158252828620546001600160a01b0390611d2d90821633146142c0565b8694859283805b338b526014808852888c208054831015611f9f579a611d5583829c9d613981565b505414611d6e5750611d6690613fc9565b989798611d34565b955097985050338952838552611d97611d8988888c20613981565b509160068093015416614066565b3389528385526002611dab88888c20613981565b500154338a528486526003611dc289898d20613981565b500154906201518091828102928184041490151715611f8c5790611de591613fd8565b4210611f5457918491611e488a611e8e95611e2a611e028d6140b2565b9b3384528988528b611e1682828720613981565b50946001809601549b3382528a5220613981565b500160ff1981541690556016611e418882546140a5565b9055614028565b611e513361447f565b611e5b8886613fd8565b8a54885163a9059cbb60e01b8152339381019384526020840192909252909485939091169183918c918391604090910190565b03925af1908115611f4a5790611eab918891611f2d575b50613f85565b848415159182611f19575b84519081527f7fc4727e062e336010f2c282598ef5f14facb3de68cf8195c2f23e1454b2b74e843392a3611ee8578480f35b7ff87cfa2d5feaea949ad65bb76a26d8553381bcb6382adbc83dedd48961bf32d991519283523392a3388080808480f35b611f2586601754613fd8565b601755611eb6565b611f449150843d8611610594576105868183613a3b565b38611ea5565b84513d89823e3d90fd5b606482858789519262461bcd60e51b845283015260248201527314dd1a5b1b081a5b881b1bd8dac81c195c9a5bd960621b6044820152fd5b634e487b7160e01b8b526011845260248bfd5b505050611e8e93915091611e488693614028565b50508260031936011261036e573383526020600e8152611fd960ff848620541615613c4f565b341590611fe68215613c90565b6001546001600160a01b039290831690612001821515613e43565b620f424090813402913483041417156121c65760075461202091613d36565b9385516370a0823160e01b815230828201528381602481865afa801561059b5786918991612191575b501061214e57855163a9059cbb60e01b81523391810191825260208201869052939291829185919082908a90829060400103925af18015611046577f48a1f8a6c840b32621ceab4439a2ccd00b337e705dfdcdec0b40c49abf3e6be3936120b8928892612131575b5050613e9d565b6120f38580808034867f0000000000000000000000000000000000000000000000000000000000000000165af16120ed613d56565b50613d96565b61210d816001541684612104613f65565b91349033614a91565b60015493519283523460208401524260408401529092169133918060608101610530565b6121479250803d10610594576105868183613a3b565b38806120b1565b855162461bcd60e51b8152908101839052601b60248201527f496e73756666696369656e742055534454206c697175696469747900000000006044820152606490fd5b809250858092503d83116121bf575b6121aa8183613a3b565b810103126121bb5785905138612049565b8780fd5b503d6121a0565b634e487b7160e01b875260118552602487fd5b505050346103b85760208060031936011261036e576001600160a01b039283612200613873565b168152601d825282812091835190818185549182815201908195855282852090855b81811061226e5750505082612238910383613a3b565b8451948186019282875251809352850193925b8281106122585785850386f35b835187168552938101939281019260010161224b565b82548a1684529284019260019283019201612222565b838584346103b8576020908160031936011261036e57803591338452600e815260ff946122b686828720541615613c4f565b83855260159283835260018060a01b036122d63382858a205416146142c0565b86875b3389526014808752858a20805483101561249f576122f8838b92613981565b50541461230e575061230990613fc9565b6122d9565b9150919293949596979861233990600661233085898e338152878d5220613981565b50015416614066565b612342886140b2565b96871561246657509061237491338a5280875289600561236484898420613981565b500155338a528652848920613981565b5042908301558654835163a9059cbb60e01b815233818501908152602081018890529092869284928390036040019183918c91165af190811561245c57879161243f575b50156124055750907ff87cfa2d5feaea949ad65bb76a26d8553381bcb6382adbc83dedd48961bf32d99160176123ef858254613fd8565b9055519283523392a36124026001614028565b80f35b82606492519162461bcd60e51b8352820152601660248201527514995dd85c99081d1c985b9cd9995c8819985a5b195960521b6044820152fd5b6124569150843d8611610594576105868183613a3b565b876123b8565b83513d89823e3d90fd5b846064918888519262461bcd60e51b8452830152602482015274139bc81c995dd85c991cc81d1bc81a185c9d995cdd605a1b6044820152fd5b50505095505050505050612402919250614028565b505050346103b85760203660031901126103b85760209181906001600160a01b036124dd613873565b168152601e845220549051908152f35b505050346103b857816003193601126103b857602090600d549051908152f35b505050346103b85760203660031901126103b85760209160ff9082906001600160a01b03612539613873565b168152600e855220541690519015158152f35b50503461036e57602036600319011261036e57803590612596337f00000000000000000000000000000000000000000000000000000000000000006001600160a01b031614613b60565b601482116125d85750907fd968a3cc702265c3ab67356df15ca21d50167b011f198b963e2a868e04e3d5e091601b549080601b5582519182526020820152a180f35b606490602084519162461bcd60e51b835282015260136024820152720a0cae4c6cadce8c2ceca40e8dede40d0d2ced606b1b6044820152fd5b505050346103b85760203660031901126103b8576020916001600160a01b039082908261263c613873565b168152601c85522054169051908152f35b505050346103b857816003193601126103b8576020906011549051908152f35b828585346103b857806003193601126103b857823560243591338452602092600e84526126a060ff838720541615613c4f565b60135483106129165784546001600160a01b03166126bf811515613ccc565b601e8214801561290c575b8015612902575b80156128f7575b156128be5782516323b872dd60e01b815233818901908152306020820152604081018690529091869183919082908a90829060600103925af1908115611a4d57906127299187916128a15750613f85565b6019549361273685613fc9565b6019558251612744816139ed565b85815281810185815284820142815260608301858152608084019042825260a08501928b845260c086019460018652338d5260148852898d20805490600160401b82101561288d579061279c91600182018155613981565b97909761287b57927fb4caaf29adda3eefee3ad552a8e85058589bf834c7466cae4ee58787f70589ed9b9c9d9e9261280b9897959260069795518955516001890155516002880155516003870155519085015551600584015551151591019060ff801983541691151516179055565b85875260158152828720336001600160601b0360a01b82541617905561283385601654613fd8565b601655338752601a8152828720805460ff81161561285c575b505082519485528401523392a380f35b60ff1916600117905560185461287190613fc9565b601855878061284c565b634e487b7160e01b8e528d8f5260248efd5b8f8f6041602492634e487b7160e01b835252fd5b6128b89150863d8811610594576105868183613a3b565b88611ea5565b825162461bcd60e51b81528088018690526013602482015272125b9d985b1a59081b1bd8dac81c195c9a5bd9606a1b6044820152606490fd5b5061016d82146126d8565b5060b482146126d1565b50605a82146126ca565b815162461bcd60e51b8152808701859052601a60248201527f416d6f756e742062656c6f77206d696e696d756d207374616b650000000000006044820152606490fd5b5050903461036e573660031901126103b857612973613873565b60243591906001600160a01b03906129ae337f0000000000000000000000000000000000000000000000000000000000000000841614613b60565b166129ba811515613bd5565b6129c5831515613c13565b81546001600160a01b031916179055600b5580f35b505050346103b857366003190112610701576129f4613873565b602435906001600160a01b0390612a2e337f0000000000000000000000000000000000000000000000000000000000000000841614613b60565b16612a3a811515613bd5565b612a45821515613c13565b6001600160601b0360a01b6003541617600355600a5580f35b5050913461070157602092836003193601126103b857803590338352600e855260ff91612a9083868620541615613c4f565b80845260158652848420546001600160a01b039690612ab290881633146142c0565b8495855b33875260148084528288208054831015612d7a57612ad5838792613981565b505414612aeb5750612ae690613fc9565b612ab6565b9192939495969750338852818452612b16612b0882858b20613981565b509760068099015416614066565b3388528184526002612b2a82858b20613981565b5001543389528285526003612b4183868c20613981565b500154906201518091828102928184041490151715612d675799612b6c86928b9c9b98999a9b613fd8565b92612b76896140b2565b9a338952858452612b8982888b20613981565b5091876001809401549a80974210612d0d575b90612bb29291612c129899338252885220613981565b500160ff1981541690556016612bc98982546140a5565b905598612bdf8b612bda878b6140a5565b613fd8565b8c54875163a9059cbb60e01b8152339381019384526020840192909252909485939091169183918e918391604090910190565b03925af1908115612d035797612c338792612c739a8c91612cec5750613f85565b80612cac575b50508015612c7c577f9c9ec3cfa814b0112b71c20d0b0ab54dead00a99fd389c174df717d2f1d364039282519485528401523392a3614028565b6124023361447f565b50907f7fc4727e062e336010f2c282598ef5f14facb3de68cf8195c2f23e1454b2b74e91519283523392a3614028565b6017612cb9828254613fd8565b905583519081527ff87cfa2d5feaea949ad65bb76a26d8553381bcb6382adbc83dedd48961bf32d9853392a38438612c39565b611f449150873d8911610594576105868183613a3b565b83513d8b823e3d90fd5b50509193509193506005808902908982041489151715612d545791612bb2889492888f6064612c12999704996011612d468c8254613fd8565b905599985090919250612b9c565b634e487b7160e01b8d5260118b5260248dfd5b634e487b7160e01b8a526011885260248afd5b50505050505050509150612c7390614028565b505082346107015780600319360112610701579060105490612dae82614b4c565b92612dbb85519485613a3b565b82845260108152906020907f1b6847dc741a1b0cd08d278845f9d819d87b734759afb55fe2de5cb82a9ae672908286015b858510612e005787518061069589826138ce565b6007846001928a51612e11816139ed565b86548152848060a01b0380868901541684830152806002890154168d8301526003880154166060820152858701546080820152600587015460a0820152612e5a60068801613a5d565b60c0820152815201930194019391612dec565b50508260031936011261036e573383526020600e8152612e9360ff848620541615613c4f565b341590612ea08215613c90565b6002546001600160a01b039290831690612ebb821515613ee0565b620f424090813402913483041417156121c657600754612eda91613d36565b9385516370a0823160e01b815230828201528381602481865afa801561059b578691899161303c575b5010612ff957855163a9059cbb60e01b81523391810191825260208201869052939291829185919082908a90829060400103925af18015611046577f48a1f8a6c840b32621ceab4439a2ccd00b337e705dfdcdec0b40c49abf3e6be393612f72928892612fdc575b5050613f22565b612fa78580808034867f0000000000000000000000000000000000000000000000000000000000000000165af16120ed613d56565b612fb8816002541684612104613f65565b60025493519283523460208401524260408401529092169133918060608101610530565b612ff29250803d10610594576105868183613a3b565b3880612f6b565b855162461bcd60e51b8152908101839052601b60248201527f496e73756666696369656e742055534443206c697175696469747900000000006044820152606490fd5b809250858092503d8311613066575b6130558183613a3b565b810103126121bb5785905138612f03565b503d61304b565b505050346103b85760203660031901126103b8576080916001600160a01b0380613095613873565b168252601c602052828220541691601d602052808083205492601e602052205490601b5492815194855260208501528301526060820152f35b505050346103b857816003193601126103b8576020906012549051908152f35b505050346103b85736600319011261070157613108613873565b602435906001600160a01b0390613142337f0000000000000000000000000000000000000000000000000000000000000000841614613b60565b1661314e811515613bd5565b613159821515613c13565b6001600160601b0360a01b600254161760025560095580f35b505050346103b857816003193601126103b85760055490516001600160a01b039091168152602090f35b505050346103b857816003193601126103b857602090600b549051908152f35b505050346103b857806003193601126103b8576131d7613873565b906024359182151580840361326a577fdda6207409a585801122fb885dcaa8074f9a21f25ff2def680c67f01a86c2c9b92602092613262906001600160a01b0390613245337f0000000000000000000000000000000000000000000000000000000000000000841614613b60565b1695868852600e85528288209060ff801983541691151516179055565b51908152a280f35b8480fd5b828585816003193601126103b857338252600e60205261329460ff828420541615613c4f565b3415906132a18215613c90565b82546001600160a01b0392906132ba9084161515613ccc565b670de0b6b3a76400009081340291348304141715613360578392916133426132f7610fdf600080516020614bf28339815191529460065490613d36565b9361330185614538565b6133368680808034867f0000000000000000000000000000000000000000000000000000000000000000165af16120ed613d56565b85541684612104613dd8565b51348152602081019290925242604083015233918060608101610530565b634e487b7160e01b845260118552602484fd5b838584346103b8576020908160031936011261036e5735928383526015825260018060a01b038184205416926133aa841515613fe5565b6133b2614bb9565b8195825b86845260148087528585208054831015613431576133d5838592613981565b5054146133eb57506133e690613fc9565b6133b6565b608098506116809350859192509361340894888252875220613981565b906134136001614028565b81519381848401519301519382519586528501528301526060820152f35b50505050919050613413608095614028565b5050903461036e578060031936011261036e5761345e613873565b602435907f00000000000000000000000000000000000000000000000000000000000000006001600160a01b036134983382841614613b60565b808754169216918214613553575b835163a9059cbb60e01b81526001600160a01b03909116858201908152602081810194909452909291839182908890829060400103925af190811561354957849161352b575b50156134f6578280f35b906020606492519162461bcd60e51b8352820152600f60248201526e151c985b9cd9995c8819985a5b1959608a1b6044820152fd5b613543915060203d8111610594576105868183613a3b565b386134ec565b82513d86823e3d90fd5b83516370a0823160e01b81523086820152602081602481865afa80156136095787906135d2575b6135889150601654906140a5565b8311156134a657835162461bcd60e51b8152602081870152601d60248201527f43616e6e6f74207769746864726177207374616b656420746f6b656e730000006044820152606490fd5b506020813d8211613601575b816135eb60209383613a3b565b810103126135fd57613588905161357a565b8680fd5b3d91506135de565b85513d89823e3d90fd5b50503461036e5760208060031936011261060357813590338552600e815261364160ff858720541615613c4f565b811561364d8115613df7565b85546001600160a01b0392906136669084161515613ccc565b8285541680156137f6576305f5e10092838602938685041417156137e357613690600b5486613d0d565b92670de0b6b3a7640000938481029481860414901517156137d05787516323b872dd60e01b8152338882019081526001600160a01b037f0000000000000000000000000000000000000000000000000000000000000000166020820152604081019290925291839183919082908c90829060600103925af190811561059b5788916137b3575b501561377b5750916105309161373a600080516020614bf2833981519152946142fe565b9461374486614538565b613759828254168785858c5416610505613dd8565b5416945191829133954291846040919493926060820195825260208201520152565b8460649187519162461bcd60e51b83528201526013602482015272109510c81d1c985b9cd9995c8819985a5b1959606a1b6044820152fd5b6137ca9150823d8411610594576105868183613a3b565b38613716565b634e487b7160e01b895260118752602489fd5b634e487b7160e01b885260118652602488fd5b865162461bcd60e51b81528087018390526012602482015271109510c81b9bdd0818dbdb999a59dd5c995960721b6044820152606490fd5b505050346103b857816003193601126103b857602090600a549051908152f35b8590346103b857816003193601126103b8576002546001600160a01b03168152602090f35b600435906001600160a01b038216820361388957565b600080fd5b919082519283825260005b8481106138ba575050826000602080949584010152601f8019910116010190565b602081830181015184830182015201613899565b602080820190808352835180925260409283810182858560051b8401019601946000925b858410613903575050505050505090565b909192939495968580613970600193603f198682030188528b5180518252858060a01b0380858301511685840152808983015116898401526060908183015116908301526080808201519083015260a0808201519083015260c0809101519160e08092820152019061388e565b9901940194019295949391906138f2565b805482101561399d576000526007602060002091020190600090565b634e487b7160e01b600052603260045260246000fd5b90600182811c921680156139e3575b60208310146139cd57565b634e487b7160e01b600052602260045260246000fd5b91607f16916139c2565b60e0810190811067ffffffffffffffff821117613a0957604052565b634e487b7160e01b600052604160045260246000fd5b6040810190811067ffffffffffffffff821117613a0957604052565b90601f8019910116810190811067ffffffffffffffff821117613a0957604052565b9060405191826000825492613a71846139b3565b908184526001948581169081600014613ae05750600114613a9d575b5050613a9b92500383613a3b565b565b9093915060005260209081600020936000915b818310613ac8575050613a9b93508201013880613a8d565b85548884018501529485019487945091830191613ab0565b915050613a9b94506020925060ff191682840152151560051b8201013880613a8d565b9360e09592613b4598979492865260018060a01b0392838092166020880152166040860152166060840152608083015260a08201528160c0820152019061388e565b90565b805482101561399d5760005260206000200190600090565b15613b6757565b60405162461bcd60e51b815260206004820152600a60248201526927b7363c9037bbb732b960b11b6044820152606490fd5b15613ba057565b60405162461bcd60e51b815260206004820152600d60248201526c496e76616c696420707269636560981b6044820152606490fd5b15613bdc57565b60405162461bcd60e51b815260206004820152600f60248201526e496e76616c6964206164647265737360881b6044820152606490fd5b15613c1a57565b60405162461bcd60e51b815260206004820152600d60248201526c496e76616c696420726174696f60981b6044820152606490fd5b15613c5657565b60405162461bcd60e51b81526020600482015260126024820152711059191c995cdcc81a5cc8189b1bd8dad95960721b6044820152606490fd5b15613c9757565b60405162461bcd60e51b815260206004820152600d60248201526c09aeae6e840e6cadcc8408aa89609b1b6044820152606490fd5b15613cd357565b60405162461bcd60e51b815260206004820152601260248201527114d85b19481d1bdad95b881b9bdd081cd95d60721b6044820152606490fd5b81810292918115918404141715613d2057565b634e487b7160e01b600052601160045260246000fd5b8115613d40570490565b634e487b7160e01b600052601260045260246000fd5b3d15613d91573d9067ffffffffffffffff8211613a095760405191613d85601f8201601f191660200184613a3b565b82523d6000602084013e565b606090565b15613d9d57565b60405162461bcd60e51b8152602060048201526013602482015272115512081d1c985b9cd9995c8819985a5b1959606a1b6044820152606490fd5b60405190613de582613a1f565b600382526242555960e81b6020830152565b15613dfe57565b60405162461bcd60e51b815260206004820152601d60248201527f416d6f756e74206d7573742062652067726561746572207468616e20300000006044820152606490fd5b15613e4a57565b60405162461bcd60e51b81526020600482015260136024820152721554d115081b9bdd0818dbdb999a59dd5c9959606a1b6044820152606490fd5b90816020910312613889575180151581036138895790565b15613ea457565b60405162461bcd60e51b81526020600482015260146024820152731554d115081d1c985b9cd9995c8819985a5b195960621b6044820152606490fd5b15613ee757565b60405162461bcd60e51b81526020600482015260136024820152721554d110c81b9bdd0818dbdb999a59dd5c9959606a1b6044820152606490fd5b15613f2957565b60405162461bcd60e51b81526020600482015260146024820152731554d110c81d1c985b9cd9995c8819985a5b195960621b6044820152606490fd5b60405190613f7282613a1f565b600482526314d1531360e21b6020830152565b15613f8c57565b60405162461bcd60e51b8152602060048201526015602482015274151bdad95b881d1c985b9cd9995c8819985a5b1959605a1b6044820152606490fd5b6000198114613d205760010190565b91908201809211613d2057565b15613fec57565b60405162461bcd60e51b815260206004820152601460248201527314dd185ad948191bd95cc81b9bdd08195e1a5cdd60621b6044820152606490fd5b1561402f57565b60405162461bcd60e51b815260206004820152600f60248201526e14dd185ad9481b9bdd08199bdd5b99608a1b6044820152606490fd5b1561406d57565b60405162461bcd60e51b815260206004820152601060248201526f5374616b65206e6f742061637469766560801b6044820152606490fd5b91908203918211613d2057565b6000818152601560209081526040808320546001600160a01b0316906140d9821515613fe5565b9293849390849081808080805b888b526014808b52888c2080548310156142a757614105838992613981565b50541461411b575061411690613fc9565b6140e6565b96509a505050505050828552808452858286209061413891613981565b506005015495838652818552808387209061415291613981565b506004015492848752828652818188209061416c91613981565b50926001809401549686895281815283838a209061418991613981565b50600301549689525286209061419e91613981565b506006015460ff166141b26141b792614028565b614066565b4281146142a0576141c890426140a5565b926012548092605a81146000146142265750506003820291808304600314901517156142125750613b45939261420663bbf81e009361420b9360011c905b613d0d565b0490613fd8565b634e487b7160e01b81526011600452602490fd5b60b4810361425c5750508160011b91808304600214901517156142125750613b45939261420663bbf81e009361420b9390613d0d565b61016d9194935014614281575b50613b45939261420663bbf81e009361420b93613d0d565b6003839293029180830460031490151715614212575090613b45614269565b5050505090565b505050965096509793506141b79291506141b290614028565b156142c757565b60405162461bcd60e51b815260206004820152600f60248201526e2737ba1039ba30b5b29037bbb732b960891b6044820152606490fd5b60003381526020601c815260018060a01b03906040828185205416928315158061446a575b61432f57505050505090565b606461433d601b5488613d0d565b8654845163a9059cbb60e01b81526001600160a01b03881660048201529290910460248301819052969190859082906044908290869088165af1908115614460578291614443575b50156143ff577f94ccb86446750660ec532b1beb1fb55f5ba2fffca042c4c53f4c080e72595b3893929181866143f59352601e85528381206143c8898254613fd8565b9055541686888451926143da84613a1f565b6008845267149151915494905360c21b878501528089614af0565b519384523393a390565b825162461bcd60e51b815260048101859052601f60248201527f526566657272616c20726577617264207472616e73666572206661696c6564006044820152606490fd5b61445a9150853d8711610594576105868183613a3b565b38614385565b84513d84823e3d90fd5b50838552600e835260ff828620541615614323565b600090815b6001600160a01b038216600090815260146020526040902080548210156145305760066144b38360ff93613981565b500154166144c9576144c490613fc9565b614484565b50905060015b158061450e575b6144dd5750565b6001600160a01b03166000908152601a60205260409020805460ff191690556018548015613d205760001901601855565b506001600160a01b0381166000908152601a602052604090205460ff166144d6565b5050906144cf565b600080546040516370a0823160e01b8152306004820152919392916020916001600160a01b0316908281602481855afa801561466f578491879161463e575b50106145f95760405163a9059cbb60e01b8152336004820152602481018490529082908290604490829089905af19182156145ee57906145c492916145cc9596926145d1575b5050613f85565b600d54613fd8565b600d55565b6145e79250803d10610594576105868183613a3b565b38806145bd565b6040513d87823e3d90fd5b60405162461bcd60e51b815260048101839052601a60248201527f496e73756666696369656e7420746f6b656e2062616c616e63650000000000006044820152606490fd5b809250848092503d8311614668575b6146578183613a3b565b81010312611a415783905138614577565b503d61464d565b6040513d88823e3d90fd5b601054600160401b811015613a09576001908181018060105581101561399d5760076000916010835202918351837f1b6847dc741a1b0cd08d278845f9d819d87b734759afb55fe2de5cb82a9ae672015560c07f1b6847dc741a1b0cd08d278845f9d819d87b734759afb55fe2de5cb82a9ae6787f1b6847dc741a1b0cd08d278845f9d819d87b734759afb55fe2de5cb82a9ae67385019460018060a01b0360209681888a015116906001600160601b0360a01b91828254161790557f1b6847dc741a1b0cd08d278845f9d819d87b734759afb55fe2de5cb82a9ae67483018260408b015116828254161790557f1b6847dc741a1b0cd08d278845f9d819d87b734759afb55fe2de5cb82a9ae67583019160608a0151169082541617905560808701517f1b6847dc741a1b0cd08d278845f9d819d87b734759afb55fe2de5cb82a9ae67682015560a08701517f1b6847dc741a1b0cd08d278845f9d819d87b734759afb55fe2de5cb82a9ae677820155019401519182519267ffffffffffffffff84116148f25761480b86546139b3565b601f81116148ac575b508491601f851160011461484d579394508492919083614842575b50501b916000199060031b1c1916179055565b01519250388061482f565b86815285812093958591601f198316915b888383106148925750505010614879575b505050811b019055565b015160001960f88460031b161c1916905538808061486f565b85870151885590960195948501948793509081019061485e565b868352858320601f860160051c8101918787106148e8575b601f0160051c019084905b8281106148dd575050614814565b8481550184906148cf565b90915081906148c4565b634e487b7160e01b82526041600452602482fd5b8054600160401b811015613a0957614925906001928382018155613981565b614a7b578251815560c060068383019260018060a01b03602094818689015116906001600160601b0360a01b9182825416179055600283018260408a015116828254161790556003830191606089015116908254161790556080860151600482015560a08601516005820155019301519081519167ffffffffffffffff8311613a09576149b285546139b3565b601f8111614a32575b5081601f84116001146149e957509282939183926000946148425750501b916000199060031b1c1916179055565b919083601f1981168760005284600020946000905b88838310614a18575050501061487957505050811b019055565b8587015188559096019594850194879350908101906149fe565b6000868152838120601f860160051c810192858710614a71575b601f0160051c019186905b838110614a66575050506149bb565b828155018690614a57565b9092508290614a4c565b634e487b7160e01b600052600060045260246000fd5b92613a9b94919260405194614aa5866139ed565b42865260018060a01b038091169485602088015260006040880152166060860152608085015260a084015260c0830152600052600f602052614aeb816040600020614906565b61467a565b92613a9b959294919360405195614b06876139ed565b42875260018060a01b0380809316968760208a0152166040880152166060860152608085015260a084015260c0830152600052600f602052614aeb816040600020614906565b67ffffffffffffffff8111613a095760051b60200190565b90604051614b71816139ed565b60c060ff600683958054855260018101546020860152600281015460408601526003810154606086015260048101546080860152600581015460a08601520154161515910152565b60405190614bc6826139ed565b8160c06000918281528260208201528260408201528260608201528260808201528260a0820152015256fe377aadedb6b2a771959584d10a6a36eccb5f56b4eb3a48525f76108d2660d8d4a26469706673582212209258c9611d9611ded8f0ce0dbf2983927e1f2453ce2324f24a64d949ca496e9764736f6c63430008130033",
  "linkReferences": {},
  "deployedLinkReferences": {}
}