{
  "_format": "hh-sol-artifact-1",
  "contractName": "TokenICO",
  "sourceName": "contracts/TokenICO.sol",
  "abi": [
    {
      "inputs": [],
      "stateMutability": "nonpayable",
      "type": "constructor"
    },
    {
      "anonymous": false,
      "inputs": [
        {
          "indexed": false,
          "internalType": "uint256",
          "name": "oldAPY",
          "type": "uint256"
        },
        {
          "indexed": false,
          "internalType": "uint256",
          "name": "newAPY",
          "type": "uint256"
        }
      ],
      "name": "APYUpdated",
      "type": "event"
    },
    {
      "anonymous": false,
      "inputs": [
        {
          "indexed": true,
          "internalType": "address",
          "name": "user",
          "type": "address"
        },
        {
          "indexed": false,
          "internalType": "bool",
          "name": "blocked",
          "type": "bool"
        }
      ],
      "name": "AddressBlocked",
      "type": "event"
    },
    {
      "anonymous": false,
      "inputs": [
        {
          "indexed": true,
          "internalType": "address",
          "name": "user",
          "type": "address"
        },
        {
          "indexed": true,
          "internalType": "uint256",
          "name": "stakeId",
          "type": "uint256"
        },
        {
          "indexed": false,
          "internalType": "uint256",
          "name": "amount",
          "type": "uint256"
        },
        {
          "indexed": false,
          "internalType": "uint256",
          "name": "penalty",
          "type": "uint256"
        }
      ],
      "name": "EarlyUnstake",
      "type": "event"
    },
    {
      "anonymous": false,
      "inputs": [
        {
          "indexed": false,
          "internalType": "uint256",
          "name": "oldMinStake",
          "type": "uint256"
        },
        {
          "indexed": false,
          "internalType": "uint256",
          "name": "newMinStake",
          "type": "uint256"
        }
      ],
      "name": "MinStakeUpdated",
      "type": "event"
    },
    {
      "anonymous": false,
      "inputs": [
        {
          "indexed": false,
          "internalType": "string",
          "name": "priceType",
          "type": "string"
        },
        {
          "indexed": false,
          "internalType": "uint256",
          "name": "oldPrice",
          "type": "uint256"
        },
        {
          "indexed": false,
          "internalType": "uint256",
          "name": "newPrice",
          "type": "uint256"
        }
      ],
      "name": "PriceUpdated",
      "type": "event"
    },
    {
      "anonymous": false,
      "inputs": [
        {
          "indexed": false,
          "internalType": "uint256",
          "name": "oldPercentage",
          "type": "uint256"
        },
        {
          "indexed": false,
          "internalType": "uint256",
          "name": "newPercentage",
          "type": "uint256"
        }
      ],
      "name": "ReferralPercentageUpdated",
      "type": "event"
    },
    {
      "anonymous": false,
      "inputs": [
        {
          "indexed": true,
          "internalType": "address",
          "name": "referrer",
          "type": "address"
        },
        {
          "indexed": true,
          "internalType": "address",
          "name": "referee",
          "type": "address"
        }
      ],
      "name": "ReferralRegistered",
      "type": "event"
    },
    {
      "anonymous": false,
      "inputs": [
        {
          "indexed": true,
          "internalType": "address",
          "name": "referrer",
          "type": "address"
        },
        {
          "indexed": true,
          "internalType": "address",
          "name": "referee",
          "type": "address"
        },
        {
          "indexed": false,
          "internalType": "uint256",
          "name": "amount",
          "type": "uint256"
        }
      ],
      "name": "ReferralRewardPaid",
      "type": "event"
    },
    {
      "anonymous": false,
      "inputs": [
        {
          "indexed": true,
          "internalType": "address",
          "name": "user",
          "type": "address"
        },
        {
          "indexed": true,
          "internalType": "uint256",
          "name": "stakeId",
          "type": "uint256"
        },
        {
          "indexed": false,
          "internalType": "uint256",
          "name": "reward",
          "type": "uint256"
        }
      ],
      "name": "RewardHarvested",
      "type": "event"
    },
    {
      "anonymous": false,
      "inputs": [
        {
          "indexed": true,
          "internalType": "address",
          "name": "buyer",
          "type": "address"
        },
        {
          "indexed": true,
          "internalType": "address",
          "name": "stablecoin",
          "type": "address"
        },
        {
          "indexed": false,
          "internalType": "uint256",
          "name": "stablecoinAmount",
          "type": "uint256"
        },
        {
          "indexed": false,
          "internalType": "uint256",
          "name": "ethPaid",
          "type": "uint256"
        },
        {
          "indexed": false,
          "internalType": "uint256",
          "name": "timestamp",
          "type": "uint256"
        }
      ],
      "name": "StablecoinSold",
      "type": "event"
    },
    {
      "anonymous": false,
      "inputs": [
        {
          "indexed": true,
          "internalType": "address",
          "name": "user",
          "type": "address"
        },
        {
          "indexed": true,
          "internalType": "uint256",
          "name": "stakeId",
          "type": "uint256"
        },
        {
          "indexed": false,
          "internalType": "uint256",
          "name": "amount",
          "type": "uint256"
        },
        {
          "indexed": false,
          "internalType": "uint256",
          "name": "lockPeriod",
          "type": "uint256"
        }
      ],
      "name": "Staked",
      "type": "event"
    },
    {
      "anonymous": false,
      "inputs": [
        {
          "indexed": true,
          "internalType": "address",
          "name": "buyer",
          "type": "address"
        },
        {
          "indexed": true,
          "internalType": "address",
          "name": "paymentMethod",
          "type": "address"
        },
        {
          "indexed": false,
          "internalType": "uint256",
          "name": "amountPaid",
          "type": "uint256"
        },
        {
          "indexed": false,
          "internalType": "uint256",
          "name": "tokensBought",
          "type": "uint256"
        },
        {
          "indexed": false,
          "internalType": "uint256",
          "name": "timestamp",
          "type": "uint256"
        }
      ],
      "name": "TokensPurchased",
      "type": "event"
    },
    {
      "anonymous": false,
      "inputs": [
        {
          "indexed": true,
          "internalType": "address",
          "name": "user",
          "type": "address"
        },
        {
          "indexed": true,
          "internalType": "uint256",
          "name": "stakeId",
          "type": "uint256"
        },
        {
          "indexed": false,
          "internalType": "uint256",
          "name": "amount",
          "type": "uint256"
        }
      ],
      "name": "Unstaked",
      "type": "event"
    },
    {
      "inputs": [],
      "name": "EARLY_WITHDRAWAL_PENALTY_PERCENT",
      "outputs": [
        {
          "internalType": "uint256",
          "name": "",
          "type": "uint256"
        }
      ],
      "stateMutability": "view",
      "type": "function"
    },
    {
      "inputs": [
        {
          "internalType": "uint256",
          "name": "",
          "type": "uint256"
        }
      ],
      "name": "allTransactions",
      "outputs": [
        {
          "internalType": "uint256",
          "name": "timestamp",
          "type": "uint256"
        },
        {
          "internalType": "address",
          "name": "user",
          "type": "address"
        },
        {
          "internalType": "address",
          "name": "tokenIn",
          "type": "address"
        },
        {
          "internalType": "address",
          "name": "tokenOut",
          "type": "address"
        },
        {
          "internalType": "uint256",
          "name": "amountIn",
          "type": "uint256"
        },
        {
          "internalType": "uint256",
          "name": "amountOut",
          "type": "uint256"
        },
        {
          "internalType": "string",
          "name": "transactionType",
          "type": "string"
        }
      ],
      "stateMutability": "view",
      "type": "function"
    },
    {
      "inputs": [],
      "name": "baseAPY",
      "outputs": [
        {
          "internalType": "uint256",
          "name": "",
          "type": "uint256"
        }
      ],
      "stateMutability": "view",
      "type": "function"
    },
    {
      "inputs": [
        {
          "internalType": "address",
          "name": "",
          "type": "address"
        }
      ],
      "name": "blockedAddresses",
      "outputs": [
        {
          "internalType": "bool",
          "name": "",
          "type": "bool"
        }
      ],
      "stateMutability": "view",
      "type": "function"
    },
    {
      "inputs": [],
      "name": "bnbAddress",
      "outputs": [
        {
          "internalType": "address",
          "name": "",
          "type": "address"
        }
      ],
      "stateMutability": "view",
      "type": "function"
    },
    {
      "inputs": [],
      "name": "bnbRatio",
      "outputs": [
        {
          "internalType": "uint256",
          "name": "",
          "type": "uint256"
        }
      ],
      "stateMutability": "view",
      "type": "function"
    },
    {
      "inputs": [],
      "name": "buyUSDC",
      "outputs": [],
      "stateMutability": "payable",
      "type": "function"
    },
    {
      "inputs": [],
      "name": "buyUSDT",
      "outputs": [],
      "stateMutability": "payable",
      "type": "function"
    },
    {
      "inputs": [
        {
          "internalType": "uint256",
          "name": "bnbAmount",
          "type": "uint256"
        }
      ],
      "name": "buyWithBNB",
      "outputs": [],
      "stateMutability": "nonpayable",
      "type": "function"
    },
    {
      "inputs": [],
      "name": "buyWithETH",
      "outputs": [],
      "stateMutability": "payable",
      "type": "function"
    },
    {
      "inputs": [
        {
          "internalType": "uint256",
          "name": "solAmount",
          "type": "uint256"
        }
      ],
      "name": "buyWithSOL",
      "outputs": [],
      "stateMutability": "nonpayable",
      "type": "function"
    },
    {
      "inputs": [
        {
          "internalType": "uint256",
          "name": "usdcAmount",
          "type": "uint256"
        }
      ],
      "name": "buyWithUSDC",
      "outputs": [],
      "stateMutability": "nonpayable",
      "type": "function"
    },
    {
      "inputs": [
        {
          "internalType": "uint256",
          "name": "usdtAmount",
          "type": "uint256"
        }
      ],
      "name": "buyWithUSDT",
      "outputs": [],
      "stateMutability": "nonpayable",
      "type": "function"
    },
    {
      "inputs": [
        {
          "internalType": "uint256",
          "name": "stakeId",
          "type": "uint256"
        }
      ],
      "name": "calculateRewards",
      "outputs": [
        {
          "internalType": "uint256",
          "name": "",
          "type": "uint256"
        }
      ],
      "stateMutability": "view",
      "type": "function"
    },
    {
      "inputs": [],
      "name": "ethPriceForStablecoin",
      "outputs": [
        {
          "internalType": "uint256",
          "name": "",
          "type": "uint256"
        }
      ],
      "stateMutability": "view",
      "type": "function"
    },
    {
      "inputs": [],
      "name": "ethPriceForToken",
      "outputs": [
        {
          "internalType": "uint256",
          "name": "",
          "type": "uint256"
        }
      ],
      "stateMutability": "view",
      "type": "function"
    },
    {
      "inputs": [],
      "name": "getAllTransactions",
      "outputs": [
        {
          "components": [
            {
              "internalType": "uint256",
              "name": "timestamp",
              "type": "uint256"
            },
            {
              "internalType": "address",
              "name": "user",
              "type": "address"
            },
            {
              "internalType": "address",
              "name": "tokenIn",
              "type": "address"
            },
            {
              "internalType": "address",
              "name": "tokenOut",
              "type": "address"
            },
            {
              "internalType": "uint256",
              "name": "amountIn",
              "type": "uint256"
            },
            {
              "internalType": "uint256",
              "name": "amountOut",
              "type": "uint256"
            },
            {
              "internalType": "string",
              "name": "transactionType",
              "type": "string"
            }
          ],
          "internalType": "struct TokenICO.Transaction[]",
          "name": "",
          "type": "tuple[]"
        }
      ],
      "stateMutability": "view",
      "type": "function"
    },
    {
      "inputs": [],
      "name": "getContractInfo",
      "outputs": [
        {
          "internalType": "address",
          "name": "tokenAddress",
          "type": "address"
        },
        {
          "internalType": "uint256",
          "name": "tokenBalance",
          "type": "uint256"
        },
        {
          "internalType": "uint256",
          "name": "ethPrice",
          "type": "uint256"
        },
        {
          "internalType": "uint256",
          "name": "stablecoinPrice",
          "type": "uint256"
        },
        {
          "internalType": "uint256",
          "name": "totalSold",
          "type": "uint256"
        },
        {
          "internalType": "address",
          "name": "usdtAddr",
          "type": "address"
        },
        {
          "internalType": "address",
          "name": "usdcAddr",
          "type": "address"
        },
        {
          "internalType": "uint256",
          "name": "usdtTokenRatio",
          "type": "uint256"
        },
        {
          "internalType": "uint256",
          "name": "usdcTokenRatio",
          "type": "uint256"
        }
      ],
      "stateMutability": "view",
      "type": "function"
    },
    {
      "inputs": [
        {
          "internalType": "address",
          "name": "user",
          "type": "address"
        }
      ],
      "name": "getReferralInfo",
      "outputs": [
        {
          "internalType": "address",
          "name": "referrer",
          "type": "address"
        },
        {
          "internalType": "uint256",
          "name": "totalReferrals",
          "type": "uint256"
        },
        {
          "internalType": "uint256",
          "name": "totalRewardsEarned",
          "type": "uint256"
        },
        {
          "internalType": "uint256",
          "name": "rewardPercentage",
          "type": "uint256"
        }
      ],
      "stateMutability": "view",
      "type": "function"
    },
    {
      "inputs": [
        {
          "internalType": "uint256",
          "name": "stakeId",
          "type": "uint256"
        }
      ],
      "name": "getStakeDetails",
      "outputs": [
        {
          "internalType": "uint256",
          "name": "lockPeriod",
          "type": "uint256"
        },
        {
          "internalType": "uint256",
          "name": "pendingRewards",
          "type": "uint256"
        },
        {
          "internalType": "bool",
          "name": "active",
          "type": "bool"
        }
      ],
      "stateMutability": "view",
      "type": "function"
    },
    {
      "inputs": [
        {
          "internalType": "uint256",
          "name": "stakeId",
          "type": "uint256"
        }
      ],
      "name": "getStakeInfo",
      "outputs": [
        {
          "internalType": "uint256",
          "name": "id",
          "type": "uint256"
        },
        {
          "internalType": "address",
          "name": "stakeOwnerAddr",
          "type": "address"
        },
        {
          "internalType": "uint256",
          "name": "amount",
          "type": "uint256"
        },
        {
          "internalType": "uint256",
          "name": "startTime",
          "type": "uint256"
        }
      ],
      "stateMutability": "view",
      "type": "function"
    },
    {
      "inputs": [],
      "name": "getStakingInfo",
      "outputs": [
        {
          "internalType": "uint256",
          "name": "baseApyRate",
          "type": "uint256"
        },
        {
          "internalType": "uint256",
          "name": "minStakingAmount",
          "type": "uint256"
        },
        {
          "internalType": "uint256",
          "name": "totalTokensStaked",
          "type": "uint256"
        },
        {
          "internalType": "uint256",
          "name": "totalRewardsPaid",
          "type": "uint256"
        },
        {
          "internalType": "uint256",
          "name": "numberOfStakers",
          "type": "uint256"
        }
      ],
      "stateMutability": "view",
      "type": "function"
    },
    {
      "inputs": [],
      "name": "getTokenBalances",
      "outputs": [
        {
          "internalType": "uint256",
          "name": "tokenBalance",
          "type": "uint256"
        },
        {
          "internalType": "uint256",
          "name": "usdtBalance",
          "type": "uint256"
        },
        {
          "internalType": "uint256",
          "name": "usdcBalance",
          "type": "uint256"
        }
      ],
      "stateMutability": "view",
      "type": "function"
    },
    {
      "inputs": [],
      "name": "getTotalPenaltyCollected",
      "outputs": [
        {
          "internalType": "uint256",
          "name": "",
          "type": "uint256"
        }
      ],
      "stateMutability": "view",
      "type": "function"
    },
    {
      "inputs": [
        {
          "internalType": "address",
          "name": "referrer",
          "type": "address"
        }
      ],
      "name": "getUserReferrals",
      "outputs": [
        {
          "internalType": "address[]",
          "name": "",
          "type": "address[]"
        }
      ],
      "stateMutability": "view",
      "type": "function"
    },
    {
      "inputs": [
        {
          "internalType": "address",
          "name": "user",
          "type": "address"
        }
      ],
      "name": "getUserStakes",
      "outputs": [
        {
          "components": [
            {
              "internalType": "uint256",
              "name": "id",
              "type": "uint256"
            },
            {
              "internalType": "uint256",
              "name": "amount",
              "type": "uint256"
            },
            {
              "internalType": "uint256",
              "name": "startTime",
              "type": "uint256"
            },
            {
              "internalType": "uint256",
              "name": "lockPeriod",
              "type": "uint256"
            },
            {
              "internalType": "uint256",
              "name": "lastRewardCalculation",
              "type": "uint256"
            },
            {
              "internalType": "uint256",
              "name": "pendingRewards",
              "type": "uint256"
            },
            {
              "internalType": "bool",
              "name": "active",
              "type": "bool"
            }
          ],
          "internalType": "struct TokenICO.Stake[]",
          "name": "",
          "type": "tuple[]"
        }
      ],
      "stateMutability": "view",
      "type": "function"
    },
    {
      "inputs": [
        {
          "internalType": "address",
          "name": "user",
          "type": "address"
        }
      ],
      "name": "getUserStakingInfo",
      "outputs": [
        {
          "internalType": "uint256",
          "name": "totalUserStaked",
          "type": "uint256"
        },
        {
          "internalType": "uint256",
          "name": "totalPendingRewards",
          "type": "uint256"
        },
        {
          "internalType": "uint256",
          "name": "activeStakesCount",
          "type": "uint256"
        }
      ],
      "stateMutability": "view",
      "type": "function"
    },
    {
      "inputs": [
        {
          "internalType": "address",
          "name": "user",
          "type": "address"
        }
      ],
      "name": "getUserTransactions",
      "outputs": [
        {
          "components": [
            {
              "internalType": "uint256",
              "name": "timestamp",
              "type": "uint256"
            },
            {
              "internalType": "address",
              "name": "user",
              "type": "address"
            },
            {
              "internalType": "address",
              "name": "tokenIn",
              "type": "address"
            },
            {
              "internalType": "address",
              "name": "tokenOut",
              "type": "address"
            },
            {
              "internalType": "uint256",
              "name": "amountIn",
              "type": "uint256"
            },
            {
              "internalType": "uint256",
              "name": "amountOut",
              "type": "uint256"
            },
            {
              "internalType": "string",
              "name": "transactionType",
              "type": "string"
            }
          ],
          "internalType": "struct TokenICO.Transaction[]",
          "name": "",
          "type": "tuple[]"
        }
      ],
      "stateMutability": "view",
      "type": "function"
    },
    {
      "inputs": [
        {
          "internalType": "uint256",
          "name": "stakeId",
          "type": "uint256"
        }
      ],
      "name": "harvestRewards",
      "outputs": [],
      "stateMutability": "nonpayable",
      "type": "function"
    },
    {
      "inputs": [
        {
          "internalType": "address",
          "name": "",
          "type": "address"
        }
      ],
      "name": "hasStaked",
      "outputs": [
        {
          "internalType": "bool",
          "name": "",
          "type": "bool"
        }
      ],
      "stateMutability": "view",
      "type": "function"
    },
    {
      "inputs": [],
      "name": "minStakeAmount",
      "outputs": [
        {
          "internalType": "uint256",
          "name": "",
          "type": "uint256"
        }
      ],
      "stateMutability": "view",
      "type": "function"
    },
    {
      "inputs": [],
      "name": "nextStakeId",
      "outputs": [
        {
          "internalType": "uint256",
          "name": "",
          "type": "uint256"
        }
      ],
      "stateMutability": "view",
      "type": "function"
    },
    {
      "inputs": [],
      "name": "owner",
      "outputs": [
        {
          "internalType": "address",
          "name": "",
          "type": "address"
        }
      ],
      "stateMutability": "view",
      "type": "function"
    },
    {
      "inputs": [],
      "name": "referralRewardPercentage",
      "outputs": [
        {
          "internalType": "uint256",
          "name": "",
          "type": "uint256"
        }
      ],
      "stateMutability": "view",
      "type": "function"
    },
    {
      "inputs": [
        {
          "internalType": "address",
          "name": "",
          "type": "address"
        }
      ],
      "name": "referralRewards",
      "outputs": [
        {
          "internalType": "uint256",
          "name": "",
          "type": "uint256"
        }
      ],
      "stateMutability": "view",
      "type": "function"
    },
    {
      "inputs": [
        {
          "internalType": "address",
          "name": "",
          "type": "address"
        },
        {
          "internalType": "uint256",
          "name": "",
          "type": "uint256"
        }
      ],
      "name": "referrals",
      "outputs": [
        {
          "internalType": "address",
          "name": "",
          "type": "address"
        }
      ],
      "stateMutability": "view",
      "type": "function"
    },
    {
      "inputs": [
        {
          "internalType": "address",
          "name": "",
          "type": "address"
        }
      ],
      "name": "referrers",
      "outputs": [
        {
          "internalType": "address",
          "name": "",
          "type": "address"
        }
      ],
      "stateMutability": "view",
      "type": "function"
    },
    {
      "inputs": [
        {
          "internalType": "address",
          "name": "referrer",
          "type": "address"
        }
      ],
      "name": "registerReferrer",
      "outputs": [],
      "stateMutability": "nonpayable",
      "type": "function"
    },
    {
      "inputs": [],
      "name": "saleToken",
      "outputs": [
        {
          "internalType": "address",
          "name": "",
          "type": "address"
        }
      ],
      "stateMutability": "view",
      "type": "function"
    },
    {
      "inputs": [
        {
          "internalType": "address",
          "name": "user",
          "type": "address"
        },
        {
          "internalType": "bool",
          "name": "blocked",
          "type": "bool"
        }
      ],
      "name": "setBlockStatus",
      "outputs": [],
      "stateMutability": "nonpayable",
      "type": "function"
    },
    {
      "inputs": [
        {
          "internalType": "address",
          "name": "_token",
          "type": "address"
        }
      ],
      "name": "setSaleToken",
      "outputs": [],
      "stateMutability": "nonpayable",
      "type": "function"
    },
    {
      "inputs": [],
      "name": "solAddress",
      "outputs": [
        {
          "internalType": "address",
          "name": "",
          "type": "address"
        }
      ],
      "stateMutability": "view",
      "type": "function"
    },
    {
      "inputs": [],
      "name": "solRatio",
      "outputs": [
        {
          "internalType": "uint256",
          "name": "",
          "type": "uint256"
        }
      ],
      "stateMutability": "view",
      "type": "function"
    },
    {
      "inputs": [
        {
          "internalType": "uint256",
          "name": "",
          "type": "uint256"
        }
      ],
      "name": "stakeOwners",
      "outputs": [
        {
          "internalType": "address",
          "name": "",
          "type": "address"
        }
      ],
      "stateMutability": "view",
      "type": "function"
    },
    {
      "inputs": [
        {
          "internalType": "uint256",
          "name": "amount",
          "type": "uint256"
        },
        {
          "internalType": "uint256",
          "name": "lockPeriodDays",
          "type": "uint256"
        }
      ],
      "name": "stakeTokens",
      "outputs": [],
      "stateMutability": "nonpayable",
      "type": "function"
    },
    {
      "inputs": [],
      "name": "tokensSold",
      "outputs": [
        {
          "internalType": "uint256",
          "name": "",
          "type": "uint256"
        }
      ],
      "stateMutability": "view",
      "type": "function"
    },
    {
      "inputs": [],
      "name": "totalPenaltyCollected",
      "outputs": [
        {
          "internalType": "uint256",
          "name": "",
          "type": "uint256"
        }
      ],
      "stateMutability": "view",
      "type": "function"
    },
    {
      "inputs": [],
      "name": "totalRewardsDistributed",
      "outputs": [
        {
          "internalType": "uint256",
          "name": "",
          "type": "uint256"
        }
      ],
      "stateMutability": "view",
      "type": "function"
    },
    {
      "inputs": [],
      "name": "totalStaked",
      "outputs": [
        {
          "internalType": "uint256",
          "name": "",
          "type": "uint256"
        }
      ],
      "stateMutability": "view",
      "type": "function"
    },
    {
      "inputs": [],
      "name": "totalStakers",
      "outputs": [
        {
          "internalType": "uint256",
          "name": "",
          "type": "uint256"
        }
      ],
      "stateMutability": "view",
      "type": "function"
    },
    {
      "inputs": [
        {
          "internalType": "uint256",
          "name": "stakeId",
          "type": "uint256"
        }
      ],
      "name": "unstakeEarly",
      "outputs": [],
      "stateMutability": "nonpayable",
      "type": "function"
    },
    {
      "inputs": [
        {
          "internalType": "uint256",
          "name": "stakeId",
          "type": "uint256"
        }
      ],
      "name": "unstakeTokens",
      "outputs": [],
      "stateMutability": "nonpayable",
      "type": "function"
    },
    {
      "inputs": [
        {
          "internalType": "address",
          "name": "newAddress",
          "type": "address"
        },
        {
          "internalType": "uint256",
          "name": "newRatio",
          "type": "uint256"
        }
      ],
      "name": "updateBNB",
      "outputs": [],
      "stateMutability": "nonpayable",
      "type": "function"
    },
    {
      "inputs": [
        {
          "internalType": "uint256",
          "name": "newAPY",
          "type": "uint256"
        }
      ],
      "name": "updateBaseAPY",
      "outputs": [],
      "stateMutability": "nonpayable",
      "type": "function"
    },
    {
      "inputs": [
        {
          "internalType": "uint256",
          "name": "newMinAmount",
          "type": "uint256"
        }
      ],
      "name": "updateMinStakeAmount",
      "outputs": [],
      "stateMutability": "nonpayable",
      "type": "function"
    },
    {
      "inputs": [
        {
          "internalType": "uint256",
          "name": "newPercentage",
          "type": "uint256"
        }
      ],
      "name": "updateReferralPercentage",
      "outputs": [],
      "stateMutability": "nonpayable",
      "type": "function"
    },
    {
      "inputs": [
        {
          "internalType": "address",
          "name": "newAddress",
          "type": "address"
        },
        {
          "internalType": "uint256",
          "name": "newRatio",
          "type": "uint256"
        }
      ],
      "name": "updateSOL",
      "outputs": [],
      "stateMutability": "nonpayable",
      "type": "function"
    },
    {
      "inputs": [
        {
          "internalType": "uint256",
          "name": "newPrice",
          "type": "uint256"
        }
      ],
      "name": "updateStablecoinPrice",
      "outputs": [],
      "stateMutability": "nonpayable",
      "type": "function"
    },
    {
      "inputs": [
        {
          "internalType": "uint256",
          "name": "newPrice",
          "type": "uint256"
        }
      ],
      "name": "updateTokenPrice",
      "outputs": [],
      "stateMutability": "nonpayable",
      "type": "function"
    },
    {
      "inputs": [
        {
          "internalType": "address",
          "name": "newAddress",
          "type": "address"
        },
        {
          "internalType": "uint256",
          "name": "newRatio",
          "type": "uint256"
        }
      ],
      "name": "updateUSDC",
      "outputs": [],
      "stateMutability": "nonpayable",
      "type": "function"
    },
    {
      "inputs": [
        {
          "internalType": "address",
          "name": "newAddress",
          "type": "address"
        },
        {
          "internalType": "uint256",
          "name": "newRatio",
          "type": "uint256"
        }
      ],
      "name": "updateUSDT",
      "outputs": [],
      "stateMutability": "nonpayable",
      "type": "function"
    },
    {
      "inputs": [],
      "name": "usdcAddress",
      "outputs": [
        {
          "internalType": "address",
          "name": "",
          "type": "address"
        }
      ],
      "stateMutability": "view",
      "type": "function"
    },
    {
      "inputs": [],
      "name": "usdcRatio",
      "outputs": [
        {
          "internalType": "uint256",
          "name": "",
          "type": "uint256"
        }
      ],
      "stateMutability": "view",
      "type": "function"
    },
    {
      "inputs": [],
      "name": "usdtAddress",
      "outputs": [
        {
          "internalType": "address",
          "name": "",
          "type": "address"
        }
      ],
      "stateMutability": "view",
      "type": "function"
    },
    {
      "inputs": [],
      "name": "usdtRatio",
      "outputs": [
        {
          "internalType": "uint256",
          "name": "",
          "type": "uint256"
        }
      ],
      "stateMutability": "view",
      "type": "function"
    },
    {
      "inputs": [
        {
          "internalType": "address",
          "name": "",
          "type": "address"
        },
        {
          "internalType": "uint256",
          "name": "",
          "type": "uint256"
        }
      ],
      "name": "userStakes",
      "outputs": [
        {
          "internalType": "uint256",
          "name": "id",
          "type": "uint256"
        },
        {
          "internalType": "uint256",
          "name": "amount",
          "type": "uint256"
        },
        {
          "internalType": "uint256",
          "name": "startTime",
          "type": "uint256"
        },
        {
          "internalType": "uint256",
          "name": "lockPeriod",
          "type": "uint256"
        },
        {
          "internalType": "uint256",
          "name": "lastRewardCalculation",
          "type": "uint256"
        },
        {
          "internalType": "uint256",
          "name": "pendingRewards",
          "type": "uint256"
        },
        {
          "internalType": "bool",
          "name": "active",
          "type": "bool"
        }
      ],
      "stateMutability": "view",
      "type": "function"
    },
    {
      "inputs": [
        {
          "internalType": "address",
          "name": "",
          "type": "address"
        },
        {
          "internalType": "uint256",
          "name": "",
          "type": "uint256"
        }
      ],
      "name": "userTransactions",
      "outputs": [
        {
          "internalType": "uint256",
          "name": "timestamp",
          "type": "uint256"
        },
        {
          "internalType": "address",
          "name": "user",
          "type": "address"
        },
        {
          "internalType": "address",
          "name": "tokenIn",
          "type": "address"
        },
        {
          "internalType": "address",
          "name": "tokenOut",
          "type": "address"
        },
        {
          "internalType": "uint256",
          "name": "amountIn",
          "type": "uint256"
        },
        {
          "internalType": "uint256",
          "name": "amountOut",
          "type": "uint256"
        },
        {
          "internalType": "string",
          "name": "transactionType",
          "type": "string"
        }
      ],
      "stateMutability": "view",
      "type": "function"
    },
    {
      "inputs": [
        {
          "internalType": "address",
          "name": "_token",
          "type": "address"
        },
        {
          "internalType": "uint256",
          "name": "_amount",
          "type": "uint256"
        }
      ],
      "name": "withdrawTokens",
      "outputs": [],
      "stateMutability": "nonpayable",
      "type": "function"
    }
  ],
  "bytecode": "0x60a080604052346100e75766038d7ea4c6800080600555600655600c60105568056bc75e2d6310000060115560016017556005601955336080526014600755601460085560146009556014600a556147dd90816100ed823960805181818161041f0152818161070c015281816107fb01528181610b5101528181610e3401528181610f46015281816111140152818161121b015281816116e801528181611aa101528181611bb101528181611c5901528181612066015281816124de015281816128fc01528181612e2501528181612f7c0152818161305d0152818161313e01526132d60152f35b600080fdfe6080604081815260048036101561001557600080fd5b60009260e08435811c91826302d45457146134a557508163032d975b1461348557816306b091f9146132b557816309813482146131e5578163150d283d146130ad578163182a676b14612ffb5781631ce24e1614612fd35781631e37c60614612f4f578163214405a914612f2f57816321874ae214612ece578163251545da14612d6257816327506f5314612c825781632bb38809146125c35781632fd04c0814612953578163366b17d6146128cf5781633b7b6188146125e3578163491cc756146125c35781634a3b68cc146125875781634cdb312d146124c25781634f93208a14612483578163518ab2a81461246357816353aaa63b1461242a57816357126d0d146121fb578163575cea6b146121505781635b36504014611fa3578163608e4dd014611cc757816363219c7214611c1a578163676c0d7714611b725781636f43f37314611b5257816371d20fe714611a8557816375506c9614611a655781637a9773dc14611a455781637cc1f86714611962578163809336081461187f578163817b1cd21461185f57816383fabe031461183f578163842e29811461173757816386989038146117175781638da5cb5b146116d2578163920a253e146116b2578163963c9dd3146115d75781639ab4a445146115ad5781639c0fbd05146115905781639ea7685a146113d6578163a1dc903114611260578163a29f481c146111f2578163a7c6016014611059578163aeccf73514610e8b578163b006984f14610e07578163b40cd21d14610dc5578163b5d5b5fa14610d3257508063b842ec4414610cb4578063c3333dfb14610aa1578063c605af5314610a82578063c93c8f3414610a44578063d11c583a14610a1b578063d3ea4350146109f4578063d7ff0714146108ac578063d8060cd5146107e0578063e697b5d814610787578063e985e3671461075f578063ebcd3a13146106df578063ee172546146106c0578063ef925399146105e2578063f1887684146105c3578063f30ef2e514610369578063f34a00fb146103465763fd9a11e51461031157600080fd5b346103425760203660031901126103425735825260136020908152918190205490516001600160a01b039091168152f35b8280fd5b5050346103655781600319360112610365576020906006549051908152f35b5080fd5b503461034257602090816003193601126105bf57803590338552600c835261039760ff8587205416156138a6565b8115906103a482156139ad565b85546001600160a01b0392906103bd9084161515613923565b82825416801561058757633b9aca009182860292868404141715610574576103e7600a5486613964565b91670de0b6b3a7640000928381029381850414901517156105615787516323b872dd60e01b8152338582019081526001600160a01b037f0000000000000000000000000000000000000000000000000000000000000000166020820152604081019290925291879183919082908c90829060600103925af190811561055757889161052a575b50156104f1579160008051602061478883398151915293916104c96104946104eb95613e94565b9661049e886140ce565b878585855416868d5416906242555960e81b8d51956104bc87613676565b6003875286015233614686565b5416945191829133954291846040919493926060820195825260208201520152565b0390a380f35b855162461bcd60e51b8152808301869052601360248201527214d3d3081d1c985b9cd9995c8819985a5b1959606a1b6044820152606490fd5b61054a9150863d8811610550575b6105428183613692565b810190613a3b565b3861046d565b503d610538565b87513d8a823e3d90fd5b634e487b7160e01b895260118452602489fd5b634e487b7160e01b885260118352602488fd5b865162461bcd60e51b8152808401879052601260248201527114d3d3081b9bdd0818dbdb999a59dd5c995960721b6044820152606490fd5b8380fd5b5050346103655781600319360112610365576020906011549051908152f35b5082903461036557602091826003193601126106bd576001600160a01b03928361060a6134ca565b168252600d815284822091825493610621856146e2565b9561062e88519788613692565b85875283870194835283832092945b868610610655578851806106518a82613525565b0390f35b6007856001928b5161066681613644565b8754815285858901541683820152856002890154168d820152856003890154166060820152868801546080820152600588015460a08201526106aa600689016136b4565b60c082015281520194019501949261063d565b80fd5b5050346103655781600319360112610365576020906015549051908152f35b50903461034257366003190112610365576106f86134ca565b60243591906001600160a01b0390610733337f00000000000000000000000000000000000000000000000000000000000000008416146137b7565b1661073f81151561382c565b61074a83151561386a565b81546001600160a01b031916179055600a5580f35b505034610365578160031936011261036557905490516001600160a01b039091168152602090f35b5050346103655780600319360112610365576107a16134ca565b6001600160a01b039081168352601b602052818320805460243594908510156106bd57506020936107d19161379f565b92905490519260031b1c168152f35b503461034257602036600319011261034257803590610829337f00000000000000000000000000000000000000000000000000000000000000006001600160a01b0316146137b7565b81156108695750907f171aabb8815c02fd00303450a77058600e3661eb75ce2e77972c0f080bc7099d91601154908060115582519182526020820152a180f35b606490602084519162461bcd60e51b8352820152602060248201527f4d696e207374616b65206d7573742062652067726561746572207468616e20306044820152fd5b50346103425760203660031901126103425735600e5481101561034257600e60079293520290610651827fbb7b4a454dc3493923482f07822329ed19e8244eff582cc204f8554c3620c3fd01549160018060a01b0393847fbb7b4a454dc3493923482f07822329ed19e8244eff582cc204f8554c3620c3fe8201541694807fbb7b4a454dc3493923482f07822329ed19e8244eff582cc204f8554c3620c3ff83015416907fbb7b4a454dc3493923482f07822329ed19e8244eff582cc204f8554c3620c400830154167fbb7b4a454dc3493923482f07822329ed19e8244eff582cc204f8554c3620c401830154916109e97fbb7b4a454dc3493923482f07822329ed19e8244eff582cc204f8554c3620c4037fbb7b4a454dc3493923482f07822329ed19e8244eff582cc204f8554c3620c40286015495016136b4565b94519788978861375a565b5091346106bd5760203660031901126106bd5750610a1460209235613c48565b9051908152f35b50503461036557816003193601126103655760035490516001600160a01b039091168152602090f35b5050346103655760203660031901126103655760209160ff9082906001600160a01b03610a6f6134ca565b1681526018855220541690519015158152f35b5050346103655781600319360112610365576020906005549051908152f35b503461034257602090816003193601126105bf57803590338552600c8352610acf60ff8587205416156138a6565b8115610adb81156139ad565b85546001600160a01b039290610af49084161515613923565b82600354168015610c7c57670de0b6b3a7640000928386029086820485141715610c6957610b2460095487613964565b848102948186041490151715610c695787516323b872dd60e01b8152338482019081526001600160a01b037f0000000000000000000000000000000000000000000000000000000000000000166020820152604081019290925291879183919082908c90829060600103925af1908115610557578891610c4c575b5015610c135750916104eb91610bef610bc660008051602061478883398151915295613e94565b95610bd0876140ce565b86848460035416858c5416906242555960e81b8c51956104bc87613676565b60035416945191829133954291846040919493926060820195825260208201520152565b855162461bcd60e51b81529081018590526013602482015272109390881d1c985b9cd9995c8819985a5b1959606a1b6044820152606490fd5b610c639150863d8811610550576105428183613692565b38610b9f565b634e487b7160e01b895260118352602489fd5b865162461bcd60e51b81528083018790526012602482015271109390881b9bdd0818dbdb999a59dd5c995960721b6044820152606490fd5b50919034610365578060031936011261036557610ccf6134ca565b6001600160a01b039081168352600d60205281832080549193602435928310156106bd57506106519291610d02916135d8565b508054938060018301541695816002840154169160038401541690830154916109e96006600586015495016136b4565b939050346106bd57826003193601126106bd57610d4d6134ca565b6001600160a01b031681526012602052828120805460243592908310156106bd575090610d79916135d8565b5080549260018201549260028301546003840154918401549260ff600660058701549601541695815197885260208801528601526060850152608084015260a0830152151560c0820152f35b5050503461036557816003193601126103655760a090601054906011549060145460155491601654938151958652602086015284015260608301526080820152f35b50505034610365573660031901126106bd57610e216134ca565b602435906001600160a01b0390610e5b337f00000000000000000000000000000000000000000000000000000000000000008416146137b7565b16610e6781151561382c565b610e7282151561386a565b6001600160601b0360a01b600154161760015560075580f35b8285853461036557602080600319360112610342578335338452600c8252610eb960ff8486205416156138a6565b801590610ec682156139ad565b84546001600160a01b0390610ede9082161515613923565b806002541692610eef841515613a96565b620f4240908184029184830414171561104657610f0e60085484613964565b93670de0b6b3a7640000948581029581870414901517156110335786516323b872dd60e01b815233818b019081526001600160a01b037f00000000000000000000000000000000000000000000000000000000000000001660208201526040810193909352949392918691869182908b90829060600103925af193841561102957610fbf6104eb94610fba60008051602061478883398151915297610fe8948c9161100c575b50613ad8565b613e94565b95610fc9876140ce565b86848460025416858c5416906242555960e81b8c51956104bc87613676565b60025416945191829133954291846040919493926060820195825260208201520152565b61102391508a3d8c11610550576105428183613692565b8c610fb4565b86513d89823e3d90fd5b634e487b7160e01b885260118952602488fd5b634e487b7160e01b875260118852602487fd5b8285853461036557602080600319360112610342578335338452600c825261108760ff8486205416156138a6565b80159061109482156139ad565b84546001600160a01b03906110ac9082161515613923565b8060015416926110bd8415156139f9565b620f42409081840291848304141715611046576110dc60075484613964565b93670de0b6b3a7640000948581029581870414901517156110335786516323b872dd60e01b815233818b019081526001600160a01b037f00000000000000000000000000000000000000000000000000000000000000001660208201526040810193909352949392918691869182908b90829060600103925af1938415611029576111886104eb94610fba600080516020614788833981519152976111b1948c916111d5575b50613a53565b95611192876140ce565b86848460015416858c5416906242555960e81b8c51956104bc87613676565b60015416945191829133954291846040919493926060820195825260208201520152565b6111ec91508a3d8c11610550576105428183613692565b8c611182565b84346106bd5760203660031901126106bd5761120c6134ca565b6001600160a01b0390611242337f00000000000000000000000000000000000000000000000000000000000000008416146137b7565b1661124e81151561382c565b81546001600160a01b03191617815580f35b50509034610342578260031936011261034257825481516370a0823160e01b808252308286015290946001600160a01b03946020938490889060249082908a165afa9586156113cc57829661139c575b602497508481600154168751998a809288825230878301525afa978815611392578398611362575b509060248592600254169487519586938492835230908301525afa928315611356578193611323575b5050506106519151938493846040919493926060820195825260208201520152565b9091809350813d831161134f575b61133b8183613692565b810103126106bd5750516106513880611301565b503d611331565b508351903d90823e3d90fd5b9097508481813d831161138b575b61137a8183613692565b8101031261034257519660246112d8565b503d611370565b86513d85823e3d90fd5b95508387813d83116113c5575b6113b38183613692565b810103126103655760249651956112b0565b503d6113a9565b85513d84823e3d90fd5b828585346103655760209081600319360112610342576113f46134ca565b90338452600c835261140c60ff8286205416156138a6565b6001600160a01b0391821692831561154e5733841461151457338552601a81528282862054166114c757338552601a815281852080546001600160a01b03191685179055838552601b90528320805490600160401b8210156114b457906114789160018201815561379f565b819291549060031b9133831b921b191617905533907f5f1ca2fcc108b751843a763e60d2201f593516109d7dbb1b700468f2d4190bb78380a380f35b634e487b7160e01b855260418652602485fd5b8590608492519162461bcd60e51b8352820152602260248201527f416c72656164792072656769737465726564207769746820612072656665727260448201526132b960f11b6064820152fd5b8590606492519162461bcd60e51b8352820152601560248201527421b0b73737ba103932b332b9103cb7bab939b2b63360591b6044820152fd5b8590606492519162461bcd60e51b8352820152601860248201527f496e76616c6964207265666572726572206164647265737300000000000000006044820152fd5b505050346103655781600319360112610365576020905160058152f35b5050503461036557816003193601126103655760015490516001600160a01b039091168152602090f35b50503461034257602090816003193601126105bf573580845260138252828420546001600160a01b031693909290611610851515613b7b565b61161861474f565b8195825b8184526012808752858520805483101561169d5761163b838a926135d8565b505414611651575061164c90613b5f565b61161c565b60609850611674935084869161166e9461168497528852206135d8565b506146fa565b9361167f6001613bbe565b613c48565b60c0858501519401511515928251948552840152820152f35b5050505093611684915061167f606096613bbe565b505050346103655781600319360112610365576020906019549051908152f35b50505034610365578160031936011261036557517f00000000000000000000000000000000000000000000000000000000000000006001600160a01b03168152602090f35b505050346103655781600319360112610365576020906016549051908152f35b91505034610342576020806003193601126105bf5790916001600160a01b0361175e6134ca565b1684526012825280842091825491611775836146e2565b9261178282519485613692565b8084528284018095885283882088915b838310611812575050505080519482860193838752518094528186019496915b8483106117bf5786860387f35b87518051875280850151878601528082015187830152606080820151908801526080808201519088015260a0808201519088015260c09081015115159087015296830196948101946001909201916117b2565b600786600192611829859d999a9b9d9c989c6146fa565b8152019201920191909896959498979397611792565b505050346103655781600319360112610365576020906007549051908152f35b505050346103655781600319360112610365576020906014549051908152f35b8385346106bd57602090816003193601126106bd5761189c6134ca565b9091829182919082906001600160a01b0316815b8186526012808552888720805483101561194a5760ff60066118d3858d946135d8565b500154166118ec575b50506118e790613b5f565b6118b0565b82969461191a839a60016119116118e79761193c968e611942998e8d835252206135d8565b50015490613b6e565b99858a52875261193661192f898d8c206135d8565b5054613c48565b90613b6e565b93613b5f565b9490886118dc565b89518981526020810186905260408101889052606090f35b929050346105bf57836003193601126105bf57835481516370a0823160e01b815230938101939093526001600160a01b039081169390602084602481885afa938415611a3b5786946119ff575b50610120955060055490600654600b54908260015416926002541693600754966008549881519a8b5260208b01528901526060880152608087015260a086015260c0850152830152610100820152f35b9093506020813d8211611a33575b81611a1a60209383613692565b81010312611a2f5761012095505192386119af565b8580fd5b3d9150611a0d565b83513d88823e3d90fd5b50505034610365578160031936011261036557602090600a549051908152f35b505050346103655781600319360112610365576020906017549051908152f35b50503461034257602036600319011261034257803590611acf337f00000000000000000000000000000000000000000000000000000000000000006001600160a01b0316146137b7565b8115611b0f5750907f787a1fca55641ce34a438271930bbb9401df20db2b4f510d4f252227d85df43d91601054908060105582519182526020820152a180f35b606490602084519162461bcd60e51b8352820152601a60248201527f415059206d7573742062652067726561746572207468616e20300000000000006044820152fd5b505050346103655781600319360112610365576020906008549051908152f35b505034610342576020366003190112610342577f6e838f2a03741f5f2aff5480963b672fb0dd8430a4dc75db9b67ce009733c9fe9160a09135611bdf337f00000000000000000000000000000000000000000000000000000000000000006001600160a01b0316146137b7565b611bea8115156137f0565b60055491816005558051926060845260056060850152642a27a5a2a760d91b60808501526020840152820152a180f35b505034610342576020366003190112610342577f6e838f2a03741f5f2aff5480963b672fb0dd8430a4dc75db9b67ce009733c9fe9160a09135611c87337f00000000000000000000000000000000000000000000000000000000000000006001600160a01b0316146137b7565b611c928115156137f0565b600654918160065580519260608452600a60608501526929aa20a12622a1a7a4a760b11b60808501526020840152820152a180f35b5050903461034257602090816003193601126105bf578291923592338552600c815260ff611cfa818488205416156138a6565b84865260138252828620546001600160a01b0390611d1b9082163314613e56565b8694859283805b338b526012808852888c208054831015611f8f579a611d4383829c9d6135d8565b505414611d5c5750611d5490613b5f565b989798611d22565b955097985050338952838552611d85611d7788888c206135d8565b509160068093015416613bfc565b3389528385526002611d9988888c206135d8565b500154338a528486526003611db089898d206135d8565b500154906201518091828102928184041490151715611f7c5790611dd391613b6e565b4210611f4257918491611e368a611e7c95611e18611df08d613c48565b9b3384528988528b611e04828287206135d8565b50946001809601549b3382528a52206135d8565b500160ff1981541690556014611e2f888254613c3b565b9055613bbe565b611e3f33614015565b611e498886613b6e565b8a54885163a9059cbb60e01b8152339381019384526020840192909252909485939091169183918c918391604090910190565b03925af1908115611f385790611e99918891611f1b575b50613b1b565b848415159182611f07575b84519081527f7fc4727e062e336010f2c282598ef5f14facb3de68cf8195c2f23e1454b2b74e843392a3611ed6578480f35b7ff87cfa2d5feaea949ad65bb76a26d8553381bcb6382adbc83dedd48961bf32d991519283523392a3388080808480f35b611f1386601554613b6e565b601555611ea4565b611f329150843d8611610550576105428183613692565b38611e93565b84513d89823e3d90fd5b855162461bcd60e51b8152808301869052601460248201527314dd1a5b1b081a5b881b1bd8dac81c195c9a5bd960621b6044820152606490fd5b634e487b7160e01b8b526011845260248bfd5b505050611e7c93915091611e368693613bbe565b50508260031936011261034257338352600c602052611fc860ff8385205416156138a6565b341590611fd582156138e7565b6001546001600160a01b0390811692611fef8415156139f9565b620f4240803402903482041482171561213d579061201187926006549061398d565b865163a9059cbb60e01b81523386820190815260208181018490529297919291839182908790829060400103925af18015612133576120569184916121155750613a53565b819061210c575b818080923490867f00000000000000000000000000000000000000000000000000000000000000001690f1156120ff576120db7f48a1f8a6c840b32621ceab4439a2ccd00b337e705dfdcdec0b40c49abf3e6be3928483600154168751926120c484613676565b83526314d1531360e21b6020840152349033614627565b600154935192835234602084015242604084015290921691339180606081016104eb565b50505051903d90823e3d90fd5b506108fc61205d565b61212d915060203d8111610550576105428183613692565b38611182565b87513d85823e3d90fd5b634e487b7160e01b875260118452602487fd5b5050503461036557602080600319360112610342576001600160a01b0392836121776134ca565b168152601b825282812091835190818185549182815201908195855282852090855b8181106121e557505050826121af910383613692565b8451948186019282875251809352850193925b8281106121cf5785850386f35b83518716855293810193928101926001016121c2565b82548a1684529284019260019283019201612199565b50503461034257602090816003193601126105bf57803591338552600c815260ff9361222c858288205416156138a6565b83865260138252808620546001600160a01b03939061224e9085163314613e56565b8693875b3389526012808652848a20805483101561241757612271838a926135d8565b505414612287575061228290613b5f565b612252565b96976122b091929394959650338a5287875260066122a784888d206135d8565b50015416613bfc565b6122b987613c48565b9586156123dc57906122ea91338a528087528960056122da848984206135d8565b500155338a5286528489206135d8565b5042908301558654835163a9059cbb60e01b815233818501908152602081018890529092869284928390036040019183918c91165af19081156123d25787916123b5575b501561237b5750907ff87cfa2d5feaea949ad65bb76a26d8553381bcb6382adbc83dedd48961bf32d9916015612365858254613b6e565b9055519283523392a36123786001613bbe565b80f35b82606492519162461bcd60e51b8352820152601660248201527514995dd85c99081d1c985b9cd9995c8819985a5b195960521b6044820152fd5b6123cc9150843d8611610550576105428183613692565b3861232e565b83513d89823e3d90fd5b845162461bcd60e51b81528085018790526015602482015274139bc81c995dd85c991cc81d1bc81a185c9d995cdd605a1b6044820152606490fd5b5050505050505090506123789150613bbe565b505050346103655760203660031901126103655760209181906001600160a01b036124536134ca565b168152601c845220549051908152f35b50505034610365578160031936011261036557602090600b549051908152f35b505050346103655760203660031901126103655760209160ff9082906001600160a01b036124af6134ca565b168152600c855220541690519015158152f35b5050346103425760203660031901126103425780359061250c337f00000000000000000000000000000000000000000000000000000000000000006001600160a01b0316146137b7565b6014821161254e5750907fd968a3cc702265c3ab67356df15ca21d50167b011f198b963e2a868e04e3d5e091601954908060195582519182526020820152a180f35b606490602084519162461bcd60e51b835282015260136024820152720a0cae4c6cadce8c2ceca40e8dede40d0d2ced606b1b6044820152fd5b50505034610365576020366003190112610365576020916001600160a01b03908290826125b26134ca565b168152601a85522054169051908152f35b50505034610365578160031936011261036557602090600f549051908152f35b82858534610365578060031936011261036557823560243591338452602092600c845261261660ff8387205416156138a6565b601154831061288c5784546001600160a01b0316612635811515613923565b601e82148015612882575b8015612878575b801561286d575b156128345782516323b872dd60e01b815233818901908152306020820152604081018690529091869183919082908a90829060600103925af1908115611a3b579061269f9187916128175750613b1b565b601754936126ac85613b5f565b60175582516126ba81613644565b85815281810185815284820142815260608301858152608084019042825260a08501928b845260c086019460018652338d5260128852898d20805490600160401b8210156128035790612712916001820181556135d8565b9790976127f157927fb4caaf29adda3eefee3ad552a8e85058589bf834c7466cae4ee58787f70589ed9b9c9d9e926127819897959260069795518955516001890155516002880155516003870155519085015551600584015551151591019060ff801983541691151516179055565b85875260138152828720336001600160601b0360a01b8254161790556127a985601454613b6e565b60145533875260188152828720805460ff8116156127d2575b505082519485528401523392a380f35b60ff191660011790556016546127e790613b5f565b60165587806127c2565b634e487b7160e01b8e528d8f5260248efd5b8f8f6041602492634e487b7160e01b835252fd5b61282e9150863d8811610550576105428183613692565b88611e93565b825162461bcd60e51b81528088018690526013602482015272125b9d985b1a59081b1bd8dac81c195c9a5bd9606a1b6044820152606490fd5b5061016d821461264e565b5060b48214612647565b50605a8214612640565b815162461bcd60e51b8152808701859052601a60248201527f416d6f756e742062656c6f77206d696e696d756d207374616b650000000000006044820152606490fd5b50505034610365573660031901126106bd576128e96134ca565b602435906001600160a01b0390612923337f00000000000000000000000000000000000000000000000000000000000000008416146137b7565b1661292f81151561382c565b61293a82151561386a565b6001600160601b0360a01b600354161760035560095580f35b505091346106bd576020928360031936011261036557803590338352600c855260ff91612985838686205416156138a6565b80845260138652848420546001600160a01b0396906129a79088163314613e56565b8495855b33875260128084528288208054831015612c6f576129ca8387926135d8565b5054146129e057506129db90613b5f565b6129ab565b9192939495969750338852818452612a0b6129fd82858b206135d8565b509760068099015416613bfc565b3388528184526002612a1f82858b206135d8565b5001543389528285526003612a3683868c206135d8565b500154906201518091828102928184041490151715612c5c5799612a6186928b9c9b98999a9b613b6e565b92612a6b89613c48565b9a338952858452612a7e82888b206135d8565b5091876001809401549a80974210612c02575b90612aa79291612b0798993382528852206135d8565b500160ff1981541690556014612abe898254613c3b565b905598612ad48b612acf878b613c3b565b613b6e565b8c54875163a9059cbb60e01b8152339381019384526020840192909252909485939091169183918e918391604090910190565b03925af1908115612bf85797612b288792612b689a8c91612be15750613b1b565b80612ba1575b50508015612b71577f9c9ec3cfa814b0112b71c20d0b0ab54dead00a99fd389c174df717d2f1d364039282519485528401523392a3613bbe565b61237833614015565b50907f7fc4727e062e336010f2c282598ef5f14facb3de68cf8195c2f23e1454b2b74e91519283523392a3613bbe565b6015612bae828254613b6e565b905583519081527ff87cfa2d5feaea949ad65bb76a26d8553381bcb6382adbc83dedd48961bf32d9853392a38438612b2e565b611f329150873d8911610550576105428183613692565b83513d8b823e3d90fd5b50509193509193506005808902908982041489151715612c495791612aa7889492888f6064612b0799970499600f612c3b8c8254613b6e565b905599985090919250612a91565b634e487b7160e01b8d5260118b5260248dfd5b634e487b7160e01b8a526011885260248afd5b50505050505050509150612b6890613bbe565b505082346106bd57806003193601126106bd5790600e5490612ca3826146e2565b92612cb085519485613692565b828452600e8152906020907fbb7b4a454dc3493923482f07822329ed19e8244eff582cc204f8554c3620c3fd908286015b858510612cf5578751806106518982613525565b6007846001928a51612d0681613644565b86548152848060a01b0380868901541684830152806002890154168d8301526003880154166060820152858701546080820152600587015460a0820152612d4f600688016136b4565b60c0820152815201930194019391612ce1565b50508260031936011261034257338352600c602052612d8760ff8385205416156138a6565b341590612d9482156138e7565b6002546001600160a01b0390811692612dae841515613a96565b620f4240803402903482041482171561213d5790612dd087926006549061398d565b865163a9059cbb60e01b81523386820190815260208181018490529297919291839182908790829060400103925af1801561213357612e15918491612eb05750613ad8565b8190612ea7575b818080923490867f00000000000000000000000000000000000000000000000000000000000000001690f1156120ff57612e837f48a1f8a6c840b32621ceab4439a2ccd00b337e705dfdcdec0b40c49abf3e6be3928483600254168751926120c484613676565b600254935192835234602084015242604084015290921691339180606081016104eb565b506108fc612e1c565b612ec8915060203d8111610550576105428183613692565b38610fb4565b50505034610365576020366003190112610365576080916001600160a01b0380612ef66134ca565b168252601a602052828220541691601b602052808083205492601c60205220549060195492815194855260208501528301526060820152f35b505050346103655781600319360112610365576020906010549051908152f35b50505034610365573660031901126106bd57612f696134ca565b602435906001600160a01b0390612fa3337f00000000000000000000000000000000000000000000000000000000000000008416146137b7565b16612faf81151561382c565b612fba82151561386a565b6001600160601b0360a01b600254161760025560085580f35b5050346103425782600319360112610342575490516001600160a01b03909116815260209150f35b505050346103655780600319360112610365576130166134ca565b90602435918215158084036130a9577fdda6207409a585801122fb885dcaa8074f9a21f25ff2def680c67f01a86c2c9b926020926130a1906001600160a01b0390613084337f00000000000000000000000000000000000000000000000000000000000000008416146137b7565b1695868852600c85528288209060ff801983541691151516179055565b51908152a280f35b8480fd5b8285858160031936011261036557338252600c6020526130d360ff8284205416156138a6565b3415906130e082156138e7565b82546001600160a01b03906130f89082161515613923565b670de0b6b3a764000080340290348204148417156131d257849550613124610fba86926005549061398d565b9361312e856140ce565b81906131c9575b818080923490867f00000000000000000000000000000000000000000000000000000000000000001690f1156131bf57906131a1600080516020614788833981519152928554168483519161318983613676565b600383526242555960e81b6020840152349033614627565b513481526020810192909252426040830152339180606081016104eb565b81513d85823e3d90fd5b506108fc613135565b634e487b7160e01b855260118652602485fd5b8385843461036557602090816003193601126103425735928383526013825260018060a01b0381842054169261321c841515613b7b565b61322461474f565b8195825b868452601280875285852080548310156132a3576132478385926135d8565b50541461325d575061325890613b5f565b613228565b6080985061166e9350859192509361327a948882528752206135d8565b906132856001613bbe565b81519381848401519301519382519586528501528301526060820152f35b50505050919050613285608095613bbe565b505090346103425780600319360112610342576132d06134ca565b602435907f00000000000000000000000000000000000000000000000000000000000000006001600160a01b0361330a33828416146137b7565b8087541692169182146133c5575b835163a9059cbb60e01b81526001600160a01b03909116858201908152602081810194909452909291839182908890829060400103925af19081156133bb57849161339d575b5015613368578280f35b906020606492519162461bcd60e51b8352820152600f60248201526e151c985b9cd9995c8819985a5b1959608a1b6044820152fd5b6133b5915060203d8111610550576105428183613692565b3861335e565b82513d86823e3d90fd5b83516370a0823160e01b81523086820152602081602481865afa801561347b578790613444575b6133fa915060145490613c3b565b83111561331857835162461bcd60e51b8152602081870152601d60248201527f43616e6e6f74207769746864726177207374616b656420746f6b656e730000006044820152606490fd5b506020813d8211613473575b8161345d60209383613692565b8101031261346f576133fa90516133ec565b8680fd5b3d9150613450565b85513d89823e3d90fd5b505050346103655781600319360112610365576020906009549051908152f35b8590346103655781600319360112610365576002546001600160a01b03168152602090f35b600435906001600160a01b03821682036134e057565b600080fd5b919082519283825260005b848110613511575050826000602080949584010152601f8019910116010190565b6020818301810151848301820152016134f0565b602080820190808352835180925260409283810182858560051b8401019601946000925b85841061355a575050505050505090565b9091929394959685806135c7600193603f198682030188528b5180518252858060a01b0380858301511685840152808983015116898401526060908183015116908301526080808201519083015260a0808201519083015260c0809101519160e0809282015201906134e5565b990194019401929594939190613549565b80548210156135f4576000526007602060002091020190600090565b634e487b7160e01b600052603260045260246000fd5b90600182811c9216801561363a575b602083101461362457565b634e487b7160e01b600052602260045260246000fd5b91607f1691613619565b60e0810190811067ffffffffffffffff82111761366057604052565b634e487b7160e01b600052604160045260246000fd5b6040810190811067ffffffffffffffff82111761366057604052565b90601f8019910116810190811067ffffffffffffffff82111761366057604052565b90604051918260008254926136c88461360a565b90818452600194858116908160001461373757506001146136f4575b50506136f292500383613692565b565b9093915060005260209081600020936000915b81831061371f5750506136f2935082010138806136e4565b85548884018501529485019487945091830191613707565b9150506136f294506020925060ff191682840152151560051b82010138806136e4565b9360e0959261379c98979492865260018060a01b0392838092166020880152166040860152166060840152608083015260a08201528160c082015201906134e5565b90565b80548210156135f45760005260206000200190600090565b156137be57565b60405162461bcd60e51b815260206004820152600a60248201526927b7363c9037bbb732b960b11b6044820152606490fd5b156137f757565b60405162461bcd60e51b815260206004820152600d60248201526c496e76616c696420707269636560981b6044820152606490fd5b1561383357565b60405162461bcd60e51b815260206004820152600f60248201526e496e76616c6964206164647265737360881b6044820152606490fd5b1561387157565b60405162461bcd60e51b815260206004820152600d60248201526c496e76616c696420726174696f60981b6044820152606490fd5b156138ad57565b60405162461bcd60e51b81526020600482015260126024820152711059191c995cdcc81a5cc8189b1bd8dad95960721b6044820152606490fd5b156138ee57565b60405162461bcd60e51b815260206004820152600d60248201526c09aeae6e840e6cadcc8408aa89609b1b6044820152606490fd5b1561392a57565b60405162461bcd60e51b815260206004820152601260248201527114d85b19481d1bdad95b881b9bdd081cd95d60721b6044820152606490fd5b8181029291811591840414171561397757565b634e487b7160e01b600052601160045260246000fd5b8115613997570490565b634e487b7160e01b600052601260045260246000fd5b156139b457565b60405162461bcd60e51b815260206004820152601d60248201527f416d6f756e74206d7573742062652067726561746572207468616e20300000006044820152606490fd5b15613a0057565b60405162461bcd60e51b81526020600482015260136024820152721554d115081b9bdd0818dbdb999a59dd5c9959606a1b6044820152606490fd5b908160209103126134e0575180151581036134e05790565b15613a5a57565b60405162461bcd60e51b81526020600482015260146024820152731554d115081d1c985b9cd9995c8819985a5b195960621b6044820152606490fd5b15613a9d57565b60405162461bcd60e51b81526020600482015260136024820152721554d110c81b9bdd0818dbdb999a59dd5c9959606a1b6044820152606490fd5b15613adf57565b60405162461bcd60e51b81526020600482015260146024820152731554d110c81d1c985b9cd9995c8819985a5b195960621b6044820152606490fd5b15613b2257565b60405162461bcd60e51b8152602060048201526015602482015274151bdad95b881d1c985b9cd9995c8819985a5b1959605a1b6044820152606490fd5b60001981146139775760010190565b9190820180921161397757565b15613b8257565b60405162461bcd60e51b815260206004820152601460248201527314dd185ad948191bd95cc81b9bdd08195e1a5cdd60621b6044820152606490fd5b15613bc557565b60405162461bcd60e51b815260206004820152600f60248201526e14dd185ad9481b9bdd08199bdd5b99608a1b6044820152606490fd5b15613c0357565b60405162461bcd60e51b815260206004820152601060248201526f5374616b65206e6f742061637469766560801b6044820152606490fd5b9190820391821161397757565b6000818152601360209081526040808320546001600160a01b031690613c6f821515613b7b565b9293849390849081808080805b888b526012808b52888c208054831015613e3d57613c9b8389926135d8565b505414613cb15750613cac90613b5f565b613c7c565b96509a5050505050508285528084528582862090613cce916135d8565b5060050154958386528185528083872090613ce8916135d8565b5060040154928487528286528181882090613d02916135d8565b50926001809401549686895281815283838a2090613d1f916135d8565b506003015496895252862090613d34916135d8565b506006015460ff16613d48613d4d92613bbe565b613bfc565b428114613e3657613d5e9042613c3b565b926010548092605a8114600014613dbc575050600382029180830460031490151715613da8575061379c9392613d9c63bbf81e0093613da19360011c905b613964565b0490613b6e565b634e487b7160e01b81526011600452602490fd5b60b48103613df25750508160011b9180830460021490151715613da8575061379c9392613d9c63bbf81e0093613da19390613964565b61016d9194935014613e17575b5061379c9392613d9c63bbf81e0093613da193613964565b6003839293029180830460031490151715613da857509061379c613dff565b5050505090565b50505096509650979350613d4d929150613d4890613bbe565b15613e5d57565b60405162461bcd60e51b815260206004820152600f60248201526e2737ba1039ba30b5b29037bbb732b960891b6044820152606490fd5b60003381526020601a815260018060a01b039060408281852054169283151580614000575b613ec557505050505090565b6064613ed360195488613964565b8654845163a9059cbb60e01b81526001600160a01b03881660048201529290910460248301819052969190859082906044908290869088165af1908115613ff6578291613fd9575b5015613f95577f94ccb86446750660ec532b1beb1fb55f5ba2fffca042c4c53f4c080e72595b389392918186613f8b9352601c8552838120613f5e898254613b6e565b905554168688845192613f7084613676565b6008845267149151915494905360c21b878501528089614686565b519384523393a390565b825162461bcd60e51b815260048101859052601f60248201527f526566657272616c20726577617264207472616e73666572206661696c6564006044820152606490fd5b613ff09150853d8711610550576105428183613692565b38613f1b565b84513d84823e3d90fd5b50838552600c835260ff828620541615613eb9565b600090815b6001600160a01b038216600090815260126020526040902080548210156140c65760066140498360ff936135d8565b5001541661405f5761405a90613b5f565b61401a565b50905060015b15806140a4575b6140735750565b6001600160a01b03166000908152601860205260409020805460ff1916905560165480156139775760001901601655565b506001600160a01b03811660009081526018602052604090205460ff1661406c565b505090614065565b600080546040516370a0823160e01b8152306004820152919392916020916001600160a01b0316908281602481855afa801561420557849187916141d4575b501061418f5760405163a9059cbb60e01b8152336004820152602481018490529082908290604490829089905af1918215614184579061415a9291614162959692614167575b5050613b1b565b600b54613b6e565b600b55565b61417d9250803d10610550576105428183613692565b3880614153565b6040513d87823e3d90fd5b60405162461bcd60e51b815260048101839052601a60248201527f496e73756666696369656e7420746f6b656e2062616c616e63650000000000006044820152606490fd5b809250848092503d83116141fe575b6141ed8183613692565b81010312611a2f578390513861410d565b503d6141e3565b6040513d88823e3d90fd5b600e54600160401b8110156136605760019081810180600e558110156135f4576007600091600e835202918351837fbb7b4a454dc3493923482f07822329ed19e8244eff582cc204f8554c3620c3fd015560c07fbb7b4a454dc3493923482f07822329ed19e8244eff582cc204f8554c3620c4037fbb7b4a454dc3493923482f07822329ed19e8244eff582cc204f8554c3620c3fe85019460018060a01b0360209681888a015116906001600160601b0360a01b91828254161790557fbb7b4a454dc3493923482f07822329ed19e8244eff582cc204f8554c3620c3ff83018260408b015116828254161790557fbb7b4a454dc3493923482f07822329ed19e8244eff582cc204f8554c3620c40083019160608a0151169082541617905560808701517fbb7b4a454dc3493923482f07822329ed19e8244eff582cc204f8554c3620c40182015560a08701517fbb7b4a454dc3493923482f07822329ed19e8244eff582cc204f8554c3620c402820155019401519182519267ffffffffffffffff8411614488576143a1865461360a565b601f8111614442575b508491601f85116001146143e35793945084929190836143d8575b50501b916000199060031b1c1916179055565b0151925038806143c5565b86815285812093958591601f198316915b88838310614428575050501061440f575b505050811b019055565b015160001960f88460031b161c19169055388080614405565b8587015188559096019594850194879350908101906143f4565b868352858320601f860160051c81019187871061447e575b601f0160051c019084905b8281106144735750506143aa565b848155018490614465565b909150819061445a565b634e487b7160e01b82526041600452602482fd5b8054600160401b811015613660576144bb9060019283820181556135d8565b614611578251815560c060068383019260018060a01b03602094818689015116906001600160601b0360a01b9182825416179055600283018260408a015116828254161790556003830191606089015116908254161790556080860151600482015560a08601516005820155019301519081519167ffffffffffffffff831161366057614548855461360a565b601f81116145c8575b5081601f841160011461457f57509282939183926000946143d85750501b916000199060031b1c1916179055565b919083601f1981168760005284600020946000905b888383106145ae575050501061440f57505050811b019055565b858701518855909601959485019487935090810190614594565b6000868152838120601f860160051c810192858710614607575b601f0160051c019186905b8381106145fc57505050614551565b8281550186906145ed565b90925082906145e2565b634e487b7160e01b600052600060045260246000fd5b926136f29491926040519461463b86613644565b42865260018060a01b038091169485602088015260006040880152166060860152608085015260a084015260c0830152600052600d60205261468181604060002061449c565b614210565b926136f295929491936040519561469c87613644565b42875260018060a01b0380809316968760208a0152166040880152166060860152608085015260a084015260c0830152600052600d60205261468181604060002061449c565b67ffffffffffffffff81116136605760051b60200190565b9060405161470781613644565b60c060ff600683958054855260018101546020860152600281015460408601526003810154606086015260048101546080860152600581015460a08601520154161515910152565b6040519061475c82613644565b8160c06000918281528260208201528260408201528260608201528260808201528260a0820152015256fe377aadedb6b2a771959584d10a6a36eccb5f56b4eb3a48525f76108d2660d8d4a26469706673582212201ac3c8d51a758b322d70f8661e1fb61490ab1adaf09d7294e47207952ceb9fb464736f6c63430008130033",
  "linkReferences": {},
  "deployedLinkReferences": {}
}