{
  "_format": "hh-sol-artifact-1",
  "contractName": "TokenICO",
  "sourceName": "contracts/TokenICO.sol",
  "abi": [
    {
      "inputs": [],
      "stateMutability": "nonpayable",
      "type": "constructor"
    },
    {
      "anonymous": false,
      "inputs": [
        {
          "indexed": false,
          "internalType": "uint256",
          "name": "oldAPY",
          "type": "uint256"
        },
        {
          "indexed": false,
          "internalType": "uint256",
          "name": "newAPY",
          "type": "uint256"
        }
      ],
      "name": "APYUpdated",
      "type": "event"
    },
    {
      "anonymous": false,
      "inputs": [
        {
          "indexed": true,
          "internalType": "address",
          "name": "user",
          "type": "address"
        },
        {
          "indexed": false,
          "internalType": "bool",
          "name": "blocked",
          "type": "bool"
        }
      ],
      "name": "AddressBlocked",
      "type": "event"
    },
    {
      "anonymous": false,
      "inputs": [
        {
          "indexed": true,
          "internalType": "address",
          "name": "user",
          "type": "address"
        },
        {
          "indexed": true,
          "internalType": "uint256",
          "name": "stakeId",
          "type": "uint256"
        },
        {
          "indexed": false,
          "internalType": "uint256",
          "name": "amount",
          "type": "uint256"
        },
        {
          "indexed": false,
          "internalType": "uint256",
          "name": "penalty",
          "type": "uint256"
        }
      ],
      "name": "EarlyUnstake",
      "type": "event"
    },
    {
      "anonymous": false,
      "inputs": [
        {
          "indexed": false,
          "internalType": "uint256",
          "name": "oldMinStake",
          "type": "uint256"
        },
        {
          "indexed": false,
          "internalType": "uint256",
          "name": "newMinStake",
          "type": "uint256"
        }
      ],
      "name": "MinStakeUpdated",
      "type": "event"
    },
    {
      "anonymous": false,
      "inputs": [
        {
          "indexed": false,
          "internalType": "string",
          "name": "priceType",
          "type": "string"
        },
        {
          "indexed": false,
          "internalType": "uint256",
          "name": "oldPrice",
          "type": "uint256"
        },
        {
          "indexed": false,
          "internalType": "uint256",
          "name": "newPrice",
          "type": "uint256"
        }
      ],
      "name": "PriceUpdated",
      "type": "event"
    },
    {
      "anonymous": false,
      "inputs": [
        {
          "indexed": false,
          "internalType": "uint256",
          "name": "oldPercentage",
          "type": "uint256"
        },
        {
          "indexed": false,
          "internalType": "uint256",
          "name": "newPercentage",
          "type": "uint256"
        }
      ],
      "name": "ReferralPercentageUpdated",
      "type": "event"
    },
    {
      "anonymous": false,
      "inputs": [
        {
          "indexed": true,
          "internalType": "address",
          "name": "referrer",
          "type": "address"
        },
        {
          "indexed": true,
          "internalType": "address",
          "name": "referee",
          "type": "address"
        }
      ],
      "name": "ReferralRegistered",
      "type": "event"
    },
    {
      "anonymous": false,
      "inputs": [
        {
          "indexed": true,
          "internalType": "address",
          "name": "referrer",
          "type": "address"
        },
        {
          "indexed": true,
          "internalType": "address",
          "name": "referee",
          "type": "address"
        },
        {
          "indexed": false,
          "internalType": "uint256",
          "name": "amount",
          "type": "uint256"
        }
      ],
      "name": "ReferralRewardPaid",
      "type": "event"
    },
    {
      "anonymous": false,
      "inputs": [
        {
          "indexed": true,
          "internalType": "address",
          "name": "user",
          "type": "address"
        },
        {
          "indexed": true,
          "internalType": "uint256",
          "name": "stakeId",
          "type": "uint256"
        },
        {
          "indexed": false,
          "internalType": "uint256",
          "name": "reward",
          "type": "uint256"
        }
      ],
      "name": "RewardHarvested",
      "type": "event"
    },
    {
      "anonymous": false,
      "inputs": [
        {
          "indexed": true,
          "internalType": "address",
          "name": "buyer",
          "type": "address"
        },
        {
          "indexed": true,
          "internalType": "address",
          "name": "stablecoin",
          "type": "address"
        },
        {
          "indexed": false,
          "internalType": "uint256",
          "name": "stablecoinAmount",
          "type": "uint256"
        },
        {
          "indexed": false,
          "internalType": "uint256",
          "name": "bnbPaid",
          "type": "uint256"
        },
        {
          "indexed": false,
          "internalType": "uint256",
          "name": "timestamp",
          "type": "uint256"
        }
      ],
      "name": "StablecoinSold",
      "type": "event"
    },
    {
      "anonymous": false,
      "inputs": [
        {
          "indexed": true,
          "internalType": "address",
          "name": "user",
          "type": "address"
        },
        {
          "indexed": true,
          "internalType": "uint256",
          "name": "stakeId",
          "type": "uint256"
        },
        {
          "indexed": false,
          "internalType": "uint256",
          "name": "amount",
          "type": "uint256"
        },
        {
          "indexed": false,
          "internalType": "uint256",
          "name": "lockPeriod",
          "type": "uint256"
        }
      ],
      "name": "Staked",
      "type": "event"
    },
    {
      "anonymous": false,
      "inputs": [
        {
          "indexed": true,
          "internalType": "address",
          "name": "buyer",
          "type": "address"
        },
        {
          "indexed": true,
          "internalType": "address",
          "name": "paymentMethod",
          "type": "address"
        },
        {
          "indexed": false,
          "internalType": "uint256",
          "name": "amountPaid",
          "type": "uint256"
        },
        {
          "indexed": false,
          "internalType": "uint256",
          "name": "tokensBought",
          "type": "uint256"
        },
        {
          "indexed": false,
          "internalType": "uint256",
          "name": "timestamp",
          "type": "uint256"
        }
      ],
      "name": "TokensPurchased",
      "type": "event"
    },
    {
      "anonymous": false,
      "inputs": [
        {
          "indexed": true,
          "internalType": "address",
          "name": "user",
          "type": "address"
        },
        {
          "indexed": true,
          "internalType": "uint256",
          "name": "stakeId",
          "type": "uint256"
        },
        {
          "indexed": false,
          "internalType": "uint256",
          "name": "amount",
          "type": "uint256"
        }
      ],
      "name": "Unstaked",
      "type": "event"
    },
    {
      "inputs": [],
      "name": "EARLY_WITHDRAWAL_PENALTY_PERCENT",
      "outputs": [
        {
          "internalType": "uint256",
          "name": "",
          "type": "uint256"
        }
      ],
      "stateMutability": "view",
      "type": "function"
    },
    {
      "inputs": [
        {
          "internalType": "uint256",
          "name": "",
          "type": "uint256"
        }
      ],
      "name": "allTransactions",
      "outputs": [
        {
          "internalType": "uint256",
          "name": "timestamp",
          "type": "uint256"
        },
        {
          "internalType": "address",
          "name": "user",
          "type": "address"
        },
        {
          "internalType": "address",
          "name": "tokenIn",
          "type": "address"
        },
        {
          "internalType": "address",
          "name": "tokenOut",
          "type": "address"
        },
        {
          "internalType": "uint256",
          "name": "amountIn",
          "type": "uint256"
        },
        {
          "internalType": "uint256",
          "name": "amountOut",
          "type": "uint256"
        },
        {
          "internalType": "string",
          "name": "transactionType",
          "type": "string"
        }
      ],
      "stateMutability": "view",
      "type": "function"
    },
    {
      "inputs": [],
      "name": "baseAPY",
      "outputs": [
        {
          "internalType": "uint256",
          "name": "",
          "type": "uint256"
        }
      ],
      "stateMutability": "view",
      "type": "function"
    },
    {
      "inputs": [
        {
          "internalType": "address",
          "name": "",
          "type": "address"
        }
      ],
      "name": "blockedAddresses",
      "outputs": [
        {
          "internalType": "bool",
          "name": "",
          "type": "bool"
        }
      ],
      "stateMutability": "view",
      "type": "function"
    },
    {
      "inputs": [],
      "name": "bnbPriceForStablecoin",
      "outputs": [
        {
          "internalType": "uint256",
          "name": "",
          "type": "uint256"
        }
      ],
      "stateMutability": "view",
      "type": "function"
    },
    {
      "inputs": [],
      "name": "bnbPriceForToken",
      "outputs": [
        {
          "internalType": "uint256",
          "name": "",
          "type": "uint256"
        }
      ],
      "stateMutability": "view",
      "type": "function"
    },
    {
      "inputs": [],
      "name": "buyUSDC",
      "outputs": [],
      "stateMutability": "payable",
      "type": "function"
    },
    {
      "inputs": [],
      "name": "buyUSDT",
      "outputs": [],
      "stateMutability": "payable",
      "type": "function"
    },
    {
      "inputs": [],
      "name": "buyWithBNB",
      "outputs": [],
      "stateMutability": "payable",
      "type": "function"
    },
    {
      "inputs": [
        {
          "internalType": "uint256",
          "name": "ethAmount",
          "type": "uint256"
        }
      ],
      "name": "buyWithETH",
      "outputs": [],
      "stateMutability": "nonpayable",
      "type": "function"
    },
    {
      "inputs": [
        {
          "internalType": "uint256",
          "name": "solAmount",
          "type": "uint256"
        }
      ],
      "name": "buyWithSOL",
      "outputs": [],
      "stateMutability": "nonpayable",
      "type": "function"
    },
    {
      "inputs": [
        {
          "internalType": "uint256",
          "name": "usdcAmount",
          "type": "uint256"
        }
      ],
      "name": "buyWithUSDC",
      "outputs": [],
      "stateMutability": "nonpayable",
      "type": "function"
    },
    {
      "inputs": [
        {
          "internalType": "uint256",
          "name": "usdtAmount",
          "type": "uint256"
        }
      ],
      "name": "buyWithUSDT",
      "outputs": [],
      "stateMutability": "nonpayable",
      "type": "function"
    },
    {
      "inputs": [
        {
          "internalType": "uint256",
          "name": "stakeId",
          "type": "uint256"
        }
      ],
      "name": "calculateRewards",
      "outputs": [
        {
          "internalType": "uint256",
          "name": "",
          "type": "uint256"
        }
      ],
      "stateMutability": "view",
      "type": "function"
    },
    {
      "inputs": [],
      "name": "ethAddress",
      "outputs": [
        {
          "internalType": "address",
          "name": "",
          "type": "address"
        }
      ],
      "stateMutability": "view",
      "type": "function"
    },
    {
      "inputs": [],
      "name": "ethRatio",
      "outputs": [
        {
          "internalType": "uint256",
          "name": "",
          "type": "uint256"
        }
      ],
      "stateMutability": "view",
      "type": "function"
    },
    {
      "inputs": [],
      "name": "getAllTransactions",
      "outputs": [
        {
          "components": [
            {
              "internalType": "uint256",
              "name": "timestamp",
              "type": "uint256"
            },
            {
              "internalType": "address",
              "name": "user",
              "type": "address"
            },
            {
              "internalType": "address",
              "name": "tokenIn",
              "type": "address"
            },
            {
              "internalType": "address",
              "name": "tokenOut",
              "type": "address"
            },
            {
              "internalType": "uint256",
              "name": "amountIn",
              "type": "uint256"
            },
            {
              "internalType": "uint256",
              "name": "amountOut",
              "type": "uint256"
            },
            {
              "internalType": "string",
              "name": "transactionType",
              "type": "string"
            }
          ],
          "internalType": "struct TokenICO.Transaction[]",
          "name": "",
          "type": "tuple[]"
        }
      ],
      "stateMutability": "view",
      "type": "function"
    },
    {
      "inputs": [],
      "name": "getContractInfo",
      "outputs": [
        {
          "internalType": "address",
          "name": "tokenAddress",
          "type": "address"
        },
        {
          "internalType": "uint256",
          "name": "tokenBalance",
          "type": "uint256"
        },
        {
          "internalType": "uint256",
          "name": "bnbPrice",
          "type": "uint256"
        },
        {
          "internalType": "uint256",
          "name": "stablecoinPrice",
          "type": "uint256"
        },
        {
          "internalType": "uint256",
          "name": "totalSold",
          "type": "uint256"
        },
        {
          "internalType": "address",
          "name": "usdtAddr",
          "type": "address"
        },
        {
          "internalType": "address",
          "name": "usdcAddr",
          "type": "address"
        },
        {
          "internalType": "uint256",
          "name": "usdtTokenRatio",
          "type": "uint256"
        },
        {
          "internalType": "uint256",
          "name": "usdcTokenRatio",
          "type": "uint256"
        }
      ],
      "stateMutability": "view",
      "type": "function"
    },
    {
      "inputs": [
        {
          "internalType": "address",
          "name": "user",
          "type": "address"
        }
      ],
      "name": "getReferralInfo",
      "outputs": [
        {
          "internalType": "address",
          "name": "referrer",
          "type": "address"
        },
        {
          "internalType": "uint256",
          "name": "totalReferrals",
          "type": "uint256"
        },
        {
          "internalType": "uint256",
          "name": "totalRewardsEarned",
          "type": "uint256"
        },
        {
          "internalType": "uint256",
          "name": "rewardPercentage",
          "type": "uint256"
        }
      ],
      "stateMutability": "view",
      "type": "function"
    },
    {
      "inputs": [
        {
          "internalType": "uint256",
          "name": "stakeId",
          "type": "uint256"
        }
      ],
      "name": "getStakeDetails",
      "outputs": [
        {
          "internalType": "uint256",
          "name": "lockPeriod",
          "type": "uint256"
        },
        {
          "internalType": "uint256",
          "name": "pendingRewards",
          "type": "uint256"
        },
        {
          "internalType": "bool",
          "name": "active",
          "type": "bool"
        }
      ],
      "stateMutability": "view",
      "type": "function"
    },
    {
      "inputs": [
        {
          "internalType": "uint256",
          "name": "stakeId",
          "type": "uint256"
        }
      ],
      "name": "getStakeInfo",
      "outputs": [
        {
          "internalType": "uint256",
          "name": "id",
          "type": "uint256"
        },
        {
          "internalType": "address",
          "name": "stakeOwnerAddr",
          "type": "address"
        },
        {
          "internalType": "uint256",
          "name": "amount",
          "type": "uint256"
        },
        {
          "internalType": "uint256",
          "name": "startTime",
          "type": "uint256"
        }
      ],
      "stateMutability": "view",
      "type": "function"
    },
    {
      "inputs": [],
      "name": "getStakingInfo",
      "outputs": [
        {
          "internalType": "uint256",
          "name": "baseApyRate",
          "type": "uint256"
        },
        {
          "internalType": "uint256",
          "name": "minStakingAmount",
          "type": "uint256"
        },
        {
          "internalType": "uint256",
          "name": "totalTokensStaked",
          "type": "uint256"
        },
        {
          "internalType": "uint256",
          "name": "totalRewardsPaid",
          "type": "uint256"
        },
        {
          "internalType": "uint256",
          "name": "numberOfStakers",
          "type": "uint256"
        }
      ],
      "stateMutability": "view",
      "type": "function"
    },
    {
      "inputs": [],
      "name": "getTokenBalances",
      "outputs": [
        {
          "internalType": "uint256",
          "name": "tokenBalance",
          "type": "uint256"
        },
        {
          "internalType": "uint256",
          "name": "usdtBalance",
          "type": "uint256"
        },
        {
          "internalType": "uint256",
          "name": "usdcBalance",
          "type": "uint256"
        }
      ],
      "stateMutability": "view",
      "type": "function"
    },
    {
      "inputs": [],
      "name": "getTotalPenaltyCollected",
      "outputs": [
        {
          "internalType": "uint256",
          "name": "",
          "type": "uint256"
        }
      ],
      "stateMutability": "view",
      "type": "function"
    },
    {
      "inputs": [
        {
          "internalType": "address",
          "name": "referrer",
          "type": "address"
        }
      ],
      "name": "getUserReferrals",
      "outputs": [
        {
          "internalType": "address[]",
          "name": "",
          "type": "address[]"
        }
      ],
      "stateMutability": "view",
      "type": "function"
    },
    {
      "inputs": [
        {
          "internalType": "address",
          "name": "user",
          "type": "address"
        }
      ],
      "name": "getUserStakes",
      "outputs": [
        {
          "components": [
            {
              "internalType": "uint256",
              "name": "id",
              "type": "uint256"
            },
            {
              "internalType": "uint256",
              "name": "amount",
              "type": "uint256"
            },
            {
              "internalType": "uint256",
              "name": "startTime",
              "type": "uint256"
            },
            {
              "internalType": "uint256",
              "name": "lockPeriod",
              "type": "uint256"
            },
            {
              "internalType": "uint256",
              "name": "lastRewardCalculation",
              "type": "uint256"
            },
            {
              "internalType": "uint256",
              "name": "pendingRewards",
              "type": "uint256"
            },
            {
              "internalType": "bool",
              "name": "active",
              "type": "bool"
            }
          ],
          "internalType": "struct TokenICO.Stake[]",
          "name": "",
          "type": "tuple[]"
        }
      ],
      "stateMutability": "view",
      "type": "function"
    },
    {
      "inputs": [
        {
          "internalType": "address",
          "name": "user",
          "type": "address"
        }
      ],
      "name": "getUserStakingInfo",
      "outputs": [
        {
          "internalType": "uint256",
          "name": "totalUserStaked",
          "type": "uint256"
        },
        {
          "internalType": "uint256",
          "name": "totalPendingRewards",
          "type": "uint256"
        },
        {
          "internalType": "uint256",
          "name": "activeStakesCount",
          "type": "uint256"
        }
      ],
      "stateMutability": "view",
      "type": "function"
    },
    {
      "inputs": [
        {
          "internalType": "address",
          "name": "user",
          "type": "address"
        }
      ],
      "name": "getUserTransactions",
      "outputs": [
        {
          "components": [
            {
              "internalType": "uint256",
              "name": "timestamp",
              "type": "uint256"
            },
            {
              "internalType": "address",
              "name": "user",
              "type": "address"
            },
            {
              "internalType": "address",
              "name": "tokenIn",
              "type": "address"
            },
            {
              "internalType": "address",
              "name": "tokenOut",
              "type": "address"
            },
            {
              "internalType": "uint256",
              "name": "amountIn",
              "type": "uint256"
            },
            {
              "internalType": "uint256",
              "name": "amountOut",
              "type": "uint256"
            },
            {
              "internalType": "string",
              "name": "transactionType",
              "type": "string"
            }
          ],
          "internalType": "struct TokenICO.Transaction[]",
          "name": "",
          "type": "tuple[]"
        }
      ],
      "stateMutability": "view",
      "type": "function"
    },
    {
      "inputs": [
        {
          "internalType": "uint256",
          "name": "stakeId",
          "type": "uint256"
        }
      ],
      "name": "harvestRewards",
      "outputs": [],
      "stateMutability": "nonpayable",
      "type": "function"
    },
    {
      "inputs": [
        {
          "internalType": "address",
          "name": "",
          "type": "address"
        }
      ],
      "name": "hasStaked",
      "outputs": [
        {
          "internalType": "bool",
          "name": "",
          "type": "bool"
        }
      ],
      "stateMutability": "view",
      "type": "function"
    },
    {
      "inputs": [],
      "name": "minStakeAmount",
      "outputs": [
        {
          "internalType": "uint256",
          "name": "",
          "type": "uint256"
        }
      ],
      "stateMutability": "view",
      "type": "function"
    },
    {
      "inputs": [],
      "name": "nextStakeId",
      "outputs": [
        {
          "internalType": "uint256",
          "name": "",
          "type": "uint256"
        }
      ],
      "stateMutability": "view",
      "type": "function"
    },
    {
      "inputs": [],
      "name": "owner",
      "outputs": [
        {
          "internalType": "address",
          "name": "",
          "type": "address"
        }
      ],
      "stateMutability": "view",
      "type": "function"
    },
    {
      "inputs": [],
      "name": "referralRewardPercentage",
      "outputs": [
        {
          "internalType": "uint256",
          "name": "",
          "type": "uint256"
        }
      ],
      "stateMutability": "view",
      "type": "function"
    },
    {
      "inputs": [
        {
          "internalType": "address",
          "name": "",
          "type": "address"
        }
      ],
      "name": "referralRewards",
      "outputs": [
        {
          "internalType": "uint256",
          "name": "",
          "type": "uint256"
        }
      ],
      "stateMutability": "view",
      "type": "function"
    },
    {
      "inputs": [
        {
          "internalType": "address",
          "name": "",
          "type": "address"
        },
        {
          "internalType": "uint256",
          "name": "",
          "type": "uint256"
        }
      ],
      "name": "referrals",
      "outputs": [
        {
          "internalType": "address",
          "name": "",
          "type": "address"
        }
      ],
      "stateMutability": "view",
      "type": "function"
    },
    {
      "inputs": [
        {
          "internalType": "address",
          "name": "",
          "type": "address"
        }
      ],
      "name": "referrers",
      "outputs": [
        {
          "internalType": "address",
          "name": "",
          "type": "address"
        }
      ],
      "stateMutability": "view",
      "type": "function"
    },
    {
      "inputs": [
        {
          "internalType": "address",
          "name": "referrer",
          "type": "address"
        }
      ],
      "name": "registerReferrer",
      "outputs": [],
      "stateMutability": "nonpayable",
      "type": "function"
    },
    {
      "inputs": [],
      "name": "saleToken",
      "outputs": [
        {
          "internalType": "address",
          "name": "",
          "type": "address"
        }
      ],
      "stateMutability": "view",
      "type": "function"
    },
    {
      "inputs": [
        {
          "internalType": "address",
          "name": "user",
          "type": "address"
        },
        {
          "internalType": "bool",
          "name": "blocked",
          "type": "bool"
        }
      ],
      "name": "setBlockStatus",
      "outputs": [],
      "stateMutability": "nonpayable",
      "type": "function"
    },
    {
      "inputs": [
        {
          "internalType": "address",
          "name": "_token",
          "type": "address"
        }
      ],
      "name": "setSaleToken",
      "outputs": [],
      "stateMutability": "nonpayable",
      "type": "function"
    },
    {
      "inputs": [],
      "name": "solAddress",
      "outputs": [
        {
          "internalType": "address",
          "name": "",
          "type": "address"
        }
      ],
      "stateMutability": "view",
      "type": "function"
    },
    {
      "inputs": [],
      "name": "solRatio",
      "outputs": [
        {
          "internalType": "uint256",
          "name": "",
          "type": "uint256"
        }
      ],
      "stateMutability": "view",
      "type": "function"
    },
    {
      "inputs": [
        {
          "internalType": "uint256",
          "name": "",
          "type": "uint256"
        }
      ],
      "name": "stakeOwners",
      "outputs": [
        {
          "internalType": "address",
          "name": "",
          "type": "address"
        }
      ],
      "stateMutability": "view",
      "type": "function"
    },
    {
      "inputs": [
        {
          "internalType": "uint256",
          "name": "amount",
          "type": "uint256"
        },
        {
          "internalType": "uint256",
          "name": "lockPeriodDays",
          "type": "uint256"
        }
      ],
      "name": "stakeTokens",
      "outputs": [],
      "stateMutability": "nonpayable",
      "type": "function"
    },
    {
      "inputs": [],
      "name": "tokensSold",
      "outputs": [
        {
          "internalType": "uint256",
          "name": "",
          "type": "uint256"
        }
      ],
      "stateMutability": "view",
      "type": "function"
    },
    {
      "inputs": [],
      "name": "totalPenaltyCollected",
      "outputs": [
        {
          "internalType": "uint256",
          "name": "",
          "type": "uint256"
        }
      ],
      "stateMutability": "view",
      "type": "function"
    },
    {
      "inputs": [],
      "name": "totalRewardsDistributed",
      "outputs": [
        {
          "internalType": "uint256",
          "name": "",
          "type": "uint256"
        }
      ],
      "stateMutability": "view",
      "type": "function"
    },
    {
      "inputs": [],
      "name": "totalStaked",
      "outputs": [
        {
          "internalType": "uint256",
          "name": "",
          "type": "uint256"
        }
      ],
      "stateMutability": "view",
      "type": "function"
    },
    {
      "inputs": [],
      "name": "totalStakers",
      "outputs": [
        {
          "internalType": "uint256",
          "name": "",
          "type": "uint256"
        }
      ],
      "stateMutability": "view",
      "type": "function"
    },
    {
      "inputs": [
        {
          "internalType": "uint256",
          "name": "stakeId",
          "type": "uint256"
        }
      ],
      "name": "unstakeEarly",
      "outputs": [],
      "stateMutability": "nonpayable",
      "type": "function"
    },
    {
      "inputs": [
        {
          "internalType": "uint256",
          "name": "stakeId",
          "type": "uint256"
        }
      ],
      "name": "unstakeTokens",
      "outputs": [],
      "stateMutability": "nonpayable",
      "type": "function"
    },
    {
      "inputs": [
        {
          "internalType": "uint256",
          "name": "newAPY",
          "type": "uint256"
        }
      ],
      "name": "updateBaseAPY",
      "outputs": [],
      "stateMutability": "nonpayable",
      "type": "function"
    },
    {
      "inputs": [
        {
          "internalType": "address",
          "name": "newAddress",
          "type": "address"
        },
        {
          "internalType": "uint256",
          "name": "newRatio",
          "type": "uint256"
        }
      ],
      "name": "updateETH",
      "outputs": [],
      "stateMutability": "nonpayable",
      "type": "function"
    },
    {
      "inputs": [
        {
          "internalType": "uint256",
          "name": "newMinAmount",
          "type": "uint256"
        }
      ],
      "name": "updateMinStakeAmount",
      "outputs": [],
      "stateMutability": "nonpayable",
      "type": "function"
    },
    {
      "inputs": [
        {
          "internalType": "uint256",
          "name": "newPercentage",
          "type": "uint256"
        }
      ],
      "name": "updateReferralPercentage",
      "outputs": [],
      "stateMutability": "nonpayable",
      "type": "function"
    },
    {
      "inputs": [
        {
          "internalType": "address",
          "name": "newAddress",
          "type": "address"
        },
        {
          "internalType": "uint256",
          "name": "newRatio",
          "type": "uint256"
        }
      ],
      "name": "updateSOL",
      "outputs": [],
      "stateMutability": "nonpayable",
      "type": "function"
    },
    {
      "inputs": [
        {
          "internalType": "uint256",
          "name": "newPrice",
          "type": "uint256"
        }
      ],
      "name": "updateStablecoinPrice",
      "outputs": [],
      "stateMutability": "nonpayable",
      "type": "function"
    },
    {
      "inputs": [
        {
          "internalType": "uint256",
          "name": "newPrice",
          "type": "uint256"
        }
      ],
      "name": "updateTokenPrice",
      "outputs": [],
      "stateMutability": "nonpayable",
      "type": "function"
    },
    {
      "inputs": [
        {
          "internalType": "address",
          "name": "newAddress",
          "type": "address"
        },
        {
          "internalType": "uint256",
          "name": "newRatio",
          "type": "uint256"
        }
      ],
      "name": "updateUSDC",
      "outputs": [],
      "stateMutability": "nonpayable",
      "type": "function"
    },
    {
      "inputs": [
        {
          "internalType": "address",
          "name": "newAddress",
          "type": "address"
        },
        {
          "internalType": "uint256",
          "name": "newRatio",
          "type": "uint256"
        }
      ],
      "name": "updateUSDT",
      "outputs": [],
      "stateMutability": "nonpayable",
      "type": "function"
    },
    {
      "inputs": [],
      "name": "usdcAddress",
      "outputs": [
        {
          "internalType": "address",
          "name": "",
          "type": "address"
        }
      ],
      "stateMutability": "view",
      "type": "function"
    },
    {
      "inputs": [],
      "name": "usdcRatio",
      "outputs": [
        {
          "internalType": "uint256",
          "name": "",
          "type": "uint256"
        }
      ],
      "stateMutability": "view",
      "type": "function"
    },
    {
      "inputs": [],
      "name": "usdtAddress",
      "outputs": [
        {
          "internalType": "address",
          "name": "",
          "type": "address"
        }
      ],
      "stateMutability": "view",
      "type": "function"
    },
    {
      "inputs": [],
      "name": "usdtRatio",
      "outputs": [
        {
          "internalType": "uint256",
          "name": "",
          "type": "uint256"
        }
      ],
      "stateMutability": "view",
      "type": "function"
    },
    {
      "inputs": [
        {
          "internalType": "address",
          "name": "",
          "type": "address"
        },
        {
          "internalType": "uint256",
          "name": "",
          "type": "uint256"
        }
      ],
      "name": "userStakes",
      "outputs": [
        {
          "internalType": "uint256",
          "name": "id",
          "type": "uint256"
        },
        {
          "internalType": "uint256",
          "name": "amount",
          "type": "uint256"
        },
        {
          "internalType": "uint256",
          "name": "startTime",
          "type": "uint256"
        },
        {
          "internalType": "uint256",
          "name": "lockPeriod",
          "type": "uint256"
        },
        {
          "internalType": "uint256",
          "name": "lastRewardCalculation",
          "type": "uint256"
        },
        {
          "internalType": "uint256",
          "name": "pendingRewards",
          "type": "uint256"
        },
        {
          "internalType": "bool",
          "name": "active",
          "type": "bool"
        }
      ],
      "stateMutability": "view",
      "type": "function"
    },
    {
      "inputs": [
        {
          "internalType": "address",
          "name": "",
          "type": "address"
        },
        {
          "internalType": "uint256",
          "name": "",
          "type": "uint256"
        }
      ],
      "name": "userTransactions",
      "outputs": [
        {
          "internalType": "uint256",
          "name": "timestamp",
          "type": "uint256"
        },
        {
          "internalType": "address",
          "name": "user",
          "type": "address"
        },
        {
          "internalType": "address",
          "name": "tokenIn",
          "type": "address"
        },
        {
          "internalType": "address",
          "name": "tokenOut",
          "type": "address"
        },
        {
          "internalType": "uint256",
          "name": "amountIn",
          "type": "uint256"
        },
        {
          "internalType": "uint256",
          "name": "amountOut",
          "type": "uint256"
        },
        {
          "internalType": "string",
          "name": "transactionType",
          "type": "string"
        }
      ],
      "stateMutability": "view",
      "type": "function"
    },
    {
      "inputs": [
        {
          "internalType": "address",
          "name": "_token",
          "type": "address"
        },
        {
          "internalType": "uint256",
          "name": "_amount",
          "type": "uint256"
        }
      ],
      "name": "withdrawTokens",
      "outputs": [],
      "stateMutability": "nonpayable",
      "type": "function"
    }
  ],
  "bytecode": "0x60a080604052346100e75766038d7ea4c6800080600555600655600c60105568056bc75e2d6310000060115560016017556005601955336080526014600755601460085560146009556014600a5561494490816100ed82396080518181816103fa015281816106d8015281816107c701528181610bc401528181610cd601528181610e9901528181610f95015281816114fe0152818161168a01528181611a4301528181611b5301528181611c1b01528181612075015281816125190152818161267501528181612ed7015281816130e60152818161317a0152818161325b015261339c0152f35b600080fdfe6080604081815260048036101561001557600080fd5b60009260e08435811c91826302d454571461354b5750816306b091f91461337b57816309813482146132ab578163182a676b146131f95781631ce24e16146131d15781631e37c6061461314d57816320f1fc6114613048578163214405a91461302857816321874ae214612fc7578163251545da14612dc757816327506f5314612ce75781632bb38809146125fe5781632fd04c08146129b85781633b7b6188146126cc5781633e4e64531461264857816341398b151461261e578163491cc756146125fe5781634a3b68cc146125c25781634cdb312d146124fd5781634f93208a146124be578163518ab2a81461249e57816353aaa63b1461246557816357126d0d14612236578163575cea6b1461218b5781635b36504014611f65578163608e4dd014611c8957816363219c7214611bdc57816364f1d11314611bbc578163676c0d7714611b145781636f43f37314611af457816371d20fe714611a2757816375506c9614611a075781637a9773dc146119e75781637cc1f867146119045781638093360814611821578163817b1cd21461180157816383fabe03146117e1578163842e2981146116d957816386989038146116b95781638da5cb5b14611674578163920a253e1461165457816394dc9cf31461144c578163963c9dd3146113715781639ab4a445146113475781639c0fbd051461132a5781639ea7685a14611170578163a0b3b93014611150578163a1dc903114610fda578163a29f481c14610f6c578163a7c6016014610dde578163aeccf73514610c1b578163b006984f14610b97578163b40cd21d14610b55578163b5d5b5fa14610ac257508063b842ec4414610a44578063bc5894ba14610a25578063c93c8f34146109e7578063d3ea4350146109c0578063d7ff071414610878578063d8060cd5146107ac578063e697b5d814610753578063e985e3671461072b578063ebcd3a13146106ab578063ee1725461461068c578063ef925399146105ae578063f18876841461058b578063f30ef2e5146103465763fd9a11e51461031157600080fd5b346103425760203660031901126103425735825260136020908152918190205490516001600160a01b039091168152f35b8280fd5b50346103425760208060031936011261058757813590338552600c815261037360ff85872054161561394c565b811561037f8115613af4565b85546001600160a01b03929061039890841615156139c9565b82855416801561054f57633b9aca00928386029386850414171561053c576103c2600a5486613a0a565b92670de0b6b3a7640000938481029481860414901517156105295787516323b872dd60e01b8152338882019081526001600160a01b037f0000000000000000000000000000000000000000000000000000000000000000166020820152604081019290925291839183919082908c90829060600103925af190811561051f5788916104f2575b50156104ba5750916104b49161046c6000805160206148ef83398151915294613ffb565b9461047686614235565b610492828254168785858c541661048b613ad5565b93336147ed565b5416945191829133954291846040919493926060820195825260208201520152565b0390a380f35b8460649187519162461bcd60e51b8352820152601360248201527214d3d3081d1c985b9cd9995c8819985a5b1959606a1b6044820152fd5b6105129150823d8411610518575b61050a8183613738565b810190613b82565b38610448565b503d610500565b87513d8a823e3d90fd5b634e487b7160e01b895260118752602489fd5b634e487b7160e01b885260118652602488fd5b865162461bcd60e51b8152808701839052601260248201527114d3d3081b9bdd0818dbdb999a59dd5c995960721b6044820152606490fd5b8380fd5b5050346105aa57816003193601126105aa576020906011549051908152f35b5080fd5b508290346105aa5760209182600319360112610689576001600160a01b0392836105d6613570565b168252600d8152848220918254936105ed85614849565b956105fa88519788613738565b85875283870194835283832092945b8686106106215788518061061d8a826135cb565b0390f35b6007856001928b51610632816136ea565b8754815285858901541683820152856002890154168d820152856003890154166060820152868801546080820152600588015460a08201526106766006890161375a565b60c0820152815201940195019492610609565b80fd5b5050346105aa57816003193601126105aa576020906015549051908152f35b509034610342573660031901126105aa576106c4613570565b60243591906001600160a01b03906106ff337f000000000000000000000000000000000000000000000000000000000000000084161461385d565b1661070b8115156138d2565b610716831515613910565b81546001600160a01b031916179055600a5580f35b5050346105aa57816003193601126105aa57905490516001600160a01b039091168152602090f35b5050346105aa57806003193601126105aa5761076d613570565b6001600160a01b039081168352601b60205281832080546024359490851015610689575060209361079d91613845565b92905490519260031b1c168152f35b5034610342576020366003190112610342578035906107f5337f00000000000000000000000000000000000000000000000000000000000000006001600160a01b03161461385d565b81156108355750907f171aabb8815c02fd00303450a77058600e3661eb75ce2e77972c0f080bc7099d91601154908060115582519182526020820152a180f35b606490602084519162461bcd60e51b8352820152602060248201527f4d696e207374616b65206d7573742062652067726561746572207468616e20306044820152fd5b50346103425760203660031901126103425735600e5481101561034257600e6007929352029061061d827fbb7b4a454dc3493923482f07822329ed19e8244eff582cc204f8554c3620c3fd01549160018060a01b0393847fbb7b4a454dc3493923482f07822329ed19e8244eff582cc204f8554c3620c3fe8201541694807fbb7b4a454dc3493923482f07822329ed19e8244eff582cc204f8554c3620c3ff83015416907fbb7b4a454dc3493923482f07822329ed19e8244eff582cc204f8554c3620c400830154167fbb7b4a454dc3493923482f07822329ed19e8244eff582cc204f8554c3620c401830154916109b57fbb7b4a454dc3493923482f07822329ed19e8244eff582cc204f8554c3620c4037fbb7b4a454dc3493923482f07822329ed19e8244eff582cc204f8554c3620c402860154950161375a565b945197889788613800565b50913461068957602036600319011261068957506109e060209235613daf565b9051908152f35b5050346105aa5760203660031901126105aa5760209160ff9082906001600160a01b03610a12613570565b1681526018855220541690519015158152f35b5050346105aa57816003193601126105aa576020906009549051908152f35b509190346105aa57806003193601126105aa57610a5f613570565b6001600160a01b039081168352600d6020528183208054919360243592831015610689575061061d9291610a929161367e565b508054938060018301541695816002840154169160038401541690830154916109b560066005860154950161375a565b93905034610689578260031936011261068957610add613570565b6001600160a01b03168152601260205282812080546024359290831015610689575090610b099161367e565b5080549260018201549260028301546003840154918401549260ff600660058701549601541695815197885260208801528601526060850152608084015260a0830152151560c0820152f35b505050346105aa57816003193601126105aa5760a090601054906011549060145460155491601654938151958652602086015284015260608301526080820152f35b505050346105aa5736600319011261068957610bb1613570565b602435906001600160a01b0390610beb337f000000000000000000000000000000000000000000000000000000000000000084161461385d565b16610bf78115156138d2565b610c02821515613910565b6001600160601b0360a01b600154161760015560075580f35b50503461034257602036600319011261034257803590338452600c602052610c4960ff84862054161561394c565b811591610c568315613af4565b84546001600160a01b039390610c6f90851615156139c9565b8360025416610c7f811515613bdd565b620f42409182840292848404141715610dcb57610c9e60085484613a0a565b93670de0b6b3a764000094858102958187041490151715610db85786516323b872dd60e01b8152339181019182526001600160a01b037f0000000000000000000000000000000000000000000000000000000000000000166020838101919091526040830194909452939291849182908a90829060600103925af18015610dae576000805160206148ef83398151915293610d47610d4c926104b4958a91610d90575b50613c1f565b613ffb565b93610d5685614235565b610d6c81600254168684848b541661048b613ad5565b60025416945191829133954291846040919493926060820195825260208201520152565b610da8915060203d81116105185761050a8183613738565b38610d41565b85513d88823e3d90fd5b634e487b7160e01b885260119052602487fd5b634e487b7160e01b875260118452602487fd5b50503461034257602036600319011261034257803590338452600c602052610e0c60ff84862054161561394c565b811591610e198315613af4565b84546001600160a01b039390610e3290851615156139c9565b8360015416610e42811515613b40565b620f42409182840292848404141715610dcb57610e6160075484613a0a565b93670de0b6b3a764000094858102958187041490151715610db85786516323b872dd60e01b8152339181019182526001600160a01b037f0000000000000000000000000000000000000000000000000000000000000000166020838101919091526040830194909452939291849182908a90829060600103925af18015610dae576000805160206148ef83398151915293610d47610f0a926104b4958a91610f4e575b50613b9a565b93610f1485614235565b610f2a81600154168684848b541661048b613ad5565b60015416945191829133954291846040919493926060820195825260208201520152565b610f66915060203d81116105185761050a8183613738565b38610f04565b843461068957602036600319011261068957610f86613570565b6001600160a01b0390610fbc337f000000000000000000000000000000000000000000000000000000000000000084161461385d565b16610fc88115156138d2565b81546001600160a01b03191617815580f35b50509034610342578260031936011261034257825481516370a0823160e01b808252308286015290946001600160a01b03946020938490889060249082908a165afa958615611146578296611116575b602497508481600154168751998a809288825230878301525afa97881561110c5783986110dc575b509060248592600254169487519586938492835230908301525afa9283156110d057819361109d575b50505061061d9151938493846040919493926060820195825260208201520152565b9091809350813d83116110c9575b6110b58183613738565b8101031261068957505161061d388061107b565b503d6110ab565b508351903d90823e3d90fd5b9097508481813d8311611105575b6110f48183613738565b810103126103425751966024611052565b503d6110ea565b86513d85823e3d90fd5b95508387813d831161113f575b61112d8183613738565b810103126105aa57602496519561102a565b503d611123565b85513d84823e3d90fd5b505050346105aa57816003193601126105aa576020906005549051908152f35b828585346105aa57602090816003193601126103425761118e613570565b90338452600c83526111a660ff82862054161561394c565b6001600160a01b039182169283156112e8573384146112ae57338552601a815282828620541661126157338552601a815281852080546001600160a01b03191685179055838552601b90528320805490600160401b82101561124e579061121291600182018155613845565b819291549060031b9133831b921b191617905533907f5f1ca2fcc108b751843a763e60d2201f593516109d7dbb1b700468f2d4190bb78380a380f35b634e487b7160e01b855260418652602485fd5b8590608492519162461bcd60e51b8352820152602260248201527f416c72656164792072656769737465726564207769746820612072656665727260448201526132b960f11b6064820152fd5b8590606492519162461bcd60e51b8352820152601560248201527421b0b73737ba103932b332b9103cb7bab939b2b63360591b6044820152fd5b8590606492519162461bcd60e51b8352820152601860248201527f496e76616c6964207265666572726572206164647265737300000000000000006044820152fd5b505050346105aa57816003193601126105aa576020905160058152f35b505050346105aa57816003193601126105aa5760015490516001600160a01b039091168152602090f35b5050346103425760209081600319360112610587573580845260138252828420546001600160a01b0316939092906113aa851515613ce2565b6113b26148b6565b8195825b81845260128087528585208054831015611437576113d5838a9261367e565b5054146113eb57506113e690613cc6565b6113b6565b6060985061140e93508486916114089461141e975288522061367e565b50614861565b936114196001613d25565b613daf565b60c0858501519401511515928251948552840152820152f35b505050509361141e9150611419606096613d25565b505034610342576020908160031936011261058757803590338552600c835261147b60ff85872054161561394c565b8115906114888215613af4565b85546001600160a01b0394906114a190861615156139c9565b8460035416801561161c57670de0b6b3a7640000938486029086820486141715611609576114d160095487613a0a565b8581029581870414901517156116095787516323b872dd60e01b8152338582019081526001600160a01b037f0000000000000000000000000000000000000000000000000000000000000000166020820152604081019290925291839183919082908c90829060600103925af190811561051f5788916115ec575b50156115b45750506000805160206148ef833981519152916115706104b492613ffb565b9361157a85614235565b61159081600354168684848b541661048b613ad5565b60035416945191829133954291846040919493926060820195825260208201520152565b855162461bcd60e51b8152918201526013602482015272115512081d1c985b9cd9995c8819985a5b1959606a1b604482015260649150fd5b6116039150823d84116105185761050a8183613738565b3861154c565b634e487b7160e01b895260118452602489fd5b865162461bcd60e51b81528084018390526012602482015271115512081b9bdd0818dbdb999a59dd5c995960721b6044820152606490fd5b505050346105aa57816003193601126105aa576020906019549051908152f35b505050346105aa57816003193601126105aa57517f00000000000000000000000000000000000000000000000000000000000000006001600160a01b03168152602090f35b505050346105aa57816003193601126105aa576020906016549051908152f35b91505034610342576020806003193601126105875790916001600160a01b03611700613570565b168452601282528084209182549161171783614849565b9261172482519485613738565b8084528284018095885283882088915b8383106117b4575050505080519482860193838752518094528186019496915b8483106117615786860387f35b87518051875280850151878601528082015187830152606080820151908801526080808201519088015260a0808201519088015260c0908101511515908701529683019694810194600190920191611754565b6007866001926117cb859d999a9b9d9c989c614861565b8152019201920191909896959498979397611734565b505050346105aa57816003193601126105aa576020906007549051908152f35b505050346105aa57816003193601126105aa576020906014549051908152f35b83853461068957602090816003193601126106895761183e613570565b9091829182919082906001600160a01b0316815b818652601280855288872080548310156118ec5760ff6006611875858d9461367e565b5001541661188e575b505061188990613cc6565b611852565b8296946118bc839a60016118b3611889976118de968e6118e4998e8d8352522061367e565b50015490613cd5565b99858a5287526118d86118d1898d8c2061367e565b5054613daf565b90613cd5565b93613cc6565b94908861187e565b89518981526020810186905260408101889052606090f35b92905034610587578360031936011261058757835481516370a0823160e01b815230938101939093526001600160a01b039081169390602084602481885afa9384156119dd5786946119a1575b50610120955060055490600654600b54908260015416926002541693600754966008549881519a8b5260208b01528901526060880152608087015260a086015260c0850152830152610100820152f35b9093506020813d82116119d5575b816119bc60209383613738565b810103126119d1576101209550519238611951565b8580fd5b3d91506119af565b83513d88823e3d90fd5b505050346105aa57816003193601126105aa57602090600a549051908152f35b505050346105aa57816003193601126105aa576020906017549051908152f35b50503461034257602036600319011261034257803590611a71337f00000000000000000000000000000000000000000000000000000000000000006001600160a01b03161461385d565b8115611ab15750907f787a1fca55641ce34a438271930bbb9401df20db2b4f510d4f252227d85df43d91601054908060105582519182526020820152a180f35b606490602084519162461bcd60e51b8352820152601a60248201527f415059206d7573742062652067726561746572207468616e20300000000000006044820152fd5b505050346105aa57816003193601126105aa576020906008549051908152f35b505034610342576020366003190112610342577f6e838f2a03741f5f2aff5480963b672fb0dd8430a4dc75db9b67ce009733c9fe9160a09135611b81337f00000000000000000000000000000000000000000000000000000000000000006001600160a01b03161461385d565b611b8c811515613896565b60055491816005558051926060845260056060850152642a27a5a2a760d91b60808501526020840152820152a180f35b505050346105aa57816003193601126105aa576020906006549051908152f35b505034610342576020366003190112610342577f6e838f2a03741f5f2aff5480963b672fb0dd8430a4dc75db9b67ce009733c9fe9160a09135611c49337f00000000000000000000000000000000000000000000000000000000000000006001600160a01b03161461385d565b611c54811515613896565b600654918160065580519260608452600a60608501526929aa20a12622a1a7a4a760b11b60808501526020840152820152a180f35b505090346103425760209081600319360112610587578291923592338552600c815260ff611cbc8184882054161561394c565b84865260138252828620546001600160a01b0390611cdd9082163314613fbd565b8694859283805b338b526012808852888c208054831015611f51579a611d0583829c9d61367e565b505414611d1e5750611d1690613cc6565b989798611ce4565b955097985050338952838552611d47611d3988888c2061367e565b509160068093015416613d63565b3389528385526002611d5b88888c2061367e565b500154338a528486526003611d7289898d2061367e565b500154906201518091828102928184041490151715611f3e5790611d9591613cd5565b4210611f0457918491611df88a611e3e95611dda611db28d613daf565b9b3384528988528b611dc68282872061367e565b50946001809601549b3382528a522061367e565b500160ff1981541690556014611df1888254613da2565b9055613d25565b611e013361417c565b611e0b8886613cd5565b8a54885163a9059cbb60e01b8152339381019384526020840192909252909485939091169183918c918391604090910190565b03925af1908115611efa5790611e5b918891611edd575b50613c82565b848415159182611ec9575b84519081527f7fc4727e062e336010f2c282598ef5f14facb3de68cf8195c2f23e1454b2b74e843392a3611e98578480f35b7ff87cfa2d5feaea949ad65bb76a26d8553381bcb6382adbc83dedd48961bf32d991519283523392a3388080808480f35b611ed586601554613cd5565b601555611e66565b611ef49150843d86116105185761050a8183613738565b38611e55565b84513d89823e3d90fd5b855162461bcd60e51b8152808301869052601460248201527314dd1a5b1b081a5b881b1bd8dac81c195c9a5bd960621b6044820152606490fd5b634e487b7160e01b8b526011845260248bfd5b505050611e3e93915091611df88693613d25565b505082600319360112610342573383526020600c8152611f8b60ff84862054161561394c565b341590611f98821561398d565b6001546001600160a01b039290831690611fb3821515613b40565b620f4240908134029134830414171561217857600654611fd291613a33565b9385516370a0823160e01b815230828201528381602481865afa801561051f5786918991612143575b501061210057855163a9059cbb60e01b81523391810191825260208201869052939291829185919082908a90829060400103925af18015610dae577f48a1f8a6c840b32621ceab4439a2ccd00b337e705dfdcdec0b40c49abf3e6be39361206a9288926120e3575b5050613b9a565b6120a58580808034867f0000000000000000000000000000000000000000000000000000000000000000165af161209f613a53565b50613a93565b6120bf8160015416846120b6613c62565b9134903361478e565b600154935192835234602084015242604084015290921691339180606081016104b4565b6120f99250803d106105185761050a8183613738565b3880612063565b855162461bcd60e51b8152908101839052601b60248201527f496e73756666696369656e742055534454206c697175696469747900000000006044820152606490fd5b809250858092503d8311612171575b61215c8183613738565b8101031261216d5785905138611ffb565b8780fd5b503d612152565b634e487b7160e01b875260118552602487fd5b505050346105aa57602080600319360112610342576001600160a01b0392836121b2613570565b168152601b825282812091835190818185549182815201908195855282852090855b81811061222057505050826121ea910383613738565b8451948186019282875251809352850193925b82811061220a5785850386f35b83518716855293810193928101926001016121fd565b82548a16845292840192600192830192016121d4565b505034610342576020908160031936011261058757803591338552600c815260ff936122678582882054161561394c565b83865260138252808620546001600160a01b0393906122899085163314613fbd565b8693875b3389526012808652848a208054831015612452576122ac838a9261367e565b5054146122c257506122bd90613cc6565b61228d565b96976122eb91929394959650338a5287875260066122e284888d2061367e565b50015416613d63565b6122f487613daf565b958615612417579061232591338a528087528960056123158489842061367e565b500155338a52865284892061367e565b5042908301558654835163a9059cbb60e01b815233818501908152602081018890529092869284928390036040019183918c91165af190811561240d5787916123f0575b50156123b65750907ff87cfa2d5feaea949ad65bb76a26d8553381bcb6382adbc83dedd48961bf32d99160156123a0858254613cd5565b9055519283523392a36123b36001613d25565b80f35b82606492519162461bcd60e51b8352820152601660248201527514995dd85c99081d1c985b9cd9995c8819985a5b195960521b6044820152fd5b6124079150843d86116105185761050a8183613738565b38612369565b83513d89823e3d90fd5b845162461bcd60e51b81528085018790526015602482015274139bc81c995dd85c991cc81d1bc81a185c9d995cdd605a1b6044820152606490fd5b5050505050505090506123b39150613d25565b505050346105aa5760203660031901126105aa5760209181906001600160a01b0361248e613570565b168152601c845220549051908152f35b505050346105aa57816003193601126105aa57602090600b549051908152f35b505050346105aa5760203660031901126105aa5760209160ff9082906001600160a01b036124ea613570565b168152600c855220541690519015158152f35b50503461034257602036600319011261034257803590612547337f00000000000000000000000000000000000000000000000000000000000000006001600160a01b03161461385d565b601482116125895750907fd968a3cc702265c3ab67356df15ca21d50167b011f198b963e2a868e04e3d5e091601954908060195582519182526020820152a180f35b606490602084519162461bcd60e51b835282015260136024820152720a0cae4c6cadce8c2ceca40e8dede40d0d2ced606b1b6044820152fd5b505050346105aa5760203660031901126105aa576020916001600160a01b03908290826125ed613570565b168152601a85522054169051908152f35b505050346105aa57816003193601126105aa57602090600f549051908152f35b505050346105aa57816003193601126105aa5760035490516001600160a01b039091168152602090f35b505050346105aa5736600319011261068957612662613570565b602435906001600160a01b039061269c337f000000000000000000000000000000000000000000000000000000000000000084161461385d565b166126a88115156138d2565b6126b3821515613910565b6001600160601b0360a01b600354161760035560095580f35b828585346105aa57806003193601126105aa57823560243591338452602092600c84526126ff60ff83872054161561394c565b60115483106129755784546001600160a01b031661271e8115156139c9565b601e8214801561296b575b8015612961575b8015612956575b1561291d5782516323b872dd60e01b815233818901908152306020820152604081018690529091869183919082908a90829060600103925af19081156119dd57906127889187916129005750613c82565b6017549361279585613cc6565b60175582516127a3816136ea565b85815281810185815284820142815260608301858152608084019042825260a08501928b845260c086019460018652338d5260128852898d20805490600160401b8210156128ec57906127fb9160018201815561367e565b9790976128da57927fb4caaf29adda3eefee3ad552a8e85058589bf834c7466cae4ee58787f70589ed9b9c9d9e9261286a9897959260069795518955516001890155516002880155516003870155519085015551600584015551151591019060ff801983541691151516179055565b85875260138152828720336001600160601b0360a01b82541617905561289285601454613cd5565b60145533875260188152828720805460ff8116156128bb575b505082519485528401523392a380f35b60ff191660011790556016546128d090613cc6565b60165587806128ab565b634e487b7160e01b8e528d8f5260248efd5b8f8f6041602492634e487b7160e01b835252fd5b6129179150863d88116105185761050a8183613738565b88611e55565b825162461bcd60e51b81528088018690526013602482015272125b9d985b1a59081b1bd8dac81c195c9a5bd9606a1b6044820152606490fd5b5061016d8214612737565b5060b48214612730565b50605a8214612729565b815162461bcd60e51b8152808701859052601a60248201527f416d6f756e742062656c6f77206d696e696d756d207374616b650000000000006044820152606490fd5b5050913461068957602092836003193601126105aa57803590338352600c855260ff916129ea8386862054161561394c565b80845260138652848420546001600160a01b039690612a0c9088163314613fbd565b8495855b33875260128084528288208054831015612cd457612a2f83879261367e565b505414612a455750612a4090613cc6565b612a10565b9192939495969750338852818452612a70612a6282858b2061367e565b509760068099015416613d63565b3388528184526002612a8482858b2061367e565b5001543389528285526003612a9b83868c2061367e565b500154906201518091828102928184041490151715612cc15799612ac686928b9c9b98999a9b613cd5565b92612ad089613daf565b9a338952858452612ae382888b2061367e565b5091876001809401549a80974210612c67575b90612b0c9291612b6c989933825288522061367e565b500160ff1981541690556014612b23898254613da2565b905598612b398b612b34878b613da2565b613cd5565b8c54875163a9059cbb60e01b8152339381019384526020840192909252909485939091169183918e918391604090910190565b03925af1908115612c5d5797612b8d8792612bcd9a8c91612c465750613c82565b80612c06575b50508015612bd6577f9c9ec3cfa814b0112b71c20d0b0ab54dead00a99fd389c174df717d2f1d364039282519485528401523392a3613d25565b6123b33361417c565b50907f7fc4727e062e336010f2c282598ef5f14facb3de68cf8195c2f23e1454b2b74e91519283523392a3613d25565b6015612c13828254613cd5565b905583519081527ff87cfa2d5feaea949ad65bb76a26d8553381bcb6382adbc83dedd48961bf32d9853392a38438612b93565b611ef49150873d89116105185761050a8183613738565b83513d8b823e3d90fd5b50509193509193506005808902908982041489151715612cae5791612b0c889492888f6064612b6c99970499600f612ca08c8254613cd5565b905599985090919250612af6565b634e487b7160e01b8d5260118b5260248dfd5b634e487b7160e01b8a526011885260248afd5b50505050505050509150612bcd90613d25565b5050823461068957806003193601126106895790600e5490612d0882614849565b92612d1585519485613738565b828452600e8152906020907fbb7b4a454dc3493923482f07822329ed19e8244eff582cc204f8554c3620c3fd908286015b858510612d5a5787518061061d89826135cb565b6007846001928a51612d6b816136ea565b86548152848060a01b0380868901541684830152806002890154168d8301526003880154166060820152858701546080820152600587015460a0820152612db46006880161375a565b60c0820152815201930194019391612d46565b505082600319360112610342573383526020600c8152612ded60ff84862054161561394c565b341590612dfa821561398d565b6002546001600160a01b039290831690612e15821515613bdd565b620f4240908134029134830414171561217857600654612e3491613a33565b9385516370a0823160e01b815230828201528381602481865afa801561051f5786918991612f96575b5010612f5357855163a9059cbb60e01b81523391810191825260208201869052939291829185919082908a90829060400103925af18015610dae577f48a1f8a6c840b32621ceab4439a2ccd00b337e705dfdcdec0b40c49abf3e6be393612ecc928892612f36575b5050613c1f565b612f018580808034867f0000000000000000000000000000000000000000000000000000000000000000165af161209f613a53565b612f128160025416846120b6613c62565b600254935192835234602084015242604084015290921691339180606081016104b4565b612f4c9250803d106105185761050a8183613738565b3880612ec5565b855162461bcd60e51b8152908101839052601b60248201527f496e73756666696369656e742055534443206c697175696469747900000000006044820152606490fd5b809250858092503d8311612fc0575b612faf8183613738565b8101031261216d5785905138612e5d565b503d612fa5565b505050346105aa5760203660031901126105aa576080916001600160a01b0380612fef613570565b168252601a602052828220541691601b602052808083205492601c60205220549060195492815194855260208501528301526060820152f35b505050346105aa57816003193601126105aa576020906010549051908152f35b828585816003193601126105aa57338252600c60205261306e60ff82842054161561394c565b34159061307b821561398d565b82546001600160a01b03929061309490841615156139c9565b670de0b6b3a7640000908134029134830414171561313a5783929161311c6130d1610d476000805160206148ef8339815191529460055490613a33565b936130db85614235565b6131108680808034867f0000000000000000000000000000000000000000000000000000000000000000165af161209f613a53565b855416846120b6613ad5565b513481526020810192909252426040830152339180606081016104b4565b634e487b7160e01b845260118552602484fd5b505050346105aa5736600319011261068957613167613570565b602435906001600160a01b03906131a1337f000000000000000000000000000000000000000000000000000000000000000084161461385d565b166131ad8115156138d2565b6131b8821515613910565b6001600160601b0360a01b600254161760025560085580f35b5050346103425782600319360112610342575490516001600160a01b03909116815260209150f35b505050346105aa57806003193601126105aa57613214613570565b90602435918215158084036132a7577fdda6207409a585801122fb885dcaa8074f9a21f25ff2def680c67f01a86c2c9b9260209261329f906001600160a01b0390613282337f000000000000000000000000000000000000000000000000000000000000000084161461385d565b1695868852600c85528288209060ff801983541691151516179055565b51908152a280f35b8480fd5b838584346105aa57602090816003193601126103425735928383526013825260018060a01b038184205416926132e2841515613ce2565b6132ea6148b6565b8195825b868452601280875285852080548310156133695761330d83859261367e565b505414613323575061331e90613cc6565b6132ee565b60809850611408935085919250936133409488825287522061367e565b9061334b6001613d25565b81519381848401519301519382519586528501528301526060820152f35b5050505091905061334b608095613d25565b50509034610342578060031936011261034257613396613570565b602435907f00000000000000000000000000000000000000000000000000000000000000006001600160a01b036133d0338284161461385d565b80875416921691821461348b575b835163a9059cbb60e01b81526001600160a01b03909116858201908152602081810194909452909291839182908890829060400103925af1908115613481578491613463575b501561342e578280f35b906020606492519162461bcd60e51b8352820152600f60248201526e151c985b9cd9995c8819985a5b1959608a1b6044820152fd5b61347b915060203d81116105185761050a8183613738565b38613424565b82513d86823e3d90fd5b83516370a0823160e01b81523086820152602081602481865afa801561354157879061350a575b6134c0915060145490613da2565b8311156133de57835162461bcd60e51b8152602081870152601d60248201527f43616e6e6f74207769746864726177207374616b656420746f6b656e730000006044820152606490fd5b506020813d8211613539575b8161352360209383613738565b81010312613535576134c090516134b2565b8680fd5b3d9150613516565b85513d89823e3d90fd5b8590346105aa57816003193601126105aa576002546001600160a01b03168152602090f35b600435906001600160a01b038216820361358657565b600080fd5b919082519283825260005b8481106135b7575050826000602080949584010152601f8019910116010190565b602081830181015184830182015201613596565b602080820190808352835180925260409283810182858560051b8401019601946000925b858410613600575050505050505090565b90919293949596858061366d600193603f198682030188528b5180518252858060a01b0380858301511685840152808983015116898401526060908183015116908301526080808201519083015260a0808201519083015260c0809101519160e08092820152019061358b565b9901940194019295949391906135ef565b805482101561369a576000526007602060002091020190600090565b634e487b7160e01b600052603260045260246000fd5b90600182811c921680156136e0575b60208310146136ca57565b634e487b7160e01b600052602260045260246000fd5b91607f16916136bf565b60e0810190811067ffffffffffffffff82111761370657604052565b634e487b7160e01b600052604160045260246000fd5b6040810190811067ffffffffffffffff82111761370657604052565b90601f8019910116810190811067ffffffffffffffff82111761370657604052565b906040519182600082549261376e846136b0565b9081845260019485811690816000146137dd575060011461379a575b505061379892500383613738565b565b9093915060005260209081600020936000915b8183106137c55750506137989350820101388061378a565b855488840185015294850194879450918301916137ad565b91505061379894506020925060ff191682840152151560051b820101388061378a565b9360e0959261384298979492865260018060a01b0392838092166020880152166040860152166060840152608083015260a08201528160c0820152019061358b565b90565b805482101561369a5760005260206000200190600090565b1561386457565b60405162461bcd60e51b815260206004820152600a60248201526927b7363c9037bbb732b960b11b6044820152606490fd5b1561389d57565b60405162461bcd60e51b815260206004820152600d60248201526c496e76616c696420707269636560981b6044820152606490fd5b156138d957565b60405162461bcd60e51b815260206004820152600f60248201526e496e76616c6964206164647265737360881b6044820152606490fd5b1561391757565b60405162461bcd60e51b815260206004820152600d60248201526c496e76616c696420726174696f60981b6044820152606490fd5b1561395357565b60405162461bcd60e51b81526020600482015260126024820152711059191c995cdcc81a5cc8189b1bd8dad95960721b6044820152606490fd5b1561399457565b60405162461bcd60e51b815260206004820152600d60248201526c26bab9ba1039b2b7321021272160991b6044820152606490fd5b156139d057565b60405162461bcd60e51b815260206004820152601260248201527114d85b19481d1bdad95b881b9bdd081cd95d60721b6044820152606490fd5b81810292918115918404141715613a1d57565b634e487b7160e01b600052601160045260246000fd5b8115613a3d570490565b634e487b7160e01b600052601260045260246000fd5b3d15613a8e573d9067ffffffffffffffff82116137065760405191613a82601f8201601f191660200184613738565b82523d6000602084013e565b606090565b15613a9a57565b60405162461bcd60e51b8152602060048201526013602482015272109390881d1c985b9cd9995c8819985a5b1959606a1b6044820152606490fd5b60405190613ae28261371c565b600382526242555960e81b6020830152565b15613afb57565b60405162461bcd60e51b815260206004820152601d60248201527f416d6f756e74206d7573742062652067726561746572207468616e20300000006044820152606490fd5b15613b4757565b60405162461bcd60e51b81526020600482015260136024820152721554d115081b9bdd0818dbdb999a59dd5c9959606a1b6044820152606490fd5b90816020910312613586575180151581036135865790565b15613ba157565b60405162461bcd60e51b81526020600482015260146024820152731554d115081d1c985b9cd9995c8819985a5b195960621b6044820152606490fd5b15613be457565b60405162461bcd60e51b81526020600482015260136024820152721554d110c81b9bdd0818dbdb999a59dd5c9959606a1b6044820152606490fd5b15613c2657565b60405162461bcd60e51b81526020600482015260146024820152731554d110c81d1c985b9cd9995c8819985a5b195960621b6044820152606490fd5b60405190613c6f8261371c565b600482526314d1531360e21b6020830152565b15613c8957565b60405162461bcd60e51b8152602060048201526015602482015274151bdad95b881d1c985b9cd9995c8819985a5b1959605a1b6044820152606490fd5b6000198114613a1d5760010190565b91908201809211613a1d57565b15613ce957565b60405162461bcd60e51b815260206004820152601460248201527314dd185ad948191bd95cc81b9bdd08195e1a5cdd60621b6044820152606490fd5b15613d2c57565b60405162461bcd60e51b815260206004820152600f60248201526e14dd185ad9481b9bdd08199bdd5b99608a1b6044820152606490fd5b15613d6a57565b60405162461bcd60e51b815260206004820152601060248201526f5374616b65206e6f742061637469766560801b6044820152606490fd5b91908203918211613a1d57565b6000818152601360209081526040808320546001600160a01b031690613dd6821515613ce2565b9293849390849081808080805b888b526012808b52888c208054831015613fa457613e0283899261367e565b505414613e185750613e1390613cc6565b613de3565b96509a5050505050508285528084528582862090613e359161367e565b5060050154958386528185528083872090613e4f9161367e565b5060040154928487528286528181882090613e699161367e565b50926001809401549686895281815283838a2090613e869161367e565b506003015496895252862090613e9b9161367e565b506006015460ff16613eaf613eb492613d25565b613d63565b428114613f9d57613ec59042613da2565b926010548092605a8114600014613f23575050600382029180830460031490151715613f0f57506138429392613f0363bbf81e0093613f089360011c905b613a0a565b0490613cd5565b634e487b7160e01b81526011600452602490fd5b60b48103613f595750508160011b9180830460021490151715613f0f57506138429392613f0363bbf81e0093613f089390613a0a565b61016d9194935014613f7e575b506138429392613f0363bbf81e0093613f0893613a0a565b6003839293029180830460031490151715613f0f575090613842613f66565b5050505090565b50505096509650979350613eb4929150613eaf90613d25565b15613fc457565b60405162461bcd60e51b815260206004820152600f60248201526e2737ba1039ba30b5b29037bbb732b960891b6044820152606490fd5b60003381526020601a815260018060a01b039060408281852054169283151580614167575b61402c57505050505090565b606461403a60195488613a0a565b8654845163a9059cbb60e01b81526001600160a01b03881660048201529290910460248301819052969190859082906044908290869088165af190811561415d578291614140575b50156140fc577f94ccb86446750660ec532b1beb1fb55f5ba2fffca042c4c53f4c080e72595b3893929181866140f29352601c85528381206140c5898254613cd5565b9055541686888451926140d78461371c565b6008845267149151915494905360c21b8785015280896147ed565b519384523393a390565b825162461bcd60e51b815260048101859052601f60248201527f526566657272616c20726577617264207472616e73666572206661696c6564006044820152606490fd5b6141579150853d87116105185761050a8183613738565b38614082565b84513d84823e3d90fd5b50838552600c835260ff828620541615614020565b600090815b6001600160a01b0382166000908152601260205260409020805482101561422d5760066141b08360ff9361367e565b500154166141c6576141c190613cc6565b614181565b50905060015b158061420b575b6141da5750565b6001600160a01b03166000908152601860205260409020805460ff191690556016548015613a1d5760001901601655565b506001600160a01b03811660009081526018602052604090205460ff166141d3565b5050906141cc565b600080546040516370a0823160e01b8152306004820152919392916020916001600160a01b0316908281602481855afa801561436c578491879161433b575b50106142f65760405163a9059cbb60e01b8152336004820152602481018490529082908290604490829089905af19182156142eb57906142c192916142c99596926142ce575b5050613c82565b600b54613cd5565b600b55565b6142e49250803d106105185761050a8183613738565b38806142ba565b6040513d87823e3d90fd5b60405162461bcd60e51b815260048101839052601a60248201527f496e73756666696369656e7420746f6b656e2062616c616e63650000000000006044820152606490fd5b809250848092503d8311614365575b6143548183613738565b810103126119d15783905138614274565b503d61434a565b6040513d88823e3d90fd5b600e54600160401b8110156137065760019081810180600e5581101561369a576007600091600e835202918351837fbb7b4a454dc3493923482f07822329ed19e8244eff582cc204f8554c3620c3fd015560c07fbb7b4a454dc3493923482f07822329ed19e8244eff582cc204f8554c3620c4037fbb7b4a454dc3493923482f07822329ed19e8244eff582cc204f8554c3620c3fe85019460018060a01b0360209681888a015116906001600160601b0360a01b91828254161790557fbb7b4a454dc3493923482f07822329ed19e8244eff582cc204f8554c3620c3ff83018260408b015116828254161790557fbb7b4a454dc3493923482f07822329ed19e8244eff582cc204f8554c3620c40083019160608a0151169082541617905560808701517fbb7b4a454dc3493923482f07822329ed19e8244eff582cc204f8554c3620c40182015560a08701517fbb7b4a454dc3493923482f07822329ed19e8244eff582cc204f8554c3620c402820155019401519182519267ffffffffffffffff84116145ef5761450886546136b0565b601f81116145a9575b508491601f851160011461454a57939450849291908361453f575b50501b916000199060031b1c1916179055565b01519250388061452c565b86815285812093958591601f198316915b8883831061458f5750505010614576575b505050811b019055565b015160001960f88460031b161c1916905538808061456c565b85870151885590960195948501948793509081019061455b565b868352858320601f860160051c8101918787106145e5575b601f0160051c019084905b8281106145da575050614511565b8481550184906145cc565b90915081906145c1565b634e487b7160e01b82526041600452602482fd5b8054600160401b8110156137065761462290600192838201815561367e565b614778578251815560c060068383019260018060a01b03602094818689015116906001600160601b0360a01b9182825416179055600283018260408a015116828254161790556003830191606089015116908254161790556080860151600482015560a08601516005820155019301519081519167ffffffffffffffff8311613706576146af85546136b0565b601f811161472f575b5081601f84116001146146e6575092829391839260009461453f5750501b916000199060031b1c1916179055565b919083601f1981168760005284600020946000905b88838310614715575050501061457657505050811b019055565b8587015188559096019594850194879350908101906146fb565b6000868152838120601f860160051c81019285871061476e575b601f0160051c019186905b838110614763575050506146b8565b828155018690614754565b9092508290614749565b634e487b7160e01b600052600060045260246000fd5b92613798949192604051946147a2866136ea565b42865260018060a01b038091169485602088015260006040880152166060860152608085015260a084015260c0830152600052600d6020526147e8816040600020614603565b614377565b92613798959294919360405195614803876136ea565b42875260018060a01b0380809316968760208a0152166040880152166060860152608085015260a084015260c0830152600052600d6020526147e8816040600020614603565b67ffffffffffffffff81116137065760051b60200190565b9060405161486e816136ea565b60c060ff600683958054855260018101546020860152600281015460408601526003810154606086015260048101546080860152600581015460a08601520154161515910152565b604051906148c3826136ea565b8160c06000918281528260208201528260408201528260608201528260808201528260a0820152015256fe377aadedb6b2a771959584d10a6a36eccb5f56b4eb3a48525f76108d2660d8d4a2646970667358221220ac727c4e2a77d0e73f0c7c3c3c6ba667b679389abd875651d9f417e37ec3c63864736f6c63430008130033",
  "linkReferences": {},
  "deployedLinkReferences": {}
}