{
  "_format": "hh-sol-artifact-1",
  "contractName": "TokenICO",
  "sourceName": "contracts/TokenICO.sol",
  "abi": [
    {
      "inputs": [],
      "stateMutability": "nonpayable",
      "type": "constructor"
    },
    {
      "anonymous": false,
      "inputs": [
        {
          "indexed": false,
          "internalType": "uint256",
          "name": "oldAPY",
          "type": "uint256"
        },
        {
          "indexed": false,
          "internalType": "uint256",
          "name": "newAPY",
          "type": "uint256"
        }
      ],
      "name": "APYUpdated",
      "type": "event"
    },
    {
      "anonymous": false,
      "inputs": [
        {
          "indexed": true,
          "internalType": "address",
          "name": "user",
          "type": "address"
        },
        {
          "indexed": false,
          "internalType": "bool",
          "name": "blocked",
          "type": "bool"
        }
      ],
      "name": "AddressBlocked",
      "type": "event"
    },
    {
      "anonymous": false,
      "inputs": [
        {
          "indexed": true,
          "internalType": "address",
          "name": "user",
          "type": "address"
        },
        {
          "indexed": true,
          "internalType": "uint256",
          "name": "stakeId",
          "type": "uint256"
        },
        {
          "indexed": false,
          "internalType": "uint256",
          "name": "amount",
          "type": "uint256"
        },
        {
          "indexed": false,
          "internalType": "uint256",
          "name": "penalty",
          "type": "uint256"
        }
      ],
      "name": "EarlyUnstake",
      "type": "event"
    },
    {
      "anonymous": false,
      "inputs": [
        {
          "indexed": false,
          "internalType": "uint256",
          "name": "oldMinStake",
          "type": "uint256"
        },
        {
          "indexed": false,
          "internalType": "uint256",
          "name": "newMinStake",
          "type": "uint256"
        }
      ],
      "name": "MinStakeUpdated",
      "type": "event"
    },
    {
      "anonymous": false,
      "inputs": [
        {
          "indexed": false,
          "internalType": "string",
          "name": "priceType",
          "type": "string"
        },
        {
          "indexed": false,
          "internalType": "uint256",
          "name": "oldPrice",
          "type": "uint256"
        },
        {
          "indexed": false,
          "internalType": "uint256",
          "name": "newPrice",
          "type": "uint256"
        }
      ],
      "name": "PriceUpdated",
      "type": "event"
    },
    {
      "anonymous": false,
      "inputs": [
        {
          "indexed": false,
          "internalType": "uint256",
          "name": "oldPercentage",
          "type": "uint256"
        },
        {
          "indexed": false,
          "internalType": "uint256",
          "name": "newPercentage",
          "type": "uint256"
        }
      ],
      "name": "ReferralPercentageUpdated",
      "type": "event"
    },
    {
      "anonymous": false,
      "inputs": [
        {
          "indexed": true,
          "internalType": "address",
          "name": "referrer",
          "type": "address"
        },
        {
          "indexed": true,
          "internalType": "address",
          "name": "referee",
          "type": "address"
        }
      ],
      "name": "ReferralRegistered",
      "type": "event"
    },
    {
      "anonymous": false,
      "inputs": [
        {
          "indexed": true,
          "internalType": "address",
          "name": "referrer",
          "type": "address"
        },
        {
          "indexed": true,
          "internalType": "address",
          "name": "referee",
          "type": "address"
        },
        {
          "indexed": false,
          "internalType": "uint256",
          "name": "amount",
          "type": "uint256"
        }
      ],
      "name": "ReferralRewardPaid",
      "type": "event"
    },
    {
      "anonymous": false,
      "inputs": [
        {
          "indexed": true,
          "internalType": "address",
          "name": "user",
          "type": "address"
        },
        {
          "indexed": true,
          "internalType": "uint256",
          "name": "stakeId",
          "type": "uint256"
        },
        {
          "indexed": false,
          "internalType": "uint256",
          "name": "reward",
          "type": "uint256"
        }
      ],
      "name": "RewardHarvested",
      "type": "event"
    },
    {
      "anonymous": false,
      "inputs": [
        {
          "indexed": true,
          "internalType": "address",
          "name": "oldSigner",
          "type": "address"
        },
        {
          "indexed": true,
          "internalType": "address",
          "name": "newSigner",
          "type": "address"
        }
      ],
      "name": "SignerUpdated",
      "type": "event"
    },
    {
      "anonymous": false,
      "inputs": [
        {
          "indexed": true,
          "internalType": "address",
          "name": "buyer",
          "type": "address"
        },
        {
          "indexed": true,
          "internalType": "address",
          "name": "stablecoin",
          "type": "address"
        },
        {
          "indexed": false,
          "internalType": "uint256",
          "name": "stablecoinAmount",
          "type": "uint256"
        },
        {
          "indexed": false,
          "internalType": "uint256",
          "name": "bnbPaid",
          "type": "uint256"
        },
        {
          "indexed": false,
          "internalType": "uint256",
          "name": "timestamp",
          "type": "uint256"
        }
      ],
      "name": "StablecoinSold",
      "type": "event"
    },
    {
      "anonymous": false,
      "inputs": [
        {
          "indexed": true,
          "internalType": "address",
          "name": "user",
          "type": "address"
        },
        {
          "indexed": true,
          "internalType": "uint256",
          "name": "stakeId",
          "type": "uint256"
        },
        {
          "indexed": false,
          "internalType": "uint256",
          "name": "amount",
          "type": "uint256"
        },
        {
          "indexed": false,
          "internalType": "uint256",
          "name": "lockPeriod",
          "type": "uint256"
        }
      ],
      "name": "Staked",
      "type": "event"
    },
    {
      "anonymous": false,
      "inputs": [
        {
          "indexed": true,
          "internalType": "address",
          "name": "buyer",
          "type": "address"
        },
        {
          "indexed": true,
          "internalType": "address",
          "name": "paymentMethod",
          "type": "address"
        },
        {
          "indexed": false,
          "internalType": "uint256",
          "name": "amountPaid",
          "type": "uint256"
        },
        {
          "indexed": false,
          "internalType": "uint256",
          "name": "tokensBought",
          "type": "uint256"
        },
        {
          "indexed": false,
          "internalType": "uint256",
          "name": "timestamp",
          "type": "uint256"
        }
      ],
      "name": "TokensPurchased",
      "type": "event"
    },
    {
      "anonymous": false,
      "inputs": [
        {
          "indexed": true,
          "internalType": "address",
          "name": "user",
          "type": "address"
        },
        {
          "indexed": true,
          "internalType": "uint256",
          "name": "stakeId",
          "type": "uint256"
        },
        {
          "indexed": false,
          "internalType": "uint256",
          "name": "amount",
          "type": "uint256"
        }
      ],
      "name": "Unstaked",
      "type": "event"
    },
    {
      "anonymous": false,
      "inputs": [
        {
          "indexed": true,
          "internalType": "address",
          "name": "user",
          "type": "address"
        },
        {
          "indexed": false,
          "internalType": "uint256",
          "name": "nonce",
          "type": "uint256"
        }
      ],
      "name": "VoucherConsumed",
      "type": "event"
    },
    {
      "inputs": [],
      "name": "DOMAIN_SEPARATOR",
      "outputs": [
        {
          "internalType": "bytes32",
          "name": "",
          "type": "bytes32"
        }
      ],
      "stateMutability": "view",
      "type": "function"
    },
    {
      "inputs": [],
      "name": "EARLY_WITHDRAWAL_PENALTY_PERCENT",
      "outputs": [
        {
          "internalType": "uint256",
          "name": "",
          "type": "uint256"
        }
      ],
      "stateMutability": "view",
      "type": "function"
    },
    {
      "inputs": [],
      "name": "TOTAL_TOKENS_FOR_SALE",
      "outputs": [
        {
          "internalType": "uint256",
          "name": "",
          "type": "uint256"
        }
      ],
      "stateMutability": "view",
      "type": "function"
    },
    {
      "inputs": [],
      "name": "WAITLIST_ALLOCATION",
      "outputs": [
        {
          "internalType": "uint256",
          "name": "",
          "type": "uint256"
        }
      ],
      "stateMutability": "view",
      "type": "function"
    },
    {
      "inputs": [],
      "name": "WL_REF_TYPEHASH",
      "outputs": [
        {
          "internalType": "bytes32",
          "name": "",
          "type": "bytes32"
        }
      ],
      "stateMutability": "view",
      "type": "function"
    },
    {
      "inputs": [
        {
          "internalType": "uint256",
          "name": "",
          "type": "uint256"
        }
      ],
      "name": "allTransactions",
      "outputs": [
        {
          "internalType": "uint256",
          "name": "timestamp",
          "type": "uint256"
        },
        {
          "internalType": "address",
          "name": "user",
          "type": "address"
        },
        {
          "internalType": "address",
          "name": "tokenIn",
          "type": "address"
        },
        {
          "internalType": "address",
          "name": "tokenOut",
          "type": "address"
        },
        {
          "internalType": "uint256",
          "name": "amountIn",
          "type": "uint256"
        },
        {
          "internalType": "uint256",
          "name": "amountOut",
          "type": "uint256"
        },
        {
          "internalType": "string",
          "name": "transactionType",
          "type": "string"
        }
      ],
      "stateMutability": "view",
      "type": "function"
    },
    {
      "inputs": [],
      "name": "baseAPY",
      "outputs": [
        {
          "internalType": "uint256",
          "name": "",
          "type": "uint256"
        }
      ],
      "stateMutability": "view",
      "type": "function"
    },
    {
      "inputs": [
        {
          "internalType": "address",
          "name": "",
          "type": "address"
        }
      ],
      "name": "blockedAddresses",
      "outputs": [
        {
          "internalType": "bool",
          "name": "",
          "type": "bool"
        }
      ],
      "stateMutability": "view",
      "type": "function"
    },
    {
      "inputs": [],
      "name": "bnbPriceForStablecoin",
      "outputs": [
        {
          "internalType": "uint256",
          "name": "",
          "type": "uint256"
        }
      ],
      "stateMutability": "view",
      "type": "function"
    },
    {
      "inputs": [],
      "name": "bnbPriceForToken",
      "outputs": [
        {
          "internalType": "uint256",
          "name": "",
          "type": "uint256"
        }
      ],
      "stateMutability": "view",
      "type": "function"
    },
    {
      "inputs": [],
      "name": "bnbRatio",
      "outputs": [
        {
          "internalType": "uint256",
          "name": "",
          "type": "uint256"
        }
      ],
      "stateMutability": "view",
      "type": "function"
    },
    {
      "inputs": [],
      "name": "btcAddress",
      "outputs": [
        {
          "internalType": "address",
          "name": "",
          "type": "address"
        }
      ],
      "stateMutability": "view",
      "type": "function"
    },
    {
      "inputs": [],
      "name": "btcRatio",
      "outputs": [
        {
          "internalType": "uint256",
          "name": "",
          "type": "uint256"
        }
      ],
      "stateMutability": "view",
      "type": "function"
    },
    {
      "inputs": [],
      "name": "buyUSDC",
      "outputs": [],
      "stateMutability": "payable",
      "type": "function"
    },
    {
      "inputs": [],
      "name": "buyUSDT",
      "outputs": [],
      "stateMutability": "payable",
      "type": "function"
    },
    {
      "inputs": [],
      "name": "buyWithBNB",
      "outputs": [],
      "stateMutability": "payable",
      "type": "function"
    },
    {
      "inputs": [
        {
          "components": [
            {
              "internalType": "address",
              "name": "user",
              "type": "address"
            },
            {
              "internalType": "address",
              "name": "referrer",
              "type": "address"
            },
            {
              "internalType": "uint256",
              "name": "nonce",
              "type": "uint256"
            },
            {
              "internalType": "uint256",
              "name": "deadline",
              "type": "uint256"
            }
          ],
          "internalType": "struct TokenICO.WhitelistRef",
          "name": "v",
          "type": "tuple"
        },
        {
          "internalType": "bytes",
          "name": "sig",
          "type": "bytes"
        }
      ],
      "name": "buyWithBNB_Voucher",
      "outputs": [],
      "stateMutability": "payable",
      "type": "function"
    },
    {
      "inputs": [
        {
          "internalType": "uint256",
          "name": "btcAmount",
          "type": "uint256"
        }
      ],
      "name": "buyWithBTC",
      "outputs": [],
      "stateMutability": "nonpayable",
      "type": "function"
    },
    {
      "inputs": [
        {
          "components": [
            {
              "internalType": "address",
              "name": "user",
              "type": "address"
            },
            {
              "internalType": "address",
              "name": "referrer",
              "type": "address"
            },
            {
              "internalType": "uint256",
              "name": "nonce",
              "type": "uint256"
            },
            {
              "internalType": "uint256",
              "name": "deadline",
              "type": "uint256"
            }
          ],
          "internalType": "struct TokenICO.WhitelistRef",
          "name": "v",
          "type": "tuple"
        },
        {
          "internalType": "bytes",
          "name": "sig",
          "type": "bytes"
        },
        {
          "internalType": "uint256",
          "name": "btcAmount",
          "type": "uint256"
        }
      ],
      "name": "buyWithBTC_Voucher",
      "outputs": [],
      "stateMutability": "nonpayable",
      "type": "function"
    },
    {
      "inputs": [
        {
          "internalType": "uint256",
          "name": "ethAmount",
          "type": "uint256"
        }
      ],
      "name": "buyWithETH",
      "outputs": [],
      "stateMutability": "nonpayable",
      "type": "function"
    },
    {
      "inputs": [
        {
          "components": [
            {
              "internalType": "address",
              "name": "user",
              "type": "address"
            },
            {
              "internalType": "address",
              "name": "referrer",
              "type": "address"
            },
            {
              "internalType": "uint256",
              "name": "nonce",
              "type": "uint256"
            },
            {
              "internalType": "uint256",
              "name": "deadline",
              "type": "uint256"
            }
          ],
          "internalType": "struct TokenICO.WhitelistRef",
          "name": "v",
          "type": "tuple"
        },
        {
          "internalType": "bytes",
          "name": "sig",
          "type": "bytes"
        },
        {
          "internalType": "uint256",
          "name": "ethAmount",
          "type": "uint256"
        }
      ],
      "name": "buyWithETH_Voucher",
      "outputs": [],
      "stateMutability": "nonpayable",
      "type": "function"
    },
    {
      "inputs": [
        {
          "internalType": "uint256",
          "name": "solAmount",
          "type": "uint256"
        }
      ],
      "name": "buyWithSOL",
      "outputs": [],
      "stateMutability": "nonpayable",
      "type": "function"
    },
    {
      "inputs": [
        {
          "components": [
            {
              "internalType": "address",
              "name": "user",
              "type": "address"
            },
            {
              "internalType": "address",
              "name": "referrer",
              "type": "address"
            },
            {
              "internalType": "uint256",
              "name": "nonce",
              "type": "uint256"
            },
            {
              "internalType": "uint256",
              "name": "deadline",
              "type": "uint256"
            }
          ],
          "internalType": "struct TokenICO.WhitelistRef",
          "name": "v",
          "type": "tuple"
        },
        {
          "internalType": "bytes",
          "name": "sig",
          "type": "bytes"
        },
        {
          "internalType": "uint256",
          "name": "solAmount",
          "type": "uint256"
        }
      ],
      "name": "buyWithSOL_Voucher",
      "outputs": [],
      "stateMutability": "nonpayable",
      "type": "function"
    },
    {
      "inputs": [
        {
          "internalType": "uint256",
          "name": "usdcAmount",
          "type": "uint256"
        }
      ],
      "name": "buyWithUSDC",
      "outputs": [],
      "stateMutability": "nonpayable",
      "type": "function"
    },
    {
      "inputs": [
        {
          "components": [
            {
              "internalType": "address",
              "name": "user",
              "type": "address"
            },
            {
              "internalType": "address",
              "name": "referrer",
              "type": "address"
            },
            {
              "internalType": "uint256",
              "name": "nonce",
              "type": "uint256"
            },
            {
              "internalType": "uint256",
              "name": "deadline",
              "type": "uint256"
            }
          ],
          "internalType": "struct TokenICO.WhitelistRef",
          "name": "v",
          "type": "tuple"
        },
        {
          "internalType": "bytes",
          "name": "sig",
          "type": "bytes"
        },
        {
          "internalType": "uint256",
          "name": "usdcAmount",
          "type": "uint256"
        }
      ],
      "name": "buyWithUSDC_Voucher",
      "outputs": [],
      "stateMutability": "nonpayable",
      "type": "function"
    },
    {
      "inputs": [
        {
          "internalType": "uint256",
          "name": "usdtAmount",
          "type": "uint256"
        }
      ],
      "name": "buyWithUSDT",
      "outputs": [],
      "stateMutability": "nonpayable",
      "type": "function"
    },
    {
      "inputs": [
        {
          "components": [
            {
              "internalType": "address",
              "name": "user",
              "type": "address"
            },
            {
              "internalType": "address",
              "name": "referrer",
              "type": "address"
            },
            {
              "internalType": "uint256",
              "name": "nonce",
              "type": "uint256"
            },
            {
              "internalType": "uint256",
              "name": "deadline",
              "type": "uint256"
            }
          ],
          "internalType": "struct TokenICO.WhitelistRef",
          "name": "v",
          "type": "tuple"
        },
        {
          "internalType": "bytes",
          "name": "sig",
          "type": "bytes"
        },
        {
          "internalType": "uint256",
          "name": "usdtAmount",
          "type": "uint256"
        }
      ],
      "name": "buyWithUSDT_Voucher",
      "outputs": [],
      "stateMutability": "nonpayable",
      "type": "function"
    },
    {
      "inputs": [
        {
          "internalType": "uint256",
          "name": "stakeId",
          "type": "uint256"
        }
      ],
      "name": "calculateRewards",
      "outputs": [
        {
          "internalType": "uint256",
          "name": "",
          "type": "uint256"
        }
      ],
      "stateMutability": "view",
      "type": "function"
    },
    {
      "inputs": [],
      "name": "ethAddress",
      "outputs": [
        {
          "internalType": "address",
          "name": "",
          "type": "address"
        }
      ],
      "stateMutability": "view",
      "type": "function"
    },
    {
      "inputs": [],
      "name": "ethRatio",
      "outputs": [
        {
          "internalType": "uint256",
          "name": "",
          "type": "uint256"
        }
      ],
      "stateMutability": "view",
      "type": "function"
    },
    {
      "inputs": [],
      "name": "getAllTransactions",
      "outputs": [
        {
          "components": [
            {
              "internalType": "uint256",
              "name": "timestamp",
              "type": "uint256"
            },
            {
              "internalType": "address",
              "name": "user",
              "type": "address"
            },
            {
              "internalType": "address",
              "name": "tokenIn",
              "type": "address"
            },
            {
              "internalType": "address",
              "name": "tokenOut",
              "type": "address"
            },
            {
              "internalType": "uint256",
              "name": "amountIn",
              "type": "uint256"
            },
            {
              "internalType": "uint256",
              "name": "amountOut",
              "type": "uint256"
            },
            {
              "internalType": "string",
              "name": "transactionType",
              "type": "string"
            }
          ],
          "internalType": "struct TokenICO.Transaction[]",
          "name": "",
          "type": "tuple[]"
        }
      ],
      "stateMutability": "view",
      "type": "function"
    },
    {
      "inputs": [],
      "name": "getContractInfo",
      "outputs": [
        {
          "internalType": "address",
          "name": "tokenAddress",
          "type": "address"
        },
        {
          "internalType": "uint256",
          "name": "tokenBalance",
          "type": "uint256"
        },
        {
          "internalType": "uint256",
          "name": "bnbPrice",
          "type": "uint256"
        },
        {
          "internalType": "uint256",
          "name": "stablecoinPrice",
          "type": "uint256"
        },
        {
          "internalType": "uint256",
          "name": "totalSold",
          "type": "uint256"
        },
        {
          "internalType": "address",
          "name": "usdtAddr",
          "type": "address"
        },
        {
          "internalType": "address",
          "name": "usdcAddr",
          "type": "address"
        },
        {
          "internalType": "uint256",
          "name": "usdtTokenRatio",
          "type": "uint256"
        },
        {
          "internalType": "uint256",
          "name": "usdcTokenRatio",
          "type": "uint256"
        }
      ],
      "stateMutability": "view",
      "type": "function"
    },
    {
      "inputs": [
        {
          "internalType": "address",
          "name": "buyer",
          "type": "address"
        }
      ],
      "name": "getCurrentPrice",
      "outputs": [
        {
          "internalType": "uint256",
          "name": "",
          "type": "uint256"
        }
      ],
      "stateMutability": "view",
      "type": "function"
    },
    {
      "inputs": [
        {
          "internalType": "address",
          "name": "user",
          "type": "address"
        }
      ],
      "name": "getReferralInfo",
      "outputs": [
        {
          "internalType": "address",
          "name": "referrer",
          "type": "address"
        },
        {
          "internalType": "uint256",
          "name": "totalReferrals",
          "type": "uint256"
        },
        {
          "internalType": "uint256",
          "name": "totalRewardsEarned",
          "type": "uint256"
        },
        {
          "internalType": "uint256",
          "name": "rewardPercentage",
          "type": "uint256"
        }
      ],
      "stateMutability": "view",
      "type": "function"
    },
    {
      "inputs": [
        {
          "internalType": "uint256",
          "name": "stakeId",
          "type": "uint256"
        }
      ],
      "name": "getStakeDetails",
      "outputs": [
        {
          "internalType": "uint256",
          "name": "lockPeriod",
          "type": "uint256"
        },
        {
          "internalType": "uint256",
          "name": "pendingRewards",
          "type": "uint256"
        },
        {
          "internalType": "bool",
          "name": "active",
          "type": "bool"
        }
      ],
      "stateMutability": "view",
      "type": "function"
    },
    {
      "inputs": [
        {
          "internalType": "uint256",
          "name": "stakeId",
          "type": "uint256"
        }
      ],
      "name": "getStakeInfo",
      "outputs": [
        {
          "internalType": "uint256",
          "name": "id",
          "type": "uint256"
        },
        {
          "internalType": "address",
          "name": "stakeOwnerAddr",
          "type": "address"
        },
        {
          "internalType": "uint256",
          "name": "amount",
          "type": "uint256"
        },
        {
          "internalType": "uint256",
          "name": "startTime",
          "type": "uint256"
        }
      ],
      "stateMutability": "view",
      "type": "function"
    },
    {
      "inputs": [],
      "name": "getStakingInfo",
      "outputs": [
        {
          "internalType": "uint256",
          "name": "baseApyRate",
          "type": "uint256"
        },
        {
          "internalType": "uint256",
          "name": "minStakingAmount",
          "type": "uint256"
        },
        {
          "internalType": "uint256",
          "name": "totalTokensStaked",
          "type": "uint256"
        },
        {
          "internalType": "uint256",
          "name": "totalRewardsPaid",
          "type": "uint256"
        },
        {
          "internalType": "uint256",
          "name": "numberOfStakers",
          "type": "uint256"
        }
      ],
      "stateMutability": "view",
      "type": "function"
    },
    {
      "inputs": [],
      "name": "getTokenBalances",
      "outputs": [
        {
          "internalType": "uint256",
          "name": "tokenBalance",
          "type": "uint256"
        },
        {
          "internalType": "uint256",
          "name": "usdtBalance",
          "type": "uint256"
        },
        {
          "internalType": "uint256",
          "name": "usdcBalance",
          "type": "uint256"
        }
      ],
      "stateMutability": "view",
      "type": "function"
    },
    {
      "inputs": [],
      "name": "getTotalPenaltyCollected",
      "outputs": [
        {
          "internalType": "uint256",
          "name": "",
          "type": "uint256"
        }
      ],
      "stateMutability": "view",
      "type": "function"
    },
    {
      "inputs": [
        {
          "internalType": "address",
          "name": "referrer",
          "type": "address"
        }
      ],
      "name": "getUserReferrals",
      "outputs": [
        {
          "internalType": "address[]",
          "name": "",
          "type": "address[]"
        }
      ],
      "stateMutability": "view",
      "type": "function"
    },
    {
      "inputs": [
        {
          "internalType": "address",
          "name": "user",
          "type": "address"
        }
      ],
      "name": "getUserStakes",
      "outputs": [
        {
          "components": [
            {
              "internalType": "uint256",
              "name": "id",
              "type": "uint256"
            },
            {
              "internalType": "uint256",
              "name": "amount",
              "type": "uint256"
            },
            {
              "internalType": "uint256",
              "name": "startTime",
              "type": "uint256"
            },
            {
              "internalType": "uint256",
              "name": "lockPeriod",
              "type": "uint256"
            },
            {
              "internalType": "uint256",
              "name": "lastRewardCalculation",
              "type": "uint256"
            },
            {
              "internalType": "uint256",
              "name": "pendingRewards",
              "type": "uint256"
            },
            {
              "internalType": "bool",
              "name": "active",
              "type": "bool"
            }
          ],
          "internalType": "struct TokenICO.Stake[]",
          "name": "",
          "type": "tuple[]"
        }
      ],
      "stateMutability": "view",
      "type": "function"
    },
    {
      "inputs": [
        {
          "internalType": "address",
          "name": "user",
          "type": "address"
        }
      ],
      "name": "getUserStakingInfo",
      "outputs": [
        {
          "internalType": "uint256",
          "name": "totalUserStaked",
          "type": "uint256"
        },
        {
          "internalType": "uint256",
          "name": "totalPendingRewards",
          "type": "uint256"
        },
        {
          "internalType": "uint256",
          "name": "activeStakesCount",
          "type": "uint256"
        }
      ],
      "stateMutability": "view",
      "type": "function"
    },
    {
      "inputs": [
        {
          "internalType": "address",
          "name": "user",
          "type": "address"
        }
      ],
      "name": "getUserTransactions",
      "outputs": [
        {
          "components": [
            {
              "internalType": "uint256",
              "name": "timestamp",
              "type": "uint256"
            },
            {
              "internalType": "address",
              "name": "user",
              "type": "address"
            },
            {
              "internalType": "address",
              "name": "tokenIn",
              "type": "address"
            },
            {
              "internalType": "address",
              "name": "tokenOut",
              "type": "address"
            },
            {
              "internalType": "uint256",
              "name": "amountIn",
              "type": "uint256"
            },
            {
              "internalType": "uint256",
              "name": "amountOut",
              "type": "uint256"
            },
            {
              "internalType": "string",
              "name": "transactionType",
              "type": "string"
            }
          ],
          "internalType": "struct TokenICO.Transaction[]",
          "name": "",
          "type": "tuple[]"
        }
      ],
      "stateMutability": "view",
      "type": "function"
    },
    {
      "inputs": [
        {
          "internalType": "uint256",
          "name": "stakeId",
          "type": "uint256"
        }
      ],
      "name": "harvestRewards",
      "outputs": [],
      "stateMutability": "nonpayable",
      "type": "function"
    },
    {
      "inputs": [
        {
          "internalType": "address",
          "name": "",
          "type": "address"
        }
      ],
      "name": "hasStaked",
      "outputs": [
        {
          "internalType": "bool",
          "name": "",
          "type": "bool"
        }
      ],
      "stateMutability": "view",
      "type": "function"
    },
    {
      "inputs": [],
      "name": "minStakeAmount",
      "outputs": [
        {
          "internalType": "uint256",
          "name": "",
          "type": "uint256"
        }
      ],
      "stateMutability": "view",
      "type": "function"
    },
    {
      "inputs": [],
      "name": "nextStakeId",
      "outputs": [
        {
          "internalType": "uint256",
          "name": "",
          "type": "uint256"
        }
      ],
      "stateMutability": "view",
      "type": "function"
    },
    {
      "inputs": [],
      "name": "owner",
      "outputs": [
        {
          "internalType": "address",
          "name": "",
          "type": "address"
        }
      ],
      "stateMutability": "view",
      "type": "function"
    },
    {
      "inputs": [],
      "name": "publicInterval",
      "outputs": [
        {
          "internalType": "uint256",
          "name": "",
          "type": "uint256"
        }
      ],
      "stateMutability": "view",
      "type": "function"
    },
    {
      "inputs": [],
      "name": "referralRewardPercentage",
      "outputs": [
        {
          "internalType": "uint256",
          "name": "",
          "type": "uint256"
        }
      ],
      "stateMutability": "view",
      "type": "function"
    },
    {
      "inputs": [
        {
          "internalType": "address",
          "name": "",
          "type": "address"
        }
      ],
      "name": "referralRewards",
      "outputs": [
        {
          "internalType": "uint256",
          "name": "",
          "type": "uint256"
        }
      ],
      "stateMutability": "view",
      "type": "function"
    },
    {
      "inputs": [
        {
          "internalType": "address",
          "name": "",
          "type": "address"
        },
        {
          "internalType": "uint256",
          "name": "",
          "type": "uint256"
        }
      ],
      "name": "referrals",
      "outputs": [
        {
          "internalType": "address",
          "name": "",
          "type": "address"
        }
      ],
      "stateMutability": "view",
      "type": "function"
    },
    {
      "inputs": [
        {
          "internalType": "address",
          "name": "",
          "type": "address"
        }
      ],
      "name": "referrers",
      "outputs": [
        {
          "internalType": "address",
          "name": "",
          "type": "address"
        }
      ],
      "stateMutability": "view",
      "type": "function"
    },
    {
      "inputs": [
        {
          "internalType": "address",
          "name": "referrer",
          "type": "address"
        }
      ],
      "name": "registerReferrer",
      "outputs": [],
      "stateMutability": "nonpayable",
      "type": "function"
    },
    {
      "inputs": [],
      "name": "saleStartTime",
      "outputs": [
        {
          "internalType": "uint256",
          "name": "",
          "type": "uint256"
        }
      ],
      "stateMutability": "view",
      "type": "function"
    },
    {
      "inputs": [],
      "name": "saleToken",
      "outputs": [
        {
          "internalType": "address",
          "name": "",
          "type": "address"
        }
      ],
      "stateMutability": "view",
      "type": "function"
    },
    {
      "inputs": [
        {
          "internalType": "address",
          "name": "user",
          "type": "address"
        },
        {
          "internalType": "bool",
          "name": "blocked",
          "type": "bool"
        }
      ],
      "name": "setBlockStatus",
      "outputs": [],
      "stateMutability": "nonpayable",
      "type": "function"
    },
    {
      "inputs": [
        {
          "internalType": "uint256",
          "name": "startTime",
          "type": "uint256"
        }
      ],
      "name": "setSaleStartTime",
      "outputs": [],
      "stateMutability": "nonpayable",
      "type": "function"
    },
    {
      "inputs": [
        {
          "internalType": "address",
          "name": "_token",
          "type": "address"
        }
      ],
      "name": "setSaleToken",
      "outputs": [],
      "stateMutability": "nonpayable",
      "type": "function"
    },
    {
      "inputs": [
        {
          "internalType": "address",
          "name": "_signer",
          "type": "address"
        }
      ],
      "name": "setSigner",
      "outputs": [],
      "stateMutability": "nonpayable",
      "type": "function"
    },
    {
      "inputs": [
        {
          "internalType": "address",
          "name": "user",
          "type": "address"
        },
        {
          "internalType": "bool",
          "name": "status",
          "type": "bool"
        }
      ],
      "name": "setWaitlisted",
      "outputs": [],
      "stateMutability": "nonpayable",
      "type": "function"
    },
    {
      "inputs": [],
      "name": "signer",
      "outputs": [
        {
          "internalType": "address",
          "name": "",
          "type": "address"
        }
      ],
      "stateMutability": "view",
      "type": "function"
    },
    {
      "inputs": [],
      "name": "solAddress",
      "outputs": [
        {
          "internalType": "address",
          "name": "",
          "type": "address"
        }
      ],
      "stateMutability": "view",
      "type": "function"
    },
    {
      "inputs": [],
      "name": "solRatio",
      "outputs": [
        {
          "internalType": "uint256",
          "name": "",
          "type": "uint256"
        }
      ],
      "stateMutability": "view",
      "type": "function"
    },
    {
      "inputs": [],
      "name": "stablecoinPriceIncrement",
      "outputs": [
        {
          "internalType": "uint256",
          "name": "",
          "type": "uint256"
        }
      ],
      "stateMutability": "view",
      "type": "function"
    },
    {
      "inputs": [
        {
          "internalType": "uint256",
          "name": "",
          "type": "uint256"
        }
      ],
      "name": "stakeOwners",
      "outputs": [
        {
          "internalType": "address",
          "name": "",
          "type": "address"
        }
      ],
      "stateMutability": "view",
      "type": "function"
    },
    {
      "inputs": [
        {
          "internalType": "uint256",
          "name": "amount",
          "type": "uint256"
        },
        {
          "internalType": "uint256",
          "name": "lockPeriodDays",
          "type": "uint256"
        }
      ],
      "name": "stakeTokens",
      "outputs": [],
      "stateMutability": "nonpayable",
      "type": "function"
    },
    {
      "inputs": [],
      "name": "tokensSold",
      "outputs": [
        {
          "internalType": "uint256",
          "name": "",
          "type": "uint256"
        }
      ],
      "stateMutability": "view",
      "type": "function"
    },
    {
      "inputs": [],
      "name": "totalPenaltyCollected",
      "outputs": [
        {
          "internalType": "uint256",
          "name": "",
          "type": "uint256"
        }
      ],
      "stateMutability": "view",
      "type": "function"
    },
    {
      "inputs": [],
      "name": "totalRewardsDistributed",
      "outputs": [
        {
          "internalType": "uint256",
          "name": "",
          "type": "uint256"
        }
      ],
      "stateMutability": "view",
      "type": "function"
    },
    {
      "inputs": [],
      "name": "totalStaked",
      "outputs": [
        {
          "internalType": "uint256",
          "name": "",
          "type": "uint256"
        }
      ],
      "stateMutability": "view",
      "type": "function"
    },
    {
      "inputs": [],
      "name": "totalStakers",
      "outputs": [
        {
          "internalType": "uint256",
          "name": "",
          "type": "uint256"
        }
      ],
      "stateMutability": "view",
      "type": "function"
    },
    {
      "inputs": [
        {
          "internalType": "uint256",
          "name": "stakeId",
          "type": "uint256"
        }
      ],
      "name": "unstakeEarly",
      "outputs": [],
      "stateMutability": "nonpayable",
      "type": "function"
    },
    {
      "inputs": [
        {
          "internalType": "uint256",
          "name": "stakeId",
          "type": "uint256"
        }
      ],
      "name": "unstakeTokens",
      "outputs": [],
      "stateMutability": "nonpayable",
      "type": "function"
    },
    {
      "inputs": [
        {
          "internalType": "address",
          "name": "newAddress",
          "type": "address"
        },
        {
          "internalType": "uint256",
          "name": "newRatio",
          "type": "uint256"
        }
      ],
      "name": "updateBTC",
      "outputs": [],
      "stateMutability": "nonpayable",
      "type": "function"
    },
    {
      "inputs": [
        {
          "internalType": "uint256",
          "name": "newAPY",
          "type": "uint256"
        }
      ],
      "name": "updateBaseAPY",
      "outputs": [],
      "stateMutability": "nonpayable",
      "type": "function"
    },
    {
      "inputs": [
        {
          "internalType": "address",
          "name": "newAddress",
          "type": "address"
        },
        {
          "internalType": "uint256",
          "name": "newRatio",
          "type": "uint256"
        }
      ],
      "name": "updateETH",
      "outputs": [],
      "stateMutability": "nonpayable",
      "type": "function"
    },
    {
      "inputs": [
        {
          "internalType": "uint256",
          "name": "newMinAmount",
          "type": "uint256"
        }
      ],
      "name": "updateMinStakeAmount",
      "outputs": [],
      "stateMutability": "nonpayable",
      "type": "function"
    },
    {
      "inputs": [
        {
          "internalType": "uint256",
          "name": "newPercentage",
          "type": "uint256"
        }
      ],
      "name": "updateReferralPercentage",
      "outputs": [],
      "stateMutability": "nonpayable",
      "type": "function"
    },
    {
      "inputs": [
        {
          "internalType": "address",
          "name": "newAddress",
          "type": "address"
        },
        {
          "internalType": "uint256",
          "name": "newRatio",
          "type": "uint256"
        }
      ],
      "name": "updateSOL",
      "outputs": [],
      "stateMutability": "nonpayable",
      "type": "function"
    },
    {
      "inputs": [
        {
          "internalType": "uint256",
          "name": "newPrice",
          "type": "uint256"
        }
      ],
      "name": "updateStablecoinPrice",
      "outputs": [],
      "stateMutability": "nonpayable",
      "type": "function"
    },
    {
      "inputs": [
        {
          "internalType": "uint256",
          "name": "newPrice",
          "type": "uint256"
        }
      ],
      "name": "updateTokenPrice",
      "outputs": [],
      "stateMutability": "nonpayable",
      "type": "function"
    },
    {
      "inputs": [
        {
          "internalType": "address",
          "name": "newAddress",
          "type": "address"
        },
        {
          "internalType": "uint256",
          "name": "newRatio",
          "type": "uint256"
        }
      ],
      "name": "updateUSDC",
      "outputs": [],
      "stateMutability": "nonpayable",
      "type": "function"
    },
    {
      "inputs": [
        {
          "internalType": "address",
          "name": "newAddress",
          "type": "address"
        },
        {
          "internalType": "uint256",
          "name": "newRatio",
          "type": "uint256"
        }
      ],
      "name": "updateUSDT",
      "outputs": [],
      "stateMutability": "nonpayable",
      "type": "function"
    },
    {
      "inputs": [],
      "name": "usdcAddress",
      "outputs": [
        {
          "internalType": "address",
          "name": "",
          "type": "address"
        }
      ],
      "stateMutability": "view",
      "type": "function"
    },
    {
      "inputs": [],
      "name": "usdcRatio",
      "outputs": [
        {
          "internalType": "uint256",
          "name": "",
          "type": "uint256"
        }
      ],
      "stateMutability": "view",
      "type": "function"
    },
    {
      "inputs": [],
      "name": "usdtAddress",
      "outputs": [
        {
          "internalType": "address",
          "name": "",
          "type": "address"
        }
      ],
      "stateMutability": "view",
      "type": "function"
    },
    {
      "inputs": [],
      "name": "usdtRatio",
      "outputs": [
        {
          "internalType": "uint256",
          "name": "",
          "type": "uint256"
        }
      ],
      "stateMutability": "view",
      "type": "function"
    },
    {
      "inputs": [
        {
          "internalType": "address",
          "name": "",
          "type": "address"
        }
      ],
      "name": "usedNonce",
      "outputs": [
        {
          "internalType": "uint256",
          "name": "",
          "type": "uint256"
        }
      ],
      "stateMutability": "view",
      "type": "function"
    },
    {
      "inputs": [
        {
          "internalType": "address",
          "name": "",
          "type": "address"
        },
        {
          "internalType": "uint256",
          "name": "",
          "type": "uint256"
        }
      ],
      "name": "userStakes",
      "outputs": [
        {
          "internalType": "uint256",
          "name": "id",
          "type": "uint256"
        },
        {
          "internalType": "uint256",
          "name": "amount",
          "type": "uint256"
        },
        {
          "internalType": "uint256",
          "name": "startTime",
          "type": "uint256"
        },
        {
          "internalType": "uint256",
          "name": "lockPeriod",
          "type": "uint256"
        },
        {
          "internalType": "uint256",
          "name": "lastRewardCalculation",
          "type": "uint256"
        },
        {
          "internalType": "uint256",
          "name": "pendingRewards",
          "type": "uint256"
        },
        {
          "internalType": "bool",
          "name": "active",
          "type": "bool"
        }
      ],
      "stateMutability": "view",
      "type": "function"
    },
    {
      "inputs": [
        {
          "internalType": "address",
          "name": "",
          "type": "address"
        },
        {
          "internalType": "uint256",
          "name": "",
          "type": "uint256"
        }
      ],
      "name": "userTransactions",
      "outputs": [
        {
          "internalType": "uint256",
          "name": "timestamp",
          "type": "uint256"
        },
        {
          "internalType": "address",
          "name": "user",
          "type": "address"
        },
        {
          "internalType": "address",
          "name": "tokenIn",
          "type": "address"
        },
        {
          "internalType": "address",
          "name": "tokenOut",
          "type": "address"
        },
        {
          "internalType": "uint256",
          "name": "amountIn",
          "type": "uint256"
        },
        {
          "internalType": "uint256",
          "name": "amountOut",
          "type": "uint256"
        },
        {
          "internalType": "string",
          "name": "transactionType",
          "type": "string"
        }
      ],
      "stateMutability": "view",
      "type": "function"
    },
    {
      "inputs": [],
      "name": "waitlistInterval",
      "outputs": [
        {
          "internalType": "uint256",
          "name": "",
          "type": "uint256"
        }
      ],
      "stateMutability": "view",
      "type": "function"
    },
    {
      "inputs": [],
      "name": "waitlistSold",
      "outputs": [
        {
          "internalType": "uint256",
          "name": "",
          "type": "uint256"
        }
      ],
      "stateMutability": "view",
      "type": "function"
    },
    {
      "inputs": [
        {
          "internalType": "address",
          "name": "",
          "type": "address"
        }
      ],
      "name": "waitlisted",
      "outputs": [
        {
          "internalType": "bool",
          "name": "",
          "type": "bool"
        }
      ],
      "stateMutability": "view",
      "type": "function"
    },
    {
      "inputs": [
        {
          "internalType": "address",
          "name": "_token",
          "type": "address"
        },
        {
          "internalType": "uint256",
          "name": "_amount",
          "type": "uint256"
        }
      ],
      "name": "withdrawTokens",
      "outputs": [],
      "stateMutability": "nonpayable",
      "type": "function"
    }
  ],
  "bytecode": "0x60a08060405234620001e357602060089166013e52b9abe00060065566038d7ea4c6800060075561c350601255603c6013556014601e8155600c60195568056bc75e2d63100000601a55600183556005602255336080523360018060a01b031960265416176026558084558060095580600a5580600b55600d556200008481620001e8565b8281520167546f6b656e49434f60c01b81522060016020604051620000a981620001e8565b82815201603160f81b815220906040519160208301917f8b73c3c69bb8fe3d512ecc4cf759cc79239f7b179b0ffacaa9a75d522b39400f8352604084015260608301524660808301523060a083015260a0825260c082019180831060018060401b03841117620001cd5782604052519020602755615c689081620002058239608051818181610537015281816107d2015281816108ed01528181610d0a01528181610e36015281816110db015281816116e601528181611a4c01528181611d910152818161213801528181612232015281816122d70152818161239f015281816127f901528181612c1f01528181612ccf01528181612e1a01528181612eec0152818161325b0152818161381501528181613a2901528181613b2e0152613c850152f35b634e487b7160e01b600052604160045260246000fd5b600080fd5b604081019081106001600160401b03821117620001cd5760405256fe6080604081815260048036101561001557600080fd5b60009260e08435811c91826302d4545714613e7d57508163032d975b14613e5d57816306360b8514613e3057816306b091f914613c645781630981348214613b9457816314ce670b14613b80578163182a676b14613aea5781631c042d3514613aca5781631cbaee2d14613aaa5781631ce24e1614613a805781631e37c606146139fc57816320f1fc61146139b0578163214405a91461399057816321874ae21461392f578163238ac93314613905578163251545da1461370557816327506f53146136255781632ba77022146136115781632bb3880914612db45781632fd04c08146132e25781633644e515146132c25781633a5d4175146132ae5781633a94be2d1461322d5781633b7b618814612f435781633e4e645314612ebf5781633e61e9dc14612e8657816341398b1514612e5c57816342e97cb814612df45781634561f1e114612dd4578163491cc75614612db45781634a3b68cc14612d785781634cdb312d14612cb35781634f93208a14612c74578163518ab2a814612c54578163525f8a5c14612c0657816353aaa63b14612bcd57816357126d0d1461299e578163575cea6b146128f35781635b365040146126e9578163608e4dd01461240d57816363219c721461236057816364f1d11314612340578163676c0d77146122985781636c19e783146122095781636f43f373146121e957816371d20fe71461211c57816375506c96146120fd578163776ff66a146120dd578163794a32921461209e5781637a9773dc1461207e5781637cc1f86714611f9f5781637df7418114611b375781637ea61fe3146119a757816380933608146118c4578163817b1cd2146118a457816383fabe0314611884578163842e29811461177c57816384cc315b14611755578163862dd2e21461173557816386989038146117155781638da5cb5b146116d0578163920a253e146116b057816392feb8491461168857816394dc9cf314611580578163963c9dd3146114a55781639ab4a4451461147b5781639c0fbd051461145e5781639ea7685a146112b6578163a0b3b93014611296578163a1dc903114611120578163a29f481c146110b2578163a77c80aa1461107c578163a7c6016014610f30578163aeccf73514610d61578163b006984f14610cdd578163b3b9470614610cbd578163b40cd21d14610c7b578163b5d5b5fa14610be857508063b842ec4414610b6a578063bc5894ba14610b4b578063c93c8f3414610b0d578063d3ea435014610ae6578063d7ff07141461099e578063d8060cd5146108d2578063d8dc286a146108ac578063e697b5d814610851578063e985e36714610829578063ebcd3a13146107a6578063ecb2dd741461076b578063ee1725461461074c578063ef9253991461066e578063f18876841461064b578063f30ef2e514610496578063f7d76ae51461046f5763fd9a11e51461043a57600080fd5b3461046b57602036600319011261046b57358252601c6020908152918190205490516001600160a01b039091168152f35b8280fd5b503461046b578260031936011261046b575490516001600160a01b03909116815260209150f35b503461046b57602036600319011261046b5780359033845260106020526104c360ff848620541615614440565b6104ce8215156145e6565b83546001600160a01b0392906104e790841615156144f8565b82600554166104f781151561485a565b610503600d5483614394565b92633b9aca00938481029481860414901517156106385785516323b872dd60e01b8152339181019182526001600160a01b037f00000000000000000000000000000000000000000000000000000000000000001660208381019190915260408301859052909392909184919082908a90829060600103925af1801561062e57600080516020615c13833981519152936105aa6105af926105fa958a91610600575b5061489b565b6151ba565b936105b9856153f4565b6105d681600554168684848b54166105cf6145c7565b9333615b11565b60055416945191829133954291846040919493926060820195825260208201520152565b0390a380f35b610621915060203d8111610627575b610619818361413d565b810190614674565b386105a4565b503d61060f565b85513d88823e3d90fd5b634e487b7160e01b875260119052602486fd5b50503461066a578160031936011261066a57602090601a549051908152f35b5080fd5b5082903461066a5760209182600319360112610749576001600160a01b039283610696613ea2565b16825260168152848220918254936106ad85615b6d565b956106ba8851978861413d565b85875283870194835283832092945b8686106106e1578851806106dd8a82613f98565b0390f35b6007856001928b516106f2816140b7565b8754815285858901541683820152856002890154168d820152856003890154166060820152868801546080820152600588015460a08201526107366006890161415f565b60c08201528152019401950194926106c9565b80fd5b50503461066a578160031936011261066a57602090601e549051908152f35b50503461066a578160031936011261066a57602090517f91b089318bbdf627bacec662873c12cc3afdc69db73f084d7726e9ce2907280a8152f35b50503461066a57366003190112610749576107bf613ea2565b602435906001600160a01b03906107f9337f0000000000000000000000000000000000000000000000000000000000000000841614614262565b166108058115156142d7565b610810821515614315565b6001600160601b0360a01b6005541617600555600d5580f35b50503461066a578160031936011261066a57905490516001600160a01b039091168152602090f35b50503461066a578060031936011261066a5761086b613ea2565b6001600160a01b0390811683526024602081905282842080549135949091851015610749575060209361089d9161424a565b92905490519260031b1c168152f35b50503461066a578160031936011261066a57602090516a01a784379d99db420000008152f35b503461046b57602036600319011261046b5780359061091b337f00000000000000000000000000000000000000000000000000000000000000006001600160a01b031614614262565b811561095b5750907f171aabb8815c02fd00303450a77058600e3661eb75ce2e77972c0f080bc7099d91601a549080601a5582519182526020820152a180f35b606490602084519162461bcd60e51b8352820152602060248201527f4d696e207374616b65206d7573742062652067726561746572207468616e20306044820152fd5b503461046b57602036600319011261046b573560175481101561046b576017600792935202906106dd827fc624b66cc0138b8fabc209247f72d758e1cf3343756d543badbf24212bed8c1501549160018060a01b0393847fc624b66cc0138b8fabc209247f72d758e1cf3343756d543badbf24212bed8c168201541694807fc624b66cc0138b8fabc209247f72d758e1cf3343756d543badbf24212bed8c1783015416907fc624b66cc0138b8fabc209247f72d758e1cf3343756d543badbf24212bed8c18830154167fc624b66cc0138b8fabc209247f72d758e1cf3343756d543badbf24212bed8c1983015491610adb7fc624b66cc0138b8fabc209247f72d758e1cf3343756d543badbf24212bed8c1b7fc624b66cc0138b8fabc209247f72d758e1cf3343756d543badbf24212bed8c1a860154950161415f565b945197889788614205565b5091346107495760203660031901126107495750610b0660209235614f6e565b9051908152f35b50503461066a57602036600319011261066a5760209160ff9082906001600160a01b03610b38613ea2565b1681526021855220541690519015158152f35b50503461066a578160031936011261066a57602090600b549051908152f35b5091903461066a578060031936011261066a57610b85613ea2565b6001600160a01b0390811683526016602052818320805491936024359283101561074957506106dd9291610bb89161404b565b50805493806001830154169581600284015416916003840154169083015491610adb60066005860154950161415f565b93905034610749578260031936011261074957610c03613ea2565b6001600160a01b03168152601b60205282812080546024359290831015610749575090610c2f9161404b565b5080549260018201549260028301546003840154918401549260ff600660058701549601541695815197885260208801528601526060850152608084015260a0830152151560c0820152f35b5050503461066a578160031936011261066a5760a09060195490601a5490601d54601e5491601f54938151958652602086015284015260608301526080820152f35b5050503461066a578160031936011261066a576020906012549051908152f35b5050503461066a5736600319011261074957610cf7613ea2565b602435906001600160a01b0390610d31337f0000000000000000000000000000000000000000000000000000000000000000841614614262565b16610d3d8115156142d7565b610d48821515614315565b6001600160601b0360a01b600154161760015560085580f35b50503461046b57602036600319011261046b578035903384526010602052610d8f60ff848620541615614440565b811591610d9c83156145e6565b84546001600160a01b039390610db590851615156144f8565b8360025416610dc58115156146cf565b620f42409182840292848404141715610f1d57610de1336143b4565b610ded60075485614394565b670de0b6b3a764000090818102918183041490151715610f0a5791610e19610e76959492602094614374565b88516323b872dd60e01b8152339781019788526001600160a01b037f00000000000000000000000000000000000000000000000000000000000000001660208901526040880193909352959194859283918b918391606090910190565b03925af1801561062e57600080516020615c13833981519152936105aa610ea8926105fa958a91610eec575b50614711565b93610eb2856153f4565b610ec881600254168684848b54166105cf6145c7565b60025416945191829133954291846040919493926060820195825260208201520152565b610f04915060203d811161062757610619818361413d565b38610ea2565b634e487b7160e01b895260118652602489fd5b634e487b7160e01b875260118452602487fd5b50503461046b57602036600319011261046b578035903384526010602052610f5e60ff848620541615614440565b811591610f6b83156145e6565b84546001600160a01b039390610f8490851615156144f8565b8360015416610f94811515614632565b620f42409182840292848404141715610f1d57610fb0336143b4565b610fbc60075485614394565b670de0b6b3a764000090818102918183041490151715610f0a5791610e19610fe8959492602094614374565b03925af1801561062e57600080516020615c13833981519152936105aa61101a926105fa958a9161105e575b5061468c565b93611024856153f4565b61103a81600154168684848b54166105cf6145c7565b60015416945191829133954291846040919493926060820195825260208201520152565b611076915060203d811161062757610619818361413d565b38611014565b50503461046b57610d8f9061109036613eeb565b949291909133885260106020526110ad60ff888a20541615614440565b6148f1565b8434610749576020366003190112610749576110cc613ea2565b6001600160a01b0390611102337f0000000000000000000000000000000000000000000000000000000000000000841614614262565b1661110e8115156142d7565b81546001600160a01b03191617815580f35b5050903461046b578260031936011261046b57825481516370a0823160e01b808252308286015290946001600160a01b03946020938490889060249082908a165afa95861561128c57829661125c575b602497508481600154168751998a809288825230878301525afa978815611252578398611222575b509060248592600254169487519586938492835230908301525afa9283156112165781936111e3575b5050506106dd9151938493846040919493926060820195825260208201520152565b9091809350813d831161120f575b6111fb818361413d565b810103126107495750516106dd38806111c1565b503d6111f1565b508351903d90823e3d90fd5b9097508481813d831161124b575b61123a818361413d565b8101031261046b5751966024611198565b503d611230565b86513d85823e3d90fd5b95508387813d8311611285575b611273818361413d565b8101031261066a576024965195611170565b503d611269565b85513d84823e3d90fd5b5050503461066a578160031936011261066a576020906006549051908152f35b5050903461046b5760208060031936011261145a576112d3613ea2565b92338552601082526112eb60ff848720541615614440565b6001600160a01b03938416938415611418573385146113de57338652602383528386205416611392575060159033855260238152828520846001600160601b0360a01b8254161790558385526024815261134733848720614481565b3385525260018184209160ff1992828482541617905583855284209182541617905533907f5f1ca2fcc108b751843a763e60d2201f593516109d7dbb1b700468f2d4190bb78380a380f35b915162461bcd60e51b815291820152602260248201527f416c72656164792072656769737465726564207769746820612072656665727260448201526132b960f11b6064820152608490fd5b50915162461bcd60e51b815291820152601560248201527421b0b73737ba103932b332b9103cb7bab939b2b63360591b6044820152606490fd5b50915162461bcd60e51b815291820152601860248201527f496e76616c6964207265666572726572206164647265737300000000000000006044820152606490fd5b8380fd5b5050503461066a578160031936011261066a576020905160058152f35b5050503461066a578160031936011261066a5760015490516001600160a01b039091168152602090f35b50503461046b576020908160031936011261145a5735808452601c8252828420546001600160a01b0316939092906114de851515614eae565b6114e6615bda565b8195825b818452601b808752858520805483101561156b57611509838a9261404b565b50541461151f575061151a90614e9f565b6114ea565b60609850611542935084869161153c94611552975288522061404b565b50615b85565b9361154d6001614ef1565b614f6e565b60c0858501519401511515928251948552840152820152f35b5050505093611552915061154d606096614ef1565b50503461046b57602036600319011261046b5780359033845260106020526115ae60ff848620541615614440565b6115b98215156145e6565b83546001600160a01b03926115f4916115d590851615156144f8565b60208185600354166115e8811515614754565b610e19600b5483614394565b03925af1801561062e57600080516020615c13833981519152936105aa611626926105fa958a9161166a575b50614795565b93611630856153f4565b61164681600354168684848b54166105cf6145c7565b60035416945191829133954291846040919493926060820195825260208201520152565b611682915060203d811161062757610619818361413d565b38611620565b5050503461066a578160031936011261066a57602090516b01f04ef12cb04cf1580000008152f35b5050503461066a578160031936011261066a576020906022549051908152f35b5050503461066a578160031936011261066a57517f00000000000000000000000000000000000000000000000000000000000000006001600160a01b03168152602090f35b5050503461066a578160031936011261066a57602090601f549051908152f35b5050503461066a578160031936011261066a576020906013549051908152f35b5050503461066a57602036600319011261066a57602090610b06611777613ea2565b6143b4565b9150503461046b5760208060031936011261145a5790916001600160a01b036117a3613ea2565b168452601b8252808420918254916117ba83615b6d565b926117c78251948561413d565b8084528284018095885283882088915b838310611857575050505080519482860193838752518094528186019496915b8483106118045786860387f35b87518051875280850151878601528082015187830152606080820151908801526080808201519088015260a0808201519088015260c09081015115159087015296830196948101946001909201916117f7565b60078660019261186e859d999a9b9d9c989c615b85565b81520192019201919098969594989793976117d7565b5050503461066a578160031936011261066a576020906008549051908152f35b5050503461066a578160031936011261066a57602090601d549051908152f35b8385346107495760209081600319360112610749576118e1613ea2565b9091829182919082906001600160a01b0316815b818652601b808552888720805483101561198f5760ff6006611918858d9461404b565b50015416611931575b505061192c90614e9f565b6118f5565b82969461195f839a600161195661192c97611981968e611987998e8d8352522061404b565b500154906143a7565b99858a52875261197b611974898d8c2061404b565b5054614f6e565b906143a7565b93614e9f565b949088611921565b89518981526020810186905260408101889052606090f35b50503461046b576119d76119ba36613eeb565b939291909133885260106020526110ad60ff888a20541615614440565b6119e28115156145e6565b83546001600160a01b0391906119fb90831615156144f8565b8183541690611a0b8215156147d7565b611a17600c5482614394565b926402540be40093848102948186041490151715611b245785516323b872dd60e01b8152338682019081526001600160a01b037f000000000000000000000000000000000000000000000000000000000000000016602082810191909152604082018590529194859182908b90829060600103925af18015611b1a57600080516020615c13833981519152946105aa611abb926105fa968b91611afc575b50614818565b94611ac5866153f4565b611ada828254168785858c54166105cf6145c7565b5416945191829133954291846040919493926060820195825260208201520152565b611b14915060203d811161062757610619818361413d565b38611ab5565b86513d89823e3d90fd5b634e487b7160e01b875260118552602487fd5b828585366003190160a0811261046b5760801361066a5760843567ffffffffffffffff811161046b57611b6d9036908501613ebd565b919033845260209060108252611b8960ff848720541615614440565b60643590814211611f6a576001600160a01b03948735868116929190839003611f6657338303611f3057604435923389526028865286892054841115611f00576027549060243595898716809703611efc57885190888201927f91b089318bbdf627bacec662873c12cc3afdc69db73f084d7726e9ce2907280a84528a83015287606083015286608083015260a082015260a08152611c27816140e9565b5190208751908782019261190160f01b84526022830152604282015260428152611c5081614105565b51902090611c5d81614539565b92611c6a8851948561413d565b8184523682820111611ef857918987838694611c909683611c9899013784010152614d74565b919091614c5a565b858060265416911603611ec55733865260288352808487205583519081527fb23e07a4fc171f5f9242d4254c3b66b893beaab2f3787495c0f2d09dd3ef9726833392a28491811515908180611eb8575b80611ea4575b8481611e85575b50611e20575b601590338852528386209260ff1993600185825416179055611e1c57611e07575b50503415611d2a81156144bc565b611d388385541615156144f8565b611d41336143b4565b90670de0b6b3a76400009081340291348304141715611df45791611dd6611d7c6105aa600080516020615c1383398151915294889796614374565b93611d86856153f4565b611dc18680808034867f0000000000000000000000000000000000000000000000000000000000000000165af1611dbb614555565b50614585565b85541684611dcd6145c7565b91349033615ab2565b513481526020810192909252426040830152339180606081016105fa565b634e487b7160e01b855260118652602485fd5b84526001828520918254161790558480611d1c565b8580fd5b92611e1c5733865260238352838620826001600160601b0360a01b82541617905581865260248352611e5433858820614481565b6015869333847f5f1ca2fcc108b751843a763e60d2201f593516109d7dbb1b700468f2d4190bb78a80a39050611cfb565b9050611ea0578287526010815260ff85882054161584611cf5565b8680fd5b503387526023815285858820541615611cee565b5086935033831415611ce8565b835162461bcd60e51b8152808801849052600d60248201526c426164207369676e617475726560981b6044820152606490fd5b8980fd5b8a80fd5b865162461bcd60e51b8152808b01879052600a602482015269139bdb98d9481d5cd95960b21b6044820152606490fd5b855162461bcd60e51b8152808a01869052601060248201526f2737ba103cb7bab9103b37bab1b432b960811b6044820152606490fd5b8780fd5b835162461bcd60e51b8152808801849052600f60248201526e159bdd58da195c88195e1c1a5c9959608a1b6044820152606490fd5b9290503461145a578360031936011261145a57835481516370a0823160e01b815230938101939093526001600160a01b039081169390602084602481885afa93841561207457869461203c575b50610120955060065490600754600e54908260015416926002541693600854966009549881519a8b5260208b01528901526060880152608087015260a086015260c0850152830152610100820152f35b9093506020813d821161206c575b816120576020938361413d565b81010312611e1c576101209550519238611fec565b3d915061204a565b83513d88823e3d90fd5b5050503461066a578160031936011261066a57602090600d549051908152f35b5050503461066a57602036600319011261066a5760209160ff9082906001600160a01b036120ca613ea2565b1681526015855220541690519015158152f35b5050503461066a578160031936011261066a576020906014549051908152f35b5050503461066a578160031936011261066a5760209081549051908152f35b50503461046b57602036600319011261046b57803590612166337f00000000000000000000000000000000000000000000000000000000000000006001600160a01b031614614262565b81156121a65750907f787a1fca55641ce34a438271930bbb9401df20db2b4f510d4f252227d85df43d91601954908060195582519182526020820152a180f35b606490602084519162461bcd60e51b8352820152601a60248201527f415059206d7573742062652067726561746572207468616e20300000000000006044820152fd5b5050503461066a578160031936011261066a576020906009549051908152f35b843461074957602036600319011261074957612223613ea2565b6001600160a01b0390612259337f0000000000000000000000000000000000000000000000000000000000000000841614614262565b816026549116809282167f2d025324f0a785e8c12d0a0d91a9caa49df4ef20ff87e0df7213a1d4f3157beb8580a36001600160a01b0319161760265580f35b50503461046b57602036600319011261046b577f6e838f2a03741f5f2aff5480963b672fb0dd8430a4dc75db9b67ce009733c9fe9160a09135612305337f00000000000000000000000000000000000000000000000000000000000000006001600160a01b031614614262565b61231081151561429b565b60065491816006558051926060845260056060850152642a27a5a2a760d91b60808501526020840152820152a180f35b5050503461066a578160031936011261066a576020906007549051908152f35b50503461046b57602036600319011261046b577f6e838f2a03741f5f2aff5480963b672fb0dd8430a4dc75db9b67ce009733c9fe9160a091356123cd337f00000000000000000000000000000000000000000000000000000000000000006001600160a01b031614614262565b6123d881151561429b565b600754918160075580519260608452600a60608501526929aa20a12622a1a7a4a760b11b60808501526020840152820152a180f35b5050903461046b576020908160031936011261145a5782919235923385526010815260ff61244081848820541615614440565b848652601c8252828620546001600160a01b0390612461908216331461517c565b8694859283805b338b52601b808852888c2080548310156126d5579a61248983829c9d61404b565b5054146124a2575061249a90614e9f565b989798612468565b9550979850503389528385526124cb6124bd88888c2061404b565b509160068093015416614f2f565b33895283855260026124df88888c2061404b565b500154338a5284865260036124f689898d2061404b565b5001549062015180918281029281840414901517156126c25790612519916143a7565b42106126885791849161257c8a6125c29561255e6125368d614f6e565b9b3384528988528b61254a8282872061404b565b50946001809601549b3382528a522061404b565b500160ff198154169055601d612575888254614351565b9055614ef1565b6125853361533b565b61258f88866143a7565b8a54885163a9059cbb60e01b8152339381019384526020840192909252909485939091169183918c918391604090910190565b03925af190811561267e57906125df918891612661575b50614e5b565b84841515918261264d575b84519081527f7fc4727e062e336010f2c282598ef5f14facb3de68cf8195c2f23e1454b2b74e843392a361261c578480f35b7ff87cfa2d5feaea949ad65bb76a26d8553381bcb6382adbc83dedd48961bf32d991519283523392a3388080808480f35b61265986601e546143a7565b601e556125ea565b6126789150843d861161062757610619818361413d565b386125d9565b84513d89823e3d90fd5b855162461bcd60e51b8152808301869052601460248201527314dd1a5b1b081a5b881b1bd8dac81c195c9a5bd960621b6044820152606490fd5b634e487b7160e01b8b526011845260248bfd5b5050506125c29391509161257c8693614ef1565b50508260031936011261046b5733835260206010815261270f60ff848620541615614440565b34159061271c82156144bc565b6001546001600160a01b039290831690612737821515614632565b620f42409081340291348304141715611b245760075461275691614374565b9385516370a0823160e01b815230828201528381602481865afa80156128e957869189916128b8575b501061287557855163a9059cbb60e01b81523391810191825260208201869052939291829185919082908a90829060400103925af1801561062e577f48a1f8a6c840b32621ceab4439a2ccd00b337e705dfdcdec0b40c49abf3e6be3936127ee928892612858575b505061468c565b6128238580808034867f0000000000000000000000000000000000000000000000000000000000000000165af1611dbb614555565b612834816001541684611dcd614e3b565b600154935192835234602084015242604084015290921691339180606081016105fa565b61286e9250803d1061062757610619818361413d565b38806127e7565b855162461bcd60e51b8152908101839052601b60248201527f496e73756666696369656e742055534454206c697175696469747900000000006044820152606490fd5b809250858092503d83116128e2575b6128d1818361413d565b81010312611f66578590513861277f565b503d6128c7565b87513d8a823e3d90fd5b5050503461066a5760208060031936011261046b576001600160a01b03928361291a613ea2565b1681526024825282812091835190818185549182815201908195855282852090855b818110612988575050508261295291038361413d565b8451948186019282875251809352850193925b8281106129725785850386f35b8351871685529381019392810192600101612965565b82548a168452928401926001928301920161293c565b50503461046b576020908160031936011261145a578035913385526010815260ff936129cf85828820541615614440565b838652601c8252808620546001600160a01b0393906129f1908516331461517c565b8693875b338952601b808652848a208054831015612bba57612a14838a9261404b565b505414612a2a5750612a2590614e9f565b6129f5565b9697612a5391929394959650338a528787526006612a4a84888d2061404b565b50015416614f2f565b612a5c87614f6e565b958615612b7f5790612a8d91338a52808752896005612a7d8489842061404b565b500155338a52865284892061404b565b5042908301558654835163a9059cbb60e01b815233818501908152602081018890529092869284928390036040019183918c91165af1908115612b75578791612b58575b5015612b1e5750907ff87cfa2d5feaea949ad65bb76a26d8553381bcb6382adbc83dedd48961bf32d991601e612b088582546143a7565b9055519283523392a3612b1b6001614ef1565b80f35b82606492519162461bcd60e51b8352820152601660248201527514995dd85c99081d1c985b9cd9995c8819985a5b195960521b6044820152fd5b612b6f9150843d861161062757610619818361413d565b38612ad1565b83513d89823e3d90fd5b845162461bcd60e51b81528085018790526015602482015274139bc81c995dd85c991cc81d1bc81a185c9d995cdd605a1b6044820152606490fd5b505050505050509050612b1b9150614ef1565b5050503461066a57602036600319011261066a5760209181906001600160a01b03612bf6613ea2565b1681526025845220549051908152f35b84833461066a57602036600319011261066a57612c4d337f00000000000000000000000000000000000000000000000000000000000000006001600160a01b031614614262565b3560115580f35b5050503461066a578160031936011261066a57602090600e549051908152f35b5050503461066a57602036600319011261066a5760209160ff9082906001600160a01b03612ca0613ea2565b1681526010855220541690519015158152f35b50503461046b57602036600319011261046b57803590612cfd337f00000000000000000000000000000000000000000000000000000000000000006001600160a01b031614614262565b60148211612d3f5750907fd968a3cc702265c3ab67356df15ca21d50167b011f198b963e2a868e04e3d5e091602254908060225582519182526020820152a180f35b606490602084519162461bcd60e51b835282015260136024820152720a0cae4c6cadce8c2ceca40e8dede40d0d2ced606b1b6044820152fd5b5050503461066a57602036600319011261066a576020916001600160a01b0390829082612da3613ea2565b168152602385522054169051908152f35b5050503461066a578160031936011261066a576020906018549051908152f35b5050503461066a578160031936011261066a57602090600f549051908152f35b5050503461066a57612b1b90612e0936613f29565b91906001600160a01b0390612e41337f0000000000000000000000000000000000000000000000000000000000000000841614614262565b168452601560205283209060ff801983541691151516179055565b5050503461066a578160031936011261066a5760035490516001600160a01b039091168152602090f35b5050503461066a57602036600319011261066a5760209181906001600160a01b03612eaf613ea2565b1681526028845220549051908152f35b5050503461066a5736600319011261074957612ed9613ea2565b602435906001600160a01b0390612f13337f0000000000000000000000000000000000000000000000000000000000000000841614614262565b16612f1f8115156142d7565b612f2a821515614315565b6001600160601b0360a01b6003541617600355600b5580f35b8285853461066a578060031936011261066a5782356024359133845260209260108452612f7660ff838720541615614440565b601a5483106131ea5784546001600160a01b0316612f958115156144f8565b601e821480156131e0575b80156131d6575b80156131cb575b156131925782516323b872dd60e01b815233818901908152306020820152604081018690529091869183919082908a90829060600103925af19081156120745790612fff9187916131755750614e5b565b83549361300b85614e9f565b81558251613018816140b7565b85815281810185815284820142815260608301858152608084019042825260a08501928b845260c086019460018652338d52601b8852898d20805490600160401b82101561316157906130709160018201815561404b565b97909761314f57927fb4caaf29adda3eefee3ad552a8e85058589bf834c7466cae4ee58787f70589ed9b9c9d9e926130df9897959260069795518955516001890155516002880155516003870155519085015551600584015551151591019060ff801983541691151516179055565b858752601c8152828720336001600160601b0360a01b82541617905561310785601d546143a7565b601d5533875260218152828720805460ff811615613130575b505082519485528401523392a380f35b60ff19166001179055601f5461314590614e9f565b601f558780613120565b634e487b7160e01b8e528d8f5260248efd5b8f8f6041602492634e487b7160e01b835252fd5b61318c9150863d881161062757610619818361413d565b886125d9565b825162461bcd60e51b81528088018690526013602482015272125b9d985b1a59081b1bd8dac81c195c9a5bd9606a1b6044820152606490fd5b5061016d8214612fae565b5060b48214612fa7565b50605a8214612fa0565b815162461bcd60e51b8152808701859052601a60248201527f416d6f756e742062656c6f77206d696e696d756d207374616b650000000000006044820152606490fd5b5050903461046b5736600319011261066a57613247613ea2565b60243591906001600160a01b0390613282337f0000000000000000000000000000000000000000000000000000000000000000841614614262565b1661328e8115156142d7565b613299831515614315565b81546001600160a01b031916179055600c5580f35b50503461046b576115ae9061109036613eeb565b5050503461066a578160031936011261066a576020906027549051908152f35b50509134610749576020928360031936011261066a578035903383526010855260ff9161331483868620541615614440565b808452601c8652848420546001600160a01b039690613336908816331461517c565b8495855b338752601b80845282882080548310156135fe5761335983879261404b565b50541461336f575061336a90614e9f565b61333a565b919293949596975033885281845261339a61338c82858b2061404b565b509760068099015416614f2f565b33885281845260026133ae82858b2061404b565b50015433895282855260036133c583868c2061404b565b5001549062015180918281029281840414901517156135eb57996133f086928b9c9b98999a9b6143a7565b926133fa89614f6e565b9a33895285845261340d82888b2061404b565b5091876001809401549a80974210613591575b906134369291613496989933825288522061404b565b500160ff198154169055601d61344d898254614351565b9055986134638b61345e878b614351565b6143a7565b8c54875163a9059cbb60e01b8152339381019384526020840192909252909485939091169183918e918391604090910190565b03925af190811561358757976134b787926134f79a8c916135705750614e5b565b80613530575b50508015613500577f9c9ec3cfa814b0112b71c20d0b0ab54dead00a99fd389c174df717d2f1d364039282519485528401523392a3614ef1565b612b1b3361533b565b50907f7fc4727e062e336010f2c282598ef5f14facb3de68cf8195c2f23e1454b2b74e91519283523392a3614ef1565b601e61353d8282546143a7565b905583519081527ff87cfa2d5feaea949ad65bb76a26d8553381bcb6382adbc83dedd48961bf32d9853392a384386134bd565b6126789150873d891161062757610619818361413d565b83513d8b823e3d90fd5b505091935091935060058089029089820414891517156135d85791613436889492888f60646134969997049960186135ca8c82546143a7565b905599985090919250613420565b634e487b7160e01b8d5260118b5260248dfd5b634e487b7160e01b8a526011885260248afd5b505050505050505091506134f790614ef1565b50503461046b57610f5e9061109036613eeb565b50508234610749578060031936011261074957906017549061364682615b6d565b926136538551948561413d565b82845260178152906020907fc624b66cc0138b8fabc209247f72d758e1cf3343756d543badbf24212bed8c15908286015b858510613698578751806106dd8982613f98565b6007846001928a516136a9816140b7565b86548152848060a01b0380868901541684830152806002890154168d8301526003880154166060820152858701546080820152600587015460a08201526136f26006880161415f565b60c0820152815201930194019391613684565b50508260031936011261046b5733835260206010815261372b60ff848620541615614440565b34159061373882156144bc565b6002546001600160a01b0392908316906137538215156146cf565b620f42409081340291348304141715611b245760075461377291614374565b9385516370a0823160e01b815230828201528381602481865afa80156128e957869189916138d4575b501061389157855163a9059cbb60e01b81523391810191825260208201869052939291829185919082908a90829060400103925af1801561062e577f48a1f8a6c840b32621ceab4439a2ccd00b337e705dfdcdec0b40c49abf3e6be39361380a928892613874575b5050614711565b61383f8580808034867f0000000000000000000000000000000000000000000000000000000000000000165af1611dbb614555565b613850816002541684611dcd614e3b565b600254935192835234602084015242604084015290921691339180606081016105fa565b61388a9250803d1061062757610619818361413d565b3880613803565b855162461bcd60e51b8152908101839052601b60248201527f496e73756666696369656e742055534443206c697175696469747900000000006044820152606490fd5b809250858092503d83116138fe575b6138ed818361413d565b81010312611f66578590513861379b565b503d6138e3565b5050503461066a578160031936011261066a5760265490516001600160a01b039091168152602090f35b5050503461066a57602036600319011261066a576080916001600160a01b0380613957613ea2565b16825260236020528282205416916024602052808083205492602560205220549060225492815194855260208501528301526060820152f35b5050503461066a578160031936011261066a576020906019549051908152f35b8285858160031936011261066a5733825260106020526139d660ff828420541615614440565b3415906139e382156144bc565b82546001600160a01b039290611d3890841615156144f8565b5050503461066a5736600319011261074957613a16613ea2565b602435906001600160a01b0390613a50337f0000000000000000000000000000000000000000000000000000000000000000841614614262565b16613a5c8115156142d7565b613a67821515614315565b6001600160601b0360a01b600254161760025560095580f35b5050503461066a578160031936011261066a5760055490516001600160a01b039091168152602090f35b5050503461066a578160031936011261066a576020906011549051908152f35b5050503461066a578160031936011261066a57602090600c549051908152f35b5050503461066a577fdda6207409a585801122fb885dcaa8074f9a21f25ff2def680c67f01a86c2c9b6020613b1e36613f29565b906001600160a01b0390613b55337f0000000000000000000000000000000000000000000000000000000000000000841614614262565b169384865260108352613b76828288209060ff801983541691151516179055565b519015158152a280f35b50503461046b576104c39061109036613eeb565b8385843461066a576020908160031936011261046b573592838352601c825260018060a01b03818420541692613bcb841515614eae565b613bd3615bda565b8195825b868452601b8087528585208054831015613c5257613bf683859261404b565b505414613c0c5750613c0790614e9f565b613bd7565b6080985061153c93508591925093613c299488825287522061404b565b90613c346001614ef1565b81519381848401519301519382519586528501528301526060820152f35b50505050919050613c34608095614ef1565b5050903461046b578060031936011261046b57613c7f613ea2565b602435907f00000000000000000000000000000000000000000000000000000000000000006001600160a01b03613cb93382841614614262565b808754169216918214613d74575b835163a9059cbb60e01b81526001600160a01b03909116858201908152602081810194909452909291839182908890829060400103925af1908115613d6a578491613d4c575b5015613d17578280f35b906020606492519162461bcd60e51b8352820152600f60248201526e151c985b9cd9995c8819985a5b1959608a1b6044820152fd5b613d64915060203d811161062757610619818361413d565b38613d0d565b82513d86823e3d90fd5b83516370a0823160e01b81523086820152602081602481865afa8015613e26578790613df3575b613da99150601d5490614351565b831115613cc757835162461bcd60e51b8152602081870152601d60248201527f43616e6e6f74207769746864726177207374616b656420746f6b656e730000006044820152606490fd5b506020813d8211613e1e575b81613e0c6020938361413d565b81010312611ea057613da99051613d9b565b3d9150613dff565b85513d89823e3d90fd5b50503461046b57602036600319011261046b57803533845260106020526119d760ff848620541615614440565b5050503461066a578160031936011261066a57602090600a549051908152f35b85903461066a578160031936011261066a576002546001600160a01b03168152602090f35b600435906001600160a01b0382168203613eb857565b600080fd5b9181601f84011215613eb85782359167ffffffffffffffff8311613eb85760208381860195010111613eb857565b90600319820160c08112613eb857608013613eb8576004916084359067ffffffffffffffff8211613eb857613f21918401613ebd565b909160a43590565b6040906003190112613eb8576004356001600160a01b0381168103613eb857906024358015158103613eb85790565b919082519283825260005b848110613f84575050826000602080949584010152601f8019910116010190565b602081830181015184830182015201613f63565b602080820190808352835180925260409283810182858560051b8401019601946000925b858410613fcd575050505050505090565b90919293949596858061403a600193603f198682030188528b5180518252858060a01b0380858301511685840152808983015116898401526060908183015116908301526080808201519083015260a0808201519083015260c0809101519160e080928201520190613f58565b990194019401929594939190613fbc565b8054821015614067576000526007602060002091020190600090565b634e487b7160e01b600052603260045260246000fd5b90600182811c921680156140ad575b602083101461409757565b634e487b7160e01b600052602260045260246000fd5b91607f169161408c565b60e0810190811067ffffffffffffffff8211176140d357604052565b634e487b7160e01b600052604160045260246000fd5b60c0810190811067ffffffffffffffff8211176140d357604052565b6080810190811067ffffffffffffffff8211176140d357604052565b6040810190811067ffffffffffffffff8211176140d357604052565b90601f8019910116810190811067ffffffffffffffff8211176140d357604052565b90604051918260008254926141738461407d565b9081845260019485811690816000146141e2575060011461419f575b505061419d9250038361413d565b565b9093915060005260209081600020936000915b8183106141ca57505061419d9350820101388061418f565b855488840185015294850194879450918301916141b2565b91505061419d94506020925060ff191682840152151560051b820101388061418f565b9360e0959261424798979492865260018060a01b0392838092166020880152166040860152166060840152608083015260a08201528160c08201520190613f58565b90565b80548210156140675760005260206000200190600090565b1561426957565b60405162461bcd60e51b815260206004820152600a60248201526927b7363c9037bbb732b960b11b6044820152606490fd5b156142a257565b60405162461bcd60e51b815260206004820152600d60248201526c496e76616c696420707269636560981b6044820152606490fd5b156142de57565b60405162461bcd60e51b815260206004820152600f60248201526e496e76616c6964206164647265737360881b6044820152606490fd5b1561431c57565b60405162461bcd60e51b815260206004820152600d60248201526c496e76616c696420726174696f60981b6044820152606490fd5b9190820391821161435e57565b634e487b7160e01b600052601160045260246000fd5b811561437e570490565b634e487b7160e01b600052601260045260246000fd5b8181029291811591840414171561435e57565b9190820180921161435e57565b6011549081158015614437575b614426576001600160a01b031660009081526015602052604090205460ff161561442e57601354905b811561442657614247916144016144069242614351565b614374565b61197b620f424061441c60125460075490614394565b0460065492614394565b505060065490565b601454906143ea565b508142106143c1565b1561444757565b60405162461bcd60e51b81526020600482015260126024820152711059191c995cdcc81a5cc8189b1bd8dad95960721b6044820152606490fd5b8054600160401b8110156140d35761449e9160018201815561424a565b819291549060031b9160018060a01b03809116831b921b1916179055565b156144c357565b60405162461bcd60e51b815260206004820152600d60248201526c26bab9ba1039b2b7321021272160991b6044820152606490fd5b156144ff57565b60405162461bcd60e51b815260206004820152601260248201527114d85b19481d1bdad95b881b9bdd081cd95d60721b6044820152606490fd5b67ffffffffffffffff81116140d357601f01601f191660200190565b3d15614580573d9061456682614539565b91614574604051938461413d565b82523d6000602084013e565b606090565b1561458c57565b60405162461bcd60e51b8152602060048201526013602482015272109390881d1c985b9cd9995c8819985a5b1959606a1b6044820152606490fd5b604051906145d482614121565b600382526242555960e81b6020830152565b156145ed57565b60405162461bcd60e51b815260206004820152601d60248201527f416d6f756e74206d7573742062652067726561746572207468616e20300000006044820152606490fd5b1561463957565b60405162461bcd60e51b81526020600482015260136024820152721554d115081b9bdd0818dbdb999a59dd5c9959606a1b6044820152606490fd5b90816020910312613eb857518015158103613eb85790565b1561469357565b60405162461bcd60e51b81526020600482015260146024820152731554d115081d1c985b9cd9995c8819985a5b195960621b6044820152606490fd5b156146d657565b60405162461bcd60e51b81526020600482015260136024820152721554d110c81b9bdd0818dbdb999a59dd5c9959606a1b6044820152606490fd5b1561471857565b60405162461bcd60e51b81526020600482015260146024820152731554d110c81d1c985b9cd9995c8819985a5b195960621b6044820152606490fd5b1561475b57565b60405162461bcd60e51b8152602060048201526012602482015271115512081b9bdd0818dbdb999a59dd5c995960721b6044820152606490fd5b1561479c57565b60405162461bcd60e51b8152602060048201526013602482015272115512081d1c985b9cd9995c8819985a5b1959606a1b6044820152606490fd5b156147de57565b60405162461bcd60e51b8152602060048201526012602482015271109510c81b9bdd0818dbdb999a59dd5c995960721b6044820152606490fd5b1561481f57565b60405162461bcd60e51b8152602060048201526013602482015272109510c81d1c985b9cd9995c8819985a5b1959606a1b6044820152606490fd5b1561486157565b60405162461bcd60e51b815260206004820152601260248201527114d3d3081b9bdd0818dbdb999a59dd5c995960721b6044820152606490fd5b156148a257565b60405162461bcd60e51b815260206004820152601360248201527214d3d3081d1c985b9cd9995c8819985a5b1959606a1b6044820152606490fd5b356001600160a01b0381168103613eb85790565b9190606083013591824211614c2357614909846148dd565b6001600160a01b0394903390861603614beb5760409283820135906000933385526020936028855286862054841115614bba57602754908561494a826148dd565b9101986149568a6148dd565b908b8a5192818a8501957f91b089318bbdf627bacec662873c12cc3afdc69db73f084d7726e9ce2907280a8752168c85015216606083015286608083015260a082015260a081526149a6816140e9565b5190208751908682019261190160f01b845260228301526042820152604281526149cf81614105565b519020906149dc81614539565b926149e98851948561413d565b8184523682820111611ea057918686838694611c909683614a0f99013784010152614d74565b868060265416911603614b86579060159133845260288252808585205584519081527fb23e07a4fc171f5f9242d4254c3b66b893beaab2f3787495c0f2d09dd3ef9726823392a285614a60866148dd565b16151580614b72575b80614b5e575b80614b3f575b614ac6575b338352528181209360ff199460018682541617905580614a99856148dd565b16614aa6575b5050505050565b614ab16001946148dd565b16815220918254161790553880808080614a9f565b614acf856148dd565b338452602382528685852091166001600160601b0360a01b82541617905585614af7866148dd565b16835260248152614b0a33858520614481565b3386614b15876148dd565b167f5f1ca2fcc108b751843a763e60d2201f593516109d7dbb1b700468f2d4190bb78580a3614a7a565b5085614b4a866148dd565b1683526010815260ff848420541615614a75565b503383526023815285848420541615614a6f565b503386614b7e876148dd565b161415614a69565b835162461bcd60e51b815260048101839052600d60248201526c426164207369676e617475726560981b6044820152606490fd5b865162461bcd60e51b815260048101869052600a602482015269139bdb98d9481d5cd95960b21b6044820152606490fd5b60405162461bcd60e51b815260206004820152601060248201526f2737ba103cb7bab9103b37bab1b432b960811b6044820152606490fd5b60405162461bcd60e51b815260206004820152600f60248201526e159bdd58da195c88195e1c1a5c9959608a1b6044820152606490fd5b6005811015614d5e5780614c6b5750565b60018103614cb85760405162461bcd60e51b815260206004820152601860248201527f45434453413a20696e76616c6964207369676e617475726500000000000000006044820152606490fd5b60028103614d055760405162461bcd60e51b815260206004820152601f60248201527f45434453413a20696e76616c6964207369676e6174757265206c656e677468006044820152606490fd5b600314614d0e57565b60405162461bcd60e51b815260206004820152602260248201527f45434453413a20696e76616c6964207369676e6174757265202773272076616c604482015261756560f01b6064820152608490fd5b634e487b7160e01b600052602160045260246000fd5b906041815114600014614da257614d9e916020820151906060604084015193015160001a90614dac565b9091565b5050600090600290565b9291907f7fffffffffffffffffffffffffffffff5d576e7357a4501ddfe92f46681b20a08311614e2f5791608094939160ff602094604051948552168484015260408301526060820152600093849182805260015afa15614e225781516001600160a01b03811615614e1c579190565b50600190565b50604051903d90823e3d90fd5b50505050600090600390565b60405190614e4882614121565b600482526314d1531360e21b6020830152565b15614e6257565b60405162461bcd60e51b8152602060048201526015602482015274151bdad95b881d1c985b9cd9995c8819985a5b1959605a1b6044820152606490fd5b600019811461435e5760010190565b15614eb557565b60405162461bcd60e51b815260206004820152601460248201527314dd185ad948191bd95cc81b9bdd08195e1a5cdd60621b6044820152606490fd5b15614ef857565b60405162461bcd60e51b815260206004820152600f60248201526e14dd185ad9481b9bdd08199bdd5b99608a1b6044820152606490fd5b15614f3657565b60405162461bcd60e51b815260206004820152601060248201526f5374616b65206e6f742061637469766560801b6044820152606490fd5b6000818152601c60209081526040808320546001600160a01b031690614f95821515614eae565b9293849390849081808080805b888b52601b808b52888c20805483101561516357614fc183899261404b565b505414614fd75750614fd290614e9f565b614fa2565b96509a5050505050508285528084528582862090614ff49161404b565b506005015495838652818552808387209061500e9161404b565b50600401549284875282865281818820906150289161404b565b50926001809401549686895281815283838a20906150459161404b565b50600301549689525286209061505a9161404b565b506006015460ff1661506e61507392614ef1565b614f2f565b42811461515c576150849042614351565b926019548092605a81146000146150e25750506003820291808304600314901517156150ce575061424793926150c263bbf81e00936150c79360011c905b614394565b04906143a7565b634e487b7160e01b81526011600452602490fd5b60b481036151185750508160011b91808304600214901517156150ce575061424793926150c263bbf81e00936150c79390614394565b61016d919493501461513d575b5061424793926150c263bbf81e00936150c793614394565b60038392930291808304600314901517156150ce575090614247615125565b5050505090565b5050509650965097935061507392915061506e90614ef1565b1561518357565b60405162461bcd60e51b815260206004820152600f60248201526e2737ba1039ba30b5b29037bbb732b960891b6044820152606490fd5b600033815260206023815260018060a01b039060408281852054169283151580615326575b6151eb57505050505090565b60646151f960225488614394565b8654845163a9059cbb60e01b81526001600160a01b03881660048201529290910460248301819052969190859082906044908290869088165af190811561531c5782916152ff575b50156152bb577f94ccb86446750660ec532b1beb1fb55f5ba2fffca042c4c53f4c080e72595b3893929181866152b19352602585528381206152848982546143a7565b90555416868884519261529684614121565b6008845267149151915494905360c21b878501528089615b11565b519384523393a390565b825162461bcd60e51b815260048101859052601f60248201527f526566657272616c20726577617264207472616e73666572206661696c6564006044820152606490fd5b6153169150853d871161062757610619818361413d565b38615241565b84513d84823e3d90fd5b508385526010835260ff8286205416156151df565b600090815b6001600160a01b0382166000908152601b6020526040902080548210156153ec57600661536f8360ff9361404b565b500154166153855761538090614e9f565b615340565b50905060015b15806153ca575b6153995750565b6001600160a01b03166000908152602160205260409020805460ff19169055601f54801561435e5760001901601f55565b506001600160a01b03811660009081526021602052604090205460ff16615392565b50509061538b565b60008054604080516370a0823160e01b81523060048083019190915293959491936020936001600160a01b0316918481602481865afa908115615691579084918991615660575b501061561d57600e546b01f04ef12cb04cf15800000061545b85836143a7565b116155e45783903389526015865260ff878a205416600014615570575050600f546a01a784379d99db4200000061549285836143a7565b1161552d579183916154a986956154e997956143a7565b600f555b6154b983600e546143a7565b600e55865163a9059cbb60e01b81523391810191825260208201939093529194859283918a918391604090910190565b03925af1928315615524575061419d939492615507575b5050614e5b565b61551d9250803d1061062757610619818361413d565b3880615500565b513d86823e3d90fd5b855162461bcd60e51b8152808301869052601b60248201527f4578636565647320776169746c69737420616c6c6f636174696f6e00000000006044820152606490fd5b6b01eea76cf512b316160000009161345e61558e92600f5490614351565b116155a157918392916154e994926154ad565b845162461bcd60e51b8152908101849052601960248201527f45786365656473207075626c696320616c6c6f636174696f6e000000000000006044820152606490fd5b855162461bcd60e51b81528083018690526013602482015272457863656564732073616c6520737570706c7960681b6044820152606490fd5b845162461bcd60e51b8152908101849052601a60248201527f496e73756666696369656e7420746f6b656e2062616c616e63650000000000006044820152606490fd5b809250868092503d831161568a575b615679818361413d565b81010312611f66578390513861543b565b503d61566f565b86513d8a823e3d90fd5b601754600160401b8110156140d357600190818101806017558110156140675760076000916017835202918351837fc624b66cc0138b8fabc209247f72d758e1cf3343756d543badbf24212bed8c15015560c07fc624b66cc0138b8fabc209247f72d758e1cf3343756d543badbf24212bed8c1b7fc624b66cc0138b8fabc209247f72d758e1cf3343756d543badbf24212bed8c1685019460018060a01b0360209681888a015116906001600160601b0360a01b91828254161790557fc624b66cc0138b8fabc209247f72d758e1cf3343756d543badbf24212bed8c1783018260408b015116828254161790557fc624b66cc0138b8fabc209247f72d758e1cf3343756d543badbf24212bed8c1883019160608a0151169082541617905560808701517fc624b66cc0138b8fabc209247f72d758e1cf3343756d543badbf24212bed8c1982015560a08701517fc624b66cc0138b8fabc209247f72d758e1cf3343756d543badbf24212bed8c1a820155019401519182519267ffffffffffffffff84116159135761582c865461407d565b601f81116158cd575b508491601f851160011461586e579394508492919083615863575b50501b916000199060031b1c1916179055565b015192503880615850565b86815285812093958591601f198316915b888383106158b3575050501061589a575b505050811b019055565b015160001960f88460031b161c19169055388080615890565b85870151885590960195948501948793509081019061587f565b868352858320601f860160051c810191878710615909575b601f0160051c019084905b8281106158fe575050615835565b8481550184906158f0565b90915081906158e5565b634e487b7160e01b82526041600452602482fd5b8054600160401b8110156140d35761594690600192838201815561404b565b615a9c578251815560c060068383019260018060a01b03602094818689015116906001600160601b0360a01b9182825416179055600283018260408a015116828254161790556003830191606089015116908254161790556080860151600482015560a08601516005820155019301519081519167ffffffffffffffff83116140d3576159d3855461407d565b601f8111615a53575b5081601f8411600114615a0a57509282939183926000946158635750501b916000199060031b1c1916179055565b919083601f1981168760005284600020946000905b88838310615a39575050501061589a57505050811b019055565b858701518855909601959485019487935090810190615a1f565b6000868152838120601f860160051c810192858710615a92575b601f0160051c019186905b838110615a87575050506159dc565b828155018690615a78565b9092508290615a6d565b634e487b7160e01b600052600060045260246000fd5b9261419d94919260405194615ac6866140b7565b42865260018060a01b038091169485602088015260006040880152166060860152608085015260a084015260c08301526000526016602052615b0c816040600020615927565b61569b565b9261419d959294919360405195615b27876140b7565b42875260018060a01b0380809316968760208a0152166040880152166060860152608085015260a084015260c08301526000526016602052615b0c816040600020615927565b67ffffffffffffffff81116140d35760051b60200190565b90604051615b92816140b7565b60c060ff600683958054855260018101546020860152600281015460408601526003810154606086015260048101546080860152600581015460a08601520154161515910152565b60405190615be7826140b7565b8160c06000918281528260208201528260408201528260608201528260808201528260a0820152015256fe377aadedb6b2a771959584d10a6a36eccb5f56b4eb3a48525f76108d2660d8d4a26469706673582212202cac7dd618724efcf1c8b0610de98a7c1a2e1934753c78a69b3e3bfb37eb0f5864736f6c63430008130033",
  "linkReferences": {},
  "deployedLinkReferences": {}
}