{
  "_format": "hh-sol-artifact-1",
  "contractName": "TokenICO",
  "sourceName": "contracts/TokenICO.sol",
  "abi": [
    {
      "inputs": [],
      "stateMutability": "nonpayable",
      "type": "constructor"
    },
    {
      "anonymous": false,
      "inputs": [
        {
          "indexed": false,
          "internalType": "uint256",
          "name": "oldAPY",
          "type": "uint256"
        },
        {
          "indexed": false,
          "internalType": "uint256",
          "name": "newAPY",
          "type": "uint256"
        }
      ],
      "name": "APYUpdated",
      "type": "event"
    },
    {
      "anonymous": false,
      "inputs": [
        {
          "indexed": true,
          "internalType": "address",
          "name": "user",
          "type": "address"
        },
        {
          "indexed": false,
          "internalType": "bool",
          "name": "blocked",
          "type": "bool"
        }
      ],
      "name": "AddressBlocked",
      "type": "event"
    },
    {
      "anonymous": false,
      "inputs": [
        {
          "indexed": true,
          "internalType": "address",
          "name": "user",
          "type": "address"
        },
        {
          "indexed": true,
          "internalType": "uint256",
          "name": "stakeId",
          "type": "uint256"
        },
        {
          "indexed": false,
          "internalType": "uint256",
          "name": "amount",
          "type": "uint256"
        },
        {
          "indexed": false,
          "internalType": "uint256",
          "name": "penalty",
          "type": "uint256"
        }
      ],
      "name": "EarlyUnstake",
      "type": "event"
    },
    {
      "anonymous": false,
      "inputs": [
        {
          "indexed": false,
          "internalType": "uint256",
          "name": "oldMinStake",
          "type": "uint256"
        },
        {
          "indexed": false,
          "internalType": "uint256",
          "name": "newMinStake",
          "type": "uint256"
        }
      ],
      "name": "MinStakeUpdated",
      "type": "event"
    },
    {
      "anonymous": false,
      "inputs": [
        {
          "indexed": false,
          "internalType": "string",
          "name": "priceType",
          "type": "string"
        },
        {
          "indexed": false,
          "internalType": "uint256",
          "name": "oldPrice",
          "type": "uint256"
        },
        {
          "indexed": false,
          "internalType": "uint256",
          "name": "newPrice",
          "type": "uint256"
        }
      ],
      "name": "PriceUpdated",
      "type": "event"
    },
    {
      "anonymous": false,
      "inputs": [
        {
          "indexed": false,
          "internalType": "uint256",
          "name": "oldPercentage",
          "type": "uint256"
        },
        {
          "indexed": false,
          "internalType": "uint256",
          "name": "newPercentage",
          "type": "uint256"
        }
      ],
      "name": "ReferralPercentageUpdated",
      "type": "event"
    },
    {
      "anonymous": false,
      "inputs": [
        {
          "indexed": true,
          "internalType": "address",
          "name": "referrer",
          "type": "address"
        },
        {
          "indexed": true,
          "internalType": "address",
          "name": "referee",
          "type": "address"
        }
      ],
      "name": "ReferralRegistered",
      "type": "event"
    },
    {
      "anonymous": false,
      "inputs": [
        {
          "indexed": true,
          "internalType": "address",
          "name": "referrer",
          "type": "address"
        },
        {
          "indexed": true,
          "internalType": "address",
          "name": "referee",
          "type": "address"
        },
        {
          "indexed": false,
          "internalType": "uint256",
          "name": "amount",
          "type": "uint256"
        }
      ],
      "name": "ReferralRewardPaid",
      "type": "event"
    },
    {
      "anonymous": false,
      "inputs": [
        {
          "indexed": true,
          "internalType": "address",
          "name": "user",
          "type": "address"
        },
        {
          "indexed": true,
          "internalType": "uint256",
          "name": "stakeId",
          "type": "uint256"
        },
        {
          "indexed": false,
          "internalType": "uint256",
          "name": "reward",
          "type": "uint256"
        }
      ],
      "name": "RewardHarvested",
      "type": "event"
    },
    {
      "anonymous": false,
      "inputs": [
        {
          "indexed": true,
          "internalType": "address",
          "name": "oldSigner",
          "type": "address"
        },
        {
          "indexed": true,
          "internalType": "address",
          "name": "newSigner",
          "type": "address"
        }
      ],
      "name": "SignerUpdated",
      "type": "event"
    },
    {
      "anonymous": false,
      "inputs": [
        {
          "indexed": true,
          "internalType": "address",
          "name": "buyer",
          "type": "address"
        },
        {
          "indexed": true,
          "internalType": "address",
          "name": "stablecoin",
          "type": "address"
        },
        {
          "indexed": false,
          "internalType": "uint256",
          "name": "stablecoinAmount",
          "type": "uint256"
        },
        {
          "indexed": false,
          "internalType": "uint256",
          "name": "bnbPaid",
          "type": "uint256"
        },
        {
          "indexed": false,
          "internalType": "uint256",
          "name": "timestamp",
          "type": "uint256"
        }
      ],
      "name": "StablecoinSold",
      "type": "event"
    },
    {
      "anonymous": false,
      "inputs": [
        {
          "indexed": true,
          "internalType": "address",
          "name": "user",
          "type": "address"
        },
        {
          "indexed": true,
          "internalType": "uint256",
          "name": "stakeId",
          "type": "uint256"
        },
        {
          "indexed": false,
          "internalType": "uint256",
          "name": "amount",
          "type": "uint256"
        },
        {
          "indexed": false,
          "internalType": "uint256",
          "name": "lockPeriod",
          "type": "uint256"
        }
      ],
      "name": "Staked",
      "type": "event"
    },
    {
      "anonymous": false,
      "inputs": [
        {
          "indexed": true,
          "internalType": "address",
          "name": "buyer",
          "type": "address"
        },
        {
          "indexed": true,
          "internalType": "address",
          "name": "paymentMethod",
          "type": "address"
        },
        {
          "indexed": false,
          "internalType": "uint256",
          "name": "amountPaid",
          "type": "uint256"
        },
        {
          "indexed": false,
          "internalType": "uint256",
          "name": "tokensBought",
          "type": "uint256"
        },
        {
          "indexed": false,
          "internalType": "uint256",
          "name": "timestamp",
          "type": "uint256"
        }
      ],
      "name": "TokensPurchased",
      "type": "event"
    },
    {
      "anonymous": false,
      "inputs": [
        {
          "indexed": true,
          "internalType": "address",
          "name": "user",
          "type": "address"
        },
        {
          "indexed": true,
          "internalType": "uint256",
          "name": "stakeId",
          "type": "uint256"
        },
        {
          "indexed": false,
          "internalType": "uint256",
          "name": "amount",
          "type": "uint256"
        }
      ],
      "name": "Unstaked",
      "type": "event"
    },
    {
      "anonymous": false,
      "inputs": [
        {
          "indexed": true,
          "internalType": "address",
          "name": "user",
          "type": "address"
        },
        {
          "indexed": false,
          "internalType": "uint256",
          "name": "nonce",
          "type": "uint256"
        }
      ],
      "name": "VoucherConsumed",
      "type": "event"
    },
    {
      "inputs": [],
      "name": "DOMAIN_SEPARATOR",
      "outputs": [
        {
          "internalType": "bytes32",
          "name": "",
          "type": "bytes32"
        }
      ],
      "stateMutability": "view",
      "type": "function"
    },
    {
      "inputs": [],
      "name": "EARLY_WITHDRAWAL_PENALTY_PERCENT",
      "outputs": [
        {
          "internalType": "uint256",
          "name": "",
          "type": "uint256"
        }
      ],
      "stateMutability": "view",
      "type": "function"
    },
    {
      "inputs": [],
      "name": "TOTAL_TOKENS_FOR_SALE",
      "outputs": [
        {
          "internalType": "uint256",
          "name": "",
          "type": "uint256"
        }
      ],
      "stateMutability": "view",
      "type": "function"
    },
    {
      "inputs": [],
      "name": "WAITLIST_ALLOCATION",
      "outputs": [
        {
          "internalType": "uint256",
          "name": "",
          "type": "uint256"
        }
      ],
      "stateMutability": "view",
      "type": "function"
    },
    {
      "inputs": [],
      "name": "WL_REF_TYPEHASH",
      "outputs": [
        {
          "internalType": "bytes32",
          "name": "",
          "type": "bytes32"
        }
      ],
      "stateMutability": "view",
      "type": "function"
    },
    {
      "inputs": [
        {
          "internalType": "uint256",
          "name": "",
          "type": "uint256"
        }
      ],
      "name": "allTransactions",
      "outputs": [
        {
          "internalType": "uint256",
          "name": "timestamp",
          "type": "uint256"
        },
        {
          "internalType": "address",
          "name": "user",
          "type": "address"
        },
        {
          "internalType": "address",
          "name": "tokenIn",
          "type": "address"
        },
        {
          "internalType": "address",
          "name": "tokenOut",
          "type": "address"
        },
        {
          "internalType": "uint256",
          "name": "amountIn",
          "type": "uint256"
        },
        {
          "internalType": "uint256",
          "name": "amountOut",
          "type": "uint256"
        },
        {
          "internalType": "string",
          "name": "transactionType",
          "type": "string"
        }
      ],
      "stateMutability": "view",
      "type": "function"
    },
    {
      "inputs": [],
      "name": "baseAPY",
      "outputs": [
        {
          "internalType": "uint256",
          "name": "",
          "type": "uint256"
        }
      ],
      "stateMutability": "view",
      "type": "function"
    },
    {
      "inputs": [
        {
          "internalType": "address",
          "name": "",
          "type": "address"
        }
      ],
      "name": "blockedAddresses",
      "outputs": [
        {
          "internalType": "bool",
          "name": "",
          "type": "bool"
        }
      ],
      "stateMutability": "view",
      "type": "function"
    },
    {
      "inputs": [],
      "name": "bnbPriceForStablecoin",
      "outputs": [
        {
          "internalType": "uint256",
          "name": "",
          "type": "uint256"
        }
      ],
      "stateMutability": "view",
      "type": "function"
    },
    {
      "inputs": [],
      "name": "bnbPriceForToken",
      "outputs": [
        {
          "internalType": "uint256",
          "name": "",
          "type": "uint256"
        }
      ],
      "stateMutability": "view",
      "type": "function"
    },
    {
      "inputs": [],
      "name": "bnbRatio",
      "outputs": [
        {
          "internalType": "uint256",
          "name": "",
          "type": "uint256"
        }
      ],
      "stateMutability": "view",
      "type": "function"
    },
    {
      "inputs": [],
      "name": "btcAddress",
      "outputs": [
        {
          "internalType": "address",
          "name": "",
          "type": "address"
        }
      ],
      "stateMutability": "view",
      "type": "function"
    },
    {
      "inputs": [],
      "name": "btcRatio",
      "outputs": [
        {
          "internalType": "uint256",
          "name": "",
          "type": "uint256"
        }
      ],
      "stateMutability": "view",
      "type": "function"
    },
    {
      "inputs": [],
      "name": "buyUSDC",
      "outputs": [],
      "stateMutability": "payable",
      "type": "function"
    },
    {
      "inputs": [],
      "name": "buyUSDT",
      "outputs": [],
      "stateMutability": "payable",
      "type": "function"
    },
    {
      "inputs": [],
      "name": "buyWithBNB",
      "outputs": [],
      "stateMutability": "payable",
      "type": "function"
    },
    {
      "inputs": [
        {
          "components": [
            {
              "internalType": "address",
              "name": "user",
              "type": "address"
            },
            {
              "internalType": "address",
              "name": "referrer",
              "type": "address"
            },
            {
              "internalType": "uint256",
              "name": "nonce",
              "type": "uint256"
            },
            {
              "internalType": "uint256",
              "name": "deadline",
              "type": "uint256"
            }
          ],
          "internalType": "struct TokenICO.WhitelistRef",
          "name": "v",
          "type": "tuple"
        },
        {
          "internalType": "bytes",
          "name": "sig",
          "type": "bytes"
        }
      ],
      "name": "buyWithBNB_Voucher",
      "outputs": [],
      "stateMutability": "payable",
      "type": "function"
    },
    {
      "inputs": [
        {
          "internalType": "uint256",
          "name": "btcAmount",
          "type": "uint256"
        }
      ],
      "name": "buyWithBTC",
      "outputs": [],
      "stateMutability": "nonpayable",
      "type": "function"
    },
    {
      "inputs": [
        {
          "components": [
            {
              "internalType": "address",
              "name": "user",
              "type": "address"
            },
            {
              "internalType": "address",
              "name": "referrer",
              "type": "address"
            },
            {
              "internalType": "uint256",
              "name": "nonce",
              "type": "uint256"
            },
            {
              "internalType": "uint256",
              "name": "deadline",
              "type": "uint256"
            }
          ],
          "internalType": "struct TokenICO.WhitelistRef",
          "name": "v",
          "type": "tuple"
        },
        {
          "internalType": "bytes",
          "name": "sig",
          "type": "bytes"
        },
        {
          "internalType": "uint256",
          "name": "btcAmount",
          "type": "uint256"
        }
      ],
      "name": "buyWithBTC_Voucher",
      "outputs": [],
      "stateMutability": "nonpayable",
      "type": "function"
    },
    {
      "inputs": [
        {
          "internalType": "uint256",
          "name": "ethAmount",
          "type": "uint256"
        }
      ],
      "name": "buyWithETH",
      "outputs": [],
      "stateMutability": "nonpayable",
      "type": "function"
    },
    {
      "inputs": [
        {
          "components": [
            {
              "internalType": "address",
              "name": "user",
              "type": "address"
            },
            {
              "internalType": "address",
              "name": "referrer",
              "type": "address"
            },
            {
              "internalType": "uint256",
              "name": "nonce",
              "type": "uint256"
            },
            {
              "internalType": "uint256",
              "name": "deadline",
              "type": "uint256"
            }
          ],
          "internalType": "struct TokenICO.WhitelistRef",
          "name": "v",
          "type": "tuple"
        },
        {
          "internalType": "bytes",
          "name": "sig",
          "type": "bytes"
        },
        {
          "internalType": "uint256",
          "name": "ethAmount",
          "type": "uint256"
        }
      ],
      "name": "buyWithETH_Voucher",
      "outputs": [],
      "stateMutability": "nonpayable",
      "type": "function"
    },
    {
      "inputs": [
        {
          "internalType": "uint256",
          "name": "solAmount",
          "type": "uint256"
        }
      ],
      "name": "buyWithSOL",
      "outputs": [],
      "stateMutability": "nonpayable",
      "type": "function"
    },
    {
      "inputs": [
        {
          "components": [
            {
              "internalType": "address",
              "name": "user",
              "type": "address"
            },
            {
              "internalType": "address",
              "name": "referrer",
              "type": "address"
            },
            {
              "internalType": "uint256",
              "name": "nonce",
              "type": "uint256"
            },
            {
              "internalType": "uint256",
              "name": "deadline",
              "type": "uint256"
            }
          ],
          "internalType": "struct TokenICO.WhitelistRef",
          "name": "v",
          "type": "tuple"
        },
        {
          "internalType": "bytes",
          "name": "sig",
          "type": "bytes"
        },
        {
          "internalType": "uint256",
          "name": "solAmount",
          "type": "uint256"
        }
      ],
      "name": "buyWithSOL_Voucher",
      "outputs": [],
      "stateMutability": "nonpayable",
      "type": "function"
    },
    {
      "inputs": [
        {
          "internalType": "uint256",
          "name": "usdcAmount",
          "type": "uint256"
        }
      ],
      "name": "buyWithUSDC",
      "outputs": [],
      "stateMutability": "nonpayable",
      "type": "function"
    },
    {
      "inputs": [
        {
          "components": [
            {
              "internalType": "address",
              "name": "user",
              "type": "address"
            },
            {
              "internalType": "address",
              "name": "referrer",
              "type": "address"
            },
            {
              "internalType": "uint256",
              "name": "nonce",
              "type": "uint256"
            },
            {
              "internalType": "uint256",
              "name": "deadline",
              "type": "uint256"
            }
          ],
          "internalType": "struct TokenICO.WhitelistRef",
          "name": "v",
          "type": "tuple"
        },
        {
          "internalType": "bytes",
          "name": "sig",
          "type": "bytes"
        },
        {
          "internalType": "uint256",
          "name": "usdcAmount",
          "type": "uint256"
        }
      ],
      "name": "buyWithUSDC_Voucher",
      "outputs": [],
      "stateMutability": "nonpayable",
      "type": "function"
    },
    {
      "inputs": [
        {
          "internalType": "uint256",
          "name": "usdtAmount",
          "type": "uint256"
        }
      ],
      "name": "buyWithUSDT",
      "outputs": [],
      "stateMutability": "nonpayable",
      "type": "function"
    },
    {
      "inputs": [
        {
          "components": [
            {
              "internalType": "address",
              "name": "user",
              "type": "address"
            },
            {
              "internalType": "address",
              "name": "referrer",
              "type": "address"
            },
            {
              "internalType": "uint256",
              "name": "nonce",
              "type": "uint256"
            },
            {
              "internalType": "uint256",
              "name": "deadline",
              "type": "uint256"
            }
          ],
          "internalType": "struct TokenICO.WhitelistRef",
          "name": "v",
          "type": "tuple"
        },
        {
          "internalType": "bytes",
          "name": "sig",
          "type": "bytes"
        },
        {
          "internalType": "uint256",
          "name": "usdtAmount",
          "type": "uint256"
        }
      ],
      "name": "buyWithUSDT_Voucher",
      "outputs": [],
      "stateMutability": "nonpayable",
      "type": "function"
    },
    {
      "inputs": [
        {
          "internalType": "uint256",
          "name": "stakeId",
          "type": "uint256"
        }
      ],
      "name": "calculateRewards",
      "outputs": [
        {
          "internalType": "uint256",
          "name": "",
          "type": "uint256"
        }
      ],
      "stateMutability": "view",
      "type": "function"
    },
    {
      "inputs": [],
      "name": "ethAddress",
      "outputs": [
        {
          "internalType": "address",
          "name": "",
          "type": "address"
        }
      ],
      "stateMutability": "view",
      "type": "function"
    },
    {
      "inputs": [],
      "name": "ethRatio",
      "outputs": [
        {
          "internalType": "uint256",
          "name": "",
          "type": "uint256"
        }
      ],
      "stateMutability": "view",
      "type": "function"
    },
    {
      "inputs": [],
      "name": "getAllTransactions",
      "outputs": [
        {
          "components": [
            {
              "internalType": "uint256",
              "name": "timestamp",
              "type": "uint256"
            },
            {
              "internalType": "address",
              "name": "user",
              "type": "address"
            },
            {
              "internalType": "address",
              "name": "tokenIn",
              "type": "address"
            },
            {
              "internalType": "address",
              "name": "tokenOut",
              "type": "address"
            },
            {
              "internalType": "uint256",
              "name": "amountIn",
              "type": "uint256"
            },
            {
              "internalType": "uint256",
              "name": "amountOut",
              "type": "uint256"
            },
            {
              "internalType": "string",
              "name": "transactionType",
              "type": "string"
            }
          ],
          "internalType": "struct TokenICO.Transaction[]",
          "name": "",
          "type": "tuple[]"
        }
      ],
      "stateMutability": "view",
      "type": "function"
    },
    {
      "inputs": [],
      "name": "getContractInfo",
      "outputs": [
        {
          "internalType": "address",
          "name": "tokenAddress",
          "type": "address"
        },
        {
          "internalType": "uint256",
          "name": "tokenBalance",
          "type": "uint256"
        },
        {
          "internalType": "uint256",
          "name": "bnbPrice",
          "type": "uint256"
        },
        {
          "internalType": "uint256",
          "name": "stablecoinPrice",
          "type": "uint256"
        },
        {
          "internalType": "uint256",
          "name": "totalSold",
          "type": "uint256"
        },
        {
          "internalType": "address",
          "name": "usdtAddr",
          "type": "address"
        },
        {
          "internalType": "address",
          "name": "usdcAddr",
          "type": "address"
        },
        {
          "internalType": "uint256",
          "name": "usdtTokenRatio",
          "type": "uint256"
        },
        {
          "internalType": "uint256",
          "name": "usdcTokenRatio",
          "type": "uint256"
        }
      ],
      "stateMutability": "view",
      "type": "function"
    },
    {
      "inputs": [
        {
          "internalType": "address",
          "name": "buyer",
          "type": "address"
        }
      ],
      "name": "getCurrentPrice",
      "outputs": [
        {
          "internalType": "uint256",
          "name": "",
          "type": "uint256"
        }
      ],
      "stateMutability": "view",
      "type": "function"
    },
    {
      "inputs": [
        {
          "internalType": "address",
          "name": "user",
          "type": "address"
        }
      ],
      "name": "getReferralInfo",
      "outputs": [
        {
          "internalType": "address",
          "name": "referrer",
          "type": "address"
        },
        {
          "internalType": "uint256",
          "name": "totalReferrals",
          "type": "uint256"
        },
        {
          "internalType": "uint256",
          "name": "totalRewardsEarned",
          "type": "uint256"
        },
        {
          "internalType": "uint256",
          "name": "rewardPercentage",
          "type": "uint256"
        }
      ],
      "stateMutability": "view",
      "type": "function"
    },
    {
      "inputs": [
        {
          "internalType": "uint256",
          "name": "stakeId",
          "type": "uint256"
        }
      ],
      "name": "getStakeDetails",
      "outputs": [
        {
          "internalType": "uint256",
          "name": "lockPeriod",
          "type": "uint256"
        },
        {
          "internalType": "uint256",
          "name": "pendingRewards",
          "type": "uint256"
        },
        {
          "internalType": "bool",
          "name": "active",
          "type": "bool"
        }
      ],
      "stateMutability": "view",
      "type": "function"
    },
    {
      "inputs": [
        {
          "internalType": "uint256",
          "name": "stakeId",
          "type": "uint256"
        }
      ],
      "name": "getStakeInfo",
      "outputs": [
        {
          "internalType": "uint256",
          "name": "id",
          "type": "uint256"
        },
        {
          "internalType": "address",
          "name": "stakeOwnerAddr",
          "type": "address"
        },
        {
          "internalType": "uint256",
          "name": "amount",
          "type": "uint256"
        },
        {
          "internalType": "uint256",
          "name": "startTime",
          "type": "uint256"
        }
      ],
      "stateMutability": "view",
      "type": "function"
    },
    {
      "inputs": [],
      "name": "getStakingInfo",
      "outputs": [
        {
          "internalType": "uint256",
          "name": "baseApyRate",
          "type": "uint256"
        },
        {
          "internalType": "uint256",
          "name": "minStakingAmount",
          "type": "uint256"
        },
        {
          "internalType": "uint256",
          "name": "totalTokensStaked",
          "type": "uint256"
        },
        {
          "internalType": "uint256",
          "name": "totalRewardsPaid",
          "type": "uint256"
        },
        {
          "internalType": "uint256",
          "name": "numberOfStakers",
          "type": "uint256"
        }
      ],
      "stateMutability": "view",
      "type": "function"
    },
    {
      "inputs": [],
      "name": "getTokenBalances",
      "outputs": [
        {
          "internalType": "uint256",
          "name": "tokenBalance",
          "type": "uint256"
        },
        {
          "internalType": "uint256",
          "name": "usdtBalance",
          "type": "uint256"
        },
        {
          "internalType": "uint256",
          "name": "usdcBalance",
          "type": "uint256"
        }
      ],
      "stateMutability": "view",
      "type": "function"
    },
    {
      "inputs": [],
      "name": "getTotalPenaltyCollected",
      "outputs": [
        {
          "internalType": "uint256",
          "name": "",
          "type": "uint256"
        }
      ],
      "stateMutability": "view",
      "type": "function"
    },
    {
      "inputs": [
        {
          "internalType": "address",
          "name": "referrer",
          "type": "address"
        }
      ],
      "name": "getUserReferrals",
      "outputs": [
        {
          "internalType": "address[]",
          "name": "",
          "type": "address[]"
        }
      ],
      "stateMutability": "view",
      "type": "function"
    },
    {
      "inputs": [
        {
          "internalType": "address",
          "name": "user",
          "type": "address"
        }
      ],
      "name": "getUserStakes",
      "outputs": [
        {
          "components": [
            {
              "internalType": "uint256",
              "name": "id",
              "type": "uint256"
            },
            {
              "internalType": "uint256",
              "name": "amount",
              "type": "uint256"
            },
            {
              "internalType": "uint256",
              "name": "startTime",
              "type": "uint256"
            },
            {
              "internalType": "uint256",
              "name": "lockPeriod",
              "type": "uint256"
            },
            {
              "internalType": "uint256",
              "name": "lastRewardCalculation",
              "type": "uint256"
            },
            {
              "internalType": "uint256",
              "name": "pendingRewards",
              "type": "uint256"
            },
            {
              "internalType": "bool",
              "name": "active",
              "type": "bool"
            }
          ],
          "internalType": "struct TokenICO.Stake[]",
          "name": "",
          "type": "tuple[]"
        }
      ],
      "stateMutability": "view",
      "type": "function"
    },
    {
      "inputs": [
        {
          "internalType": "address",
          "name": "user",
          "type": "address"
        }
      ],
      "name": "getUserStakingInfo",
      "outputs": [
        {
          "internalType": "uint256",
          "name": "totalUserStaked",
          "type": "uint256"
        },
        {
          "internalType": "uint256",
          "name": "totalPendingRewards",
          "type": "uint256"
        },
        {
          "internalType": "uint256",
          "name": "activeStakesCount",
          "type": "uint256"
        }
      ],
      "stateMutability": "view",
      "type": "function"
    },
    {
      "inputs": [
        {
          "internalType": "address",
          "name": "user",
          "type": "address"
        }
      ],
      "name": "getUserTransactions",
      "outputs": [
        {
          "components": [
            {
              "internalType": "uint256",
              "name": "timestamp",
              "type": "uint256"
            },
            {
              "internalType": "address",
              "name": "user",
              "type": "address"
            },
            {
              "internalType": "address",
              "name": "tokenIn",
              "type": "address"
            },
            {
              "internalType": "address",
              "name": "tokenOut",
              "type": "address"
            },
            {
              "internalType": "uint256",
              "name": "amountIn",
              "type": "uint256"
            },
            {
              "internalType": "uint256",
              "name": "amountOut",
              "type": "uint256"
            },
            {
              "internalType": "string",
              "name": "transactionType",
              "type": "string"
            }
          ],
          "internalType": "struct TokenICO.Transaction[]",
          "name": "",
          "type": "tuple[]"
        }
      ],
      "stateMutability": "view",
      "type": "function"
    },
    {
      "inputs": [
        {
          "internalType": "uint256",
          "name": "stakeId",
          "type": "uint256"
        }
      ],
      "name": "harvestRewards",
      "outputs": [],
      "stateMutability": "nonpayable",
      "type": "function"
    },
    {
      "inputs": [
        {
          "internalType": "address",
          "name": "",
          "type": "address"
        }
      ],
      "name": "hasStaked",
      "outputs": [
        {
          "internalType": "bool",
          "name": "",
          "type": "bool"
        }
      ],
      "stateMutability": "view",
      "type": "function"
    },
    {
      "inputs": [],
      "name": "minStakeAmount",
      "outputs": [
        {
          "internalType": "uint256",
          "name": "",
          "type": "uint256"
        }
      ],
      "stateMutability": "view",
      "type": "function"
    },
    {
      "inputs": [],
      "name": "nextStakeId",
      "outputs": [
        {
          "internalType": "uint256",
          "name": "",
          "type": "uint256"
        }
      ],
      "stateMutability": "view",
      "type": "function"
    },
    {
      "inputs": [],
      "name": "owner",
      "outputs": [
        {
          "internalType": "address",
          "name": "",
          "type": "address"
        }
      ],
      "stateMutability": "view",
      "type": "function"
    },
    {
      "inputs": [],
      "name": "publicInterval",
      "outputs": [
        {
          "internalType": "uint256",
          "name": "",
          "type": "uint256"
        }
      ],
      "stateMutability": "view",
      "type": "function"
    },
    {
      "inputs": [],
      "name": "referralRewardPercentage",
      "outputs": [
        {
          "internalType": "uint256",
          "name": "",
          "type": "uint256"
        }
      ],
      "stateMutability": "view",
      "type": "function"
    },
    {
      "inputs": [
        {
          "internalType": "address",
          "name": "",
          "type": "address"
        }
      ],
      "name": "referralRewards",
      "outputs": [
        {
          "internalType": "uint256",
          "name": "",
          "type": "uint256"
        }
      ],
      "stateMutability": "view",
      "type": "function"
    },
    {
      "inputs": [
        {
          "internalType": "address",
          "name": "",
          "type": "address"
        },
        {
          "internalType": "uint256",
          "name": "",
          "type": "uint256"
        }
      ],
      "name": "referrals",
      "outputs": [
        {
          "internalType": "address",
          "name": "",
          "type": "address"
        }
      ],
      "stateMutability": "view",
      "type": "function"
    },
    {
      "inputs": [
        {
          "internalType": "address",
          "name": "",
          "type": "address"
        }
      ],
      "name": "referrers",
      "outputs": [
        {
          "internalType": "address",
          "name": "",
          "type": "address"
        }
      ],
      "stateMutability": "view",
      "type": "function"
    },
    {
      "inputs": [
        {
          "internalType": "address",
          "name": "referrer",
          "type": "address"
        }
      ],
      "name": "registerReferrer",
      "outputs": [],
      "stateMutability": "nonpayable",
      "type": "function"
    },
    {
      "inputs": [],
      "name": "saleStartTime",
      "outputs": [
        {
          "internalType": "uint256",
          "name": "",
          "type": "uint256"
        }
      ],
      "stateMutability": "view",
      "type": "function"
    },
    {
      "inputs": [],
      "name": "saleToken",
      "outputs": [
        {
          "internalType": "address",
          "name": "",
          "type": "address"
        }
      ],
      "stateMutability": "view",
      "type": "function"
    },
    {
      "inputs": [
        {
          "internalType": "address",
          "name": "user",
          "type": "address"
        },
        {
          "internalType": "bool",
          "name": "blocked",
          "type": "bool"
        }
      ],
      "name": "setBlockStatus",
      "outputs": [],
      "stateMutability": "nonpayable",
      "type": "function"
    },
    {
      "inputs": [
        {
          "internalType": "uint256",
          "name": "startTime",
          "type": "uint256"
        }
      ],
      "name": "setSaleStartTime",
      "outputs": [],
      "stateMutability": "nonpayable",
      "type": "function"
    },
    {
      "inputs": [
        {
          "internalType": "address",
          "name": "_token",
          "type": "address"
        }
      ],
      "name": "setSaleToken",
      "outputs": [],
      "stateMutability": "nonpayable",
      "type": "function"
    },
    {
      "inputs": [
        {
          "internalType": "address",
          "name": "_signer",
          "type": "address"
        }
      ],
      "name": "setSigner",
      "outputs": [],
      "stateMutability": "nonpayable",
      "type": "function"
    },
    {
      "inputs": [
        {
          "internalType": "address",
          "name": "user",
          "type": "address"
        },
        {
          "internalType": "bool",
          "name": "status",
          "type": "bool"
        }
      ],
      "name": "setWaitlisted",
      "outputs": [],
      "stateMutability": "nonpayable",
      "type": "function"
    },
    {
      "inputs": [],
      "name": "signer",
      "outputs": [
        {
          "internalType": "address",
          "name": "",
          "type": "address"
        }
      ],
      "stateMutability": "view",
      "type": "function"
    },
    {
      "inputs": [],
      "name": "solAddress",
      "outputs": [
        {
          "internalType": "address",
          "name": "",
          "type": "address"
        }
      ],
      "stateMutability": "view",
      "type": "function"
    },
    {
      "inputs": [],
      "name": "solRatio",
      "outputs": [
        {
          "internalType": "uint256",
          "name": "",
          "type": "uint256"
        }
      ],
      "stateMutability": "view",
      "type": "function"
    },
    {
      "inputs": [],
      "name": "stablecoinPriceIncrement",
      "outputs": [
        {
          "internalType": "uint256",
          "name": "",
          "type": "uint256"
        }
      ],
      "stateMutability": "view",
      "type": "function"
    },
    {
      "inputs": [
        {
          "internalType": "uint256",
          "name": "",
          "type": "uint256"
        }
      ],
      "name": "stakeOwners",
      "outputs": [
        {
          "internalType": "address",
          "name": "",
          "type": "address"
        }
      ],
      "stateMutability": "view",
      "type": "function"
    },
    {
      "inputs": [
        {
          "internalType": "uint256",
          "name": "amount",
          "type": "uint256"
        },
        {
          "internalType": "uint256",
          "name": "lockPeriodDays",
          "type": "uint256"
        }
      ],
      "name": "stakeTokens",
      "outputs": [],
      "stateMutability": "nonpayable",
      "type": "function"
    },
    {
      "inputs": [],
      "name": "tokensSold",
      "outputs": [
        {
          "internalType": "uint256",
          "name": "",
          "type": "uint256"
        }
      ],
      "stateMutability": "view",
      "type": "function"
    },
    {
      "inputs": [],
      "name": "totalPenaltyCollected",
      "outputs": [
        {
          "internalType": "uint256",
          "name": "",
          "type": "uint256"
        }
      ],
      "stateMutability": "view",
      "type": "function"
    },
    {
      "inputs": [],
      "name": "totalRewardsDistributed",
      "outputs": [
        {
          "internalType": "uint256",
          "name": "",
          "type": "uint256"
        }
      ],
      "stateMutability": "view",
      "type": "function"
    },
    {
      "inputs": [],
      "name": "totalStaked",
      "outputs": [
        {
          "internalType": "uint256",
          "name": "",
          "type": "uint256"
        }
      ],
      "stateMutability": "view",
      "type": "function"
    },
    {
      "inputs": [],
      "name": "totalStakers",
      "outputs": [
        {
          "internalType": "uint256",
          "name": "",
          "type": "uint256"
        }
      ],
      "stateMutability": "view",
      "type": "function"
    },
    {
      "inputs": [
        {
          "internalType": "uint256",
          "name": "stakeId",
          "type": "uint256"
        }
      ],
      "name": "unstakeEarly",
      "outputs": [],
      "stateMutability": "nonpayable",
      "type": "function"
    },
    {
      "inputs": [
        {
          "internalType": "uint256",
          "name": "stakeId",
          "type": "uint256"
        }
      ],
      "name": "unstakeTokens",
      "outputs": [],
      "stateMutability": "nonpayable",
      "type": "function"
    },
    {
      "inputs": [
        {
          "internalType": "address",
          "name": "newAddress",
          "type": "address"
        },
        {
          "internalType": "uint256",
          "name": "newRatio",
          "type": "uint256"
        }
      ],
      "name": "updateBTC",
      "outputs": [],
      "stateMutability": "nonpayable",
      "type": "function"
    },
    {
      "inputs": [
        {
          "internalType": "uint256",
          "name": "newAPY",
          "type": "uint256"
        }
      ],
      "name": "updateBaseAPY",
      "outputs": [],
      "stateMutability": "nonpayable",
      "type": "function"
    },
    {
      "inputs": [
        {
          "internalType": "address",
          "name": "newAddress",
          "type": "address"
        },
        {
          "internalType": "uint256",
          "name": "newRatio",
          "type": "uint256"
        }
      ],
      "name": "updateETH",
      "outputs": [],
      "stateMutability": "nonpayable",
      "type": "function"
    },
    {
      "inputs": [
        {
          "internalType": "uint256",
          "name": "newMinAmount",
          "type": "uint256"
        }
      ],
      "name": "updateMinStakeAmount",
      "outputs": [],
      "stateMutability": "nonpayable",
      "type": "function"
    },
    {
      "inputs": [
        {
          "internalType": "uint256",
          "name": "newPercentage",
          "type": "uint256"
        }
      ],
      "name": "updateReferralPercentage",
      "outputs": [],
      "stateMutability": "nonpayable",
      "type": "function"
    },
    {
      "inputs": [
        {
          "internalType": "address",
          "name": "newAddress",
          "type": "address"
        },
        {
          "internalType": "uint256",
          "name": "newRatio",
          "type": "uint256"
        }
      ],
      "name": "updateSOL",
      "outputs": [],
      "stateMutability": "nonpayable",
      "type": "function"
    },
    {
      "inputs": [
        {
          "internalType": "uint256",
          "name": "newPrice",
          "type": "uint256"
        }
      ],
      "name": "updateStablecoinPrice",
      "outputs": [],
      "stateMutability": "nonpayable",
      "type": "function"
    },
    {
      "inputs": [
        {
          "internalType": "uint256",
          "name": "newPrice",
          "type": "uint256"
        }
      ],
      "name": "updateTokenPrice",
      "outputs": [],
      "stateMutability": "nonpayable",
      "type": "function"
    },
    {
      "inputs": [
        {
          "internalType": "address",
          "name": "newAddress",
          "type": "address"
        },
        {
          "internalType": "uint256",
          "name": "newRatio",
          "type": "uint256"
        }
      ],
      "name": "updateUSDC",
      "outputs": [],
      "stateMutability": "nonpayable",
      "type": "function"
    },
    {
      "inputs": [
        {
          "internalType": "address",
          "name": "newAddress",
          "type": "address"
        },
        {
          "internalType": "uint256",
          "name": "newRatio",
          "type": "uint256"
        }
      ],
      "name": "updateUSDT",
      "outputs": [],
      "stateMutability": "nonpayable",
      "type": "function"
    },
    {
      "inputs": [],
      "name": "usdcAddress",
      "outputs": [
        {
          "internalType": "address",
          "name": "",
          "type": "address"
        }
      ],
      "stateMutability": "view",
      "type": "function"
    },
    {
      "inputs": [],
      "name": "usdcRatio",
      "outputs": [
        {
          "internalType": "uint256",
          "name": "",
          "type": "uint256"
        }
      ],
      "stateMutability": "view",
      "type": "function"
    },
    {
      "inputs": [],
      "name": "usdtAddress",
      "outputs": [
        {
          "internalType": "address",
          "name": "",
          "type": "address"
        }
      ],
      "stateMutability": "view",
      "type": "function"
    },
    {
      "inputs": [],
      "name": "usdtRatio",
      "outputs": [
        {
          "internalType": "uint256",
          "name": "",
          "type": "uint256"
        }
      ],
      "stateMutability": "view",
      "type": "function"
    },
    {
      "inputs": [
        {
          "internalType": "address",
          "name": "",
          "type": "address"
        }
      ],
      "name": "usedNonce",
      "outputs": [
        {
          "internalType": "uint256",
          "name": "",
          "type": "uint256"
        }
      ],
      "stateMutability": "view",
      "type": "function"
    },
    {
      "inputs": [
        {
          "internalType": "address",
          "name": "",
          "type": "address"
        },
        {
          "internalType": "uint256",
          "name": "",
          "type": "uint256"
        }
      ],
      "name": "userStakes",
      "outputs": [
        {
          "internalType": "uint256",
          "name": "id",
          "type": "uint256"
        },
        {
          "internalType": "uint256",
          "name": "amount",
          "type": "uint256"
        },
        {
          "internalType": "uint256",
          "name": "startTime",
          "type": "uint256"
        },
        {
          "internalType": "uint256",
          "name": "lockPeriod",
          "type": "uint256"
        },
        {
          "internalType": "uint256",
          "name": "lastRewardCalculation",
          "type": "uint256"
        },
        {
          "internalType": "uint256",
          "name": "pendingRewards",
          "type": "uint256"
        },
        {
          "internalType": "bool",
          "name": "active",
          "type": "bool"
        }
      ],
      "stateMutability": "view",
      "type": "function"
    },
    {
      "inputs": [
        {
          "internalType": "address",
          "name": "",
          "type": "address"
        },
        {
          "internalType": "uint256",
          "name": "",
          "type": "uint256"
        }
      ],
      "name": "userTransactions",
      "outputs": [
        {
          "internalType": "uint256",
          "name": "timestamp",
          "type": "uint256"
        },
        {
          "internalType": "address",
          "name": "user",
          "type": "address"
        },
        {
          "internalType": "address",
          "name": "tokenIn",
          "type": "address"
        },
        {
          "internalType": "address",
          "name": "tokenOut",
          "type": "address"
        },
        {
          "internalType": "uint256",
          "name": "amountIn",
          "type": "uint256"
        },
        {
          "internalType": "uint256",
          "name": "amountOut",
          "type": "uint256"
        },
        {
          "internalType": "string",
          "name": "transactionType",
          "type": "string"
        }
      ],
      "stateMutability": "view",
      "type": "function"
    },
    {
      "inputs": [],
      "name": "waitlistInterval",
      "outputs": [
        {
          "internalType": "uint256",
          "name": "",
          "type": "uint256"
        }
      ],
      "stateMutability": "view",
      "type": "function"
    },
    {
      "inputs": [],
      "name": "waitlistSold",
      "outputs": [
        {
          "internalType": "uint256",
          "name": "",
          "type": "uint256"
        }
      ],
      "stateMutability": "view",
      "type": "function"
    },
    {
      "inputs": [
        {
          "internalType": "address",
          "name": "",
          "type": "address"
        }
      ],
      "name": "waitlisted",
      "outputs": [
        {
          "internalType": "bool",
          "name": "",
          "type": "bool"
        }
      ],
      "stateMutability": "view",
      "type": "function"
    },
    {
      "inputs": [
        {
          "internalType": "address",
          "name": "_token",
          "type": "address"
        },
        {
          "internalType": "uint256",
          "name": "_amount",
          "type": "uint256"
        }
      ],
      "name": "withdrawTokens",
      "outputs": [],
      "stateMutability": "nonpayable",
      "type": "function"
    }
  ],
  "bytecode": "0x60a08060405234620001e357602060089166013e52b9abe00060065566038d7ea4c6800060075561c350601255603c6013556014601e8155600c60195568056bc75e2d63100000601a55600183556005602255336080523360018060a01b031960265416176026558084558060095580600a5580600b55600d556200008481620001e8565b8281520167546f6b656e49434f60c01b81522060016020604051620000a981620001e8565b82815201603160f81b815220906040519160208301917f8b73c3c69bb8fe3d512ecc4cf759cc79239f7b179b0ffacaa9a75d522b39400f8352604084015260608301524660808301523060a083015260a0825260c082019180831060018060401b03841117620001cd5782604052519020602755615bca9081620002058239608051818181610537015281816107d2015281816108ed01528181610d0a01528181610e36015281816110db015281816116c201528181611a2801528181611d49015281816120d6015281816121d0015281816122750152818161233d0152818161279701528181612bbd01528181612c6d01528181612db801528181612e8a015281816131f9015281816137b3015281816139c701528181613acc0152613c230152f35b634e487b7160e01b600052604160045260246000fd5b600080fd5b604081019081106001600160401b03821117620001cd5760405256fe6080604081815260048036101561001557600080fd5b60009260e08435811c91826302d4545714613e1f57508163032d975b14613dff57816306360b8514613dd257816306b091f914613c025781630981348214613b3257816314ce670b14613b1e578163182a676b14613a885781631c042d3514613a685781631cbaee2d14613a485781631ce24e1614613a1e5781631e37c6061461399a57816320f1fc611461394e578163214405a91461392e57816321874ae2146138cd578163238ac933146138a3578163251545da146136a357816327506f53146135c35781632ba77022146135af5781632bb3880914612d525781632fd04c08146132805781633644e515146132605781633a5d41751461324c5781633a94be2d146131cb5781633b7b618814612ee15781633e4e645314612e5d5781633e61e9dc14612e2457816341398b1514612dfa57816342e97cb814612d925781634561f1e114612d72578163491cc75614612d525781634a3b68cc14612d165781634cdb312d14612c515781634f93208a14612c12578163518ab2a814612bf2578163525f8a5c14612ba457816353aaa63b14612b6b57816357126d0d1461293c578163575cea6b146128915781635b36504014612687578163608e4dd0146123ab57816363219c72146122fe57816364f1d113146122de578163676c0d77146122365781636c19e783146121a75781636f43f3731461218757816371d20fe7146120ba57816375506c961461209b578163776ff66a1461207b578163794a32921461203c5781637a9773dc1461201c5781637cc1f86714611f3d5781637df7418114611b135781637ea61fe31461198357816380933608146118a0578163817b1cd21461188057816383fabe0314611860578163842e29811461175857816384cc315b14611731578163862dd2e21461171157816386989038146116f15781638da5cb5b146116ac578163920a253e1461168c57816392feb8491461166457816394dc9cf31461155c578163963c9dd3146114815781639ab4a445146114575781639c0fbd051461143a5781639ea7685a146112b6578163a0b3b93014611296578163a1dc903114611120578163a29f481c146110b2578163a77c80aa1461107c578163a7c6016014610f30578163aeccf73514610d61578163b006984f14610cdd578163b3b9470614610cbd578163b40cd21d14610c7b578163b5d5b5fa14610be857508063b842ec4414610b6a578063bc5894ba14610b4b578063c93c8f3414610b0d578063d3ea435014610ae6578063d7ff07141461099e578063d8060cd5146108d2578063d8dc286a146108ac578063e697b5d814610851578063e985e36714610829578063ebcd3a13146107a6578063ecb2dd741461076b578063ee1725461461074c578063ef9253991461066e578063f18876841461064b578063f30ef2e514610496578063f7d76ae51461046f5763fd9a11e51461043a57600080fd5b3461046b57602036600319011261046b57358252601c6020908152918190205490516001600160a01b039091168152f35b8280fd5b503461046b578260031936011261046b575490516001600160a01b03909116815260209150f35b503461046b57602036600319011261046b5780359033845260106020526104c360ff8486205416156143e2565b6104ce821515614588565b83546001600160a01b0392906104e7908416151561449a565b82600554166104f78115156147fc565b610503600d5483614336565b92633b9aca00938481029481860414901517156106385785516323b872dd60e01b8152339181019182526001600160a01b037f00000000000000000000000000000000000000000000000000000000000000001660208381019190915260408301859052909392909184919082908a90829060600103925af1801561062e57600080516020615b75833981519152936105aa6105af926105fa958a91610600575b5061483d565b61511c565b936105b985615356565b6105d681600554168684848b54166105cf614569565b9333615a73565b60055416945191829133954291846040919493926060820195825260208201520152565b0390a380f35b610621915060203d8111610627575b61061981836140df565b810190614616565b386105a4565b503d61060f565b85513d88823e3d90fd5b634e487b7160e01b875260119052602486fd5b50503461066a578160031936011261066a57602090601a549051908152f35b5080fd5b5082903461066a5760209182600319360112610749576001600160a01b039283610696613e44565b16825260168152848220918254936106ad85615acf565b956106ba885197886140df565b85875283870194835283832092945b8686106106e1578851806106dd8a82613f3a565b0390f35b6007856001928b516106f281614059565b8754815285858901541683820152856002890154168d820152856003890154166060820152868801546080820152600588015460a082015261073660068901614101565b60c08201528152019401950194926106c9565b80fd5b50503461066a578160031936011261066a57602090601e549051908152f35b50503461066a578160031936011261066a57602090517f91b089318bbdf627bacec662873c12cc3afdc69db73f084d7726e9ce2907280a8152f35b50503461066a57366003190112610749576107bf613e44565b602435906001600160a01b03906107f9337f0000000000000000000000000000000000000000000000000000000000000000841614614204565b16610805811515614279565b6108108215156142b7565b6001600160601b0360a01b6005541617600555600d5580f35b50503461066a578160031936011261066a57905490516001600160a01b039091168152602090f35b50503461066a578060031936011261066a5761086b613e44565b6001600160a01b0390811683526024602081905282842080549135949091851015610749575060209361089d916141ec565b92905490519260031b1c168152f35b50503461066a578160031936011261066a57602090516a01a784379d99db420000008152f35b503461046b57602036600319011261046b5780359061091b337f00000000000000000000000000000000000000000000000000000000000000006001600160a01b031614614204565b811561095b5750907f171aabb8815c02fd00303450a77058600e3661eb75ce2e77972c0f080bc7099d91601a549080601a5582519182526020820152a180f35b606490602084519162461bcd60e51b8352820152602060248201527f4d696e207374616b65206d7573742062652067726561746572207468616e20306044820152fd5b503461046b57602036600319011261046b573560175481101561046b576017600792935202906106dd827fc624b66cc0138b8fabc209247f72d758e1cf3343756d543badbf24212bed8c1501549160018060a01b0393847fc624b66cc0138b8fabc209247f72d758e1cf3343756d543badbf24212bed8c168201541694807fc624b66cc0138b8fabc209247f72d758e1cf3343756d543badbf24212bed8c1783015416907fc624b66cc0138b8fabc209247f72d758e1cf3343756d543badbf24212bed8c18830154167fc624b66cc0138b8fabc209247f72d758e1cf3343756d543badbf24212bed8c1983015491610adb7fc624b66cc0138b8fabc209247f72d758e1cf3343756d543badbf24212bed8c1b7fc624b66cc0138b8fabc209247f72d758e1cf3343756d543badbf24212bed8c1a8601549501614101565b9451978897886141a7565b5091346107495760203660031901126107495750610b0660209235614ed0565b9051908152f35b50503461066a57602036600319011261066a5760209160ff9082906001600160a01b03610b38613e44565b1681526021855220541690519015158152f35b50503461066a578160031936011261066a57602090600b549051908152f35b5091903461066a578060031936011261066a57610b85613e44565b6001600160a01b0390811683526016602052818320805491936024359283101561074957506106dd9291610bb891613fed565b50805493806001830154169581600284015416916003840154169083015491610adb600660058601549501614101565b93905034610749578260031936011261074957610c03613e44565b6001600160a01b03168152601b60205282812080546024359290831015610749575090610c2f91613fed565b5080549260018201549260028301546003840154918401549260ff600660058701549601541695815197885260208801528601526060850152608084015260a0830152151560c0820152f35b5050503461066a578160031936011261066a5760a09060195490601a5490601d54601e5491601f54938151958652602086015284015260608301526080820152f35b5050503461066a578160031936011261066a576020906012549051908152f35b5050503461066a5736600319011261074957610cf7613e44565b602435906001600160a01b0390610d31337f0000000000000000000000000000000000000000000000000000000000000000841614614204565b16610d3d811515614279565b610d488215156142b7565b6001600160601b0360a01b600154161760015560085580f35b50503461046b57602036600319011261046b578035903384526010602052610d8f60ff8486205416156143e2565b811591610d9c8315614588565b84546001600160a01b039390610db5908516151561449a565b8360025416610dc5811515614671565b620f42409182840292848404141715610f1d57610de133614356565b610ded60075485614336565b670de0b6b3a764000090818102918183041490151715610f0a5791610e19610e76959492602094614316565b88516323b872dd60e01b8152339781019788526001600160a01b037f00000000000000000000000000000000000000000000000000000000000000001660208901526040880193909352959194859283918b918391606090910190565b03925af1801561062e57600080516020615b75833981519152936105aa610ea8926105fa958a91610eec575b506146b3565b93610eb285615356565b610ec881600254168684848b54166105cf614569565b60025416945191829133954291846040919493926060820195825260208201520152565b610f04915060203d81116106275761061981836140df565b38610ea2565b634e487b7160e01b895260118652602489fd5b634e487b7160e01b875260118452602487fd5b50503461046b57602036600319011261046b578035903384526010602052610f5e60ff8486205416156143e2565b811591610f6b8315614588565b84546001600160a01b039390610f84908516151561449a565b8360015416610f948115156145d4565b620f42409182840292848404141715610f1d57610fb033614356565b610fbc60075485614336565b670de0b6b3a764000090818102918183041490151715610f0a5791610e19610fe8959492602094614316565b03925af1801561062e57600080516020615b75833981519152936105aa61101a926105fa958a9161105e575b5061462e565b9361102485615356565b61103a81600154168684848b54166105cf614569565b60015416945191829133954291846040919493926060820195825260208201520152565b611076915060203d81116106275761061981836140df565b38611014565b50503461046b57610d8f9061109036613e8d565b949291909133885260106020526110ad60ff888a205416156143e2565b614893565b8434610749576020366003190112610749576110cc613e44565b6001600160a01b0390611102337f0000000000000000000000000000000000000000000000000000000000000000841614614204565b1661110e811515614279565b81546001600160a01b03191617815580f35b5050903461046b578260031936011261046b57825481516370a0823160e01b808252308286015290946001600160a01b03946020938490889060249082908a165afa95861561128c57829661125c575b602497508481600154168751998a809288825230878301525afa978815611252578398611222575b509060248592600254169487519586938492835230908301525afa9283156112165781936111e3575b5050506106dd9151938493846040919493926060820195825260208201520152565b9091809350813d831161120f575b6111fb81836140df565b810103126107495750516106dd38806111c1565b503d6111f1565b508351903d90823e3d90fd5b9097508481813d831161124b575b61123a81836140df565b8101031261046b5751966024611198565b503d611230565b86513d85823e3d90fd5b95508387813d8311611285575b61127381836140df565b8101031261066a576024965195611170565b503d611269565b85513d84823e3d90fd5b5050503461066a578160031936011261066a576020906006549051908152f35b5050903461046b57602080600319360112611436576112d3613e44565b92338552601082526112eb60ff8487205416156143e2565b6001600160a01b039384169384156113f4573385146113ba5733865260238352838620541661136e57509060246113459233865260238152828620856001600160601b0360a01b8254161790558486525233908420614423565b33907f5f1ca2fcc108b751843a763e60d2201f593516109d7dbb1b700468f2d4190bb78380a380f35b915162461bcd60e51b815291820152602260248201527f416c72656164792072656769737465726564207769746820612072656665727260448201526132b960f11b6064820152608490fd5b50915162461bcd60e51b815291820152601560248201527421b0b73737ba103932b332b9103cb7bab939b2b63360591b6044820152606490fd5b50915162461bcd60e51b815291820152601860248201527f496e76616c6964207265666572726572206164647265737300000000000000006044820152606490fd5b8380fd5b5050503461066a578160031936011261066a576020905160058152f35b5050503461066a578160031936011261066a5760015490516001600160a01b039091168152602090f35b50503461046b57602090816003193601126114365735808452601c8252828420546001600160a01b0316939092906114ba851515614e10565b6114c2615b3c565b8195825b818452601b8087528585208054831015611547576114e5838a92613fed565b5054146114fb57506114f690614e01565b6114c6565b6060985061151e93508486916115189461152e9752885220613fed565b50615ae7565b936115296001614e53565b614ed0565b60c0858501519401511515928251948552840152820152f35b505050509361152e9150611529606096614e53565b50503461046b57602036600319011261046b57803590338452601060205261158a60ff8486205416156143e2565b611595821515614588565b83546001600160a01b03926115d0916115b1908516151561449a565b60208185600354166115c48115156146f6565b610e19600b5483614336565b03925af1801561062e57600080516020615b75833981519152936105aa611602926105fa958a91611646575b50614737565b9361160c85615356565b61162281600354168684848b54166105cf614569565b60035416945191829133954291846040919493926060820195825260208201520152565b61165e915060203d81116106275761061981836140df565b386115fc565b5050503461066a578160031936011261066a57602090516b01f04ef12cb04cf1580000008152f35b5050503461066a578160031936011261066a576020906022549051908152f35b5050503461066a578160031936011261066a57517f00000000000000000000000000000000000000000000000000000000000000006001600160a01b03168152602090f35b5050503461066a578160031936011261066a57602090601f549051908152f35b5050503461066a578160031936011261066a576020906013549051908152f35b5050503461066a57602036600319011261066a57602090610b06611753613e44565b614356565b9150503461046b576020806003193601126114365790916001600160a01b0361177f613e44565b168452601b82528084209182549161179683615acf565b926117a3825194856140df565b8084528284018095885283882088915b838310611833575050505080519482860193838752518094528186019496915b8483106117e05786860387f35b87518051875280850151878601528082015187830152606080820151908801526080808201519088015260a0808201519088015260c09081015115159087015296830196948101946001909201916117d3565b60078660019261184a859d999a9b9d9c989c615ae7565b81520192019201919098969594989793976117b3565b5050503461066a578160031936011261066a576020906008549051908152f35b5050503461066a578160031936011261066a57602090601d549051908152f35b8385346107495760209081600319360112610749576118bd613e44565b9091829182919082906001600160a01b0316815b818652601b808552888720805483101561196b5760ff60066118f4858d94613fed565b5001541661190d575b505061190890614e01565b6118d1565b82969461193b839a60016119326119089761195d968e611963998e8d83525220613fed565b50015490614349565b99858a528752611957611950898d8c20613fed565b5054614ed0565b90614349565b93614e01565b9490886118fd565b89518981526020810186905260408101889052606090f35b50503461046b576119b361199636613e8d565b939291909133885260106020526110ad60ff888a205416156143e2565b6119be811515614588565b83546001600160a01b0391906119d7908316151561449a565b81835416906119e7821515614779565b6119f3600c5482614336565b926402540be40093848102948186041490151715611b005785516323b872dd60e01b8152338682019081526001600160a01b037f000000000000000000000000000000000000000000000000000000000000000016602082810191909152604082018590529194859182908b90829060600103925af18015611af657600080516020615b75833981519152946105aa611a97926105fa968b91611ad8575b506147ba565b94611aa186615356565b611ab6828254168785858c54166105cf614569565b5416945191829133954291846040919493926060820195825260208201520152565b611af0915060203d81116106275761061981836140df565b38611a91565b86513d89823e3d90fd5b634e487b7160e01b875260118552602487fd5b828585366003190160a0811261046b5760801361066a5760843567ffffffffffffffff811161046b57611b499036908501613e5f565b9190338452602060108152611b6460ff8487205416156143e2565b60643591824211611f08576001600160a01b03948735868116929190839003611f0457338303611ece57604435923389526028855286892054841115611e9e576027549060243596898816809803611e9a57885190878201927f91b089318bbdf627bacec662873c12cc3afdc69db73f084d7726e9ce2907280a84528a83015288606083015286608083015260a082015260a08152611c028161408b565b5190208751908682019261190160f01b84526022830152604282015260428152611c2b816140a7565b51902090611c38816144db565b92611c45885194856140df565b8184523682820111611e9657918986838694611c6b9683611c7399013784010152614cd6565b919091614bbc565b858060265416911603611e635733865260288252808487205583519081527fb23e07a4fc171f5f9242d4254c3b66b893beaab2f3787495c0f2d09dd3ef9726823392a28482151580611e57575b80611e43575b8181611e24575b50611dbf575b5050503415611ce2811561445e565b611cf083855416151561449a565b611cf933614356565b90670de0b6b3a76400009081340291348304141715611dac5791611d8e611d346105aa600080516020615b7583398151915294889796614316565b93611d3e85615356565b611d798680808034867f0000000000000000000000000000000000000000000000000000000000000000165af1611d736144f7565b50614527565b85541684611d85614569565b91349033615a14565b513481526020810192909252426040830152339180606081016105fa565b634e487b7160e01b855260118652602485fd5b611e205760249033865260238152838620836001600160601b0360a01b82541617905582865252611df233838620614423565b33907f5f1ca2fcc108b751843a763e60d2201f593516109d7dbb1b700468f2d4190bb78580a3848080611cd3565b8480fd5b9050611e3f578286526010825260ff84872054161581611ccd565b8580fd5b503386526023825284848720541615611cc6565b50508433831415611cc0565b835162461bcd60e51b8152808801839052600d60248201526c426164207369676e617475726560981b6044820152606490fd5b8980fd5b8a80fd5b865162461bcd60e51b8152808b01869052600a602482015269139bdb98d9481d5cd95960b21b6044820152606490fd5b855162461bcd60e51b8152808a01859052601060248201526f2737ba103cb7bab9103b37bab1b432b960811b6044820152606490fd5b8780fd5b835162461bcd60e51b8152808801839052600f60248201526e159bdd58da195c88195e1c1a5c9959608a1b6044820152606490fd5b92905034611436578360031936011261143657835481516370a0823160e01b815230938101939093526001600160a01b039081169390602084602481885afa938415612012578694611fda575b50610120955060065490600754600e54908260015416926002541693600854966009549881519a8b5260208b01528901526060880152608087015260a086015260c0850152830152610100820152f35b9093506020813d821161200a575b81611ff5602093836140df565b81010312611e3f576101209550519238611f8a565b3d9150611fe8565b83513d88823e3d90fd5b5050503461066a578160031936011261066a57602090600d549051908152f35b5050503461066a57602036600319011261066a5760209160ff9082906001600160a01b03612068613e44565b1681526015855220541690519015158152f35b5050503461066a578160031936011261066a576020906014549051908152f35b5050503461066a578160031936011261066a5760209081549051908152f35b50503461046b57602036600319011261046b57803590612104337f00000000000000000000000000000000000000000000000000000000000000006001600160a01b031614614204565b81156121445750907f787a1fca55641ce34a438271930bbb9401df20db2b4f510d4f252227d85df43d91601954908060195582519182526020820152a180f35b606490602084519162461bcd60e51b8352820152601a60248201527f415059206d7573742062652067726561746572207468616e20300000000000006044820152fd5b5050503461066a578160031936011261066a576020906009549051908152f35b8434610749576020366003190112610749576121c1613e44565b6001600160a01b03906121f7337f0000000000000000000000000000000000000000000000000000000000000000841614614204565b816026549116809282167f2d025324f0a785e8c12d0a0d91a9caa49df4ef20ff87e0df7213a1d4f3157beb8580a36001600160a01b0319161760265580f35b50503461046b57602036600319011261046b577f6e838f2a03741f5f2aff5480963b672fb0dd8430a4dc75db9b67ce009733c9fe9160a091356122a3337f00000000000000000000000000000000000000000000000000000000000000006001600160a01b031614614204565b6122ae81151561423d565b60065491816006558051926060845260056060850152642a27a5a2a760d91b60808501526020840152820152a180f35b5050503461066a578160031936011261066a576020906007549051908152f35b50503461046b57602036600319011261046b577f6e838f2a03741f5f2aff5480963b672fb0dd8430a4dc75db9b67ce009733c9fe9160a0913561236b337f00000000000000000000000000000000000000000000000000000000000000006001600160a01b031614614204565b61237681151561423d565b600754918160075580519260608452600a60608501526929aa20a12622a1a7a4a760b11b60808501526020840152820152a180f35b5050903461046b57602090816003193601126114365782919235923385526010815260ff6123de818488205416156143e2565b848652601c8252828620546001600160a01b03906123ff90821633146150de565b8694859283805b338b52601b808852888c208054831015612673579a61242783829c9d613fed565b505414612440575061243890614e01565b989798612406565b95509798505033895283855261246961245b88888c20613fed565b509160068093015416614e91565b338952838552600261247d88888c20613fed565b500154338a52848652600361249489898d20613fed565b50015490620151809182810292818404149015171561266057906124b791614349565b42106126265791849161251a8a612560956124fc6124d48d614ed0565b9b3384528988528b6124e882828720613fed565b50946001809601549b3382528a5220613fed565b500160ff198154169055601d6125138882546142f3565b9055614e53565b6125233361529d565b61252d8886614349565b8a54885163a9059cbb60e01b8152339381019384526020840192909252909485939091169183918c918391604090910190565b03925af190811561261c579061257d9188916125ff575b50614dbd565b8484151591826125eb575b84519081527f7fc4727e062e336010f2c282598ef5f14facb3de68cf8195c2f23e1454b2b74e843392a36125ba578480f35b7ff87cfa2d5feaea949ad65bb76a26d8553381bcb6382adbc83dedd48961bf32d991519283523392a3388080808480f35b6125f786601e54614349565b601e55612588565b6126169150843d86116106275761061981836140df565b38612577565b84513d89823e3d90fd5b855162461bcd60e51b8152808301869052601460248201527314dd1a5b1b081a5b881b1bd8dac81c195c9a5bd960621b6044820152606490fd5b634e487b7160e01b8b526011845260248bfd5b5050506125609391509161251a8693614e53565b50508260031936011261046b573383526020601081526126ad60ff8486205416156143e2565b3415906126ba821561445e565b6001546001600160a01b0392908316906126d58215156145d4565b620f42409081340291348304141715611b00576007546126f491614316565b9385516370a0823160e01b815230828201528381602481865afa80156128875786918991612856575b501061281357855163a9059cbb60e01b81523391810191825260208201869052939291829185919082908a90829060400103925af1801561062e577f48a1f8a6c840b32621ceab4439a2ccd00b337e705dfdcdec0b40c49abf3e6be39361278c9288926127f6575b505061462e565b6127c18580808034867f0000000000000000000000000000000000000000000000000000000000000000165af1611d736144f7565b6127d2816001541684611d85614d9d565b600154935192835234602084015242604084015290921691339180606081016105fa565b61280c9250803d106106275761061981836140df565b3880612785565b855162461bcd60e51b8152908101839052601b60248201527f496e73756666696369656e742055534454206c697175696469747900000000006044820152606490fd5b809250858092503d8311612880575b61286f81836140df565b81010312611f04578590513861271d565b503d612865565b87513d8a823e3d90fd5b5050503461066a5760208060031936011261046b576001600160a01b0392836128b8613e44565b1681526024825282812091835190818185549182815201908195855282852090855b81811061292657505050826128f09103836140df565b8451948186019282875251809352850193925b8281106129105785850386f35b8351871685529381019392810192600101612903565b82548a16845292840192600192830192016128da565b50503461046b5760209081600319360112611436578035913385526010815260ff9361296d858288205416156143e2565b838652601c8252808620546001600160a01b03939061298f90851633146150de565b8693875b338952601b808652848a208054831015612b58576129b2838a92613fed565b5054146129c857506129c390614e01565b612993565b96976129f191929394959650338a5287875260066129e884888d20613fed565b50015416614e91565b6129fa87614ed0565b958615612b1d5790612a2b91338a52808752896005612a1b84898420613fed565b500155338a528652848920613fed565b5042908301558654835163a9059cbb60e01b815233818501908152602081018890529092869284928390036040019183918c91165af1908115612b13578791612af6575b5015612abc5750907ff87cfa2d5feaea949ad65bb76a26d8553381bcb6382adbc83dedd48961bf32d991601e612aa6858254614349565b9055519283523392a3612ab96001614e53565b80f35b82606492519162461bcd60e51b8352820152601660248201527514995dd85c99081d1c985b9cd9995c8819985a5b195960521b6044820152fd5b612b0d9150843d86116106275761061981836140df565b38612a6f565b83513d89823e3d90fd5b845162461bcd60e51b81528085018790526015602482015274139bc81c995dd85c991cc81d1bc81a185c9d995cdd605a1b6044820152606490fd5b505050505050509050612ab99150614e53565b5050503461066a57602036600319011261066a5760209181906001600160a01b03612b94613e44565b1681526025845220549051908152f35b84833461066a57602036600319011261066a57612beb337f00000000000000000000000000000000000000000000000000000000000000006001600160a01b031614614204565b3560115580f35b5050503461066a578160031936011261066a57602090600e549051908152f35b5050503461066a57602036600319011261066a5760209160ff9082906001600160a01b03612c3e613e44565b1681526010855220541690519015158152f35b50503461046b57602036600319011261046b57803590612c9b337f00000000000000000000000000000000000000000000000000000000000000006001600160a01b031614614204565b60148211612cdd5750907fd968a3cc702265c3ab67356df15ca21d50167b011f198b963e2a868e04e3d5e091602254908060225582519182526020820152a180f35b606490602084519162461bcd60e51b835282015260136024820152720a0cae4c6cadce8c2ceca40e8dede40d0d2ced606b1b6044820152fd5b5050503461066a57602036600319011261066a576020916001600160a01b0390829082612d41613e44565b168152602385522054169051908152f35b5050503461066a578160031936011261066a576020906018549051908152f35b5050503461066a578160031936011261066a57602090600f549051908152f35b5050503461066a57612ab990612da736613ecb565b91906001600160a01b0390612ddf337f0000000000000000000000000000000000000000000000000000000000000000841614614204565b168452601560205283209060ff801983541691151516179055565b5050503461066a578160031936011261066a5760035490516001600160a01b039091168152602090f35b5050503461066a57602036600319011261066a5760209181906001600160a01b03612e4d613e44565b1681526028845220549051908152f35b5050503461066a5736600319011261074957612e77613e44565b602435906001600160a01b0390612eb1337f0000000000000000000000000000000000000000000000000000000000000000841614614204565b16612ebd811515614279565b612ec88215156142b7565b6001600160601b0360a01b6003541617600355600b5580f35b8285853461066a578060031936011261066a5782356024359133845260209260108452612f1460ff8387205416156143e2565b601a5483106131885784546001600160a01b0316612f3381151561449a565b601e8214801561317e575b8015613174575b8015613169575b156131305782516323b872dd60e01b815233818901908152306020820152604081018690529091869183919082908a90829060600103925af19081156120125790612f9d9187916131135750614dbd565b835493612fa985614e01565b81558251612fb681614059565b85815281810185815284820142815260608301858152608084019042825260a08501928b845260c086019460018652338d52601b8852898d20805490600160401b8210156130ff579061300e91600182018155613fed565b9790976130ed57927fb4caaf29adda3eefee3ad552a8e85058589bf834c7466cae4ee58787f70589ed9b9c9d9e9261307d9897959260069795518955516001890155516002880155516003870155519085015551600584015551151591019060ff801983541691151516179055565b858752601c8152828720336001600160601b0360a01b8254161790556130a585601d54614349565b601d5533875260218152828720805460ff8116156130ce575b505082519485528401523392a380f35b60ff19166001179055601f546130e390614e01565b601f5587806130be565b634e487b7160e01b8e528d8f5260248efd5b8f8f6041602492634e487b7160e01b835252fd5b61312a9150863d88116106275761061981836140df565b88612577565b825162461bcd60e51b81528088018690526013602482015272125b9d985b1a59081b1bd8dac81c195c9a5bd9606a1b6044820152606490fd5b5061016d8214612f4c565b5060b48214612f45565b50605a8214612f3e565b815162461bcd60e51b8152808701859052601a60248201527f416d6f756e742062656c6f77206d696e696d756d207374616b650000000000006044820152606490fd5b5050903461046b5736600319011261066a576131e5613e44565b60243591906001600160a01b0390613220337f0000000000000000000000000000000000000000000000000000000000000000841614614204565b1661322c811515614279565b6132378315156142b7565b81546001600160a01b031916179055600c5580f35b50503461046b5761158a9061109036613e8d565b5050503461066a578160031936011261066a576020906027549051908152f35b50509134610749576020928360031936011261066a578035903383526010855260ff916132b2838686205416156143e2565b808452601c8652848420546001600160a01b0396906132d490881633146150de565b8495855b338752601b808452828820805483101561359c576132f7838792613fed565b50541461330d575061330890614e01565b6132d8565b919293949596975033885281845261333861332a82858b20613fed565b509760068099015416614e91565b338852818452600261334c82858b20613fed565b500154338952828552600361336383868c20613fed565b500154906201518091828102928184041490151715613589579961338e86928b9c9b98999a9b614349565b9261339889614ed0565b9a3389528584526133ab82888b20613fed565b5091876001809401549a8097421061352f575b906133d492916134349899338252885220613fed565b500160ff198154169055601d6133eb8982546142f3565b9055986134018b6133fc878b6142f3565b614349565b8c54875163a9059cbb60e01b8152339381019384526020840192909252909485939091169183918e918391604090910190565b03925af1908115613525579761345587926134959a8c9161350e5750614dbd565b806134ce575b5050801561349e577f9c9ec3cfa814b0112b71c20d0b0ab54dead00a99fd389c174df717d2f1d364039282519485528401523392a3614e53565b612ab93361529d565b50907f7fc4727e062e336010f2c282598ef5f14facb3de68cf8195c2f23e1454b2b74e91519283523392a3614e53565b601e6134db828254614349565b905583519081527ff87cfa2d5feaea949ad65bb76a26d8553381bcb6382adbc83dedd48961bf32d9853392a3843861345b565b6126169150873d89116106275761061981836140df565b83513d8b823e3d90fd5b5050919350919350600580890290898204148915171561357657916133d4889492888f60646134349997049960186135688c8254614349565b9055999850909192506133be565b634e487b7160e01b8d5260118b5260248dfd5b634e487b7160e01b8a526011885260248afd5b5050505050505050915061349590614e53565b50503461046b57610f5e9061109036613e8d565b5050823461074957806003193601126107495790601754906135e482615acf565b926135f1855194856140df565b82845260178152906020907fc624b66cc0138b8fabc209247f72d758e1cf3343756d543badbf24212bed8c15908286015b858510613636578751806106dd8982613f3a565b6007846001928a5161364781614059565b86548152848060a01b0380868901541684830152806002890154168d8301526003880154166060820152858701546080820152600587015460a082015261369060068801614101565b60c0820152815201930194019391613622565b50508260031936011261046b573383526020601081526136c960ff8486205416156143e2565b3415906136d6821561445e565b6002546001600160a01b0392908316906136f1821515614671565b620f42409081340291348304141715611b005760075461371091614316565b9385516370a0823160e01b815230828201528381602481865afa80156128875786918991613872575b501061382f57855163a9059cbb60e01b81523391810191825260208201869052939291829185919082908a90829060400103925af1801561062e577f48a1f8a6c840b32621ceab4439a2ccd00b337e705dfdcdec0b40c49abf3e6be3936137a8928892613812575b50506146b3565b6137dd8580808034867f0000000000000000000000000000000000000000000000000000000000000000165af1611d736144f7565b6137ee816002541684611d85614d9d565b600254935192835234602084015242604084015290921691339180606081016105fa565b6138289250803d106106275761061981836140df565b38806137a1565b855162461bcd60e51b8152908101839052601b60248201527f496e73756666696369656e742055534443206c697175696469747900000000006044820152606490fd5b809250858092503d831161389c575b61388b81836140df565b81010312611f045785905138613739565b503d613881565b5050503461066a578160031936011261066a5760265490516001600160a01b039091168152602090f35b5050503461066a57602036600319011261066a576080916001600160a01b03806138f5613e44565b16825260236020528282205416916024602052808083205492602560205220549060225492815194855260208501528301526060820152f35b5050503461066a578160031936011261066a576020906019549051908152f35b8285858160031936011261066a57338252601060205261397460ff8284205416156143e2565b341590613981821561445e565b82546001600160a01b039290611cf0908416151561449a565b5050503461066a57366003190112610749576139b4613e44565b602435906001600160a01b03906139ee337f0000000000000000000000000000000000000000000000000000000000000000841614614204565b166139fa811515614279565b613a058215156142b7565b6001600160601b0360a01b600254161760025560095580f35b5050503461066a578160031936011261066a5760055490516001600160a01b039091168152602090f35b5050503461066a578160031936011261066a576020906011549051908152f35b5050503461066a578160031936011261066a57602090600c549051908152f35b5050503461066a577fdda6207409a585801122fb885dcaa8074f9a21f25ff2def680c67f01a86c2c9b6020613abc36613ecb565b906001600160a01b0390613af3337f0000000000000000000000000000000000000000000000000000000000000000841614614204565b169384865260108352613b14828288209060ff801983541691151516179055565b519015158152a280f35b50503461046b576104c39061109036613e8d565b8385843461066a576020908160031936011261046b573592838352601c825260018060a01b03818420541692613b69841515614e10565b613b71615b3c565b8195825b868452601b8087528585208054831015613bf057613b94838592613fed565b505414613baa5750613ba590614e01565b613b75565b6080985061151893508591925093613bc794888252875220613fed565b90613bd26001614e53565b81519381848401519301519382519586528501528301526060820152f35b50505050919050613bd2608095614e53565b5050903461046b578060031936011261046b57613c1d613e44565b602435907f00000000000000000000000000000000000000000000000000000000000000006001600160a01b03613c573382841614614204565b808754169216918214613d12575b835163a9059cbb60e01b81526001600160a01b03909116858201908152602081810194909452909291839182908890829060400103925af1908115613d08578491613cea575b5015613cb5578280f35b906020606492519162461bcd60e51b8352820152600f60248201526e151c985b9cd9995c8819985a5b1959608a1b6044820152fd5b613d02915060203d81116106275761061981836140df565b38613cab565b82513d86823e3d90fd5b83516370a0823160e01b81523086820152602081602481865afa8015613dc8578790613d91575b613d479150601d54906142f3565b831115613c6557835162461bcd60e51b8152602081870152601d60248201527f43616e6e6f74207769746864726177207374616b656420746f6b656e730000006044820152606490fd5b506020813d8211613dc0575b81613daa602093836140df565b81010312613dbc57613d479051613d39565b8680fd5b3d9150613d9d565b85513d89823e3d90fd5b50503461046b57602036600319011261046b57803533845260106020526119b360ff8486205416156143e2565b5050503461066a578160031936011261066a57602090600a549051908152f35b85903461066a578160031936011261066a576002546001600160a01b03168152602090f35b600435906001600160a01b0382168203613e5a57565b600080fd5b9181601f84011215613e5a5782359167ffffffffffffffff8311613e5a5760208381860195010111613e5a57565b90600319820160c08112613e5a57608013613e5a576004916084359067ffffffffffffffff8211613e5a57613ec3918401613e5f565b909160a43590565b6040906003190112613e5a576004356001600160a01b0381168103613e5a57906024358015158103613e5a5790565b919082519283825260005b848110613f26575050826000602080949584010152601f8019910116010190565b602081830181015184830182015201613f05565b602080820190808352835180925260409283810182858560051b8401019601946000925b858410613f6f575050505050505090565b909192939495968580613fdc600193603f198682030188528b5180518252858060a01b0380858301511685840152808983015116898401526060908183015116908301526080808201519083015260a0808201519083015260c0809101519160e080928201520190613efa565b990194019401929594939190613f5e565b8054821015614009576000526007602060002091020190600090565b634e487b7160e01b600052603260045260246000fd5b90600182811c9216801561404f575b602083101461403957565b634e487b7160e01b600052602260045260246000fd5b91607f169161402e565b60e0810190811067ffffffffffffffff82111761407557604052565b634e487b7160e01b600052604160045260246000fd5b60c0810190811067ffffffffffffffff82111761407557604052565b6080810190811067ffffffffffffffff82111761407557604052565b6040810190811067ffffffffffffffff82111761407557604052565b90601f8019910116810190811067ffffffffffffffff82111761407557604052565b90604051918260008254926141158461401f565b9081845260019485811690816000146141845750600114614141575b505061413f925003836140df565b565b9093915060005260209081600020936000915b81831061416c57505061413f93508201013880614131565b85548884018501529485019487945091830191614154565b91505061413f94506020925060ff191682840152151560051b8201013880614131565b9360e095926141e998979492865260018060a01b0392838092166020880152166040860152166060840152608083015260a08201528160c08201520190613efa565b90565b80548210156140095760005260206000200190600090565b1561420b57565b60405162461bcd60e51b815260206004820152600a60248201526927b7363c9037bbb732b960b11b6044820152606490fd5b1561424457565b60405162461bcd60e51b815260206004820152600d60248201526c496e76616c696420707269636560981b6044820152606490fd5b1561428057565b60405162461bcd60e51b815260206004820152600f60248201526e496e76616c6964206164647265737360881b6044820152606490fd5b156142be57565b60405162461bcd60e51b815260206004820152600d60248201526c496e76616c696420726174696f60981b6044820152606490fd5b9190820391821161430057565b634e487b7160e01b600052601160045260246000fd5b8115614320570490565b634e487b7160e01b600052601260045260246000fd5b8181029291811591840414171561430057565b9190820180921161430057565b60115490811580156143d9575b6143c8576001600160a01b031660009081526015602052604090205460ff16156143d057601354905b81156143c8576141e9916143a36143a892426142f3565b614316565b611957620f42406143be60125460075490614336565b0460065492614336565b505060065490565b6014549061438c565b50814210614363565b156143e957565b60405162461bcd60e51b81526020600482015260126024820152711059191c995cdcc81a5cc8189b1bd8dad95960721b6044820152606490fd5b8054600160401b81101561407557614440916001820181556141ec565b819291549060031b9160018060a01b03809116831b921b1916179055565b1561446557565b60405162461bcd60e51b815260206004820152600d60248201526c26bab9ba1039b2b7321021272160991b6044820152606490fd5b156144a157565b60405162461bcd60e51b815260206004820152601260248201527114d85b19481d1bdad95b881b9bdd081cd95d60721b6044820152606490fd5b67ffffffffffffffff811161407557601f01601f191660200190565b3d15614522573d90614508826144db565b9161451660405193846140df565b82523d6000602084013e565b606090565b1561452e57565b60405162461bcd60e51b8152602060048201526013602482015272109390881d1c985b9cd9995c8819985a5b1959606a1b6044820152606490fd5b60405190614576826140c3565b600382526242555960e81b6020830152565b1561458f57565b60405162461bcd60e51b815260206004820152601d60248201527f416d6f756e74206d7573742062652067726561746572207468616e20300000006044820152606490fd5b156145db57565b60405162461bcd60e51b81526020600482015260136024820152721554d115081b9bdd0818dbdb999a59dd5c9959606a1b6044820152606490fd5b90816020910312613e5a57518015158103613e5a5790565b1561463557565b60405162461bcd60e51b81526020600482015260146024820152731554d115081d1c985b9cd9995c8819985a5b195960621b6044820152606490fd5b1561467857565b60405162461bcd60e51b81526020600482015260136024820152721554d110c81b9bdd0818dbdb999a59dd5c9959606a1b6044820152606490fd5b156146ba57565b60405162461bcd60e51b81526020600482015260146024820152731554d110c81d1c985b9cd9995c8819985a5b195960621b6044820152606490fd5b156146fd57565b60405162461bcd60e51b8152602060048201526012602482015271115512081b9bdd0818dbdb999a59dd5c995960721b6044820152606490fd5b1561473e57565b60405162461bcd60e51b8152602060048201526013602482015272115512081d1c985b9cd9995c8819985a5b1959606a1b6044820152606490fd5b1561478057565b60405162461bcd60e51b8152602060048201526012602482015271109510c81b9bdd0818dbdb999a59dd5c995960721b6044820152606490fd5b156147c157565b60405162461bcd60e51b8152602060048201526013602482015272109510c81d1c985b9cd9995c8819985a5b1959606a1b6044820152606490fd5b1561480357565b60405162461bcd60e51b815260206004820152601260248201527114d3d3081b9bdd0818dbdb999a59dd5c995960721b6044820152606490fd5b1561484457565b60405162461bcd60e51b815260206004820152601360248201527214d3d3081d1c985b9cd9995c8819985a5b1959606a1b6044820152606490fd5b356001600160a01b0381168103613e5a5790565b9190606083013592834211614b85576148ab8161487f565b6001600160a01b0391903390831603614b4d5760409283820135906000953387526020936028855286882054841115614b1c5760275490856148ec8261487f565b9101996148f88b61487f565b90888a5192818a8501957f91b089318bbdf627bacec662873c12cc3afdc69db73f084d7726e9ce2907280a8752168c85015216606083015286608083015260a082015260a081526149488161408b565b5190208751908682019261190160f01b84526022830152604282015260428152614971816140a7565b5190209061497e816144db565b9261498b885194856140df565b8184523682820111614b1857918886838694611c6b96836149b199013784010152614cd6565b838060265416911603614ae45733855260288252808486205583519081527fb23e07a4fc171f5f9242d4254c3b66b893beaab2f3787495c0f2d09dd3ef9726823392a2816149fe8661487f565b16151580614ad0575b80614abc575b80614a9d575b614a1f575b5050505050565b7f5f1ca2fcc108b751843a763e60d2201f593516109d7dbb1b700468f2d4190bb7926024614a8592614a508861487f565b338852602382528584892091166001600160601b0360a01b82541617905584614a788961487f565b1687525233908520614423565b614a8f339461487f565b169180a33880808080614a18565b5081614aa88661487f565b1684526010815260ff838520541615614a13565b503384526023815281838520541615614a0d565b503382614adc8761487f565b161415614a07565b835162461bcd60e51b815260048101839052600d60248201526c426164207369676e617475726560981b6044820152606490fd5b8880fd5b865162461bcd60e51b815260048101869052600a602482015269139bdb98d9481d5cd95960b21b6044820152606490fd5b60405162461bcd60e51b815260206004820152601060248201526f2737ba103cb7bab9103b37bab1b432b960811b6044820152606490fd5b60405162461bcd60e51b815260206004820152600f60248201526e159bdd58da195c88195e1c1a5c9959608a1b6044820152606490fd5b6005811015614cc05780614bcd5750565b60018103614c1a5760405162461bcd60e51b815260206004820152601860248201527f45434453413a20696e76616c6964207369676e617475726500000000000000006044820152606490fd5b60028103614c675760405162461bcd60e51b815260206004820152601f60248201527f45434453413a20696e76616c6964207369676e6174757265206c656e677468006044820152606490fd5b600314614c7057565b60405162461bcd60e51b815260206004820152602260248201527f45434453413a20696e76616c6964207369676e6174757265202773272076616c604482015261756560f01b6064820152608490fd5b634e487b7160e01b600052602160045260246000fd5b906041815114600014614d0457614d00916020820151906060604084015193015160001a90614d0e565b9091565b5050600090600290565b9291907f7fffffffffffffffffffffffffffffff5d576e7357a4501ddfe92f46681b20a08311614d915791608094939160ff602094604051948552168484015260408301526060820152600093849182805260015afa15614d845781516001600160a01b03811615614d7e579190565b50600190565b50604051903d90823e3d90fd5b50505050600090600390565b60405190614daa826140c3565b600482526314d1531360e21b6020830152565b15614dc457565b60405162461bcd60e51b8152602060048201526015602482015274151bdad95b881d1c985b9cd9995c8819985a5b1959605a1b6044820152606490fd5b60001981146143005760010190565b15614e1757565b60405162461bcd60e51b815260206004820152601460248201527314dd185ad948191bd95cc81b9bdd08195e1a5cdd60621b6044820152606490fd5b15614e5a57565b60405162461bcd60e51b815260206004820152600f60248201526e14dd185ad9481b9bdd08199bdd5b99608a1b6044820152606490fd5b15614e9857565b60405162461bcd60e51b815260206004820152601060248201526f5374616b65206e6f742061637469766560801b6044820152606490fd5b6000818152601c60209081526040808320546001600160a01b031690614ef7821515614e10565b9293849390849081808080805b888b52601b808b52888c2080548310156150c557614f23838992613fed565b505414614f395750614f3490614e01565b614f04565b96509a5050505050508285528084528582862090614f5691613fed565b5060050154958386528185528083872090614f7091613fed565b5060040154928487528286528181882090614f8a91613fed565b50926001809401549686895281815283838a2090614fa791613fed565b506003015496895252862090614fbc91613fed565b506006015460ff16614fd0614fd592614e53565b614e91565b4281146150be57614fe690426142f3565b926019548092605a811460001461504457505060038202918083046003149015171561503057506141e9939261502463bbf81e00936150299360011c905b614336565b0490614349565b634e487b7160e01b81526011600452602490fd5b60b4810361507a5750508160011b918083046002149015171561503057506141e9939261502463bbf81e00936150299390614336565b61016d919493501461509f575b506141e9939261502463bbf81e009361502993614336565b60038392930291808304600314901517156150305750906141e9615087565b5050505090565b50505096509650979350614fd5929150614fd090614e53565b156150e557565b60405162461bcd60e51b815260206004820152600f60248201526e2737ba1039ba30b5b29037bbb732b960891b6044820152606490fd5b600033815260206023815260018060a01b039060408281852054169283151580615288575b61514d57505050505090565b606461515b60225488614336565b8654845163a9059cbb60e01b81526001600160a01b03881660048201529290910460248301819052969190859082906044908290869088165af190811561527e578291615261575b501561521d577f94ccb86446750660ec532b1beb1fb55f5ba2fffca042c4c53f4c080e72595b3893929181866152139352602585528381206151e6898254614349565b9055541686888451926151f8846140c3565b6008845267149151915494905360c21b878501528089615a73565b519384523393a390565b825162461bcd60e51b815260048101859052601f60248201527f526566657272616c20726577617264207472616e73666572206661696c6564006044820152606490fd5b6152789150853d87116106275761061981836140df565b386151a3565b84513d84823e3d90fd5b508385526010835260ff828620541615615141565b600090815b6001600160a01b0382166000908152601b60205260409020805482101561534e5760066152d18360ff93613fed565b500154166152e7576152e290614e01565b6152a2565b50905060015b158061532c575b6152fb5750565b6001600160a01b03166000908152602160205260409020805460ff19169055601f5480156143005760001901601f55565b506001600160a01b03811660009081526021602052604090205460ff166152f4565b5050906152ed565b60008054604080516370a0823160e01b81523060048083019190915293959491936020936001600160a01b0316918481602481865afa9081156155f35790849189916155c2575b501061557f57600e546b01f04ef12cb04cf1580000006153bd8583614349565b116155465783903389526015865260ff878a2054166000146154d2575050600f546a01a784379d99db420000006153f48583614349565b1161548f5791839161540b869561544b9795614349565b600f555b61541b83600e54614349565b600e55865163a9059cbb60e01b81523391810191825260208201939093529194859283918a918391604090910190565b03925af1928315615486575061413f939492615469575b5050614dbd565b61547f9250803d106106275761061981836140df565b3880615462565b513d86823e3d90fd5b855162461bcd60e51b8152808301869052601b60248201527f4578636565647320776169746c69737420616c6c6f636174696f6e00000000006044820152606490fd5b6b01eea76cf512b31616000000916133fc6154f092600f54906142f3565b11615503579183929161544b949261540f565b845162461bcd60e51b8152908101849052601960248201527f45786365656473207075626c696320616c6c6f636174696f6e000000000000006044820152606490fd5b855162461bcd60e51b81528083018690526013602482015272457863656564732073616c6520737570706c7960681b6044820152606490fd5b845162461bcd60e51b8152908101849052601a60248201527f496e73756666696369656e7420746f6b656e2062616c616e63650000000000006044820152606490fd5b809250868092503d83116155ec575b6155db81836140df565b81010312611f04578390513861539d565b503d6155d1565b86513d8a823e3d90fd5b601754600160401b81101561407557600190818101806017558110156140095760076000916017835202918351837fc624b66cc0138b8fabc209247f72d758e1cf3343756d543badbf24212bed8c15015560c07fc624b66cc0138b8fabc209247f72d758e1cf3343756d543badbf24212bed8c1b7fc624b66cc0138b8fabc209247f72d758e1cf3343756d543badbf24212bed8c1685019460018060a01b0360209681888a015116906001600160601b0360a01b91828254161790557fc624b66cc0138b8fabc209247f72d758e1cf3343756d543badbf24212bed8c1783018260408b015116828254161790557fc624b66cc0138b8fabc209247f72d758e1cf3343756d543badbf24212bed8c1883019160608a0151169082541617905560808701517fc624b66cc0138b8fabc209247f72d758e1cf3343756d543badbf24212bed8c1982015560a08701517fc624b66cc0138b8fabc209247f72d758e1cf3343756d543badbf24212bed8c1a820155019401519182519267ffffffffffffffff84116158755761578e865461401f565b601f811161582f575b508491601f85116001146157d05793945084929190836157c5575b50501b916000199060031b1c1916179055565b0151925038806157b2565b86815285812093958591601f198316915b8883831061581557505050106157fc575b505050811b019055565b015160001960f88460031b161c191690553880806157f2565b8587015188559096019594850194879350908101906157e1565b868352858320601f860160051c81019187871061586b575b601f0160051c019084905b828110615860575050615797565b848155018490615852565b9091508190615847565b634e487b7160e01b82526041600452602482fd5b8054600160401b811015614075576158a8906001928382018155613fed565b6159fe578251815560c060068383019260018060a01b03602094818689015116906001600160601b0360a01b9182825416179055600283018260408a015116828254161790556003830191606089015116908254161790556080860151600482015560a08601516005820155019301519081519167ffffffffffffffff831161407557615935855461401f565b601f81116159b5575b5081601f841160011461596c57509282939183926000946157c55750501b916000199060031b1c1916179055565b919083601f1981168760005284600020946000905b8883831061599b57505050106157fc57505050811b019055565b858701518855909601959485019487935090810190615981565b6000868152838120601f860160051c8101928587106159f4575b601f0160051c019186905b8381106159e95750505061593e565b8281550186906159da565b90925082906159cf565b634e487b7160e01b600052600060045260246000fd5b9261413f94919260405194615a2886614059565b42865260018060a01b038091169485602088015260006040880152166060860152608085015260a084015260c08301526000526016602052615a6e816040600020615889565b6155fd565b9261413f959294919360405195615a8987614059565b42875260018060a01b0380809316968760208a0152166040880152166060860152608085015260a084015260c08301526000526016602052615a6e816040600020615889565b67ffffffffffffffff81116140755760051b60200190565b90604051615af481614059565b60c060ff600683958054855260018101546020860152600281015460408601526003810154606086015260048101546080860152600581015460a08601520154161515910152565b60405190615b4982614059565b8160c06000918281528260208201528260408201528260608201528260808201528260a0820152015256fe377aadedb6b2a771959584d10a6a36eccb5f56b4eb3a48525f76108d2660d8d4a26469706673582212205a96be6a6ffbb8200e19b04fcb00dbfb36d5860d6dd58c3ca9d394ada0f60da064736f6c63430008130033",
  "linkReferences": {},
  "deployedLinkReferences": {}
}