{
  "_format": "hh-sol-artifact-1",
  "contractName": "TokenICO",
  "sourceName": "contracts/TokenICO.sol",
  "abi": [
    {
      "inputs": [],
      "stateMutability": "nonpayable",
      "type": "constructor"
    },
    {
      "anonymous": false,
      "inputs": [
        {
          "indexed": false,
          "internalType": "uint256",
          "name": "oldAPY",
          "type": "uint256"
        },
        {
          "indexed": false,
          "internalType": "uint256",
          "name": "newAPY",
          "type": "uint256"
        }
      ],
      "name": "APYUpdated",
      "type": "event"
    },
    {
      "anonymous": false,
      "inputs": [
        {
          "indexed": true,
          "internalType": "address",
          "name": "user",
          "type": "address"
        },
        {
          "indexed": false,
          "internalType": "bool",
          "name": "blocked",
          "type": "bool"
        }
      ],
      "name": "AddressBlocked",
      "type": "event"
    },
    {
      "anonymous": false,
      "inputs": [
        {
          "indexed": true,
          "internalType": "address",
          "name": "user",
          "type": "address"
        },
        {
          "indexed": true,
          "internalType": "uint256",
          "name": "stakeId",
          "type": "uint256"
        },
        {
          "indexed": false,
          "internalType": "uint256",
          "name": "amount",
          "type": "uint256"
        },
        {
          "indexed": false,
          "internalType": "uint256",
          "name": "penalty",
          "type": "uint256"
        }
      ],
      "name": "EarlyUnstake",
      "type": "event"
    },
    {
      "anonymous": false,
      "inputs": [
        {
          "indexed": false,
          "internalType": "uint256",
          "name": "oldMinStake",
          "type": "uint256"
        },
        {
          "indexed": false,
          "internalType": "uint256",
          "name": "newMinStake",
          "type": "uint256"
        }
      ],
      "name": "MinStakeUpdated",
      "type": "event"
    },
    {
      "anonymous": false,
      "inputs": [
        {
          "indexed": false,
          "internalType": "string",
          "name": "priceType",
          "type": "string"
        },
        {
          "indexed": false,
          "internalType": "uint256",
          "name": "oldPrice",
          "type": "uint256"
        },
        {
          "indexed": false,
          "internalType": "uint256",
          "name": "newPrice",
          "type": "uint256"
        }
      ],
      "name": "PriceUpdated",
      "type": "event"
    },
    {
      "anonymous": false,
      "inputs": [
        {
          "indexed": false,
          "internalType": "uint256",
          "name": "oldPercentage",
          "type": "uint256"
        },
        {
          "indexed": false,
          "internalType": "uint256",
          "name": "newPercentage",
          "type": "uint256"
        }
      ],
      "name": "ReferralPercentageUpdated",
      "type": "event"
    },
    {
      "anonymous": false,
      "inputs": [
        {
          "indexed": true,
          "internalType": "address",
          "name": "referrer",
          "type": "address"
        },
        {
          "indexed": true,
          "internalType": "address",
          "name": "referee",
          "type": "address"
        }
      ],
      "name": "ReferralRegistered",
      "type": "event"
    },
    {
      "anonymous": false,
      "inputs": [
        {
          "indexed": true,
          "internalType": "address",
          "name": "referrer",
          "type": "address"
        },
        {
          "indexed": true,
          "internalType": "address",
          "name": "referee",
          "type": "address"
        },
        {
          "indexed": false,
          "internalType": "uint256",
          "name": "amount",
          "type": "uint256"
        }
      ],
      "name": "ReferralRewardPaid",
      "type": "event"
    },
    {
      "anonymous": false,
      "inputs": [
        {
          "indexed": true,
          "internalType": "address",
          "name": "user",
          "type": "address"
        },
        {
          "indexed": true,
          "internalType": "uint256",
          "name": "stakeId",
          "type": "uint256"
        },
        {
          "indexed": false,
          "internalType": "uint256",
          "name": "reward",
          "type": "uint256"
        }
      ],
      "name": "RewardHarvested",
      "type": "event"
    },
    {
      "anonymous": false,
      "inputs": [
        {
          "indexed": true,
          "internalType": "address",
          "name": "buyer",
          "type": "address"
        },
        {
          "indexed": true,
          "internalType": "address",
          "name": "stablecoin",
          "type": "address"
        },
        {
          "indexed": false,
          "internalType": "uint256",
          "name": "stablecoinAmount",
          "type": "uint256"
        },
        {
          "indexed": false,
          "internalType": "uint256",
          "name": "ethPaid",
          "type": "uint256"
        },
        {
          "indexed": false,
          "internalType": "uint256",
          "name": "timestamp",
          "type": "uint256"
        }
      ],
      "name": "StablecoinSold",
      "type": "event"
    },
    {
      "anonymous": false,
      "inputs": [
        {
          "indexed": true,
          "internalType": "address",
          "name": "user",
          "type": "address"
        },
        {
          "indexed": true,
          "internalType": "uint256",
          "name": "stakeId",
          "type": "uint256"
        },
        {
          "indexed": false,
          "internalType": "uint256",
          "name": "amount",
          "type": "uint256"
        },
        {
          "indexed": false,
          "internalType": "uint256",
          "name": "lockPeriod",
          "type": "uint256"
        }
      ],
      "name": "Staked",
      "type": "event"
    },
    {
      "anonymous": false,
      "inputs": [
        {
          "indexed": true,
          "internalType": "address",
          "name": "buyer",
          "type": "address"
        },
        {
          "indexed": true,
          "internalType": "address",
          "name": "paymentMethod",
          "type": "address"
        },
        {
          "indexed": false,
          "internalType": "uint256",
          "name": "amountPaid",
          "type": "uint256"
        },
        {
          "indexed": false,
          "internalType": "uint256",
          "name": "tokensBought",
          "type": "uint256"
        },
        {
          "indexed": false,
          "internalType": "uint256",
          "name": "timestamp",
          "type": "uint256"
        }
      ],
      "name": "TokensPurchased",
      "type": "event"
    },
    {
      "anonymous": false,
      "inputs": [
        {
          "indexed": true,
          "internalType": "address",
          "name": "user",
          "type": "address"
        },
        {
          "indexed": true,
          "internalType": "uint256",
          "name": "stakeId",
          "type": "uint256"
        },
        {
          "indexed": false,
          "internalType": "uint256",
          "name": "amount",
          "type": "uint256"
        }
      ],
      "name": "Unstaked",
      "type": "event"
    },
    {
      "inputs": [],
      "name": "EARLY_WITHDRAWAL_PENALTY_PERCENT",
      "outputs": [
        {
          "internalType": "uint256",
          "name": "",
          "type": "uint256"
        }
      ],
      "stateMutability": "view",
      "type": "function"
    },
    {
      "inputs": [
        {
          "internalType": "uint256",
          "name": "",
          "type": "uint256"
        }
      ],
      "name": "allTransactions",
      "outputs": [
        {
          "internalType": "uint256",
          "name": "timestamp",
          "type": "uint256"
        },
        {
          "internalType": "address",
          "name": "user",
          "type": "address"
        },
        {
          "internalType": "address",
          "name": "tokenIn",
          "type": "address"
        },
        {
          "internalType": "address",
          "name": "tokenOut",
          "type": "address"
        },
        {
          "internalType": "uint256",
          "name": "amountIn",
          "type": "uint256"
        },
        {
          "internalType": "uint256",
          "name": "amountOut",
          "type": "uint256"
        },
        {
          "internalType": "string",
          "name": "transactionType",
          "type": "string"
        }
      ],
      "stateMutability": "view",
      "type": "function"
    },
    {
      "inputs": [],
      "name": "baseAPY",
      "outputs": [
        {
          "internalType": "uint256",
          "name": "",
          "type": "uint256"
        }
      ],
      "stateMutability": "view",
      "type": "function"
    },
    {
      "inputs": [
        {
          "internalType": "address",
          "name": "",
          "type": "address"
        }
      ],
      "name": "blockedAddresses",
      "outputs": [
        {
          "internalType": "bool",
          "name": "",
          "type": "bool"
        }
      ],
      "stateMutability": "view",
      "type": "function"
    },
    {
      "inputs": [],
      "name": "bnbAddress",
      "outputs": [
        {
          "internalType": "address",
          "name": "",
          "type": "address"
        }
      ],
      "stateMutability": "view",
      "type": "function"
    },
    {
      "inputs": [],
      "name": "bnbRatio",
      "outputs": [
        {
          "internalType": "uint256",
          "name": "",
          "type": "uint256"
        }
      ],
      "stateMutability": "view",
      "type": "function"
    },
    {
      "inputs": [],
      "name": "btcAddress",
      "outputs": [
        {
          "internalType": "address",
          "name": "",
          "type": "address"
        }
      ],
      "stateMutability": "view",
      "type": "function"
    },
    {
      "inputs": [],
      "name": "btcRatio",
      "outputs": [
        {
          "internalType": "uint256",
          "name": "",
          "type": "uint256"
        }
      ],
      "stateMutability": "view",
      "type": "function"
    },
    {
      "inputs": [],
      "name": "buyUSDC",
      "outputs": [],
      "stateMutability": "payable",
      "type": "function"
    },
    {
      "inputs": [],
      "name": "buyUSDT",
      "outputs": [],
      "stateMutability": "payable",
      "type": "function"
    },
    {
      "inputs": [
        {
          "internalType": "uint256",
          "name": "bnbAmount",
          "type": "uint256"
        }
      ],
      "name": "buyWithBNB",
      "outputs": [],
      "stateMutability": "nonpayable",
      "type": "function"
    },
    {
      "inputs": [
        {
          "internalType": "uint256",
          "name": "btcAmount",
          "type": "uint256"
        }
      ],
      "name": "buyWithBTC",
      "outputs": [],
      "stateMutability": "nonpayable",
      "type": "function"
    },
    {
      "inputs": [],
      "name": "buyWithETH",
      "outputs": [],
      "stateMutability": "payable",
      "type": "function"
    },
    {
      "inputs": [
        {
          "internalType": "uint256",
          "name": "solAmount",
          "type": "uint256"
        }
      ],
      "name": "buyWithSOL",
      "outputs": [],
      "stateMutability": "nonpayable",
      "type": "function"
    },
    {
      "inputs": [
        {
          "internalType": "uint256",
          "name": "usdcAmount",
          "type": "uint256"
        }
      ],
      "name": "buyWithUSDC",
      "outputs": [],
      "stateMutability": "nonpayable",
      "type": "function"
    },
    {
      "inputs": [
        {
          "internalType": "uint256",
          "name": "usdtAmount",
          "type": "uint256"
        }
      ],
      "name": "buyWithUSDT",
      "outputs": [],
      "stateMutability": "nonpayable",
      "type": "function"
    },
    {
      "inputs": [
        {
          "internalType": "uint256",
          "name": "stakeId",
          "type": "uint256"
        }
      ],
      "name": "calculateRewards",
      "outputs": [
        {
          "internalType": "uint256",
          "name": "",
          "type": "uint256"
        }
      ],
      "stateMutability": "view",
      "type": "function"
    },
    {
      "inputs": [],
      "name": "ethPriceForStablecoin",
      "outputs": [
        {
          "internalType": "uint256",
          "name": "",
          "type": "uint256"
        }
      ],
      "stateMutability": "view",
      "type": "function"
    },
    {
      "inputs": [],
      "name": "ethPriceForToken",
      "outputs": [
        {
          "internalType": "uint256",
          "name": "",
          "type": "uint256"
        }
      ],
      "stateMutability": "view",
      "type": "function"
    },
    {
      "inputs": [],
      "name": "getAllTransactions",
      "outputs": [
        {
          "components": [
            {
              "internalType": "uint256",
              "name": "timestamp",
              "type": "uint256"
            },
            {
              "internalType": "address",
              "name": "user",
              "type": "address"
            },
            {
              "internalType": "address",
              "name": "tokenIn",
              "type": "address"
            },
            {
              "internalType": "address",
              "name": "tokenOut",
              "type": "address"
            },
            {
              "internalType": "uint256",
              "name": "amountIn",
              "type": "uint256"
            },
            {
              "internalType": "uint256",
              "name": "amountOut",
              "type": "uint256"
            },
            {
              "internalType": "string",
              "name": "transactionType",
              "type": "string"
            }
          ],
          "internalType": "struct TokenICO.Transaction[]",
          "name": "",
          "type": "tuple[]"
        }
      ],
      "stateMutability": "view",
      "type": "function"
    },
    {
      "inputs": [],
      "name": "getContractInfo",
      "outputs": [
        {
          "internalType": "address",
          "name": "tokenAddress",
          "type": "address"
        },
        {
          "internalType": "uint256",
          "name": "tokenBalance",
          "type": "uint256"
        },
        {
          "internalType": "uint256",
          "name": "ethPrice",
          "type": "uint256"
        },
        {
          "internalType": "uint256",
          "name": "stablecoinPrice",
          "type": "uint256"
        },
        {
          "internalType": "uint256",
          "name": "totalSold",
          "type": "uint256"
        },
        {
          "internalType": "address",
          "name": "usdtAddr",
          "type": "address"
        },
        {
          "internalType": "address",
          "name": "usdcAddr",
          "type": "address"
        },
        {
          "internalType": "uint256",
          "name": "usdtTokenRatio",
          "type": "uint256"
        },
        {
          "internalType": "uint256",
          "name": "usdcTokenRatio",
          "type": "uint256"
        }
      ],
      "stateMutability": "view",
      "type": "function"
    },
    {
      "inputs": [
        {
          "internalType": "address",
          "name": "user",
          "type": "address"
        }
      ],
      "name": "getReferralInfo",
      "outputs": [
        {
          "internalType": "address",
          "name": "referrer",
          "type": "address"
        },
        {
          "internalType": "uint256",
          "name": "totalReferrals",
          "type": "uint256"
        },
        {
          "internalType": "uint256",
          "name": "totalRewardsEarned",
          "type": "uint256"
        },
        {
          "internalType": "uint256",
          "name": "rewardPercentage",
          "type": "uint256"
        }
      ],
      "stateMutability": "view",
      "type": "function"
    },
    {
      "inputs": [
        {
          "internalType": "uint256",
          "name": "stakeId",
          "type": "uint256"
        }
      ],
      "name": "getStakeDetails",
      "outputs": [
        {
          "internalType": "uint256",
          "name": "lockPeriod",
          "type": "uint256"
        },
        {
          "internalType": "uint256",
          "name": "pendingRewards",
          "type": "uint256"
        },
        {
          "internalType": "bool",
          "name": "active",
          "type": "bool"
        }
      ],
      "stateMutability": "view",
      "type": "function"
    },
    {
      "inputs": [
        {
          "internalType": "uint256",
          "name": "stakeId",
          "type": "uint256"
        }
      ],
      "name": "getStakeInfo",
      "outputs": [
        {
          "internalType": "uint256",
          "name": "id",
          "type": "uint256"
        },
        {
          "internalType": "address",
          "name": "stakeOwnerAddr",
          "type": "address"
        },
        {
          "internalType": "uint256",
          "name": "amount",
          "type": "uint256"
        },
        {
          "internalType": "uint256",
          "name": "startTime",
          "type": "uint256"
        }
      ],
      "stateMutability": "view",
      "type": "function"
    },
    {
      "inputs": [],
      "name": "getStakingInfo",
      "outputs": [
        {
          "internalType": "uint256",
          "name": "baseApyRate",
          "type": "uint256"
        },
        {
          "internalType": "uint256",
          "name": "minStakingAmount",
          "type": "uint256"
        },
        {
          "internalType": "uint256",
          "name": "totalTokensStaked",
          "type": "uint256"
        },
        {
          "internalType": "uint256",
          "name": "totalRewardsPaid",
          "type": "uint256"
        },
        {
          "internalType": "uint256",
          "name": "numberOfStakers",
          "type": "uint256"
        }
      ],
      "stateMutability": "view",
      "type": "function"
    },
    {
      "inputs": [],
      "name": "getTokenBalances",
      "outputs": [
        {
          "internalType": "uint256",
          "name": "tokenBalance",
          "type": "uint256"
        },
        {
          "internalType": "uint256",
          "name": "usdtBalance",
          "type": "uint256"
        },
        {
          "internalType": "uint256",
          "name": "usdcBalance",
          "type": "uint256"
        }
      ],
      "stateMutability": "view",
      "type": "function"
    },
    {
      "inputs": [],
      "name": "getTotalPenaltyCollected",
      "outputs": [
        {
          "internalType": "uint256",
          "name": "",
          "type": "uint256"
        }
      ],
      "stateMutability": "view",
      "type": "function"
    },
    {
      "inputs": [
        {
          "internalType": "address",
          "name": "referrer",
          "type": "address"
        }
      ],
      "name": "getUserReferrals",
      "outputs": [
        {
          "internalType": "address[]",
          "name": "",
          "type": "address[]"
        }
      ],
      "stateMutability": "view",
      "type": "function"
    },
    {
      "inputs": [
        {
          "internalType": "address",
          "name": "user",
          "type": "address"
        }
      ],
      "name": "getUserStakes",
      "outputs": [
        {
          "components": [
            {
              "internalType": "uint256",
              "name": "id",
              "type": "uint256"
            },
            {
              "internalType": "uint256",
              "name": "amount",
              "type": "uint256"
            },
            {
              "internalType": "uint256",
              "name": "startTime",
              "type": "uint256"
            },
            {
              "internalType": "uint256",
              "name": "lockPeriod",
              "type": "uint256"
            },
            {
              "internalType": "uint256",
              "name": "lastRewardCalculation",
              "type": "uint256"
            },
            {
              "internalType": "uint256",
              "name": "pendingRewards",
              "type": "uint256"
            },
            {
              "internalType": "bool",
              "name": "active",
              "type": "bool"
            }
          ],
          "internalType": "struct TokenICO.Stake[]",
          "name": "",
          "type": "tuple[]"
        }
      ],
      "stateMutability": "view",
      "type": "function"
    },
    {
      "inputs": [
        {
          "internalType": "address",
          "name": "user",
          "type": "address"
        }
      ],
      "name": "getUserStakingInfo",
      "outputs": [
        {
          "internalType": "uint256",
          "name": "totalUserStaked",
          "type": "uint256"
        },
        {
          "internalType": "uint256",
          "name": "totalPendingRewards",
          "type": "uint256"
        },
        {
          "internalType": "uint256",
          "name": "activeStakesCount",
          "type": "uint256"
        }
      ],
      "stateMutability": "view",
      "type": "function"
    },
    {
      "inputs": [
        {
          "internalType": "address",
          "name": "user",
          "type": "address"
        }
      ],
      "name": "getUserTransactions",
      "outputs": [
        {
          "components": [
            {
              "internalType": "uint256",
              "name": "timestamp",
              "type": "uint256"
            },
            {
              "internalType": "address",
              "name": "user",
              "type": "address"
            },
            {
              "internalType": "address",
              "name": "tokenIn",
              "type": "address"
            },
            {
              "internalType": "address",
              "name": "tokenOut",
              "type": "address"
            },
            {
              "internalType": "uint256",
              "name": "amountIn",
              "type": "uint256"
            },
            {
              "internalType": "uint256",
              "name": "amountOut",
              "type": "uint256"
            },
            {
              "internalType": "string",
              "name": "transactionType",
              "type": "string"
            }
          ],
          "internalType": "struct TokenICO.Transaction[]",
          "name": "",
          "type": "tuple[]"
        }
      ],
      "stateMutability": "view",
      "type": "function"
    },
    {
      "inputs": [
        {
          "internalType": "uint256",
          "name": "stakeId",
          "type": "uint256"
        }
      ],
      "name": "harvestRewards",
      "outputs": [],
      "stateMutability": "nonpayable",
      "type": "function"
    },
    {
      "inputs": [
        {
          "internalType": "address",
          "name": "",
          "type": "address"
        }
      ],
      "name": "hasStaked",
      "outputs": [
        {
          "internalType": "bool",
          "name": "",
          "type": "bool"
        }
      ],
      "stateMutability": "view",
      "type": "function"
    },
    {
      "inputs": [],
      "name": "minStakeAmount",
      "outputs": [
        {
          "internalType": "uint256",
          "name": "",
          "type": "uint256"
        }
      ],
      "stateMutability": "view",
      "type": "function"
    },
    {
      "inputs": [],
      "name": "nextStakeId",
      "outputs": [
        {
          "internalType": "uint256",
          "name": "",
          "type": "uint256"
        }
      ],
      "stateMutability": "view",
      "type": "function"
    },
    {
      "inputs": [],
      "name": "owner",
      "outputs": [
        {
          "internalType": "address",
          "name": "",
          "type": "address"
        }
      ],
      "stateMutability": "view",
      "type": "function"
    },
    {
      "inputs": [],
      "name": "referralRewardPercentage",
      "outputs": [
        {
          "internalType": "uint256",
          "name": "",
          "type": "uint256"
        }
      ],
      "stateMutability": "view",
      "type": "function"
    },
    {
      "inputs": [
        {
          "internalType": "address",
          "name": "",
          "type": "address"
        }
      ],
      "name": "referralRewards",
      "outputs": [
        {
          "internalType": "uint256",
          "name": "",
          "type": "uint256"
        }
      ],
      "stateMutability": "view",
      "type": "function"
    },
    {
      "inputs": [
        {
          "internalType": "address",
          "name": "",
          "type": "address"
        },
        {
          "internalType": "uint256",
          "name": "",
          "type": "uint256"
        }
      ],
      "name": "referrals",
      "outputs": [
        {
          "internalType": "address",
          "name": "",
          "type": "address"
        }
      ],
      "stateMutability": "view",
      "type": "function"
    },
    {
      "inputs": [
        {
          "internalType": "address",
          "name": "",
          "type": "address"
        }
      ],
      "name": "referrers",
      "outputs": [
        {
          "internalType": "address",
          "name": "",
          "type": "address"
        }
      ],
      "stateMutability": "view",
      "type": "function"
    },
    {
      "inputs": [
        {
          "internalType": "address",
          "name": "referrer",
          "type": "address"
        }
      ],
      "name": "registerReferrer",
      "outputs": [],
      "stateMutability": "nonpayable",
      "type": "function"
    },
    {
      "inputs": [],
      "name": "saleToken",
      "outputs": [
        {
          "internalType": "address",
          "name": "",
          "type": "address"
        }
      ],
      "stateMutability": "view",
      "type": "function"
    },
    {
      "inputs": [
        {
          "internalType": "address",
          "name": "user",
          "type": "address"
        },
        {
          "internalType": "bool",
          "name": "blocked",
          "type": "bool"
        }
      ],
      "name": "setBlockStatus",
      "outputs": [],
      "stateMutability": "nonpayable",
      "type": "function"
    },
    {
      "inputs": [
        {
          "internalType": "address",
          "name": "_token",
          "type": "address"
        }
      ],
      "name": "setSaleToken",
      "outputs": [],
      "stateMutability": "nonpayable",
      "type": "function"
    },
    {
      "inputs": [],
      "name": "solAddress",
      "outputs": [
        {
          "internalType": "address",
          "name": "",
          "type": "address"
        }
      ],
      "stateMutability": "view",
      "type": "function"
    },
    {
      "inputs": [],
      "name": "solRatio",
      "outputs": [
        {
          "internalType": "uint256",
          "name": "",
          "type": "uint256"
        }
      ],
      "stateMutability": "view",
      "type": "function"
    },
    {
      "inputs": [
        {
          "internalType": "uint256",
          "name": "",
          "type": "uint256"
        }
      ],
      "name": "stakeOwners",
      "outputs": [
        {
          "internalType": "address",
          "name": "",
          "type": "address"
        }
      ],
      "stateMutability": "view",
      "type": "function"
    },
    {
      "inputs": [
        {
          "internalType": "uint256",
          "name": "amount",
          "type": "uint256"
        },
        {
          "internalType": "uint256",
          "name": "lockPeriodDays",
          "type": "uint256"
        }
      ],
      "name": "stakeTokens",
      "outputs": [],
      "stateMutability": "nonpayable",
      "type": "function"
    },
    {
      "inputs": [],
      "name": "tokensSold",
      "outputs": [
        {
          "internalType": "uint256",
          "name": "",
          "type": "uint256"
        }
      ],
      "stateMutability": "view",
      "type": "function"
    },
    {
      "inputs": [],
      "name": "totalPenaltyCollected",
      "outputs": [
        {
          "internalType": "uint256",
          "name": "",
          "type": "uint256"
        }
      ],
      "stateMutability": "view",
      "type": "function"
    },
    {
      "inputs": [],
      "name": "totalRewardsDistributed",
      "outputs": [
        {
          "internalType": "uint256",
          "name": "",
          "type": "uint256"
        }
      ],
      "stateMutability": "view",
      "type": "function"
    },
    {
      "inputs": [],
      "name": "totalStaked",
      "outputs": [
        {
          "internalType": "uint256",
          "name": "",
          "type": "uint256"
        }
      ],
      "stateMutability": "view",
      "type": "function"
    },
    {
      "inputs": [],
      "name": "totalStakers",
      "outputs": [
        {
          "internalType": "uint256",
          "name": "",
          "type": "uint256"
        }
      ],
      "stateMutability": "view",
      "type": "function"
    },
    {
      "inputs": [
        {
          "internalType": "uint256",
          "name": "stakeId",
          "type": "uint256"
        }
      ],
      "name": "unstakeEarly",
      "outputs": [],
      "stateMutability": "nonpayable",
      "type": "function"
    },
    {
      "inputs": [
        {
          "internalType": "uint256",
          "name": "stakeId",
          "type": "uint256"
        }
      ],
      "name": "unstakeTokens",
      "outputs": [],
      "stateMutability": "nonpayable",
      "type": "function"
    },
    {
      "inputs": [
        {
          "internalType": "address",
          "name": "newAddress",
          "type": "address"
        },
        {
          "internalType": "uint256",
          "name": "newRatio",
          "type": "uint256"
        }
      ],
      "name": "updateBNB",
      "outputs": [],
      "stateMutability": "nonpayable",
      "type": "function"
    },
    {
      "inputs": [
        {
          "internalType": "address",
          "name": "newAddress",
          "type": "address"
        },
        {
          "internalType": "uint256",
          "name": "newRatio",
          "type": "uint256"
        }
      ],
      "name": "updateBTC",
      "outputs": [],
      "stateMutability": "nonpayable",
      "type": "function"
    },
    {
      "inputs": [
        {
          "internalType": "uint256",
          "name": "newAPY",
          "type": "uint256"
        }
      ],
      "name": "updateBaseAPY",
      "outputs": [],
      "stateMutability": "nonpayable",
      "type": "function"
    },
    {
      "inputs": [
        {
          "internalType": "uint256",
          "name": "newMinAmount",
          "type": "uint256"
        }
      ],
      "name": "updateMinStakeAmount",
      "outputs": [],
      "stateMutability": "nonpayable",
      "type": "function"
    },
    {
      "inputs": [
        {
          "internalType": "uint256",
          "name": "newPercentage",
          "type": "uint256"
        }
      ],
      "name": "updateReferralPercentage",
      "outputs": [],
      "stateMutability": "nonpayable",
      "type": "function"
    },
    {
      "inputs": [
        {
          "internalType": "address",
          "name": "newAddress",
          "type": "address"
        },
        {
          "internalType": "uint256",
          "name": "newRatio",
          "type": "uint256"
        }
      ],
      "name": "updateSOL",
      "outputs": [],
      "stateMutability": "nonpayable",
      "type": "function"
    },
    {
      "inputs": [
        {
          "internalType": "uint256",
          "name": "newPrice",
          "type": "uint256"
        }
      ],
      "name": "updateStablecoinPrice",
      "outputs": [],
      "stateMutability": "nonpayable",
      "type": "function"
    },
    {
      "inputs": [
        {
          "internalType": "uint256",
          "name": "newPrice",
          "type": "uint256"
        }
      ],
      "name": "updateTokenPrice",
      "outputs": [],
      "stateMutability": "nonpayable",
      "type": "function"
    },
    {
      "inputs": [
        {
          "internalType": "address",
          "name": "newAddress",
          "type": "address"
        },
        {
          "internalType": "uint256",
          "name": "newRatio",
          "type": "uint256"
        }
      ],
      "name": "updateUSDC",
      "outputs": [],
      "stateMutability": "nonpayable",
      "type": "function"
    },
    {
      "inputs": [
        {
          "internalType": "address",
          "name": "newAddress",
          "type": "address"
        },
        {
          "internalType": "uint256",
          "name": "newRatio",
          "type": "uint256"
        }
      ],
      "name": "updateUSDT",
      "outputs": [],
      "stateMutability": "nonpayable",
      "type": "function"
    },
    {
      "inputs": [],
      "name": "usdcAddress",
      "outputs": [
        {
          "internalType": "address",
          "name": "",
          "type": "address"
        }
      ],
      "stateMutability": "view",
      "type": "function"
    },
    {
      "inputs": [],
      "name": "usdcRatio",
      "outputs": [
        {
          "internalType": "uint256",
          "name": "",
          "type": "uint256"
        }
      ],
      "stateMutability": "view",
      "type": "function"
    },
    {
      "inputs": [],
      "name": "usdtAddress",
      "outputs": [
        {
          "internalType": "address",
          "name": "",
          "type": "address"
        }
      ],
      "stateMutability": "view",
      "type": "function"
    },
    {
      "inputs": [],
      "name": "usdtRatio",
      "outputs": [
        {
          "internalType": "uint256",
          "name": "",
          "type": "uint256"
        }
      ],
      "stateMutability": "view",
      "type": "function"
    },
    {
      "inputs": [
        {
          "internalType": "address",
          "name": "",
          "type": "address"
        },
        {
          "internalType": "uint256",
          "name": "",
          "type": "uint256"
        }
      ],
      "name": "userStakes",
      "outputs": [
        {
          "internalType": "uint256",
          "name": "id",
          "type": "uint256"
        },
        {
          "internalType": "uint256",
          "name": "amount",
          "type": "uint256"
        },
        {
          "internalType": "uint256",
          "name": "startTime",
          "type": "uint256"
        },
        {
          "internalType": "uint256",
          "name": "lockPeriod",
          "type": "uint256"
        },
        {
          "internalType": "uint256",
          "name": "lastRewardCalculation",
          "type": "uint256"
        },
        {
          "internalType": "uint256",
          "name": "pendingRewards",
          "type": "uint256"
        },
        {
          "internalType": "bool",
          "name": "active",
          "type": "bool"
        }
      ],
      "stateMutability": "view",
      "type": "function"
    },
    {
      "inputs": [
        {
          "internalType": "address",
          "name": "",
          "type": "address"
        },
        {
          "internalType": "uint256",
          "name": "",
          "type": "uint256"
        }
      ],
      "name": "userTransactions",
      "outputs": [
        {
          "internalType": "uint256",
          "name": "timestamp",
          "type": "uint256"
        },
        {
          "internalType": "address",
          "name": "user",
          "type": "address"
        },
        {
          "internalType": "address",
          "name": "tokenIn",
          "type": "address"
        },
        {
          "internalType": "address",
          "name": "tokenOut",
          "type": "address"
        },
        {
          "internalType": "uint256",
          "name": "amountIn",
          "type": "uint256"
        },
        {
          "internalType": "uint256",
          "name": "amountOut",
          "type": "uint256"
        },
        {
          "internalType": "string",
          "name": "transactionType",
          "type": "string"
        }
      ],
      "stateMutability": "view",
      "type": "function"
    },
    {
      "inputs": [
        {
          "internalType": "address",
          "name": "_token",
          "type": "address"
        },
        {
          "internalType": "uint256",
          "name": "_amount",
          "type": "uint256"
        }
      ],
      "name": "withdrawTokens",
      "outputs": [],
      "stateMutability": "nonpayable",
      "type": "function"
    }
  ],
  "bytecode": "0x60a080604052346100f55766038d7ea4c6800080600655600755600c60125568056bc75e2d6310000060135560016019556005601b5533608052601460085560146009556014600a556014600c55614bc390816100fb8239608051818181610459015281816107210152818161081401528181610b4001528181610e0301528181610f15015281816110d8015281816111d4015281816116a101528181611a5a01528181611b6a01528181611c120152818161206a0152818161250f0152818161292e015281816129ae01528181612f24015281816130c2015281816131c5015281816132b30152818161340b01526136580152f35b600080fdfe6080604081815260048036101561001557600080fd5b60009260e08435811c91826302d45457146137ca57508163032d975b146137aa57816306360b85146135ba57816306b091f9146133ea578163098134821461331a578163150d283d14613215578163182a676b146131635781631c042d35146131435781631ce24e16146131195781631e37c60614613095578163214405a91461307557816321874ae214613014578163251545da14612e1457816327506f5314612d345781632bb38809146125f45781632fd04c0814612a05578163366b17d6146129815781633a94be2d146129005781633b7b618814612614578163491cc756146125f45781634a3b68cc146125b85781634cdb312d146124f35781634f93208a146124b4578163518ab2a81461249457816353aaa63b1461245b57816357126d0d1461222b578163575cea6b146121805781635b36504014611f5a578163608e4dd014611c8057816363219c7214611bd3578163676c0d7714611b2b5781636f43f37314611b0b57816371d20fe714611a3e57816375506c9614611a1e5781637a9773dc146119fe5781637cc1f8671461191b5781638093360814611838578163817b1cd21461181857816383fabe03146117f8578163842e2981146116f057816386989038146116d05781638da5cb5b1461168b578163920a253e1461166b578163963c9dd3146115905781639ab4a445146115665781639c0fbd05146115495781639ea7685a1461138f578163a1dc903114611219578163a29f481c146111ab578163a7c601601461101d578163aeccf73514610e5a578163b006984f14610dd6578163b40cd21d14610d94578163b5d5b5fa14610d0157508063b842ec4414610c83578063c3333dfb14610aba578063c605af5314610a9b578063c93c8f3414610a5d578063d11c583a14610a34578063d3ea435014610a0d578063d7ff0714146108c5578063d8060cd5146107f9578063e697b5d8146107a0578063e985e36714610778578063ebcd3a13146106f5578063ee172546146106d6578063ef925399146105f8578063f1887684146105d9578063f30ef2e5146103bc578063f34a00fb14610399578063f7d76ae5146103725763fd9a11e51461033d57600080fd5b3461036e57602036600319011261036e5735825260156020908152918190205490516001600160a01b039091168152f35b8280fd5b503461036e578260031936011261036e575490516001600160a01b03909116815260209150f35b5050346103b857816003193601126103b8576020906007549051908152f35b5080fd5b503461036e576020806003193601126105d557813590338552600e81526103e960ff858720541615613bcb565b6103f4821515613d73565b84546001600160a01b03939061040d9085161515613c48565b836005541691821561059e57610425600c5485613c89565b92633b9aca009384810294818604149015171561058b5786516323b872dd60e01b8152338482019081526001600160a01b037f0000000000000000000000000000000000000000000000000000000000000000166020820152604081018790529091839183919082908c90829060600103925af1908115610581578891610554575b501561051c575050600080516020614b6e833981519152916104cb6105169261427a565b936104d5856144b4565b6104f281600554168684848b54166104eb613d54565b9333614a6c565b60055416945191829133954291846040919493926060820195825260208201520152565b0390a380f35b855162461bcd60e51b815291820152601360248201527214d3d3081d1c985b9cd9995c8819985a5b1959606a1b604482015260649150fd5b6105749150823d841161057a575b61056c81836139b7565b810190613e01565b386104a7565b503d610562565b87513d8a823e3d90fd5b634e487b7160e01b885260118352602488fd5b855162461bcd60e51b815291820152601260248201527114d3d3081b9bdd0818dbdb999a59dd5c995960721b604482015260649150fd5b8380fd5b5050346103b857816003193601126103b8576020906013549051908152f35b508290346103b857602091826003193601126106d3576001600160a01b0392836106206137ef565b168252600f81528482209182549361063785614ac8565b95610644885197886139b7565b85875283870194835283832092945b86861061066b578851806106678a8261384a565b0390f35b6007856001928b5161067c81613969565b8754815285858901541683820152856002890154168d820152856003890154166060820152868801546080820152600588015460a08201526106c0600689016139d9565b60c0820152815201940195019492610653565b80fd5b5050346103b857816003193601126103b8576020906017549051908152f35b5050346103b8573660031901126106d35761070e6137ef565b602435906001600160a01b0390610748337f0000000000000000000000000000000000000000000000000000000000000000841614613adc565b16610754811515613b51565b61075f821515613b8f565b6001600160601b0360a01b6005541617600555600c5580f35b5050346103b857816003193601126103b857905490516001600160a01b039091168152602090f35b5050346103b857806003193601126103b8576107ba6137ef565b6001600160a01b039081168352601d602052818320805460243594908510156106d357506020936107ea91613ac4565b92905490519260031b1c168152f35b503461036e57602036600319011261036e57803590610842337f00000000000000000000000000000000000000000000000000000000000000006001600160a01b031614613adc565b81156108825750907f171aabb8815c02fd00303450a77058600e3661eb75ce2e77972c0f080bc7099d91601354908060135582519182526020820152a180f35b606490602084519162461bcd60e51b8352820152602060248201527f4d696e207374616b65206d7573742062652067726561746572207468616e20306044820152fd5b503461036e57602036600319011261036e573560105481101561036e57601060079293520290610667827f1b6847dc741a1b0cd08d278845f9d819d87b734759afb55fe2de5cb82a9ae67201549160018060a01b0393847f1b6847dc741a1b0cd08d278845f9d819d87b734759afb55fe2de5cb82a9ae6738201541694807f1b6847dc741a1b0cd08d278845f9d819d87b734759afb55fe2de5cb82a9ae67483015416907f1b6847dc741a1b0cd08d278845f9d819d87b734759afb55fe2de5cb82a9ae675830154167f1b6847dc741a1b0cd08d278845f9d819d87b734759afb55fe2de5cb82a9ae67683015491610a027f1b6847dc741a1b0cd08d278845f9d819d87b734759afb55fe2de5cb82a9ae6787f1b6847dc741a1b0cd08d278845f9d819d87b734759afb55fe2de5cb82a9ae67786015495016139d9565b945197889788613a7f565b5091346106d35760203660031901126106d35750610a2d6020923561402e565b9051908152f35b5050346103b857816003193601126103b85760035490516001600160a01b039091168152602090f35b5050346103b85760203660031901126103b85760209160ff9082906001600160a01b03610a886137ef565b168152601a855220541690519015158152f35b5050346103b857816003193601126103b8576020906006549051908152f35b503461036e576020806003193601126105d557813590338552600e8152610ae760ff858720541615613bcb565b610af2821515613d73565b84546001600160a01b039390610b0b9085161515613c48565b8360035416918215610c4c57610b23600a5485613c89565b86516323b872dd60e01b8152338482019081526001600160a01b037f000000000000000000000000000000000000000000000000000000000000000016602082015260408101879052919490918391839182908c90829060600103925af1908115610581578891610c2f575b5015610bf7575050600080516020614b6e83398151915291610bb36105169261427a565b93610bbd856144b4565b610bd381600354168684848b54166104eb613d54565b60035416945191829133954291846040919493926060820195825260208201520152565b855162461bcd60e51b8152918201526013602482015272109390881d1c985b9cd9995c8819985a5b1959606a1b604482015260649150fd5b610c469150823d841161057a5761056c81836139b7565b38610b8f565b855162461bcd60e51b8152918201526012602482015271109390881b9bdd0818dbdb999a59dd5c995960721b604482015260649150fd5b509190346103b857806003193601126103b857610c9e6137ef565b6001600160a01b039081168352600f60205281832080549193602435928310156106d357506106679291610cd1916138fd565b50805493806001830154169581600284015416916003840154169083015491610a026006600586015495016139d9565b939050346106d357826003193601126106d357610d1c6137ef565b6001600160a01b031681526014602052828120805460243592908310156106d3575090610d48916138fd565b5080549260018201549260028301546003840154918401549260ff600660058701549601541695815197885260208801528601526060850152608084015260a0830152151560c0820152f35b505050346103b857816003193601126103b85760a090601254906013549060165460175491601854938151958652602086015284015260608301526080820152f35b505050346103b8573660031901126106d357610df06137ef565b602435906001600160a01b0390610e2a337f0000000000000000000000000000000000000000000000000000000000000000841614613adc565b16610e36811515613b51565b610e41821515613b8f565b6001600160601b0360a01b600154161760015560085580f35b50503461036e57602036600319011261036e57803590338452600e602052610e8860ff848620541615613bcb565b811591610e958315613d73565b84546001600160a01b039390610eae9085161515613c48565b8360025416610ebe811515613e5c565b620f4240918284029284840414171561100a57610edd60095484613c89565b93670de0b6b3a764000094858102958187041490151715610ff75786516323b872dd60e01b8152339181019182526001600160a01b037f0000000000000000000000000000000000000000000000000000000000000000166020838101919091526040830194909452939291849182908a90829060600103925af18015610fed57600080516020614b6e83398151915293610f86610f8b92610516958a91610fcf575b50613e9e565b61427a565b93610f95856144b4565b610fab81600254168684848b54166104eb613d54565b60025416945191829133954291846040919493926060820195825260208201520152565b610fe7915060203d811161057a5761056c81836139b7565b38610f80565b85513d88823e3d90fd5b634e487b7160e01b885260119052602487fd5b634e487b7160e01b875260118452602487fd5b50503461036e57602036600319011261036e57803590338452600e60205261104b60ff848620541615613bcb565b8115916110588315613d73565b84546001600160a01b0393906110719085161515613c48565b8360015416611081811515613dbf565b620f4240918284029284840414171561100a576110a060085484613c89565b93670de0b6b3a764000094858102958187041490151715610ff75786516323b872dd60e01b8152339181019182526001600160a01b037f0000000000000000000000000000000000000000000000000000000000000000166020838101919091526040830194909452939291849182908a90829060600103925af18015610fed57600080516020614b6e83398151915293610f8661114992610516958a9161118d575b50613e19565b93611153856144b4565b61116981600154168684848b54166104eb613d54565b60015416945191829133954291846040919493926060820195825260208201520152565b6111a5915060203d811161057a5761056c81836139b7565b38611143565b84346106d35760203660031901126106d3576111c56137ef565b6001600160a01b03906111fb337f0000000000000000000000000000000000000000000000000000000000000000841614613adc565b16611207811515613b51565b81546001600160a01b03191617815580f35b5050903461036e578260031936011261036e57825481516370a0823160e01b808252308286015290946001600160a01b03946020938490889060249082908a165afa958615611385578296611355575b602497508481600154168751998a809288825230878301525afa97881561134b57839861131b575b509060248592600254169487519586938492835230908301525afa92831561130f5781936112dc575b5050506106679151938493846040919493926060820195825260208201520152565b9091809350813d8311611308575b6112f481836139b7565b810103126106d357505161066738806112ba565b503d6112ea565b508351903d90823e3d90fd5b9097508481813d8311611344575b61133381836139b7565b8101031261036e5751966024611291565b503d611329565b86513d85823e3d90fd5b95508387813d831161137e575b61136c81836139b7565b810103126103b8576024965195611269565b503d611362565b85513d84823e3d90fd5b828585346103b8576020908160031936011261036e576113ad6137ef565b90338452600e83526113c560ff828620541615613bcb565b6001600160a01b03918216928315611507573384146114cd57338552601c815282828620541661148057338552601c815281852080546001600160a01b03191685179055838552601d90528320805490600160401b82101561146d579061143191600182018155613ac4565b819291549060031b9133831b921b191617905533907f5f1ca2fcc108b751843a763e60d2201f593516109d7dbb1b700468f2d4190bb78380a380f35b634e487b7160e01b855260418652602485fd5b8590608492519162461bcd60e51b8352820152602260248201527f416c72656164792072656769737465726564207769746820612072656665727260448201526132b960f11b6064820152fd5b8590606492519162461bcd60e51b8352820152601560248201527421b0b73737ba103932b332b9103cb7bab939b2b63360591b6044820152fd5b8590606492519162461bcd60e51b8352820152601860248201527f496e76616c6964207265666572726572206164647265737300000000000000006044820152fd5b505050346103b857816003193601126103b8576020905160058152f35b505050346103b857816003193601126103b85760015490516001600160a01b039091168152602090f35b50503461036e57602090816003193601126105d5573580845260158252828420546001600160a01b0316939092906115c9851515613f61565b6115d1614b35565b8195825b81845260148087528585208054831015611656576115f4838a926138fd565b50541461160a575061160590613f45565b6115d5565b6060985061162d93508486916116279461163d97528852206138fd565b50614ae0565b936116386001613fa4565b61402e565b60c0858501519401511515928251948552840152820152f35b505050509361163d9150611638606096613fa4565b505050346103b857816003193601126103b857602090601b549051908152f35b505050346103b857816003193601126103b857517f00000000000000000000000000000000000000000000000000000000000000006001600160a01b03168152602090f35b505050346103b857816003193601126103b8576020906018549051908152f35b9150503461036e576020806003193601126105d55790916001600160a01b036117176137ef565b168452601482528084209182549161172e83614ac8565b9261173b825194856139b7565b8084528284018095885283882088915b8383106117cb575050505080519482860193838752518094528186019496915b8483106117785786860387f35b87518051875280850151878601528082015187830152606080820151908801526080808201519088015260a0808201519088015260c090810151151590870152968301969481019460019092019161176b565b6007866001926117e2859d999a9b9d9c989c614ae0565b815201920192019190989695949897939761174b565b505050346103b857816003193601126103b8576020906008549051908152f35b505050346103b857816003193601126103b8576020906016549051908152f35b8385346106d357602090816003193601126106d3576118556137ef565b9091829182919082906001600160a01b0316815b818652601480855288872080548310156119035760ff600661188c858d946138fd565b500154166118a5575b50506118a090613f45565b611869565b8296946118d3839a60016118ca6118a0976118f5968e6118fb998e8d835252206138fd565b50015490613f54565b99858a5287526118ef6118e8898d8c206138fd565b505461402e565b90613f54565b93613f45565b949088611895565b89518981526020810186905260408101889052606090f35b929050346105d557836003193601126105d557835481516370a0823160e01b815230938101939093526001600160a01b039081169390602084602481885afa9384156119f45786946119b8575b50610120955060065490600754600d54908260015416926002541693600854966009549881519a8b5260208b01528901526060880152608087015260a086015260c0850152830152610100820152f35b9093506020813d82116119ec575b816119d3602093836139b7565b810103126119e8576101209550519238611968565b8580fd5b3d91506119c6565b83513d88823e3d90fd5b505050346103b857816003193601126103b857602090600c549051908152f35b505050346103b857816003193601126103b8576020906019549051908152f35b50503461036e57602036600319011261036e57803590611a88337f00000000000000000000000000000000000000000000000000000000000000006001600160a01b031614613adc565b8115611ac85750907f787a1fca55641ce34a438271930bbb9401df20db2b4f510d4f252227d85df43d91601254908060125582519182526020820152a180f35b606490602084519162461bcd60e51b8352820152601a60248201527f415059206d7573742062652067726561746572207468616e20300000000000006044820152fd5b505050346103b857816003193601126103b8576020906009549051908152f35b50503461036e57602036600319011261036e577f6e838f2a03741f5f2aff5480963b672fb0dd8430a4dc75db9b67ce009733c9fe9160a09135611b98337f00000000000000000000000000000000000000000000000000000000000000006001600160a01b031614613adc565b611ba3811515613b15565b60065491816006558051926060845260056060850152642a27a5a2a760d91b60808501526020840152820152a180f35b50503461036e57602036600319011261036e577f6e838f2a03741f5f2aff5480963b672fb0dd8430a4dc75db9b67ce009733c9fe9160a09135611c40337f00000000000000000000000000000000000000000000000000000000000000006001600160a01b031614613adc565b611c4b811515613b15565b600754918160075580519260608452600a60608501526929aa20a12622a1a7a4a760b11b60808501526020840152820152a180f35b5050903461036e57602090816003193601126105d5578291923592338552600e815260ff611cb381848820541615613bcb565b84865260158252828620546001600160a01b0390611cd4908216331461423c565b8694859283805b338b526014808852888c208054831015611f46579a611cfc83829c9d6138fd565b505414611d155750611d0d90613f45565b989798611cdb565b955097985050338952838552611d3e611d3088888c206138fd565b509160068093015416613fe2565b3389528385526002611d5288888c206138fd565b500154338a528486526003611d6989898d206138fd565b500154906201518091828102928184041490151715611f335790611d8c91613f54565b4210611efb57918491611def8a611e3595611dd1611da98d61402e565b9b3384528988528b611dbd828287206138fd565b50946001809601549b3382528a52206138fd565b500160ff1981541690556016611de8888254614021565b9055613fa4565b611df8336143fb565b611e028886613f54565b8a54885163a9059cbb60e01b8152339381019384526020840192909252909485939091169183918c918391604090910190565b03925af1908115611ef15790611e52918891611ed4575b50613f01565b848415159182611ec0575b84519081527f7fc4727e062e336010f2c282598ef5f14facb3de68cf8195c2f23e1454b2b74e843392a3611e8f578480f35b7ff87cfa2d5feaea949ad65bb76a26d8553381bcb6382adbc83dedd48961bf32d991519283523392a3388080808480f35b611ecc86601754613f54565b601755611e5d565b611eeb9150843d861161057a5761056c81836139b7565b38611e4c565b84513d89823e3d90fd5b606482858789519262461bcd60e51b845283015260248201527314dd1a5b1b081a5b881b1bd8dac81c195c9a5bd960621b6044820152fd5b634e487b7160e01b8b526011845260248bfd5b505050611e3593915091611def8693613fa4565b50508260031936011261036e573383526020600e8152611f8060ff848620541615613bcb565b341590611f8d8215613c0c565b6001546001600160a01b039290831690611fa8821515613dbf565b620f4240908134029134830414171561216d57600754611fc791613cb2565b9385516370a0823160e01b815230828201528381602481865afa80156105815786918991612138575b50106120f557855163a9059cbb60e01b81523391810191825260208201869052939291829185919082908a90829060400103925af18015610fed577f48a1f8a6c840b32621ceab4439a2ccd00b337e705dfdcdec0b40c49abf3e6be39361205f9288926120d8575b5050613e19565b61209a8580808034867f0000000000000000000000000000000000000000000000000000000000000000165af1612094613cd2565b50613d12565b6120b48160015416846120ab613ee1565b91349033614a0d565b60015493519283523460208401524260408401529092169133918060608101610516565b6120ee9250803d1061057a5761056c81836139b7565b3880612058565b855162461bcd60e51b8152908101839052601b60248201527f496e73756666696369656e742055534454206c697175696469747900000000006044820152606490fd5b809250858092503d8311612166575b61215181836139b7565b810103126121625785905138611ff0565b8780fd5b503d612147565b634e487b7160e01b875260118552602487fd5b505050346103b85760208060031936011261036e576001600160a01b0392836121a76137ef565b168152601d825282812091835190818185549182815201908195855282852090855b81811061221557505050826121df9103836139b7565b8451948186019282875251809352850193925b8281106121ff5785850386f35b83518716855293810193928101926001016121f2565b82548a16845292840192600192830192016121c9565b838584346103b8576020908160031936011261036e57803591338452600e815260ff9461225d86828720541615613bcb565b83855260159283835260018060a01b0361227d3382858a2054161461423c565b86875b3389526014808752858a2080548310156124465761229f838b926138fd565b5054146122b557506122b090613f45565b612280565b915091929394959697986122e09060066122d785898e338152878d52206138fd565b50015416613fe2565b6122e98861402e565b96871561240d57509061231b91338a5280875289600561230b848984206138fd565b500155338a5286528489206138fd565b5042908301558654835163a9059cbb60e01b815233818501908152602081018890529092869284928390036040019183918c91165af19081156124035787916123e6575b50156123ac5750907ff87cfa2d5feaea949ad65bb76a26d8553381bcb6382adbc83dedd48961bf32d9916017612396858254613f54565b9055519283523392a36123a96001613fa4565b80f35b82606492519162461bcd60e51b8352820152601660248201527514995dd85c99081d1c985b9cd9995c8819985a5b195960521b6044820152fd5b6123fd9150843d861161057a5761056c81836139b7565b8761235f565b83513d89823e3d90fd5b846064918888519262461bcd60e51b8452830152602482015274139bc81c995dd85c991cc81d1bc81a185c9d995cdd605a1b6044820152fd5b505050955050505050506123a9919250613fa4565b505050346103b85760203660031901126103b85760209181906001600160a01b036124846137ef565b168152601e845220549051908152f35b505050346103b857816003193601126103b857602090600d549051908152f35b505050346103b85760203660031901126103b85760209160ff9082906001600160a01b036124e06137ef565b168152600e855220541690519015158152f35b50503461036e57602036600319011261036e5780359061253d337f00000000000000000000000000000000000000000000000000000000000000006001600160a01b031614613adc565b6014821161257f5750907fd968a3cc702265c3ab67356df15ca21d50167b011f198b963e2a868e04e3d5e091601b549080601b5582519182526020820152a180f35b606490602084519162461bcd60e51b835282015260136024820152720a0cae4c6cadce8c2ceca40e8dede40d0d2ced606b1b6044820152fd5b505050346103b85760203660031901126103b8576020916001600160a01b03908290826125e36137ef565b168152601c85522054169051908152f35b505050346103b857816003193601126103b8576020906011549051908152f35b828585346103b857806003193601126103b857823560243591338452602092600e845261264760ff838720541615613bcb565b60135483106128bd5784546001600160a01b0316612666811515613c48565b601e821480156128b3575b80156128a9575b801561289e575b156128655782516323b872dd60e01b815233818901908152306020820152604081018690529091869183919082908a90829060600103925af19081156119f457906126d09187916128485750613f01565b601954936126dd85613f45565b60195582516126eb81613969565b85815281810185815284820142815260608301858152608084019042825260a08501928b845260c086019460018652338d5260148852898d20805490600160401b8210156128345790612743916001820181556138fd565b97909761282257927fb4caaf29adda3eefee3ad552a8e85058589bf834c7466cae4ee58787f70589ed9b9c9d9e926127b29897959260069795518955516001890155516002880155516003870155519085015551600584015551151591019060ff801983541691151516179055565b85875260158152828720336001600160601b0360a01b8254161790556127da85601654613f54565b601655338752601a8152828720805460ff811615612803575b505082519485528401523392a380f35b60ff1916600117905560185461281890613f45565b60185587806127f3565b634e487b7160e01b8e528d8f5260248efd5b8f8f6041602492634e487b7160e01b835252fd5b61285f9150863d881161057a5761056c81836139b7565b88611e4c565b825162461bcd60e51b81528088018690526013602482015272125b9d985b1a59081b1bd8dac81c195c9a5bd9606a1b6044820152606490fd5b5061016d821461267f565b5060b48214612678565b50605a8214612671565b815162461bcd60e51b8152808701859052601a60248201527f416d6f756e742062656c6f77206d696e696d756d207374616b650000000000006044820152606490fd5b5050903461036e573660031901126103b85761291a6137ef565b60243591906001600160a01b0390612955337f0000000000000000000000000000000000000000000000000000000000000000841614613adc565b16612961811515613b51565b61296c831515613b8f565b81546001600160a01b031916179055600b5580f35b505050346103b8573660031901126106d35761299b6137ef565b602435906001600160a01b03906129d5337f0000000000000000000000000000000000000000000000000000000000000000841614613adc565b166129e1811515613b51565b6129ec821515613b8f565b6001600160601b0360a01b6003541617600355600a5580f35b505091346106d357602092836003193601126103b857803590338352600e855260ff91612a3783868620541615613bcb565b80845260158652848420546001600160a01b039690612a59908816331461423c565b8495855b33875260148084528288208054831015612d2157612a7c8387926138fd565b505414612a925750612a8d90613f45565b612a5d565b9192939495969750338852818452612abd612aaf82858b206138fd565b509760068099015416613fe2565b3388528184526002612ad182858b206138fd565b5001543389528285526003612ae883868c206138fd565b500154906201518091828102928184041490151715612d0e5799612b1386928b9c9b98999a9b613f54565b92612b1d8961402e565b9a338952858452612b3082888b206138fd565b5091876001809401549a80974210612cb4575b90612b599291612bb998993382528852206138fd565b500160ff1981541690556016612b70898254614021565b905598612b868b612b81878b614021565b613f54565b8c54875163a9059cbb60e01b8152339381019384526020840192909252909485939091169183918e918391604090910190565b03925af1908115612caa5797612bda8792612c1a9a8c91612c935750613f01565b80612c53575b50508015612c23577f9c9ec3cfa814b0112b71c20d0b0ab54dead00a99fd389c174df717d2f1d364039282519485528401523392a3613fa4565b6123a9336143fb565b50907f7fc4727e062e336010f2c282598ef5f14facb3de68cf8195c2f23e1454b2b74e91519283523392a3613fa4565b6017612c60828254613f54565b905583519081527ff87cfa2d5feaea949ad65bb76a26d8553381bcb6382adbc83dedd48961bf32d9853392a38438612be0565b611eeb9150873d891161057a5761056c81836139b7565b83513d8b823e3d90fd5b50509193509193506005808902908982041489151715612cfb5791612b59889492888f6064612bb9999704996011612ced8c8254613f54565b905599985090919250612b43565b634e487b7160e01b8d5260118b5260248dfd5b634e487b7160e01b8a526011885260248afd5b50505050505050509150612c1a90613fa4565b505082346106d357806003193601126106d3579060105490612d5582614ac8565b92612d62855194856139b7565b82845260108152906020907f1b6847dc741a1b0cd08d278845f9d819d87b734759afb55fe2de5cb82a9ae672908286015b858510612da757875180610667898261384a565b6007846001928a51612db881613969565b86548152848060a01b0380868901541684830152806002890154168d8301526003880154166060820152858701546080820152600587015460a0820152612e01600688016139d9565b60c0820152815201930194019391612d93565b50508260031936011261036e573383526020600e8152612e3a60ff848620541615613bcb565b341590612e478215613c0c565b6002546001600160a01b039290831690612e62821515613e5c565b620f4240908134029134830414171561216d57600754612e8191613cb2565b9385516370a0823160e01b815230828201528381602481865afa80156105815786918991612fe3575b5010612fa057855163a9059cbb60e01b81523391810191825260208201869052939291829185919082908a90829060400103925af18015610fed577f48a1f8a6c840b32621ceab4439a2ccd00b337e705dfdcdec0b40c49abf3e6be393612f19928892612f83575b5050613e9e565b612f4e8580808034867f0000000000000000000000000000000000000000000000000000000000000000165af1612094613cd2565b612f5f8160025416846120ab613ee1565b60025493519283523460208401524260408401529092169133918060608101610516565b612f999250803d1061057a5761056c81836139b7565b3880612f12565b855162461bcd60e51b8152908101839052601b60248201527f496e73756666696369656e742055534443206c697175696469747900000000006044820152606490fd5b809250858092503d831161300d575b612ffc81836139b7565b810103126121625785905138612eaa565b503d612ff2565b505050346103b85760203660031901126103b8576080916001600160a01b038061303c6137ef565b168252601c602052828220541691601d602052808083205492601e602052205490601b5492815194855260208501528301526060820152f35b505050346103b857816003193601126103b8576020906012549051908152f35b505050346103b8573660031901126106d3576130af6137ef565b602435906001600160a01b03906130e9337f0000000000000000000000000000000000000000000000000000000000000000841614613adc565b166130f5811515613b51565b613100821515613b8f565b6001600160601b0360a01b600254161760025560095580f35b505050346103b857816003193601126103b85760055490516001600160a01b039091168152602090f35b505050346103b857816003193601126103b857602090600b549051908152f35b505050346103b857806003193601126103b85761317e6137ef565b9060243591821515808403613211577fdda6207409a585801122fb885dcaa8074f9a21f25ff2def680c67f01a86c2c9b92602092613209906001600160a01b03906131ec337f0000000000000000000000000000000000000000000000000000000000000000841614613adc565b1695868852600e85528288209060ff801983541691151516179055565b51908152a280f35b8480fd5b828585816003193601126103b857338252600e60205261323b60ff828420541615613bcb565b3415906132488215613c0c565b82546001600160a01b0392906132619084161515613c48565b670de0b6b3a76400009081340291348304141715613307578392916132e961329e610f86600080516020614b6e8339815191529460065490613cb2565b936132a8856144b4565b6132dd8680808034867f0000000000000000000000000000000000000000000000000000000000000000165af1612094613cd2565b855416846120ab613d54565b51348152602081019290925242604083015233918060608101610516565b634e487b7160e01b845260118552602484fd5b838584346103b8576020908160031936011261036e5735928383526015825260018060a01b03818420541692613351841515613f61565b613359614b35565b8195825b868452601480875285852080548310156133d85761337c8385926138fd565b505414613392575061338d90613f45565b61335d565b60809850611627935085919250936133af948882528752206138fd565b906133ba6001613fa4565b81519381848401519301519382519586528501528301526060820152f35b505050509190506133ba608095613fa4565b5050903461036e578060031936011261036e576134056137ef565b602435907f00000000000000000000000000000000000000000000000000000000000000006001600160a01b0361343f3382841614613adc565b8087541692169182146134fa575b835163a9059cbb60e01b81526001600160a01b03909116858201908152602081810194909452909291839182908890829060400103925af19081156134f05784916134d2575b501561349d578280f35b906020606492519162461bcd60e51b8352820152600f60248201526e151c985b9cd9995c8819985a5b1959608a1b6044820152fd5b6134ea915060203d811161057a5761056c81836139b7565b38613493565b82513d86823e3d90fd5b83516370a0823160e01b81523086820152602081602481865afa80156135b0578790613579575b61352f915060165490614021565b83111561344d57835162461bcd60e51b8152602081870152601d60248201527f43616e6e6f74207769746864726177207374616b656420746f6b656e730000006044820152606490fd5b506020813d82116135a8575b81613592602093836139b7565b810103126135a45761352f9051613521565b8680fd5b3d9150613585565b85513d89823e3d90fd5b50503461036e576020806003193601126105d557813590338552600e81526135e860ff858720541615613bcb565b6135f3821515613d73565b84546001600160a01b03919061360c9083161515613c48565b8184541690811561377357613623600b5485613c89565b916402540be400928381029381850414901517156137605786516323b872dd60e01b8152338782019081526001600160a01b037f0000000000000000000000000000000000000000000000000000000000000000166020820152604081018790529091839183919082908c90829060600103925af1908115610581578891613743575b501561370b575091610516916136ca600080516020614b6e8339815191529461427a565b946136d4866144b4565b6136e9828254168785858c54166104eb613d54565b5416945191829133954291846040919493926060820195825260208201520152565b8460649187519162461bcd60e51b83528201526013602482015272109510c81d1c985b9cd9995c8819985a5b1959606a1b6044820152fd5b61375a9150823d841161057a5761056c81836139b7565b386136a6565b634e487b7160e01b885260118652602488fd5b8460649187519162461bcd60e51b83528201526012602482015271109510c81b9bdd0818dbdb999a59dd5c995960721b6044820152fd5b505050346103b857816003193601126103b857602090600a549051908152f35b8590346103b857816003193601126103b8576002546001600160a01b03168152602090f35b600435906001600160a01b038216820361380557565b600080fd5b919082519283825260005b848110613836575050826000602080949584010152601f8019910116010190565b602081830181015184830182015201613815565b602080820190808352835180925260409283810182858560051b8401019601946000925b85841061387f575050505050505090565b9091929394959685806138ec600193603f198682030188528b5180518252858060a01b0380858301511685840152808983015116898401526060908183015116908301526080808201519083015260a0808201519083015260c0809101519160e08092820152019061380a565b99019401940192959493919061386e565b8054821015613919576000526007602060002091020190600090565b634e487b7160e01b600052603260045260246000fd5b90600182811c9216801561395f575b602083101461394957565b634e487b7160e01b600052602260045260246000fd5b91607f169161393e565b60e0810190811067ffffffffffffffff82111761398557604052565b634e487b7160e01b600052604160045260246000fd5b6040810190811067ffffffffffffffff82111761398557604052565b90601f8019910116810190811067ffffffffffffffff82111761398557604052565b90604051918260008254926139ed8461392f565b908184526001948581169081600014613a5c5750600114613a19575b5050613a17925003836139b7565b565b9093915060005260209081600020936000915b818310613a44575050613a1793508201013880613a09565b85548884018501529485019487945091830191613a2c565b915050613a1794506020925060ff191682840152151560051b8201013880613a09565b9360e09592613ac198979492865260018060a01b0392838092166020880152166040860152166060840152608083015260a08201528160c0820152019061380a565b90565b80548210156139195760005260206000200190600090565b15613ae357565b60405162461bcd60e51b815260206004820152600a60248201526927b7363c9037bbb732b960b11b6044820152606490fd5b15613b1c57565b60405162461bcd60e51b815260206004820152600d60248201526c496e76616c696420707269636560981b6044820152606490fd5b15613b5857565b60405162461bcd60e51b815260206004820152600f60248201526e496e76616c6964206164647265737360881b6044820152606490fd5b15613b9657565b60405162461bcd60e51b815260206004820152600d60248201526c496e76616c696420726174696f60981b6044820152606490fd5b15613bd257565b60405162461bcd60e51b81526020600482015260126024820152711059191c995cdcc81a5cc8189b1bd8dad95960721b6044820152606490fd5b15613c1357565b60405162461bcd60e51b815260206004820152600d60248201526c09aeae6e840e6cadcc8408aa89609b1b6044820152606490fd5b15613c4f57565b60405162461bcd60e51b815260206004820152601260248201527114d85b19481d1bdad95b881b9bdd081cd95d60721b6044820152606490fd5b81810292918115918404141715613c9c57565b634e487b7160e01b600052601160045260246000fd5b8115613cbc570490565b634e487b7160e01b600052601260045260246000fd5b3d15613d0d573d9067ffffffffffffffff82116139855760405191613d01601f8201601f1916602001846139b7565b82523d6000602084013e565b606090565b15613d1957565b60405162461bcd60e51b8152602060048201526013602482015272115512081d1c985b9cd9995c8819985a5b1959606a1b6044820152606490fd5b60405190613d618261399b565b600382526242555960e81b6020830152565b15613d7a57565b60405162461bcd60e51b815260206004820152601d60248201527f416d6f756e74206d7573742062652067726561746572207468616e20300000006044820152606490fd5b15613dc657565b60405162461bcd60e51b81526020600482015260136024820152721554d115081b9bdd0818dbdb999a59dd5c9959606a1b6044820152606490fd5b90816020910312613805575180151581036138055790565b15613e2057565b60405162461bcd60e51b81526020600482015260146024820152731554d115081d1c985b9cd9995c8819985a5b195960621b6044820152606490fd5b15613e6357565b60405162461bcd60e51b81526020600482015260136024820152721554d110c81b9bdd0818dbdb999a59dd5c9959606a1b6044820152606490fd5b15613ea557565b60405162461bcd60e51b81526020600482015260146024820152731554d110c81d1c985b9cd9995c8819985a5b195960621b6044820152606490fd5b60405190613eee8261399b565b600482526314d1531360e21b6020830152565b15613f0857565b60405162461bcd60e51b8152602060048201526015602482015274151bdad95b881d1c985b9cd9995c8819985a5b1959605a1b6044820152606490fd5b6000198114613c9c5760010190565b91908201809211613c9c57565b15613f6857565b60405162461bcd60e51b815260206004820152601460248201527314dd185ad948191bd95cc81b9bdd08195e1a5cdd60621b6044820152606490fd5b15613fab57565b60405162461bcd60e51b815260206004820152600f60248201526e14dd185ad9481b9bdd08199bdd5b99608a1b6044820152606490fd5b15613fe957565b60405162461bcd60e51b815260206004820152601060248201526f5374616b65206e6f742061637469766560801b6044820152606490fd5b91908203918211613c9c57565b6000818152601560209081526040808320546001600160a01b031690614055821515613f61565b9293849390849081808080805b888b526014808b52888c208054831015614223576140818389926138fd565b505414614097575061409290613f45565b614062565b96509a50505050505082855280845285828620906140b4916138fd565b50600501549583865281855280838720906140ce916138fd565b50600401549284875282865281818820906140e8916138fd565b50926001809401549686895281815283838a2090614105916138fd565b50600301549689525286209061411a916138fd565b506006015460ff1661412e61413392613fa4565b613fe2565b42811461421c576141449042614021565b926012548092605a81146000146141a257505060038202918083046003149015171561418e5750613ac1939261418263bbf81e00936141879360011c905b613c89565b0490613f54565b634e487b7160e01b81526011600452602490fd5b60b481036141d85750508160011b918083046002149015171561418e5750613ac1939261418263bbf81e00936141879390613c89565b61016d91949350146141fd575b50613ac1939261418263bbf81e009361418793613c89565b600383929302918083046003149015171561418e575090613ac16141e5565b5050505090565b5050509650965097935061413392915061412e90613fa4565b1561424357565b60405162461bcd60e51b815260206004820152600f60248201526e2737ba1039ba30b5b29037bbb732b960891b6044820152606490fd5b60003381526020601c815260018060a01b0390604082818520541692831515806143e6575b6142ab57505050505090565b60646142b9601b5488613c89565b8654845163a9059cbb60e01b81526001600160a01b03881660048201529290910460248301819052969190859082906044908290869088165af19081156143dc5782916143bf575b501561437b577f94ccb86446750660ec532b1beb1fb55f5ba2fffca042c4c53f4c080e72595b3893929181866143719352601e8552838120614344898254613f54565b9055541686888451926143568461399b565b6008845267149151915494905360c21b878501528089614a6c565b519384523393a390565b825162461bcd60e51b815260048101859052601f60248201527f526566657272616c20726577617264207472616e73666572206661696c6564006044820152606490fd5b6143d69150853d871161057a5761056c81836139b7565b38614301565b84513d84823e3d90fd5b50838552600e835260ff82862054161561429f565b600090815b6001600160a01b038216600090815260146020526040902080548210156144ac57600661442f8360ff936138fd565b500154166144455761444090613f45565b614400565b50905060015b158061448a575b6144595750565b6001600160a01b03166000908152601a60205260409020805460ff191690556018548015613c9c5760001901601855565b506001600160a01b0381166000908152601a602052604090205460ff16614452565b50509061444b565b600080546040516370a0823160e01b8152306004820152919392916020916001600160a01b0316908281602481855afa80156145eb57849187916145ba575b50106145755760405163a9059cbb60e01b8152336004820152602481018490529082908290604490829089905af191821561456a5790614540929161454895969261454d575b5050613f01565b600d54613f54565b600d55565b6145639250803d1061057a5761056c81836139b7565b3880614539565b6040513d87823e3d90fd5b60405162461bcd60e51b815260048101839052601a60248201527f496e73756666696369656e7420746f6b656e2062616c616e63650000000000006044820152606490fd5b809250848092503d83116145e4575b6145d381836139b7565b810103126119e857839051386144f3565b503d6145c9565b6040513d88823e3d90fd5b601054600160401b81101561398557600190818101806010558110156139195760076000916010835202918351837f1b6847dc741a1b0cd08d278845f9d819d87b734759afb55fe2de5cb82a9ae672015560c07f1b6847dc741a1b0cd08d278845f9d819d87b734759afb55fe2de5cb82a9ae6787f1b6847dc741a1b0cd08d278845f9d819d87b734759afb55fe2de5cb82a9ae67385019460018060a01b0360209681888a015116906001600160601b0360a01b91828254161790557f1b6847dc741a1b0cd08d278845f9d819d87b734759afb55fe2de5cb82a9ae67483018260408b015116828254161790557f1b6847dc741a1b0cd08d278845f9d819d87b734759afb55fe2de5cb82a9ae67583019160608a0151169082541617905560808701517f1b6847dc741a1b0cd08d278845f9d819d87b734759afb55fe2de5cb82a9ae67682015560a08701517f1b6847dc741a1b0cd08d278845f9d819d87b734759afb55fe2de5cb82a9ae677820155019401519182519267ffffffffffffffff841161486e57614787865461392f565b601f8111614828575b508491601f85116001146147c95793945084929190836147be575b50501b916000199060031b1c1916179055565b0151925038806147ab565b86815285812093958591601f198316915b8883831061480e57505050106147f5575b505050811b019055565b015160001960f88460031b161c191690553880806147eb565b8587015188559096019594850194879350908101906147da565b868352858320601f860160051c810191878710614864575b601f0160051c019084905b828110614859575050614790565b84815501849061484b565b9091508190614840565b634e487b7160e01b82526041600452602482fd5b8054600160401b811015613985576148a19060019283820181556138fd565b6149f7578251815560c060068383019260018060a01b03602094818689015116906001600160601b0360a01b9182825416179055600283018260408a015116828254161790556003830191606089015116908254161790556080860151600482015560a08601516005820155019301519081519167ffffffffffffffff83116139855761492e855461392f565b601f81116149ae575b5081601f841160011461496557509282939183926000946147be5750501b916000199060031b1c1916179055565b919083601f1981168760005284600020946000905b8883831061499457505050106147f557505050811b019055565b85870151885590960195948501948793509081019061497a565b6000868152838120601f860160051c8101928587106149ed575b601f0160051c019186905b8381106149e257505050614937565b8281550186906149d3565b90925082906149c8565b634e487b7160e01b600052600060045260246000fd5b92613a1794919260405194614a2186613969565b42865260018060a01b038091169485602088015260006040880152166060860152608085015260a084015260c0830152600052600f602052614a67816040600020614882565b6145f6565b92613a17959294919360405195614a8287613969565b42875260018060a01b0380809316968760208a0152166040880152166060860152608085015260a084015260c0830152600052600f602052614a67816040600020614882565b67ffffffffffffffff81116139855760051b60200190565b90604051614aed81613969565b60c060ff600683958054855260018101546020860152600281015460408601526003810154606086015260048101546080860152600581015460a08601520154161515910152565b60405190614b4282613969565b8160c06000918281528260208201528260408201528260608201528260808201528260a0820152015256fe377aadedb6b2a771959584d10a6a36eccb5f56b4eb3a48525f76108d2660d8d4a26469706673582212205da32b7ef5ea136d76079b9196d00b84813b21fc00c865253655f8da19ef42b664736f6c63430008130033",
  "linkReferences": {},
  "deployedLinkReferences": {}
}