{
  "_format": "hh-sol-artifact-1",
  "contractName": "SavitriCoin",
  "sourceName": "contracts/mock/SavitriCoin.sol",
  "abi": [
    {
      "inputs": [],
      "stateMutability": "nonpayable",
      "type": "constructor"
    },
    {
      "anonymous": false,
      "inputs": [
        {
          "indexed": true,
          "internalType": "address",
          "name": "owner",
          "type": "address"
        },
        {
          "indexed": true,
          "internalType": "address",
          "name": "spender",
          "type": "address"
        },
        {
          "indexed": false,
          "internalType": "uint256",
          "name": "value",
          "type": "uint256"
        }
      ],
      "name": "Approval",
      "type": "event"
    },
    {
      "anonymous": false,
      "inputs": [
        {
          "indexed": true,
          "internalType": "address",
          "name": "previousOwner",
          "type": "address"
        },
        {
          "indexed": true,
          "internalType": "address",
          "name": "newOwner",
          "type": "address"
        }
      ],
      "name": "OwnershipTransferred",
      "type": "event"
    },
    {
      "anonymous": false,
      "inputs": [
        {
          "indexed": true,
          "internalType": "address",
          "name": "from",
          "type": "address"
        },
        {
          "indexed": true,
          "internalType": "address",
          "name": "to",
          "type": "address"
        },
        {
          "indexed": false,
          "internalType": "uint256",
          "name": "value",
          "type": "uint256"
        }
      ],
      "name": "Transfer",
      "type": "event"
    },
    {
      "inputs": [
        {
          "internalType": "address",
          "name": "owner",
          "type": "address"
        },
        {
          "internalType": "address",
          "name": "spender",
          "type": "address"
        }
      ],
      "name": "allowance",
      "outputs": [
        {
          "internalType": "uint256",
          "name": "",
          "type": "uint256"
        }
      ],
      "stateMutability": "view",
      "type": "function"
    },
    {
      "inputs": [
        {
          "internalType": "address",
          "name": "spender",
          "type": "address"
        },
        {
          "internalType": "uint256",
          "name": "amount",
          "type": "uint256"
        }
      ],
      "name": "approve",
      "outputs": [
        {
          "internalType": "bool",
          "name": "",
          "type": "bool"
        }
      ],
      "stateMutability": "nonpayable",
      "type": "function"
    },
    {
      "inputs": [
        {
          "internalType": "address",
          "name": "account",
          "type": "address"
        }
      ],
      "name": "balanceOf",
      "outputs": [
        {
          "internalType": "uint256",
          "name": "",
          "type": "uint256"
        }
      ],
      "stateMutability": "view",
      "type": "function"
    },
    {
      "inputs": [],
      "name": "decimals",
      "outputs": [
        {
          "internalType": "uint8",
          "name": "",
          "type": "uint8"
        }
      ],
      "stateMutability": "view",
      "type": "function"
    },
    {
      "inputs": [
        {
          "internalType": "address",
          "name": "spender",
          "type": "address"
        },
        {
          "internalType": "uint256",
          "name": "subtractedValue",
          "type": "uint256"
        }
      ],
      "name": "decreaseAllowance",
      "outputs": [
        {
          "internalType": "bool",
          "name": "",
          "type": "bool"
        }
      ],
      "stateMutability": "nonpayable",
      "type": "function"
    },
    {
      "inputs": [],
      "name": "enableTransfers",
      "outputs": [],
      "stateMutability": "nonpayable",
      "type": "function"
    },
    {
      "inputs": [
        {
          "internalType": "address",
          "name": "spender",
          "type": "address"
        },
        {
          "internalType": "uint256",
          "name": "addedValue",
          "type": "uint256"
        }
      ],
      "name": "increaseAllowance",
      "outputs": [
        {
          "internalType": "bool",
          "name": "",
          "type": "bool"
        }
      ],
      "stateMutability": "nonpayable",
      "type": "function"
    },
    {
      "inputs": [],
      "name": "name",
      "outputs": [
        {
          "internalType": "string",
          "name": "",
          "type": "string"
        }
      ],
      "stateMutability": "view",
      "type": "function"
    },
    {
      "inputs": [],
      "name": "owner",
      "outputs": [
        {
          "internalType": "address",
          "name": "",
          "type": "address"
        }
      ],
      "stateMutability": "view",
      "type": "function"
    },
    {
      "inputs": [],
      "name": "renounceOwnership",
      "outputs": [],
      "stateMutability": "nonpayable",
      "type": "function"
    },
    {
      "inputs": [],
      "name": "saleContract",
      "outputs": [
        {
          "internalType": "address",
          "name": "",
          "type": "address"
        }
      ],
      "stateMutability": "view",
      "type": "function"
    },
    {
      "inputs": [
        {
          "internalType": "address",
          "name": "_sale",
          "type": "address"
        }
      ],
      "name": "setSaleContract",
      "outputs": [],
      "stateMutability": "nonpayable",
      "type": "function"
    },
    {
      "inputs": [],
      "name": "symbol",
      "outputs": [
        {
          "internalType": "string",
          "name": "",
          "type": "string"
        }
      ],
      "stateMutability": "view",
      "type": "function"
    },
    {
      "inputs": [],
      "name": "totalSupply",
      "outputs": [
        {
          "internalType": "uint256",
          "name": "",
          "type": "uint256"
        }
      ],
      "stateMutability": "view",
      "type": "function"
    },
    {
      "inputs": [
        {
          "internalType": "address",
          "name": "to",
          "type": "address"
        },
        {
          "internalType": "uint256",
          "name": "amount",
          "type": "uint256"
        }
      ],
      "name": "transfer",
      "outputs": [
        {
          "internalType": "bool",
          "name": "",
          "type": "bool"
        }
      ],
      "stateMutability": "nonpayable",
      "type": "function"
    },
    {
      "inputs": [
        {
          "internalType": "address",
          "name": "from",
          "type": "address"
        },
        {
          "internalType": "address",
          "name": "to",
          "type": "address"
        },
        {
          "internalType": "uint256",
          "name": "amount",
          "type": "uint256"
        }
      ],
      "name": "transferFrom",
      "outputs": [
        {
          "internalType": "bool",
          "name": "",
          "type": "bool"
        }
      ],
      "stateMutability": "nonpayable",
      "type": "function"
    },
    {
      "inputs": [
        {
          "internalType": "address",
          "name": "newOwner",
          "type": "address"
        }
      ],
      "name": "transferOwnership",
      "outputs": [],
      "stateMutability": "nonpayable",
      "type": "function"
    },
    {
      "inputs": [],
      "name": "transfersEnabled",
      "outputs": [
        {
          "internalType": "bool",
          "name": "",
          "type": "bool"
        }
      ],
      "stateMutability": "view",
      "type": "function"
    }
  ],
  "bytecode": "0x6080346200040d576040906001600160401b03818301818111838210176200030d578352600c82526020906b29b0bb34ba39349021b7b4b760a11b82840152835192848401848110838211176200030d5785526003918285526229a0ab60e91b848601528151928184116200030d578054936001938486811c9616801562000402575b87871014620003ec578190601f9687811162000396575b5087908783116001146200032f5760009262000323575b505060001982841b1c191690841b1781555b85519182116200030d5760049586548481811c9116801562000302575b87821014620002ed57858111620002a2575b50859085841160011462000237579383949184926000956200022b575b50501b92600019911b1c19161783555b60058054336001600160a01b03198216811790925585519291906001600160a01b03167f8be0079c531659141344cd1fd0a4f28419497f9722a3daafe3b4186f6b6457e0600080a33315620001ee5750506002546b01f04ef12cb04cf15800000092838201809211620001d957506000917fddf252ad1be2c89b69c2b068fc378daa952ba7f163c4a11628f55a4df523b3ef9160025533835282815284832084815401905584519384523393a351610bd99081620004138239f35b601190634e487b7160e01b6000525260246000fd5b6064928462461bcd60e51b845283015260248201527f45524332303a206d696e7420746f20746865207a65726f2061646472657373006044820152fd5b0151935038806200010e565b9190601f198416928860005284886000209460005b8a898383106200028a57505050106200026f575b50505050811b0183556200011e565b01519060f884600019921b161c191690553880808062000260565b8686015189559097019694850194889350016200024c565b87600052866000208680860160051c820192898710620002e3575b0160051c019085905b828110620002d6575050620000f1565b60008155018590620002c6565b92508192620002bd565b602288634e487b7160e01b6000525260246000fd5b90607f1690620000df565b634e487b7160e01b600052604160045260246000fd5b015190503880620000b0565b90869350601f1983169185600052896000209260005b8b8282106200037f575050841162000366575b505050811b018155620000c2565b015160001983861b60f8161c1916905538808062000358565b8385015186558a9790950194938401930162000345565b90915083600052876000208780850160051c8201928a8610620003e2575b918891869594930160051c01915b828110620003d257505062000099565b60008155859450889101620003c2565b92508192620003b4565b634e487b7160e01b600052602260045260246000fd5b95607f169562000082565b600080fdfe6040608081526004908136101561001557600080fd5b600091823560e01c80630593d244146107a757806306fdde03146106cc578063095ea7b3146106a257806318160ddd1461068357806323b872dd146105b9578063313ce5671461059d578063395093511461053657806370a08231146104ff578063715018a6146104a25780638da5cb5b1461047957806395d89b4114610359578063a457c2d7146102b5578063a9059cbb14610284578063af35c6c714610252578063bef97c871461022b578063daf6ca3014610202578063dd62ed3e146101b55763f2fde38b146100e757600080fd5b346101b15760203660031901126101b1576101006107ec565b90610109610866565b6001600160a01b0391821692831561015f575050600554826bffffffffffffffffffffffff60a01b821617600555167f8be0079c531659141344cd1fd0a4f28419497f9722a3daafe3b4186f6b6457e08380a380f35b906020608492519162461bcd60e51b8352820152602660248201527f4f776e61626c653a206e6577206f776e657220697320746865207a65726f206160448201526564647265737360d01b6064820152fd5b8280fd5b5050346101fe57806003193601126101fe57806020926101d36107ec565b6101db610807565b6001600160a01b0391821683526001865283832091168252845220549051908152f35b5080fd5b5050346101fe57816003193601126101fe5760065490516001600160a01b039091168152602090f35b5050346101fe57816003193601126101fe5760209060ff60055460a01c1690519015158152f35b833461028157806003193601126102815761026b610866565b6005805460ff60a01b1916600160a01b17905580f35b80fd5b5050346101fe57806003193601126101fe576020906102ae6102a46107ec565b60243590336108be565b5160018152f35b5082346102815782600319360112610281576102cf6107ec565b918360243592338152600160205281812060018060a01b0386168252602052205490828210610308576020856102ae8585038733610aa1565b608490602086519162461bcd60e51b8352820152602560248201527f45524332303a2064656372656173656420616c6c6f77616e63652062656c6f77604482015264207a65726f60d81b6064820152fd5b509190346101fe57816003193601126101fe57805190828454600181811c9080831692831561046f575b602093848410811461045c5783885290811561044057506001146103eb575b505050829003601f01601f191682019267ffffffffffffffff8411838510176103d857508291826103d492528261081d565b0390f35b634e487b7160e01b815260418552602490fd5b8787529192508591837f8a35acfbc15ff81a39ae7d344fd709f28e8600b4aa8c65c6b64bfe7fe36bd19b5b83851061042c57505050508301013880806103a2565b805488860183015293019284908201610416565b60ff1916878501525050151560051b84010190503880806103a2565b634e487b7160e01b895260228a52602489fd5b91607f1691610383565b5050346101fe57816003193601126101fe5760055490516001600160a01b039091168152602090f35b83346102815780600319360112610281576104bb610866565b600580546001600160a01b0319811690915581906001600160a01b03167f8be0079c531659141344cd1fd0a4f28419497f9722a3daafe3b4186f6b6457e08280a380f35b5050346101fe5760203660031901126101fe5760209181906001600160a01b036105276107ec565b16815280845220549051908152f35b5091346102815781600319360112610281576105506107ec565b338252600160209081528383206001600160a01b038316845290528282205460243581019290831061058a576020846102ae858533610aa1565b634e487b7160e01b815260118552602490fd5b5050346101fe57816003193601126101fe576020905160128152f35b508290346101fe5760603660031901126101fe576105d56107ec565b6105dd610807565b91846044359460018060a01b038416815260016020528181203382526020522054906000198203610617575b6020866102ae8787876108be565b8482106106405750918391610635602096956102ae95033383610aa1565b919394819350610609565b606490602087519162461bcd60e51b8352820152601d60248201527f45524332303a20696e73756666696369656e7420616c6c6f77616e63650000006044820152fd5b5050346101fe57816003193601126101fe576020906002549051908152f35b5050346101fe57806003193601126101fe576020906102ae6106c26107ec565b6024359033610aa1565b509190346101fe57816003193601126101fe5780519082600354600181811c9080831692831561079d575b602093848410811461045c57838852908115610440575060011461074757505050829003601f01601f191682019267ffffffffffffffff8411838510176103d857508291826103d492528261081d565b600387529192508591837fc2575a0e9e593c00f959f8c92f12db2869c3395a3b0502d05e2516446f71f85b5b83851061078957505050508301013880806103a2565b805488860183015293019284908201610773565b91607f16916106f7565b8334610281576020366003190112610281576107c16107ec565b6107c9610866565b60018060a01b03166bffffffffffffffffffffffff60a01b600654161760065580f35b600435906001600160a01b038216820361080257565b600080fd5b602435906001600160a01b038216820361080257565b6020808252825181830181905290939260005b82811061085257505060409293506000838284010152601f8019910116010190565b818101860151848201604001528501610830565b6005546001600160a01b0316330361087a57565b606460405162461bcd60e51b815260206004820152602060248201527f4f776e61626c653a2063616c6c6572206973206e6f7420746865206f776e65726044820152fd5b6001600160a01b0392908316918215610a4e5783169283156109fd5760055460ff8160a01c161561099c575b505060008281528060205260408120549180831061094857604082827fddf252ad1be2c89b69c2b068fc378daa952ba7f163c4a11628f55a4df523b3ef958760209652828652038282205586815220818154019055604051908152a3565b60405162461bcd60e51b815260206004820152602660248201527f45524332303a207472616e7366657220616d6f756e7420657863656564732062604482015265616c616e636560d01b6064820152608490fd5b811683149081156109ef575b50156109b55738806108ea565b60405162461bcd60e51b8152602060048201526012602482015271151c985b9cd9995c9cc8191a5cd8589b195960721b6044820152606490fd5b9050600654168214386109a8565b60405162461bcd60e51b815260206004820152602360248201527f45524332303a207472616e7366657220746f20746865207a65726f206164647260448201526265737360e81b6064820152608490fd5b60405162461bcd60e51b815260206004820152602560248201527f45524332303a207472616e736665722066726f6d20746865207a65726f206164604482015264647265737360d81b6064820152608490fd5b6001600160a01b03908116918215610b525716918215610b025760207f8c5be1e5ebec7d5bd14f71427d1e84f3dd0314c0f7b2291e5b200ac8c7c3b925918360005260018252604060002085600052825280604060002055604051908152a3565b60405162461bcd60e51b815260206004820152602260248201527f45524332303a20617070726f766520746f20746865207a65726f206164647265604482015261737360f01b6064820152608490fd5b60405162461bcd60e51b8152602060048201526024808201527f45524332303a20617070726f76652066726f6d20746865207a65726f206164646044820152637265737360e01b6064820152608490fdfea2646970667358221220222430f44b70fc55985c8aaa5cc5e995c4d18d5b234470bd3fff6702f96763ac64736f6c63430008130033",
  "linkReferences": {},
  "deployedLinkReferences": {}
}