{"contracts/TokenICO.sol":{"TokenICO":{"abi":[{"inputs":[],"stateMutability":"nonpayable","type":"constructor"},{"anonymous":false,"inputs":[{"indexed":false,"internalType":"uint256","name":"oldAPY","type":"uint256"},{"indexed":false,"internalType":"uint256","name":"newAPY","type":"uint256"}],"name":"APYUpdated","type":"event"},{"anonymous":false,"inputs":[{"indexed":true,"internalType":"address","name":"user","type":"address"},{"indexed":false,"internalType":"bool","name":"blocked","type":"bool"}],"name":"AddressBlocked","type":"event"},{"anonymous":false,"inputs":[{"indexed":true,"internalType":"address","name":"user","type":"address"},{"indexed":true,"internalType":"uint256","name":"stakeId","type":"uint256"},{"indexed":false,"internalType":"uint256","name":"amount","type":"uint256"},{"indexed":false,"internalType":"uint256","name":"penalty","type":"uint256"}],"name":"EarlyUnstake","type":"event"},{"anonymous":false,"inputs":[{"indexed":false,"internalType":"uint256","name":"oldMinStake","type":"uint256"},{"indexed":false,"internalType":"uint256","name":"newMinStake","type":"uint256"}],"name":"MinStakeUpdated","type":"event"},{"anonymous":false,"inputs":[{"indexed":false,"internalType":"string","name":"priceType","type":"string"},{"indexed":false,"internalType":"uint256","name":"oldPrice","type":"uint256"},{"indexed":false,"internalType":"uint256","name":"newPrice","type":"uint256"}],"name":"PriceUpdated","type":"event"},{"anonymous":false,"inputs":[{"indexed":false,"internalType":"uint256","name":"oldPercentage","type":"uint256"},{"indexed":false,"internalType":"uint256","name":"newPercentage","type":"uint256"}],"name":"ReferralPercentageUpdated","type":"event"},{"anonymous":false,"inputs":[{"indexed":true,"internalType":"address","name":"referrer","type":"address"},{"indexed":true,"internalType":"address","name":"referee","type":"address"}],"name":"ReferralRegistered","type":"event"},{"anonymous":false,"inputs":[{"indexed":true,"internalType":"address","name":"referrer","type":"address"},{"indexed":true,"internalType":"address","name":"referee","type":"address"},{"indexed":false,"internalType":"uint256","name":"amount","type":"uint256"}],"name":"ReferralRewardPaid","type":"event"},{"anonymous":false,"inputs":[{"indexed":true,"internalType":"address","name":"user","type":"address"},{"indexed":true,"internalType":"uint256","name":"stakeId","type":"uint256"},{"indexed":false,"internalType":"uint256","name":"reward","type":"uint256"}],"name":"RewardHarvested","type":"event"},{"anonymous":false,"inputs":[{"indexed":true,"internalType":"address","name":"oldSigner","type":"address"},{"indexed":true,"internalType":"address","name":"newSigner","type":"address"}],"name":"SignerUpdated","type":"event"},{"anonymous":false,"inputs":[{"indexed":true,"internalType":"address","name":"buyer","type":"address"},{"indexed":true,"internalType":"address","name":"stablecoin","type":"address"},{"indexed":false,"internalType":"uint256","name":"stablecoinAmount","type":"uint256"},{"indexed":false,"internalType":"uint256","name":"bnbPaid","type":"uint256"},{"indexed":false,"internalType":"uint256","name":"timestamp","type":"uint256"}],"name":"StablecoinSold","type":"event"},{"anonymous":false,"inputs":[{"indexed":true,"internalType":"address","name":"user","type":"address"},{"indexed":true,"internalType":"uint256","name":"stakeId","type":"uint256"},{"indexed":false,"internalType":"uint256","name":"amount","type":"uint256"},{"indexed":false,"internalType":"uint256","name":"lockPeriod","type":"uint256"}],"name":"Staked","type":"event"},{"anonymous":false,"inputs":[{"indexed":true,"internalType":"address","name":"buyer","type":"address"},{"indexed":true,"internalType":"address","name":"paymentMethod","type":"address"},{"indexed":false,"internalType":"uint256","name":"amountPaid","type":"uint256"},{"indexed":false,"internalType":"uint256","name":"tokensBought","type":"uint256"},{"indexed":false,"internalType":"uint256","name":"timestamp","type":"uint256"}],"name":"TokensPurchased","type":"event"},{"anonymous":false,"inputs":[{"indexed":true,"internalType":"address","name":"user","type":"address"},{"indexed":true,"internalType":"uint256","name":"stakeId","type":"uint256"},{"indexed":false,"internalType":"uint256","name":"amount","type":"uint256"}],"name":"Unstaked","type":"event"},{"anonymous":false,"inputs":[{"indexed":true,"internalType":"address","name":"user","type":"address"},{"indexed":false,"internalType":"uint256","name":"nonce","type":"uint256"}],"name":"VoucherConsumed","type":"event"},{"inputs":[],"name":"DOMAIN_SEPARATOR","outputs":[{"internalType":"bytes32","name":"","type":"bytes32"}],"stateMutability":"view","type":"function"},{"inputs":[],"name":"EARLY_WITHDRAWAL_PENALTY_PERCENT","outputs":[{"internalType":"uint256","name":"","type":"uint256"}],"stateMutability":"view","type":"function"},{"inputs":[],"name":"WL_REF_TYPEHASH","outputs":[{"internalType":"bytes32","name":"","type":"bytes32"}],"stateMutability":"view","type":"function"},{"inputs":[{"internalType":"uint256","name":"","type":"uint256"}],"name":"allTransactions","outputs":[{"internalType":"uint256","name":"timestamp","type":"uint256"},{"internalType":"address","name":"user","type":"address"},{"internalType":"address","name":"tokenIn","type":"address"},{"internalType":"address","name":"tokenOut","type":"address"},{"internalType":"uint256","name":"amountIn","type":"uint256"},{"internalType":"uint256","name":"amountOut","type":"uint256"},{"internalType":"string","name":"transactionType","type":"string"}],"stateMutability":"view","type":"function"},{"inputs":[],"name":"baseAPY","outputs":[{"internalType":"uint256","name":"","type":"uint256"}],"stateMutability":"view","type":"function"},{"inputs":[{"internalType":"address","name":"","type":"address"}],"name":"blockedAddresses","outputs":[{"internalType":"bool","name":"","type":"bool"}],"stateMutability":"view","type":"function"},{"inputs":[],"name":"bnbPriceForStablecoin","outputs":[{"internalType":"uint256","name":"","type":"uint256"}],"stateMutability":"view","type":"function"},{"inputs":[],"name":"bnbPriceForToken","outputs":[{"internalType":"uint256","name":"","type":"uint256"}],"stateMutability":"view","type":"function"},{"inputs":[],"name":"bnbRatio","outputs":[{"internalType":"uint256","name":"","type":"uint256"}],"stateMutability":"view","type":"function"},{"inputs":[],"name":"btcAddress","outputs":[{"internalType":"address","name":"","type":"address"}],"stateMutability":"view","type":"function"},{"inputs":[],"name":"btcRatio","outputs":[{"internalType":"uint256","name":"","type":"uint256"}],"stateMutability":"view","type":"function"},{"inputs":[],"name":"buyUSDC","outputs":[],"stateMutability":"payable","type":"function"},{"inputs":[],"name":"buyUSDT","outputs":[],"stateMutability":"payable","type":"function"},{"inputs":[],"name":"buyWithBNB","outputs":[],"stateMutability":"payable","type":"function"},{"inputs":[{"components":[{"internalType":"address","name":"user","type":"address"},{"internalType":"address","name":"referrer","type":"address"},{"internalType":"uint256","name":"nonce","type":"uint256"},{"internalType":"uint256","name":"deadline","type":"uint256"}],"internalType":"struct TokenICO.WhitelistRef","name":"v","type":"tuple"},{"internalType":"bytes","name":"sig","type":"bytes"}],"name":"buyWithBNB_Voucher","outputs":[],"stateMutability":"payable","type":"function"},{"inputs":[{"internalType":"uint256","name":"btcAmount","type":"uint256"}],"name":"buyWithBTC","outputs":[],"stateMutability":"nonpayable","type":"function"},{"inputs":[{"components":[{"internalType":"address","name":"user","type":"address"},{"internalType":"address","name":"referrer","type":"address"},{"internalType":"uint256","name":"nonce","type":"uint256"},{"internalType":"uint256","name":"deadline","type":"uint256"}],"internalType":"struct TokenICO.WhitelistRef","name":"v","type":"tuple"},{"internalType":"bytes","name":"sig","type":"bytes"},{"internalType":"uint256","name":"btcAmount","type":"uint256"}],"name":"buyWithBTC_Voucher","outputs":[],"stateMutability":"nonpayable","type":"function"},{"inputs":[{"internalType":"uint256","name":"ethAmount","type":"uint256"}],"name":"buyWithETH","outputs":[],"stateMutability":"nonpayable","type":"function"},{"inputs":[{"components":[{"internalType":"address","name":"user","type":"address"},{"internalType":"address","name":"referrer","type":"address"},{"internalType":"uint256","name":"nonce","type":"uint256"},{"internalType":"uint256","name":"deadline","type":"uint256"}],"internalType":"struct TokenICO.WhitelistRef","name":"v","type":"tuple"},{"internalType":"bytes","name":"sig","type":"bytes"},{"internalType":"uint256","name":"ethAmount","type":"uint256"}],"name":"buyWithETH_Voucher","outputs":[],"stateMutability":"nonpayable","type":"function"},{"inputs":[{"internalType":"uint256","name":"solAmount","type":"uint256"}],"name":"buyWithSOL","outputs":[],"stateMutability":"nonpayable","type":"function"},{"inputs":[{"components":[{"internalType":"address","name":"user","type":"address"},{"internalType":"address","name":"referrer","type":"address"},{"internalType":"uint256","name":"nonce","type":"uint256"},{"internalType":"uint256","name":"deadline","type":"uint256"}],"internalType":"struct TokenICO.WhitelistRef","name":"v","type":"tuple"},{"internalType":"bytes","name":"sig","type":"bytes"},{"internalType":"uint256","name":"solAmount","type":"uint256"}],"name":"buyWithSOL_Voucher","outputs":[],"stateMutability":"nonpayable","type":"function"},{"inputs":[{"internalType":"uint256","name":"usdcAmount","type":"uint256"}],"name":"buyWithUSDC","outputs":[],"stateMutability":"nonpayable","type":"function"},{"inputs":[{"components":[{"internalType":"address","name":"user","type":"address"},{"internalType":"address","name":"referrer","type":"address"},{"internalType":"uint256","name":"nonce","type":"uint256"},{"internalType":"uint256","name":"deadline","type":"uint256"}],"internalType":"struct TokenICO.WhitelistRef","name":"v","type":"tuple"},{"internalType":"bytes","name":"sig","type":"bytes"},{"internalType":"uint256","name":"usdcAmount","type":"uint256"}],"name":"buyWithUSDC_Voucher","outputs":[],"stateMutability":"nonpayable","type":"function"},{"inputs":[{"internalType":"uint256","name":"usdtAmount","type":"uint256"}],"name":"buyWithUSDT","outputs":[],"stateMutability":"nonpayable","type":"function"},{"inputs":[{"components":[{"internalType":"address","name":"user","type":"address"},{"internalType":"address","name":"referrer","type":"address"},{"internalType":"uint256","name":"nonce","type":"uint256"},{"internalType":"uint256","name":"deadline","type":"uint256"}],"internalType":"struct TokenICO.WhitelistRef","name":"v","type":"tuple"},{"internalType":"bytes","name":"sig","type":"bytes"},{"internalType":"uint256","name":"usdtAmount","type":"uint256"}],"name":"buyWithUSDT_Voucher","outputs":[],"stateMutability":"nonpayable","type":"function"},{"inputs":[{"internalType":"uint256","name":"stakeId","type":"uint256"}],"name":"calculateRewards","outputs":[{"internalType":"uint256","name":"","type":"uint256"}],"stateMutability":"view","type":"function"},{"inputs":[],"name":"ethAddress","outputs":[{"internalType":"address","name":"","type":"address"}],"stateMutability":"view","type":"function"},{"inputs":[],"name":"ethRatio","outputs":[{"internalType":"uint256","name":"","type":"uint256"}],"stateMutability":"view","type":"function"},{"inputs":[],"name":"getAllTransactions","outputs":[{"components":[{"internalType":"uint256","name":"timestamp","type":"uint256"},{"internalType":"address","name":"user","type":"address"},{"internalType":"address","name":"tokenIn","type":"address"},{"internalType":"address","name":"tokenOut","type":"address"},{"internalType":"uint256","name":"amountIn","type":"uint256"},{"internalType":"uint256","name":"amountOut","type":"uint256"},{"internalType":"string","name":"transactionType","type":"string"}],"internalType":"struct TokenICO.Transaction[]","name":"","type":"tuple[]"}],"stateMutability":"view","type":"function"},{"inputs":[],"name":"getContractInfo","outputs":[{"internalType":"address","name":"tokenAddress","type":"address"},{"internalType":"uint256","name":"tokenBalance","type":"uint256"},{"internalType":"uint256","name":"bnbPrice","type":"uint256"},{"internalType":"uint256","name":"stablecoinPrice","type":"uint256"},{"internalType":"uint256","name":"totalSold","type":"uint256"},{"internalType":"address","name":"usdtAddr","type":"address"},{"internalType":"address","name":"usdcAddr","type":"address"},{"internalType":"uint256","name":"usdtTokenRatio","type":"uint256"},{"internalType":"uint256","name":"usdcTokenRatio","type":"uint256"}],"stateMutability":"view","type":"function"},{"inputs":[{"internalType":"address","name":"user","type":"address"}],"name":"getReferralInfo","outputs":[{"internalType":"address","name":"referrer","type":"address"},{"internalType":"uint256","name":"totalReferrals","type":"uint256"},{"internalType":"uint256","name":"totalRewardsEarned","type":"uint256"},{"internalType":"uint256","name":"rewardPercentage","type":"uint256"}],"stateMutability":"view","type":"function"},{"inputs":[{"internalType":"uint256","name":"stakeId","type":"uint256"}],"name":"getStakeDetails","outputs":[{"internalType":"uint256","name":"lockPeriod","type":"uint256"},{"internalType":"uint256","name":"pendingRewards","type":"uint256"},{"internalType":"bool","name":"active","type":"bool"}],"stateMutability":"view","type":"function"},{"inputs":[{"internalType":"uint256","name":"stakeId","type":"uint256"}],"name":"getStakeInfo","outputs":[{"internalType":"uint256","name":"id","type":"uint256"},{"internalType":"address","name":"stakeOwnerAddr","type":"address"},{"internalType":"uint256","name":"amount","type":"uint256"},{"internalType":"uint256","name":"startTime","type":"uint256"}],"stateMutability":"view","type":"function"},{"inputs":[],"name":"getStakingInfo","outputs":[{"internalType":"uint256","name":"baseApyRate","type":"uint256"},{"internalType":"uint256","name":"minStakingAmount","type":"uint256"},{"internalType":"uint256","name":"totalTokensStaked","type":"uint256"},{"internalType":"uint256","name":"totalRewardsPaid","type":"uint256"},{"internalType":"uint256","name":"numberOfStakers","type":"uint256"}],"stateMutability":"view","type":"function"},{"inputs":[],"name":"getTokenBalances","outputs":[{"internalType":"uint256","name":"tokenBalance","type":"uint256"},{"internalType":"uint256","name":"usdtBalance","type":"uint256"},{"internalType":"uint256","name":"usdcBalance","type":"uint256"}],"stateMutability":"view","type":"function"},{"inputs":[],"name":"getTotalPenaltyCollected","outputs":[{"internalType":"uint256","name":"","type":"uint256"}],"stateMutability":"view","type":"function"},{"inputs":[{"internalType":"address","name":"referrer","type":"address"}],"name":"getUserReferrals","outputs":[{"internalType":"address[]","name":"","type":"address[]"}],"stateMutability":"view","type":"function"},{"inputs":[{"internalType":"address","name":"user","type":"address"}],"name":"getUserStakes","outputs":[{"components":[{"internalType":"uint256","name":"id","type":"uint256"},{"internalType":"uint256","name":"amount","type":"uint256"},{"internalType":"uint256","name":"startTime","type":"uint256"},{"internalType":"uint256","name":"lockPeriod","type":"uint256"},{"internalType":"uint256","name":"lastRewardCalculation","type":"uint256"},{"internalType":"uint256","name":"pendingRewards","type":"uint256"},{"internalType":"bool","name":"active","type":"bool"}],"internalType":"struct TokenICO.Stake[]","name":"","type":"tuple[]"}],"stateMutability":"view","type":"function"},{"inputs":[{"internalType":"address","name":"user","type":"address"}],"name":"getUserStakingInfo","outputs":[{"internalType":"uint256","name":"totalUserStaked","type":"uint256"},{"internalType":"uint256","name":"totalPendingRewards","type":"uint256"},{"internalType":"uint256","name":"activeStakesCount","type":"uint256"}],"stateMutability":"view","type":"function"},{"inputs":[{"internalType":"address","name":"user","type":"address"}],"name":"getUserTransactions","outputs":[{"components":[{"internalType":"uint256","name":"timestamp","type":"uint256"},{"internalType":"address","name":"user","type":"address"},{"internalType":"address","name":"tokenIn","type":"address"},{"internalType":"address","name":"tokenOut","type":"address"},{"internalType":"uint256","name":"amountIn","type":"uint256"},{"internalType":"uint256","name":"amountOut","type":"uint256"},{"internalType":"string","name":"transactionType","type":"string"}],"internalType":"struct TokenICO.Transaction[]","name":"","type":"tuple[]"}],"stateMutability":"view","type":"function"},{"inputs":[{"internalType":"uint256","name":"stakeId","type":"uint256"}],"name":"harvestRewards","outputs":[],"stateMutability":"nonpayable","type":"function"},{"inputs":[{"internalType":"address","name":"","type":"address"}],"name":"hasStaked","outputs":[{"internalType":"bool","name":"","type":"bool"}],"stateMutability":"view","type":"function"},{"inputs":[],"name":"minStakeAmount","outputs":[{"internalType":"uint256","name":"","type":"uint256"}],"stateMutability":"view","type":"function"},{"inputs":[],"name":"nextStakeId","outputs":[{"internalType":"uint256","name":"","type":"uint256"}],"stateMutability":"view","type":"function"},{"inputs":[],"name":"owner","outputs":[{"internalType":"address","name":"","type":"address"}],"stateMutability":"view","type":"function"},{"inputs":[],"name":"referralRewardPercentage","outputs":[{"internalType":"uint256","name":"","type":"uint256"}],"stateMutability":"view","type":"function"},{"inputs":[{"internalType":"address","name":"","type":"address"}],"name":"referralRewards","outputs":[{"internalType":"uint256","name":"","type":"uint256"}],"stateMutability":"view","type":"function"},{"inputs":[{"internalType":"address","name":"","type":"address"},{"internalType":"uint256","name":"","type":"uint256"}],"name":"referrals","outputs":[{"internalType":"address","name":"","type":"address"}],"stateMutability":"view","type":"function"},{"inputs":[{"internalType":"address","name":"","type":"address"}],"name":"referrers","outputs":[{"internalType":"address","name":"","type":"address"}],"stateMutability":"view","type":"function"},{"inputs":[{"internalType":"address","name":"referrer","type":"address"}],"name":"registerReferrer","outputs":[],"stateMutability":"nonpayable","type":"function"},{"inputs":[],"name":"saleToken","outputs":[{"internalType":"address","name":"","type":"address"}],"stateMutability":"view","type":"function"},{"inputs":[{"internalType":"address","name":"user","type":"address"},{"internalType":"bool","name":"blocked","type":"bool"}],"name":"setBlockStatus","outputs":[],"stateMutability":"nonpayable","type":"function"},{"inputs":[{"internalType":"address","name":"_token","type":"address"}],"name":"setSaleToken","outputs":[],"stateMutability":"nonpayable","type":"function"},{"inputs":[{"internalType":"address","name":"_signer","type":"address"}],"name":"setSigner","outputs":[],"stateMutability":"nonpayable","type":"function"},{"inputs":[],"name":"signer","outputs":[{"internalType":"address","name":"","type":"address"}],"stateMutability":"view","type":"function"},{"inputs":[],"name":"solAddress","outputs":[{"internalType":"address","name":"","type":"address"}],"stateMutability":"view","type":"function"},{"inputs":[],"name":"solRatio","outputs":[{"internalType":"uint256","name":"","type":"uint256"}],"stateMutability":"view","type":"function"},{"inputs":[{"internalType":"uint256","name":"","type":"uint256"}],"name":"stakeOwners","outputs":[{"internalType":"address","name":"","type":"address"}],"stateMutability":"view","type":"function"},{"inputs":[{"internalType":"uint256","name":"amount","type":"uint256"},{"internalType":"uint256","name":"lockPeriodDays","type":"uint256"}],"name":"stakeTokens","outputs":[],"stateMutability":"nonpayable","type":"function"},{"inputs":[],"name":"tokensSold","outputs":[{"internalType":"uint256","name":"","type":"uint256"}],"stateMutability":"view","type":"function"},{"inputs":[],"name":"totalPenaltyCollected","outputs":[{"internalType":"uint256","name":"","type":"uint256"}],"stateMutability":"view","type":"function"},{"inputs":[],"name":"totalRewardsDistributed","outputs":[{"internalType":"uint256","name":"","type":"uint256"}],"stateMutability":"view","type":"function"},{"inputs":[],"name":"totalStaked","outputs":[{"internalType":"uint256","name":"","type":"uint256"}],"stateMutability":"view","type":"function"},{"inputs":[],"name":"totalStakers","outputs":[{"internalType":"uint256","name":"","type":"uint256"}],"stateMutability":"view","type":"function"},{"inputs":[{"internalType":"uint256","name":"stakeId","type":"uint256"}],"name":"unstakeEarly","outputs":[],"stateMutability":"nonpayable","type":"function"},{"inputs":[{"internalType":"uint256","name":"stakeId","type":"uint256"}],"name":"unstakeTokens","outputs":[],"stateMutability":"nonpayable","type":"function"},{"inputs":[{"internalType":"address","name":"newAddress","type":"address"},{"internalType":"uint256","name":"newRatio","type":"uint256"}],"name":"updateBTC","outputs":[],"stateMutability":"nonpayable","type":"function"},{"inputs":[{"internalType":"uint256","name":"newAPY","type":"uint256"}],"name":"updateBaseAPY","outputs":[],"stateMutability":"nonpayable","type":"function"},{"inputs":[{"internalType":"address","name":"newAddress","type":"address"},{"internalType":"uint256","name":"newRatio","type":"uint256"}],"name":"updateETH","outputs":[],"stateMutability":"nonpayable","type":"function"},{"inputs":[{"internalType":"uint256","name":"newMinAmount","type":"uint256"}],"name":"updateMinStakeAmount","outputs":[],"stateMutability":"nonpayable","type":"function"},{"inputs":[{"internalType":"uint256","name":"newPercentage","type":"uint256"}],"name":"updateReferralPercentage","outputs":[],"stateMutability":"nonpayable","type":"function"},{"inputs":[{"internalType":"address","name":"newAddress","type":"address"},{"internalType":"uint256","name":"newRatio","type":"uint256"}],"name":"updateSOL","outputs":[],"stateMutability":"nonpayable","type":"function"},{"inputs":[{"internalType":"uint256","name":"newPrice","type":"uint256"}],"name":"updateStablecoinPrice","outputs":[],"stateMutability":"nonpayable","type":"function"},{"inputs":[{"internalType":"uint256","name":"newPrice","type":"uint256"}],"name":"updateTokenPrice","outputs":[],"stateMutability":"nonpayable","type":"function"},{"inputs":[{"internalType":"address","name":"newAddress","type":"address"},{"internalType":"uint256","name":"newRatio","type":"uint256"}],"name":"updateUSDC","outputs":[],"stateMutability":"nonpayable","type":"function"},{"inputs":[{"internalType":"address","name":"newAddress","type":"address"},{"internalType":"uint256","name":"newRatio","type":"uint256"}],"name":"updateUSDT","outputs":[],"stateMutability":"nonpayable","type":"function"},{"inputs":[],"name":"usdcAddress","outputs":[{"internalType":"address","name":"","type":"address"}],"stateMutability":"view","type":"function"},{"inputs":[],"name":"usdcRatio","outputs":[{"internalType":"uint256","name":"","type":"uint256"}],"stateMutability":"view","type":"function"},{"inputs":[],"name":"usdtAddress","outputs":[{"internalType":"address","name":"","type":"address"}],"stateMutability":"view","type":"function"},{"inputs":[],"name":"usdtRatio","outputs":[{"internalType":"uint256","name":"","type":"uint256"}],"stateMutability":"view","type":"function"},{"inputs":[{"internalType":"address","name":"","type":"address"}],"name":"usedNonce","outputs":[{"internalType":"uint256","name":"","type":"uint256"}],"stateMutability":"view","type":"function"},{"inputs":[{"internalType":"address","name":"","type":"address"},{"internalType":"uint256","name":"","type":"uint256"}],"name":"userStakes","outputs":[{"internalType":"uint256","name":"id","type":"uint256"},{"internalType":"uint256","name":"amount","type":"uint256"},{"internalType":"uint256","name":"startTime","type":"uint256"},{"internalType":"uint256","name":"lockPeriod","type":"uint256"},{"internalType":"uint256","name":"lastRewardCalculation","type":"uint256"},{"internalType":"uint256","name":"pendingRewards","type":"uint256"},{"internalType":"bool","name":"active","type":"bool"}],"stateMutability":"view","type":"function"},{"inputs":[{"internalType":"address","name":"","type":"address"},{"internalType":"uint256","name":"","type":"uint256"}],"name":"userTransactions","outputs":[{"internalType":"uint256","name":"timestamp","type":"uint256"},{"internalType":"address","name":"user","type":"address"},{"internalType":"address","name":"tokenIn","type":"address"},{"internalType":"address","name":"tokenOut","type":"address"},{"internalType":"uint256","name":"amountIn","type":"uint256"},{"internalType":"uint256","name":"amountOut","type":"uint256"},{"internalType":"string","name":"transactionType","type":"string"}],"stateMutability":"view","type":"function"},{"inputs":[{"internalType":"address","name":"_token","type":"address"},{"internalType":"uint256","name":"_amount","type":"uint256"}],"name":"withdrawTokens","outputs":[],"stateMutability":"nonpayable","type":"function"}],"evm":{"bytecode":{"linkReferences":{},"object":"60a08060405234620001cb57602060089166038d7ea4c6800080600655600755600c601355601468056bc75e2d6310000081556001601a556005601c55336080523360018060a01b03198454161783558084558060095580600a5580600b55600d556200006c81620001d0565b8281520167546f6b656e49434f60c01b815220600160206040516200009181620001d0565b82815201603160f81b815220906040519160208301917f8b73c3c69bb8fe3d512ecc4cf759cc79239f7b179b0ffacaa9a75d522b39400f8352604084015260608301524660808301523060a083015260a0825260c082019180831060018060401b03841117620001b557826040525190206021556157be9081620001ed82396080518181816104be015281816107590152818161084c01528181610c4901528181610d5b01528181610f0f01528181611041015281816115530152818161165d0152818161197c01528181611c9501528181611fc4015281816120be015281816121630152818161222b0152818161268501528181612b1101528181612ca601528181613017015281816135d1015281816137e4015281816138e70152613a380152f35b634e487b7160e01b600052604160045260246000fd5b600080fd5b604081019081106001600160401b03821117620001b55760405256fe6080604081815260048036101561001557600080fd5b60009260e08435811c91826302d4545714613c3457508163032d975b14613c1457816306360b8514613be757816306b091f914613a17578163098134821461394757816314ce670b14613933578163182a676b146138855781631c042d35146138655781631ce24e161461383b5781631e37c606146137b757816320f1fc611461376b578163214405a91461374b57816321874ae2146136ea578163238ac933146136c1578163251545da146134c157816327506f53146133e15781632ba77022146133cd5781632bb3880914612bf65781632fd04c081461309e5781633644e5151461307e5781633a5d41751461306a5781633a94be2d14612fe95781633b7b618814612cfd5781633e4e645314612c795781633e61e9dc14612c4057816341398b1514612c16578163491cc75614612bf65781634a3b68cc14612bba5781634cdb312d14612af55781634f93208a14612ab6578163518ab2a814612a9657816353aaa63b14612a5d57816357126d0d1461282a578163575cea6b1461277f5781635b36504014612575578163608e4dd01461229957816363219c72146121ec57816364f1d113146121cc578163676c0d77146121245781636c19e783146120955781636f43f3731461207557816371d20fe714611fa857816375506c9614611f885781637a9773dc14611f685781637cc1f86714611e895781637df7418114611a675781637ea61fe3146118d757816380933608146117f4578163817b1cd2146117d457816383fabe03146117b4578163842e2981146116ac578163869890381461168c5781638da5cb5b14611647578163920a253e1461162757816394dc9cf3146114c2578163963c9dd3146113e75781639ab4a445146113bd5781639c0fbd05146113a05781639ea7685a1461121c578163a0b3b930146111fc578163a1dc903114611086578163a29f481c14611018578163a77c80aa14610fe2578163a7c6016014610e54578163aeccf73514610ca0578163b006984f14610c1c578163b40cd21d14610bda578163b5d5b5fa14610b4757508063b842ec4414610ac9578063bc5894ba14610aaa578063c93c8f3414610a6c578063d3ea435014610a45578063d7ff0714146108fd578063d8060cd514610831578063e697b5d8146107d8578063e985e367146107b0578063ebcd3a131461072d578063ecb2dd74146106f2578063ee172546146106d3578063ef925399146105f5578063f1887684146105d2578063f30ef2e51461041d578063f7d76ae5146103f65763fd9a11e5146103c157600080fd5b346103f25760203660031901126103f25735825260166020908152918190205490516001600160a01b039091168152f35b8280fd5b50346103f257826003193601126103f2575490516001600160a01b03909116815260209150f35b50346103f25760203660031901126103f257803590338452600f60205261044a60ff8486205416156140d9565b6104558215156142c8565b83546001600160a01b03929061046e9084161515614191565b826005541661047e81151561453c565b61048a600d54836141d2565b92633b9aca00938481029481860414901517156105bf5785516323b872dd60e01b8152339181019182526001600160a01b037f00000000000000000000000000000000000000000000000000000000000000001660208381019190915260408301859052909392909184919082908a90829060600103925af180156105b5576000805160206157698339815191529361053161053692610581958a91610587575b5061457d565b614e75565b93610540856150af565b61055d81600554168684848b54166105566142a9565b9333615667565b60055416945191829133954291846040919493926060820195825260208201520152565b0390a380f35b6105a8915060203d81116105ae575b6105a08183613ec5565b810190614356565b3861052b565b503d610596565b85513d88823e3d90fd5b634e487b7160e01b875260119052602486fd5b5050346105f157816003193601126105f1576020906014549051908152f35b5080fd5b508290346105f157602091826003193601126106d0576001600160a01b03928361061d613c59565b1682526010815284822091825493610634856156c3565b9561064188519788613ec5565b85875283870194835283832092945b868610610668578851806106648a82613d20565b0390f35b6007856001928b5161067981613e3f565b8754815285858901541683820152856002890154168d820152856003890154166060820152868801546080820152600588015460a08201526106bd60068901613ee7565b60c0820152815201940195019492610650565b80fd5b5050346105f157816003193601126105f1576020906018549051908152f35b5050346105f157816003193601126105f157602090517f91b089318bbdf627bacec662873c12cc3afdc69db73f084d7726e9ce2907280a8152f35b5050346105f1573660031901126106d057610746613c59565b602435906001600160a01b0390610780337f0000000000000000000000000000000000000000000000000000000000000000841614613fea565b1661078c81151561405f565b61079782151561409d565b6001600160601b0360a01b6005541617600555600d5580f35b5050346105f157816003193601126105f157905490516001600160a01b039091168152602090f35b5050346105f157806003193601126105f1576107f2613c59565b6001600160a01b039081168352601e602052818320805460243594908510156106d0575060209361082291613fd2565b92905490519260031b1c168152f35b50346103f25760203660031901126103f25780359061087a337f00000000000000000000000000000000000000000000000000000000000000006001600160a01b031614613fea565b81156108ba5750907f171aabb8815c02fd00303450a77058600e3661eb75ce2e77972c0f080bc7099d91601454908060145582519182526020820152a180f35b606490602084519162461bcd60e51b8352820152602060248201527f4d696e207374616b65206d7573742062652067726561746572207468616e20306044820152fd5b50346103f25760203660031901126103f257356011548110156103f257601160079293520290610664827f31ecc21a745e3968a04e9570e4425bc18fa8019c68028196b546d1669c200c6801549160018060a01b0393847f31ecc21a745e3968a04e9570e4425bc18fa8019c68028196b546d1669c200c698201541694807f31ecc21a745e3968a04e9570e4425bc18fa8019c68028196b546d1669c200c6a83015416907f31ecc21a745e3968a04e9570e4425bc18fa8019c68028196b546d1669c200c6b830154167f31ecc21a745e3968a04e9570e4425bc18fa8019c68028196b546d1669c200c6c83015491610a3a7f31ecc21a745e3968a04e9570e4425bc18fa8019c68028196b546d1669c200c6e7f31ecc21a745e3968a04e9570e4425bc18fa8019c68028196b546d1669c200c6d8601549501613ee7565b945197889788613f8d565b5091346106d05760203660031901126106d05750610a6560209235614c29565b9051908152f35b5050346105f15760203660031901126105f15760209160ff9082906001600160a01b03610a97613c59565b168152601b855220541690519015158152f35b5050346105f157816003193601126105f157602090600b549051908152f35b509190346105f157806003193601126105f157610ae4613c59565b6001600160a01b039081168352601060205281832080549193602435928310156106d057506106649291610b1791613dd3565b50805493806001830154169581600284015416916003840154169083015491610a3a600660058601549501613ee7565b939050346106d057826003193601126106d057610b62613c59565b6001600160a01b031681526015602052828120805460243592908310156106d0575090610b8e91613dd3565b5080549260018201549260028301546003840154918401549260ff600660058701549601541695815197885260208801528601526060850152608084015260a0830152151560c0820152f35b505050346105f157816003193601126105f15760a090601354906014549060175460185491601954938151958652602086015284015260608301526080820152f35b505050346105f1573660031901126106d057610c36613c59565b602435906001600160a01b0390610c70337f0000000000000000000000000000000000000000000000000000000000000000841614613fea565b16610c7c81151561405f565b610c8782151561409d565b6001600160601b0360a01b600154161760015560085580f35b5050346103f25760203660031901126103f257803590338452600f602052610cce60ff8486205416156140d9565b811591610cdb83156142c8565b84546001600160a01b039390610cf49085161515614191565b8360025416610d048115156143b1565b620f42409182840292848404141715610e4157610d23600954846141d2565b93670de0b6b3a764000094858102958187041490151715610e2e5786516323b872dd60e01b8152339181019182526001600160a01b037f0000000000000000000000000000000000000000000000000000000000000000166020838101919091526040830194909452939291849182908a90829060600103925af180156105b55760008051602061576983398151915293610531610dcc92610581958a91610e10575b506143f3565b93610dd6856150af565b610dec81600254168684848b54166105566142a9565b60025416945191829133954291846040919493926060820195825260208201520152565b610e28915060203d81116105ae576105a08183613ec5565b38610dc6565b634e487b7160e01b885260119052602487fd5b634e487b7160e01b875260118452602487fd5b5050346103f25760203660031901126103f257803590338452600f602052610e8260ff8486205416156140d9565b811591610e8f83156142c8565b84546001600160a01b039390610ea89085161515614191565b8360015416610eb8811515614314565b620f42409182840292848404141715610e4157610ed7600854846141d2565b93670de0b6b3a764000094858102958187041490151715610e2e5786516323b872dd60e01b8152339181019182526001600160a01b037f0000000000000000000000000000000000000000000000000000000000000000166020838101919091526040830194909452939291849182908a90829060600103925af180156105b55760008051602061576983398151915293610531610f8092610581958a91610fc4575b5061436e565b93610f8a856150af565b610fa081600154168684848b54166105566142a9565b60015416945191829133954291846040919493926060820195825260208201520152565b610fdc915060203d81116105ae576105a08183613ec5565b38610f7a565b5050346103f257610cce90610ff636613ca2565b9492919091338852600f60205261101360ff888a205416156140d9565b6145d3565b84346106d05760203660031901126106d057611032613c59565b6001600160a01b0390611068337f0000000000000000000000000000000000000000000000000000000000000000841614613fea565b1661107481151561405f565b81546001600160a01b03191617815580f35b505090346103f257826003193601126103f257825481516370a0823160e01b808252308286015290946001600160a01b03946020938490889060249082908a165afa9586156111f25782966111c2575b602497508481600154168751998a809288825230878301525afa9788156111b8578398611188575b509060248592600254169487519586938492835230908301525afa92831561117c578193611149575b5050506106649151938493846040919493926060820195825260208201520152565b9091809350813d8311611175575b6111618183613ec5565b810103126106d05750516106643880611127565b503d611157565b508351903d90823e3d90fd5b9097508481813d83116111b1575b6111a08183613ec5565b810103126103f257519660246110fe565b503d611196565b86513d85823e3d90fd5b95508387813d83116111eb575b6111d98183613ec5565b810103126105f15760249651956110d6565b503d6111cf565b85513d84823e3d90fd5b505050346105f157816003193601126105f1576020906006549051908152f35b505090346103f25760208060031936011261139c57611239613c59565b92338552600f825261125160ff8487205416156140d9565b6001600160a01b0393841693841561135a5733851461132057338652601d835283862054166112d4575090601e6112ab92338652601d8152828620856001600160601b0360a01b825416179055848652523390842061411a565b33907f5f1ca2fcc108b751843a763e60d2201f593516109d7dbb1b700468f2d4190bb78380a380f35b915162461bcd60e51b815291820152602260248201527f416c72656164792072656769737465726564207769746820612072656665727260448201526132b960f11b6064820152608490fd5b50915162461bcd60e51b815291820152601560248201527421b0b73737ba103932b332b9103cb7bab939b2b63360591b6044820152606490fd5b50915162461bcd60e51b815291820152601860248201527f496e76616c6964207265666572726572206164647265737300000000000000006044820152606490fd5b8380fd5b505050346105f157816003193601126105f1576020905160058152f35b505050346105f157816003193601126105f15760015490516001600160a01b039091168152602090f35b5050346103f2576020908160031936011261139c573580845260168252828420546001600160a01b031693909290611420851515614b5c565b611428615730565b8195825b818452601580875285852080548310156114ad5761144b838a92613dd3565b505414611461575061145c90614b40565b61142c565b60609850611484935084869161147e946114949752885220613dd3565b506156db565b9361148f6001614b9f565b614c29565b60c0858501519401511515928251948552840152820152f35b5050505093611494915061148f606096614b9f565b5050346103f25760203660031901126103f257803590338452600f6020526114f060ff8486205416156140d9565b6114fb8215156142c8565b83546001600160a01b0392611593916115179085161515614191565b602081856003541661152a811515614436565b611536600b54836141d2565b88516323b872dd60e01b8152339781019788526001600160a01b037f00000000000000000000000000000000000000000000000000000000000000001660208901526040880193909352959194859283918b918391606090910190565b03925af180156105b557600080516020615769833981519152936105316115c592610581958a91611609575b50614477565b936115cf856150af565b6115e581600354168684848b54166105566142a9565b60035416945191829133954291846040919493926060820195825260208201520152565b611621915060203d81116105ae576105a08183613ec5565b386115bf565b505050346105f157816003193601126105f157602090601c549051908152f35b505050346105f157816003193601126105f157517f00000000000000000000000000000000000000000000000000000000000000006001600160a01b03168152602090f35b505050346105f157816003193601126105f1576020906019549051908152f35b915050346103f25760208060031936011261139c5790916001600160a01b036116d3613c59565b16845260158252808420918254916116ea836156c3565b926116f782519485613ec5565b8084528284018095885283882088915b838310611787575050505080519482860193838752518094528186019496915b8483106117345786860387f35b87518051875280850151878601528082015187830152606080820151908801526080808201519088015260a0808201519088015260c0908101511515908701529683019694810194600190920191611727565b60078660019261179e859d999a9b9d9c989c6156db565b8152019201920191909896959498979397611707565b505050346105f157816003193601126105f1576020906008549051908152f35b505050346105f157816003193601126105f1576020906017549051908152f35b8385346106d057602090816003193601126106d057611811613c59565b9091829182919082906001600160a01b0316815b818652601580855288872080548310156118bf5760ff6006611848858d94613dd3565b50015416611861575b505061185c90614b40565b611825565b82969461188f839a600161188661185c976118b1968e6118b7998e8d83525220613dd3565b50015490614b4f565b99858a5287526118ab6118a4898d8c20613dd3565b5054614c29565b90614b4f565b93614b40565b949088611851565b89518981526020810186905260408101889052606090f35b5050346103f2576119076118ea36613ca2565b9392919091338852600f60205261101360ff888a205416156140d9565b6119128115156142c8565b83546001600160a01b03919061192b9083161515614191565b818354169061193b8215156144b9565b611947600c54826141d2565b926402540be40093848102948186041490151715611a545785516323b872dd60e01b8152338682019081526001600160a01b037f000000000000000000000000000000000000000000000000000000000000000016602082810191909152604082018590529194859182908b90829060600103925af18015611a4a57600080516020615769833981519152946105316119eb92610581968b91611a2c575b506144fa565b946119f5866150af565b611a0a828254168785858c54166105566142a9565b5416945191829133954291846040919493926060820195825260208201520152565b611a44915060203d81116105ae576105a08183613ec5565b386119e5565b86513d89823e3d90fd5b634e487b7160e01b875260118552602487fd5b828585366003190160a081126103f2576080136105f15760843567ffffffffffffffff81116103f257611a9d9036908501613c74565b91903384526020600f8152611ab860ff8487205416156140d9565b60643591824211611e54576001600160a01b03948735868116929190839003611e5057338303611e1a57604435923389526022855286892054841115611dea576021549060243596898816809803611de657885190878201927f91b089318bbdf627bacec662873c12cc3afdc69db73f084d7726e9ce2907280a84528a83015288606083015286608083015260a082015260a08152611b5681613e71565b5190208751908682019261190160f01b84526022830152604282015260428152611b7f81613e8d565b51902090611b8c8161421b565b92611b9988519485613ec5565b8184523682820111611de257918986838694611bbf9683611bc799013784010152614a15565b9190916148fb565b8580845416911603611daf5733865260228252808487205583519081527fb23e07a4fc171f5f9242d4254c3b66b893beaab2f3787495c0f2d09dd3ef9726823392a28482151580611da3575b80611d8f575b8181611d70575b50611d0b575b5050503415611c358115614155565b611c43838554161515614191565b670de0b6b3a76400009081340291348304141715611cf857839291611cda611c8061053160008051602061576983398151915294600654906141fb565b93611c8a856150af565b611cc58680808034867f0000000000000000000000000000000000000000000000000000000000000000165af1611cbf614237565b50614267565b85541684611cd16142a9565b91349033615608565b51348152602081019290925242604083015233918060608101610581565b634e487b7160e01b845260118552602484fd5b611d6c57601e90338652601d8152838620836001600160601b0360a01b82541617905582865252611d3e3383862061411a565b33907f5f1ca2fcc108b751843a763e60d2201f593516109d7dbb1b700468f2d4190bb78580a3848080611c26565b8480fd5b9050611d8b57828652600f825260ff84872054161581611c20565b8580fd5b50338652601d825284848720541615611c19565b50508433831415611c13565b835162461bcd60e51b8152808801839052600d60248201526c426164207369676e617475726560981b6044820152606490fd5b8980fd5b8a80fd5b865162461bcd60e51b8152808b01869052600a602482015269139bdb98d9481d5cd95960b21b6044820152606490fd5b855162461bcd60e51b8152808a01859052601060248201526f2737ba103cb7bab9103b37bab1b432b960811b6044820152606490fd5b8780fd5b835162461bcd60e51b8152808801839052600f60248201526e159bdd58da195c88195e1c1a5c9959608a1b6044820152606490fd5b9290503461139c578360031936011261139c57835481516370a0823160e01b815230938101939093526001600160a01b039081169390602084602481885afa938415611f5e578694611f26575b50610120955060065490600754600e54908260015416926002541693600854966009549881519a8b5260208b01528901526060880152608087015260a086015260c0850152830152610100820152f35b9093506020813d8211611f56575b81611f4160209383613ec5565b81010312611d8b576101209550519238611ed6565b3d9150611f34565b83513d88823e3d90fd5b505050346105f157816003193601126105f157602090600d549051908152f35b505050346105f157816003193601126105f157602090601a549051908152f35b5050346103f25760203660031901126103f257803590611ff2337f00000000000000000000000000000000000000000000000000000000000000006001600160a01b031614613fea565b81156120325750907f787a1fca55641ce34a438271930bbb9401df20db2b4f510d4f252227d85df43d91601354908060135582519182526020820152a180f35b606490602084519162461bcd60e51b8352820152601a60248201527f415059206d7573742062652067726561746572207468616e20300000000000006044820152fd5b505050346105f157816003193601126105f1576020906009549051908152f35b84346106d05760203660031901126106d0576120af613c59565b6001600160a01b03906120e5337f0000000000000000000000000000000000000000000000000000000000000000841614613fea565b816020549116809282167f2d025324f0a785e8c12d0a0d91a9caa49df4ef20ff87e0df7213a1d4f3157beb8580a36001600160a01b0319161760205580f35b5050346103f25760203660031901126103f2577f6e838f2a03741f5f2aff5480963b672fb0dd8430a4dc75db9b67ce009733c9fe9160a09135612191337f00000000000000000000000000000000000000000000000000000000000000006001600160a01b031614613fea565b61219c811515614023565b60065491816006558051926060845260056060850152642a27a5a2a760d91b60808501526020840152820152a180f35b505050346105f157816003193601126105f1576020906007549051908152f35b5050346103f25760203660031901126103f2577f6e838f2a03741f5f2aff5480963b672fb0dd8430a4dc75db9b67ce009733c9fe9160a09135612259337f00000000000000000000000000000000000000000000000000000000000000006001600160a01b031614613fea565b612264811515614023565b600754918160075580519260608452600a60608501526929aa20a12622a1a7a4a760b11b60808501526020840152820152a180f35b505090346103f2576020908160031936011261139c578291923592338552600f815260ff6122cc818488205416156140d9565b84865260168252828620546001600160a01b03906122ed9082163314614e37565b8694859283805b338b526015808852888c208054831015612561579a61231583829c9d613dd3565b50541461232e575061232690614b40565b9897986122f4565b95509798505033895283855261235761234988888c20613dd3565b509160068093015416614bdd565b338952838552600261236b88888c20613dd3565b500154338a52848652600361238289898d20613dd3565b50015490620151809182810292818404149015171561254e57906123a591614b4f565b4210612514579184916124088a61244e956123ea6123c28d614c29565b9b3384528988528b6123d682828720613dd3565b50946001809601549b3382528a5220613dd3565b500160ff1981541690556017612401888254614c1c565b9055614b9f565b61241133614ff6565b61241b8886614b4f565b8a54885163a9059cbb60e01b8152339381019384526020840192909252909485939091169183918c918391604090910190565b03925af190811561250a579061246b9188916124ed575b50614afc565b8484151591826124d9575b84519081527f7fc4727e062e336010f2c282598ef5f14facb3de68cf8195c2f23e1454b2b74e843392a36124a8578480f35b7ff87cfa2d5feaea949ad65bb76a26d8553381bcb6382adbc83dedd48961bf32d991519283523392a3388080808480f35b6124e586601854614b4f565b601855612476565b6125049150843d86116105ae576105a08183613ec5565b38612465565b84513d89823e3d90fd5b855162461bcd60e51b8152808301869052601460248201527314dd1a5b1b081a5b881b1bd8dac81c195c9a5bd960621b6044820152606490fd5b634e487b7160e01b8b526011845260248bfd5b50505061244e939150916124088693614b9f565b5050826003193601126103f2573383526020600f815261259b60ff8486205416156140d9565b3415906125a88215614155565b6001546001600160a01b0392908316906125c3821515614314565b620f42409081340291348304141715611a54576007546125e2916141fb565b9385516370a0823160e01b815230828201528381602481865afa80156127755786918991612744575b501061270157855163a9059cbb60e01b81523391810191825260208201869052939291829185919082908a90829060400103925af180156105b5577f48a1f8a6c840b32621ceab4439a2ccd00b337e705dfdcdec0b40c49abf3e6be39361267a9288926126e4575b505061436e565b6126af8580808034867f0000000000000000000000000000000000000000000000000000000000000000165af1611cbf614237565b6126c0816001541684611cd1614adc565b60015493519283523460208401524260408401529092169133918060608101610581565b6126fa9250803d106105ae576105a08183613ec5565b3880612673565b855162461bcd60e51b8152908101839052601b60248201527f496e73756666696369656e742055534454206c697175696469747900000000006044820152606490fd5b809250858092503d831161276e575b61275d8183613ec5565b81010312611e50578590513861260b565b503d612753565b87513d8a823e3d90fd5b505050346105f1576020806003193601126103f2576001600160a01b0392836127a6613c59565b168152601e825282812091835190818185549182815201908195855282852090855b81811061281457505050826127de910383613ec5565b8451948186019282875251809352850193925b8281106127fe5785850386f35b83518716855293810193928101926001016127f1565b82548a16845292840192600192830192016127c8565b838584346105f157602090816003193601126103f257803591338452600f815260ff9461285c868287205416156140d9565b8385526016808352818620546001600160a01b039491906128809086163314614e37565b8694875b3389526015808752858a208054831015612a48576128a3838b92613dd3565b5054146128b957506128b490614b40565b612884565b9798998596975060066128db836128e494959697988e3381528d8d5220613dd3565b50015416614bdd565b6128ed88614c29565b968715612a0f579061291e91338b528088528a600561290e848a8420613dd3565b500155338b528752858a20613dd3565b5042908401558754845163a9059cbb60e01b815233818601908152602081018990529092879284928390036040019183918d91165af1908115612a055788916129e8575b50156129b0575050907ff87cfa2d5feaea949ad65bb76a26d8553381bcb6382adbc83dedd48961bf32d991601861299a858254614b4f565b9055519283523392a36129ad6001614b9f565b80f35b83606493519262461bcd60e51b845283015260248201527514995dd85c99081d1c985b9cd9995c8819985a5b195960521b6044820152fd5b6129ff9150853d87116105ae576105a08183613ec5565b88612962565b84513d8a823e3d90fd5b846064918888519262461bcd60e51b8452830152602482015274139bc81c995dd85c991cc81d1bc81a185c9d995cdd605a1b6044820152fd5b505050505050505090506129ad919250614b9f565b505050346105f15760203660031901126105f15760209181906001600160a01b03612a86613c59565b168152601f845220549051908152f35b505050346105f157816003193601126105f157602090600e549051908152f35b505050346105f15760203660031901126105f15760209160ff9082906001600160a01b03612ae2613c59565b168152600f855220541690519015158152f35b5050346103f25760203660031901126103f257803590612b3f337f00000000000000000000000000000000000000000000000000000000000000006001600160a01b031614613fea565b60148211612b815750907fd968a3cc702265c3ab67356df15ca21d50167b011f198b963e2a868e04e3d5e091601c549080601c5582519182526020820152a180f35b606490602084519162461bcd60e51b835282015260136024820152720a0cae4c6cadce8c2ceca40e8dede40d0d2ced606b1b6044820152fd5b505050346105f15760203660031901126105f1576020916001600160a01b0390829082612be5613c59565b168152601d85522054169051908152f35b505050346105f157816003193601126105f1576020906012549051908152f35b505050346105f157816003193601126105f15760035490516001600160a01b039091168152602090f35b505050346105f15760203660031901126105f15760209181906001600160a01b03612c69613c59565b1681526022845220549051908152f35b505050346105f1573660031901126106d057612c93613c59565b602435906001600160a01b0390612ccd337f0000000000000000000000000000000000000000000000000000000000000000841614613fea565b16612cd981151561405f565b612ce482151561409d565b6001600160601b0360a01b6003541617600355600b5580f35b828585346105f157806003193601126105f157823560243591338452602092600f8452612d3060ff8387205416156140d9565b6014548310612fa65784546001600160a01b0316612d4f811515614191565b601e82148015612f9c575b8015612f92575b8015612f87575b15612f4e5782516323b872dd60e01b815233818901908152306020820152604081018690529091869183919082908a90829060600103925af1908115611f5e5790612db9918791612f315750614afc565b601a5493612dc685614b40565b601a558251612dd481613e3f565b85815281810185815284820142815260608301858152608084019042825260a08501928b845260c086019460018652338d5260158852898d20805490600160401b821015612f1d5790612e2c91600182018155613dd3565b979097612f0b57927fb4caaf29adda3eefee3ad552a8e85058589bf834c7466cae4ee58787f70589ed9b9c9d9e92612e9b9897959260069795518955516001890155516002880155516003870155519085015551600584015551151591019060ff801983541691151516179055565b85875260168152828720336001600160601b0360a01b825416179055612ec385601754614b4f565b601755338752601b8152828720805460ff811615612eec575b505082519485528401523392a380f35b60ff19166001179055601954612f0190614b40565b6019558780612edc565b634e487b7160e01b8e528d8f5260248efd5b8f8f6041602492634e487b7160e01b835252fd5b612f489150863d88116105ae576105a08183613ec5565b88612465565b825162461bcd60e51b81528088018690526013602482015272125b9d985b1a59081b1bd8dac81c195c9a5bd9606a1b6044820152606490fd5b5061016d8214612d68565b5060b48214612d61565b50605a8214612d5a565b815162461bcd60e51b8152808701859052601a60248201527f416d6f756e742062656c6f77206d696e696d756d207374616b650000000000006044820152606490fd5b505090346103f2573660031901126105f157613003613c59565b60243591906001600160a01b039061303e337f0000000000000000000000000000000000000000000000000000000000000000841614613fea565b1661304a81151561405f565b61305583151561409d565b81546001600160a01b031916179055600c5580f35b5050346103f2576114f090610ff636613ca2565b505050346105f157816003193601126105f1576020906021549051908152f35b505091346106d057602092836003193601126105f157803590338352600f855260ff916130d0838686205416156140d9565b80845260168652848420546001600160a01b0396906130f29088163314614e37565b8495855b338752601580845282882080548310156133ba57613115838792613dd3565b50541461312b575061312690614b40565b6130f6565b919293949596975033885281845261315661314882858b20613dd3565b509760068099015416614bdd565b338852818452600261316a82858b20613dd3565b500154338952828552600361318183868c20613dd3565b5001549062015180918281029281840414901517156133a757996131ac86928b9c9b98999a9b614b4f565b926131b689614c29565b9a3389528584526131c982888b20613dd3565b5091876001809401549a8097421061334d575b906131f292916132529899338252885220613dd3565b500160ff1981541690556017613209898254614c1c565b90559861321f8b61321a878b614c1c565b614b4f565b8c54875163a9059cbb60e01b8152339381019384526020840192909252909485939091169183918e918391604090910190565b03925af1908115613343579761327387926132b39a8c9161332c5750614afc565b806132ec575b505080156132bc577f9c9ec3cfa814b0112b71c20d0b0ab54dead00a99fd389c174df717d2f1d364039282519485528401523392a3614b9f565b6129ad33614ff6565b50907f7fc4727e062e336010f2c282598ef5f14facb3de68cf8195c2f23e1454b2b74e91519283523392a3614b9f565b60186132f9828254614b4f565b905583519081527ff87cfa2d5feaea949ad65bb76a26d8553381bcb6382adbc83dedd48961bf32d9853392a38438613279565b6125049150873d89116105ae576105a08183613ec5565b83513d8b823e3d90fd5b5050919350919350600580890290898204148915171561339457916131f2889492888f60646132529997049960126133868c8254614b4f565b9055999850909192506131dc565b634e487b7160e01b8d5260118b5260248dfd5b634e487b7160e01b8a526011885260248afd5b505050505050505091506132b390614b9f565b5050346103f257610e8290610ff636613ca2565b505082346106d057806003193601126106d0579060115490613402826156c3565b9261340f85519485613ec5565b82845260118152906020907f31ecc21a745e3968a04e9570e4425bc18fa8019c68028196b546d1669c200c68908286015b858510613454578751806106648982613d20565b6007846001928a5161346581613e3f565b86548152848060a01b0380868901541684830152806002890154168d8301526003880154166060820152858701546080820152600587015460a08201526134ae60068801613ee7565b60c0820152815201930194019391613440565b5050826003193601126103f2573383526020600f81526134e760ff8486205416156140d9565b3415906134f48215614155565b6002546001600160a01b03929083169061350f8215156143b1565b620f42409081340291348304141715611a545760075461352e916141fb565b9385516370a0823160e01b815230828201528381602481865afa80156127755786918991613690575b501061364d57855163a9059cbb60e01b81523391810191825260208201869052939291829185919082908a90829060400103925af180156105b5577f48a1f8a6c840b32621ceab4439a2ccd00b337e705dfdcdec0b40c49abf3e6be3936135c6928892613630575b50506143f3565b6135fb8580808034867f0000000000000000000000000000000000000000000000000000000000000000165af1611cbf614237565b61360c816002541684611cd1614adc565b60025493519283523460208401524260408401529092169133918060608101610581565b6136469250803d106105ae576105a08183613ec5565b38806135bf565b855162461bcd60e51b8152908101839052601b60248201527f496e73756666696369656e742055534443206c697175696469747900000000006044820152606490fd5b809250858092503d83116136ba575b6136a98183613ec5565b81010312611e505785905138613557565b503d61369f565b505050346105f157816003193601126105f1576020805491516001600160a01b03909216825290f35b505050346105f15760203660031901126105f1576080916001600160a01b0380613712613c59565b168252601d602052828220541691601e602052808083205492601f602052205490601c5492815194855260208501528301526060820152f35b505050346105f157816003193601126105f1576020906013549051908152f35b828585816003193601126105f157338252600f60205261379160ff8284205416156140d9565b34159061379e8215614155565b82546001600160a01b039290611c439084161515614191565b505050346105f1573660031901126106d0576137d1613c59565b602435906001600160a01b039061380b337f0000000000000000000000000000000000000000000000000000000000000000841614613fea565b1661381781151561405f565b61382282151561409d565b6001600160601b0360a01b600254161760025560095580f35b505050346105f157816003193601126105f15760055490516001600160a01b039091168152602090f35b505050346105f157816003193601126105f157602090600c549051908152f35b505050346105f157806003193601126105f1576138a0613c59565b9060243591821515808403611d6c577fdda6207409a585801122fb885dcaa8074f9a21f25ff2def680c67f01a86c2c9b9260209261392b906001600160a01b039061390e337f0000000000000000000000000000000000000000000000000000000000000000841614613fea565b1695868852600f85528288209060ff801983541691151516179055565b51908152a280f35b5050346103f25761044a90610ff636613ca2565b838584346105f157602090816003193601126103f25735928383526016825260018060a01b0381842054169261397e841515614b5c565b613986615730565b8195825b86845260158087528585208054831015613a05576139a9838592613dd3565b5054146139bf57506139ba90614b40565b61398a565b6080985061147e935085919250936139dc94888252875220613dd3565b906139e76001614b9f565b81519381848401519301519382519586528501528301526060820152f35b505050509190506139e7608095614b9f565b505090346103f257806003193601126103f257613a32613c59565b602435907f00000000000000000000000000000000000000000000000000000000000000006001600160a01b03613a6c3382841614613fea565b808754169216918214613b27575b835163a9059cbb60e01b81526001600160a01b03909116858201908152602081810194909452909291839182908890829060400103925af1908115613b1d578491613aff575b5015613aca578280f35b906020606492519162461bcd60e51b8352820152600f60248201526e151c985b9cd9995c8819985a5b1959608a1b6044820152fd5b613b17915060203d81116105ae576105a08183613ec5565b38613ac0565b82513d86823e3d90fd5b83516370a0823160e01b81523086820152602081602481865afa8015613bdd578790613ba6575b613b5c915060175490614c1c565b831115613a7a57835162461bcd60e51b8152602081870152601d60248201527f43616e6e6f74207769746864726177207374616b656420746f6b656e730000006044820152606490fd5b506020813d8211613bd5575b81613bbf60209383613ec5565b81010312613bd157613b5c9051613b4e565b8680fd5b3d9150613bb2565b85513d89823e3d90fd5b5050346103f25760203660031901126103f2578035338452600f60205261190760ff8486205416156140d9565b505050346105f157816003193601126105f157602090600a549051908152f35b8590346105f157816003193601126105f1576002546001600160a01b03168152602090f35b600435906001600160a01b0382168203613c6f57565b600080fd5b9181601f84011215613c6f5782359167ffffffffffffffff8311613c6f5760208381860195010111613c6f57565b90600319820160c08112613c6f57608013613c6f576004916084359067ffffffffffffffff8211613c6f57613cd8918401613c74565b909160a43590565b919082519283825260005b848110613d0c575050826000602080949584010152601f8019910116010190565b602081830181015184830182015201613ceb565b602080820190808352835180925260409283810182858560051b8401019601946000925b858410613d55575050505050505090565b909192939495968580613dc2600193603f198682030188528b5180518252858060a01b0380858301511685840152808983015116898401526060908183015116908301526080808201519083015260a0808201519083015260c0809101519160e080928201520190613ce0565b990194019401929594939190613d44565b8054821015613def576000526007602060002091020190600090565b634e487b7160e01b600052603260045260246000fd5b90600182811c92168015613e35575b6020831014613e1f57565b634e487b7160e01b600052602260045260246000fd5b91607f1691613e14565b60e0810190811067ffffffffffffffff821117613e5b57604052565b634e487b7160e01b600052604160045260246000fd5b60c0810190811067ffffffffffffffff821117613e5b57604052565b6080810190811067ffffffffffffffff821117613e5b57604052565b6040810190811067ffffffffffffffff821117613e5b57604052565b90601f8019910116810190811067ffffffffffffffff821117613e5b57604052565b9060405191826000825492613efb84613e05565b908184526001948581169081600014613f6a5750600114613f27575b5050613f2592500383613ec5565b565b9093915060005260209081600020936000915b818310613f52575050613f2593508201013880613f17565b85548884018501529485019487945091830191613f3a565b915050613f2594506020925060ff191682840152151560051b8201013880613f17565b9360e09592613fcf98979492865260018060a01b0392838092166020880152166040860152166060840152608083015260a08201528160c08201520190613ce0565b90565b8054821015613def5760005260206000200190600090565b15613ff157565b60405162461bcd60e51b815260206004820152600a60248201526927b7363c9037bbb732b960b11b6044820152606490fd5b1561402a57565b60405162461bcd60e51b815260206004820152600d60248201526c496e76616c696420707269636560981b6044820152606490fd5b1561406657565b60405162461bcd60e51b815260206004820152600f60248201526e496e76616c6964206164647265737360881b6044820152606490fd5b156140a457565b60405162461bcd60e51b815260206004820152600d60248201526c496e76616c696420726174696f60981b6044820152606490fd5b156140e057565b60405162461bcd60e51b81526020600482015260126024820152711059191c995cdcc81a5cc8189b1bd8dad95960721b6044820152606490fd5b8054600160401b811015613e5b5761413791600182018155613fd2565b819291549060031b9160018060a01b03809116831b921b1916179055565b1561415c57565b60405162461bcd60e51b815260206004820152600d60248201526c26bab9ba1039b2b7321021272160991b6044820152606490fd5b1561419857565b60405162461bcd60e51b815260206004820152601260248201527114d85b19481d1bdad95b881b9bdd081cd95d60721b6044820152606490fd5b818102929181159184041417156141e557565b634e487b7160e01b600052601160045260246000fd5b8115614205570490565b634e487b7160e01b600052601260045260246000fd5b67ffffffffffffffff8111613e5b57601f01601f191660200190565b3d15614262573d906142488261421b565b916142566040519384613ec5565b82523d6000602084013e565b606090565b1561426e57565b60405162461bcd60e51b8152602060048201526013602482015272109390881d1c985b9cd9995c8819985a5b1959606a1b6044820152606490fd5b604051906142b682613ea9565b600382526242555960e81b6020830152565b156142cf57565b60405162461bcd60e51b815260206004820152601d60248201527f416d6f756e74206d7573742062652067726561746572207468616e20300000006044820152606490fd5b1561431b57565b60405162461bcd60e51b81526020600482015260136024820152721554d115081b9bdd0818dbdb999a59dd5c9959606a1b6044820152606490fd5b90816020910312613c6f57518015158103613c6f5790565b1561437557565b60405162461bcd60e51b81526020600482015260146024820152731554d115081d1c985b9cd9995c8819985a5b195960621b6044820152606490fd5b156143b857565b60405162461bcd60e51b81526020600482015260136024820152721554d110c81b9bdd0818dbdb999a59dd5c9959606a1b6044820152606490fd5b156143fa57565b60405162461bcd60e51b81526020600482015260146024820152731554d110c81d1c985b9cd9995c8819985a5b195960621b6044820152606490fd5b1561443d57565b60405162461bcd60e51b8152602060048201526012602482015271115512081b9bdd0818dbdb999a59dd5c995960721b6044820152606490fd5b1561447e57565b60405162461bcd60e51b8152602060048201526013602482015272115512081d1c985b9cd9995c8819985a5b1959606a1b6044820152606490fd5b156144c057565b60405162461bcd60e51b8152602060048201526012602482015271109510c81b9bdd0818dbdb999a59dd5c995960721b6044820152606490fd5b1561450157565b60405162461bcd60e51b8152602060048201526013602482015272109510c81d1c985b9cd9995c8819985a5b1959606a1b6044820152606490fd5b1561454357565b60405162461bcd60e51b815260206004820152601260248201527114d3d3081b9bdd0818dbdb999a59dd5c995960721b6044820152606490fd5b1561458457565b60405162461bcd60e51b815260206004820152601360248201527214d3d3081d1c985b9cd9995c8819985a5b1959606a1b6044820152606490fd5b356001600160a01b0381168103613c6f5790565b91906060830135928342116148c4576145eb816145bf565b6001600160a01b039190339083160361488c576040928382013590600095338752602093602285528688205484111561485b57602154908561462c826145bf565b9101996146388b6145bf565b90888a5192818a8501957f91b089318bbdf627bacec662873c12cc3afdc69db73f084d7726e9ce2907280a8752168c85015216606083015286608083015260a082015260a0815261468881613e71565b5190208751908682019261190160f01b845260228301526042820152604281526146b181613e8d565b519020906146be8161421b565b926146cb88519485613ec5565b818452368282011161485757918886838694611bbf96836146f199013784010152614a15565b83808454169116036148235733855260228252808486205583519081527fb23e07a4fc171f5f9242d4254c3b66b893beaab2f3787495c0f2d09dd3ef9726823392a28161473d866145bf565b1615158061480f575b806147fb575b806147dc575b61475e575b5050505050565b7f5f1ca2fcc108b751843a763e60d2201f593516109d7dbb1b700468f2d4190bb792601e6147c49261478f886145bf565b338852601d82528584892091166001600160601b0360a01b825416179055846147b7896145bf565b168752523390852061411a565b6147ce33946145bf565b169180a33880808080614757565b50816147e7866145bf565b168452600f815260ff838520541615614752565b50338452601d81528183852054161561474c565b50338261481b876145bf565b161415614746565b835162461bcd60e51b815260048101839052600d60248201526c426164207369676e617475726560981b6044820152606490fd5b8880fd5b865162461bcd60e51b815260048101869052600a602482015269139bdb98d9481d5cd95960b21b6044820152606490fd5b60405162461bcd60e51b815260206004820152601060248201526f2737ba103cb7bab9103b37bab1b432b960811b6044820152606490fd5b60405162461bcd60e51b815260206004820152600f60248201526e159bdd58da195c88195e1c1a5c9959608a1b6044820152606490fd5b60058110156149ff578061490c5750565b600181036149595760405162461bcd60e51b815260206004820152601860248201527f45434453413a20696e76616c6964207369676e617475726500000000000000006044820152606490fd5b600281036149a65760405162461bcd60e51b815260206004820152601f60248201527f45434453413a20696e76616c6964207369676e6174757265206c656e677468006044820152606490fd5b6003146149af57565b60405162461bcd60e51b815260206004820152602260248201527f45434453413a20696e76616c6964207369676e6174757265202773272076616c604482015261756560f01b6064820152608490fd5b634e487b7160e01b600052602160045260246000fd5b906041815114600014614a4357614a3f916020820151906060604084015193015160001a90614a4d565b9091565b5050600090600290565b9291907f7fffffffffffffffffffffffffffffff5d576e7357a4501ddfe92f46681b20a08311614ad05791608094939160ff602094604051948552168484015260408301526060820152600093849182805260015afa15614ac35781516001600160a01b03811615614abd579190565b50600190565b50604051903d90823e3d90fd5b50505050600090600390565b60405190614ae982613ea9565b600482526314d1531360e21b6020830152565b15614b0357565b60405162461bcd60e51b8152602060048201526015602482015274151bdad95b881d1c985b9cd9995c8819985a5b1959605a1b6044820152606490fd5b60001981146141e55760010190565b919082018092116141e557565b15614b6357565b60405162461bcd60e51b815260206004820152601460248201527314dd185ad948191bd95cc81b9bdd08195e1a5cdd60621b6044820152606490fd5b15614ba657565b60405162461bcd60e51b815260206004820152600f60248201526e14dd185ad9481b9bdd08199bdd5b99608a1b6044820152606490fd5b15614be457565b60405162461bcd60e51b815260206004820152601060248201526f5374616b65206e6f742061637469766560801b6044820152606490fd5b919082039182116141e557565b6000818152601660209081526040808320546001600160a01b031690614c50821515614b5c565b9293849390849081808080805b888b526015808b52888c208054831015614e1e57614c7c838992613dd3565b505414614c925750614c8d90614b40565b614c5d565b96509a5050505050508285528084528582862090614caf91613dd3565b5060050154958386528185528083872090614cc991613dd3565b5060040154928487528286528181882090614ce391613dd3565b50926001809401549686895281815283838a2090614d0091613dd3565b506003015496895252862090614d1591613dd3565b506006015460ff16614d29614d2e92614b9f565b614bdd565b428114614e1757614d3f9042614c1c565b926013548092605a8114600014614d9d575050600382029180830460031490151715614d895750613fcf9392614d7d63bbf81e0093614d829360011c905b6141d2565b0490614b4f565b634e487b7160e01b81526011600452602490fd5b60b48103614dd35750508160011b9180830460021490151715614d895750613fcf9392614d7d63bbf81e0093614d8293906141d2565b61016d9194935014614df8575b50613fcf9392614d7d63bbf81e0093614d82936141d2565b6003839293029180830460031490151715614d89575090613fcf614de0565b5050505090565b50505096509650979350614d2e929150614d2990614b9f565b15614e3e57565b60405162461bcd60e51b815260206004820152600f60248201526e2737ba1039ba30b5b29037bbb732b960891b6044820152606490fd5b60003381526020601d815260018060a01b039060408281852054169283151580614fe1575b614ea657505050505090565b6064614eb4601c54886141d2565b8654845163a9059cbb60e01b81526001600160a01b03881660048201529290910460248301819052969190859082906044908290869088165af1908115614fd7578291614fba575b5015614f76577f94ccb86446750660ec532b1beb1fb55f5ba2fffca042c4c53f4c080e72595b389392918186614f6c9352601f8552838120614f3f898254614b4f565b905554168688845192614f5184613ea9565b6008845267149151915494905360c21b878501528089615667565b519384523393a390565b825162461bcd60e51b815260048101859052601f60248201527f526566657272616c20726577617264207472616e73666572206661696c6564006044820152606490fd5b614fd19150853d87116105ae576105a08183613ec5565b38614efc565b84513d84823e3d90fd5b50838552600f835260ff828620541615614e9a565b600090815b6001600160a01b038216600090815260156020526040902080548210156150a757600661502a8360ff93613dd3565b500154166150405761503b90614b40565b614ffb565b50905060015b1580615085575b6150545750565b6001600160a01b03166000908152601b60205260409020805460ff1916905560195480156141e55760001901601955565b506001600160a01b0381166000908152601b602052604090205460ff1661504d565b505090615046565b600080546040516370a0823160e01b8152306004820152919392916020916001600160a01b0316908281602481855afa80156151e657849187916151b5575b50106151705760405163a9059cbb60e01b8152336004820152602481018490529082908290604490829089905af1918215615165579061513b9291615143959692615148575b5050614afc565b600e54614b4f565b600e55565b61515e9250803d106105ae576105a08183613ec5565b3880615134565b6040513d87823e3d90fd5b60405162461bcd60e51b815260048101839052601a60248201527f496e73756666696369656e7420746f6b656e2062616c616e63650000000000006044820152606490fd5b809250848092503d83116151df575b6151ce8183613ec5565b81010312611d8b57839051386150ee565b503d6151c4565b6040513d88823e3d90fd5b601154600160401b811015613e5b5760019081810180601155811015613def5760076000916011835202918351837f31ecc21a745e3968a04e9570e4425bc18fa8019c68028196b546d1669c200c68015560c07f31ecc21a745e3968a04e9570e4425bc18fa8019c68028196b546d1669c200c6e7f31ecc21a745e3968a04e9570e4425bc18fa8019c68028196b546d1669c200c6985019460018060a01b0360209681888a015116906001600160601b0360a01b91828254161790557f31ecc21a745e3968a04e9570e4425bc18fa8019c68028196b546d1669c200c6a83018260408b015116828254161790557f31ecc21a745e3968a04e9570e4425bc18fa8019c68028196b546d1669c200c6b83019160608a0151169082541617905560808701517f31ecc21a745e3968a04e9570e4425bc18fa8019c68028196b546d1669c200c6c82015560a08701517f31ecc21a745e3968a04e9570e4425bc18fa8019c68028196b546d1669c200c6d820155019401519182519267ffffffffffffffff8411615469576153828654613e05565b601f8111615423575b508491601f85116001146153c45793945084929190836153b9575b50501b916000199060031b1c1916179055565b0151925038806153a6565b86815285812093958591601f198316915b8883831061540957505050106153f0575b505050811b019055565b015160001960f88460031b161c191690553880806153e6565b8587015188559096019594850194879350908101906153d5565b868352858320601f860160051c81019187871061545f575b601f0160051c019084905b82811061545457505061538b565b848155018490615446565b909150819061543b565b634e487b7160e01b82526041600452602482fd5b8054600160401b811015613e5b5761549c906001928382018155613dd3565b6155f2578251815560c060068383019260018060a01b03602094818689015116906001600160601b0360a01b9182825416179055600283018260408a015116828254161790556003830191606089015116908254161790556080860151600482015560a08601516005820155019301519081519167ffffffffffffffff8311613e5b576155298554613e05565b601f81116155a9575b5081601f841160011461556057509282939183926000946153b95750501b916000199060031b1c1916179055565b919083601f1981168760005284600020946000905b8883831061558f57505050106153f057505050811b019055565b858701518855909601959485019487935090810190615575565b6000868152838120601f860160051c8101928587106155e8575b601f0160051c019186905b8381106155dd57505050615532565b8281550186906155ce565b90925082906155c3565b634e487b7160e01b600052600060045260246000fd5b92613f259491926040519461561c86613e3f565b42865260018060a01b038091169485602088015260006040880152166060860152608085015260a084015260c0830152600052601060205261566281604060002061547d565b6151f1565b92613f2595929491936040519561567d87613e3f565b42875260018060a01b0380809316968760208a0152166040880152166060860152608085015260a084015260c0830152600052601060205261566281604060002061547d565b67ffffffffffffffff8111613e5b5760051b60200190565b906040516156e881613e3f565b60c060ff600683958054855260018101546020860152600281015460408601526003810154606086015260048101546080860152600581015460a08601520154161515910152565b6040519061573d82613e3f565b8160c06000918281528260208201528260408201528260608201528260808201528260a0820152015256fe377aadedb6b2a771959584d10a6a36eccb5f56b4eb3a48525f76108d2660d8d4a264697066735822122049bd04305033b8278c3b028beca4678cac6194a8ca8acfdf744f12df802b945564736f6c63430008130033","opcodes":"PUSH1 0xA0 DUP1 PUSH1 0x40 MSTORE CALLVALUE PUSH3 0x1CB JUMPI PUSH1 0x20 PUSH1 0x8 SWAP2 PUSH7 0x38D7EA4C68000 DUP1 PUSH1 0x6 SSTORE PUSH1 0x7 SSTORE PUSH1 0xC PUSH1 0x13 SSTORE PUSH1 0x14 PUSH9 0x56BC75E2D63100000 DUP2 SSTORE PUSH1 0x1 PUSH1 0x1A SSTORE PUSH1 0x5 PUSH1 0x1C SSTORE CALLER PUSH1 0x80 MSTORE CALLER PUSH1 0x1 DUP1 PUSH1 0xA0 SHL SUB NOT DUP5 SLOAD AND OR DUP4 SSTORE DUP1 DUP5 SSTORE DUP1 PUSH1 0x9 SSTORE DUP1 PUSH1 0xA SSTORE DUP1 PUSH1 0xB SSTORE PUSH1 0xD SSTORE PUSH3 0x6C DUP2 PUSH3 0x1D0 JUMP JUMPDEST DUP3 DUP2 MSTORE ADD PUSH8 0x546F6B656E49434F PUSH1 0xC0 SHL DUP2 MSTORE KECCAK256 PUSH1 0x1 PUSH1 0x20 PUSH1 0x40 MLOAD PUSH3 0x91 DUP2 PUSH3 0x1D0 JUMP JUMPDEST DUP3 DUP2 MSTORE ADD PUSH1 0x31 PUSH1 0xF8 SHL DUP2 MSTORE KECCAK256 SWAP1 PUSH1 0x40 MLOAD SWAP2 PUSH1 0x20 DUP4 ADD SWAP2 PUSH32 0x8B73C3C69BB8FE3D512ECC4CF759CC79239F7B179B0FFACAA9A75D522B39400F DUP4 MSTORE PUSH1 0x40 DUP5 ADD MSTORE PUSH1 0x60 DUP4 ADD MSTORE CHAINID PUSH1 0x80 DUP4 ADD MSTORE ADDRESS PUSH1 0xA0 DUP4 ADD MSTORE PUSH1 0xA0 DUP3 MSTORE PUSH1 0xC0 DUP3 ADD SWAP2 DUP1 DUP4 LT PUSH1 0x1 DUP1 PUSH1 0x40 SHL SUB DUP5 GT OR PUSH3 0x1B5 JUMPI DUP3 PUSH1 0x40 MSTORE MLOAD SWAP1 KECCAK256 PUSH1 0x21 SSTORE PUSH2 0x57BE SWAP1 DUP2 PUSH3 0x1ED DUP3 CODECOPY PUSH1 0x80 MLOAD DUP2 DUP2 DUP2 PUSH2 0x4BE ADD MSTORE DUP2 DUP2 PUSH2 0x759 ADD MSTORE DUP2 DUP2 PUSH2 0x84C ADD MSTORE DUP2 DUP2 PUSH2 0xC49 ADD MSTORE DUP2 DUP2 PUSH2 0xD5B ADD MSTORE DUP2 DUP2 PUSH2 0xF0F ADD MSTORE DUP2 DUP2 PUSH2 0x1041 ADD MSTORE DUP2 DUP2 PUSH2 0x1553 ADD MSTORE DUP2 DUP2 PUSH2 0x165D ADD MSTORE DUP2 DUP2 PUSH2 0x197C ADD MSTORE DUP2 DUP2 PUSH2 0x1C95 ADD MSTORE DUP2 DUP2 PUSH2 0x1FC4 ADD MSTORE DUP2 DUP2 PUSH2 0x20BE ADD MSTORE DUP2 DUP2 PUSH2 0x2163 ADD MSTORE DUP2 DUP2 PUSH2 0x222B ADD MSTORE DUP2 DUP2 PUSH2 0x2685 ADD MSTORE DUP2 DUP2 PUSH2 0x2B11 ADD MSTORE DUP2 DUP2 PUSH2 0x2CA6 ADD MSTORE DUP2 DUP2 PUSH2 0x3017 ADD MSTORE DUP2 DUP2 PUSH2 0x35D1 ADD MSTORE DUP2 DUP2 PUSH2 0x37E4 ADD MSTORE DUP2 DUP2 PUSH2 0x38E7 ADD MSTORE PUSH2 0x3A38 ADD MSTORE RETURN JUMPDEST PUSH4 0x4E487B71 PUSH1 0xE0 SHL PUSH1 0x0 MSTORE PUSH1 0x41 PUSH1 0x4 MSTORE PUSH1 0x24 PUSH1 0x0 REVERT JUMPDEST PUSH1 0x0 DUP1 REVERT JUMPDEST PUSH1 0x40 DUP2 ADD SWAP1 DUP2 LT PUSH1 0x1 PUSH1 0x1 PUSH1 0x40 SHL SUB DUP3 GT OR PUSH3 0x1B5 JUMPI PUSH1 0x40 MSTORE JUMP INVALID PUSH1 0x80 PUSH1 0x40 DUP2 DUP2 MSTORE PUSH1 0x4 DUP1 CALLDATASIZE LT ISZERO PUSH2 0x15 JUMPI PUSH1 0x0 DUP1 REVERT JUMPDEST PUSH1 0x0 SWAP3 PUSH1 0xE0 DUP5 CALLDATALOAD DUP2 SHR SWAP2 DUP3 PUSH4 0x2D45457 EQ PUSH2 0x3C34 JUMPI POP DUP2 PUSH4 0x32D975B EQ PUSH2 0x3C14 JUMPI DUP2 PUSH4 0x6360B85 EQ PUSH2 0x3BE7 JUMPI DUP2 PUSH4 0x6B091F9 EQ PUSH2 0x3A17 JUMPI DUP2 PUSH4 0x9813482 EQ PUSH2 0x3947 JUMPI DUP2 PUSH4 0x14CE670B EQ PUSH2 0x3933 JUMPI DUP2 PUSH4 0x182A676B EQ PUSH2 0x3885 JUMPI DUP2 PUSH4 0x1C042D35 EQ PUSH2 0x3865 JUMPI DUP2 PUSH4 0x1CE24E16 EQ PUSH2 0x383B JUMPI DUP2 PUSH4 0x1E37C606 EQ PUSH2 0x37B7 JUMPI DUP2 PUSH4 0x20F1FC61 EQ PUSH2 0x376B JUMPI DUP2 PUSH4 0x214405A9 EQ PUSH2 0x374B JUMPI DUP2 PUSH4 0x21874AE2 EQ PUSH2 0x36EA JUMPI DUP2 PUSH4 0x238AC933 EQ PUSH2 0x36C1 JUMPI DUP2 PUSH4 0x251545DA EQ PUSH2 0x34C1 JUMPI DUP2 PUSH4 0x27506F53 EQ PUSH2 0x33E1 JUMPI DUP2 PUSH4 0x2BA77022 EQ PUSH2 0x33CD JUMPI DUP2 PUSH4 0x2BB38809 EQ PUSH2 0x2BF6 JUMPI DUP2 PUSH4 0x2FD04C08 EQ PUSH2 0x309E JUMPI DUP2 PUSH4 0x3644E515 EQ PUSH2 0x307E JUMPI DUP2 PUSH4 0x3A5D4175 EQ PUSH2 0x306A JUMPI DUP2 PUSH4 0x3A94BE2D EQ PUSH2 0x2FE9 JUMPI DUP2 PUSH4 0x3B7B6188 EQ PUSH2 0x2CFD JUMPI DUP2 PUSH4 0x3E4E6453 EQ PUSH2 0x2C79 JUMPI DUP2 PUSH4 0x3E61E9DC EQ PUSH2 0x2C40 JUMPI DUP2 PUSH4 0x41398B15 EQ PUSH2 0x2C16 JUMPI DUP2 PUSH4 0x491CC756 EQ PUSH2 0x2BF6 JUMPI DUP2 PUSH4 0x4A3B68CC EQ PUSH2 0x2BBA JUMPI DUP2 PUSH4 0x4CDB312D EQ PUSH2 0x2AF5 JUMPI DUP2 PUSH4 0x4F93208A EQ PUSH2 0x2AB6 JUMPI DUP2 PUSH4 0x518AB2A8 EQ PUSH2 0x2A96 JUMPI DUP2 PUSH4 0x53AAA63B EQ PUSH2 0x2A5D JUMPI DUP2 PUSH4 0x57126D0D EQ PUSH2 0x282A JUMPI DUP2 PUSH4 0x575CEA6B EQ PUSH2 0x277F JUMPI DUP2 PUSH4 0x5B365040 EQ PUSH2 0x2575 JUMPI DUP2 PUSH4 0x608E4DD0 EQ PUSH2 0x2299 JUMPI DUP2 PUSH4 0x63219C72 EQ PUSH2 0x21EC JUMPI DUP2 PUSH4 0x64F1D113 EQ PUSH2 0x21CC JUMPI DUP2 PUSH4 0x676C0D77 EQ PUSH2 0x2124 JUMPI DUP2 PUSH4 0x6C19E783 EQ PUSH2 0x2095 JUMPI DUP2 PUSH4 0x6F43F373 EQ PUSH2 0x2075 JUMPI DUP2 PUSH4 0x71D20FE7 EQ PUSH2 0x1FA8 JUMPI DUP2 PUSH4 0x75506C96 EQ PUSH2 0x1F88 JUMPI DUP2 PUSH4 0x7A9773DC EQ PUSH2 0x1F68 JUMPI DUP2 PUSH4 0x7CC1F867 EQ PUSH2 0x1E89 JUMPI DUP2 PUSH4 0x7DF74181 EQ PUSH2 0x1A67 JUMPI DUP2 PUSH4 0x7EA61FE3 EQ PUSH2 0x18D7 JUMPI DUP2 PUSH4 0x80933608 EQ PUSH2 0x17F4 JUMPI DUP2 PUSH4 0x817B1CD2 EQ PUSH2 0x17D4 JUMPI DUP2 PUSH4 0x83FABE03 EQ PUSH2 0x17B4 JUMPI DUP2 PUSH4 0x842E2981 EQ PUSH2 0x16AC JUMPI DUP2 PUSH4 0x86989038 EQ PUSH2 0x168C JUMPI DUP2 PUSH4 0x8DA5CB5B EQ PUSH2 0x1647 JUMPI DUP2 PUSH4 0x920A253E EQ PUSH2 0x1627 JUMPI DUP2 PUSH4 0x94DC9CF3 EQ PUSH2 0x14C2 JUMPI DUP2 PUSH4 0x963C9DD3 EQ PUSH2 0x13E7 JUMPI DUP2 PUSH4 0x9AB4A445 EQ PUSH2 0x13BD JUMPI DUP2 PUSH4 0x9C0FBD05 EQ PUSH2 0x13A0 JUMPI DUP2 PUSH4 0x9EA7685A EQ PUSH2 0x121C JUMPI DUP2 PUSH4 0xA0B3B930 EQ PUSH2 0x11FC JUMPI DUP2 PUSH4 0xA1DC9031 EQ PUSH2 0x1086 JUMPI DUP2 PUSH4 0xA29F481C EQ PUSH2 0x1018 JUMPI DUP2 PUSH4 0xA77C80AA EQ PUSH2 0xFE2 JUMPI DUP2 PUSH4 0xA7C60160 EQ PUSH2 0xE54 JUMPI DUP2 PUSH4 0xAECCF735 EQ PUSH2 0xCA0 JUMPI DUP2 PUSH4 0xB006984F EQ PUSH2 0xC1C JUMPI DUP2 PUSH4 0xB40CD21D EQ PUSH2 0xBDA JUMPI DUP2 PUSH4 0xB5D5B5FA EQ PUSH2 0xB47 JUMPI POP DUP1 PUSH4 0xB842EC44 EQ PUSH2 0xAC9 JUMPI DUP1 PUSH4 0xBC5894BA EQ PUSH2 0xAAA JUMPI DUP1 PUSH4 0xC93C8F34 EQ PUSH2 0xA6C JUMPI DUP1 PUSH4 0xD3EA4350 EQ PUSH2 0xA45 JUMPI DUP1 PUSH4 0xD7FF0714 EQ PUSH2 0x8FD JUMPI DUP1 PUSH4 0xD8060CD5 EQ PUSH2 0x831 JUMPI DUP1 PUSH4 0xE697B5D8 EQ PUSH2 0x7D8 JUMPI DUP1 PUSH4 0xE985E367 EQ PUSH2 0x7B0 JUMPI DUP1 PUSH4 0xEBCD3A13 EQ PUSH2 0x72D JUMPI DUP1 PUSH4 0xECB2DD74 EQ PUSH2 0x6F2 JUMPI DUP1 PUSH4 0xEE172546 EQ PUSH2 0x6D3 JUMPI DUP1 PUSH4 0xEF925399 EQ PUSH2 0x5F5 JUMPI DUP1 PUSH4 0xF1887684 EQ PUSH2 0x5D2 JUMPI DUP1 PUSH4 0xF30EF2E5 EQ PUSH2 0x41D JUMPI DUP1 PUSH4 0xF7D76AE5 EQ PUSH2 0x3F6 JUMPI PUSH4 0xFD9A11E5 EQ PUSH2 0x3C1 JUMPI PUSH1 0x0 DUP1 REVERT JUMPDEST CALLVALUE PUSH2 0x3F2 JUMPI PUSH1 0x20 CALLDATASIZE PUSH1 0x3 NOT ADD SLT PUSH2 0x3F2 JUMPI CALLDATALOAD DUP3 MSTORE PUSH1 0x16 PUSH1 0x20 SWAP1 DUP2 MSTORE SWAP2 DUP2 SWAP1 KECCAK256 SLOAD SWAP1 MLOAD PUSH1 0x1 PUSH1 0x1 PUSH1 0xA0 SHL SUB SWAP1 SWAP2 AND DUP2 MSTORE RETURN JUMPDEST DUP3 DUP1 REVERT JUMPDEST POP CALLVALUE PUSH2 0x3F2 JUMPI DUP3 PUSH1 0x3 NOT CALLDATASIZE ADD SLT PUSH2 0x3F2 JUMPI SLOAD SWAP1 MLOAD PUSH1 0x1 PUSH1 0x1 PUSH1 0xA0 SHL SUB SWAP1 SWAP2 AND DUP2 MSTORE PUSH1 0x20 SWAP2 POP RETURN JUMPDEST POP CALLVALUE PUSH2 0x3F2 JUMPI PUSH1 0x20 CALLDATASIZE PUSH1 0x3 NOT ADD SLT PUSH2 0x3F2 JUMPI DUP1 CALLDATALOAD SWAP1 CALLER DUP5 MSTORE PUSH1 0xF PUSH1 0x20 MSTORE PUSH2 0x44A PUSH1 0xFF DUP5 DUP7 KECCAK256 SLOAD AND ISZERO PUSH2 0x40D9 JUMP JUMPDEST PUSH2 0x455 DUP3 ISZERO ISZERO PUSH2 0x42C8 JUMP JUMPDEST DUP4 SLOAD PUSH1 0x1 PUSH1 0x1 PUSH1 0xA0 SHL SUB SWAP3 SWAP1 PUSH2 0x46E SWAP1 DUP5 AND ISZERO ISZERO PUSH2 0x4191 JUMP JUMPDEST DUP3 PUSH1 0x5 SLOAD AND PUSH2 0x47E DUP2 ISZERO ISZERO PUSH2 0x453C JUMP JUMPDEST PUSH2 0x48A PUSH1 0xD SLOAD DUP4 PUSH2 0x41D2 JUMP JUMPDEST SWAP3 PUSH4 0x3B9ACA00 SWAP4 DUP5 DUP2 MUL SWAP5 DUP2 DUP7 DIV EQ SWAP1 ISZERO OR ISZERO PUSH2 0x5BF JUMPI DUP6 MLOAD PUSH4 0x23B872DD PUSH1 0xE0 SHL DUP2 MSTORE CALLER SWAP2 DUP2 ADD SWAP2 DUP3 MSTORE PUSH1 0x1 PUSH1 0x1 PUSH1 0xA0 SHL SUB PUSH32 0x0 AND PUSH1 0x20 DUP4 DUP2 ADD SWAP2 SWAP1 SWAP2 MSTORE PUSH1 0x40 DUP4 ADD DUP6 SWAP1 MSTORE SWAP1 SWAP4 SWAP3 SWAP1 SWAP2 DUP5 SWAP2 SWAP1 DUP3 SWAP1 DUP11 SWAP1 DUP3 SWAP1 PUSH1 0x60 ADD SUB SWAP3 GAS CALL DUP1 ISZERO PUSH2 0x5B5 JUMPI PUSH1 0x0 DUP1 MLOAD PUSH1 0x20 PUSH2 0x5769 DUP4 CODECOPY DUP2 MLOAD SWAP2 MSTORE SWAP4 PUSH2 0x531 PUSH2 0x536 SWAP3 PUSH2 0x581 SWAP6 DUP11 SWAP2 PUSH2 0x587 JUMPI JUMPDEST POP PUSH2 0x457D JUMP JUMPDEST PUSH2 0x4E75 JUMP JUMPDEST SWAP4 PUSH2 0x540 DUP6 PUSH2 0x50AF JUMP JUMPDEST PUSH2 0x55D DUP2 PUSH1 0x5 SLOAD AND DUP7 DUP5 DUP5 DUP12 SLOAD AND PUSH2 0x556 PUSH2 0x42A9 JUMP JUMPDEST SWAP4 CALLER PUSH2 0x5667 JUMP JUMPDEST PUSH1 0x5 SLOAD AND SWAP5 MLOAD SWAP2 DUP3 SWAP2 CALLER SWAP6 TIMESTAMP SWAP2 DUP5 PUSH1 0x40 SWAP2 SWAP5 SWAP4 SWAP3 PUSH1 0x60 DUP3 ADD SWAP6 DUP3 MSTORE PUSH1 0x20 DUP3 ADD MSTORE ADD MSTORE JUMP JUMPDEST SUB SWAP1 LOG3 DUP1 RETURN JUMPDEST PUSH2 0x5A8 SWAP2 POP PUSH1 0x20 RETURNDATASIZE DUP2 GT PUSH2 0x5AE JUMPI JUMPDEST PUSH2 0x5A0 DUP2 DUP4 PUSH2 0x3EC5 JUMP JUMPDEST DUP2 ADD SWAP1 PUSH2 0x4356 JUMP JUMPDEST CODESIZE PUSH2 0x52B JUMP JUMPDEST POP RETURNDATASIZE PUSH2 0x596 JUMP JUMPDEST DUP6 MLOAD RETURNDATASIZE DUP9 DUP3 RETURNDATACOPY RETURNDATASIZE SWAP1 REVERT JUMPDEST PUSH4 0x4E487B71 PUSH1 0xE0 SHL DUP8 MSTORE PUSH1 0x11 SWAP1 MSTORE PUSH1 0x24 DUP7 REVERT JUMPDEST POP POP CALLVALUE PUSH2 0x5F1 JUMPI DUP2 PUSH1 0x3 NOT CALLDATASIZE ADD SLT PUSH2 0x5F1 JUMPI PUSH1 0x20 SWAP1 PUSH1 0x14 SLOAD SWAP1 MLOAD SWAP1 DUP2 MSTORE RETURN JUMPDEST POP DUP1 REVERT JUMPDEST POP DUP3 SWAP1 CALLVALUE PUSH2 0x5F1 JUMPI PUSH1 0x20 SWAP2 DUP3 PUSH1 0x3 NOT CALLDATASIZE ADD SLT PUSH2 0x6D0 JUMPI PUSH1 0x1 PUSH1 0x1 PUSH1 0xA0 SHL SUB SWAP3 DUP4 PUSH2 0x61D PUSH2 0x3C59 JUMP JUMPDEST AND DUP3 MSTORE PUSH1 0x10 DUP2 MSTORE DUP5 DUP3 KECCAK256 SWAP2 DUP3 SLOAD SWAP4 PUSH2 0x634 DUP6 PUSH2 0x56C3 JUMP JUMPDEST SWAP6 PUSH2 0x641 DUP9 MLOAD SWAP8 DUP9 PUSH2 0x3EC5 JUMP JUMPDEST DUP6 DUP8 MSTORE DUP4 DUP8 ADD SWAP5 DUP4 MSTORE DUP4 DUP4 KECCAK256 SWAP3 SWAP5 JUMPDEST DUP7 DUP7 LT PUSH2 0x668 JUMPI DUP9 MLOAD DUP1 PUSH2 0x664 DUP11 DUP3 PUSH2 0x3D20 JUMP JUMPDEST SUB SWAP1 RETURN JUMPDEST PUSH1 0x7 DUP6 PUSH1 0x1 SWAP3 DUP12 MLOAD PUSH2 0x679 DUP2 PUSH2 0x3E3F JUMP JUMPDEST DUP8 SLOAD DUP2 MSTORE DUP6 DUP6 DUP10 ADD SLOAD AND DUP4 DUP3 ADD MSTORE DUP6 PUSH1 0x2 DUP10 ADD SLOAD AND DUP14 DUP3 ADD MSTORE DUP6 PUSH1 0x3 DUP10 ADD SLOAD AND PUSH1 0x60 DUP3 ADD MSTORE DUP7 DUP9 ADD SLOAD PUSH1 0x80 DUP3 ADD MSTORE PUSH1 0x5 DUP9 ADD SLOAD PUSH1 0xA0 DUP3 ADD MSTORE PUSH2 0x6BD PUSH1 0x6 DUP10 ADD PUSH2 0x3EE7 JUMP JUMPDEST PUSH1 0xC0 DUP3 ADD MSTORE DUP2 MSTORE ADD SWAP5 ADD SWAP6 ADD SWAP5 SWAP3 PUSH2 0x650 JUMP JUMPDEST DUP1 REVERT JUMPDEST POP POP CALLVALUE PUSH2 0x5F1 JUMPI DUP2 PUSH1 0x3 NOT CALLDATASIZE ADD SLT PUSH2 0x5F1 JUMPI PUSH1 0x20 SWAP1 PUSH1 0x18 SLOAD SWAP1 MLOAD SWAP1 DUP2 MSTORE RETURN JUMPDEST POP POP CALLVALUE PUSH2 0x5F1 JUMPI DUP2 PUSH1 0x3 NOT CALLDATASIZE ADD SLT PUSH2 0x5F1 JUMPI PUSH1 0x20 SWAP1 MLOAD PUSH32 0x91B089318BBDF627BACEC662873C12CC3AFDC69DB73F084D7726E9CE2907280A DUP2 MSTORE RETURN JUMPDEST POP POP CALLVALUE PUSH2 0x5F1 JUMPI CALLDATASIZE PUSH1 0x3 NOT ADD SLT PUSH2 0x6D0 JUMPI PUSH2 0x746 PUSH2 0x3C59 JUMP JUMPDEST PUSH1 0x24 CALLDATALOAD SWAP1 PUSH1 0x1 PUSH1 0x1 PUSH1 0xA0 SHL SUB SWAP1 PUSH2 0x780 CALLER PUSH32 0x0 DUP5 AND EQ PUSH2 0x3FEA JUMP JUMPDEST AND PUSH2 0x78C DUP2 ISZERO ISZERO PUSH2 0x405F JUMP JUMPDEST PUSH2 0x797 DUP3 ISZERO ISZERO PUSH2 0x409D JUMP JUMPDEST PUSH1 0x1 PUSH1 0x1 PUSH1 0x60 SHL SUB PUSH1 0xA0 SHL PUSH1 0x5 SLOAD AND OR PUSH1 0x5 SSTORE PUSH1 0xD SSTORE DUP1 RETURN JUMPDEST POP POP CALLVALUE PUSH2 0x5F1 JUMPI DUP2 PUSH1 0x3 NOT CALLDATASIZE ADD SLT PUSH2 0x5F1 JUMPI SWAP1 SLOAD SWAP1 MLOAD PUSH1 0x1 PUSH1 0x1 PUSH1 0xA0 SHL SUB SWAP1 SWAP2 AND DUP2 MSTORE PUSH1 0x20 SWAP1 RETURN JUMPDEST POP POP CALLVALUE PUSH2 0x5F1 JUMPI DUP1 PUSH1 0x3 NOT CALLDATASIZE ADD SLT PUSH2 0x5F1 JUMPI PUSH2 0x7F2 PUSH2 0x3C59 JUMP JUMPDEST PUSH1 0x1 PUSH1 0x1 PUSH1 0xA0 SHL SUB SWAP1 DUP2 AND DUP4 MSTORE PUSH1 0x1E PUSH1 0x20 MSTORE DUP2 DUP4 KECCAK256 DUP1 SLOAD PUSH1 0x24 CALLDATALOAD SWAP5 SWAP1 DUP6 LT ISZERO PUSH2 0x6D0 JUMPI POP PUSH1 0x20 SWAP4 PUSH2 0x822 SWAP2 PUSH2 0x3FD2 JUMP JUMPDEST SWAP3 SWAP1 SLOAD SWAP1 MLOAD SWAP3 PUSH1 0x3 SHL SHR AND DUP2 MSTORE RETURN JUMPDEST POP CALLVALUE PUSH2 0x3F2 JUMPI PUSH1 0x20 CALLDATASIZE PUSH1 0x3 NOT ADD SLT PUSH2 0x3F2 JUMPI DUP1 CALLDATALOAD SWAP1 PUSH2 0x87A CALLER PUSH32 0x0 PUSH1 0x1 PUSH1 0x1 PUSH1 0xA0 SHL SUB AND EQ PUSH2 0x3FEA JUMP JUMPDEST DUP2 ISZERO PUSH2 0x8BA JUMPI POP SWAP1 PUSH32 0x171AABB8815C02FD00303450A77058600E3661EB75CE2E77972C0F080BC7099D SWAP2 PUSH1 0x14 SLOAD SWAP1 DUP1 PUSH1 0x14 SSTORE DUP3 MLOAD SWAP2 DUP3 MSTORE PUSH1 0x20 DUP3 ADD MSTORE LOG1 DUP1 RETURN JUMPDEST PUSH1 0x64 SWAP1 PUSH1 0x20 DUP5 MLOAD SWAP2 PUSH3 0x461BCD PUSH1 0xE5 SHL DUP4 MSTORE DUP3 ADD MSTORE PUSH1 0x20 PUSH1 0x24 DUP3 ADD MSTORE PUSH32 0x4D696E207374616B65206D7573742062652067726561746572207468616E2030 PUSH1 0x44 DUP3 ADD MSTORE REVERT JUMPDEST POP CALLVALUE PUSH2 0x3F2 JUMPI PUSH1 0x20 CALLDATASIZE PUSH1 0x3 NOT ADD SLT PUSH2 0x3F2 JUMPI CALLDATALOAD PUSH1 0x11 SLOAD DUP2 LT ISZERO PUSH2 0x3F2 JUMPI PUSH1 0x11 PUSH1 0x7 SWAP3 SWAP4 MSTORE MUL SWAP1 PUSH2 0x664 DUP3 PUSH32 0x31ECC21A745E3968A04E9570E4425BC18FA8019C68028196B546D1669C200C68 ADD SLOAD SWAP2 PUSH1 0x1 DUP1 PUSH1 0xA0 SHL SUB SWAP4 DUP5 PUSH32 0x31ECC21A745E3968A04E9570E4425BC18FA8019C68028196B546D1669C200C69 DUP3 ADD SLOAD AND SWAP5 DUP1 PUSH32 0x31ECC21A745E3968A04E9570E4425BC18FA8019C68028196B546D1669C200C6A DUP4 ADD SLOAD AND SWAP1 PUSH32 0x31ECC21A745E3968A04E9570E4425BC18FA8019C68028196B546D1669C200C6B DUP4 ADD SLOAD AND PUSH32 0x31ECC21A745E3968A04E9570E4425BC18FA8019C68028196B546D1669C200C6C DUP4 ADD SLOAD SWAP2 PUSH2 0xA3A PUSH32 0x31ECC21A745E3968A04E9570E4425BC18FA8019C68028196B546D1669C200C6E PUSH32 0x31ECC21A745E3968A04E9570E4425BC18FA8019C68028196B546D1669C200C6D DUP7 ADD SLOAD SWAP6 ADD PUSH2 0x3EE7 JUMP JUMPDEST SWAP5 MLOAD SWAP8 DUP9 SWAP8 DUP9 PUSH2 0x3F8D JUMP JUMPDEST POP SWAP2 CALLVALUE PUSH2 0x6D0 JUMPI PUSH1 0x20 CALLDATASIZE PUSH1 0x3 NOT ADD SLT PUSH2 0x6D0 JUMPI POP PUSH2 0xA65 PUSH1 0x20 SWAP3 CALLDATALOAD PUSH2 0x4C29 JUMP JUMPDEST SWAP1 MLOAD SWAP1 DUP2 MSTORE RETURN JUMPDEST POP POP CALLVALUE PUSH2 0x5F1 JUMPI PUSH1 0x20 CALLDATASIZE PUSH1 0x3 NOT ADD SLT PUSH2 0x5F1 JUMPI PUSH1 0x20 SWAP2 PUSH1 0xFF SWAP1 DUP3 SWAP1 PUSH1 0x1 PUSH1 0x1 PUSH1 0xA0 SHL SUB PUSH2 0xA97 PUSH2 0x3C59 JUMP JUMPDEST AND DUP2 MSTORE PUSH1 0x1B DUP6 MSTORE KECCAK256 SLOAD AND SWAP1 MLOAD SWAP1 ISZERO ISZERO DUP2 MSTORE RETURN JUMPDEST POP POP CALLVALUE PUSH2 0x5F1 JUMPI DUP2 PUSH1 0x3 NOT CALLDATASIZE ADD SLT PUSH2 0x5F1 JUMPI PUSH1 0x20 SWAP1 PUSH1 0xB SLOAD SWAP1 MLOAD SWAP1 DUP2 MSTORE RETURN JUMPDEST POP SWAP2 SWAP1 CALLVALUE PUSH2 0x5F1 JUMPI DUP1 PUSH1 0x3 NOT CALLDATASIZE ADD SLT PUSH2 0x5F1 JUMPI PUSH2 0xAE4 PUSH2 0x3C59 JUMP JUMPDEST PUSH1 0x1 PUSH1 0x1 PUSH1 0xA0 SHL SUB SWAP1 DUP2 AND DUP4 MSTORE PUSH1 0x10 PUSH1 0x20 MSTORE DUP2 DUP4 KECCAK256 DUP1 SLOAD SWAP2 SWAP4 PUSH1 0x24 CALLDATALOAD SWAP3 DUP4 LT ISZERO PUSH2 0x6D0 JUMPI POP PUSH2 0x664 SWAP3 SWAP2 PUSH2 0xB17 SWAP2 PUSH2 0x3DD3 JUMP JUMPDEST POP DUP1 SLOAD SWAP4 DUP1 PUSH1 0x1 DUP4 ADD SLOAD AND SWAP6 DUP2 PUSH1 0x2 DUP5 ADD SLOAD AND SWAP2 PUSH1 0x3 DUP5 ADD SLOAD AND SWAP1 DUP4 ADD SLOAD SWAP2 PUSH2 0xA3A PUSH1 0x6 PUSH1 0x5 DUP7 ADD SLOAD SWAP6 ADD PUSH2 0x3EE7 JUMP JUMPDEST SWAP4 SWAP1 POP CALLVALUE PUSH2 0x6D0 JUMPI DUP3 PUSH1 0x3 NOT CALLDATASIZE ADD SLT PUSH2 0x6D0 JUMPI PUSH2 0xB62 PUSH2 0x3C59 JUMP JUMPDEST PUSH1 0x1 PUSH1 0x1 PUSH1 0xA0 SHL SUB AND DUP2 MSTORE PUSH1 0x15 PUSH1 0x20 MSTORE DUP3 DUP2 KECCAK256 DUP1 SLOAD PUSH1 0x24 CALLDATALOAD SWAP3 SWAP1 DUP4 LT ISZERO PUSH2 0x6D0 JUMPI POP SWAP1 PUSH2 0xB8E SWAP2 PUSH2 0x3DD3 JUMP JUMPDEST POP DUP1 SLOAD SWAP3 PUSH1 0x1 DUP3 ADD SLOAD SWAP3 PUSH1 0x2 DUP4 ADD SLOAD PUSH1 0x3 DUP5 ADD SLOAD SWAP2 DUP5 ADD SLOAD SWAP3 PUSH1 0xFF PUSH1 0x6 PUSH1 0x5 DUP8 ADD SLOAD SWAP7 ADD SLOAD AND SWAP6 DUP2 MLOAD SWAP8 DUP9 MSTORE PUSH1 0x20 DUP9 ADD MSTORE DUP7 ADD MSTORE PUSH1 0x60 DUP6 ADD MSTORE PUSH1 0x80 DUP5 ADD MSTORE PUSH1 0xA0 DUP4 ADD MSTORE ISZERO ISZERO PUSH1 0xC0 DUP3 ADD MSTORE RETURN JUMPDEST POP POP POP CALLVALUE PUSH2 0x5F1 JUMPI DUP2 PUSH1 0x3 NOT CALLDATASIZE ADD SLT PUSH2 0x5F1 JUMPI PUSH1 0xA0 SWAP1 PUSH1 0x13 SLOAD SWAP1 PUSH1 0x14 SLOAD SWAP1 PUSH1 0x17 SLOAD PUSH1 0x18 SLOAD SWAP2 PUSH1 0x19 SLOAD SWAP4 DUP2 MLOAD SWAP6 DUP7 MSTORE PUSH1 0x20 DUP7 ADD MSTORE DUP5 ADD MSTORE PUSH1 0x60 DUP4 ADD MSTORE PUSH1 0x80 DUP3 ADD MSTORE RETURN JUMPDEST POP POP POP CALLVALUE PUSH2 0x5F1 JUMPI CALLDATASIZE PUSH1 0x3 NOT ADD SLT PUSH2 0x6D0 JUMPI PUSH2 0xC36 PUSH2 0x3C59 JUMP JUMPDEST PUSH1 0x24 CALLDATALOAD SWAP1 PUSH1 0x1 PUSH1 0x1 PUSH1 0xA0 SHL SUB SWAP1 PUSH2 0xC70 CALLER PUSH32 0x0 DUP5 AND EQ PUSH2 0x3FEA JUMP JUMPDEST AND PUSH2 0xC7C DUP2 ISZERO ISZERO PUSH2 0x405F JUMP JUMPDEST PUSH2 0xC87 DUP3 ISZERO ISZERO PUSH2 0x409D JUMP JUMPDEST PUSH1 0x1 PUSH1 0x1 PUSH1 0x60 SHL SUB PUSH1 0xA0 SHL PUSH1 0x1 SLOAD AND OR PUSH1 0x1 SSTORE PUSH1 0x8 SSTORE DUP1 RETURN JUMPDEST POP POP CALLVALUE PUSH2 0x3F2 JUMPI PUSH1 0x20 CALLDATASIZE PUSH1 0x3 NOT ADD SLT PUSH2 0x3F2 JUMPI DUP1 CALLDATALOAD SWAP1 CALLER DUP5 MSTORE PUSH1 0xF PUSH1 0x20 MSTORE PUSH2 0xCCE PUSH1 0xFF DUP5 DUP7 KECCAK256 SLOAD AND ISZERO PUSH2 0x40D9 JUMP JUMPDEST DUP2 ISZERO SWAP2 PUSH2 0xCDB DUP4 ISZERO PUSH2 0x42C8 JUMP JUMPDEST DUP5 SLOAD PUSH1 0x1 PUSH1 0x1 PUSH1 0xA0 SHL SUB SWAP4 SWAP1 PUSH2 0xCF4 SWAP1 DUP6 AND ISZERO ISZERO PUSH2 0x4191 JUMP JUMPDEST DUP4 PUSH1 0x2 SLOAD AND PUSH2 0xD04 DUP2 ISZERO ISZERO PUSH2 0x43B1 JUMP JUMPDEST PUSH3 0xF4240 SWAP2 DUP3 DUP5 MUL SWAP3 DUP5 DUP5 DIV EQ OR ISZERO PUSH2 0xE41 JUMPI PUSH2 0xD23 PUSH1 0x9 SLOAD DUP5 PUSH2 0x41D2 JUMP JUMPDEST SWAP4 PUSH8 0xDE0B6B3A7640000 SWAP5 DUP6 DUP2 MUL SWAP6 DUP2 DUP8 DIV EQ SWAP1 ISZERO OR ISZERO PUSH2 0xE2E JUMPI DUP7 MLOAD PUSH4 0x23B872DD PUSH1 0xE0 SHL DUP2 MSTORE CALLER SWAP2 DUP2 ADD SWAP2 DUP3 MSTORE PUSH1 0x1 PUSH1 0x1 PUSH1 0xA0 SHL SUB PUSH32 0x0 AND PUSH1 0x20 DUP4 DUP2 ADD SWAP2 SWAP1 SWAP2 MSTORE PUSH1 0x40 DUP4 ADD SWAP5 SWAP1 SWAP5 MSTORE SWAP4 SWAP3 SWAP2 DUP5 SWAP2 DUP3 SWAP1 DUP11 SWAP1 DUP3 SWAP1 PUSH1 0x60 ADD SUB SWAP3 GAS CALL DUP1 ISZERO PUSH2 0x5B5 JUMPI PUSH1 0x0 DUP1 MLOAD PUSH1 0x20 PUSH2 0x5769 DUP4 CODECOPY DUP2 MLOAD SWAP2 MSTORE SWAP4 PUSH2 0x531 PUSH2 0xDCC SWAP3 PUSH2 0x581 SWAP6 DUP11 SWAP2 PUSH2 0xE10 JUMPI JUMPDEST POP PUSH2 0x43F3 JUMP JUMPDEST SWAP4 PUSH2 0xDD6 DUP6 PUSH2 0x50AF JUMP JUMPDEST PUSH2 0xDEC DUP2 PUSH1 0x2 SLOAD AND DUP7 DUP5 DUP5 DUP12 SLOAD AND PUSH2 0x556 PUSH2 0x42A9 JUMP JUMPDEST PUSH1 0x2 SLOAD AND SWAP5 MLOAD SWAP2 DUP3 SWAP2 CALLER SWAP6 TIMESTAMP SWAP2 DUP5 PUSH1 0x40 SWAP2 SWAP5 SWAP4 SWAP3 PUSH1 0x60 DUP3 ADD SWAP6 DUP3 MSTORE PUSH1 0x20 DUP3 ADD MSTORE ADD MSTORE JUMP JUMPDEST PUSH2 0xE28 SWAP2 POP PUSH1 0x20 RETURNDATASIZE DUP2 GT PUSH2 0x5AE JUMPI PUSH2 0x5A0 DUP2 DUP4 PUSH2 0x3EC5 JUMP JUMPDEST CODESIZE PUSH2 0xDC6 JUMP JUMPDEST PUSH4 0x4E487B71 PUSH1 0xE0 SHL DUP9 MSTORE PUSH1 0x11 SWAP1 MSTORE PUSH1 0x24 DUP8 REVERT JUMPDEST PUSH4 0x4E487B71 PUSH1 0xE0 SHL DUP8 MSTORE PUSH1 0x11 DUP5 MSTORE PUSH1 0x24 DUP8 REVERT JUMPDEST POP POP CALLVALUE PUSH2 0x3F2 JUMPI PUSH1 0x20 CALLDATASIZE PUSH1 0x3 NOT ADD SLT PUSH2 0x3F2 JUMPI DUP1 CALLDATALOAD SWAP1 CALLER DUP5 MSTORE PUSH1 0xF PUSH1 0x20 MSTORE PUSH2 0xE82 PUSH1 0xFF DUP5 DUP7 KECCAK256 SLOAD AND ISZERO PUSH2 0x40D9 JUMP JUMPDEST DUP2 ISZERO SWAP2 PUSH2 0xE8F DUP4 ISZERO PUSH2 0x42C8 JUMP JUMPDEST DUP5 SLOAD PUSH1 0x1 PUSH1 0x1 PUSH1 0xA0 SHL SUB SWAP4 SWAP1 PUSH2 0xEA8 SWAP1 DUP6 AND ISZERO ISZERO PUSH2 0x4191 JUMP JUMPDEST DUP4 PUSH1 0x1 SLOAD AND PUSH2 0xEB8 DUP2 ISZERO ISZERO PUSH2 0x4314 JUMP JUMPDEST PUSH3 0xF4240 SWAP2 DUP3 DUP5 MUL SWAP3 DUP5 DUP5 DIV EQ OR ISZERO PUSH2 0xE41 JUMPI PUSH2 0xED7 PUSH1 0x8 SLOAD DUP5 PUSH2 0x41D2 JUMP JUMPDEST SWAP4 PUSH8 0xDE0B6B3A7640000 SWAP5 DUP6 DUP2 MUL SWAP6 DUP2 DUP8 DIV EQ SWAP1 ISZERO OR ISZERO PUSH2 0xE2E JUMPI DUP7 MLOAD PUSH4 0x23B872DD PUSH1 0xE0 SHL DUP2 MSTORE CALLER SWAP2 DUP2 ADD SWAP2 DUP3 MSTORE PUSH1 0x1 PUSH1 0x1 PUSH1 0xA0 SHL SUB PUSH32 0x0 AND PUSH1 0x20 DUP4 DUP2 ADD SWAP2 SWAP1 SWAP2 MSTORE PUSH1 0x40 DUP4 ADD SWAP5 SWAP1 SWAP5 MSTORE SWAP4 SWAP3 SWAP2 DUP5 SWAP2 DUP3 SWAP1 DUP11 SWAP1 DUP3 SWAP1 PUSH1 0x60 ADD SUB SWAP3 GAS CALL DUP1 ISZERO PUSH2 0x5B5 JUMPI PUSH1 0x0 DUP1 MLOAD PUSH1 0x20 PUSH2 0x5769 DUP4 CODECOPY DUP2 MLOAD SWAP2 MSTORE SWAP4 PUSH2 0x531 PUSH2 0xF80 SWAP3 PUSH2 0x581 SWAP6 DUP11 SWAP2 PUSH2 0xFC4 JUMPI JUMPDEST POP PUSH2 0x436E JUMP JUMPDEST SWAP4 PUSH2 0xF8A DUP6 PUSH2 0x50AF JUMP JUMPDEST PUSH2 0xFA0 DUP2 PUSH1 0x1 SLOAD AND DUP7 DUP5 DUP5 DUP12 SLOAD AND PUSH2 0x556 PUSH2 0x42A9 JUMP JUMPDEST PUSH1 0x1 SLOAD AND SWAP5 MLOAD SWAP2 DUP3 SWAP2 CALLER SWAP6 TIMESTAMP SWAP2 DUP5 PUSH1 0x40 SWAP2 SWAP5 SWAP4 SWAP3 PUSH1 0x60 DUP3 ADD SWAP6 DUP3 MSTORE PUSH1 0x20 DUP3 ADD MSTORE ADD MSTORE JUMP JUMPDEST PUSH2 0xFDC SWAP2 POP PUSH1 0x20 RETURNDATASIZE DUP2 GT PUSH2 0x5AE JUMPI PUSH2 0x5A0 DUP2 DUP4 PUSH2 0x3EC5 JUMP JUMPDEST CODESIZE PUSH2 0xF7A JUMP JUMPDEST POP POP CALLVALUE PUSH2 0x3F2 JUMPI PUSH2 0xCCE SWAP1 PUSH2 0xFF6 CALLDATASIZE PUSH2 0x3CA2 JUMP JUMPDEST SWAP5 SWAP3 SWAP2 SWAP1 SWAP2 CALLER DUP9 MSTORE PUSH1 0xF PUSH1 0x20 MSTORE PUSH2 0x1013 PUSH1 0xFF DUP9 DUP11 KECCAK256 SLOAD AND ISZERO PUSH2 0x40D9 JUMP JUMPDEST PUSH2 0x45D3 JUMP JUMPDEST DUP5 CALLVALUE PUSH2 0x6D0 JUMPI PUSH1 0x20 CALLDATASIZE PUSH1 0x3 NOT ADD SLT PUSH2 0x6D0 JUMPI PUSH2 0x1032 PUSH2 0x3C59 JUMP JUMPDEST PUSH1 0x1 PUSH1 0x1 PUSH1 0xA0 SHL SUB SWAP1 PUSH2 0x1068 CALLER PUSH32 0x0 DUP5 AND EQ PUSH2 0x3FEA JUMP JUMPDEST AND PUSH2 0x1074 DUP2 ISZERO ISZERO PUSH2 0x405F JUMP JUMPDEST DUP2 SLOAD PUSH1 0x1 PUSH1 0x1 PUSH1 0xA0 SHL SUB NOT AND OR DUP2 SSTORE DUP1 RETURN JUMPDEST POP POP SWAP1 CALLVALUE PUSH2 0x3F2 JUMPI DUP3 PUSH1 0x3 NOT CALLDATASIZE ADD SLT PUSH2 0x3F2 JUMPI DUP3 SLOAD DUP2 MLOAD PUSH4 0x70A08231 PUSH1 0xE0 SHL DUP1 DUP3 MSTORE ADDRESS DUP3 DUP7 ADD MSTORE SWAP1 SWAP5 PUSH1 0x1 PUSH1 0x1 PUSH1 0xA0 SHL SUB SWAP5 PUSH1 0x20 SWAP4 DUP5 SWAP1 DUP9 SWAP1 PUSH1 0x24 SWAP1 DUP3 SWAP1 DUP11 AND GAS STATICCALL SWAP6 DUP7 ISZERO PUSH2 0x11F2 JUMPI DUP3 SWAP7 PUSH2 0x11C2 JUMPI JUMPDEST PUSH1 0x24 SWAP8 POP DUP5 DUP2 PUSH1 0x1 SLOAD AND DUP8 MLOAD SWAP10 DUP11 DUP1 SWAP3 DUP9 DUP3 MSTORE ADDRESS DUP8 DUP4 ADD MSTORE GAS STATICCALL SWAP8 DUP9 ISZERO PUSH2 0x11B8 JUMPI DUP4 SWAP9 PUSH2 0x1188 JUMPI JUMPDEST POP SWAP1 PUSH1 0x24 DUP6 SWAP3 PUSH1 0x2 SLOAD AND SWAP5 DUP8 MLOAD SWAP6 DUP7 SWAP4 DUP5 SWAP3 DUP4 MSTORE ADDRESS SWAP1 DUP4 ADD MSTORE GAS STATICCALL SWAP3 DUP4 ISZERO PUSH2 0x117C JUMPI DUP2 SWAP4 PUSH2 0x1149 JUMPI JUMPDEST POP POP POP PUSH2 0x664 SWAP2 MLOAD SWAP4 DUP5 SWAP4 DUP5 PUSH1 0x40 SWAP2 SWAP5 SWAP4 SWAP3 PUSH1 0x60 DUP3 ADD SWAP6 DUP3 MSTORE PUSH1 0x20 DUP3 ADD MSTORE ADD MSTORE JUMP JUMPDEST SWAP1 SWAP2 DUP1 SWAP4 POP DUP2 RETURNDATASIZE DUP4 GT PUSH2 0x1175 JUMPI JUMPDEST PUSH2 0x1161 DUP2 DUP4 PUSH2 0x3EC5 JUMP JUMPDEST DUP2 ADD SUB SLT PUSH2 0x6D0 JUMPI POP MLOAD PUSH2 0x664 CODESIZE DUP1 PUSH2 0x1127 JUMP JUMPDEST POP RETURNDATASIZE PUSH2 0x1157 JUMP JUMPDEST POP DUP4 MLOAD SWAP1 RETURNDATASIZE SWAP1 DUP3 RETURNDATACOPY RETURNDATASIZE SWAP1 REVERT JUMPDEST SWAP1 SWAP8 POP DUP5 DUP2 DUP2 RETURNDATASIZE DUP4 GT PUSH2 0x11B1 JUMPI JUMPDEST PUSH2 0x11A0 DUP2 DUP4 PUSH2 0x3EC5 JUMP JUMPDEST DUP2 ADD SUB SLT PUSH2 0x3F2 JUMPI MLOAD SWAP7 PUSH1 0x24 PUSH2 0x10FE JUMP JUMPDEST POP RETURNDATASIZE PUSH2 0x1196 JUMP JUMPDEST DUP7 MLOAD RETURNDATASIZE DUP6 DUP3 RETURNDATACOPY RETURNDATASIZE SWAP1 REVERT JUMPDEST SWAP6 POP DUP4 DUP8 DUP2 RETURNDATASIZE DUP4 GT PUSH2 0x11EB JUMPI JUMPDEST PUSH2 0x11D9 DUP2 DUP4 PUSH2 0x3EC5 JUMP JUMPDEST DUP2 ADD SUB SLT PUSH2 0x5F1 JUMPI PUSH1 0x24 SWAP7 MLOAD SWAP6 PUSH2 0x10D6 JUMP JUMPDEST POP RETURNDATASIZE PUSH2 0x11CF JUMP JUMPDEST DUP6 MLOAD RETURNDATASIZE DUP5 DUP3 RETURNDATACOPY RETURNDATASIZE SWAP1 REVERT JUMPDEST POP POP POP CALLVALUE PUSH2 0x5F1 JUMPI DUP2 PUSH1 0x3 NOT CALLDATASIZE ADD SLT PUSH2 0x5F1 JUMPI PUSH1 0x20 SWAP1 PUSH1 0x6 SLOAD SWAP1 MLOAD SWAP1 DUP2 MSTORE RETURN JUMPDEST POP POP SWAP1 CALLVALUE PUSH2 0x3F2 JUMPI PUSH1 0x20 DUP1 PUSH1 0x3 NOT CALLDATASIZE ADD SLT PUSH2 0x139C JUMPI PUSH2 0x1239 PUSH2 0x3C59 JUMP JUMPDEST SWAP3 CALLER DUP6 MSTORE PUSH1 0xF DUP3 MSTORE PUSH2 0x1251 PUSH1 0xFF DUP5 DUP8 KECCAK256 SLOAD AND ISZERO PUSH2 0x40D9 JUMP JUMPDEST PUSH1 0x1 PUSH1 0x1 PUSH1 0xA0 SHL SUB SWAP4 DUP5 AND SWAP4 DUP5 ISZERO PUSH2 0x135A JUMPI CALLER DUP6 EQ PUSH2 0x1320 JUMPI CALLER DUP7 MSTORE PUSH1 0x1D DUP4 MSTORE DUP4 DUP7 KECCAK256 SLOAD AND PUSH2 0x12D4 JUMPI POP SWAP1 PUSH1 0x1E PUSH2 0x12AB SWAP3 CALLER DUP7 MSTORE PUSH1 0x1D DUP2 MSTORE DUP3 DUP7 KECCAK256 DUP6 PUSH1 0x1 PUSH1 0x1 PUSH1 0x60 SHL SUB PUSH1 0xA0 SHL DUP3 SLOAD AND OR SWAP1 SSTORE DUP5 DUP7 MSTORE MSTORE CALLER SWAP1 DUP5 KECCAK256 PUSH2 0x411A JUMP JUMPDEST CALLER SWAP1 PUSH32 0x5F1CA2FCC108B751843A763E60D2201F593516109D7DBB1B700468F2D4190BB7 DUP4 DUP1 LOG3 DUP1 RETURN JUMPDEST SWAP2 MLOAD PUSH3 0x461BCD PUSH1 0xE5 SHL DUP2 MSTORE SWAP2 DUP3 ADD MSTORE PUSH1 0x22 PUSH1 0x24 DUP3 ADD MSTORE PUSH32 0x416C726561647920726567697374657265642077697468206120726566657272 PUSH1 0x44 DUP3 ADD MSTORE PUSH2 0x32B9 PUSH1 0xF1 SHL PUSH1 0x64 DUP3 ADD MSTORE PUSH1 0x84 SWAP1 REVERT JUMPDEST POP SWAP2 MLOAD PUSH3 0x461BCD PUSH1 0xE5 SHL DUP2 MSTORE SWAP2 DUP3 ADD MSTORE PUSH1 0x15 PUSH1 0x24 DUP3 ADD MSTORE PUSH21 0x21B0B73737BA103932B332B9103CB7BAB939B2B633 PUSH1 0x59 SHL PUSH1 0x44 DUP3 ADD MSTORE PUSH1 0x64 SWAP1 REVERT JUMPDEST POP SWAP2 MLOAD PUSH3 0x461BCD PUSH1 0xE5 SHL DUP2 MSTORE SWAP2 DUP3 ADD MSTORE PUSH1 0x18 PUSH1 0x24 DUP3 ADD MSTORE PUSH32 0x496E76616C696420726566657272657220616464726573730000000000000000 PUSH1 0x44 DUP3 ADD MSTORE PUSH1 0x64 SWAP1 REVERT JUMPDEST DUP4 DUP1 REVERT JUMPDEST POP POP POP CALLVALUE PUSH2 0x5F1 JUMPI DUP2 PUSH1 0x3 NOT CALLDATASIZE ADD SLT PUSH2 0x5F1 JUMPI PUSH1 0x20 SWAP1 MLOAD PUSH1 0x5 DUP2 MSTORE RETURN JUMPDEST POP POP POP CALLVALUE PUSH2 0x5F1 JUMPI DUP2 PUSH1 0x3 NOT CALLDATASIZE ADD SLT PUSH2 0x5F1 JUMPI PUSH1 0x1 SLOAD SWAP1 MLOAD PUSH1 0x1 PUSH1 0x1 PUSH1 0xA0 SHL SUB SWAP1 SWAP2 AND DUP2 MSTORE PUSH1 0x20 SWAP1 RETURN JUMPDEST POP POP CALLVALUE PUSH2 0x3F2 JUMPI PUSH1 0x20 SWAP1 DUP2 PUSH1 0x3 NOT CALLDATASIZE ADD SLT PUSH2 0x139C JUMPI CALLDATALOAD DUP1 DUP5 MSTORE PUSH1 0x16 DUP3 MSTORE DUP3 DUP5 KECCAK256 SLOAD PUSH1 0x1 PUSH1 0x1 PUSH1 0xA0 SHL SUB AND SWAP4 SWAP1 SWAP3 SWAP1 PUSH2 0x1420 DUP6 ISZERO ISZERO PUSH2 0x4B5C JUMP JUMPDEST PUSH2 0x1428 PUSH2 0x5730 JUMP JUMPDEST DUP2 SWAP6 DUP3 JUMPDEST DUP2 DUP5 MSTORE PUSH1 0x15 DUP1 DUP8 MSTORE DUP6 DUP6 KECCAK256 DUP1 SLOAD DUP4 LT ISZERO PUSH2 0x14AD JUMPI PUSH2 0x144B DUP4 DUP11 SWAP3 PUSH2 0x3DD3 JUMP JUMPDEST POP SLOAD EQ PUSH2 0x1461 JUMPI POP PUSH2 0x145C SWAP1 PUSH2 0x4B40 JUMP JUMPDEST PUSH2 0x142C JUMP JUMPDEST PUSH1 0x60 SWAP9 POP PUSH2 0x1484 SWAP4 POP DUP5 DUP7 SWAP2 PUSH2 0x147E SWAP5 PUSH2 0x1494 SWAP8 MSTORE DUP9 MSTORE KECCAK256 PUSH2 0x3DD3 JUMP JUMPDEST POP PUSH2 0x56DB JUMP JUMPDEST SWAP4 PUSH2 0x148F PUSH1 0x1 PUSH2 0x4B9F JUMP JUMPDEST PUSH2 0x4C29 JUMP JUMPDEST PUSH1 0xC0 DUP6 DUP6 ADD MLOAD SWAP5 ADD MLOAD ISZERO ISZERO SWAP3 DUP3 MLOAD SWAP5 DUP6 MSTORE DUP5 ADD MSTORE DUP3 ADD MSTORE RETURN JUMPDEST POP POP POP POP SWAP4 PUSH2 0x1494 SWAP2 POP PUSH2 0x148F PUSH1 0x60 SWAP7 PUSH2 0x4B9F JUMP JUMPDEST POP POP CALLVALUE PUSH2 0x3F2 JUMPI PUSH1 0x20 CALLDATASIZE PUSH1 0x3 NOT ADD SLT PUSH2 0x3F2 JUMPI DUP1 CALLDATALOAD SWAP1 CALLER DUP5 MSTORE PUSH1 0xF PUSH1 0x20 MSTORE PUSH2 0x14F0 PUSH1 0xFF DUP5 DUP7 KECCAK256 SLOAD AND ISZERO PUSH2 0x40D9 JUMP JUMPDEST PUSH2 0x14FB DUP3 ISZERO ISZERO PUSH2 0x42C8 JUMP JUMPDEST DUP4 SLOAD PUSH1 0x1 PUSH1 0x1 PUSH1 0xA0 SHL SUB SWAP3 PUSH2 0x1593 SWAP2 PUSH2 0x1517 SWAP1 DUP6 AND ISZERO ISZERO PUSH2 0x4191 JUMP JUMPDEST PUSH1 0x20 DUP2 DUP6 PUSH1 0x3 SLOAD AND PUSH2 0x152A DUP2 ISZERO ISZERO PUSH2 0x4436 JUMP JUMPDEST PUSH2 0x1536 PUSH1 0xB SLOAD DUP4 PUSH2 0x41D2 JUMP JUMPDEST DUP9 MLOAD PUSH4 0x23B872DD PUSH1 0xE0 SHL DUP2 MSTORE CALLER SWAP8 DUP2 ADD SWAP8 DUP9 MSTORE PUSH1 0x1 PUSH1 0x1 PUSH1 0xA0 SHL SUB PUSH32 0x0 AND PUSH1 0x20 DUP10 ADD MSTORE PUSH1 0x40 DUP9 ADD SWAP4 SWAP1 SWAP4 MSTORE SWAP6 SWAP2 SWAP5 DUP6 SWAP3 DUP4 SWAP2 DUP12 SWAP2 DUP4 SWAP2 PUSH1 0x60 SWAP1 SWAP2 ADD SWAP1 JUMP JUMPDEST SUB SWAP3 GAS CALL DUP1 ISZERO PUSH2 0x5B5 JUMPI PUSH1 0x0 DUP1 MLOAD PUSH1 0x20 PUSH2 0x5769 DUP4 CODECOPY DUP2 MLOAD SWAP2 MSTORE SWAP4 PUSH2 0x531 PUSH2 0x15C5 SWAP3 PUSH2 0x581 SWAP6 DUP11 SWAP2 PUSH2 0x1609 JUMPI JUMPDEST POP PUSH2 0x4477 JUMP JUMPDEST SWAP4 PUSH2 0x15CF DUP6 PUSH2 0x50AF JUMP JUMPDEST PUSH2 0x15E5 DUP2 PUSH1 0x3 SLOAD AND DUP7 DUP5 DUP5 DUP12 SLOAD AND PUSH2 0x556 PUSH2 0x42A9 JUMP JUMPDEST PUSH1 0x3 SLOAD AND SWAP5 MLOAD SWAP2 DUP3 SWAP2 CALLER SWAP6 TIMESTAMP SWAP2 DUP5 PUSH1 0x40 SWAP2 SWAP5 SWAP4 SWAP3 PUSH1 0x60 DUP3 ADD SWAP6 DUP3 MSTORE PUSH1 0x20 DUP3 ADD MSTORE ADD MSTORE JUMP JUMPDEST PUSH2 0x1621 SWAP2 POP PUSH1 0x20 RETURNDATASIZE DUP2 GT PUSH2 0x5AE JUMPI PUSH2 0x5A0 DUP2 DUP4 PUSH2 0x3EC5 JUMP JUMPDEST CODESIZE PUSH2 0x15BF JUMP JUMPDEST POP POP POP CALLVALUE PUSH2 0x5F1 JUMPI DUP2 PUSH1 0x3 NOT CALLDATASIZE ADD SLT PUSH2 0x5F1 JUMPI PUSH1 0x20 SWAP1 PUSH1 0x1C SLOAD SWAP1 MLOAD SWAP1 DUP2 MSTORE RETURN JUMPDEST POP POP POP CALLVALUE PUSH2 0x5F1 JUMPI DUP2 PUSH1 0x3 NOT CALLDATASIZE ADD SLT PUSH2 0x5F1 JUMPI MLOAD PUSH32 0x0 PUSH1 0x1 PUSH1 0x1 PUSH1 0xA0 SHL SUB AND DUP2 MSTORE PUSH1 0x20 SWAP1 RETURN JUMPDEST POP POP POP CALLVALUE PUSH2 0x5F1 JUMPI DUP2 PUSH1 0x3 NOT CALLDATASIZE ADD SLT PUSH2 0x5F1 JUMPI PUSH1 0x20 SWAP1 PUSH1 0x19 SLOAD SWAP1 MLOAD SWAP1 DUP2 MSTORE RETURN JUMPDEST SWAP2 POP POP CALLVALUE PUSH2 0x3F2 JUMPI PUSH1 0x20 DUP1 PUSH1 0x3 NOT CALLDATASIZE ADD SLT PUSH2 0x139C JUMPI SWAP1 SWAP2 PUSH1 0x1 PUSH1 0x1 PUSH1 0xA0 SHL SUB PUSH2 0x16D3 PUSH2 0x3C59 JUMP JUMPDEST AND DUP5 MSTORE PUSH1 0x15 DUP3 MSTORE DUP1 DUP5 KECCAK256 SWAP2 DUP3 SLOAD SWAP2 PUSH2 0x16EA DUP4 PUSH2 0x56C3 JUMP JUMPDEST SWAP3 PUSH2 0x16F7 DUP3 MLOAD SWAP5 DUP6 PUSH2 0x3EC5 JUMP JUMPDEST DUP1 DUP5 MSTORE DUP3 DUP5 ADD DUP1 SWAP6 DUP9 MSTORE DUP4 DUP9 KECCAK256 DUP9 SWAP2 JUMPDEST DUP4 DUP4 LT PUSH2 0x1787 JUMPI POP POP POP POP DUP1 MLOAD SWAP5 DUP3 DUP7 ADD SWAP4 DUP4 DUP8 MSTORE MLOAD DUP1 SWAP5 MSTORE DUP2 DUP7 ADD SWAP5 SWAP7 SWAP2 JUMPDEST DUP5 DUP4 LT PUSH2 0x1734 JUMPI DUP7 DUP7 SUB DUP8 RETURN JUMPDEST DUP8 MLOAD DUP1 MLOAD DUP8 MSTORE DUP1 DUP6 ADD MLOAD DUP8 DUP7 ADD MSTORE DUP1 DUP3 ADD MLOAD DUP8 DUP4 ADD MSTORE PUSH1 0x60 DUP1 DUP3 ADD MLOAD SWAP1 DUP9 ADD MSTORE PUSH1 0x80 DUP1 DUP3 ADD MLOAD SWAP1 DUP9 ADD MSTORE PUSH1 0xA0 DUP1 DUP3 ADD MLOAD SWAP1 DUP9 ADD MSTORE PUSH1 0xC0 SWAP1 DUP2 ADD MLOAD ISZERO ISZERO SWAP1 DUP8 ADD MSTORE SWAP7 DUP4 ADD SWAP7 SWAP5 DUP2 ADD SWAP5 PUSH1 0x1 SWAP1 SWAP3 ADD SWAP2 PUSH2 0x1727 JUMP JUMPDEST PUSH1 0x7 DUP7 PUSH1 0x1 SWAP3 PUSH2 0x179E DUP6 SWAP14 SWAP10 SWAP11 SWAP12 SWAP14 SWAP13 SWAP9 SWAP13 PUSH2 0x56DB JUMP JUMPDEST DUP2 MSTORE ADD SWAP3 ADD SWAP3 ADD SWAP2 SWAP1 SWAP9 SWAP7 SWAP6 SWAP5 SWAP9 SWAP8 SWAP4 SWAP8 PUSH2 0x1707 JUMP JUMPDEST POP POP POP CALLVALUE PUSH2 0x5F1 JUMPI DUP2 PUSH1 0x3 NOT CALLDATASIZE ADD SLT PUSH2 0x5F1 JUMPI PUSH1 0x20 SWAP1 PUSH1 0x8 SLOAD SWAP1 MLOAD SWAP1 DUP2 MSTORE RETURN JUMPDEST POP POP POP CALLVALUE PUSH2 0x5F1 JUMPI DUP2 PUSH1 0x3 NOT CALLDATASIZE ADD SLT PUSH2 0x5F1 JUMPI PUSH1 0x20 SWAP1 PUSH1 0x17 SLOAD SWAP1 MLOAD SWAP1 DUP2 MSTORE RETURN JUMPDEST DUP4 DUP6 CALLVALUE PUSH2 0x6D0 JUMPI PUSH1 0x20 SWAP1 DUP2 PUSH1 0x3 NOT CALLDATASIZE ADD SLT PUSH2 0x6D0 JUMPI PUSH2 0x1811 PUSH2 0x3C59 JUMP JUMPDEST SWAP1 SWAP2 DUP3 SWAP2 DUP3 SWAP2 SWAP1 DUP3 SWAP1 PUSH1 0x1 PUSH1 0x1 PUSH1 0xA0 SHL SUB AND DUP2 JUMPDEST DUP2 DUP7 MSTORE PUSH1 0x15 DUP1 DUP6 MSTORE DUP9 DUP8 KECCAK256 DUP1 SLOAD DUP4 LT ISZERO PUSH2 0x18BF JUMPI PUSH1 0xFF PUSH1 0x6 PUSH2 0x1848 DUP6 DUP14 SWAP5 PUSH2 0x3DD3 JUMP JUMPDEST POP ADD SLOAD AND PUSH2 0x1861 JUMPI JUMPDEST POP POP PUSH2 0x185C SWAP1 PUSH2 0x4B40 JUMP JUMPDEST PUSH2 0x1825 JUMP JUMPDEST DUP3 SWAP7 SWAP5 PUSH2 0x188F DUP4 SWAP11 PUSH1 0x1 PUSH2 0x1886 PUSH2 0x185C SWAP8 PUSH2 0x18B1 SWAP7 DUP15 PUSH2 0x18B7 SWAP10 DUP15 DUP14 DUP4 MSTORE MSTORE KECCAK256 PUSH2 0x3DD3 JUMP JUMPDEST POP ADD SLOAD SWAP1 PUSH2 0x4B4F JUMP JUMPDEST SWAP10 DUP6 DUP11 MSTORE DUP8 MSTORE PUSH2 0x18AB PUSH2 0x18A4 DUP10 DUP14 DUP13 KECCAK256 PUSH2 0x3DD3 JUMP JUMPDEST POP SLOAD PUSH2 0x4C29 JUMP JUMPDEST SWAP1 PUSH2 0x4B4F JUMP JUMPDEST SWAP4 PUSH2 0x4B40 JUMP JUMPDEST SWAP5 SWAP1 DUP9 PUSH2 0x1851 JUMP JUMPDEST DUP10 MLOAD DUP10 DUP2 MSTORE PUSH1 0x20 DUP2 ADD DUP7 SWAP1 MSTORE PUSH1 0x40 DUP2 ADD DUP9 SWAP1 MSTORE PUSH1 0x60 SWAP1 RETURN JUMPDEST POP POP CALLVALUE PUSH2 0x3F2 JUMPI PUSH2 0x1907 PUSH2 0x18EA CALLDATASIZE PUSH2 0x3CA2 JUMP JUMPDEST SWAP4 SWAP3 SWAP2 SWAP1 SWAP2 CALLER DUP9 MSTORE PUSH1 0xF PUSH1 0x20 MSTORE PUSH2 0x1013 PUSH1 0xFF DUP9 DUP11 KECCAK256 SLOAD AND ISZERO PUSH2 0x40D9 JUMP JUMPDEST PUSH2 0x1912 DUP2 ISZERO ISZERO PUSH2 0x42C8 JUMP JUMPDEST DUP4 SLOAD PUSH1 0x1 PUSH1 0x1 PUSH1 0xA0 SHL SUB SWAP2 SWAP1 PUSH2 0x192B SWAP1 DUP4 AND ISZERO ISZERO PUSH2 0x4191 JUMP JUMPDEST DUP2 DUP4 SLOAD AND SWAP1 PUSH2 0x193B DUP3 ISZERO ISZERO PUSH2 0x44B9 JUMP JUMPDEST PUSH2 0x1947 PUSH1 0xC SLOAD DUP3 PUSH2 0x41D2 JUMP JUMPDEST SWAP3 PUSH5 0x2540BE400 SWAP4 DUP5 DUP2 MUL SWAP5 DUP2 DUP7 DIV EQ SWAP1 ISZERO OR ISZERO PUSH2 0x1A54 JUMPI DUP6 MLOAD PUSH4 0x23B872DD PUSH1 0xE0 SHL DUP2 MSTORE CALLER DUP7 DUP3 ADD SWAP1 DUP2 MSTORE PUSH1 0x1 PUSH1 0x1 PUSH1 0xA0 SHL SUB PUSH32 0x0 AND PUSH1 0x20 DUP3 DUP2 ADD SWAP2 SWAP1 SWAP2 MSTORE PUSH1 0x40 DUP3 ADD DUP6 SWAP1 MSTORE SWAP2 SWAP5 DUP6 SWAP2 DUP3 SWAP1 DUP12 SWAP1 DUP3 SWAP1 PUSH1 0x60 ADD SUB SWAP3 GAS CALL DUP1 ISZERO PUSH2 0x1A4A JUMPI PUSH1 0x0 DUP1 MLOAD PUSH1 0x20 PUSH2 0x5769 DUP4 CODECOPY DUP2 MLOAD SWAP2 MSTORE SWAP5 PUSH2 0x531 PUSH2 0x19EB SWAP3 PUSH2 0x581 SWAP7 DUP12 SWAP2 PUSH2 0x1A2C JUMPI JUMPDEST POP PUSH2 0x44FA JUMP JUMPDEST SWAP5 PUSH2 0x19F5 DUP7 PUSH2 0x50AF JUMP JUMPDEST PUSH2 0x1A0A DUP3 DUP3 SLOAD AND DUP8 DUP6 DUP6 DUP13 SLOAD AND PUSH2 0x556 PUSH2 0x42A9 JUMP JUMPDEST SLOAD AND SWAP5 MLOAD SWAP2 DUP3 SWAP2 CALLER SWAP6 TIMESTAMP SWAP2 DUP5 PUSH1 0x40 SWAP2 SWAP5 SWAP4 SWAP3 PUSH1 0x60 DUP3 ADD SWAP6 DUP3 MSTORE PUSH1 0x20 DUP3 ADD MSTORE ADD MSTORE JUMP JUMPDEST PUSH2 0x1A44 SWAP2 POP PUSH1 0x20 RETURNDATASIZE DUP2 GT PUSH2 0x5AE JUMPI PUSH2 0x5A0 DUP2 DUP4 PUSH2 0x3EC5 JUMP JUMPDEST CODESIZE PUSH2 0x19E5 JUMP JUMPDEST DUP7 MLOAD RETURNDATASIZE DUP10 DUP3 RETURNDATACOPY RETURNDATASIZE SWAP1 REVERT JUMPDEST PUSH4 0x4E487B71 PUSH1 0xE0 SHL DUP8 MSTORE PUSH1 0x11 DUP6 MSTORE PUSH1 0x24 DUP8 REVERT JUMPDEST DUP3 DUP6 DUP6 CALLDATASIZE PUSH1 0x3 NOT ADD PUSH1 0xA0 DUP2 SLT PUSH2 0x3F2 JUMPI PUSH1 0x80 SGT PUSH2 0x5F1 JUMPI PUSH1 0x84 CALLDATALOAD PUSH8 0xFFFFFFFFFFFFFFFF DUP2 GT PUSH2 0x3F2 JUMPI PUSH2 0x1A9D SWAP1 CALLDATASIZE SWAP1 DUP6 ADD PUSH2 0x3C74 JUMP JUMPDEST SWAP2 SWAP1 CALLER DUP5 MSTORE PUSH1 0x20 PUSH1 0xF DUP2 MSTORE PUSH2 0x1AB8 PUSH1 0xFF DUP5 DUP8 KECCAK256 SLOAD AND ISZERO PUSH2 0x40D9 JUMP JUMPDEST PUSH1 0x64 CALLDATALOAD SWAP2 DUP3 TIMESTAMP GT PUSH2 0x1E54 JUMPI PUSH1 0x1 PUSH1 0x1 PUSH1 0xA0 SHL SUB SWAP5 DUP8 CALLDATALOAD DUP7 DUP2 AND SWAP3 SWAP2 SWAP1 DUP4 SWAP1 SUB PUSH2 0x1E50 JUMPI CALLER DUP4 SUB PUSH2 0x1E1A JUMPI PUSH1 0x44 CALLDATALOAD SWAP3 CALLER DUP10 MSTORE PUSH1 0x22 DUP6 MSTORE DUP7 DUP10 KECCAK256 SLOAD DUP5 GT ISZERO PUSH2 0x1DEA JUMPI PUSH1 0x21 SLOAD SWAP1 PUSH1 0x24 CALLDATALOAD SWAP7 DUP10 DUP9 AND DUP1 SWAP9 SUB PUSH2 0x1DE6 JUMPI DUP9 MLOAD SWAP1 DUP8 DUP3 ADD SWAP3 PUSH32 0x91B089318BBDF627BACEC662873C12CC3AFDC69DB73F084D7726E9CE2907280A DUP5 MSTORE DUP11 DUP4 ADD MSTORE DUP9 PUSH1 0x60 DUP4 ADD MSTORE DUP7 PUSH1 0x80 DUP4 ADD MSTORE PUSH1 0xA0 DUP3 ADD MSTORE PUSH1 0xA0 DUP2 MSTORE PUSH2 0x1B56 DUP2 PUSH2 0x3E71 JUMP JUMPDEST MLOAD SWAP1 KECCAK256 DUP8 MLOAD SWAP1 DUP7 DUP3 ADD SWAP3 PUSH2 0x1901 PUSH1 0xF0 SHL DUP5 MSTORE PUSH1 0x22 DUP4 ADD MSTORE PUSH1 0x42 DUP3 ADD MSTORE PUSH1 0x42 DUP2 MSTORE PUSH2 0x1B7F DUP2 PUSH2 0x3E8D JUMP JUMPDEST MLOAD SWAP1 KECCAK256 SWAP1 PUSH2 0x1B8C DUP2 PUSH2 0x421B JUMP JUMPDEST SWAP3 PUSH2 0x1B99 DUP9 MLOAD SWAP5 DUP6 PUSH2 0x3EC5 JUMP JUMPDEST DUP2 DUP5 MSTORE CALLDATASIZE DUP3 DUP3 ADD GT PUSH2 0x1DE2 JUMPI SWAP2 DUP10 DUP7 DUP4 DUP7 SWAP5 PUSH2 0x1BBF SWAP7 DUP4 PUSH2 0x1BC7 SWAP10 ADD CALLDATACOPY DUP5 ADD ADD MSTORE PUSH2 0x4A15 JUMP JUMPDEST SWAP2 SWAP1 SWAP2 PUSH2 0x48FB JUMP JUMPDEST DUP6 DUP1 DUP5 SLOAD AND SWAP2 AND SUB PUSH2 0x1DAF JUMPI CALLER DUP7 MSTORE PUSH1 0x22 DUP3 MSTORE DUP1 DUP5 DUP8 KECCAK256 SSTORE DUP4 MLOAD SWAP1 DUP2 MSTORE PUSH32 0xB23E07A4FC171F5F9242D4254C3B66B893BEAAB2F3787495C0F2D09DD3EF9726 DUP3 CALLER SWAP3 LOG2 DUP5 DUP3 ISZERO ISZERO DUP1 PUSH2 0x1DA3 JUMPI JUMPDEST DUP1 PUSH2 0x1D8F JUMPI JUMPDEST DUP2 DUP2 PUSH2 0x1D70 JUMPI JUMPDEST POP PUSH2 0x1D0B JUMPI JUMPDEST POP POP POP CALLVALUE ISZERO PUSH2 0x1C35 DUP2 ISZERO PUSH2 0x4155 JUMP JUMPDEST PUSH2 0x1C43 DUP4 DUP6 SLOAD AND ISZERO ISZERO PUSH2 0x4191 JUMP JUMPDEST PUSH8 0xDE0B6B3A7640000 SWAP1 DUP2 CALLVALUE MUL SWAP2 CALLVALUE DUP4 DIV EQ OR ISZERO PUSH2 0x1CF8 JUMPI DUP4 SWAP3 SWAP2 PUSH2 0x1CDA PUSH2 0x1C80 PUSH2 0x531 PUSH1 0x0 DUP1 MLOAD PUSH1 0x20 PUSH2 0x5769 DUP4 CODECOPY DUP2 MLOAD SWAP2 MSTORE SWAP5 PUSH1 0x6 SLOAD SWAP1 PUSH2 0x41FB JUMP JUMPDEST SWAP4 PUSH2 0x1C8A DUP6 PUSH2 0x50AF JUMP JUMPDEST PUSH2 0x1CC5 DUP7 DUP1 DUP1 DUP1 CALLVALUE DUP7 PUSH32 0x0 AND GAS CALL PUSH2 0x1CBF PUSH2 0x4237 JUMP JUMPDEST POP PUSH2 0x4267 JUMP JUMPDEST DUP6 SLOAD AND DUP5 PUSH2 0x1CD1 PUSH2 0x42A9 JUMP JUMPDEST SWAP2 CALLVALUE SWAP1 CALLER PUSH2 0x5608 JUMP JUMPDEST MLOAD CALLVALUE DUP2 MSTORE PUSH1 0x20 DUP2 ADD SWAP3 SWAP1 SWAP3 MSTORE TIMESTAMP PUSH1 0x40 DUP4 ADD MSTORE CALLER SWAP2 DUP1 PUSH1 0x60 DUP2 ADD PUSH2 0x581 JUMP JUMPDEST PUSH4 0x4E487B71 PUSH1 0xE0 SHL DUP5 MSTORE PUSH1 0x11 DUP6 MSTORE PUSH1 0x24 DUP5 REVERT JUMPDEST PUSH2 0x1D6C JUMPI PUSH1 0x1E SWAP1 CALLER DUP7 MSTORE PUSH1 0x1D DUP2 MSTORE DUP4 DUP7 KECCAK256 DUP4 PUSH1 0x1 PUSH1 0x1 PUSH1 0x60 SHL SUB PUSH1 0xA0 SHL DUP3 SLOAD AND OR SWAP1 SSTORE DUP3 DUP7 MSTORE MSTORE PUSH2 0x1D3E CALLER DUP4 DUP7 KECCAK256 PUSH2 0x411A JUMP JUMPDEST CALLER SWAP1 PUSH32 0x5F1CA2FCC108B751843A763E60D2201F593516109D7DBB1B700468F2D4190BB7 DUP6 DUP1 LOG3 DUP5 DUP1 DUP1 PUSH2 0x1C26 JUMP JUMPDEST DUP5 DUP1 REVERT JUMPDEST SWAP1 POP PUSH2 0x1D8B JUMPI DUP3 DUP7 MSTORE PUSH1 0xF DUP3 MSTORE PUSH1 0xFF DUP5 DUP8 KECCAK256 SLOAD AND ISZERO DUP2 PUSH2 0x1C20 JUMP JUMPDEST DUP6 DUP1 REVERT JUMPDEST POP CALLER DUP7 MSTORE PUSH1 0x1D DUP3 MSTORE DUP5 DUP5 DUP8 KECCAK256 SLOAD AND ISZERO PUSH2 0x1C19 JUMP JUMPDEST POP POP DUP5 CALLER DUP4 EQ ISZERO PUSH2 0x1C13 JUMP JUMPDEST DUP4 MLOAD PUSH3 0x461BCD PUSH1 0xE5 SHL DUP2 MSTORE DUP1 DUP9 ADD DUP4 SWAP1 MSTORE PUSH1 0xD PUSH1 0x24 DUP3 ADD MSTORE PUSH13 0x426164207369676E6174757265 PUSH1 0x98 SHL PUSH1 0x44 DUP3 ADD MSTORE PUSH1 0x64 SWAP1 REVERT JUMPDEST DUP10 DUP1 REVERT JUMPDEST DUP11 DUP1 REVERT JUMPDEST DUP7 MLOAD PUSH3 0x461BCD PUSH1 0xE5 SHL DUP2 MSTORE DUP1 DUP12 ADD DUP7 SWAP1 MSTORE PUSH1 0xA PUSH1 0x24 DUP3 ADD MSTORE PUSH10 0x139BDB98D9481D5CD959 PUSH1 0xB2 SHL PUSH1 0x44 DUP3 ADD MSTORE PUSH1 0x64 SWAP1 REVERT JUMPDEST DUP6 MLOAD PUSH3 0x461BCD PUSH1 0xE5 SHL DUP2 MSTORE DUP1 DUP11 ADD DUP6 SWAP1 MSTORE PUSH1 0x10 PUSH1 0x24 DUP3 ADD MSTORE PUSH16 0x2737BA103CB7BAB9103B37BAB1B432B9 PUSH1 0x81 SHL PUSH1 0x44 DUP3 ADD MSTORE PUSH1 0x64 SWAP1 REVERT JUMPDEST DUP8 DUP1 REVERT JUMPDEST DUP4 MLOAD PUSH3 0x461BCD PUSH1 0xE5 SHL DUP2 MSTORE DUP1 DUP9 ADD DUP4 SWAP1 MSTORE PUSH1 0xF PUSH1 0x24 DUP3 ADD MSTORE PUSH15 0x159BDD58DA195C88195E1C1A5C9959 PUSH1 0x8A SHL PUSH1 0x44 DUP3 ADD MSTORE PUSH1 0x64 SWAP1 REVERT JUMPDEST SWAP3 SWAP1 POP CALLVALUE PUSH2 0x139C JUMPI DUP4 PUSH1 0x3 NOT CALLDATASIZE ADD SLT PUSH2 0x139C JUMPI DUP4 SLOAD DUP2 MLOAD PUSH4 0x70A08231 PUSH1 0xE0 SHL DUP2 MSTORE ADDRESS SWAP4 DUP2 ADD SWAP4 SWAP1 SWAP4 MSTORE PUSH1 0x1 PUSH1 0x1 PUSH1 0xA0 SHL SUB SWAP1 DUP2 AND SWAP4 SWAP1 PUSH1 0x20 DUP5 PUSH1 0x24 DUP2 DUP9 GAS STATICCALL SWAP4 DUP5 ISZERO PUSH2 0x1F5E JUMPI DUP7 SWAP5 PUSH2 0x1F26 JUMPI JUMPDEST POP PUSH2 0x120 SWAP6 POP PUSH1 0x6 SLOAD SWAP1 PUSH1 0x7 SLOAD PUSH1 0xE SLOAD SWAP1 DUP3 PUSH1 0x1 SLOAD AND SWAP3 PUSH1 0x2 SLOAD AND SWAP4 PUSH1 0x8 SLOAD SWAP7 PUSH1 0x9 SLOAD SWAP9 DUP2 MLOAD SWAP11 DUP12 MSTORE PUSH1 0x20 DUP12 ADD MSTORE DUP10 ADD MSTORE PUSH1 0x60 DUP9 ADD MSTORE PUSH1 0x80 DUP8 ADD MSTORE PUSH1 0xA0 DUP7 ADD MSTORE PUSH1 0xC0 DUP6 ADD MSTORE DUP4 ADD MSTORE PUSH2 0x100 DUP3 ADD MSTORE RETURN JUMPDEST SWAP1 SWAP4 POP PUSH1 0x20 DUP2 RETURNDATASIZE DUP3 GT PUSH2 0x1F56 JUMPI JUMPDEST DUP2 PUSH2 0x1F41 PUSH1 0x20 SWAP4 DUP4 PUSH2 0x3EC5 JUMP JUMPDEST DUP2 ADD SUB SLT PUSH2 0x1D8B JUMPI PUSH2 0x120 SWAP6 POP MLOAD SWAP3 CODESIZE PUSH2 0x1ED6 JUMP JUMPDEST RETURNDATASIZE SWAP2 POP PUSH2 0x1F34 JUMP JUMPDEST DUP4 MLOAD RETURNDATASIZE DUP9 DUP3 RETURNDATACOPY RETURNDATASIZE SWAP1 REVERT JUMPDEST POP POP POP CALLVALUE PUSH2 0x5F1 JUMPI DUP2 PUSH1 0x3 NOT CALLDATASIZE ADD SLT PUSH2 0x5F1 JUMPI PUSH1 0x20 SWAP1 PUSH1 0xD SLOAD SWAP1 MLOAD SWAP1 DUP2 MSTORE RETURN JUMPDEST POP POP POP CALLVALUE PUSH2 0x5F1 JUMPI DUP2 PUSH1 0x3 NOT CALLDATASIZE ADD SLT PUSH2 0x5F1 JUMPI PUSH1 0x20 SWAP1 PUSH1 0x1A SLOAD SWAP1 MLOAD SWAP1 DUP2 MSTORE RETURN JUMPDEST POP POP CALLVALUE PUSH2 0x3F2 JUMPI PUSH1 0x20 CALLDATASIZE PUSH1 0x3 NOT ADD SLT PUSH2 0x3F2 JUMPI DUP1 CALLDATALOAD SWAP1 PUSH2 0x1FF2 CALLER PUSH32 0x0 PUSH1 0x1 PUSH1 0x1 PUSH1 0xA0 SHL SUB AND EQ PUSH2 0x3FEA JUMP JUMPDEST DUP2 ISZERO PUSH2 0x2032 JUMPI POP SWAP1 PUSH32 0x787A1FCA55641CE34A438271930BBB9401DF20DB2B4F510D4F252227D85DF43D SWAP2 PUSH1 0x13 SLOAD SWAP1 DUP1 PUSH1 0x13 SSTORE DUP3 MLOAD SWAP2 DUP3 MSTORE PUSH1 0x20 DUP3 ADD MSTORE LOG1 DUP1 RETURN JUMPDEST PUSH1 0x64 SWAP1 PUSH1 0x20 DUP5 MLOAD SWAP2 PUSH3 0x461BCD PUSH1 0xE5 SHL DUP4 MSTORE DUP3 ADD MSTORE PUSH1 0x1A PUSH1 0x24 DUP3 ADD MSTORE PUSH32 0x415059206D7573742062652067726561746572207468616E2030000000000000 PUSH1 0x44 DUP3 ADD MSTORE REVERT JUMPDEST POP POP POP CALLVALUE PUSH2 0x5F1 JUMPI DUP2 PUSH1 0x3 NOT CALLDATASIZE ADD SLT PUSH2 0x5F1 JUMPI PUSH1 0x20 SWAP1 PUSH1 0x9 SLOAD SWAP1 MLOAD SWAP1 DUP2 MSTORE RETURN JUMPDEST DUP5 CALLVALUE PUSH2 0x6D0 JUMPI PUSH1 0x20 CALLDATASIZE PUSH1 0x3 NOT ADD SLT PUSH2 0x6D0 JUMPI PUSH2 0x20AF PUSH2 0x3C59 JUMP JUMPDEST PUSH1 0x1 PUSH1 0x1 PUSH1 0xA0 SHL SUB SWAP1 PUSH2 0x20E5 CALLER PUSH32 0x0 DUP5 AND EQ PUSH2 0x3FEA JUMP JUMPDEST DUP2 PUSH1 0x20 SLOAD SWAP2 AND DUP1 SWAP3 DUP3 AND PUSH32 0x2D025324F0A785E8C12D0A0D91A9CAA49DF4EF20FF87E0DF7213A1D4F3157BEB DUP6 DUP1 LOG3 PUSH1 0x1 PUSH1 0x1 PUSH1 0xA0 SHL SUB NOT AND OR PUSH1 0x20 SSTORE DUP1 RETURN JUMPDEST POP POP CALLVALUE PUSH2 0x3F2 JUMPI PUSH1 0x20 CALLDATASIZE PUSH1 0x3 NOT ADD SLT PUSH2 0x3F2 JUMPI PUSH32 0x6E838F2A03741F5F2AFF5480963B672FB0DD8430A4DC75DB9B67CE009733C9FE SWAP2 PUSH1 0xA0 SWAP2 CALLDATALOAD PUSH2 0x2191 CALLER PUSH32 0x0 PUSH1 0x1 PUSH1 0x1 PUSH1 0xA0 SHL SUB AND EQ PUSH2 0x3FEA JUMP JUMPDEST PUSH2 0x219C DUP2 ISZERO ISZERO PUSH2 0x4023 JUMP JUMPDEST PUSH1 0x6 SLOAD SWAP2 DUP2 PUSH1 0x6 SSTORE DUP1 MLOAD SWAP3 PUSH1 0x60 DUP5 MSTORE PUSH1 0x5 PUSH1 0x60 DUP6 ADD MSTORE PUSH5 0x2A27A5A2A7 PUSH1 0xD9 SHL PUSH1 0x80 DUP6 ADD MSTORE PUSH1 0x20 DUP5 ADD MSTORE DUP3 ADD MSTORE LOG1 DUP1 RETURN JUMPDEST POP POP POP CALLVALUE PUSH2 0x5F1 JUMPI DUP2 PUSH1 0x3 NOT CALLDATASIZE ADD SLT PUSH2 0x5F1 JUMPI PUSH1 0x20 SWAP1 PUSH1 0x7 SLOAD SWAP1 MLOAD SWAP1 DUP2 MSTORE RETURN JUMPDEST POP POP CALLVALUE PUSH2 0x3F2 JUMPI PUSH1 0x20 CALLDATASIZE PUSH1 0x3 NOT ADD SLT PUSH2 0x3F2 JUMPI PUSH32 0x6E838F2A03741F5F2AFF5480963B672FB0DD8430A4DC75DB9B67CE009733C9FE SWAP2 PUSH1 0xA0 SWAP2 CALLDATALOAD PUSH2 0x2259 CALLER PUSH32 0x0 PUSH1 0x1 PUSH1 0x1 PUSH1 0xA0 SHL SUB AND EQ PUSH2 0x3FEA JUMP JUMPDEST PUSH2 0x2264 DUP2 ISZERO ISZERO PUSH2 0x4023 JUMP JUMPDEST PUSH1 0x7 SLOAD SWAP2 DUP2 PUSH1 0x7 SSTORE DUP1 MLOAD SWAP3 PUSH1 0x60 DUP5 MSTORE PUSH1 0xA PUSH1 0x60 DUP6 ADD MSTORE PUSH10 0x29AA20A12622A1A7A4A7 PUSH1 0xB1 SHL PUSH1 0x80 DUP6 ADD MSTORE PUSH1 0x20 DUP5 ADD MSTORE DUP3 ADD MSTORE LOG1 DUP1 RETURN JUMPDEST POP POP SWAP1 CALLVALUE PUSH2 0x3F2 JUMPI PUSH1 0x20 SWAP1 DUP2 PUSH1 0x3 NOT CALLDATASIZE ADD SLT PUSH2 0x139C JUMPI DUP3 SWAP2 SWAP3 CALLDATALOAD SWAP3 CALLER DUP6 MSTORE PUSH1 0xF DUP2 MSTORE PUSH1 0xFF PUSH2 0x22CC DUP2 DUP5 DUP9 KECCAK256 SLOAD AND ISZERO PUSH2 0x40D9 JUMP JUMPDEST DUP5 DUP7 MSTORE PUSH1 0x16 DUP3 MSTORE DUP3 DUP7 KECCAK256 SLOAD PUSH1 0x1 PUSH1 0x1 PUSH1 0xA0 SHL SUB SWAP1 PUSH2 0x22ED SWAP1 DUP3 AND CALLER EQ PUSH2 0x4E37 JUMP JUMPDEST DUP7 SWAP5 DUP6 SWAP3 DUP4 DUP1 JUMPDEST CALLER DUP12 MSTORE PUSH1 0x15 DUP1 DUP9 MSTORE DUP9 DUP13 KECCAK256 DUP1 SLOAD DUP4 LT ISZERO PUSH2 0x2561 JUMPI SWAP11 PUSH2 0x2315 DUP4 DUP3 SWAP13 SWAP14 PUSH2 0x3DD3 JUMP JUMPDEST POP SLOAD EQ PUSH2 0x232E JUMPI POP PUSH2 0x2326 SWAP1 PUSH2 0x4B40 JUMP JUMPDEST SWAP9 SWAP8 SWAP9 PUSH2 0x22F4 JUMP JUMPDEST SWAP6 POP SWAP8 SWAP9 POP POP CALLER DUP10 MSTORE DUP4 DUP6 MSTORE PUSH2 0x2357 PUSH2 0x2349 DUP9 DUP9 DUP13 KECCAK256 PUSH2 0x3DD3 JUMP JUMPDEST POP SWAP2 PUSH1 0x6 DUP1 SWAP4 ADD SLOAD AND PUSH2 0x4BDD JUMP JUMPDEST CALLER DUP10 MSTORE DUP4 DUP6 MSTORE PUSH1 0x2 PUSH2 0x236B DUP9 DUP9 DUP13 KECCAK256 PUSH2 0x3DD3 JUMP JUMPDEST POP ADD SLOAD CALLER DUP11 MSTORE DUP5 DUP7 MSTORE PUSH1 0x3 PUSH2 0x2382 DUP10 DUP10 DUP14 KECCAK256 PUSH2 0x3DD3 JUMP JUMPDEST POP ADD SLOAD SWAP1 PUSH3 0x15180 SWAP2 DUP3 DUP2 MUL SWAP3 DUP2 DUP5 DIV EQ SWAP1 ISZERO OR ISZERO PUSH2 0x254E JUMPI SWAP1 PUSH2 0x23A5 SWAP2 PUSH2 0x4B4F JUMP JUMPDEST TIMESTAMP LT PUSH2 0x2514 JUMPI SWAP2 DUP5 SWAP2 PUSH2 0x2408 DUP11 PUSH2 0x244E SWAP6 PUSH2 0x23EA PUSH2 0x23C2 DUP14 PUSH2 0x4C29 JUMP JUMPDEST SWAP12 CALLER DUP5 MSTORE DUP10 DUP9 MSTORE DUP12 PUSH2 0x23D6 DUP3 DUP3 DUP8 KECCAK256 PUSH2 0x3DD3 JUMP JUMPDEST POP SWAP5 PUSH1 0x1 DUP1 SWAP7 ADD SLOAD SWAP12 CALLER DUP3 MSTORE DUP11 MSTORE KECCAK256 PUSH2 0x3DD3 JUMP JUMPDEST POP ADD PUSH1 0xFF NOT DUP2 SLOAD AND SWAP1 SSTORE PUSH1 0x17 PUSH2 0x2401 DUP9 DUP3 SLOAD PUSH2 0x4C1C JUMP JUMPDEST SWAP1 SSTORE PUSH2 0x4B9F JUMP JUMPDEST PUSH2 0x2411 CALLER PUSH2 0x4FF6 JUMP JUMPDEST PUSH2 0x241B DUP9 DUP7 PUSH2 0x4B4F JUMP JUMPDEST DUP11 SLOAD DUP9 MLOAD PUSH4 0xA9059CBB PUSH1 0xE0 SHL DUP2 MSTORE CALLER SWAP4 DUP2 ADD SWAP4 DUP5 MSTORE PUSH1 0x20 DUP5 ADD SWAP3 SWAP1 SWAP3 MSTORE SWAP1 SWAP5 DUP6 SWAP4 SWAP1 SWAP2 AND SWAP2 DUP4 SWAP2 DUP13 SWAP2 DUP4 SWAP2 PUSH1 0x40 SWAP1 SWAP2 ADD SWAP1 JUMP JUMPDEST SUB SWAP3 GAS CALL SWAP1 DUP2 ISZERO PUSH2 0x250A JUMPI SWAP1 PUSH2 0x246B SWAP2 DUP9 SWAP2 PUSH2 0x24ED JUMPI JUMPDEST POP PUSH2 0x4AFC JUMP JUMPDEST DUP5 DUP5 ISZERO ISZERO SWAP2 DUP3 PUSH2 0x24D9 JUMPI JUMPDEST DUP5 MLOAD SWAP1 DUP2 MSTORE PUSH32 0x7FC4727E062E336010F2C282598EF5F14FACB3DE68CF8195C2F23E1454B2B74E DUP5 CALLER SWAP3 LOG3 PUSH2 0x24A8 JUMPI DUP5 DUP1 RETURN JUMPDEST PUSH32 0xF87CFA2D5FEAEA949AD65BB76A26D8553381BCB6382ADBC83DEDD48961BF32D9 SWAP2 MLOAD SWAP3 DUP4 MSTORE CALLER SWAP3 LOG3 CODESIZE DUP1 DUP1 DUP1 DUP5 DUP1 RETURN JUMPDEST PUSH2 0x24E5 DUP7 PUSH1 0x18 SLOAD PUSH2 0x4B4F JUMP JUMPDEST PUSH1 0x18 SSTORE PUSH2 0x2476 JUMP JUMPDEST PUSH2 0x2504 SWAP2 POP DUP5 RETURNDATASIZE DUP7 GT PUSH2 0x5AE JUMPI PUSH2 0x5A0 DUP2 DUP4 PUSH2 0x3EC5 JUMP JUMPDEST CODESIZE PUSH2 0x2465 JUMP JUMPDEST DUP5 MLOAD RETURNDATASIZE DUP10 DUP3 RETURNDATACOPY RETURNDATASIZE SWAP1 REVERT JUMPDEST DUP6 MLOAD PUSH3 0x461BCD PUSH1 0xE5 SHL DUP2 MSTORE DUP1 DUP4 ADD DUP7 SWAP1 MSTORE PUSH1 0x14 PUSH1 0x24 DUP3 ADD MSTORE PUSH20 0x14DD1A5B1B081A5B881B1BD8DAC81C195C9A5BD9 PUSH1 0x62 SHL PUSH1 0x44 DUP3 ADD MSTORE PUSH1 0x64 SWAP1 REVERT JUMPDEST PUSH4 0x4E487B71 PUSH1 0xE0 SHL DUP12 MSTORE PUSH1 0x11 DUP5 MSTORE PUSH1 0x24 DUP12 REVERT JUMPDEST POP POP POP PUSH2 0x244E SWAP4 SWAP2 POP SWAP2 PUSH2 0x2408 DUP7 SWAP4 PUSH2 0x4B9F JUMP JUMPDEST POP POP DUP3 PUSH1 0x3 NOT CALLDATASIZE ADD SLT PUSH2 0x3F2 JUMPI CALLER DUP4 MSTORE PUSH1 0x20 PUSH1 0xF DUP2 MSTORE PUSH2 0x259B PUSH1 0xFF DUP5 DUP7 KECCAK256 SLOAD AND ISZERO PUSH2 0x40D9 JUMP JUMPDEST CALLVALUE ISZERO SWAP1 PUSH2 0x25A8 DUP3 ISZERO PUSH2 0x4155 JUMP JUMPDEST PUSH1 0x1 SLOAD PUSH1 0x1 PUSH1 0x1 PUSH1 0xA0 SHL SUB SWAP3 SWAP1 DUP4 AND SWAP1 PUSH2 0x25C3 DUP3 ISZERO ISZERO PUSH2 0x4314 JUMP JUMPDEST PUSH3 0xF4240 SWAP1 DUP2 CALLVALUE MUL SWAP2 CALLVALUE DUP4 DIV EQ OR ISZERO PUSH2 0x1A54 JUMPI PUSH1 0x7 SLOAD PUSH2 0x25E2 SWAP2 PUSH2 0x41FB JUMP JUMPDEST SWAP4 DUP6 MLOAD PUSH4 0x70A08231 PUSH1 0xE0 SHL DUP2 MSTORE ADDRESS DUP3 DUP3 ADD MSTORE DUP4 DUP2 PUSH1 0x24 DUP2 DUP7 GAS STATICCALL DUP1 ISZERO PUSH2 0x2775 JUMPI DUP7 SWAP2 DUP10 SWAP2 PUSH2 0x2744 JUMPI JUMPDEST POP LT PUSH2 0x2701 JUMPI DUP6 MLOAD PUSH4 0xA9059CBB PUSH1 0xE0 SHL DUP2 MSTORE CALLER SWAP2 DUP2 ADD SWAP2 DUP3 MSTORE PUSH1 0x20 DUP3 ADD DUP7 SWAP1 MSTORE SWAP4 SWAP3 SWAP2 DUP3 SWAP2 DUP6 SWAP2 SWAP1 DUP3 SWAP1 DUP11 SWAP1 DUP3 SWAP1 PUSH1 0x40 ADD SUB SWAP3 GAS CALL DUP1 ISZERO PUSH2 0x5B5 JUMPI PUSH32 0x48A1F8A6C840B32621CEAB4439A2CCD00B337E705DFDCDEC0B40C49ABF3E6BE3 SWAP4 PUSH2 0x267A SWAP3 DUP9 SWAP3 PUSH2 0x26E4 JUMPI JUMPDEST POP POP PUSH2 0x436E JUMP JUMPDEST PUSH2 0x26AF DUP6 DUP1 DUP1 DUP1 CALLVALUE DUP7 PUSH32 0x0 AND GAS CALL PUSH2 0x1CBF PUSH2 0x4237 JUMP JUMPDEST PUSH2 0x26C0 DUP2 PUSH1 0x1 SLOAD AND DUP5 PUSH2 0x1CD1 PUSH2 0x4ADC JUMP JUMPDEST PUSH1 0x1 SLOAD SWAP4 MLOAD SWAP3 DUP4 MSTORE CALLVALUE PUSH1 0x20 DUP5 ADD MSTORE TIMESTAMP PUSH1 0x40 DUP5 ADD MSTORE SWAP1 SWAP3 AND SWAP2 CALLER SWAP2 DUP1 PUSH1 0x60 DUP2 ADD PUSH2 0x581 JUMP JUMPDEST PUSH2 0x26FA SWAP3 POP DUP1 RETURNDATASIZE LT PUSH2 0x5AE JUMPI PUSH2 0x5A0 DUP2 DUP4 PUSH2 0x3EC5 JUMP JUMPDEST CODESIZE DUP1 PUSH2 0x2673 JUMP JUMPDEST DUP6 MLOAD PUSH3 0x461BCD PUSH1 0xE5 SHL DUP2 MSTORE SWAP1 DUP2 ADD DUP4 SWAP1 MSTORE PUSH1 0x1B PUSH1 0x24 DUP3 ADD MSTORE PUSH32 0x496E73756666696369656E742055534454206C69717569646974790000000000 PUSH1 0x44 DUP3 ADD MSTORE PUSH1 0x64 SWAP1 REVERT JUMPDEST DUP1 SWAP3 POP DUP6 DUP1 SWAP3 POP RETURNDATASIZE DUP4 GT PUSH2 0x276E JUMPI JUMPDEST PUSH2 0x275D DUP2 DUP4 PUSH2 0x3EC5 JUMP JUMPDEST DUP2 ADD SUB SLT PUSH2 0x1E50 JUMPI DUP6 SWAP1 MLOAD CODESIZE PUSH2 0x260B JUMP JUMPDEST POP RETURNDATASIZE PUSH2 0x2753 JUMP JUMPDEST DUP8 MLOAD RETURNDATASIZE DUP11 DUP3 RETURNDATACOPY RETURNDATASIZE SWAP1 REVERT JUMPDEST POP POP POP CALLVALUE PUSH2 0x5F1 JUMPI PUSH1 0x20 DUP1 PUSH1 0x3 NOT CALLDATASIZE ADD SLT PUSH2 0x3F2 JUMPI PUSH1 0x1 PUSH1 0x1 PUSH1 0xA0 SHL SUB SWAP3 DUP4 PUSH2 0x27A6 PUSH2 0x3C59 JUMP JUMPDEST AND DUP2 MSTORE PUSH1 0x1E DUP3 MSTORE DUP3 DUP2 KECCAK256 SWAP2 DUP4 MLOAD SWAP1 DUP2 DUP2 DUP6 SLOAD SWAP2 DUP3 DUP2 MSTORE ADD SWAP1 DUP2 SWAP6 DUP6 MSTORE DUP3 DUP6 KECCAK256 SWAP1 DUP6 JUMPDEST DUP2 DUP2 LT PUSH2 0x2814 JUMPI POP POP POP DUP3 PUSH2 0x27DE SWAP2 SUB DUP4 PUSH2 0x3EC5 JUMP JUMPDEST DUP5 MLOAD SWAP5 DUP2 DUP7 ADD SWAP3 DUP3 DUP8 MSTORE MLOAD DUP1 SWAP4 MSTORE DUP6 ADD SWAP4 SWAP3 JUMPDEST DUP3 DUP2 LT PUSH2 0x27FE JUMPI DUP6 DUP6 SUB DUP7 RETURN JUMPDEST DUP4 MLOAD DUP8 AND DUP6 MSTORE SWAP4 DUP2 ADD SWAP4 SWAP3 DUP2 ADD SWAP3 PUSH1 0x1 ADD PUSH2 0x27F1 JUMP JUMPDEST DUP3 SLOAD DUP11 AND DUP5 MSTORE SWAP3 DUP5 ADD SWAP3 PUSH1 0x1 SWAP3 DUP4 ADD SWAP3 ADD PUSH2 0x27C8 JUMP JUMPDEST DUP4 DUP6 DUP5 CALLVALUE PUSH2 0x5F1 JUMPI PUSH1 0x20 SWAP1 DUP2 PUSH1 0x3 NOT CALLDATASIZE ADD SLT PUSH2 0x3F2 JUMPI DUP1 CALLDATALOAD SWAP2 CALLER DUP5 MSTORE PUSH1 0xF DUP2 MSTORE PUSH1 0xFF SWAP5 PUSH2 0x285C DUP7 DUP3 DUP8 KECCAK256 SLOAD AND ISZERO PUSH2 0x40D9 JUMP JUMPDEST DUP4 DUP6 MSTORE PUSH1 0x16 DUP1 DUP4 MSTORE DUP2 DUP7 KECCAK256 SLOAD PUSH1 0x1 PUSH1 0x1 PUSH1 0xA0 SHL SUB SWAP5 SWAP2 SWAP1 PUSH2 0x2880 SWAP1 DUP7 AND CALLER EQ PUSH2 0x4E37 JUMP JUMPDEST DUP7 SWAP5 DUP8 JUMPDEST CALLER DUP10 MSTORE PUSH1 0x15 DUP1 DUP8 MSTORE DUP6 DUP11 KECCAK256 DUP1 SLOAD DUP4 LT ISZERO PUSH2 0x2A48 JUMPI PUSH2 0x28A3 DUP4 DUP12 SWAP3 PUSH2 0x3DD3 JUMP JUMPDEST POP SLOAD EQ PUSH2 0x28B9 JUMPI POP PUSH2 0x28B4 SWAP1 PUSH2 0x4B40 JUMP JUMPDEST PUSH2 0x2884 JUMP JUMPDEST SWAP8 SWAP9 SWAP10 DUP6 SWAP7 SWAP8 POP PUSH1 0x6 PUSH2 0x28DB DUP4 PUSH2 0x28E4 SWAP5 SWAP6 SWAP7 SWAP8 SWAP9 DUP15 CALLER DUP2 MSTORE DUP14 DUP14 MSTORE KECCAK256 PUSH2 0x3DD3 JUMP JUMPDEST POP ADD SLOAD AND PUSH2 0x4BDD JUMP JUMPDEST PUSH2 0x28ED DUP9 PUSH2 0x4C29 JUMP JUMPDEST SWAP7 DUP8 ISZERO PUSH2 0x2A0F JUMPI SWAP1 PUSH2 0x291E SWAP2 CALLER DUP12 MSTORE DUP1 DUP9 MSTORE DUP11 PUSH1 0x5 PUSH2 0x290E DUP5 DUP11 DUP5 KECCAK256 PUSH2 0x3DD3 JUMP JUMPDEST POP ADD SSTORE CALLER DUP12 MSTORE DUP8 MSTORE DUP6 DUP11 KECCAK256 PUSH2 0x3DD3 JUMP JUMPDEST POP TIMESTAMP SWAP1 DUP5 ADD SSTORE DUP8 SLOAD DUP5 MLOAD PUSH4 0xA9059CBB PUSH1 0xE0 SHL DUP2 MSTORE CALLER DUP2 DUP7 ADD SWAP1 DUP2 MSTORE PUSH1 0x20 DUP2 ADD DUP10 SWAP1 MSTORE SWAP1 SWAP3 DUP8 SWAP3 DUP5 SWAP3 DUP4 SWAP1 SUB PUSH1 0x40 ADD SWAP2 DUP4 SWAP2 DUP14 SWAP2 AND GAS CALL SWAP1 DUP2 ISZERO PUSH2 0x2A05 JUMPI DUP9 SWAP2 PUSH2 0x29E8 JUMPI JUMPDEST POP ISZERO PUSH2 0x29B0 JUMPI POP POP SWAP1 PUSH32 0xF87CFA2D5FEAEA949AD65BB76A26D8553381BCB6382ADBC83DEDD48961BF32D9 SWAP2 PUSH1 0x18 PUSH2 0x299A DUP6 DUP3 SLOAD PUSH2 0x4B4F JUMP JUMPDEST SWAP1 SSTORE MLOAD SWAP3 DUP4 MSTORE CALLER SWAP3 LOG3 PUSH2 0x29AD PUSH1 0x1 PUSH2 0x4B9F JUMP JUMPDEST DUP1 RETURN JUMPDEST DUP4 PUSH1 0x64 SWAP4 MLOAD SWAP3 PUSH3 0x461BCD PUSH1 0xE5 SHL DUP5 MSTORE DUP4 ADD MSTORE PUSH1 0x24 DUP3 ADD MSTORE PUSH22 0x14995DD85C99081D1C985B9CD9995C8819985A5B1959 PUSH1 0x52 SHL PUSH1 0x44 DUP3 ADD MSTORE REVERT JUMPDEST PUSH2 0x29FF SWAP2 POP DUP6 RETURNDATASIZE DUP8 GT PUSH2 0x5AE JUMPI PUSH2 0x5A0 DUP2 DUP4 PUSH2 0x3EC5 JUMP JUMPDEST DUP9 PUSH2 0x2962 JUMP JUMPDEST DUP5 MLOAD RETURNDATASIZE DUP11 DUP3 RETURNDATACOPY RETURNDATASIZE SWAP1 REVERT JUMPDEST DUP5 PUSH1 0x64 SWAP2 DUP9 DUP9 MLOAD SWAP3 PUSH3 0x461BCD PUSH1 0xE5 SHL DUP5 MSTORE DUP4 ADD MSTORE PUSH1 0x24 DUP3 ADD MSTORE PUSH21 0x139BC81C995DD85C991CC81D1BC81A185C9D995CDD PUSH1 0x5A SHL PUSH1 0x44 DUP3 ADD MSTORE REVERT JUMPDEST POP POP POP POP POP POP POP POP SWAP1 POP PUSH2 0x29AD SWAP2 SWAP3 POP PUSH2 0x4B9F JUMP JUMPDEST POP POP POP CALLVALUE PUSH2 0x5F1 JUMPI PUSH1 0x20 CALLDATASIZE PUSH1 0x3 NOT ADD SLT PUSH2 0x5F1 JUMPI PUSH1 0x20 SWAP2 DUP2 SWAP1 PUSH1 0x1 PUSH1 0x1 PUSH1 0xA0 SHL SUB PUSH2 0x2A86 PUSH2 0x3C59 JUMP JUMPDEST AND DUP2 MSTORE PUSH1 0x1F DUP5 MSTORE KECCAK256 SLOAD SWAP1 MLOAD SWAP1 DUP2 MSTORE RETURN JUMPDEST POP POP POP CALLVALUE PUSH2 0x5F1 JUMPI DUP2 PUSH1 0x3 NOT CALLDATASIZE ADD SLT PUSH2 0x5F1 JUMPI PUSH1 0x20 SWAP1 PUSH1 0xE SLOAD SWAP1 MLOAD SWAP1 DUP2 MSTORE RETURN JUMPDEST POP POP POP CALLVALUE PUSH2 0x5F1 JUMPI PUSH1 0x20 CALLDATASIZE PUSH1 0x3 NOT ADD SLT PUSH2 0x5F1 JUMPI PUSH1 0x20 SWAP2 PUSH1 0xFF SWAP1 DUP3 SWAP1 PUSH1 0x1 PUSH1 0x1 PUSH1 0xA0 SHL SUB PUSH2 0x2AE2 PUSH2 0x3C59 JUMP JUMPDEST AND DUP2 MSTORE PUSH1 0xF DUP6 MSTORE KECCAK256 SLOAD AND SWAP1 MLOAD SWAP1 ISZERO ISZERO DUP2 MSTORE RETURN JUMPDEST POP POP CALLVALUE PUSH2 0x3F2 JUMPI PUSH1 0x20 CALLDATASIZE PUSH1 0x3 NOT ADD SLT PUSH2 0x3F2 JUMPI DUP1 CALLDATALOAD SWAP1 PUSH2 0x2B3F CALLER PUSH32 0x0 PUSH1 0x1 PUSH1 0x1 PUSH1 0xA0 SHL SUB AND EQ PUSH2 0x3FEA JUMP JUMPDEST PUSH1 0x14 DUP3 GT PUSH2 0x2B81 JUMPI POP SWAP1 PUSH32 0xD968A3CC702265C3AB67356DF15CA21D50167B011F198B963E2A868E04E3D5E0 SWAP2 PUSH1 0x1C SLOAD SWAP1 DUP1 PUSH1 0x1C SSTORE DUP3 MLOAD SWAP2 DUP3 MSTORE PUSH1 0x20 DUP3 ADD MSTORE LOG1 DUP1 RETURN JUMPDEST PUSH1 0x64 SWAP1 PUSH1 0x20 DUP5 MLOAD SWAP2 PUSH3 0x461BCD PUSH1 0xE5 SHL DUP4 MSTORE DUP3 ADD MSTORE PUSH1 0x13 PUSH1 0x24 DUP3 ADD MSTORE PUSH19 0xA0CAE4C6CADCE8C2CECA40E8DEDE40D0D2CED PUSH1 0x6B SHL PUSH1 0x44 DUP3 ADD MSTORE REVERT JUMPDEST POP POP POP CALLVALUE PUSH2 0x5F1 JUMPI PUSH1 0x20 CALLDATASIZE PUSH1 0x3 NOT ADD SLT PUSH2 0x5F1 JUMPI PUSH1 0x20 SWAP2 PUSH1 0x1 PUSH1 0x1 PUSH1 0xA0 SHL SUB SWAP1 DUP3 SWAP1 DUP3 PUSH2 0x2BE5 PUSH2 0x3C59 JUMP JUMPDEST AND DUP2 MSTORE PUSH1 0x1D DUP6 MSTORE KECCAK256 SLOAD AND SWAP1 MLOAD SWAP1 DUP2 MSTORE RETURN JUMPDEST POP POP POP CALLVALUE PUSH2 0x5F1 JUMPI DUP2 PUSH1 0x3 NOT CALLDATASIZE ADD SLT PUSH2 0x5F1 JUMPI PUSH1 0x20 SWAP1 PUSH1 0x12 SLOAD SWAP1 MLOAD SWAP1 DUP2 MSTORE RETURN JUMPDEST POP POP POP CALLVALUE PUSH2 0x5F1 JUMPI DUP2 PUSH1 0x3 NOT CALLDATASIZE ADD SLT PUSH2 0x5F1 JUMPI PUSH1 0x3 SLOAD SWAP1 MLOAD PUSH1 0x1 PUSH1 0x1 PUSH1 0xA0 SHL SUB SWAP1 SWAP2 AND DUP2 MSTORE PUSH1 0x20 SWAP1 RETURN JUMPDEST POP POP POP CALLVALUE PUSH2 0x5F1 JUMPI PUSH1 0x20 CALLDATASIZE PUSH1 0x3 NOT ADD SLT PUSH2 0x5F1 JUMPI PUSH1 0x20 SWAP2 DUP2 SWAP1 PUSH1 0x1 PUSH1 0x1 PUSH1 0xA0 SHL SUB PUSH2 0x2C69 PUSH2 0x3C59 JUMP JUMPDEST AND DUP2 MSTORE PUSH1 0x22 DUP5 MSTORE KECCAK256 SLOAD SWAP1 MLOAD SWAP1 DUP2 MSTORE RETURN JUMPDEST POP POP POP CALLVALUE PUSH2 0x5F1 JUMPI CALLDATASIZE PUSH1 0x3 NOT ADD SLT PUSH2 0x6D0 JUMPI PUSH2 0x2C93 PUSH2 0x3C59 JUMP JUMPDEST PUSH1 0x24 CALLDATALOAD SWAP1 PUSH1 0x1 PUSH1 0x1 PUSH1 0xA0 SHL SUB SWAP1 PUSH2 0x2CCD CALLER PUSH32 0x0 DUP5 AND EQ PUSH2 0x3FEA JUMP JUMPDEST AND PUSH2 0x2CD9 DUP2 ISZERO ISZERO PUSH2 0x405F JUMP JUMPDEST PUSH2 0x2CE4 DUP3 ISZERO ISZERO PUSH2 0x409D JUMP JUMPDEST PUSH1 0x1 PUSH1 0x1 PUSH1 0x60 SHL SUB PUSH1 0xA0 SHL PUSH1 0x3 SLOAD AND OR PUSH1 0x3 SSTORE PUSH1 0xB SSTORE DUP1 RETURN JUMPDEST DUP3 DUP6 DUP6 CALLVALUE PUSH2 0x5F1 JUMPI DUP1 PUSH1 0x3 NOT CALLDATASIZE ADD SLT PUSH2 0x5F1 JUMPI DUP3 CALLDATALOAD PUSH1 0x24 CALLDATALOAD SWAP2 CALLER DUP5 MSTORE PUSH1 0x20 SWAP3 PUSH1 0xF DUP5 MSTORE PUSH2 0x2D30 PUSH1 0xFF DUP4 DUP8 KECCAK256 SLOAD AND ISZERO PUSH2 0x40D9 JUMP JUMPDEST PUSH1 0x14 SLOAD DUP4 LT PUSH2 0x2FA6 JUMPI DUP5 SLOAD PUSH1 0x1 PUSH1 0x1 PUSH1 0xA0 SHL SUB AND PUSH2 0x2D4F DUP2 ISZERO ISZERO PUSH2 0x4191 JUMP JUMPDEST PUSH1 0x1E DUP3 EQ DUP1 ISZERO PUSH2 0x2F9C JUMPI JUMPDEST DUP1 ISZERO PUSH2 0x2F92 JUMPI JUMPDEST DUP1 ISZERO PUSH2 0x2F87 JUMPI JUMPDEST ISZERO PUSH2 0x2F4E JUMPI DUP3 MLOAD PUSH4 0x23B872DD PUSH1 0xE0 SHL DUP2 MSTORE CALLER DUP2 DUP10 ADD SWAP1 DUP2 MSTORE ADDRESS PUSH1 0x20 DUP3 ADD MSTORE PUSH1 0x40 DUP2 ADD DUP7 SWAP1 MSTORE SWAP1 SWAP2 DUP7 SWAP2 DUP4 SWAP2 SWAP1 DUP3 SWAP1 DUP11 SWAP1 DUP3 SWAP1 PUSH1 0x60 ADD SUB SWAP3 GAS CALL SWAP1 DUP2 ISZERO PUSH2 0x1F5E JUMPI SWAP1 PUSH2 0x2DB9 SWAP2 DUP8 SWAP2 PUSH2 0x2F31 JUMPI POP PUSH2 0x4AFC JUMP JUMPDEST PUSH1 0x1A SLOAD SWAP4 PUSH2 0x2DC6 DUP6 PUSH2 0x4B40 JUMP JUMPDEST PUSH1 0x1A SSTORE DUP3 MLOAD PUSH2 0x2DD4 DUP2 PUSH2 0x3E3F JUMP JUMPDEST DUP6 DUP2 MSTORE DUP2 DUP2 ADD DUP6 DUP2 MSTORE DUP5 DUP3 ADD TIMESTAMP DUP2 MSTORE PUSH1 0x60 DUP4 ADD DUP6 DUP2 MSTORE PUSH1 0x80 DUP5 ADD SWAP1 TIMESTAMP DUP3 MSTORE PUSH1 0xA0 DUP6 ADD SWAP3 DUP12 DUP5 MSTORE PUSH1 0xC0 DUP7 ADD SWAP5 PUSH1 0x1 DUP7 MSTORE CALLER DUP14 MSTORE PUSH1 0x15 DUP9 MSTORE DUP10 DUP14 KECCAK256 DUP1 SLOAD SWAP1 PUSH1 0x1 PUSH1 0x40 SHL DUP3 LT ISZERO PUSH2 0x2F1D JUMPI SWAP1 PUSH2 0x2E2C SWAP2 PUSH1 0x1 DUP3 ADD DUP2 SSTORE PUSH2 0x3DD3 JUMP JUMPDEST SWAP8 SWAP1 SWAP8 PUSH2 0x2F0B JUMPI SWAP3 PUSH32 0xB4CAAF29ADDA3EEFEE3AD552A8E85058589BF834C7466CAE4EE58787F70589ED SWAP12 SWAP13 SWAP14 SWAP15 SWAP3 PUSH2 0x2E9B SWAP9 SWAP8 SWAP6 SWAP3 PUSH1 0x6 SWAP8 SWAP6 MLOAD DUP10 SSTORE MLOAD PUSH1 0x1 DUP10 ADD SSTORE MLOAD PUSH1 0x2 DUP9 ADD SSTORE MLOAD PUSH1 0x3 DUP8 ADD SSTORE MLOAD SWAP1 DUP6 ADD SSTORE MLOAD PUSH1 0x5 DUP5 ADD SSTORE MLOAD ISZERO ISZERO SWAP2 ADD SWAP1 PUSH1 0xFF DUP1 NOT DUP4 SLOAD AND SWAP2 ISZERO ISZERO AND OR SWAP1 SSTORE JUMP JUMPDEST DUP6 DUP8 MSTORE PUSH1 0x16 DUP2 MSTORE DUP3 DUP8 KECCAK256 CALLER PUSH1 0x1 PUSH1 0x1 PUSH1 0x60 SHL SUB PUSH1 0xA0 SHL DUP3 SLOAD AND OR SWAP1 SSTORE PUSH2 0x2EC3 DUP6 PUSH1 0x17 SLOAD PUSH2 0x4B4F JUMP JUMPDEST PUSH1 0x17 SSTORE CALLER DUP8 MSTORE PUSH1 0x1B DUP2 MSTORE DUP3 DUP8 KECCAK256 DUP1 SLOAD PUSH1 0xFF DUP2 AND ISZERO PUSH2 0x2EEC JUMPI JUMPDEST POP POP DUP3 MLOAD SWAP5 DUP6 MSTORE DUP5 ADD MSTORE CALLER SWAP3 LOG3 DUP1 RETURN JUMPDEST PUSH1 0xFF NOT AND PUSH1 0x1 OR SWAP1 SSTORE PUSH1 0x19 SLOAD PUSH2 0x2F01 SWAP1 PUSH2 0x4B40 JUMP JUMPDEST PUSH1 0x19 SSTORE DUP8 DUP1 PUSH2 0x2EDC JUMP JUMPDEST PUSH4 0x4E487B71 PUSH1 0xE0 SHL DUP15 MSTORE DUP14 DUP16 MSTORE PUSH1 0x24 DUP15 REVERT JUMPDEST DUP16 DUP16 PUSH1 0x41 PUSH1 0x24 SWAP3 PUSH4 0x4E487B71 PUSH1 0xE0 SHL DUP4 MSTORE MSTORE REVERT JUMPDEST PUSH2 0x2F48 SWAP2 POP DUP7 RETURNDATASIZE DUP9 GT PUSH2 0x5AE JUMPI PUSH2 0x5A0 DUP2 DUP4 PUSH2 0x3EC5 JUMP JUMPDEST DUP9 PUSH2 0x2465 JUMP JUMPDEST DUP3 MLOAD PUSH3 0x461BCD PUSH1 0xE5 SHL DUP2 MSTORE DUP1 DUP9 ADD DUP7 SWAP1 MSTORE PUSH1 0x13 PUSH1 0x24 DUP3 ADD MSTORE PUSH19 0x125B9D985B1A59081B1BD8DAC81C195C9A5BD9 PUSH1 0x6A SHL PUSH1 0x44 DUP3 ADD MSTORE PUSH1 0x64 SWAP1 REVERT JUMPDEST POP PUSH2 0x16D DUP3 EQ PUSH2 0x2D68 JUMP JUMPDEST POP PUSH1 0xB4 DUP3 EQ PUSH2 0x2D61 JUMP JUMPDEST POP PUSH1 0x5A DUP3 EQ PUSH2 0x2D5A JUMP JUMPDEST DUP2 MLOAD PUSH3 0x461BCD PUSH1 0xE5 SHL DUP2 MSTORE DUP1 DUP8 ADD DUP6 SWAP1 MSTORE PUSH1 0x1A PUSH1 0x24 DUP3 ADD MSTORE PUSH32 0x416D6F756E742062656C6F77206D696E696D756D207374616B65000000000000 PUSH1 0x44 DUP3 ADD MSTORE PUSH1 0x64 SWAP1 REVERT JUMPDEST POP POP SWAP1 CALLVALUE PUSH2 0x3F2 JUMPI CALLDATASIZE PUSH1 0x3 NOT ADD SLT PUSH2 0x5F1 JUMPI PUSH2 0x3003 PUSH2 0x3C59 JUMP JUMPDEST PUSH1 0x24 CALLDATALOAD SWAP2 SWAP1 PUSH1 0x1 PUSH1 0x1 PUSH1 0xA0 SHL SUB SWAP1 PUSH2 0x303E CALLER PUSH32 0x0 DUP5 AND EQ PUSH2 0x3FEA JUMP JUMPDEST AND PUSH2 0x304A DUP2 ISZERO ISZERO PUSH2 0x405F JUMP JUMPDEST PUSH2 0x3055 DUP4 ISZERO ISZERO PUSH2 0x409D JUMP JUMPDEST DUP2 SLOAD PUSH1 0x1 PUSH1 0x1 PUSH1 0xA0 SHL SUB NOT AND OR SWAP1 SSTORE PUSH1 0xC SSTORE DUP1 RETURN JUMPDEST POP POP CALLVALUE PUSH2 0x3F2 JUMPI PUSH2 0x14F0 SWAP1 PUSH2 0xFF6 CALLDATASIZE PUSH2 0x3CA2 JUMP JUMPDEST POP POP POP CALLVALUE PUSH2 0x5F1 JUMPI DUP2 PUSH1 0x3 NOT CALLDATASIZE ADD SLT PUSH2 0x5F1 JUMPI PUSH1 0x20 SWAP1 PUSH1 0x21 SLOAD SWAP1 MLOAD SWAP1 DUP2 MSTORE RETURN JUMPDEST POP POP SWAP2 CALLVALUE PUSH2 0x6D0 JUMPI PUSH1 0x20 SWAP3 DUP4 PUSH1 0x3 NOT CALLDATASIZE ADD SLT PUSH2 0x5F1 JUMPI DUP1 CALLDATALOAD SWAP1 CALLER DUP4 MSTORE PUSH1 0xF DUP6 MSTORE PUSH1 0xFF SWAP2 PUSH2 0x30D0 DUP4 DUP7 DUP7 KECCAK256 SLOAD AND ISZERO PUSH2 0x40D9 JUMP JUMPDEST DUP1 DUP5 MSTORE PUSH1 0x16 DUP7 MSTORE DUP5 DUP5 KECCAK256 SLOAD PUSH1 0x1 PUSH1 0x1 PUSH1 0xA0 SHL SUB SWAP7 SWAP1 PUSH2 0x30F2 SWAP1 DUP9 AND CALLER EQ PUSH2 0x4E37 JUMP JUMPDEST DUP5 SWAP6 DUP6 JUMPDEST CALLER DUP8 MSTORE PUSH1 0x15 DUP1 DUP5 MSTORE DUP3 DUP9 KECCAK256 DUP1 SLOAD DUP4 LT ISZERO PUSH2 0x33BA JUMPI PUSH2 0x3115 DUP4 DUP8 SWAP3 PUSH2 0x3DD3 JUMP JUMPDEST POP SLOAD EQ PUSH2 0x312B JUMPI POP PUSH2 0x3126 SWAP1 PUSH2 0x4B40 JUMP JUMPDEST PUSH2 0x30F6 JUMP JUMPDEST SWAP2 SWAP3 SWAP4 SWAP5 SWAP6 SWAP7 SWAP8 POP CALLER DUP9 MSTORE DUP2 DUP5 MSTORE PUSH2 0x3156 PUSH2 0x3148 DUP3 DUP6 DUP12 KECCAK256 PUSH2 0x3DD3 JUMP JUMPDEST POP SWAP8 PUSH1 0x6 DUP1 SWAP10 ADD SLOAD AND PUSH2 0x4BDD JUMP JUMPDEST CALLER DUP9 MSTORE DUP2 DUP5 MSTORE PUSH1 0x2 PUSH2 0x316A DUP3 DUP6 DUP12 KECCAK256 PUSH2 0x3DD3 JUMP JUMPDEST POP ADD SLOAD CALLER DUP10 MSTORE DUP3 DUP6 MSTORE PUSH1 0x3 PUSH2 0x3181 DUP4 DUP7 DUP13 KECCAK256 PUSH2 0x3DD3 JUMP JUMPDEST POP ADD SLOAD SWAP1 PUSH3 0x15180 SWAP2 DUP3 DUP2 MUL SWAP3 DUP2 DUP5 DIV EQ SWAP1 ISZERO OR ISZERO PUSH2 0x33A7 JUMPI SWAP10 PUSH2 0x31AC DUP7 SWAP3 DUP12 SWAP13 SWAP12 SWAP9 SWAP10 SWAP11 SWAP12 PUSH2 0x4B4F JUMP JUMPDEST SWAP3 PUSH2 0x31B6 DUP10 PUSH2 0x4C29 JUMP JUMPDEST SWAP11 CALLER DUP10 MSTORE DUP6 DUP5 MSTORE PUSH2 0x31C9 DUP3 DUP9 DUP12 KECCAK256 PUSH2 0x3DD3 JUMP JUMPDEST POP SWAP2 DUP8 PUSH1 0x1 DUP1 SWAP5 ADD SLOAD SWAP11 DUP1 SWAP8 TIMESTAMP LT PUSH2 0x334D JUMPI JUMPDEST SWAP1 PUSH2 0x31F2 SWAP3 SWAP2 PUSH2 0x3252 SWAP9 SWAP10 CALLER DUP3 MSTORE DUP9 MSTORE KECCAK256 PUSH2 0x3DD3 JUMP JUMPDEST POP ADD PUSH1 0xFF NOT DUP2 SLOAD AND SWAP1 SSTORE PUSH1 0x17 PUSH2 0x3209 DUP10 DUP3 SLOAD PUSH2 0x4C1C JUMP JUMPDEST SWAP1 SSTORE SWAP9 PUSH2 0x321F DUP12 PUSH2 0x321A DUP8 DUP12 PUSH2 0x4C1C JUMP JUMPDEST PUSH2 0x4B4F JUMP JUMPDEST DUP13 SLOAD DUP8 MLOAD PUSH4 0xA9059CBB PUSH1 0xE0 SHL DUP2 MSTORE CALLER SWAP4 DUP2 ADD SWAP4 DUP5 MSTORE PUSH1 0x20 DUP5 ADD SWAP3 SWAP1 SWAP3 MSTORE SWAP1 SWAP5 DUP6 SWAP4 SWAP1 SWAP2 AND SWAP2 DUP4 SWAP2 DUP15 SWAP2 DUP4 SWAP2 PUSH1 0x40 SWAP1 SWAP2 ADD SWAP1 JUMP JUMPDEST SUB SWAP3 GAS CALL SWAP1 DUP2 ISZERO PUSH2 0x3343 JUMPI SWAP8 PUSH2 0x3273 DUP8 SWAP3 PUSH2 0x32B3 SWAP11 DUP13 SWAP2 PUSH2 0x332C JUMPI POP PUSH2 0x4AFC JUMP JUMPDEST DUP1 PUSH2 0x32EC JUMPI JUMPDEST POP POP DUP1 ISZERO PUSH2 0x32BC JUMPI PUSH32 0x9C9EC3CFA814B0112B71C20D0B0AB54DEAD00A99FD389C174DF717D2F1D36403 SWAP3 DUP3 MLOAD SWAP5 DUP6 MSTORE DUP5 ADD MSTORE CALLER SWAP3 LOG3 PUSH2 0x4B9F JUMP JUMPDEST PUSH2 0x29AD CALLER PUSH2 0x4FF6 JUMP JUMPDEST POP SWAP1 PUSH32 0x7FC4727E062E336010F2C282598EF5F14FACB3DE68CF8195C2F23E1454B2B74E SWAP2 MLOAD SWAP3 DUP4 MSTORE CALLER SWAP3 LOG3 PUSH2 0x4B9F JUMP JUMPDEST PUSH1 0x18 PUSH2 0x32F9 DUP3 DUP3 SLOAD PUSH2 0x4B4F JUMP JUMPDEST SWAP1 SSTORE DUP4 MLOAD SWAP1 DUP2 MSTORE PUSH32 0xF87CFA2D5FEAEA949AD65BB76A26D8553381BCB6382ADBC83DEDD48961BF32D9 DUP6 CALLER SWAP3 LOG3 DUP5 CODESIZE PUSH2 0x3279 JUMP JUMPDEST PUSH2 0x2504 SWAP2 POP DUP8 RETURNDATASIZE DUP10 GT PUSH2 0x5AE JUMPI PUSH2 0x5A0 DUP2 DUP4 PUSH2 0x3EC5 JUMP JUMPDEST DUP4 MLOAD RETURNDATASIZE DUP12 DUP3 RETURNDATACOPY RETURNDATASIZE SWAP1 REVERT JUMPDEST POP POP SWAP2 SWAP4 POP SWAP2 SWAP4 POP PUSH1 0x5 DUP1 DUP10 MUL SWAP1 DUP10 DUP3 DIV EQ DUP10 ISZERO OR ISZERO PUSH2 0x3394 JUMPI SWAP2 PUSH2 0x31F2 DUP9 SWAP5 SWAP3 DUP9 DUP16 PUSH1 0x64 PUSH2 0x3252 SWAP10 SWAP8 DIV SWAP10 PUSH1 0x12 PUSH2 0x3386 DUP13 DUP3 SLOAD PUSH2 0x4B4F JUMP JUMPDEST SWAP1 SSTORE SWAP10 SWAP9 POP SWAP1 SWAP2 SWAP3 POP PUSH2 0x31DC JUMP JUMPDEST PUSH4 0x4E487B71 PUSH1 0xE0 SHL DUP14 MSTORE PUSH1 0x11 DUP12 MSTORE PUSH1 0x24 DUP14 REVERT JUMPDEST PUSH4 0x4E487B71 PUSH1 0xE0 SHL DUP11 MSTORE PUSH1 0x11 DUP9 MSTORE PUSH1 0x24 DUP11 REVERT JUMPDEST POP POP POP POP POP POP POP POP SWAP2 POP PUSH2 0x32B3 SWAP1 PUSH2 0x4B9F JUMP JUMPDEST POP POP CALLVALUE PUSH2 0x3F2 JUMPI PUSH2 0xE82 SWAP1 PUSH2 0xFF6 CALLDATASIZE PUSH2 0x3CA2 JUMP JUMPDEST POP POP DUP3 CALLVALUE PUSH2 0x6D0 JUMPI DUP1 PUSH1 0x3 NOT CALLDATASIZE ADD SLT PUSH2 0x6D0 JUMPI SWAP1 PUSH1 0x11 SLOAD SWAP1 PUSH2 0x3402 DUP3 PUSH2 0x56C3 JUMP JUMPDEST SWAP3 PUSH2 0x340F DUP6 MLOAD SWAP5 DUP6 PUSH2 0x3EC5 JUMP JUMPDEST DUP3 DUP5 MSTORE PUSH1 0x11 DUP2 MSTORE SWAP1 PUSH1 0x20 SWAP1 PUSH32 0x31ECC21A745E3968A04E9570E4425BC18FA8019C68028196B546D1669C200C68 SWAP1 DUP3 DUP7 ADD JUMPDEST DUP6 DUP6 LT PUSH2 0x3454 JUMPI DUP8 MLOAD DUP1 PUSH2 0x664 DUP10 DUP3 PUSH2 0x3D20 JUMP JUMPDEST PUSH1 0x7 DUP5 PUSH1 0x1 SWAP3 DUP11 MLOAD PUSH2 0x3465 DUP2 PUSH2 0x3E3F JUMP JUMPDEST DUP7 SLOAD DUP2 MSTORE DUP5 DUP1 PUSH1 0xA0 SHL SUB DUP1 DUP7 DUP10 ADD SLOAD AND DUP5 DUP4 ADD MSTORE DUP1 PUSH1 0x2 DUP10 ADD SLOAD AND DUP14 DUP4 ADD MSTORE PUSH1 0x3 DUP9 ADD SLOAD AND PUSH1 0x60 DUP3 ADD MSTORE DUP6 DUP8 ADD SLOAD PUSH1 0x80 DUP3 ADD MSTORE PUSH1 0x5 DUP8 ADD SLOAD PUSH1 0xA0 DUP3 ADD MSTORE PUSH2 0x34AE PUSH1 0x6 DUP9 ADD PUSH2 0x3EE7 JUMP JUMPDEST PUSH1 0xC0 DUP3 ADD MSTORE DUP2 MSTORE ADD SWAP4 ADD SWAP5 ADD SWAP4 SWAP2 PUSH2 0x3440 JUMP JUMPDEST POP POP DUP3 PUSH1 0x3 NOT CALLDATASIZE ADD SLT PUSH2 0x3F2 JUMPI CALLER DUP4 MSTORE PUSH1 0x20 PUSH1 0xF DUP2 MSTORE PUSH2 0x34E7 PUSH1 0xFF DUP5 DUP7 KECCAK256 SLOAD AND ISZERO PUSH2 0x40D9 JUMP JUMPDEST CALLVALUE ISZERO SWAP1 PUSH2 0x34F4 DUP3 ISZERO PUSH2 0x4155 JUMP JUMPDEST PUSH1 0x2 SLOAD PUSH1 0x1 PUSH1 0x1 PUSH1 0xA0 SHL SUB SWAP3 SWAP1 DUP4 AND SWAP1 PUSH2 0x350F DUP3 ISZERO ISZERO PUSH2 0x43B1 JUMP JUMPDEST PUSH3 0xF4240 SWAP1 DUP2 CALLVALUE MUL SWAP2 CALLVALUE DUP4 DIV EQ OR ISZERO PUSH2 0x1A54 JUMPI PUSH1 0x7 SLOAD PUSH2 0x352E SWAP2 PUSH2 0x41FB JUMP JUMPDEST SWAP4 DUP6 MLOAD PUSH4 0x70A08231 PUSH1 0xE0 SHL DUP2 MSTORE ADDRESS DUP3 DUP3 ADD MSTORE DUP4 DUP2 PUSH1 0x24 DUP2 DUP7 GAS STATICCALL DUP1 ISZERO PUSH2 0x2775 JUMPI DUP7 SWAP2 DUP10 SWAP2 PUSH2 0x3690 JUMPI JUMPDEST POP LT PUSH2 0x364D JUMPI DUP6 MLOAD PUSH4 0xA9059CBB PUSH1 0xE0 SHL DUP2 MSTORE CALLER SWAP2 DUP2 ADD SWAP2 DUP3 MSTORE PUSH1 0x20 DUP3 ADD DUP7 SWAP1 MSTORE SWAP4 SWAP3 SWAP2 DUP3 SWAP2 DUP6 SWAP2 SWAP1 DUP3 SWAP1 DUP11 SWAP1 DUP3 SWAP1 PUSH1 0x40 ADD SUB SWAP3 GAS CALL DUP1 ISZERO PUSH2 0x5B5 JUMPI PUSH32 0x48A1F8A6C840B32621CEAB4439A2CCD00B337E705DFDCDEC0B40C49ABF3E6BE3 SWAP4 PUSH2 0x35C6 SWAP3 DUP9 SWAP3 PUSH2 0x3630 JUMPI JUMPDEST POP POP PUSH2 0x43F3 JUMP JUMPDEST PUSH2 0x35FB DUP6 DUP1 DUP1 DUP1 CALLVALUE DUP7 PUSH32 0x0 AND GAS CALL PUSH2 0x1CBF PUSH2 0x4237 JUMP JUMPDEST PUSH2 0x360C DUP2 PUSH1 0x2 SLOAD AND DUP5 PUSH2 0x1CD1 PUSH2 0x4ADC JUMP JUMPDEST PUSH1 0x2 SLOAD SWAP4 MLOAD SWAP3 DUP4 MSTORE CALLVALUE PUSH1 0x20 DUP5 ADD MSTORE TIMESTAMP PUSH1 0x40 DUP5 ADD MSTORE SWAP1 SWAP3 AND SWAP2 CALLER SWAP2 DUP1 PUSH1 0x60 DUP2 ADD PUSH2 0x581 JUMP JUMPDEST PUSH2 0x3646 SWAP3 POP DUP1 RETURNDATASIZE LT PUSH2 0x5AE JUMPI PUSH2 0x5A0 DUP2 DUP4 PUSH2 0x3EC5 JUMP JUMPDEST CODESIZE DUP1 PUSH2 0x35BF JUMP JUMPDEST DUP6 MLOAD PUSH3 0x461BCD PUSH1 0xE5 SHL DUP2 MSTORE SWAP1 DUP2 ADD DUP4 SWAP1 MSTORE PUSH1 0x1B PUSH1 0x24 DUP3 ADD MSTORE PUSH32 0x496E73756666696369656E742055534443206C69717569646974790000000000 PUSH1 0x44 DUP3 ADD MSTORE PUSH1 0x64 SWAP1 REVERT JUMPDEST DUP1 SWAP3 POP DUP6 DUP1 SWAP3 POP RETURNDATASIZE DUP4 GT PUSH2 0x36BA JUMPI JUMPDEST PUSH2 0x36A9 DUP2 DUP4 PUSH2 0x3EC5 JUMP JUMPDEST DUP2 ADD SUB SLT PUSH2 0x1E50 JUMPI DUP6 SWAP1 MLOAD CODESIZE PUSH2 0x3557 JUMP JUMPDEST POP RETURNDATASIZE PUSH2 0x369F JUMP JUMPDEST POP POP POP CALLVALUE PUSH2 0x5F1 JUMPI DUP2 PUSH1 0x3 NOT CALLDATASIZE ADD SLT PUSH2 0x5F1 JUMPI PUSH1 0x20 DUP1 SLOAD SWAP2 MLOAD PUSH1 0x1 PUSH1 0x1 PUSH1 0xA0 SHL SUB SWAP1 SWAP3 AND DUP3 MSTORE SWAP1 RETURN JUMPDEST POP POP POP CALLVALUE PUSH2 0x5F1 JUMPI PUSH1 0x20 CALLDATASIZE PUSH1 0x3 NOT ADD SLT PUSH2 0x5F1 JUMPI PUSH1 0x80 SWAP2 PUSH1 0x1 PUSH1 0x1 PUSH1 0xA0 SHL SUB DUP1 PUSH2 0x3712 PUSH2 0x3C59 JUMP JUMPDEST AND DUP3 MSTORE PUSH1 0x1D PUSH1 0x20 MSTORE DUP3 DUP3 KECCAK256 SLOAD AND SWAP2 PUSH1 0x1E PUSH1 0x20 MSTORE DUP1 DUP1 DUP4 KECCAK256 SLOAD SWAP3 PUSH1 0x1F PUSH1 0x20 MSTORE KECCAK256 SLOAD SWAP1 PUSH1 0x1C SLOAD SWAP3 DUP2 MLOAD SWAP5 DUP6 MSTORE PUSH1 0x20 DUP6 ADD MSTORE DUP4 ADD MSTORE PUSH1 0x60 DUP3 ADD MSTORE RETURN JUMPDEST POP POP POP CALLVALUE PUSH2 0x5F1 JUMPI DUP2 PUSH1 0x3 NOT CALLDATASIZE ADD SLT PUSH2 0x5F1 JUMPI PUSH1 0x20 SWAP1 PUSH1 0x13 SLOAD SWAP1 MLOAD SWAP1 DUP2 MSTORE RETURN JUMPDEST DUP3 DUP6 DUP6 DUP2 PUSH1 0x3 NOT CALLDATASIZE ADD SLT PUSH2 0x5F1 JUMPI CALLER DUP3 MSTORE PUSH1 0xF PUSH1 0x20 MSTORE PUSH2 0x3791 PUSH1 0xFF DUP3 DUP5 KECCAK256 SLOAD AND ISZERO PUSH2 0x40D9 JUMP JUMPDEST CALLVALUE ISZERO SWAP1 PUSH2 0x379E DUP3 ISZERO PUSH2 0x4155 JUMP JUMPDEST DUP3 SLOAD PUSH1 0x1 PUSH1 0x1 PUSH1 0xA0 SHL SUB SWAP3 SWAP1 PUSH2 0x1C43 SWAP1 DUP5 AND ISZERO ISZERO PUSH2 0x4191 JUMP JUMPDEST POP POP POP CALLVALUE PUSH2 0x5F1 JUMPI CALLDATASIZE PUSH1 0x3 NOT ADD SLT PUSH2 0x6D0 JUMPI PUSH2 0x37D1 PUSH2 0x3C59 JUMP JUMPDEST PUSH1 0x24 CALLDATALOAD SWAP1 PUSH1 0x1 PUSH1 0x1 PUSH1 0xA0 SHL SUB SWAP1 PUSH2 0x380B CALLER PUSH32 0x0 DUP5 AND EQ PUSH2 0x3FEA JUMP JUMPDEST AND PUSH2 0x3817 DUP2 ISZERO ISZERO PUSH2 0x405F JUMP JUMPDEST PUSH2 0x3822 DUP3 ISZERO ISZERO PUSH2 0x409D JUMP JUMPDEST PUSH1 0x1 PUSH1 0x1 PUSH1 0x60 SHL SUB PUSH1 0xA0 SHL PUSH1 0x2 SLOAD AND OR PUSH1 0x2 SSTORE PUSH1 0x9 SSTORE DUP1 RETURN JUMPDEST POP POP POP CALLVALUE PUSH2 0x5F1 JUMPI DUP2 PUSH1 0x3 NOT CALLDATASIZE ADD SLT PUSH2 0x5F1 JUMPI PUSH1 0x5 SLOAD SWAP1 MLOAD PUSH1 0x1 PUSH1 0x1 PUSH1 0xA0 SHL SUB SWAP1 SWAP2 AND DUP2 MSTORE PUSH1 0x20 SWAP1 RETURN JUMPDEST POP POP POP CALLVALUE PUSH2 0x5F1 JUMPI DUP2 PUSH1 0x3 NOT CALLDATASIZE ADD SLT PUSH2 0x5F1 JUMPI PUSH1 0x20 SWAP1 PUSH1 0xC SLOAD SWAP1 MLOAD SWAP1 DUP2 MSTORE RETURN JUMPDEST POP POP POP CALLVALUE PUSH2 0x5F1 JUMPI DUP1 PUSH1 0x3 NOT CALLDATASIZE ADD SLT PUSH2 0x5F1 JUMPI PUSH2 0x38A0 PUSH2 0x3C59 JUMP JUMPDEST SWAP1 PUSH1 0x24 CALLDATALOAD SWAP2 DUP3 ISZERO ISZERO DUP1 DUP5 SUB PUSH2 0x1D6C JUMPI PUSH32 0xDDA6207409A585801122FB885DCAA8074F9A21F25FF2DEF680C67F01A86C2C9B SWAP3 PUSH1 0x20 SWAP3 PUSH2 0x392B SWAP1 PUSH1 0x1 PUSH1 0x1 PUSH1 0xA0 SHL SUB SWAP1 PUSH2 0x390E CALLER PUSH32 0x0 DUP5 AND EQ PUSH2 0x3FEA JUMP JUMPDEST AND SWAP6 DUP7 DUP9 MSTORE PUSH1 0xF DUP6 MSTORE DUP3 DUP9 KECCAK256 SWAP1 PUSH1 0xFF DUP1 NOT DUP4 SLOAD AND SWAP2 ISZERO ISZERO AND OR SWAP1 SSTORE JUMP JUMPDEST MLOAD SWAP1 DUP2 MSTORE LOG2 DUP1 RETURN JUMPDEST POP POP CALLVALUE PUSH2 0x3F2 JUMPI PUSH2 0x44A SWAP1 PUSH2 0xFF6 CALLDATASIZE PUSH2 0x3CA2 JUMP JUMPDEST DUP4 DUP6 DUP5 CALLVALUE PUSH2 0x5F1 JUMPI PUSH1 0x20 SWAP1 DUP2 PUSH1 0x3 NOT CALLDATASIZE ADD SLT PUSH2 0x3F2 JUMPI CALLDATALOAD SWAP3 DUP4 DUP4 MSTORE PUSH1 0x16 DUP3 MSTORE PUSH1 0x1 DUP1 PUSH1 0xA0 SHL SUB DUP2 DUP5 KECCAK256 SLOAD AND SWAP3 PUSH2 0x397E DUP5 ISZERO ISZERO PUSH2 0x4B5C JUMP JUMPDEST PUSH2 0x3986 PUSH2 0x5730 JUMP JUMPDEST DUP2 SWAP6 DUP3 JUMPDEST DUP7 DUP5 MSTORE PUSH1 0x15 DUP1 DUP8 MSTORE DUP6 DUP6 KECCAK256 DUP1 SLOAD DUP4 LT ISZERO PUSH2 0x3A05 JUMPI PUSH2 0x39A9 DUP4 DUP6 SWAP3 PUSH2 0x3DD3 JUMP JUMPDEST POP SLOAD EQ PUSH2 0x39BF JUMPI POP PUSH2 0x39BA SWAP1 PUSH2 0x4B40 JUMP JUMPDEST PUSH2 0x398A JUMP JUMPDEST PUSH1 0x80 SWAP9 POP PUSH2 0x147E SWAP4 POP DUP6 SWAP2 SWAP3 POP SWAP4 PUSH2 0x39DC SWAP5 DUP9 DUP3 MSTORE DUP8 MSTORE KECCAK256 PUSH2 0x3DD3 JUMP JUMPDEST SWAP1 PUSH2 0x39E7 PUSH1 0x1 PUSH2 0x4B9F JUMP JUMPDEST DUP2 MLOAD SWAP4 DUP2 DUP5 DUP5 ADD MLOAD SWAP4 ADD MLOAD SWAP4 DUP3 MLOAD SWAP6 DUP7 MSTORE DUP6 ADD MSTORE DUP4 ADD MSTORE PUSH1 0x60 DUP3 ADD MSTORE RETURN JUMPDEST POP POP POP POP SWAP2 SWAP1 POP PUSH2 0x39E7 PUSH1 0x80 SWAP6 PUSH2 0x4B9F JUMP JUMPDEST POP POP SWAP1 CALLVALUE PUSH2 0x3F2 JUMPI DUP1 PUSH1 0x3 NOT CALLDATASIZE ADD SLT PUSH2 0x3F2 JUMPI PUSH2 0x3A32 PUSH2 0x3C59 JUMP JUMPDEST PUSH1 0x24 CALLDATALOAD SWAP1 PUSH32 0x0 PUSH1 0x1 PUSH1 0x1 PUSH1 0xA0 SHL SUB PUSH2 0x3A6C CALLER DUP3 DUP5 AND EQ PUSH2 0x3FEA JUMP JUMPDEST DUP1 DUP8 SLOAD AND SWAP3 AND SWAP2 DUP3 EQ PUSH2 0x3B27 JUMPI JUMPDEST DUP4 MLOAD PUSH4 0xA9059CBB PUSH1 0xE0 SHL DUP2 MSTORE PUSH1 0x1 PUSH1 0x1 PUSH1 0xA0 SHL SUB SWAP1 SWAP2 AND DUP6 DUP3 ADD SWAP1 DUP2 MSTORE PUSH1 0x20 DUP2 DUP2 ADD SWAP5 SWAP1 SWAP5 MSTORE SWAP1 SWAP3 SWAP2 DUP4 SWAP2 DUP3 SWAP1 DUP9 SWAP1 DUP3 SWAP1 PUSH1 0x40 ADD SUB SWAP3 GAS CALL SWAP1 DUP2 ISZERO PUSH2 0x3B1D JUMPI DUP5 SWAP2 PUSH2 0x3AFF JUMPI JUMPDEST POP ISZERO PUSH2 0x3ACA JUMPI DUP3 DUP1 RETURN JUMPDEST SWAP1 PUSH1 0x20 PUSH1 0x64 SWAP3 MLOAD SWAP2 PUSH3 0x461BCD PUSH1 0xE5 SHL DUP4 MSTORE DUP3 ADD MSTORE PUSH1 0xF PUSH1 0x24 DUP3 ADD MSTORE PUSH15 0x151C985B9CD9995C8819985A5B1959 PUSH1 0x8A SHL PUSH1 0x44 DUP3 ADD MSTORE REVERT JUMPDEST PUSH2 0x3B17 SWAP2 POP PUSH1 0x20 RETURNDATASIZE DUP2 GT PUSH2 0x5AE JUMPI PUSH2 0x5A0 DUP2 DUP4 PUSH2 0x3EC5 JUMP JUMPDEST CODESIZE PUSH2 0x3AC0 JUMP JUMPDEST DUP3 MLOAD RETURNDATASIZE DUP7 DUP3 RETURNDATACOPY RETURNDATASIZE SWAP1 REVERT JUMPDEST DUP4 MLOAD PUSH4 0x70A08231 PUSH1 0xE0 SHL DUP2 MSTORE ADDRESS DUP7 DUP3 ADD MSTORE PUSH1 0x20 DUP2 PUSH1 0x24 DUP2 DUP7 GAS STATICCALL DUP1 ISZERO PUSH2 0x3BDD JUMPI DUP8 SWAP1 PUSH2 0x3BA6 JUMPI JUMPDEST PUSH2 0x3B5C SWAP2 POP PUSH1 0x17 SLOAD SWAP1 PUSH2 0x4C1C JUMP JUMPDEST DUP4 GT ISZERO PUSH2 0x3A7A JUMPI DUP4 MLOAD PUSH3 0x461BCD PUSH1 0xE5 SHL DUP2 MSTORE PUSH1 0x20 DUP2 DUP8 ADD MSTORE PUSH1 0x1D PUSH1 0x24 DUP3 ADD MSTORE PUSH32 0x43616E6E6F74207769746864726177207374616B656420746F6B656E73000000 PUSH1 0x44 DUP3 ADD MSTORE PUSH1 0x64 SWAP1 REVERT JUMPDEST POP PUSH1 0x20 DUP2 RETURNDATASIZE DUP3 GT PUSH2 0x3BD5 JUMPI JUMPDEST DUP2 PUSH2 0x3BBF PUSH1 0x20 SWAP4 DUP4 PUSH2 0x3EC5 JUMP JUMPDEST DUP2 ADD SUB SLT PUSH2 0x3BD1 JUMPI PUSH2 0x3B5C SWAP1 MLOAD PUSH2 0x3B4E JUMP JUMPDEST DUP7 DUP1 REVERT JUMPDEST RETURNDATASIZE SWAP2 POP PUSH2 0x3BB2 JUMP JUMPDEST DUP6 MLOAD RETURNDATASIZE DUP10 DUP3 RETURNDATACOPY RETURNDATASIZE SWAP1 REVERT JUMPDEST POP POP CALLVALUE PUSH2 0x3F2 JUMPI PUSH1 0x20 CALLDATASIZE PUSH1 0x3 NOT ADD SLT PUSH2 0x3F2 JUMPI DUP1 CALLDATALOAD CALLER DUP5 MSTORE PUSH1 0xF PUSH1 0x20 MSTORE PUSH2 0x1907 PUSH1 0xFF DUP5 DUP7 KECCAK256 SLOAD AND ISZERO PUSH2 0x40D9 JUMP JUMPDEST POP POP POP CALLVALUE PUSH2 0x5F1 JUMPI DUP2 PUSH1 0x3 NOT CALLDATASIZE ADD SLT PUSH2 0x5F1 JUMPI PUSH1 0x20 SWAP1 PUSH1 0xA SLOAD SWAP1 MLOAD SWAP1 DUP2 MSTORE RETURN JUMPDEST DUP6 SWAP1 CALLVALUE PUSH2 0x5F1 JUMPI DUP2 PUSH1 0x3 NOT CALLDATASIZE ADD SLT PUSH2 0x5F1 JUMPI PUSH1 0x2 SLOAD PUSH1 0x1 PUSH1 0x1 PUSH1 0xA0 SHL SUB AND DUP2 MSTORE PUSH1 0x20 SWAP1 RETURN JUMPDEST PUSH1 0x4 CALLDATALOAD SWAP1 PUSH1 0x1 PUSH1 0x1 PUSH1 0xA0 SHL SUB DUP3 AND DUP3 SUB PUSH2 0x3C6F JUMPI JUMP JUMPDEST PUSH1 0x0 DUP1 REVERT JUMPDEST SWAP2 DUP2 PUSH1 0x1F DUP5 ADD SLT ISZERO PUSH2 0x3C6F JUMPI DUP3 CALLDATALOAD SWAP2 PUSH8 0xFFFFFFFFFFFFFFFF DUP4 GT PUSH2 0x3C6F JUMPI PUSH1 0x20 DUP4 DUP2 DUP7 ADD SWAP6 ADD ADD GT PUSH2 0x3C6F JUMPI JUMP JUMPDEST SWAP1 PUSH1 0x3 NOT DUP3 ADD PUSH1 0xC0 DUP2 SLT PUSH2 0x3C6F JUMPI PUSH1 0x80 SGT PUSH2 0x3C6F JUMPI PUSH1 0x4 SWAP2 PUSH1 0x84 CALLDATALOAD SWAP1 PUSH8 0xFFFFFFFFFFFFFFFF DUP3 GT PUSH2 0x3C6F JUMPI PUSH2 0x3CD8 SWAP2 DUP5 ADD PUSH2 0x3C74 JUMP JUMPDEST SWAP1 SWAP2 PUSH1 0xA4 CALLDATALOAD SWAP1 JUMP JUMPDEST SWAP2 SWAP1 DUP3 MLOAD SWAP3 DUP4 DUP3 MSTORE PUSH1 0x0 JUMPDEST DUP5 DUP2 LT PUSH2 0x3D0C JUMPI POP POP DUP3 PUSH1 0x0 PUSH1 0x20 DUP1 SWAP5 SWAP6 DUP5 ADD ADD MSTORE PUSH1 0x1F DUP1 NOT SWAP2 ADD AND ADD ADD SWAP1 JUMP JUMPDEST PUSH1 0x20 DUP2 DUP4 ADD DUP2 ADD MLOAD DUP5 DUP4 ADD DUP3 ADD MSTORE ADD PUSH2 0x3CEB JUMP JUMPDEST PUSH1 0x20 DUP1 DUP3 ADD SWAP1 DUP1 DUP4 MSTORE DUP4 MLOAD DUP1 SWAP3 MSTORE PUSH1 0x40 SWAP3 DUP4 DUP2 ADD DUP3 DUP6 DUP6 PUSH1 0x5 SHL DUP5 ADD ADD SWAP7 ADD SWAP5 PUSH1 0x0 SWAP3 JUMPDEST DUP6 DUP5 LT PUSH2 0x3D55 JUMPI POP POP POP POP POP POP POP SWAP1 JUMP JUMPDEST SWAP1 SWAP2 SWAP3 SWAP4 SWAP5 SWAP6 SWAP7 DUP6 DUP1 PUSH2 0x3DC2 PUSH1 0x1 SWAP4 PUSH1 0x3F NOT DUP7 DUP3 SUB ADD DUP9 MSTORE DUP12 MLOAD DUP1 MLOAD DUP3 MSTORE DUP6 DUP1 PUSH1 0xA0 SHL SUB DUP1 DUP6 DUP4 ADD MLOAD AND DUP6 DUP5 ADD MSTORE DUP1 DUP10 DUP4 ADD MLOAD AND DUP10 DUP5 ADD MSTORE PUSH1 0x60 SWAP1 DUP2 DUP4 ADD MLOAD AND SWAP1 DUP4 ADD MSTORE PUSH1 0x80 DUP1 DUP3 ADD MLOAD SWAP1 DUP4 ADD MSTORE PUSH1 0xA0 DUP1 DUP3 ADD MLOAD SWAP1 DUP4 ADD MSTORE PUSH1 0xC0 DUP1 SWAP2 ADD MLOAD SWAP2 PUSH1 0xE0 DUP1 SWAP3 DUP3 ADD MSTORE ADD SWAP1 PUSH2 0x3CE0 JUMP JUMPDEST SWAP10 ADD SWAP5 ADD SWAP5 ADD SWAP3 SWAP6 SWAP5 SWAP4 SWAP2 SWAP1 PUSH2 0x3D44 JUMP JUMPDEST DUP1 SLOAD DUP3 LT ISZERO PUSH2 0x3DEF JUMPI PUSH1 0x0 MSTORE PUSH1 0x7 PUSH1 0x20 PUSH1 0x0 KECCAK256 SWAP2 MUL ADD SWAP1 PUSH1 0x0 SWAP1 JUMP JUMPDEST PUSH4 0x4E487B71 PUSH1 0xE0 SHL PUSH1 0x0 MSTORE PUSH1 0x32 PUSH1 0x4 MSTORE PUSH1 0x24 PUSH1 0x0 REVERT JUMPDEST SWAP1 PUSH1 0x1 DUP3 DUP2 SHR SWAP3 AND DUP1 ISZERO PUSH2 0x3E35 JUMPI JUMPDEST PUSH1 0x20 DUP4 LT EQ PUSH2 0x3E1F JUMPI JUMP JUMPDEST PUSH4 0x4E487B71 PUSH1 0xE0 SHL PUSH1 0x0 MSTORE PUSH1 0x22 PUSH1 0x4 MSTORE PUSH1 0x24 PUSH1 0x0 REVERT JUMPDEST SWAP2 PUSH1 0x7F AND SWAP2 PUSH2 0x3E14 JUMP JUMPDEST PUSH1 0xE0 DUP2 ADD SWAP1 DUP2 LT PUSH8 0xFFFFFFFFFFFFFFFF DUP3 GT OR PUSH2 0x3E5B JUMPI PUSH1 0x40 MSTORE JUMP JUMPDEST PUSH4 0x4E487B71 PUSH1 0xE0 SHL PUSH1 0x0 MSTORE PUSH1 0x41 PUSH1 0x4 MSTORE PUSH1 0x24 PUSH1 0x0 REVERT JUMPDEST PUSH1 0xC0 DUP2 ADD SWAP1 DUP2 LT PUSH8 0xFFFFFFFFFFFFFFFF DUP3 GT OR PUSH2 0x3E5B JUMPI PUSH1 0x40 MSTORE JUMP JUMPDEST PUSH1 0x80 DUP2 ADD SWAP1 DUP2 LT PUSH8 0xFFFFFFFFFFFFFFFF DUP3 GT OR PUSH2 0x3E5B JUMPI PUSH1 0x40 MSTORE JUMP JUMPDEST PUSH1 0x40 DUP2 ADD SWAP1 DUP2 LT PUSH8 0xFFFFFFFFFFFFFFFF DUP3 GT OR PUSH2 0x3E5B JUMPI PUSH1 0x40 MSTORE JUMP JUMPDEST SWAP1 PUSH1 0x1F DUP1 NOT SWAP2 ADD AND DUP2 ADD SWAP1 DUP2 LT PUSH8 0xFFFFFFFFFFFFFFFF DUP3 GT OR PUSH2 0x3E5B JUMPI PUSH1 0x40 MSTORE JUMP JUMPDEST SWAP1 PUSH1 0x40 MLOAD SWAP2 DUP3 PUSH1 0x0 DUP3 SLOAD SWAP3 PUSH2 0x3EFB DUP5 PUSH2 0x3E05 JUMP JUMPDEST SWAP1 DUP2 DUP5 MSTORE PUSH1 0x1 SWAP5 DUP6 DUP2 AND SWAP1 DUP2 PUSH1 0x0 EQ PUSH2 0x3F6A JUMPI POP PUSH1 0x1 EQ PUSH2 0x3F27 JUMPI JUMPDEST POP POP PUSH2 0x3F25 SWAP3 POP SUB DUP4 PUSH2 0x3EC5 JUMP JUMPDEST JUMP JUMPDEST SWAP1 SWAP4 SWAP2 POP PUSH1 0x0 MSTORE PUSH1 0x20 SWAP1 DUP2 PUSH1 0x0 KECCAK256 SWAP4 PUSH1 0x0 SWAP2 JUMPDEST DUP2 DUP4 LT PUSH2 0x3F52 JUMPI POP POP PUSH2 0x3F25 SWAP4 POP DUP3 ADD ADD CODESIZE DUP1 PUSH2 0x3F17 JUMP JUMPDEST DUP6 SLOAD DUP9 DUP5 ADD DUP6 ADD MSTORE SWAP5 DUP6 ADD SWAP5 DUP8 SWAP5 POP SWAP2 DUP4 ADD SWAP2 PUSH2 0x3F3A JUMP JUMPDEST SWAP2 POP POP PUSH2 0x3F25 SWAP5 POP PUSH1 0x20 SWAP3 POP PUSH1 0xFF NOT AND DUP3 DUP5 ADD MSTORE ISZERO ISZERO PUSH1 0x5 SHL DUP3 ADD ADD CODESIZE DUP1 PUSH2 0x3F17 JUMP JUMPDEST SWAP4 PUSH1 0xE0 SWAP6 SWAP3 PUSH2 0x3FCF SWAP9 SWAP8 SWAP5 SWAP3 DUP7 MSTORE PUSH1 0x1 DUP1 PUSH1 0xA0 SHL SUB SWAP3 DUP4 DUP1 SWAP3 AND PUSH1 0x20 DUP9 ADD MSTORE AND PUSH1 0x40 DUP7 ADD MSTORE AND PUSH1 0x60 DUP5 ADD MSTORE PUSH1 0x80 DUP4 ADD MSTORE PUSH1 0xA0 DUP3 ADD MSTORE DUP2 PUSH1 0xC0 DUP3 ADD MSTORE ADD SWAP1 PUSH2 0x3CE0 JUMP JUMPDEST SWAP1 JUMP JUMPDEST DUP1 SLOAD DUP3 LT ISZERO PUSH2 0x3DEF JUMPI PUSH1 0x0 MSTORE PUSH1 0x20 PUSH1 0x0 KECCAK256 ADD SWAP1 PUSH1 0x0 SWAP1 JUMP JUMPDEST ISZERO PUSH2 0x3FF1 JUMPI JUMP JUMPDEST PUSH1 0x40 MLOAD PUSH3 0x461BCD PUSH1 0xE5 SHL DUP2 MSTORE PUSH1 0x20 PUSH1 0x4 DUP3 ADD MSTORE PUSH1 0xA PUSH1 0x24 DUP3 ADD MSTORE PUSH10 0x27B7363C9037BBB732B9 PUSH1 0xB1 SHL PUSH1 0x44 DUP3 ADD MSTORE PUSH1 0x64 SWAP1 REVERT JUMPDEST ISZERO PUSH2 0x402A JUMPI JUMP JUMPDEST PUSH1 0x40 MLOAD PUSH3 0x461BCD PUSH1 0xE5 SHL DUP2 MSTORE PUSH1 0x20 PUSH1 0x4 DUP3 ADD MSTORE PUSH1 0xD PUSH1 0x24 DUP3 ADD MSTORE PUSH13 0x496E76616C6964207072696365 PUSH1 0x98 SHL PUSH1 0x44 DUP3 ADD MSTORE PUSH1 0x64 SWAP1 REVERT JUMPDEST ISZERO PUSH2 0x4066 JUMPI JUMP JUMPDEST PUSH1 0x40 MLOAD PUSH3 0x461BCD PUSH1 0xE5 SHL DUP2 MSTORE PUSH1 0x20 PUSH1 0x4 DUP3 ADD MSTORE PUSH1 0xF PUSH1 0x24 DUP3 ADD MSTORE PUSH15 0x496E76616C69642061646472657373 PUSH1 0x88 SHL PUSH1 0x44 DUP3 ADD MSTORE PUSH1 0x64 SWAP1 REVERT JUMPDEST ISZERO PUSH2 0x40A4 JUMPI JUMP JUMPDEST PUSH1 0x40 MLOAD PUSH3 0x461BCD PUSH1 0xE5 SHL DUP2 MSTORE PUSH1 0x20 PUSH1 0x4 DUP3 ADD MSTORE PUSH1 0xD PUSH1 0x24 DUP3 ADD MSTORE PUSH13 0x496E76616C696420726174696F PUSH1 0x98 SHL PUSH1 0x44 DUP3 ADD MSTORE PUSH1 0x64 SWAP1 REVERT JUMPDEST ISZERO PUSH2 0x40E0 JUMPI JUMP JUMPDEST PUSH1 0x40 MLOAD PUSH3 0x461BCD PUSH1 0xE5 SHL DUP2 MSTORE PUSH1 0x20 PUSH1 0x4 DUP3 ADD MSTORE PUSH1 0x12 PUSH1 0x24 DUP3 ADD MSTORE PUSH18 0x1059191C995CDCC81A5CC8189B1BD8DAD959 PUSH1 0x72 SHL PUSH1 0x44 DUP3 ADD MSTORE PUSH1 0x64 SWAP1 REVERT JUMPDEST DUP1 SLOAD PUSH1 0x1 PUSH1 0x40 SHL DUP2 LT ISZERO PUSH2 0x3E5B JUMPI PUSH2 0x4137 SWAP2 PUSH1 0x1 DUP3 ADD DUP2 SSTORE PUSH2 0x3FD2 JUMP JUMPDEST DUP2 SWAP3 SWAP2 SLOAD SWAP1 PUSH1 0x3 SHL SWAP2 PUSH1 0x1 DUP1 PUSH1 0xA0 SHL SUB DUP1 SWAP2 AND DUP4 SHL SWAP3 SHL NOT AND OR SWAP1 SSTORE JUMP JUMPDEST ISZERO PUSH2 0x415C JUMPI JUMP JUMPDEST PUSH1 0x40 MLOAD PUSH3 0x461BCD PUSH1 0xE5 SHL DUP2 MSTORE PUSH1 0x20 PUSH1 0x4 DUP3 ADD MSTORE PUSH1 0xD PUSH1 0x24 DUP3 ADD MSTORE PUSH13 0x26BAB9BA1039B2B73210212721 PUSH1 0x99 SHL PUSH1 0x44 DUP3 ADD MSTORE PUSH1 0x64 SWAP1 REVERT JUMPDEST ISZERO PUSH2 0x4198 JUMPI JUMP JUMPDEST PUSH1 0x40 MLOAD PUSH3 0x461BCD PUSH1 0xE5 SHL DUP2 MSTORE PUSH1 0x20 PUSH1 0x4 DUP3 ADD MSTORE PUSH1 0x12 PUSH1 0x24 DUP3 ADD MSTORE PUSH18 0x14D85B19481D1BDAD95B881B9BDD081CD95D PUSH1 0x72 SHL PUSH1 0x44 DUP3 ADD MSTORE PUSH1 0x64 SWAP1 REVERT JUMPDEST DUP2 DUP2 MUL SWAP3 SWAP2 DUP2 ISZERO SWAP2 DUP5 DIV EQ OR ISZERO PUSH2 0x41E5 JUMPI JUMP JUMPDEST PUSH4 0x4E487B71 PUSH1 0xE0 SHL PUSH1 0x0 MSTORE PUSH1 0x11 PUSH1 0x4 MSTORE PUSH1 0x24 PUSH1 0x0 REVERT JUMPDEST DUP2 ISZERO PUSH2 0x4205 JUMPI DIV SWAP1 JUMP JUMPDEST PUSH4 0x4E487B71 PUSH1 0xE0 SHL PUSH1 0x0 MSTORE PUSH1 0x12 PUSH1 0x4 MSTORE PUSH1 0x24 PUSH1 0x0 REVERT JUMPDEST PUSH8 0xFFFFFFFFFFFFFFFF DUP2 GT PUSH2 0x3E5B JUMPI PUSH1 0x1F ADD PUSH1 0x1F NOT AND PUSH1 0x20 ADD SWAP1 JUMP JUMPDEST RETURNDATASIZE ISZERO PUSH2 0x4262 JUMPI RETURNDATASIZE SWAP1 PUSH2 0x4248 DUP3 PUSH2 0x421B JUMP JUMPDEST SWAP2 PUSH2 0x4256 PUSH1 0x40 MLOAD SWAP4 DUP5 PUSH2 0x3EC5 JUMP JUMPDEST DUP3 MSTORE RETURNDATASIZE PUSH1 0x0 PUSH1 0x20 DUP5 ADD RETURNDATACOPY JUMP JUMPDEST PUSH1 0x60 SWAP1 JUMP JUMPDEST ISZERO PUSH2 0x426E JUMPI JUMP JUMPDEST PUSH1 0x40 MLOAD PUSH3 0x461BCD PUSH1 0xE5 SHL DUP2 MSTORE PUSH1 0x20 PUSH1 0x4 DUP3 ADD MSTORE PUSH1 0x13 PUSH1 0x24 DUP3 ADD MSTORE PUSH19 0x109390881D1C985B9CD9995C8819985A5B1959 PUSH1 0x6A SHL PUSH1 0x44 DUP3 ADD MSTORE PUSH1 0x64 SWAP1 REVERT JUMPDEST PUSH1 0x40 MLOAD SWAP1 PUSH2 0x42B6 DUP3 PUSH2 0x3EA9 JUMP JUMPDEST PUSH1 0x3 DUP3 MSTORE PUSH3 0x425559 PUSH1 0xE8 SHL PUSH1 0x20 DUP4 ADD MSTORE JUMP JUMPDEST ISZERO PUSH2 0x42CF JUMPI JUMP JUMPDEST PUSH1 0x40 MLOAD PUSH3 0x461BCD PUSH1 0xE5 SHL DUP2 MSTORE PUSH1 0x20 PUSH1 0x4 DUP3 ADD MSTORE PUSH1 0x1D PUSH1 0x24 DUP3 ADD MSTORE PUSH32 0x416D6F756E74206D7573742062652067726561746572207468616E2030000000 PUSH1 0x44 DUP3 ADD MSTORE PUSH1 0x64 SWAP1 REVERT JUMPDEST ISZERO PUSH2 0x431B JUMPI JUMP JUMPDEST PUSH1 0x40 MLOAD PUSH3 0x461BCD PUSH1 0xE5 SHL DUP2 MSTORE PUSH1 0x20 PUSH1 0x4 DUP3 ADD MSTORE PUSH1 0x13 PUSH1 0x24 DUP3 ADD MSTORE PUSH19 0x1554D115081B9BDD0818DBDB999A59DD5C9959 PUSH1 0x6A SHL PUSH1 0x44 DUP3 ADD MSTORE PUSH1 0x64 SWAP1 REVERT JUMPDEST SWAP1 DUP2 PUSH1 0x20 SWAP2 SUB SLT PUSH2 0x3C6F JUMPI MLOAD DUP1 ISZERO ISZERO DUP2 SUB PUSH2 0x3C6F JUMPI SWAP1 JUMP JUMPDEST ISZERO PUSH2 0x4375 JUMPI JUMP JUMPDEST PUSH1 0x40 MLOAD PUSH3 0x461BCD PUSH1 0xE5 SHL DUP2 MSTORE PUSH1 0x20 PUSH1 0x4 DUP3 ADD MSTORE PUSH1 0x14 PUSH1 0x24 DUP3 ADD MSTORE PUSH20 0x1554D115081D1C985B9CD9995C8819985A5B1959 PUSH1 0x62 SHL PUSH1 0x44 DUP3 ADD MSTORE PUSH1 0x64 SWAP1 REVERT JUMPDEST ISZERO PUSH2 0x43B8 JUMPI JUMP JUMPDEST PUSH1 0x40 MLOAD PUSH3 0x461BCD PUSH1 0xE5 SHL DUP2 MSTORE PUSH1 0x20 PUSH1 0x4 DUP3 ADD MSTORE PUSH1 0x13 PUSH1 0x24 DUP3 ADD MSTORE PUSH19 0x1554D110C81B9BDD0818DBDB999A59DD5C9959 PUSH1 0x6A SHL PUSH1 0x44 DUP3 ADD MSTORE PUSH1 0x64 SWAP1 REVERT JUMPDEST ISZERO PUSH2 0x43FA JUMPI JUMP JUMPDEST PUSH1 0x40 MLOAD PUSH3 0x461BCD PUSH1 0xE5 SHL DUP2 MSTORE PUSH1 0x20 PUSH1 0x4 DUP3 ADD MSTORE PUSH1 0x14 PUSH1 0x24 DUP3 ADD MSTORE PUSH20 0x1554D110C81D1C985B9CD9995C8819985A5B1959 PUSH1 0x62 SHL PUSH1 0x44 DUP3 ADD MSTORE PUSH1 0x64 SWAP1 REVERT JUMPDEST ISZERO PUSH2 0x443D JUMPI JUMP JUMPDEST PUSH1 0x40 MLOAD PUSH3 0x461BCD PUSH1 0xE5 SHL DUP2 MSTORE PUSH1 0x20 PUSH1 0x4 DUP3 ADD MSTORE PUSH1 0x12 PUSH1 0x24 DUP3 ADD MSTORE PUSH18 0x115512081B9BDD0818DBDB999A59DD5C9959 PUSH1 0x72 SHL PUSH1 0x44 DUP3 ADD MSTORE PUSH1 0x64 SWAP1 REVERT JUMPDEST ISZERO PUSH2 0x447E JUMPI JUMP JUMPDEST PUSH1 0x40 MLOAD PUSH3 0x461BCD PUSH1 0xE5 SHL DUP2 MSTORE PUSH1 0x20 PUSH1 0x4 DUP3 ADD MSTORE PUSH1 0x13 PUSH1 0x24 DUP3 ADD MSTORE PUSH19 0x115512081D1C985B9CD9995C8819985A5B1959 PUSH1 0x6A SHL PUSH1 0x44 DUP3 ADD MSTORE PUSH1 0x64 SWAP1 REVERT JUMPDEST ISZERO PUSH2 0x44C0 JUMPI JUMP JUMPDEST PUSH1 0x40 MLOAD PUSH3 0x461BCD PUSH1 0xE5 SHL DUP2 MSTORE PUSH1 0x20 PUSH1 0x4 DUP3 ADD MSTORE PUSH1 0x12 PUSH1 0x24 DUP3 ADD MSTORE PUSH18 0x109510C81B9BDD0818DBDB999A59DD5C9959 PUSH1 0x72 SHL PUSH1 0x44 DUP3 ADD MSTORE PUSH1 0x64 SWAP1 REVERT JUMPDEST ISZERO PUSH2 0x4501 JUMPI JUMP JUMPDEST PUSH1 0x40 MLOAD PUSH3 0x461BCD PUSH1 0xE5 SHL DUP2 MSTORE PUSH1 0x20 PUSH1 0x4 DUP3 ADD MSTORE PUSH1 0x13 PUSH1 0x24 DUP3 ADD MSTORE PUSH19 0x109510C81D1C985B9CD9995C8819985A5B1959 PUSH1 0x6A SHL PUSH1 0x44 DUP3 ADD MSTORE PUSH1 0x64 SWAP1 REVERT JUMPDEST ISZERO PUSH2 0x4543 JUMPI JUMP JUMPDEST PUSH1 0x40 MLOAD PUSH3 0x461BCD PUSH1 0xE5 SHL DUP2 MSTORE PUSH1 0x20 PUSH1 0x4 DUP3 ADD MSTORE PUSH1 0x12 PUSH1 0x24 DUP3 ADD MSTORE PUSH18 0x14D3D3081B9BDD0818DBDB999A59DD5C9959 PUSH1 0x72 SHL PUSH1 0x44 DUP3 ADD MSTORE PUSH1 0x64 SWAP1 REVERT JUMPDEST ISZERO PUSH2 0x4584 JUMPI JUMP JUMPDEST PUSH1 0x40 MLOAD PUSH3 0x461BCD PUSH1 0xE5 SHL DUP2 MSTORE PUSH1 0x20 PUSH1 0x4 DUP3 ADD MSTORE PUSH1 0x13 PUSH1 0x24 DUP3 ADD MSTORE PUSH19 0x14D3D3081D1C985B9CD9995C8819985A5B1959 PUSH1 0x6A SHL PUSH1 0x44 DUP3 ADD MSTORE PUSH1 0x64 SWAP1 REVERT JUMPDEST CALLDATALOAD PUSH1 0x1 PUSH1 0x1 PUSH1 0xA0 SHL SUB DUP2 AND DUP2 SUB PUSH2 0x3C6F JUMPI SWAP1 JUMP JUMPDEST SWAP2 SWAP1 PUSH1 0x60 DUP4 ADD CALLDATALOAD SWAP3 DUP4 TIMESTAMP GT PUSH2 0x48C4 JUMPI PUSH2 0x45EB DUP2 PUSH2 0x45BF JUMP JUMPDEST PUSH1 0x1 PUSH1 0x1 PUSH1 0xA0 SHL SUB SWAP2 SWAP1 CALLER SWAP1 DUP4 AND SUB PUSH2 0x488C JUMPI PUSH1 0x40 SWAP3 DUP4 DUP3 ADD CALLDATALOAD SWAP1 PUSH1 0x0 SWAP6 CALLER DUP8 MSTORE PUSH1 0x20 SWAP4 PUSH1 0x22 DUP6 MSTORE DUP7 DUP9 KECCAK256 SLOAD DUP5 GT ISZERO PUSH2 0x485B JUMPI PUSH1 0x21 SLOAD SWAP1 DUP6 PUSH2 0x462C DUP3 PUSH2 0x45BF JUMP JUMPDEST SWAP2 ADD SWAP10 PUSH2 0x4638 DUP12 PUSH2 0x45BF JUMP JUMPDEST SWAP1 DUP9 DUP11 MLOAD SWAP3 DUP2 DUP11 DUP6 ADD SWAP6 PUSH32 0x91B089318BBDF627BACEC662873C12CC3AFDC69DB73F084D7726E9CE2907280A DUP8 MSTORE AND DUP13 DUP6 ADD MSTORE AND PUSH1 0x60 DUP4 ADD MSTORE DUP7 PUSH1 0x80 DUP4 ADD MSTORE PUSH1 0xA0 DUP3 ADD MSTORE PUSH1 0xA0 DUP2 MSTORE PUSH2 0x4688 DUP2 PUSH2 0x3E71 JUMP JUMPDEST MLOAD SWAP1 KECCAK256 DUP8 MLOAD SWAP1 DUP7 DUP3 ADD SWAP3 PUSH2 0x1901 PUSH1 0xF0 SHL DUP5 MSTORE PUSH1 0x22 DUP4 ADD MSTORE PUSH1 0x42 DUP3 ADD MSTORE PUSH1 0x42 DUP2 MSTORE PUSH2 0x46B1 DUP2 PUSH2 0x3E8D JUMP JUMPDEST MLOAD SWAP1 KECCAK256 SWAP1 PUSH2 0x46BE DUP2 PUSH2 0x421B JUMP JUMPDEST SWAP3 PUSH2 0x46CB DUP9 MLOAD SWAP5 DUP6 PUSH2 0x3EC5 JUMP JUMPDEST DUP2 DUP5 MSTORE CALLDATASIZE DUP3 DUP3 ADD GT PUSH2 0x4857 JUMPI SWAP2 DUP9 DUP7 DUP4 DUP7 SWAP5 PUSH2 0x1BBF SWAP7 DUP4 PUSH2 0x46F1 SWAP10 ADD CALLDATACOPY DUP5 ADD ADD MSTORE PUSH2 0x4A15 JUMP JUMPDEST DUP4 DUP1 DUP5 SLOAD AND SWAP2 AND SUB PUSH2 0x4823 JUMPI CALLER DUP6 MSTORE PUSH1 0x22 DUP3 MSTORE DUP1 DUP5 DUP7 KECCAK256 SSTORE DUP4 MLOAD SWAP1 DUP2 MSTORE PUSH32 0xB23E07A4FC171F5F9242D4254C3B66B893BEAAB2F3787495C0F2D09DD3EF9726 DUP3 CALLER SWAP3 LOG2 DUP2 PUSH2 0x473D DUP7 PUSH2 0x45BF JUMP JUMPDEST AND ISZERO ISZERO DUP1 PUSH2 0x480F JUMPI JUMPDEST DUP1 PUSH2 0x47FB JUMPI JUMPDEST DUP1 PUSH2 0x47DC JUMPI JUMPDEST PUSH2 0x475E JUMPI JUMPDEST POP POP POP POP POP JUMP JUMPDEST PUSH32 0x5F1CA2FCC108B751843A763E60D2201F593516109D7DBB1B700468F2D4190BB7 SWAP3 PUSH1 0x1E PUSH2 0x47C4 SWAP3 PUSH2 0x478F DUP9 PUSH2 0x45BF JUMP JUMPDEST CALLER DUP9 MSTORE PUSH1 0x1D DUP3 MSTORE DUP6 DUP5 DUP10 KECCAK256 SWAP2 AND PUSH1 0x1 PUSH1 0x1 PUSH1 0x60 SHL SUB PUSH1 0xA0 SHL DUP3 SLOAD AND OR SWAP1 SSTORE DUP5 PUSH2 0x47B7 DUP10 PUSH2 0x45BF JUMP JUMPDEST AND DUP8 MSTORE MSTORE CALLER SWAP1 DUP6 KECCAK256 PUSH2 0x411A JUMP JUMPDEST PUSH2 0x47CE CALLER SWAP5 PUSH2 0x45BF JUMP JUMPDEST AND SWAP2 DUP1 LOG3 CODESIZE DUP1 DUP1 DUP1 DUP1 PUSH2 0x4757 JUMP JUMPDEST POP DUP2 PUSH2 0x47E7 DUP7 PUSH2 0x45BF JUMP JUMPDEST AND DUP5 MSTORE PUSH1 0xF DUP2 MSTORE PUSH1 0xFF DUP4 DUP6 KECCAK256 SLOAD AND ISZERO PUSH2 0x4752 JUMP JUMPDEST POP CALLER DUP5 MSTORE PUSH1 0x1D DUP2 MSTORE DUP2 DUP4 DUP6 KECCAK256 SLOAD AND ISZERO PUSH2 0x474C JUMP JUMPDEST POP CALLER DUP3 PUSH2 0x481B DUP8 PUSH2 0x45BF JUMP JUMPDEST AND EQ ISZERO PUSH2 0x4746 JUMP JUMPDEST DUP4 MLOAD PUSH3 0x461BCD PUSH1 0xE5 SHL DUP2 MSTORE PUSH1 0x4 DUP2 ADD DUP4 SWAP1 MSTORE PUSH1 0xD PUSH1 0x24 DUP3 ADD MSTORE PUSH13 0x426164207369676E6174757265 PUSH1 0x98 SHL PUSH1 0x44 DUP3 ADD MSTORE PUSH1 0x64 SWAP1 REVERT JUMPDEST DUP9 DUP1 REVERT JUMPDEST DUP7 MLOAD PUSH3 0x461BCD PUSH1 0xE5 SHL DUP2 MSTORE PUSH1 0x4 DUP2 ADD DUP7 SWAP1 MSTORE PUSH1 0xA PUSH1 0x24 DUP3 ADD MSTORE PUSH10 0x139BDB98D9481D5CD959 PUSH1 0xB2 SHL PUSH1 0x44 DUP3 ADD MSTORE PUSH1 0x64 SWAP1 REVERT JUMPDEST PUSH1 0x40 MLOAD PUSH3 0x461BCD PUSH1 0xE5 SHL DUP2 MSTORE PUSH1 0x20 PUSH1 0x4 DUP3 ADD MSTORE PUSH1 0x10 PUSH1 0x24 DUP3 ADD MSTORE PUSH16 0x2737BA103CB7BAB9103B37BAB1B432B9 PUSH1 0x81 SHL PUSH1 0x44 DUP3 ADD MSTORE PUSH1 0x64 SWAP1 REVERT JUMPDEST PUSH1 0x40 MLOAD PUSH3 0x461BCD PUSH1 0xE5 SHL DUP2 MSTORE PUSH1 0x20 PUSH1 0x4 DUP3 ADD MSTORE PUSH1 0xF PUSH1 0x24 DUP3 ADD MSTORE PUSH15 0x159BDD58DA195C88195E1C1A5C9959 PUSH1 0x8A SHL PUSH1 0x44 DUP3 ADD MSTORE PUSH1 0x64 SWAP1 REVERT JUMPDEST PUSH1 0x5 DUP2 LT ISZERO PUSH2 0x49FF JUMPI DUP1 PUSH2 0x490C JUMPI POP JUMP JUMPDEST PUSH1 0x1 DUP2 SUB PUSH2 0x4959 JUMPI PUSH1 0x40 MLOAD PUSH3 0x461BCD PUSH1 0xE5 SHL DUP2 MSTORE PUSH1 0x20 PUSH1 0x4 DUP3 ADD MSTORE PUSH1 0x18 PUSH1 0x24 DUP3 ADD MSTORE PUSH32 0x45434453413A20696E76616C6964207369676E61747572650000000000000000 PUSH1 0x44 DUP3 ADD MSTORE PUSH1 0x64 SWAP1 REVERT JUMPDEST PUSH1 0x2 DUP2 SUB PUSH2 0x49A6 JUMPI PUSH1 0x40 MLOAD PUSH3 0x461BCD PUSH1 0xE5 SHL DUP2 MSTORE PUSH1 0x20 PUSH1 0x4 DUP3 ADD MSTORE PUSH1 0x1F PUSH1 0x24 DUP3 ADD MSTORE PUSH32 0x45434453413A20696E76616C6964207369676E6174757265206C656E67746800 PUSH1 0x44 DUP3 ADD MSTORE PUSH1 0x64 SWAP1 REVERT JUMPDEST PUSH1 0x3 EQ PUSH2 0x49AF JUMPI JUMP JUMPDEST PUSH1 0x40 MLOAD PUSH3 0x461BCD PUSH1 0xE5 SHL DUP2 MSTORE PUSH1 0x20 PUSH1 0x4 DUP3 ADD MSTORE PUSH1 0x22 PUSH1 0x24 DUP3 ADD MSTORE PUSH32 0x45434453413A20696E76616C6964207369676E6174757265202773272076616C PUSH1 0x44 DUP3 ADD MSTORE PUSH2 0x7565 PUSH1 0xF0 SHL PUSH1 0x64 DUP3 ADD MSTORE PUSH1 0x84 SWAP1 REVERT JUMPDEST PUSH4 0x4E487B71 PUSH1 0xE0 SHL PUSH1 0x0 MSTORE PUSH1 0x21 PUSH1 0x4 MSTORE PUSH1 0x24 PUSH1 0x0 REVERT JUMPDEST SWAP1 PUSH1 0x41 DUP2 MLOAD EQ PUSH1 0x0 EQ PUSH2 0x4A43 JUMPI PUSH2 0x4A3F SWAP2 PUSH1 0x20 DUP3 ADD MLOAD SWAP1 PUSH1 0x60 PUSH1 0x40 DUP5 ADD MLOAD SWAP4 ADD MLOAD PUSH1 0x0 BYTE SWAP1 PUSH2 0x4A4D JUMP JUMPDEST SWAP1 SWAP2 JUMP JUMPDEST POP POP PUSH1 0x0 SWAP1 PUSH1 0x2 SWAP1 JUMP JUMPDEST SWAP3 SWAP2 SWAP1 PUSH32 0x7FFFFFFFFFFFFFFFFFFFFFFFFFFFFFFF5D576E7357A4501DDFE92F46681B20A0 DUP4 GT PUSH2 0x4AD0 JUMPI SWAP2 PUSH1 0x80 SWAP5 SWAP4 SWAP2 PUSH1 0xFF PUSH1 0x20 SWAP5 PUSH1 0x40 MLOAD SWAP5 DUP6 MSTORE AND DUP5 DUP5 ADD MSTORE PUSH1 0x40 DUP4 ADD MSTORE PUSH1 0x60 DUP3 ADD MSTORE PUSH1 0x0 SWAP4 DUP5 SWAP2 DUP3 DUP1 MSTORE PUSH1 0x1 GAS STATICCALL ISZERO PUSH2 0x4AC3 JUMPI DUP2 MLOAD PUSH1 0x1 PUSH1 0x1 PUSH1 0xA0 SHL SUB DUP2 AND ISZERO PUSH2 0x4ABD JUMPI SWAP2 SWAP1 JUMP JUMPDEST POP PUSH1 0x1 SWAP1 JUMP JUMPDEST POP PUSH1 0x40 MLOAD SWAP1 RETURNDATASIZE SWAP1 DUP3 RETURNDATACOPY RETURNDATASIZE SWAP1 REVERT JUMPDEST POP POP POP POP PUSH1 0x0 SWAP1 PUSH1 0x3 SWAP1 JUMP JUMPDEST PUSH1 0x40 MLOAD SWAP1 PUSH2 0x4AE9 DUP3 PUSH2 0x3EA9 JUMP JUMPDEST PUSH1 0x4 DUP3 MSTORE PUSH4 0x14D15313 PUSH1 0xE2 SHL PUSH1 0x20 DUP4 ADD MSTORE JUMP JUMPDEST ISZERO PUSH2 0x4B03 JUMPI JUMP JUMPDEST PUSH1 0x40 MLOAD PUSH3 0x461BCD PUSH1 0xE5 SHL DUP2 MSTORE PUSH1 0x20 PUSH1 0x4 DUP3 ADD MSTORE PUSH1 0x15 PUSH1 0x24 DUP3 ADD MSTORE PUSH21 0x151BDAD95B881D1C985B9CD9995C8819985A5B1959 PUSH1 0x5A SHL PUSH1 0x44 DUP3 ADD MSTORE PUSH1 0x64 SWAP1 REVERT JUMPDEST PUSH1 0x0 NOT DUP2 EQ PUSH2 0x41E5 JUMPI PUSH1 0x1 ADD SWAP1 JUMP JUMPDEST SWAP2 SWAP1 DUP3 ADD DUP1 SWAP3 GT PUSH2 0x41E5 JUMPI JUMP JUMPDEST ISZERO PUSH2 0x4B63 JUMPI JUMP JUMPDEST PUSH1 0x40 MLOAD PUSH3 0x461BCD PUSH1 0xE5 SHL DUP2 MSTORE PUSH1 0x20 PUSH1 0x4 DUP3 ADD MSTORE PUSH1 0x14 PUSH1 0x24 DUP3 ADD MSTORE PUSH20 0x14DD185AD948191BD95CC81B9BDD08195E1A5CDD PUSH1 0x62 SHL PUSH1 0x44 DUP3 ADD MSTORE PUSH1 0x64 SWAP1 REVERT JUMPDEST ISZERO PUSH2 0x4BA6 JUMPI JUMP JUMPDEST PUSH1 0x40 MLOAD PUSH3 0x461BCD PUSH1 0xE5 SHL DUP2 MSTORE PUSH1 0x20 PUSH1 0x4 DUP3 ADD MSTORE PUSH1 0xF PUSH1 0x24 DUP3 ADD MSTORE PUSH15 0x14DD185AD9481B9BDD08199BDD5B99 PUSH1 0x8A SHL PUSH1 0x44 DUP3 ADD MSTORE PUSH1 0x64 SWAP1 REVERT JUMPDEST ISZERO PUSH2 0x4BE4 JUMPI JUMP JUMPDEST PUSH1 0x40 MLOAD PUSH3 0x461BCD PUSH1 0xE5 SHL DUP2 MSTORE PUSH1 0x20 PUSH1 0x4 DUP3 ADD MSTORE PUSH1 0x10 PUSH1 0x24 DUP3 ADD MSTORE PUSH16 0x5374616B65206E6F7420616374697665 PUSH1 0x80 SHL PUSH1 0x44 DUP3 ADD MSTORE PUSH1 0x64 SWAP1 REVERT JUMPDEST SWAP2 SWAP1 DUP3 SUB SWAP2 DUP3 GT PUSH2 0x41E5 JUMPI JUMP JUMPDEST PUSH1 0x0 DUP2 DUP2 MSTORE PUSH1 0x16 PUSH1 0x20 SWAP1 DUP2 MSTORE PUSH1 0x40 DUP1 DUP4 KECCAK256 SLOAD PUSH1 0x1 PUSH1 0x1 PUSH1 0xA0 SHL SUB AND SWAP1 PUSH2 0x4C50 DUP3 ISZERO ISZERO PUSH2 0x4B5C JUMP JUMPDEST SWAP3 SWAP4 DUP5 SWAP4 SWAP1 DUP5 SWAP1 DUP2 DUP1 DUP1 DUP1 DUP1 JUMPDEST DUP9 DUP12 MSTORE PUSH1 0x15 DUP1 DUP12 MSTORE DUP9 DUP13 KECCAK256 DUP1 SLOAD DUP4 LT ISZERO PUSH2 0x4E1E JUMPI PUSH2 0x4C7C DUP4 DUP10 SWAP3 PUSH2 0x3DD3 JUMP JUMPDEST POP SLOAD EQ PUSH2 0x4C92 JUMPI POP PUSH2 0x4C8D SWAP1 PUSH2 0x4B40 JUMP JUMPDEST PUSH2 0x4C5D JUMP JUMPDEST SWAP7 POP SWAP11 POP POP POP POP POP POP DUP3 DUP6 MSTORE DUP1 DUP5 MSTORE DUP6 DUP3 DUP7 KECCAK256 SWAP1 PUSH2 0x4CAF SWAP2 PUSH2 0x3DD3 JUMP JUMPDEST POP PUSH1 0x5 ADD SLOAD SWAP6 DUP4 DUP7 MSTORE DUP2 DUP6 MSTORE DUP1 DUP4 DUP8 KECCAK256 SWAP1 PUSH2 0x4CC9 SWAP2 PUSH2 0x3DD3 JUMP JUMPDEST POP PUSH1 0x4 ADD SLOAD SWAP3 DUP5 DUP8 MSTORE DUP3 DUP7 MSTORE DUP2 DUP2 DUP9 KECCAK256 SWAP1 PUSH2 0x4CE3 SWAP2 PUSH2 0x3DD3 JUMP JUMPDEST POP SWAP3 PUSH1 0x1 DUP1 SWAP5 ADD SLOAD SWAP7 DUP7 DUP10 MSTORE DUP2 DUP2 MSTORE DUP4 DUP4 DUP11 KECCAK256 SWAP1 PUSH2 0x4D00 SWAP2 PUSH2 0x3DD3 JUMP JUMPDEST POP PUSH1 0x3 ADD SLOAD SWAP7 DUP10 MSTORE MSTORE DUP7 KECCAK256 SWAP1 PUSH2 0x4D15 SWAP2 PUSH2 0x3DD3 JUMP JUMPDEST POP PUSH1 0x6 ADD SLOAD PUSH1 0xFF AND PUSH2 0x4D29 PUSH2 0x4D2E SWAP3 PUSH2 0x4B9F JUMP JUMPDEST PUSH2 0x4BDD JUMP JUMPDEST TIMESTAMP DUP2 EQ PUSH2 0x4E17 JUMPI PUSH2 0x4D3F SWAP1 TIMESTAMP PUSH2 0x4C1C JUMP JUMPDEST SWAP3 PUSH1 0x13 SLOAD DUP1 SWAP3 PUSH1 0x5A DUP2 EQ PUSH1 0x0 EQ PUSH2 0x4D9D JUMPI POP POP PUSH1 0x3 DUP3 MUL SWAP2 DUP1 DUP4 DIV PUSH1 0x3 EQ SWAP1 ISZERO OR ISZERO PUSH2 0x4D89 JUMPI POP PUSH2 0x3FCF SWAP4 SWAP3 PUSH2 0x4D7D PUSH4 0xBBF81E00 SWAP4 PUSH2 0x4D82 SWAP4 PUSH1 0x1 SHR SWAP1 JUMPDEST PUSH2 0x41D2 JUMP JUMPDEST DIV SWAP1 PUSH2 0x4B4F JUMP JUMPDEST PUSH4 0x4E487B71 PUSH1 0xE0 SHL DUP2 MSTORE PUSH1 0x11 PUSH1 0x4 MSTORE PUSH1 0x24 SWAP1 REVERT JUMPDEST PUSH1 0xB4 DUP2 SUB PUSH2 0x4DD3 JUMPI POP POP DUP2 PUSH1 0x1 SHL SWAP2 DUP1 DUP4 DIV PUSH1 0x2 EQ SWAP1 ISZERO OR ISZERO PUSH2 0x4D89 JUMPI POP PUSH2 0x3FCF SWAP4 SWAP3 PUSH2 0x4D7D PUSH4 0xBBF81E00 SWAP4 PUSH2 0x4D82 SWAP4 SWAP1 PUSH2 0x41D2 JUMP JUMPDEST PUSH2 0x16D SWAP2 SWAP5 SWAP4 POP EQ PUSH2 0x4DF8 JUMPI JUMPDEST POP PUSH2 0x3FCF SWAP4 SWAP3 PUSH2 0x4D7D PUSH4 0xBBF81E00 SWAP4 PUSH2 0x4D82 SWAP4 PUSH2 0x41D2 JUMP JUMPDEST PUSH1 0x3 DUP4 SWAP3 SWAP4 MUL SWAP2 DUP1 DUP4 DIV PUSH1 0x3 EQ SWAP1 ISZERO OR ISZERO PUSH2 0x4D89 JUMPI POP SWAP1 PUSH2 0x3FCF PUSH2 0x4DE0 JUMP JUMPDEST POP POP POP POP SWAP1 JUMP JUMPDEST POP POP POP SWAP7 POP SWAP7 POP SWAP8 SWAP4 POP PUSH2 0x4D2E SWAP3 SWAP2 POP PUSH2 0x4D29 SWAP1 PUSH2 0x4B9F JUMP JUMPDEST ISZERO PUSH2 0x4E3E JUMPI JUMP JUMPDEST PUSH1 0x40 MLOAD PUSH3 0x461BCD PUSH1 0xE5 SHL DUP2 MSTORE PUSH1 0x20 PUSH1 0x4 DUP3 ADD MSTORE PUSH1 0xF PUSH1 0x24 DUP3 ADD MSTORE PUSH15 0x2737BA1039BA30B5B29037BBB732B9 PUSH1 0x89 SHL PUSH1 0x44 DUP3 ADD MSTORE PUSH1 0x64 SWAP1 REVERT JUMPDEST PUSH1 0x0 CALLER DUP2 MSTORE PUSH1 0x20 PUSH1 0x1D DUP2 MSTORE PUSH1 0x1 DUP1 PUSH1 0xA0 SHL SUB SWAP1 PUSH1 0x40 DUP3 DUP2 DUP6 KECCAK256 SLOAD AND SWAP3 DUP4 ISZERO ISZERO DUP1 PUSH2 0x4FE1 JUMPI JUMPDEST PUSH2 0x4EA6 JUMPI POP POP POP POP POP SWAP1 JUMP JUMPDEST PUSH1 0x64 PUSH2 0x4EB4 PUSH1 0x1C SLOAD DUP9 PUSH2 0x41D2 JUMP JUMPDEST DUP7 SLOAD DUP5 MLOAD PUSH4 0xA9059CBB PUSH1 0xE0 SHL DUP2 MSTORE PUSH1 0x1 PUSH1 0x1 PUSH1 0xA0 SHL SUB DUP9 AND PUSH1 0x4 DUP3 ADD MSTORE SWAP3 SWAP1 SWAP2 DIV PUSH1 0x24 DUP4 ADD DUP2 SWAP1 MSTORE SWAP7 SWAP2 SWAP1 DUP6 SWAP1 DUP3 SWAP1 PUSH1 0x44 SWAP1 DUP3 SWAP1 DUP7 SWAP1 DUP9 AND GAS CALL SWAP1 DUP2 ISZERO PUSH2 0x4FD7 JUMPI DUP3 SWAP2 PUSH2 0x4FBA JUMPI JUMPDEST POP ISZERO PUSH2 0x4F76 JUMPI PUSH32 0x94CCB86446750660EC532B1BEB1FB55F5BA2FFFCA042C4C53F4C080E72595B38 SWAP4 SWAP3 SWAP2 DUP2 DUP7 PUSH2 0x4F6C SWAP4 MSTORE PUSH1 0x1F DUP6 MSTORE DUP4 DUP2 KECCAK256 PUSH2 0x4F3F DUP10 DUP3 SLOAD PUSH2 0x4B4F JUMP JUMPDEST SWAP1 SSTORE SLOAD AND DUP7 DUP9 DUP5 MLOAD SWAP3 PUSH2 0x4F51 DUP5 PUSH2 0x3EA9 JUMP JUMPDEST PUSH1 0x8 DUP5 MSTORE PUSH8 0x1491519154949053 PUSH1 0xC2 SHL DUP8 DUP6 ADD MSTORE DUP1 DUP10 PUSH2 0x5667 JUMP JUMPDEST MLOAD SWAP4 DUP5 MSTORE CALLER SWAP4 LOG3 SWAP1 JUMP JUMPDEST DUP3 MLOAD PUSH3 0x461BCD PUSH1 0xE5 SHL DUP2 MSTORE PUSH1 0x4 DUP2 ADD DUP6 SWAP1 MSTORE PUSH1 0x1F PUSH1 0x24 DUP3 ADD MSTORE PUSH32 0x526566657272616C20726577617264207472616E73666572206661696C656400 PUSH1 0x44 DUP3 ADD MSTORE PUSH1 0x64 SWAP1 REVERT JUMPDEST PUSH2 0x4FD1 SWAP2 POP DUP6 RETURNDATASIZE DUP8 GT PUSH2 0x5AE JUMPI PUSH2 0x5A0 DUP2 DUP4 PUSH2 0x3EC5 JUMP JUMPDEST CODESIZE PUSH2 0x4EFC JUMP JUMPDEST DUP5 MLOAD RETURNDATASIZE DUP5 DUP3 RETURNDATACOPY RETURNDATASIZE SWAP1 REVERT JUMPDEST POP DUP4 DUP6 MSTORE PUSH1 0xF DUP4 MSTORE PUSH1 0xFF DUP3 DUP7 KECCAK256 SLOAD AND ISZERO PUSH2 0x4E9A JUMP JUMPDEST PUSH1 0x0 SWAP1 DUP2 JUMPDEST PUSH1 0x1 PUSH1 0x1 PUSH1 0xA0 SHL SUB DUP3 AND PUSH1 0x0 SWAP1 DUP2 MSTORE PUSH1 0x15 PUSH1 0x20 MSTORE PUSH1 0x40 SWAP1 KECCAK256 DUP1 SLOAD DUP3 LT ISZERO PUSH2 0x50A7 JUMPI PUSH1 0x6 PUSH2 0x502A DUP4 PUSH1 0xFF SWAP4 PUSH2 0x3DD3 JUMP JUMPDEST POP ADD SLOAD AND PUSH2 0x5040 JUMPI PUSH2 0x503B SWAP1 PUSH2 0x4B40 JUMP JUMPDEST PUSH2 0x4FFB JUMP JUMPDEST POP SWAP1 POP PUSH1 0x1 JUMPDEST ISZERO DUP1 PUSH2 0x5085 JUMPI JUMPDEST PUSH2 0x5054 JUMPI POP JUMP JUMPDEST PUSH1 0x1 PUSH1 0x1 PUSH1 0xA0 SHL SUB AND PUSH1 0x0 SWAP1 DUP2 MSTORE PUSH1 0x1B PUSH1 0x20 MSTORE PUSH1 0x40 SWAP1 KECCAK256 DUP1 SLOAD PUSH1 0xFF NOT AND SWAP1 SSTORE PUSH1 0x19 SLOAD DUP1 ISZERO PUSH2 0x41E5 JUMPI PUSH1 0x0 NOT ADD PUSH1 0x19 SSTORE JUMP JUMPDEST POP PUSH1 0x1 PUSH1 0x1 PUSH1 0xA0 SHL SUB DUP2 AND PUSH1 0x0 SWAP1 DUP2 MSTORE PUSH1 0x1B PUSH1 0x20 MSTORE PUSH1 0x40 SWAP1 KECCAK256 SLOAD PUSH1 0xFF AND PUSH2 0x504D JUMP JUMPDEST POP POP SWAP1 PUSH2 0x5046 JUMP JUMPDEST PUSH1 0x0 DUP1 SLOAD PUSH1 0x40 MLOAD PUSH4 0x70A08231 PUSH1 0xE0 SHL DUP2 MSTORE ADDRESS PUSH1 0x4 DUP3 ADD MSTORE SWAP2 SWAP4 SWAP3 SWAP2 PUSH1 0x20 SWAP2 PUSH1 0x1 PUSH1 0x1 PUSH1 0xA0 SHL SUB AND SWAP1 DUP3 DUP2 PUSH1 0x24 DUP2 DUP6 GAS STATICCALL DUP1 ISZERO PUSH2 0x51E6 JUMPI DUP5 SWAP2 DUP8 SWAP2 PUSH2 0x51B5 JUMPI JUMPDEST POP LT PUSH2 0x5170 JUMPI PUSH1 0x40 MLOAD PUSH4 0xA9059CBB PUSH1 0xE0 SHL DUP2 MSTORE CALLER PUSH1 0x4 DUP3 ADD MSTORE PUSH1 0x24 DUP2 ADD DUP5 SWAP1 MSTORE SWAP1 DUP3 SWAP1 DUP3 SWAP1 PUSH1 0x44 SWAP1 DUP3 SWAP1 DUP10 SWAP1 GAS CALL SWAP2 DUP3 ISZERO PUSH2 0x5165 JUMPI SWAP1 PUSH2 0x513B SWAP3 SWAP2 PUSH2 0x5143 SWAP6 SWAP7 SWAP3 PUSH2 0x5148 JUMPI JUMPDEST POP POP PUSH2 0x4AFC JUMP JUMPDEST PUSH1 0xE SLOAD PUSH2 0x4B4F JUMP JUMPDEST PUSH1 0xE SSTORE JUMP JUMPDEST PUSH2 0x515E SWAP3 POP DUP1 RETURNDATASIZE LT PUSH2 0x5AE JUMPI PUSH2 0x5A0 DUP2 DUP4 PUSH2 0x3EC5 JUMP JUMPDEST CODESIZE DUP1 PUSH2 0x5134 JUMP JUMPDEST PUSH1 0x40 MLOAD RETURNDATASIZE DUP8 DUP3 RETURNDATACOPY RETURNDATASIZE SWAP1 REVERT JUMPDEST PUSH1 0x40 MLOAD PUSH3 0x461BCD PUSH1 0xE5 SHL DUP2 MSTORE PUSH1 0x4 DUP2 ADD DUP4 SWAP1 MSTORE PUSH1 0x1A PUSH1 0x24 DUP3 ADD MSTORE PUSH32 0x496E73756666696369656E7420746F6B656E2062616C616E6365000000000000 PUSH1 0x44 DUP3 ADD MSTORE PUSH1 0x64 SWAP1 REVERT JUMPDEST DUP1 SWAP3 POP DUP5 DUP1 SWAP3 POP RETURNDATASIZE DUP4 GT PUSH2 0x51DF JUMPI JUMPDEST PUSH2 0x51CE DUP2 DUP4 PUSH2 0x3EC5 JUMP JUMPDEST DUP2 ADD SUB SLT PUSH2 0x1D8B JUMPI DUP4 SWAP1 MLOAD CODESIZE PUSH2 0x50EE JUMP JUMPDEST POP RETURNDATASIZE PUSH2 0x51C4 JUMP JUMPDEST PUSH1 0x40 MLOAD RETURNDATASIZE DUP9 DUP3 RETURNDATACOPY RETURNDATASIZE SWAP1 REVERT JUMPDEST PUSH1 0x11 SLOAD PUSH1 0x1 PUSH1 0x40 SHL DUP2 LT ISZERO PUSH2 0x3E5B JUMPI PUSH1 0x1 SWAP1 DUP2 DUP2 ADD DUP1 PUSH1 0x11 SSTORE DUP2 LT ISZERO PUSH2 0x3DEF JUMPI PUSH1 0x7 PUSH1 0x0 SWAP2 PUSH1 0x11 DUP4 MSTORE MUL SWAP2 DUP4 MLOAD DUP4 PUSH32 0x31ECC21A745E3968A04E9570E4425BC18FA8019C68028196B546D1669C200C68 ADD SSTORE PUSH1 0xC0 PUSH32 0x31ECC21A745E3968A04E9570E4425BC18FA8019C68028196B546D1669C200C6E PUSH32 0x31ECC21A745E3968A04E9570E4425BC18FA8019C68028196B546D1669C200C69 DUP6 ADD SWAP5 PUSH1 0x1 DUP1 PUSH1 0xA0 SHL SUB PUSH1 0x20 SWAP7 DUP2 DUP9 DUP11 ADD MLOAD AND SWAP1 PUSH1 0x1 PUSH1 0x1 PUSH1 0x60 SHL SUB PUSH1 0xA0 SHL SWAP2 DUP3 DUP3 SLOAD AND OR SWAP1 SSTORE PUSH32 0x31ECC21A745E3968A04E9570E4425BC18FA8019C68028196B546D1669C200C6A DUP4 ADD DUP3 PUSH1 0x40 DUP12 ADD MLOAD AND DUP3 DUP3 SLOAD AND OR SWAP1 SSTORE PUSH32 0x31ECC21A745E3968A04E9570E4425BC18FA8019C68028196B546D1669C200C6B DUP4 ADD SWAP2 PUSH1 0x60 DUP11 ADD MLOAD AND SWAP1 DUP3 SLOAD AND OR SWAP1 SSTORE PUSH1 0x80 DUP8 ADD MLOAD PUSH32 0x31ECC21A745E3968A04E9570E4425BC18FA8019C68028196B546D1669C200C6C DUP3 ADD SSTORE PUSH1 0xA0 DUP8 ADD MLOAD PUSH32 0x31ECC21A745E3968A04E9570E4425BC18FA8019C68028196B546D1669C200C6D DUP3 ADD SSTORE ADD SWAP5 ADD MLOAD SWAP2 DUP3 MLOAD SWAP3 PUSH8 0xFFFFFFFFFFFFFFFF DUP5 GT PUSH2 0x5469 JUMPI PUSH2 0x5382 DUP7 SLOAD PUSH2 0x3E05 JUMP JUMPDEST PUSH1 0x1F DUP2 GT PUSH2 0x5423 JUMPI JUMPDEST POP DUP5 SWAP2 PUSH1 0x1F DUP6 GT PUSH1 0x1 EQ PUSH2 0x53C4 JUMPI SWAP4 SWAP5 POP DUP5 SWAP3 SWAP2 SWAP1 DUP4 PUSH2 0x53B9 JUMPI JUMPDEST POP POP SHL SWAP2 PUSH1 0x0 NOT SWAP1 PUSH1 0x3 SHL SHR NOT AND OR SWAP1 SSTORE JUMP JUMPDEST ADD MLOAD SWAP3 POP CODESIZE DUP1 PUSH2 0x53A6 JUMP JUMPDEST DUP7 DUP2 MSTORE DUP6 DUP2 KECCAK256 SWAP4 SWAP6 DUP6 SWAP2 PUSH1 0x1F NOT DUP4 AND SWAP2 JUMPDEST DUP9 DUP4 DUP4 LT PUSH2 0x5409 JUMPI POP POP POP LT PUSH2 0x53F0 JUMPI JUMPDEST POP POP POP DUP2 SHL ADD SWAP1 SSTORE JUMP JUMPDEST ADD MLOAD PUSH1 0x0 NOT PUSH1 0xF8 DUP5 PUSH1 0x3 SHL AND SHR NOT AND SWAP1 SSTORE CODESIZE DUP1 DUP1 PUSH2 0x53E6 JUMP JUMPDEST DUP6 DUP8 ADD MLOAD DUP9 SSTORE SWAP1 SWAP7 ADD SWAP6 SWAP5 DUP6 ADD SWAP5 DUP8 SWAP4 POP SWAP1 DUP2 ADD SWAP1 PUSH2 0x53D5 JUMP JUMPDEST DUP7 DUP4 MSTORE DUP6 DUP4 KECCAK256 PUSH1 0x1F DUP7 ADD PUSH1 0x5 SHR DUP2 ADD SWAP2 DUP8 DUP8 LT PUSH2 0x545F JUMPI JUMPDEST PUSH1 0x1F ADD PUSH1 0x5 SHR ADD SWAP1 DUP5 SWAP1 JUMPDEST DUP3 DUP2 LT PUSH2 0x5454 JUMPI POP POP PUSH2 0x538B JUMP JUMPDEST DUP5 DUP2 SSTORE ADD DUP5 SWAP1 PUSH2 0x5446 JUMP JUMPDEST SWAP1 SWAP2 POP DUP2 SWAP1 PUSH2 0x543B JUMP JUMPDEST PUSH4 0x4E487B71 PUSH1 0xE0 SHL DUP3 MSTORE PUSH1 0x41 PUSH1 0x4 MSTORE PUSH1 0x24 DUP3 REVERT JUMPDEST DUP1 SLOAD PUSH1 0x1 PUSH1 0x40 SHL DUP2 LT ISZERO PUSH2 0x3E5B JUMPI PUSH2 0x549C SWAP1 PUSH1 0x1 SWAP3 DUP4 DUP3 ADD DUP2 SSTORE PUSH2 0x3DD3 JUMP JUMPDEST PUSH2 0x55F2 JUMPI DUP3 MLOAD DUP2 SSTORE PUSH1 0xC0 PUSH1 0x6 DUP4 DUP4 ADD SWAP3 PUSH1 0x1 DUP1 PUSH1 0xA0 SHL SUB PUSH1 0x20 SWAP5 DUP2 DUP7 DUP10 ADD MLOAD AND SWAP1 PUSH1 0x1 PUSH1 0x1 PUSH1 0x60 SHL SUB PUSH1 0xA0 SHL SWAP2 DUP3 DUP3 SLOAD AND OR SWAP1 SSTORE PUSH1 0x2 DUP4 ADD DUP3 PUSH1 0x40 DUP11 ADD MLOAD AND DUP3 DUP3 SLOAD AND OR SWAP1 SSTORE PUSH1 0x3 DUP4 ADD SWAP2 PUSH1 0x60 DUP10 ADD MLOAD AND SWAP1 DUP3 SLOAD AND OR SWAP1 SSTORE PUSH1 0x80 DUP7 ADD MLOAD PUSH1 0x4 DUP3 ADD SSTORE PUSH1 0xA0 DUP7 ADD MLOAD PUSH1 0x5 DUP3 ADD SSTORE ADD SWAP4 ADD MLOAD SWAP1 DUP2 MLOAD SWAP2 PUSH8 0xFFFFFFFFFFFFFFFF DUP4 GT PUSH2 0x3E5B JUMPI PUSH2 0x5529 DUP6 SLOAD PUSH2 0x3E05 JUMP JUMPDEST PUSH1 0x1F DUP2 GT PUSH2 0x55A9 JUMPI JUMPDEST POP DUP2 PUSH1 0x1F DUP5 GT PUSH1 0x1 EQ PUSH2 0x5560 JUMPI POP SWAP3 DUP3 SWAP4 SWAP2 DUP4 SWAP3 PUSH1 0x0 SWAP5 PUSH2 0x53B9 JUMPI POP POP SHL SWAP2 PUSH1 0x0 NOT SWAP1 PUSH1 0x3 SHL SHR NOT AND OR SWAP1 SSTORE JUMP JUMPDEST SWAP2 SWAP1 DUP4 PUSH1 0x1F NOT DUP2 AND DUP8 PUSH1 0x0 MSTORE DUP5 PUSH1 0x0 KECCAK256 SWAP5 PUSH1 0x0 SWAP1 JUMPDEST DUP9 DUP4 DUP4 LT PUSH2 0x558F JUMPI POP POP POP LT PUSH2 0x53F0 JUMPI POP POP POP DUP2 SHL ADD SWAP1 SSTORE JUMP JUMPDEST DUP6 DUP8 ADD MLOAD DUP9 SSTORE SWAP1 SWAP7 ADD SWAP6 SWAP5 DUP6 ADD SWAP5 DUP8 SWAP4 POP SWAP1 DUP2 ADD SWAP1 PUSH2 0x5575 JUMP JUMPDEST PUSH1 0x0 DUP7 DUP2 MSTORE DUP4 DUP2 KECCAK256 PUSH1 0x1F DUP7 ADD PUSH1 0x5 SHR DUP2 ADD SWAP3 DUP6 DUP8 LT PUSH2 0x55E8 JUMPI JUMPDEST PUSH1 0x1F ADD PUSH1 0x5 SHR ADD SWAP2 DUP7 SWAP1 JUMPDEST DUP4 DUP2 LT PUSH2 0x55DD JUMPI POP POP POP PUSH2 0x5532 JUMP JUMPDEST DUP3 DUP2 SSTORE ADD DUP7 SWAP1 PUSH2 0x55CE JUMP JUMPDEST SWAP1 SWAP3 POP DUP3 SWAP1 PUSH2 0x55C3 JUMP JUMPDEST PUSH4 0x4E487B71 PUSH1 0xE0 SHL PUSH1 0x0 MSTORE PUSH1 0x0 PUSH1 0x4 MSTORE PUSH1 0x24 PUSH1 0x0 REVERT JUMPDEST SWAP3 PUSH2 0x3F25 SWAP5 SWAP2 SWAP3 PUSH1 0x40 MLOAD SWAP5 PUSH2 0x561C DUP7 PUSH2 0x3E3F JUMP JUMPDEST TIMESTAMP DUP7 MSTORE PUSH1 0x1 DUP1 PUSH1 0xA0 SHL SUB DUP1 SWAP2 AND SWAP5 DUP6 PUSH1 0x20 DUP9 ADD MSTORE PUSH1 0x0 PUSH1 0x40 DUP9 ADD MSTORE AND PUSH1 0x60 DUP7 ADD MSTORE PUSH1 0x80 DUP6 ADD MSTORE PUSH1 0xA0 DUP5 ADD MSTORE PUSH1 0xC0 DUP4 ADD MSTORE PUSH1 0x0 MSTORE PUSH1 0x10 PUSH1 0x20 MSTORE PUSH2 0x5662 DUP2 PUSH1 0x40 PUSH1 0x0 KECCAK256 PUSH2 0x547D JUMP JUMPDEST PUSH2 0x51F1 JUMP JUMPDEST SWAP3 PUSH2 0x3F25 SWAP6 SWAP3 SWAP5 SWAP2 SWAP4 PUSH1 0x40 MLOAD SWAP6 PUSH2 0x567D DUP8 PUSH2 0x3E3F JUMP JUMPDEST TIMESTAMP DUP8 MSTORE PUSH1 0x1 DUP1 PUSH1 0xA0 SHL SUB DUP1 DUP1 SWAP4 AND SWAP7 DUP8 PUSH1 0x20 DUP11 ADD MSTORE AND PUSH1 0x40 DUP9 ADD MSTORE AND PUSH1 0x60 DUP7 ADD MSTORE PUSH1 0x80 DUP6 ADD MSTORE PUSH1 0xA0 DUP5 ADD MSTORE PUSH1 0xC0 DUP4 ADD MSTORE PUSH1 0x0 MSTORE PUSH1 0x10 PUSH1 0x20 MSTORE PUSH2 0x5662 DUP2 PUSH1 0x40 PUSH1 0x0 KECCAK256 PUSH2 0x547D JUMP JUMPDEST PUSH8 0xFFFFFFFFFFFFFFFF DUP2 GT PUSH2 0x3E5B JUMPI PUSH1 0x5 SHL PUSH1 0x20 ADD SWAP1 JUMP JUMPDEST SWAP1 PUSH1 0x40 MLOAD PUSH2 0x56E8 DUP2 PUSH2 0x3E3F JUMP JUMPDEST PUSH1 0xC0 PUSH1 0xFF PUSH1 0x6 DUP4 SWAP6 DUP1 SLOAD DUP6 MSTORE PUSH1 0x1 DUP2 ADD SLOAD PUSH1 0x20 DUP7 ADD MSTORE PUSH1 0x2 DUP2 ADD SLOAD PUSH1 0x40 DUP7 ADD MSTORE PUSH1 0x3 DUP2 ADD SLOAD PUSH1 0x60 DUP7 ADD MSTORE PUSH1 0x4 DUP2 ADD SLOAD PUSH1 0x80 DUP7 ADD MSTORE PUSH1 0x5 DUP2 ADD SLOAD PUSH1 0xA0 DUP7 ADD MSTORE ADD SLOAD AND ISZERO ISZERO SWAP2 ADD MSTORE JUMP JUMPDEST PUSH1 0x40 MLOAD SWAP1 PUSH2 0x573D DUP3 PUSH2 0x3E3F JUMP JUMPDEST DUP2 PUSH1 0xC0 PUSH1 0x0 SWAP2 DUP3 DUP2 MSTORE DUP3 PUSH1 0x20 DUP3 ADD MSTORE DUP3 PUSH1 0x40 DUP3 ADD MSTORE DUP3 PUSH1 0x60 DUP3 ADD MSTORE DUP3 PUSH1 0x80 DUP3 ADD MSTORE DUP3 PUSH1 0xA0 DUP3 ADD MSTORE ADD MSTORE JUMP INVALID CALLDATACOPY PUSH27 0xADEDB6B2A771959584D10A6A36ECCB5F56B4EB3A48525F76108D26 PUSH1 0xD8 0xD4 LOG2 PUSH5 0x6970667358 0x22 SLT KECCAK256 0x49 0xBD DIV ADDRESS POP CALLER 0xB8 0x27 DUP13 EXTCODESIZE MUL DUP12 0xEC LOG4 PUSH8 0x8CAC6194A8CA8ACF 0xDF PUSH21 0x4F12DF802B945564736F6C63430008130033000000 "},"methodIdentifiers":{"DOMAIN_SEPARATOR()":"3644e515","EARLY_WITHDRAWAL_PENALTY_PERCENT()":"9c0fbd05","WL_REF_TYPEHASH()":"ecb2dd74","allTransactions(uint256)":"d7ff0714","baseAPY()":"214405a9","blockedAddresses(address)":"4f93208a","bnbPriceForStablecoin()":"64f1d113","bnbPriceForToken()":"a0b3b930","bnbRatio()":"032d975b","btcAddress()":"f7d76ae5","btcRatio()":"1c042d35","buyUSDC()":"251545da","buyUSDT()":"5b365040","buyWithBNB()":"20f1fc61","buyWithBNB_Voucher((address,address,uint256,uint256),bytes)":"7df74181","buyWithBTC(uint256)":"06360b85","buyWithBTC_Voucher((address,address,uint256,uint256),bytes,uint256)":"7ea61fe3","buyWithETH(uint256)":"94dc9cf3","buyWithETH_Voucher((address,address,uint256,uint256),bytes,uint256)":"3a5d4175","buyWithSOL(uint256)":"f30ef2e5","buyWithSOL_Voucher((address,address,uint256,uint256),bytes,uint256)":"14ce670b","buyWithUSDC(uint256)":"aeccf735","buyWithUSDC_Voucher((address,address,uint256,uint256),bytes,uint256)":"a77c80aa","buyWithUSDT(uint256)":"a7c60160","buyWithUSDT_Voucher((address,address,uint256,uint256),bytes,uint256)":"2ba77022","calculateRewards(uint256)":"d3ea4350","ethAddress()":"41398b15","ethRatio()":"bc5894ba","getAllTransactions()":"27506f53","getContractInfo()":"7cc1f867","getReferralInfo(address)":"21874ae2","getStakeDetails(uint256)":"963c9dd3","getStakeInfo(uint256)":"09813482","getStakingInfo()":"b40cd21d","getTokenBalances()":"a1dc9031","getTotalPenaltyCollected()":"491cc756","getUserReferrals(address)":"575cea6b","getUserStakes(address)":"842e2981","getUserStakingInfo(address)":"80933608","getUserTransactions(address)":"ef925399","harvestRewards(uint256)":"57126d0d","hasStaked(address)":"c93c8f34","minStakeAmount()":"f1887684","nextStakeId()":"75506c96","owner()":"8da5cb5b","referralRewardPercentage()":"920a253e","referralRewards(address)":"53aaa63b","referrals(address,uint256)":"e697b5d8","referrers(address)":"4a3b68cc","registerReferrer(address)":"9ea7685a","saleToken()":"e985e367","setBlockStatus(address,bool)":"182a676b","setSaleToken(address)":"a29f481c","setSigner(address)":"6c19e783","signer()":"238ac933","solAddress()":"1ce24e16","solRatio()":"7a9773dc","stakeOwners(uint256)":"fd9a11e5","stakeTokens(uint256,uint256)":"3b7b6188","tokensSold()":"518ab2a8","totalPenaltyCollected()":"2bb38809","totalRewardsDistributed()":"ee172546","totalStaked()":"817b1cd2","totalStakers()":"86989038","unstakeEarly(uint256)":"2fd04c08","unstakeTokens(uint256)":"608e4dd0","updateBTC(address,uint256)":"3a94be2d","updateBaseAPY(uint256)":"71d20fe7","updateETH(address,uint256)":"3e4e6453","updateMinStakeAmount(uint256)":"d8060cd5","updateReferralPercentage(uint256)":"4cdb312d","updateSOL(address,uint256)":"ebcd3a13","updateStablecoinPrice(uint256)":"63219c72","updateTokenPrice(uint256)":"676c0d77","updateUSDC(address,uint256)":"1e37c606","updateUSDT(address,uint256)":"b006984f","usdcAddress()":"02d45457","usdcRatio()":"6f43f373","usdtAddress()":"9ab4a445","usdtRatio()":"83fabe03","usedNonce(address)":"3e61e9dc","userStakes(address,uint256)":"b5d5b5fa","userTransactions(address,uint256)":"b842ec44","withdrawTokens(address,uint256)":"06b091f9"}}}}}