{"contracts/TokenICO.sol":{"TokenICO":{"abi":[{"inputs":[],"stateMutability":"nonpayable","type":"constructor"},{"anonymous":false,"inputs":[{"indexed":false,"internalType":"uint256","name":"oldAPY","type":"uint256"},{"indexed":false,"internalType":"uint256","name":"newAPY","type":"uint256"}],"name":"APYUpdated","type":"event"},{"anonymous":false,"inputs":[{"indexed":true,"internalType":"address","name":"user","type":"address"},{"indexed":false,"internalType":"bool","name":"blocked","type":"bool"}],"name":"AddressBlocked","type":"event"},{"anonymous":false,"inputs":[{"indexed":true,"internalType":"address","name":"user","type":"address"},{"indexed":true,"internalType":"uint256","name":"stakeId","type":"uint256"},{"indexed":false,"internalType":"uint256","name":"amount","type":"uint256"},{"indexed":false,"internalType":"uint256","name":"penalty","type":"uint256"}],"name":"EarlyUnstake","type":"event"},{"anonymous":false,"inputs":[{"indexed":false,"internalType":"uint256","name":"oldMinStake","type":"uint256"},{"indexed":false,"internalType":"uint256","name":"newMinStake","type":"uint256"}],"name":"MinStakeUpdated","type":"event"},{"anonymous":false,"inputs":[{"indexed":false,"internalType":"string","name":"priceType","type":"string"},{"indexed":false,"internalType":"uint256","name":"oldPrice","type":"uint256"},{"indexed":false,"internalType":"uint256","name":"newPrice","type":"uint256"}],"name":"PriceUpdated","type":"event"},{"anonymous":false,"inputs":[{"indexed":false,"internalType":"uint256","name":"oldPercentage","type":"uint256"},{"indexed":false,"internalType":"uint256","name":"newPercentage","type":"uint256"}],"name":"ReferralPercentageUpdated","type":"event"},{"anonymous":false,"inputs":[{"indexed":true,"internalType":"address","name":"referrer","type":"address"},{"indexed":true,"internalType":"address","name":"referee","type":"address"}],"name":"ReferralRegistered","type":"event"},{"anonymous":false,"inputs":[{"indexed":true,"internalType":"address","name":"referrer","type":"address"},{"indexed":true,"internalType":"address","name":"referee","type":"address"},{"indexed":false,"internalType":"uint256","name":"amount","type":"uint256"}],"name":"ReferralRewardPaid","type":"event"},{"anonymous":false,"inputs":[{"indexed":true,"internalType":"address","name":"user","type":"address"},{"indexed":true,"internalType":"uint256","name":"stakeId","type":"uint256"},{"indexed":false,"internalType":"uint256","name":"reward","type":"uint256"}],"name":"RewardHarvested","type":"event"},{"anonymous":false,"inputs":[{"indexed":true,"internalType":"address","name":"oldSigner","type":"address"},{"indexed":true,"internalType":"address","name":"newSigner","type":"address"}],"name":"SignerUpdated","type":"event"},{"anonymous":false,"inputs":[{"indexed":true,"internalType":"address","name":"buyer","type":"address"},{"indexed":true,"internalType":"address","name":"stablecoin","type":"address"},{"indexed":false,"internalType":"uint256","name":"stablecoinAmount","type":"uint256"},{"indexed":false,"internalType":"uint256","name":"bnbPaid","type":"uint256"},{"indexed":false,"internalType":"uint256","name":"timestamp","type":"uint256"}],"name":"StablecoinSold","type":"event"},{"anonymous":false,"inputs":[{"indexed":true,"internalType":"address","name":"user","type":"address"},{"indexed":true,"internalType":"uint256","name":"stakeId","type":"uint256"},{"indexed":false,"internalType":"uint256","name":"amount","type":"uint256"},{"indexed":false,"internalType":"uint256","name":"lockPeriod","type":"uint256"}],"name":"Staked","type":"event"},{"anonymous":false,"inputs":[{"indexed":true,"internalType":"address","name":"buyer","type":"address"},{"indexed":true,"internalType":"address","name":"paymentMethod","type":"address"},{"indexed":false,"internalType":"uint256","name":"amountPaid","type":"uint256"},{"indexed":false,"internalType":"uint256","name":"tokensBought","type":"uint256"},{"indexed":false,"internalType":"uint256","name":"timestamp","type":"uint256"}],"name":"TokensPurchased","type":"event"},{"anonymous":false,"inputs":[{"indexed":true,"internalType":"address","name":"user","type":"address"},{"indexed":true,"internalType":"uint256","name":"stakeId","type":"uint256"},{"indexed":false,"internalType":"uint256","name":"amount","type":"uint256"}],"name":"Unstaked","type":"event"},{"anonymous":false,"inputs":[{"indexed":true,"internalType":"address","name":"user","type":"address"},{"indexed":false,"internalType":"uint256","name":"nonce","type":"uint256"}],"name":"VoucherConsumed","type":"event"},{"inputs":[],"name":"DOMAIN_SEPARATOR","outputs":[{"internalType":"bytes32","name":"","type":"bytes32"}],"stateMutability":"view","type":"function"},{"inputs":[],"name":"EARLY_WITHDRAWAL_PENALTY_PERCENT","outputs":[{"internalType":"uint256","name":"","type":"uint256"}],"stateMutability":"view","type":"function"},{"inputs":[],"name":"TOTAL_TOKENS_FOR_SALE","outputs":[{"internalType":"uint256","name":"","type":"uint256"}],"stateMutability":"view","type":"function"},{"inputs":[],"name":"WAITLIST_ALLOCATION","outputs":[{"internalType":"uint256","name":"","type":"uint256"}],"stateMutability":"view","type":"function"},{"inputs":[],"name":"WL_REF_TYPEHASH","outputs":[{"internalType":"bytes32","name":"","type":"bytes32"}],"stateMutability":"view","type":"function"},{"inputs":[{"internalType":"uint256","name":"","type":"uint256"}],"name":"allTransactions","outputs":[{"internalType":"uint256","name":"timestamp","type":"uint256"},{"internalType":"address","name":"user","type":"address"},{"internalType":"address","name":"tokenIn","type":"address"},{"internalType":"address","name":"tokenOut","type":"address"},{"internalType":"uint256","name":"amountIn","type":"uint256"},{"internalType":"uint256","name":"amountOut","type":"uint256"},{"internalType":"string","name":"transactionType","type":"string"}],"stateMutability":"view","type":"function"},{"inputs":[],"name":"baseAPY","outputs":[{"internalType":"uint256","name":"","type":"uint256"}],"stateMutability":"view","type":"function"},{"inputs":[{"internalType":"address","name":"","type":"address"}],"name":"blockedAddresses","outputs":[{"internalType":"bool","name":"","type":"bool"}],"stateMutability":"view","type":"function"},{"inputs":[],"name":"bnbPriceForStablecoin","outputs":[{"internalType":"uint256","name":"","type":"uint256"}],"stateMutability":"view","type":"function"},{"inputs":[],"name":"bnbPriceForToken","outputs":[{"internalType":"uint256","name":"","type":"uint256"}],"stateMutability":"view","type":"function"},{"inputs":[],"name":"bnbRatio","outputs":[{"internalType":"uint256","name":"","type":"uint256"}],"stateMutability":"view","type":"function"},{"inputs":[],"name":"btcAddress","outputs":[{"internalType":"address","name":"","type":"address"}],"stateMutability":"view","type":"function"},{"inputs":[],"name":"btcRatio","outputs":[{"internalType":"uint256","name":"","type":"uint256"}],"stateMutability":"view","type":"function"},{"inputs":[],"name":"buyUSDC","outputs":[],"stateMutability":"payable","type":"function"},{"inputs":[],"name":"buyUSDT","outputs":[],"stateMutability":"payable","type":"function"},{"inputs":[],"name":"buyWithBNB","outputs":[],"stateMutability":"payable","type":"function"},{"inputs":[{"components":[{"internalType":"address","name":"user","type":"address"},{"internalType":"address","name":"referrer","type":"address"},{"internalType":"uint256","name":"nonce","type":"uint256"},{"internalType":"uint256","name":"deadline","type":"uint256"}],"internalType":"struct TokenICO.WhitelistRef","name":"v","type":"tuple"},{"internalType":"bytes","name":"sig","type":"bytes"}],"name":"buyWithBNB_Voucher","outputs":[],"stateMutability":"payable","type":"function"},{"inputs":[{"internalType":"uint256","name":"btcAmount","type":"uint256"}],"name":"buyWithBTC","outputs":[],"stateMutability":"nonpayable","type":"function"},{"inputs":[{"components":[{"internalType":"address","name":"user","type":"address"},{"internalType":"address","name":"referrer","type":"address"},{"internalType":"uint256","name":"nonce","type":"uint256"},{"internalType":"uint256","name":"deadline","type":"uint256"}],"internalType":"struct TokenICO.WhitelistRef","name":"v","type":"tuple"},{"internalType":"bytes","name":"sig","type":"bytes"},{"internalType":"uint256","name":"btcAmount","type":"uint256"}],"name":"buyWithBTC_Voucher","outputs":[],"stateMutability":"nonpayable","type":"function"},{"inputs":[{"internalType":"uint256","name":"ethAmount","type":"uint256"}],"name":"buyWithETH","outputs":[],"stateMutability":"nonpayable","type":"function"},{"inputs":[{"components":[{"internalType":"address","name":"user","type":"address"},{"internalType":"address","name":"referrer","type":"address"},{"internalType":"uint256","name":"nonce","type":"uint256"},{"internalType":"uint256","name":"deadline","type":"uint256"}],"internalType":"struct TokenICO.WhitelistRef","name":"v","type":"tuple"},{"internalType":"bytes","name":"sig","type":"bytes"},{"internalType":"uint256","name":"ethAmount","type":"uint256"}],"name":"buyWithETH_Voucher","outputs":[],"stateMutability":"nonpayable","type":"function"},{"inputs":[{"internalType":"uint256","name":"solAmount","type":"uint256"}],"name":"buyWithSOL","outputs":[],"stateMutability":"nonpayable","type":"function"},{"inputs":[{"components":[{"internalType":"address","name":"user","type":"address"},{"internalType":"address","name":"referrer","type":"address"},{"internalType":"uint256","name":"nonce","type":"uint256"},{"internalType":"uint256","name":"deadline","type":"uint256"}],"internalType":"struct TokenICO.WhitelistRef","name":"v","type":"tuple"},{"internalType":"bytes","name":"sig","type":"bytes"},{"internalType":"uint256","name":"solAmount","type":"uint256"}],"name":"buyWithSOL_Voucher","outputs":[],"stateMutability":"nonpayable","type":"function"},{"inputs":[{"internalType":"uint256","name":"usdcAmount","type":"uint256"}],"name":"buyWithUSDC","outputs":[],"stateMutability":"nonpayable","type":"function"},{"inputs":[{"components":[{"internalType":"address","name":"user","type":"address"},{"internalType":"address","name":"referrer","type":"address"},{"internalType":"uint256","name":"nonce","type":"uint256"},{"internalType":"uint256","name":"deadline","type":"uint256"}],"internalType":"struct TokenICO.WhitelistRef","name":"v","type":"tuple"},{"internalType":"bytes","name":"sig","type":"bytes"},{"internalType":"uint256","name":"usdcAmount","type":"uint256"}],"name":"buyWithUSDC_Voucher","outputs":[],"stateMutability":"nonpayable","type":"function"},{"inputs":[{"internalType":"uint256","name":"usdtAmount","type":"uint256"}],"name":"buyWithUSDT","outputs":[],"stateMutability":"nonpayable","type":"function"},{"inputs":[{"components":[{"internalType":"address","name":"user","type":"address"},{"internalType":"address","name":"referrer","type":"address"},{"internalType":"uint256","name":"nonce","type":"uint256"},{"internalType":"uint256","name":"deadline","type":"uint256"}],"internalType":"struct TokenICO.WhitelistRef","name":"v","type":"tuple"},{"internalType":"bytes","name":"sig","type":"bytes"},{"internalType":"uint256","name":"usdtAmount","type":"uint256"}],"name":"buyWithUSDT_Voucher","outputs":[],"stateMutability":"nonpayable","type":"function"},{"inputs":[{"internalType":"uint256","name":"stakeId","type":"uint256"}],"name":"calculateRewards","outputs":[{"internalType":"uint256","name":"","type":"uint256"}],"stateMutability":"view","type":"function"},{"inputs":[],"name":"ethAddress","outputs":[{"internalType":"address","name":"","type":"address"}],"stateMutability":"view","type":"function"},{"inputs":[],"name":"ethRatio","outputs":[{"internalType":"uint256","name":"","type":"uint256"}],"stateMutability":"view","type":"function"},{"inputs":[],"name":"getAllTransactions","outputs":[{"components":[{"internalType":"uint256","name":"timestamp","type":"uint256"},{"internalType":"address","name":"user","type":"address"},{"internalType":"address","name":"tokenIn","type":"address"},{"internalType":"address","name":"tokenOut","type":"address"},{"internalType":"uint256","name":"amountIn","type":"uint256"},{"internalType":"uint256","name":"amountOut","type":"uint256"},{"internalType":"string","name":"transactionType","type":"string"}],"internalType":"struct TokenICO.Transaction[]","name":"","type":"tuple[]"}],"stateMutability":"view","type":"function"},{"inputs":[],"name":"getContractInfo","outputs":[{"internalType":"address","name":"tokenAddress","type":"address"},{"internalType":"uint256","name":"tokenBalance","type":"uint256"},{"internalType":"uint256","name":"bnbPrice","type":"uint256"},{"internalType":"uint256","name":"stablecoinPrice","type":"uint256"},{"internalType":"uint256","name":"totalSold","type":"uint256"},{"internalType":"address","name":"usdtAddr","type":"address"},{"internalType":"address","name":"usdcAddr","type":"address"},{"internalType":"uint256","name":"usdtTokenRatio","type":"uint256"},{"internalType":"uint256","name":"usdcTokenRatio","type":"uint256"}],"stateMutability":"view","type":"function"},{"inputs":[{"internalType":"address","name":"buyer","type":"address"}],"name":"getCurrentPrice","outputs":[{"internalType":"uint256","name":"","type":"uint256"}],"stateMutability":"view","type":"function"},{"inputs":[{"internalType":"address","name":"user","type":"address"}],"name":"getReferralInfo","outputs":[{"internalType":"address","name":"referrer","type":"address"},{"internalType":"uint256","name":"totalReferrals","type":"uint256"},{"internalType":"uint256","name":"totalRewardsEarned","type":"uint256"},{"internalType":"uint256","name":"rewardPercentage","type":"uint256"}],"stateMutability":"view","type":"function"},{"inputs":[{"internalType":"uint256","name":"stakeId","type":"uint256"}],"name":"getStakeDetails","outputs":[{"internalType":"uint256","name":"lockPeriod","type":"uint256"},{"internalType":"uint256","name":"pendingRewards","type":"uint256"},{"internalType":"bool","name":"active","type":"bool"}],"stateMutability":"view","type":"function"},{"inputs":[{"internalType":"uint256","name":"stakeId","type":"uint256"}],"name":"getStakeInfo","outputs":[{"internalType":"uint256","name":"id","type":"uint256"},{"internalType":"address","name":"stakeOwnerAddr","type":"address"},{"internalType":"uint256","name":"amount","type":"uint256"},{"internalType":"uint256","name":"startTime","type":"uint256"}],"stateMutability":"view","type":"function"},{"inputs":[],"name":"getStakingInfo","outputs":[{"internalType":"uint256","name":"baseApyRate","type":"uint256"},{"internalType":"uint256","name":"minStakingAmount","type":"uint256"},{"internalType":"uint256","name":"totalTokensStaked","type":"uint256"},{"internalType":"uint256","name":"totalRewardsPaid","type":"uint256"},{"internalType":"uint256","name":"numberOfStakers","type":"uint256"}],"stateMutability":"view","type":"function"},{"inputs":[],"name":"getTokenBalances","outputs":[{"internalType":"uint256","name":"tokenBalance","type":"uint256"},{"internalType":"uint256","name":"usdtBalance","type":"uint256"},{"internalType":"uint256","name":"usdcBalance","type":"uint256"}],"stateMutability":"view","type":"function"},{"inputs":[],"name":"getTotalPenaltyCollected","outputs":[{"internalType":"uint256","name":"","type":"uint256"}],"stateMutability":"view","type":"function"},{"inputs":[{"internalType":"address","name":"referrer","type":"address"}],"name":"getUserReferrals","outputs":[{"internalType":"address[]","name":"","type":"address[]"}],"stateMutability":"view","type":"function"},{"inputs":[{"internalType":"address","name":"user","type":"address"}],"name":"getUserStakes","outputs":[{"components":[{"internalType":"uint256","name":"id","type":"uint256"},{"internalType":"uint256","name":"amount","type":"uint256"},{"internalType":"uint256","name":"startTime","type":"uint256"},{"internalType":"uint256","name":"lockPeriod","type":"uint256"},{"internalType":"uint256","name":"lastRewardCalculation","type":"uint256"},{"internalType":"uint256","name":"pendingRewards","type":"uint256"},{"internalType":"bool","name":"active","type":"bool"}],"internalType":"struct TokenICO.Stake[]","name":"","type":"tuple[]"}],"stateMutability":"view","type":"function"},{"inputs":[{"internalType":"address","name":"user","type":"address"}],"name":"getUserStakingInfo","outputs":[{"internalType":"uint256","name":"totalUserStaked","type":"uint256"},{"internalType":"uint256","name":"totalPendingRewards","type":"uint256"},{"internalType":"uint256","name":"activeStakesCount","type":"uint256"}],"stateMutability":"view","type":"function"},{"inputs":[{"internalType":"address","name":"user","type":"address"}],"name":"getUserTransactions","outputs":[{"components":[{"internalType":"uint256","name":"timestamp","type":"uint256"},{"internalType":"address","name":"user","type":"address"},{"internalType":"address","name":"tokenIn","type":"address"},{"internalType":"address","name":"tokenOut","type":"address"},{"internalType":"uint256","name":"amountIn","type":"uint256"},{"internalType":"uint256","name":"amountOut","type":"uint256"},{"internalType":"string","name":"transactionType","type":"string"}],"internalType":"struct TokenICO.Transaction[]","name":"","type":"tuple[]"}],"stateMutability":"view","type":"function"},{"inputs":[{"internalType":"uint256","name":"stakeId","type":"uint256"}],"name":"harvestRewards","outputs":[],"stateMutability":"nonpayable","type":"function"},{"inputs":[{"internalType":"address","name":"","type":"address"}],"name":"hasStaked","outputs":[{"internalType":"bool","name":"","type":"bool"}],"stateMutability":"view","type":"function"},{"inputs":[],"name":"minStakeAmount","outputs":[{"internalType":"uint256","name":"","type":"uint256"}],"stateMutability":"view","type":"function"},{"inputs":[],"name":"nextStakeId","outputs":[{"internalType":"uint256","name":"","type":"uint256"}],"stateMutability":"view","type":"function"},{"inputs":[],"name":"owner","outputs":[{"internalType":"address","name":"","type":"address"}],"stateMutability":"view","type":"function"},{"inputs":[],"name":"publicInterval","outputs":[{"internalType":"uint256","name":"","type":"uint256"}],"stateMutability":"view","type":"function"},{"inputs":[],"name":"referralRewardPercentage","outputs":[{"internalType":"uint256","name":"","type":"uint256"}],"stateMutability":"view","type":"function"},{"inputs":[{"internalType":"address","name":"","type":"address"}],"name":"referralRewards","outputs":[{"internalType":"uint256","name":"","type":"uint256"}],"stateMutability":"view","type":"function"},{"inputs":[{"internalType":"address","name":"","type":"address"},{"internalType":"uint256","name":"","type":"uint256"}],"name":"referrals","outputs":[{"internalType":"address","name":"","type":"address"}],"stateMutability":"view","type":"function"},{"inputs":[{"internalType":"address","name":"","type":"address"}],"name":"referrers","outputs":[{"internalType":"address","name":"","type":"address"}],"stateMutability":"view","type":"function"},{"inputs":[{"internalType":"address","name":"referrer","type":"address"}],"name":"registerReferrer","outputs":[],"stateMutability":"nonpayable","type":"function"},{"inputs":[],"name":"saleStartTime","outputs":[{"internalType":"uint256","name":"","type":"uint256"}],"stateMutability":"view","type":"function"},{"inputs":[],"name":"saleToken","outputs":[{"internalType":"address","name":"","type":"address"}],"stateMutability":"view","type":"function"},{"inputs":[{"internalType":"address","name":"user","type":"address"},{"internalType":"bool","name":"blocked","type":"bool"}],"name":"setBlockStatus","outputs":[],"stateMutability":"nonpayable","type":"function"},{"inputs":[{"internalType":"uint256","name":"startTime","type":"uint256"}],"name":"setSaleStartTime","outputs":[],"stateMutability":"nonpayable","type":"function"},{"inputs":[{"internalType":"address","name":"_token","type":"address"}],"name":"setSaleToken","outputs":[],"stateMutability":"nonpayable","type":"function"},{"inputs":[{"internalType":"address","name":"_signer","type":"address"}],"name":"setSigner","outputs":[],"stateMutability":"nonpayable","type":"function"},{"inputs":[{"internalType":"address","name":"user","type":"address"},{"internalType":"bool","name":"status","type":"bool"}],"name":"setWaitlisted","outputs":[],"stateMutability":"nonpayable","type":"function"},{"inputs":[],"name":"signer","outputs":[{"internalType":"address","name":"","type":"address"}],"stateMutability":"view","type":"function"},{"inputs":[],"name":"solAddress","outputs":[{"internalType":"address","name":"","type":"address"}],"stateMutability":"view","type":"function"},{"inputs":[],"name":"solRatio","outputs":[{"internalType":"uint256","name":"","type":"uint256"}],"stateMutability":"view","type":"function"},{"inputs":[],"name":"stablecoinPriceIncrement","outputs":[{"internalType":"uint256","name":"","type":"uint256"}],"stateMutability":"view","type":"function"},{"inputs":[{"internalType":"uint256","name":"","type":"uint256"}],"name":"stakeOwners","outputs":[{"internalType":"address","name":"","type":"address"}],"stateMutability":"view","type":"function"},{"inputs":[{"internalType":"uint256","name":"amount","type":"uint256"},{"internalType":"uint256","name":"lockPeriodDays","type":"uint256"}],"name":"stakeTokens","outputs":[],"stateMutability":"nonpayable","type":"function"},{"inputs":[],"name":"tokensSold","outputs":[{"internalType":"uint256","name":"","type":"uint256"}],"stateMutability":"view","type":"function"},{"inputs":[],"name":"totalPenaltyCollected","outputs":[{"internalType":"uint256","name":"","type":"uint256"}],"stateMutability":"view","type":"function"},{"inputs":[],"name":"totalRewardsDistributed","outputs":[{"internalType":"uint256","name":"","type":"uint256"}],"stateMutability":"view","type":"function"},{"inputs":[],"name":"totalStaked","outputs":[{"internalType":"uint256","name":"","type":"uint256"}],"stateMutability":"view","type":"function"},{"inputs":[],"name":"totalStakers","outputs":[{"internalType":"uint256","name":"","type":"uint256"}],"stateMutability":"view","type":"function"},{"inputs":[{"internalType":"uint256","name":"stakeId","type":"uint256"}],"name":"unstakeEarly","outputs":[],"stateMutability":"nonpayable","type":"function"},{"inputs":[{"internalType":"uint256","name":"stakeId","type":"uint256"}],"name":"unstakeTokens","outputs":[],"stateMutability":"nonpayable","type":"function"},{"inputs":[{"internalType":"address","name":"newAddress","type":"address"},{"internalType":"uint256","name":"newRatio","type":"uint256"}],"name":"updateBTC","outputs":[],"stateMutability":"nonpayable","type":"function"},{"inputs":[{"internalType":"uint256","name":"newAPY","type":"uint256"}],"name":"updateBaseAPY","outputs":[],"stateMutability":"nonpayable","type":"function"},{"inputs":[{"internalType":"address","name":"newAddress","type":"address"},{"internalType":"uint256","name":"newRatio","type":"uint256"}],"name":"updateETH","outputs":[],"stateMutability":"nonpayable","type":"function"},{"inputs":[{"internalType":"uint256","name":"newMinAmount","type":"uint256"}],"name":"updateMinStakeAmount","outputs":[],"stateMutability":"nonpayable","type":"function"},{"inputs":[{"internalType":"uint256","name":"newPercentage","type":"uint256"}],"name":"updateReferralPercentage","outputs":[],"stateMutability":"nonpayable","type":"function"},{"inputs":[{"internalType":"address","name":"newAddress","type":"address"},{"internalType":"uint256","name":"newRatio","type":"uint256"}],"name":"updateSOL","outputs":[],"stateMutability":"nonpayable","type":"function"},{"inputs":[{"internalType":"uint256","name":"newPrice","type":"uint256"}],"name":"updateStablecoinPrice","outputs":[],"stateMutability":"nonpayable","type":"function"},{"inputs":[{"internalType":"uint256","name":"newPrice","type":"uint256"}],"name":"updateTokenPrice","outputs":[],"stateMutability":"nonpayable","type":"function"},{"inputs":[{"internalType":"address","name":"newAddress","type":"address"},{"internalType":"uint256","name":"newRatio","type":"uint256"}],"name":"updateUSDC","outputs":[],"stateMutability":"nonpayable","type":"function"},{"inputs":[{"internalType":"address","name":"newAddress","type":"address"},{"internalType":"uint256","name":"newRatio","type":"uint256"}],"name":"updateUSDT","outputs":[],"stateMutability":"nonpayable","type":"function"},{"inputs":[],"name":"usdcAddress","outputs":[{"internalType":"address","name":"","type":"address"}],"stateMutability":"view","type":"function"},{"inputs":[],"name":"usdcRatio","outputs":[{"internalType":"uint256","name":"","type":"uint256"}],"stateMutability":"view","type":"function"},{"inputs":[],"name":"usdtAddress","outputs":[{"internalType":"address","name":"","type":"address"}],"stateMutability":"view","type":"function"},{"inputs":[],"name":"usdtRatio","outputs":[{"internalType":"uint256","name":"","type":"uint256"}],"stateMutability":"view","type":"function"},{"inputs":[{"internalType":"address","name":"","type":"address"}],"name":"usedNonce","outputs":[{"internalType":"uint256","name":"","type":"uint256"}],"stateMutability":"view","type":"function"},{"inputs":[{"internalType":"address","name":"","type":"address"},{"internalType":"uint256","name":"","type":"uint256"}],"name":"userStakes","outputs":[{"internalType":"uint256","name":"id","type":"uint256"},{"internalType":"uint256","name":"amount","type":"uint256"},{"internalType":"uint256","name":"startTime","type":"uint256"},{"internalType":"uint256","name":"lockPeriod","type":"uint256"},{"internalType":"uint256","name":"lastRewardCalculation","type":"uint256"},{"internalType":"uint256","name":"pendingRewards","type":"uint256"},{"internalType":"bool","name":"active","type":"bool"}],"stateMutability":"view","type":"function"},{"inputs":[{"internalType":"address","name":"","type":"address"},{"internalType":"uint256","name":"","type":"uint256"}],"name":"userTransactions","outputs":[{"internalType":"uint256","name":"timestamp","type":"uint256"},{"internalType":"address","name":"user","type":"address"},{"internalType":"address","name":"tokenIn","type":"address"},{"internalType":"address","name":"tokenOut","type":"address"},{"internalType":"uint256","name":"amountIn","type":"uint256"},{"internalType":"uint256","name":"amountOut","type":"uint256"},{"internalType":"string","name":"transactionType","type":"string"}],"stateMutability":"view","type":"function"},{"inputs":[],"name":"waitlistInterval","outputs":[{"internalType":"uint256","name":"","type":"uint256"}],"stateMutability":"view","type":"function"},{"inputs":[],"name":"waitlistSold","outputs":[{"internalType":"uint256","name":"","type":"uint256"}],"stateMutability":"view","type":"function"},{"inputs":[{"internalType":"address","name":"","type":"address"}],"name":"waitlisted","outputs":[{"internalType":"bool","name":"","type":"bool"}],"stateMutability":"view","type":"function"},{"inputs":[{"internalType":"address","name":"_token","type":"address"},{"internalType":"uint256","name":"_amount","type":"uint256"}],"name":"withdrawTokens","outputs":[],"stateMutability":"nonpayable","type":"function"}],"evm":{"bytecode":{"linkReferences":{},"object":"60a08060405234620001e357602060089166013e52b9abe00060065566038d7ea4c6800060075561c350601255603c6013556014601e8155600c60195568056bc75e2d63100000601a55600183556005602255336080523360018060a01b031960265416176026558084558060095580600a5580600b55600d556200008481620001e8565b8281520167546f6b656e49434f60c01b81522060016020604051620000a981620001e8565b82815201603160f81b815220906040519160208301917f8b73c3c69bb8fe3d512ecc4cf759cc79239f7b179b0ffacaa9a75d522b39400f8352604084015260608301524660808301523060a083015260a0825260c082019180831060018060401b03841117620001cd5782604052519020602755615bca9081620002058239608051818181610537015281816107d2015281816108ed01528181610d0a01528181610e36015281816110db015281816116c201528181611a2801528181611d49015281816120d6015281816121d0015281816122750152818161233d0152818161279701528181612bbd01528181612c6d01528181612db801528181612e8a015281816131f9015281816137b3015281816139c701528181613acc0152613c230152f35b634e487b7160e01b600052604160045260246000fd5b600080fd5b604081019081106001600160401b03821117620001cd5760405256fe6080604081815260048036101561001557600080fd5b60009260e08435811c91826302d4545714613e1f57508163032d975b14613dff57816306360b8514613dd257816306b091f914613c025781630981348214613b3257816314ce670b14613b1e578163182a676b14613a885781631c042d3514613a685781631cbaee2d14613a485781631ce24e1614613a1e5781631e37c6061461399a57816320f1fc611461394e578163214405a91461392e57816321874ae2146138cd578163238ac933146138a3578163251545da146136a357816327506f53146135c35781632ba77022146135af5781632bb3880914612d525781632fd04c08146132805781633644e515146132605781633a5d41751461324c5781633a94be2d146131cb5781633b7b618814612ee15781633e4e645314612e5d5781633e61e9dc14612e2457816341398b1514612dfa57816342e97cb814612d925781634561f1e114612d72578163491cc75614612d525781634a3b68cc14612d165781634cdb312d14612c515781634f93208a14612c12578163518ab2a814612bf2578163525f8a5c14612ba457816353aaa63b14612b6b57816357126d0d1461293c578163575cea6b146128915781635b36504014612687578163608e4dd0146123ab57816363219c72146122fe57816364f1d113146122de578163676c0d77146122365781636c19e783146121a75781636f43f3731461218757816371d20fe7146120ba57816375506c961461209b578163776ff66a1461207b578163794a32921461203c5781637a9773dc1461201c5781637cc1f86714611f3d5781637df7418114611b135781637ea61fe31461198357816380933608146118a0578163817b1cd21461188057816383fabe0314611860578163842e29811461175857816384cc315b14611731578163862dd2e21461171157816386989038146116f15781638da5cb5b146116ac578163920a253e1461168c57816392feb8491461166457816394dc9cf31461155c578163963c9dd3146114815781639ab4a445146114575781639c0fbd051461143a5781639ea7685a146112b6578163a0b3b93014611296578163a1dc903114611120578163a29f481c146110b2578163a77c80aa1461107c578163a7c6016014610f30578163aeccf73514610d61578163b006984f14610cdd578163b3b9470614610cbd578163b40cd21d14610c7b578163b5d5b5fa14610be857508063b842ec4414610b6a578063bc5894ba14610b4b578063c93c8f3414610b0d578063d3ea435014610ae6578063d7ff07141461099e578063d8060cd5146108d2578063d8dc286a146108ac578063e697b5d814610851578063e985e36714610829578063ebcd3a13146107a6578063ecb2dd741461076b578063ee1725461461074c578063ef9253991461066e578063f18876841461064b578063f30ef2e514610496578063f7d76ae51461046f5763fd9a11e51461043a57600080fd5b3461046b57602036600319011261046b57358252601c6020908152918190205490516001600160a01b039091168152f35b8280fd5b503461046b578260031936011261046b575490516001600160a01b03909116815260209150f35b503461046b57602036600319011261046b5780359033845260106020526104c360ff8486205416156143e2565b6104ce821515614588565b83546001600160a01b0392906104e7908416151561449a565b82600554166104f78115156147fc565b610503600d5483614336565b92633b9aca00938481029481860414901517156106385785516323b872dd60e01b8152339181019182526001600160a01b037f00000000000000000000000000000000000000000000000000000000000000001660208381019190915260408301859052909392909184919082908a90829060600103925af1801561062e57600080516020615b75833981519152936105aa6105af926105fa958a91610600575b5061483d565b61511c565b936105b985615356565b6105d681600554168684848b54166105cf614569565b9333615a73565b60055416945191829133954291846040919493926060820195825260208201520152565b0390a380f35b610621915060203d8111610627575b61061981836140df565b810190614616565b386105a4565b503d61060f565b85513d88823e3d90fd5b634e487b7160e01b875260119052602486fd5b50503461066a578160031936011261066a57602090601a549051908152f35b5080fd5b5082903461066a5760209182600319360112610749576001600160a01b039283610696613e44565b16825260168152848220918254936106ad85615acf565b956106ba885197886140df565b85875283870194835283832092945b8686106106e1578851806106dd8a82613f3a565b0390f35b6007856001928b516106f281614059565b8754815285858901541683820152856002890154168d820152856003890154166060820152868801546080820152600588015460a082015261073660068901614101565b60c08201528152019401950194926106c9565b80fd5b50503461066a578160031936011261066a57602090601e549051908152f35b50503461066a578160031936011261066a57602090517f91b089318bbdf627bacec662873c12cc3afdc69db73f084d7726e9ce2907280a8152f35b50503461066a57366003190112610749576107bf613e44565b602435906001600160a01b03906107f9337f0000000000000000000000000000000000000000000000000000000000000000841614614204565b16610805811515614279565b6108108215156142b7565b6001600160601b0360a01b6005541617600555600d5580f35b50503461066a578160031936011261066a57905490516001600160a01b039091168152602090f35b50503461066a578060031936011261066a5761086b613e44565b6001600160a01b0390811683526024602081905282842080549135949091851015610749575060209361089d916141ec565b92905490519260031b1c168152f35b50503461066a578160031936011261066a57602090516a01a784379d99db420000008152f35b503461046b57602036600319011261046b5780359061091b337f00000000000000000000000000000000000000000000000000000000000000006001600160a01b031614614204565b811561095b5750907f171aabb8815c02fd00303450a77058600e3661eb75ce2e77972c0f080bc7099d91601a549080601a5582519182526020820152a180f35b606490602084519162461bcd60e51b8352820152602060248201527f4d696e207374616b65206d7573742062652067726561746572207468616e20306044820152fd5b503461046b57602036600319011261046b573560175481101561046b576017600792935202906106dd827fc624b66cc0138b8fabc209247f72d758e1cf3343756d543badbf24212bed8c1501549160018060a01b0393847fc624b66cc0138b8fabc209247f72d758e1cf3343756d543badbf24212bed8c168201541694807fc624b66cc0138b8fabc209247f72d758e1cf3343756d543badbf24212bed8c1783015416907fc624b66cc0138b8fabc209247f72d758e1cf3343756d543badbf24212bed8c18830154167fc624b66cc0138b8fabc209247f72d758e1cf3343756d543badbf24212bed8c1983015491610adb7fc624b66cc0138b8fabc209247f72d758e1cf3343756d543badbf24212bed8c1b7fc624b66cc0138b8fabc209247f72d758e1cf3343756d543badbf24212bed8c1a8601549501614101565b9451978897886141a7565b5091346107495760203660031901126107495750610b0660209235614ed0565b9051908152f35b50503461066a57602036600319011261066a5760209160ff9082906001600160a01b03610b38613e44565b1681526021855220541690519015158152f35b50503461066a578160031936011261066a57602090600b549051908152f35b5091903461066a578060031936011261066a57610b85613e44565b6001600160a01b0390811683526016602052818320805491936024359283101561074957506106dd9291610bb891613fed565b50805493806001830154169581600284015416916003840154169083015491610adb600660058601549501614101565b93905034610749578260031936011261074957610c03613e44565b6001600160a01b03168152601b60205282812080546024359290831015610749575090610c2f91613fed565b5080549260018201549260028301546003840154918401549260ff600660058701549601541695815197885260208801528601526060850152608084015260a0830152151560c0820152f35b5050503461066a578160031936011261066a5760a09060195490601a5490601d54601e5491601f54938151958652602086015284015260608301526080820152f35b5050503461066a578160031936011261066a576020906012549051908152f35b5050503461066a5736600319011261074957610cf7613e44565b602435906001600160a01b0390610d31337f0000000000000000000000000000000000000000000000000000000000000000841614614204565b16610d3d811515614279565b610d488215156142b7565b6001600160601b0360a01b600154161760015560085580f35b50503461046b57602036600319011261046b578035903384526010602052610d8f60ff8486205416156143e2565b811591610d9c8315614588565b84546001600160a01b039390610db5908516151561449a565b8360025416610dc5811515614671565b620f42409182840292848404141715610f1d57610de133614356565b610ded60075485614336565b670de0b6b3a764000090818102918183041490151715610f0a5791610e19610e76959492602094614316565b88516323b872dd60e01b8152339781019788526001600160a01b037f00000000000000000000000000000000000000000000000000000000000000001660208901526040880193909352959194859283918b918391606090910190565b03925af1801561062e57600080516020615b75833981519152936105aa610ea8926105fa958a91610eec575b506146b3565b93610eb285615356565b610ec881600254168684848b54166105cf614569565b60025416945191829133954291846040919493926060820195825260208201520152565b610f04915060203d81116106275761061981836140df565b38610ea2565b634e487b7160e01b895260118652602489fd5b634e487b7160e01b875260118452602487fd5b50503461046b57602036600319011261046b578035903384526010602052610f5e60ff8486205416156143e2565b811591610f6b8315614588565b84546001600160a01b039390610f84908516151561449a565b8360015416610f948115156145d4565b620f42409182840292848404141715610f1d57610fb033614356565b610fbc60075485614336565b670de0b6b3a764000090818102918183041490151715610f0a5791610e19610fe8959492602094614316565b03925af1801561062e57600080516020615b75833981519152936105aa61101a926105fa958a9161105e575b5061462e565b9361102485615356565b61103a81600154168684848b54166105cf614569565b60015416945191829133954291846040919493926060820195825260208201520152565b611076915060203d81116106275761061981836140df565b38611014565b50503461046b57610d8f9061109036613e8d565b949291909133885260106020526110ad60ff888a205416156143e2565b614893565b8434610749576020366003190112610749576110cc613e44565b6001600160a01b0390611102337f0000000000000000000000000000000000000000000000000000000000000000841614614204565b1661110e811515614279565b81546001600160a01b03191617815580f35b5050903461046b578260031936011261046b57825481516370a0823160e01b808252308286015290946001600160a01b03946020938490889060249082908a165afa95861561128c57829661125c575b602497508481600154168751998a809288825230878301525afa978815611252578398611222575b509060248592600254169487519586938492835230908301525afa9283156112165781936111e3575b5050506106dd9151938493846040919493926060820195825260208201520152565b9091809350813d831161120f575b6111fb81836140df565b810103126107495750516106dd38806111c1565b503d6111f1565b508351903d90823e3d90fd5b9097508481813d831161124b575b61123a81836140df565b8101031261046b5751966024611198565b503d611230565b86513d85823e3d90fd5b95508387813d8311611285575b61127381836140df565b8101031261066a576024965195611170565b503d611269565b85513d84823e3d90fd5b5050503461066a578160031936011261066a576020906006549051908152f35b5050903461046b57602080600319360112611436576112d3613e44565b92338552601082526112eb60ff8487205416156143e2565b6001600160a01b039384169384156113f4573385146113ba5733865260238352838620541661136e57509060246113459233865260238152828620856001600160601b0360a01b8254161790558486525233908420614423565b33907f5f1ca2fcc108b751843a763e60d2201f593516109d7dbb1b700468f2d4190bb78380a380f35b915162461bcd60e51b815291820152602260248201527f416c72656164792072656769737465726564207769746820612072656665727260448201526132b960f11b6064820152608490fd5b50915162461bcd60e51b815291820152601560248201527421b0b73737ba103932b332b9103cb7bab939b2b63360591b6044820152606490fd5b50915162461bcd60e51b815291820152601860248201527f496e76616c6964207265666572726572206164647265737300000000000000006044820152606490fd5b8380fd5b5050503461066a578160031936011261066a576020905160058152f35b5050503461066a578160031936011261066a5760015490516001600160a01b039091168152602090f35b50503461046b57602090816003193601126114365735808452601c8252828420546001600160a01b0316939092906114ba851515614e10565b6114c2615b3c565b8195825b818452601b8087528585208054831015611547576114e5838a92613fed565b5054146114fb57506114f690614e01565b6114c6565b6060985061151e93508486916115189461152e9752885220613fed565b50615ae7565b936115296001614e53565b614ed0565b60c0858501519401511515928251948552840152820152f35b505050509361152e9150611529606096614e53565b50503461046b57602036600319011261046b57803590338452601060205261158a60ff8486205416156143e2565b611595821515614588565b83546001600160a01b03926115d0916115b1908516151561449a565b60208185600354166115c48115156146f6565b610e19600b5483614336565b03925af1801561062e57600080516020615b75833981519152936105aa611602926105fa958a91611646575b50614737565b9361160c85615356565b61162281600354168684848b54166105cf614569565b60035416945191829133954291846040919493926060820195825260208201520152565b61165e915060203d81116106275761061981836140df565b386115fc565b5050503461066a578160031936011261066a57602090516b01f04ef12cb04cf1580000008152f35b5050503461066a578160031936011261066a576020906022549051908152f35b5050503461066a578160031936011261066a57517f00000000000000000000000000000000000000000000000000000000000000006001600160a01b03168152602090f35b5050503461066a578160031936011261066a57602090601f549051908152f35b5050503461066a578160031936011261066a576020906013549051908152f35b5050503461066a57602036600319011261066a57602090610b06611753613e44565b614356565b9150503461046b576020806003193601126114365790916001600160a01b0361177f613e44565b168452601b82528084209182549161179683615acf565b926117a3825194856140df565b8084528284018095885283882088915b838310611833575050505080519482860193838752518094528186019496915b8483106117e05786860387f35b87518051875280850151878601528082015187830152606080820151908801526080808201519088015260a0808201519088015260c09081015115159087015296830196948101946001909201916117d3565b60078660019261184a859d999a9b9d9c989c615ae7565b81520192019201919098969594989793976117b3565b5050503461066a578160031936011261066a576020906008549051908152f35b5050503461066a578160031936011261066a57602090601d549051908152f35b8385346107495760209081600319360112610749576118bd613e44565b9091829182919082906001600160a01b0316815b818652601b808552888720805483101561196b5760ff60066118f4858d94613fed565b5001541661190d575b505061190890614e01565b6118d1565b82969461193b839a60016119326119089761195d968e611963998e8d83525220613fed565b50015490614349565b99858a528752611957611950898d8c20613fed565b5054614ed0565b90614349565b93614e01565b9490886118fd565b89518981526020810186905260408101889052606090f35b50503461046b576119b361199636613e8d565b939291909133885260106020526110ad60ff888a205416156143e2565b6119be811515614588565b83546001600160a01b0391906119d7908316151561449a565b81835416906119e7821515614779565b6119f3600c5482614336565b926402540be40093848102948186041490151715611b005785516323b872dd60e01b8152338682019081526001600160a01b037f000000000000000000000000000000000000000000000000000000000000000016602082810191909152604082018590529194859182908b90829060600103925af18015611af657600080516020615b75833981519152946105aa611a97926105fa968b91611ad8575b506147ba565b94611aa186615356565b611ab6828254168785858c54166105cf614569565b5416945191829133954291846040919493926060820195825260208201520152565b611af0915060203d81116106275761061981836140df565b38611a91565b86513d89823e3d90fd5b634e487b7160e01b875260118552602487fd5b828585366003190160a0811261046b5760801361066a5760843567ffffffffffffffff811161046b57611b499036908501613e5f565b9190338452602060108152611b6460ff8487205416156143e2565b60643591824211611f08576001600160a01b03948735868116929190839003611f0457338303611ece57604435923389526028855286892054841115611e9e576027549060243596898816809803611e9a57885190878201927f91b089318bbdf627bacec662873c12cc3afdc69db73f084d7726e9ce2907280a84528a83015288606083015286608083015260a082015260a08152611c028161408b565b5190208751908682019261190160f01b84526022830152604282015260428152611c2b816140a7565b51902090611c38816144db565b92611c45885194856140df565b8184523682820111611e9657918986838694611c6b9683611c7399013784010152614cd6565b919091614bbc565b858060265416911603611e635733865260288252808487205583519081527fb23e07a4fc171f5f9242d4254c3b66b893beaab2f3787495c0f2d09dd3ef9726823392a28482151580611e57575b80611e43575b8181611e24575b50611dbf575b5050503415611ce2811561445e565b611cf083855416151561449a565b611cf933614356565b90670de0b6b3a76400009081340291348304141715611dac5791611d8e611d346105aa600080516020615b7583398151915294889796614316565b93611d3e85615356565b611d798680808034867f0000000000000000000000000000000000000000000000000000000000000000165af1611d736144f7565b50614527565b85541684611d85614569565b91349033615a14565b513481526020810192909252426040830152339180606081016105fa565b634e487b7160e01b855260118652602485fd5b611e205760249033865260238152838620836001600160601b0360a01b82541617905582865252611df233838620614423565b33907f5f1ca2fcc108b751843a763e60d2201f593516109d7dbb1b700468f2d4190bb78580a3848080611cd3565b8480fd5b9050611e3f578286526010825260ff84872054161581611ccd565b8580fd5b503386526023825284848720541615611cc6565b50508433831415611cc0565b835162461bcd60e51b8152808801839052600d60248201526c426164207369676e617475726560981b6044820152606490fd5b8980fd5b8a80fd5b865162461bcd60e51b8152808b01869052600a602482015269139bdb98d9481d5cd95960b21b6044820152606490fd5b855162461bcd60e51b8152808a01859052601060248201526f2737ba103cb7bab9103b37bab1b432b960811b6044820152606490fd5b8780fd5b835162461bcd60e51b8152808801839052600f60248201526e159bdd58da195c88195e1c1a5c9959608a1b6044820152606490fd5b92905034611436578360031936011261143657835481516370a0823160e01b815230938101939093526001600160a01b039081169390602084602481885afa938415612012578694611fda575b50610120955060065490600754600e54908260015416926002541693600854966009549881519a8b5260208b01528901526060880152608087015260a086015260c0850152830152610100820152f35b9093506020813d821161200a575b81611ff5602093836140df565b81010312611e3f576101209550519238611f8a565b3d9150611fe8565b83513d88823e3d90fd5b5050503461066a578160031936011261066a57602090600d549051908152f35b5050503461066a57602036600319011261066a5760209160ff9082906001600160a01b03612068613e44565b1681526015855220541690519015158152f35b5050503461066a578160031936011261066a576020906014549051908152f35b5050503461066a578160031936011261066a5760209081549051908152f35b50503461046b57602036600319011261046b57803590612104337f00000000000000000000000000000000000000000000000000000000000000006001600160a01b031614614204565b81156121445750907f787a1fca55641ce34a438271930bbb9401df20db2b4f510d4f252227d85df43d91601954908060195582519182526020820152a180f35b606490602084519162461bcd60e51b8352820152601a60248201527f415059206d7573742062652067726561746572207468616e20300000000000006044820152fd5b5050503461066a578160031936011261066a576020906009549051908152f35b8434610749576020366003190112610749576121c1613e44565b6001600160a01b03906121f7337f0000000000000000000000000000000000000000000000000000000000000000841614614204565b816026549116809282167f2d025324f0a785e8c12d0a0d91a9caa49df4ef20ff87e0df7213a1d4f3157beb8580a36001600160a01b0319161760265580f35b50503461046b57602036600319011261046b577f6e838f2a03741f5f2aff5480963b672fb0dd8430a4dc75db9b67ce009733c9fe9160a091356122a3337f00000000000000000000000000000000000000000000000000000000000000006001600160a01b031614614204565b6122ae81151561423d565b60065491816006558051926060845260056060850152642a27a5a2a760d91b60808501526020840152820152a180f35b5050503461066a578160031936011261066a576020906007549051908152f35b50503461046b57602036600319011261046b577f6e838f2a03741f5f2aff5480963b672fb0dd8430a4dc75db9b67ce009733c9fe9160a0913561236b337f00000000000000000000000000000000000000000000000000000000000000006001600160a01b031614614204565b61237681151561423d565b600754918160075580519260608452600a60608501526929aa20a12622a1a7a4a760b11b60808501526020840152820152a180f35b5050903461046b57602090816003193601126114365782919235923385526010815260ff6123de818488205416156143e2565b848652601c8252828620546001600160a01b03906123ff90821633146150de565b8694859283805b338b52601b808852888c208054831015612673579a61242783829c9d613fed565b505414612440575061243890614e01565b989798612406565b95509798505033895283855261246961245b88888c20613fed565b509160068093015416614e91565b338952838552600261247d88888c20613fed565b500154338a52848652600361249489898d20613fed565b50015490620151809182810292818404149015171561266057906124b791614349565b42106126265791849161251a8a612560956124fc6124d48d614ed0565b9b3384528988528b6124e882828720613fed565b50946001809601549b3382528a5220613fed565b500160ff198154169055601d6125138882546142f3565b9055614e53565b6125233361529d565b61252d8886614349565b8a54885163a9059cbb60e01b8152339381019384526020840192909252909485939091169183918c918391604090910190565b03925af190811561261c579061257d9188916125ff575b50614dbd565b8484151591826125eb575b84519081527f7fc4727e062e336010f2c282598ef5f14facb3de68cf8195c2f23e1454b2b74e843392a36125ba578480f35b7ff87cfa2d5feaea949ad65bb76a26d8553381bcb6382adbc83dedd48961bf32d991519283523392a3388080808480f35b6125f786601e54614349565b601e55612588565b6126169150843d86116106275761061981836140df565b38612577565b84513d89823e3d90fd5b855162461bcd60e51b8152808301869052601460248201527314dd1a5b1b081a5b881b1bd8dac81c195c9a5bd960621b6044820152606490fd5b634e487b7160e01b8b526011845260248bfd5b5050506125609391509161251a8693614e53565b50508260031936011261046b573383526020601081526126ad60ff8486205416156143e2565b3415906126ba821561445e565b6001546001600160a01b0392908316906126d58215156145d4565b620f42409081340291348304141715611b00576007546126f491614316565b9385516370a0823160e01b815230828201528381602481865afa80156128875786918991612856575b501061281357855163a9059cbb60e01b81523391810191825260208201869052939291829185919082908a90829060400103925af1801561062e577f48a1f8a6c840b32621ceab4439a2ccd00b337e705dfdcdec0b40c49abf3e6be39361278c9288926127f6575b505061462e565b6127c18580808034867f0000000000000000000000000000000000000000000000000000000000000000165af1611d736144f7565b6127d2816001541684611d85614d9d565b600154935192835234602084015242604084015290921691339180606081016105fa565b61280c9250803d106106275761061981836140df565b3880612785565b855162461bcd60e51b8152908101839052601b60248201527f496e73756666696369656e742055534454206c697175696469747900000000006044820152606490fd5b809250858092503d8311612880575b61286f81836140df565b81010312611f04578590513861271d565b503d612865565b87513d8a823e3d90fd5b5050503461066a5760208060031936011261046b576001600160a01b0392836128b8613e44565b1681526024825282812091835190818185549182815201908195855282852090855b81811061292657505050826128f09103836140df565b8451948186019282875251809352850193925b8281106129105785850386f35b8351871685529381019392810192600101612903565b82548a16845292840192600192830192016128da565b50503461046b5760209081600319360112611436578035913385526010815260ff9361296d858288205416156143e2565b838652601c8252808620546001600160a01b03939061298f90851633146150de565b8693875b338952601b808652848a208054831015612b58576129b2838a92613fed565b5054146129c857506129c390614e01565b612993565b96976129f191929394959650338a5287875260066129e884888d20613fed565b50015416614e91565b6129fa87614ed0565b958615612b1d5790612a2b91338a52808752896005612a1b84898420613fed565b500155338a528652848920613fed565b5042908301558654835163a9059cbb60e01b815233818501908152602081018890529092869284928390036040019183918c91165af1908115612b13578791612af6575b5015612abc5750907ff87cfa2d5feaea949ad65bb76a26d8553381bcb6382adbc83dedd48961bf32d991601e612aa6858254614349565b9055519283523392a3612ab96001614e53565b80f35b82606492519162461bcd60e51b8352820152601660248201527514995dd85c99081d1c985b9cd9995c8819985a5b195960521b6044820152fd5b612b0d9150843d86116106275761061981836140df565b38612a6f565b83513d89823e3d90fd5b845162461bcd60e51b81528085018790526015602482015274139bc81c995dd85c991cc81d1bc81a185c9d995cdd605a1b6044820152606490fd5b505050505050509050612ab99150614e53565b5050503461066a57602036600319011261066a5760209181906001600160a01b03612b94613e44565b1681526025845220549051908152f35b84833461066a57602036600319011261066a57612beb337f00000000000000000000000000000000000000000000000000000000000000006001600160a01b031614614204565b3560115580f35b5050503461066a578160031936011261066a57602090600e549051908152f35b5050503461066a57602036600319011261066a5760209160ff9082906001600160a01b03612c3e613e44565b1681526010855220541690519015158152f35b50503461046b57602036600319011261046b57803590612c9b337f00000000000000000000000000000000000000000000000000000000000000006001600160a01b031614614204565b60148211612cdd5750907fd968a3cc702265c3ab67356df15ca21d50167b011f198b963e2a868e04e3d5e091602254908060225582519182526020820152a180f35b606490602084519162461bcd60e51b835282015260136024820152720a0cae4c6cadce8c2ceca40e8dede40d0d2ced606b1b6044820152fd5b5050503461066a57602036600319011261066a576020916001600160a01b0390829082612d41613e44565b168152602385522054169051908152f35b5050503461066a578160031936011261066a576020906018549051908152f35b5050503461066a578160031936011261066a57602090600f549051908152f35b5050503461066a57612ab990612da736613ecb565b91906001600160a01b0390612ddf337f0000000000000000000000000000000000000000000000000000000000000000841614614204565b168452601560205283209060ff801983541691151516179055565b5050503461066a578160031936011261066a5760035490516001600160a01b039091168152602090f35b5050503461066a57602036600319011261066a5760209181906001600160a01b03612e4d613e44565b1681526028845220549051908152f35b5050503461066a5736600319011261074957612e77613e44565b602435906001600160a01b0390612eb1337f0000000000000000000000000000000000000000000000000000000000000000841614614204565b16612ebd811515614279565b612ec88215156142b7565b6001600160601b0360a01b6003541617600355600b5580f35b8285853461066a578060031936011261066a5782356024359133845260209260108452612f1460ff8387205416156143e2565b601a5483106131885784546001600160a01b0316612f3381151561449a565b601e8214801561317e575b8015613174575b8015613169575b156131305782516323b872dd60e01b815233818901908152306020820152604081018690529091869183919082908a90829060600103925af19081156120125790612f9d9187916131135750614dbd565b835493612fa985614e01565b81558251612fb681614059565b85815281810185815284820142815260608301858152608084019042825260a08501928b845260c086019460018652338d52601b8852898d20805490600160401b8210156130ff579061300e91600182018155613fed565b9790976130ed57927fb4caaf29adda3eefee3ad552a8e85058589bf834c7466cae4ee58787f70589ed9b9c9d9e9261307d9897959260069795518955516001890155516002880155516003870155519085015551600584015551151591019060ff801983541691151516179055565b858752601c8152828720336001600160601b0360a01b8254161790556130a585601d54614349565b601d5533875260218152828720805460ff8116156130ce575b505082519485528401523392a380f35b60ff19166001179055601f546130e390614e01565b601f5587806130be565b634e487b7160e01b8e528d8f5260248efd5b8f8f6041602492634e487b7160e01b835252fd5b61312a9150863d88116106275761061981836140df565b88612577565b825162461bcd60e51b81528088018690526013602482015272125b9d985b1a59081b1bd8dac81c195c9a5bd9606a1b6044820152606490fd5b5061016d8214612f4c565b5060b48214612f45565b50605a8214612f3e565b815162461bcd60e51b8152808701859052601a60248201527f416d6f756e742062656c6f77206d696e696d756d207374616b650000000000006044820152606490fd5b5050903461046b5736600319011261066a576131e5613e44565b60243591906001600160a01b0390613220337f0000000000000000000000000000000000000000000000000000000000000000841614614204565b1661322c811515614279565b6132378315156142b7565b81546001600160a01b031916179055600c5580f35b50503461046b5761158a9061109036613e8d565b5050503461066a578160031936011261066a576020906027549051908152f35b50509134610749576020928360031936011261066a578035903383526010855260ff916132b2838686205416156143e2565b808452601c8652848420546001600160a01b0396906132d490881633146150de565b8495855b338752601b808452828820805483101561359c576132f7838792613fed565b50541461330d575061330890614e01565b6132d8565b919293949596975033885281845261333861332a82858b20613fed565b509760068099015416614e91565b338852818452600261334c82858b20613fed565b500154338952828552600361336383868c20613fed565b500154906201518091828102928184041490151715613589579961338e86928b9c9b98999a9b614349565b9261339889614ed0565b9a3389528584526133ab82888b20613fed565b5091876001809401549a8097421061352f575b906133d492916134349899338252885220613fed565b500160ff198154169055601d6133eb8982546142f3565b9055986134018b6133fc878b6142f3565b614349565b8c54875163a9059cbb60e01b8152339381019384526020840192909252909485939091169183918e918391604090910190565b03925af1908115613525579761345587926134959a8c9161350e5750614dbd565b806134ce575b5050801561349e577f9c9ec3cfa814b0112b71c20d0b0ab54dead00a99fd389c174df717d2f1d364039282519485528401523392a3614e53565b612ab93361529d565b50907f7fc4727e062e336010f2c282598ef5f14facb3de68cf8195c2f23e1454b2b74e91519283523392a3614e53565b601e6134db828254614349565b905583519081527ff87cfa2d5feaea949ad65bb76a26d8553381bcb6382adbc83dedd48961bf32d9853392a3843861345b565b6126169150873d89116106275761061981836140df565b83513d8b823e3d90fd5b5050919350919350600580890290898204148915171561357657916133d4889492888f60646134349997049960186135688c8254614349565b9055999850909192506133be565b634e487b7160e01b8d5260118b5260248dfd5b634e487b7160e01b8a526011885260248afd5b5050505050505050915061349590614e53565b50503461046b57610f5e9061109036613e8d565b5050823461074957806003193601126107495790601754906135e482615acf565b926135f1855194856140df565b82845260178152906020907fc624b66cc0138b8fabc209247f72d758e1cf3343756d543badbf24212bed8c15908286015b858510613636578751806106dd8982613f3a565b6007846001928a5161364781614059565b86548152848060a01b0380868901541684830152806002890154168d8301526003880154166060820152858701546080820152600587015460a082015261369060068801614101565b60c0820152815201930194019391613622565b50508260031936011261046b573383526020601081526136c960ff8486205416156143e2565b3415906136d6821561445e565b6002546001600160a01b0392908316906136f1821515614671565b620f42409081340291348304141715611b005760075461371091614316565b9385516370a0823160e01b815230828201528381602481865afa80156128875786918991613872575b501061382f57855163a9059cbb60e01b81523391810191825260208201869052939291829185919082908a90829060400103925af1801561062e577f48a1f8a6c840b32621ceab4439a2ccd00b337e705dfdcdec0b40c49abf3e6be3936137a8928892613812575b50506146b3565b6137dd8580808034867f0000000000000000000000000000000000000000000000000000000000000000165af1611d736144f7565b6137ee816002541684611d85614d9d565b600254935192835234602084015242604084015290921691339180606081016105fa565b6138289250803d106106275761061981836140df565b38806137a1565b855162461bcd60e51b8152908101839052601b60248201527f496e73756666696369656e742055534443206c697175696469747900000000006044820152606490fd5b809250858092503d831161389c575b61388b81836140df565b81010312611f045785905138613739565b503d613881565b5050503461066a578160031936011261066a5760265490516001600160a01b039091168152602090f35b5050503461066a57602036600319011261066a576080916001600160a01b03806138f5613e44565b16825260236020528282205416916024602052808083205492602560205220549060225492815194855260208501528301526060820152f35b5050503461066a578160031936011261066a576020906019549051908152f35b8285858160031936011261066a57338252601060205261397460ff8284205416156143e2565b341590613981821561445e565b82546001600160a01b039290611cf0908416151561449a565b5050503461066a57366003190112610749576139b4613e44565b602435906001600160a01b03906139ee337f0000000000000000000000000000000000000000000000000000000000000000841614614204565b166139fa811515614279565b613a058215156142b7565b6001600160601b0360a01b600254161760025560095580f35b5050503461066a578160031936011261066a5760055490516001600160a01b039091168152602090f35b5050503461066a578160031936011261066a576020906011549051908152f35b5050503461066a578160031936011261066a57602090600c549051908152f35b5050503461066a577fdda6207409a585801122fb885dcaa8074f9a21f25ff2def680c67f01a86c2c9b6020613abc36613ecb565b906001600160a01b0390613af3337f0000000000000000000000000000000000000000000000000000000000000000841614614204565b169384865260108352613b14828288209060ff801983541691151516179055565b519015158152a280f35b50503461046b576104c39061109036613e8d565b8385843461066a576020908160031936011261046b573592838352601c825260018060a01b03818420541692613b69841515614e10565b613b71615b3c565b8195825b868452601b8087528585208054831015613bf057613b94838592613fed565b505414613baa5750613ba590614e01565b613b75565b6080985061151893508591925093613bc794888252875220613fed565b90613bd26001614e53565b81519381848401519301519382519586528501528301526060820152f35b50505050919050613bd2608095614e53565b5050903461046b578060031936011261046b57613c1d613e44565b602435907f00000000000000000000000000000000000000000000000000000000000000006001600160a01b03613c573382841614614204565b808754169216918214613d12575b835163a9059cbb60e01b81526001600160a01b03909116858201908152602081810194909452909291839182908890829060400103925af1908115613d08578491613cea575b5015613cb5578280f35b906020606492519162461bcd60e51b8352820152600f60248201526e151c985b9cd9995c8819985a5b1959608a1b6044820152fd5b613d02915060203d81116106275761061981836140df565b38613cab565b82513d86823e3d90fd5b83516370a0823160e01b81523086820152602081602481865afa8015613dc8578790613d91575b613d479150601d54906142f3565b831115613c6557835162461bcd60e51b8152602081870152601d60248201527f43616e6e6f74207769746864726177207374616b656420746f6b656e730000006044820152606490fd5b506020813d8211613dc0575b81613daa602093836140df565b81010312613dbc57613d479051613d39565b8680fd5b3d9150613d9d565b85513d89823e3d90fd5b50503461046b57602036600319011261046b57803533845260106020526119b360ff8486205416156143e2565b5050503461066a578160031936011261066a57602090600a549051908152f35b85903461066a578160031936011261066a576002546001600160a01b03168152602090f35b600435906001600160a01b0382168203613e5a57565b600080fd5b9181601f84011215613e5a5782359167ffffffffffffffff8311613e5a5760208381860195010111613e5a57565b90600319820160c08112613e5a57608013613e5a576004916084359067ffffffffffffffff8211613e5a57613ec3918401613e5f565b909160a43590565b6040906003190112613e5a576004356001600160a01b0381168103613e5a57906024358015158103613e5a5790565b919082519283825260005b848110613f26575050826000602080949584010152601f8019910116010190565b602081830181015184830182015201613f05565b602080820190808352835180925260409283810182858560051b8401019601946000925b858410613f6f575050505050505090565b909192939495968580613fdc600193603f198682030188528b5180518252858060a01b0380858301511685840152808983015116898401526060908183015116908301526080808201519083015260a0808201519083015260c0809101519160e080928201520190613efa565b990194019401929594939190613f5e565b8054821015614009576000526007602060002091020190600090565b634e487b7160e01b600052603260045260246000fd5b90600182811c9216801561404f575b602083101461403957565b634e487b7160e01b600052602260045260246000fd5b91607f169161402e565b60e0810190811067ffffffffffffffff82111761407557604052565b634e487b7160e01b600052604160045260246000fd5b60c0810190811067ffffffffffffffff82111761407557604052565b6080810190811067ffffffffffffffff82111761407557604052565b6040810190811067ffffffffffffffff82111761407557604052565b90601f8019910116810190811067ffffffffffffffff82111761407557604052565b90604051918260008254926141158461401f565b9081845260019485811690816000146141845750600114614141575b505061413f925003836140df565b565b9093915060005260209081600020936000915b81831061416c57505061413f93508201013880614131565b85548884018501529485019487945091830191614154565b91505061413f94506020925060ff191682840152151560051b8201013880614131565b9360e095926141e998979492865260018060a01b0392838092166020880152166040860152166060840152608083015260a08201528160c08201520190613efa565b90565b80548210156140095760005260206000200190600090565b1561420b57565b60405162461bcd60e51b815260206004820152600a60248201526927b7363c9037bbb732b960b11b6044820152606490fd5b1561424457565b60405162461bcd60e51b815260206004820152600d60248201526c496e76616c696420707269636560981b6044820152606490fd5b1561428057565b60405162461bcd60e51b815260206004820152600f60248201526e496e76616c6964206164647265737360881b6044820152606490fd5b156142be57565b60405162461bcd60e51b815260206004820152600d60248201526c496e76616c696420726174696f60981b6044820152606490fd5b9190820391821161430057565b634e487b7160e01b600052601160045260246000fd5b8115614320570490565b634e487b7160e01b600052601260045260246000fd5b8181029291811591840414171561430057565b9190820180921161430057565b60115490811580156143d9575b6143c8576001600160a01b031660009081526015602052604090205460ff16156143d057601354905b81156143c8576141e9916143a36143a892426142f3565b614316565b611957620f42406143be60125460075490614336565b0460065492614336565b505060065490565b6014549061438c565b50814210614363565b156143e957565b60405162461bcd60e51b81526020600482015260126024820152711059191c995cdcc81a5cc8189b1bd8dad95960721b6044820152606490fd5b8054600160401b81101561407557614440916001820181556141ec565b819291549060031b9160018060a01b03809116831b921b1916179055565b1561446557565b60405162461bcd60e51b815260206004820152600d60248201526c26bab9ba1039b2b7321021272160991b6044820152606490fd5b156144a157565b60405162461bcd60e51b815260206004820152601260248201527114d85b19481d1bdad95b881b9bdd081cd95d60721b6044820152606490fd5b67ffffffffffffffff811161407557601f01601f191660200190565b3d15614522573d90614508826144db565b9161451660405193846140df565b82523d6000602084013e565b606090565b1561452e57565b60405162461bcd60e51b8152602060048201526013602482015272109390881d1c985b9cd9995c8819985a5b1959606a1b6044820152606490fd5b60405190614576826140c3565b600382526242555960e81b6020830152565b1561458f57565b60405162461bcd60e51b815260206004820152601d60248201527f416d6f756e74206d7573742062652067726561746572207468616e20300000006044820152606490fd5b156145db57565b60405162461bcd60e51b81526020600482015260136024820152721554d115081b9bdd0818dbdb999a59dd5c9959606a1b6044820152606490fd5b90816020910312613e5a57518015158103613e5a5790565b1561463557565b60405162461bcd60e51b81526020600482015260146024820152731554d115081d1c985b9cd9995c8819985a5b195960621b6044820152606490fd5b1561467857565b60405162461bcd60e51b81526020600482015260136024820152721554d110c81b9bdd0818dbdb999a59dd5c9959606a1b6044820152606490fd5b156146ba57565b60405162461bcd60e51b81526020600482015260146024820152731554d110c81d1c985b9cd9995c8819985a5b195960621b6044820152606490fd5b156146fd57565b60405162461bcd60e51b8152602060048201526012602482015271115512081b9bdd0818dbdb999a59dd5c995960721b6044820152606490fd5b1561473e57565b60405162461bcd60e51b8152602060048201526013602482015272115512081d1c985b9cd9995c8819985a5b1959606a1b6044820152606490fd5b1561478057565b60405162461bcd60e51b8152602060048201526012602482015271109510c81b9bdd0818dbdb999a59dd5c995960721b6044820152606490fd5b156147c157565b60405162461bcd60e51b8152602060048201526013602482015272109510c81d1c985b9cd9995c8819985a5b1959606a1b6044820152606490fd5b1561480357565b60405162461bcd60e51b815260206004820152601260248201527114d3d3081b9bdd0818dbdb999a59dd5c995960721b6044820152606490fd5b1561484457565b60405162461bcd60e51b815260206004820152601360248201527214d3d3081d1c985b9cd9995c8819985a5b1959606a1b6044820152606490fd5b356001600160a01b0381168103613e5a5790565b9190606083013592834211614b85576148ab8161487f565b6001600160a01b0391903390831603614b4d5760409283820135906000953387526020936028855286882054841115614b1c5760275490856148ec8261487f565b9101996148f88b61487f565b90888a5192818a8501957f91b089318bbdf627bacec662873c12cc3afdc69db73f084d7726e9ce2907280a8752168c85015216606083015286608083015260a082015260a081526149488161408b565b5190208751908682019261190160f01b84526022830152604282015260428152614971816140a7565b5190209061497e816144db565b9261498b885194856140df565b8184523682820111614b1857918886838694611c6b96836149b199013784010152614cd6565b838060265416911603614ae45733855260288252808486205583519081527fb23e07a4fc171f5f9242d4254c3b66b893beaab2f3787495c0f2d09dd3ef9726823392a2816149fe8661487f565b16151580614ad0575b80614abc575b80614a9d575b614a1f575b5050505050565b7f5f1ca2fcc108b751843a763e60d2201f593516109d7dbb1b700468f2d4190bb7926024614a8592614a508861487f565b338852602382528584892091166001600160601b0360a01b82541617905584614a788961487f565b1687525233908520614423565b614a8f339461487f565b169180a33880808080614a18565b5081614aa88661487f565b1684526010815260ff838520541615614a13565b503384526023815281838520541615614a0d565b503382614adc8761487f565b161415614a07565b835162461bcd60e51b815260048101839052600d60248201526c426164207369676e617475726560981b6044820152606490fd5b8880fd5b865162461bcd60e51b815260048101869052600a602482015269139bdb98d9481d5cd95960b21b6044820152606490fd5b60405162461bcd60e51b815260206004820152601060248201526f2737ba103cb7bab9103b37bab1b432b960811b6044820152606490fd5b60405162461bcd60e51b815260206004820152600f60248201526e159bdd58da195c88195e1c1a5c9959608a1b6044820152606490fd5b6005811015614cc05780614bcd5750565b60018103614c1a5760405162461bcd60e51b815260206004820152601860248201527f45434453413a20696e76616c6964207369676e617475726500000000000000006044820152606490fd5b60028103614c675760405162461bcd60e51b815260206004820152601f60248201527f45434453413a20696e76616c6964207369676e6174757265206c656e677468006044820152606490fd5b600314614c7057565b60405162461bcd60e51b815260206004820152602260248201527f45434453413a20696e76616c6964207369676e6174757265202773272076616c604482015261756560f01b6064820152608490fd5b634e487b7160e01b600052602160045260246000fd5b906041815114600014614d0457614d00916020820151906060604084015193015160001a90614d0e565b9091565b5050600090600290565b9291907f7fffffffffffffffffffffffffffffff5d576e7357a4501ddfe92f46681b20a08311614d915791608094939160ff602094604051948552168484015260408301526060820152600093849182805260015afa15614d845781516001600160a01b03811615614d7e579190565b50600190565b50604051903d90823e3d90fd5b50505050600090600390565b60405190614daa826140c3565b600482526314d1531360e21b6020830152565b15614dc457565b60405162461bcd60e51b8152602060048201526015602482015274151bdad95b881d1c985b9cd9995c8819985a5b1959605a1b6044820152606490fd5b60001981146143005760010190565b15614e1757565b60405162461bcd60e51b815260206004820152601460248201527314dd185ad948191bd95cc81b9bdd08195e1a5cdd60621b6044820152606490fd5b15614e5a57565b60405162461bcd60e51b815260206004820152600f60248201526e14dd185ad9481b9bdd08199bdd5b99608a1b6044820152606490fd5b15614e9857565b60405162461bcd60e51b815260206004820152601060248201526f5374616b65206e6f742061637469766560801b6044820152606490fd5b6000818152601c60209081526040808320546001600160a01b031690614ef7821515614e10565b9293849390849081808080805b888b52601b808b52888c2080548310156150c557614f23838992613fed565b505414614f395750614f3490614e01565b614f04565b96509a5050505050508285528084528582862090614f5691613fed565b5060050154958386528185528083872090614f7091613fed565b5060040154928487528286528181882090614f8a91613fed565b50926001809401549686895281815283838a2090614fa791613fed565b506003015496895252862090614fbc91613fed565b506006015460ff16614fd0614fd592614e53565b614e91565b4281146150be57614fe690426142f3565b926019548092605a811460001461504457505060038202918083046003149015171561503057506141e9939261502463bbf81e00936150299360011c905b614336565b0490614349565b634e487b7160e01b81526011600452602490fd5b60b4810361507a5750508160011b918083046002149015171561503057506141e9939261502463bbf81e00936150299390614336565b61016d919493501461509f575b506141e9939261502463bbf81e009361502993614336565b60038392930291808304600314901517156150305750906141e9615087565b5050505090565b50505096509650979350614fd5929150614fd090614e53565b156150e557565b60405162461bcd60e51b815260206004820152600f60248201526e2737ba1039ba30b5b29037bbb732b960891b6044820152606490fd5b600033815260206023815260018060a01b039060408281852054169283151580615288575b61514d57505050505090565b606461515b60225488614336565b8654845163a9059cbb60e01b81526001600160a01b03881660048201529290910460248301819052969190859082906044908290869088165af190811561527e578291615261575b501561521d577f94ccb86446750660ec532b1beb1fb55f5ba2fffca042c4c53f4c080e72595b3893929181866152139352602585528381206151e6898254614349565b9055541686888451926151f8846140c3565b6008845267149151915494905360c21b878501528089615a73565b519384523393a390565b825162461bcd60e51b815260048101859052601f60248201527f526566657272616c20726577617264207472616e73666572206661696c6564006044820152606490fd5b6152789150853d87116106275761061981836140df565b386151a3565b84513d84823e3d90fd5b508385526010835260ff828620541615615141565b600090815b6001600160a01b0382166000908152601b60205260409020805482101561534e5760066152d18360ff93613fed565b500154166152e7576152e290614e01565b6152a2565b50905060015b158061532c575b6152fb5750565b6001600160a01b03166000908152602160205260409020805460ff19169055601f5480156143005760001901601f55565b506001600160a01b03811660009081526021602052604090205460ff166152f4565b5050906152ed565b60008054604080516370a0823160e01b81523060048083019190915293959491936020936001600160a01b0316918481602481865afa9081156155f35790849189916155c2575b501061557f57600e546b01f04ef12cb04cf1580000006153bd8583614349565b116155465783903389526015865260ff878a2054166000146154d2575050600f546a01a784379d99db420000006153f48583614349565b1161548f5791839161540b869561544b9795614349565b600f555b61541b83600e54614349565b600e55865163a9059cbb60e01b81523391810191825260208201939093529194859283918a918391604090910190565b03925af1928315615486575061413f939492615469575b5050614dbd565b61547f9250803d106106275761061981836140df565b3880615462565b513d86823e3d90fd5b855162461bcd60e51b8152808301869052601b60248201527f4578636565647320776169746c69737420616c6c6f636174696f6e00000000006044820152606490fd5b6b01eea76cf512b31616000000916133fc6154f092600f54906142f3565b11615503579183929161544b949261540f565b845162461bcd60e51b8152908101849052601960248201527f45786365656473207075626c696320616c6c6f636174696f6e000000000000006044820152606490fd5b855162461bcd60e51b81528083018690526013602482015272457863656564732073616c6520737570706c7960681b6044820152606490fd5b845162461bcd60e51b8152908101849052601a60248201527f496e73756666696369656e7420746f6b656e2062616c616e63650000000000006044820152606490fd5b809250868092503d83116155ec575b6155db81836140df565b81010312611f04578390513861539d565b503d6155d1565b86513d8a823e3d90fd5b601754600160401b81101561407557600190818101806017558110156140095760076000916017835202918351837fc624b66cc0138b8fabc209247f72d758e1cf3343756d543badbf24212bed8c15015560c07fc624b66cc0138b8fabc209247f72d758e1cf3343756d543badbf24212bed8c1b7fc624b66cc0138b8fabc209247f72d758e1cf3343756d543badbf24212bed8c1685019460018060a01b0360209681888a015116906001600160601b0360a01b91828254161790557fc624b66cc0138b8fabc209247f72d758e1cf3343756d543badbf24212bed8c1783018260408b015116828254161790557fc624b66cc0138b8fabc209247f72d758e1cf3343756d543badbf24212bed8c1883019160608a0151169082541617905560808701517fc624b66cc0138b8fabc209247f72d758e1cf3343756d543badbf24212bed8c1982015560a08701517fc624b66cc0138b8fabc209247f72d758e1cf3343756d543badbf24212bed8c1a820155019401519182519267ffffffffffffffff84116158755761578e865461401f565b601f811161582f575b508491601f85116001146157d05793945084929190836157c5575b50501b916000199060031b1c1916179055565b0151925038806157b2565b86815285812093958591601f198316915b8883831061581557505050106157fc575b505050811b019055565b015160001960f88460031b161c191690553880806157f2565b8587015188559096019594850194879350908101906157e1565b868352858320601f860160051c81019187871061586b575b601f0160051c019084905b828110615860575050615797565b848155018490615852565b9091508190615847565b634e487b7160e01b82526041600452602482fd5b8054600160401b811015614075576158a8906001928382018155613fed565b6159fe578251815560c060068383019260018060a01b03602094818689015116906001600160601b0360a01b9182825416179055600283018260408a015116828254161790556003830191606089015116908254161790556080860151600482015560a08601516005820155019301519081519167ffffffffffffffff831161407557615935855461401f565b601f81116159b5575b5081601f841160011461596c57509282939183926000946157c55750501b916000199060031b1c1916179055565b919083601f1981168760005284600020946000905b8883831061599b57505050106157fc57505050811b019055565b858701518855909601959485019487935090810190615981565b6000868152838120601f860160051c8101928587106159f4575b601f0160051c019186905b8381106159e95750505061593e565b8281550186906159da565b90925082906159cf565b634e487b7160e01b600052600060045260246000fd5b9261413f94919260405194615a2886614059565b42865260018060a01b038091169485602088015260006040880152166060860152608085015260a084015260c08301526000526016602052615a6e816040600020615889565b6155fd565b9261413f959294919360405195615a8987614059565b42875260018060a01b0380809316968760208a0152166040880152166060860152608085015260a084015260c08301526000526016602052615a6e816040600020615889565b67ffffffffffffffff81116140755760051b60200190565b90604051615af481614059565b60c060ff600683958054855260018101546020860152600281015460408601526003810154606086015260048101546080860152600581015460a08601520154161515910152565b60405190615b4982614059565b8160c06000918281528260208201528260408201528260608201528260808201528260a0820152015256fe377aadedb6b2a771959584d10a6a36eccb5f56b4eb3a48525f76108d2660d8d4a26469706673582212205a96be6a6ffbb8200e19b04fcb00dbfb36d5860d6dd58c3ca9d394ada0f60da064736f6c63430008130033","opcodes":"PUSH1 0xA0 DUP1 PUSH1 0x40 MSTORE CALLVALUE PUSH3 0x1E3 JUMPI PUSH1 0x20 PUSH1 0x8 SWAP2 PUSH7 0x13E52B9ABE000 PUSH1 0x6 SSTORE PUSH7 0x38D7EA4C68000 PUSH1 0x7 SSTORE PUSH2 0xC350 PUSH1 0x12 SSTORE PUSH1 0x3C PUSH1 0x13 SSTORE PUSH1 0x14 PUSH1 0x1E DUP2 SSTORE PUSH1 0xC PUSH1 0x19 SSTORE PUSH9 0x56BC75E2D63100000 PUSH1 0x1A SSTORE PUSH1 0x1 DUP4 SSTORE PUSH1 0x5 PUSH1 0x22 SSTORE CALLER PUSH1 0x80 MSTORE CALLER PUSH1 0x1 DUP1 PUSH1 0xA0 SHL SUB NOT PUSH1 0x26 SLOAD AND OR PUSH1 0x26 SSTORE DUP1 DUP5 SSTORE DUP1 PUSH1 0x9 SSTORE DUP1 PUSH1 0xA SSTORE DUP1 PUSH1 0xB SSTORE PUSH1 0xD SSTORE PUSH3 0x84 DUP2 PUSH3 0x1E8 JUMP JUMPDEST DUP3 DUP2 MSTORE ADD PUSH8 0x546F6B656E49434F PUSH1 0xC0 SHL DUP2 MSTORE KECCAK256 PUSH1 0x1 PUSH1 0x20 PUSH1 0x40 MLOAD PUSH3 0xA9 DUP2 PUSH3 0x1E8 JUMP JUMPDEST DUP3 DUP2 MSTORE ADD PUSH1 0x31 PUSH1 0xF8 SHL DUP2 MSTORE KECCAK256 SWAP1 PUSH1 0x40 MLOAD SWAP2 PUSH1 0x20 DUP4 ADD SWAP2 PUSH32 0x8B73C3C69BB8FE3D512ECC4CF759CC79239F7B179B0FFACAA9A75D522B39400F DUP4 MSTORE PUSH1 0x40 DUP5 ADD MSTORE PUSH1 0x60 DUP4 ADD MSTORE CHAINID PUSH1 0x80 DUP4 ADD MSTORE ADDRESS PUSH1 0xA0 DUP4 ADD MSTORE PUSH1 0xA0 DUP3 MSTORE PUSH1 0xC0 DUP3 ADD SWAP2 DUP1 DUP4 LT PUSH1 0x1 DUP1 PUSH1 0x40 SHL SUB DUP5 GT OR PUSH3 0x1CD JUMPI DUP3 PUSH1 0x40 MSTORE MLOAD SWAP1 KECCAK256 PUSH1 0x27 SSTORE PUSH2 0x5BCA SWAP1 DUP2 PUSH3 0x205 DUP3 CODECOPY PUSH1 0x80 MLOAD DUP2 DUP2 DUP2 PUSH2 0x537 ADD MSTORE DUP2 DUP2 PUSH2 0x7D2 ADD MSTORE DUP2 DUP2 PUSH2 0x8ED ADD MSTORE DUP2 DUP2 PUSH2 0xD0A ADD MSTORE DUP2 DUP2 PUSH2 0xE36 ADD MSTORE DUP2 DUP2 PUSH2 0x10DB ADD MSTORE DUP2 DUP2 PUSH2 0x16C2 ADD MSTORE DUP2 DUP2 PUSH2 0x1A28 ADD MSTORE DUP2 DUP2 PUSH2 0x1D49 ADD MSTORE DUP2 DUP2 PUSH2 0x20D6 ADD MSTORE DUP2 DUP2 PUSH2 0x21D0 ADD MSTORE DUP2 DUP2 PUSH2 0x2275 ADD MSTORE DUP2 DUP2 PUSH2 0x233D ADD MSTORE DUP2 DUP2 PUSH2 0x2797 ADD MSTORE DUP2 DUP2 PUSH2 0x2BBD ADD MSTORE DUP2 DUP2 PUSH2 0x2C6D ADD MSTORE DUP2 DUP2 PUSH2 0x2DB8 ADD MSTORE DUP2 DUP2 PUSH2 0x2E8A ADD MSTORE DUP2 DUP2 PUSH2 0x31F9 ADD MSTORE DUP2 DUP2 PUSH2 0x37B3 ADD MSTORE DUP2 DUP2 PUSH2 0x39C7 ADD MSTORE DUP2 DUP2 PUSH2 0x3ACC ADD MSTORE PUSH2 0x3C23 ADD MSTORE RETURN JUMPDEST PUSH4 0x4E487B71 PUSH1 0xE0 SHL PUSH1 0x0 MSTORE PUSH1 0x41 PUSH1 0x4 MSTORE PUSH1 0x24 PUSH1 0x0 REVERT JUMPDEST PUSH1 0x0 DUP1 REVERT JUMPDEST PUSH1 0x40 DUP2 ADD SWAP1 DUP2 LT PUSH1 0x1 PUSH1 0x1 PUSH1 0x40 SHL SUB DUP3 GT OR PUSH3 0x1CD JUMPI PUSH1 0x40 MSTORE JUMP INVALID PUSH1 0x80 PUSH1 0x40 DUP2 DUP2 MSTORE PUSH1 0x4 DUP1 CALLDATASIZE LT ISZERO PUSH2 0x15 JUMPI PUSH1 0x0 DUP1 REVERT JUMPDEST PUSH1 0x0 SWAP3 PUSH1 0xE0 DUP5 CALLDATALOAD DUP2 SHR SWAP2 DUP3 PUSH4 0x2D45457 EQ PUSH2 0x3E1F JUMPI POP DUP2 PUSH4 0x32D975B EQ PUSH2 0x3DFF JUMPI DUP2 PUSH4 0x6360B85 EQ PUSH2 0x3DD2 JUMPI DUP2 PUSH4 0x6B091F9 EQ PUSH2 0x3C02 JUMPI DUP2 PUSH4 0x9813482 EQ PUSH2 0x3B32 JUMPI DUP2 PUSH4 0x14CE670B EQ PUSH2 0x3B1E JUMPI DUP2 PUSH4 0x182A676B EQ PUSH2 0x3A88 JUMPI DUP2 PUSH4 0x1C042D35 EQ PUSH2 0x3A68 JUMPI DUP2 PUSH4 0x1CBAEE2D EQ PUSH2 0x3A48 JUMPI DUP2 PUSH4 0x1CE24E16 EQ PUSH2 0x3A1E JUMPI DUP2 PUSH4 0x1E37C606 EQ PUSH2 0x399A JUMPI DUP2 PUSH4 0x20F1FC61 EQ PUSH2 0x394E JUMPI DUP2 PUSH4 0x214405A9 EQ PUSH2 0x392E JUMPI DUP2 PUSH4 0x21874AE2 EQ PUSH2 0x38CD JUMPI DUP2 PUSH4 0x238AC933 EQ PUSH2 0x38A3 JUMPI DUP2 PUSH4 0x251545DA EQ PUSH2 0x36A3 JUMPI DUP2 PUSH4 0x27506F53 EQ PUSH2 0x35C3 JUMPI DUP2 PUSH4 0x2BA77022 EQ PUSH2 0x35AF JUMPI DUP2 PUSH4 0x2BB38809 EQ PUSH2 0x2D52 JUMPI DUP2 PUSH4 0x2FD04C08 EQ PUSH2 0x3280 JUMPI DUP2 PUSH4 0x3644E515 EQ PUSH2 0x3260 JUMPI DUP2 PUSH4 0x3A5D4175 EQ PUSH2 0x324C JUMPI DUP2 PUSH4 0x3A94BE2D EQ PUSH2 0x31CB JUMPI DUP2 PUSH4 0x3B7B6188 EQ PUSH2 0x2EE1 JUMPI DUP2 PUSH4 0x3E4E6453 EQ PUSH2 0x2E5D JUMPI DUP2 PUSH4 0x3E61E9DC EQ PUSH2 0x2E24 JUMPI DUP2 PUSH4 0x41398B15 EQ PUSH2 0x2DFA JUMPI DUP2 PUSH4 0x42E97CB8 EQ PUSH2 0x2D92 JUMPI DUP2 PUSH4 0x4561F1E1 EQ PUSH2 0x2D72 JUMPI DUP2 PUSH4 0x491CC756 EQ PUSH2 0x2D52 JUMPI DUP2 PUSH4 0x4A3B68CC EQ PUSH2 0x2D16 JUMPI DUP2 PUSH4 0x4CDB312D EQ PUSH2 0x2C51 JUMPI DUP2 PUSH4 0x4F93208A EQ PUSH2 0x2C12 JUMPI DUP2 PUSH4 0x518AB2A8 EQ PUSH2 0x2BF2 JUMPI DUP2 PUSH4 0x525F8A5C EQ PUSH2 0x2BA4 JUMPI DUP2 PUSH4 0x53AAA63B EQ PUSH2 0x2B6B JUMPI DUP2 PUSH4 0x57126D0D EQ PUSH2 0x293C JUMPI DUP2 PUSH4 0x575CEA6B EQ PUSH2 0x2891 JUMPI DUP2 PUSH4 0x5B365040 EQ PUSH2 0x2687 JUMPI DUP2 PUSH4 0x608E4DD0 EQ PUSH2 0x23AB JUMPI DUP2 PUSH4 0x63219C72 EQ PUSH2 0x22FE JUMPI DUP2 PUSH4 0x64F1D113 EQ PUSH2 0x22DE JUMPI DUP2 PUSH4 0x676C0D77 EQ PUSH2 0x2236 JUMPI DUP2 PUSH4 0x6C19E783 EQ PUSH2 0x21A7 JUMPI DUP2 PUSH4 0x6F43F373 EQ PUSH2 0x2187 JUMPI DUP2 PUSH4 0x71D20FE7 EQ PUSH2 0x20BA JUMPI DUP2 PUSH4 0x75506C96 EQ PUSH2 0x209B JUMPI DUP2 PUSH4 0x776FF66A EQ PUSH2 0x207B JUMPI DUP2 PUSH4 0x794A3292 EQ PUSH2 0x203C JUMPI DUP2 PUSH4 0x7A9773DC EQ PUSH2 0x201C JUMPI DUP2 PUSH4 0x7CC1F867 EQ PUSH2 0x1F3D JUMPI DUP2 PUSH4 0x7DF74181 EQ PUSH2 0x1B13 JUMPI DUP2 PUSH4 0x7EA61FE3 EQ PUSH2 0x1983 JUMPI DUP2 PUSH4 0x80933608 EQ PUSH2 0x18A0 JUMPI DUP2 PUSH4 0x817B1CD2 EQ PUSH2 0x1880 JUMPI DUP2 PUSH4 0x83FABE03 EQ PUSH2 0x1860 JUMPI DUP2 PUSH4 0x842E2981 EQ PUSH2 0x1758 JUMPI DUP2 PUSH4 0x84CC315B EQ PUSH2 0x1731 JUMPI DUP2 PUSH4 0x862DD2E2 EQ PUSH2 0x1711 JUMPI DUP2 PUSH4 0x86989038 EQ PUSH2 0x16F1 JUMPI DUP2 PUSH4 0x8DA5CB5B EQ PUSH2 0x16AC JUMPI DUP2 PUSH4 0x920A253E EQ PUSH2 0x168C JUMPI DUP2 PUSH4 0x92FEB849 EQ PUSH2 0x1664 JUMPI DUP2 PUSH4 0x94DC9CF3 EQ PUSH2 0x155C JUMPI DUP2 PUSH4 0x963C9DD3 EQ PUSH2 0x1481 JUMPI DUP2 PUSH4 0x9AB4A445 EQ PUSH2 0x1457 JUMPI DUP2 PUSH4 0x9C0FBD05 EQ PUSH2 0x143A JUMPI DUP2 PUSH4 0x9EA7685A EQ PUSH2 0x12B6 JUMPI DUP2 PUSH4 0xA0B3B930 EQ PUSH2 0x1296 JUMPI DUP2 PUSH4 0xA1DC9031 EQ PUSH2 0x1120 JUMPI DUP2 PUSH4 0xA29F481C EQ PUSH2 0x10B2 JUMPI DUP2 PUSH4 0xA77C80AA EQ PUSH2 0x107C JUMPI DUP2 PUSH4 0xA7C60160 EQ PUSH2 0xF30 JUMPI DUP2 PUSH4 0xAECCF735 EQ PUSH2 0xD61 JUMPI DUP2 PUSH4 0xB006984F EQ PUSH2 0xCDD JUMPI DUP2 PUSH4 0xB3B94706 EQ PUSH2 0xCBD JUMPI DUP2 PUSH4 0xB40CD21D EQ PUSH2 0xC7B JUMPI DUP2 PUSH4 0xB5D5B5FA EQ PUSH2 0xBE8 JUMPI POP DUP1 PUSH4 0xB842EC44 EQ PUSH2 0xB6A JUMPI DUP1 PUSH4 0xBC5894BA EQ PUSH2 0xB4B JUMPI DUP1 PUSH4 0xC93C8F34 EQ PUSH2 0xB0D JUMPI DUP1 PUSH4 0xD3EA4350 EQ PUSH2 0xAE6 JUMPI DUP1 PUSH4 0xD7FF0714 EQ PUSH2 0x99E JUMPI DUP1 PUSH4 0xD8060CD5 EQ PUSH2 0x8D2 JUMPI DUP1 PUSH4 0xD8DC286A EQ PUSH2 0x8AC JUMPI DUP1 PUSH4 0xE697B5D8 EQ PUSH2 0x851 JUMPI DUP1 PUSH4 0xE985E367 EQ PUSH2 0x829 JUMPI DUP1 PUSH4 0xEBCD3A13 EQ PUSH2 0x7A6 JUMPI DUP1 PUSH4 0xECB2DD74 EQ PUSH2 0x76B JUMPI DUP1 PUSH4 0xEE172546 EQ PUSH2 0x74C JUMPI DUP1 PUSH4 0xEF925399 EQ PUSH2 0x66E JUMPI DUP1 PUSH4 0xF1887684 EQ PUSH2 0x64B JUMPI DUP1 PUSH4 0xF30EF2E5 EQ PUSH2 0x496 JUMPI DUP1 PUSH4 0xF7D76AE5 EQ PUSH2 0x46F JUMPI PUSH4 0xFD9A11E5 EQ PUSH2 0x43A JUMPI PUSH1 0x0 DUP1 REVERT JUMPDEST CALLVALUE PUSH2 0x46B JUMPI PUSH1 0x20 CALLDATASIZE PUSH1 0x3 NOT ADD SLT PUSH2 0x46B JUMPI CALLDATALOAD DUP3 MSTORE PUSH1 0x1C PUSH1 0x20 SWAP1 DUP2 MSTORE SWAP2 DUP2 SWAP1 KECCAK256 SLOAD SWAP1 MLOAD PUSH1 0x1 PUSH1 0x1 PUSH1 0xA0 SHL SUB SWAP1 SWAP2 AND DUP2 MSTORE RETURN JUMPDEST DUP3 DUP1 REVERT JUMPDEST POP CALLVALUE PUSH2 0x46B JUMPI DUP3 PUSH1 0x3 NOT CALLDATASIZE ADD SLT PUSH2 0x46B JUMPI SLOAD SWAP1 MLOAD PUSH1 0x1 PUSH1 0x1 PUSH1 0xA0 SHL SUB SWAP1 SWAP2 AND DUP2 MSTORE PUSH1 0x20 SWAP2 POP RETURN JUMPDEST POP CALLVALUE PUSH2 0x46B JUMPI PUSH1 0x20 CALLDATASIZE PUSH1 0x3 NOT ADD SLT PUSH2 0x46B JUMPI DUP1 CALLDATALOAD SWAP1 CALLER DUP5 MSTORE PUSH1 0x10 PUSH1 0x20 MSTORE PUSH2 0x4C3 PUSH1 0xFF DUP5 DUP7 KECCAK256 SLOAD AND ISZERO PUSH2 0x43E2 JUMP JUMPDEST PUSH2 0x4CE DUP3 ISZERO ISZERO PUSH2 0x4588 JUMP JUMPDEST DUP4 SLOAD PUSH1 0x1 PUSH1 0x1 PUSH1 0xA0 SHL SUB SWAP3 SWAP1 PUSH2 0x4E7 SWAP1 DUP5 AND ISZERO ISZERO PUSH2 0x449A JUMP JUMPDEST DUP3 PUSH1 0x5 SLOAD AND PUSH2 0x4F7 DUP2 ISZERO ISZERO PUSH2 0x47FC JUMP JUMPDEST PUSH2 0x503 PUSH1 0xD SLOAD DUP4 PUSH2 0x4336 JUMP JUMPDEST SWAP3 PUSH4 0x3B9ACA00 SWAP4 DUP5 DUP2 MUL SWAP5 DUP2 DUP7 DIV EQ SWAP1 ISZERO OR ISZERO PUSH2 0x638 JUMPI DUP6 MLOAD PUSH4 0x23B872DD PUSH1 0xE0 SHL DUP2 MSTORE CALLER SWAP2 DUP2 ADD SWAP2 DUP3 MSTORE PUSH1 0x1 PUSH1 0x1 PUSH1 0xA0 SHL SUB PUSH32 0x0 AND PUSH1 0x20 DUP4 DUP2 ADD SWAP2 SWAP1 SWAP2 MSTORE PUSH1 0x40 DUP4 ADD DUP6 SWAP1 MSTORE SWAP1 SWAP4 SWAP3 SWAP1 SWAP2 DUP5 SWAP2 SWAP1 DUP3 SWAP1 DUP11 SWAP1 DUP3 SWAP1 PUSH1 0x60 ADD SUB SWAP3 GAS CALL DUP1 ISZERO PUSH2 0x62E JUMPI PUSH1 0x0 DUP1 MLOAD PUSH1 0x20 PUSH2 0x5B75 DUP4 CODECOPY DUP2 MLOAD SWAP2 MSTORE SWAP4 PUSH2 0x5AA PUSH2 0x5AF SWAP3 PUSH2 0x5FA SWAP6 DUP11 SWAP2 PUSH2 0x600 JUMPI JUMPDEST POP PUSH2 0x483D JUMP JUMPDEST PUSH2 0x511C JUMP JUMPDEST SWAP4 PUSH2 0x5B9 DUP6 PUSH2 0x5356 JUMP JUMPDEST PUSH2 0x5D6 DUP2 PUSH1 0x5 SLOAD AND DUP7 DUP5 DUP5 DUP12 SLOAD AND PUSH2 0x5CF PUSH2 0x4569 JUMP JUMPDEST SWAP4 CALLER PUSH2 0x5A73 JUMP JUMPDEST PUSH1 0x5 SLOAD AND SWAP5 MLOAD SWAP2 DUP3 SWAP2 CALLER SWAP6 TIMESTAMP SWAP2 DUP5 PUSH1 0x40 SWAP2 SWAP5 SWAP4 SWAP3 PUSH1 0x60 DUP3 ADD SWAP6 DUP3 MSTORE PUSH1 0x20 DUP3 ADD MSTORE ADD MSTORE JUMP JUMPDEST SUB SWAP1 LOG3 DUP1 RETURN JUMPDEST PUSH2 0x621 SWAP2 POP PUSH1 0x20 RETURNDATASIZE DUP2 GT PUSH2 0x627 JUMPI JUMPDEST PUSH2 0x619 DUP2 DUP4 PUSH2 0x40DF JUMP JUMPDEST DUP2 ADD SWAP1 PUSH2 0x4616 JUMP JUMPDEST CODESIZE PUSH2 0x5A4 JUMP JUMPDEST POP RETURNDATASIZE PUSH2 0x60F JUMP JUMPDEST DUP6 MLOAD RETURNDATASIZE DUP9 DUP3 RETURNDATACOPY RETURNDATASIZE SWAP1 REVERT JUMPDEST PUSH4 0x4E487B71 PUSH1 0xE0 SHL DUP8 MSTORE PUSH1 0x11 SWAP1 MSTORE PUSH1 0x24 DUP7 REVERT JUMPDEST POP POP CALLVALUE PUSH2 0x66A JUMPI DUP2 PUSH1 0x3 NOT CALLDATASIZE ADD SLT PUSH2 0x66A JUMPI PUSH1 0x20 SWAP1 PUSH1 0x1A SLOAD SWAP1 MLOAD SWAP1 DUP2 MSTORE RETURN JUMPDEST POP DUP1 REVERT JUMPDEST POP DUP3 SWAP1 CALLVALUE PUSH2 0x66A JUMPI PUSH1 0x20 SWAP2 DUP3 PUSH1 0x3 NOT CALLDATASIZE ADD SLT PUSH2 0x749 JUMPI PUSH1 0x1 PUSH1 0x1 PUSH1 0xA0 SHL SUB SWAP3 DUP4 PUSH2 0x696 PUSH2 0x3E44 JUMP JUMPDEST AND DUP3 MSTORE PUSH1 0x16 DUP2 MSTORE DUP5 DUP3 KECCAK256 SWAP2 DUP3 SLOAD SWAP4 PUSH2 0x6AD DUP6 PUSH2 0x5ACF JUMP JUMPDEST SWAP6 PUSH2 0x6BA DUP9 MLOAD SWAP8 DUP9 PUSH2 0x40DF JUMP JUMPDEST DUP6 DUP8 MSTORE DUP4 DUP8 ADD SWAP5 DUP4 MSTORE DUP4 DUP4 KECCAK256 SWAP3 SWAP5 JUMPDEST DUP7 DUP7 LT PUSH2 0x6E1 JUMPI DUP9 MLOAD DUP1 PUSH2 0x6DD DUP11 DUP3 PUSH2 0x3F3A JUMP JUMPDEST SUB SWAP1 RETURN JUMPDEST PUSH1 0x7 DUP6 PUSH1 0x1 SWAP3 DUP12 MLOAD PUSH2 0x6F2 DUP2 PUSH2 0x4059 JUMP JUMPDEST DUP8 SLOAD DUP2 MSTORE DUP6 DUP6 DUP10 ADD SLOAD AND DUP4 DUP3 ADD MSTORE DUP6 PUSH1 0x2 DUP10 ADD SLOAD AND DUP14 DUP3 ADD MSTORE DUP6 PUSH1 0x3 DUP10 ADD SLOAD AND PUSH1 0x60 DUP3 ADD MSTORE DUP7 DUP9 ADD SLOAD PUSH1 0x80 DUP3 ADD MSTORE PUSH1 0x5 DUP9 ADD SLOAD PUSH1 0xA0 DUP3 ADD MSTORE PUSH2 0x736 PUSH1 0x6 DUP10 ADD PUSH2 0x4101 JUMP JUMPDEST PUSH1 0xC0 DUP3 ADD MSTORE DUP2 MSTORE ADD SWAP5 ADD SWAP6 ADD SWAP5 SWAP3 PUSH2 0x6C9 JUMP JUMPDEST DUP1 REVERT JUMPDEST POP POP CALLVALUE PUSH2 0x66A JUMPI DUP2 PUSH1 0x3 NOT CALLDATASIZE ADD SLT PUSH2 0x66A JUMPI PUSH1 0x20 SWAP1 PUSH1 0x1E SLOAD SWAP1 MLOAD SWAP1 DUP2 MSTORE RETURN JUMPDEST POP POP CALLVALUE PUSH2 0x66A JUMPI DUP2 PUSH1 0x3 NOT CALLDATASIZE ADD SLT PUSH2 0x66A JUMPI PUSH1 0x20 SWAP1 MLOAD PUSH32 0x91B089318BBDF627BACEC662873C12CC3AFDC69DB73F084D7726E9CE2907280A DUP2 MSTORE RETURN JUMPDEST POP POP CALLVALUE PUSH2 0x66A JUMPI CALLDATASIZE PUSH1 0x3 NOT ADD SLT PUSH2 0x749 JUMPI PUSH2 0x7BF PUSH2 0x3E44 JUMP JUMPDEST PUSH1 0x24 CALLDATALOAD SWAP1 PUSH1 0x1 PUSH1 0x1 PUSH1 0xA0 SHL SUB SWAP1 PUSH2 0x7F9 CALLER PUSH32 0x0 DUP5 AND EQ PUSH2 0x4204 JUMP JUMPDEST AND PUSH2 0x805 DUP2 ISZERO ISZERO PUSH2 0x4279 JUMP JUMPDEST PUSH2 0x810 DUP3 ISZERO ISZERO PUSH2 0x42B7 JUMP JUMPDEST PUSH1 0x1 PUSH1 0x1 PUSH1 0x60 SHL SUB PUSH1 0xA0 SHL PUSH1 0x5 SLOAD AND OR PUSH1 0x5 SSTORE PUSH1 0xD SSTORE DUP1 RETURN JUMPDEST POP POP CALLVALUE PUSH2 0x66A JUMPI DUP2 PUSH1 0x3 NOT CALLDATASIZE ADD SLT PUSH2 0x66A JUMPI SWAP1 SLOAD SWAP1 MLOAD PUSH1 0x1 PUSH1 0x1 PUSH1 0xA0 SHL SUB SWAP1 SWAP2 AND DUP2 MSTORE PUSH1 0x20 SWAP1 RETURN JUMPDEST POP POP CALLVALUE PUSH2 0x66A JUMPI DUP1 PUSH1 0x3 NOT CALLDATASIZE ADD SLT PUSH2 0x66A JUMPI PUSH2 0x86B PUSH2 0x3E44 JUMP JUMPDEST PUSH1 0x1 PUSH1 0x1 PUSH1 0xA0 SHL SUB SWAP1 DUP2 AND DUP4 MSTORE PUSH1 0x24 PUSH1 0x20 DUP2 SWAP1 MSTORE DUP3 DUP5 KECCAK256 DUP1 SLOAD SWAP2 CALLDATALOAD SWAP5 SWAP1 SWAP2 DUP6 LT ISZERO PUSH2 0x749 JUMPI POP PUSH1 0x20 SWAP4 PUSH2 0x89D SWAP2 PUSH2 0x41EC JUMP JUMPDEST SWAP3 SWAP1 SLOAD SWAP1 MLOAD SWAP3 PUSH1 0x3 SHL SHR AND DUP2 MSTORE RETURN JUMPDEST POP POP CALLVALUE PUSH2 0x66A JUMPI DUP2 PUSH1 0x3 NOT CALLDATASIZE ADD SLT PUSH2 0x66A JUMPI PUSH1 0x20 SWAP1 MLOAD PUSH11 0x1A784379D99DB42000000 DUP2 MSTORE RETURN JUMPDEST POP CALLVALUE PUSH2 0x46B JUMPI PUSH1 0x20 CALLDATASIZE PUSH1 0x3 NOT ADD SLT PUSH2 0x46B JUMPI DUP1 CALLDATALOAD SWAP1 PUSH2 0x91B CALLER PUSH32 0x0 PUSH1 0x1 PUSH1 0x1 PUSH1 0xA0 SHL SUB AND EQ PUSH2 0x4204 JUMP JUMPDEST DUP2 ISZERO PUSH2 0x95B JUMPI POP SWAP1 PUSH32 0x171AABB8815C02FD00303450A77058600E3661EB75CE2E77972C0F080BC7099D SWAP2 PUSH1 0x1A SLOAD SWAP1 DUP1 PUSH1 0x1A SSTORE DUP3 MLOAD SWAP2 DUP3 MSTORE PUSH1 0x20 DUP3 ADD MSTORE LOG1 DUP1 RETURN JUMPDEST PUSH1 0x64 SWAP1 PUSH1 0x20 DUP5 MLOAD SWAP2 PUSH3 0x461BCD PUSH1 0xE5 SHL DUP4 MSTORE DUP3 ADD MSTORE PUSH1 0x20 PUSH1 0x24 DUP3 ADD MSTORE PUSH32 0x4D696E207374616B65206D7573742062652067726561746572207468616E2030 PUSH1 0x44 DUP3 ADD MSTORE REVERT JUMPDEST POP CALLVALUE PUSH2 0x46B JUMPI PUSH1 0x20 CALLDATASIZE PUSH1 0x3 NOT ADD SLT PUSH2 0x46B JUMPI CALLDATALOAD PUSH1 0x17 SLOAD DUP2 LT ISZERO PUSH2 0x46B JUMPI PUSH1 0x17 PUSH1 0x7 SWAP3 SWAP4 MSTORE MUL SWAP1 PUSH2 0x6DD DUP3 PUSH32 0xC624B66CC0138B8FABC209247F72D758E1CF3343756D543BADBF24212BED8C15 ADD SLOAD SWAP2 PUSH1 0x1 DUP1 PUSH1 0xA0 SHL SUB SWAP4 DUP5 PUSH32 0xC624B66CC0138B8FABC209247F72D758E1CF3343756D543BADBF24212BED8C16 DUP3 ADD SLOAD AND SWAP5 DUP1 PUSH32 0xC624B66CC0138B8FABC209247F72D758E1CF3343756D543BADBF24212BED8C17 DUP4 ADD SLOAD AND SWAP1 PUSH32 0xC624B66CC0138B8FABC209247F72D758E1CF3343756D543BADBF24212BED8C18 DUP4 ADD SLOAD AND PUSH32 0xC624B66CC0138B8FABC209247F72D758E1CF3343756D543BADBF24212BED8C19 DUP4 ADD SLOAD SWAP2 PUSH2 0xADB PUSH32 0xC624B66CC0138B8FABC209247F72D758E1CF3343756D543BADBF24212BED8C1B PUSH32 0xC624B66CC0138B8FABC209247F72D758E1CF3343756D543BADBF24212BED8C1A DUP7 ADD SLOAD SWAP6 ADD PUSH2 0x4101 JUMP JUMPDEST SWAP5 MLOAD SWAP8 DUP9 SWAP8 DUP9 PUSH2 0x41A7 JUMP JUMPDEST POP SWAP2 CALLVALUE PUSH2 0x749 JUMPI PUSH1 0x20 CALLDATASIZE PUSH1 0x3 NOT ADD SLT PUSH2 0x749 JUMPI POP PUSH2 0xB06 PUSH1 0x20 SWAP3 CALLDATALOAD PUSH2 0x4ED0 JUMP JUMPDEST SWAP1 MLOAD SWAP1 DUP2 MSTORE RETURN JUMPDEST POP POP CALLVALUE PUSH2 0x66A JUMPI PUSH1 0x20 CALLDATASIZE PUSH1 0x3 NOT ADD SLT PUSH2 0x66A JUMPI PUSH1 0x20 SWAP2 PUSH1 0xFF SWAP1 DUP3 SWAP1 PUSH1 0x1 PUSH1 0x1 PUSH1 0xA0 SHL SUB PUSH2 0xB38 PUSH2 0x3E44 JUMP JUMPDEST AND DUP2 MSTORE PUSH1 0x21 DUP6 MSTORE KECCAK256 SLOAD AND SWAP1 MLOAD SWAP1 ISZERO ISZERO DUP2 MSTORE RETURN JUMPDEST POP POP CALLVALUE PUSH2 0x66A JUMPI DUP2 PUSH1 0x3 NOT CALLDATASIZE ADD SLT PUSH2 0x66A JUMPI PUSH1 0x20 SWAP1 PUSH1 0xB SLOAD SWAP1 MLOAD SWAP1 DUP2 MSTORE RETURN JUMPDEST POP SWAP2 SWAP1 CALLVALUE PUSH2 0x66A JUMPI DUP1 PUSH1 0x3 NOT CALLDATASIZE ADD SLT PUSH2 0x66A JUMPI PUSH2 0xB85 PUSH2 0x3E44 JUMP JUMPDEST PUSH1 0x1 PUSH1 0x1 PUSH1 0xA0 SHL SUB SWAP1 DUP2 AND DUP4 MSTORE PUSH1 0x16 PUSH1 0x20 MSTORE DUP2 DUP4 KECCAK256 DUP1 SLOAD SWAP2 SWAP4 PUSH1 0x24 CALLDATALOAD SWAP3 DUP4 LT ISZERO PUSH2 0x749 JUMPI POP PUSH2 0x6DD SWAP3 SWAP2 PUSH2 0xBB8 SWAP2 PUSH2 0x3FED JUMP JUMPDEST POP DUP1 SLOAD SWAP4 DUP1 PUSH1 0x1 DUP4 ADD SLOAD AND SWAP6 DUP2 PUSH1 0x2 DUP5 ADD SLOAD AND SWAP2 PUSH1 0x3 DUP5 ADD SLOAD AND SWAP1 DUP4 ADD SLOAD SWAP2 PUSH2 0xADB PUSH1 0x6 PUSH1 0x5 DUP7 ADD SLOAD SWAP6 ADD PUSH2 0x4101 JUMP JUMPDEST SWAP4 SWAP1 POP CALLVALUE PUSH2 0x749 JUMPI DUP3 PUSH1 0x3 NOT CALLDATASIZE ADD SLT PUSH2 0x749 JUMPI PUSH2 0xC03 PUSH2 0x3E44 JUMP JUMPDEST PUSH1 0x1 PUSH1 0x1 PUSH1 0xA0 SHL SUB AND DUP2 MSTORE PUSH1 0x1B PUSH1 0x20 MSTORE DUP3 DUP2 KECCAK256 DUP1 SLOAD PUSH1 0x24 CALLDATALOAD SWAP3 SWAP1 DUP4 LT ISZERO PUSH2 0x749 JUMPI POP SWAP1 PUSH2 0xC2F SWAP2 PUSH2 0x3FED JUMP JUMPDEST POP DUP1 SLOAD SWAP3 PUSH1 0x1 DUP3 ADD SLOAD SWAP3 PUSH1 0x2 DUP4 ADD SLOAD PUSH1 0x3 DUP5 ADD SLOAD SWAP2 DUP5 ADD SLOAD SWAP3 PUSH1 0xFF PUSH1 0x6 PUSH1 0x5 DUP8 ADD SLOAD SWAP7 ADD SLOAD AND SWAP6 DUP2 MLOAD SWAP8 DUP9 MSTORE PUSH1 0x20 DUP9 ADD MSTORE DUP7 ADD MSTORE PUSH1 0x60 DUP6 ADD MSTORE PUSH1 0x80 DUP5 ADD MSTORE PUSH1 0xA0 DUP4 ADD MSTORE ISZERO ISZERO PUSH1 0xC0 DUP3 ADD MSTORE RETURN JUMPDEST POP POP POP CALLVALUE PUSH2 0x66A JUMPI DUP2 PUSH1 0x3 NOT CALLDATASIZE ADD SLT PUSH2 0x66A JUMPI PUSH1 0xA0 SWAP1 PUSH1 0x19 SLOAD SWAP1 PUSH1 0x1A SLOAD SWAP1 PUSH1 0x1D SLOAD PUSH1 0x1E SLOAD SWAP2 PUSH1 0x1F SLOAD SWAP4 DUP2 MLOAD SWAP6 DUP7 MSTORE PUSH1 0x20 DUP7 ADD MSTORE DUP5 ADD MSTORE PUSH1 0x60 DUP4 ADD MSTORE PUSH1 0x80 DUP3 ADD MSTORE RETURN JUMPDEST POP POP POP CALLVALUE PUSH2 0x66A JUMPI DUP2 PUSH1 0x3 NOT CALLDATASIZE ADD SLT PUSH2 0x66A JUMPI PUSH1 0x20 SWAP1 PUSH1 0x12 SLOAD SWAP1 MLOAD SWAP1 DUP2 MSTORE RETURN JUMPDEST POP POP POP CALLVALUE PUSH2 0x66A JUMPI CALLDATASIZE PUSH1 0x3 NOT ADD SLT PUSH2 0x749 JUMPI PUSH2 0xCF7 PUSH2 0x3E44 JUMP JUMPDEST PUSH1 0x24 CALLDATALOAD SWAP1 PUSH1 0x1 PUSH1 0x1 PUSH1 0xA0 SHL SUB SWAP1 PUSH2 0xD31 CALLER PUSH32 0x0 DUP5 AND EQ PUSH2 0x4204 JUMP JUMPDEST AND PUSH2 0xD3D DUP2 ISZERO ISZERO PUSH2 0x4279 JUMP JUMPDEST PUSH2 0xD48 DUP3 ISZERO ISZERO PUSH2 0x42B7 JUMP JUMPDEST PUSH1 0x1 PUSH1 0x1 PUSH1 0x60 SHL SUB PUSH1 0xA0 SHL PUSH1 0x1 SLOAD AND OR PUSH1 0x1 SSTORE PUSH1 0x8 SSTORE DUP1 RETURN JUMPDEST POP POP CALLVALUE PUSH2 0x46B JUMPI PUSH1 0x20 CALLDATASIZE PUSH1 0x3 NOT ADD SLT PUSH2 0x46B JUMPI DUP1 CALLDATALOAD SWAP1 CALLER DUP5 MSTORE PUSH1 0x10 PUSH1 0x20 MSTORE PUSH2 0xD8F PUSH1 0xFF DUP5 DUP7 KECCAK256 SLOAD AND ISZERO PUSH2 0x43E2 JUMP JUMPDEST DUP2 ISZERO SWAP2 PUSH2 0xD9C DUP4 ISZERO PUSH2 0x4588 JUMP JUMPDEST DUP5 SLOAD PUSH1 0x1 PUSH1 0x1 PUSH1 0xA0 SHL SUB SWAP4 SWAP1 PUSH2 0xDB5 SWAP1 DUP6 AND ISZERO ISZERO PUSH2 0x449A JUMP JUMPDEST DUP4 PUSH1 0x2 SLOAD AND PUSH2 0xDC5 DUP2 ISZERO ISZERO PUSH2 0x4671 JUMP JUMPDEST PUSH3 0xF4240 SWAP2 DUP3 DUP5 MUL SWAP3 DUP5 DUP5 DIV EQ OR ISZERO PUSH2 0xF1D JUMPI PUSH2 0xDE1 CALLER PUSH2 0x4356 JUMP JUMPDEST PUSH2 0xDED PUSH1 0x7 SLOAD DUP6 PUSH2 0x4336 JUMP JUMPDEST PUSH8 0xDE0B6B3A7640000 SWAP1 DUP2 DUP2 MUL SWAP2 DUP2 DUP4 DIV EQ SWAP1 ISZERO OR ISZERO PUSH2 0xF0A JUMPI SWAP2 PUSH2 0xE19 PUSH2 0xE76 SWAP6 SWAP5 SWAP3 PUSH1 0x20 SWAP5 PUSH2 0x4316 JUMP JUMPDEST DUP9 MLOAD PUSH4 0x23B872DD PUSH1 0xE0 SHL DUP2 MSTORE CALLER SWAP8 DUP2 ADD SWAP8 DUP9 MSTORE PUSH1 0x1 PUSH1 0x1 PUSH1 0xA0 SHL SUB PUSH32 0x0 AND PUSH1 0x20 DUP10 ADD MSTORE PUSH1 0x40 DUP9 ADD SWAP4 SWAP1 SWAP4 MSTORE SWAP6 SWAP2 SWAP5 DUP6 SWAP3 DUP4 SWAP2 DUP12 SWAP2 DUP4 SWAP2 PUSH1 0x60 SWAP1 SWAP2 ADD SWAP1 JUMP JUMPDEST SUB SWAP3 GAS CALL DUP1 ISZERO PUSH2 0x62E JUMPI PUSH1 0x0 DUP1 MLOAD PUSH1 0x20 PUSH2 0x5B75 DUP4 CODECOPY DUP2 MLOAD SWAP2 MSTORE SWAP4 PUSH2 0x5AA PUSH2 0xEA8 SWAP3 PUSH2 0x5FA SWAP6 DUP11 SWAP2 PUSH2 0xEEC JUMPI JUMPDEST POP PUSH2 0x46B3 JUMP JUMPDEST SWAP4 PUSH2 0xEB2 DUP6 PUSH2 0x5356 JUMP JUMPDEST PUSH2 0xEC8 DUP2 PUSH1 0x2 SLOAD AND DUP7 DUP5 DUP5 DUP12 SLOAD AND PUSH2 0x5CF PUSH2 0x4569 JUMP JUMPDEST PUSH1 0x2 SLOAD AND SWAP5 MLOAD SWAP2 DUP3 SWAP2 CALLER SWAP6 TIMESTAMP SWAP2 DUP5 PUSH1 0x40 SWAP2 SWAP5 SWAP4 SWAP3 PUSH1 0x60 DUP3 ADD SWAP6 DUP3 MSTORE PUSH1 0x20 DUP3 ADD MSTORE ADD MSTORE JUMP JUMPDEST PUSH2 0xF04 SWAP2 POP PUSH1 0x20 RETURNDATASIZE DUP2 GT PUSH2 0x627 JUMPI PUSH2 0x619 DUP2 DUP4 PUSH2 0x40DF JUMP JUMPDEST CODESIZE PUSH2 0xEA2 JUMP JUMPDEST PUSH4 0x4E487B71 PUSH1 0xE0 SHL DUP10 MSTORE PUSH1 0x11 DUP7 MSTORE PUSH1 0x24 DUP10 REVERT JUMPDEST PUSH4 0x4E487B71 PUSH1 0xE0 SHL DUP8 MSTORE PUSH1 0x11 DUP5 MSTORE PUSH1 0x24 DUP8 REVERT JUMPDEST POP POP CALLVALUE PUSH2 0x46B JUMPI PUSH1 0x20 CALLDATASIZE PUSH1 0x3 NOT ADD SLT PUSH2 0x46B JUMPI DUP1 CALLDATALOAD SWAP1 CALLER DUP5 MSTORE PUSH1 0x10 PUSH1 0x20 MSTORE PUSH2 0xF5E PUSH1 0xFF DUP5 DUP7 KECCAK256 SLOAD AND ISZERO PUSH2 0x43E2 JUMP JUMPDEST DUP2 ISZERO SWAP2 PUSH2 0xF6B DUP4 ISZERO PUSH2 0x4588 JUMP JUMPDEST DUP5 SLOAD PUSH1 0x1 PUSH1 0x1 PUSH1 0xA0 SHL SUB SWAP4 SWAP1 PUSH2 0xF84 SWAP1 DUP6 AND ISZERO ISZERO PUSH2 0x449A JUMP JUMPDEST DUP4 PUSH1 0x1 SLOAD AND PUSH2 0xF94 DUP2 ISZERO ISZERO PUSH2 0x45D4 JUMP JUMPDEST PUSH3 0xF4240 SWAP2 DUP3 DUP5 MUL SWAP3 DUP5 DUP5 DIV EQ OR ISZERO PUSH2 0xF1D JUMPI PUSH2 0xFB0 CALLER PUSH2 0x4356 JUMP JUMPDEST PUSH2 0xFBC PUSH1 0x7 SLOAD DUP6 PUSH2 0x4336 JUMP JUMPDEST PUSH8 0xDE0B6B3A7640000 SWAP1 DUP2 DUP2 MUL SWAP2 DUP2 DUP4 DIV EQ SWAP1 ISZERO OR ISZERO PUSH2 0xF0A JUMPI SWAP2 PUSH2 0xE19 PUSH2 0xFE8 SWAP6 SWAP5 SWAP3 PUSH1 0x20 SWAP5 PUSH2 0x4316 JUMP JUMPDEST SUB SWAP3 GAS CALL DUP1 ISZERO PUSH2 0x62E JUMPI PUSH1 0x0 DUP1 MLOAD PUSH1 0x20 PUSH2 0x5B75 DUP4 CODECOPY DUP2 MLOAD SWAP2 MSTORE SWAP4 PUSH2 0x5AA PUSH2 0x101A SWAP3 PUSH2 0x5FA SWAP6 DUP11 SWAP2 PUSH2 0x105E JUMPI JUMPDEST POP PUSH2 0x462E JUMP JUMPDEST SWAP4 PUSH2 0x1024 DUP6 PUSH2 0x5356 JUMP JUMPDEST PUSH2 0x103A DUP2 PUSH1 0x1 SLOAD AND DUP7 DUP5 DUP5 DUP12 SLOAD AND PUSH2 0x5CF PUSH2 0x4569 JUMP JUMPDEST PUSH1 0x1 SLOAD AND SWAP5 MLOAD SWAP2 DUP3 SWAP2 CALLER SWAP6 TIMESTAMP SWAP2 DUP5 PUSH1 0x40 SWAP2 SWAP5 SWAP4 SWAP3 PUSH1 0x60 DUP3 ADD SWAP6 DUP3 MSTORE PUSH1 0x20 DUP3 ADD MSTORE ADD MSTORE JUMP JUMPDEST PUSH2 0x1076 SWAP2 POP PUSH1 0x20 RETURNDATASIZE DUP2 GT PUSH2 0x627 JUMPI PUSH2 0x619 DUP2 DUP4 PUSH2 0x40DF JUMP JUMPDEST CODESIZE PUSH2 0x1014 JUMP JUMPDEST POP POP CALLVALUE PUSH2 0x46B JUMPI PUSH2 0xD8F SWAP1 PUSH2 0x1090 CALLDATASIZE PUSH2 0x3E8D JUMP JUMPDEST SWAP5 SWAP3 SWAP2 SWAP1 SWAP2 CALLER DUP9 MSTORE PUSH1 0x10 PUSH1 0x20 MSTORE PUSH2 0x10AD PUSH1 0xFF DUP9 DUP11 KECCAK256 SLOAD AND ISZERO PUSH2 0x43E2 JUMP JUMPDEST PUSH2 0x4893 JUMP JUMPDEST DUP5 CALLVALUE PUSH2 0x749 JUMPI PUSH1 0x20 CALLDATASIZE PUSH1 0x3 NOT ADD SLT PUSH2 0x749 JUMPI PUSH2 0x10CC PUSH2 0x3E44 JUMP JUMPDEST PUSH1 0x1 PUSH1 0x1 PUSH1 0xA0 SHL SUB SWAP1 PUSH2 0x1102 CALLER PUSH32 0x0 DUP5 AND EQ PUSH2 0x4204 JUMP JUMPDEST AND PUSH2 0x110E DUP2 ISZERO ISZERO PUSH2 0x4279 JUMP JUMPDEST DUP2 SLOAD PUSH1 0x1 PUSH1 0x1 PUSH1 0xA0 SHL SUB NOT AND OR DUP2 SSTORE DUP1 RETURN JUMPDEST POP POP SWAP1 CALLVALUE PUSH2 0x46B JUMPI DUP3 PUSH1 0x3 NOT CALLDATASIZE ADD SLT PUSH2 0x46B JUMPI DUP3 SLOAD DUP2 MLOAD PUSH4 0x70A08231 PUSH1 0xE0 SHL DUP1 DUP3 MSTORE ADDRESS DUP3 DUP7 ADD MSTORE SWAP1 SWAP5 PUSH1 0x1 PUSH1 0x1 PUSH1 0xA0 SHL SUB SWAP5 PUSH1 0x20 SWAP4 DUP5 SWAP1 DUP9 SWAP1 PUSH1 0x24 SWAP1 DUP3 SWAP1 DUP11 AND GAS STATICCALL SWAP6 DUP7 ISZERO PUSH2 0x128C JUMPI DUP3 SWAP7 PUSH2 0x125C JUMPI JUMPDEST PUSH1 0x24 SWAP8 POP DUP5 DUP2 PUSH1 0x1 SLOAD AND DUP8 MLOAD SWAP10 DUP11 DUP1 SWAP3 DUP9 DUP3 MSTORE ADDRESS DUP8 DUP4 ADD MSTORE GAS STATICCALL SWAP8 DUP9 ISZERO PUSH2 0x1252 JUMPI DUP4 SWAP9 PUSH2 0x1222 JUMPI JUMPDEST POP SWAP1 PUSH1 0x24 DUP6 SWAP3 PUSH1 0x2 SLOAD AND SWAP5 DUP8 MLOAD SWAP6 DUP7 SWAP4 DUP5 SWAP3 DUP4 MSTORE ADDRESS SWAP1 DUP4 ADD MSTORE GAS STATICCALL SWAP3 DUP4 ISZERO PUSH2 0x1216 JUMPI DUP2 SWAP4 PUSH2 0x11E3 JUMPI JUMPDEST POP POP POP PUSH2 0x6DD SWAP2 MLOAD SWAP4 DUP5 SWAP4 DUP5 PUSH1 0x40 SWAP2 SWAP5 SWAP4 SWAP3 PUSH1 0x60 DUP3 ADD SWAP6 DUP3 MSTORE PUSH1 0x20 DUP3 ADD MSTORE ADD MSTORE JUMP JUMPDEST SWAP1 SWAP2 DUP1 SWAP4 POP DUP2 RETURNDATASIZE DUP4 GT PUSH2 0x120F JUMPI JUMPDEST PUSH2 0x11FB DUP2 DUP4 PUSH2 0x40DF JUMP JUMPDEST DUP2 ADD SUB SLT PUSH2 0x749 JUMPI POP MLOAD PUSH2 0x6DD CODESIZE DUP1 PUSH2 0x11C1 JUMP JUMPDEST POP RETURNDATASIZE PUSH2 0x11F1 JUMP JUMPDEST POP DUP4 MLOAD SWAP1 RETURNDATASIZE SWAP1 DUP3 RETURNDATACOPY RETURNDATASIZE SWAP1 REVERT JUMPDEST SWAP1 SWAP8 POP DUP5 DUP2 DUP2 RETURNDATASIZE DUP4 GT PUSH2 0x124B JUMPI JUMPDEST PUSH2 0x123A DUP2 DUP4 PUSH2 0x40DF JUMP JUMPDEST DUP2 ADD SUB SLT PUSH2 0x46B JUMPI MLOAD SWAP7 PUSH1 0x24 PUSH2 0x1198 JUMP JUMPDEST POP RETURNDATASIZE PUSH2 0x1230 JUMP JUMPDEST DUP7 MLOAD RETURNDATASIZE DUP6 DUP3 RETURNDATACOPY RETURNDATASIZE SWAP1 REVERT JUMPDEST SWAP6 POP DUP4 DUP8 DUP2 RETURNDATASIZE DUP4 GT PUSH2 0x1285 JUMPI JUMPDEST PUSH2 0x1273 DUP2 DUP4 PUSH2 0x40DF JUMP JUMPDEST DUP2 ADD SUB SLT PUSH2 0x66A JUMPI PUSH1 0x24 SWAP7 MLOAD SWAP6 PUSH2 0x1170 JUMP JUMPDEST POP RETURNDATASIZE PUSH2 0x1269 JUMP JUMPDEST DUP6 MLOAD RETURNDATASIZE DUP5 DUP3 RETURNDATACOPY RETURNDATASIZE SWAP1 REVERT JUMPDEST POP POP POP CALLVALUE PUSH2 0x66A JUMPI DUP2 PUSH1 0x3 NOT CALLDATASIZE ADD SLT PUSH2 0x66A JUMPI PUSH1 0x20 SWAP1 PUSH1 0x6 SLOAD SWAP1 MLOAD SWAP1 DUP2 MSTORE RETURN JUMPDEST POP POP SWAP1 CALLVALUE PUSH2 0x46B JUMPI PUSH1 0x20 DUP1 PUSH1 0x3 NOT CALLDATASIZE ADD SLT PUSH2 0x1436 JUMPI PUSH2 0x12D3 PUSH2 0x3E44 JUMP JUMPDEST SWAP3 CALLER DUP6 MSTORE PUSH1 0x10 DUP3 MSTORE PUSH2 0x12EB PUSH1 0xFF DUP5 DUP8 KECCAK256 SLOAD AND ISZERO PUSH2 0x43E2 JUMP JUMPDEST PUSH1 0x1 PUSH1 0x1 PUSH1 0xA0 SHL SUB SWAP4 DUP5 AND SWAP4 DUP5 ISZERO PUSH2 0x13F4 JUMPI CALLER DUP6 EQ PUSH2 0x13BA JUMPI CALLER DUP7 MSTORE PUSH1 0x23 DUP4 MSTORE DUP4 DUP7 KECCAK256 SLOAD AND PUSH2 0x136E JUMPI POP SWAP1 PUSH1 0x24 PUSH2 0x1345 SWAP3 CALLER DUP7 MSTORE PUSH1 0x23 DUP2 MSTORE DUP3 DUP7 KECCAK256 DUP6 PUSH1 0x1 PUSH1 0x1 PUSH1 0x60 SHL SUB PUSH1 0xA0 SHL DUP3 SLOAD AND OR SWAP1 SSTORE DUP5 DUP7 MSTORE MSTORE CALLER SWAP1 DUP5 KECCAK256 PUSH2 0x4423 JUMP JUMPDEST CALLER SWAP1 PUSH32 0x5F1CA2FCC108B751843A763E60D2201F593516109D7DBB1B700468F2D4190BB7 DUP4 DUP1 LOG3 DUP1 RETURN JUMPDEST SWAP2 MLOAD PUSH3 0x461BCD PUSH1 0xE5 SHL DUP2 MSTORE SWAP2 DUP3 ADD MSTORE PUSH1 0x22 PUSH1 0x24 DUP3 ADD MSTORE PUSH32 0x416C726561647920726567697374657265642077697468206120726566657272 PUSH1 0x44 DUP3 ADD MSTORE PUSH2 0x32B9 PUSH1 0xF1 SHL PUSH1 0x64 DUP3 ADD MSTORE PUSH1 0x84 SWAP1 REVERT JUMPDEST POP SWAP2 MLOAD PUSH3 0x461BCD PUSH1 0xE5 SHL DUP2 MSTORE SWAP2 DUP3 ADD MSTORE PUSH1 0x15 PUSH1 0x24 DUP3 ADD MSTORE PUSH21 0x21B0B73737BA103932B332B9103CB7BAB939B2B633 PUSH1 0x59 SHL PUSH1 0x44 DUP3 ADD MSTORE PUSH1 0x64 SWAP1 REVERT JUMPDEST POP SWAP2 MLOAD PUSH3 0x461BCD PUSH1 0xE5 SHL DUP2 MSTORE SWAP2 DUP3 ADD MSTORE PUSH1 0x18 PUSH1 0x24 DUP3 ADD MSTORE PUSH32 0x496E76616C696420726566657272657220616464726573730000000000000000 PUSH1 0x44 DUP3 ADD MSTORE PUSH1 0x64 SWAP1 REVERT JUMPDEST DUP4 DUP1 REVERT JUMPDEST POP POP POP CALLVALUE PUSH2 0x66A JUMPI DUP2 PUSH1 0x3 NOT CALLDATASIZE ADD SLT PUSH2 0x66A JUMPI PUSH1 0x20 SWAP1 MLOAD PUSH1 0x5 DUP2 MSTORE RETURN JUMPDEST POP POP POP CALLVALUE PUSH2 0x66A JUMPI DUP2 PUSH1 0x3 NOT CALLDATASIZE ADD SLT PUSH2 0x66A JUMPI PUSH1 0x1 SLOAD SWAP1 MLOAD PUSH1 0x1 PUSH1 0x1 PUSH1 0xA0 SHL SUB SWAP1 SWAP2 AND DUP2 MSTORE PUSH1 0x20 SWAP1 RETURN JUMPDEST POP POP CALLVALUE PUSH2 0x46B JUMPI PUSH1 0x20 SWAP1 DUP2 PUSH1 0x3 NOT CALLDATASIZE ADD SLT PUSH2 0x1436 JUMPI CALLDATALOAD DUP1 DUP5 MSTORE PUSH1 0x1C DUP3 MSTORE DUP3 DUP5 KECCAK256 SLOAD PUSH1 0x1 PUSH1 0x1 PUSH1 0xA0 SHL SUB AND SWAP4 SWAP1 SWAP3 SWAP1 PUSH2 0x14BA DUP6 ISZERO ISZERO PUSH2 0x4E10 JUMP JUMPDEST PUSH2 0x14C2 PUSH2 0x5B3C JUMP JUMPDEST DUP2 SWAP6 DUP3 JUMPDEST DUP2 DUP5 MSTORE PUSH1 0x1B DUP1 DUP8 MSTORE DUP6 DUP6 KECCAK256 DUP1 SLOAD DUP4 LT ISZERO PUSH2 0x1547 JUMPI PUSH2 0x14E5 DUP4 DUP11 SWAP3 PUSH2 0x3FED JUMP JUMPDEST POP SLOAD EQ PUSH2 0x14FB JUMPI POP PUSH2 0x14F6 SWAP1 PUSH2 0x4E01 JUMP JUMPDEST PUSH2 0x14C6 JUMP JUMPDEST PUSH1 0x60 SWAP9 POP PUSH2 0x151E SWAP4 POP DUP5 DUP7 SWAP2 PUSH2 0x1518 SWAP5 PUSH2 0x152E SWAP8 MSTORE DUP9 MSTORE KECCAK256 PUSH2 0x3FED JUMP JUMPDEST POP PUSH2 0x5AE7 JUMP JUMPDEST SWAP4 PUSH2 0x1529 PUSH1 0x1 PUSH2 0x4E53 JUMP JUMPDEST PUSH2 0x4ED0 JUMP JUMPDEST PUSH1 0xC0 DUP6 DUP6 ADD MLOAD SWAP5 ADD MLOAD ISZERO ISZERO SWAP3 DUP3 MLOAD SWAP5 DUP6 MSTORE DUP5 ADD MSTORE DUP3 ADD MSTORE RETURN JUMPDEST POP POP POP POP SWAP4 PUSH2 0x152E SWAP2 POP PUSH2 0x1529 PUSH1 0x60 SWAP7 PUSH2 0x4E53 JUMP JUMPDEST POP POP CALLVALUE PUSH2 0x46B JUMPI PUSH1 0x20 CALLDATASIZE PUSH1 0x3 NOT ADD SLT PUSH2 0x46B JUMPI DUP1 CALLDATALOAD SWAP1 CALLER DUP5 MSTORE PUSH1 0x10 PUSH1 0x20 MSTORE PUSH2 0x158A PUSH1 0xFF DUP5 DUP7 KECCAK256 SLOAD AND ISZERO PUSH2 0x43E2 JUMP JUMPDEST PUSH2 0x1595 DUP3 ISZERO ISZERO PUSH2 0x4588 JUMP JUMPDEST DUP4 SLOAD PUSH1 0x1 PUSH1 0x1 PUSH1 0xA0 SHL SUB SWAP3 PUSH2 0x15D0 SWAP2 PUSH2 0x15B1 SWAP1 DUP6 AND ISZERO ISZERO PUSH2 0x449A JUMP JUMPDEST PUSH1 0x20 DUP2 DUP6 PUSH1 0x3 SLOAD AND PUSH2 0x15C4 DUP2 ISZERO ISZERO PUSH2 0x46F6 JUMP JUMPDEST PUSH2 0xE19 PUSH1 0xB SLOAD DUP4 PUSH2 0x4336 JUMP JUMPDEST SUB SWAP3 GAS CALL DUP1 ISZERO PUSH2 0x62E JUMPI PUSH1 0x0 DUP1 MLOAD PUSH1 0x20 PUSH2 0x5B75 DUP4 CODECOPY DUP2 MLOAD SWAP2 MSTORE SWAP4 PUSH2 0x5AA PUSH2 0x1602 SWAP3 PUSH2 0x5FA SWAP6 DUP11 SWAP2 PUSH2 0x1646 JUMPI JUMPDEST POP PUSH2 0x4737 JUMP JUMPDEST SWAP4 PUSH2 0x160C DUP6 PUSH2 0x5356 JUMP JUMPDEST PUSH2 0x1622 DUP2 PUSH1 0x3 SLOAD AND DUP7 DUP5 DUP5 DUP12 SLOAD AND PUSH2 0x5CF PUSH2 0x4569 JUMP JUMPDEST PUSH1 0x3 SLOAD AND SWAP5 MLOAD SWAP2 DUP3 SWAP2 CALLER SWAP6 TIMESTAMP SWAP2 DUP5 PUSH1 0x40 SWAP2 SWAP5 SWAP4 SWAP3 PUSH1 0x60 DUP3 ADD SWAP6 DUP3 MSTORE PUSH1 0x20 DUP3 ADD MSTORE ADD MSTORE JUMP JUMPDEST PUSH2 0x165E SWAP2 POP PUSH1 0x20 RETURNDATASIZE DUP2 GT PUSH2 0x627 JUMPI PUSH2 0x619 DUP2 DUP4 PUSH2 0x40DF JUMP JUMPDEST CODESIZE PUSH2 0x15FC JUMP JUMPDEST POP POP POP CALLVALUE PUSH2 0x66A JUMPI DUP2 PUSH1 0x3 NOT CALLDATASIZE ADD SLT PUSH2 0x66A JUMPI PUSH1 0x20 SWAP1 MLOAD PUSH12 0x1F04EF12CB04CF158000000 DUP2 MSTORE RETURN JUMPDEST POP POP POP CALLVALUE PUSH2 0x66A JUMPI DUP2 PUSH1 0x3 NOT CALLDATASIZE ADD SLT PUSH2 0x66A JUMPI PUSH1 0x20 SWAP1 PUSH1 0x22 SLOAD SWAP1 MLOAD SWAP1 DUP2 MSTORE RETURN JUMPDEST POP POP POP CALLVALUE PUSH2 0x66A JUMPI DUP2 PUSH1 0x3 NOT CALLDATASIZE ADD SLT PUSH2 0x66A JUMPI MLOAD PUSH32 0x0 PUSH1 0x1 PUSH1 0x1 PUSH1 0xA0 SHL SUB AND DUP2 MSTORE PUSH1 0x20 SWAP1 RETURN JUMPDEST POP POP POP CALLVALUE PUSH2 0x66A JUMPI DUP2 PUSH1 0x3 NOT CALLDATASIZE ADD SLT PUSH2 0x66A JUMPI PUSH1 0x20 SWAP1 PUSH1 0x1F SLOAD SWAP1 MLOAD SWAP1 DUP2 MSTORE RETURN JUMPDEST POP POP POP CALLVALUE PUSH2 0x66A JUMPI DUP2 PUSH1 0x3 NOT CALLDATASIZE ADD SLT PUSH2 0x66A JUMPI PUSH1 0x20 SWAP1 PUSH1 0x13 SLOAD SWAP1 MLOAD SWAP1 DUP2 MSTORE RETURN JUMPDEST POP POP POP CALLVALUE PUSH2 0x66A JUMPI PUSH1 0x20 CALLDATASIZE PUSH1 0x3 NOT ADD SLT PUSH2 0x66A JUMPI PUSH1 0x20 SWAP1 PUSH2 0xB06 PUSH2 0x1753 PUSH2 0x3E44 JUMP JUMPDEST PUSH2 0x4356 JUMP JUMPDEST SWAP2 POP POP CALLVALUE PUSH2 0x46B JUMPI PUSH1 0x20 DUP1 PUSH1 0x3 NOT CALLDATASIZE ADD SLT PUSH2 0x1436 JUMPI SWAP1 SWAP2 PUSH1 0x1 PUSH1 0x1 PUSH1 0xA0 SHL SUB PUSH2 0x177F PUSH2 0x3E44 JUMP JUMPDEST AND DUP5 MSTORE PUSH1 0x1B DUP3 MSTORE DUP1 DUP5 KECCAK256 SWAP2 DUP3 SLOAD SWAP2 PUSH2 0x1796 DUP4 PUSH2 0x5ACF JUMP JUMPDEST SWAP3 PUSH2 0x17A3 DUP3 MLOAD SWAP5 DUP6 PUSH2 0x40DF JUMP JUMPDEST DUP1 DUP5 MSTORE DUP3 DUP5 ADD DUP1 SWAP6 DUP9 MSTORE DUP4 DUP9 KECCAK256 DUP9 SWAP2 JUMPDEST DUP4 DUP4 LT PUSH2 0x1833 JUMPI POP POP POP POP DUP1 MLOAD SWAP5 DUP3 DUP7 ADD SWAP4 DUP4 DUP8 MSTORE MLOAD DUP1 SWAP5 MSTORE DUP2 DUP7 ADD SWAP5 SWAP7 SWAP2 JUMPDEST DUP5 DUP4 LT PUSH2 0x17E0 JUMPI DUP7 DUP7 SUB DUP8 RETURN JUMPDEST DUP8 MLOAD DUP1 MLOAD DUP8 MSTORE DUP1 DUP6 ADD MLOAD DUP8 DUP7 ADD MSTORE DUP1 DUP3 ADD MLOAD DUP8 DUP4 ADD MSTORE PUSH1 0x60 DUP1 DUP3 ADD MLOAD SWAP1 DUP9 ADD MSTORE PUSH1 0x80 DUP1 DUP3 ADD MLOAD SWAP1 DUP9 ADD MSTORE PUSH1 0xA0 DUP1 DUP3 ADD MLOAD SWAP1 DUP9 ADD MSTORE PUSH1 0xC0 SWAP1 DUP2 ADD MLOAD ISZERO ISZERO SWAP1 DUP8 ADD MSTORE SWAP7 DUP4 ADD SWAP7 SWAP5 DUP2 ADD SWAP5 PUSH1 0x1 SWAP1 SWAP3 ADD SWAP2 PUSH2 0x17D3 JUMP JUMPDEST PUSH1 0x7 DUP7 PUSH1 0x1 SWAP3 PUSH2 0x184A DUP6 SWAP14 SWAP10 SWAP11 SWAP12 SWAP14 SWAP13 SWAP9 SWAP13 PUSH2 0x5AE7 JUMP JUMPDEST DUP2 MSTORE ADD SWAP3 ADD SWAP3 ADD SWAP2 SWAP1 SWAP9 SWAP7 SWAP6 SWAP5 SWAP9 SWAP8 SWAP4 SWAP8 PUSH2 0x17B3 JUMP JUMPDEST POP POP POP CALLVALUE PUSH2 0x66A JUMPI DUP2 PUSH1 0x3 NOT CALLDATASIZE ADD SLT PUSH2 0x66A JUMPI PUSH1 0x20 SWAP1 PUSH1 0x8 SLOAD SWAP1 MLOAD SWAP1 DUP2 MSTORE RETURN JUMPDEST POP POP POP CALLVALUE PUSH2 0x66A JUMPI DUP2 PUSH1 0x3 NOT CALLDATASIZE ADD SLT PUSH2 0x66A JUMPI PUSH1 0x20 SWAP1 PUSH1 0x1D SLOAD SWAP1 MLOAD SWAP1 DUP2 MSTORE RETURN JUMPDEST DUP4 DUP6 CALLVALUE PUSH2 0x749 JUMPI PUSH1 0x20 SWAP1 DUP2 PUSH1 0x3 NOT CALLDATASIZE ADD SLT PUSH2 0x749 JUMPI PUSH2 0x18BD PUSH2 0x3E44 JUMP JUMPDEST SWAP1 SWAP2 DUP3 SWAP2 DUP3 SWAP2 SWAP1 DUP3 SWAP1 PUSH1 0x1 PUSH1 0x1 PUSH1 0xA0 SHL SUB AND DUP2 JUMPDEST DUP2 DUP7 MSTORE PUSH1 0x1B DUP1 DUP6 MSTORE DUP9 DUP8 KECCAK256 DUP1 SLOAD DUP4 LT ISZERO PUSH2 0x196B JUMPI PUSH1 0xFF PUSH1 0x6 PUSH2 0x18F4 DUP6 DUP14 SWAP5 PUSH2 0x3FED JUMP JUMPDEST POP ADD SLOAD AND PUSH2 0x190D JUMPI JUMPDEST POP POP PUSH2 0x1908 SWAP1 PUSH2 0x4E01 JUMP JUMPDEST PUSH2 0x18D1 JUMP JUMPDEST DUP3 SWAP7 SWAP5 PUSH2 0x193B DUP4 SWAP11 PUSH1 0x1 PUSH2 0x1932 PUSH2 0x1908 SWAP8 PUSH2 0x195D SWAP7 DUP15 PUSH2 0x1963 SWAP10 DUP15 DUP14 DUP4 MSTORE MSTORE KECCAK256 PUSH2 0x3FED JUMP JUMPDEST POP ADD SLOAD SWAP1 PUSH2 0x4349 JUMP JUMPDEST SWAP10 DUP6 DUP11 MSTORE DUP8 MSTORE PUSH2 0x1957 PUSH2 0x1950 DUP10 DUP14 DUP13 KECCAK256 PUSH2 0x3FED JUMP JUMPDEST POP SLOAD PUSH2 0x4ED0 JUMP JUMPDEST SWAP1 PUSH2 0x4349 JUMP JUMPDEST SWAP4 PUSH2 0x4E01 JUMP JUMPDEST SWAP5 SWAP1 DUP9 PUSH2 0x18FD JUMP JUMPDEST DUP10 MLOAD DUP10 DUP2 MSTORE PUSH1 0x20 DUP2 ADD DUP7 SWAP1 MSTORE PUSH1 0x40 DUP2 ADD DUP9 SWAP1 MSTORE PUSH1 0x60 SWAP1 RETURN JUMPDEST POP POP CALLVALUE PUSH2 0x46B JUMPI PUSH2 0x19B3 PUSH2 0x1996 CALLDATASIZE PUSH2 0x3E8D JUMP JUMPDEST SWAP4 SWAP3 SWAP2 SWAP1 SWAP2 CALLER DUP9 MSTORE PUSH1 0x10 PUSH1 0x20 MSTORE PUSH2 0x10AD PUSH1 0xFF DUP9 DUP11 KECCAK256 SLOAD AND ISZERO PUSH2 0x43E2 JUMP JUMPDEST PUSH2 0x19BE DUP2 ISZERO ISZERO PUSH2 0x4588 JUMP JUMPDEST DUP4 SLOAD PUSH1 0x1 PUSH1 0x1 PUSH1 0xA0 SHL SUB SWAP2 SWAP1 PUSH2 0x19D7 SWAP1 DUP4 AND ISZERO ISZERO PUSH2 0x449A JUMP JUMPDEST DUP2 DUP4 SLOAD AND SWAP1 PUSH2 0x19E7 DUP3 ISZERO ISZERO PUSH2 0x4779 JUMP JUMPDEST PUSH2 0x19F3 PUSH1 0xC SLOAD DUP3 PUSH2 0x4336 JUMP JUMPDEST SWAP3 PUSH5 0x2540BE400 SWAP4 DUP5 DUP2 MUL SWAP5 DUP2 DUP7 DIV EQ SWAP1 ISZERO OR ISZERO PUSH2 0x1B00 JUMPI DUP6 MLOAD PUSH4 0x23B872DD PUSH1 0xE0 SHL DUP2 MSTORE CALLER DUP7 DUP3 ADD SWAP1 DUP2 MSTORE PUSH1 0x1 PUSH1 0x1 PUSH1 0xA0 SHL SUB PUSH32 0x0 AND PUSH1 0x20 DUP3 DUP2 ADD SWAP2 SWAP1 SWAP2 MSTORE PUSH1 0x40 DUP3 ADD DUP6 SWAP1 MSTORE SWAP2 SWAP5 DUP6 SWAP2 DUP3 SWAP1 DUP12 SWAP1 DUP3 SWAP1 PUSH1 0x60 ADD SUB SWAP3 GAS CALL DUP1 ISZERO PUSH2 0x1AF6 JUMPI PUSH1 0x0 DUP1 MLOAD PUSH1 0x20 PUSH2 0x5B75 DUP4 CODECOPY DUP2 MLOAD SWAP2 MSTORE SWAP5 PUSH2 0x5AA PUSH2 0x1A97 SWAP3 PUSH2 0x5FA SWAP7 DUP12 SWAP2 PUSH2 0x1AD8 JUMPI JUMPDEST POP PUSH2 0x47BA JUMP JUMPDEST SWAP5 PUSH2 0x1AA1 DUP7 PUSH2 0x5356 JUMP JUMPDEST PUSH2 0x1AB6 DUP3 DUP3 SLOAD AND DUP8 DUP6 DUP6 DUP13 SLOAD AND PUSH2 0x5CF PUSH2 0x4569 JUMP JUMPDEST SLOAD AND SWAP5 MLOAD SWAP2 DUP3 SWAP2 CALLER SWAP6 TIMESTAMP SWAP2 DUP5 PUSH1 0x40 SWAP2 SWAP5 SWAP4 SWAP3 PUSH1 0x60 DUP3 ADD SWAP6 DUP3 MSTORE PUSH1 0x20 DUP3 ADD MSTORE ADD MSTORE JUMP JUMPDEST PUSH2 0x1AF0 SWAP2 POP PUSH1 0x20 RETURNDATASIZE DUP2 GT PUSH2 0x627 JUMPI PUSH2 0x619 DUP2 DUP4 PUSH2 0x40DF JUMP JUMPDEST CODESIZE PUSH2 0x1A91 JUMP JUMPDEST DUP7 MLOAD RETURNDATASIZE DUP10 DUP3 RETURNDATACOPY RETURNDATASIZE SWAP1 REVERT JUMPDEST PUSH4 0x4E487B71 PUSH1 0xE0 SHL DUP8 MSTORE PUSH1 0x11 DUP6 MSTORE PUSH1 0x24 DUP8 REVERT JUMPDEST DUP3 DUP6 DUP6 CALLDATASIZE PUSH1 0x3 NOT ADD PUSH1 0xA0 DUP2 SLT PUSH2 0x46B JUMPI PUSH1 0x80 SGT PUSH2 0x66A JUMPI PUSH1 0x84 CALLDATALOAD PUSH8 0xFFFFFFFFFFFFFFFF DUP2 GT PUSH2 0x46B JUMPI PUSH2 0x1B49 SWAP1 CALLDATASIZE SWAP1 DUP6 ADD PUSH2 0x3E5F JUMP JUMPDEST SWAP2 SWAP1 CALLER DUP5 MSTORE PUSH1 0x20 PUSH1 0x10 DUP2 MSTORE PUSH2 0x1B64 PUSH1 0xFF DUP5 DUP8 KECCAK256 SLOAD AND ISZERO PUSH2 0x43E2 JUMP JUMPDEST PUSH1 0x64 CALLDATALOAD SWAP2 DUP3 TIMESTAMP GT PUSH2 0x1F08 JUMPI PUSH1 0x1 PUSH1 0x1 PUSH1 0xA0 SHL SUB SWAP5 DUP8 CALLDATALOAD DUP7 DUP2 AND SWAP3 SWAP2 SWAP1 DUP4 SWAP1 SUB PUSH2 0x1F04 JUMPI CALLER DUP4 SUB PUSH2 0x1ECE JUMPI PUSH1 0x44 CALLDATALOAD SWAP3 CALLER DUP10 MSTORE PUSH1 0x28 DUP6 MSTORE DUP7 DUP10 KECCAK256 SLOAD DUP5 GT ISZERO PUSH2 0x1E9E JUMPI PUSH1 0x27 SLOAD SWAP1 PUSH1 0x24 CALLDATALOAD SWAP7 DUP10 DUP9 AND DUP1 SWAP9 SUB PUSH2 0x1E9A JUMPI DUP9 MLOAD SWAP1 DUP8 DUP3 ADD SWAP3 PUSH32 0x91B089318BBDF627BACEC662873C12CC3AFDC69DB73F084D7726E9CE2907280A DUP5 MSTORE DUP11 DUP4 ADD MSTORE DUP9 PUSH1 0x60 DUP4 ADD MSTORE DUP7 PUSH1 0x80 DUP4 ADD MSTORE PUSH1 0xA0 DUP3 ADD MSTORE PUSH1 0xA0 DUP2 MSTORE PUSH2 0x1C02 DUP2 PUSH2 0x408B JUMP JUMPDEST MLOAD SWAP1 KECCAK256 DUP8 MLOAD SWAP1 DUP7 DUP3 ADD SWAP3 PUSH2 0x1901 PUSH1 0xF0 SHL DUP5 MSTORE PUSH1 0x22 DUP4 ADD MSTORE PUSH1 0x42 DUP3 ADD MSTORE PUSH1 0x42 DUP2 MSTORE PUSH2 0x1C2B DUP2 PUSH2 0x40A7 JUMP JUMPDEST MLOAD SWAP1 KECCAK256 SWAP1 PUSH2 0x1C38 DUP2 PUSH2 0x44DB JUMP JUMPDEST SWAP3 PUSH2 0x1C45 DUP9 MLOAD SWAP5 DUP6 PUSH2 0x40DF JUMP JUMPDEST DUP2 DUP5 MSTORE CALLDATASIZE DUP3 DUP3 ADD GT PUSH2 0x1E96 JUMPI SWAP2 DUP10 DUP7 DUP4 DUP7 SWAP5 PUSH2 0x1C6B SWAP7 DUP4 PUSH2 0x1C73 SWAP10 ADD CALLDATACOPY DUP5 ADD ADD MSTORE PUSH2 0x4CD6 JUMP JUMPDEST SWAP2 SWAP1 SWAP2 PUSH2 0x4BBC JUMP JUMPDEST DUP6 DUP1 PUSH1 0x26 SLOAD AND SWAP2 AND SUB PUSH2 0x1E63 JUMPI CALLER DUP7 MSTORE PUSH1 0x28 DUP3 MSTORE DUP1 DUP5 DUP8 KECCAK256 SSTORE DUP4 MLOAD SWAP1 DUP2 MSTORE PUSH32 0xB23E07A4FC171F5F9242D4254C3B66B893BEAAB2F3787495C0F2D09DD3EF9726 DUP3 CALLER SWAP3 LOG2 DUP5 DUP3 ISZERO ISZERO DUP1 PUSH2 0x1E57 JUMPI JUMPDEST DUP1 PUSH2 0x1E43 JUMPI JUMPDEST DUP2 DUP2 PUSH2 0x1E24 JUMPI JUMPDEST POP PUSH2 0x1DBF JUMPI JUMPDEST POP POP POP CALLVALUE ISZERO PUSH2 0x1CE2 DUP2 ISZERO PUSH2 0x445E JUMP JUMPDEST PUSH2 0x1CF0 DUP4 DUP6 SLOAD AND ISZERO ISZERO PUSH2 0x449A JUMP JUMPDEST PUSH2 0x1CF9 CALLER PUSH2 0x4356 JUMP JUMPDEST SWAP1 PUSH8 0xDE0B6B3A7640000 SWAP1 DUP2 CALLVALUE MUL SWAP2 CALLVALUE DUP4 DIV EQ OR ISZERO PUSH2 0x1DAC JUMPI SWAP2 PUSH2 0x1D8E PUSH2 0x1D34 PUSH2 0x5AA PUSH1 0x0 DUP1 MLOAD PUSH1 0x20 PUSH2 0x5B75 DUP4 CODECOPY DUP2 MLOAD SWAP2 MSTORE SWAP5 DUP9 SWAP8 SWAP7 PUSH2 0x4316 JUMP JUMPDEST SWAP4 PUSH2 0x1D3E DUP6 PUSH2 0x5356 JUMP JUMPDEST PUSH2 0x1D79 DUP7 DUP1 DUP1 DUP1 CALLVALUE DUP7 PUSH32 0x0 AND GAS CALL PUSH2 0x1D73 PUSH2 0x44F7 JUMP JUMPDEST POP PUSH2 0x4527 JUMP JUMPDEST DUP6 SLOAD AND DUP5 PUSH2 0x1D85 PUSH2 0x4569 JUMP JUMPDEST SWAP2 CALLVALUE SWAP1 CALLER PUSH2 0x5A14 JUMP JUMPDEST MLOAD CALLVALUE DUP2 MSTORE PUSH1 0x20 DUP2 ADD SWAP3 SWAP1 SWAP3 MSTORE TIMESTAMP PUSH1 0x40 DUP4 ADD MSTORE CALLER SWAP2 DUP1 PUSH1 0x60 DUP2 ADD PUSH2 0x5FA JUMP JUMPDEST PUSH4 0x4E487B71 PUSH1 0xE0 SHL DUP6 MSTORE PUSH1 0x11 DUP7 MSTORE PUSH1 0x24 DUP6 REVERT JUMPDEST PUSH2 0x1E20 JUMPI PUSH1 0x24 SWAP1 CALLER DUP7 MSTORE PUSH1 0x23 DUP2 MSTORE DUP4 DUP7 KECCAK256 DUP4 PUSH1 0x1 PUSH1 0x1 PUSH1 0x60 SHL SUB PUSH1 0xA0 SHL DUP3 SLOAD AND OR SWAP1 SSTORE DUP3 DUP7 MSTORE MSTORE PUSH2 0x1DF2 CALLER DUP4 DUP7 KECCAK256 PUSH2 0x4423 JUMP JUMPDEST CALLER SWAP1 PUSH32 0x5F1CA2FCC108B751843A763E60D2201F593516109D7DBB1B700468F2D4190BB7 DUP6 DUP1 LOG3 DUP5 DUP1 DUP1 PUSH2 0x1CD3 JUMP JUMPDEST DUP5 DUP1 REVERT JUMPDEST SWAP1 POP PUSH2 0x1E3F JUMPI DUP3 DUP7 MSTORE PUSH1 0x10 DUP3 MSTORE PUSH1 0xFF DUP5 DUP8 KECCAK256 SLOAD AND ISZERO DUP2 PUSH2 0x1CCD JUMP JUMPDEST DUP6 DUP1 REVERT JUMPDEST POP CALLER DUP7 MSTORE PUSH1 0x23 DUP3 MSTORE DUP5 DUP5 DUP8 KECCAK256 SLOAD AND ISZERO PUSH2 0x1CC6 JUMP JUMPDEST POP POP DUP5 CALLER DUP4 EQ ISZERO PUSH2 0x1CC0 JUMP JUMPDEST DUP4 MLOAD PUSH3 0x461BCD PUSH1 0xE5 SHL DUP2 MSTORE DUP1 DUP9 ADD DUP4 SWAP1 MSTORE PUSH1 0xD PUSH1 0x24 DUP3 ADD MSTORE PUSH13 0x426164207369676E6174757265 PUSH1 0x98 SHL PUSH1 0x44 DUP3 ADD MSTORE PUSH1 0x64 SWAP1 REVERT JUMPDEST DUP10 DUP1 REVERT JUMPDEST DUP11 DUP1 REVERT JUMPDEST DUP7 MLOAD PUSH3 0x461BCD PUSH1 0xE5 SHL DUP2 MSTORE DUP1 DUP12 ADD DUP7 SWAP1 MSTORE PUSH1 0xA PUSH1 0x24 DUP3 ADD MSTORE PUSH10 0x139BDB98D9481D5CD959 PUSH1 0xB2 SHL PUSH1 0x44 DUP3 ADD MSTORE PUSH1 0x64 SWAP1 REVERT JUMPDEST DUP6 MLOAD PUSH3 0x461BCD PUSH1 0xE5 SHL DUP2 MSTORE DUP1 DUP11 ADD DUP6 SWAP1 MSTORE PUSH1 0x10 PUSH1 0x24 DUP3 ADD MSTORE PUSH16 0x2737BA103CB7BAB9103B37BAB1B432B9 PUSH1 0x81 SHL PUSH1 0x44 DUP3 ADD MSTORE PUSH1 0x64 SWAP1 REVERT JUMPDEST DUP8 DUP1 REVERT JUMPDEST DUP4 MLOAD PUSH3 0x461BCD PUSH1 0xE5 SHL DUP2 MSTORE DUP1 DUP9 ADD DUP4 SWAP1 MSTORE PUSH1 0xF PUSH1 0x24 DUP3 ADD MSTORE PUSH15 0x159BDD58DA195C88195E1C1A5C9959 PUSH1 0x8A SHL PUSH1 0x44 DUP3 ADD MSTORE PUSH1 0x64 SWAP1 REVERT JUMPDEST SWAP3 SWAP1 POP CALLVALUE PUSH2 0x1436 JUMPI DUP4 PUSH1 0x3 NOT CALLDATASIZE ADD SLT PUSH2 0x1436 JUMPI DUP4 SLOAD DUP2 MLOAD PUSH4 0x70A08231 PUSH1 0xE0 SHL DUP2 MSTORE ADDRESS SWAP4 DUP2 ADD SWAP4 SWAP1 SWAP4 MSTORE PUSH1 0x1 PUSH1 0x1 PUSH1 0xA0 SHL SUB SWAP1 DUP2 AND SWAP4 SWAP1 PUSH1 0x20 DUP5 PUSH1 0x24 DUP2 DUP9 GAS STATICCALL SWAP4 DUP5 ISZERO PUSH2 0x2012 JUMPI DUP7 SWAP5 PUSH2 0x1FDA JUMPI JUMPDEST POP PUSH2 0x120 SWAP6 POP PUSH1 0x6 SLOAD SWAP1 PUSH1 0x7 SLOAD PUSH1 0xE SLOAD SWAP1 DUP3 PUSH1 0x1 SLOAD AND SWAP3 PUSH1 0x2 SLOAD AND SWAP4 PUSH1 0x8 SLOAD SWAP7 PUSH1 0x9 SLOAD SWAP9 DUP2 MLOAD SWAP11 DUP12 MSTORE PUSH1 0x20 DUP12 ADD MSTORE DUP10 ADD MSTORE PUSH1 0x60 DUP9 ADD MSTORE PUSH1 0x80 DUP8 ADD MSTORE PUSH1 0xA0 DUP7 ADD MSTORE PUSH1 0xC0 DUP6 ADD MSTORE DUP4 ADD MSTORE PUSH2 0x100 DUP3 ADD MSTORE RETURN JUMPDEST SWAP1 SWAP4 POP PUSH1 0x20 DUP2 RETURNDATASIZE DUP3 GT PUSH2 0x200A JUMPI JUMPDEST DUP2 PUSH2 0x1FF5 PUSH1 0x20 SWAP4 DUP4 PUSH2 0x40DF JUMP JUMPDEST DUP2 ADD SUB SLT PUSH2 0x1E3F JUMPI PUSH2 0x120 SWAP6 POP MLOAD SWAP3 CODESIZE PUSH2 0x1F8A JUMP JUMPDEST RETURNDATASIZE SWAP2 POP PUSH2 0x1FE8 JUMP JUMPDEST DUP4 MLOAD RETURNDATASIZE DUP9 DUP3 RETURNDATACOPY RETURNDATASIZE SWAP1 REVERT JUMPDEST POP POP POP CALLVALUE PUSH2 0x66A JUMPI DUP2 PUSH1 0x3 NOT CALLDATASIZE ADD SLT PUSH2 0x66A JUMPI PUSH1 0x20 SWAP1 PUSH1 0xD SLOAD SWAP1 MLOAD SWAP1 DUP2 MSTORE RETURN JUMPDEST POP POP POP CALLVALUE PUSH2 0x66A JUMPI PUSH1 0x20 CALLDATASIZE PUSH1 0x3 NOT ADD SLT PUSH2 0x66A JUMPI PUSH1 0x20 SWAP2 PUSH1 0xFF SWAP1 DUP3 SWAP1 PUSH1 0x1 PUSH1 0x1 PUSH1 0xA0 SHL SUB PUSH2 0x2068 PUSH2 0x3E44 JUMP JUMPDEST AND DUP2 MSTORE PUSH1 0x15 DUP6 MSTORE KECCAK256 SLOAD AND SWAP1 MLOAD SWAP1 ISZERO ISZERO DUP2 MSTORE RETURN JUMPDEST POP POP POP CALLVALUE PUSH2 0x66A JUMPI DUP2 PUSH1 0x3 NOT CALLDATASIZE ADD SLT PUSH2 0x66A JUMPI PUSH1 0x20 SWAP1 PUSH1 0x14 SLOAD SWAP1 MLOAD SWAP1 DUP2 MSTORE RETURN JUMPDEST POP POP POP CALLVALUE PUSH2 0x66A JUMPI DUP2 PUSH1 0x3 NOT CALLDATASIZE ADD SLT PUSH2 0x66A JUMPI PUSH1 0x20 SWAP1 DUP2 SLOAD SWAP1 MLOAD SWAP1 DUP2 MSTORE RETURN JUMPDEST POP POP CALLVALUE PUSH2 0x46B JUMPI PUSH1 0x20 CALLDATASIZE PUSH1 0x3 NOT ADD SLT PUSH2 0x46B JUMPI DUP1 CALLDATALOAD SWAP1 PUSH2 0x2104 CALLER PUSH32 0x0 PUSH1 0x1 PUSH1 0x1 PUSH1 0xA0 SHL SUB AND EQ PUSH2 0x4204 JUMP JUMPDEST DUP2 ISZERO PUSH2 0x2144 JUMPI POP SWAP1 PUSH32 0x787A1FCA55641CE34A438271930BBB9401DF20DB2B4F510D4F252227D85DF43D SWAP2 PUSH1 0x19 SLOAD SWAP1 DUP1 PUSH1 0x19 SSTORE DUP3 MLOAD SWAP2 DUP3 MSTORE PUSH1 0x20 DUP3 ADD MSTORE LOG1 DUP1 RETURN JUMPDEST PUSH1 0x64 SWAP1 PUSH1 0x20 DUP5 MLOAD SWAP2 PUSH3 0x461BCD PUSH1 0xE5 SHL DUP4 MSTORE DUP3 ADD MSTORE PUSH1 0x1A PUSH1 0x24 DUP3 ADD MSTORE PUSH32 0x415059206D7573742062652067726561746572207468616E2030000000000000 PUSH1 0x44 DUP3 ADD MSTORE REVERT JUMPDEST POP POP POP CALLVALUE PUSH2 0x66A JUMPI DUP2 PUSH1 0x3 NOT CALLDATASIZE ADD SLT PUSH2 0x66A JUMPI PUSH1 0x20 SWAP1 PUSH1 0x9 SLOAD SWAP1 MLOAD SWAP1 DUP2 MSTORE RETURN JUMPDEST DUP5 CALLVALUE PUSH2 0x749 JUMPI PUSH1 0x20 CALLDATASIZE PUSH1 0x3 NOT ADD SLT PUSH2 0x749 JUMPI PUSH2 0x21C1 PUSH2 0x3E44 JUMP JUMPDEST PUSH1 0x1 PUSH1 0x1 PUSH1 0xA0 SHL SUB SWAP1 PUSH2 0x21F7 CALLER PUSH32 0x0 DUP5 AND EQ PUSH2 0x4204 JUMP JUMPDEST DUP2 PUSH1 0x26 SLOAD SWAP2 AND DUP1 SWAP3 DUP3 AND PUSH32 0x2D025324F0A785E8C12D0A0D91A9CAA49DF4EF20FF87E0DF7213A1D4F3157BEB DUP6 DUP1 LOG3 PUSH1 0x1 PUSH1 0x1 PUSH1 0xA0 SHL SUB NOT AND OR PUSH1 0x26 SSTORE DUP1 RETURN JUMPDEST POP POP CALLVALUE PUSH2 0x46B JUMPI PUSH1 0x20 CALLDATASIZE PUSH1 0x3 NOT ADD SLT PUSH2 0x46B JUMPI PUSH32 0x6E838F2A03741F5F2AFF5480963B672FB0DD8430A4DC75DB9B67CE009733C9FE SWAP2 PUSH1 0xA0 SWAP2 CALLDATALOAD PUSH2 0x22A3 CALLER PUSH32 0x0 PUSH1 0x1 PUSH1 0x1 PUSH1 0xA0 SHL SUB AND EQ PUSH2 0x4204 JUMP JUMPDEST PUSH2 0x22AE DUP2 ISZERO ISZERO PUSH2 0x423D JUMP JUMPDEST PUSH1 0x6 SLOAD SWAP2 DUP2 PUSH1 0x6 SSTORE DUP1 MLOAD SWAP3 PUSH1 0x60 DUP5 MSTORE PUSH1 0x5 PUSH1 0x60 DUP6 ADD MSTORE PUSH5 0x2A27A5A2A7 PUSH1 0xD9 SHL PUSH1 0x80 DUP6 ADD MSTORE PUSH1 0x20 DUP5 ADD MSTORE DUP3 ADD MSTORE LOG1 DUP1 RETURN JUMPDEST POP POP POP CALLVALUE PUSH2 0x66A JUMPI DUP2 PUSH1 0x3 NOT CALLDATASIZE ADD SLT PUSH2 0x66A JUMPI PUSH1 0x20 SWAP1 PUSH1 0x7 SLOAD SWAP1 MLOAD SWAP1 DUP2 MSTORE RETURN JUMPDEST POP POP CALLVALUE PUSH2 0x46B JUMPI PUSH1 0x20 CALLDATASIZE PUSH1 0x3 NOT ADD SLT PUSH2 0x46B JUMPI PUSH32 0x6E838F2A03741F5F2AFF5480963B672FB0DD8430A4DC75DB9B67CE009733C9FE SWAP2 PUSH1 0xA0 SWAP2 CALLDATALOAD PUSH2 0x236B CALLER PUSH32 0x0 PUSH1 0x1 PUSH1 0x1 PUSH1 0xA0 SHL SUB AND EQ PUSH2 0x4204 JUMP JUMPDEST PUSH2 0x2376 DUP2 ISZERO ISZERO PUSH2 0x423D JUMP JUMPDEST PUSH1 0x7 SLOAD SWAP2 DUP2 PUSH1 0x7 SSTORE DUP1 MLOAD SWAP3 PUSH1 0x60 DUP5 MSTORE PUSH1 0xA PUSH1 0x60 DUP6 ADD MSTORE PUSH10 0x29AA20A12622A1A7A4A7 PUSH1 0xB1 SHL PUSH1 0x80 DUP6 ADD MSTORE PUSH1 0x20 DUP5 ADD MSTORE DUP3 ADD MSTORE LOG1 DUP1 RETURN JUMPDEST POP POP SWAP1 CALLVALUE PUSH2 0x46B JUMPI PUSH1 0x20 SWAP1 DUP2 PUSH1 0x3 NOT CALLDATASIZE ADD SLT PUSH2 0x1436 JUMPI DUP3 SWAP2 SWAP3 CALLDATALOAD SWAP3 CALLER DUP6 MSTORE PUSH1 0x10 DUP2 MSTORE PUSH1 0xFF PUSH2 0x23DE DUP2 DUP5 DUP9 KECCAK256 SLOAD AND ISZERO PUSH2 0x43E2 JUMP JUMPDEST DUP5 DUP7 MSTORE PUSH1 0x1C DUP3 MSTORE DUP3 DUP7 KECCAK256 SLOAD PUSH1 0x1 PUSH1 0x1 PUSH1 0xA0 SHL SUB SWAP1 PUSH2 0x23FF SWAP1 DUP3 AND CALLER EQ PUSH2 0x50DE JUMP JUMPDEST DUP7 SWAP5 DUP6 SWAP3 DUP4 DUP1 JUMPDEST CALLER DUP12 MSTORE PUSH1 0x1B DUP1 DUP9 MSTORE DUP9 DUP13 KECCAK256 DUP1 SLOAD DUP4 LT ISZERO PUSH2 0x2673 JUMPI SWAP11 PUSH2 0x2427 DUP4 DUP3 SWAP13 SWAP14 PUSH2 0x3FED JUMP JUMPDEST POP SLOAD EQ PUSH2 0x2440 JUMPI POP PUSH2 0x2438 SWAP1 PUSH2 0x4E01 JUMP JUMPDEST SWAP9 SWAP8 SWAP9 PUSH2 0x2406 JUMP JUMPDEST SWAP6 POP SWAP8 SWAP9 POP POP CALLER DUP10 MSTORE DUP4 DUP6 MSTORE PUSH2 0x2469 PUSH2 0x245B DUP9 DUP9 DUP13 KECCAK256 PUSH2 0x3FED JUMP JUMPDEST POP SWAP2 PUSH1 0x6 DUP1 SWAP4 ADD SLOAD AND PUSH2 0x4E91 JUMP JUMPDEST CALLER DUP10 MSTORE DUP4 DUP6 MSTORE PUSH1 0x2 PUSH2 0x247D DUP9 DUP9 DUP13 KECCAK256 PUSH2 0x3FED JUMP JUMPDEST POP ADD SLOAD CALLER DUP11 MSTORE DUP5 DUP7 MSTORE PUSH1 0x3 PUSH2 0x2494 DUP10 DUP10 DUP14 KECCAK256 PUSH2 0x3FED JUMP JUMPDEST POP ADD SLOAD SWAP1 PUSH3 0x15180 SWAP2 DUP3 DUP2 MUL SWAP3 DUP2 DUP5 DIV EQ SWAP1 ISZERO OR ISZERO PUSH2 0x2660 JUMPI SWAP1 PUSH2 0x24B7 SWAP2 PUSH2 0x4349 JUMP JUMPDEST TIMESTAMP LT PUSH2 0x2626 JUMPI SWAP2 DUP5 SWAP2 PUSH2 0x251A DUP11 PUSH2 0x2560 SWAP6 PUSH2 0x24FC PUSH2 0x24D4 DUP14 PUSH2 0x4ED0 JUMP JUMPDEST SWAP12 CALLER DUP5 MSTORE DUP10 DUP9 MSTORE DUP12 PUSH2 0x24E8 DUP3 DUP3 DUP8 KECCAK256 PUSH2 0x3FED JUMP JUMPDEST POP SWAP5 PUSH1 0x1 DUP1 SWAP7 ADD SLOAD SWAP12 CALLER DUP3 MSTORE DUP11 MSTORE KECCAK256 PUSH2 0x3FED JUMP JUMPDEST POP ADD PUSH1 0xFF NOT DUP2 SLOAD AND SWAP1 SSTORE PUSH1 0x1D PUSH2 0x2513 DUP9 DUP3 SLOAD PUSH2 0x42F3 JUMP JUMPDEST SWAP1 SSTORE PUSH2 0x4E53 JUMP JUMPDEST PUSH2 0x2523 CALLER PUSH2 0x529D JUMP JUMPDEST PUSH2 0x252D DUP9 DUP7 PUSH2 0x4349 JUMP JUMPDEST DUP11 SLOAD DUP9 MLOAD PUSH4 0xA9059CBB PUSH1 0xE0 SHL DUP2 MSTORE CALLER SWAP4 DUP2 ADD SWAP4 DUP5 MSTORE PUSH1 0x20 DUP5 ADD SWAP3 SWAP1 SWAP3 MSTORE SWAP1 SWAP5 DUP6 SWAP4 SWAP1 SWAP2 AND SWAP2 DUP4 SWAP2 DUP13 SWAP2 DUP4 SWAP2 PUSH1 0x40 SWAP1 SWAP2 ADD SWAP1 JUMP JUMPDEST SUB SWAP3 GAS CALL SWAP1 DUP2 ISZERO PUSH2 0x261C JUMPI SWAP1 PUSH2 0x257D SWAP2 DUP9 SWAP2 PUSH2 0x25FF JUMPI JUMPDEST POP PUSH2 0x4DBD JUMP JUMPDEST DUP5 DUP5 ISZERO ISZERO SWAP2 DUP3 PUSH2 0x25EB JUMPI JUMPDEST DUP5 MLOAD SWAP1 DUP2 MSTORE PUSH32 0x7FC4727E062E336010F2C282598EF5F14FACB3DE68CF8195C2F23E1454B2B74E DUP5 CALLER SWAP3 LOG3 PUSH2 0x25BA JUMPI DUP5 DUP1 RETURN JUMPDEST PUSH32 0xF87CFA2D5FEAEA949AD65BB76A26D8553381BCB6382ADBC83DEDD48961BF32D9 SWAP2 MLOAD SWAP3 DUP4 MSTORE CALLER SWAP3 LOG3 CODESIZE DUP1 DUP1 DUP1 DUP5 DUP1 RETURN JUMPDEST PUSH2 0x25F7 DUP7 PUSH1 0x1E SLOAD PUSH2 0x4349 JUMP JUMPDEST PUSH1 0x1E SSTORE PUSH2 0x2588 JUMP JUMPDEST PUSH2 0x2616 SWAP2 POP DUP5 RETURNDATASIZE DUP7 GT PUSH2 0x627 JUMPI PUSH2 0x619 DUP2 DUP4 PUSH2 0x40DF JUMP JUMPDEST CODESIZE PUSH2 0x2577 JUMP JUMPDEST DUP5 MLOAD RETURNDATASIZE DUP10 DUP3 RETURNDATACOPY RETURNDATASIZE SWAP1 REVERT JUMPDEST DUP6 MLOAD PUSH3 0x461BCD PUSH1 0xE5 SHL DUP2 MSTORE DUP1 DUP4 ADD DUP7 SWAP1 MSTORE PUSH1 0x14 PUSH1 0x24 DUP3 ADD MSTORE PUSH20 0x14DD1A5B1B081A5B881B1BD8DAC81C195C9A5BD9 PUSH1 0x62 SHL PUSH1 0x44 DUP3 ADD MSTORE PUSH1 0x64 SWAP1 REVERT JUMPDEST PUSH4 0x4E487B71 PUSH1 0xE0 SHL DUP12 MSTORE PUSH1 0x11 DUP5 MSTORE PUSH1 0x24 DUP12 REVERT JUMPDEST POP POP POP PUSH2 0x2560 SWAP4 SWAP2 POP SWAP2 PUSH2 0x251A DUP7 SWAP4 PUSH2 0x4E53 JUMP JUMPDEST POP POP DUP3 PUSH1 0x3 NOT CALLDATASIZE ADD SLT PUSH2 0x46B JUMPI CALLER DUP4 MSTORE PUSH1 0x20 PUSH1 0x10 DUP2 MSTORE PUSH2 0x26AD PUSH1 0xFF DUP5 DUP7 KECCAK256 SLOAD AND ISZERO PUSH2 0x43E2 JUMP JUMPDEST CALLVALUE ISZERO SWAP1 PUSH2 0x26BA DUP3 ISZERO PUSH2 0x445E JUMP JUMPDEST PUSH1 0x1 SLOAD PUSH1 0x1 PUSH1 0x1 PUSH1 0xA0 SHL SUB SWAP3 SWAP1 DUP4 AND SWAP1 PUSH2 0x26D5 DUP3 ISZERO ISZERO PUSH2 0x45D4 JUMP JUMPDEST PUSH3 0xF4240 SWAP1 DUP2 CALLVALUE MUL SWAP2 CALLVALUE DUP4 DIV EQ OR ISZERO PUSH2 0x1B00 JUMPI PUSH1 0x7 SLOAD PUSH2 0x26F4 SWAP2 PUSH2 0x4316 JUMP JUMPDEST SWAP4 DUP6 MLOAD PUSH4 0x70A08231 PUSH1 0xE0 SHL DUP2 MSTORE ADDRESS DUP3 DUP3 ADD MSTORE DUP4 DUP2 PUSH1 0x24 DUP2 DUP7 GAS STATICCALL DUP1 ISZERO PUSH2 0x2887 JUMPI DUP7 SWAP2 DUP10 SWAP2 PUSH2 0x2856 JUMPI JUMPDEST POP LT PUSH2 0x2813 JUMPI DUP6 MLOAD PUSH4 0xA9059CBB PUSH1 0xE0 SHL DUP2 MSTORE CALLER SWAP2 DUP2 ADD SWAP2 DUP3 MSTORE PUSH1 0x20 DUP3 ADD DUP7 SWAP1 MSTORE SWAP4 SWAP3 SWAP2 DUP3 SWAP2 DUP6 SWAP2 SWAP1 DUP3 SWAP1 DUP11 SWAP1 DUP3 SWAP1 PUSH1 0x40 ADD SUB SWAP3 GAS CALL DUP1 ISZERO PUSH2 0x62E JUMPI PUSH32 0x48A1F8A6C840B32621CEAB4439A2CCD00B337E705DFDCDEC0B40C49ABF3E6BE3 SWAP4 PUSH2 0x278C SWAP3 DUP9 SWAP3 PUSH2 0x27F6 JUMPI JUMPDEST POP POP PUSH2 0x462E JUMP JUMPDEST PUSH2 0x27C1 DUP6 DUP1 DUP1 DUP1 CALLVALUE DUP7 PUSH32 0x0 AND GAS CALL PUSH2 0x1D73 PUSH2 0x44F7 JUMP JUMPDEST PUSH2 0x27D2 DUP2 PUSH1 0x1 SLOAD AND DUP5 PUSH2 0x1D85 PUSH2 0x4D9D JUMP JUMPDEST PUSH1 0x1 SLOAD SWAP4 MLOAD SWAP3 DUP4 MSTORE CALLVALUE PUSH1 0x20 DUP5 ADD MSTORE TIMESTAMP PUSH1 0x40 DUP5 ADD MSTORE SWAP1 SWAP3 AND SWAP2 CALLER SWAP2 DUP1 PUSH1 0x60 DUP2 ADD PUSH2 0x5FA JUMP JUMPDEST PUSH2 0x280C SWAP3 POP DUP1 RETURNDATASIZE LT PUSH2 0x627 JUMPI PUSH2 0x619 DUP2 DUP4 PUSH2 0x40DF JUMP JUMPDEST CODESIZE DUP1 PUSH2 0x2785 JUMP JUMPDEST DUP6 MLOAD PUSH3 0x461BCD PUSH1 0xE5 SHL DUP2 MSTORE SWAP1 DUP2 ADD DUP4 SWAP1 MSTORE PUSH1 0x1B PUSH1 0x24 DUP3 ADD MSTORE PUSH32 0x496E73756666696369656E742055534454206C69717569646974790000000000 PUSH1 0x44 DUP3 ADD MSTORE PUSH1 0x64 SWAP1 REVERT JUMPDEST DUP1 SWAP3 POP DUP6 DUP1 SWAP3 POP RETURNDATASIZE DUP4 GT PUSH2 0x2880 JUMPI JUMPDEST PUSH2 0x286F DUP2 DUP4 PUSH2 0x40DF JUMP JUMPDEST DUP2 ADD SUB SLT PUSH2 0x1F04 JUMPI DUP6 SWAP1 MLOAD CODESIZE PUSH2 0x271D JUMP JUMPDEST POP RETURNDATASIZE PUSH2 0x2865 JUMP JUMPDEST DUP8 MLOAD RETURNDATASIZE DUP11 DUP3 RETURNDATACOPY RETURNDATASIZE SWAP1 REVERT JUMPDEST POP POP POP CALLVALUE PUSH2 0x66A JUMPI PUSH1 0x20 DUP1 PUSH1 0x3 NOT CALLDATASIZE ADD SLT PUSH2 0x46B JUMPI PUSH1 0x1 PUSH1 0x1 PUSH1 0xA0 SHL SUB SWAP3 DUP4 PUSH2 0x28B8 PUSH2 0x3E44 JUMP JUMPDEST AND DUP2 MSTORE PUSH1 0x24 DUP3 MSTORE DUP3 DUP2 KECCAK256 SWAP2 DUP4 MLOAD SWAP1 DUP2 DUP2 DUP6 SLOAD SWAP2 DUP3 DUP2 MSTORE ADD SWAP1 DUP2 SWAP6 DUP6 MSTORE DUP3 DUP6 KECCAK256 SWAP1 DUP6 JUMPDEST DUP2 DUP2 LT PUSH2 0x2926 JUMPI POP POP POP DUP3 PUSH2 0x28F0 SWAP2 SUB DUP4 PUSH2 0x40DF JUMP JUMPDEST DUP5 MLOAD SWAP5 DUP2 DUP7 ADD SWAP3 DUP3 DUP8 MSTORE MLOAD DUP1 SWAP4 MSTORE DUP6 ADD SWAP4 SWAP3 JUMPDEST DUP3 DUP2 LT PUSH2 0x2910 JUMPI DUP6 DUP6 SUB DUP7 RETURN JUMPDEST DUP4 MLOAD DUP8 AND DUP6 MSTORE SWAP4 DUP2 ADD SWAP4 SWAP3 DUP2 ADD SWAP3 PUSH1 0x1 ADD PUSH2 0x2903 JUMP JUMPDEST DUP3 SLOAD DUP11 AND DUP5 MSTORE SWAP3 DUP5 ADD SWAP3 PUSH1 0x1 SWAP3 DUP4 ADD SWAP3 ADD PUSH2 0x28DA JUMP JUMPDEST POP POP CALLVALUE PUSH2 0x46B JUMPI PUSH1 0x20 SWAP1 DUP2 PUSH1 0x3 NOT CALLDATASIZE ADD SLT PUSH2 0x1436 JUMPI DUP1 CALLDATALOAD SWAP2 CALLER DUP6 MSTORE PUSH1 0x10 DUP2 MSTORE PUSH1 0xFF SWAP4 PUSH2 0x296D DUP6 DUP3 DUP9 KECCAK256 SLOAD AND ISZERO PUSH2 0x43E2 JUMP JUMPDEST DUP4 DUP7 MSTORE PUSH1 0x1C DUP3 MSTORE DUP1 DUP7 KECCAK256 SLOAD PUSH1 0x1 PUSH1 0x1 PUSH1 0xA0 SHL SUB SWAP4 SWAP1 PUSH2 0x298F SWAP1 DUP6 AND CALLER EQ PUSH2 0x50DE JUMP JUMPDEST DUP7 SWAP4 DUP8 JUMPDEST CALLER DUP10 MSTORE PUSH1 0x1B DUP1 DUP7 MSTORE DUP5 DUP11 KECCAK256 DUP1 SLOAD DUP4 LT ISZERO PUSH2 0x2B58 JUMPI PUSH2 0x29B2 DUP4 DUP11 SWAP3 PUSH2 0x3FED JUMP JUMPDEST POP SLOAD EQ PUSH2 0x29C8 JUMPI POP PUSH2 0x29C3 SWAP1 PUSH2 0x4E01 JUMP JUMPDEST PUSH2 0x2993 JUMP JUMPDEST SWAP7 SWAP8 PUSH2 0x29F1 SWAP2 SWAP3 SWAP4 SWAP5 SWAP6 SWAP7 POP CALLER DUP11 MSTORE DUP8 DUP8 MSTORE PUSH1 0x6 PUSH2 0x29E8 DUP5 DUP9 DUP14 KECCAK256 PUSH2 0x3FED JUMP JUMPDEST POP ADD SLOAD AND PUSH2 0x4E91 JUMP JUMPDEST PUSH2 0x29FA DUP8 PUSH2 0x4ED0 JUMP JUMPDEST SWAP6 DUP7 ISZERO PUSH2 0x2B1D JUMPI SWAP1 PUSH2 0x2A2B SWAP2 CALLER DUP11 MSTORE DUP1 DUP8 MSTORE DUP10 PUSH1 0x5 PUSH2 0x2A1B DUP5 DUP10 DUP5 KECCAK256 PUSH2 0x3FED JUMP JUMPDEST POP ADD SSTORE CALLER DUP11 MSTORE DUP7 MSTORE DUP5 DUP10 KECCAK256 PUSH2 0x3FED JUMP JUMPDEST POP TIMESTAMP SWAP1 DUP4 ADD SSTORE DUP7 SLOAD DUP4 MLOAD PUSH4 0xA9059CBB PUSH1 0xE0 SHL DUP2 MSTORE CALLER DUP2 DUP6 ADD SWAP1 DUP2 MSTORE PUSH1 0x20 DUP2 ADD DUP9 SWAP1 MSTORE SWAP1 SWAP3 DUP7 SWAP3 DUP5 SWAP3 DUP4 SWAP1 SUB PUSH1 0x40 ADD SWAP2 DUP4 SWAP2 DUP13 SWAP2 AND GAS CALL SWAP1 DUP2 ISZERO PUSH2 0x2B13 JUMPI DUP8 SWAP2 PUSH2 0x2AF6 JUMPI JUMPDEST POP ISZERO PUSH2 0x2ABC JUMPI POP SWAP1 PUSH32 0xF87CFA2D5FEAEA949AD65BB76A26D8553381BCB6382ADBC83DEDD48961BF32D9 SWAP2 PUSH1 0x1E PUSH2 0x2AA6 DUP6 DUP3 SLOAD PUSH2 0x4349 JUMP JUMPDEST SWAP1 SSTORE MLOAD SWAP3 DUP4 MSTORE CALLER SWAP3 LOG3 PUSH2 0x2AB9 PUSH1 0x1 PUSH2 0x4E53 JUMP JUMPDEST DUP1 RETURN JUMPDEST DUP3 PUSH1 0x64 SWAP3 MLOAD SWAP2 PUSH3 0x461BCD PUSH1 0xE5 SHL DUP4 MSTORE DUP3 ADD MSTORE PUSH1 0x16 PUSH1 0x24 DUP3 ADD MSTORE PUSH22 0x14995DD85C99081D1C985B9CD9995C8819985A5B1959 PUSH1 0x52 SHL PUSH1 0x44 DUP3 ADD MSTORE REVERT JUMPDEST PUSH2 0x2B0D SWAP2 POP DUP5 RETURNDATASIZE DUP7 GT PUSH2 0x627 JUMPI PUSH2 0x619 DUP2 DUP4 PUSH2 0x40DF JUMP JUMPDEST CODESIZE PUSH2 0x2A6F JUMP JUMPDEST DUP4 MLOAD RETURNDATASIZE DUP10 DUP3 RETURNDATACOPY RETURNDATASIZE SWAP1 REVERT JUMPDEST DUP5 MLOAD PUSH3 0x461BCD PUSH1 0xE5 SHL DUP2 MSTORE DUP1 DUP6 ADD DUP8 SWAP1 MSTORE PUSH1 0x15 PUSH1 0x24 DUP3 ADD MSTORE PUSH21 0x139BC81C995DD85C991CC81D1BC81A185C9D995CDD PUSH1 0x5A SHL PUSH1 0x44 DUP3 ADD MSTORE PUSH1 0x64 SWAP1 REVERT JUMPDEST POP POP POP POP POP POP POP SWAP1 POP PUSH2 0x2AB9 SWAP2 POP PUSH2 0x4E53 JUMP JUMPDEST POP POP POP CALLVALUE PUSH2 0x66A JUMPI PUSH1 0x20 CALLDATASIZE PUSH1 0x3 NOT ADD SLT PUSH2 0x66A JUMPI PUSH1 0x20 SWAP2 DUP2 SWAP1 PUSH1 0x1 PUSH1 0x1 PUSH1 0xA0 SHL SUB PUSH2 0x2B94 PUSH2 0x3E44 JUMP JUMPDEST AND DUP2 MSTORE PUSH1 0x25 DUP5 MSTORE KECCAK256 SLOAD SWAP1 MLOAD SWAP1 DUP2 MSTORE RETURN JUMPDEST DUP5 DUP4 CALLVALUE PUSH2 0x66A JUMPI PUSH1 0x20 CALLDATASIZE PUSH1 0x3 NOT ADD SLT PUSH2 0x66A JUMPI PUSH2 0x2BEB CALLER PUSH32 0x0 PUSH1 0x1 PUSH1 0x1 PUSH1 0xA0 SHL SUB AND EQ PUSH2 0x4204 JUMP JUMPDEST CALLDATALOAD PUSH1 0x11 SSTORE DUP1 RETURN JUMPDEST POP POP POP CALLVALUE PUSH2 0x66A JUMPI DUP2 PUSH1 0x3 NOT CALLDATASIZE ADD SLT PUSH2 0x66A JUMPI PUSH1 0x20 SWAP1 PUSH1 0xE SLOAD SWAP1 MLOAD SWAP1 DUP2 MSTORE RETURN JUMPDEST POP POP POP CALLVALUE PUSH2 0x66A JUMPI PUSH1 0x20 CALLDATASIZE PUSH1 0x3 NOT ADD SLT PUSH2 0x66A JUMPI PUSH1 0x20 SWAP2 PUSH1 0xFF SWAP1 DUP3 SWAP1 PUSH1 0x1 PUSH1 0x1 PUSH1 0xA0 SHL SUB PUSH2 0x2C3E PUSH2 0x3E44 JUMP JUMPDEST AND DUP2 MSTORE PUSH1 0x10 DUP6 MSTORE KECCAK256 SLOAD AND SWAP1 MLOAD SWAP1 ISZERO ISZERO DUP2 MSTORE RETURN JUMPDEST POP POP CALLVALUE PUSH2 0x46B JUMPI PUSH1 0x20 CALLDATASIZE PUSH1 0x3 NOT ADD SLT PUSH2 0x46B JUMPI DUP1 CALLDATALOAD SWAP1 PUSH2 0x2C9B CALLER PUSH32 0x0 PUSH1 0x1 PUSH1 0x1 PUSH1 0xA0 SHL SUB AND EQ PUSH2 0x4204 JUMP JUMPDEST PUSH1 0x14 DUP3 GT PUSH2 0x2CDD JUMPI POP SWAP1 PUSH32 0xD968A3CC702265C3AB67356DF15CA21D50167B011F198B963E2A868E04E3D5E0 SWAP2 PUSH1 0x22 SLOAD SWAP1 DUP1 PUSH1 0x22 SSTORE DUP3 MLOAD SWAP2 DUP3 MSTORE PUSH1 0x20 DUP3 ADD MSTORE LOG1 DUP1 RETURN JUMPDEST PUSH1 0x64 SWAP1 PUSH1 0x20 DUP5 MLOAD SWAP2 PUSH3 0x461BCD PUSH1 0xE5 SHL DUP4 MSTORE DUP3 ADD MSTORE PUSH1 0x13 PUSH1 0x24 DUP3 ADD MSTORE PUSH19 0xA0CAE4C6CADCE8C2CECA40E8DEDE40D0D2CED PUSH1 0x6B SHL PUSH1 0x44 DUP3 ADD MSTORE REVERT JUMPDEST POP POP POP CALLVALUE PUSH2 0x66A JUMPI PUSH1 0x20 CALLDATASIZE PUSH1 0x3 NOT ADD SLT PUSH2 0x66A JUMPI PUSH1 0x20 SWAP2 PUSH1 0x1 PUSH1 0x1 PUSH1 0xA0 SHL SUB SWAP1 DUP3 SWAP1 DUP3 PUSH2 0x2D41 PUSH2 0x3E44 JUMP JUMPDEST AND DUP2 MSTORE PUSH1 0x23 DUP6 MSTORE KECCAK256 SLOAD AND SWAP1 MLOAD SWAP1 DUP2 MSTORE RETURN JUMPDEST POP POP POP CALLVALUE PUSH2 0x66A JUMPI DUP2 PUSH1 0x3 NOT CALLDATASIZE ADD SLT PUSH2 0x66A JUMPI PUSH1 0x20 SWAP1 PUSH1 0x18 SLOAD SWAP1 MLOAD SWAP1 DUP2 MSTORE RETURN JUMPDEST POP POP POP CALLVALUE PUSH2 0x66A JUMPI DUP2 PUSH1 0x3 NOT CALLDATASIZE ADD SLT PUSH2 0x66A JUMPI PUSH1 0x20 SWAP1 PUSH1 0xF SLOAD SWAP1 MLOAD SWAP1 DUP2 MSTORE RETURN JUMPDEST POP POP POP CALLVALUE PUSH2 0x66A JUMPI PUSH2 0x2AB9 SWAP1 PUSH2 0x2DA7 CALLDATASIZE PUSH2 0x3ECB JUMP JUMPDEST SWAP2 SWAP1 PUSH1 0x1 PUSH1 0x1 PUSH1 0xA0 SHL SUB SWAP1 PUSH2 0x2DDF CALLER PUSH32 0x0 DUP5 AND EQ PUSH2 0x4204 JUMP JUMPDEST AND DUP5 MSTORE PUSH1 0x15 PUSH1 0x20 MSTORE DUP4 KECCAK256 SWAP1 PUSH1 0xFF DUP1 NOT DUP4 SLOAD AND SWAP2 ISZERO ISZERO AND OR SWAP1 SSTORE JUMP JUMPDEST POP POP POP CALLVALUE PUSH2 0x66A JUMPI DUP2 PUSH1 0x3 NOT CALLDATASIZE ADD SLT PUSH2 0x66A JUMPI PUSH1 0x3 SLOAD SWAP1 MLOAD PUSH1 0x1 PUSH1 0x1 PUSH1 0xA0 SHL SUB SWAP1 SWAP2 AND DUP2 MSTORE PUSH1 0x20 SWAP1 RETURN JUMPDEST POP POP POP CALLVALUE PUSH2 0x66A JUMPI PUSH1 0x20 CALLDATASIZE PUSH1 0x3 NOT ADD SLT PUSH2 0x66A JUMPI PUSH1 0x20 SWAP2 DUP2 SWAP1 PUSH1 0x1 PUSH1 0x1 PUSH1 0xA0 SHL SUB PUSH2 0x2E4D PUSH2 0x3E44 JUMP JUMPDEST AND DUP2 MSTORE PUSH1 0x28 DUP5 MSTORE KECCAK256 SLOAD SWAP1 MLOAD SWAP1 DUP2 MSTORE RETURN JUMPDEST POP POP POP CALLVALUE PUSH2 0x66A JUMPI CALLDATASIZE PUSH1 0x3 NOT ADD SLT PUSH2 0x749 JUMPI PUSH2 0x2E77 PUSH2 0x3E44 JUMP JUMPDEST PUSH1 0x24 CALLDATALOAD SWAP1 PUSH1 0x1 PUSH1 0x1 PUSH1 0xA0 SHL SUB SWAP1 PUSH2 0x2EB1 CALLER PUSH32 0x0 DUP5 AND EQ PUSH2 0x4204 JUMP JUMPDEST AND PUSH2 0x2EBD DUP2 ISZERO ISZERO PUSH2 0x4279 JUMP JUMPDEST PUSH2 0x2EC8 DUP3 ISZERO ISZERO PUSH2 0x42B7 JUMP JUMPDEST PUSH1 0x1 PUSH1 0x1 PUSH1 0x60 SHL SUB PUSH1 0xA0 SHL PUSH1 0x3 SLOAD AND OR PUSH1 0x3 SSTORE PUSH1 0xB SSTORE DUP1 RETURN JUMPDEST DUP3 DUP6 DUP6 CALLVALUE PUSH2 0x66A JUMPI DUP1 PUSH1 0x3 NOT CALLDATASIZE ADD SLT PUSH2 0x66A JUMPI DUP3 CALLDATALOAD PUSH1 0x24 CALLDATALOAD SWAP2 CALLER DUP5 MSTORE PUSH1 0x20 SWAP3 PUSH1 0x10 DUP5 MSTORE PUSH2 0x2F14 PUSH1 0xFF DUP4 DUP8 KECCAK256 SLOAD AND ISZERO PUSH2 0x43E2 JUMP JUMPDEST PUSH1 0x1A SLOAD DUP4 LT PUSH2 0x3188 JUMPI DUP5 SLOAD PUSH1 0x1 PUSH1 0x1 PUSH1 0xA0 SHL SUB AND PUSH2 0x2F33 DUP2 ISZERO ISZERO PUSH2 0x449A JUMP JUMPDEST PUSH1 0x1E DUP3 EQ DUP1 ISZERO PUSH2 0x317E JUMPI JUMPDEST DUP1 ISZERO PUSH2 0x3174 JUMPI JUMPDEST DUP1 ISZERO PUSH2 0x3169 JUMPI JUMPDEST ISZERO PUSH2 0x3130 JUMPI DUP3 MLOAD PUSH4 0x23B872DD PUSH1 0xE0 SHL DUP2 MSTORE CALLER DUP2 DUP10 ADD SWAP1 DUP2 MSTORE ADDRESS PUSH1 0x20 DUP3 ADD MSTORE PUSH1 0x40 DUP2 ADD DUP7 SWAP1 MSTORE SWAP1 SWAP2 DUP7 SWAP2 DUP4 SWAP2 SWAP1 DUP3 SWAP1 DUP11 SWAP1 DUP3 SWAP1 PUSH1 0x60 ADD SUB SWAP3 GAS CALL SWAP1 DUP2 ISZERO PUSH2 0x2012 JUMPI SWAP1 PUSH2 0x2F9D SWAP2 DUP8 SWAP2 PUSH2 0x3113 JUMPI POP PUSH2 0x4DBD JUMP JUMPDEST DUP4 SLOAD SWAP4 PUSH2 0x2FA9 DUP6 PUSH2 0x4E01 JUMP JUMPDEST DUP2 SSTORE DUP3 MLOAD PUSH2 0x2FB6 DUP2 PUSH2 0x4059 JUMP JUMPDEST DUP6 DUP2 MSTORE DUP2 DUP2 ADD DUP6 DUP2 MSTORE DUP5 DUP3 ADD TIMESTAMP DUP2 MSTORE PUSH1 0x60 DUP4 ADD DUP6 DUP2 MSTORE PUSH1 0x80 DUP5 ADD SWAP1 TIMESTAMP DUP3 MSTORE PUSH1 0xA0 DUP6 ADD SWAP3 DUP12 DUP5 MSTORE PUSH1 0xC0 DUP7 ADD SWAP5 PUSH1 0x1 DUP7 MSTORE CALLER DUP14 MSTORE PUSH1 0x1B DUP9 MSTORE DUP10 DUP14 KECCAK256 DUP1 SLOAD SWAP1 PUSH1 0x1 PUSH1 0x40 SHL DUP3 LT ISZERO PUSH2 0x30FF JUMPI SWAP1 PUSH2 0x300E SWAP2 PUSH1 0x1 DUP3 ADD DUP2 SSTORE PUSH2 0x3FED JUMP JUMPDEST SWAP8 SWAP1 SWAP8 PUSH2 0x30ED JUMPI SWAP3 PUSH32 0xB4CAAF29ADDA3EEFEE3AD552A8E85058589BF834C7466CAE4EE58787F70589ED SWAP12 SWAP13 SWAP14 SWAP15 SWAP3 PUSH2 0x307D SWAP9 SWAP8 SWAP6 SWAP3 PUSH1 0x6 SWAP8 SWAP6 MLOAD DUP10 SSTORE MLOAD PUSH1 0x1 DUP10 ADD SSTORE MLOAD PUSH1 0x2 DUP9 ADD SSTORE MLOAD PUSH1 0x3 DUP8 ADD SSTORE MLOAD SWAP1 DUP6 ADD SSTORE MLOAD PUSH1 0x5 DUP5 ADD SSTORE MLOAD ISZERO ISZERO SWAP2 ADD SWAP1 PUSH1 0xFF DUP1 NOT DUP4 SLOAD AND SWAP2 ISZERO ISZERO AND OR SWAP1 SSTORE JUMP JUMPDEST DUP6 DUP8 MSTORE PUSH1 0x1C DUP2 MSTORE DUP3 DUP8 KECCAK256 CALLER PUSH1 0x1 PUSH1 0x1 PUSH1 0x60 SHL SUB PUSH1 0xA0 SHL DUP3 SLOAD AND OR SWAP1 SSTORE PUSH2 0x30A5 DUP6 PUSH1 0x1D SLOAD PUSH2 0x4349 JUMP JUMPDEST PUSH1 0x1D SSTORE CALLER DUP8 MSTORE PUSH1 0x21 DUP2 MSTORE DUP3 DUP8 KECCAK256 DUP1 SLOAD PUSH1 0xFF DUP2 AND ISZERO PUSH2 0x30CE JUMPI JUMPDEST POP POP DUP3 MLOAD SWAP5 DUP6 MSTORE DUP5 ADD MSTORE CALLER SWAP3 LOG3 DUP1 RETURN JUMPDEST PUSH1 0xFF NOT AND PUSH1 0x1 OR SWAP1 SSTORE PUSH1 0x1F SLOAD PUSH2 0x30E3 SWAP1 PUSH2 0x4E01 JUMP JUMPDEST PUSH1 0x1F SSTORE DUP8 DUP1 PUSH2 0x30BE JUMP JUMPDEST PUSH4 0x4E487B71 PUSH1 0xE0 SHL DUP15 MSTORE DUP14 DUP16 MSTORE PUSH1 0x24 DUP15 REVERT JUMPDEST DUP16 DUP16 PUSH1 0x41 PUSH1 0x24 SWAP3 PUSH4 0x4E487B71 PUSH1 0xE0 SHL DUP4 MSTORE MSTORE REVERT JUMPDEST PUSH2 0x312A SWAP2 POP DUP7 RETURNDATASIZE DUP9 GT PUSH2 0x627 JUMPI PUSH2 0x619 DUP2 DUP4 PUSH2 0x40DF JUMP JUMPDEST DUP9 PUSH2 0x2577 JUMP JUMPDEST DUP3 MLOAD PUSH3 0x461BCD PUSH1 0xE5 SHL DUP2 MSTORE DUP1 DUP9 ADD DUP7 SWAP1 MSTORE PUSH1 0x13 PUSH1 0x24 DUP3 ADD MSTORE PUSH19 0x125B9D985B1A59081B1BD8DAC81C195C9A5BD9 PUSH1 0x6A SHL PUSH1 0x44 DUP3 ADD MSTORE PUSH1 0x64 SWAP1 REVERT JUMPDEST POP PUSH2 0x16D DUP3 EQ PUSH2 0x2F4C JUMP JUMPDEST POP PUSH1 0xB4 DUP3 EQ PUSH2 0x2F45 JUMP JUMPDEST POP PUSH1 0x5A DUP3 EQ PUSH2 0x2F3E JUMP JUMPDEST DUP2 MLOAD PUSH3 0x461BCD PUSH1 0xE5 SHL DUP2 MSTORE DUP1 DUP8 ADD DUP6 SWAP1 MSTORE PUSH1 0x1A PUSH1 0x24 DUP3 ADD MSTORE PUSH32 0x416D6F756E742062656C6F77206D696E696D756D207374616B65000000000000 PUSH1 0x44 DUP3 ADD MSTORE PUSH1 0x64 SWAP1 REVERT JUMPDEST POP POP SWAP1 CALLVALUE PUSH2 0x46B JUMPI CALLDATASIZE PUSH1 0x3 NOT ADD SLT PUSH2 0x66A JUMPI PUSH2 0x31E5 PUSH2 0x3E44 JUMP JUMPDEST PUSH1 0x24 CALLDATALOAD SWAP2 SWAP1 PUSH1 0x1 PUSH1 0x1 PUSH1 0xA0 SHL SUB SWAP1 PUSH2 0x3220 CALLER PUSH32 0x0 DUP5 AND EQ PUSH2 0x4204 JUMP JUMPDEST AND PUSH2 0x322C DUP2 ISZERO ISZERO PUSH2 0x4279 JUMP JUMPDEST PUSH2 0x3237 DUP4 ISZERO ISZERO PUSH2 0x42B7 JUMP JUMPDEST DUP2 SLOAD PUSH1 0x1 PUSH1 0x1 PUSH1 0xA0 SHL SUB NOT AND OR SWAP1 SSTORE PUSH1 0xC SSTORE DUP1 RETURN JUMPDEST POP POP CALLVALUE PUSH2 0x46B JUMPI PUSH2 0x158A SWAP1 PUSH2 0x1090 CALLDATASIZE PUSH2 0x3E8D JUMP JUMPDEST POP POP POP CALLVALUE PUSH2 0x66A JUMPI DUP2 PUSH1 0x3 NOT CALLDATASIZE ADD SLT PUSH2 0x66A JUMPI PUSH1 0x20 SWAP1 PUSH1 0x27 SLOAD SWAP1 MLOAD SWAP1 DUP2 MSTORE RETURN JUMPDEST POP POP SWAP2 CALLVALUE PUSH2 0x749 JUMPI PUSH1 0x20 SWAP3 DUP4 PUSH1 0x3 NOT CALLDATASIZE ADD SLT PUSH2 0x66A JUMPI DUP1 CALLDATALOAD SWAP1 CALLER DUP4 MSTORE PUSH1 0x10 DUP6 MSTORE PUSH1 0xFF SWAP2 PUSH2 0x32B2 DUP4 DUP7 DUP7 KECCAK256 SLOAD AND ISZERO PUSH2 0x43E2 JUMP JUMPDEST DUP1 DUP5 MSTORE PUSH1 0x1C DUP7 MSTORE DUP5 DUP5 KECCAK256 SLOAD PUSH1 0x1 PUSH1 0x1 PUSH1 0xA0 SHL SUB SWAP7 SWAP1 PUSH2 0x32D4 SWAP1 DUP9 AND CALLER EQ PUSH2 0x50DE JUMP JUMPDEST DUP5 SWAP6 DUP6 JUMPDEST CALLER DUP8 MSTORE PUSH1 0x1B DUP1 DUP5 MSTORE DUP3 DUP9 KECCAK256 DUP1 SLOAD DUP4 LT ISZERO PUSH2 0x359C JUMPI PUSH2 0x32F7 DUP4 DUP8 SWAP3 PUSH2 0x3FED JUMP JUMPDEST POP SLOAD EQ PUSH2 0x330D JUMPI POP PUSH2 0x3308 SWAP1 PUSH2 0x4E01 JUMP JUMPDEST PUSH2 0x32D8 JUMP JUMPDEST SWAP2 SWAP3 SWAP4 SWAP5 SWAP6 SWAP7 SWAP8 POP CALLER DUP9 MSTORE DUP2 DUP5 MSTORE PUSH2 0x3338 PUSH2 0x332A DUP3 DUP6 DUP12 KECCAK256 PUSH2 0x3FED JUMP JUMPDEST POP SWAP8 PUSH1 0x6 DUP1 SWAP10 ADD SLOAD AND PUSH2 0x4E91 JUMP JUMPDEST CALLER DUP9 MSTORE DUP2 DUP5 MSTORE PUSH1 0x2 PUSH2 0x334C DUP3 DUP6 DUP12 KECCAK256 PUSH2 0x3FED JUMP JUMPDEST POP ADD SLOAD CALLER DUP10 MSTORE DUP3 DUP6 MSTORE PUSH1 0x3 PUSH2 0x3363 DUP4 DUP7 DUP13 KECCAK256 PUSH2 0x3FED JUMP JUMPDEST POP ADD SLOAD SWAP1 PUSH3 0x15180 SWAP2 DUP3 DUP2 MUL SWAP3 DUP2 DUP5 DIV EQ SWAP1 ISZERO OR ISZERO PUSH2 0x3589 JUMPI SWAP10 PUSH2 0x338E DUP7 SWAP3 DUP12 SWAP13 SWAP12 SWAP9 SWAP10 SWAP11 SWAP12 PUSH2 0x4349 JUMP JUMPDEST SWAP3 PUSH2 0x3398 DUP10 PUSH2 0x4ED0 JUMP JUMPDEST SWAP11 CALLER DUP10 MSTORE DUP6 DUP5 MSTORE PUSH2 0x33AB DUP3 DUP9 DUP12 KECCAK256 PUSH2 0x3FED JUMP JUMPDEST POP SWAP2 DUP8 PUSH1 0x1 DUP1 SWAP5 ADD SLOAD SWAP11 DUP1 SWAP8 TIMESTAMP LT PUSH2 0x352F JUMPI JUMPDEST SWAP1 PUSH2 0x33D4 SWAP3 SWAP2 PUSH2 0x3434 SWAP9 SWAP10 CALLER DUP3 MSTORE DUP9 MSTORE KECCAK256 PUSH2 0x3FED JUMP JUMPDEST POP ADD PUSH1 0xFF NOT DUP2 SLOAD AND SWAP1 SSTORE PUSH1 0x1D PUSH2 0x33EB DUP10 DUP3 SLOAD PUSH2 0x42F3 JUMP JUMPDEST SWAP1 SSTORE SWAP9 PUSH2 0x3401 DUP12 PUSH2 0x33FC DUP8 DUP12 PUSH2 0x42F3 JUMP JUMPDEST PUSH2 0x4349 JUMP JUMPDEST DUP13 SLOAD DUP8 MLOAD PUSH4 0xA9059CBB PUSH1 0xE0 SHL DUP2 MSTORE CALLER SWAP4 DUP2 ADD SWAP4 DUP5 MSTORE PUSH1 0x20 DUP5 ADD SWAP3 SWAP1 SWAP3 MSTORE SWAP1 SWAP5 DUP6 SWAP4 SWAP1 SWAP2 AND SWAP2 DUP4 SWAP2 DUP15 SWAP2 DUP4 SWAP2 PUSH1 0x40 SWAP1 SWAP2 ADD SWAP1 JUMP JUMPDEST SUB SWAP3 GAS CALL SWAP1 DUP2 ISZERO PUSH2 0x3525 JUMPI SWAP8 PUSH2 0x3455 DUP8 SWAP3 PUSH2 0x3495 SWAP11 DUP13 SWAP2 PUSH2 0x350E JUMPI POP PUSH2 0x4DBD JUMP JUMPDEST DUP1 PUSH2 0x34CE JUMPI JUMPDEST POP POP DUP1 ISZERO PUSH2 0x349E JUMPI PUSH32 0x9C9EC3CFA814B0112B71C20D0B0AB54DEAD00A99FD389C174DF717D2F1D36403 SWAP3 DUP3 MLOAD SWAP5 DUP6 MSTORE DUP5 ADD MSTORE CALLER SWAP3 LOG3 PUSH2 0x4E53 JUMP JUMPDEST PUSH2 0x2AB9 CALLER PUSH2 0x529D JUMP JUMPDEST POP SWAP1 PUSH32 0x7FC4727E062E336010F2C282598EF5F14FACB3DE68CF8195C2F23E1454B2B74E SWAP2 MLOAD SWAP3 DUP4 MSTORE CALLER SWAP3 LOG3 PUSH2 0x4E53 JUMP JUMPDEST PUSH1 0x1E PUSH2 0x34DB DUP3 DUP3 SLOAD PUSH2 0x4349 JUMP JUMPDEST SWAP1 SSTORE DUP4 MLOAD SWAP1 DUP2 MSTORE PUSH32 0xF87CFA2D5FEAEA949AD65BB76A26D8553381BCB6382ADBC83DEDD48961BF32D9 DUP6 CALLER SWAP3 LOG3 DUP5 CODESIZE PUSH2 0x345B JUMP JUMPDEST PUSH2 0x2616 SWAP2 POP DUP8 RETURNDATASIZE DUP10 GT PUSH2 0x627 JUMPI PUSH2 0x619 DUP2 DUP4 PUSH2 0x40DF JUMP JUMPDEST DUP4 MLOAD RETURNDATASIZE DUP12 DUP3 RETURNDATACOPY RETURNDATASIZE SWAP1 REVERT JUMPDEST POP POP SWAP2 SWAP4 POP SWAP2 SWAP4 POP PUSH1 0x5 DUP1 DUP10 MUL SWAP1 DUP10 DUP3 DIV EQ DUP10 ISZERO OR ISZERO PUSH2 0x3576 JUMPI SWAP2 PUSH2 0x33D4 DUP9 SWAP5 SWAP3 DUP9 DUP16 PUSH1 0x64 PUSH2 0x3434 SWAP10 SWAP8 DIV SWAP10 PUSH1 0x18 PUSH2 0x3568 DUP13 DUP3 SLOAD PUSH2 0x4349 JUMP JUMPDEST SWAP1 SSTORE SWAP10 SWAP9 POP SWAP1 SWAP2 SWAP3 POP PUSH2 0x33BE JUMP JUMPDEST PUSH4 0x4E487B71 PUSH1 0xE0 SHL DUP14 MSTORE PUSH1 0x11 DUP12 MSTORE PUSH1 0x24 DUP14 REVERT JUMPDEST PUSH4 0x4E487B71 PUSH1 0xE0 SHL DUP11 MSTORE PUSH1 0x11 DUP9 MSTORE PUSH1 0x24 DUP11 REVERT JUMPDEST POP POP POP POP POP POP POP POP SWAP2 POP PUSH2 0x3495 SWAP1 PUSH2 0x4E53 JUMP JUMPDEST POP POP CALLVALUE PUSH2 0x46B JUMPI PUSH2 0xF5E SWAP1 PUSH2 0x1090 CALLDATASIZE PUSH2 0x3E8D JUMP JUMPDEST POP POP DUP3 CALLVALUE PUSH2 0x749 JUMPI DUP1 PUSH1 0x3 NOT CALLDATASIZE ADD SLT PUSH2 0x749 JUMPI SWAP1 PUSH1 0x17 SLOAD SWAP1 PUSH2 0x35E4 DUP3 PUSH2 0x5ACF JUMP JUMPDEST SWAP3 PUSH2 0x35F1 DUP6 MLOAD SWAP5 DUP6 PUSH2 0x40DF JUMP JUMPDEST DUP3 DUP5 MSTORE PUSH1 0x17 DUP2 MSTORE SWAP1 PUSH1 0x20 SWAP1 PUSH32 0xC624B66CC0138B8FABC209247F72D758E1CF3343756D543BADBF24212BED8C15 SWAP1 DUP3 DUP7 ADD JUMPDEST DUP6 DUP6 LT PUSH2 0x3636 JUMPI DUP8 MLOAD DUP1 PUSH2 0x6DD DUP10 DUP3 PUSH2 0x3F3A JUMP JUMPDEST PUSH1 0x7 DUP5 PUSH1 0x1 SWAP3 DUP11 MLOAD PUSH2 0x3647 DUP2 PUSH2 0x4059 JUMP JUMPDEST DUP7 SLOAD DUP2 MSTORE DUP5 DUP1 PUSH1 0xA0 SHL SUB DUP1 DUP7 DUP10 ADD SLOAD AND DUP5 DUP4 ADD MSTORE DUP1 PUSH1 0x2 DUP10 ADD SLOAD AND DUP14 DUP4 ADD MSTORE PUSH1 0x3 DUP9 ADD SLOAD AND PUSH1 0x60 DUP3 ADD MSTORE DUP6 DUP8 ADD SLOAD PUSH1 0x80 DUP3 ADD MSTORE PUSH1 0x5 DUP8 ADD SLOAD PUSH1 0xA0 DUP3 ADD MSTORE PUSH2 0x3690 PUSH1 0x6 DUP9 ADD PUSH2 0x4101 JUMP JUMPDEST PUSH1 0xC0 DUP3 ADD MSTORE DUP2 MSTORE ADD SWAP4 ADD SWAP5 ADD SWAP4 SWAP2 PUSH2 0x3622 JUMP JUMPDEST POP POP DUP3 PUSH1 0x3 NOT CALLDATASIZE ADD SLT PUSH2 0x46B JUMPI CALLER DUP4 MSTORE PUSH1 0x20 PUSH1 0x10 DUP2 MSTORE PUSH2 0x36C9 PUSH1 0xFF DUP5 DUP7 KECCAK256 SLOAD AND ISZERO PUSH2 0x43E2 JUMP JUMPDEST CALLVALUE ISZERO SWAP1 PUSH2 0x36D6 DUP3 ISZERO PUSH2 0x445E JUMP JUMPDEST PUSH1 0x2 SLOAD PUSH1 0x1 PUSH1 0x1 PUSH1 0xA0 SHL SUB SWAP3 SWAP1 DUP4 AND SWAP1 PUSH2 0x36F1 DUP3 ISZERO ISZERO PUSH2 0x4671 JUMP JUMPDEST PUSH3 0xF4240 SWAP1 DUP2 CALLVALUE MUL SWAP2 CALLVALUE DUP4 DIV EQ OR ISZERO PUSH2 0x1B00 JUMPI PUSH1 0x7 SLOAD PUSH2 0x3710 SWAP2 PUSH2 0x4316 JUMP JUMPDEST SWAP4 DUP6 MLOAD PUSH4 0x70A08231 PUSH1 0xE0 SHL DUP2 MSTORE ADDRESS DUP3 DUP3 ADD MSTORE DUP4 DUP2 PUSH1 0x24 DUP2 DUP7 GAS STATICCALL DUP1 ISZERO PUSH2 0x2887 JUMPI DUP7 SWAP2 DUP10 SWAP2 PUSH2 0x3872 JUMPI JUMPDEST POP LT PUSH2 0x382F JUMPI DUP6 MLOAD PUSH4 0xA9059CBB PUSH1 0xE0 SHL DUP2 MSTORE CALLER SWAP2 DUP2 ADD SWAP2 DUP3 MSTORE PUSH1 0x20 DUP3 ADD DUP7 SWAP1 MSTORE SWAP4 SWAP3 SWAP2 DUP3 SWAP2 DUP6 SWAP2 SWAP1 DUP3 SWAP1 DUP11 SWAP1 DUP3 SWAP1 PUSH1 0x40 ADD SUB SWAP3 GAS CALL DUP1 ISZERO PUSH2 0x62E JUMPI PUSH32 0x48A1F8A6C840B32621CEAB4439A2CCD00B337E705DFDCDEC0B40C49ABF3E6BE3 SWAP4 PUSH2 0x37A8 SWAP3 DUP9 SWAP3 PUSH2 0x3812 JUMPI JUMPDEST POP POP PUSH2 0x46B3 JUMP JUMPDEST PUSH2 0x37DD DUP6 DUP1 DUP1 DUP1 CALLVALUE DUP7 PUSH32 0x0 AND GAS CALL PUSH2 0x1D73 PUSH2 0x44F7 JUMP JUMPDEST PUSH2 0x37EE DUP2 PUSH1 0x2 SLOAD AND DUP5 PUSH2 0x1D85 PUSH2 0x4D9D JUMP JUMPDEST PUSH1 0x2 SLOAD SWAP4 MLOAD SWAP3 DUP4 MSTORE CALLVALUE PUSH1 0x20 DUP5 ADD MSTORE TIMESTAMP PUSH1 0x40 DUP5 ADD MSTORE SWAP1 SWAP3 AND SWAP2 CALLER SWAP2 DUP1 PUSH1 0x60 DUP2 ADD PUSH2 0x5FA JUMP JUMPDEST PUSH2 0x3828 SWAP3 POP DUP1 RETURNDATASIZE LT PUSH2 0x627 JUMPI PUSH2 0x619 DUP2 DUP4 PUSH2 0x40DF JUMP JUMPDEST CODESIZE DUP1 PUSH2 0x37A1 JUMP JUMPDEST DUP6 MLOAD PUSH3 0x461BCD PUSH1 0xE5 SHL DUP2 MSTORE SWAP1 DUP2 ADD DUP4 SWAP1 MSTORE PUSH1 0x1B PUSH1 0x24 DUP3 ADD MSTORE PUSH32 0x496E73756666696369656E742055534443206C69717569646974790000000000 PUSH1 0x44 DUP3 ADD MSTORE PUSH1 0x64 SWAP1 REVERT JUMPDEST DUP1 SWAP3 POP DUP6 DUP1 SWAP3 POP RETURNDATASIZE DUP4 GT PUSH2 0x389C JUMPI JUMPDEST PUSH2 0x388B DUP2 DUP4 PUSH2 0x40DF JUMP JUMPDEST DUP2 ADD SUB SLT PUSH2 0x1F04 JUMPI DUP6 SWAP1 MLOAD CODESIZE PUSH2 0x3739 JUMP JUMPDEST POP RETURNDATASIZE PUSH2 0x3881 JUMP JUMPDEST POP POP POP CALLVALUE PUSH2 0x66A JUMPI DUP2 PUSH1 0x3 NOT CALLDATASIZE ADD SLT PUSH2 0x66A JUMPI PUSH1 0x26 SLOAD SWAP1 MLOAD PUSH1 0x1 PUSH1 0x1 PUSH1 0xA0 SHL SUB SWAP1 SWAP2 AND DUP2 MSTORE PUSH1 0x20 SWAP1 RETURN JUMPDEST POP POP POP CALLVALUE PUSH2 0x66A JUMPI PUSH1 0x20 CALLDATASIZE PUSH1 0x3 NOT ADD SLT PUSH2 0x66A JUMPI PUSH1 0x80 SWAP2 PUSH1 0x1 PUSH1 0x1 PUSH1 0xA0 SHL SUB DUP1 PUSH2 0x38F5 PUSH2 0x3E44 JUMP JUMPDEST AND DUP3 MSTORE PUSH1 0x23 PUSH1 0x20 MSTORE DUP3 DUP3 KECCAK256 SLOAD AND SWAP2 PUSH1 0x24 PUSH1 0x20 MSTORE DUP1 DUP1 DUP4 KECCAK256 SLOAD SWAP3 PUSH1 0x25 PUSH1 0x20 MSTORE KECCAK256 SLOAD SWAP1 PUSH1 0x22 SLOAD SWAP3 DUP2 MLOAD SWAP5 DUP6 MSTORE PUSH1 0x20 DUP6 ADD MSTORE DUP4 ADD MSTORE PUSH1 0x60 DUP3 ADD MSTORE RETURN JUMPDEST POP POP POP CALLVALUE PUSH2 0x66A JUMPI DUP2 PUSH1 0x3 NOT CALLDATASIZE ADD SLT PUSH2 0x66A JUMPI PUSH1 0x20 SWAP1 PUSH1 0x19 SLOAD SWAP1 MLOAD SWAP1 DUP2 MSTORE RETURN JUMPDEST DUP3 DUP6 DUP6 DUP2 PUSH1 0x3 NOT CALLDATASIZE ADD SLT PUSH2 0x66A JUMPI CALLER DUP3 MSTORE PUSH1 0x10 PUSH1 0x20 MSTORE PUSH2 0x3974 PUSH1 0xFF DUP3 DUP5 KECCAK256 SLOAD AND ISZERO PUSH2 0x43E2 JUMP JUMPDEST CALLVALUE ISZERO SWAP1 PUSH2 0x3981 DUP3 ISZERO PUSH2 0x445E JUMP JUMPDEST DUP3 SLOAD PUSH1 0x1 PUSH1 0x1 PUSH1 0xA0 SHL SUB SWAP3 SWAP1 PUSH2 0x1CF0 SWAP1 DUP5 AND ISZERO ISZERO PUSH2 0x449A JUMP JUMPDEST POP POP POP CALLVALUE PUSH2 0x66A JUMPI CALLDATASIZE PUSH1 0x3 NOT ADD SLT PUSH2 0x749 JUMPI PUSH2 0x39B4 PUSH2 0x3E44 JUMP JUMPDEST PUSH1 0x24 CALLDATALOAD SWAP1 PUSH1 0x1 PUSH1 0x1 PUSH1 0xA0 SHL SUB SWAP1 PUSH2 0x39EE CALLER PUSH32 0x0 DUP5 AND EQ PUSH2 0x4204 JUMP JUMPDEST AND PUSH2 0x39FA DUP2 ISZERO ISZERO PUSH2 0x4279 JUMP JUMPDEST PUSH2 0x3A05 DUP3 ISZERO ISZERO PUSH2 0x42B7 JUMP JUMPDEST PUSH1 0x1 PUSH1 0x1 PUSH1 0x60 SHL SUB PUSH1 0xA0 SHL PUSH1 0x2 SLOAD AND OR PUSH1 0x2 SSTORE PUSH1 0x9 SSTORE DUP1 RETURN JUMPDEST POP POP POP CALLVALUE PUSH2 0x66A JUMPI DUP2 PUSH1 0x3 NOT CALLDATASIZE ADD SLT PUSH2 0x66A JUMPI PUSH1 0x5 SLOAD SWAP1 MLOAD PUSH1 0x1 PUSH1 0x1 PUSH1 0xA0 SHL SUB SWAP1 SWAP2 AND DUP2 MSTORE PUSH1 0x20 SWAP1 RETURN JUMPDEST POP POP POP CALLVALUE PUSH2 0x66A JUMPI DUP2 PUSH1 0x3 NOT CALLDATASIZE ADD SLT PUSH2 0x66A JUMPI PUSH1 0x20 SWAP1 PUSH1 0x11 SLOAD SWAP1 MLOAD SWAP1 DUP2 MSTORE RETURN JUMPDEST POP POP POP CALLVALUE PUSH2 0x66A JUMPI DUP2 PUSH1 0x3 NOT CALLDATASIZE ADD SLT PUSH2 0x66A JUMPI PUSH1 0x20 SWAP1 PUSH1 0xC SLOAD SWAP1 MLOAD SWAP1 DUP2 MSTORE RETURN JUMPDEST POP POP POP CALLVALUE PUSH2 0x66A JUMPI PUSH32 0xDDA6207409A585801122FB885DCAA8074F9A21F25FF2DEF680C67F01A86C2C9B PUSH1 0x20 PUSH2 0x3ABC CALLDATASIZE PUSH2 0x3ECB JUMP JUMPDEST SWAP1 PUSH1 0x1 PUSH1 0x1 PUSH1 0xA0 SHL SUB SWAP1 PUSH2 0x3AF3 CALLER PUSH32 0x0 DUP5 AND EQ PUSH2 0x4204 JUMP JUMPDEST AND SWAP4 DUP5 DUP7 MSTORE PUSH1 0x10 DUP4 MSTORE PUSH2 0x3B14 DUP3 DUP3 DUP9 KECCAK256 SWAP1 PUSH1 0xFF DUP1 NOT DUP4 SLOAD AND SWAP2 ISZERO ISZERO AND OR SWAP1 SSTORE JUMP JUMPDEST MLOAD SWAP1 ISZERO ISZERO DUP2 MSTORE LOG2 DUP1 RETURN JUMPDEST POP POP CALLVALUE PUSH2 0x46B JUMPI PUSH2 0x4C3 SWAP1 PUSH2 0x1090 CALLDATASIZE PUSH2 0x3E8D JUMP JUMPDEST DUP4 DUP6 DUP5 CALLVALUE PUSH2 0x66A JUMPI PUSH1 0x20 SWAP1 DUP2 PUSH1 0x3 NOT CALLDATASIZE ADD SLT PUSH2 0x46B JUMPI CALLDATALOAD SWAP3 DUP4 DUP4 MSTORE PUSH1 0x1C DUP3 MSTORE PUSH1 0x1 DUP1 PUSH1 0xA0 SHL SUB DUP2 DUP5 KECCAK256 SLOAD AND SWAP3 PUSH2 0x3B69 DUP5 ISZERO ISZERO PUSH2 0x4E10 JUMP JUMPDEST PUSH2 0x3B71 PUSH2 0x5B3C JUMP JUMPDEST DUP2 SWAP6 DUP3 JUMPDEST DUP7 DUP5 MSTORE PUSH1 0x1B DUP1 DUP8 MSTORE DUP6 DUP6 KECCAK256 DUP1 SLOAD DUP4 LT ISZERO PUSH2 0x3BF0 JUMPI PUSH2 0x3B94 DUP4 DUP6 SWAP3 PUSH2 0x3FED JUMP JUMPDEST POP SLOAD EQ PUSH2 0x3BAA JUMPI POP PUSH2 0x3BA5 SWAP1 PUSH2 0x4E01 JUMP JUMPDEST PUSH2 0x3B75 JUMP JUMPDEST PUSH1 0x80 SWAP9 POP PUSH2 0x1518 SWAP4 POP DUP6 SWAP2 SWAP3 POP SWAP4 PUSH2 0x3BC7 SWAP5 DUP9 DUP3 MSTORE DUP8 MSTORE KECCAK256 PUSH2 0x3FED JUMP JUMPDEST SWAP1 PUSH2 0x3BD2 PUSH1 0x1 PUSH2 0x4E53 JUMP JUMPDEST DUP2 MLOAD SWAP4 DUP2 DUP5 DUP5 ADD MLOAD SWAP4 ADD MLOAD SWAP4 DUP3 MLOAD SWAP6 DUP7 MSTORE DUP6 ADD MSTORE DUP4 ADD MSTORE PUSH1 0x60 DUP3 ADD MSTORE RETURN JUMPDEST POP POP POP POP SWAP2 SWAP1 POP PUSH2 0x3BD2 PUSH1 0x80 SWAP6 PUSH2 0x4E53 JUMP JUMPDEST POP POP SWAP1 CALLVALUE PUSH2 0x46B JUMPI DUP1 PUSH1 0x3 NOT CALLDATASIZE ADD SLT PUSH2 0x46B JUMPI PUSH2 0x3C1D PUSH2 0x3E44 JUMP JUMPDEST PUSH1 0x24 CALLDATALOAD SWAP1 PUSH32 0x0 PUSH1 0x1 PUSH1 0x1 PUSH1 0xA0 SHL SUB PUSH2 0x3C57 CALLER DUP3 DUP5 AND EQ PUSH2 0x4204 JUMP JUMPDEST DUP1 DUP8 SLOAD AND SWAP3 AND SWAP2 DUP3 EQ PUSH2 0x3D12 JUMPI JUMPDEST DUP4 MLOAD PUSH4 0xA9059CBB PUSH1 0xE0 SHL DUP2 MSTORE PUSH1 0x1 PUSH1 0x1 PUSH1 0xA0 SHL SUB SWAP1 SWAP2 AND DUP6 DUP3 ADD SWAP1 DUP2 MSTORE PUSH1 0x20 DUP2 DUP2 ADD SWAP5 SWAP1 SWAP5 MSTORE SWAP1 SWAP3 SWAP2 DUP4 SWAP2 DUP3 SWAP1 DUP9 SWAP1 DUP3 SWAP1 PUSH1 0x40 ADD SUB SWAP3 GAS CALL SWAP1 DUP2 ISZERO PUSH2 0x3D08 JUMPI DUP5 SWAP2 PUSH2 0x3CEA JUMPI JUMPDEST POP ISZERO PUSH2 0x3CB5 JUMPI DUP3 DUP1 RETURN JUMPDEST SWAP1 PUSH1 0x20 PUSH1 0x64 SWAP3 MLOAD SWAP2 PUSH3 0x461BCD PUSH1 0xE5 SHL DUP4 MSTORE DUP3 ADD MSTORE PUSH1 0xF PUSH1 0x24 DUP3 ADD MSTORE PUSH15 0x151C985B9CD9995C8819985A5B1959 PUSH1 0x8A SHL PUSH1 0x44 DUP3 ADD MSTORE REVERT JUMPDEST PUSH2 0x3D02 SWAP2 POP PUSH1 0x20 RETURNDATASIZE DUP2 GT PUSH2 0x627 JUMPI PUSH2 0x619 DUP2 DUP4 PUSH2 0x40DF JUMP JUMPDEST CODESIZE PUSH2 0x3CAB JUMP JUMPDEST DUP3 MLOAD RETURNDATASIZE DUP7 DUP3 RETURNDATACOPY RETURNDATASIZE SWAP1 REVERT JUMPDEST DUP4 MLOAD PUSH4 0x70A08231 PUSH1 0xE0 SHL DUP2 MSTORE ADDRESS DUP7 DUP3 ADD MSTORE PUSH1 0x20 DUP2 PUSH1 0x24 DUP2 DUP7 GAS STATICCALL DUP1 ISZERO PUSH2 0x3DC8 JUMPI DUP8 SWAP1 PUSH2 0x3D91 JUMPI JUMPDEST PUSH2 0x3D47 SWAP2 POP PUSH1 0x1D SLOAD SWAP1 PUSH2 0x42F3 JUMP JUMPDEST DUP4 GT ISZERO PUSH2 0x3C65 JUMPI DUP4 MLOAD PUSH3 0x461BCD PUSH1 0xE5 SHL DUP2 MSTORE PUSH1 0x20 DUP2 DUP8 ADD MSTORE PUSH1 0x1D PUSH1 0x24 DUP3 ADD MSTORE PUSH32 0x43616E6E6F74207769746864726177207374616B656420746F6B656E73000000 PUSH1 0x44 DUP3 ADD MSTORE PUSH1 0x64 SWAP1 REVERT JUMPDEST POP PUSH1 0x20 DUP2 RETURNDATASIZE DUP3 GT PUSH2 0x3DC0 JUMPI JUMPDEST DUP2 PUSH2 0x3DAA PUSH1 0x20 SWAP4 DUP4 PUSH2 0x40DF JUMP JUMPDEST DUP2 ADD SUB SLT PUSH2 0x3DBC JUMPI PUSH2 0x3D47 SWAP1 MLOAD PUSH2 0x3D39 JUMP JUMPDEST DUP7 DUP1 REVERT JUMPDEST RETURNDATASIZE SWAP2 POP PUSH2 0x3D9D JUMP JUMPDEST DUP6 MLOAD RETURNDATASIZE DUP10 DUP3 RETURNDATACOPY RETURNDATASIZE SWAP1 REVERT JUMPDEST POP POP CALLVALUE PUSH2 0x46B JUMPI PUSH1 0x20 CALLDATASIZE PUSH1 0x3 NOT ADD SLT PUSH2 0x46B JUMPI DUP1 CALLDATALOAD CALLER DUP5 MSTORE PUSH1 0x10 PUSH1 0x20 MSTORE PUSH2 0x19B3 PUSH1 0xFF DUP5 DUP7 KECCAK256 SLOAD AND ISZERO PUSH2 0x43E2 JUMP JUMPDEST POP POP POP CALLVALUE PUSH2 0x66A JUMPI DUP2 PUSH1 0x3 NOT CALLDATASIZE ADD SLT PUSH2 0x66A JUMPI PUSH1 0x20 SWAP1 PUSH1 0xA SLOAD SWAP1 MLOAD SWAP1 DUP2 MSTORE RETURN JUMPDEST DUP6 SWAP1 CALLVALUE PUSH2 0x66A JUMPI DUP2 PUSH1 0x3 NOT CALLDATASIZE ADD SLT PUSH2 0x66A JUMPI PUSH1 0x2 SLOAD PUSH1 0x1 PUSH1 0x1 PUSH1 0xA0 SHL SUB AND DUP2 MSTORE PUSH1 0x20 SWAP1 RETURN JUMPDEST PUSH1 0x4 CALLDATALOAD SWAP1 PUSH1 0x1 PUSH1 0x1 PUSH1 0xA0 SHL SUB DUP3 AND DUP3 SUB PUSH2 0x3E5A JUMPI JUMP JUMPDEST PUSH1 0x0 DUP1 REVERT JUMPDEST SWAP2 DUP2 PUSH1 0x1F DUP5 ADD SLT ISZERO PUSH2 0x3E5A JUMPI DUP3 CALLDATALOAD SWAP2 PUSH8 0xFFFFFFFFFFFFFFFF DUP4 GT PUSH2 0x3E5A JUMPI PUSH1 0x20 DUP4 DUP2 DUP7 ADD SWAP6 ADD ADD GT PUSH2 0x3E5A JUMPI JUMP JUMPDEST SWAP1 PUSH1 0x3 NOT DUP3 ADD PUSH1 0xC0 DUP2 SLT PUSH2 0x3E5A JUMPI PUSH1 0x80 SGT PUSH2 0x3E5A JUMPI PUSH1 0x4 SWAP2 PUSH1 0x84 CALLDATALOAD SWAP1 PUSH8 0xFFFFFFFFFFFFFFFF DUP3 GT PUSH2 0x3E5A JUMPI PUSH2 0x3EC3 SWAP2 DUP5 ADD PUSH2 0x3E5F JUMP JUMPDEST SWAP1 SWAP2 PUSH1 0xA4 CALLDATALOAD SWAP1 JUMP JUMPDEST PUSH1 0x40 SWAP1 PUSH1 0x3 NOT ADD SLT PUSH2 0x3E5A JUMPI PUSH1 0x4 CALLDATALOAD PUSH1 0x1 PUSH1 0x1 PUSH1 0xA0 SHL SUB DUP2 AND DUP2 SUB PUSH2 0x3E5A JUMPI SWAP1 PUSH1 0x24 CALLDATALOAD DUP1 ISZERO ISZERO DUP2 SUB PUSH2 0x3E5A JUMPI SWAP1 JUMP JUMPDEST SWAP2 SWAP1 DUP3 MLOAD SWAP3 DUP4 DUP3 MSTORE PUSH1 0x0 JUMPDEST DUP5 DUP2 LT PUSH2 0x3F26 JUMPI POP POP DUP3 PUSH1 0x0 PUSH1 0x20 DUP1 SWAP5 SWAP6 DUP5 ADD ADD MSTORE PUSH1 0x1F DUP1 NOT SWAP2 ADD AND ADD ADD SWAP1 JUMP JUMPDEST PUSH1 0x20 DUP2 DUP4 ADD DUP2 ADD MLOAD DUP5 DUP4 ADD DUP3 ADD MSTORE ADD PUSH2 0x3F05 JUMP JUMPDEST PUSH1 0x20 DUP1 DUP3 ADD SWAP1 DUP1 DUP4 MSTORE DUP4 MLOAD DUP1 SWAP3 MSTORE PUSH1 0x40 SWAP3 DUP4 DUP2 ADD DUP3 DUP6 DUP6 PUSH1 0x5 SHL DUP5 ADD ADD SWAP7 ADD SWAP5 PUSH1 0x0 SWAP3 JUMPDEST DUP6 DUP5 LT PUSH2 0x3F6F JUMPI POP POP POP POP POP POP POP SWAP1 JUMP JUMPDEST SWAP1 SWAP2 SWAP3 SWAP4 SWAP5 SWAP6 SWAP7 DUP6 DUP1 PUSH2 0x3FDC PUSH1 0x1 SWAP4 PUSH1 0x3F NOT DUP7 DUP3 SUB ADD DUP9 MSTORE DUP12 MLOAD DUP1 MLOAD DUP3 MSTORE DUP6 DUP1 PUSH1 0xA0 SHL SUB DUP1 DUP6 DUP4 ADD MLOAD AND DUP6 DUP5 ADD MSTORE DUP1 DUP10 DUP4 ADD MLOAD AND DUP10 DUP5 ADD MSTORE PUSH1 0x60 SWAP1 DUP2 DUP4 ADD MLOAD AND SWAP1 DUP4 ADD MSTORE PUSH1 0x80 DUP1 DUP3 ADD MLOAD SWAP1 DUP4 ADD MSTORE PUSH1 0xA0 DUP1 DUP3 ADD MLOAD SWAP1 DUP4 ADD MSTORE PUSH1 0xC0 DUP1 SWAP2 ADD MLOAD SWAP2 PUSH1 0xE0 DUP1 SWAP3 DUP3 ADD MSTORE ADD SWAP1 PUSH2 0x3EFA JUMP JUMPDEST SWAP10 ADD SWAP5 ADD SWAP5 ADD SWAP3 SWAP6 SWAP5 SWAP4 SWAP2 SWAP1 PUSH2 0x3F5E JUMP JUMPDEST DUP1 SLOAD DUP3 LT ISZERO PUSH2 0x4009 JUMPI PUSH1 0x0 MSTORE PUSH1 0x7 PUSH1 0x20 PUSH1 0x0 KECCAK256 SWAP2 MUL ADD SWAP1 PUSH1 0x0 SWAP1 JUMP JUMPDEST PUSH4 0x4E487B71 PUSH1 0xE0 SHL PUSH1 0x0 MSTORE PUSH1 0x32 PUSH1 0x4 MSTORE PUSH1 0x24 PUSH1 0x0 REVERT JUMPDEST SWAP1 PUSH1 0x1 DUP3 DUP2 SHR SWAP3 AND DUP1 ISZERO PUSH2 0x404F JUMPI JUMPDEST PUSH1 0x20 DUP4 LT EQ PUSH2 0x4039 JUMPI JUMP JUMPDEST PUSH4 0x4E487B71 PUSH1 0xE0 SHL PUSH1 0x0 MSTORE PUSH1 0x22 PUSH1 0x4 MSTORE PUSH1 0x24 PUSH1 0x0 REVERT JUMPDEST SWAP2 PUSH1 0x7F AND SWAP2 PUSH2 0x402E JUMP JUMPDEST PUSH1 0xE0 DUP2 ADD SWAP1 DUP2 LT PUSH8 0xFFFFFFFFFFFFFFFF DUP3 GT OR PUSH2 0x4075 JUMPI PUSH1 0x40 MSTORE JUMP JUMPDEST PUSH4 0x4E487B71 PUSH1 0xE0 SHL PUSH1 0x0 MSTORE PUSH1 0x41 PUSH1 0x4 MSTORE PUSH1 0x24 PUSH1 0x0 REVERT JUMPDEST PUSH1 0xC0 DUP2 ADD SWAP1 DUP2 LT PUSH8 0xFFFFFFFFFFFFFFFF DUP3 GT OR PUSH2 0x4075 JUMPI PUSH1 0x40 MSTORE JUMP JUMPDEST PUSH1 0x80 DUP2 ADD SWAP1 DUP2 LT PUSH8 0xFFFFFFFFFFFFFFFF DUP3 GT OR PUSH2 0x4075 JUMPI PUSH1 0x40 MSTORE JUMP JUMPDEST PUSH1 0x40 DUP2 ADD SWAP1 DUP2 LT PUSH8 0xFFFFFFFFFFFFFFFF DUP3 GT OR PUSH2 0x4075 JUMPI PUSH1 0x40 MSTORE JUMP JUMPDEST SWAP1 PUSH1 0x1F DUP1 NOT SWAP2 ADD AND DUP2 ADD SWAP1 DUP2 LT PUSH8 0xFFFFFFFFFFFFFFFF DUP3 GT OR PUSH2 0x4075 JUMPI PUSH1 0x40 MSTORE JUMP JUMPDEST SWAP1 PUSH1 0x40 MLOAD SWAP2 DUP3 PUSH1 0x0 DUP3 SLOAD SWAP3 PUSH2 0x4115 DUP5 PUSH2 0x401F JUMP JUMPDEST SWAP1 DUP2 DUP5 MSTORE PUSH1 0x1 SWAP5 DUP6 DUP2 AND SWAP1 DUP2 PUSH1 0x0 EQ PUSH2 0x4184 JUMPI POP PUSH1 0x1 EQ PUSH2 0x4141 JUMPI JUMPDEST POP POP PUSH2 0x413F SWAP3 POP SUB DUP4 PUSH2 0x40DF JUMP JUMPDEST JUMP JUMPDEST SWAP1 SWAP4 SWAP2 POP PUSH1 0x0 MSTORE PUSH1 0x20 SWAP1 DUP2 PUSH1 0x0 KECCAK256 SWAP4 PUSH1 0x0 SWAP2 JUMPDEST DUP2 DUP4 LT PUSH2 0x416C JUMPI POP POP PUSH2 0x413F SWAP4 POP DUP3 ADD ADD CODESIZE DUP1 PUSH2 0x4131 JUMP JUMPDEST DUP6 SLOAD DUP9 DUP5 ADD DUP6 ADD MSTORE SWAP5 DUP6 ADD SWAP5 DUP8 SWAP5 POP SWAP2 DUP4 ADD SWAP2 PUSH2 0x4154 JUMP JUMPDEST SWAP2 POP POP PUSH2 0x413F SWAP5 POP PUSH1 0x20 SWAP3 POP PUSH1 0xFF NOT AND DUP3 DUP5 ADD MSTORE ISZERO ISZERO PUSH1 0x5 SHL DUP3 ADD ADD CODESIZE DUP1 PUSH2 0x4131 JUMP JUMPDEST SWAP4 PUSH1 0xE0 SWAP6 SWAP3 PUSH2 0x41E9 SWAP9 SWAP8 SWAP5 SWAP3 DUP7 MSTORE PUSH1 0x1 DUP1 PUSH1 0xA0 SHL SUB SWAP3 DUP4 DUP1 SWAP3 AND PUSH1 0x20 DUP9 ADD MSTORE AND PUSH1 0x40 DUP7 ADD MSTORE AND PUSH1 0x60 DUP5 ADD MSTORE PUSH1 0x80 DUP4 ADD MSTORE PUSH1 0xA0 DUP3 ADD MSTORE DUP2 PUSH1 0xC0 DUP3 ADD MSTORE ADD SWAP1 PUSH2 0x3EFA JUMP JUMPDEST SWAP1 JUMP JUMPDEST DUP1 SLOAD DUP3 LT ISZERO PUSH2 0x4009 JUMPI PUSH1 0x0 MSTORE PUSH1 0x20 PUSH1 0x0 KECCAK256 ADD SWAP1 PUSH1 0x0 SWAP1 JUMP JUMPDEST ISZERO PUSH2 0x420B JUMPI JUMP JUMPDEST PUSH1 0x40 MLOAD PUSH3 0x461BCD PUSH1 0xE5 SHL DUP2 MSTORE PUSH1 0x20 PUSH1 0x4 DUP3 ADD MSTORE PUSH1 0xA PUSH1 0x24 DUP3 ADD MSTORE PUSH10 0x27B7363C9037BBB732B9 PUSH1 0xB1 SHL PUSH1 0x44 DUP3 ADD MSTORE PUSH1 0x64 SWAP1 REVERT JUMPDEST ISZERO PUSH2 0x4244 JUMPI JUMP JUMPDEST PUSH1 0x40 MLOAD PUSH3 0x461BCD PUSH1 0xE5 SHL DUP2 MSTORE PUSH1 0x20 PUSH1 0x4 DUP3 ADD MSTORE PUSH1 0xD PUSH1 0x24 DUP3 ADD MSTORE PUSH13 0x496E76616C6964207072696365 PUSH1 0x98 SHL PUSH1 0x44 DUP3 ADD MSTORE PUSH1 0x64 SWAP1 REVERT JUMPDEST ISZERO PUSH2 0x4280 JUMPI JUMP JUMPDEST PUSH1 0x40 MLOAD PUSH3 0x461BCD PUSH1 0xE5 SHL DUP2 MSTORE PUSH1 0x20 PUSH1 0x4 DUP3 ADD MSTORE PUSH1 0xF PUSH1 0x24 DUP3 ADD MSTORE PUSH15 0x496E76616C69642061646472657373 PUSH1 0x88 SHL PUSH1 0x44 DUP3 ADD MSTORE PUSH1 0x64 SWAP1 REVERT JUMPDEST ISZERO PUSH2 0x42BE JUMPI JUMP JUMPDEST PUSH1 0x40 MLOAD PUSH3 0x461BCD PUSH1 0xE5 SHL DUP2 MSTORE PUSH1 0x20 PUSH1 0x4 DUP3 ADD MSTORE PUSH1 0xD PUSH1 0x24 DUP3 ADD MSTORE PUSH13 0x496E76616C696420726174696F PUSH1 0x98 SHL PUSH1 0x44 DUP3 ADD MSTORE PUSH1 0x64 SWAP1 REVERT JUMPDEST SWAP2 SWAP1 DUP3 SUB SWAP2 DUP3 GT PUSH2 0x4300 JUMPI JUMP JUMPDEST PUSH4 0x4E487B71 PUSH1 0xE0 SHL PUSH1 0x0 MSTORE PUSH1 0x11 PUSH1 0x4 MSTORE PUSH1 0x24 PUSH1 0x0 REVERT JUMPDEST DUP2 ISZERO PUSH2 0x4320 JUMPI DIV SWAP1 JUMP JUMPDEST PUSH4 0x4E487B71 PUSH1 0xE0 SHL PUSH1 0x0 MSTORE PUSH1 0x12 PUSH1 0x4 MSTORE PUSH1 0x24 PUSH1 0x0 REVERT JUMPDEST DUP2 DUP2 MUL SWAP3 SWAP2 DUP2 ISZERO SWAP2 DUP5 DIV EQ OR ISZERO PUSH2 0x4300 JUMPI JUMP JUMPDEST SWAP2 SWAP1 DUP3 ADD DUP1 SWAP3 GT PUSH2 0x4300 JUMPI JUMP JUMPDEST PUSH1 0x11 SLOAD SWAP1 DUP2 ISZERO DUP1 ISZERO PUSH2 0x43D9 JUMPI JUMPDEST PUSH2 0x43C8 JUMPI PUSH1 0x1 PUSH1 0x1 PUSH1 0xA0 SHL SUB AND PUSH1 0x0 SWAP1 DUP2 MSTORE PUSH1 0x15 PUSH1 0x20 MSTORE PUSH1 0x40 SWAP1 KECCAK256 SLOAD PUSH1 0xFF AND ISZERO PUSH2 0x43D0 JUMPI PUSH1 0x13 SLOAD SWAP1 JUMPDEST DUP2 ISZERO PUSH2 0x43C8 JUMPI PUSH2 0x41E9 SWAP2 PUSH2 0x43A3 PUSH2 0x43A8 SWAP3 TIMESTAMP PUSH2 0x42F3 JUMP JUMPDEST PUSH2 0x4316 JUMP JUMPDEST PUSH2 0x1957 PUSH3 0xF4240 PUSH2 0x43BE PUSH1 0x12 SLOAD PUSH1 0x7 SLOAD SWAP1 PUSH2 0x4336 JUMP JUMPDEST DIV PUSH1 0x6 SLOAD SWAP3 PUSH2 0x4336 JUMP JUMPDEST POP POP PUSH1 0x6 SLOAD SWAP1 JUMP JUMPDEST PUSH1 0x14 SLOAD SWAP1 PUSH2 0x438C JUMP JUMPDEST POP DUP2 TIMESTAMP LT PUSH2 0x4363 JUMP JUMPDEST ISZERO PUSH2 0x43E9 JUMPI JUMP JUMPDEST PUSH1 0x40 MLOAD PUSH3 0x461BCD PUSH1 0xE5 SHL DUP2 MSTORE PUSH1 0x20 PUSH1 0x4 DUP3 ADD MSTORE PUSH1 0x12 PUSH1 0x24 DUP3 ADD MSTORE PUSH18 0x1059191C995CDCC81A5CC8189B1BD8DAD959 PUSH1 0x72 SHL PUSH1 0x44 DUP3 ADD MSTORE PUSH1 0x64 SWAP1 REVERT JUMPDEST DUP1 SLOAD PUSH1 0x1 PUSH1 0x40 SHL DUP2 LT ISZERO PUSH2 0x4075 JUMPI PUSH2 0x4440 SWAP2 PUSH1 0x1 DUP3 ADD DUP2 SSTORE PUSH2 0x41EC JUMP JUMPDEST DUP2 SWAP3 SWAP2 SLOAD SWAP1 PUSH1 0x3 SHL SWAP2 PUSH1 0x1 DUP1 PUSH1 0xA0 SHL SUB DUP1 SWAP2 AND DUP4 SHL SWAP3 SHL NOT AND OR SWAP1 SSTORE JUMP JUMPDEST ISZERO PUSH2 0x4465 JUMPI JUMP JUMPDEST PUSH1 0x40 MLOAD PUSH3 0x461BCD PUSH1 0xE5 SHL DUP2 MSTORE PUSH1 0x20 PUSH1 0x4 DUP3 ADD MSTORE PUSH1 0xD PUSH1 0x24 DUP3 ADD MSTORE PUSH13 0x26BAB9BA1039B2B73210212721 PUSH1 0x99 SHL PUSH1 0x44 DUP3 ADD MSTORE PUSH1 0x64 SWAP1 REVERT JUMPDEST ISZERO PUSH2 0x44A1 JUMPI JUMP JUMPDEST PUSH1 0x40 MLOAD PUSH3 0x461BCD PUSH1 0xE5 SHL DUP2 MSTORE PUSH1 0x20 PUSH1 0x4 DUP3 ADD MSTORE PUSH1 0x12 PUSH1 0x24 DUP3 ADD MSTORE PUSH18 0x14D85B19481D1BDAD95B881B9BDD081CD95D PUSH1 0x72 SHL PUSH1 0x44 DUP3 ADD MSTORE PUSH1 0x64 SWAP1 REVERT JUMPDEST PUSH8 0xFFFFFFFFFFFFFFFF DUP2 GT PUSH2 0x4075 JUMPI PUSH1 0x1F ADD PUSH1 0x1F NOT AND PUSH1 0x20 ADD SWAP1 JUMP JUMPDEST RETURNDATASIZE ISZERO PUSH2 0x4522 JUMPI RETURNDATASIZE SWAP1 PUSH2 0x4508 DUP3 PUSH2 0x44DB JUMP JUMPDEST SWAP2 PUSH2 0x4516 PUSH1 0x40 MLOAD SWAP4 DUP5 PUSH2 0x40DF JUMP JUMPDEST DUP3 MSTORE RETURNDATASIZE PUSH1 0x0 PUSH1 0x20 DUP5 ADD RETURNDATACOPY JUMP JUMPDEST PUSH1 0x60 SWAP1 JUMP JUMPDEST ISZERO PUSH2 0x452E JUMPI JUMP JUMPDEST PUSH1 0x40 MLOAD PUSH3 0x461BCD PUSH1 0xE5 SHL DUP2 MSTORE PUSH1 0x20 PUSH1 0x4 DUP3 ADD MSTORE PUSH1 0x13 PUSH1 0x24 DUP3 ADD MSTORE PUSH19 0x109390881D1C985B9CD9995C8819985A5B1959 PUSH1 0x6A SHL PUSH1 0x44 DUP3 ADD MSTORE PUSH1 0x64 SWAP1 REVERT JUMPDEST PUSH1 0x40 MLOAD SWAP1 PUSH2 0x4576 DUP3 PUSH2 0x40C3 JUMP JUMPDEST PUSH1 0x3 DUP3 MSTORE PUSH3 0x425559 PUSH1 0xE8 SHL PUSH1 0x20 DUP4 ADD MSTORE JUMP JUMPDEST ISZERO PUSH2 0x458F JUMPI JUMP JUMPDEST PUSH1 0x40 MLOAD PUSH3 0x461BCD PUSH1 0xE5 SHL DUP2 MSTORE PUSH1 0x20 PUSH1 0x4 DUP3 ADD MSTORE PUSH1 0x1D PUSH1 0x24 DUP3 ADD MSTORE PUSH32 0x416D6F756E74206D7573742062652067726561746572207468616E2030000000 PUSH1 0x44 DUP3 ADD MSTORE PUSH1 0x64 SWAP1 REVERT JUMPDEST ISZERO PUSH2 0x45DB JUMPI JUMP JUMPDEST PUSH1 0x40 MLOAD PUSH3 0x461BCD PUSH1 0xE5 SHL DUP2 MSTORE PUSH1 0x20 PUSH1 0x4 DUP3 ADD MSTORE PUSH1 0x13 PUSH1 0x24 DUP3 ADD MSTORE PUSH19 0x1554D115081B9BDD0818DBDB999A59DD5C9959 PUSH1 0x6A SHL PUSH1 0x44 DUP3 ADD MSTORE PUSH1 0x64 SWAP1 REVERT JUMPDEST SWAP1 DUP2 PUSH1 0x20 SWAP2 SUB SLT PUSH2 0x3E5A JUMPI MLOAD DUP1 ISZERO ISZERO DUP2 SUB PUSH2 0x3E5A JUMPI SWAP1 JUMP JUMPDEST ISZERO PUSH2 0x4635 JUMPI JUMP JUMPDEST PUSH1 0x40 MLOAD PUSH3 0x461BCD PUSH1 0xE5 SHL DUP2 MSTORE PUSH1 0x20 PUSH1 0x4 DUP3 ADD MSTORE PUSH1 0x14 PUSH1 0x24 DUP3 ADD MSTORE PUSH20 0x1554D115081D1C985B9CD9995C8819985A5B1959 PUSH1 0x62 SHL PUSH1 0x44 DUP3 ADD MSTORE PUSH1 0x64 SWAP1 REVERT JUMPDEST ISZERO PUSH2 0x4678 JUMPI JUMP JUMPDEST PUSH1 0x40 MLOAD PUSH3 0x461BCD PUSH1 0xE5 SHL DUP2 MSTORE PUSH1 0x20 PUSH1 0x4 DUP3 ADD MSTORE PUSH1 0x13 PUSH1 0x24 DUP3 ADD MSTORE PUSH19 0x1554D110C81B9BDD0818DBDB999A59DD5C9959 PUSH1 0x6A SHL PUSH1 0x44 DUP3 ADD MSTORE PUSH1 0x64 SWAP1 REVERT JUMPDEST ISZERO PUSH2 0x46BA JUMPI JUMP JUMPDEST PUSH1 0x40 MLOAD PUSH3 0x461BCD PUSH1 0xE5 SHL DUP2 MSTORE PUSH1 0x20 PUSH1 0x4 DUP3 ADD MSTORE PUSH1 0x14 PUSH1 0x24 DUP3 ADD MSTORE PUSH20 0x1554D110C81D1C985B9CD9995C8819985A5B1959 PUSH1 0x62 SHL PUSH1 0x44 DUP3 ADD MSTORE PUSH1 0x64 SWAP1 REVERT JUMPDEST ISZERO PUSH2 0x46FD JUMPI JUMP JUMPDEST PUSH1 0x40 MLOAD PUSH3 0x461BCD PUSH1 0xE5 SHL DUP2 MSTORE PUSH1 0x20 PUSH1 0x4 DUP3 ADD MSTORE PUSH1 0x12 PUSH1 0x24 DUP3 ADD MSTORE PUSH18 0x115512081B9BDD0818DBDB999A59DD5C9959 PUSH1 0x72 SHL PUSH1 0x44 DUP3 ADD MSTORE PUSH1 0x64 SWAP1 REVERT JUMPDEST ISZERO PUSH2 0x473E JUMPI JUMP JUMPDEST PUSH1 0x40 MLOAD PUSH3 0x461BCD PUSH1 0xE5 SHL DUP2 MSTORE PUSH1 0x20 PUSH1 0x4 DUP3 ADD MSTORE PUSH1 0x13 PUSH1 0x24 DUP3 ADD MSTORE PUSH19 0x115512081D1C985B9CD9995C8819985A5B1959 PUSH1 0x6A SHL PUSH1 0x44 DUP3 ADD MSTORE PUSH1 0x64 SWAP1 REVERT JUMPDEST ISZERO PUSH2 0x4780 JUMPI JUMP JUMPDEST PUSH1 0x40 MLOAD PUSH3 0x461BCD PUSH1 0xE5 SHL DUP2 MSTORE PUSH1 0x20 PUSH1 0x4 DUP3 ADD MSTORE PUSH1 0x12 PUSH1 0x24 DUP3 ADD MSTORE PUSH18 0x109510C81B9BDD0818DBDB999A59DD5C9959 PUSH1 0x72 SHL PUSH1 0x44 DUP3 ADD MSTORE PUSH1 0x64 SWAP1 REVERT JUMPDEST ISZERO PUSH2 0x47C1 JUMPI JUMP JUMPDEST PUSH1 0x40 MLOAD PUSH3 0x461BCD PUSH1 0xE5 SHL DUP2 MSTORE PUSH1 0x20 PUSH1 0x4 DUP3 ADD MSTORE PUSH1 0x13 PUSH1 0x24 DUP3 ADD MSTORE PUSH19 0x109510C81D1C985B9CD9995C8819985A5B1959 PUSH1 0x6A SHL PUSH1 0x44 DUP3 ADD MSTORE PUSH1 0x64 SWAP1 REVERT JUMPDEST ISZERO PUSH2 0x4803 JUMPI JUMP JUMPDEST PUSH1 0x40 MLOAD PUSH3 0x461BCD PUSH1 0xE5 SHL DUP2 MSTORE PUSH1 0x20 PUSH1 0x4 DUP3 ADD MSTORE PUSH1 0x12 PUSH1 0x24 DUP3 ADD MSTORE PUSH18 0x14D3D3081B9BDD0818DBDB999A59DD5C9959 PUSH1 0x72 SHL PUSH1 0x44 DUP3 ADD MSTORE PUSH1 0x64 SWAP1 REVERT JUMPDEST ISZERO PUSH2 0x4844 JUMPI JUMP JUMPDEST PUSH1 0x40 MLOAD PUSH3 0x461BCD PUSH1 0xE5 SHL DUP2 MSTORE PUSH1 0x20 PUSH1 0x4 DUP3 ADD MSTORE PUSH1 0x13 PUSH1 0x24 DUP3 ADD MSTORE PUSH19 0x14D3D3081D1C985B9CD9995C8819985A5B1959 PUSH1 0x6A SHL PUSH1 0x44 DUP3 ADD MSTORE PUSH1 0x64 SWAP1 REVERT JUMPDEST CALLDATALOAD PUSH1 0x1 PUSH1 0x1 PUSH1 0xA0 SHL SUB DUP2 AND DUP2 SUB PUSH2 0x3E5A JUMPI SWAP1 JUMP JUMPDEST SWAP2 SWAP1 PUSH1 0x60 DUP4 ADD CALLDATALOAD SWAP3 DUP4 TIMESTAMP GT PUSH2 0x4B85 JUMPI PUSH2 0x48AB DUP2 PUSH2 0x487F JUMP JUMPDEST PUSH1 0x1 PUSH1 0x1 PUSH1 0xA0 SHL SUB SWAP2 SWAP1 CALLER SWAP1 DUP4 AND SUB PUSH2 0x4B4D JUMPI PUSH1 0x40 SWAP3 DUP4 DUP3 ADD CALLDATALOAD SWAP1 PUSH1 0x0 SWAP6 CALLER DUP8 MSTORE PUSH1 0x20 SWAP4 PUSH1 0x28 DUP6 MSTORE DUP7 DUP9 KECCAK256 SLOAD DUP5 GT ISZERO PUSH2 0x4B1C JUMPI PUSH1 0x27 SLOAD SWAP1 DUP6 PUSH2 0x48EC DUP3 PUSH2 0x487F JUMP JUMPDEST SWAP2 ADD SWAP10 PUSH2 0x48F8 DUP12 PUSH2 0x487F JUMP JUMPDEST SWAP1 DUP9 DUP11 MLOAD SWAP3 DUP2 DUP11 DUP6 ADD SWAP6 PUSH32 0x91B089318BBDF627BACEC662873C12CC3AFDC69DB73F084D7726E9CE2907280A DUP8 MSTORE AND DUP13 DUP6 ADD MSTORE AND PUSH1 0x60 DUP4 ADD MSTORE DUP7 PUSH1 0x80 DUP4 ADD MSTORE PUSH1 0xA0 DUP3 ADD MSTORE PUSH1 0xA0 DUP2 MSTORE PUSH2 0x4948 DUP2 PUSH2 0x408B JUMP JUMPDEST MLOAD SWAP1 KECCAK256 DUP8 MLOAD SWAP1 DUP7 DUP3 ADD SWAP3 PUSH2 0x1901 PUSH1 0xF0 SHL DUP5 MSTORE PUSH1 0x22 DUP4 ADD MSTORE PUSH1 0x42 DUP3 ADD MSTORE PUSH1 0x42 DUP2 MSTORE PUSH2 0x4971 DUP2 PUSH2 0x40A7 JUMP JUMPDEST MLOAD SWAP1 KECCAK256 SWAP1 PUSH2 0x497E DUP2 PUSH2 0x44DB JUMP JUMPDEST SWAP3 PUSH2 0x498B DUP9 MLOAD SWAP5 DUP6 PUSH2 0x40DF JUMP JUMPDEST DUP2 DUP5 MSTORE CALLDATASIZE DUP3 DUP3 ADD GT PUSH2 0x4B18 JUMPI SWAP2 DUP9 DUP7 DUP4 DUP7 SWAP5 PUSH2 0x1C6B SWAP7 DUP4 PUSH2 0x49B1 SWAP10 ADD CALLDATACOPY DUP5 ADD ADD MSTORE PUSH2 0x4CD6 JUMP JUMPDEST DUP4 DUP1 PUSH1 0x26 SLOAD AND SWAP2 AND SUB PUSH2 0x4AE4 JUMPI CALLER DUP6 MSTORE PUSH1 0x28 DUP3 MSTORE DUP1 DUP5 DUP7 KECCAK256 SSTORE DUP4 MLOAD SWAP1 DUP2 MSTORE PUSH32 0xB23E07A4FC171F5F9242D4254C3B66B893BEAAB2F3787495C0F2D09DD3EF9726 DUP3 CALLER SWAP3 LOG2 DUP2 PUSH2 0x49FE DUP7 PUSH2 0x487F JUMP JUMPDEST AND ISZERO ISZERO DUP1 PUSH2 0x4AD0 JUMPI JUMPDEST DUP1 PUSH2 0x4ABC JUMPI JUMPDEST DUP1 PUSH2 0x4A9D JUMPI JUMPDEST PUSH2 0x4A1F JUMPI JUMPDEST POP POP POP POP POP JUMP JUMPDEST PUSH32 0x5F1CA2FCC108B751843A763E60D2201F593516109D7DBB1B700468F2D4190BB7 SWAP3 PUSH1 0x24 PUSH2 0x4A85 SWAP3 PUSH2 0x4A50 DUP9 PUSH2 0x487F JUMP JUMPDEST CALLER DUP9 MSTORE PUSH1 0x23 DUP3 MSTORE DUP6 DUP5 DUP10 KECCAK256 SWAP2 AND PUSH1 0x1 PUSH1 0x1 PUSH1 0x60 SHL SUB PUSH1 0xA0 SHL DUP3 SLOAD AND OR SWAP1 SSTORE DUP5 PUSH2 0x4A78 DUP10 PUSH2 0x487F JUMP JUMPDEST AND DUP8 MSTORE MSTORE CALLER SWAP1 DUP6 KECCAK256 PUSH2 0x4423 JUMP JUMPDEST PUSH2 0x4A8F CALLER SWAP5 PUSH2 0x487F JUMP JUMPDEST AND SWAP2 DUP1 LOG3 CODESIZE DUP1 DUP1 DUP1 DUP1 PUSH2 0x4A18 JUMP JUMPDEST POP DUP2 PUSH2 0x4AA8 DUP7 PUSH2 0x487F JUMP JUMPDEST AND DUP5 MSTORE PUSH1 0x10 DUP2 MSTORE PUSH1 0xFF DUP4 DUP6 KECCAK256 SLOAD AND ISZERO PUSH2 0x4A13 JUMP JUMPDEST POP CALLER DUP5 MSTORE PUSH1 0x23 DUP2 MSTORE DUP2 DUP4 DUP6 KECCAK256 SLOAD AND ISZERO PUSH2 0x4A0D JUMP JUMPDEST POP CALLER DUP3 PUSH2 0x4ADC DUP8 PUSH2 0x487F JUMP JUMPDEST AND EQ ISZERO PUSH2 0x4A07 JUMP JUMPDEST DUP4 MLOAD PUSH3 0x461BCD PUSH1 0xE5 SHL DUP2 MSTORE PUSH1 0x4 DUP2 ADD DUP4 SWAP1 MSTORE PUSH1 0xD PUSH1 0x24 DUP3 ADD MSTORE PUSH13 0x426164207369676E6174757265 PUSH1 0x98 SHL PUSH1 0x44 DUP3 ADD MSTORE PUSH1 0x64 SWAP1 REVERT JUMPDEST DUP9 DUP1 REVERT JUMPDEST DUP7 MLOAD PUSH3 0x461BCD PUSH1 0xE5 SHL DUP2 MSTORE PUSH1 0x4 DUP2 ADD DUP7 SWAP1 MSTORE PUSH1 0xA PUSH1 0x24 DUP3 ADD MSTORE PUSH10 0x139BDB98D9481D5CD959 PUSH1 0xB2 SHL PUSH1 0x44 DUP3 ADD MSTORE PUSH1 0x64 SWAP1 REVERT JUMPDEST PUSH1 0x40 MLOAD PUSH3 0x461BCD PUSH1 0xE5 SHL DUP2 MSTORE PUSH1 0x20 PUSH1 0x4 DUP3 ADD MSTORE PUSH1 0x10 PUSH1 0x24 DUP3 ADD MSTORE PUSH16 0x2737BA103CB7BAB9103B37BAB1B432B9 PUSH1 0x81 SHL PUSH1 0x44 DUP3 ADD MSTORE PUSH1 0x64 SWAP1 REVERT JUMPDEST PUSH1 0x40 MLOAD PUSH3 0x461BCD PUSH1 0xE5 SHL DUP2 MSTORE PUSH1 0x20 PUSH1 0x4 DUP3 ADD MSTORE PUSH1 0xF PUSH1 0x24 DUP3 ADD MSTORE PUSH15 0x159BDD58DA195C88195E1C1A5C9959 PUSH1 0x8A SHL PUSH1 0x44 DUP3 ADD MSTORE PUSH1 0x64 SWAP1 REVERT JUMPDEST PUSH1 0x5 DUP2 LT ISZERO PUSH2 0x4CC0 JUMPI DUP1 PUSH2 0x4BCD JUMPI POP JUMP JUMPDEST PUSH1 0x1 DUP2 SUB PUSH2 0x4C1A JUMPI PUSH1 0x40 MLOAD PUSH3 0x461BCD PUSH1 0xE5 SHL DUP2 MSTORE PUSH1 0x20 PUSH1 0x4 DUP3 ADD MSTORE PUSH1 0x18 PUSH1 0x24 DUP3 ADD MSTORE PUSH32 0x45434453413A20696E76616C6964207369676E61747572650000000000000000 PUSH1 0x44 DUP3 ADD MSTORE PUSH1 0x64 SWAP1 REVERT JUMPDEST PUSH1 0x2 DUP2 SUB PUSH2 0x4C67 JUMPI PUSH1 0x40 MLOAD PUSH3 0x461BCD PUSH1 0xE5 SHL DUP2 MSTORE PUSH1 0x20 PUSH1 0x4 DUP3 ADD MSTORE PUSH1 0x1F PUSH1 0x24 DUP3 ADD MSTORE PUSH32 0x45434453413A20696E76616C6964207369676E6174757265206C656E67746800 PUSH1 0x44 DUP3 ADD MSTORE PUSH1 0x64 SWAP1 REVERT JUMPDEST PUSH1 0x3 EQ PUSH2 0x4C70 JUMPI JUMP JUMPDEST PUSH1 0x40 MLOAD PUSH3 0x461BCD PUSH1 0xE5 SHL DUP2 MSTORE PUSH1 0x20 PUSH1 0x4 DUP3 ADD MSTORE PUSH1 0x22 PUSH1 0x24 DUP3 ADD MSTORE PUSH32 0x45434453413A20696E76616C6964207369676E6174757265202773272076616C PUSH1 0x44 DUP3 ADD MSTORE PUSH2 0x7565 PUSH1 0xF0 SHL PUSH1 0x64 DUP3 ADD MSTORE PUSH1 0x84 SWAP1 REVERT JUMPDEST PUSH4 0x4E487B71 PUSH1 0xE0 SHL PUSH1 0x0 MSTORE PUSH1 0x21 PUSH1 0x4 MSTORE PUSH1 0x24 PUSH1 0x0 REVERT JUMPDEST SWAP1 PUSH1 0x41 DUP2 MLOAD EQ PUSH1 0x0 EQ PUSH2 0x4D04 JUMPI PUSH2 0x4D00 SWAP2 PUSH1 0x20 DUP3 ADD MLOAD SWAP1 PUSH1 0x60 PUSH1 0x40 DUP5 ADD MLOAD SWAP4 ADD MLOAD PUSH1 0x0 BYTE SWAP1 PUSH2 0x4D0E JUMP JUMPDEST SWAP1 SWAP2 JUMP JUMPDEST POP POP PUSH1 0x0 SWAP1 PUSH1 0x2 SWAP1 JUMP JUMPDEST SWAP3 SWAP2 SWAP1 PUSH32 0x7FFFFFFFFFFFFFFFFFFFFFFFFFFFFFFF5D576E7357A4501DDFE92F46681B20A0 DUP4 GT PUSH2 0x4D91 JUMPI SWAP2 PUSH1 0x80 SWAP5 SWAP4 SWAP2 PUSH1 0xFF PUSH1 0x20 SWAP5 PUSH1 0x40 MLOAD SWAP5 DUP6 MSTORE AND DUP5 DUP5 ADD MSTORE PUSH1 0x40 DUP4 ADD MSTORE PUSH1 0x60 DUP3 ADD MSTORE PUSH1 0x0 SWAP4 DUP5 SWAP2 DUP3 DUP1 MSTORE PUSH1 0x1 GAS STATICCALL ISZERO PUSH2 0x4D84 JUMPI DUP2 MLOAD PUSH1 0x1 PUSH1 0x1 PUSH1 0xA0 SHL SUB DUP2 AND ISZERO PUSH2 0x4D7E JUMPI SWAP2 SWAP1 JUMP JUMPDEST POP PUSH1 0x1 SWAP1 JUMP JUMPDEST POP PUSH1 0x40 MLOAD SWAP1 RETURNDATASIZE SWAP1 DUP3 RETURNDATACOPY RETURNDATASIZE SWAP1 REVERT JUMPDEST POP POP POP POP PUSH1 0x0 SWAP1 PUSH1 0x3 SWAP1 JUMP JUMPDEST PUSH1 0x40 MLOAD SWAP1 PUSH2 0x4DAA DUP3 PUSH2 0x40C3 JUMP JUMPDEST PUSH1 0x4 DUP3 MSTORE PUSH4 0x14D15313 PUSH1 0xE2 SHL PUSH1 0x20 DUP4 ADD MSTORE JUMP JUMPDEST ISZERO PUSH2 0x4DC4 JUMPI JUMP JUMPDEST PUSH1 0x40 MLOAD PUSH3 0x461BCD PUSH1 0xE5 SHL DUP2 MSTORE PUSH1 0x20 PUSH1 0x4 DUP3 ADD MSTORE PUSH1 0x15 PUSH1 0x24 DUP3 ADD MSTORE PUSH21 0x151BDAD95B881D1C985B9CD9995C8819985A5B1959 PUSH1 0x5A SHL PUSH1 0x44 DUP3 ADD MSTORE PUSH1 0x64 SWAP1 REVERT JUMPDEST PUSH1 0x0 NOT DUP2 EQ PUSH2 0x4300 JUMPI PUSH1 0x1 ADD SWAP1 JUMP JUMPDEST ISZERO PUSH2 0x4E17 JUMPI JUMP JUMPDEST PUSH1 0x40 MLOAD PUSH3 0x461BCD PUSH1 0xE5 SHL DUP2 MSTORE PUSH1 0x20 PUSH1 0x4 DUP3 ADD MSTORE PUSH1 0x14 PUSH1 0x24 DUP3 ADD MSTORE PUSH20 0x14DD185AD948191BD95CC81B9BDD08195E1A5CDD PUSH1 0x62 SHL PUSH1 0x44 DUP3 ADD MSTORE PUSH1 0x64 SWAP1 REVERT JUMPDEST ISZERO PUSH2 0x4E5A JUMPI JUMP JUMPDEST PUSH1 0x40 MLOAD PUSH3 0x461BCD PUSH1 0xE5 SHL DUP2 MSTORE PUSH1 0x20 PUSH1 0x4 DUP3 ADD MSTORE PUSH1 0xF PUSH1 0x24 DUP3 ADD MSTORE PUSH15 0x14DD185AD9481B9BDD08199BDD5B99 PUSH1 0x8A SHL PUSH1 0x44 DUP3 ADD MSTORE PUSH1 0x64 SWAP1 REVERT JUMPDEST ISZERO PUSH2 0x4E98 JUMPI JUMP JUMPDEST PUSH1 0x40 MLOAD PUSH3 0x461BCD PUSH1 0xE5 SHL DUP2 MSTORE PUSH1 0x20 PUSH1 0x4 DUP3 ADD MSTORE PUSH1 0x10 PUSH1 0x24 DUP3 ADD MSTORE PUSH16 0x5374616B65206E6F7420616374697665 PUSH1 0x80 SHL PUSH1 0x44 DUP3 ADD MSTORE PUSH1 0x64 SWAP1 REVERT JUMPDEST PUSH1 0x0 DUP2 DUP2 MSTORE PUSH1 0x1C PUSH1 0x20 SWAP1 DUP2 MSTORE PUSH1 0x40 DUP1 DUP4 KECCAK256 SLOAD PUSH1 0x1 PUSH1 0x1 PUSH1 0xA0 SHL SUB AND SWAP1 PUSH2 0x4EF7 DUP3 ISZERO ISZERO PUSH2 0x4E10 JUMP JUMPDEST SWAP3 SWAP4 DUP5 SWAP4 SWAP1 DUP5 SWAP1 DUP2 DUP1 DUP1 DUP1 DUP1 JUMPDEST DUP9 DUP12 MSTORE PUSH1 0x1B DUP1 DUP12 MSTORE DUP9 DUP13 KECCAK256 DUP1 SLOAD DUP4 LT ISZERO PUSH2 0x50C5 JUMPI PUSH2 0x4F23 DUP4 DUP10 SWAP3 PUSH2 0x3FED JUMP JUMPDEST POP SLOAD EQ PUSH2 0x4F39 JUMPI POP PUSH2 0x4F34 SWAP1 PUSH2 0x4E01 JUMP JUMPDEST PUSH2 0x4F04 JUMP JUMPDEST SWAP7 POP SWAP11 POP POP POP POP POP POP DUP3 DUP6 MSTORE DUP1 DUP5 MSTORE DUP6 DUP3 DUP7 KECCAK256 SWAP1 PUSH2 0x4F56 SWAP2 PUSH2 0x3FED JUMP JUMPDEST POP PUSH1 0x5 ADD SLOAD SWAP6 DUP4 DUP7 MSTORE DUP2 DUP6 MSTORE DUP1 DUP4 DUP8 KECCAK256 SWAP1 PUSH2 0x4F70 SWAP2 PUSH2 0x3FED JUMP JUMPDEST POP PUSH1 0x4 ADD SLOAD SWAP3 DUP5 DUP8 MSTORE DUP3 DUP7 MSTORE DUP2 DUP2 DUP9 KECCAK256 SWAP1 PUSH2 0x4F8A SWAP2 PUSH2 0x3FED JUMP JUMPDEST POP SWAP3 PUSH1 0x1 DUP1 SWAP5 ADD SLOAD SWAP7 DUP7 DUP10 MSTORE DUP2 DUP2 MSTORE DUP4 DUP4 DUP11 KECCAK256 SWAP1 PUSH2 0x4FA7 SWAP2 PUSH2 0x3FED JUMP JUMPDEST POP PUSH1 0x3 ADD SLOAD SWAP7 DUP10 MSTORE MSTORE DUP7 KECCAK256 SWAP1 PUSH2 0x4FBC SWAP2 PUSH2 0x3FED JUMP JUMPDEST POP PUSH1 0x6 ADD SLOAD PUSH1 0xFF AND PUSH2 0x4FD0 PUSH2 0x4FD5 SWAP3 PUSH2 0x4E53 JUMP JUMPDEST PUSH2 0x4E91 JUMP JUMPDEST TIMESTAMP DUP2 EQ PUSH2 0x50BE JUMPI PUSH2 0x4FE6 SWAP1 TIMESTAMP PUSH2 0x42F3 JUMP JUMPDEST SWAP3 PUSH1 0x19 SLOAD DUP1 SWAP3 PUSH1 0x5A DUP2 EQ PUSH1 0x0 EQ PUSH2 0x5044 JUMPI POP POP PUSH1 0x3 DUP3 MUL SWAP2 DUP1 DUP4 DIV PUSH1 0x3 EQ SWAP1 ISZERO OR ISZERO PUSH2 0x5030 JUMPI POP PUSH2 0x41E9 SWAP4 SWAP3 PUSH2 0x5024 PUSH4 0xBBF81E00 SWAP4 PUSH2 0x5029 SWAP4 PUSH1 0x1 SHR SWAP1 JUMPDEST PUSH2 0x4336 JUMP JUMPDEST DIV SWAP1 PUSH2 0x4349 JUMP JUMPDEST PUSH4 0x4E487B71 PUSH1 0xE0 SHL DUP2 MSTORE PUSH1 0x11 PUSH1 0x4 MSTORE PUSH1 0x24 SWAP1 REVERT JUMPDEST PUSH1 0xB4 DUP2 SUB PUSH2 0x507A JUMPI POP POP DUP2 PUSH1 0x1 SHL SWAP2 DUP1 DUP4 DIV PUSH1 0x2 EQ SWAP1 ISZERO OR ISZERO PUSH2 0x5030 JUMPI POP PUSH2 0x41E9 SWAP4 SWAP3 PUSH2 0x5024 PUSH4 0xBBF81E00 SWAP4 PUSH2 0x5029 SWAP4 SWAP1 PUSH2 0x4336 JUMP JUMPDEST PUSH2 0x16D SWAP2 SWAP5 SWAP4 POP EQ PUSH2 0x509F JUMPI JUMPDEST POP PUSH2 0x41E9 SWAP4 SWAP3 PUSH2 0x5024 PUSH4 0xBBF81E00 SWAP4 PUSH2 0x5029 SWAP4 PUSH2 0x4336 JUMP JUMPDEST PUSH1 0x3 DUP4 SWAP3 SWAP4 MUL SWAP2 DUP1 DUP4 DIV PUSH1 0x3 EQ SWAP1 ISZERO OR ISZERO PUSH2 0x5030 JUMPI POP SWAP1 PUSH2 0x41E9 PUSH2 0x5087 JUMP JUMPDEST POP POP POP POP SWAP1 JUMP JUMPDEST POP POP POP SWAP7 POP SWAP7 POP SWAP8 SWAP4 POP PUSH2 0x4FD5 SWAP3 SWAP2 POP PUSH2 0x4FD0 SWAP1 PUSH2 0x4E53 JUMP JUMPDEST ISZERO PUSH2 0x50E5 JUMPI JUMP JUMPDEST PUSH1 0x40 MLOAD PUSH3 0x461BCD PUSH1 0xE5 SHL DUP2 MSTORE PUSH1 0x20 PUSH1 0x4 DUP3 ADD MSTORE PUSH1 0xF PUSH1 0x24 DUP3 ADD MSTORE PUSH15 0x2737BA1039BA30B5B29037BBB732B9 PUSH1 0x89 SHL PUSH1 0x44 DUP3 ADD MSTORE PUSH1 0x64 SWAP1 REVERT JUMPDEST PUSH1 0x0 CALLER DUP2 MSTORE PUSH1 0x20 PUSH1 0x23 DUP2 MSTORE PUSH1 0x1 DUP1 PUSH1 0xA0 SHL SUB SWAP1 PUSH1 0x40 DUP3 DUP2 DUP6 KECCAK256 SLOAD AND SWAP3 DUP4 ISZERO ISZERO DUP1 PUSH2 0x5288 JUMPI JUMPDEST PUSH2 0x514D JUMPI POP POP POP POP POP SWAP1 JUMP JUMPDEST PUSH1 0x64 PUSH2 0x515B PUSH1 0x22 SLOAD DUP9 PUSH2 0x4336 JUMP JUMPDEST DUP7 SLOAD DUP5 MLOAD PUSH4 0xA9059CBB PUSH1 0xE0 SHL DUP2 MSTORE PUSH1 0x1 PUSH1 0x1 PUSH1 0xA0 SHL SUB DUP9 AND PUSH1 0x4 DUP3 ADD MSTORE SWAP3 SWAP1 SWAP2 DIV PUSH1 0x24 DUP4 ADD DUP2 SWAP1 MSTORE SWAP7 SWAP2 SWAP1 DUP6 SWAP1 DUP3 SWAP1 PUSH1 0x44 SWAP1 DUP3 SWAP1 DUP7 SWAP1 DUP9 AND GAS CALL SWAP1 DUP2 ISZERO PUSH2 0x527E JUMPI DUP3 SWAP2 PUSH2 0x5261 JUMPI JUMPDEST POP ISZERO PUSH2 0x521D JUMPI PUSH32 0x94CCB86446750660EC532B1BEB1FB55F5BA2FFFCA042C4C53F4C080E72595B38 SWAP4 SWAP3 SWAP2 DUP2 DUP7 PUSH2 0x5213 SWAP4 MSTORE PUSH1 0x25 DUP6 MSTORE DUP4 DUP2 KECCAK256 PUSH2 0x51E6 DUP10 DUP3 SLOAD PUSH2 0x4349 JUMP JUMPDEST SWAP1 SSTORE SLOAD AND DUP7 DUP9 DUP5 MLOAD SWAP3 PUSH2 0x51F8 DUP5 PUSH2 0x40C3 JUMP JUMPDEST PUSH1 0x8 DUP5 MSTORE PUSH8 0x1491519154949053 PUSH1 0xC2 SHL DUP8 DUP6 ADD MSTORE DUP1 DUP10 PUSH2 0x5A73 JUMP JUMPDEST MLOAD SWAP4 DUP5 MSTORE CALLER SWAP4 LOG3 SWAP1 JUMP JUMPDEST DUP3 MLOAD PUSH3 0x461BCD PUSH1 0xE5 SHL DUP2 MSTORE PUSH1 0x4 DUP2 ADD DUP6 SWAP1 MSTORE PUSH1 0x1F PUSH1 0x24 DUP3 ADD MSTORE PUSH32 0x526566657272616C20726577617264207472616E73666572206661696C656400 PUSH1 0x44 DUP3 ADD MSTORE PUSH1 0x64 SWAP1 REVERT JUMPDEST PUSH2 0x5278 SWAP2 POP DUP6 RETURNDATASIZE DUP8 GT PUSH2 0x627 JUMPI PUSH2 0x619 DUP2 DUP4 PUSH2 0x40DF JUMP JUMPDEST CODESIZE PUSH2 0x51A3 JUMP JUMPDEST DUP5 MLOAD RETURNDATASIZE DUP5 DUP3 RETURNDATACOPY RETURNDATASIZE SWAP1 REVERT JUMPDEST POP DUP4 DUP6 MSTORE PUSH1 0x10 DUP4 MSTORE PUSH1 0xFF DUP3 DUP7 KECCAK256 SLOAD AND ISZERO PUSH2 0x5141 JUMP JUMPDEST PUSH1 0x0 SWAP1 DUP2 JUMPDEST PUSH1 0x1 PUSH1 0x1 PUSH1 0xA0 SHL SUB DUP3 AND PUSH1 0x0 SWAP1 DUP2 MSTORE PUSH1 0x1B PUSH1 0x20 MSTORE PUSH1 0x40 SWAP1 KECCAK256 DUP1 SLOAD DUP3 LT ISZERO PUSH2 0x534E JUMPI PUSH1 0x6 PUSH2 0x52D1 DUP4 PUSH1 0xFF SWAP4 PUSH2 0x3FED JUMP JUMPDEST POP ADD SLOAD AND PUSH2 0x52E7 JUMPI PUSH2 0x52E2 SWAP1 PUSH2 0x4E01 JUMP JUMPDEST PUSH2 0x52A2 JUMP JUMPDEST POP SWAP1 POP PUSH1 0x1 JUMPDEST ISZERO DUP1 PUSH2 0x532C JUMPI JUMPDEST PUSH2 0x52FB JUMPI POP JUMP JUMPDEST PUSH1 0x1 PUSH1 0x1 PUSH1 0xA0 SHL SUB AND PUSH1 0x0 SWAP1 DUP2 MSTORE PUSH1 0x21 PUSH1 0x20 MSTORE PUSH1 0x40 SWAP1 KECCAK256 DUP1 SLOAD PUSH1 0xFF NOT AND SWAP1 SSTORE PUSH1 0x1F SLOAD DUP1 ISZERO PUSH2 0x4300 JUMPI PUSH1 0x0 NOT ADD PUSH1 0x1F SSTORE JUMP JUMPDEST POP PUSH1 0x1 PUSH1 0x1 PUSH1 0xA0 SHL SUB DUP2 AND PUSH1 0x0 SWAP1 DUP2 MSTORE PUSH1 0x21 PUSH1 0x20 MSTORE PUSH1 0x40 SWAP1 KECCAK256 SLOAD PUSH1 0xFF AND PUSH2 0x52F4 JUMP JUMPDEST POP POP SWAP1 PUSH2 0x52ED JUMP JUMPDEST PUSH1 0x0 DUP1 SLOAD PUSH1 0x40 DUP1 MLOAD PUSH4 0x70A08231 PUSH1 0xE0 SHL DUP2 MSTORE ADDRESS PUSH1 0x4 DUP1 DUP4 ADD SWAP2 SWAP1 SWAP2 MSTORE SWAP4 SWAP6 SWAP5 SWAP2 SWAP4 PUSH1 0x20 SWAP4 PUSH1 0x1 PUSH1 0x1 PUSH1 0xA0 SHL SUB AND SWAP2 DUP5 DUP2 PUSH1 0x24 DUP2 DUP7 GAS STATICCALL SWAP1 DUP2 ISZERO PUSH2 0x55F3 JUMPI SWAP1 DUP5 SWAP2 DUP10 SWAP2 PUSH2 0x55C2 JUMPI JUMPDEST POP LT PUSH2 0x557F JUMPI PUSH1 0xE SLOAD PUSH12 0x1F04EF12CB04CF158000000 PUSH2 0x53BD DUP6 DUP4 PUSH2 0x4349 JUMP JUMPDEST GT PUSH2 0x5546 JUMPI DUP4 SWAP1 CALLER DUP10 MSTORE PUSH1 0x15 DUP7 MSTORE PUSH1 0xFF DUP8 DUP11 KECCAK256 SLOAD AND PUSH1 0x0 EQ PUSH2 0x54D2 JUMPI POP POP PUSH1 0xF SLOAD PUSH11 0x1A784379D99DB42000000 PUSH2 0x53F4 DUP6 DUP4 PUSH2 0x4349 JUMP JUMPDEST GT PUSH2 0x548F JUMPI SWAP2 DUP4 SWAP2 PUSH2 0x540B DUP7 SWAP6 PUSH2 0x544B SWAP8 SWAP6 PUSH2 0x4349 JUMP JUMPDEST PUSH1 0xF SSTORE JUMPDEST PUSH2 0x541B DUP4 PUSH1 0xE SLOAD PUSH2 0x4349 JUMP JUMPDEST PUSH1 0xE SSTORE DUP7 MLOAD PUSH4 0xA9059CBB PUSH1 0xE0 SHL DUP2 MSTORE CALLER SWAP2 DUP2 ADD SWAP2 DUP3 MSTORE PUSH1 0x20 DUP3 ADD SWAP4 SWAP1 SWAP4 MSTORE SWAP2 SWAP5 DUP6 SWAP3 DUP4 SWAP2 DUP11 SWAP2 DUP4 SWAP2 PUSH1 0x40 SWAP1 SWAP2 ADD SWAP1 JUMP JUMPDEST SUB SWAP3 GAS CALL SWAP3 DUP4 ISZERO PUSH2 0x5486 JUMPI POP PUSH2 0x413F SWAP4 SWAP5 SWAP3 PUSH2 0x5469 JUMPI JUMPDEST POP POP PUSH2 0x4DBD JUMP JUMPDEST PUSH2 0x547F SWAP3 POP DUP1 RETURNDATASIZE LT PUSH2 0x627 JUMPI PUSH2 0x619 DUP2 DUP4 PUSH2 0x40DF JUMP JUMPDEST CODESIZE DUP1 PUSH2 0x5462 JUMP JUMPDEST MLOAD RETURNDATASIZE DUP7 DUP3 RETURNDATACOPY RETURNDATASIZE SWAP1 REVERT JUMPDEST DUP6 MLOAD PUSH3 0x461BCD PUSH1 0xE5 SHL DUP2 MSTORE DUP1 DUP4 ADD DUP7 SWAP1 MSTORE PUSH1 0x1B PUSH1 0x24 DUP3 ADD MSTORE PUSH32 0x4578636565647320776169746C69737420616C6C6F636174696F6E0000000000 PUSH1 0x44 DUP3 ADD MSTORE PUSH1 0x64 SWAP1 REVERT JUMPDEST PUSH12 0x1EEA76CF512B31616000000 SWAP2 PUSH2 0x33FC PUSH2 0x54F0 SWAP3 PUSH1 0xF SLOAD SWAP1 PUSH2 0x42F3 JUMP JUMPDEST GT PUSH2 0x5503 JUMPI SWAP2 DUP4 SWAP3 SWAP2 PUSH2 0x544B SWAP5 SWAP3 PUSH2 0x540F JUMP JUMPDEST DUP5 MLOAD PUSH3 0x461BCD PUSH1 0xE5 SHL DUP2 MSTORE SWAP1 DUP2 ADD DUP5 SWAP1 MSTORE PUSH1 0x19 PUSH1 0x24 DUP3 ADD MSTORE PUSH32 0x45786365656473207075626C696320616C6C6F636174696F6E00000000000000 PUSH1 0x44 DUP3 ADD MSTORE PUSH1 0x64 SWAP1 REVERT JUMPDEST DUP6 MLOAD PUSH3 0x461BCD PUSH1 0xE5 SHL DUP2 MSTORE DUP1 DUP4 ADD DUP7 SWAP1 MSTORE PUSH1 0x13 PUSH1 0x24 DUP3 ADD MSTORE PUSH19 0x457863656564732073616C6520737570706C79 PUSH1 0x68 SHL PUSH1 0x44 DUP3 ADD MSTORE PUSH1 0x64 SWAP1 REVERT JUMPDEST DUP5 MLOAD PUSH3 0x461BCD PUSH1 0xE5 SHL DUP2 MSTORE SWAP1 DUP2 ADD DUP5 SWAP1 MSTORE PUSH1 0x1A PUSH1 0x24 DUP3 ADD MSTORE PUSH32 0x496E73756666696369656E7420746F6B656E2062616C616E6365000000000000 PUSH1 0x44 DUP3 ADD MSTORE PUSH1 0x64 SWAP1 REVERT JUMPDEST DUP1 SWAP3 POP DUP7 DUP1 SWAP3 POP RETURNDATASIZE DUP4 GT PUSH2 0x55EC JUMPI JUMPDEST PUSH2 0x55DB DUP2 DUP4 PUSH2 0x40DF JUMP JUMPDEST DUP2 ADD SUB SLT PUSH2 0x1F04 JUMPI DUP4 SWAP1 MLOAD CODESIZE PUSH2 0x539D JUMP JUMPDEST POP RETURNDATASIZE PUSH2 0x55D1 JUMP JUMPDEST DUP7 MLOAD RETURNDATASIZE DUP11 DUP3 RETURNDATACOPY RETURNDATASIZE SWAP1 REVERT JUMPDEST PUSH1 0x17 SLOAD PUSH1 0x1 PUSH1 0x40 SHL DUP2 LT ISZERO PUSH2 0x4075 JUMPI PUSH1 0x1 SWAP1 DUP2 DUP2 ADD DUP1 PUSH1 0x17 SSTORE DUP2 LT ISZERO PUSH2 0x4009 JUMPI PUSH1 0x7 PUSH1 0x0 SWAP2 PUSH1 0x17 DUP4 MSTORE MUL SWAP2 DUP4 MLOAD DUP4 PUSH32 0xC624B66CC0138B8FABC209247F72D758E1CF3343756D543BADBF24212BED8C15 ADD SSTORE PUSH1 0xC0 PUSH32 0xC624B66CC0138B8FABC209247F72D758E1CF3343756D543BADBF24212BED8C1B PUSH32 0xC624B66CC0138B8FABC209247F72D758E1CF3343756D543BADBF24212BED8C16 DUP6 ADD SWAP5 PUSH1 0x1 DUP1 PUSH1 0xA0 SHL SUB PUSH1 0x20 SWAP7 DUP2 DUP9 DUP11 ADD MLOAD AND SWAP1 PUSH1 0x1 PUSH1 0x1 PUSH1 0x60 SHL SUB PUSH1 0xA0 SHL SWAP2 DUP3 DUP3 SLOAD AND OR SWAP1 SSTORE PUSH32 0xC624B66CC0138B8FABC209247F72D758E1CF3343756D543BADBF24212BED8C17 DUP4 ADD DUP3 PUSH1 0x40 DUP12 ADD MLOAD AND DUP3 DUP3 SLOAD AND OR SWAP1 SSTORE PUSH32 0xC624B66CC0138B8FABC209247F72D758E1CF3343756D543BADBF24212BED8C18 DUP4 ADD SWAP2 PUSH1 0x60 DUP11 ADD MLOAD AND SWAP1 DUP3 SLOAD AND OR SWAP1 SSTORE PUSH1 0x80 DUP8 ADD MLOAD PUSH32 0xC624B66CC0138B8FABC209247F72D758E1CF3343756D543BADBF24212BED8C19 DUP3 ADD SSTORE PUSH1 0xA0 DUP8 ADD MLOAD PUSH32 0xC624B66CC0138B8FABC209247F72D758E1CF3343756D543BADBF24212BED8C1A DUP3 ADD SSTORE ADD SWAP5 ADD MLOAD SWAP2 DUP3 MLOAD SWAP3 PUSH8 0xFFFFFFFFFFFFFFFF DUP5 GT PUSH2 0x5875 JUMPI PUSH2 0x578E DUP7 SLOAD PUSH2 0x401F JUMP JUMPDEST PUSH1 0x1F DUP2 GT PUSH2 0x582F JUMPI JUMPDEST POP DUP5 SWAP2 PUSH1 0x1F DUP6 GT PUSH1 0x1 EQ PUSH2 0x57D0 JUMPI SWAP4 SWAP5 POP DUP5 SWAP3 SWAP2 SWAP1 DUP4 PUSH2 0x57C5 JUMPI JUMPDEST POP POP SHL SWAP2 PUSH1 0x0 NOT SWAP1 PUSH1 0x3 SHL SHR NOT AND OR SWAP1 SSTORE JUMP JUMPDEST ADD MLOAD SWAP3 POP CODESIZE DUP1 PUSH2 0x57B2 JUMP JUMPDEST DUP7 DUP2 MSTORE DUP6 DUP2 KECCAK256 SWAP4 SWAP6 DUP6 SWAP2 PUSH1 0x1F NOT DUP4 AND SWAP2 JUMPDEST DUP9 DUP4 DUP4 LT PUSH2 0x5815 JUMPI POP POP POP LT PUSH2 0x57FC JUMPI JUMPDEST POP POP POP DUP2 SHL ADD SWAP1 SSTORE JUMP JUMPDEST ADD MLOAD PUSH1 0x0 NOT PUSH1 0xF8 DUP5 PUSH1 0x3 SHL AND SHR NOT AND SWAP1 SSTORE CODESIZE DUP1 DUP1 PUSH2 0x57F2 JUMP JUMPDEST DUP6 DUP8 ADD MLOAD DUP9 SSTORE SWAP1 SWAP7 ADD SWAP6 SWAP5 DUP6 ADD SWAP5 DUP8 SWAP4 POP SWAP1 DUP2 ADD SWAP1 PUSH2 0x57E1 JUMP JUMPDEST DUP7 DUP4 MSTORE DUP6 DUP4 KECCAK256 PUSH1 0x1F DUP7 ADD PUSH1 0x5 SHR DUP2 ADD SWAP2 DUP8 DUP8 LT PUSH2 0x586B JUMPI JUMPDEST PUSH1 0x1F ADD PUSH1 0x5 SHR ADD SWAP1 DUP5 SWAP1 JUMPDEST DUP3 DUP2 LT PUSH2 0x5860 JUMPI POP POP PUSH2 0x5797 JUMP JUMPDEST DUP5 DUP2 SSTORE ADD DUP5 SWAP1 PUSH2 0x5852 JUMP JUMPDEST SWAP1 SWAP2 POP DUP2 SWAP1 PUSH2 0x5847 JUMP JUMPDEST PUSH4 0x4E487B71 PUSH1 0xE0 SHL DUP3 MSTORE PUSH1 0x41 PUSH1 0x4 MSTORE PUSH1 0x24 DUP3 REVERT JUMPDEST DUP1 SLOAD PUSH1 0x1 PUSH1 0x40 SHL DUP2 LT ISZERO PUSH2 0x4075 JUMPI PUSH2 0x58A8 SWAP1 PUSH1 0x1 SWAP3 DUP4 DUP3 ADD DUP2 SSTORE PUSH2 0x3FED JUMP JUMPDEST PUSH2 0x59FE JUMPI DUP3 MLOAD DUP2 SSTORE PUSH1 0xC0 PUSH1 0x6 DUP4 DUP4 ADD SWAP3 PUSH1 0x1 DUP1 PUSH1 0xA0 SHL SUB PUSH1 0x20 SWAP5 DUP2 DUP7 DUP10 ADD MLOAD AND SWAP1 PUSH1 0x1 PUSH1 0x1 PUSH1 0x60 SHL SUB PUSH1 0xA0 SHL SWAP2 DUP3 DUP3 SLOAD AND OR SWAP1 SSTORE PUSH1 0x2 DUP4 ADD DUP3 PUSH1 0x40 DUP11 ADD MLOAD AND DUP3 DUP3 SLOAD AND OR SWAP1 SSTORE PUSH1 0x3 DUP4 ADD SWAP2 PUSH1 0x60 DUP10 ADD MLOAD AND SWAP1 DUP3 SLOAD AND OR SWAP1 SSTORE PUSH1 0x80 DUP7 ADD MLOAD PUSH1 0x4 DUP3 ADD SSTORE PUSH1 0xA0 DUP7 ADD MLOAD PUSH1 0x5 DUP3 ADD SSTORE ADD SWAP4 ADD MLOAD SWAP1 DUP2 MLOAD SWAP2 PUSH8 0xFFFFFFFFFFFFFFFF DUP4 GT PUSH2 0x4075 JUMPI PUSH2 0x5935 DUP6 SLOAD PUSH2 0x401F JUMP JUMPDEST PUSH1 0x1F DUP2 GT PUSH2 0x59B5 JUMPI JUMPDEST POP DUP2 PUSH1 0x1F DUP5 GT PUSH1 0x1 EQ PUSH2 0x596C JUMPI POP SWAP3 DUP3 SWAP4 SWAP2 DUP4 SWAP3 PUSH1 0x0 SWAP5 PUSH2 0x57C5 JUMPI POP POP SHL SWAP2 PUSH1 0x0 NOT SWAP1 PUSH1 0x3 SHL SHR NOT AND OR SWAP1 SSTORE JUMP JUMPDEST SWAP2 SWAP1 DUP4 PUSH1 0x1F NOT DUP2 AND DUP8 PUSH1 0x0 MSTORE DUP5 PUSH1 0x0 KECCAK256 SWAP5 PUSH1 0x0 SWAP1 JUMPDEST DUP9 DUP4 DUP4 LT PUSH2 0x599B JUMPI POP POP POP LT PUSH2 0x57FC JUMPI POP POP POP DUP2 SHL ADD SWAP1 SSTORE JUMP JUMPDEST DUP6 DUP8 ADD MLOAD DUP9 SSTORE SWAP1 SWAP7 ADD SWAP6 SWAP5 DUP6 ADD SWAP5 DUP8 SWAP4 POP SWAP1 DUP2 ADD SWAP1 PUSH2 0x5981 JUMP JUMPDEST PUSH1 0x0 DUP7 DUP2 MSTORE DUP4 DUP2 KECCAK256 PUSH1 0x1F DUP7 ADD PUSH1 0x5 SHR DUP2 ADD SWAP3 DUP6 DUP8 LT PUSH2 0x59F4 JUMPI JUMPDEST PUSH1 0x1F ADD PUSH1 0x5 SHR ADD SWAP2 DUP7 SWAP1 JUMPDEST DUP4 DUP2 LT PUSH2 0x59E9 JUMPI POP POP POP PUSH2 0x593E JUMP JUMPDEST DUP3 DUP2 SSTORE ADD DUP7 SWAP1 PUSH2 0x59DA JUMP JUMPDEST SWAP1 SWAP3 POP DUP3 SWAP1 PUSH2 0x59CF JUMP JUMPDEST PUSH4 0x4E487B71 PUSH1 0xE0 SHL PUSH1 0x0 MSTORE PUSH1 0x0 PUSH1 0x4 MSTORE PUSH1 0x24 PUSH1 0x0 REVERT JUMPDEST SWAP3 PUSH2 0x413F SWAP5 SWAP2 SWAP3 PUSH1 0x40 MLOAD SWAP5 PUSH2 0x5A28 DUP7 PUSH2 0x4059 JUMP JUMPDEST TIMESTAMP DUP7 MSTORE PUSH1 0x1 DUP1 PUSH1 0xA0 SHL SUB DUP1 SWAP2 AND SWAP5 DUP6 PUSH1 0x20 DUP9 ADD MSTORE PUSH1 0x0 PUSH1 0x40 DUP9 ADD MSTORE AND PUSH1 0x60 DUP7 ADD MSTORE PUSH1 0x80 DUP6 ADD MSTORE PUSH1 0xA0 DUP5 ADD MSTORE PUSH1 0xC0 DUP4 ADD MSTORE PUSH1 0x0 MSTORE PUSH1 0x16 PUSH1 0x20 MSTORE PUSH2 0x5A6E DUP2 PUSH1 0x40 PUSH1 0x0 KECCAK256 PUSH2 0x5889 JUMP JUMPDEST PUSH2 0x55FD JUMP JUMPDEST SWAP3 PUSH2 0x413F SWAP6 SWAP3 SWAP5 SWAP2 SWAP4 PUSH1 0x40 MLOAD SWAP6 PUSH2 0x5A89 DUP8 PUSH2 0x4059 JUMP JUMPDEST TIMESTAMP DUP8 MSTORE PUSH1 0x1 DUP1 PUSH1 0xA0 SHL SUB DUP1 DUP1 SWAP4 AND SWAP7 DUP8 PUSH1 0x20 DUP11 ADD MSTORE AND PUSH1 0x40 DUP9 ADD MSTORE AND PUSH1 0x60 DUP7 ADD MSTORE PUSH1 0x80 DUP6 ADD MSTORE PUSH1 0xA0 DUP5 ADD MSTORE PUSH1 0xC0 DUP4 ADD MSTORE PUSH1 0x0 MSTORE PUSH1 0x16 PUSH1 0x20 MSTORE PUSH2 0x5A6E DUP2 PUSH1 0x40 PUSH1 0x0 KECCAK256 PUSH2 0x5889 JUMP JUMPDEST PUSH8 0xFFFFFFFFFFFFFFFF DUP2 GT PUSH2 0x4075 JUMPI PUSH1 0x5 SHL PUSH1 0x20 ADD SWAP1 JUMP JUMPDEST SWAP1 PUSH1 0x40 MLOAD PUSH2 0x5AF4 DUP2 PUSH2 0x4059 JUMP JUMPDEST PUSH1 0xC0 PUSH1 0xFF PUSH1 0x6 DUP4 SWAP6 DUP1 SLOAD DUP6 MSTORE PUSH1 0x1 DUP2 ADD SLOAD PUSH1 0x20 DUP7 ADD MSTORE PUSH1 0x2 DUP2 ADD SLOAD PUSH1 0x40 DUP7 ADD MSTORE PUSH1 0x3 DUP2 ADD SLOAD PUSH1 0x60 DUP7 ADD MSTORE PUSH1 0x4 DUP2 ADD SLOAD PUSH1 0x80 DUP7 ADD MSTORE PUSH1 0x5 DUP2 ADD SLOAD PUSH1 0xA0 DUP7 ADD MSTORE ADD SLOAD AND ISZERO ISZERO SWAP2 ADD MSTORE JUMP JUMPDEST PUSH1 0x40 MLOAD SWAP1 PUSH2 0x5B49 DUP3 PUSH2 0x4059 JUMP JUMPDEST DUP2 PUSH1 0xC0 PUSH1 0x0 SWAP2 DUP3 DUP2 MSTORE DUP3 PUSH1 0x20 DUP3 ADD MSTORE DUP3 PUSH1 0x40 DUP3 ADD MSTORE DUP3 PUSH1 0x60 DUP3 ADD MSTORE DUP3 PUSH1 0x80 DUP3 ADD MSTORE DUP3 PUSH1 0xA0 DUP3 ADD MSTORE ADD MSTORE JUMP INVALID CALLDATACOPY PUSH27 0xADEDB6B2A771959584D10A6A36ECCB5F56B4EB3A48525F76108D26 PUSH1 0xD8 0xD4 LOG2 PUSH5 0x6970667358 0x22 SLT KECCAK256 GAS SWAP7 0xBE PUSH11 0x6FFBB8200E19B04FCB00DB 0xFB CALLDATASIZE 0xD5 DUP7 0xD PUSH14 0xD58C3CA9D394ADA0F60DA064736F PUSH13 0x63430008130033000000000000 "},"methodIdentifiers":{"DOMAIN_SEPARATOR()":"3644e515","EARLY_WITHDRAWAL_PENALTY_PERCENT()":"9c0fbd05","TOTAL_TOKENS_FOR_SALE()":"92feb849","WAITLIST_ALLOCATION()":"d8dc286a","WL_REF_TYPEHASH()":"ecb2dd74","allTransactions(uint256)":"d7ff0714","baseAPY()":"214405a9","blockedAddresses(address)":"4f93208a","bnbPriceForStablecoin()":"64f1d113","bnbPriceForToken()":"a0b3b930","bnbRatio()":"032d975b","btcAddress()":"f7d76ae5","btcRatio()":"1c042d35","buyUSDC()":"251545da","buyUSDT()":"5b365040","buyWithBNB()":"20f1fc61","buyWithBNB_Voucher((address,address,uint256,uint256),bytes)":"7df74181","buyWithBTC(uint256)":"06360b85","buyWithBTC_Voucher((address,address,uint256,uint256),bytes,uint256)":"7ea61fe3","buyWithETH(uint256)":"94dc9cf3","buyWithETH_Voucher((address,address,uint256,uint256),bytes,uint256)":"3a5d4175","buyWithSOL(uint256)":"f30ef2e5","buyWithSOL_Voucher((address,address,uint256,uint256),bytes,uint256)":"14ce670b","buyWithUSDC(uint256)":"aeccf735","buyWithUSDC_Voucher((address,address,uint256,uint256),bytes,uint256)":"a77c80aa","buyWithUSDT(uint256)":"a7c60160","buyWithUSDT_Voucher((address,address,uint256,uint256),bytes,uint256)":"2ba77022","calculateRewards(uint256)":"d3ea4350","ethAddress()":"41398b15","ethRatio()":"bc5894ba","getAllTransactions()":"27506f53","getContractInfo()":"7cc1f867","getCurrentPrice(address)":"84cc315b","getReferralInfo(address)":"21874ae2","getStakeDetails(uint256)":"963c9dd3","getStakeInfo(uint256)":"09813482","getStakingInfo()":"b40cd21d","getTokenBalances()":"a1dc9031","getTotalPenaltyCollected()":"491cc756","getUserReferrals(address)":"575cea6b","getUserStakes(address)":"842e2981","getUserStakingInfo(address)":"80933608","getUserTransactions(address)":"ef925399","harvestRewards(uint256)":"57126d0d","hasStaked(address)":"c93c8f34","minStakeAmount()":"f1887684","nextStakeId()":"75506c96","owner()":"8da5cb5b","publicInterval()":"776ff66a","referralRewardPercentage()":"920a253e","referralRewards(address)":"53aaa63b","referrals(address,uint256)":"e697b5d8","referrers(address)":"4a3b68cc","registerReferrer(address)":"9ea7685a","saleStartTime()":"1cbaee2d","saleToken()":"e985e367","setBlockStatus(address,bool)":"182a676b","setSaleStartTime(uint256)":"525f8a5c","setSaleToken(address)":"a29f481c","setSigner(address)":"6c19e783","setWaitlisted(address,bool)":"42e97cb8","signer()":"238ac933","solAddress()":"1ce24e16","solRatio()":"7a9773dc","stablecoinPriceIncrement()":"b3b94706","stakeOwners(uint256)":"fd9a11e5","stakeTokens(uint256,uint256)":"3b7b6188","tokensSold()":"518ab2a8","totalPenaltyCollected()":"2bb38809","totalRewardsDistributed()":"ee172546","totalStaked()":"817b1cd2","totalStakers()":"86989038","unstakeEarly(uint256)":"2fd04c08","unstakeTokens(uint256)":"608e4dd0","updateBTC(address,uint256)":"3a94be2d","updateBaseAPY(uint256)":"71d20fe7","updateETH(address,uint256)":"3e4e6453","updateMinStakeAmount(uint256)":"d8060cd5","updateReferralPercentage(uint256)":"4cdb312d","updateSOL(address,uint256)":"ebcd3a13","updateStablecoinPrice(uint256)":"63219c72","updateTokenPrice(uint256)":"676c0d77","updateUSDC(address,uint256)":"1e37c606","updateUSDT(address,uint256)":"b006984f","usdcAddress()":"02d45457","usdcRatio()":"6f43f373","usdtAddress()":"9ab4a445","usdtRatio()":"83fabe03","usedNonce(address)":"3e61e9dc","userStakes(address,uint256)":"b5d5b5fa","userTransactions(address,uint256)":"b842ec44","waitlistInterval()":"862dd2e2","waitlistSold()":"4561f1e1","waitlisted(address)":"794a3292","withdrawTokens(address,uint256)":"06b091f9"}}}}}