{"contracts/TokenICO.sol":{"TokenICO":{"abi":[{"inputs":[],"stateMutability":"nonpayable","type":"constructor"},{"anonymous":false,"inputs":[{"indexed":false,"internalType":"uint256","name":"oldAPY","type":"uint256"},{"indexed":false,"internalType":"uint256","name":"newAPY","type":"uint256"}],"name":"APYUpdated","type":"event"},{"anonymous":false,"inputs":[{"indexed":true,"internalType":"address","name":"user","type":"address"},{"indexed":false,"internalType":"bool","name":"blocked","type":"bool"}],"name":"AddressBlocked","type":"event"},{"anonymous":false,"inputs":[{"indexed":true,"internalType":"address","name":"user","type":"address"},{"indexed":true,"internalType":"uint256","name":"stakeId","type":"uint256"},{"indexed":false,"internalType":"uint256","name":"amount","type":"uint256"},{"indexed":false,"internalType":"uint256","name":"penalty","type":"uint256"}],"name":"EarlyUnstake","type":"event"},{"anonymous":false,"inputs":[{"indexed":false,"internalType":"uint256","name":"oldMinStake","type":"uint256"},{"indexed":false,"internalType":"uint256","name":"newMinStake","type":"uint256"}],"name":"MinStakeUpdated","type":"event"},{"anonymous":false,"inputs":[{"indexed":false,"internalType":"string","name":"priceType","type":"string"},{"indexed":false,"internalType":"uint256","name":"oldPrice","type":"uint256"},{"indexed":false,"internalType":"uint256","name":"newPrice","type":"uint256"}],"name":"PriceUpdated","type":"event"},{"anonymous":false,"inputs":[{"indexed":false,"internalType":"uint256","name":"oldPercentage","type":"uint256"},{"indexed":false,"internalType":"uint256","name":"newPercentage","type":"uint256"}],"name":"ReferralPercentageUpdated","type":"event"},{"anonymous":false,"inputs":[{"indexed":true,"internalType":"address","name":"referrer","type":"address"},{"indexed":true,"internalType":"address","name":"referee","type":"address"}],"name":"ReferralRegistered","type":"event"},{"anonymous":false,"inputs":[{"indexed":true,"internalType":"address","name":"referrer","type":"address"},{"indexed":true,"internalType":"address","name":"referee","type":"address"},{"indexed":false,"internalType":"uint256","name":"amount","type":"uint256"}],"name":"ReferralRewardPaid","type":"event"},{"anonymous":false,"inputs":[{"indexed":true,"internalType":"address","name":"user","type":"address"},{"indexed":true,"internalType":"uint256","name":"stakeId","type":"uint256"},{"indexed":false,"internalType":"uint256","name":"reward","type":"uint256"}],"name":"RewardHarvested","type":"event"},{"anonymous":false,"inputs":[{"indexed":true,"internalType":"address","name":"buyer","type":"address"},{"indexed":true,"internalType":"address","name":"stablecoin","type":"address"},{"indexed":false,"internalType":"uint256","name":"stablecoinAmount","type":"uint256"},{"indexed":false,"internalType":"uint256","name":"ethPaid","type":"uint256"},{"indexed":false,"internalType":"uint256","name":"timestamp","type":"uint256"}],"name":"StablecoinSold","type":"event"},{"anonymous":false,"inputs":[{"indexed":true,"internalType":"address","name":"user","type":"address"},{"indexed":true,"internalType":"uint256","name":"stakeId","type":"uint256"},{"indexed":false,"internalType":"uint256","name":"amount","type":"uint256"},{"indexed":false,"internalType":"uint256","name":"lockPeriod","type":"uint256"}],"name":"Staked","type":"event"},{"anonymous":false,"inputs":[{"indexed":true,"internalType":"address","name":"buyer","type":"address"},{"indexed":true,"internalType":"address","name":"paymentMethod","type":"address"},{"indexed":false,"internalType":"uint256","name":"amountPaid","type":"uint256"},{"indexed":false,"internalType":"uint256","name":"tokensBought","type":"uint256"},{"indexed":false,"internalType":"uint256","name":"timestamp","type":"uint256"}],"name":"TokensPurchased","type":"event"},{"anonymous":false,"inputs":[{"indexed":true,"internalType":"address","name":"user","type":"address"},{"indexed":true,"internalType":"uint256","name":"stakeId","type":"uint256"},{"indexed":false,"internalType":"uint256","name":"amount","type":"uint256"}],"name":"Unstaked","type":"event"},{"inputs":[],"name":"EARLY_WITHDRAWAL_PENALTY_PERCENT","outputs":[{"internalType":"uint256","name":"","type":"uint256"}],"stateMutability":"view","type":"function"},{"inputs":[{"internalType":"uint256","name":"","type":"uint256"}],"name":"allTransactions","outputs":[{"internalType":"uint256","name":"timestamp","type":"uint256"},{"internalType":"address","name":"user","type":"address"},{"internalType":"address","name":"tokenIn","type":"address"},{"internalType":"address","name":"tokenOut","type":"address"},{"internalType":"uint256","name":"amountIn","type":"uint256"},{"internalType":"uint256","name":"amountOut","type":"uint256"},{"internalType":"string","name":"transactionType","type":"string"}],"stateMutability":"view","type":"function"},{"inputs":[],"name":"baseAPY","outputs":[{"internalType":"uint256","name":"","type":"uint256"}],"stateMutability":"view","type":"function"},{"inputs":[{"internalType":"address","name":"","type":"address"}],"name":"blockedAddresses","outputs":[{"internalType":"bool","name":"","type":"bool"}],"stateMutability":"view","type":"function"},{"inputs":[],"name":"bnbAddress","outputs":[{"internalType":"address","name":"","type":"address"}],"stateMutability":"view","type":"function"},{"inputs":[],"name":"bnbRatio","outputs":[{"internalType":"uint256","name":"","type":"uint256"}],"stateMutability":"view","type":"function"},{"inputs":[],"name":"buyUSDC","outputs":[],"stateMutability":"payable","type":"function"},{"inputs":[],"name":"buyUSDT","outputs":[],"stateMutability":"payable","type":"function"},{"inputs":[{"internalType":"uint256","name":"bnbAmount","type":"uint256"}],"name":"buyWithBNB","outputs":[],"stateMutability":"nonpayable","type":"function"},{"inputs":[],"name":"buyWithETH","outputs":[],"stateMutability":"payable","type":"function"},{"inputs":[{"internalType":"uint256","name":"solAmount","type":"uint256"}],"name":"buyWithSOL","outputs":[],"stateMutability":"nonpayable","type":"function"},{"inputs":[{"internalType":"uint256","name":"usdcAmount","type":"uint256"}],"name":"buyWithUSDC","outputs":[],"stateMutability":"nonpayable","type":"function"},{"inputs":[{"internalType":"uint256","name":"usdtAmount","type":"uint256"}],"name":"buyWithUSDT","outputs":[],"stateMutability":"nonpayable","type":"function"},{"inputs":[{"internalType":"uint256","name":"stakeId","type":"uint256"}],"name":"calculateRewards","outputs":[{"internalType":"uint256","name":"","type":"uint256"}],"stateMutability":"view","type":"function"},{"inputs":[],"name":"ethPriceForStablecoin","outputs":[{"internalType":"uint256","name":"","type":"uint256"}],"stateMutability":"view","type":"function"},{"inputs":[],"name":"ethPriceForToken","outputs":[{"internalType":"uint256","name":"","type":"uint256"}],"stateMutability":"view","type":"function"},{"inputs":[],"name":"getAllTransactions","outputs":[{"components":[{"internalType":"uint256","name":"timestamp","type":"uint256"},{"internalType":"address","name":"user","type":"address"},{"internalType":"address","name":"tokenIn","type":"address"},{"internalType":"address","name":"tokenOut","type":"address"},{"internalType":"uint256","name":"amountIn","type":"uint256"},{"internalType":"uint256","name":"amountOut","type":"uint256"},{"internalType":"string","name":"transactionType","type":"string"}],"internalType":"struct TokenICO.Transaction[]","name":"","type":"tuple[]"}],"stateMutability":"view","type":"function"},{"inputs":[],"name":"getContractInfo","outputs":[{"internalType":"address","name":"tokenAddress","type":"address"},{"internalType":"uint256","name":"tokenBalance","type":"uint256"},{"internalType":"uint256","name":"ethPrice","type":"uint256"},{"internalType":"uint256","name":"stablecoinPrice","type":"uint256"},{"internalType":"uint256","name":"totalSold","type":"uint256"},{"internalType":"address","name":"usdtAddr","type":"address"},{"internalType":"address","name":"usdcAddr","type":"address"},{"internalType":"uint256","name":"usdtTokenRatio","type":"uint256"},{"internalType":"uint256","name":"usdcTokenRatio","type":"uint256"}],"stateMutability":"view","type":"function"},{"inputs":[{"internalType":"address","name":"user","type":"address"}],"name":"getReferralInfo","outputs":[{"internalType":"address","name":"referrer","type":"address"},{"internalType":"uint256","name":"totalReferrals","type":"uint256"},{"internalType":"uint256","name":"totalRewardsEarned","type":"uint256"},{"internalType":"uint256","name":"rewardPercentage","type":"uint256"}],"stateMutability":"view","type":"function"},{"inputs":[{"internalType":"uint256","name":"stakeId","type":"uint256"}],"name":"getStakeDetails","outputs":[{"internalType":"uint256","name":"lockPeriod","type":"uint256"},{"internalType":"uint256","name":"pendingRewards","type":"uint256"},{"internalType":"bool","name":"active","type":"bool"}],"stateMutability":"view","type":"function"},{"inputs":[{"internalType":"uint256","name":"stakeId","type":"uint256"}],"name":"getStakeInfo","outputs":[{"internalType":"uint256","name":"id","type":"uint256"},{"internalType":"address","name":"stakeOwnerAddr","type":"address"},{"internalType":"uint256","name":"amount","type":"uint256"},{"internalType":"uint256","name":"startTime","type":"uint256"}],"stateMutability":"view","type":"function"},{"inputs":[],"name":"getStakingInfo","outputs":[{"internalType":"uint256","name":"baseApyRate","type":"uint256"},{"internalType":"uint256","name":"minStakingAmount","type":"uint256"},{"internalType":"uint256","name":"totalTokensStaked","type":"uint256"},{"internalType":"uint256","name":"totalRewardsPaid","type":"uint256"},{"internalType":"uint256","name":"numberOfStakers","type":"uint256"}],"stateMutability":"view","type":"function"},{"inputs":[],"name":"getTokenBalances","outputs":[{"internalType":"uint256","name":"tokenBalance","type":"uint256"},{"internalType":"uint256","name":"usdtBalance","type":"uint256"},{"internalType":"uint256","name":"usdcBalance","type":"uint256"}],"stateMutability":"view","type":"function"},{"inputs":[],"name":"getTotalPenaltyCollected","outputs":[{"internalType":"uint256","name":"","type":"uint256"}],"stateMutability":"view","type":"function"},{"inputs":[{"internalType":"address","name":"referrer","type":"address"}],"name":"getUserReferrals","outputs":[{"internalType":"address[]","name":"","type":"address[]"}],"stateMutability":"view","type":"function"},{"inputs":[{"internalType":"address","name":"user","type":"address"}],"name":"getUserStakes","outputs":[{"components":[{"internalType":"uint256","name":"id","type":"uint256"},{"internalType":"uint256","name":"amount","type":"uint256"},{"internalType":"uint256","name":"startTime","type":"uint256"},{"internalType":"uint256","name":"lockPeriod","type":"uint256"},{"internalType":"uint256","name":"lastRewardCalculation","type":"uint256"},{"internalType":"uint256","name":"pendingRewards","type":"uint256"},{"internalType":"bool","name":"active","type":"bool"}],"internalType":"struct TokenICO.Stake[]","name":"","type":"tuple[]"}],"stateMutability":"view","type":"function"},{"inputs":[{"internalType":"address","name":"user","type":"address"}],"name":"getUserStakingInfo","outputs":[{"internalType":"uint256","name":"totalUserStaked","type":"uint256"},{"internalType":"uint256","name":"totalPendingRewards","type":"uint256"},{"internalType":"uint256","name":"activeStakesCount","type":"uint256"}],"stateMutability":"view","type":"function"},{"inputs":[{"internalType":"address","name":"user","type":"address"}],"name":"getUserTransactions","outputs":[{"components":[{"internalType":"uint256","name":"timestamp","type":"uint256"},{"internalType":"address","name":"user","type":"address"},{"internalType":"address","name":"tokenIn","type":"address"},{"internalType":"address","name":"tokenOut","type":"address"},{"internalType":"uint256","name":"amountIn","type":"uint256"},{"internalType":"uint256","name":"amountOut","type":"uint256"},{"internalType":"string","name":"transactionType","type":"string"}],"internalType":"struct TokenICO.Transaction[]","name":"","type":"tuple[]"}],"stateMutability":"view","type":"function"},{"inputs":[{"internalType":"uint256","name":"stakeId","type":"uint256"}],"name":"harvestRewards","outputs":[],"stateMutability":"nonpayable","type":"function"},{"inputs":[{"internalType":"address","name":"","type":"address"}],"name":"hasStaked","outputs":[{"internalType":"bool","name":"","type":"bool"}],"stateMutability":"view","type":"function"},{"inputs":[],"name":"minStakeAmount","outputs":[{"internalType":"uint256","name":"","type":"uint256"}],"stateMutability":"view","type":"function"},{"inputs":[],"name":"nextStakeId","outputs":[{"internalType":"uint256","name":"","type":"uint256"}],"stateMutability":"view","type":"function"},{"inputs":[],"name":"owner","outputs":[{"internalType":"address","name":"","type":"address"}],"stateMutability":"view","type":"function"},{"inputs":[],"name":"referralRewardPercentage","outputs":[{"internalType":"uint256","name":"","type":"uint256"}],"stateMutability":"view","type":"function"},{"inputs":[{"internalType":"address","name":"","type":"address"}],"name":"referralRewards","outputs":[{"internalType":"uint256","name":"","type":"uint256"}],"stateMutability":"view","type":"function"},{"inputs":[{"internalType":"address","name":"","type":"address"},{"internalType":"uint256","name":"","type":"uint256"}],"name":"referrals","outputs":[{"internalType":"address","name":"","type":"address"}],"stateMutability":"view","type":"function"},{"inputs":[{"internalType":"address","name":"","type":"address"}],"name":"referrers","outputs":[{"internalType":"address","name":"","type":"address"}],"stateMutability":"view","type":"function"},{"inputs":[{"internalType":"address","name":"referrer","type":"address"}],"name":"registerReferrer","outputs":[],"stateMutability":"nonpayable","type":"function"},{"inputs":[],"name":"saleToken","outputs":[{"internalType":"address","name":"","type":"address"}],"stateMutability":"view","type":"function"},{"inputs":[{"internalType":"address","name":"user","type":"address"},{"internalType":"bool","name":"blocked","type":"bool"}],"name":"setBlockStatus","outputs":[],"stateMutability":"nonpayable","type":"function"},{"inputs":[{"internalType":"address","name":"_token","type":"address"}],"name":"setSaleToken","outputs":[],"stateMutability":"nonpayable","type":"function"},{"inputs":[],"name":"solAddress","outputs":[{"internalType":"address","name":"","type":"address"}],"stateMutability":"view","type":"function"},{"inputs":[],"name":"solRatio","outputs":[{"internalType":"uint256","name":"","type":"uint256"}],"stateMutability":"view","type":"function"},{"inputs":[{"internalType":"uint256","name":"","type":"uint256"}],"name":"stakeOwners","outputs":[{"internalType":"address","name":"","type":"address"}],"stateMutability":"view","type":"function"},{"inputs":[{"internalType":"uint256","name":"amount","type":"uint256"},{"internalType":"uint256","name":"lockPeriodDays","type":"uint256"}],"name":"stakeTokens","outputs":[],"stateMutability":"nonpayable","type":"function"},{"inputs":[],"name":"tokensSold","outputs":[{"internalType":"uint256","name":"","type":"uint256"}],"stateMutability":"view","type":"function"},{"inputs":[],"name":"totalPenaltyCollected","outputs":[{"internalType":"uint256","name":"","type":"uint256"}],"stateMutability":"view","type":"function"},{"inputs":[],"name":"totalRewardsDistributed","outputs":[{"internalType":"uint256","name":"","type":"uint256"}],"stateMutability":"view","type":"function"},{"inputs":[],"name":"totalStaked","outputs":[{"internalType":"uint256","name":"","type":"uint256"}],"stateMutability":"view","type":"function"},{"inputs":[],"name":"totalStakers","outputs":[{"internalType":"uint256","name":"","type":"uint256"}],"stateMutability":"view","type":"function"},{"inputs":[{"internalType":"uint256","name":"stakeId","type":"uint256"}],"name":"unstakeEarly","outputs":[],"stateMutability":"nonpayable","type":"function"},{"inputs":[{"internalType":"uint256","name":"stakeId","type":"uint256"}],"name":"unstakeTokens","outputs":[],"stateMutability":"nonpayable","type":"function"},{"inputs":[{"internalType":"address","name":"newAddress","type":"address"},{"internalType":"uint256","name":"newRatio","type":"uint256"}],"name":"updateBNB","outputs":[],"stateMutability":"nonpayable","type":"function"},{"inputs":[{"internalType":"uint256","name":"newAPY","type":"uint256"}],"name":"updateBaseAPY","outputs":[],"stateMutability":"nonpayable","type":"function"},{"inputs":[{"internalType":"uint256","name":"newMinAmount","type":"uint256"}],"name":"updateMinStakeAmount","outputs":[],"stateMutability":"nonpayable","type":"function"},{"inputs":[{"internalType":"uint256","name":"newPercentage","type":"uint256"}],"name":"updateReferralPercentage","outputs":[],"stateMutability":"nonpayable","type":"function"},{"inputs":[{"internalType":"address","name":"newAddress","type":"address"},{"internalType":"uint256","name":"newRatio","type":"uint256"}],"name":"updateSOL","outputs":[],"stateMutability":"nonpayable","type":"function"},{"inputs":[{"internalType":"uint256","name":"newPrice","type":"uint256"}],"name":"updateStablecoinPrice","outputs":[],"stateMutability":"nonpayable","type":"function"},{"inputs":[{"internalType":"uint256","name":"newPrice","type":"uint256"}],"name":"updateTokenPrice","outputs":[],"stateMutability":"nonpayable","type":"function"},{"inputs":[{"internalType":"address","name":"newAddress","type":"address"},{"internalType":"uint256","name":"newRatio","type":"uint256"}],"name":"updateUSDC","outputs":[],"stateMutability":"nonpayable","type":"function"},{"inputs":[{"internalType":"address","name":"newAddress","type":"address"},{"internalType":"uint256","name":"newRatio","type":"uint256"}],"name":"updateUSDT","outputs":[],"stateMutability":"nonpayable","type":"function"},{"inputs":[],"name":"usdcAddress","outputs":[{"internalType":"address","name":"","type":"address"}],"stateMutability":"view","type":"function"},{"inputs":[],"name":"usdcRatio","outputs":[{"internalType":"uint256","name":"","type":"uint256"}],"stateMutability":"view","type":"function"},{"inputs":[],"name":"usdtAddress","outputs":[{"internalType":"address","name":"","type":"address"}],"stateMutability":"view","type":"function"},{"inputs":[],"name":"usdtRatio","outputs":[{"internalType":"uint256","name":"","type":"uint256"}],"stateMutability":"view","type":"function"},{"inputs":[{"internalType":"address","name":"","type":"address"},{"internalType":"uint256","name":"","type":"uint256"}],"name":"userStakes","outputs":[{"internalType":"uint256","name":"id","type":"uint256"},{"internalType":"uint256","name":"amount","type":"uint256"},{"internalType":"uint256","name":"startTime","type":"uint256"},{"internalType":"uint256","name":"lockPeriod","type":"uint256"},{"internalType":"uint256","name":"lastRewardCalculation","type":"uint256"},{"internalType":"uint256","name":"pendingRewards","type":"uint256"},{"internalType":"bool","name":"active","type":"bool"}],"stateMutability":"view","type":"function"},{"inputs":[{"internalType":"address","name":"","type":"address"},{"internalType":"uint256","name":"","type":"uint256"}],"name":"userTransactions","outputs":[{"internalType":"uint256","name":"timestamp","type":"uint256"},{"internalType":"address","name":"user","type":"address"},{"internalType":"address","name":"tokenIn","type":"address"},{"internalType":"address","name":"tokenOut","type":"address"},{"internalType":"uint256","name":"amountIn","type":"uint256"},{"internalType":"uint256","name":"amountOut","type":"uint256"},{"internalType":"string","name":"transactionType","type":"string"}],"stateMutability":"view","type":"function"},{"inputs":[{"internalType":"address","name":"_token","type":"address"},{"internalType":"uint256","name":"_amount","type":"uint256"}],"name":"withdrawTokens","outputs":[],"stateMutability":"nonpayable","type":"function"}],"evm":{"bytecode":{"linkReferences":{},"object":"60a080604052346100e75766038d7ea4c6800080600555600655600c60105568056bc75e2d6310000060115560016017556005601955336080526014600755601460085560146009556014600a5561494190816100ed823960805181818161041d015281816106f7015281816107e601528181610b3d01528181610e1301528181610f25015281816110e8015281816111e4015281816116b101528181611a6a01528181611b7a01528181611c220152818161207c015281816125200152818161293e01528181612eb401528181613052015281816131330152818161322101526133790152f35b600080fdfe6080604081815260048036101561001557600080fd5b60009260e08435811c91826302d454571461354857508163032d975b1461352857816306b091f9146133585781630981348214613288578163150d283d14613183578163182a676b146130d15781631ce24e16146130a95781631e37c60614613025578163214405a91461300557816321874ae214612fa4578163251545da14612da457816327506f5314612cc45781632bb38809146126055781632fd04c0814612995578163366b17d6146129115781633b7b618814612625578163491cc756146126055781634a3b68cc146125c95781634cdb312d146125045781634f93208a146124c5578163518ab2a8146124a557816353aaa63b1461246c57816357126d0d1461223d578163575cea6b146121925781635b36504014611f6c578163608e4dd014611c9057816363219c7214611be3578163676c0d7714611b3b5781636f43f37314611b1b57816371d20fe714611a4e57816375506c9614611a2e5781637a9773dc14611a0e5781637cc1f8671461192b5781638093360814611848578163817b1cd21461182857816383fabe0314611808578163842e29811461170057816386989038146116e05781638da5cb5b1461169b578163920a253e1461167b578163963c9dd3146115a05781639ab4a445146115765781639c0fbd05146115595781639ea7685a1461139f578163a1dc903114611229578163a29f481c146111bb578163a7c601601461102d578163aeccf73514610e6a578163b006984f14610de6578163b40cd21d14610da4578163b5d5b5fa14610d1157508063b842ec4414610c93578063c3333dfb14610a8c578063c605af5314610a6d578063c93c8f3414610a2f578063d11c583a14610a06578063d3ea4350146109df578063d7ff071414610897578063d8060cd5146107cb578063e697b5d814610772578063e985e3671461074a578063ebcd3a13146106ca578063ee172546146106ab578063ef925399146105cd578063f1887684146105ae578063f30ef2e514610369578063f34a00fb146103465763fd9a11e51461031157600080fd5b346103425760203660031901126103425735825260136020908152918190205490516001600160a01b039091168152f35b8280fd5b5050346103655781600319360112610365576020906006549051908152f35b5080fd5b5034610342576020806003193601126105aa57813590338552600c815261039660ff858720541615613949565b81156103a28115613af1565b85546001600160a01b0392906103bb90841615156139c6565b82855416801561057257633b9aca00928386029386850414171561055f576103e5600a5486613a07565b92670de0b6b3a76400009384810294818604149015171561054c5787516323b872dd60e01b8152338882019081526001600160a01b037f0000000000000000000000000000000000000000000000000000000000000000166020820152604081019290925291839183919082908c90829060600103925af1908115610542578891610515575b50156104dd5750916104d79161048f6000805160206148ec83398151915294613ff8565b9461049986614232565b6104b5828254168785858c54166104ae613ad2565b93336147ea565b5416945191829133954291846040919493926060820195825260208201520152565b0390a380f35b8460649187519162461bcd60e51b8352820152601360248201527214d3d3081d1c985b9cd9995c8819985a5b1959606a1b6044820152fd5b6105359150823d841161053b575b61052d8183613735565b810190613b7f565b3861046b565b503d610523565b87513d8a823e3d90fd5b634e487b7160e01b895260118752602489fd5b634e487b7160e01b885260118652602488fd5b865162461bcd60e51b8152808701839052601260248201527114d3d3081b9bdd0818dbdb999a59dd5c995960721b6044820152606490fd5b8380fd5b5050346103655781600319360112610365576020906011549051908152f35b5082903461036557602091826003193601126106a8576001600160a01b0392836105f561356d565b168252600d81528482209182549361060c85614846565b9561061988519788613735565b85875283870194835283832092945b8686106106405788518061063c8a826135c8565b0390f35b6007856001928b51610651816136e7565b8754815285858901541683820152856002890154168d820152856003890154166060820152868801546080820152600588015460a082015261069560068901613757565b60c0820152815201940195019492610628565b80fd5b5050346103655781600319360112610365576020906015549051908152f35b50903461034257366003190112610365576106e361356d565b60243591906001600160a01b039061071e337f000000000000000000000000000000000000000000000000000000000000000084161461385a565b1661072a8115156138cf565b61073583151561390d565b81546001600160a01b031916179055600a5580f35b505034610365578160031936011261036557905490516001600160a01b039091168152602090f35b50503461036557806003193601126103655761078c61356d565b6001600160a01b039081168352601b602052818320805460243594908510156106a857506020936107bc91613842565b92905490519260031b1c168152f35b503461034257602036600319011261034257803590610814337f00000000000000000000000000000000000000000000000000000000000000006001600160a01b03161461385a565b81156108545750907f171aabb8815c02fd00303450a77058600e3661eb75ce2e77972c0f080bc7099d91601154908060115582519182526020820152a180f35b606490602084519162461bcd60e51b8352820152602060248201527f4d696e207374616b65206d7573742062652067726561746572207468616e20306044820152fd5b50346103425760203660031901126103425735600e5481101561034257600e6007929352029061063c827fbb7b4a454dc3493923482f07822329ed19e8244eff582cc204f8554c3620c3fd01549160018060a01b0393847fbb7b4a454dc3493923482f07822329ed19e8244eff582cc204f8554c3620c3fe8201541694807fbb7b4a454dc3493923482f07822329ed19e8244eff582cc204f8554c3620c3ff83015416907fbb7b4a454dc3493923482f07822329ed19e8244eff582cc204f8554c3620c400830154167fbb7b4a454dc3493923482f07822329ed19e8244eff582cc204f8554c3620c401830154916109d47fbb7b4a454dc3493923482f07822329ed19e8244eff582cc204f8554c3620c4037fbb7b4a454dc3493923482f07822329ed19e8244eff582cc204f8554c3620c4028601549501613757565b9451978897886137fd565b5091346106a85760203660031901126106a857506109ff60209235613dac565b9051908152f35b50503461036557816003193601126103655760035490516001600160a01b039091168152602090f35b5050346103655760203660031901126103655760209160ff9082906001600160a01b03610a5a61356d565b1681526018855220541690519015158152f35b5050346103655781600319360112610365576020906005549051908152f35b503461034257602090816003193601126105aa57803590338552600c8352610aba60ff858720541615613949565b811590610ac78215613af1565b85546001600160a01b039490610ae090861615156139c6565b84600354168015610c5b57670de0b6b3a7640000938486029086820486141715610c4857610b1060095487613a07565b858102958187041490151715610c485787516323b872dd60e01b8152338582019081526001600160a01b037f0000000000000000000000000000000000000000000000000000000000000000166020820152604081019290925291839183919082908c90829060600103925af1908115610542578891610c2b575b5015610bf35750506000805160206148ec83398151915291610baf6104d792613ff8565b93610bb985614232565b610bcf81600354168684848b54166104ae613ad2565b60035416945191829133954291846040919493926060820195825260208201520152565b855162461bcd60e51b8152918201526013602482015272109390881d1c985b9cd9995c8819985a5b1959606a1b604482015260649150fd5b610c429150823d841161053b5761052d8183613735565b38610b8b565b634e487b7160e01b895260118452602489fd5b865162461bcd60e51b81528084018390526012602482015271109390881b9bdd0818dbdb999a59dd5c995960721b6044820152606490fd5b50919034610365578060031936011261036557610cae61356d565b6001600160a01b039081168352600d60205281832080549193602435928310156106a8575061063c9291610ce19161367b565b508054938060018301541695816002840154169160038401541690830154916109d4600660058601549501613757565b939050346106a857826003193601126106a857610d2c61356d565b6001600160a01b031681526012602052828120805460243592908310156106a8575090610d589161367b565b5080549260018201549260028301546003840154918401549260ff600660058701549601541695815197885260208801528601526060850152608084015260a0830152151560c0820152f35b5050503461036557816003193601126103655760a090601054906011549060145460155491601654938151958652602086015284015260608301526080820152f35b50505034610365573660031901126106a857610e0061356d565b602435906001600160a01b0390610e3a337f000000000000000000000000000000000000000000000000000000000000000084161461385a565b16610e468115156138cf565b610e5182151561390d565b6001600160601b0360a01b600154161760015560075580f35b50503461034257602036600319011261034257803590338452600c602052610e9860ff848620541615613949565b811591610ea58315613af1565b84546001600160a01b039390610ebe90851615156139c6565b8360025416610ece811515613bda565b620f4240918284029284840414171561101a57610eed60085484613a07565b93670de0b6b3a7640000948581029581870414901517156110075786516323b872dd60e01b8152339181019182526001600160a01b037f0000000000000000000000000000000000000000000000000000000000000000166020838101919091526040830194909452939291849182908a90829060600103925af18015610ffd576000805160206148ec83398151915293610f96610f9b926104d7958a91610fdf575b50613c1c565b613ff8565b93610fa585614232565b610fbb81600254168684848b54166104ae613ad2565b60025416945191829133954291846040919493926060820195825260208201520152565b610ff7915060203d811161053b5761052d8183613735565b38610f90565b85513d88823e3d90fd5b634e487b7160e01b885260119052602487fd5b634e487b7160e01b875260118452602487fd5b50503461034257602036600319011261034257803590338452600c60205261105b60ff848620541615613949565b8115916110688315613af1565b84546001600160a01b03939061108190851615156139c6565b8360015416611091811515613b3d565b620f4240918284029284840414171561101a576110b060075484613a07565b93670de0b6b3a7640000948581029581870414901517156110075786516323b872dd60e01b8152339181019182526001600160a01b037f0000000000000000000000000000000000000000000000000000000000000000166020838101919091526040830194909452939291849182908a90829060600103925af18015610ffd576000805160206148ec83398151915293610f96611159926104d7958a9161119d575b50613b97565b9361116385614232565b61117981600154168684848b54166104ae613ad2565b60015416945191829133954291846040919493926060820195825260208201520152565b6111b5915060203d811161053b5761052d8183613735565b38611153565b84346106a85760203660031901126106a8576111d561356d565b6001600160a01b039061120b337f000000000000000000000000000000000000000000000000000000000000000084161461385a565b166112178115156138cf565b81546001600160a01b03191617815580f35b50509034610342578260031936011261034257825481516370a0823160e01b808252308286015290946001600160a01b03946020938490889060249082908a165afa958615611395578296611365575b602497508481600154168751998a809288825230878301525afa97881561135b57839861132b575b509060248592600254169487519586938492835230908301525afa92831561131f5781936112ec575b50505061063c9151938493846040919493926060820195825260208201520152565b9091809350813d8311611318575b6113048183613735565b810103126106a857505161063c38806112ca565b503d6112fa565b508351903d90823e3d90fd5b9097508481813d8311611354575b6113438183613735565b8101031261034257519660246112a1565b503d611339565b86513d85823e3d90fd5b95508387813d831161138e575b61137c8183613735565b81010312610365576024965195611279565b503d611372565b85513d84823e3d90fd5b828585346103655760209081600319360112610342576113bd61356d565b90338452600c83526113d560ff828620541615613949565b6001600160a01b03918216928315611517573384146114dd57338552601a815282828620541661149057338552601a815281852080546001600160a01b03191685179055838552601b90528320805490600160401b82101561147d579061144191600182018155613842565b819291549060031b9133831b921b191617905533907f5f1ca2fcc108b751843a763e60d2201f593516109d7dbb1b700468f2d4190bb78380a380f35b634e487b7160e01b855260418652602485fd5b8590608492519162461bcd60e51b8352820152602260248201527f416c72656164792072656769737465726564207769746820612072656665727260448201526132b960f11b6064820152fd5b8590606492519162461bcd60e51b8352820152601560248201527421b0b73737ba103932b332b9103cb7bab939b2b63360591b6044820152fd5b8590606492519162461bcd60e51b8352820152601860248201527f496e76616c6964207265666572726572206164647265737300000000000000006044820152fd5b505050346103655781600319360112610365576020905160058152f35b5050503461036557816003193601126103655760015490516001600160a01b039091168152602090f35b50503461034257602090816003193601126105aa573580845260138252828420546001600160a01b0316939092906115d9851515613cdf565b6115e16148b3565b8195825b8184526012808752858520805483101561166657611604838a9261367b565b50541461161a575061161590613cc3565b6115e5565b6060985061163d93508486916116379461164d975288522061367b565b5061485e565b936116486001613d22565b613dac565b60c0858501519401511515928251948552840152820152f35b505050509361164d9150611648606096613d22565b505050346103655781600319360112610365576020906019549051908152f35b50505034610365578160031936011261036557517f00000000000000000000000000000000000000000000000000000000000000006001600160a01b03168152602090f35b505050346103655781600319360112610365576020906016549051908152f35b91505034610342576020806003193601126105aa5790916001600160a01b0361172761356d565b168452601282528084209182549161173e83614846565b9261174b82519485613735565b8084528284018095885283882088915b8383106117db575050505080519482860193838752518094528186019496915b8483106117885786860387f35b87518051875280850151878601528082015187830152606080820151908801526080808201519088015260a0808201519088015260c090810151151590870152968301969481019460019092019161177b565b6007866001926117f2859d999a9b9d9c989c61485e565b815201920192019190989695949897939761175b565b505050346103655781600319360112610365576020906007549051908152f35b505050346103655781600319360112610365576020906014549051908152f35b8385346106a857602090816003193601126106a85761186561356d565b9091829182919082906001600160a01b0316815b818652601280855288872080548310156119135760ff600661189c858d9461367b565b500154166118b5575b50506118b090613cc3565b611879565b8296946118e3839a60016118da6118b097611905968e61190b998e8d8352522061367b565b50015490613cd2565b99858a5287526118ff6118f8898d8c2061367b565b5054613dac565b90613cd2565b93613cc3565b9490886118a5565b89518981526020810186905260408101889052606090f35b929050346105aa57836003193601126105aa57835481516370a0823160e01b815230938101939093526001600160a01b039081169390602084602481885afa938415611a045786946119c8575b50610120955060055490600654600b54908260015416926002541693600754966008549881519a8b5260208b01528901526060880152608087015260a086015260c0850152830152610100820152f35b9093506020813d82116119fc575b816119e360209383613735565b810103126119f8576101209550519238611978565b8580fd5b3d91506119d6565b83513d88823e3d90fd5b50505034610365578160031936011261036557602090600a549051908152f35b505050346103655781600319360112610365576020906017549051908152f35b50503461034257602036600319011261034257803590611a98337f00000000000000000000000000000000000000000000000000000000000000006001600160a01b03161461385a565b8115611ad85750907f787a1fca55641ce34a438271930bbb9401df20db2b4f510d4f252227d85df43d91601054908060105582519182526020820152a180f35b606490602084519162461bcd60e51b8352820152601a60248201527f415059206d7573742062652067726561746572207468616e20300000000000006044820152fd5b505050346103655781600319360112610365576020906008549051908152f35b505034610342576020366003190112610342577f6e838f2a03741f5f2aff5480963b672fb0dd8430a4dc75db9b67ce009733c9fe9160a09135611ba8337f00000000000000000000000000000000000000000000000000000000000000006001600160a01b03161461385a565b611bb3811515613893565b60055491816005558051926060845260056060850152642a27a5a2a760d91b60808501526020840152820152a180f35b505034610342576020366003190112610342577f6e838f2a03741f5f2aff5480963b672fb0dd8430a4dc75db9b67ce009733c9fe9160a09135611c50337f00000000000000000000000000000000000000000000000000000000000000006001600160a01b03161461385a565b611c5b811515613893565b600654918160065580519260608452600a60608501526929aa20a12622a1a7a4a760b11b60808501526020840152820152a180f35b5050903461034257602090816003193601126105aa578291923592338552600c815260ff611cc381848820541615613949565b84865260138252828620546001600160a01b0390611ce49082163314613fba565b8694859283805b338b526012808852888c208054831015611f58579a611d0c83829c9d61367b565b505414611d255750611d1d90613cc3565b989798611ceb565b955097985050338952838552611d4e611d4088888c2061367b565b509160068093015416613d60565b3389528385526002611d6288888c2061367b565b500154338a528486526003611d7989898d2061367b565b500154906201518091828102928184041490151715611f455790611d9c91613cd2565b4210611f0b57918491611dff8a611e4595611de1611db98d613dac565b9b3384528988528b611dcd8282872061367b565b50946001809601549b3382528a522061367b565b500160ff1981541690556014611df8888254613d9f565b9055613d22565b611e0833614179565b611e128886613cd2565b8a54885163a9059cbb60e01b8152339381019384526020840192909252909485939091169183918c918391604090910190565b03925af1908115611f015790611e62918891611ee4575b50613c7f565b848415159182611ed0575b84519081527f7fc4727e062e336010f2c282598ef5f14facb3de68cf8195c2f23e1454b2b74e843392a3611e9f578480f35b7ff87cfa2d5feaea949ad65bb76a26d8553381bcb6382adbc83dedd48961bf32d991519283523392a3388080808480f35b611edc86601554613cd2565b601555611e6d565b611efb9150843d861161053b5761052d8183613735565b38611e5c565b84513d89823e3d90fd5b855162461bcd60e51b8152808301869052601460248201527314dd1a5b1b081a5b881b1bd8dac81c195c9a5bd960621b6044820152606490fd5b634e487b7160e01b8b526011845260248bfd5b505050611e4593915091611dff8693613d22565b505082600319360112610342573383526020600c8152611f9260ff848620541615613949565b341590611f9f821561398a565b6001546001600160a01b039290831690611fba821515613b3d565b620f4240908134029134830414171561217f57600654611fd991613a30565b9385516370a0823160e01b815230828201528381602481865afa8015610542578691899161214a575b501061210757855163a9059cbb60e01b81523391810191825260208201869052939291829185919082908a90829060400103925af18015610ffd577f48a1f8a6c840b32621ceab4439a2ccd00b337e705dfdcdec0b40c49abf3e6be3936120719288926120ea575b5050613b97565b6120ac8580808034867f0000000000000000000000000000000000000000000000000000000000000000165af16120a6613a50565b50613a90565b6120c68160015416846120bd613c5f565b9134903361478b565b600154935192835234602084015242604084015290921691339180606081016104d7565b6121009250803d1061053b5761052d8183613735565b388061206a565b855162461bcd60e51b8152908101839052601b60248201527f496e73756666696369656e742055534454206c697175696469747900000000006044820152606490fd5b809250858092503d8311612178575b6121638183613735565b810103126121745785905138612002565b8780fd5b503d612159565b634e487b7160e01b875260118552602487fd5b5050503461036557602080600319360112610342576001600160a01b0392836121b961356d565b168152601b825282812091835190818185549182815201908195855282852090855b81811061222757505050826121f1910383613735565b8451948186019282875251809352850193925b8281106122115785850386f35b8351871685529381019392810192600101612204565b82548a16845292840192600192830192016121db565b50503461034257602090816003193601126105aa57803591338552600c815260ff9361226e85828820541615613949565b83865260138252808620546001600160a01b0393906122909085163314613fba565b8693875b3389526012808652848a208054831015612459576122b3838a9261367b565b5054146122c957506122c490613cc3565b612294565b96976122f291929394959650338a5287875260066122e984888d2061367b565b50015416613d60565b6122fb87613dac565b95861561241e579061232c91338a5280875289600561231c8489842061367b565b500155338a52865284892061367b565b5042908301558654835163a9059cbb60e01b815233818501908152602081018890529092869284928390036040019183918c91165af19081156124145787916123f7575b50156123bd5750907ff87cfa2d5feaea949ad65bb76a26d8553381bcb6382adbc83dedd48961bf32d99160156123a7858254613cd2565b9055519283523392a36123ba6001613d22565b80f35b82606492519162461bcd60e51b8352820152601660248201527514995dd85c99081d1c985b9cd9995c8819985a5b195960521b6044820152fd5b61240e9150843d861161053b5761052d8183613735565b38612370565b83513d89823e3d90fd5b845162461bcd60e51b81528085018790526015602482015274139bc81c995dd85c991cc81d1bc81a185c9d995cdd605a1b6044820152606490fd5b5050505050505090506123ba9150613d22565b505050346103655760203660031901126103655760209181906001600160a01b0361249561356d565b168152601c845220549051908152f35b50505034610365578160031936011261036557602090600b549051908152f35b505050346103655760203660031901126103655760209160ff9082906001600160a01b036124f161356d565b168152600c855220541690519015158152f35b5050346103425760203660031901126103425780359061254e337f00000000000000000000000000000000000000000000000000000000000000006001600160a01b03161461385a565b601482116125905750907fd968a3cc702265c3ab67356df15ca21d50167b011f198b963e2a868e04e3d5e091601954908060195582519182526020820152a180f35b606490602084519162461bcd60e51b835282015260136024820152720a0cae4c6cadce8c2ceca40e8dede40d0d2ced606b1b6044820152fd5b50505034610365576020366003190112610365576020916001600160a01b03908290826125f461356d565b168152601a85522054169051908152f35b50505034610365578160031936011261036557602090600f549051908152f35b82858534610365578060031936011261036557823560243591338452602092600c845261265860ff838720541615613949565b60115483106128ce5784546001600160a01b03166126778115156139c6565b601e821480156128c4575b80156128ba575b80156128af575b156128765782516323b872dd60e01b815233818901908152306020820152604081018690529091869183919082908a90829060600103925af1908115611a0457906126e19187916128595750613c7f565b601754936126ee85613cc3565b60175582516126fc816136e7565b85815281810185815284820142815260608301858152608084019042825260a08501928b845260c086019460018652338d5260128852898d20805490600160401b82101561284557906127549160018201815561367b565b97909761283357927fb4caaf29adda3eefee3ad552a8e85058589bf834c7466cae4ee58787f70589ed9b9c9d9e926127c39897959260069795518955516001890155516002880155516003870155519085015551600584015551151591019060ff801983541691151516179055565b85875260138152828720336001600160601b0360a01b8254161790556127eb85601454613cd2565b60145533875260188152828720805460ff811615612814575b505082519485528401523392a380f35b60ff1916600117905560165461282990613cc3565b6016558780612804565b634e487b7160e01b8e528d8f5260248efd5b8f8f6041602492634e487b7160e01b835252fd5b6128709150863d881161053b5761052d8183613735565b88611e5c565b825162461bcd60e51b81528088018690526013602482015272125b9d985b1a59081b1bd8dac81c195c9a5bd9606a1b6044820152606490fd5b5061016d8214612690565b5060b48214612689565b50605a8214612682565b815162461bcd60e51b8152808701859052601a60248201527f416d6f756e742062656c6f77206d696e696d756d207374616b650000000000006044820152606490fd5b50505034610365573660031901126106a85761292b61356d565b602435906001600160a01b0390612965337f000000000000000000000000000000000000000000000000000000000000000084161461385a565b166129718115156138cf565b61297c82151561390d565b6001600160601b0360a01b600354161760035560095580f35b505091346106a8576020928360031936011261036557803590338352600c855260ff916129c783868620541615613949565b80845260138652848420546001600160a01b0396906129e99088163314613fba565b8495855b33875260128084528288208054831015612cb157612a0c83879261367b565b505414612a225750612a1d90613cc3565b6129ed565b9192939495969750338852818452612a4d612a3f82858b2061367b565b509760068099015416613d60565b3388528184526002612a6182858b2061367b565b5001543389528285526003612a7883868c2061367b565b500154906201518091828102928184041490151715612c9e5799612aa386928b9c9b98999a9b613cd2565b92612aad89613dac565b9a338952858452612ac082888b2061367b565b5091876001809401549a80974210612c44575b90612ae99291612b49989933825288522061367b565b500160ff1981541690556014612b00898254613d9f565b905598612b168b612b11878b613d9f565b613cd2565b8c54875163a9059cbb60e01b8152339381019384526020840192909252909485939091169183918e918391604090910190565b03925af1908115612c3a5797612b6a8792612baa9a8c91612c235750613c7f565b80612be3575b50508015612bb3577f9c9ec3cfa814b0112b71c20d0b0ab54dead00a99fd389c174df717d2f1d364039282519485528401523392a3613d22565b6123ba33614179565b50907f7fc4727e062e336010f2c282598ef5f14facb3de68cf8195c2f23e1454b2b74e91519283523392a3613d22565b6015612bf0828254613cd2565b905583519081527ff87cfa2d5feaea949ad65bb76a26d8553381bcb6382adbc83dedd48961bf32d9853392a38438612b70565b611efb9150873d891161053b5761052d8183613735565b83513d8b823e3d90fd5b50509193509193506005808902908982041489151715612c8b5791612ae9889492888f6064612b4999970499600f612c7d8c8254613cd2565b905599985090919250612ad3565b634e487b7160e01b8d5260118b5260248dfd5b634e487b7160e01b8a526011885260248afd5b50505050505050509150612baa90613d22565b505082346106a857806003193601126106a85790600e5490612ce582614846565b92612cf285519485613735565b828452600e8152906020907fbb7b4a454dc3493923482f07822329ed19e8244eff582cc204f8554c3620c3fd908286015b858510612d375787518061063c89826135c8565b6007846001928a51612d48816136e7565b86548152848060a01b0380868901541684830152806002890154168d8301526003880154166060820152858701546080820152600587015460a0820152612d9160068801613757565b60c0820152815201930194019391612d23565b505082600319360112610342573383526020600c8152612dca60ff848620541615613949565b341590612dd7821561398a565b6002546001600160a01b039290831690612df2821515613bda565b620f4240908134029134830414171561217f57600654612e1191613a30565b9385516370a0823160e01b815230828201528381602481865afa80156105425786918991612f73575b5010612f3057855163a9059cbb60e01b81523391810191825260208201869052939291829185919082908a90829060400103925af18015610ffd577f48a1f8a6c840b32621ceab4439a2ccd00b337e705dfdcdec0b40c49abf3e6be393612ea9928892612f13575b5050613c1c565b612ede8580808034867f0000000000000000000000000000000000000000000000000000000000000000165af16120a6613a50565b612eef8160025416846120bd613c5f565b600254935192835234602084015242604084015290921691339180606081016104d7565b612f299250803d1061053b5761052d8183613735565b3880612ea2565b855162461bcd60e51b8152908101839052601b60248201527f496e73756666696369656e742055534443206c697175696469747900000000006044820152606490fd5b809250858092503d8311612f9d575b612f8c8183613735565b810103126121745785905138612e3a565b503d612f82565b50505034610365576020366003190112610365576080916001600160a01b0380612fcc61356d565b168252601a602052828220541691601b602052808083205492601c60205220549060195492815194855260208501528301526060820152f35b505050346103655781600319360112610365576020906010549051908152f35b50505034610365573660031901126106a85761303f61356d565b602435906001600160a01b0390613079337f000000000000000000000000000000000000000000000000000000000000000084161461385a565b166130858115156138cf565b61309082151561390d565b6001600160601b0360a01b600254161760025560085580f35b5050346103425782600319360112610342575490516001600160a01b03909116815260209150f35b505050346103655780600319360112610365576130ec61356d565b906024359182151580840361317f577fdda6207409a585801122fb885dcaa8074f9a21f25ff2def680c67f01a86c2c9b92602092613177906001600160a01b039061315a337f000000000000000000000000000000000000000000000000000000000000000084161461385a565b1695868852600c85528288209060ff801983541691151516179055565b51908152a280f35b8480fd5b8285858160031936011261036557338252600c6020526131a960ff828420541615613949565b3415906131b6821561398a565b82546001600160a01b0392906131cf90841615156139c6565b670de0b6b3a764000090813402913483041417156132755783929161325761320c610f966000805160206148ec8339815191529460055490613a30565b9361321685614232565b61324b8680808034867f0000000000000000000000000000000000000000000000000000000000000000165af16120a6613a50565b855416846120bd613ad2565b513481526020810192909252426040830152339180606081016104d7565b634e487b7160e01b845260118552602484fd5b8385843461036557602090816003193601126103425735928383526013825260018060a01b038184205416926132bf841515613cdf565b6132c76148b3565b8195825b86845260128087528585208054831015613346576132ea83859261367b565b50541461330057506132fb90613cc3565b6132cb565b608098506116379350859192509361331d9488825287522061367b565b906133286001613d22565b81519381848401519301519382519586528501528301526060820152f35b50505050919050613328608095613d22565b5050903461034257806003193601126103425761337361356d565b602435907f00000000000000000000000000000000000000000000000000000000000000006001600160a01b036133ad338284161461385a565b808754169216918214613468575b835163a9059cbb60e01b81526001600160a01b03909116858201908152602081810194909452909291839182908890829060400103925af190811561345e578491613440575b501561340b578280f35b906020606492519162461bcd60e51b8352820152600f60248201526e151c985b9cd9995c8819985a5b1959608a1b6044820152fd5b613458915060203d811161053b5761052d8183613735565b38613401565b82513d86823e3d90fd5b83516370a0823160e01b81523086820152602081602481865afa801561351e5787906134e7575b61349d915060145490613d9f565b8311156133bb57835162461bcd60e51b8152602081870152601d60248201527f43616e6e6f74207769746864726177207374616b656420746f6b656e730000006044820152606490fd5b506020813d8211613516575b8161350060209383613735565b810103126135125761349d905161348f565b8680fd5b3d91506134f3565b85513d89823e3d90fd5b505050346103655781600319360112610365576020906009549051908152f35b8590346103655781600319360112610365576002546001600160a01b03168152602090f35b600435906001600160a01b038216820361358357565b600080fd5b919082519283825260005b8481106135b4575050826000602080949584010152601f8019910116010190565b602081830181015184830182015201613593565b602080820190808352835180925260409283810182858560051b8401019601946000925b8584106135fd575050505050505090565b90919293949596858061366a600193603f198682030188528b5180518252858060a01b0380858301511685840152808983015116898401526060908183015116908301526080808201519083015260a0808201519083015260c0809101519160e080928201520190613588565b9901940194019295949391906135ec565b8054821015613697576000526007602060002091020190600090565b634e487b7160e01b600052603260045260246000fd5b90600182811c921680156136dd575b60208310146136c757565b634e487b7160e01b600052602260045260246000fd5b91607f16916136bc565b60e0810190811067ffffffffffffffff82111761370357604052565b634e487b7160e01b600052604160045260246000fd5b6040810190811067ffffffffffffffff82111761370357604052565b90601f8019910116810190811067ffffffffffffffff82111761370357604052565b906040519182600082549261376b846136ad565b9081845260019485811690816000146137da5750600114613797575b505061379592500383613735565b565b9093915060005260209081600020936000915b8183106137c257505061379593508201013880613787565b855488840185015294850194879450918301916137aa565b91505061379594506020925060ff191682840152151560051b8201013880613787565b9360e0959261383f98979492865260018060a01b0392838092166020880152166040860152166060840152608083015260a08201528160c08201520190613588565b90565b80548210156136975760005260206000200190600090565b1561386157565b60405162461bcd60e51b815260206004820152600a60248201526927b7363c9037bbb732b960b11b6044820152606490fd5b1561389a57565b60405162461bcd60e51b815260206004820152600d60248201526c496e76616c696420707269636560981b6044820152606490fd5b156138d657565b60405162461bcd60e51b815260206004820152600f60248201526e496e76616c6964206164647265737360881b6044820152606490fd5b1561391457565b60405162461bcd60e51b815260206004820152600d60248201526c496e76616c696420726174696f60981b6044820152606490fd5b1561395057565b60405162461bcd60e51b81526020600482015260126024820152711059191c995cdcc81a5cc8189b1bd8dad95960721b6044820152606490fd5b1561399157565b60405162461bcd60e51b815260206004820152600d60248201526c09aeae6e840e6cadcc8408aa89609b1b6044820152606490fd5b156139cd57565b60405162461bcd60e51b815260206004820152601260248201527114d85b19481d1bdad95b881b9bdd081cd95d60721b6044820152606490fd5b81810292918115918404141715613a1a57565b634e487b7160e01b600052601160045260246000fd5b8115613a3a570490565b634e487b7160e01b600052601260045260246000fd5b3d15613a8b573d9067ffffffffffffffff82116137035760405191613a7f601f8201601f191660200184613735565b82523d6000602084013e565b606090565b15613a9757565b60405162461bcd60e51b8152602060048201526013602482015272115512081d1c985b9cd9995c8819985a5b1959606a1b6044820152606490fd5b60405190613adf82613719565b600382526242555960e81b6020830152565b15613af857565b60405162461bcd60e51b815260206004820152601d60248201527f416d6f756e74206d7573742062652067726561746572207468616e20300000006044820152606490fd5b15613b4457565b60405162461bcd60e51b81526020600482015260136024820152721554d115081b9bdd0818dbdb999a59dd5c9959606a1b6044820152606490fd5b90816020910312613583575180151581036135835790565b15613b9e57565b60405162461bcd60e51b81526020600482015260146024820152731554d115081d1c985b9cd9995c8819985a5b195960621b6044820152606490fd5b15613be157565b60405162461bcd60e51b81526020600482015260136024820152721554d110c81b9bdd0818dbdb999a59dd5c9959606a1b6044820152606490fd5b15613c2357565b60405162461bcd60e51b81526020600482015260146024820152731554d110c81d1c985b9cd9995c8819985a5b195960621b6044820152606490fd5b60405190613c6c82613719565b600482526314d1531360e21b6020830152565b15613c8657565b60405162461bcd60e51b8152602060048201526015602482015274151bdad95b881d1c985b9cd9995c8819985a5b1959605a1b6044820152606490fd5b6000198114613a1a5760010190565b91908201809211613a1a57565b15613ce657565b60405162461bcd60e51b815260206004820152601460248201527314dd185ad948191bd95cc81b9bdd08195e1a5cdd60621b6044820152606490fd5b15613d2957565b60405162461bcd60e51b815260206004820152600f60248201526e14dd185ad9481b9bdd08199bdd5b99608a1b6044820152606490fd5b15613d6757565b60405162461bcd60e51b815260206004820152601060248201526f5374616b65206e6f742061637469766560801b6044820152606490fd5b91908203918211613a1a57565b6000818152601360209081526040808320546001600160a01b031690613dd3821515613cdf565b9293849390849081808080805b888b526012808b52888c208054831015613fa157613dff83899261367b565b505414613e155750613e1090613cc3565b613de0565b96509a5050505050508285528084528582862090613e329161367b565b5060050154958386528185528083872090613e4c9161367b565b5060040154928487528286528181882090613e669161367b565b50926001809401549686895281815283838a2090613e839161367b565b506003015496895252862090613e989161367b565b506006015460ff16613eac613eb192613d22565b613d60565b428114613f9a57613ec29042613d9f565b926010548092605a8114600014613f20575050600382029180830460031490151715613f0c575061383f9392613f0063bbf81e0093613f059360011c905b613a07565b0490613cd2565b634e487b7160e01b81526011600452602490fd5b60b48103613f565750508160011b9180830460021490151715613f0c575061383f9392613f0063bbf81e0093613f059390613a07565b61016d9194935014613f7b575b5061383f9392613f0063bbf81e0093613f0593613a07565b6003839293029180830460031490151715613f0c57509061383f613f63565b5050505090565b50505096509650979350613eb1929150613eac90613d22565b15613fc157565b60405162461bcd60e51b815260206004820152600f60248201526e2737ba1039ba30b5b29037bbb732b960891b6044820152606490fd5b60003381526020601a815260018060a01b039060408281852054169283151580614164575b61402957505050505090565b606461403760195488613a07565b8654845163a9059cbb60e01b81526001600160a01b03881660048201529290910460248301819052969190859082906044908290869088165af190811561415a57829161413d575b50156140f9577f94ccb86446750660ec532b1beb1fb55f5ba2fffca042c4c53f4c080e72595b3893929181866140ef9352601c85528381206140c2898254613cd2565b9055541686888451926140d484613719565b6008845267149151915494905360c21b8785015280896147ea565b519384523393a390565b825162461bcd60e51b815260048101859052601f60248201527f526566657272616c20726577617264207472616e73666572206661696c6564006044820152606490fd5b6141549150853d871161053b5761052d8183613735565b3861407f565b84513d84823e3d90fd5b50838552600c835260ff82862054161561401d565b600090815b6001600160a01b0382166000908152601260205260409020805482101561422a5760066141ad8360ff9361367b565b500154166141c3576141be90613cc3565b61417e565b50905060015b1580614208575b6141d75750565b6001600160a01b03166000908152601860205260409020805460ff191690556016548015613a1a5760001901601655565b506001600160a01b03811660009081526018602052604090205460ff166141d0565b5050906141c9565b600080546040516370a0823160e01b8152306004820152919392916020916001600160a01b0316908281602481855afa80156143695784918791614338575b50106142f35760405163a9059cbb60e01b8152336004820152602481018490529082908290604490829089905af19182156142e857906142be92916142c69596926142cb575b5050613c7f565b600b54613cd2565b600b55565b6142e19250803d1061053b5761052d8183613735565b38806142b7565b6040513d87823e3d90fd5b60405162461bcd60e51b815260048101839052601a60248201527f496e73756666696369656e7420746f6b656e2062616c616e63650000000000006044820152606490fd5b809250848092503d8311614362575b6143518183613735565b810103126119f85783905138614271565b503d614347565b6040513d88823e3d90fd5b600e54600160401b8110156137035760019081810180600e55811015613697576007600091600e835202918351837fbb7b4a454dc3493923482f07822329ed19e8244eff582cc204f8554c3620c3fd015560c07fbb7b4a454dc3493923482f07822329ed19e8244eff582cc204f8554c3620c4037fbb7b4a454dc3493923482f07822329ed19e8244eff582cc204f8554c3620c3fe85019460018060a01b0360209681888a015116906001600160601b0360a01b91828254161790557fbb7b4a454dc3493923482f07822329ed19e8244eff582cc204f8554c3620c3ff83018260408b015116828254161790557fbb7b4a454dc3493923482f07822329ed19e8244eff582cc204f8554c3620c40083019160608a0151169082541617905560808701517fbb7b4a454dc3493923482f07822329ed19e8244eff582cc204f8554c3620c40182015560a08701517fbb7b4a454dc3493923482f07822329ed19e8244eff582cc204f8554c3620c402820155019401519182519267ffffffffffffffff84116145ec5761450586546136ad565b601f81116145a6575b508491601f851160011461454757939450849291908361453c575b50501b916000199060031b1c1916179055565b015192503880614529565b86815285812093958591601f198316915b8883831061458c5750505010614573575b505050811b019055565b015160001960f88460031b161c19169055388080614569565b858701518855909601959485019487935090810190614558565b868352858320601f860160051c8101918787106145e2575b601f0160051c019084905b8281106145d757505061450e565b8481550184906145c9565b90915081906145be565b634e487b7160e01b82526041600452602482fd5b8054600160401b8110156137035761461f90600192838201815561367b565b614775578251815560c060068383019260018060a01b03602094818689015116906001600160601b0360a01b9182825416179055600283018260408a015116828254161790556003830191606089015116908254161790556080860151600482015560a08601516005820155019301519081519167ffffffffffffffff8311613703576146ac85546136ad565b601f811161472c575b5081601f84116001146146e3575092829391839260009461453c5750501b916000199060031b1c1916179055565b919083601f1981168760005284600020946000905b88838310614712575050501061457357505050811b019055565b8587015188559096019594850194879350908101906146f8565b6000868152838120601f860160051c81019285871061476b575b601f0160051c019186905b838110614760575050506146b5565b828155018690614751565b9092508290614746565b634e487b7160e01b600052600060045260246000fd5b926137959491926040519461479f866136e7565b42865260018060a01b038091169485602088015260006040880152166060860152608085015260a084015260c0830152600052600d6020526147e5816040600020614600565b614374565b92613795959294919360405195614800876136e7565b42875260018060a01b0380809316968760208a0152166040880152166060860152608085015260a084015260c0830152600052600d6020526147e5816040600020614600565b67ffffffffffffffff81116137035760051b60200190565b9060405161486b816136e7565b60c060ff600683958054855260018101546020860152600281015460408601526003810154606086015260048101546080860152600581015460a08601520154161515910152565b604051906148c0826136e7565b8160c06000918281528260208201528260408201528260608201528260808201528260a0820152015256fe377aadedb6b2a771959584d10a6a36eccb5f56b4eb3a48525f76108d2660d8d4a2646970667358221220fcd6d8d06931b99c344800b101d5dfc79b97fb52b8c050aba3ab3a20d74582f464736f6c63430008130033","opcodes":"PUSH1 0xA0 DUP1 PUSH1 0x40 MSTORE CALLVALUE PUSH2 0xE7 JUMPI PUSH7 0x38D7EA4C68000 DUP1 PUSH1 0x5 SSTORE PUSH1 0x6 SSTORE PUSH1 0xC PUSH1 0x10 SSTORE PUSH9 0x56BC75E2D63100000 PUSH1 0x11 SSTORE PUSH1 0x1 PUSH1 0x17 SSTORE PUSH1 0x5 PUSH1 0x19 SSTORE CALLER PUSH1 0x80 MSTORE PUSH1 0x14 PUSH1 0x7 SSTORE PUSH1 0x14 PUSH1 0x8 SSTORE PUSH1 0x14 PUSH1 0x9 SSTORE PUSH1 0x14 PUSH1 0xA SSTORE PUSH2 0x4941 SWAP1 DUP2 PUSH2 0xED DUP3 CODECOPY PUSH1 0x80 MLOAD DUP2 DUP2 DUP2 PUSH2 0x41D ADD MSTORE DUP2 DUP2 PUSH2 0x6F7 ADD MSTORE DUP2 DUP2 PUSH2 0x7E6 ADD MSTORE DUP2 DUP2 PUSH2 0xB3D ADD MSTORE DUP2 DUP2 PUSH2 0xE13 ADD MSTORE DUP2 DUP2 PUSH2 0xF25 ADD MSTORE DUP2 DUP2 PUSH2 0x10E8 ADD MSTORE DUP2 DUP2 PUSH2 0x11E4 ADD MSTORE DUP2 DUP2 PUSH2 0x16B1 ADD MSTORE DUP2 DUP2 PUSH2 0x1A6A ADD MSTORE DUP2 DUP2 PUSH2 0x1B7A ADD MSTORE DUP2 DUP2 PUSH2 0x1C22 ADD MSTORE DUP2 DUP2 PUSH2 0x207C ADD MSTORE DUP2 DUP2 PUSH2 0x2520 ADD MSTORE DUP2 DUP2 PUSH2 0x293E ADD MSTORE DUP2 DUP2 PUSH2 0x2EB4 ADD MSTORE DUP2 DUP2 PUSH2 0x3052 ADD MSTORE DUP2 DUP2 PUSH2 0x3133 ADD MSTORE DUP2 DUP2 PUSH2 0x3221 ADD MSTORE PUSH2 0x3379 ADD MSTORE RETURN JUMPDEST PUSH1 0x0 DUP1 REVERT INVALID PUSH1 0x80 PUSH1 0x40 DUP2 DUP2 MSTORE PUSH1 0x4 DUP1 CALLDATASIZE LT ISZERO PUSH2 0x15 JUMPI PUSH1 0x0 DUP1 REVERT JUMPDEST PUSH1 0x0 SWAP3 PUSH1 0xE0 DUP5 CALLDATALOAD DUP2 SHR SWAP2 DUP3 PUSH4 0x2D45457 EQ PUSH2 0x3548 JUMPI POP DUP2 PUSH4 0x32D975B EQ PUSH2 0x3528 JUMPI DUP2 PUSH4 0x6B091F9 EQ PUSH2 0x3358 JUMPI DUP2 PUSH4 0x9813482 EQ PUSH2 0x3288 JUMPI DUP2 PUSH4 0x150D283D EQ PUSH2 0x3183 JUMPI DUP2 PUSH4 0x182A676B EQ PUSH2 0x30D1 JUMPI DUP2 PUSH4 0x1CE24E16 EQ PUSH2 0x30A9 JUMPI DUP2 PUSH4 0x1E37C606 EQ PUSH2 0x3025 JUMPI DUP2 PUSH4 0x214405A9 EQ PUSH2 0x3005 JUMPI DUP2 PUSH4 0x21874AE2 EQ PUSH2 0x2FA4 JUMPI DUP2 PUSH4 0x251545DA EQ PUSH2 0x2DA4 JUMPI DUP2 PUSH4 0x27506F53 EQ PUSH2 0x2CC4 JUMPI DUP2 PUSH4 0x2BB38809 EQ PUSH2 0x2605 JUMPI DUP2 PUSH4 0x2FD04C08 EQ PUSH2 0x2995 JUMPI DUP2 PUSH4 0x366B17D6 EQ PUSH2 0x2911 JUMPI DUP2 PUSH4 0x3B7B6188 EQ PUSH2 0x2625 JUMPI DUP2 PUSH4 0x491CC756 EQ PUSH2 0x2605 JUMPI DUP2 PUSH4 0x4A3B68CC EQ PUSH2 0x25C9 JUMPI DUP2 PUSH4 0x4CDB312D EQ PUSH2 0x2504 JUMPI DUP2 PUSH4 0x4F93208A EQ PUSH2 0x24C5 JUMPI DUP2 PUSH4 0x518AB2A8 EQ PUSH2 0x24A5 JUMPI DUP2 PUSH4 0x53AAA63B EQ PUSH2 0x246C JUMPI DUP2 PUSH4 0x57126D0D EQ PUSH2 0x223D JUMPI DUP2 PUSH4 0x575CEA6B EQ PUSH2 0x2192 JUMPI DUP2 PUSH4 0x5B365040 EQ PUSH2 0x1F6C JUMPI DUP2 PUSH4 0x608E4DD0 EQ PUSH2 0x1C90 JUMPI DUP2 PUSH4 0x63219C72 EQ PUSH2 0x1BE3 JUMPI DUP2 PUSH4 0x676C0D77 EQ PUSH2 0x1B3B JUMPI DUP2 PUSH4 0x6F43F373 EQ PUSH2 0x1B1B JUMPI DUP2 PUSH4 0x71D20FE7 EQ PUSH2 0x1A4E JUMPI DUP2 PUSH4 0x75506C96 EQ PUSH2 0x1A2E JUMPI DUP2 PUSH4 0x7A9773DC EQ PUSH2 0x1A0E JUMPI DUP2 PUSH4 0x7CC1F867 EQ PUSH2 0x192B JUMPI DUP2 PUSH4 0x80933608 EQ PUSH2 0x1848 JUMPI DUP2 PUSH4 0x817B1CD2 EQ PUSH2 0x1828 JUMPI DUP2 PUSH4 0x83FABE03 EQ PUSH2 0x1808 JUMPI DUP2 PUSH4 0x842E2981 EQ PUSH2 0x1700 JUMPI DUP2 PUSH4 0x86989038 EQ PUSH2 0x16E0 JUMPI DUP2 PUSH4 0x8DA5CB5B EQ PUSH2 0x169B JUMPI DUP2 PUSH4 0x920A253E EQ PUSH2 0x167B JUMPI DUP2 PUSH4 0x963C9DD3 EQ PUSH2 0x15A0 JUMPI DUP2 PUSH4 0x9AB4A445 EQ PUSH2 0x1576 JUMPI DUP2 PUSH4 0x9C0FBD05 EQ PUSH2 0x1559 JUMPI DUP2 PUSH4 0x9EA7685A EQ PUSH2 0x139F JUMPI DUP2 PUSH4 0xA1DC9031 EQ PUSH2 0x1229 JUMPI DUP2 PUSH4 0xA29F481C EQ PUSH2 0x11BB JUMPI DUP2 PUSH4 0xA7C60160 EQ PUSH2 0x102D JUMPI DUP2 PUSH4 0xAECCF735 EQ PUSH2 0xE6A JUMPI DUP2 PUSH4 0xB006984F EQ PUSH2 0xDE6 JUMPI DUP2 PUSH4 0xB40CD21D EQ PUSH2 0xDA4 JUMPI DUP2 PUSH4 0xB5D5B5FA EQ PUSH2 0xD11 JUMPI POP DUP1 PUSH4 0xB842EC44 EQ PUSH2 0xC93 JUMPI DUP1 PUSH4 0xC3333DFB EQ PUSH2 0xA8C JUMPI DUP1 PUSH4 0xC605AF53 EQ PUSH2 0xA6D JUMPI DUP1 PUSH4 0xC93C8F34 EQ PUSH2 0xA2F JUMPI DUP1 PUSH4 0xD11C583A EQ PUSH2 0xA06 JUMPI DUP1 PUSH4 0xD3EA4350 EQ PUSH2 0x9DF JUMPI DUP1 PUSH4 0xD7FF0714 EQ PUSH2 0x897 JUMPI DUP1 PUSH4 0xD8060CD5 EQ PUSH2 0x7CB JUMPI DUP1 PUSH4 0xE697B5D8 EQ PUSH2 0x772 JUMPI DUP1 PUSH4 0xE985E367 EQ PUSH2 0x74A JUMPI DUP1 PUSH4 0xEBCD3A13 EQ PUSH2 0x6CA JUMPI DUP1 PUSH4 0xEE172546 EQ PUSH2 0x6AB JUMPI DUP1 PUSH4 0xEF925399 EQ PUSH2 0x5CD JUMPI DUP1 PUSH4 0xF1887684 EQ PUSH2 0x5AE JUMPI DUP1 PUSH4 0xF30EF2E5 EQ PUSH2 0x369 JUMPI DUP1 PUSH4 0xF34A00FB EQ PUSH2 0x346 JUMPI PUSH4 0xFD9A11E5 EQ PUSH2 0x311 JUMPI PUSH1 0x0 DUP1 REVERT JUMPDEST CALLVALUE PUSH2 0x342 JUMPI PUSH1 0x20 CALLDATASIZE PUSH1 0x3 NOT ADD SLT PUSH2 0x342 JUMPI CALLDATALOAD DUP3 MSTORE PUSH1 0x13 PUSH1 0x20 SWAP1 DUP2 MSTORE SWAP2 DUP2 SWAP1 KECCAK256 SLOAD SWAP1 MLOAD PUSH1 0x1 PUSH1 0x1 PUSH1 0xA0 SHL SUB SWAP1 SWAP2 AND DUP2 MSTORE RETURN JUMPDEST DUP3 DUP1 REVERT JUMPDEST POP POP CALLVALUE PUSH2 0x365 JUMPI DUP2 PUSH1 0x3 NOT CALLDATASIZE ADD SLT PUSH2 0x365 JUMPI PUSH1 0x20 SWAP1 PUSH1 0x6 SLOAD SWAP1 MLOAD SWAP1 DUP2 MSTORE RETURN JUMPDEST POP DUP1 REVERT JUMPDEST POP CALLVALUE PUSH2 0x342 JUMPI PUSH1 0x20 DUP1 PUSH1 0x3 NOT CALLDATASIZE ADD SLT PUSH2 0x5AA JUMPI DUP2 CALLDATALOAD SWAP1 CALLER DUP6 MSTORE PUSH1 0xC DUP2 MSTORE PUSH2 0x396 PUSH1 0xFF DUP6 DUP8 KECCAK256 SLOAD AND ISZERO PUSH2 0x3949 JUMP JUMPDEST DUP2 ISZERO PUSH2 0x3A2 DUP2 ISZERO PUSH2 0x3AF1 JUMP JUMPDEST DUP6 SLOAD PUSH1 0x1 PUSH1 0x1 PUSH1 0xA0 SHL SUB SWAP3 SWAP1 PUSH2 0x3BB SWAP1 DUP5 AND ISZERO ISZERO PUSH2 0x39C6 JUMP JUMPDEST DUP3 DUP6 SLOAD AND DUP1 ISZERO PUSH2 0x572 JUMPI PUSH4 0x3B9ACA00 SWAP3 DUP4 DUP7 MUL SWAP4 DUP7 DUP6 DIV EQ OR ISZERO PUSH2 0x55F JUMPI PUSH2 0x3E5 PUSH1 0xA SLOAD DUP7 PUSH2 0x3A07 JUMP JUMPDEST SWAP3 PUSH8 0xDE0B6B3A7640000 SWAP4 DUP5 DUP2 MUL SWAP5 DUP2 DUP7 DIV EQ SWAP1 ISZERO OR ISZERO PUSH2 0x54C JUMPI DUP8 MLOAD PUSH4 0x23B872DD PUSH1 0xE0 SHL DUP2 MSTORE CALLER DUP9 DUP3 ADD SWAP1 DUP2 MSTORE PUSH1 0x1 PUSH1 0x1 PUSH1 0xA0 SHL SUB PUSH32 0x0 AND PUSH1 0x20 DUP3 ADD MSTORE PUSH1 0x40 DUP2 ADD SWAP3 SWAP1 SWAP3 MSTORE SWAP2 DUP4 SWAP2 DUP4 SWAP2 SWAP1 DUP3 SWAP1 DUP13 SWAP1 DUP3 SWAP1 PUSH1 0x60 ADD SUB SWAP3 GAS CALL SWAP1 DUP2 ISZERO PUSH2 0x542 JUMPI DUP9 SWAP2 PUSH2 0x515 JUMPI JUMPDEST POP ISZERO PUSH2 0x4DD JUMPI POP SWAP2 PUSH2 0x4D7 SWAP2 PUSH2 0x48F PUSH1 0x0 DUP1 MLOAD PUSH1 0x20 PUSH2 0x48EC DUP4 CODECOPY DUP2 MLOAD SWAP2 MSTORE SWAP5 PUSH2 0x3FF8 JUMP JUMPDEST SWAP5 PUSH2 0x499 DUP7 PUSH2 0x4232 JUMP JUMPDEST PUSH2 0x4B5 DUP3 DUP3 SLOAD AND DUP8 DUP6 DUP6 DUP13 SLOAD AND PUSH2 0x4AE PUSH2 0x3AD2 JUMP JUMPDEST SWAP4 CALLER PUSH2 0x47EA JUMP JUMPDEST SLOAD AND SWAP5 MLOAD SWAP2 DUP3 SWAP2 CALLER SWAP6 TIMESTAMP SWAP2 DUP5 PUSH1 0x40 SWAP2 SWAP5 SWAP4 SWAP3 PUSH1 0x60 DUP3 ADD SWAP6 DUP3 MSTORE PUSH1 0x20 DUP3 ADD MSTORE ADD MSTORE JUMP JUMPDEST SUB SWAP1 LOG3 DUP1 RETURN JUMPDEST DUP5 PUSH1 0x64 SWAP2 DUP8 MLOAD SWAP2 PUSH3 0x461BCD PUSH1 0xE5 SHL DUP4 MSTORE DUP3 ADD MSTORE PUSH1 0x13 PUSH1 0x24 DUP3 ADD MSTORE PUSH19 0x14D3D3081D1C985B9CD9995C8819985A5B1959 PUSH1 0x6A SHL PUSH1 0x44 DUP3 ADD MSTORE REVERT JUMPDEST PUSH2 0x535 SWAP2 POP DUP3 RETURNDATASIZE DUP5 GT PUSH2 0x53B JUMPI JUMPDEST PUSH2 0x52D DUP2 DUP4 PUSH2 0x3735 JUMP JUMPDEST DUP2 ADD SWAP1 PUSH2 0x3B7F JUMP JUMPDEST CODESIZE PUSH2 0x46B JUMP JUMPDEST POP RETURNDATASIZE PUSH2 0x523 JUMP JUMPDEST DUP8 MLOAD RETURNDATASIZE DUP11 DUP3 RETURNDATACOPY RETURNDATASIZE SWAP1 REVERT JUMPDEST PUSH4 0x4E487B71 PUSH1 0xE0 SHL DUP10 MSTORE PUSH1 0x11 DUP8 MSTORE PUSH1 0x24 DUP10 REVERT JUMPDEST PUSH4 0x4E487B71 PUSH1 0xE0 SHL DUP9 MSTORE PUSH1 0x11 DUP7 MSTORE PUSH1 0x24 DUP9 REVERT JUMPDEST DUP7 MLOAD PUSH3 0x461BCD PUSH1 0xE5 SHL DUP2 MSTORE DUP1 DUP8 ADD DUP4 SWAP1 MSTORE PUSH1 0x12 PUSH1 0x24 DUP3 ADD MSTORE PUSH18 0x14D3D3081B9BDD0818DBDB999A59DD5C9959 PUSH1 0x72 SHL PUSH1 0x44 DUP3 ADD MSTORE PUSH1 0x64 SWAP1 REVERT JUMPDEST DUP4 DUP1 REVERT JUMPDEST POP POP CALLVALUE PUSH2 0x365 JUMPI DUP2 PUSH1 0x3 NOT CALLDATASIZE ADD SLT PUSH2 0x365 JUMPI PUSH1 0x20 SWAP1 PUSH1 0x11 SLOAD SWAP1 MLOAD SWAP1 DUP2 MSTORE RETURN JUMPDEST POP DUP3 SWAP1 CALLVALUE PUSH2 0x365 JUMPI PUSH1 0x20 SWAP2 DUP3 PUSH1 0x3 NOT CALLDATASIZE ADD SLT PUSH2 0x6A8 JUMPI PUSH1 0x1 PUSH1 0x1 PUSH1 0xA0 SHL SUB SWAP3 DUP4 PUSH2 0x5F5 PUSH2 0x356D JUMP JUMPDEST AND DUP3 MSTORE PUSH1 0xD DUP2 MSTORE DUP5 DUP3 KECCAK256 SWAP2 DUP3 SLOAD SWAP4 PUSH2 0x60C DUP6 PUSH2 0x4846 JUMP JUMPDEST SWAP6 PUSH2 0x619 DUP9 MLOAD SWAP8 DUP9 PUSH2 0x3735 JUMP JUMPDEST DUP6 DUP8 MSTORE DUP4 DUP8 ADD SWAP5 DUP4 MSTORE DUP4 DUP4 KECCAK256 SWAP3 SWAP5 JUMPDEST DUP7 DUP7 LT PUSH2 0x640 JUMPI DUP9 MLOAD DUP1 PUSH2 0x63C DUP11 DUP3 PUSH2 0x35C8 JUMP JUMPDEST SUB SWAP1 RETURN JUMPDEST PUSH1 0x7 DUP6 PUSH1 0x1 SWAP3 DUP12 MLOAD PUSH2 0x651 DUP2 PUSH2 0x36E7 JUMP JUMPDEST DUP8 SLOAD DUP2 MSTORE DUP6 DUP6 DUP10 ADD SLOAD AND DUP4 DUP3 ADD MSTORE DUP6 PUSH1 0x2 DUP10 ADD SLOAD AND DUP14 DUP3 ADD MSTORE DUP6 PUSH1 0x3 DUP10 ADD SLOAD AND PUSH1 0x60 DUP3 ADD MSTORE DUP7 DUP9 ADD SLOAD PUSH1 0x80 DUP3 ADD MSTORE PUSH1 0x5 DUP9 ADD SLOAD PUSH1 0xA0 DUP3 ADD MSTORE PUSH2 0x695 PUSH1 0x6 DUP10 ADD PUSH2 0x3757 JUMP JUMPDEST PUSH1 0xC0 DUP3 ADD MSTORE DUP2 MSTORE ADD SWAP5 ADD SWAP6 ADD SWAP5 SWAP3 PUSH2 0x628 JUMP JUMPDEST DUP1 REVERT JUMPDEST POP POP CALLVALUE PUSH2 0x365 JUMPI DUP2 PUSH1 0x3 NOT CALLDATASIZE ADD SLT PUSH2 0x365 JUMPI PUSH1 0x20 SWAP1 PUSH1 0x15 SLOAD SWAP1 MLOAD SWAP1 DUP2 MSTORE RETURN JUMPDEST POP SWAP1 CALLVALUE PUSH2 0x342 JUMPI CALLDATASIZE PUSH1 0x3 NOT ADD SLT PUSH2 0x365 JUMPI PUSH2 0x6E3 PUSH2 0x356D JUMP JUMPDEST PUSH1 0x24 CALLDATALOAD SWAP2 SWAP1 PUSH1 0x1 PUSH1 0x1 PUSH1 0xA0 SHL SUB SWAP1 PUSH2 0x71E CALLER PUSH32 0x0 DUP5 AND EQ PUSH2 0x385A JUMP JUMPDEST AND PUSH2 0x72A DUP2 ISZERO ISZERO PUSH2 0x38CF JUMP JUMPDEST PUSH2 0x735 DUP4 ISZERO ISZERO PUSH2 0x390D JUMP JUMPDEST DUP2 SLOAD PUSH1 0x1 PUSH1 0x1 PUSH1 0xA0 SHL SUB NOT AND OR SWAP1 SSTORE PUSH1 0xA SSTORE DUP1 RETURN JUMPDEST POP POP CALLVALUE PUSH2 0x365 JUMPI DUP2 PUSH1 0x3 NOT CALLDATASIZE ADD SLT PUSH2 0x365 JUMPI SWAP1 SLOAD SWAP1 MLOAD PUSH1 0x1 PUSH1 0x1 PUSH1 0xA0 SHL SUB SWAP1 SWAP2 AND DUP2 MSTORE PUSH1 0x20 SWAP1 RETURN JUMPDEST POP POP CALLVALUE PUSH2 0x365 JUMPI DUP1 PUSH1 0x3 NOT CALLDATASIZE ADD SLT PUSH2 0x365 JUMPI PUSH2 0x78C PUSH2 0x356D JUMP JUMPDEST PUSH1 0x1 PUSH1 0x1 PUSH1 0xA0 SHL SUB SWAP1 DUP2 AND DUP4 MSTORE PUSH1 0x1B PUSH1 0x20 MSTORE DUP2 DUP4 KECCAK256 DUP1 SLOAD PUSH1 0x24 CALLDATALOAD SWAP5 SWAP1 DUP6 LT ISZERO PUSH2 0x6A8 JUMPI POP PUSH1 0x20 SWAP4 PUSH2 0x7BC SWAP2 PUSH2 0x3842 JUMP JUMPDEST SWAP3 SWAP1 SLOAD SWAP1 MLOAD SWAP3 PUSH1 0x3 SHL SHR AND DUP2 MSTORE RETURN JUMPDEST POP CALLVALUE PUSH2 0x342 JUMPI PUSH1 0x20 CALLDATASIZE PUSH1 0x3 NOT ADD SLT PUSH2 0x342 JUMPI DUP1 CALLDATALOAD SWAP1 PUSH2 0x814 CALLER PUSH32 0x0 PUSH1 0x1 PUSH1 0x1 PUSH1 0xA0 SHL SUB AND EQ PUSH2 0x385A JUMP JUMPDEST DUP2 ISZERO PUSH2 0x854 JUMPI POP SWAP1 PUSH32 0x171AABB8815C02FD00303450A77058600E3661EB75CE2E77972C0F080BC7099D SWAP2 PUSH1 0x11 SLOAD SWAP1 DUP1 PUSH1 0x11 SSTORE DUP3 MLOAD SWAP2 DUP3 MSTORE PUSH1 0x20 DUP3 ADD MSTORE LOG1 DUP1 RETURN JUMPDEST PUSH1 0x64 SWAP1 PUSH1 0x20 DUP5 MLOAD SWAP2 PUSH3 0x461BCD PUSH1 0xE5 SHL DUP4 MSTORE DUP3 ADD MSTORE PUSH1 0x20 PUSH1 0x24 DUP3 ADD MSTORE PUSH32 0x4D696E207374616B65206D7573742062652067726561746572207468616E2030 PUSH1 0x44 DUP3 ADD MSTORE REVERT JUMPDEST POP CALLVALUE PUSH2 0x342 JUMPI PUSH1 0x20 CALLDATASIZE PUSH1 0x3 NOT ADD SLT PUSH2 0x342 JUMPI CALLDATALOAD PUSH1 0xE SLOAD DUP2 LT ISZERO PUSH2 0x342 JUMPI PUSH1 0xE PUSH1 0x7 SWAP3 SWAP4 MSTORE MUL SWAP1 PUSH2 0x63C DUP3 PUSH32 0xBB7B4A454DC3493923482F07822329ED19E8244EFF582CC204F8554C3620C3FD ADD SLOAD SWAP2 PUSH1 0x1 DUP1 PUSH1 0xA0 SHL SUB SWAP4 DUP5 PUSH32 0xBB7B4A454DC3493923482F07822329ED19E8244EFF582CC204F8554C3620C3FE DUP3 ADD SLOAD AND SWAP5 DUP1 PUSH32 0xBB7B4A454DC3493923482F07822329ED19E8244EFF582CC204F8554C3620C3FF DUP4 ADD SLOAD AND SWAP1 PUSH32 0xBB7B4A454DC3493923482F07822329ED19E8244EFF582CC204F8554C3620C400 DUP4 ADD SLOAD AND PUSH32 0xBB7B4A454DC3493923482F07822329ED19E8244EFF582CC204F8554C3620C401 DUP4 ADD SLOAD SWAP2 PUSH2 0x9D4 PUSH32 0xBB7B4A454DC3493923482F07822329ED19E8244EFF582CC204F8554C3620C403 PUSH32 0xBB7B4A454DC3493923482F07822329ED19E8244EFF582CC204F8554C3620C402 DUP7 ADD SLOAD SWAP6 ADD PUSH2 0x3757 JUMP JUMPDEST SWAP5 MLOAD SWAP8 DUP9 SWAP8 DUP9 PUSH2 0x37FD JUMP JUMPDEST POP SWAP2 CALLVALUE PUSH2 0x6A8 JUMPI PUSH1 0x20 CALLDATASIZE PUSH1 0x3 NOT ADD SLT PUSH2 0x6A8 JUMPI POP PUSH2 0x9FF PUSH1 0x20 SWAP3 CALLDATALOAD PUSH2 0x3DAC JUMP JUMPDEST SWAP1 MLOAD SWAP1 DUP2 MSTORE RETURN JUMPDEST POP POP CALLVALUE PUSH2 0x365 JUMPI DUP2 PUSH1 0x3 NOT CALLDATASIZE ADD SLT PUSH2 0x365 JUMPI PUSH1 0x3 SLOAD SWAP1 MLOAD PUSH1 0x1 PUSH1 0x1 PUSH1 0xA0 SHL SUB SWAP1 SWAP2 AND DUP2 MSTORE PUSH1 0x20 SWAP1 RETURN JUMPDEST POP POP CALLVALUE PUSH2 0x365 JUMPI PUSH1 0x20 CALLDATASIZE PUSH1 0x3 NOT ADD SLT PUSH2 0x365 JUMPI PUSH1 0x20 SWAP2 PUSH1 0xFF SWAP1 DUP3 SWAP1 PUSH1 0x1 PUSH1 0x1 PUSH1 0xA0 SHL SUB PUSH2 0xA5A PUSH2 0x356D JUMP JUMPDEST AND DUP2 MSTORE PUSH1 0x18 DUP6 MSTORE KECCAK256 SLOAD AND SWAP1 MLOAD SWAP1 ISZERO ISZERO DUP2 MSTORE RETURN JUMPDEST POP POP CALLVALUE PUSH2 0x365 JUMPI DUP2 PUSH1 0x3 NOT CALLDATASIZE ADD SLT PUSH2 0x365 JUMPI PUSH1 0x20 SWAP1 PUSH1 0x5 SLOAD SWAP1 MLOAD SWAP1 DUP2 MSTORE RETURN JUMPDEST POP CALLVALUE PUSH2 0x342 JUMPI PUSH1 0x20 SWAP1 DUP2 PUSH1 0x3 NOT CALLDATASIZE ADD SLT PUSH2 0x5AA JUMPI DUP1 CALLDATALOAD SWAP1 CALLER DUP6 MSTORE PUSH1 0xC DUP4 MSTORE PUSH2 0xABA PUSH1 0xFF DUP6 DUP8 KECCAK256 SLOAD AND ISZERO PUSH2 0x3949 JUMP JUMPDEST DUP2 ISZERO SWAP1 PUSH2 0xAC7 DUP3 ISZERO PUSH2 0x3AF1 JUMP JUMPDEST DUP6 SLOAD PUSH1 0x1 PUSH1 0x1 PUSH1 0xA0 SHL SUB SWAP5 SWAP1 PUSH2 0xAE0 SWAP1 DUP7 AND ISZERO ISZERO PUSH2 0x39C6 JUMP JUMPDEST DUP5 PUSH1 0x3 SLOAD AND DUP1 ISZERO PUSH2 0xC5B JUMPI PUSH8 0xDE0B6B3A7640000 SWAP4 DUP5 DUP7 MUL SWAP1 DUP7 DUP3 DIV DUP7 EQ OR ISZERO PUSH2 0xC48 JUMPI PUSH2 0xB10 PUSH1 0x9 SLOAD DUP8 PUSH2 0x3A07 JUMP JUMPDEST DUP6 DUP2 MUL SWAP6 DUP2 DUP8 DIV EQ SWAP1 ISZERO OR ISZERO PUSH2 0xC48 JUMPI DUP8 MLOAD PUSH4 0x23B872DD PUSH1 0xE0 SHL DUP2 MSTORE CALLER DUP6 DUP3 ADD SWAP1 DUP2 MSTORE PUSH1 0x1 PUSH1 0x1 PUSH1 0xA0 SHL SUB PUSH32 0x0 AND PUSH1 0x20 DUP3 ADD MSTORE PUSH1 0x40 DUP2 ADD SWAP3 SWAP1 SWAP3 MSTORE SWAP2 DUP4 SWAP2 DUP4 SWAP2 SWAP1 DUP3 SWAP1 DUP13 SWAP1 DUP3 SWAP1 PUSH1 0x60 ADD SUB SWAP3 GAS CALL SWAP1 DUP2 ISZERO PUSH2 0x542 JUMPI DUP9 SWAP2 PUSH2 0xC2B JUMPI JUMPDEST POP ISZERO PUSH2 0xBF3 JUMPI POP POP PUSH1 0x0 DUP1 MLOAD PUSH1 0x20 PUSH2 0x48EC DUP4 CODECOPY DUP2 MLOAD SWAP2 MSTORE SWAP2 PUSH2 0xBAF PUSH2 0x4D7 SWAP3 PUSH2 0x3FF8 JUMP JUMPDEST SWAP4 PUSH2 0xBB9 DUP6 PUSH2 0x4232 JUMP JUMPDEST PUSH2 0xBCF DUP2 PUSH1 0x3 SLOAD AND DUP7 DUP5 DUP5 DUP12 SLOAD AND PUSH2 0x4AE PUSH2 0x3AD2 JUMP JUMPDEST PUSH1 0x3 SLOAD AND SWAP5 MLOAD SWAP2 DUP3 SWAP2 CALLER SWAP6 TIMESTAMP SWAP2 DUP5 PUSH1 0x40 SWAP2 SWAP5 SWAP4 SWAP3 PUSH1 0x60 DUP3 ADD SWAP6 DUP3 MSTORE PUSH1 0x20 DUP3 ADD MSTORE ADD MSTORE JUMP JUMPDEST DUP6 MLOAD PUSH3 0x461BCD PUSH1 0xE5 SHL DUP2 MSTORE SWAP2 DUP3 ADD MSTORE PUSH1 0x13 PUSH1 0x24 DUP3 ADD MSTORE PUSH19 0x109390881D1C985B9CD9995C8819985A5B1959 PUSH1 0x6A SHL PUSH1 0x44 DUP3 ADD MSTORE PUSH1 0x64 SWAP2 POP REVERT JUMPDEST PUSH2 0xC42 SWAP2 POP DUP3 RETURNDATASIZE DUP5 GT PUSH2 0x53B JUMPI PUSH2 0x52D DUP2 DUP4 PUSH2 0x3735 JUMP JUMPDEST CODESIZE PUSH2 0xB8B JUMP JUMPDEST PUSH4 0x4E487B71 PUSH1 0xE0 SHL DUP10 MSTORE PUSH1 0x11 DUP5 MSTORE PUSH1 0x24 DUP10 REVERT JUMPDEST DUP7 MLOAD PUSH3 0x461BCD PUSH1 0xE5 SHL DUP2 MSTORE DUP1 DUP5 ADD DUP4 SWAP1 MSTORE PUSH1 0x12 PUSH1 0x24 DUP3 ADD MSTORE PUSH18 0x109390881B9BDD0818DBDB999A59DD5C9959 PUSH1 0x72 SHL PUSH1 0x44 DUP3 ADD MSTORE PUSH1 0x64 SWAP1 REVERT JUMPDEST POP SWAP2 SWAP1 CALLVALUE PUSH2 0x365 JUMPI DUP1 PUSH1 0x3 NOT CALLDATASIZE ADD SLT PUSH2 0x365 JUMPI PUSH2 0xCAE PUSH2 0x356D JUMP JUMPDEST PUSH1 0x1 PUSH1 0x1 PUSH1 0xA0 SHL SUB SWAP1 DUP2 AND DUP4 MSTORE PUSH1 0xD PUSH1 0x20 MSTORE DUP2 DUP4 KECCAK256 DUP1 SLOAD SWAP2 SWAP4 PUSH1 0x24 CALLDATALOAD SWAP3 DUP4 LT ISZERO PUSH2 0x6A8 JUMPI POP PUSH2 0x63C SWAP3 SWAP2 PUSH2 0xCE1 SWAP2 PUSH2 0x367B JUMP JUMPDEST POP DUP1 SLOAD SWAP4 DUP1 PUSH1 0x1 DUP4 ADD SLOAD AND SWAP6 DUP2 PUSH1 0x2 DUP5 ADD SLOAD AND SWAP2 PUSH1 0x3 DUP5 ADD SLOAD AND SWAP1 DUP4 ADD SLOAD SWAP2 PUSH2 0x9D4 PUSH1 0x6 PUSH1 0x5 DUP7 ADD SLOAD SWAP6 ADD PUSH2 0x3757 JUMP JUMPDEST SWAP4 SWAP1 POP CALLVALUE PUSH2 0x6A8 JUMPI DUP3 PUSH1 0x3 NOT CALLDATASIZE ADD SLT PUSH2 0x6A8 JUMPI PUSH2 0xD2C PUSH2 0x356D JUMP JUMPDEST PUSH1 0x1 PUSH1 0x1 PUSH1 0xA0 SHL SUB AND DUP2 MSTORE PUSH1 0x12 PUSH1 0x20 MSTORE DUP3 DUP2 KECCAK256 DUP1 SLOAD PUSH1 0x24 CALLDATALOAD SWAP3 SWAP1 DUP4 LT ISZERO PUSH2 0x6A8 JUMPI POP SWAP1 PUSH2 0xD58 SWAP2 PUSH2 0x367B JUMP JUMPDEST POP DUP1 SLOAD SWAP3 PUSH1 0x1 DUP3 ADD SLOAD SWAP3 PUSH1 0x2 DUP4 ADD SLOAD PUSH1 0x3 DUP5 ADD SLOAD SWAP2 DUP5 ADD SLOAD SWAP3 PUSH1 0xFF PUSH1 0x6 PUSH1 0x5 DUP8 ADD SLOAD SWAP7 ADD SLOAD AND SWAP6 DUP2 MLOAD SWAP8 DUP9 MSTORE PUSH1 0x20 DUP9 ADD MSTORE DUP7 ADD MSTORE PUSH1 0x60 DUP6 ADD MSTORE PUSH1 0x80 DUP5 ADD MSTORE PUSH1 0xA0 DUP4 ADD MSTORE ISZERO ISZERO PUSH1 0xC0 DUP3 ADD MSTORE RETURN JUMPDEST POP POP POP CALLVALUE PUSH2 0x365 JUMPI DUP2 PUSH1 0x3 NOT CALLDATASIZE ADD SLT PUSH2 0x365 JUMPI PUSH1 0xA0 SWAP1 PUSH1 0x10 SLOAD SWAP1 PUSH1 0x11 SLOAD SWAP1 PUSH1 0x14 SLOAD PUSH1 0x15 SLOAD SWAP2 PUSH1 0x16 SLOAD SWAP4 DUP2 MLOAD SWAP6 DUP7 MSTORE PUSH1 0x20 DUP7 ADD MSTORE DUP5 ADD MSTORE PUSH1 0x60 DUP4 ADD MSTORE PUSH1 0x80 DUP3 ADD MSTORE RETURN JUMPDEST POP POP POP CALLVALUE PUSH2 0x365 JUMPI CALLDATASIZE PUSH1 0x3 NOT ADD SLT PUSH2 0x6A8 JUMPI PUSH2 0xE00 PUSH2 0x356D JUMP JUMPDEST PUSH1 0x24 CALLDATALOAD SWAP1 PUSH1 0x1 PUSH1 0x1 PUSH1 0xA0 SHL SUB SWAP1 PUSH2 0xE3A CALLER PUSH32 0x0 DUP5 AND EQ PUSH2 0x385A JUMP JUMPDEST AND PUSH2 0xE46 DUP2 ISZERO ISZERO PUSH2 0x38CF JUMP JUMPDEST PUSH2 0xE51 DUP3 ISZERO ISZERO PUSH2 0x390D JUMP JUMPDEST PUSH1 0x1 PUSH1 0x1 PUSH1 0x60 SHL SUB PUSH1 0xA0 SHL PUSH1 0x1 SLOAD AND OR PUSH1 0x1 SSTORE PUSH1 0x7 SSTORE DUP1 RETURN JUMPDEST POP POP CALLVALUE PUSH2 0x342 JUMPI PUSH1 0x20 CALLDATASIZE PUSH1 0x3 NOT ADD SLT PUSH2 0x342 JUMPI DUP1 CALLDATALOAD SWAP1 CALLER DUP5 MSTORE PUSH1 0xC PUSH1 0x20 MSTORE PUSH2 0xE98 PUSH1 0xFF DUP5 DUP7 KECCAK256 SLOAD AND ISZERO PUSH2 0x3949 JUMP JUMPDEST DUP2 ISZERO SWAP2 PUSH2 0xEA5 DUP4 ISZERO PUSH2 0x3AF1 JUMP JUMPDEST DUP5 SLOAD PUSH1 0x1 PUSH1 0x1 PUSH1 0xA0 SHL SUB SWAP4 SWAP1 PUSH2 0xEBE SWAP1 DUP6 AND ISZERO ISZERO PUSH2 0x39C6 JUMP JUMPDEST DUP4 PUSH1 0x2 SLOAD AND PUSH2 0xECE DUP2 ISZERO ISZERO PUSH2 0x3BDA JUMP JUMPDEST PUSH3 0xF4240 SWAP2 DUP3 DUP5 MUL SWAP3 DUP5 DUP5 DIV EQ OR ISZERO PUSH2 0x101A JUMPI PUSH2 0xEED PUSH1 0x8 SLOAD DUP5 PUSH2 0x3A07 JUMP JUMPDEST SWAP4 PUSH8 0xDE0B6B3A7640000 SWAP5 DUP6 DUP2 MUL SWAP6 DUP2 DUP8 DIV EQ SWAP1 ISZERO OR ISZERO PUSH2 0x1007 JUMPI DUP7 MLOAD PUSH4 0x23B872DD PUSH1 0xE0 SHL DUP2 MSTORE CALLER SWAP2 DUP2 ADD SWAP2 DUP3 MSTORE PUSH1 0x1 PUSH1 0x1 PUSH1 0xA0 SHL SUB PUSH32 0x0 AND PUSH1 0x20 DUP4 DUP2 ADD SWAP2 SWAP1 SWAP2 MSTORE PUSH1 0x40 DUP4 ADD SWAP5 SWAP1 SWAP5 MSTORE SWAP4 SWAP3 SWAP2 DUP5 SWAP2 DUP3 SWAP1 DUP11 SWAP1 DUP3 SWAP1 PUSH1 0x60 ADD SUB SWAP3 GAS CALL DUP1 ISZERO PUSH2 0xFFD JUMPI PUSH1 0x0 DUP1 MLOAD PUSH1 0x20 PUSH2 0x48EC DUP4 CODECOPY DUP2 MLOAD SWAP2 MSTORE SWAP4 PUSH2 0xF96 PUSH2 0xF9B SWAP3 PUSH2 0x4D7 SWAP6 DUP11 SWAP2 PUSH2 0xFDF JUMPI JUMPDEST POP PUSH2 0x3C1C JUMP JUMPDEST PUSH2 0x3FF8 JUMP JUMPDEST SWAP4 PUSH2 0xFA5 DUP6 PUSH2 0x4232 JUMP JUMPDEST PUSH2 0xFBB DUP2 PUSH1 0x2 SLOAD AND DUP7 DUP5 DUP5 DUP12 SLOAD AND PUSH2 0x4AE PUSH2 0x3AD2 JUMP JUMPDEST PUSH1 0x2 SLOAD AND SWAP5 MLOAD SWAP2 DUP3 SWAP2 CALLER SWAP6 TIMESTAMP SWAP2 DUP5 PUSH1 0x40 SWAP2 SWAP5 SWAP4 SWAP3 PUSH1 0x60 DUP3 ADD SWAP6 DUP3 MSTORE PUSH1 0x20 DUP3 ADD MSTORE ADD MSTORE JUMP JUMPDEST PUSH2 0xFF7 SWAP2 POP PUSH1 0x20 RETURNDATASIZE DUP2 GT PUSH2 0x53B JUMPI PUSH2 0x52D DUP2 DUP4 PUSH2 0x3735 JUMP JUMPDEST CODESIZE PUSH2 0xF90 JUMP JUMPDEST DUP6 MLOAD RETURNDATASIZE DUP9 DUP3 RETURNDATACOPY RETURNDATASIZE SWAP1 REVERT JUMPDEST PUSH4 0x4E487B71 PUSH1 0xE0 SHL DUP9 MSTORE PUSH1 0x11 SWAP1 MSTORE PUSH1 0x24 DUP8 REVERT JUMPDEST PUSH4 0x4E487B71 PUSH1 0xE0 SHL DUP8 MSTORE PUSH1 0x11 DUP5 MSTORE PUSH1 0x24 DUP8 REVERT JUMPDEST POP POP CALLVALUE PUSH2 0x342 JUMPI PUSH1 0x20 CALLDATASIZE PUSH1 0x3 NOT ADD SLT PUSH2 0x342 JUMPI DUP1 CALLDATALOAD SWAP1 CALLER DUP5 MSTORE PUSH1 0xC PUSH1 0x20 MSTORE PUSH2 0x105B PUSH1 0xFF DUP5 DUP7 KECCAK256 SLOAD AND ISZERO PUSH2 0x3949 JUMP JUMPDEST DUP2 ISZERO SWAP2 PUSH2 0x1068 DUP4 ISZERO PUSH2 0x3AF1 JUMP JUMPDEST DUP5 SLOAD PUSH1 0x1 PUSH1 0x1 PUSH1 0xA0 SHL SUB SWAP4 SWAP1 PUSH2 0x1081 SWAP1 DUP6 AND ISZERO ISZERO PUSH2 0x39C6 JUMP JUMPDEST DUP4 PUSH1 0x1 SLOAD AND PUSH2 0x1091 DUP2 ISZERO ISZERO PUSH2 0x3B3D JUMP JUMPDEST PUSH3 0xF4240 SWAP2 DUP3 DUP5 MUL SWAP3 DUP5 DUP5 DIV EQ OR ISZERO PUSH2 0x101A JUMPI PUSH2 0x10B0 PUSH1 0x7 SLOAD DUP5 PUSH2 0x3A07 JUMP JUMPDEST SWAP4 PUSH8 0xDE0B6B3A7640000 SWAP5 DUP6 DUP2 MUL SWAP6 DUP2 DUP8 DIV EQ SWAP1 ISZERO OR ISZERO PUSH2 0x1007 JUMPI DUP7 MLOAD PUSH4 0x23B872DD PUSH1 0xE0 SHL DUP2 MSTORE CALLER SWAP2 DUP2 ADD SWAP2 DUP3 MSTORE PUSH1 0x1 PUSH1 0x1 PUSH1 0xA0 SHL SUB PUSH32 0x0 AND PUSH1 0x20 DUP4 DUP2 ADD SWAP2 SWAP1 SWAP2 MSTORE PUSH1 0x40 DUP4 ADD SWAP5 SWAP1 SWAP5 MSTORE SWAP4 SWAP3 SWAP2 DUP5 SWAP2 DUP3 SWAP1 DUP11 SWAP1 DUP3 SWAP1 PUSH1 0x60 ADD SUB SWAP3 GAS CALL DUP1 ISZERO PUSH2 0xFFD JUMPI PUSH1 0x0 DUP1 MLOAD PUSH1 0x20 PUSH2 0x48EC DUP4 CODECOPY DUP2 MLOAD SWAP2 MSTORE SWAP4 PUSH2 0xF96 PUSH2 0x1159 SWAP3 PUSH2 0x4D7 SWAP6 DUP11 SWAP2 PUSH2 0x119D JUMPI JUMPDEST POP PUSH2 0x3B97 JUMP JUMPDEST SWAP4 PUSH2 0x1163 DUP6 PUSH2 0x4232 JUMP JUMPDEST PUSH2 0x1179 DUP2 PUSH1 0x1 SLOAD AND DUP7 DUP5 DUP5 DUP12 SLOAD AND PUSH2 0x4AE PUSH2 0x3AD2 JUMP JUMPDEST PUSH1 0x1 SLOAD AND SWAP5 MLOAD SWAP2 DUP3 SWAP2 CALLER SWAP6 TIMESTAMP SWAP2 DUP5 PUSH1 0x40 SWAP2 SWAP5 SWAP4 SWAP3 PUSH1 0x60 DUP3 ADD SWAP6 DUP3 MSTORE PUSH1 0x20 DUP3 ADD MSTORE ADD MSTORE JUMP JUMPDEST PUSH2 0x11B5 SWAP2 POP PUSH1 0x20 RETURNDATASIZE DUP2 GT PUSH2 0x53B JUMPI PUSH2 0x52D DUP2 DUP4 PUSH2 0x3735 JUMP JUMPDEST CODESIZE PUSH2 0x1153 JUMP JUMPDEST DUP5 CALLVALUE PUSH2 0x6A8 JUMPI PUSH1 0x20 CALLDATASIZE PUSH1 0x3 NOT ADD SLT PUSH2 0x6A8 JUMPI PUSH2 0x11D5 PUSH2 0x356D JUMP JUMPDEST PUSH1 0x1 PUSH1 0x1 PUSH1 0xA0 SHL SUB SWAP1 PUSH2 0x120B CALLER PUSH32 0x0 DUP5 AND EQ PUSH2 0x385A JUMP JUMPDEST AND PUSH2 0x1217 DUP2 ISZERO ISZERO PUSH2 0x38CF JUMP JUMPDEST DUP2 SLOAD PUSH1 0x1 PUSH1 0x1 PUSH1 0xA0 SHL SUB NOT AND OR DUP2 SSTORE DUP1 RETURN JUMPDEST POP POP SWAP1 CALLVALUE PUSH2 0x342 JUMPI DUP3 PUSH1 0x3 NOT CALLDATASIZE ADD SLT PUSH2 0x342 JUMPI DUP3 SLOAD DUP2 MLOAD PUSH4 0x70A08231 PUSH1 0xE0 SHL DUP1 DUP3 MSTORE ADDRESS DUP3 DUP7 ADD MSTORE SWAP1 SWAP5 PUSH1 0x1 PUSH1 0x1 PUSH1 0xA0 SHL SUB SWAP5 PUSH1 0x20 SWAP4 DUP5 SWAP1 DUP9 SWAP1 PUSH1 0x24 SWAP1 DUP3 SWAP1 DUP11 AND GAS STATICCALL SWAP6 DUP7 ISZERO PUSH2 0x1395 JUMPI DUP3 SWAP7 PUSH2 0x1365 JUMPI JUMPDEST PUSH1 0x24 SWAP8 POP DUP5 DUP2 PUSH1 0x1 SLOAD AND DUP8 MLOAD SWAP10 DUP11 DUP1 SWAP3 DUP9 DUP3 MSTORE ADDRESS DUP8 DUP4 ADD MSTORE GAS STATICCALL SWAP8 DUP9 ISZERO PUSH2 0x135B JUMPI DUP4 SWAP9 PUSH2 0x132B JUMPI JUMPDEST POP SWAP1 PUSH1 0x24 DUP6 SWAP3 PUSH1 0x2 SLOAD AND SWAP5 DUP8 MLOAD SWAP6 DUP7 SWAP4 DUP5 SWAP3 DUP4 MSTORE ADDRESS SWAP1 DUP4 ADD MSTORE GAS STATICCALL SWAP3 DUP4 ISZERO PUSH2 0x131F JUMPI DUP2 SWAP4 PUSH2 0x12EC JUMPI JUMPDEST POP POP POP PUSH2 0x63C SWAP2 MLOAD SWAP4 DUP5 SWAP4 DUP5 PUSH1 0x40 SWAP2 SWAP5 SWAP4 SWAP3 PUSH1 0x60 DUP3 ADD SWAP6 DUP3 MSTORE PUSH1 0x20 DUP3 ADD MSTORE ADD MSTORE JUMP JUMPDEST SWAP1 SWAP2 DUP1 SWAP4 POP DUP2 RETURNDATASIZE DUP4 GT PUSH2 0x1318 JUMPI JUMPDEST PUSH2 0x1304 DUP2 DUP4 PUSH2 0x3735 JUMP JUMPDEST DUP2 ADD SUB SLT PUSH2 0x6A8 JUMPI POP MLOAD PUSH2 0x63C CODESIZE DUP1 PUSH2 0x12CA JUMP JUMPDEST POP RETURNDATASIZE PUSH2 0x12FA JUMP JUMPDEST POP DUP4 MLOAD SWAP1 RETURNDATASIZE SWAP1 DUP3 RETURNDATACOPY RETURNDATASIZE SWAP1 REVERT JUMPDEST SWAP1 SWAP8 POP DUP5 DUP2 DUP2 RETURNDATASIZE DUP4 GT PUSH2 0x1354 JUMPI JUMPDEST PUSH2 0x1343 DUP2 DUP4 PUSH2 0x3735 JUMP JUMPDEST DUP2 ADD SUB SLT PUSH2 0x342 JUMPI MLOAD SWAP7 PUSH1 0x24 PUSH2 0x12A1 JUMP JUMPDEST POP RETURNDATASIZE PUSH2 0x1339 JUMP JUMPDEST DUP7 MLOAD RETURNDATASIZE DUP6 DUP3 RETURNDATACOPY RETURNDATASIZE SWAP1 REVERT JUMPDEST SWAP6 POP DUP4 DUP8 DUP2 RETURNDATASIZE DUP4 GT PUSH2 0x138E JUMPI JUMPDEST PUSH2 0x137C DUP2 DUP4 PUSH2 0x3735 JUMP JUMPDEST DUP2 ADD SUB SLT PUSH2 0x365 JUMPI PUSH1 0x24 SWAP7 MLOAD SWAP6 PUSH2 0x1279 JUMP JUMPDEST POP RETURNDATASIZE PUSH2 0x1372 JUMP JUMPDEST DUP6 MLOAD RETURNDATASIZE DUP5 DUP3 RETURNDATACOPY RETURNDATASIZE SWAP1 REVERT JUMPDEST DUP3 DUP6 DUP6 CALLVALUE PUSH2 0x365 JUMPI PUSH1 0x20 SWAP1 DUP2 PUSH1 0x3 NOT CALLDATASIZE ADD SLT PUSH2 0x342 JUMPI PUSH2 0x13BD PUSH2 0x356D JUMP JUMPDEST SWAP1 CALLER DUP5 MSTORE PUSH1 0xC DUP4 MSTORE PUSH2 0x13D5 PUSH1 0xFF DUP3 DUP7 KECCAK256 SLOAD AND ISZERO PUSH2 0x3949 JUMP JUMPDEST PUSH1 0x1 PUSH1 0x1 PUSH1 0xA0 SHL SUB SWAP2 DUP3 AND SWAP3 DUP4 ISZERO PUSH2 0x1517 JUMPI CALLER DUP5 EQ PUSH2 0x14DD JUMPI CALLER DUP6 MSTORE PUSH1 0x1A DUP2 MSTORE DUP3 DUP3 DUP7 KECCAK256 SLOAD AND PUSH2 0x1490 JUMPI CALLER DUP6 MSTORE PUSH1 0x1A DUP2 MSTORE DUP2 DUP6 KECCAK256 DUP1 SLOAD PUSH1 0x1 PUSH1 0x1 PUSH1 0xA0 SHL SUB NOT AND DUP6 OR SWAP1 SSTORE DUP4 DUP6 MSTORE PUSH1 0x1B SWAP1 MSTORE DUP4 KECCAK256 DUP1 SLOAD SWAP1 PUSH1 0x1 PUSH1 0x40 SHL DUP3 LT ISZERO PUSH2 0x147D JUMPI SWAP1 PUSH2 0x1441 SWAP2 PUSH1 0x1 DUP3 ADD DUP2 SSTORE PUSH2 0x3842 JUMP JUMPDEST DUP2 SWAP3 SWAP2 SLOAD SWAP1 PUSH1 0x3 SHL SWAP2 CALLER DUP4 SHL SWAP3 SHL NOT AND OR SWAP1 SSTORE CALLER SWAP1 PUSH32 0x5F1CA2FCC108B751843A763E60D2201F593516109D7DBB1B700468F2D4190BB7 DUP4 DUP1 LOG3 DUP1 RETURN JUMPDEST PUSH4 0x4E487B71 PUSH1 0xE0 SHL DUP6 MSTORE PUSH1 0x41 DUP7 MSTORE PUSH1 0x24 DUP6 REVERT JUMPDEST DUP6 SWAP1 PUSH1 0x84 SWAP3 MLOAD SWAP2 PUSH3 0x461BCD PUSH1 0xE5 SHL DUP4 MSTORE DUP3 ADD MSTORE PUSH1 0x22 PUSH1 0x24 DUP3 ADD MSTORE PUSH32 0x416C726561647920726567697374657265642077697468206120726566657272 PUSH1 0x44 DUP3 ADD MSTORE PUSH2 0x32B9 PUSH1 0xF1 SHL PUSH1 0x64 DUP3 ADD MSTORE REVERT JUMPDEST DUP6 SWAP1 PUSH1 0x64 SWAP3 MLOAD SWAP2 PUSH3 0x461BCD PUSH1 0xE5 SHL DUP4 MSTORE DUP3 ADD MSTORE PUSH1 0x15 PUSH1 0x24 DUP3 ADD MSTORE PUSH21 0x21B0B73737BA103932B332B9103CB7BAB939B2B633 PUSH1 0x59 SHL PUSH1 0x44 DUP3 ADD MSTORE REVERT JUMPDEST DUP6 SWAP1 PUSH1 0x64 SWAP3 MLOAD SWAP2 PUSH3 0x461BCD PUSH1 0xE5 SHL DUP4 MSTORE DUP3 ADD MSTORE PUSH1 0x18 PUSH1 0x24 DUP3 ADD MSTORE PUSH32 0x496E76616C696420726566657272657220616464726573730000000000000000 PUSH1 0x44 DUP3 ADD MSTORE REVERT JUMPDEST POP POP POP CALLVALUE PUSH2 0x365 JUMPI DUP2 PUSH1 0x3 NOT CALLDATASIZE ADD SLT PUSH2 0x365 JUMPI PUSH1 0x20 SWAP1 MLOAD PUSH1 0x5 DUP2 MSTORE RETURN JUMPDEST POP POP POP CALLVALUE PUSH2 0x365 JUMPI DUP2 PUSH1 0x3 NOT CALLDATASIZE ADD SLT PUSH2 0x365 JUMPI PUSH1 0x1 SLOAD SWAP1 MLOAD PUSH1 0x1 PUSH1 0x1 PUSH1 0xA0 SHL SUB SWAP1 SWAP2 AND DUP2 MSTORE PUSH1 0x20 SWAP1 RETURN JUMPDEST POP POP CALLVALUE PUSH2 0x342 JUMPI PUSH1 0x20 SWAP1 DUP2 PUSH1 0x3 NOT CALLDATASIZE ADD SLT PUSH2 0x5AA JUMPI CALLDATALOAD DUP1 DUP5 MSTORE PUSH1 0x13 DUP3 MSTORE DUP3 DUP5 KECCAK256 SLOAD PUSH1 0x1 PUSH1 0x1 PUSH1 0xA0 SHL SUB AND SWAP4 SWAP1 SWAP3 SWAP1 PUSH2 0x15D9 DUP6 ISZERO ISZERO PUSH2 0x3CDF JUMP JUMPDEST PUSH2 0x15E1 PUSH2 0x48B3 JUMP JUMPDEST DUP2 SWAP6 DUP3 JUMPDEST DUP2 DUP5 MSTORE PUSH1 0x12 DUP1 DUP8 MSTORE DUP6 DUP6 KECCAK256 DUP1 SLOAD DUP4 LT ISZERO PUSH2 0x1666 JUMPI PUSH2 0x1604 DUP4 DUP11 SWAP3 PUSH2 0x367B JUMP JUMPDEST POP SLOAD EQ PUSH2 0x161A JUMPI POP PUSH2 0x1615 SWAP1 PUSH2 0x3CC3 JUMP JUMPDEST PUSH2 0x15E5 JUMP JUMPDEST PUSH1 0x60 SWAP9 POP PUSH2 0x163D SWAP4 POP DUP5 DUP7 SWAP2 PUSH2 0x1637 SWAP5 PUSH2 0x164D SWAP8 MSTORE DUP9 MSTORE KECCAK256 PUSH2 0x367B JUMP JUMPDEST POP PUSH2 0x485E JUMP JUMPDEST SWAP4 PUSH2 0x1648 PUSH1 0x1 PUSH2 0x3D22 JUMP JUMPDEST PUSH2 0x3DAC JUMP JUMPDEST PUSH1 0xC0 DUP6 DUP6 ADD MLOAD SWAP5 ADD MLOAD ISZERO ISZERO SWAP3 DUP3 MLOAD SWAP5 DUP6 MSTORE DUP5 ADD MSTORE DUP3 ADD MSTORE RETURN JUMPDEST POP POP POP POP SWAP4 PUSH2 0x164D SWAP2 POP PUSH2 0x1648 PUSH1 0x60 SWAP7 PUSH2 0x3D22 JUMP JUMPDEST POP POP POP CALLVALUE PUSH2 0x365 JUMPI DUP2 PUSH1 0x3 NOT CALLDATASIZE ADD SLT PUSH2 0x365 JUMPI PUSH1 0x20 SWAP1 PUSH1 0x19 SLOAD SWAP1 MLOAD SWAP1 DUP2 MSTORE RETURN JUMPDEST POP POP POP CALLVALUE PUSH2 0x365 JUMPI DUP2 PUSH1 0x3 NOT CALLDATASIZE ADD SLT PUSH2 0x365 JUMPI MLOAD PUSH32 0x0 PUSH1 0x1 PUSH1 0x1 PUSH1 0xA0 SHL SUB AND DUP2 MSTORE PUSH1 0x20 SWAP1 RETURN JUMPDEST POP POP POP CALLVALUE PUSH2 0x365 JUMPI DUP2 PUSH1 0x3 NOT CALLDATASIZE ADD SLT PUSH2 0x365 JUMPI PUSH1 0x20 SWAP1 PUSH1 0x16 SLOAD SWAP1 MLOAD SWAP1 DUP2 MSTORE RETURN JUMPDEST SWAP2 POP POP CALLVALUE PUSH2 0x342 JUMPI PUSH1 0x20 DUP1 PUSH1 0x3 NOT CALLDATASIZE ADD SLT PUSH2 0x5AA JUMPI SWAP1 SWAP2 PUSH1 0x1 PUSH1 0x1 PUSH1 0xA0 SHL SUB PUSH2 0x1727 PUSH2 0x356D JUMP JUMPDEST AND DUP5 MSTORE PUSH1 0x12 DUP3 MSTORE DUP1 DUP5 KECCAK256 SWAP2 DUP3 SLOAD SWAP2 PUSH2 0x173E DUP4 PUSH2 0x4846 JUMP JUMPDEST SWAP3 PUSH2 0x174B DUP3 MLOAD SWAP5 DUP6 PUSH2 0x3735 JUMP JUMPDEST DUP1 DUP5 MSTORE DUP3 DUP5 ADD DUP1 SWAP6 DUP9 MSTORE DUP4 DUP9 KECCAK256 DUP9 SWAP2 JUMPDEST DUP4 DUP4 LT PUSH2 0x17DB JUMPI POP POP POP POP DUP1 MLOAD SWAP5 DUP3 DUP7 ADD SWAP4 DUP4 DUP8 MSTORE MLOAD DUP1 SWAP5 MSTORE DUP2 DUP7 ADD SWAP5 SWAP7 SWAP2 JUMPDEST DUP5 DUP4 LT PUSH2 0x1788 JUMPI DUP7 DUP7 SUB DUP8 RETURN JUMPDEST DUP8 MLOAD DUP1 MLOAD DUP8 MSTORE DUP1 DUP6 ADD MLOAD DUP8 DUP7 ADD MSTORE DUP1 DUP3 ADD MLOAD DUP8 DUP4 ADD MSTORE PUSH1 0x60 DUP1 DUP3 ADD MLOAD SWAP1 DUP9 ADD MSTORE PUSH1 0x80 DUP1 DUP3 ADD MLOAD SWAP1 DUP9 ADD MSTORE PUSH1 0xA0 DUP1 DUP3 ADD MLOAD SWAP1 DUP9 ADD MSTORE PUSH1 0xC0 SWAP1 DUP2 ADD MLOAD ISZERO ISZERO SWAP1 DUP8 ADD MSTORE SWAP7 DUP4 ADD SWAP7 SWAP5 DUP2 ADD SWAP5 PUSH1 0x1 SWAP1 SWAP3 ADD SWAP2 PUSH2 0x177B JUMP JUMPDEST PUSH1 0x7 DUP7 PUSH1 0x1 SWAP3 PUSH2 0x17F2 DUP6 SWAP14 SWAP10 SWAP11 SWAP12 SWAP14 SWAP13 SWAP9 SWAP13 PUSH2 0x485E JUMP JUMPDEST DUP2 MSTORE ADD SWAP3 ADD SWAP3 ADD SWAP2 SWAP1 SWAP9 SWAP7 SWAP6 SWAP5 SWAP9 SWAP8 SWAP4 SWAP8 PUSH2 0x175B JUMP JUMPDEST POP POP POP CALLVALUE PUSH2 0x365 JUMPI DUP2 PUSH1 0x3 NOT CALLDATASIZE ADD SLT PUSH2 0x365 JUMPI PUSH1 0x20 SWAP1 PUSH1 0x7 SLOAD SWAP1 MLOAD SWAP1 DUP2 MSTORE RETURN JUMPDEST POP POP POP CALLVALUE PUSH2 0x365 JUMPI DUP2 PUSH1 0x3 NOT CALLDATASIZE ADD SLT PUSH2 0x365 JUMPI PUSH1 0x20 SWAP1 PUSH1 0x14 SLOAD SWAP1 MLOAD SWAP1 DUP2 MSTORE RETURN JUMPDEST DUP4 DUP6 CALLVALUE PUSH2 0x6A8 JUMPI PUSH1 0x20 SWAP1 DUP2 PUSH1 0x3 NOT CALLDATASIZE ADD SLT PUSH2 0x6A8 JUMPI PUSH2 0x1865 PUSH2 0x356D JUMP JUMPDEST SWAP1 SWAP2 DUP3 SWAP2 DUP3 SWAP2 SWAP1 DUP3 SWAP1 PUSH1 0x1 PUSH1 0x1 PUSH1 0xA0 SHL SUB AND DUP2 JUMPDEST DUP2 DUP7 MSTORE PUSH1 0x12 DUP1 DUP6 MSTORE DUP9 DUP8 KECCAK256 DUP1 SLOAD DUP4 LT ISZERO PUSH2 0x1913 JUMPI PUSH1 0xFF PUSH1 0x6 PUSH2 0x189C DUP6 DUP14 SWAP5 PUSH2 0x367B JUMP JUMPDEST POP ADD SLOAD AND PUSH2 0x18B5 JUMPI JUMPDEST POP POP PUSH2 0x18B0 SWAP1 PUSH2 0x3CC3 JUMP JUMPDEST PUSH2 0x1879 JUMP JUMPDEST DUP3 SWAP7 SWAP5 PUSH2 0x18E3 DUP4 SWAP11 PUSH1 0x1 PUSH2 0x18DA PUSH2 0x18B0 SWAP8 PUSH2 0x1905 SWAP7 DUP15 PUSH2 0x190B SWAP10 DUP15 DUP14 DUP4 MSTORE MSTORE KECCAK256 PUSH2 0x367B JUMP JUMPDEST POP ADD SLOAD SWAP1 PUSH2 0x3CD2 JUMP JUMPDEST SWAP10 DUP6 DUP11 MSTORE DUP8 MSTORE PUSH2 0x18FF PUSH2 0x18F8 DUP10 DUP14 DUP13 KECCAK256 PUSH2 0x367B JUMP JUMPDEST POP SLOAD PUSH2 0x3DAC JUMP JUMPDEST SWAP1 PUSH2 0x3CD2 JUMP JUMPDEST SWAP4 PUSH2 0x3CC3 JUMP JUMPDEST SWAP5 SWAP1 DUP9 PUSH2 0x18A5 JUMP JUMPDEST DUP10 MLOAD DUP10 DUP2 MSTORE PUSH1 0x20 DUP2 ADD DUP7 SWAP1 MSTORE PUSH1 0x40 DUP2 ADD DUP9 SWAP1 MSTORE PUSH1 0x60 SWAP1 RETURN JUMPDEST SWAP3 SWAP1 POP CALLVALUE PUSH2 0x5AA JUMPI DUP4 PUSH1 0x3 NOT CALLDATASIZE ADD SLT PUSH2 0x5AA JUMPI DUP4 SLOAD DUP2 MLOAD PUSH4 0x70A08231 PUSH1 0xE0 SHL DUP2 MSTORE ADDRESS SWAP4 DUP2 ADD SWAP4 SWAP1 SWAP4 MSTORE PUSH1 0x1 PUSH1 0x1 PUSH1 0xA0 SHL SUB SWAP1 DUP2 AND SWAP4 SWAP1 PUSH1 0x20 DUP5 PUSH1 0x24 DUP2 DUP9 GAS STATICCALL SWAP4 DUP5 ISZERO PUSH2 0x1A04 JUMPI DUP7 SWAP5 PUSH2 0x19C8 JUMPI JUMPDEST POP PUSH2 0x120 SWAP6 POP PUSH1 0x5 SLOAD SWAP1 PUSH1 0x6 SLOAD PUSH1 0xB SLOAD SWAP1 DUP3 PUSH1 0x1 SLOAD AND SWAP3 PUSH1 0x2 SLOAD AND SWAP4 PUSH1 0x7 SLOAD SWAP7 PUSH1 0x8 SLOAD SWAP9 DUP2 MLOAD SWAP11 DUP12 MSTORE PUSH1 0x20 DUP12 ADD MSTORE DUP10 ADD MSTORE PUSH1 0x60 DUP9 ADD MSTORE PUSH1 0x80 DUP8 ADD MSTORE PUSH1 0xA0 DUP7 ADD MSTORE PUSH1 0xC0 DUP6 ADD MSTORE DUP4 ADD MSTORE PUSH2 0x100 DUP3 ADD MSTORE RETURN JUMPDEST SWAP1 SWAP4 POP PUSH1 0x20 DUP2 RETURNDATASIZE DUP3 GT PUSH2 0x19FC JUMPI JUMPDEST DUP2 PUSH2 0x19E3 PUSH1 0x20 SWAP4 DUP4 PUSH2 0x3735 JUMP JUMPDEST DUP2 ADD SUB SLT PUSH2 0x19F8 JUMPI PUSH2 0x120 SWAP6 POP MLOAD SWAP3 CODESIZE PUSH2 0x1978 JUMP JUMPDEST DUP6 DUP1 REVERT JUMPDEST RETURNDATASIZE SWAP2 POP PUSH2 0x19D6 JUMP JUMPDEST DUP4 MLOAD RETURNDATASIZE DUP9 DUP3 RETURNDATACOPY RETURNDATASIZE SWAP1 REVERT JUMPDEST POP POP POP CALLVALUE PUSH2 0x365 JUMPI DUP2 PUSH1 0x3 NOT CALLDATASIZE ADD SLT PUSH2 0x365 JUMPI PUSH1 0x20 SWAP1 PUSH1 0xA SLOAD SWAP1 MLOAD SWAP1 DUP2 MSTORE RETURN JUMPDEST POP POP POP CALLVALUE PUSH2 0x365 JUMPI DUP2 PUSH1 0x3 NOT CALLDATASIZE ADD SLT PUSH2 0x365 JUMPI PUSH1 0x20 SWAP1 PUSH1 0x17 SLOAD SWAP1 MLOAD SWAP1 DUP2 MSTORE RETURN JUMPDEST POP POP CALLVALUE PUSH2 0x342 JUMPI PUSH1 0x20 CALLDATASIZE PUSH1 0x3 NOT ADD SLT PUSH2 0x342 JUMPI DUP1 CALLDATALOAD SWAP1 PUSH2 0x1A98 CALLER PUSH32 0x0 PUSH1 0x1 PUSH1 0x1 PUSH1 0xA0 SHL SUB AND EQ PUSH2 0x385A JUMP JUMPDEST DUP2 ISZERO PUSH2 0x1AD8 JUMPI POP SWAP1 PUSH32 0x787A1FCA55641CE34A438271930BBB9401DF20DB2B4F510D4F252227D85DF43D SWAP2 PUSH1 0x10 SLOAD SWAP1 DUP1 PUSH1 0x10 SSTORE DUP3 MLOAD SWAP2 DUP3 MSTORE PUSH1 0x20 DUP3 ADD MSTORE LOG1 DUP1 RETURN JUMPDEST PUSH1 0x64 SWAP1 PUSH1 0x20 DUP5 MLOAD SWAP2 PUSH3 0x461BCD PUSH1 0xE5 SHL DUP4 MSTORE DUP3 ADD MSTORE PUSH1 0x1A PUSH1 0x24 DUP3 ADD MSTORE PUSH32 0x415059206D7573742062652067726561746572207468616E2030000000000000 PUSH1 0x44 DUP3 ADD MSTORE REVERT JUMPDEST POP POP POP CALLVALUE PUSH2 0x365 JUMPI DUP2 PUSH1 0x3 NOT CALLDATASIZE ADD SLT PUSH2 0x365 JUMPI PUSH1 0x20 SWAP1 PUSH1 0x8 SLOAD SWAP1 MLOAD SWAP1 DUP2 MSTORE RETURN JUMPDEST POP POP CALLVALUE PUSH2 0x342 JUMPI PUSH1 0x20 CALLDATASIZE PUSH1 0x3 NOT ADD SLT PUSH2 0x342 JUMPI PUSH32 0x6E838F2A03741F5F2AFF5480963B672FB0DD8430A4DC75DB9B67CE009733C9FE SWAP2 PUSH1 0xA0 SWAP2 CALLDATALOAD PUSH2 0x1BA8 CALLER PUSH32 0x0 PUSH1 0x1 PUSH1 0x1 PUSH1 0xA0 SHL SUB AND EQ PUSH2 0x385A JUMP JUMPDEST PUSH2 0x1BB3 DUP2 ISZERO ISZERO PUSH2 0x3893 JUMP JUMPDEST PUSH1 0x5 SLOAD SWAP2 DUP2 PUSH1 0x5 SSTORE DUP1 MLOAD SWAP3 PUSH1 0x60 DUP5 MSTORE PUSH1 0x5 PUSH1 0x60 DUP6 ADD MSTORE PUSH5 0x2A27A5A2A7 PUSH1 0xD9 SHL PUSH1 0x80 DUP6 ADD MSTORE PUSH1 0x20 DUP5 ADD MSTORE DUP3 ADD MSTORE LOG1 DUP1 RETURN JUMPDEST POP POP CALLVALUE PUSH2 0x342 JUMPI PUSH1 0x20 CALLDATASIZE PUSH1 0x3 NOT ADD SLT PUSH2 0x342 JUMPI PUSH32 0x6E838F2A03741F5F2AFF5480963B672FB0DD8430A4DC75DB9B67CE009733C9FE SWAP2 PUSH1 0xA0 SWAP2 CALLDATALOAD PUSH2 0x1C50 CALLER PUSH32 0x0 PUSH1 0x1 PUSH1 0x1 PUSH1 0xA0 SHL SUB AND EQ PUSH2 0x385A JUMP JUMPDEST PUSH2 0x1C5B DUP2 ISZERO ISZERO PUSH2 0x3893 JUMP JUMPDEST PUSH1 0x6 SLOAD SWAP2 DUP2 PUSH1 0x6 SSTORE DUP1 MLOAD SWAP3 PUSH1 0x60 DUP5 MSTORE PUSH1 0xA PUSH1 0x60 DUP6 ADD MSTORE PUSH10 0x29AA20A12622A1A7A4A7 PUSH1 0xB1 SHL PUSH1 0x80 DUP6 ADD MSTORE PUSH1 0x20 DUP5 ADD MSTORE DUP3 ADD MSTORE LOG1 DUP1 RETURN JUMPDEST POP POP SWAP1 CALLVALUE PUSH2 0x342 JUMPI PUSH1 0x20 SWAP1 DUP2 PUSH1 0x3 NOT CALLDATASIZE ADD SLT PUSH2 0x5AA JUMPI DUP3 SWAP2 SWAP3 CALLDATALOAD SWAP3 CALLER DUP6 MSTORE PUSH1 0xC DUP2 MSTORE PUSH1 0xFF PUSH2 0x1CC3 DUP2 DUP5 DUP9 KECCAK256 SLOAD AND ISZERO PUSH2 0x3949 JUMP JUMPDEST DUP5 DUP7 MSTORE PUSH1 0x13 DUP3 MSTORE DUP3 DUP7 KECCAK256 SLOAD PUSH1 0x1 PUSH1 0x1 PUSH1 0xA0 SHL SUB SWAP1 PUSH2 0x1CE4 SWAP1 DUP3 AND CALLER EQ PUSH2 0x3FBA JUMP JUMPDEST DUP7 SWAP5 DUP6 SWAP3 DUP4 DUP1 JUMPDEST CALLER DUP12 MSTORE PUSH1 0x12 DUP1 DUP9 MSTORE DUP9 DUP13 KECCAK256 DUP1 SLOAD DUP4 LT ISZERO PUSH2 0x1F58 JUMPI SWAP11 PUSH2 0x1D0C DUP4 DUP3 SWAP13 SWAP14 PUSH2 0x367B JUMP JUMPDEST POP SLOAD EQ PUSH2 0x1D25 JUMPI POP PUSH2 0x1D1D SWAP1 PUSH2 0x3CC3 JUMP JUMPDEST SWAP9 SWAP8 SWAP9 PUSH2 0x1CEB JUMP JUMPDEST SWAP6 POP SWAP8 SWAP9 POP POP CALLER DUP10 MSTORE DUP4 DUP6 MSTORE PUSH2 0x1D4E PUSH2 0x1D40 DUP9 DUP9 DUP13 KECCAK256 PUSH2 0x367B JUMP JUMPDEST POP SWAP2 PUSH1 0x6 DUP1 SWAP4 ADD SLOAD AND PUSH2 0x3D60 JUMP JUMPDEST CALLER DUP10 MSTORE DUP4 DUP6 MSTORE PUSH1 0x2 PUSH2 0x1D62 DUP9 DUP9 DUP13 KECCAK256 PUSH2 0x367B JUMP JUMPDEST POP ADD SLOAD CALLER DUP11 MSTORE DUP5 DUP7 MSTORE PUSH1 0x3 PUSH2 0x1D79 DUP10 DUP10 DUP14 KECCAK256 PUSH2 0x367B JUMP JUMPDEST POP ADD SLOAD SWAP1 PUSH3 0x15180 SWAP2 DUP3 DUP2 MUL SWAP3 DUP2 DUP5 DIV EQ SWAP1 ISZERO OR ISZERO PUSH2 0x1F45 JUMPI SWAP1 PUSH2 0x1D9C SWAP2 PUSH2 0x3CD2 JUMP JUMPDEST TIMESTAMP LT PUSH2 0x1F0B JUMPI SWAP2 DUP5 SWAP2 PUSH2 0x1DFF DUP11 PUSH2 0x1E45 SWAP6 PUSH2 0x1DE1 PUSH2 0x1DB9 DUP14 PUSH2 0x3DAC JUMP JUMPDEST SWAP12 CALLER DUP5 MSTORE DUP10 DUP9 MSTORE DUP12 PUSH2 0x1DCD DUP3 DUP3 DUP8 KECCAK256 PUSH2 0x367B JUMP JUMPDEST POP SWAP5 PUSH1 0x1 DUP1 SWAP7 ADD SLOAD SWAP12 CALLER DUP3 MSTORE DUP11 MSTORE KECCAK256 PUSH2 0x367B JUMP JUMPDEST POP ADD PUSH1 0xFF NOT DUP2 SLOAD AND SWAP1 SSTORE PUSH1 0x14 PUSH2 0x1DF8 DUP9 DUP3 SLOAD PUSH2 0x3D9F JUMP JUMPDEST SWAP1 SSTORE PUSH2 0x3D22 JUMP JUMPDEST PUSH2 0x1E08 CALLER PUSH2 0x4179 JUMP JUMPDEST PUSH2 0x1E12 DUP9 DUP7 PUSH2 0x3CD2 JUMP JUMPDEST DUP11 SLOAD DUP9 MLOAD PUSH4 0xA9059CBB PUSH1 0xE0 SHL DUP2 MSTORE CALLER SWAP4 DUP2 ADD SWAP4 DUP5 MSTORE PUSH1 0x20 DUP5 ADD SWAP3 SWAP1 SWAP3 MSTORE SWAP1 SWAP5 DUP6 SWAP4 SWAP1 SWAP2 AND SWAP2 DUP4 SWAP2 DUP13 SWAP2 DUP4 SWAP2 PUSH1 0x40 SWAP1 SWAP2 ADD SWAP1 JUMP JUMPDEST SUB SWAP3 GAS CALL SWAP1 DUP2 ISZERO PUSH2 0x1F01 JUMPI SWAP1 PUSH2 0x1E62 SWAP2 DUP9 SWAP2 PUSH2 0x1EE4 JUMPI JUMPDEST POP PUSH2 0x3C7F JUMP JUMPDEST DUP5 DUP5 ISZERO ISZERO SWAP2 DUP3 PUSH2 0x1ED0 JUMPI JUMPDEST DUP5 MLOAD SWAP1 DUP2 MSTORE PUSH32 0x7FC4727E062E336010F2C282598EF5F14FACB3DE68CF8195C2F23E1454B2B74E DUP5 CALLER SWAP3 LOG3 PUSH2 0x1E9F JUMPI DUP5 DUP1 RETURN JUMPDEST PUSH32 0xF87CFA2D5FEAEA949AD65BB76A26D8553381BCB6382ADBC83DEDD48961BF32D9 SWAP2 MLOAD SWAP3 DUP4 MSTORE CALLER SWAP3 LOG3 CODESIZE DUP1 DUP1 DUP1 DUP5 DUP1 RETURN JUMPDEST PUSH2 0x1EDC DUP7 PUSH1 0x15 SLOAD PUSH2 0x3CD2 JUMP JUMPDEST PUSH1 0x15 SSTORE PUSH2 0x1E6D JUMP JUMPDEST PUSH2 0x1EFB SWAP2 POP DUP5 RETURNDATASIZE DUP7 GT PUSH2 0x53B JUMPI PUSH2 0x52D DUP2 DUP4 PUSH2 0x3735 JUMP JUMPDEST CODESIZE PUSH2 0x1E5C JUMP JUMPDEST DUP5 MLOAD RETURNDATASIZE DUP10 DUP3 RETURNDATACOPY RETURNDATASIZE SWAP1 REVERT JUMPDEST DUP6 MLOAD PUSH3 0x461BCD PUSH1 0xE5 SHL DUP2 MSTORE DUP1 DUP4 ADD DUP7 SWAP1 MSTORE PUSH1 0x14 PUSH1 0x24 DUP3 ADD MSTORE PUSH20 0x14DD1A5B1B081A5B881B1BD8DAC81C195C9A5BD9 PUSH1 0x62 SHL PUSH1 0x44 DUP3 ADD MSTORE PUSH1 0x64 SWAP1 REVERT JUMPDEST PUSH4 0x4E487B71 PUSH1 0xE0 SHL DUP12 MSTORE PUSH1 0x11 DUP5 MSTORE PUSH1 0x24 DUP12 REVERT JUMPDEST POP POP POP PUSH2 0x1E45 SWAP4 SWAP2 POP SWAP2 PUSH2 0x1DFF DUP7 SWAP4 PUSH2 0x3D22 JUMP JUMPDEST POP POP DUP3 PUSH1 0x3 NOT CALLDATASIZE ADD SLT PUSH2 0x342 JUMPI CALLER DUP4 MSTORE PUSH1 0x20 PUSH1 0xC DUP2 MSTORE PUSH2 0x1F92 PUSH1 0xFF DUP5 DUP7 KECCAK256 SLOAD AND ISZERO PUSH2 0x3949 JUMP JUMPDEST CALLVALUE ISZERO SWAP1 PUSH2 0x1F9F DUP3 ISZERO PUSH2 0x398A JUMP JUMPDEST PUSH1 0x1 SLOAD PUSH1 0x1 PUSH1 0x1 PUSH1 0xA0 SHL SUB SWAP3 SWAP1 DUP4 AND SWAP1 PUSH2 0x1FBA DUP3 ISZERO ISZERO PUSH2 0x3B3D JUMP JUMPDEST PUSH3 0xF4240 SWAP1 DUP2 CALLVALUE MUL SWAP2 CALLVALUE DUP4 DIV EQ OR ISZERO PUSH2 0x217F JUMPI PUSH1 0x6 SLOAD PUSH2 0x1FD9 SWAP2 PUSH2 0x3A30 JUMP JUMPDEST SWAP4 DUP6 MLOAD PUSH4 0x70A08231 PUSH1 0xE0 SHL DUP2 MSTORE ADDRESS DUP3 DUP3 ADD MSTORE DUP4 DUP2 PUSH1 0x24 DUP2 DUP7 GAS STATICCALL DUP1 ISZERO PUSH2 0x542 JUMPI DUP7 SWAP2 DUP10 SWAP2 PUSH2 0x214A JUMPI JUMPDEST POP LT PUSH2 0x2107 JUMPI DUP6 MLOAD PUSH4 0xA9059CBB PUSH1 0xE0 SHL DUP2 MSTORE CALLER SWAP2 DUP2 ADD SWAP2 DUP3 MSTORE PUSH1 0x20 DUP3 ADD DUP7 SWAP1 MSTORE SWAP4 SWAP3 SWAP2 DUP3 SWAP2 DUP6 SWAP2 SWAP1 DUP3 SWAP1 DUP11 SWAP1 DUP3 SWAP1 PUSH1 0x40 ADD SUB SWAP3 GAS CALL DUP1 ISZERO PUSH2 0xFFD JUMPI PUSH32 0x48A1F8A6C840B32621CEAB4439A2CCD00B337E705DFDCDEC0B40C49ABF3E6BE3 SWAP4 PUSH2 0x2071 SWAP3 DUP9 SWAP3 PUSH2 0x20EA JUMPI JUMPDEST POP POP PUSH2 0x3B97 JUMP JUMPDEST PUSH2 0x20AC DUP6 DUP1 DUP1 DUP1 CALLVALUE DUP7 PUSH32 0x0 AND GAS CALL PUSH2 0x20A6 PUSH2 0x3A50 JUMP JUMPDEST POP PUSH2 0x3A90 JUMP JUMPDEST PUSH2 0x20C6 DUP2 PUSH1 0x1 SLOAD AND DUP5 PUSH2 0x20BD PUSH2 0x3C5F JUMP JUMPDEST SWAP2 CALLVALUE SWAP1 CALLER PUSH2 0x478B JUMP JUMPDEST PUSH1 0x1 SLOAD SWAP4 MLOAD SWAP3 DUP4 MSTORE CALLVALUE PUSH1 0x20 DUP5 ADD MSTORE TIMESTAMP PUSH1 0x40 DUP5 ADD MSTORE SWAP1 SWAP3 AND SWAP2 CALLER SWAP2 DUP1 PUSH1 0x60 DUP2 ADD PUSH2 0x4D7 JUMP JUMPDEST PUSH2 0x2100 SWAP3 POP DUP1 RETURNDATASIZE LT PUSH2 0x53B JUMPI PUSH2 0x52D DUP2 DUP4 PUSH2 0x3735 JUMP JUMPDEST CODESIZE DUP1 PUSH2 0x206A JUMP JUMPDEST DUP6 MLOAD PUSH3 0x461BCD PUSH1 0xE5 SHL DUP2 MSTORE SWAP1 DUP2 ADD DUP4 SWAP1 MSTORE PUSH1 0x1B PUSH1 0x24 DUP3 ADD MSTORE PUSH32 0x496E73756666696369656E742055534454206C69717569646974790000000000 PUSH1 0x44 DUP3 ADD MSTORE PUSH1 0x64 SWAP1 REVERT JUMPDEST DUP1 SWAP3 POP DUP6 DUP1 SWAP3 POP RETURNDATASIZE DUP4 GT PUSH2 0x2178 JUMPI JUMPDEST PUSH2 0x2163 DUP2 DUP4 PUSH2 0x3735 JUMP JUMPDEST DUP2 ADD SUB SLT PUSH2 0x2174 JUMPI DUP6 SWAP1 MLOAD CODESIZE PUSH2 0x2002 JUMP JUMPDEST DUP8 DUP1 REVERT JUMPDEST POP RETURNDATASIZE PUSH2 0x2159 JUMP JUMPDEST PUSH4 0x4E487B71 PUSH1 0xE0 SHL DUP8 MSTORE PUSH1 0x11 DUP6 MSTORE PUSH1 0x24 DUP8 REVERT JUMPDEST POP POP POP CALLVALUE PUSH2 0x365 JUMPI PUSH1 0x20 DUP1 PUSH1 0x3 NOT CALLDATASIZE ADD SLT PUSH2 0x342 JUMPI PUSH1 0x1 PUSH1 0x1 PUSH1 0xA0 SHL SUB SWAP3 DUP4 PUSH2 0x21B9 PUSH2 0x356D JUMP JUMPDEST AND DUP2 MSTORE PUSH1 0x1B DUP3 MSTORE DUP3 DUP2 KECCAK256 SWAP2 DUP4 MLOAD SWAP1 DUP2 DUP2 DUP6 SLOAD SWAP2 DUP3 DUP2 MSTORE ADD SWAP1 DUP2 SWAP6 DUP6 MSTORE DUP3 DUP6 KECCAK256 SWAP1 DUP6 JUMPDEST DUP2 DUP2 LT PUSH2 0x2227 JUMPI POP POP POP DUP3 PUSH2 0x21F1 SWAP2 SUB DUP4 PUSH2 0x3735 JUMP JUMPDEST DUP5 MLOAD SWAP5 DUP2 DUP7 ADD SWAP3 DUP3 DUP8 MSTORE MLOAD DUP1 SWAP4 MSTORE DUP6 ADD SWAP4 SWAP3 JUMPDEST DUP3 DUP2 LT PUSH2 0x2211 JUMPI DUP6 DUP6 SUB DUP7 RETURN JUMPDEST DUP4 MLOAD DUP8 AND DUP6 MSTORE SWAP4 DUP2 ADD SWAP4 SWAP3 DUP2 ADD SWAP3 PUSH1 0x1 ADD PUSH2 0x2204 JUMP JUMPDEST DUP3 SLOAD DUP11 AND DUP5 MSTORE SWAP3 DUP5 ADD SWAP3 PUSH1 0x1 SWAP3 DUP4 ADD SWAP3 ADD PUSH2 0x21DB JUMP JUMPDEST POP POP CALLVALUE PUSH2 0x342 JUMPI PUSH1 0x20 SWAP1 DUP2 PUSH1 0x3 NOT CALLDATASIZE ADD SLT PUSH2 0x5AA JUMPI DUP1 CALLDATALOAD SWAP2 CALLER DUP6 MSTORE PUSH1 0xC DUP2 MSTORE PUSH1 0xFF SWAP4 PUSH2 0x226E DUP6 DUP3 DUP9 KECCAK256 SLOAD AND ISZERO PUSH2 0x3949 JUMP JUMPDEST DUP4 DUP7 MSTORE PUSH1 0x13 DUP3 MSTORE DUP1 DUP7 KECCAK256 SLOAD PUSH1 0x1 PUSH1 0x1 PUSH1 0xA0 SHL SUB SWAP4 SWAP1 PUSH2 0x2290 SWAP1 DUP6 AND CALLER EQ PUSH2 0x3FBA JUMP JUMPDEST DUP7 SWAP4 DUP8 JUMPDEST CALLER DUP10 MSTORE PUSH1 0x12 DUP1 DUP7 MSTORE DUP5 DUP11 KECCAK256 DUP1 SLOAD DUP4 LT ISZERO PUSH2 0x2459 JUMPI PUSH2 0x22B3 DUP4 DUP11 SWAP3 PUSH2 0x367B JUMP JUMPDEST POP SLOAD EQ PUSH2 0x22C9 JUMPI POP PUSH2 0x22C4 SWAP1 PUSH2 0x3CC3 JUMP JUMPDEST PUSH2 0x2294 JUMP JUMPDEST SWAP7 SWAP8 PUSH2 0x22F2 SWAP2 SWAP3 SWAP4 SWAP5 SWAP6 SWAP7 POP CALLER DUP11 MSTORE DUP8 DUP8 MSTORE PUSH1 0x6 PUSH2 0x22E9 DUP5 DUP9 DUP14 KECCAK256 PUSH2 0x367B JUMP JUMPDEST POP ADD SLOAD AND PUSH2 0x3D60 JUMP JUMPDEST PUSH2 0x22FB DUP8 PUSH2 0x3DAC JUMP JUMPDEST SWAP6 DUP7 ISZERO PUSH2 0x241E JUMPI SWAP1 PUSH2 0x232C SWAP2 CALLER DUP11 MSTORE DUP1 DUP8 MSTORE DUP10 PUSH1 0x5 PUSH2 0x231C DUP5 DUP10 DUP5 KECCAK256 PUSH2 0x367B JUMP JUMPDEST POP ADD SSTORE CALLER DUP11 MSTORE DUP7 MSTORE DUP5 DUP10 KECCAK256 PUSH2 0x367B JUMP JUMPDEST POP TIMESTAMP SWAP1 DUP4 ADD SSTORE DUP7 SLOAD DUP4 MLOAD PUSH4 0xA9059CBB PUSH1 0xE0 SHL DUP2 MSTORE CALLER DUP2 DUP6 ADD SWAP1 DUP2 MSTORE PUSH1 0x20 DUP2 ADD DUP9 SWAP1 MSTORE SWAP1 SWAP3 DUP7 SWAP3 DUP5 SWAP3 DUP4 SWAP1 SUB PUSH1 0x40 ADD SWAP2 DUP4 SWAP2 DUP13 SWAP2 AND GAS CALL SWAP1 DUP2 ISZERO PUSH2 0x2414 JUMPI DUP8 SWAP2 PUSH2 0x23F7 JUMPI JUMPDEST POP ISZERO PUSH2 0x23BD JUMPI POP SWAP1 PUSH32 0xF87CFA2D5FEAEA949AD65BB76A26D8553381BCB6382ADBC83DEDD48961BF32D9 SWAP2 PUSH1 0x15 PUSH2 0x23A7 DUP6 DUP3 SLOAD PUSH2 0x3CD2 JUMP JUMPDEST SWAP1 SSTORE MLOAD SWAP3 DUP4 MSTORE CALLER SWAP3 LOG3 PUSH2 0x23BA PUSH1 0x1 PUSH2 0x3D22 JUMP JUMPDEST DUP1 RETURN JUMPDEST DUP3 PUSH1 0x64 SWAP3 MLOAD SWAP2 PUSH3 0x461BCD PUSH1 0xE5 SHL DUP4 MSTORE DUP3 ADD MSTORE PUSH1 0x16 PUSH1 0x24 DUP3 ADD MSTORE PUSH22 0x14995DD85C99081D1C985B9CD9995C8819985A5B1959 PUSH1 0x52 SHL PUSH1 0x44 DUP3 ADD MSTORE REVERT JUMPDEST PUSH2 0x240E SWAP2 POP DUP5 RETURNDATASIZE DUP7 GT PUSH2 0x53B JUMPI PUSH2 0x52D DUP2 DUP4 PUSH2 0x3735 JUMP JUMPDEST CODESIZE PUSH2 0x2370 JUMP JUMPDEST DUP4 MLOAD RETURNDATASIZE DUP10 DUP3 RETURNDATACOPY RETURNDATASIZE SWAP1 REVERT JUMPDEST DUP5 MLOAD PUSH3 0x461BCD PUSH1 0xE5 SHL DUP2 MSTORE DUP1 DUP6 ADD DUP8 SWAP1 MSTORE PUSH1 0x15 PUSH1 0x24 DUP3 ADD MSTORE PUSH21 0x139BC81C995DD85C991CC81D1BC81A185C9D995CDD PUSH1 0x5A SHL PUSH1 0x44 DUP3 ADD MSTORE PUSH1 0x64 SWAP1 REVERT JUMPDEST POP POP POP POP POP POP POP SWAP1 POP PUSH2 0x23BA SWAP2 POP PUSH2 0x3D22 JUMP JUMPDEST POP POP POP CALLVALUE PUSH2 0x365 JUMPI PUSH1 0x20 CALLDATASIZE PUSH1 0x3 NOT ADD SLT PUSH2 0x365 JUMPI PUSH1 0x20 SWAP2 DUP2 SWAP1 PUSH1 0x1 PUSH1 0x1 PUSH1 0xA0 SHL SUB PUSH2 0x2495 PUSH2 0x356D JUMP JUMPDEST AND DUP2 MSTORE PUSH1 0x1C DUP5 MSTORE KECCAK256 SLOAD SWAP1 MLOAD SWAP1 DUP2 MSTORE RETURN JUMPDEST POP POP POP CALLVALUE PUSH2 0x365 JUMPI DUP2 PUSH1 0x3 NOT CALLDATASIZE ADD SLT PUSH2 0x365 JUMPI PUSH1 0x20 SWAP1 PUSH1 0xB SLOAD SWAP1 MLOAD SWAP1 DUP2 MSTORE RETURN JUMPDEST POP POP POP CALLVALUE PUSH2 0x365 JUMPI PUSH1 0x20 CALLDATASIZE PUSH1 0x3 NOT ADD SLT PUSH2 0x365 JUMPI PUSH1 0x20 SWAP2 PUSH1 0xFF SWAP1 DUP3 SWAP1 PUSH1 0x1 PUSH1 0x1 PUSH1 0xA0 SHL SUB PUSH2 0x24F1 PUSH2 0x356D JUMP JUMPDEST AND DUP2 MSTORE PUSH1 0xC DUP6 MSTORE KECCAK256 SLOAD AND SWAP1 MLOAD SWAP1 ISZERO ISZERO DUP2 MSTORE RETURN JUMPDEST POP POP CALLVALUE PUSH2 0x342 JUMPI PUSH1 0x20 CALLDATASIZE PUSH1 0x3 NOT ADD SLT PUSH2 0x342 JUMPI DUP1 CALLDATALOAD SWAP1 PUSH2 0x254E CALLER PUSH32 0x0 PUSH1 0x1 PUSH1 0x1 PUSH1 0xA0 SHL SUB AND EQ PUSH2 0x385A JUMP JUMPDEST PUSH1 0x14 DUP3 GT PUSH2 0x2590 JUMPI POP SWAP1 PUSH32 0xD968A3CC702265C3AB67356DF15CA21D50167B011F198B963E2A868E04E3D5E0 SWAP2 PUSH1 0x19 SLOAD SWAP1 DUP1 PUSH1 0x19 SSTORE DUP3 MLOAD SWAP2 DUP3 MSTORE PUSH1 0x20 DUP3 ADD MSTORE LOG1 DUP1 RETURN JUMPDEST PUSH1 0x64 SWAP1 PUSH1 0x20 DUP5 MLOAD SWAP2 PUSH3 0x461BCD PUSH1 0xE5 SHL DUP4 MSTORE DUP3 ADD MSTORE PUSH1 0x13 PUSH1 0x24 DUP3 ADD MSTORE PUSH19 0xA0CAE4C6CADCE8C2CECA40E8DEDE40D0D2CED PUSH1 0x6B SHL PUSH1 0x44 DUP3 ADD MSTORE REVERT JUMPDEST POP POP POP CALLVALUE PUSH2 0x365 JUMPI PUSH1 0x20 CALLDATASIZE PUSH1 0x3 NOT ADD SLT PUSH2 0x365 JUMPI PUSH1 0x20 SWAP2 PUSH1 0x1 PUSH1 0x1 PUSH1 0xA0 SHL SUB SWAP1 DUP3 SWAP1 DUP3 PUSH2 0x25F4 PUSH2 0x356D JUMP JUMPDEST AND DUP2 MSTORE PUSH1 0x1A DUP6 MSTORE KECCAK256 SLOAD AND SWAP1 MLOAD SWAP1 DUP2 MSTORE RETURN JUMPDEST POP POP POP CALLVALUE PUSH2 0x365 JUMPI DUP2 PUSH1 0x3 NOT CALLDATASIZE ADD SLT PUSH2 0x365 JUMPI PUSH1 0x20 SWAP1 PUSH1 0xF SLOAD SWAP1 MLOAD SWAP1 DUP2 MSTORE RETURN JUMPDEST DUP3 DUP6 DUP6 CALLVALUE PUSH2 0x365 JUMPI DUP1 PUSH1 0x3 NOT CALLDATASIZE ADD SLT PUSH2 0x365 JUMPI DUP3 CALLDATALOAD PUSH1 0x24 CALLDATALOAD SWAP2 CALLER DUP5 MSTORE PUSH1 0x20 SWAP3 PUSH1 0xC DUP5 MSTORE PUSH2 0x2658 PUSH1 0xFF DUP4 DUP8 KECCAK256 SLOAD AND ISZERO PUSH2 0x3949 JUMP JUMPDEST PUSH1 0x11 SLOAD DUP4 LT PUSH2 0x28CE JUMPI DUP5 SLOAD PUSH1 0x1 PUSH1 0x1 PUSH1 0xA0 SHL SUB AND PUSH2 0x2677 DUP2 ISZERO ISZERO PUSH2 0x39C6 JUMP JUMPDEST PUSH1 0x1E DUP3 EQ DUP1 ISZERO PUSH2 0x28C4 JUMPI JUMPDEST DUP1 ISZERO PUSH2 0x28BA JUMPI JUMPDEST DUP1 ISZERO PUSH2 0x28AF JUMPI JUMPDEST ISZERO PUSH2 0x2876 JUMPI DUP3 MLOAD PUSH4 0x23B872DD PUSH1 0xE0 SHL DUP2 MSTORE CALLER DUP2 DUP10 ADD SWAP1 DUP2 MSTORE ADDRESS PUSH1 0x20 DUP3 ADD MSTORE PUSH1 0x40 DUP2 ADD DUP7 SWAP1 MSTORE SWAP1 SWAP2 DUP7 SWAP2 DUP4 SWAP2 SWAP1 DUP3 SWAP1 DUP11 SWAP1 DUP3 SWAP1 PUSH1 0x60 ADD SUB SWAP3 GAS CALL SWAP1 DUP2 ISZERO PUSH2 0x1A04 JUMPI SWAP1 PUSH2 0x26E1 SWAP2 DUP8 SWAP2 PUSH2 0x2859 JUMPI POP PUSH2 0x3C7F JUMP JUMPDEST PUSH1 0x17 SLOAD SWAP4 PUSH2 0x26EE DUP6 PUSH2 0x3CC3 JUMP JUMPDEST PUSH1 0x17 SSTORE DUP3 MLOAD PUSH2 0x26FC DUP2 PUSH2 0x36E7 JUMP JUMPDEST DUP6 DUP2 MSTORE DUP2 DUP2 ADD DUP6 DUP2 MSTORE DUP5 DUP3 ADD TIMESTAMP DUP2 MSTORE PUSH1 0x60 DUP4 ADD DUP6 DUP2 MSTORE PUSH1 0x80 DUP5 ADD SWAP1 TIMESTAMP DUP3 MSTORE PUSH1 0xA0 DUP6 ADD SWAP3 DUP12 DUP5 MSTORE PUSH1 0xC0 DUP7 ADD SWAP5 PUSH1 0x1 DUP7 MSTORE CALLER DUP14 MSTORE PUSH1 0x12 DUP9 MSTORE DUP10 DUP14 KECCAK256 DUP1 SLOAD SWAP1 PUSH1 0x1 PUSH1 0x40 SHL DUP3 LT ISZERO PUSH2 0x2845 JUMPI SWAP1 PUSH2 0x2754 SWAP2 PUSH1 0x1 DUP3 ADD DUP2 SSTORE PUSH2 0x367B JUMP JUMPDEST SWAP8 SWAP1 SWAP8 PUSH2 0x2833 JUMPI SWAP3 PUSH32 0xB4CAAF29ADDA3EEFEE3AD552A8E85058589BF834C7466CAE4EE58787F70589ED SWAP12 SWAP13 SWAP14 SWAP15 SWAP3 PUSH2 0x27C3 SWAP9 SWAP8 SWAP6 SWAP3 PUSH1 0x6 SWAP8 SWAP6 MLOAD DUP10 SSTORE MLOAD PUSH1 0x1 DUP10 ADD SSTORE MLOAD PUSH1 0x2 DUP9 ADD SSTORE MLOAD PUSH1 0x3 DUP8 ADD SSTORE MLOAD SWAP1 DUP6 ADD SSTORE MLOAD PUSH1 0x5 DUP5 ADD SSTORE MLOAD ISZERO ISZERO SWAP2 ADD SWAP1 PUSH1 0xFF DUP1 NOT DUP4 SLOAD AND SWAP2 ISZERO ISZERO AND OR SWAP1 SSTORE JUMP JUMPDEST DUP6 DUP8 MSTORE PUSH1 0x13 DUP2 MSTORE DUP3 DUP8 KECCAK256 CALLER PUSH1 0x1 PUSH1 0x1 PUSH1 0x60 SHL SUB PUSH1 0xA0 SHL DUP3 SLOAD AND OR SWAP1 SSTORE PUSH2 0x27EB DUP6 PUSH1 0x14 SLOAD PUSH2 0x3CD2 JUMP JUMPDEST PUSH1 0x14 SSTORE CALLER DUP8 MSTORE PUSH1 0x18 DUP2 MSTORE DUP3 DUP8 KECCAK256 DUP1 SLOAD PUSH1 0xFF DUP2 AND ISZERO PUSH2 0x2814 JUMPI JUMPDEST POP POP DUP3 MLOAD SWAP5 DUP6 MSTORE DUP5 ADD MSTORE CALLER SWAP3 LOG3 DUP1 RETURN JUMPDEST PUSH1 0xFF NOT AND PUSH1 0x1 OR SWAP1 SSTORE PUSH1 0x16 SLOAD PUSH2 0x2829 SWAP1 PUSH2 0x3CC3 JUMP JUMPDEST PUSH1 0x16 SSTORE DUP8 DUP1 PUSH2 0x2804 JUMP JUMPDEST PUSH4 0x4E487B71 PUSH1 0xE0 SHL DUP15 MSTORE DUP14 DUP16 MSTORE PUSH1 0x24 DUP15 REVERT JUMPDEST DUP16 DUP16 PUSH1 0x41 PUSH1 0x24 SWAP3 PUSH4 0x4E487B71 PUSH1 0xE0 SHL DUP4 MSTORE MSTORE REVERT JUMPDEST PUSH2 0x2870 SWAP2 POP DUP7 RETURNDATASIZE DUP9 GT PUSH2 0x53B JUMPI PUSH2 0x52D DUP2 DUP4 PUSH2 0x3735 JUMP JUMPDEST DUP9 PUSH2 0x1E5C JUMP JUMPDEST DUP3 MLOAD PUSH3 0x461BCD PUSH1 0xE5 SHL DUP2 MSTORE DUP1 DUP9 ADD DUP7 SWAP1 MSTORE PUSH1 0x13 PUSH1 0x24 DUP3 ADD MSTORE PUSH19 0x125B9D985B1A59081B1BD8DAC81C195C9A5BD9 PUSH1 0x6A SHL PUSH1 0x44 DUP3 ADD MSTORE PUSH1 0x64 SWAP1 REVERT JUMPDEST POP PUSH2 0x16D DUP3 EQ PUSH2 0x2690 JUMP JUMPDEST POP PUSH1 0xB4 DUP3 EQ PUSH2 0x2689 JUMP JUMPDEST POP PUSH1 0x5A DUP3 EQ PUSH2 0x2682 JUMP JUMPDEST DUP2 MLOAD PUSH3 0x461BCD PUSH1 0xE5 SHL DUP2 MSTORE DUP1 DUP8 ADD DUP6 SWAP1 MSTORE PUSH1 0x1A PUSH1 0x24 DUP3 ADD MSTORE PUSH32 0x416D6F756E742062656C6F77206D696E696D756D207374616B65000000000000 PUSH1 0x44 DUP3 ADD MSTORE PUSH1 0x64 SWAP1 REVERT JUMPDEST POP POP POP CALLVALUE PUSH2 0x365 JUMPI CALLDATASIZE PUSH1 0x3 NOT ADD SLT PUSH2 0x6A8 JUMPI PUSH2 0x292B PUSH2 0x356D JUMP JUMPDEST PUSH1 0x24 CALLDATALOAD SWAP1 PUSH1 0x1 PUSH1 0x1 PUSH1 0xA0 SHL SUB SWAP1 PUSH2 0x2965 CALLER PUSH32 0x0 DUP5 AND EQ PUSH2 0x385A JUMP JUMPDEST AND PUSH2 0x2971 DUP2 ISZERO ISZERO PUSH2 0x38CF JUMP JUMPDEST PUSH2 0x297C DUP3 ISZERO ISZERO PUSH2 0x390D JUMP JUMPDEST PUSH1 0x1 PUSH1 0x1 PUSH1 0x60 SHL SUB PUSH1 0xA0 SHL PUSH1 0x3 SLOAD AND OR PUSH1 0x3 SSTORE PUSH1 0x9 SSTORE DUP1 RETURN JUMPDEST POP POP SWAP2 CALLVALUE PUSH2 0x6A8 JUMPI PUSH1 0x20 SWAP3 DUP4 PUSH1 0x3 NOT CALLDATASIZE ADD SLT PUSH2 0x365 JUMPI DUP1 CALLDATALOAD SWAP1 CALLER DUP4 MSTORE PUSH1 0xC DUP6 MSTORE PUSH1 0xFF SWAP2 PUSH2 0x29C7 DUP4 DUP7 DUP7 KECCAK256 SLOAD AND ISZERO PUSH2 0x3949 JUMP JUMPDEST DUP1 DUP5 MSTORE PUSH1 0x13 DUP7 MSTORE DUP5 DUP5 KECCAK256 SLOAD PUSH1 0x1 PUSH1 0x1 PUSH1 0xA0 SHL SUB SWAP7 SWAP1 PUSH2 0x29E9 SWAP1 DUP9 AND CALLER EQ PUSH2 0x3FBA JUMP JUMPDEST DUP5 SWAP6 DUP6 JUMPDEST CALLER DUP8 MSTORE PUSH1 0x12 DUP1 DUP5 MSTORE DUP3 DUP9 KECCAK256 DUP1 SLOAD DUP4 LT ISZERO PUSH2 0x2CB1 JUMPI PUSH2 0x2A0C DUP4 DUP8 SWAP3 PUSH2 0x367B JUMP JUMPDEST POP SLOAD EQ PUSH2 0x2A22 JUMPI POP PUSH2 0x2A1D SWAP1 PUSH2 0x3CC3 JUMP JUMPDEST PUSH2 0x29ED JUMP JUMPDEST SWAP2 SWAP3 SWAP4 SWAP5 SWAP6 SWAP7 SWAP8 POP CALLER DUP9 MSTORE DUP2 DUP5 MSTORE PUSH2 0x2A4D PUSH2 0x2A3F DUP3 DUP6 DUP12 KECCAK256 PUSH2 0x367B JUMP JUMPDEST POP SWAP8 PUSH1 0x6 DUP1 SWAP10 ADD SLOAD AND PUSH2 0x3D60 JUMP JUMPDEST CALLER DUP9 MSTORE DUP2 DUP5 MSTORE PUSH1 0x2 PUSH2 0x2A61 DUP3 DUP6 DUP12 KECCAK256 PUSH2 0x367B JUMP JUMPDEST POP ADD SLOAD CALLER DUP10 MSTORE DUP3 DUP6 MSTORE PUSH1 0x3 PUSH2 0x2A78 DUP4 DUP7 DUP13 KECCAK256 PUSH2 0x367B JUMP JUMPDEST POP ADD SLOAD SWAP1 PUSH3 0x15180 SWAP2 DUP3 DUP2 MUL SWAP3 DUP2 DUP5 DIV EQ SWAP1 ISZERO OR ISZERO PUSH2 0x2C9E JUMPI SWAP10 PUSH2 0x2AA3 DUP7 SWAP3 DUP12 SWAP13 SWAP12 SWAP9 SWAP10 SWAP11 SWAP12 PUSH2 0x3CD2 JUMP JUMPDEST SWAP3 PUSH2 0x2AAD DUP10 PUSH2 0x3DAC JUMP JUMPDEST SWAP11 CALLER DUP10 MSTORE DUP6 DUP5 MSTORE PUSH2 0x2AC0 DUP3 DUP9 DUP12 KECCAK256 PUSH2 0x367B JUMP JUMPDEST POP SWAP2 DUP8 PUSH1 0x1 DUP1 SWAP5 ADD SLOAD SWAP11 DUP1 SWAP8 TIMESTAMP LT PUSH2 0x2C44 JUMPI JUMPDEST SWAP1 PUSH2 0x2AE9 SWAP3 SWAP2 PUSH2 0x2B49 SWAP9 SWAP10 CALLER DUP3 MSTORE DUP9 MSTORE KECCAK256 PUSH2 0x367B JUMP JUMPDEST POP ADD PUSH1 0xFF NOT DUP2 SLOAD AND SWAP1 SSTORE PUSH1 0x14 PUSH2 0x2B00 DUP10 DUP3 SLOAD PUSH2 0x3D9F JUMP JUMPDEST SWAP1 SSTORE SWAP9 PUSH2 0x2B16 DUP12 PUSH2 0x2B11 DUP8 DUP12 PUSH2 0x3D9F JUMP JUMPDEST PUSH2 0x3CD2 JUMP JUMPDEST DUP13 SLOAD DUP8 MLOAD PUSH4 0xA9059CBB PUSH1 0xE0 SHL DUP2 MSTORE CALLER SWAP4 DUP2 ADD SWAP4 DUP5 MSTORE PUSH1 0x20 DUP5 ADD SWAP3 SWAP1 SWAP3 MSTORE SWAP1 SWAP5 DUP6 SWAP4 SWAP1 SWAP2 AND SWAP2 DUP4 SWAP2 DUP15 SWAP2 DUP4 SWAP2 PUSH1 0x40 SWAP1 SWAP2 ADD SWAP1 JUMP JUMPDEST SUB SWAP3 GAS CALL SWAP1 DUP2 ISZERO PUSH2 0x2C3A JUMPI SWAP8 PUSH2 0x2B6A DUP8 SWAP3 PUSH2 0x2BAA SWAP11 DUP13 SWAP2 PUSH2 0x2C23 JUMPI POP PUSH2 0x3C7F JUMP JUMPDEST DUP1 PUSH2 0x2BE3 JUMPI JUMPDEST POP POP DUP1 ISZERO PUSH2 0x2BB3 JUMPI PUSH32 0x9C9EC3CFA814B0112B71C20D0B0AB54DEAD00A99FD389C174DF717D2F1D36403 SWAP3 DUP3 MLOAD SWAP5 DUP6 MSTORE DUP5 ADD MSTORE CALLER SWAP3 LOG3 PUSH2 0x3D22 JUMP JUMPDEST PUSH2 0x23BA CALLER PUSH2 0x4179 JUMP JUMPDEST POP SWAP1 PUSH32 0x7FC4727E062E336010F2C282598EF5F14FACB3DE68CF8195C2F23E1454B2B74E SWAP2 MLOAD SWAP3 DUP4 MSTORE CALLER SWAP3 LOG3 PUSH2 0x3D22 JUMP JUMPDEST PUSH1 0x15 PUSH2 0x2BF0 DUP3 DUP3 SLOAD PUSH2 0x3CD2 JUMP JUMPDEST SWAP1 SSTORE DUP4 MLOAD SWAP1 DUP2 MSTORE PUSH32 0xF87CFA2D5FEAEA949AD65BB76A26D8553381BCB6382ADBC83DEDD48961BF32D9 DUP6 CALLER SWAP3 LOG3 DUP5 CODESIZE PUSH2 0x2B70 JUMP JUMPDEST PUSH2 0x1EFB SWAP2 POP DUP8 RETURNDATASIZE DUP10 GT PUSH2 0x53B JUMPI PUSH2 0x52D DUP2 DUP4 PUSH2 0x3735 JUMP JUMPDEST DUP4 MLOAD RETURNDATASIZE DUP12 DUP3 RETURNDATACOPY RETURNDATASIZE SWAP1 REVERT JUMPDEST POP POP SWAP2 SWAP4 POP SWAP2 SWAP4 POP PUSH1 0x5 DUP1 DUP10 MUL SWAP1 DUP10 DUP3 DIV EQ DUP10 ISZERO OR ISZERO PUSH2 0x2C8B JUMPI SWAP2 PUSH2 0x2AE9 DUP9 SWAP5 SWAP3 DUP9 DUP16 PUSH1 0x64 PUSH2 0x2B49 SWAP10 SWAP8 DIV SWAP10 PUSH1 0xF PUSH2 0x2C7D DUP13 DUP3 SLOAD PUSH2 0x3CD2 JUMP JUMPDEST SWAP1 SSTORE SWAP10 SWAP9 POP SWAP1 SWAP2 SWAP3 POP PUSH2 0x2AD3 JUMP JUMPDEST PUSH4 0x4E487B71 PUSH1 0xE0 SHL DUP14 MSTORE PUSH1 0x11 DUP12 MSTORE PUSH1 0x24 DUP14 REVERT JUMPDEST PUSH4 0x4E487B71 PUSH1 0xE0 SHL DUP11 MSTORE PUSH1 0x11 DUP9 MSTORE PUSH1 0x24 DUP11 REVERT JUMPDEST POP POP POP POP POP POP POP POP SWAP2 POP PUSH2 0x2BAA SWAP1 PUSH2 0x3D22 JUMP JUMPDEST POP POP DUP3 CALLVALUE PUSH2 0x6A8 JUMPI DUP1 PUSH1 0x3 NOT CALLDATASIZE ADD SLT PUSH2 0x6A8 JUMPI SWAP1 PUSH1 0xE SLOAD SWAP1 PUSH2 0x2CE5 DUP3 PUSH2 0x4846 JUMP JUMPDEST SWAP3 PUSH2 0x2CF2 DUP6 MLOAD SWAP5 DUP6 PUSH2 0x3735 JUMP JUMPDEST DUP3 DUP5 MSTORE PUSH1 0xE DUP2 MSTORE SWAP1 PUSH1 0x20 SWAP1 PUSH32 0xBB7B4A454DC3493923482F07822329ED19E8244EFF582CC204F8554C3620C3FD SWAP1 DUP3 DUP7 ADD JUMPDEST DUP6 DUP6 LT PUSH2 0x2D37 JUMPI DUP8 MLOAD DUP1 PUSH2 0x63C DUP10 DUP3 PUSH2 0x35C8 JUMP JUMPDEST PUSH1 0x7 DUP5 PUSH1 0x1 SWAP3 DUP11 MLOAD PUSH2 0x2D48 DUP2 PUSH2 0x36E7 JUMP JUMPDEST DUP7 SLOAD DUP2 MSTORE DUP5 DUP1 PUSH1 0xA0 SHL SUB DUP1 DUP7 DUP10 ADD SLOAD AND DUP5 DUP4 ADD MSTORE DUP1 PUSH1 0x2 DUP10 ADD SLOAD AND DUP14 DUP4 ADD MSTORE PUSH1 0x3 DUP9 ADD SLOAD AND PUSH1 0x60 DUP3 ADD MSTORE DUP6 DUP8 ADD SLOAD PUSH1 0x80 DUP3 ADD MSTORE PUSH1 0x5 DUP8 ADD SLOAD PUSH1 0xA0 DUP3 ADD MSTORE PUSH2 0x2D91 PUSH1 0x6 DUP9 ADD PUSH2 0x3757 JUMP JUMPDEST PUSH1 0xC0 DUP3 ADD MSTORE DUP2 MSTORE ADD SWAP4 ADD SWAP5 ADD SWAP4 SWAP2 PUSH2 0x2D23 JUMP JUMPDEST POP POP DUP3 PUSH1 0x3 NOT CALLDATASIZE ADD SLT PUSH2 0x342 JUMPI CALLER DUP4 MSTORE PUSH1 0x20 PUSH1 0xC DUP2 MSTORE PUSH2 0x2DCA PUSH1 0xFF DUP5 DUP7 KECCAK256 SLOAD AND ISZERO PUSH2 0x3949 JUMP JUMPDEST CALLVALUE ISZERO SWAP1 PUSH2 0x2DD7 DUP3 ISZERO PUSH2 0x398A JUMP JUMPDEST PUSH1 0x2 SLOAD PUSH1 0x1 PUSH1 0x1 PUSH1 0xA0 SHL SUB SWAP3 SWAP1 DUP4 AND SWAP1 PUSH2 0x2DF2 DUP3 ISZERO ISZERO PUSH2 0x3BDA JUMP JUMPDEST PUSH3 0xF4240 SWAP1 DUP2 CALLVALUE MUL SWAP2 CALLVALUE DUP4 DIV EQ OR ISZERO PUSH2 0x217F JUMPI PUSH1 0x6 SLOAD PUSH2 0x2E11 SWAP2 PUSH2 0x3A30 JUMP JUMPDEST SWAP4 DUP6 MLOAD PUSH4 0x70A08231 PUSH1 0xE0 SHL DUP2 MSTORE ADDRESS DUP3 DUP3 ADD MSTORE DUP4 DUP2 PUSH1 0x24 DUP2 DUP7 GAS STATICCALL DUP1 ISZERO PUSH2 0x542 JUMPI DUP7 SWAP2 DUP10 SWAP2 PUSH2 0x2F73 JUMPI JUMPDEST POP LT PUSH2 0x2F30 JUMPI DUP6 MLOAD PUSH4 0xA9059CBB PUSH1 0xE0 SHL DUP2 MSTORE CALLER SWAP2 DUP2 ADD SWAP2 DUP3 MSTORE PUSH1 0x20 DUP3 ADD DUP7 SWAP1 MSTORE SWAP4 SWAP3 SWAP2 DUP3 SWAP2 DUP6 SWAP2 SWAP1 DUP3 SWAP1 DUP11 SWAP1 DUP3 SWAP1 PUSH1 0x40 ADD SUB SWAP3 GAS CALL DUP1 ISZERO PUSH2 0xFFD JUMPI PUSH32 0x48A1F8A6C840B32621CEAB4439A2CCD00B337E705DFDCDEC0B40C49ABF3E6BE3 SWAP4 PUSH2 0x2EA9 SWAP3 DUP9 SWAP3 PUSH2 0x2F13 JUMPI JUMPDEST POP POP PUSH2 0x3C1C JUMP JUMPDEST PUSH2 0x2EDE DUP6 DUP1 DUP1 DUP1 CALLVALUE DUP7 PUSH32 0x0 AND GAS CALL PUSH2 0x20A6 PUSH2 0x3A50 JUMP JUMPDEST PUSH2 0x2EEF DUP2 PUSH1 0x2 SLOAD AND DUP5 PUSH2 0x20BD PUSH2 0x3C5F JUMP JUMPDEST PUSH1 0x2 SLOAD SWAP4 MLOAD SWAP3 DUP4 MSTORE CALLVALUE PUSH1 0x20 DUP5 ADD MSTORE TIMESTAMP PUSH1 0x40 DUP5 ADD MSTORE SWAP1 SWAP3 AND SWAP2 CALLER SWAP2 DUP1 PUSH1 0x60 DUP2 ADD PUSH2 0x4D7 JUMP JUMPDEST PUSH2 0x2F29 SWAP3 POP DUP1 RETURNDATASIZE LT PUSH2 0x53B JUMPI PUSH2 0x52D DUP2 DUP4 PUSH2 0x3735 JUMP JUMPDEST CODESIZE DUP1 PUSH2 0x2EA2 JUMP JUMPDEST DUP6 MLOAD PUSH3 0x461BCD PUSH1 0xE5 SHL DUP2 MSTORE SWAP1 DUP2 ADD DUP4 SWAP1 MSTORE PUSH1 0x1B PUSH1 0x24 DUP3 ADD MSTORE PUSH32 0x496E73756666696369656E742055534443206C69717569646974790000000000 PUSH1 0x44 DUP3 ADD MSTORE PUSH1 0x64 SWAP1 REVERT JUMPDEST DUP1 SWAP3 POP DUP6 DUP1 SWAP3 POP RETURNDATASIZE DUP4 GT PUSH2 0x2F9D JUMPI JUMPDEST PUSH2 0x2F8C DUP2 DUP4 PUSH2 0x3735 JUMP JUMPDEST DUP2 ADD SUB SLT PUSH2 0x2174 JUMPI DUP6 SWAP1 MLOAD CODESIZE PUSH2 0x2E3A JUMP JUMPDEST POP RETURNDATASIZE PUSH2 0x2F82 JUMP JUMPDEST POP POP POP CALLVALUE PUSH2 0x365 JUMPI PUSH1 0x20 CALLDATASIZE PUSH1 0x3 NOT ADD SLT PUSH2 0x365 JUMPI PUSH1 0x80 SWAP2 PUSH1 0x1 PUSH1 0x1 PUSH1 0xA0 SHL SUB DUP1 PUSH2 0x2FCC PUSH2 0x356D JUMP JUMPDEST AND DUP3 MSTORE PUSH1 0x1A PUSH1 0x20 MSTORE DUP3 DUP3 KECCAK256 SLOAD AND SWAP2 PUSH1 0x1B PUSH1 0x20 MSTORE DUP1 DUP1 DUP4 KECCAK256 SLOAD SWAP3 PUSH1 0x1C PUSH1 0x20 MSTORE KECCAK256 SLOAD SWAP1 PUSH1 0x19 SLOAD SWAP3 DUP2 MLOAD SWAP5 DUP6 MSTORE PUSH1 0x20 DUP6 ADD MSTORE DUP4 ADD MSTORE PUSH1 0x60 DUP3 ADD MSTORE RETURN JUMPDEST POP POP POP CALLVALUE PUSH2 0x365 JUMPI DUP2 PUSH1 0x3 NOT CALLDATASIZE ADD SLT PUSH2 0x365 JUMPI PUSH1 0x20 SWAP1 PUSH1 0x10 SLOAD SWAP1 MLOAD SWAP1 DUP2 MSTORE RETURN JUMPDEST POP POP POP CALLVALUE PUSH2 0x365 JUMPI CALLDATASIZE PUSH1 0x3 NOT ADD SLT PUSH2 0x6A8 JUMPI PUSH2 0x303F PUSH2 0x356D JUMP JUMPDEST PUSH1 0x24 CALLDATALOAD SWAP1 PUSH1 0x1 PUSH1 0x1 PUSH1 0xA0 SHL SUB SWAP1 PUSH2 0x3079 CALLER PUSH32 0x0 DUP5 AND EQ PUSH2 0x385A JUMP JUMPDEST AND PUSH2 0x3085 DUP2 ISZERO ISZERO PUSH2 0x38CF JUMP JUMPDEST PUSH2 0x3090 DUP3 ISZERO ISZERO PUSH2 0x390D JUMP JUMPDEST PUSH1 0x1 PUSH1 0x1 PUSH1 0x60 SHL SUB PUSH1 0xA0 SHL PUSH1 0x2 SLOAD AND OR PUSH1 0x2 SSTORE PUSH1 0x8 SSTORE DUP1 RETURN JUMPDEST POP POP CALLVALUE PUSH2 0x342 JUMPI DUP3 PUSH1 0x3 NOT CALLDATASIZE ADD SLT PUSH2 0x342 JUMPI SLOAD SWAP1 MLOAD PUSH1 0x1 PUSH1 0x1 PUSH1 0xA0 SHL SUB SWAP1 SWAP2 AND DUP2 MSTORE PUSH1 0x20 SWAP2 POP RETURN JUMPDEST POP POP POP CALLVALUE PUSH2 0x365 JUMPI DUP1 PUSH1 0x3 NOT CALLDATASIZE ADD SLT PUSH2 0x365 JUMPI PUSH2 0x30EC PUSH2 0x356D JUMP JUMPDEST SWAP1 PUSH1 0x24 CALLDATALOAD SWAP2 DUP3 ISZERO ISZERO DUP1 DUP5 SUB PUSH2 0x317F JUMPI PUSH32 0xDDA6207409A585801122FB885DCAA8074F9A21F25FF2DEF680C67F01A86C2C9B SWAP3 PUSH1 0x20 SWAP3 PUSH2 0x3177 SWAP1 PUSH1 0x1 PUSH1 0x1 PUSH1 0xA0 SHL SUB SWAP1 PUSH2 0x315A CALLER PUSH32 0x0 DUP5 AND EQ PUSH2 0x385A JUMP JUMPDEST AND SWAP6 DUP7 DUP9 MSTORE PUSH1 0xC DUP6 MSTORE DUP3 DUP9 KECCAK256 SWAP1 PUSH1 0xFF DUP1 NOT DUP4 SLOAD AND SWAP2 ISZERO ISZERO AND OR SWAP1 SSTORE JUMP JUMPDEST MLOAD SWAP1 DUP2 MSTORE LOG2 DUP1 RETURN JUMPDEST DUP5 DUP1 REVERT JUMPDEST DUP3 DUP6 DUP6 DUP2 PUSH1 0x3 NOT CALLDATASIZE ADD SLT PUSH2 0x365 JUMPI CALLER DUP3 MSTORE PUSH1 0xC PUSH1 0x20 MSTORE PUSH2 0x31A9 PUSH1 0xFF DUP3 DUP5 KECCAK256 SLOAD AND ISZERO PUSH2 0x3949 JUMP JUMPDEST CALLVALUE ISZERO SWAP1 PUSH2 0x31B6 DUP3 ISZERO PUSH2 0x398A JUMP JUMPDEST DUP3 SLOAD PUSH1 0x1 PUSH1 0x1 PUSH1 0xA0 SHL SUB SWAP3 SWAP1 PUSH2 0x31CF SWAP1 DUP5 AND ISZERO ISZERO PUSH2 0x39C6 JUMP JUMPDEST PUSH8 0xDE0B6B3A7640000 SWAP1 DUP2 CALLVALUE MUL SWAP2 CALLVALUE DUP4 DIV EQ OR ISZERO PUSH2 0x3275 JUMPI DUP4 SWAP3 SWAP2 PUSH2 0x3257 PUSH2 0x320C PUSH2 0xF96 PUSH1 0x0 DUP1 MLOAD PUSH1 0x20 PUSH2 0x48EC DUP4 CODECOPY DUP2 MLOAD SWAP2 MSTORE SWAP5 PUSH1 0x5 SLOAD SWAP1 PUSH2 0x3A30 JUMP JUMPDEST SWAP4 PUSH2 0x3216 DUP6 PUSH2 0x4232 JUMP JUMPDEST PUSH2 0x324B DUP7 DUP1 DUP1 DUP1 CALLVALUE DUP7 PUSH32 0x0 AND GAS CALL PUSH2 0x20A6 PUSH2 0x3A50 JUMP JUMPDEST DUP6 SLOAD AND DUP5 PUSH2 0x20BD PUSH2 0x3AD2 JUMP JUMPDEST MLOAD CALLVALUE DUP2 MSTORE PUSH1 0x20 DUP2 ADD SWAP3 SWAP1 SWAP3 MSTORE TIMESTAMP PUSH1 0x40 DUP4 ADD MSTORE CALLER SWAP2 DUP1 PUSH1 0x60 DUP2 ADD PUSH2 0x4D7 JUMP JUMPDEST PUSH4 0x4E487B71 PUSH1 0xE0 SHL DUP5 MSTORE PUSH1 0x11 DUP6 MSTORE PUSH1 0x24 DUP5 REVERT JUMPDEST DUP4 DUP6 DUP5 CALLVALUE PUSH2 0x365 JUMPI PUSH1 0x20 SWAP1 DUP2 PUSH1 0x3 NOT CALLDATASIZE ADD SLT PUSH2 0x342 JUMPI CALLDATALOAD SWAP3 DUP4 DUP4 MSTORE PUSH1 0x13 DUP3 MSTORE PUSH1 0x1 DUP1 PUSH1 0xA0 SHL SUB DUP2 DUP5 KECCAK256 SLOAD AND SWAP3 PUSH2 0x32BF DUP5 ISZERO ISZERO PUSH2 0x3CDF JUMP JUMPDEST PUSH2 0x32C7 PUSH2 0x48B3 JUMP JUMPDEST DUP2 SWAP6 DUP3 JUMPDEST DUP7 DUP5 MSTORE PUSH1 0x12 DUP1 DUP8 MSTORE DUP6 DUP6 KECCAK256 DUP1 SLOAD DUP4 LT ISZERO PUSH2 0x3346 JUMPI PUSH2 0x32EA DUP4 DUP6 SWAP3 PUSH2 0x367B JUMP JUMPDEST POP SLOAD EQ PUSH2 0x3300 JUMPI POP PUSH2 0x32FB SWAP1 PUSH2 0x3CC3 JUMP JUMPDEST PUSH2 0x32CB JUMP JUMPDEST PUSH1 0x80 SWAP9 POP PUSH2 0x1637 SWAP4 POP DUP6 SWAP2 SWAP3 POP SWAP4 PUSH2 0x331D SWAP5 DUP9 DUP3 MSTORE DUP8 MSTORE KECCAK256 PUSH2 0x367B JUMP JUMPDEST SWAP1 PUSH2 0x3328 PUSH1 0x1 PUSH2 0x3D22 JUMP JUMPDEST DUP2 MLOAD SWAP4 DUP2 DUP5 DUP5 ADD MLOAD SWAP4 ADD MLOAD SWAP4 DUP3 MLOAD SWAP6 DUP7 MSTORE DUP6 ADD MSTORE DUP4 ADD MSTORE PUSH1 0x60 DUP3 ADD MSTORE RETURN JUMPDEST POP POP POP POP SWAP2 SWAP1 POP PUSH2 0x3328 PUSH1 0x80 SWAP6 PUSH2 0x3D22 JUMP JUMPDEST POP POP SWAP1 CALLVALUE PUSH2 0x342 JUMPI DUP1 PUSH1 0x3 NOT CALLDATASIZE ADD SLT PUSH2 0x342 JUMPI PUSH2 0x3373 PUSH2 0x356D JUMP JUMPDEST PUSH1 0x24 CALLDATALOAD SWAP1 PUSH32 0x0 PUSH1 0x1 PUSH1 0x1 PUSH1 0xA0 SHL SUB PUSH2 0x33AD CALLER DUP3 DUP5 AND EQ PUSH2 0x385A JUMP JUMPDEST DUP1 DUP8 SLOAD AND SWAP3 AND SWAP2 DUP3 EQ PUSH2 0x3468 JUMPI JUMPDEST DUP4 MLOAD PUSH4 0xA9059CBB PUSH1 0xE0 SHL DUP2 MSTORE PUSH1 0x1 PUSH1 0x1 PUSH1 0xA0 SHL SUB SWAP1 SWAP2 AND DUP6 DUP3 ADD SWAP1 DUP2 MSTORE PUSH1 0x20 DUP2 DUP2 ADD SWAP5 SWAP1 SWAP5 MSTORE SWAP1 SWAP3 SWAP2 DUP4 SWAP2 DUP3 SWAP1 DUP9 SWAP1 DUP3 SWAP1 PUSH1 0x40 ADD SUB SWAP3 GAS CALL SWAP1 DUP2 ISZERO PUSH2 0x345E JUMPI DUP5 SWAP2 PUSH2 0x3440 JUMPI JUMPDEST POP ISZERO PUSH2 0x340B JUMPI DUP3 DUP1 RETURN JUMPDEST SWAP1 PUSH1 0x20 PUSH1 0x64 SWAP3 MLOAD SWAP2 PUSH3 0x461BCD PUSH1 0xE5 SHL DUP4 MSTORE DUP3 ADD MSTORE PUSH1 0xF PUSH1 0x24 DUP3 ADD MSTORE PUSH15 0x151C985B9CD9995C8819985A5B1959 PUSH1 0x8A SHL PUSH1 0x44 DUP3 ADD MSTORE REVERT JUMPDEST PUSH2 0x3458 SWAP2 POP PUSH1 0x20 RETURNDATASIZE DUP2 GT PUSH2 0x53B JUMPI PUSH2 0x52D DUP2 DUP4 PUSH2 0x3735 JUMP JUMPDEST CODESIZE PUSH2 0x3401 JUMP JUMPDEST DUP3 MLOAD RETURNDATASIZE DUP7 DUP3 RETURNDATACOPY RETURNDATASIZE SWAP1 REVERT JUMPDEST DUP4 MLOAD PUSH4 0x70A08231 PUSH1 0xE0 SHL DUP2 MSTORE ADDRESS DUP7 DUP3 ADD MSTORE PUSH1 0x20 DUP2 PUSH1 0x24 DUP2 DUP7 GAS STATICCALL DUP1 ISZERO PUSH2 0x351E JUMPI DUP8 SWAP1 PUSH2 0x34E7 JUMPI JUMPDEST PUSH2 0x349D SWAP2 POP PUSH1 0x14 SLOAD SWAP1 PUSH2 0x3D9F JUMP JUMPDEST DUP4 GT ISZERO PUSH2 0x33BB JUMPI DUP4 MLOAD PUSH3 0x461BCD PUSH1 0xE5 SHL DUP2 MSTORE PUSH1 0x20 DUP2 DUP8 ADD MSTORE PUSH1 0x1D PUSH1 0x24 DUP3 ADD MSTORE PUSH32 0x43616E6E6F74207769746864726177207374616B656420746F6B656E73000000 PUSH1 0x44 DUP3 ADD MSTORE PUSH1 0x64 SWAP1 REVERT JUMPDEST POP PUSH1 0x20 DUP2 RETURNDATASIZE DUP3 GT PUSH2 0x3516 JUMPI JUMPDEST DUP2 PUSH2 0x3500 PUSH1 0x20 SWAP4 DUP4 PUSH2 0x3735 JUMP JUMPDEST DUP2 ADD SUB SLT PUSH2 0x3512 JUMPI PUSH2 0x349D SWAP1 MLOAD PUSH2 0x348F JUMP JUMPDEST DUP7 DUP1 REVERT JUMPDEST RETURNDATASIZE SWAP2 POP PUSH2 0x34F3 JUMP JUMPDEST DUP6 MLOAD RETURNDATASIZE DUP10 DUP3 RETURNDATACOPY RETURNDATASIZE SWAP1 REVERT JUMPDEST POP POP POP CALLVALUE PUSH2 0x365 JUMPI DUP2 PUSH1 0x3 NOT CALLDATASIZE ADD SLT PUSH2 0x365 JUMPI PUSH1 0x20 SWAP1 PUSH1 0x9 SLOAD SWAP1 MLOAD SWAP1 DUP2 MSTORE RETURN JUMPDEST DUP6 SWAP1 CALLVALUE PUSH2 0x365 JUMPI DUP2 PUSH1 0x3 NOT CALLDATASIZE ADD SLT PUSH2 0x365 JUMPI PUSH1 0x2 SLOAD PUSH1 0x1 PUSH1 0x1 PUSH1 0xA0 SHL SUB AND DUP2 MSTORE PUSH1 0x20 SWAP1 RETURN JUMPDEST PUSH1 0x4 CALLDATALOAD SWAP1 PUSH1 0x1 PUSH1 0x1 PUSH1 0xA0 SHL SUB DUP3 AND DUP3 SUB PUSH2 0x3583 JUMPI JUMP JUMPDEST PUSH1 0x0 DUP1 REVERT JUMPDEST SWAP2 SWAP1 DUP3 MLOAD SWAP3 DUP4 DUP3 MSTORE PUSH1 0x0 JUMPDEST DUP5 DUP2 LT PUSH2 0x35B4 JUMPI POP POP DUP3 PUSH1 0x0 PUSH1 0x20 DUP1 SWAP5 SWAP6 DUP5 ADD ADD MSTORE PUSH1 0x1F DUP1 NOT SWAP2 ADD AND ADD ADD SWAP1 JUMP JUMPDEST PUSH1 0x20 DUP2 DUP4 ADD DUP2 ADD MLOAD DUP5 DUP4 ADD DUP3 ADD MSTORE ADD PUSH2 0x3593 JUMP JUMPDEST PUSH1 0x20 DUP1 DUP3 ADD SWAP1 DUP1 DUP4 MSTORE DUP4 MLOAD DUP1 SWAP3 MSTORE PUSH1 0x40 SWAP3 DUP4 DUP2 ADD DUP3 DUP6 DUP6 PUSH1 0x5 SHL DUP5 ADD ADD SWAP7 ADD SWAP5 PUSH1 0x0 SWAP3 JUMPDEST DUP6 DUP5 LT PUSH2 0x35FD JUMPI POP POP POP POP POP POP POP SWAP1 JUMP JUMPDEST SWAP1 SWAP2 SWAP3 SWAP4 SWAP5 SWAP6 SWAP7 DUP6 DUP1 PUSH2 0x366A PUSH1 0x1 SWAP4 PUSH1 0x3F NOT DUP7 DUP3 SUB ADD DUP9 MSTORE DUP12 MLOAD DUP1 MLOAD DUP3 MSTORE DUP6 DUP1 PUSH1 0xA0 SHL SUB DUP1 DUP6 DUP4 ADD MLOAD AND DUP6 DUP5 ADD MSTORE DUP1 DUP10 DUP4 ADD MLOAD AND DUP10 DUP5 ADD MSTORE PUSH1 0x60 SWAP1 DUP2 DUP4 ADD MLOAD AND SWAP1 DUP4 ADD MSTORE PUSH1 0x80 DUP1 DUP3 ADD MLOAD SWAP1 DUP4 ADD MSTORE PUSH1 0xA0 DUP1 DUP3 ADD MLOAD SWAP1 DUP4 ADD MSTORE PUSH1 0xC0 DUP1 SWAP2 ADD MLOAD SWAP2 PUSH1 0xE0 DUP1 SWAP3 DUP3 ADD MSTORE ADD SWAP1 PUSH2 0x3588 JUMP JUMPDEST SWAP10 ADD SWAP5 ADD SWAP5 ADD SWAP3 SWAP6 SWAP5 SWAP4 SWAP2 SWAP1 PUSH2 0x35EC JUMP JUMPDEST DUP1 SLOAD DUP3 LT ISZERO PUSH2 0x3697 JUMPI PUSH1 0x0 MSTORE PUSH1 0x7 PUSH1 0x20 PUSH1 0x0 KECCAK256 SWAP2 MUL ADD SWAP1 PUSH1 0x0 SWAP1 JUMP JUMPDEST PUSH4 0x4E487B71 PUSH1 0xE0 SHL PUSH1 0x0 MSTORE PUSH1 0x32 PUSH1 0x4 MSTORE PUSH1 0x24 PUSH1 0x0 REVERT JUMPDEST SWAP1 PUSH1 0x1 DUP3 DUP2 SHR SWAP3 AND DUP1 ISZERO PUSH2 0x36DD JUMPI JUMPDEST PUSH1 0x20 DUP4 LT EQ PUSH2 0x36C7 JUMPI JUMP JUMPDEST PUSH4 0x4E487B71 PUSH1 0xE0 SHL PUSH1 0x0 MSTORE PUSH1 0x22 PUSH1 0x4 MSTORE PUSH1 0x24 PUSH1 0x0 REVERT JUMPDEST SWAP2 PUSH1 0x7F AND SWAP2 PUSH2 0x36BC JUMP JUMPDEST PUSH1 0xE0 DUP2 ADD SWAP1 DUP2 LT PUSH8 0xFFFFFFFFFFFFFFFF DUP3 GT OR PUSH2 0x3703 JUMPI PUSH1 0x40 MSTORE JUMP JUMPDEST PUSH4 0x4E487B71 PUSH1 0xE0 SHL PUSH1 0x0 MSTORE PUSH1 0x41 PUSH1 0x4 MSTORE PUSH1 0x24 PUSH1 0x0 REVERT JUMPDEST PUSH1 0x40 DUP2 ADD SWAP1 DUP2 LT PUSH8 0xFFFFFFFFFFFFFFFF DUP3 GT OR PUSH2 0x3703 JUMPI PUSH1 0x40 MSTORE JUMP JUMPDEST SWAP1 PUSH1 0x1F DUP1 NOT SWAP2 ADD AND DUP2 ADD SWAP1 DUP2 LT PUSH8 0xFFFFFFFFFFFFFFFF DUP3 GT OR PUSH2 0x3703 JUMPI PUSH1 0x40 MSTORE JUMP JUMPDEST SWAP1 PUSH1 0x40 MLOAD SWAP2 DUP3 PUSH1 0x0 DUP3 SLOAD SWAP3 PUSH2 0x376B DUP5 PUSH2 0x36AD JUMP JUMPDEST SWAP1 DUP2 DUP5 MSTORE PUSH1 0x1 SWAP5 DUP6 DUP2 AND SWAP1 DUP2 PUSH1 0x0 EQ PUSH2 0x37DA JUMPI POP PUSH1 0x1 EQ PUSH2 0x3797 JUMPI JUMPDEST POP POP PUSH2 0x3795 SWAP3 POP SUB DUP4 PUSH2 0x3735 JUMP JUMPDEST JUMP JUMPDEST SWAP1 SWAP4 SWAP2 POP PUSH1 0x0 MSTORE PUSH1 0x20 SWAP1 DUP2 PUSH1 0x0 KECCAK256 SWAP4 PUSH1 0x0 SWAP2 JUMPDEST DUP2 DUP4 LT PUSH2 0x37C2 JUMPI POP POP PUSH2 0x3795 SWAP4 POP DUP3 ADD ADD CODESIZE DUP1 PUSH2 0x3787 JUMP JUMPDEST DUP6 SLOAD DUP9 DUP5 ADD DUP6 ADD MSTORE SWAP5 DUP6 ADD SWAP5 DUP8 SWAP5 POP SWAP2 DUP4 ADD SWAP2 PUSH2 0x37AA JUMP JUMPDEST SWAP2 POP POP PUSH2 0x3795 SWAP5 POP PUSH1 0x20 SWAP3 POP PUSH1 0xFF NOT AND DUP3 DUP5 ADD MSTORE ISZERO ISZERO PUSH1 0x5 SHL DUP3 ADD ADD CODESIZE DUP1 PUSH2 0x3787 JUMP JUMPDEST SWAP4 PUSH1 0xE0 SWAP6 SWAP3 PUSH2 0x383F SWAP9 SWAP8 SWAP5 SWAP3 DUP7 MSTORE PUSH1 0x1 DUP1 PUSH1 0xA0 SHL SUB SWAP3 DUP4 DUP1 SWAP3 AND PUSH1 0x20 DUP9 ADD MSTORE AND PUSH1 0x40 DUP7 ADD MSTORE AND PUSH1 0x60 DUP5 ADD MSTORE PUSH1 0x80 DUP4 ADD MSTORE PUSH1 0xA0 DUP3 ADD MSTORE DUP2 PUSH1 0xC0 DUP3 ADD MSTORE ADD SWAP1 PUSH2 0x3588 JUMP JUMPDEST SWAP1 JUMP JUMPDEST DUP1 SLOAD DUP3 LT ISZERO PUSH2 0x3697 JUMPI PUSH1 0x0 MSTORE PUSH1 0x20 PUSH1 0x0 KECCAK256 ADD SWAP1 PUSH1 0x0 SWAP1 JUMP JUMPDEST ISZERO PUSH2 0x3861 JUMPI JUMP JUMPDEST PUSH1 0x40 MLOAD PUSH3 0x461BCD PUSH1 0xE5 SHL DUP2 MSTORE PUSH1 0x20 PUSH1 0x4 DUP3 ADD MSTORE PUSH1 0xA PUSH1 0x24 DUP3 ADD MSTORE PUSH10 0x27B7363C9037BBB732B9 PUSH1 0xB1 SHL PUSH1 0x44 DUP3 ADD MSTORE PUSH1 0x64 SWAP1 REVERT JUMPDEST ISZERO PUSH2 0x389A JUMPI JUMP JUMPDEST PUSH1 0x40 MLOAD PUSH3 0x461BCD PUSH1 0xE5 SHL DUP2 MSTORE PUSH1 0x20 PUSH1 0x4 DUP3 ADD MSTORE PUSH1 0xD PUSH1 0x24 DUP3 ADD MSTORE PUSH13 0x496E76616C6964207072696365 PUSH1 0x98 SHL PUSH1 0x44 DUP3 ADD MSTORE PUSH1 0x64 SWAP1 REVERT JUMPDEST ISZERO PUSH2 0x38D6 JUMPI JUMP JUMPDEST PUSH1 0x40 MLOAD PUSH3 0x461BCD PUSH1 0xE5 SHL DUP2 MSTORE PUSH1 0x20 PUSH1 0x4 DUP3 ADD MSTORE PUSH1 0xF PUSH1 0x24 DUP3 ADD MSTORE PUSH15 0x496E76616C69642061646472657373 PUSH1 0x88 SHL PUSH1 0x44 DUP3 ADD MSTORE PUSH1 0x64 SWAP1 REVERT JUMPDEST ISZERO PUSH2 0x3914 JUMPI JUMP JUMPDEST PUSH1 0x40 MLOAD PUSH3 0x461BCD PUSH1 0xE5 SHL DUP2 MSTORE PUSH1 0x20 PUSH1 0x4 DUP3 ADD MSTORE PUSH1 0xD PUSH1 0x24 DUP3 ADD MSTORE PUSH13 0x496E76616C696420726174696F PUSH1 0x98 SHL PUSH1 0x44 DUP3 ADD MSTORE PUSH1 0x64 SWAP1 REVERT JUMPDEST ISZERO PUSH2 0x3950 JUMPI JUMP JUMPDEST PUSH1 0x40 MLOAD PUSH3 0x461BCD PUSH1 0xE5 SHL DUP2 MSTORE PUSH1 0x20 PUSH1 0x4 DUP3 ADD MSTORE PUSH1 0x12 PUSH1 0x24 DUP3 ADD MSTORE PUSH18 0x1059191C995CDCC81A5CC8189B1BD8DAD959 PUSH1 0x72 SHL PUSH1 0x44 DUP3 ADD MSTORE PUSH1 0x64 SWAP1 REVERT JUMPDEST ISZERO PUSH2 0x3991 JUMPI JUMP JUMPDEST PUSH1 0x40 MLOAD PUSH3 0x461BCD PUSH1 0xE5 SHL DUP2 MSTORE PUSH1 0x20 PUSH1 0x4 DUP3 ADD MSTORE PUSH1 0xD PUSH1 0x24 DUP3 ADD MSTORE PUSH13 0x9AEAE6E840E6CADCC8408AA89 PUSH1 0x9B SHL PUSH1 0x44 DUP3 ADD MSTORE PUSH1 0x64 SWAP1 REVERT JUMPDEST ISZERO PUSH2 0x39CD JUMPI JUMP JUMPDEST PUSH1 0x40 MLOAD PUSH3 0x461BCD PUSH1 0xE5 SHL DUP2 MSTORE PUSH1 0x20 PUSH1 0x4 DUP3 ADD MSTORE PUSH1 0x12 PUSH1 0x24 DUP3 ADD MSTORE PUSH18 0x14D85B19481D1BDAD95B881B9BDD081CD95D PUSH1 0x72 SHL PUSH1 0x44 DUP3 ADD MSTORE PUSH1 0x64 SWAP1 REVERT JUMPDEST DUP2 DUP2 MUL SWAP3 SWAP2 DUP2 ISZERO SWAP2 DUP5 DIV EQ OR ISZERO PUSH2 0x3A1A JUMPI JUMP JUMPDEST PUSH4 0x4E487B71 PUSH1 0xE0 SHL PUSH1 0x0 MSTORE PUSH1 0x11 PUSH1 0x4 MSTORE PUSH1 0x24 PUSH1 0x0 REVERT JUMPDEST DUP2 ISZERO PUSH2 0x3A3A JUMPI DIV SWAP1 JUMP JUMPDEST PUSH4 0x4E487B71 PUSH1 0xE0 SHL PUSH1 0x0 MSTORE PUSH1 0x12 PUSH1 0x4 MSTORE PUSH1 0x24 PUSH1 0x0 REVERT JUMPDEST RETURNDATASIZE ISZERO PUSH2 0x3A8B JUMPI RETURNDATASIZE SWAP1 PUSH8 0xFFFFFFFFFFFFFFFF DUP3 GT PUSH2 0x3703 JUMPI PUSH1 0x40 MLOAD SWAP2 PUSH2 0x3A7F PUSH1 0x1F DUP3 ADD PUSH1 0x1F NOT AND PUSH1 0x20 ADD DUP5 PUSH2 0x3735 JUMP JUMPDEST DUP3 MSTORE RETURNDATASIZE PUSH1 0x0 PUSH1 0x20 DUP5 ADD RETURNDATACOPY JUMP JUMPDEST PUSH1 0x60 SWAP1 JUMP JUMPDEST ISZERO PUSH2 0x3A97 JUMPI JUMP JUMPDEST PUSH1 0x40 MLOAD PUSH3 0x461BCD PUSH1 0xE5 SHL DUP2 MSTORE PUSH1 0x20 PUSH1 0x4 DUP3 ADD MSTORE PUSH1 0x13 PUSH1 0x24 DUP3 ADD MSTORE PUSH19 0x115512081D1C985B9CD9995C8819985A5B1959 PUSH1 0x6A SHL PUSH1 0x44 DUP3 ADD MSTORE PUSH1 0x64 SWAP1 REVERT JUMPDEST PUSH1 0x40 MLOAD SWAP1 PUSH2 0x3ADF DUP3 PUSH2 0x3719 JUMP JUMPDEST PUSH1 0x3 DUP3 MSTORE PUSH3 0x425559 PUSH1 0xE8 SHL PUSH1 0x20 DUP4 ADD MSTORE JUMP JUMPDEST ISZERO PUSH2 0x3AF8 JUMPI JUMP JUMPDEST PUSH1 0x40 MLOAD PUSH3 0x461BCD PUSH1 0xE5 SHL DUP2 MSTORE PUSH1 0x20 PUSH1 0x4 DUP3 ADD MSTORE PUSH1 0x1D PUSH1 0x24 DUP3 ADD MSTORE PUSH32 0x416D6F756E74206D7573742062652067726561746572207468616E2030000000 PUSH1 0x44 DUP3 ADD MSTORE PUSH1 0x64 SWAP1 REVERT JUMPDEST ISZERO PUSH2 0x3B44 JUMPI JUMP JUMPDEST PUSH1 0x40 MLOAD PUSH3 0x461BCD PUSH1 0xE5 SHL DUP2 MSTORE PUSH1 0x20 PUSH1 0x4 DUP3 ADD MSTORE PUSH1 0x13 PUSH1 0x24 DUP3 ADD MSTORE PUSH19 0x1554D115081B9BDD0818DBDB999A59DD5C9959 PUSH1 0x6A SHL PUSH1 0x44 DUP3 ADD MSTORE PUSH1 0x64 SWAP1 REVERT JUMPDEST SWAP1 DUP2 PUSH1 0x20 SWAP2 SUB SLT PUSH2 0x3583 JUMPI MLOAD DUP1 ISZERO ISZERO DUP2 SUB PUSH2 0x3583 JUMPI SWAP1 JUMP JUMPDEST ISZERO PUSH2 0x3B9E JUMPI JUMP JUMPDEST PUSH1 0x40 MLOAD PUSH3 0x461BCD PUSH1 0xE5 SHL DUP2 MSTORE PUSH1 0x20 PUSH1 0x4 DUP3 ADD MSTORE PUSH1 0x14 PUSH1 0x24 DUP3 ADD MSTORE PUSH20 0x1554D115081D1C985B9CD9995C8819985A5B1959 PUSH1 0x62 SHL PUSH1 0x44 DUP3 ADD MSTORE PUSH1 0x64 SWAP1 REVERT JUMPDEST ISZERO PUSH2 0x3BE1 JUMPI JUMP JUMPDEST PUSH1 0x40 MLOAD PUSH3 0x461BCD PUSH1 0xE5 SHL DUP2 MSTORE PUSH1 0x20 PUSH1 0x4 DUP3 ADD MSTORE PUSH1 0x13 PUSH1 0x24 DUP3 ADD MSTORE PUSH19 0x1554D110C81B9BDD0818DBDB999A59DD5C9959 PUSH1 0x6A SHL PUSH1 0x44 DUP3 ADD MSTORE PUSH1 0x64 SWAP1 REVERT JUMPDEST ISZERO PUSH2 0x3C23 JUMPI JUMP JUMPDEST PUSH1 0x40 MLOAD PUSH3 0x461BCD PUSH1 0xE5 SHL DUP2 MSTORE PUSH1 0x20 PUSH1 0x4 DUP3 ADD MSTORE PUSH1 0x14 PUSH1 0x24 DUP3 ADD MSTORE PUSH20 0x1554D110C81D1C985B9CD9995C8819985A5B1959 PUSH1 0x62 SHL PUSH1 0x44 DUP3 ADD MSTORE PUSH1 0x64 SWAP1 REVERT JUMPDEST PUSH1 0x40 MLOAD SWAP1 PUSH2 0x3C6C DUP3 PUSH2 0x3719 JUMP JUMPDEST PUSH1 0x4 DUP3 MSTORE PUSH4 0x14D15313 PUSH1 0xE2 SHL PUSH1 0x20 DUP4 ADD MSTORE JUMP JUMPDEST ISZERO PUSH2 0x3C86 JUMPI JUMP JUMPDEST PUSH1 0x40 MLOAD PUSH3 0x461BCD PUSH1 0xE5 SHL DUP2 MSTORE PUSH1 0x20 PUSH1 0x4 DUP3 ADD MSTORE PUSH1 0x15 PUSH1 0x24 DUP3 ADD MSTORE PUSH21 0x151BDAD95B881D1C985B9CD9995C8819985A5B1959 PUSH1 0x5A SHL PUSH1 0x44 DUP3 ADD MSTORE PUSH1 0x64 SWAP1 REVERT JUMPDEST PUSH1 0x0 NOT DUP2 EQ PUSH2 0x3A1A JUMPI PUSH1 0x1 ADD SWAP1 JUMP JUMPDEST SWAP2 SWAP1 DUP3 ADD DUP1 SWAP3 GT PUSH2 0x3A1A JUMPI JUMP JUMPDEST ISZERO PUSH2 0x3CE6 JUMPI JUMP JUMPDEST PUSH1 0x40 MLOAD PUSH3 0x461BCD PUSH1 0xE5 SHL DUP2 MSTORE PUSH1 0x20 PUSH1 0x4 DUP3 ADD MSTORE PUSH1 0x14 PUSH1 0x24 DUP3 ADD MSTORE PUSH20 0x14DD185AD948191BD95CC81B9BDD08195E1A5CDD PUSH1 0x62 SHL PUSH1 0x44 DUP3 ADD MSTORE PUSH1 0x64 SWAP1 REVERT JUMPDEST ISZERO PUSH2 0x3D29 JUMPI JUMP JUMPDEST PUSH1 0x40 MLOAD PUSH3 0x461BCD PUSH1 0xE5 SHL DUP2 MSTORE PUSH1 0x20 PUSH1 0x4 DUP3 ADD MSTORE PUSH1 0xF PUSH1 0x24 DUP3 ADD MSTORE PUSH15 0x14DD185AD9481B9BDD08199BDD5B99 PUSH1 0x8A SHL PUSH1 0x44 DUP3 ADD MSTORE PUSH1 0x64 SWAP1 REVERT JUMPDEST ISZERO PUSH2 0x3D67 JUMPI JUMP JUMPDEST PUSH1 0x40 MLOAD PUSH3 0x461BCD PUSH1 0xE5 SHL DUP2 MSTORE PUSH1 0x20 PUSH1 0x4 DUP3 ADD MSTORE PUSH1 0x10 PUSH1 0x24 DUP3 ADD MSTORE PUSH16 0x5374616B65206E6F7420616374697665 PUSH1 0x80 SHL PUSH1 0x44 DUP3 ADD MSTORE PUSH1 0x64 SWAP1 REVERT JUMPDEST SWAP2 SWAP1 DUP3 SUB SWAP2 DUP3 GT PUSH2 0x3A1A JUMPI JUMP JUMPDEST PUSH1 0x0 DUP2 DUP2 MSTORE PUSH1 0x13 PUSH1 0x20 SWAP1 DUP2 MSTORE PUSH1 0x40 DUP1 DUP4 KECCAK256 SLOAD PUSH1 0x1 PUSH1 0x1 PUSH1 0xA0 SHL SUB AND SWAP1 PUSH2 0x3DD3 DUP3 ISZERO ISZERO PUSH2 0x3CDF JUMP JUMPDEST SWAP3 SWAP4 DUP5 SWAP4 SWAP1 DUP5 SWAP1 DUP2 DUP1 DUP1 DUP1 DUP1 JUMPDEST DUP9 DUP12 MSTORE PUSH1 0x12 DUP1 DUP12 MSTORE DUP9 DUP13 KECCAK256 DUP1 SLOAD DUP4 LT ISZERO PUSH2 0x3FA1 JUMPI PUSH2 0x3DFF DUP4 DUP10 SWAP3 PUSH2 0x367B JUMP JUMPDEST POP SLOAD EQ PUSH2 0x3E15 JUMPI POP PUSH2 0x3E10 SWAP1 PUSH2 0x3CC3 JUMP JUMPDEST PUSH2 0x3DE0 JUMP JUMPDEST SWAP7 POP SWAP11 POP POP POP POP POP POP DUP3 DUP6 MSTORE DUP1 DUP5 MSTORE DUP6 DUP3 DUP7 KECCAK256 SWAP1 PUSH2 0x3E32 SWAP2 PUSH2 0x367B JUMP JUMPDEST POP PUSH1 0x5 ADD SLOAD SWAP6 DUP4 DUP7 MSTORE DUP2 DUP6 MSTORE DUP1 DUP4 DUP8 KECCAK256 SWAP1 PUSH2 0x3E4C SWAP2 PUSH2 0x367B JUMP JUMPDEST POP PUSH1 0x4 ADD SLOAD SWAP3 DUP5 DUP8 MSTORE DUP3 DUP7 MSTORE DUP2 DUP2 DUP9 KECCAK256 SWAP1 PUSH2 0x3E66 SWAP2 PUSH2 0x367B JUMP JUMPDEST POP SWAP3 PUSH1 0x1 DUP1 SWAP5 ADD SLOAD SWAP7 DUP7 DUP10 MSTORE DUP2 DUP2 MSTORE DUP4 DUP4 DUP11 KECCAK256 SWAP1 PUSH2 0x3E83 SWAP2 PUSH2 0x367B JUMP JUMPDEST POP PUSH1 0x3 ADD SLOAD SWAP7 DUP10 MSTORE MSTORE DUP7 KECCAK256 SWAP1 PUSH2 0x3E98 SWAP2 PUSH2 0x367B JUMP JUMPDEST POP PUSH1 0x6 ADD SLOAD PUSH1 0xFF AND PUSH2 0x3EAC PUSH2 0x3EB1 SWAP3 PUSH2 0x3D22 JUMP JUMPDEST PUSH2 0x3D60 JUMP JUMPDEST TIMESTAMP DUP2 EQ PUSH2 0x3F9A JUMPI PUSH2 0x3EC2 SWAP1 TIMESTAMP PUSH2 0x3D9F JUMP JUMPDEST SWAP3 PUSH1 0x10 SLOAD DUP1 SWAP3 PUSH1 0x5A DUP2 EQ PUSH1 0x0 EQ PUSH2 0x3F20 JUMPI POP POP PUSH1 0x3 DUP3 MUL SWAP2 DUP1 DUP4 DIV PUSH1 0x3 EQ SWAP1 ISZERO OR ISZERO PUSH2 0x3F0C JUMPI POP PUSH2 0x383F SWAP4 SWAP3 PUSH2 0x3F00 PUSH4 0xBBF81E00 SWAP4 PUSH2 0x3F05 SWAP4 PUSH1 0x1 SHR SWAP1 JUMPDEST PUSH2 0x3A07 JUMP JUMPDEST DIV SWAP1 PUSH2 0x3CD2 JUMP JUMPDEST PUSH4 0x4E487B71 PUSH1 0xE0 SHL DUP2 MSTORE PUSH1 0x11 PUSH1 0x4 MSTORE PUSH1 0x24 SWAP1 REVERT JUMPDEST PUSH1 0xB4 DUP2 SUB PUSH2 0x3F56 JUMPI POP POP DUP2 PUSH1 0x1 SHL SWAP2 DUP1 DUP4 DIV PUSH1 0x2 EQ SWAP1 ISZERO OR ISZERO PUSH2 0x3F0C JUMPI POP PUSH2 0x383F SWAP4 SWAP3 PUSH2 0x3F00 PUSH4 0xBBF81E00 SWAP4 PUSH2 0x3F05 SWAP4 SWAP1 PUSH2 0x3A07 JUMP JUMPDEST PUSH2 0x16D SWAP2 SWAP5 SWAP4 POP EQ PUSH2 0x3F7B JUMPI JUMPDEST POP PUSH2 0x383F SWAP4 SWAP3 PUSH2 0x3F00 PUSH4 0xBBF81E00 SWAP4 PUSH2 0x3F05 SWAP4 PUSH2 0x3A07 JUMP JUMPDEST PUSH1 0x3 DUP4 SWAP3 SWAP4 MUL SWAP2 DUP1 DUP4 DIV PUSH1 0x3 EQ SWAP1 ISZERO OR ISZERO PUSH2 0x3F0C JUMPI POP SWAP1 PUSH2 0x383F PUSH2 0x3F63 JUMP JUMPDEST POP POP POP POP SWAP1 JUMP JUMPDEST POP POP POP SWAP7 POP SWAP7 POP SWAP8 SWAP4 POP PUSH2 0x3EB1 SWAP3 SWAP2 POP PUSH2 0x3EAC SWAP1 PUSH2 0x3D22 JUMP JUMPDEST ISZERO PUSH2 0x3FC1 JUMPI JUMP JUMPDEST PUSH1 0x40 MLOAD PUSH3 0x461BCD PUSH1 0xE5 SHL DUP2 MSTORE PUSH1 0x20 PUSH1 0x4 DUP3 ADD MSTORE PUSH1 0xF PUSH1 0x24 DUP3 ADD MSTORE PUSH15 0x2737BA1039BA30B5B29037BBB732B9 PUSH1 0x89 SHL PUSH1 0x44 DUP3 ADD MSTORE PUSH1 0x64 SWAP1 REVERT JUMPDEST PUSH1 0x0 CALLER DUP2 MSTORE PUSH1 0x20 PUSH1 0x1A DUP2 MSTORE PUSH1 0x1 DUP1 PUSH1 0xA0 SHL SUB SWAP1 PUSH1 0x40 DUP3 DUP2 DUP6 KECCAK256 SLOAD AND SWAP3 DUP4 ISZERO ISZERO DUP1 PUSH2 0x4164 JUMPI JUMPDEST PUSH2 0x4029 JUMPI POP POP POP POP POP SWAP1 JUMP JUMPDEST PUSH1 0x64 PUSH2 0x4037 PUSH1 0x19 SLOAD DUP9 PUSH2 0x3A07 JUMP JUMPDEST DUP7 SLOAD DUP5 MLOAD PUSH4 0xA9059CBB PUSH1 0xE0 SHL DUP2 MSTORE PUSH1 0x1 PUSH1 0x1 PUSH1 0xA0 SHL SUB DUP9 AND PUSH1 0x4 DUP3 ADD MSTORE SWAP3 SWAP1 SWAP2 DIV PUSH1 0x24 DUP4 ADD DUP2 SWAP1 MSTORE SWAP7 SWAP2 SWAP1 DUP6 SWAP1 DUP3 SWAP1 PUSH1 0x44 SWAP1 DUP3 SWAP1 DUP7 SWAP1 DUP9 AND GAS CALL SWAP1 DUP2 ISZERO PUSH2 0x415A JUMPI DUP3 SWAP2 PUSH2 0x413D JUMPI JUMPDEST POP ISZERO PUSH2 0x40F9 JUMPI PUSH32 0x94CCB86446750660EC532B1BEB1FB55F5BA2FFFCA042C4C53F4C080E72595B38 SWAP4 SWAP3 SWAP2 DUP2 DUP7 PUSH2 0x40EF SWAP4 MSTORE PUSH1 0x1C DUP6 MSTORE DUP4 DUP2 KECCAK256 PUSH2 0x40C2 DUP10 DUP3 SLOAD PUSH2 0x3CD2 JUMP JUMPDEST SWAP1 SSTORE SLOAD AND DUP7 DUP9 DUP5 MLOAD SWAP3 PUSH2 0x40D4 DUP5 PUSH2 0x3719 JUMP JUMPDEST PUSH1 0x8 DUP5 MSTORE PUSH8 0x1491519154949053 PUSH1 0xC2 SHL DUP8 DUP6 ADD MSTORE DUP1 DUP10 PUSH2 0x47EA JUMP JUMPDEST MLOAD SWAP4 DUP5 MSTORE CALLER SWAP4 LOG3 SWAP1 JUMP JUMPDEST DUP3 MLOAD PUSH3 0x461BCD PUSH1 0xE5 SHL DUP2 MSTORE PUSH1 0x4 DUP2 ADD DUP6 SWAP1 MSTORE PUSH1 0x1F PUSH1 0x24 DUP3 ADD MSTORE PUSH32 0x526566657272616C20726577617264207472616E73666572206661696C656400 PUSH1 0x44 DUP3 ADD MSTORE PUSH1 0x64 SWAP1 REVERT JUMPDEST PUSH2 0x4154 SWAP2 POP DUP6 RETURNDATASIZE DUP8 GT PUSH2 0x53B JUMPI PUSH2 0x52D DUP2 DUP4 PUSH2 0x3735 JUMP JUMPDEST CODESIZE PUSH2 0x407F JUMP JUMPDEST DUP5 MLOAD RETURNDATASIZE DUP5 DUP3 RETURNDATACOPY RETURNDATASIZE SWAP1 REVERT JUMPDEST POP DUP4 DUP6 MSTORE PUSH1 0xC DUP4 MSTORE PUSH1 0xFF DUP3 DUP7 KECCAK256 SLOAD AND ISZERO PUSH2 0x401D JUMP JUMPDEST PUSH1 0x0 SWAP1 DUP2 JUMPDEST PUSH1 0x1 PUSH1 0x1 PUSH1 0xA0 SHL SUB DUP3 AND PUSH1 0x0 SWAP1 DUP2 MSTORE PUSH1 0x12 PUSH1 0x20 MSTORE PUSH1 0x40 SWAP1 KECCAK256 DUP1 SLOAD DUP3 LT ISZERO PUSH2 0x422A JUMPI PUSH1 0x6 PUSH2 0x41AD DUP4 PUSH1 0xFF SWAP4 PUSH2 0x367B JUMP JUMPDEST POP ADD SLOAD AND PUSH2 0x41C3 JUMPI PUSH2 0x41BE SWAP1 PUSH2 0x3CC3 JUMP JUMPDEST PUSH2 0x417E JUMP JUMPDEST POP SWAP1 POP PUSH1 0x1 JUMPDEST ISZERO DUP1 PUSH2 0x4208 JUMPI JUMPDEST PUSH2 0x41D7 JUMPI POP JUMP JUMPDEST PUSH1 0x1 PUSH1 0x1 PUSH1 0xA0 SHL SUB AND PUSH1 0x0 SWAP1 DUP2 MSTORE PUSH1 0x18 PUSH1 0x20 MSTORE PUSH1 0x40 SWAP1 KECCAK256 DUP1 SLOAD PUSH1 0xFF NOT AND SWAP1 SSTORE PUSH1 0x16 SLOAD DUP1 ISZERO PUSH2 0x3A1A JUMPI PUSH1 0x0 NOT ADD PUSH1 0x16 SSTORE JUMP JUMPDEST POP PUSH1 0x1 PUSH1 0x1 PUSH1 0xA0 SHL SUB DUP2 AND PUSH1 0x0 SWAP1 DUP2 MSTORE PUSH1 0x18 PUSH1 0x20 MSTORE PUSH1 0x40 SWAP1 KECCAK256 SLOAD PUSH1 0xFF AND PUSH2 0x41D0 JUMP JUMPDEST POP POP SWAP1 PUSH2 0x41C9 JUMP JUMPDEST PUSH1 0x0 DUP1 SLOAD PUSH1 0x40 MLOAD PUSH4 0x70A08231 PUSH1 0xE0 SHL DUP2 MSTORE ADDRESS PUSH1 0x4 DUP3 ADD MSTORE SWAP2 SWAP4 SWAP3 SWAP2 PUSH1 0x20 SWAP2 PUSH1 0x1 PUSH1 0x1 PUSH1 0xA0 SHL SUB AND SWAP1 DUP3 DUP2 PUSH1 0x24 DUP2 DUP6 GAS STATICCALL DUP1 ISZERO PUSH2 0x4369 JUMPI DUP5 SWAP2 DUP8 SWAP2 PUSH2 0x4338 JUMPI JUMPDEST POP LT PUSH2 0x42F3 JUMPI PUSH1 0x40 MLOAD PUSH4 0xA9059CBB PUSH1 0xE0 SHL DUP2 MSTORE CALLER PUSH1 0x4 DUP3 ADD MSTORE PUSH1 0x24 DUP2 ADD DUP5 SWAP1 MSTORE SWAP1 DUP3 SWAP1 DUP3 SWAP1 PUSH1 0x44 SWAP1 DUP3 SWAP1 DUP10 SWAP1 GAS CALL SWAP2 DUP3 ISZERO PUSH2 0x42E8 JUMPI SWAP1 PUSH2 0x42BE SWAP3 SWAP2 PUSH2 0x42C6 SWAP6 SWAP7 SWAP3 PUSH2 0x42CB JUMPI JUMPDEST POP POP PUSH2 0x3C7F JUMP JUMPDEST PUSH1 0xB SLOAD PUSH2 0x3CD2 JUMP JUMPDEST PUSH1 0xB SSTORE JUMP JUMPDEST PUSH2 0x42E1 SWAP3 POP DUP1 RETURNDATASIZE LT PUSH2 0x53B JUMPI PUSH2 0x52D DUP2 DUP4 PUSH2 0x3735 JUMP JUMPDEST CODESIZE DUP1 PUSH2 0x42B7 JUMP JUMPDEST PUSH1 0x40 MLOAD RETURNDATASIZE DUP8 DUP3 RETURNDATACOPY RETURNDATASIZE SWAP1 REVERT JUMPDEST PUSH1 0x40 MLOAD PUSH3 0x461BCD PUSH1 0xE5 SHL DUP2 MSTORE PUSH1 0x4 DUP2 ADD DUP4 SWAP1 MSTORE PUSH1 0x1A PUSH1 0x24 DUP3 ADD MSTORE PUSH32 0x496E73756666696369656E7420746F6B656E2062616C616E6365000000000000 PUSH1 0x44 DUP3 ADD MSTORE PUSH1 0x64 SWAP1 REVERT JUMPDEST DUP1 SWAP3 POP DUP5 DUP1 SWAP3 POP RETURNDATASIZE DUP4 GT PUSH2 0x4362 JUMPI JUMPDEST PUSH2 0x4351 DUP2 DUP4 PUSH2 0x3735 JUMP JUMPDEST DUP2 ADD SUB SLT PUSH2 0x19F8 JUMPI DUP4 SWAP1 MLOAD CODESIZE PUSH2 0x4271 JUMP JUMPDEST POP RETURNDATASIZE PUSH2 0x4347 JUMP JUMPDEST PUSH1 0x40 MLOAD RETURNDATASIZE DUP9 DUP3 RETURNDATACOPY RETURNDATASIZE SWAP1 REVERT JUMPDEST PUSH1 0xE SLOAD PUSH1 0x1 PUSH1 0x40 SHL DUP2 LT ISZERO PUSH2 0x3703 JUMPI PUSH1 0x1 SWAP1 DUP2 DUP2 ADD DUP1 PUSH1 0xE SSTORE DUP2 LT ISZERO PUSH2 0x3697 JUMPI PUSH1 0x7 PUSH1 0x0 SWAP2 PUSH1 0xE DUP4 MSTORE MUL SWAP2 DUP4 MLOAD DUP4 PUSH32 0xBB7B4A454DC3493923482F07822329ED19E8244EFF582CC204F8554C3620C3FD ADD SSTORE PUSH1 0xC0 PUSH32 0xBB7B4A454DC3493923482F07822329ED19E8244EFF582CC204F8554C3620C403 PUSH32 0xBB7B4A454DC3493923482F07822329ED19E8244EFF582CC204F8554C3620C3FE DUP6 ADD SWAP5 PUSH1 0x1 DUP1 PUSH1 0xA0 SHL SUB PUSH1 0x20 SWAP7 DUP2 DUP9 DUP11 ADD MLOAD AND SWAP1 PUSH1 0x1 PUSH1 0x1 PUSH1 0x60 SHL SUB PUSH1 0xA0 SHL SWAP2 DUP3 DUP3 SLOAD AND OR SWAP1 SSTORE PUSH32 0xBB7B4A454DC3493923482F07822329ED19E8244EFF582CC204F8554C3620C3FF DUP4 ADD DUP3 PUSH1 0x40 DUP12 ADD MLOAD AND DUP3 DUP3 SLOAD AND OR SWAP1 SSTORE PUSH32 0xBB7B4A454DC3493923482F07822329ED19E8244EFF582CC204F8554C3620C400 DUP4 ADD SWAP2 PUSH1 0x60 DUP11 ADD MLOAD AND SWAP1 DUP3 SLOAD AND OR SWAP1 SSTORE PUSH1 0x80 DUP8 ADD MLOAD PUSH32 0xBB7B4A454DC3493923482F07822329ED19E8244EFF582CC204F8554C3620C401 DUP3 ADD SSTORE PUSH1 0xA0 DUP8 ADD MLOAD PUSH32 0xBB7B4A454DC3493923482F07822329ED19E8244EFF582CC204F8554C3620C402 DUP3 ADD SSTORE ADD SWAP5 ADD MLOAD SWAP2 DUP3 MLOAD SWAP3 PUSH8 0xFFFFFFFFFFFFFFFF DUP5 GT PUSH2 0x45EC JUMPI PUSH2 0x4505 DUP7 SLOAD PUSH2 0x36AD JUMP JUMPDEST PUSH1 0x1F DUP2 GT PUSH2 0x45A6 JUMPI JUMPDEST POP DUP5 SWAP2 PUSH1 0x1F DUP6 GT PUSH1 0x1 EQ PUSH2 0x4547 JUMPI SWAP4 SWAP5 POP DUP5 SWAP3 SWAP2 SWAP1 DUP4 PUSH2 0x453C JUMPI JUMPDEST POP POP SHL SWAP2 PUSH1 0x0 NOT SWAP1 PUSH1 0x3 SHL SHR NOT AND OR SWAP1 SSTORE JUMP JUMPDEST ADD MLOAD SWAP3 POP CODESIZE DUP1 PUSH2 0x4529 JUMP JUMPDEST DUP7 DUP2 MSTORE DUP6 DUP2 KECCAK256 SWAP4 SWAP6 DUP6 SWAP2 PUSH1 0x1F NOT DUP4 AND SWAP2 JUMPDEST DUP9 DUP4 DUP4 LT PUSH2 0x458C JUMPI POP POP POP LT PUSH2 0x4573 JUMPI JUMPDEST POP POP POP DUP2 SHL ADD SWAP1 SSTORE JUMP JUMPDEST ADD MLOAD PUSH1 0x0 NOT PUSH1 0xF8 DUP5 PUSH1 0x3 SHL AND SHR NOT AND SWAP1 SSTORE CODESIZE DUP1 DUP1 PUSH2 0x4569 JUMP JUMPDEST DUP6 DUP8 ADD MLOAD DUP9 SSTORE SWAP1 SWAP7 ADD SWAP6 SWAP5 DUP6 ADD SWAP5 DUP8 SWAP4 POP SWAP1 DUP2 ADD SWAP1 PUSH2 0x4558 JUMP JUMPDEST DUP7 DUP4 MSTORE DUP6 DUP4 KECCAK256 PUSH1 0x1F DUP7 ADD PUSH1 0x5 SHR DUP2 ADD SWAP2 DUP8 DUP8 LT PUSH2 0x45E2 JUMPI JUMPDEST PUSH1 0x1F ADD PUSH1 0x5 SHR ADD SWAP1 DUP5 SWAP1 JUMPDEST DUP3 DUP2 LT PUSH2 0x45D7 JUMPI POP POP PUSH2 0x450E JUMP JUMPDEST DUP5 DUP2 SSTORE ADD DUP5 SWAP1 PUSH2 0x45C9 JUMP JUMPDEST SWAP1 SWAP2 POP DUP2 SWAP1 PUSH2 0x45BE JUMP JUMPDEST PUSH4 0x4E487B71 PUSH1 0xE0 SHL DUP3 MSTORE PUSH1 0x41 PUSH1 0x4 MSTORE PUSH1 0x24 DUP3 REVERT JUMPDEST DUP1 SLOAD PUSH1 0x1 PUSH1 0x40 SHL DUP2 LT ISZERO PUSH2 0x3703 JUMPI PUSH2 0x461F SWAP1 PUSH1 0x1 SWAP3 DUP4 DUP3 ADD DUP2 SSTORE PUSH2 0x367B JUMP JUMPDEST PUSH2 0x4775 JUMPI DUP3 MLOAD DUP2 SSTORE PUSH1 0xC0 PUSH1 0x6 DUP4 DUP4 ADD SWAP3 PUSH1 0x1 DUP1 PUSH1 0xA0 SHL SUB PUSH1 0x20 SWAP5 DUP2 DUP7 DUP10 ADD MLOAD AND SWAP1 PUSH1 0x1 PUSH1 0x1 PUSH1 0x60 SHL SUB PUSH1 0xA0 SHL SWAP2 DUP3 DUP3 SLOAD AND OR SWAP1 SSTORE PUSH1 0x2 DUP4 ADD DUP3 PUSH1 0x40 DUP11 ADD MLOAD AND DUP3 DUP3 SLOAD AND OR SWAP1 SSTORE PUSH1 0x3 DUP4 ADD SWAP2 PUSH1 0x60 DUP10 ADD MLOAD AND SWAP1 DUP3 SLOAD AND OR SWAP1 SSTORE PUSH1 0x80 DUP7 ADD MLOAD PUSH1 0x4 DUP3 ADD SSTORE PUSH1 0xA0 DUP7 ADD MLOAD PUSH1 0x5 DUP3 ADD SSTORE ADD SWAP4 ADD MLOAD SWAP1 DUP2 MLOAD SWAP2 PUSH8 0xFFFFFFFFFFFFFFFF DUP4 GT PUSH2 0x3703 JUMPI PUSH2 0x46AC DUP6 SLOAD PUSH2 0x36AD JUMP JUMPDEST PUSH1 0x1F DUP2 GT PUSH2 0x472C JUMPI JUMPDEST POP DUP2 PUSH1 0x1F DUP5 GT PUSH1 0x1 EQ PUSH2 0x46E3 JUMPI POP SWAP3 DUP3 SWAP4 SWAP2 DUP4 SWAP3 PUSH1 0x0 SWAP5 PUSH2 0x453C JUMPI POP POP SHL SWAP2 PUSH1 0x0 NOT SWAP1 PUSH1 0x3 SHL SHR NOT AND OR SWAP1 SSTORE JUMP JUMPDEST SWAP2 SWAP1 DUP4 PUSH1 0x1F NOT DUP2 AND DUP8 PUSH1 0x0 MSTORE DUP5 PUSH1 0x0 KECCAK256 SWAP5 PUSH1 0x0 SWAP1 JUMPDEST DUP9 DUP4 DUP4 LT PUSH2 0x4712 JUMPI POP POP POP LT PUSH2 0x4573 JUMPI POP POP POP DUP2 SHL ADD SWAP1 SSTORE JUMP JUMPDEST DUP6 DUP8 ADD MLOAD DUP9 SSTORE SWAP1 SWAP7 ADD SWAP6 SWAP5 DUP6 ADD SWAP5 DUP8 SWAP4 POP SWAP1 DUP2 ADD SWAP1 PUSH2 0x46F8 JUMP JUMPDEST PUSH1 0x0 DUP7 DUP2 MSTORE DUP4 DUP2 KECCAK256 PUSH1 0x1F DUP7 ADD PUSH1 0x5 SHR DUP2 ADD SWAP3 DUP6 DUP8 LT PUSH2 0x476B JUMPI JUMPDEST PUSH1 0x1F ADD PUSH1 0x5 SHR ADD SWAP2 DUP7 SWAP1 JUMPDEST DUP4 DUP2 LT PUSH2 0x4760 JUMPI POP POP POP PUSH2 0x46B5 JUMP JUMPDEST DUP3 DUP2 SSTORE ADD DUP7 SWAP1 PUSH2 0x4751 JUMP JUMPDEST SWAP1 SWAP3 POP DUP3 SWAP1 PUSH2 0x4746 JUMP JUMPDEST PUSH4 0x4E487B71 PUSH1 0xE0 SHL PUSH1 0x0 MSTORE PUSH1 0x0 PUSH1 0x4 MSTORE PUSH1 0x24 PUSH1 0x0 REVERT JUMPDEST SWAP3 PUSH2 0x3795 SWAP5 SWAP2 SWAP3 PUSH1 0x40 MLOAD SWAP5 PUSH2 0x479F DUP7 PUSH2 0x36E7 JUMP JUMPDEST TIMESTAMP DUP7 MSTORE PUSH1 0x1 DUP1 PUSH1 0xA0 SHL SUB DUP1 SWAP2 AND SWAP5 DUP6 PUSH1 0x20 DUP9 ADD MSTORE PUSH1 0x0 PUSH1 0x40 DUP9 ADD MSTORE AND PUSH1 0x60 DUP7 ADD MSTORE PUSH1 0x80 DUP6 ADD MSTORE PUSH1 0xA0 DUP5 ADD MSTORE PUSH1 0xC0 DUP4 ADD MSTORE PUSH1 0x0 MSTORE PUSH1 0xD PUSH1 0x20 MSTORE PUSH2 0x47E5 DUP2 PUSH1 0x40 PUSH1 0x0 KECCAK256 PUSH2 0x4600 JUMP JUMPDEST PUSH2 0x4374 JUMP JUMPDEST SWAP3 PUSH2 0x3795 SWAP6 SWAP3 SWAP5 SWAP2 SWAP4 PUSH1 0x40 MLOAD SWAP6 PUSH2 0x4800 DUP8 PUSH2 0x36E7 JUMP JUMPDEST TIMESTAMP DUP8 MSTORE PUSH1 0x1 DUP1 PUSH1 0xA0 SHL SUB DUP1 DUP1 SWAP4 AND SWAP7 DUP8 PUSH1 0x20 DUP11 ADD MSTORE AND PUSH1 0x40 DUP9 ADD MSTORE AND PUSH1 0x60 DUP7 ADD MSTORE PUSH1 0x80 DUP6 ADD MSTORE PUSH1 0xA0 DUP5 ADD MSTORE PUSH1 0xC0 DUP4 ADD MSTORE PUSH1 0x0 MSTORE PUSH1 0xD PUSH1 0x20 MSTORE PUSH2 0x47E5 DUP2 PUSH1 0x40 PUSH1 0x0 KECCAK256 PUSH2 0x4600 JUMP JUMPDEST PUSH8 0xFFFFFFFFFFFFFFFF DUP2 GT PUSH2 0x3703 JUMPI PUSH1 0x5 SHL PUSH1 0x20 ADD SWAP1 JUMP JUMPDEST SWAP1 PUSH1 0x40 MLOAD PUSH2 0x486B DUP2 PUSH2 0x36E7 JUMP JUMPDEST PUSH1 0xC0 PUSH1 0xFF PUSH1 0x6 DUP4 SWAP6 DUP1 SLOAD DUP6 MSTORE PUSH1 0x1 DUP2 ADD SLOAD PUSH1 0x20 DUP7 ADD MSTORE PUSH1 0x2 DUP2 ADD SLOAD PUSH1 0x40 DUP7 ADD MSTORE PUSH1 0x3 DUP2 ADD SLOAD PUSH1 0x60 DUP7 ADD MSTORE PUSH1 0x4 DUP2 ADD SLOAD PUSH1 0x80 DUP7 ADD MSTORE PUSH1 0x5 DUP2 ADD SLOAD PUSH1 0xA0 DUP7 ADD MSTORE ADD SLOAD AND ISZERO ISZERO SWAP2 ADD MSTORE JUMP JUMPDEST PUSH1 0x40 MLOAD SWAP1 PUSH2 0x48C0 DUP3 PUSH2 0x36E7 JUMP JUMPDEST DUP2 PUSH1 0xC0 PUSH1 0x0 SWAP2 DUP3 DUP2 MSTORE DUP3 PUSH1 0x20 DUP3 ADD MSTORE DUP3 PUSH1 0x40 DUP3 ADD MSTORE DUP3 PUSH1 0x60 DUP3 ADD MSTORE DUP3 PUSH1 0x80 DUP3 ADD MSTORE DUP3 PUSH1 0xA0 DUP3 ADD MSTORE ADD MSTORE JUMP INVALID CALLDATACOPY PUSH27 0xADEDB6B2A771959584D10A6A36ECCB5F56B4EB3A48525F76108D26 PUSH1 0xD8 0xD4 LOG2 PUSH5 0x6970667358 0x22 SLT KECCAK256 0xFC 0xD6 0xD8 0xD0 PUSH10 0x31B99C344800B101D5DF 0xC7 SWAP12 SWAP8 0xFB MSTORE 0xB8 0xC0 POP 0xAB LOG3 0xAB GASPRICE KECCAK256 0xD7 GASLIMIT DUP3 DELEGATECALL PUSH5 0x736F6C6343 STOP ADDMOD SGT STOP CALLER "},"methodIdentifiers":{"EARLY_WITHDRAWAL_PENALTY_PERCENT()":"9c0fbd05","allTransactions(uint256)":"d7ff0714","baseAPY()":"214405a9","blockedAddresses(address)":"4f93208a","bnbAddress()":"d11c583a","bnbRatio()":"032d975b","buyUSDC()":"251545da","buyUSDT()":"5b365040","buyWithBNB(uint256)":"c3333dfb","buyWithETH()":"150d283d","buyWithSOL(uint256)":"f30ef2e5","buyWithUSDC(uint256)":"aeccf735","buyWithUSDT(uint256)":"a7c60160","calculateRewards(uint256)":"d3ea4350","ethPriceForStablecoin()":"f34a00fb","ethPriceForToken()":"c605af53","getAllTransactions()":"27506f53","getContractInfo()":"7cc1f867","getReferralInfo(address)":"21874ae2","getStakeDetails(uint256)":"963c9dd3","getStakeInfo(uint256)":"09813482","getStakingInfo()":"b40cd21d","getTokenBalances()":"a1dc9031","getTotalPenaltyCollected()":"491cc756","getUserReferrals(address)":"575cea6b","getUserStakes(address)":"842e2981","getUserStakingInfo(address)":"80933608","getUserTransactions(address)":"ef925399","harvestRewards(uint256)":"57126d0d","hasStaked(address)":"c93c8f34","minStakeAmount()":"f1887684","nextStakeId()":"75506c96","owner()":"8da5cb5b","referralRewardPercentage()":"920a253e","referralRewards(address)":"53aaa63b","referrals(address,uint256)":"e697b5d8","referrers(address)":"4a3b68cc","registerReferrer(address)":"9ea7685a","saleToken()":"e985e367","setBlockStatus(address,bool)":"182a676b","setSaleToken(address)":"a29f481c","solAddress()":"1ce24e16","solRatio()":"7a9773dc","stakeOwners(uint256)":"fd9a11e5","stakeTokens(uint256,uint256)":"3b7b6188","tokensSold()":"518ab2a8","totalPenaltyCollected()":"2bb38809","totalRewardsDistributed()":"ee172546","totalStaked()":"817b1cd2","totalStakers()":"86989038","unstakeEarly(uint256)":"2fd04c08","unstakeTokens(uint256)":"608e4dd0","updateBNB(address,uint256)":"366b17d6","updateBaseAPY(uint256)":"71d20fe7","updateMinStakeAmount(uint256)":"d8060cd5","updateReferralPercentage(uint256)":"4cdb312d","updateSOL(address,uint256)":"ebcd3a13","updateStablecoinPrice(uint256)":"63219c72","updateTokenPrice(uint256)":"676c0d77","updateUSDC(address,uint256)":"1e37c606","updateUSDT(address,uint256)":"b006984f","usdcAddress()":"02d45457","usdcRatio()":"6f43f373","usdtAddress()":"9ab4a445","usdtRatio()":"83fabe03","userStakes(address,uint256)":"b5d5b5fa","userTransactions(address,uint256)":"b842ec44","withdrawTokens(address,uint256)":"06b091f9"}}}}}