{"contracts/TokenICO.sol":{"TokenICO":{"abi":[{"inputs":[],"stateMutability":"nonpayable","type":"constructor"},{"anonymous":false,"inputs":[{"indexed":false,"internalType":"uint256","name":"oldAPY","type":"uint256"},{"indexed":false,"internalType":"uint256","name":"newAPY","type":"uint256"}],"name":"APYUpdated","type":"event"},{"anonymous":false,"inputs":[{"indexed":true,"internalType":"address","name":"user","type":"address"},{"indexed":false,"internalType":"bool","name":"blocked","type":"bool"}],"name":"AddressBlocked","type":"event"},{"anonymous":false,"inputs":[{"indexed":true,"internalType":"address","name":"user","type":"address"},{"indexed":true,"internalType":"uint256","name":"stakeId","type":"uint256"},{"indexed":false,"internalType":"uint256","name":"amount","type":"uint256"},{"indexed":false,"internalType":"uint256","name":"penalty","type":"uint256"}],"name":"EarlyUnstake","type":"event"},{"anonymous":false,"inputs":[{"indexed":false,"internalType":"uint256","name":"oldMinStake","type":"uint256"},{"indexed":false,"internalType":"uint256","name":"newMinStake","type":"uint256"}],"name":"MinStakeUpdated","type":"event"},{"anonymous":false,"inputs":[{"indexed":false,"internalType":"string","name":"priceType","type":"string"},{"indexed":false,"internalType":"uint256","name":"oldPrice","type":"uint256"},{"indexed":false,"internalType":"uint256","name":"newPrice","type":"uint256"}],"name":"PriceUpdated","type":"event"},{"anonymous":false,"inputs":[{"indexed":false,"internalType":"uint256","name":"oldPercentage","type":"uint256"},{"indexed":false,"internalType":"uint256","name":"newPercentage","type":"uint256"}],"name":"ReferralPercentageUpdated","type":"event"},{"anonymous":false,"inputs":[{"indexed":true,"internalType":"address","name":"referrer","type":"address"},{"indexed":true,"internalType":"address","name":"referee","type":"address"}],"name":"ReferralRegistered","type":"event"},{"anonymous":false,"inputs":[{"indexed":true,"internalType":"address","name":"referrer","type":"address"},{"indexed":true,"internalType":"address","name":"referee","type":"address"},{"indexed":false,"internalType":"uint256","name":"amount","type":"uint256"}],"name":"ReferralRewardPaid","type":"event"},{"anonymous":false,"inputs":[{"indexed":true,"internalType":"address","name":"user","type":"address"},{"indexed":true,"internalType":"uint256","name":"stakeId","type":"uint256"},{"indexed":false,"internalType":"uint256","name":"reward","type":"uint256"}],"name":"RewardHarvested","type":"event"},{"anonymous":false,"inputs":[{"indexed":true,"internalType":"address","name":"buyer","type":"address"},{"indexed":true,"internalType":"address","name":"stablecoin","type":"address"},{"indexed":false,"internalType":"uint256","name":"stablecoinAmount","type":"uint256"},{"indexed":false,"internalType":"uint256","name":"ethPaid","type":"uint256"},{"indexed":false,"internalType":"uint256","name":"timestamp","type":"uint256"}],"name":"StablecoinSold","type":"event"},{"anonymous":false,"inputs":[{"indexed":true,"internalType":"address","name":"user","type":"address"},{"indexed":true,"internalType":"uint256","name":"stakeId","type":"uint256"},{"indexed":false,"internalType":"uint256","name":"amount","type":"uint256"},{"indexed":false,"internalType":"uint256","name":"lockPeriod","type":"uint256"}],"name":"Staked","type":"event"},{"anonymous":false,"inputs":[{"indexed":true,"internalType":"address","name":"buyer","type":"address"},{"indexed":true,"internalType":"address","name":"paymentMethod","type":"address"},{"indexed":false,"internalType":"uint256","name":"amountPaid","type":"uint256"},{"indexed":false,"internalType":"uint256","name":"tokensBought","type":"uint256"},{"indexed":false,"internalType":"uint256","name":"timestamp","type":"uint256"}],"name":"TokensPurchased","type":"event"},{"anonymous":false,"inputs":[{"indexed":true,"internalType":"address","name":"user","type":"address"},{"indexed":true,"internalType":"uint256","name":"stakeId","type":"uint256"},{"indexed":false,"internalType":"uint256","name":"amount","type":"uint256"}],"name":"Unstaked","type":"event"},{"inputs":[],"name":"EARLY_WITHDRAWAL_PENALTY_PERCENT","outputs":[{"internalType":"uint256","name":"","type":"uint256"}],"stateMutability":"view","type":"function"},{"inputs":[{"internalType":"uint256","name":"","type":"uint256"}],"name":"allTransactions","outputs":[{"internalType":"uint256","name":"timestamp","type":"uint256"},{"internalType":"address","name":"user","type":"address"},{"internalType":"address","name":"tokenIn","type":"address"},{"internalType":"address","name":"tokenOut","type":"address"},{"internalType":"uint256","name":"amountIn","type":"uint256"},{"internalType":"uint256","name":"amountOut","type":"uint256"},{"internalType":"string","name":"transactionType","type":"string"}],"stateMutability":"view","type":"function"},{"inputs":[],"name":"baseAPY","outputs":[{"internalType":"uint256","name":"","type":"uint256"}],"stateMutability":"view","type":"function"},{"inputs":[{"internalType":"address","name":"","type":"address"}],"name":"blockedAddresses","outputs":[{"internalType":"bool","name":"","type":"bool"}],"stateMutability":"view","type":"function"},{"inputs":[],"name":"buyUSDC","outputs":[],"stateMutability":"payable","type":"function"},{"inputs":[],"name":"buyUSDT","outputs":[],"stateMutability":"payable","type":"function"},{"inputs":[],"name":"buyWithETH","outputs":[],"stateMutability":"payable","type":"function"},{"inputs":[{"internalType":"uint256","name":"usdcAmount","type":"uint256"}],"name":"buyWithUSDC","outputs":[],"stateMutability":"nonpayable","type":"function"},{"inputs":[{"internalType":"uint256","name":"usdtAmount","type":"uint256"}],"name":"buyWithUSDT","outputs":[],"stateMutability":"nonpayable","type":"function"},{"inputs":[{"internalType":"uint256","name":"stakeId","type":"uint256"}],"name":"calculateRewards","outputs":[{"internalType":"uint256","name":"","type":"uint256"}],"stateMutability":"view","type":"function"},{"inputs":[],"name":"ethPriceForStablecoin","outputs":[{"internalType":"uint256","name":"","type":"uint256"}],"stateMutability":"view","type":"function"},{"inputs":[],"name":"ethPriceForToken","outputs":[{"internalType":"uint256","name":"","type":"uint256"}],"stateMutability":"view","type":"function"},{"inputs":[],"name":"getAllTransactions","outputs":[{"components":[{"internalType":"uint256","name":"timestamp","type":"uint256"},{"internalType":"address","name":"user","type":"address"},{"internalType":"address","name":"tokenIn","type":"address"},{"internalType":"address","name":"tokenOut","type":"address"},{"internalType":"uint256","name":"amountIn","type":"uint256"},{"internalType":"uint256","name":"amountOut","type":"uint256"},{"internalType":"string","name":"transactionType","type":"string"}],"internalType":"struct TokenICO.Transaction[]","name":"","type":"tuple[]"}],"stateMutability":"view","type":"function"},{"inputs":[],"name":"getContractInfo","outputs":[{"internalType":"address","name":"tokenAddress","type":"address"},{"internalType":"uint256","name":"tokenBalance","type":"uint256"},{"internalType":"uint256","name":"ethPrice","type":"uint256"},{"internalType":"uint256","name":"stablecoinPrice","type":"uint256"},{"internalType":"uint256","name":"totalSold","type":"uint256"},{"internalType":"address","name":"usdtAddr","type":"address"},{"internalType":"address","name":"usdcAddr","type":"address"},{"internalType":"uint256","name":"usdtTokenRatio","type":"uint256"},{"internalType":"uint256","name":"usdcTokenRatio","type":"uint256"}],"stateMutability":"view","type":"function"},{"inputs":[{"internalType":"address","name":"user","type":"address"}],"name":"getReferralInfo","outputs":[{"internalType":"address","name":"referrer","type":"address"},{"internalType":"uint256","name":"totalReferrals","type":"uint256"},{"internalType":"uint256","name":"totalRewardsEarned","type":"uint256"},{"internalType":"uint256","name":"rewardPercentage","type":"uint256"}],"stateMutability":"view","type":"function"},{"inputs":[{"internalType":"uint256","name":"stakeId","type":"uint256"}],"name":"getStakeDetails","outputs":[{"internalType":"uint256","name":"lockPeriod","type":"uint256"},{"internalType":"uint256","name":"pendingRewards","type":"uint256"},{"internalType":"bool","name":"active","type":"bool"}],"stateMutability":"view","type":"function"},{"inputs":[{"internalType":"uint256","name":"stakeId","type":"uint256"}],"name":"getStakeInfo","outputs":[{"internalType":"uint256","name":"id","type":"uint256"},{"internalType":"address","name":"stakeOwnerAddr","type":"address"},{"internalType":"uint256","name":"amount","type":"uint256"},{"internalType":"uint256","name":"startTime","type":"uint256"}],"stateMutability":"view","type":"function"},{"inputs":[],"name":"getStakingInfo","outputs":[{"internalType":"uint256","name":"baseApyRate","type":"uint256"},{"internalType":"uint256","name":"minStakingAmount","type":"uint256"},{"internalType":"uint256","name":"totalTokensStaked","type":"uint256"},{"internalType":"uint256","name":"totalRewardsPaid","type":"uint256"},{"internalType":"uint256","name":"numberOfStakers","type":"uint256"}],"stateMutability":"view","type":"function"},{"inputs":[],"name":"getTokenBalances","outputs":[{"internalType":"uint256","name":"tokenBalance","type":"uint256"},{"internalType":"uint256","name":"usdtBalance","type":"uint256"},{"internalType":"uint256","name":"usdcBalance","type":"uint256"}],"stateMutability":"view","type":"function"},{"inputs":[],"name":"getTotalPenaltyCollected","outputs":[{"internalType":"uint256","name":"","type":"uint256"}],"stateMutability":"view","type":"function"},{"inputs":[{"internalType":"address","name":"referrer","type":"address"}],"name":"getUserReferrals","outputs":[{"internalType":"address[]","name":"","type":"address[]"}],"stateMutability":"view","type":"function"},{"inputs":[{"internalType":"address","name":"user","type":"address"}],"name":"getUserStakes","outputs":[{"components":[{"internalType":"uint256","name":"id","type":"uint256"},{"internalType":"uint256","name":"amount","type":"uint256"},{"internalType":"uint256","name":"startTime","type":"uint256"},{"internalType":"uint256","name":"lockPeriod","type":"uint256"},{"internalType":"uint256","name":"lastRewardCalculation","type":"uint256"},{"internalType":"uint256","name":"pendingRewards","type":"uint256"},{"internalType":"bool","name":"active","type":"bool"}],"internalType":"struct TokenICO.Stake[]","name":"","type":"tuple[]"}],"stateMutability":"view","type":"function"},{"inputs":[{"internalType":"address","name":"user","type":"address"}],"name":"getUserStakingInfo","outputs":[{"internalType":"uint256","name":"totalUserStaked","type":"uint256"},{"internalType":"uint256","name":"totalPendingRewards","type":"uint256"},{"internalType":"uint256","name":"activeStakesCount","type":"uint256"}],"stateMutability":"view","type":"function"},{"inputs":[{"internalType":"address","name":"user","type":"address"}],"name":"getUserTransactions","outputs":[{"components":[{"internalType":"uint256","name":"timestamp","type":"uint256"},{"internalType":"address","name":"user","type":"address"},{"internalType":"address","name":"tokenIn","type":"address"},{"internalType":"address","name":"tokenOut","type":"address"},{"internalType":"uint256","name":"amountIn","type":"uint256"},{"internalType":"uint256","name":"amountOut","type":"uint256"},{"internalType":"string","name":"transactionType","type":"string"}],"internalType":"struct TokenICO.Transaction[]","name":"","type":"tuple[]"}],"stateMutability":"view","type":"function"},{"inputs":[{"internalType":"uint256","name":"stakeId","type":"uint256"}],"name":"harvestRewards","outputs":[],"stateMutability":"nonpayable","type":"function"},{"inputs":[{"internalType":"address","name":"","type":"address"}],"name":"hasStaked","outputs":[{"internalType":"bool","name":"","type":"bool"}],"stateMutability":"view","type":"function"},{"inputs":[],"name":"minStakeAmount","outputs":[{"internalType":"uint256","name":"","type":"uint256"}],"stateMutability":"view","type":"function"},{"inputs":[],"name":"nextStakeId","outputs":[{"internalType":"uint256","name":"","type":"uint256"}],"stateMutability":"view","type":"function"},{"inputs":[],"name":"owner","outputs":[{"internalType":"address","name":"","type":"address"}],"stateMutability":"view","type":"function"},{"inputs":[],"name":"referralRewardPercentage","outputs":[{"internalType":"uint256","name":"","type":"uint256"}],"stateMutability":"view","type":"function"},{"inputs":[{"internalType":"address","name":"","type":"address"}],"name":"referralRewards","outputs":[{"internalType":"uint256","name":"","type":"uint256"}],"stateMutability":"view","type":"function"},{"inputs":[{"internalType":"address","name":"","type":"address"},{"internalType":"uint256","name":"","type":"uint256"}],"name":"referrals","outputs":[{"internalType":"address","name":"","type":"address"}],"stateMutability":"view","type":"function"},{"inputs":[{"internalType":"address","name":"","type":"address"}],"name":"referrers","outputs":[{"internalType":"address","name":"","type":"address"}],"stateMutability":"view","type":"function"},{"inputs":[{"internalType":"address","name":"referrer","type":"address"}],"name":"registerReferrer","outputs":[],"stateMutability":"nonpayable","type":"function"},{"inputs":[],"name":"saleToken","outputs":[{"internalType":"address","name":"","type":"address"}],"stateMutability":"view","type":"function"},{"inputs":[{"internalType":"address","name":"user","type":"address"},{"internalType":"bool","name":"blocked","type":"bool"}],"name":"setBlockStatus","outputs":[],"stateMutability":"nonpayable","type":"function"},{"inputs":[{"internalType":"address","name":"_token","type":"address"}],"name":"setSaleToken","outputs":[],"stateMutability":"nonpayable","type":"function"},{"inputs":[{"internalType":"uint256","name":"","type":"uint256"}],"name":"stakeOwners","outputs":[{"internalType":"address","name":"","type":"address"}],"stateMutability":"view","type":"function"},{"inputs":[{"internalType":"uint256","name":"amount","type":"uint256"},{"internalType":"uint256","name":"lockPeriodDays","type":"uint256"}],"name":"stakeTokens","outputs":[],"stateMutability":"nonpayable","type":"function"},{"inputs":[],"name":"tokensSold","outputs":[{"internalType":"uint256","name":"","type":"uint256"}],"stateMutability":"view","type":"function"},{"inputs":[],"name":"totalPenaltyCollected","outputs":[{"internalType":"uint256","name":"","type":"uint256"}],"stateMutability":"view","type":"function"},{"inputs":[],"name":"totalRewardsDistributed","outputs":[{"internalType":"uint256","name":"","type":"uint256"}],"stateMutability":"view","type":"function"},{"inputs":[],"name":"totalStaked","outputs":[{"internalType":"uint256","name":"","type":"uint256"}],"stateMutability":"view","type":"function"},{"inputs":[],"name":"totalStakers","outputs":[{"internalType":"uint256","name":"","type":"uint256"}],"stateMutability":"view","type":"function"},{"inputs":[{"internalType":"uint256","name":"stakeId","type":"uint256"}],"name":"unstakeEarly","outputs":[],"stateMutability":"nonpayable","type":"function"},{"inputs":[{"internalType":"uint256","name":"stakeId","type":"uint256"}],"name":"unstakeTokens","outputs":[],"stateMutability":"nonpayable","type":"function"},{"inputs":[{"internalType":"uint256","name":"newAPY","type":"uint256"}],"name":"updateBaseAPY","outputs":[],"stateMutability":"nonpayable","type":"function"},{"inputs":[{"internalType":"uint256","name":"newMinAmount","type":"uint256"}],"name":"updateMinStakeAmount","outputs":[],"stateMutability":"nonpayable","type":"function"},{"inputs":[{"internalType":"uint256","name":"newPercentage","type":"uint256"}],"name":"updateReferralPercentage","outputs":[],"stateMutability":"nonpayable","type":"function"},{"inputs":[{"internalType":"uint256","name":"newPrice","type":"uint256"}],"name":"updateStablecoinPrice","outputs":[],"stateMutability":"nonpayable","type":"function"},{"inputs":[{"internalType":"uint256","name":"newPrice","type":"uint256"}],"name":"updateTokenPrice","outputs":[],"stateMutability":"nonpayable","type":"function"},{"inputs":[{"internalType":"address","name":"newAddress","type":"address"},{"internalType":"uint256","name":"newRatio","type":"uint256"}],"name":"updateUSDC","outputs":[],"stateMutability":"nonpayable","type":"function"},{"inputs":[{"internalType":"address","name":"newAddress","type":"address"},{"internalType":"uint256","name":"newRatio","type":"uint256"}],"name":"updateUSDT","outputs":[],"stateMutability":"nonpayable","type":"function"},{"inputs":[],"name":"usdcAddress","outputs":[{"internalType":"address","name":"","type":"address"}],"stateMutability":"view","type":"function"},{"inputs":[],"name":"usdcRatio","outputs":[{"internalType":"uint256","name":"","type":"uint256"}],"stateMutability":"view","type":"function"},{"inputs":[],"name":"usdtAddress","outputs":[{"internalType":"address","name":"","type":"address"}],"stateMutability":"view","type":"function"},{"inputs":[],"name":"usdtRatio","outputs":[{"internalType":"uint256","name":"","type":"uint256"}],"stateMutability":"view","type":"function"},{"inputs":[{"internalType":"address","name":"","type":"address"},{"internalType":"uint256","name":"","type":"uint256"}],"name":"userStakes","outputs":[{"internalType":"uint256","name":"id","type":"uint256"},{"internalType":"uint256","name":"amount","type":"uint256"},{"internalType":"uint256","name":"startTime","type":"uint256"},{"internalType":"uint256","name":"lockPeriod","type":"uint256"},{"internalType":"uint256","name":"lastRewardCalculation","type":"uint256"},{"internalType":"uint256","name":"pendingRewards","type":"uint256"},{"internalType":"bool","name":"active","type":"bool"}],"stateMutability":"view","type":"function"},{"inputs":[{"internalType":"address","name":"","type":"address"},{"internalType":"uint256","name":"","type":"uint256"}],"name":"userTransactions","outputs":[{"internalType":"uint256","name":"timestamp","type":"uint256"},{"internalType":"address","name":"user","type":"address"},{"internalType":"address","name":"tokenIn","type":"address"},{"internalType":"address","name":"tokenOut","type":"address"},{"internalType":"uint256","name":"amountIn","type":"uint256"},{"internalType":"uint256","name":"amountOut","type":"uint256"},{"internalType":"string","name":"transactionType","type":"string"}],"stateMutability":"view","type":"function"},{"inputs":[{"internalType":"address","name":"_token","type":"address"},{"internalType":"uint256","name":"_amount","type":"uint256"}],"name":"withdrawTokens","outputs":[],"stateMutability":"nonpayable","type":"function"}],"evm":{"bytecode":{"linkReferences":{},"object":"60a080604052346100c05766038d7ea4c6800080600355600455600c805568056bc75e2d63100000600d556001601355600560155533608052601460055560146006556141ba90816100c682396080518181816104c7015281816108c4015281816109d601528181610bd901528181610cf2015281816111c30152818161155a0152818161166a0152818161171501528181611b1401528181611f8c01528181612858015281816129af01528181612a6801528181612b490152612cf30152f35b600080fdfe6080604081815260048036101561001557600080fd5b60009260e08435811c91826302d4545714612e9e5750816306b091f914612cd25781630981348214612c02578163150d283d14612ab8578163182a676b14612a065781631e37c60614612982578163214405a91461296257816321874ae214612901578163251545da1461279657816327506f53146126b65781632bb38809146120715781632fd04c08146123875781633b7b618814612091578163491cc756146120715781634a3b68cc146120355781634cdb312d14611f705781634f93208a14611f31578163518ab2a814611f1157816353aaa63b14611ed857816357126d0d14611ca9578163575cea6b14611bfe5781635b36504014611a52578163608e4dd01461178057816363219c72146116d3578163676c0d771461162b5781636f43f3731461160b57816371d20fe71461153e57816375506c961461151e5781637cc1f8671461143d578163809336081461135a578163817b1cd21461133a57816383fabe031461131a578163842e29811461121257816386989038146111f25781638da5cb5b146111ad578163920a253e1461118d578163963c9dd3146110ae5781639ab4a445146110845781639c0fbd05146110675781639ea7685a14610ead578163a1dc903114610d37578163a29f481c14610cc9578163a7c6016014610b1e578163aeccf7351461091b578163b006984f14610897578163b40cd21d14610855578163b5d5b5fa146107c257508063b842ec4414610744578063c605af5314610725578063c93c8f34146106e7578063d3ea4350146106c0578063d7ff071414610578578063d8060cd5146104ac578063e697b5d814610453578063e985e3671461042b578063ee1725461461040c578063ef9253991461032e578063f18876841461030b578063f34a00fb146102ee5763fd9a11e5146102b957600080fd5b346102ea5760203660031901126102ea57358252600f6020908152918190205490516001600160a01b039091168152f35b8280fd5b50346102ea57826003193601126102ea5760209250549051908152f35b50503461032a578160031936011261032a57602090600d549051908152f35b5080fd5b5082903461032a5760209182600319360112610409576001600160a01b039283610356612ec3565b168252600981528482209182549361036d856140df565b9561037a8851978861308b565b85875283870194835283832092945b8686106103a15788518061039d8a82612f1e565b0390f35b6007856001928b516103b28161303d565b8754815285858901541683820152856002890154168d820152856003890154166060820152868801546080820152600588015460a08201526103f6600689016130ad565b60c0820152815201940195019492610389565b80fd5b50503461032a578160031936011261032a576020906011549051908152f35b50503461032a578160031936011261032a57905490516001600160a01b039091168152602090f35b50503461032a578060031936011261032a5761046d612ec3565b6001600160a01b039081168352601760205281832080546024359490851015610409575060209361049d91613198565b92905490519260031b1c168152f35b50346102ea5760203660031901126102ea578035906104f5337f00000000000000000000000000000000000000000000000000000000000000006001600160a01b0316146131b0565b81156105355750907f171aabb8815c02fd00303450a77058600e3661eb75ce2e77972c0f080bc7099d91600d549080600d5582519182526020820152a180f35b606490602084519162461bcd60e51b8352820152602060248201527f4d696e207374616b65206d7573742062652067726561746572207468616e20306044820152fd5b50346102ea5760203660031901126102ea5735600a548110156102ea57600a6007929352029061039d827fc65a7bb8d6351c1cf70c95a316cc6a92839c986682d98bc35f958f4883f9d2a801549160018060a01b0393847fc65a7bb8d6351c1cf70c95a316cc6a92839c986682d98bc35f958f4883f9d2a98201541694807fc65a7bb8d6351c1cf70c95a316cc6a92839c986682d98bc35f958f4883f9d2aa83015416907fc65a7bb8d6351c1cf70c95a316cc6a92839c986682d98bc35f958f4883f9d2ab830154167fc65a7bb8d6351c1cf70c95a316cc6a92839c986682d98bc35f958f4883f9d2ac830154916106b57fc65a7bb8d6351c1cf70c95a316cc6a92839c986682d98bc35f958f4883f9d2ae7fc65a7bb8d6351c1cf70c95a316cc6a92839c986682d98bc35f958f4883f9d2ad86015495016130ad565b945197889788613153565b50913461040957602036600319011261040957506106e060209235613641565b9051908152f35b50503461032a57602036600319011261032a5760209160ff9082906001600160a01b03610712612ec3565b1681526014855220541690519015158152f35b50503461032a578160031936011261032a576020906003549051908152f35b5091903461032a578060031936011261032a5761075f612ec3565b6001600160a01b03908116835260096020528183208054919360243592831015610409575061039d929161079291612fd1565b508054938060018301541695816002840154169160038401541690830154916106b56006600586015495016130ad565b939050346104095782600319360112610409576107dd612ec3565b6001600160a01b03168152600e6020528281208054602435929083101561040957509061080991612fd1565b5080549260018201549260028301546003840154918401549260ff600660058701549601541695815197885260208801528601526060850152608084015260a0830152151560c0820152f35b5050503461032a578160031936011261032a5760a090600c5490600d549060105460115491601254938151958652602086015284015260608301526080820152f35b5050503461032a57366003190112610409576108b1612ec3565b602435906001600160a01b03906108eb337f00000000000000000000000000000000000000000000000000000000000000008416146131b0565b166108f7811515613225565b610902821515613263565b6001600160601b0360a01b600154161760015560055580f35b8285853461032a576020806003193601126102ea5783353384526008825261094960ff84862054161561329f565b80159061095682156133a6565b84546001600160a01b039061096e908216151561331c565b80600254169261097f84151561348f565b620f42409081840291848304141715610b0b5761099e6006548461335d565b93670de0b6b3a764000094858102958187041490151715610af85786516323b872dd60e01b815233818b019081526001600160a01b037f00000000000000000000000000000000000000000000000000000000000000001660208201526040810193909352949392918691869182908b90829060600103925af1938415610aee57610a61610abb94610a5c7f377aadedb6b2a771959584d10a6a36eccb5f56b4eb3a48525f76108d2660d8d497610a97948c91610ac1575b506134d1565b61388d565b95610a6b87613ac7565b86848460025416858c5416906242555960e81b8c5195610a8a8761306f565b6003875286015233614083565b60025416945191829133954291846040919493926060820195825260208201520152565b0390a380f35b610ae191508a3d8c11610ae7575b610ad9818361308b565b810190613434565b8c610a56565b503d610acf565b86513d89823e3d90fd5b634e487b7160e01b885260118952602488fd5b634e487b7160e01b875260118852602487fd5b8285853461032a576020806003193601126102ea57833533845260088252610b4c60ff84862054161561329f565b801590610b5982156133a6565b84546001600160a01b0390610b71908216151561331c565b806001541692610b828415156133f2565b620f42409081840291848304141715610b0b57610ba16005548461335d565b93670de0b6b3a764000094858102958187041490151715610af85786516323b872dd60e01b815233818b019081526001600160a01b037f00000000000000000000000000000000000000000000000000000000000000001660208201526040810193909352949392918691869182908b90829060600103925af1938415610aee57610c5f610abb94610a5c7f377aadedb6b2a771959584d10a6a36eccb5f56b4eb3a48525f76108d2660d8d497610c88948c91610cac575b5061344c565b95610c6987613ac7565b86848460015416858c5416906242555960e81b8c5195610a8a8761306f565b60015416945191829133954291846040919493926060820195825260208201520152565b610cc391508a3d8c11610ae757610ad9818361308b565b8c610c59565b843461040957602036600319011261040957610ce3612ec3565b6001600160a01b0390610d19337f00000000000000000000000000000000000000000000000000000000000000008416146131b0565b16610d25811515613225565b81546001600160a01b03191617815580f35b505090346102ea57826003193601126102ea57825481516370a0823160e01b808252308286015290946001600160a01b03946020938490889060249082908a165afa958615610ea3578296610e73575b602497508481600154168751998a809288825230878301525afa978815610e69578398610e39575b509060248592600254169487519586938492835230908301525afa928315610e2d578193610dfa575b50505061039d9151938493846040919493926060820195825260208201520152565b9091809350813d8311610e26575b610e12818361308b565b8101031261040957505161039d3880610dd8565b503d610e08565b508351903d90823e3d90fd5b9097508481813d8311610e62575b610e51818361308b565b810103126102ea5751966024610daf565b503d610e47565b86513d85823e3d90fd5b95508387813d8311610e9c575b610e8a818361308b565b8101031261032a576024965195610d87565b503d610e80565b85513d84823e3d90fd5b8285853461032a57602090816003193601126102ea57610ecb612ec3565b9033845260088352610ee360ff82862054161561329f565b6001600160a01b0391821692831561102557338414610feb5733855260168152828286205416610f9e573385526016815281852080546001600160a01b03191685179055838552601790528320805490600160401b821015610f8b5790610f4f91600182018155613198565b819291549060031b9133831b921b191617905533907f5f1ca2fcc108b751843a763e60d2201f593516109d7dbb1b700468f2d4190bb78380a380f35b634e487b7160e01b855260418652602485fd5b8590608492519162461bcd60e51b8352820152602260248201527f416c72656164792072656769737465726564207769746820612072656665727260448201526132b960f11b6064820152fd5b8590606492519162461bcd60e51b8352820152601560248201527421b0b73737ba103932b332b9103cb7bab939b2b63360591b6044820152fd5b8590606492519162461bcd60e51b8352820152601860248201527f496e76616c6964207265666572726572206164647265737300000000000000006044820152fd5b5050503461032a578160031936011261032a576020905160058152f35b5050503461032a578160031936011261032a5760015490516001600160a01b039091168152602090f35b5050346102ea57602090816003193601126111895735808452600f8252828420546001600160a01b0316939092906110e7851515613574565b6110ef61414c565b8195825b818452600e808752858520805483101561117457611112838a92612fd1565b505414611128575061112390613558565b6110f3565b6060985061114b93508486916111459461115b9752885220612fd1565b506140f7565b9361115660016135b7565b613641565b60c0858501519401511515928251948552840152820152f35b505050509361115b91506111566060966135b7565b8380fd5b5050503461032a578160031936011261032a576020906015549051908152f35b5050503461032a578160031936011261032a57517f00000000000000000000000000000000000000000000000000000000000000006001600160a01b03168152602090f35b5050503461032a578160031936011261032a576020906012549051908152f35b915050346102ea576020806003193601126111895790916001600160a01b03611239612ec3565b168452600e825280842091825491611250836140df565b9261125d8251948561308b565b8084528284018095885283882088915b8383106112ed575050505080519482860193838752518094528186019496915b84831061129a5786860387f35b87518051875280850151878601528082015187830152606080820151908801526080808201519088015260a0808201519088015260c090810151151590870152968301969481019460019092019161128d565b600786600192611304859d999a9b9d9c989c6140f7565b815201920192019190989695949897939761126d565b5050503461032a578160031936011261032a576020906005549051908152f35b5050503461032a578160031936011261032a576020906010549051908152f35b838534610409576020908160031936011261040957611377612ec3565b9091829182919082906001600160a01b0316815b818652600e80855288872080548310156114255760ff60066113ae858d94612fd1565b500154166113c7575b50506113c290613558565b61138b565b8296946113f5839a60016113ec6113c297611417968e61141d998e8d83525220612fd1565b50015490613567565b99858a52875261141161140a898d8c20612fd1565b5054613641565b90613567565b93613558565b9490886113b7565b89518981526020810186905260408101889052606090f35b9192905034611189578360031936011261118957835481516370a0823160e01b815230818601526001600160a01b0391821694909391602085602481895afa9485156115145787956114d8575b5061012096506003549154600754908260015416926002541693600554966006549881519a8b5260208b01528901526060880152608087015260a086015260c0850152830152610100820152f35b9094506020813d821161150c575b816114f36020938361308b565b8101031261150857610120965051933861148a565b8680fd5b3d91506114e6565b84513d89823e3d90fd5b5050503461032a578160031936011261032a576020906013549051908152f35b5050346102ea5760203660031901126102ea57803590611588337f00000000000000000000000000000000000000000000000000000000000000006001600160a01b0316146131b0565b81156115c85750907f787a1fca55641ce34a438271930bbb9401df20db2b4f510d4f252227d85df43d91600c549080600c5582519182526020820152a180f35b606490602084519162461bcd60e51b8352820152601a60248201527f415059206d7573742062652067726561746572207468616e20300000000000006044820152fd5b5050503461032a578160031936011261032a576020906006549051908152f35b5050346102ea5760203660031901126102ea577f6e838f2a03741f5f2aff5480963b672fb0dd8430a4dc75db9b67ce009733c9fe9160a09135611698337f00000000000000000000000000000000000000000000000000000000000000006001600160a01b0316146131b0565b6116a38115156131e9565b60035491816003558051926060845260056060850152642a27a5a2a760d91b60808501526020840152820152a180f35b505090346102ea5760203660031901126102ea577f6e838f2a03741f5f2aff5480963b672fb0dd8430a4dc75db9b67ce009733c9fe9160a091813590611743337f00000000000000000000000000000000000000000000000000000000000000006001600160a01b0316146131b0565b61174e8215156131e9565b818354935580519260608452600a60608501526929aa20a12622a1a7a4a760b11b60808501526020840152820152a180f35b505090346102ea57602090816003193601126111895782919235923385526008815260ff6117b38184882054161561329f565b848652600f8252828620546001600160a01b03906117d4908216331461384f565b8694859283805b338b52600e808852888c208054831015611a3e579a6117fc83829c9d612fd1565b505414611815575061180d90613558565b9897986117db565b95509798505033895283855261183e61183088888c20612fd1565b5091600680930154166135f5565b338952838552600261185288888c20612fd1565b500154338a52848652600361186989898d20612fd1565b500154906201518091828102928184041490151715611a2b579061188c91613567565b42106119f1579184916118ef8a611935956118d16118a98d613641565b9b3384528988528b6118bd82828720612fd1565b50946001809601549b3382528a5220612fd1565b500160ff19815416905560106118e8888254613634565b90556135b7565b6118f833613a0e565b6119028886613567565b8a54885163a9059cbb60e01b8152339381019384526020840192909252909485939091169183918c918391604090910190565b03925af190811561151457906119529188916119d4575b50613514565b8484151591826119c0575b84519081527f7fc4727e062e336010f2c282598ef5f14facb3de68cf8195c2f23e1454b2b74e843392a361198f578480f35b7ff87cfa2d5feaea949ad65bb76a26d8553381bcb6382adbc83dedd48961bf32d991519283523392a3388080808480f35b6119cc86601154613567565b60115561195d565b6119eb9150843d8611610ae757610ad9818361308b565b3861194c565b855162461bcd60e51b8152808301869052601460248201527314dd1a5b1b081a5b881b1bd8dac81c195c9a5bd960621b6044820152606490fd5b634e487b7160e01b8b526011845260248bfd5b505050611935939150916118ef86936135b7565b5050826003193601126102ea573383526008602052611a7760ff83852054161561329f565b341590611a8482156132e0565b6001546001600160a01b0390811692611a9e8415156133f2565b620f42408034029034820414821715611beb5790611abf8792855490613386565b865163a9059cbb60e01b81523386820190815260208181018490529297919291839182908790829060400103925af18015611be157611b04918491611bc3575061344c565b8190611bba575b818080923490867f00000000000000000000000000000000000000000000000000000000000000001690f115611bad57611b897f48a1f8a6c840b32621ceab4439a2ccd00b337e705dfdcdec0b40c49abf3e6be392848360015416875192611b728461306f565b83526314d1531360e21b6020840152349033614024565b60015493519283523460208401524260408401529092169133918060608101610abb565b50505051903d90823e3d90fd5b506108fc611b0b565b611bdb915060203d8111610ae757610ad9818361308b565b38610c59565b87513d85823e3d90fd5b634e487b7160e01b875260118452602487fd5b5050503461032a576020806003193601126102ea576001600160a01b039283611c25612ec3565b1681526017825282812091835190818185549182815201908195855282852090855b818110611c935750505082611c5d91038361308b565b8451948186019282875251809352850193925b828110611c7d5785850386f35b8351871685529381019392810192600101611c70565b82548a1684529284019260019283019201611c47565b5050346102ea5760209081600319360112611189578035913385526008815260ff93611cda8582882054161561329f565b838652600f8252808620546001600160a01b039390611cfc908516331461384f565b8693875b338952600e808652848a208054831015611ec557611d1f838a92612fd1565b505414611d355750611d3090613558565b611d00565b9697611d5e91929394959650338a528787526006611d5584888d20612fd1565b500154166135f5565b611d6787613641565b958615611e8a5790611d9891338a52808752896005611d8884898420612fd1565b500155338a528652848920612fd1565b5042908301558654835163a9059cbb60e01b815233818501908152602081018890529092869284928390036040019183918c91165af1908115611e80578791611e63575b5015611e295750907ff87cfa2d5feaea949ad65bb76a26d8553381bcb6382adbc83dedd48961bf32d9916011611e13858254613567565b9055519283523392a3611e2660016135b7565b80f35b82606492519162461bcd60e51b8352820152601660248201527514995dd85c99081d1c985b9cd9995c8819985a5b195960521b6044820152fd5b611e7a9150843d8611610ae757610ad9818361308b565b38611ddc565b83513d89823e3d90fd5b845162461bcd60e51b81528085018790526015602482015274139bc81c995dd85c991cc81d1bc81a185c9d995cdd605a1b6044820152606490fd5b505050505050509050611e2691506135b7565b5050503461032a57602036600319011261032a5760209181906001600160a01b03611f01612ec3565b1681526018845220549051908152f35b5050503461032a578160031936011261032a576020906007549051908152f35b5050503461032a57602036600319011261032a5760209160ff9082906001600160a01b03611f5d612ec3565b1681526008855220541690519015158152f35b5050346102ea5760203660031901126102ea57803590611fba337f00000000000000000000000000000000000000000000000000000000000000006001600160a01b0316146131b0565b60148211611ffc5750907fd968a3cc702265c3ab67356df15ca21d50167b011f198b963e2a868e04e3d5e091601554908060155582519182526020820152a180f35b606490602084519162461bcd60e51b835282015260136024820152720a0cae4c6cadce8c2ceca40e8dede40d0d2ced606b1b6044820152fd5b5050503461032a57602036600319011261032a576020916001600160a01b0390829082612060612ec3565b168152601685522054169051908152f35b5050503461032a578160031936011261032a57602090600b549051908152f35b8285853461032a578060031936011261032a57823560243591338452602092600884526120c460ff83872054161561329f565b600d5483106123445784546001600160a01b03166120e381151561331c565b601e8214801561233a575b8015612330575b8015612325575b156122ec5782516323b872dd60e01b815233818901908152306020820152604081018690529091869183919082908a90829060600103925af19081156122e2579061214d9187916122c55750613514565b6013549361215a85613558565b60135582516121688161303d565b85815281810185815284820142815260608301858152608084019042825260a08501928b845260c086019460018652338d52600e8852898d20805490600160401b8210156122b157906121c091600182018155612fd1565b97909761229f57927fb4caaf29adda3eefee3ad552a8e85058589bf834c7466cae4ee58787f70589ed9b9c9d9e9261222f9897959260069795518955516001890155516002880155516003870155519085015551600584015551151591019060ff801983541691151516179055565b858752600f8152828720336001600160601b0360a01b82541617905561225785601054613567565b60105533875260148152828720805460ff811615612280575b505082519485528401523392a380f35b60ff1916600117905560125461229590613558565b6012558780612270565b634e487b7160e01b8e528d8f5260248efd5b8f8f6041602492634e487b7160e01b835252fd5b6122dc9150863d8811610ae757610ad9818361308b565b8861194c565b83513d88823e3d90fd5b825162461bcd60e51b81528088018690526013602482015272125b9d985b1a59081b1bd8dac81c195c9a5bd9606a1b6044820152606490fd5b5061016d82146120fc565b5060b482146120f5565b50605a82146120ee565b815162461bcd60e51b8152808701859052601a60248201527f416d6f756e742062656c6f77206d696e696d756d207374616b650000000000006044820152606490fd5b50509134610409576020928360031936011261032a578035903383526008855260ff916123b98386862054161561329f565b808452600f8652848420546001600160a01b0396906123db908816331461384f565b8495855b338752600e80845282882080548310156126a3576123fe838792612fd1565b505414612414575061240f90613558565b6123df565b919293949596975033885281845261243f61243182858b20612fd1565b5097600680990154166135f5565b338852818452600261245382858b20612fd1565b500154338952828552600361246a83868c20612fd1565b500154906201518091828102928184041490151715612690579961249586928b9c9b98999a9b613567565b9261249f89613641565b9a3389528584526124b282888b20612fd1565b5091876001809401549a80974210612636575b906124db929161253b9899338252885220612fd1565b500160ff19815416905560106124f2898254613634565b9055986125088b612503878b613634565b613567565b8c54875163a9059cbb60e01b8152339381019384526020840192909252909485939091169183918e918391604090910190565b03925af190811561262c579761255c879261259c9a8c916126155750613514565b806125d5575b505080156125a5577f9c9ec3cfa814b0112b71c20d0b0ab54dead00a99fd389c174df717d2f1d364039282519485528401523392a36135b7565b611e2633613a0e565b50907f7fc4727e062e336010f2c282598ef5f14facb3de68cf8195c2f23e1454b2b74e91519283523392a36135b7565b60116125e2828254613567565b905583519081527ff87cfa2d5feaea949ad65bb76a26d8553381bcb6382adbc83dedd48961bf32d9853392a38438612562565b6119eb9150873d8911610ae757610ad9818361308b565b83513d8b823e3d90fd5b5050919350919350600580890290898204148915171561267d57916124db889492888f606461253b99970499600b61266f8c8254613567565b9055999850909192506124c5565b634e487b7160e01b8d5260118b5260248dfd5b634e487b7160e01b8a526011885260248afd5b5050505050505050915061259c906135b7565b5050823461040957806003193601126104095790600a54906126d7826140df565b926126e48551948561308b565b828452600a8152906020907fc65a7bb8d6351c1cf70c95a316cc6a92839c986682d98bc35f958f4883f9d2a8908286015b8585106127295787518061039d8982612f1e565b6007846001928a5161273a8161303d565b86548152848060a01b0380868901541684830152806002890154168d8301526003880154166060820152858701546080820152600587015460a0820152612783600688016130ad565b60c0820152815201930194019391612715565b5050826003193601126102ea5733835260086020526127bb60ff83852054161561329f565b3415906127c882156132e0565b6002546001600160a01b03908116926127e284151561348f565b620f42408034029034820414821715611beb57906128038792855490613386565b865163a9059cbb60e01b81523386820190815260208181018490529297919291839182908790829060400103925af18015611be1576128489184916128e357506134d1565b81906128da575b818080923490867f00000000000000000000000000000000000000000000000000000000000000001690f115611bad576128b67f48a1f8a6c840b32621ceab4439a2ccd00b337e705dfdcdec0b40c49abf3e6be392848360025416875192611b728461306f565b60025493519283523460208401524260408401529092169133918060608101610abb565b506108fc61284f565b6128fb915060203d8111610ae757610ad9818361308b565b38610a56565b5050503461032a57602036600319011261032a576080916001600160a01b0380612929612ec3565b16825260166020528282205416916017602052808083205492601860205220549060155492815194855260208501528301526060820152f35b5050503461032a578160031936011261032a57602090600c549051908152f35b5050503461032a573660031901126104095761299c612ec3565b602435906001600160a01b03906129d6337f00000000000000000000000000000000000000000000000000000000000000008416146131b0565b166129e2811515613225565b6129ed821515613263565b6001600160601b0360a01b600254161760025560065580f35b5050503461032a578060031936011261032a57612a21612ec3565b9060243591821515808403612ab4577fdda6207409a585801122fb885dcaa8074f9a21f25ff2def680c67f01a86c2c9b92602092612aac906001600160a01b0390612a8f337f00000000000000000000000000000000000000000000000000000000000000008416146131b0565b1695868852600885528288209060ff801983541691151516179055565b51908152a280f35b8480fd5b8285858160031936011261032a573382526008602052612ade60ff82842054161561329f565b341590612aeb82156132e0565b82546001600160a01b0390612b03908216151561331c565b670de0b6b3a76400008034029034820414841715612bef57849550612b2f610a5c869260035490613386565b93612b3985613ac7565b8190612be6575b818080923490867f00000000000000000000000000000000000000000000000000000000000000001690f115612bdc5790612bbe7f377aadedb6b2a771959584d10a6a36eccb5f56b4eb3a48525f76108d2660d8d49285541684835191612ba68361306f565b600383526242555960e81b6020840152349033614024565b51348152602081019290925242604083015233918060608101610abb565b81513d85823e3d90fd5b506108fc612b40565b634e487b7160e01b855260118652602485fd5b8385843461032a57602090816003193601126102ea573592838352600f825260018060a01b03818420541692612c39841515613574565b612c4161414c565b8195825b868452600e8087528585208054831015612cc057612c64838592612fd1565b505414612c7a5750612c7590613558565b612c45565b6080985061114593508591925093612c9794888252875220612fd1565b90612ca260016135b7565b81519381848401519301519382519586528501528301526060820152f35b50505050919050612ca26080956135b7565b505090346102ea57806003193601126102ea57612ced612ec3565b602435907f00000000000000000000000000000000000000000000000000000000000000006001600160a01b03612d2733828416146131b0565b808754169216918214612de2575b835163a9059cbb60e01b81526001600160a01b03909116858201908152602081810194909452909291839182908890829060400103925af1908115612dd8578491612dba575b5015612d85578280f35b906020606492519162461bcd60e51b8352820152600f60248201526e151c985b9cd9995c8819985a5b1959608a1b6044820152fd5b612dd2915060203d8111610ae757610ad9818361308b565b38612d7b565b82513d86823e3d90fd5b83516370a0823160e01b81523086820152602081602481865afa8015612e94578790612e61575b612e17915060105490613634565b831115612d3557835162461bcd60e51b8152602081870152601d60248201527f43616e6e6f74207769746864726177207374616b656420746f6b656e730000006044820152606490fd5b506020813d8211612e8c575b81612e7a6020938361308b565b8101031261150857612e179051612e09565b3d9150612e6d565b85513d89823e3d90fd5b85903461032a578160031936011261032a576002546001600160a01b03168152602090f35b600435906001600160a01b0382168203612ed957565b600080fd5b919082519283825260005b848110612f0a575050826000602080949584010152601f8019910116010190565b602081830181015184830182015201612ee9565b602080820190808352835180925260409283810182858560051b8401019601946000925b858410612f53575050505050505090565b909192939495968580612fc0600193603f198682030188528b5180518252858060a01b0380858301511685840152808983015116898401526060908183015116908301526080808201519083015260a0808201519083015260c0809101519160e080928201520190612ede565b990194019401929594939190612f42565b8054821015612fed576000526007602060002091020190600090565b634e487b7160e01b600052603260045260246000fd5b90600182811c92168015613033575b602083101461301d57565b634e487b7160e01b600052602260045260246000fd5b91607f1691613012565b60e0810190811067ffffffffffffffff82111761305957604052565b634e487b7160e01b600052604160045260246000fd5b6040810190811067ffffffffffffffff82111761305957604052565b90601f8019910116810190811067ffffffffffffffff82111761305957604052565b90604051918260008254926130c184613003565b90818452600194858116908160001461313057506001146130ed575b50506130eb9250038361308b565b565b9093915060005260209081600020936000915b8183106131185750506130eb935082010138806130dd565b85548884018501529485019487945091830191613100565b9150506130eb94506020925060ff191682840152151560051b82010138806130dd565b9360e0959261319598979492865260018060a01b0392838092166020880152166040860152166060840152608083015260a08201528160c08201520190612ede565b90565b8054821015612fed5760005260206000200190600090565b156131b757565b60405162461bcd60e51b815260206004820152600a60248201526927b7363c9037bbb732b960b11b6044820152606490fd5b156131f057565b60405162461bcd60e51b815260206004820152600d60248201526c496e76616c696420707269636560981b6044820152606490fd5b1561322c57565b60405162461bcd60e51b815260206004820152600f60248201526e496e76616c6964206164647265737360881b6044820152606490fd5b1561326a57565b60405162461bcd60e51b815260206004820152600d60248201526c496e76616c696420726174696f60981b6044820152606490fd5b156132a657565b60405162461bcd60e51b81526020600482015260126024820152711059191c995cdcc81a5cc8189b1bd8dad95960721b6044820152606490fd5b156132e757565b60405162461bcd60e51b815260206004820152600d60248201526c09aeae6e840e6cadcc8408aa89609b1b6044820152606490fd5b1561332357565b60405162461bcd60e51b815260206004820152601260248201527114d85b19481d1bdad95b881b9bdd081cd95d60721b6044820152606490fd5b8181029291811591840414171561337057565b634e487b7160e01b600052601160045260246000fd5b8115613390570490565b634e487b7160e01b600052601260045260246000fd5b156133ad57565b60405162461bcd60e51b815260206004820152601d60248201527f416d6f756e74206d7573742062652067726561746572207468616e20300000006044820152606490fd5b156133f957565b60405162461bcd60e51b81526020600482015260136024820152721554d115081b9bdd0818dbdb999a59dd5c9959606a1b6044820152606490fd5b90816020910312612ed957518015158103612ed95790565b1561345357565b60405162461bcd60e51b81526020600482015260146024820152731554d115081d1c985b9cd9995c8819985a5b195960621b6044820152606490fd5b1561349657565b60405162461bcd60e51b81526020600482015260136024820152721554d110c81b9bdd0818dbdb999a59dd5c9959606a1b6044820152606490fd5b156134d857565b60405162461bcd60e51b81526020600482015260146024820152731554d110c81d1c985b9cd9995c8819985a5b195960621b6044820152606490fd5b1561351b57565b60405162461bcd60e51b8152602060048201526015602482015274151bdad95b881d1c985b9cd9995c8819985a5b1959605a1b6044820152606490fd5b60001981146133705760010190565b9190820180921161337057565b1561357b57565b60405162461bcd60e51b815260206004820152601460248201527314dd185ad948191bd95cc81b9bdd08195e1a5cdd60621b6044820152606490fd5b156135be57565b60405162461bcd60e51b815260206004820152600f60248201526e14dd185ad9481b9bdd08199bdd5b99608a1b6044820152606490fd5b156135fc57565b60405162461bcd60e51b815260206004820152601060248201526f5374616b65206e6f742061637469766560801b6044820152606490fd5b9190820391821161337057565b6000818152600f60209081526040808320546001600160a01b031690613668821515613574565b9293849390849081808080805b888b52600e808b52888c20805483101561383657613694838992612fd1565b5054146136aa57506136a590613558565b613675565b96509a50505050505082855280845285828620906136c791612fd1565b50600501549583865281855280838720906136e191612fd1565b50600401549284875282865281818820906136fb91612fd1565b50926001809401549686895281815283838a209061371891612fd1565b50600301549689525286209061372d91612fd1565b506006015460ff16613741613746926135b7565b6135f5565b42811461382f576137579042613634565b92600c548092605a81146000146137b55750506003820291808304600314901517156137a15750613195939261379563bbf81e009361379a9360011c905b61335d565b0490613567565b634e487b7160e01b81526011600452602490fd5b60b481036137eb5750508160011b91808304600214901517156137a15750613195939261379563bbf81e009361379a939061335d565b61016d9194935014613810575b50613195939261379563bbf81e009361379a9361335d565b60038392930291808304600314901517156137a15750906131956137f8565b5050505090565b50505096509650979350613746929150613741906135b7565b1561385657565b60405162461bcd60e51b815260206004820152600f60248201526e2737ba1039ba30b5b29037bbb732b960891b6044820152606490fd5b600033815260206016815260018060a01b0390604082818520541692831515806139f9575b6138be57505050505090565b60646138cc6015548861335d565b8654845163a9059cbb60e01b81526001600160a01b03881660048201529290910460248301819052969190859082906044908290869088165af19081156139ef5782916139d2575b501561398e577f94ccb86446750660ec532b1beb1fb55f5ba2fffca042c4c53f4c080e72595b389392918186613984935260188552838120613957898254613567565b9055541686888451926139698461306f565b6008845267149151915494905360c21b878501528089614083565b519384523393a390565b825162461bcd60e51b815260048101859052601f60248201527f526566657272616c20726577617264207472616e73666572206661696c6564006044820152606490fd5b6139e99150853d8711610ae757610ad9818361308b565b38613914565b84513d84823e3d90fd5b508385526008835260ff8286205416156138b2565b600090815b6001600160a01b0382166000908152600e602052604090208054821015613abf576006613a428360ff93612fd1565b50015416613a5857613a5390613558565b613a13565b50905060015b1580613a9d575b613a6c5750565b6001600160a01b03166000908152601460205260409020805460ff1916905560125480156133705760001901601255565b506001600160a01b03811660009081526014602052604090205460ff16613a65565b505090613a5e565b600080546040516370a0823160e01b8152306004820152919392916020916001600160a01b0316908281602481855afa8015613c025784918791613bcd575b5010613b885760405163a9059cbb60e01b8152336004820152602481018490529082908290604490829089905af1918215613b7d5790613b539291613b5b959692613b60575b5050613514565b600754613567565b600755565b613b769250803d10610ae757610ad9818361308b565b3880613b4c565b6040513d87823e3d90fd5b60405162461bcd60e51b815260048101839052601a60248201527f496e73756666696369656e7420746f6b656e2062616c616e63650000000000006044820152606490fd5b809250848092503d8311613bfb575b613be6818361308b565b81010312613bf75783905138613b06565b8580fd5b503d613bdc565b6040513d88823e3d90fd5b600a54600160401b8110156130595760019081810180600a55811015612fed576007600091600a835202918351837fc65a7bb8d6351c1cf70c95a316cc6a92839c986682d98bc35f958f4883f9d2a8015560c07fc65a7bb8d6351c1cf70c95a316cc6a92839c986682d98bc35f958f4883f9d2ae7fc65a7bb8d6351c1cf70c95a316cc6a92839c986682d98bc35f958f4883f9d2a985019460018060a01b0360209681888a015116906001600160601b0360a01b91828254161790557fc65a7bb8d6351c1cf70c95a316cc6a92839c986682d98bc35f958f4883f9d2aa83018260408b015116828254161790557fc65a7bb8d6351c1cf70c95a316cc6a92839c986682d98bc35f958f4883f9d2ab83019160608a0151169082541617905560808701517fc65a7bb8d6351c1cf70c95a316cc6a92839c986682d98bc35f958f4883f9d2ac82015560a08701517fc65a7bb8d6351c1cf70c95a316cc6a92839c986682d98bc35f958f4883f9d2ad820155019401519182519267ffffffffffffffff8411613e8557613d9e8654613003565b601f8111613e3f575b508491601f8511600114613de0579394508492919083613dd5575b50501b916000199060031b1c1916179055565b015192503880613dc2565b86815285812093958591601f198316915b88838310613e255750505010613e0c575b505050811b019055565b015160001960f88460031b161c19169055388080613e02565b858701518855909601959485019487935090810190613df1565b868352858320601f860160051c810191878710613e7b575b601f0160051c019084905b828110613e70575050613da7565b848155018490613e62565b9091508190613e57565b634e487b7160e01b82526041600452602482fd5b8054600160401b81101561305957613eb8906001928382018155612fd1565b61400e578251815560c060068383019260018060a01b03602094818689015116906001600160601b0360a01b9182825416179055600283018260408a015116828254161790556003830191606089015116908254161790556080860151600482015560a08601516005820155019301519081519167ffffffffffffffff831161305957613f458554613003565b601f8111613fc5575b5081601f8411600114613f7c5750928293918392600094613dd55750501b916000199060031b1c1916179055565b919083601f1981168760005284600020946000905b88838310613fab5750505010613e0c57505050811b019055565b858701518855909601959485019487935090810190613f91565b6000868152838120601f860160051c810192858710614004575b601f0160051c019186905b838110613ff957505050613f4e565b828155018690613fea565b9092508290613fdf565b634e487b7160e01b600052600060045260246000fd5b926130eb949192604051946140388661303d565b42865260018060a01b038091169485602088015260006040880152166060860152608085015260a084015260c0830152600052600960205261407e816040600020613e99565b613c0d565b926130eb9592949193604051956140998761303d565b42875260018060a01b0380809316968760208a0152166040880152166060860152608085015260a084015260c0830152600052600960205261407e816040600020613e99565b67ffffffffffffffff81116130595760051b60200190565b906040516141048161303d565b60c060ff600683958054855260018101546020860152600281015460408601526003810154606086015260048101546080860152600581015460a08601520154161515910152565b604051906141598261303d565b8160c06000918281528260208201528260408201528260608201528260808201528260a0820152015256fea2646970667358221220b9b318796797264450951e619e68c28ac9eb39d4fbd81e4ec826cd208221f70d64736f6c63430008130033","opcodes":"PUSH1 0xA0 DUP1 PUSH1 0x40 MSTORE CALLVALUE PUSH2 0xC0 JUMPI PUSH7 0x38D7EA4C68000 DUP1 PUSH1 0x3 SSTORE PUSH1 0x4 SSTORE PUSH1 0xC DUP1 SSTORE PUSH9 0x56BC75E2D63100000 PUSH1 0xD SSTORE PUSH1 0x1 PUSH1 0x13 SSTORE PUSH1 0x5 PUSH1 0x15 SSTORE CALLER PUSH1 0x80 MSTORE PUSH1 0x14 PUSH1 0x5 SSTORE PUSH1 0x14 PUSH1 0x6 SSTORE PUSH2 0x41BA SWAP1 DUP2 PUSH2 0xC6 DUP3 CODECOPY PUSH1 0x80 MLOAD DUP2 DUP2 DUP2 PUSH2 0x4C7 ADD MSTORE DUP2 DUP2 PUSH2 0x8C4 ADD MSTORE DUP2 DUP2 PUSH2 0x9D6 ADD MSTORE DUP2 DUP2 PUSH2 0xBD9 ADD MSTORE DUP2 DUP2 PUSH2 0xCF2 ADD MSTORE DUP2 DUP2 PUSH2 0x11C3 ADD MSTORE DUP2 DUP2 PUSH2 0x155A ADD MSTORE DUP2 DUP2 PUSH2 0x166A ADD MSTORE DUP2 DUP2 PUSH2 0x1715 ADD MSTORE DUP2 DUP2 PUSH2 0x1B14 ADD MSTORE DUP2 DUP2 PUSH2 0x1F8C ADD MSTORE DUP2 DUP2 PUSH2 0x2858 ADD MSTORE DUP2 DUP2 PUSH2 0x29AF ADD MSTORE DUP2 DUP2 PUSH2 0x2A68 ADD MSTORE DUP2 DUP2 PUSH2 0x2B49 ADD MSTORE PUSH2 0x2CF3 ADD MSTORE RETURN JUMPDEST PUSH1 0x0 DUP1 REVERT INVALID PUSH1 0x80 PUSH1 0x40 DUP2 DUP2 MSTORE PUSH1 0x4 DUP1 CALLDATASIZE LT ISZERO PUSH2 0x15 JUMPI PUSH1 0x0 DUP1 REVERT JUMPDEST PUSH1 0x0 SWAP3 PUSH1 0xE0 DUP5 CALLDATALOAD DUP2 SHR SWAP2 DUP3 PUSH4 0x2D45457 EQ PUSH2 0x2E9E JUMPI POP DUP2 PUSH4 0x6B091F9 EQ PUSH2 0x2CD2 JUMPI DUP2 PUSH4 0x9813482 EQ PUSH2 0x2C02 JUMPI DUP2 PUSH4 0x150D283D EQ PUSH2 0x2AB8 JUMPI DUP2 PUSH4 0x182A676B EQ PUSH2 0x2A06 JUMPI DUP2 PUSH4 0x1E37C606 EQ PUSH2 0x2982 JUMPI DUP2 PUSH4 0x214405A9 EQ PUSH2 0x2962 JUMPI DUP2 PUSH4 0x21874AE2 EQ PUSH2 0x2901 JUMPI DUP2 PUSH4 0x251545DA EQ PUSH2 0x2796 JUMPI DUP2 PUSH4 0x27506F53 EQ PUSH2 0x26B6 JUMPI DUP2 PUSH4 0x2BB38809 EQ PUSH2 0x2071 JUMPI DUP2 PUSH4 0x2FD04C08 EQ PUSH2 0x2387 JUMPI DUP2 PUSH4 0x3B7B6188 EQ PUSH2 0x2091 JUMPI DUP2 PUSH4 0x491CC756 EQ PUSH2 0x2071 JUMPI DUP2 PUSH4 0x4A3B68CC EQ PUSH2 0x2035 JUMPI DUP2 PUSH4 0x4CDB312D EQ PUSH2 0x1F70 JUMPI DUP2 PUSH4 0x4F93208A EQ PUSH2 0x1F31 JUMPI DUP2 PUSH4 0x518AB2A8 EQ PUSH2 0x1F11 JUMPI DUP2 PUSH4 0x53AAA63B EQ PUSH2 0x1ED8 JUMPI DUP2 PUSH4 0x57126D0D EQ PUSH2 0x1CA9 JUMPI DUP2 PUSH4 0x575CEA6B EQ PUSH2 0x1BFE JUMPI DUP2 PUSH4 0x5B365040 EQ PUSH2 0x1A52 JUMPI DUP2 PUSH4 0x608E4DD0 EQ PUSH2 0x1780 JUMPI DUP2 PUSH4 0x63219C72 EQ PUSH2 0x16D3 JUMPI DUP2 PUSH4 0x676C0D77 EQ PUSH2 0x162B JUMPI DUP2 PUSH4 0x6F43F373 EQ PUSH2 0x160B JUMPI DUP2 PUSH4 0x71D20FE7 EQ PUSH2 0x153E JUMPI DUP2 PUSH4 0x75506C96 EQ PUSH2 0x151E JUMPI DUP2 PUSH4 0x7CC1F867 EQ PUSH2 0x143D JUMPI DUP2 PUSH4 0x80933608 EQ PUSH2 0x135A JUMPI DUP2 PUSH4 0x817B1CD2 EQ PUSH2 0x133A JUMPI DUP2 PUSH4 0x83FABE03 EQ PUSH2 0x131A JUMPI DUP2 PUSH4 0x842E2981 EQ PUSH2 0x1212 JUMPI DUP2 PUSH4 0x86989038 EQ PUSH2 0x11F2 JUMPI DUP2 PUSH4 0x8DA5CB5B EQ PUSH2 0x11AD JUMPI DUP2 PUSH4 0x920A253E EQ PUSH2 0x118D JUMPI DUP2 PUSH4 0x963C9DD3 EQ PUSH2 0x10AE JUMPI DUP2 PUSH4 0x9AB4A445 EQ PUSH2 0x1084 JUMPI DUP2 PUSH4 0x9C0FBD05 EQ PUSH2 0x1067 JUMPI DUP2 PUSH4 0x9EA7685A EQ PUSH2 0xEAD JUMPI DUP2 PUSH4 0xA1DC9031 EQ PUSH2 0xD37 JUMPI DUP2 PUSH4 0xA29F481C EQ PUSH2 0xCC9 JUMPI DUP2 PUSH4 0xA7C60160 EQ PUSH2 0xB1E JUMPI DUP2 PUSH4 0xAECCF735 EQ PUSH2 0x91B JUMPI DUP2 PUSH4 0xB006984F EQ PUSH2 0x897 JUMPI DUP2 PUSH4 0xB40CD21D EQ PUSH2 0x855 JUMPI DUP2 PUSH4 0xB5D5B5FA EQ PUSH2 0x7C2 JUMPI POP DUP1 PUSH4 0xB842EC44 EQ PUSH2 0x744 JUMPI DUP1 PUSH4 0xC605AF53 EQ PUSH2 0x725 JUMPI DUP1 PUSH4 0xC93C8F34 EQ PUSH2 0x6E7 JUMPI DUP1 PUSH4 0xD3EA4350 EQ PUSH2 0x6C0 JUMPI DUP1 PUSH4 0xD7FF0714 EQ PUSH2 0x578 JUMPI DUP1 PUSH4 0xD8060CD5 EQ PUSH2 0x4AC JUMPI DUP1 PUSH4 0xE697B5D8 EQ PUSH2 0x453 JUMPI DUP1 PUSH4 0xE985E367 EQ PUSH2 0x42B JUMPI DUP1 PUSH4 0xEE172546 EQ PUSH2 0x40C JUMPI DUP1 PUSH4 0xEF925399 EQ PUSH2 0x32E JUMPI DUP1 PUSH4 0xF1887684 EQ PUSH2 0x30B JUMPI DUP1 PUSH4 0xF34A00FB EQ PUSH2 0x2EE JUMPI PUSH4 0xFD9A11E5 EQ PUSH2 0x2B9 JUMPI PUSH1 0x0 DUP1 REVERT JUMPDEST CALLVALUE PUSH2 0x2EA JUMPI PUSH1 0x20 CALLDATASIZE PUSH1 0x3 NOT ADD SLT PUSH2 0x2EA JUMPI CALLDATALOAD DUP3 MSTORE PUSH1 0xF PUSH1 0x20 SWAP1 DUP2 MSTORE SWAP2 DUP2 SWAP1 KECCAK256 SLOAD SWAP1 MLOAD PUSH1 0x1 PUSH1 0x1 PUSH1 0xA0 SHL SUB SWAP1 SWAP2 AND DUP2 MSTORE RETURN JUMPDEST DUP3 DUP1 REVERT JUMPDEST POP CALLVALUE PUSH2 0x2EA JUMPI DUP3 PUSH1 0x3 NOT CALLDATASIZE ADD SLT PUSH2 0x2EA JUMPI PUSH1 0x20 SWAP3 POP SLOAD SWAP1 MLOAD SWAP1 DUP2 MSTORE RETURN JUMPDEST POP POP CALLVALUE PUSH2 0x32A JUMPI DUP2 PUSH1 0x3 NOT CALLDATASIZE ADD SLT PUSH2 0x32A JUMPI PUSH1 0x20 SWAP1 PUSH1 0xD SLOAD SWAP1 MLOAD SWAP1 DUP2 MSTORE RETURN JUMPDEST POP DUP1 REVERT JUMPDEST POP DUP3 SWAP1 CALLVALUE PUSH2 0x32A JUMPI PUSH1 0x20 SWAP2 DUP3 PUSH1 0x3 NOT CALLDATASIZE ADD SLT PUSH2 0x409 JUMPI PUSH1 0x1 PUSH1 0x1 PUSH1 0xA0 SHL SUB SWAP3 DUP4 PUSH2 0x356 PUSH2 0x2EC3 JUMP JUMPDEST AND DUP3 MSTORE PUSH1 0x9 DUP2 MSTORE DUP5 DUP3 KECCAK256 SWAP2 DUP3 SLOAD SWAP4 PUSH2 0x36D DUP6 PUSH2 0x40DF JUMP JUMPDEST SWAP6 PUSH2 0x37A DUP9 MLOAD SWAP8 DUP9 PUSH2 0x308B JUMP JUMPDEST DUP6 DUP8 MSTORE DUP4 DUP8 ADD SWAP5 DUP4 MSTORE DUP4 DUP4 KECCAK256 SWAP3 SWAP5 JUMPDEST DUP7 DUP7 LT PUSH2 0x3A1 JUMPI DUP9 MLOAD DUP1 PUSH2 0x39D DUP11 DUP3 PUSH2 0x2F1E JUMP JUMPDEST SUB SWAP1 RETURN JUMPDEST PUSH1 0x7 DUP6 PUSH1 0x1 SWAP3 DUP12 MLOAD PUSH2 0x3B2 DUP2 PUSH2 0x303D JUMP JUMPDEST DUP8 SLOAD DUP2 MSTORE DUP6 DUP6 DUP10 ADD SLOAD AND DUP4 DUP3 ADD MSTORE DUP6 PUSH1 0x2 DUP10 ADD SLOAD AND DUP14 DUP3 ADD MSTORE DUP6 PUSH1 0x3 DUP10 ADD SLOAD AND PUSH1 0x60 DUP3 ADD MSTORE DUP7 DUP9 ADD SLOAD PUSH1 0x80 DUP3 ADD MSTORE PUSH1 0x5 DUP9 ADD SLOAD PUSH1 0xA0 DUP3 ADD MSTORE PUSH2 0x3F6 PUSH1 0x6 DUP10 ADD PUSH2 0x30AD JUMP JUMPDEST PUSH1 0xC0 DUP3 ADD MSTORE DUP2 MSTORE ADD SWAP5 ADD SWAP6 ADD SWAP5 SWAP3 PUSH2 0x389 JUMP JUMPDEST DUP1 REVERT JUMPDEST POP POP CALLVALUE PUSH2 0x32A JUMPI DUP2 PUSH1 0x3 NOT CALLDATASIZE ADD SLT PUSH2 0x32A JUMPI PUSH1 0x20 SWAP1 PUSH1 0x11 SLOAD SWAP1 MLOAD SWAP1 DUP2 MSTORE RETURN JUMPDEST POP POP CALLVALUE PUSH2 0x32A JUMPI DUP2 PUSH1 0x3 NOT CALLDATASIZE ADD SLT PUSH2 0x32A JUMPI SWAP1 SLOAD SWAP1 MLOAD PUSH1 0x1 PUSH1 0x1 PUSH1 0xA0 SHL SUB SWAP1 SWAP2 AND DUP2 MSTORE PUSH1 0x20 SWAP1 RETURN JUMPDEST POP POP CALLVALUE PUSH2 0x32A JUMPI DUP1 PUSH1 0x3 NOT CALLDATASIZE ADD SLT PUSH2 0x32A JUMPI PUSH2 0x46D PUSH2 0x2EC3 JUMP JUMPDEST PUSH1 0x1 PUSH1 0x1 PUSH1 0xA0 SHL SUB SWAP1 DUP2 AND DUP4 MSTORE PUSH1 0x17 PUSH1 0x20 MSTORE DUP2 DUP4 KECCAK256 DUP1 SLOAD PUSH1 0x24 CALLDATALOAD SWAP5 SWAP1 DUP6 LT ISZERO PUSH2 0x409 JUMPI POP PUSH1 0x20 SWAP4 PUSH2 0x49D SWAP2 PUSH2 0x3198 JUMP JUMPDEST SWAP3 SWAP1 SLOAD SWAP1 MLOAD SWAP3 PUSH1 0x3 SHL SHR AND DUP2 MSTORE RETURN JUMPDEST POP CALLVALUE PUSH2 0x2EA JUMPI PUSH1 0x20 CALLDATASIZE PUSH1 0x3 NOT ADD SLT PUSH2 0x2EA JUMPI DUP1 CALLDATALOAD SWAP1 PUSH2 0x4F5 CALLER PUSH32 0x0 PUSH1 0x1 PUSH1 0x1 PUSH1 0xA0 SHL SUB AND EQ PUSH2 0x31B0 JUMP JUMPDEST DUP2 ISZERO PUSH2 0x535 JUMPI POP SWAP1 PUSH32 0x171AABB8815C02FD00303450A77058600E3661EB75CE2E77972C0F080BC7099D SWAP2 PUSH1 0xD SLOAD SWAP1 DUP1 PUSH1 0xD SSTORE DUP3 MLOAD SWAP2 DUP3 MSTORE PUSH1 0x20 DUP3 ADD MSTORE LOG1 DUP1 RETURN JUMPDEST PUSH1 0x64 SWAP1 PUSH1 0x20 DUP5 MLOAD SWAP2 PUSH3 0x461BCD PUSH1 0xE5 SHL DUP4 MSTORE DUP3 ADD MSTORE PUSH1 0x20 PUSH1 0x24 DUP3 ADD MSTORE PUSH32 0x4D696E207374616B65206D7573742062652067726561746572207468616E2030 PUSH1 0x44 DUP3 ADD MSTORE REVERT JUMPDEST POP CALLVALUE PUSH2 0x2EA JUMPI PUSH1 0x20 CALLDATASIZE PUSH1 0x3 NOT ADD SLT PUSH2 0x2EA JUMPI CALLDATALOAD PUSH1 0xA SLOAD DUP2 LT ISZERO PUSH2 0x2EA JUMPI PUSH1 0xA PUSH1 0x7 SWAP3 SWAP4 MSTORE MUL SWAP1 PUSH2 0x39D DUP3 PUSH32 0xC65A7BB8D6351C1CF70C95A316CC6A92839C986682D98BC35F958F4883F9D2A8 ADD SLOAD SWAP2 PUSH1 0x1 DUP1 PUSH1 0xA0 SHL SUB SWAP4 DUP5 PUSH32 0xC65A7BB8D6351C1CF70C95A316CC6A92839C986682D98BC35F958F4883F9D2A9 DUP3 ADD SLOAD AND SWAP5 DUP1 PUSH32 0xC65A7BB8D6351C1CF70C95A316CC6A92839C986682D98BC35F958F4883F9D2AA DUP4 ADD SLOAD AND SWAP1 PUSH32 0xC65A7BB8D6351C1CF70C95A316CC6A92839C986682D98BC35F958F4883F9D2AB DUP4 ADD SLOAD AND PUSH32 0xC65A7BB8D6351C1CF70C95A316CC6A92839C986682D98BC35F958F4883F9D2AC DUP4 ADD SLOAD SWAP2 PUSH2 0x6B5 PUSH32 0xC65A7BB8D6351C1CF70C95A316CC6A92839C986682D98BC35F958F4883F9D2AE PUSH32 0xC65A7BB8D6351C1CF70C95A316CC6A92839C986682D98BC35F958F4883F9D2AD DUP7 ADD SLOAD SWAP6 ADD PUSH2 0x30AD JUMP JUMPDEST SWAP5 MLOAD SWAP8 DUP9 SWAP8 DUP9 PUSH2 0x3153 JUMP JUMPDEST POP SWAP2 CALLVALUE PUSH2 0x409 JUMPI PUSH1 0x20 CALLDATASIZE PUSH1 0x3 NOT ADD SLT PUSH2 0x409 JUMPI POP PUSH2 0x6E0 PUSH1 0x20 SWAP3 CALLDATALOAD PUSH2 0x3641 JUMP JUMPDEST SWAP1 MLOAD SWAP1 DUP2 MSTORE RETURN JUMPDEST POP POP CALLVALUE PUSH2 0x32A JUMPI PUSH1 0x20 CALLDATASIZE PUSH1 0x3 NOT ADD SLT PUSH2 0x32A JUMPI PUSH1 0x20 SWAP2 PUSH1 0xFF SWAP1 DUP3 SWAP1 PUSH1 0x1 PUSH1 0x1 PUSH1 0xA0 SHL SUB PUSH2 0x712 PUSH2 0x2EC3 JUMP JUMPDEST AND DUP2 MSTORE PUSH1 0x14 DUP6 MSTORE KECCAK256 SLOAD AND SWAP1 MLOAD SWAP1 ISZERO ISZERO DUP2 MSTORE RETURN JUMPDEST POP POP CALLVALUE PUSH2 0x32A JUMPI DUP2 PUSH1 0x3 NOT CALLDATASIZE ADD SLT PUSH2 0x32A JUMPI PUSH1 0x20 SWAP1 PUSH1 0x3 SLOAD SWAP1 MLOAD SWAP1 DUP2 MSTORE RETURN JUMPDEST POP SWAP2 SWAP1 CALLVALUE PUSH2 0x32A JUMPI DUP1 PUSH1 0x3 NOT CALLDATASIZE ADD SLT PUSH2 0x32A JUMPI PUSH2 0x75F PUSH2 0x2EC3 JUMP JUMPDEST PUSH1 0x1 PUSH1 0x1 PUSH1 0xA0 SHL SUB SWAP1 DUP2 AND DUP4 MSTORE PUSH1 0x9 PUSH1 0x20 MSTORE DUP2 DUP4 KECCAK256 DUP1 SLOAD SWAP2 SWAP4 PUSH1 0x24 CALLDATALOAD SWAP3 DUP4 LT ISZERO PUSH2 0x409 JUMPI POP PUSH2 0x39D SWAP3 SWAP2 PUSH2 0x792 SWAP2 PUSH2 0x2FD1 JUMP JUMPDEST POP DUP1 SLOAD SWAP4 DUP1 PUSH1 0x1 DUP4 ADD SLOAD AND SWAP6 DUP2 PUSH1 0x2 DUP5 ADD SLOAD AND SWAP2 PUSH1 0x3 DUP5 ADD SLOAD AND SWAP1 DUP4 ADD SLOAD SWAP2 PUSH2 0x6B5 PUSH1 0x6 PUSH1 0x5 DUP7 ADD SLOAD SWAP6 ADD PUSH2 0x30AD JUMP JUMPDEST SWAP4 SWAP1 POP CALLVALUE PUSH2 0x409 JUMPI DUP3 PUSH1 0x3 NOT CALLDATASIZE ADD SLT PUSH2 0x409 JUMPI PUSH2 0x7DD PUSH2 0x2EC3 JUMP JUMPDEST PUSH1 0x1 PUSH1 0x1 PUSH1 0xA0 SHL SUB AND DUP2 MSTORE PUSH1 0xE PUSH1 0x20 MSTORE DUP3 DUP2 KECCAK256 DUP1 SLOAD PUSH1 0x24 CALLDATALOAD SWAP3 SWAP1 DUP4 LT ISZERO PUSH2 0x409 JUMPI POP SWAP1 PUSH2 0x809 SWAP2 PUSH2 0x2FD1 JUMP JUMPDEST POP DUP1 SLOAD SWAP3 PUSH1 0x1 DUP3 ADD SLOAD SWAP3 PUSH1 0x2 DUP4 ADD SLOAD PUSH1 0x3 DUP5 ADD SLOAD SWAP2 DUP5 ADD SLOAD SWAP3 PUSH1 0xFF PUSH1 0x6 PUSH1 0x5 DUP8 ADD SLOAD SWAP7 ADD SLOAD AND SWAP6 DUP2 MLOAD SWAP8 DUP9 MSTORE PUSH1 0x20 DUP9 ADD MSTORE DUP7 ADD MSTORE PUSH1 0x60 DUP6 ADD MSTORE PUSH1 0x80 DUP5 ADD MSTORE PUSH1 0xA0 DUP4 ADD MSTORE ISZERO ISZERO PUSH1 0xC0 DUP3 ADD MSTORE RETURN JUMPDEST POP POP POP CALLVALUE PUSH2 0x32A JUMPI DUP2 PUSH1 0x3 NOT CALLDATASIZE ADD SLT PUSH2 0x32A JUMPI PUSH1 0xA0 SWAP1 PUSH1 0xC SLOAD SWAP1 PUSH1 0xD SLOAD SWAP1 PUSH1 0x10 SLOAD PUSH1 0x11 SLOAD SWAP2 PUSH1 0x12 SLOAD SWAP4 DUP2 MLOAD SWAP6 DUP7 MSTORE PUSH1 0x20 DUP7 ADD MSTORE DUP5 ADD MSTORE PUSH1 0x60 DUP4 ADD MSTORE PUSH1 0x80 DUP3 ADD MSTORE RETURN JUMPDEST POP POP POP CALLVALUE PUSH2 0x32A JUMPI CALLDATASIZE PUSH1 0x3 NOT ADD SLT PUSH2 0x409 JUMPI PUSH2 0x8B1 PUSH2 0x2EC3 JUMP JUMPDEST PUSH1 0x24 CALLDATALOAD SWAP1 PUSH1 0x1 PUSH1 0x1 PUSH1 0xA0 SHL SUB SWAP1 PUSH2 0x8EB CALLER PUSH32 0x0 DUP5 AND EQ PUSH2 0x31B0 JUMP JUMPDEST AND PUSH2 0x8F7 DUP2 ISZERO ISZERO PUSH2 0x3225 JUMP JUMPDEST PUSH2 0x902 DUP3 ISZERO ISZERO PUSH2 0x3263 JUMP JUMPDEST PUSH1 0x1 PUSH1 0x1 PUSH1 0x60 SHL SUB PUSH1 0xA0 SHL PUSH1 0x1 SLOAD AND OR PUSH1 0x1 SSTORE PUSH1 0x5 SSTORE DUP1 RETURN JUMPDEST DUP3 DUP6 DUP6 CALLVALUE PUSH2 0x32A JUMPI PUSH1 0x20 DUP1 PUSH1 0x3 NOT CALLDATASIZE ADD SLT PUSH2 0x2EA JUMPI DUP4 CALLDATALOAD CALLER DUP5 MSTORE PUSH1 0x8 DUP3 MSTORE PUSH2 0x949 PUSH1 0xFF DUP5 DUP7 KECCAK256 SLOAD AND ISZERO PUSH2 0x329F JUMP JUMPDEST DUP1 ISZERO SWAP1 PUSH2 0x956 DUP3 ISZERO PUSH2 0x33A6 JUMP JUMPDEST DUP5 SLOAD PUSH1 0x1 PUSH1 0x1 PUSH1 0xA0 SHL SUB SWAP1 PUSH2 0x96E SWAP1 DUP3 AND ISZERO ISZERO PUSH2 0x331C JUMP JUMPDEST DUP1 PUSH1 0x2 SLOAD AND SWAP3 PUSH2 0x97F DUP5 ISZERO ISZERO PUSH2 0x348F JUMP JUMPDEST PUSH3 0xF4240 SWAP1 DUP2 DUP5 MUL SWAP2 DUP5 DUP4 DIV EQ OR ISZERO PUSH2 0xB0B JUMPI PUSH2 0x99E PUSH1 0x6 SLOAD DUP5 PUSH2 0x335D JUMP JUMPDEST SWAP4 PUSH8 0xDE0B6B3A7640000 SWAP5 DUP6 DUP2 MUL SWAP6 DUP2 DUP8 DIV EQ SWAP1 ISZERO OR ISZERO PUSH2 0xAF8 JUMPI DUP7 MLOAD PUSH4 0x23B872DD PUSH1 0xE0 SHL DUP2 MSTORE CALLER DUP2 DUP12 ADD SWAP1 DUP2 MSTORE PUSH1 0x1 PUSH1 0x1 PUSH1 0xA0 SHL SUB PUSH32 0x0 AND PUSH1 0x20 DUP3 ADD MSTORE PUSH1 0x40 DUP2 ADD SWAP4 SWAP1 SWAP4 MSTORE SWAP5 SWAP4 SWAP3 SWAP2 DUP7 SWAP2 DUP7 SWAP2 DUP3 SWAP1 DUP12 SWAP1 DUP3 SWAP1 PUSH1 0x60 ADD SUB SWAP3 GAS CALL SWAP4 DUP5 ISZERO PUSH2 0xAEE JUMPI PUSH2 0xA61 PUSH2 0xABB SWAP5 PUSH2 0xA5C PUSH32 0x377AADEDB6B2A771959584D10A6A36ECCB5F56B4EB3A48525F76108D2660D8D4 SWAP8 PUSH2 0xA97 SWAP5 DUP13 SWAP2 PUSH2 0xAC1 JUMPI JUMPDEST POP PUSH2 0x34D1 JUMP JUMPDEST PUSH2 0x388D JUMP JUMPDEST SWAP6 PUSH2 0xA6B DUP8 PUSH2 0x3AC7 JUMP JUMPDEST DUP7 DUP5 DUP5 PUSH1 0x2 SLOAD AND DUP6 DUP13 SLOAD AND SWAP1 PUSH3 0x425559 PUSH1 0xE8 SHL DUP13 MLOAD SWAP6 PUSH2 0xA8A DUP8 PUSH2 0x306F JUMP JUMPDEST PUSH1 0x3 DUP8 MSTORE DUP7 ADD MSTORE CALLER PUSH2 0x4083 JUMP JUMPDEST PUSH1 0x2 SLOAD AND SWAP5 MLOAD SWAP2 DUP3 SWAP2 CALLER SWAP6 TIMESTAMP SWAP2 DUP5 PUSH1 0x40 SWAP2 SWAP5 SWAP4 SWAP3 PUSH1 0x60 DUP3 ADD SWAP6 DUP3 MSTORE PUSH1 0x20 DUP3 ADD MSTORE ADD MSTORE JUMP JUMPDEST SUB SWAP1 LOG3 DUP1 RETURN JUMPDEST PUSH2 0xAE1 SWAP2 POP DUP11 RETURNDATASIZE DUP13 GT PUSH2 0xAE7 JUMPI JUMPDEST PUSH2 0xAD9 DUP2 DUP4 PUSH2 0x308B JUMP JUMPDEST DUP2 ADD SWAP1 PUSH2 0x3434 JUMP JUMPDEST DUP13 PUSH2 0xA56 JUMP JUMPDEST POP RETURNDATASIZE PUSH2 0xACF JUMP JUMPDEST DUP7 MLOAD RETURNDATASIZE DUP10 DUP3 RETURNDATACOPY RETURNDATASIZE SWAP1 REVERT JUMPDEST PUSH4 0x4E487B71 PUSH1 0xE0 SHL DUP9 MSTORE PUSH1 0x11 DUP10 MSTORE PUSH1 0x24 DUP9 REVERT JUMPDEST PUSH4 0x4E487B71 PUSH1 0xE0 SHL DUP8 MSTORE PUSH1 0x11 DUP9 MSTORE PUSH1 0x24 DUP8 REVERT JUMPDEST DUP3 DUP6 DUP6 CALLVALUE PUSH2 0x32A JUMPI PUSH1 0x20 DUP1 PUSH1 0x3 NOT CALLDATASIZE ADD SLT PUSH2 0x2EA JUMPI DUP4 CALLDATALOAD CALLER DUP5 MSTORE PUSH1 0x8 DUP3 MSTORE PUSH2 0xB4C PUSH1 0xFF DUP5 DUP7 KECCAK256 SLOAD AND ISZERO PUSH2 0x329F JUMP JUMPDEST DUP1 ISZERO SWAP1 PUSH2 0xB59 DUP3 ISZERO PUSH2 0x33A6 JUMP JUMPDEST DUP5 SLOAD PUSH1 0x1 PUSH1 0x1 PUSH1 0xA0 SHL SUB SWAP1 PUSH2 0xB71 SWAP1 DUP3 AND ISZERO ISZERO PUSH2 0x331C JUMP JUMPDEST DUP1 PUSH1 0x1 SLOAD AND SWAP3 PUSH2 0xB82 DUP5 ISZERO ISZERO PUSH2 0x33F2 JUMP JUMPDEST PUSH3 0xF4240 SWAP1 DUP2 DUP5 MUL SWAP2 DUP5 DUP4 DIV EQ OR ISZERO PUSH2 0xB0B JUMPI PUSH2 0xBA1 PUSH1 0x5 SLOAD DUP5 PUSH2 0x335D JUMP JUMPDEST SWAP4 PUSH8 0xDE0B6B3A7640000 SWAP5 DUP6 DUP2 MUL SWAP6 DUP2 DUP8 DIV EQ SWAP1 ISZERO OR ISZERO PUSH2 0xAF8 JUMPI DUP7 MLOAD PUSH4 0x23B872DD PUSH1 0xE0 SHL DUP2 MSTORE CALLER DUP2 DUP12 ADD SWAP1 DUP2 MSTORE PUSH1 0x1 PUSH1 0x1 PUSH1 0xA0 SHL SUB PUSH32 0x0 AND PUSH1 0x20 DUP3 ADD MSTORE PUSH1 0x40 DUP2 ADD SWAP4 SWAP1 SWAP4 MSTORE SWAP5 SWAP4 SWAP3 SWAP2 DUP7 SWAP2 DUP7 SWAP2 DUP3 SWAP1 DUP12 SWAP1 DUP3 SWAP1 PUSH1 0x60 ADD SUB SWAP3 GAS CALL SWAP4 DUP5 ISZERO PUSH2 0xAEE JUMPI PUSH2 0xC5F PUSH2 0xABB SWAP5 PUSH2 0xA5C PUSH32 0x377AADEDB6B2A771959584D10A6A36ECCB5F56B4EB3A48525F76108D2660D8D4 SWAP8 PUSH2 0xC88 SWAP5 DUP13 SWAP2 PUSH2 0xCAC JUMPI JUMPDEST POP PUSH2 0x344C JUMP JUMPDEST SWAP6 PUSH2 0xC69 DUP8 PUSH2 0x3AC7 JUMP JUMPDEST DUP7 DUP5 DUP5 PUSH1 0x1 SLOAD AND DUP6 DUP13 SLOAD AND SWAP1 PUSH3 0x425559 PUSH1 0xE8 SHL DUP13 MLOAD SWAP6 PUSH2 0xA8A DUP8 PUSH2 0x306F JUMP JUMPDEST PUSH1 0x1 SLOAD AND SWAP5 MLOAD SWAP2 DUP3 SWAP2 CALLER SWAP6 TIMESTAMP SWAP2 DUP5 PUSH1 0x40 SWAP2 SWAP5 SWAP4 SWAP3 PUSH1 0x60 DUP3 ADD SWAP6 DUP3 MSTORE PUSH1 0x20 DUP3 ADD MSTORE ADD MSTORE JUMP JUMPDEST PUSH2 0xCC3 SWAP2 POP DUP11 RETURNDATASIZE DUP13 GT PUSH2 0xAE7 JUMPI PUSH2 0xAD9 DUP2 DUP4 PUSH2 0x308B JUMP JUMPDEST DUP13 PUSH2 0xC59 JUMP JUMPDEST DUP5 CALLVALUE PUSH2 0x409 JUMPI PUSH1 0x20 CALLDATASIZE PUSH1 0x3 NOT ADD SLT PUSH2 0x409 JUMPI PUSH2 0xCE3 PUSH2 0x2EC3 JUMP JUMPDEST PUSH1 0x1 PUSH1 0x1 PUSH1 0xA0 SHL SUB SWAP1 PUSH2 0xD19 CALLER PUSH32 0x0 DUP5 AND EQ PUSH2 0x31B0 JUMP JUMPDEST AND PUSH2 0xD25 DUP2 ISZERO ISZERO PUSH2 0x3225 JUMP JUMPDEST DUP2 SLOAD PUSH1 0x1 PUSH1 0x1 PUSH1 0xA0 SHL SUB NOT AND OR DUP2 SSTORE DUP1 RETURN JUMPDEST POP POP SWAP1 CALLVALUE PUSH2 0x2EA JUMPI DUP3 PUSH1 0x3 NOT CALLDATASIZE ADD SLT PUSH2 0x2EA JUMPI DUP3 SLOAD DUP2 MLOAD PUSH4 0x70A08231 PUSH1 0xE0 SHL DUP1 DUP3 MSTORE ADDRESS DUP3 DUP7 ADD MSTORE SWAP1 SWAP5 PUSH1 0x1 PUSH1 0x1 PUSH1 0xA0 SHL SUB SWAP5 PUSH1 0x20 SWAP4 DUP5 SWAP1 DUP9 SWAP1 PUSH1 0x24 SWAP1 DUP3 SWAP1 DUP11 AND GAS STATICCALL SWAP6 DUP7 ISZERO PUSH2 0xEA3 JUMPI DUP3 SWAP7 PUSH2 0xE73 JUMPI JUMPDEST PUSH1 0x24 SWAP8 POP DUP5 DUP2 PUSH1 0x1 SLOAD AND DUP8 MLOAD SWAP10 DUP11 DUP1 SWAP3 DUP9 DUP3 MSTORE ADDRESS DUP8 DUP4 ADD MSTORE GAS STATICCALL SWAP8 DUP9 ISZERO PUSH2 0xE69 JUMPI DUP4 SWAP9 PUSH2 0xE39 JUMPI JUMPDEST POP SWAP1 PUSH1 0x24 DUP6 SWAP3 PUSH1 0x2 SLOAD AND SWAP5 DUP8 MLOAD SWAP6 DUP7 SWAP4 DUP5 SWAP3 DUP4 MSTORE ADDRESS SWAP1 DUP4 ADD MSTORE GAS STATICCALL SWAP3 DUP4 ISZERO PUSH2 0xE2D JUMPI DUP2 SWAP4 PUSH2 0xDFA JUMPI JUMPDEST POP POP POP PUSH2 0x39D SWAP2 MLOAD SWAP4 DUP5 SWAP4 DUP5 PUSH1 0x40 SWAP2 SWAP5 SWAP4 SWAP3 PUSH1 0x60 DUP3 ADD SWAP6 DUP3 MSTORE PUSH1 0x20 DUP3 ADD MSTORE ADD MSTORE JUMP JUMPDEST SWAP1 SWAP2 DUP1 SWAP4 POP DUP2 RETURNDATASIZE DUP4 GT PUSH2 0xE26 JUMPI JUMPDEST PUSH2 0xE12 DUP2 DUP4 PUSH2 0x308B JUMP JUMPDEST DUP2 ADD SUB SLT PUSH2 0x409 JUMPI POP MLOAD PUSH2 0x39D CODESIZE DUP1 PUSH2 0xDD8 JUMP JUMPDEST POP RETURNDATASIZE PUSH2 0xE08 JUMP JUMPDEST POP DUP4 MLOAD SWAP1 RETURNDATASIZE SWAP1 DUP3 RETURNDATACOPY RETURNDATASIZE SWAP1 REVERT JUMPDEST SWAP1 SWAP8 POP DUP5 DUP2 DUP2 RETURNDATASIZE DUP4 GT PUSH2 0xE62 JUMPI JUMPDEST PUSH2 0xE51 DUP2 DUP4 PUSH2 0x308B JUMP JUMPDEST DUP2 ADD SUB SLT PUSH2 0x2EA JUMPI MLOAD SWAP7 PUSH1 0x24 PUSH2 0xDAF JUMP JUMPDEST POP RETURNDATASIZE PUSH2 0xE47 JUMP JUMPDEST DUP7 MLOAD RETURNDATASIZE DUP6 DUP3 RETURNDATACOPY RETURNDATASIZE SWAP1 REVERT JUMPDEST SWAP6 POP DUP4 DUP8 DUP2 RETURNDATASIZE DUP4 GT PUSH2 0xE9C JUMPI JUMPDEST PUSH2 0xE8A DUP2 DUP4 PUSH2 0x308B JUMP JUMPDEST DUP2 ADD SUB SLT PUSH2 0x32A JUMPI PUSH1 0x24 SWAP7 MLOAD SWAP6 PUSH2 0xD87 JUMP JUMPDEST POP RETURNDATASIZE PUSH2 0xE80 JUMP JUMPDEST DUP6 MLOAD RETURNDATASIZE DUP5 DUP3 RETURNDATACOPY RETURNDATASIZE SWAP1 REVERT JUMPDEST DUP3 DUP6 DUP6 CALLVALUE PUSH2 0x32A JUMPI PUSH1 0x20 SWAP1 DUP2 PUSH1 0x3 NOT CALLDATASIZE ADD SLT PUSH2 0x2EA JUMPI PUSH2 0xECB PUSH2 0x2EC3 JUMP JUMPDEST SWAP1 CALLER DUP5 MSTORE PUSH1 0x8 DUP4 MSTORE PUSH2 0xEE3 PUSH1 0xFF DUP3 DUP7 KECCAK256 SLOAD AND ISZERO PUSH2 0x329F JUMP JUMPDEST PUSH1 0x1 PUSH1 0x1 PUSH1 0xA0 SHL SUB SWAP2 DUP3 AND SWAP3 DUP4 ISZERO PUSH2 0x1025 JUMPI CALLER DUP5 EQ PUSH2 0xFEB JUMPI CALLER DUP6 MSTORE PUSH1 0x16 DUP2 MSTORE DUP3 DUP3 DUP7 KECCAK256 SLOAD AND PUSH2 0xF9E JUMPI CALLER DUP6 MSTORE PUSH1 0x16 DUP2 MSTORE DUP2 DUP6 KECCAK256 DUP1 SLOAD PUSH1 0x1 PUSH1 0x1 PUSH1 0xA0 SHL SUB NOT AND DUP6 OR SWAP1 SSTORE DUP4 DUP6 MSTORE PUSH1 0x17 SWAP1 MSTORE DUP4 KECCAK256 DUP1 SLOAD SWAP1 PUSH1 0x1 PUSH1 0x40 SHL DUP3 LT ISZERO PUSH2 0xF8B JUMPI SWAP1 PUSH2 0xF4F SWAP2 PUSH1 0x1 DUP3 ADD DUP2 SSTORE PUSH2 0x3198 JUMP JUMPDEST DUP2 SWAP3 SWAP2 SLOAD SWAP1 PUSH1 0x3 SHL SWAP2 CALLER DUP4 SHL SWAP3 SHL NOT AND OR SWAP1 SSTORE CALLER SWAP1 PUSH32 0x5F1CA2FCC108B751843A763E60D2201F593516109D7DBB1B700468F2D4190BB7 DUP4 DUP1 LOG3 DUP1 RETURN JUMPDEST PUSH4 0x4E487B71 PUSH1 0xE0 SHL DUP6 MSTORE PUSH1 0x41 DUP7 MSTORE PUSH1 0x24 DUP6 REVERT JUMPDEST DUP6 SWAP1 PUSH1 0x84 SWAP3 MLOAD SWAP2 PUSH3 0x461BCD PUSH1 0xE5 SHL DUP4 MSTORE DUP3 ADD MSTORE PUSH1 0x22 PUSH1 0x24 DUP3 ADD MSTORE PUSH32 0x416C726561647920726567697374657265642077697468206120726566657272 PUSH1 0x44 DUP3 ADD MSTORE PUSH2 0x32B9 PUSH1 0xF1 SHL PUSH1 0x64 DUP3 ADD MSTORE REVERT JUMPDEST DUP6 SWAP1 PUSH1 0x64 SWAP3 MLOAD SWAP2 PUSH3 0x461BCD PUSH1 0xE5 SHL DUP4 MSTORE DUP3 ADD MSTORE PUSH1 0x15 PUSH1 0x24 DUP3 ADD MSTORE PUSH21 0x21B0B73737BA103932B332B9103CB7BAB939B2B633 PUSH1 0x59 SHL PUSH1 0x44 DUP3 ADD MSTORE REVERT JUMPDEST DUP6 SWAP1 PUSH1 0x64 SWAP3 MLOAD SWAP2 PUSH3 0x461BCD PUSH1 0xE5 SHL DUP4 MSTORE DUP3 ADD MSTORE PUSH1 0x18 PUSH1 0x24 DUP3 ADD MSTORE PUSH32 0x496E76616C696420726566657272657220616464726573730000000000000000 PUSH1 0x44 DUP3 ADD MSTORE REVERT JUMPDEST POP POP POP CALLVALUE PUSH2 0x32A JUMPI DUP2 PUSH1 0x3 NOT CALLDATASIZE ADD SLT PUSH2 0x32A JUMPI PUSH1 0x20 SWAP1 MLOAD PUSH1 0x5 DUP2 MSTORE RETURN JUMPDEST POP POP POP CALLVALUE PUSH2 0x32A JUMPI DUP2 PUSH1 0x3 NOT CALLDATASIZE ADD SLT PUSH2 0x32A JUMPI PUSH1 0x1 SLOAD SWAP1 MLOAD PUSH1 0x1 PUSH1 0x1 PUSH1 0xA0 SHL SUB SWAP1 SWAP2 AND DUP2 MSTORE PUSH1 0x20 SWAP1 RETURN JUMPDEST POP POP CALLVALUE PUSH2 0x2EA JUMPI PUSH1 0x20 SWAP1 DUP2 PUSH1 0x3 NOT CALLDATASIZE ADD SLT PUSH2 0x1189 JUMPI CALLDATALOAD DUP1 DUP5 MSTORE PUSH1 0xF DUP3 MSTORE DUP3 DUP5 KECCAK256 SLOAD PUSH1 0x1 PUSH1 0x1 PUSH1 0xA0 SHL SUB AND SWAP4 SWAP1 SWAP3 SWAP1 PUSH2 0x10E7 DUP6 ISZERO ISZERO PUSH2 0x3574 JUMP JUMPDEST PUSH2 0x10EF PUSH2 0x414C JUMP JUMPDEST DUP2 SWAP6 DUP3 JUMPDEST DUP2 DUP5 MSTORE PUSH1 0xE DUP1 DUP8 MSTORE DUP6 DUP6 KECCAK256 DUP1 SLOAD DUP4 LT ISZERO PUSH2 0x1174 JUMPI PUSH2 0x1112 DUP4 DUP11 SWAP3 PUSH2 0x2FD1 JUMP JUMPDEST POP SLOAD EQ PUSH2 0x1128 JUMPI POP PUSH2 0x1123 SWAP1 PUSH2 0x3558 JUMP JUMPDEST PUSH2 0x10F3 JUMP JUMPDEST PUSH1 0x60 SWAP9 POP PUSH2 0x114B SWAP4 POP DUP5 DUP7 SWAP2 PUSH2 0x1145 SWAP5 PUSH2 0x115B SWAP8 MSTORE DUP9 MSTORE KECCAK256 PUSH2 0x2FD1 JUMP JUMPDEST POP PUSH2 0x40F7 JUMP JUMPDEST SWAP4 PUSH2 0x1156 PUSH1 0x1 PUSH2 0x35B7 JUMP JUMPDEST PUSH2 0x3641 JUMP JUMPDEST PUSH1 0xC0 DUP6 DUP6 ADD MLOAD SWAP5 ADD MLOAD ISZERO ISZERO SWAP3 DUP3 MLOAD SWAP5 DUP6 MSTORE DUP5 ADD MSTORE DUP3 ADD MSTORE RETURN JUMPDEST POP POP POP POP SWAP4 PUSH2 0x115B SWAP2 POP PUSH2 0x1156 PUSH1 0x60 SWAP7 PUSH2 0x35B7 JUMP JUMPDEST DUP4 DUP1 REVERT JUMPDEST POP POP POP CALLVALUE PUSH2 0x32A JUMPI DUP2 PUSH1 0x3 NOT CALLDATASIZE ADD SLT PUSH2 0x32A JUMPI PUSH1 0x20 SWAP1 PUSH1 0x15 SLOAD SWAP1 MLOAD SWAP1 DUP2 MSTORE RETURN JUMPDEST POP POP POP CALLVALUE PUSH2 0x32A JUMPI DUP2 PUSH1 0x3 NOT CALLDATASIZE ADD SLT PUSH2 0x32A JUMPI MLOAD PUSH32 0x0 PUSH1 0x1 PUSH1 0x1 PUSH1 0xA0 SHL SUB AND DUP2 MSTORE PUSH1 0x20 SWAP1 RETURN JUMPDEST POP POP POP CALLVALUE PUSH2 0x32A JUMPI DUP2 PUSH1 0x3 NOT CALLDATASIZE ADD SLT PUSH2 0x32A JUMPI PUSH1 0x20 SWAP1 PUSH1 0x12 SLOAD SWAP1 MLOAD SWAP1 DUP2 MSTORE RETURN JUMPDEST SWAP2 POP POP CALLVALUE PUSH2 0x2EA JUMPI PUSH1 0x20 DUP1 PUSH1 0x3 NOT CALLDATASIZE ADD SLT PUSH2 0x1189 JUMPI SWAP1 SWAP2 PUSH1 0x1 PUSH1 0x1 PUSH1 0xA0 SHL SUB PUSH2 0x1239 PUSH2 0x2EC3 JUMP JUMPDEST AND DUP5 MSTORE PUSH1 0xE DUP3 MSTORE DUP1 DUP5 KECCAK256 SWAP2 DUP3 SLOAD SWAP2 PUSH2 0x1250 DUP4 PUSH2 0x40DF JUMP JUMPDEST SWAP3 PUSH2 0x125D DUP3 MLOAD SWAP5 DUP6 PUSH2 0x308B JUMP JUMPDEST DUP1 DUP5 MSTORE DUP3 DUP5 ADD DUP1 SWAP6 DUP9 MSTORE DUP4 DUP9 KECCAK256 DUP9 SWAP2 JUMPDEST DUP4 DUP4 LT PUSH2 0x12ED JUMPI POP POP POP POP DUP1 MLOAD SWAP5 DUP3 DUP7 ADD SWAP4 DUP4 DUP8 MSTORE MLOAD DUP1 SWAP5 MSTORE DUP2 DUP7 ADD SWAP5 SWAP7 SWAP2 JUMPDEST DUP5 DUP4 LT PUSH2 0x129A JUMPI DUP7 DUP7 SUB DUP8 RETURN JUMPDEST DUP8 MLOAD DUP1 MLOAD DUP8 MSTORE DUP1 DUP6 ADD MLOAD DUP8 DUP7 ADD MSTORE DUP1 DUP3 ADD MLOAD DUP8 DUP4 ADD MSTORE PUSH1 0x60 DUP1 DUP3 ADD MLOAD SWAP1 DUP9 ADD MSTORE PUSH1 0x80 DUP1 DUP3 ADD MLOAD SWAP1 DUP9 ADD MSTORE PUSH1 0xA0 DUP1 DUP3 ADD MLOAD SWAP1 DUP9 ADD MSTORE PUSH1 0xC0 SWAP1 DUP2 ADD MLOAD ISZERO ISZERO SWAP1 DUP8 ADD MSTORE SWAP7 DUP4 ADD SWAP7 SWAP5 DUP2 ADD SWAP5 PUSH1 0x1 SWAP1 SWAP3 ADD SWAP2 PUSH2 0x128D JUMP JUMPDEST PUSH1 0x7 DUP7 PUSH1 0x1 SWAP3 PUSH2 0x1304 DUP6 SWAP14 SWAP10 SWAP11 SWAP12 SWAP14 SWAP13 SWAP9 SWAP13 PUSH2 0x40F7 JUMP JUMPDEST DUP2 MSTORE ADD SWAP3 ADD SWAP3 ADD SWAP2 SWAP1 SWAP9 SWAP7 SWAP6 SWAP5 SWAP9 SWAP8 SWAP4 SWAP8 PUSH2 0x126D JUMP JUMPDEST POP POP POP CALLVALUE PUSH2 0x32A JUMPI DUP2 PUSH1 0x3 NOT CALLDATASIZE ADD SLT PUSH2 0x32A JUMPI PUSH1 0x20 SWAP1 PUSH1 0x5 SLOAD SWAP1 MLOAD SWAP1 DUP2 MSTORE RETURN JUMPDEST POP POP POP CALLVALUE PUSH2 0x32A JUMPI DUP2 PUSH1 0x3 NOT CALLDATASIZE ADD SLT PUSH2 0x32A JUMPI PUSH1 0x20 SWAP1 PUSH1 0x10 SLOAD SWAP1 MLOAD SWAP1 DUP2 MSTORE RETURN JUMPDEST DUP4 DUP6 CALLVALUE PUSH2 0x409 JUMPI PUSH1 0x20 SWAP1 DUP2 PUSH1 0x3 NOT CALLDATASIZE ADD SLT PUSH2 0x409 JUMPI PUSH2 0x1377 PUSH2 0x2EC3 JUMP JUMPDEST SWAP1 SWAP2 DUP3 SWAP2 DUP3 SWAP2 SWAP1 DUP3 SWAP1 PUSH1 0x1 PUSH1 0x1 PUSH1 0xA0 SHL SUB AND DUP2 JUMPDEST DUP2 DUP7 MSTORE PUSH1 0xE DUP1 DUP6 MSTORE DUP9 DUP8 KECCAK256 DUP1 SLOAD DUP4 LT ISZERO PUSH2 0x1425 JUMPI PUSH1 0xFF PUSH1 0x6 PUSH2 0x13AE DUP6 DUP14 SWAP5 PUSH2 0x2FD1 JUMP JUMPDEST POP ADD SLOAD AND PUSH2 0x13C7 JUMPI JUMPDEST POP POP PUSH2 0x13C2 SWAP1 PUSH2 0x3558 JUMP JUMPDEST PUSH2 0x138B JUMP JUMPDEST DUP3 SWAP7 SWAP5 PUSH2 0x13F5 DUP4 SWAP11 PUSH1 0x1 PUSH2 0x13EC PUSH2 0x13C2 SWAP8 PUSH2 0x1417 SWAP7 DUP15 PUSH2 0x141D SWAP10 DUP15 DUP14 DUP4 MSTORE MSTORE KECCAK256 PUSH2 0x2FD1 JUMP JUMPDEST POP ADD SLOAD SWAP1 PUSH2 0x3567 JUMP JUMPDEST SWAP10 DUP6 DUP11 MSTORE DUP8 MSTORE PUSH2 0x1411 PUSH2 0x140A DUP10 DUP14 DUP13 KECCAK256 PUSH2 0x2FD1 JUMP JUMPDEST POP SLOAD PUSH2 0x3641 JUMP JUMPDEST SWAP1 PUSH2 0x3567 JUMP JUMPDEST SWAP4 PUSH2 0x3558 JUMP JUMPDEST SWAP5 SWAP1 DUP9 PUSH2 0x13B7 JUMP JUMPDEST DUP10 MLOAD DUP10 DUP2 MSTORE PUSH1 0x20 DUP2 ADD DUP7 SWAP1 MSTORE PUSH1 0x40 DUP2 ADD DUP9 SWAP1 MSTORE PUSH1 0x60 SWAP1 RETURN JUMPDEST SWAP2 SWAP3 SWAP1 POP CALLVALUE PUSH2 0x1189 JUMPI DUP4 PUSH1 0x3 NOT CALLDATASIZE ADD SLT PUSH2 0x1189 JUMPI DUP4 SLOAD DUP2 MLOAD PUSH4 0x70A08231 PUSH1 0xE0 SHL DUP2 MSTORE ADDRESS DUP2 DUP7 ADD MSTORE PUSH1 0x1 PUSH1 0x1 PUSH1 0xA0 SHL SUB SWAP2 DUP3 AND SWAP5 SWAP1 SWAP4 SWAP2 PUSH1 0x20 DUP6 PUSH1 0x24 DUP2 DUP10 GAS STATICCALL SWAP5 DUP6 ISZERO PUSH2 0x1514 JUMPI DUP8 SWAP6 PUSH2 0x14D8 JUMPI JUMPDEST POP PUSH2 0x120 SWAP7 POP PUSH1 0x3 SLOAD SWAP2 SLOAD PUSH1 0x7 SLOAD SWAP1 DUP3 PUSH1 0x1 SLOAD AND SWAP3 PUSH1 0x2 SLOAD AND SWAP4 PUSH1 0x5 SLOAD SWAP7 PUSH1 0x6 SLOAD SWAP9 DUP2 MLOAD SWAP11 DUP12 MSTORE PUSH1 0x20 DUP12 ADD MSTORE DUP10 ADD MSTORE PUSH1 0x60 DUP9 ADD MSTORE PUSH1 0x80 DUP8 ADD MSTORE PUSH1 0xA0 DUP7 ADD MSTORE PUSH1 0xC0 DUP6 ADD MSTORE DUP4 ADD MSTORE PUSH2 0x100 DUP3 ADD MSTORE RETURN JUMPDEST SWAP1 SWAP5 POP PUSH1 0x20 DUP2 RETURNDATASIZE DUP3 GT PUSH2 0x150C JUMPI JUMPDEST DUP2 PUSH2 0x14F3 PUSH1 0x20 SWAP4 DUP4 PUSH2 0x308B JUMP JUMPDEST DUP2 ADD SUB SLT PUSH2 0x1508 JUMPI PUSH2 0x120 SWAP7 POP MLOAD SWAP4 CODESIZE PUSH2 0x148A JUMP JUMPDEST DUP7 DUP1 REVERT JUMPDEST RETURNDATASIZE SWAP2 POP PUSH2 0x14E6 JUMP JUMPDEST DUP5 MLOAD RETURNDATASIZE DUP10 DUP3 RETURNDATACOPY RETURNDATASIZE SWAP1 REVERT JUMPDEST POP POP POP CALLVALUE PUSH2 0x32A JUMPI DUP2 PUSH1 0x3 NOT CALLDATASIZE ADD SLT PUSH2 0x32A JUMPI PUSH1 0x20 SWAP1 PUSH1 0x13 SLOAD SWAP1 MLOAD SWAP1 DUP2 MSTORE RETURN JUMPDEST POP POP CALLVALUE PUSH2 0x2EA JUMPI PUSH1 0x20 CALLDATASIZE PUSH1 0x3 NOT ADD SLT PUSH2 0x2EA JUMPI DUP1 CALLDATALOAD SWAP1 PUSH2 0x1588 CALLER PUSH32 0x0 PUSH1 0x1 PUSH1 0x1 PUSH1 0xA0 SHL SUB AND EQ PUSH2 0x31B0 JUMP JUMPDEST DUP2 ISZERO PUSH2 0x15C8 JUMPI POP SWAP1 PUSH32 0x787A1FCA55641CE34A438271930BBB9401DF20DB2B4F510D4F252227D85DF43D SWAP2 PUSH1 0xC SLOAD SWAP1 DUP1 PUSH1 0xC SSTORE DUP3 MLOAD SWAP2 DUP3 MSTORE PUSH1 0x20 DUP3 ADD MSTORE LOG1 DUP1 RETURN JUMPDEST PUSH1 0x64 SWAP1 PUSH1 0x20 DUP5 MLOAD SWAP2 PUSH3 0x461BCD PUSH1 0xE5 SHL DUP4 MSTORE DUP3 ADD MSTORE PUSH1 0x1A PUSH1 0x24 DUP3 ADD MSTORE PUSH32 0x415059206D7573742062652067726561746572207468616E2030000000000000 PUSH1 0x44 DUP3 ADD MSTORE REVERT JUMPDEST POP POP POP CALLVALUE PUSH2 0x32A JUMPI DUP2 PUSH1 0x3 NOT CALLDATASIZE ADD SLT PUSH2 0x32A JUMPI PUSH1 0x20 SWAP1 PUSH1 0x6 SLOAD SWAP1 MLOAD SWAP1 DUP2 MSTORE RETURN JUMPDEST POP POP CALLVALUE PUSH2 0x2EA JUMPI PUSH1 0x20 CALLDATASIZE PUSH1 0x3 NOT ADD SLT PUSH2 0x2EA JUMPI PUSH32 0x6E838F2A03741F5F2AFF5480963B672FB0DD8430A4DC75DB9B67CE009733C9FE SWAP2 PUSH1 0xA0 SWAP2 CALLDATALOAD PUSH2 0x1698 CALLER PUSH32 0x0 PUSH1 0x1 PUSH1 0x1 PUSH1 0xA0 SHL SUB AND EQ PUSH2 0x31B0 JUMP JUMPDEST PUSH2 0x16A3 DUP2 ISZERO ISZERO PUSH2 0x31E9 JUMP JUMPDEST PUSH1 0x3 SLOAD SWAP2 DUP2 PUSH1 0x3 SSTORE DUP1 MLOAD SWAP3 PUSH1 0x60 DUP5 MSTORE PUSH1 0x5 PUSH1 0x60 DUP6 ADD MSTORE PUSH5 0x2A27A5A2A7 PUSH1 0xD9 SHL PUSH1 0x80 DUP6 ADD MSTORE PUSH1 0x20 DUP5 ADD MSTORE DUP3 ADD MSTORE LOG1 DUP1 RETURN JUMPDEST POP POP SWAP1 CALLVALUE PUSH2 0x2EA JUMPI PUSH1 0x20 CALLDATASIZE PUSH1 0x3 NOT ADD SLT PUSH2 0x2EA JUMPI PUSH32 0x6E838F2A03741F5F2AFF5480963B672FB0DD8430A4DC75DB9B67CE009733C9FE SWAP2 PUSH1 0xA0 SWAP2 DUP2 CALLDATALOAD SWAP1 PUSH2 0x1743 CALLER PUSH32 0x0 PUSH1 0x1 PUSH1 0x1 PUSH1 0xA0 SHL SUB AND EQ PUSH2 0x31B0 JUMP JUMPDEST PUSH2 0x174E DUP3 ISZERO ISZERO PUSH2 0x31E9 JUMP JUMPDEST DUP2 DUP4 SLOAD SWAP4 SSTORE DUP1 MLOAD SWAP3 PUSH1 0x60 DUP5 MSTORE PUSH1 0xA PUSH1 0x60 DUP6 ADD MSTORE PUSH10 0x29AA20A12622A1A7A4A7 PUSH1 0xB1 SHL PUSH1 0x80 DUP6 ADD MSTORE PUSH1 0x20 DUP5 ADD MSTORE DUP3 ADD MSTORE LOG1 DUP1 RETURN JUMPDEST POP POP SWAP1 CALLVALUE PUSH2 0x2EA JUMPI PUSH1 0x20 SWAP1 DUP2 PUSH1 0x3 NOT CALLDATASIZE ADD SLT PUSH2 0x1189 JUMPI DUP3 SWAP2 SWAP3 CALLDATALOAD SWAP3 CALLER DUP6 MSTORE PUSH1 0x8 DUP2 MSTORE PUSH1 0xFF PUSH2 0x17B3 DUP2 DUP5 DUP9 KECCAK256 SLOAD AND ISZERO PUSH2 0x329F JUMP JUMPDEST DUP5 DUP7 MSTORE PUSH1 0xF DUP3 MSTORE DUP3 DUP7 KECCAK256 SLOAD PUSH1 0x1 PUSH1 0x1 PUSH1 0xA0 SHL SUB SWAP1 PUSH2 0x17D4 SWAP1 DUP3 AND CALLER EQ PUSH2 0x384F JUMP JUMPDEST DUP7 SWAP5 DUP6 SWAP3 DUP4 DUP1 JUMPDEST CALLER DUP12 MSTORE PUSH1 0xE DUP1 DUP9 MSTORE DUP9 DUP13 KECCAK256 DUP1 SLOAD DUP4 LT ISZERO PUSH2 0x1A3E JUMPI SWAP11 PUSH2 0x17FC DUP4 DUP3 SWAP13 SWAP14 PUSH2 0x2FD1 JUMP JUMPDEST POP SLOAD EQ PUSH2 0x1815 JUMPI POP PUSH2 0x180D SWAP1 PUSH2 0x3558 JUMP JUMPDEST SWAP9 SWAP8 SWAP9 PUSH2 0x17DB JUMP JUMPDEST SWAP6 POP SWAP8 SWAP9 POP POP CALLER DUP10 MSTORE DUP4 DUP6 MSTORE PUSH2 0x183E PUSH2 0x1830 DUP9 DUP9 DUP13 KECCAK256 PUSH2 0x2FD1 JUMP JUMPDEST POP SWAP2 PUSH1 0x6 DUP1 SWAP4 ADD SLOAD AND PUSH2 0x35F5 JUMP JUMPDEST CALLER DUP10 MSTORE DUP4 DUP6 MSTORE PUSH1 0x2 PUSH2 0x1852 DUP9 DUP9 DUP13 KECCAK256 PUSH2 0x2FD1 JUMP JUMPDEST POP ADD SLOAD CALLER DUP11 MSTORE DUP5 DUP7 MSTORE PUSH1 0x3 PUSH2 0x1869 DUP10 DUP10 DUP14 KECCAK256 PUSH2 0x2FD1 JUMP JUMPDEST POP ADD SLOAD SWAP1 PUSH3 0x15180 SWAP2 DUP3 DUP2 MUL SWAP3 DUP2 DUP5 DIV EQ SWAP1 ISZERO OR ISZERO PUSH2 0x1A2B JUMPI SWAP1 PUSH2 0x188C SWAP2 PUSH2 0x3567 JUMP JUMPDEST TIMESTAMP LT PUSH2 0x19F1 JUMPI SWAP2 DUP5 SWAP2 PUSH2 0x18EF DUP11 PUSH2 0x1935 SWAP6 PUSH2 0x18D1 PUSH2 0x18A9 DUP14 PUSH2 0x3641 JUMP JUMPDEST SWAP12 CALLER DUP5 MSTORE DUP10 DUP9 MSTORE DUP12 PUSH2 0x18BD DUP3 DUP3 DUP8 KECCAK256 PUSH2 0x2FD1 JUMP JUMPDEST POP SWAP5 PUSH1 0x1 DUP1 SWAP7 ADD SLOAD SWAP12 CALLER DUP3 MSTORE DUP11 MSTORE KECCAK256 PUSH2 0x2FD1 JUMP JUMPDEST POP ADD PUSH1 0xFF NOT DUP2 SLOAD AND SWAP1 SSTORE PUSH1 0x10 PUSH2 0x18E8 DUP9 DUP3 SLOAD PUSH2 0x3634 JUMP JUMPDEST SWAP1 SSTORE PUSH2 0x35B7 JUMP JUMPDEST PUSH2 0x18F8 CALLER PUSH2 0x3A0E JUMP JUMPDEST PUSH2 0x1902 DUP9 DUP7 PUSH2 0x3567 JUMP JUMPDEST DUP11 SLOAD DUP9 MLOAD PUSH4 0xA9059CBB PUSH1 0xE0 SHL DUP2 MSTORE CALLER SWAP4 DUP2 ADD SWAP4 DUP5 MSTORE PUSH1 0x20 DUP5 ADD SWAP3 SWAP1 SWAP3 MSTORE SWAP1 SWAP5 DUP6 SWAP4 SWAP1 SWAP2 AND SWAP2 DUP4 SWAP2 DUP13 SWAP2 DUP4 SWAP2 PUSH1 0x40 SWAP1 SWAP2 ADD SWAP1 JUMP JUMPDEST SUB SWAP3 GAS CALL SWAP1 DUP2 ISZERO PUSH2 0x1514 JUMPI SWAP1 PUSH2 0x1952 SWAP2 DUP9 SWAP2 PUSH2 0x19D4 JUMPI JUMPDEST POP PUSH2 0x3514 JUMP JUMPDEST DUP5 DUP5 ISZERO ISZERO SWAP2 DUP3 PUSH2 0x19C0 JUMPI JUMPDEST DUP5 MLOAD SWAP1 DUP2 MSTORE PUSH32 0x7FC4727E062E336010F2C282598EF5F14FACB3DE68CF8195C2F23E1454B2B74E DUP5 CALLER SWAP3 LOG3 PUSH2 0x198F JUMPI DUP5 DUP1 RETURN JUMPDEST PUSH32 0xF87CFA2D5FEAEA949AD65BB76A26D8553381BCB6382ADBC83DEDD48961BF32D9 SWAP2 MLOAD SWAP3 DUP4 MSTORE CALLER SWAP3 LOG3 CODESIZE DUP1 DUP1 DUP1 DUP5 DUP1 RETURN JUMPDEST PUSH2 0x19CC DUP7 PUSH1 0x11 SLOAD PUSH2 0x3567 JUMP JUMPDEST PUSH1 0x11 SSTORE PUSH2 0x195D JUMP JUMPDEST PUSH2 0x19EB SWAP2 POP DUP5 RETURNDATASIZE DUP7 GT PUSH2 0xAE7 JUMPI PUSH2 0xAD9 DUP2 DUP4 PUSH2 0x308B JUMP JUMPDEST CODESIZE PUSH2 0x194C JUMP JUMPDEST DUP6 MLOAD PUSH3 0x461BCD PUSH1 0xE5 SHL DUP2 MSTORE DUP1 DUP4 ADD DUP7 SWAP1 MSTORE PUSH1 0x14 PUSH1 0x24 DUP3 ADD MSTORE PUSH20 0x14DD1A5B1B081A5B881B1BD8DAC81C195C9A5BD9 PUSH1 0x62 SHL PUSH1 0x44 DUP3 ADD MSTORE PUSH1 0x64 SWAP1 REVERT JUMPDEST PUSH4 0x4E487B71 PUSH1 0xE0 SHL DUP12 MSTORE PUSH1 0x11 DUP5 MSTORE PUSH1 0x24 DUP12 REVERT JUMPDEST POP POP POP PUSH2 0x1935 SWAP4 SWAP2 POP SWAP2 PUSH2 0x18EF DUP7 SWAP4 PUSH2 0x35B7 JUMP JUMPDEST POP POP DUP3 PUSH1 0x3 NOT CALLDATASIZE ADD SLT PUSH2 0x2EA JUMPI CALLER DUP4 MSTORE PUSH1 0x8 PUSH1 0x20 MSTORE PUSH2 0x1A77 PUSH1 0xFF DUP4 DUP6 KECCAK256 SLOAD AND ISZERO PUSH2 0x329F JUMP JUMPDEST CALLVALUE ISZERO SWAP1 PUSH2 0x1A84 DUP3 ISZERO PUSH2 0x32E0 JUMP JUMPDEST PUSH1 0x1 SLOAD PUSH1 0x1 PUSH1 0x1 PUSH1 0xA0 SHL SUB SWAP1 DUP2 AND SWAP3 PUSH2 0x1A9E DUP5 ISZERO ISZERO PUSH2 0x33F2 JUMP JUMPDEST PUSH3 0xF4240 DUP1 CALLVALUE MUL SWAP1 CALLVALUE DUP3 DIV EQ DUP3 OR ISZERO PUSH2 0x1BEB JUMPI SWAP1 PUSH2 0x1ABF DUP8 SWAP3 DUP6 SLOAD SWAP1 PUSH2 0x3386 JUMP JUMPDEST DUP7 MLOAD PUSH4 0xA9059CBB PUSH1 0xE0 SHL DUP2 MSTORE CALLER DUP7 DUP3 ADD SWAP1 DUP2 MSTORE PUSH1 0x20 DUP2 DUP2 ADD DUP5 SWAP1 MSTORE SWAP3 SWAP8 SWAP2 SWAP3 SWAP2 DUP4 SWAP2 DUP3 SWAP1 DUP8 SWAP1 DUP3 SWAP1 PUSH1 0x40 ADD SUB SWAP3 GAS CALL DUP1 ISZERO PUSH2 0x1BE1 JUMPI PUSH2 0x1B04 SWAP2 DUP5 SWAP2 PUSH2 0x1BC3 JUMPI POP PUSH2 0x344C JUMP JUMPDEST DUP2 SWAP1 PUSH2 0x1BBA JUMPI JUMPDEST DUP2 DUP1 DUP1 SWAP3 CALLVALUE SWAP1 DUP7 PUSH32 0x0 AND SWAP1 CALL ISZERO PUSH2 0x1BAD JUMPI PUSH2 0x1B89 PUSH32 0x48A1F8A6C840B32621CEAB4439A2CCD00B337E705DFDCDEC0B40C49ABF3E6BE3 SWAP3 DUP5 DUP4 PUSH1 0x1 SLOAD AND DUP8 MLOAD SWAP3 PUSH2 0x1B72 DUP5 PUSH2 0x306F JUMP JUMPDEST DUP4 MSTORE PUSH4 0x14D15313 PUSH1 0xE2 SHL PUSH1 0x20 DUP5 ADD MSTORE CALLVALUE SWAP1 CALLER PUSH2 0x4024 JUMP JUMPDEST PUSH1 0x1 SLOAD SWAP4 MLOAD SWAP3 DUP4 MSTORE CALLVALUE PUSH1 0x20 DUP5 ADD MSTORE TIMESTAMP PUSH1 0x40 DUP5 ADD MSTORE SWAP1 SWAP3 AND SWAP2 CALLER SWAP2 DUP1 PUSH1 0x60 DUP2 ADD PUSH2 0xABB JUMP JUMPDEST POP POP POP MLOAD SWAP1 RETURNDATASIZE SWAP1 DUP3 RETURNDATACOPY RETURNDATASIZE SWAP1 REVERT JUMPDEST POP PUSH2 0x8FC PUSH2 0x1B0B JUMP JUMPDEST PUSH2 0x1BDB SWAP2 POP PUSH1 0x20 RETURNDATASIZE DUP2 GT PUSH2 0xAE7 JUMPI PUSH2 0xAD9 DUP2 DUP4 PUSH2 0x308B JUMP JUMPDEST CODESIZE PUSH2 0xC59 JUMP JUMPDEST DUP8 MLOAD RETURNDATASIZE DUP6 DUP3 RETURNDATACOPY RETURNDATASIZE SWAP1 REVERT JUMPDEST PUSH4 0x4E487B71 PUSH1 0xE0 SHL DUP8 MSTORE PUSH1 0x11 DUP5 MSTORE PUSH1 0x24 DUP8 REVERT JUMPDEST POP POP POP CALLVALUE PUSH2 0x32A JUMPI PUSH1 0x20 DUP1 PUSH1 0x3 NOT CALLDATASIZE ADD SLT PUSH2 0x2EA JUMPI PUSH1 0x1 PUSH1 0x1 PUSH1 0xA0 SHL SUB SWAP3 DUP4 PUSH2 0x1C25 PUSH2 0x2EC3 JUMP JUMPDEST AND DUP2 MSTORE PUSH1 0x17 DUP3 MSTORE DUP3 DUP2 KECCAK256 SWAP2 DUP4 MLOAD SWAP1 DUP2 DUP2 DUP6 SLOAD SWAP2 DUP3 DUP2 MSTORE ADD SWAP1 DUP2 SWAP6 DUP6 MSTORE DUP3 DUP6 KECCAK256 SWAP1 DUP6 JUMPDEST DUP2 DUP2 LT PUSH2 0x1C93 JUMPI POP POP POP DUP3 PUSH2 0x1C5D SWAP2 SUB DUP4 PUSH2 0x308B JUMP JUMPDEST DUP5 MLOAD SWAP5 DUP2 DUP7 ADD SWAP3 DUP3 DUP8 MSTORE MLOAD DUP1 SWAP4 MSTORE DUP6 ADD SWAP4 SWAP3 JUMPDEST DUP3 DUP2 LT PUSH2 0x1C7D JUMPI DUP6 DUP6 SUB DUP7 RETURN JUMPDEST DUP4 MLOAD DUP8 AND DUP6 MSTORE SWAP4 DUP2 ADD SWAP4 SWAP3 DUP2 ADD SWAP3 PUSH1 0x1 ADD PUSH2 0x1C70 JUMP JUMPDEST DUP3 SLOAD DUP11 AND DUP5 MSTORE SWAP3 DUP5 ADD SWAP3 PUSH1 0x1 SWAP3 DUP4 ADD SWAP3 ADD PUSH2 0x1C47 JUMP JUMPDEST POP POP CALLVALUE PUSH2 0x2EA JUMPI PUSH1 0x20 SWAP1 DUP2 PUSH1 0x3 NOT CALLDATASIZE ADD SLT PUSH2 0x1189 JUMPI DUP1 CALLDATALOAD SWAP2 CALLER DUP6 MSTORE PUSH1 0x8 DUP2 MSTORE PUSH1 0xFF SWAP4 PUSH2 0x1CDA DUP6 DUP3 DUP9 KECCAK256 SLOAD AND ISZERO PUSH2 0x329F JUMP JUMPDEST DUP4 DUP7 MSTORE PUSH1 0xF DUP3 MSTORE DUP1 DUP7 KECCAK256 SLOAD PUSH1 0x1 PUSH1 0x1 PUSH1 0xA0 SHL SUB SWAP4 SWAP1 PUSH2 0x1CFC SWAP1 DUP6 AND CALLER EQ PUSH2 0x384F JUMP JUMPDEST DUP7 SWAP4 DUP8 JUMPDEST CALLER DUP10 MSTORE PUSH1 0xE DUP1 DUP7 MSTORE DUP5 DUP11 KECCAK256 DUP1 SLOAD DUP4 LT ISZERO PUSH2 0x1EC5 JUMPI PUSH2 0x1D1F DUP4 DUP11 SWAP3 PUSH2 0x2FD1 JUMP JUMPDEST POP SLOAD EQ PUSH2 0x1D35 JUMPI POP PUSH2 0x1D30 SWAP1 PUSH2 0x3558 JUMP JUMPDEST PUSH2 0x1D00 JUMP JUMPDEST SWAP7 SWAP8 PUSH2 0x1D5E SWAP2 SWAP3 SWAP4 SWAP5 SWAP6 SWAP7 POP CALLER DUP11 MSTORE DUP8 DUP8 MSTORE PUSH1 0x6 PUSH2 0x1D55 DUP5 DUP9 DUP14 KECCAK256 PUSH2 0x2FD1 JUMP JUMPDEST POP ADD SLOAD AND PUSH2 0x35F5 JUMP JUMPDEST PUSH2 0x1D67 DUP8 PUSH2 0x3641 JUMP JUMPDEST SWAP6 DUP7 ISZERO PUSH2 0x1E8A JUMPI SWAP1 PUSH2 0x1D98 SWAP2 CALLER DUP11 MSTORE DUP1 DUP8 MSTORE DUP10 PUSH1 0x5 PUSH2 0x1D88 DUP5 DUP10 DUP5 KECCAK256 PUSH2 0x2FD1 JUMP JUMPDEST POP ADD SSTORE CALLER DUP11 MSTORE DUP7 MSTORE DUP5 DUP10 KECCAK256 PUSH2 0x2FD1 JUMP JUMPDEST POP TIMESTAMP SWAP1 DUP4 ADD SSTORE DUP7 SLOAD DUP4 MLOAD PUSH4 0xA9059CBB PUSH1 0xE0 SHL DUP2 MSTORE CALLER DUP2 DUP6 ADD SWAP1 DUP2 MSTORE PUSH1 0x20 DUP2 ADD DUP9 SWAP1 MSTORE SWAP1 SWAP3 DUP7 SWAP3 DUP5 SWAP3 DUP4 SWAP1 SUB PUSH1 0x40 ADD SWAP2 DUP4 SWAP2 DUP13 SWAP2 AND GAS CALL SWAP1 DUP2 ISZERO PUSH2 0x1E80 JUMPI DUP8 SWAP2 PUSH2 0x1E63 JUMPI JUMPDEST POP ISZERO PUSH2 0x1E29 JUMPI POP SWAP1 PUSH32 0xF87CFA2D5FEAEA949AD65BB76A26D8553381BCB6382ADBC83DEDD48961BF32D9 SWAP2 PUSH1 0x11 PUSH2 0x1E13 DUP6 DUP3 SLOAD PUSH2 0x3567 JUMP JUMPDEST SWAP1 SSTORE MLOAD SWAP3 DUP4 MSTORE CALLER SWAP3 LOG3 PUSH2 0x1E26 PUSH1 0x1 PUSH2 0x35B7 JUMP JUMPDEST DUP1 RETURN JUMPDEST DUP3 PUSH1 0x64 SWAP3 MLOAD SWAP2 PUSH3 0x461BCD PUSH1 0xE5 SHL DUP4 MSTORE DUP3 ADD MSTORE PUSH1 0x16 PUSH1 0x24 DUP3 ADD MSTORE PUSH22 0x14995DD85C99081D1C985B9CD9995C8819985A5B1959 PUSH1 0x52 SHL PUSH1 0x44 DUP3 ADD MSTORE REVERT JUMPDEST PUSH2 0x1E7A SWAP2 POP DUP5 RETURNDATASIZE DUP7 GT PUSH2 0xAE7 JUMPI PUSH2 0xAD9 DUP2 DUP4 PUSH2 0x308B JUMP JUMPDEST CODESIZE PUSH2 0x1DDC JUMP JUMPDEST DUP4 MLOAD RETURNDATASIZE DUP10 DUP3 RETURNDATACOPY RETURNDATASIZE SWAP1 REVERT JUMPDEST DUP5 MLOAD PUSH3 0x461BCD PUSH1 0xE5 SHL DUP2 MSTORE DUP1 DUP6 ADD DUP8 SWAP1 MSTORE PUSH1 0x15 PUSH1 0x24 DUP3 ADD MSTORE PUSH21 0x139BC81C995DD85C991CC81D1BC81A185C9D995CDD PUSH1 0x5A SHL PUSH1 0x44 DUP3 ADD MSTORE PUSH1 0x64 SWAP1 REVERT JUMPDEST POP POP POP POP POP POP POP SWAP1 POP PUSH2 0x1E26 SWAP2 POP PUSH2 0x35B7 JUMP JUMPDEST POP POP POP CALLVALUE PUSH2 0x32A JUMPI PUSH1 0x20 CALLDATASIZE PUSH1 0x3 NOT ADD SLT PUSH2 0x32A JUMPI PUSH1 0x20 SWAP2 DUP2 SWAP1 PUSH1 0x1 PUSH1 0x1 PUSH1 0xA0 SHL SUB PUSH2 0x1F01 PUSH2 0x2EC3 JUMP JUMPDEST AND DUP2 MSTORE PUSH1 0x18 DUP5 MSTORE KECCAK256 SLOAD SWAP1 MLOAD SWAP1 DUP2 MSTORE RETURN JUMPDEST POP POP POP CALLVALUE PUSH2 0x32A JUMPI DUP2 PUSH1 0x3 NOT CALLDATASIZE ADD SLT PUSH2 0x32A JUMPI PUSH1 0x20 SWAP1 PUSH1 0x7 SLOAD SWAP1 MLOAD SWAP1 DUP2 MSTORE RETURN JUMPDEST POP POP POP CALLVALUE PUSH2 0x32A JUMPI PUSH1 0x20 CALLDATASIZE PUSH1 0x3 NOT ADD SLT PUSH2 0x32A JUMPI PUSH1 0x20 SWAP2 PUSH1 0xFF SWAP1 DUP3 SWAP1 PUSH1 0x1 PUSH1 0x1 PUSH1 0xA0 SHL SUB PUSH2 0x1F5D PUSH2 0x2EC3 JUMP JUMPDEST AND DUP2 MSTORE PUSH1 0x8 DUP6 MSTORE KECCAK256 SLOAD AND SWAP1 MLOAD SWAP1 ISZERO ISZERO DUP2 MSTORE RETURN JUMPDEST POP POP CALLVALUE PUSH2 0x2EA JUMPI PUSH1 0x20 CALLDATASIZE PUSH1 0x3 NOT ADD SLT PUSH2 0x2EA JUMPI DUP1 CALLDATALOAD SWAP1 PUSH2 0x1FBA CALLER PUSH32 0x0 PUSH1 0x1 PUSH1 0x1 PUSH1 0xA0 SHL SUB AND EQ PUSH2 0x31B0 JUMP JUMPDEST PUSH1 0x14 DUP3 GT PUSH2 0x1FFC JUMPI POP SWAP1 PUSH32 0xD968A3CC702265C3AB67356DF15CA21D50167B011F198B963E2A868E04E3D5E0 SWAP2 PUSH1 0x15 SLOAD SWAP1 DUP1 PUSH1 0x15 SSTORE DUP3 MLOAD SWAP2 DUP3 MSTORE PUSH1 0x20 DUP3 ADD MSTORE LOG1 DUP1 RETURN JUMPDEST PUSH1 0x64 SWAP1 PUSH1 0x20 DUP5 MLOAD SWAP2 PUSH3 0x461BCD PUSH1 0xE5 SHL DUP4 MSTORE DUP3 ADD MSTORE PUSH1 0x13 PUSH1 0x24 DUP3 ADD MSTORE PUSH19 0xA0CAE4C6CADCE8C2CECA40E8DEDE40D0D2CED PUSH1 0x6B SHL PUSH1 0x44 DUP3 ADD MSTORE REVERT JUMPDEST POP POP POP CALLVALUE PUSH2 0x32A JUMPI PUSH1 0x20 CALLDATASIZE PUSH1 0x3 NOT ADD SLT PUSH2 0x32A JUMPI PUSH1 0x20 SWAP2 PUSH1 0x1 PUSH1 0x1 PUSH1 0xA0 SHL SUB SWAP1 DUP3 SWAP1 DUP3 PUSH2 0x2060 PUSH2 0x2EC3 JUMP JUMPDEST AND DUP2 MSTORE PUSH1 0x16 DUP6 MSTORE KECCAK256 SLOAD AND SWAP1 MLOAD SWAP1 DUP2 MSTORE RETURN JUMPDEST POP POP POP CALLVALUE PUSH2 0x32A JUMPI DUP2 PUSH1 0x3 NOT CALLDATASIZE ADD SLT PUSH2 0x32A JUMPI PUSH1 0x20 SWAP1 PUSH1 0xB SLOAD SWAP1 MLOAD SWAP1 DUP2 MSTORE RETURN JUMPDEST DUP3 DUP6 DUP6 CALLVALUE PUSH2 0x32A JUMPI DUP1 PUSH1 0x3 NOT CALLDATASIZE ADD SLT PUSH2 0x32A JUMPI DUP3 CALLDATALOAD PUSH1 0x24 CALLDATALOAD SWAP2 CALLER DUP5 MSTORE PUSH1 0x20 SWAP3 PUSH1 0x8 DUP5 MSTORE PUSH2 0x20C4 PUSH1 0xFF DUP4 DUP8 KECCAK256 SLOAD AND ISZERO PUSH2 0x329F JUMP JUMPDEST PUSH1 0xD SLOAD DUP4 LT PUSH2 0x2344 JUMPI DUP5 SLOAD PUSH1 0x1 PUSH1 0x1 PUSH1 0xA0 SHL SUB AND PUSH2 0x20E3 DUP2 ISZERO ISZERO PUSH2 0x331C JUMP JUMPDEST PUSH1 0x1E DUP3 EQ DUP1 ISZERO PUSH2 0x233A JUMPI JUMPDEST DUP1 ISZERO PUSH2 0x2330 JUMPI JUMPDEST DUP1 ISZERO PUSH2 0x2325 JUMPI JUMPDEST ISZERO PUSH2 0x22EC JUMPI DUP3 MLOAD PUSH4 0x23B872DD PUSH1 0xE0 SHL DUP2 MSTORE CALLER DUP2 DUP10 ADD SWAP1 DUP2 MSTORE ADDRESS PUSH1 0x20 DUP3 ADD MSTORE PUSH1 0x40 DUP2 ADD DUP7 SWAP1 MSTORE SWAP1 SWAP2 DUP7 SWAP2 DUP4 SWAP2 SWAP1 DUP3 SWAP1 DUP11 SWAP1 DUP3 SWAP1 PUSH1 0x60 ADD SUB SWAP3 GAS CALL SWAP1 DUP2 ISZERO PUSH2 0x22E2 JUMPI SWAP1 PUSH2 0x214D SWAP2 DUP8 SWAP2 PUSH2 0x22C5 JUMPI POP PUSH2 0x3514 JUMP JUMPDEST PUSH1 0x13 SLOAD SWAP4 PUSH2 0x215A DUP6 PUSH2 0x3558 JUMP JUMPDEST PUSH1 0x13 SSTORE DUP3 MLOAD PUSH2 0x2168 DUP2 PUSH2 0x303D JUMP JUMPDEST DUP6 DUP2 MSTORE DUP2 DUP2 ADD DUP6 DUP2 MSTORE DUP5 DUP3 ADD TIMESTAMP DUP2 MSTORE PUSH1 0x60 DUP4 ADD DUP6 DUP2 MSTORE PUSH1 0x80 DUP5 ADD SWAP1 TIMESTAMP DUP3 MSTORE PUSH1 0xA0 DUP6 ADD SWAP3 DUP12 DUP5 MSTORE PUSH1 0xC0 DUP7 ADD SWAP5 PUSH1 0x1 DUP7 MSTORE CALLER DUP14 MSTORE PUSH1 0xE DUP9 MSTORE DUP10 DUP14 KECCAK256 DUP1 SLOAD SWAP1 PUSH1 0x1 PUSH1 0x40 SHL DUP3 LT ISZERO PUSH2 0x22B1 JUMPI SWAP1 PUSH2 0x21C0 SWAP2 PUSH1 0x1 DUP3 ADD DUP2 SSTORE PUSH2 0x2FD1 JUMP JUMPDEST SWAP8 SWAP1 SWAP8 PUSH2 0x229F JUMPI SWAP3 PUSH32 0xB4CAAF29ADDA3EEFEE3AD552A8E85058589BF834C7466CAE4EE58787F70589ED SWAP12 SWAP13 SWAP14 SWAP15 SWAP3 PUSH2 0x222F SWAP9 SWAP8 SWAP6 SWAP3 PUSH1 0x6 SWAP8 SWAP6 MLOAD DUP10 SSTORE MLOAD PUSH1 0x1 DUP10 ADD SSTORE MLOAD PUSH1 0x2 DUP9 ADD SSTORE MLOAD PUSH1 0x3 DUP8 ADD SSTORE MLOAD SWAP1 DUP6 ADD SSTORE MLOAD PUSH1 0x5 DUP5 ADD SSTORE MLOAD ISZERO ISZERO SWAP2 ADD SWAP1 PUSH1 0xFF DUP1 NOT DUP4 SLOAD AND SWAP2 ISZERO ISZERO AND OR SWAP1 SSTORE JUMP JUMPDEST DUP6 DUP8 MSTORE PUSH1 0xF DUP2 MSTORE DUP3 DUP8 KECCAK256 CALLER PUSH1 0x1 PUSH1 0x1 PUSH1 0x60 SHL SUB PUSH1 0xA0 SHL DUP3 SLOAD AND OR SWAP1 SSTORE PUSH2 0x2257 DUP6 PUSH1 0x10 SLOAD PUSH2 0x3567 JUMP JUMPDEST PUSH1 0x10 SSTORE CALLER DUP8 MSTORE PUSH1 0x14 DUP2 MSTORE DUP3 DUP8 KECCAK256 DUP1 SLOAD PUSH1 0xFF DUP2 AND ISZERO PUSH2 0x2280 JUMPI JUMPDEST POP POP DUP3 MLOAD SWAP5 DUP6 MSTORE DUP5 ADD MSTORE CALLER SWAP3 LOG3 DUP1 RETURN JUMPDEST PUSH1 0xFF NOT AND PUSH1 0x1 OR SWAP1 SSTORE PUSH1 0x12 SLOAD PUSH2 0x2295 SWAP1 PUSH2 0x3558 JUMP JUMPDEST PUSH1 0x12 SSTORE DUP8 DUP1 PUSH2 0x2270 JUMP JUMPDEST PUSH4 0x4E487B71 PUSH1 0xE0 SHL DUP15 MSTORE DUP14 DUP16 MSTORE PUSH1 0x24 DUP15 REVERT JUMPDEST DUP16 DUP16 PUSH1 0x41 PUSH1 0x24 SWAP3 PUSH4 0x4E487B71 PUSH1 0xE0 SHL DUP4 MSTORE MSTORE REVERT JUMPDEST PUSH2 0x22DC SWAP2 POP DUP7 RETURNDATASIZE DUP9 GT PUSH2 0xAE7 JUMPI PUSH2 0xAD9 DUP2 DUP4 PUSH2 0x308B JUMP JUMPDEST DUP9 PUSH2 0x194C JUMP JUMPDEST DUP4 MLOAD RETURNDATASIZE DUP9 DUP3 RETURNDATACOPY RETURNDATASIZE SWAP1 REVERT JUMPDEST DUP3 MLOAD PUSH3 0x461BCD PUSH1 0xE5 SHL DUP2 MSTORE DUP1 DUP9 ADD DUP7 SWAP1 MSTORE PUSH1 0x13 PUSH1 0x24 DUP3 ADD MSTORE PUSH19 0x125B9D985B1A59081B1BD8DAC81C195C9A5BD9 PUSH1 0x6A SHL PUSH1 0x44 DUP3 ADD MSTORE PUSH1 0x64 SWAP1 REVERT JUMPDEST POP PUSH2 0x16D DUP3 EQ PUSH2 0x20FC JUMP JUMPDEST POP PUSH1 0xB4 DUP3 EQ PUSH2 0x20F5 JUMP JUMPDEST POP PUSH1 0x5A DUP3 EQ PUSH2 0x20EE JUMP JUMPDEST DUP2 MLOAD PUSH3 0x461BCD PUSH1 0xE5 SHL DUP2 MSTORE DUP1 DUP8 ADD DUP6 SWAP1 MSTORE PUSH1 0x1A PUSH1 0x24 DUP3 ADD MSTORE PUSH32 0x416D6F756E742062656C6F77206D696E696D756D207374616B65000000000000 PUSH1 0x44 DUP3 ADD MSTORE PUSH1 0x64 SWAP1 REVERT JUMPDEST POP POP SWAP2 CALLVALUE PUSH2 0x409 JUMPI PUSH1 0x20 SWAP3 DUP4 PUSH1 0x3 NOT CALLDATASIZE ADD SLT PUSH2 0x32A JUMPI DUP1 CALLDATALOAD SWAP1 CALLER DUP4 MSTORE PUSH1 0x8 DUP6 MSTORE PUSH1 0xFF SWAP2 PUSH2 0x23B9 DUP4 DUP7 DUP7 KECCAK256 SLOAD AND ISZERO PUSH2 0x329F JUMP JUMPDEST DUP1 DUP5 MSTORE PUSH1 0xF DUP7 MSTORE DUP5 DUP5 KECCAK256 SLOAD PUSH1 0x1 PUSH1 0x1 PUSH1 0xA0 SHL SUB SWAP7 SWAP1 PUSH2 0x23DB SWAP1 DUP9 AND CALLER EQ PUSH2 0x384F JUMP JUMPDEST DUP5 SWAP6 DUP6 JUMPDEST CALLER DUP8 MSTORE PUSH1 0xE DUP1 DUP5 MSTORE DUP3 DUP9 KECCAK256 DUP1 SLOAD DUP4 LT ISZERO PUSH2 0x26A3 JUMPI PUSH2 0x23FE DUP4 DUP8 SWAP3 PUSH2 0x2FD1 JUMP JUMPDEST POP SLOAD EQ PUSH2 0x2414 JUMPI POP PUSH2 0x240F SWAP1 PUSH2 0x3558 JUMP JUMPDEST PUSH2 0x23DF JUMP JUMPDEST SWAP2 SWAP3 SWAP4 SWAP5 SWAP6 SWAP7 SWAP8 POP CALLER DUP9 MSTORE DUP2 DUP5 MSTORE PUSH2 0x243F PUSH2 0x2431 DUP3 DUP6 DUP12 KECCAK256 PUSH2 0x2FD1 JUMP JUMPDEST POP SWAP8 PUSH1 0x6 DUP1 SWAP10 ADD SLOAD AND PUSH2 0x35F5 JUMP JUMPDEST CALLER DUP9 MSTORE DUP2 DUP5 MSTORE PUSH1 0x2 PUSH2 0x2453 DUP3 DUP6 DUP12 KECCAK256 PUSH2 0x2FD1 JUMP JUMPDEST POP ADD SLOAD CALLER DUP10 MSTORE DUP3 DUP6 MSTORE PUSH1 0x3 PUSH2 0x246A DUP4 DUP7 DUP13 KECCAK256 PUSH2 0x2FD1 JUMP JUMPDEST POP ADD SLOAD SWAP1 PUSH3 0x15180 SWAP2 DUP3 DUP2 MUL SWAP3 DUP2 DUP5 DIV EQ SWAP1 ISZERO OR ISZERO PUSH2 0x2690 JUMPI SWAP10 PUSH2 0x2495 DUP7 SWAP3 DUP12 SWAP13 SWAP12 SWAP9 SWAP10 SWAP11 SWAP12 PUSH2 0x3567 JUMP JUMPDEST SWAP3 PUSH2 0x249F DUP10 PUSH2 0x3641 JUMP JUMPDEST SWAP11 CALLER DUP10 MSTORE DUP6 DUP5 MSTORE PUSH2 0x24B2 DUP3 DUP9 DUP12 KECCAK256 PUSH2 0x2FD1 JUMP JUMPDEST POP SWAP2 DUP8 PUSH1 0x1 DUP1 SWAP5 ADD SLOAD SWAP11 DUP1 SWAP8 TIMESTAMP LT PUSH2 0x2636 JUMPI JUMPDEST SWAP1 PUSH2 0x24DB SWAP3 SWAP2 PUSH2 0x253B SWAP9 SWAP10 CALLER DUP3 MSTORE DUP9 MSTORE KECCAK256 PUSH2 0x2FD1 JUMP JUMPDEST POP ADD PUSH1 0xFF NOT DUP2 SLOAD AND SWAP1 SSTORE PUSH1 0x10 PUSH2 0x24F2 DUP10 DUP3 SLOAD PUSH2 0x3634 JUMP JUMPDEST SWAP1 SSTORE SWAP9 PUSH2 0x2508 DUP12 PUSH2 0x2503 DUP8 DUP12 PUSH2 0x3634 JUMP JUMPDEST PUSH2 0x3567 JUMP JUMPDEST DUP13 SLOAD DUP8 MLOAD PUSH4 0xA9059CBB PUSH1 0xE0 SHL DUP2 MSTORE CALLER SWAP4 DUP2 ADD SWAP4 DUP5 MSTORE PUSH1 0x20 DUP5 ADD SWAP3 SWAP1 SWAP3 MSTORE SWAP1 SWAP5 DUP6 SWAP4 SWAP1 SWAP2 AND SWAP2 DUP4 SWAP2 DUP15 SWAP2 DUP4 SWAP2 PUSH1 0x40 SWAP1 SWAP2 ADD SWAP1 JUMP JUMPDEST SUB SWAP3 GAS CALL SWAP1 DUP2 ISZERO PUSH2 0x262C JUMPI SWAP8 PUSH2 0x255C DUP8 SWAP3 PUSH2 0x259C SWAP11 DUP13 SWAP2 PUSH2 0x2615 JUMPI POP PUSH2 0x3514 JUMP JUMPDEST DUP1 PUSH2 0x25D5 JUMPI JUMPDEST POP POP DUP1 ISZERO PUSH2 0x25A5 JUMPI PUSH32 0x9C9EC3CFA814B0112B71C20D0B0AB54DEAD00A99FD389C174DF717D2F1D36403 SWAP3 DUP3 MLOAD SWAP5 DUP6 MSTORE DUP5 ADD MSTORE CALLER SWAP3 LOG3 PUSH2 0x35B7 JUMP JUMPDEST PUSH2 0x1E26 CALLER PUSH2 0x3A0E JUMP JUMPDEST POP SWAP1 PUSH32 0x7FC4727E062E336010F2C282598EF5F14FACB3DE68CF8195C2F23E1454B2B74E SWAP2 MLOAD SWAP3 DUP4 MSTORE CALLER SWAP3 LOG3 PUSH2 0x35B7 JUMP JUMPDEST PUSH1 0x11 PUSH2 0x25E2 DUP3 DUP3 SLOAD PUSH2 0x3567 JUMP JUMPDEST SWAP1 SSTORE DUP4 MLOAD SWAP1 DUP2 MSTORE PUSH32 0xF87CFA2D5FEAEA949AD65BB76A26D8553381BCB6382ADBC83DEDD48961BF32D9 DUP6 CALLER SWAP3 LOG3 DUP5 CODESIZE PUSH2 0x2562 JUMP JUMPDEST PUSH2 0x19EB SWAP2 POP DUP8 RETURNDATASIZE DUP10 GT PUSH2 0xAE7 JUMPI PUSH2 0xAD9 DUP2 DUP4 PUSH2 0x308B JUMP JUMPDEST DUP4 MLOAD RETURNDATASIZE DUP12 DUP3 RETURNDATACOPY RETURNDATASIZE SWAP1 REVERT JUMPDEST POP POP SWAP2 SWAP4 POP SWAP2 SWAP4 POP PUSH1 0x5 DUP1 DUP10 MUL SWAP1 DUP10 DUP3 DIV EQ DUP10 ISZERO OR ISZERO PUSH2 0x267D JUMPI SWAP2 PUSH2 0x24DB DUP9 SWAP5 SWAP3 DUP9 DUP16 PUSH1 0x64 PUSH2 0x253B SWAP10 SWAP8 DIV SWAP10 PUSH1 0xB PUSH2 0x266F DUP13 DUP3 SLOAD PUSH2 0x3567 JUMP JUMPDEST SWAP1 SSTORE SWAP10 SWAP9 POP SWAP1 SWAP2 SWAP3 POP PUSH2 0x24C5 JUMP JUMPDEST PUSH4 0x4E487B71 PUSH1 0xE0 SHL DUP14 MSTORE PUSH1 0x11 DUP12 MSTORE PUSH1 0x24 DUP14 REVERT JUMPDEST PUSH4 0x4E487B71 PUSH1 0xE0 SHL DUP11 MSTORE PUSH1 0x11 DUP9 MSTORE PUSH1 0x24 DUP11 REVERT JUMPDEST POP POP POP POP POP POP POP POP SWAP2 POP PUSH2 0x259C SWAP1 PUSH2 0x35B7 JUMP JUMPDEST POP POP DUP3 CALLVALUE PUSH2 0x409 JUMPI DUP1 PUSH1 0x3 NOT CALLDATASIZE ADD SLT PUSH2 0x409 JUMPI SWAP1 PUSH1 0xA SLOAD SWAP1 PUSH2 0x26D7 DUP3 PUSH2 0x40DF JUMP JUMPDEST SWAP3 PUSH2 0x26E4 DUP6 MLOAD SWAP5 DUP6 PUSH2 0x308B JUMP JUMPDEST DUP3 DUP5 MSTORE PUSH1 0xA DUP2 MSTORE SWAP1 PUSH1 0x20 SWAP1 PUSH32 0xC65A7BB8D6351C1CF70C95A316CC6A92839C986682D98BC35F958F4883F9D2A8 SWAP1 DUP3 DUP7 ADD JUMPDEST DUP6 DUP6 LT PUSH2 0x2729 JUMPI DUP8 MLOAD DUP1 PUSH2 0x39D DUP10 DUP3 PUSH2 0x2F1E JUMP JUMPDEST PUSH1 0x7 DUP5 PUSH1 0x1 SWAP3 DUP11 MLOAD PUSH2 0x273A DUP2 PUSH2 0x303D JUMP JUMPDEST DUP7 SLOAD DUP2 MSTORE DUP5 DUP1 PUSH1 0xA0 SHL SUB DUP1 DUP7 DUP10 ADD SLOAD AND DUP5 DUP4 ADD MSTORE DUP1 PUSH1 0x2 DUP10 ADD SLOAD AND DUP14 DUP4 ADD MSTORE PUSH1 0x3 DUP9 ADD SLOAD AND PUSH1 0x60 DUP3 ADD MSTORE DUP6 DUP8 ADD SLOAD PUSH1 0x80 DUP3 ADD MSTORE PUSH1 0x5 DUP8 ADD SLOAD PUSH1 0xA0 DUP3 ADD MSTORE PUSH2 0x2783 PUSH1 0x6 DUP9 ADD PUSH2 0x30AD JUMP JUMPDEST PUSH1 0xC0 DUP3 ADD MSTORE DUP2 MSTORE ADD SWAP4 ADD SWAP5 ADD SWAP4 SWAP2 PUSH2 0x2715 JUMP JUMPDEST POP POP DUP3 PUSH1 0x3 NOT CALLDATASIZE ADD SLT PUSH2 0x2EA JUMPI CALLER DUP4 MSTORE PUSH1 0x8 PUSH1 0x20 MSTORE PUSH2 0x27BB PUSH1 0xFF DUP4 DUP6 KECCAK256 SLOAD AND ISZERO PUSH2 0x329F JUMP JUMPDEST CALLVALUE ISZERO SWAP1 PUSH2 0x27C8 DUP3 ISZERO PUSH2 0x32E0 JUMP JUMPDEST PUSH1 0x2 SLOAD PUSH1 0x1 PUSH1 0x1 PUSH1 0xA0 SHL SUB SWAP1 DUP2 AND SWAP3 PUSH2 0x27E2 DUP5 ISZERO ISZERO PUSH2 0x348F JUMP JUMPDEST PUSH3 0xF4240 DUP1 CALLVALUE MUL SWAP1 CALLVALUE DUP3 DIV EQ DUP3 OR ISZERO PUSH2 0x1BEB JUMPI SWAP1 PUSH2 0x2803 DUP8 SWAP3 DUP6 SLOAD SWAP1 PUSH2 0x3386 JUMP JUMPDEST DUP7 MLOAD PUSH4 0xA9059CBB PUSH1 0xE0 SHL DUP2 MSTORE CALLER DUP7 DUP3 ADD SWAP1 DUP2 MSTORE PUSH1 0x20 DUP2 DUP2 ADD DUP5 SWAP1 MSTORE SWAP3 SWAP8 SWAP2 SWAP3 SWAP2 DUP4 SWAP2 DUP3 SWAP1 DUP8 SWAP1 DUP3 SWAP1 PUSH1 0x40 ADD SUB SWAP3 GAS CALL DUP1 ISZERO PUSH2 0x1BE1 JUMPI PUSH2 0x2848 SWAP2 DUP5 SWAP2 PUSH2 0x28E3 JUMPI POP PUSH2 0x34D1 JUMP JUMPDEST DUP2 SWAP1 PUSH2 0x28DA JUMPI JUMPDEST DUP2 DUP1 DUP1 SWAP3 CALLVALUE SWAP1 DUP7 PUSH32 0x0 AND SWAP1 CALL ISZERO PUSH2 0x1BAD JUMPI PUSH2 0x28B6 PUSH32 0x48A1F8A6C840B32621CEAB4439A2CCD00B337E705DFDCDEC0B40C49ABF3E6BE3 SWAP3 DUP5 DUP4 PUSH1 0x2 SLOAD AND DUP8 MLOAD SWAP3 PUSH2 0x1B72 DUP5 PUSH2 0x306F JUMP JUMPDEST PUSH1 0x2 SLOAD SWAP4 MLOAD SWAP3 DUP4 MSTORE CALLVALUE PUSH1 0x20 DUP5 ADD MSTORE TIMESTAMP PUSH1 0x40 DUP5 ADD MSTORE SWAP1 SWAP3 AND SWAP2 CALLER SWAP2 DUP1 PUSH1 0x60 DUP2 ADD PUSH2 0xABB JUMP JUMPDEST POP PUSH2 0x8FC PUSH2 0x284F JUMP JUMPDEST PUSH2 0x28FB SWAP2 POP PUSH1 0x20 RETURNDATASIZE DUP2 GT PUSH2 0xAE7 JUMPI PUSH2 0xAD9 DUP2 DUP4 PUSH2 0x308B JUMP JUMPDEST CODESIZE PUSH2 0xA56 JUMP JUMPDEST POP POP POP CALLVALUE PUSH2 0x32A JUMPI PUSH1 0x20 CALLDATASIZE PUSH1 0x3 NOT ADD SLT PUSH2 0x32A JUMPI PUSH1 0x80 SWAP2 PUSH1 0x1 PUSH1 0x1 PUSH1 0xA0 SHL SUB DUP1 PUSH2 0x2929 PUSH2 0x2EC3 JUMP JUMPDEST AND DUP3 MSTORE PUSH1 0x16 PUSH1 0x20 MSTORE DUP3 DUP3 KECCAK256 SLOAD AND SWAP2 PUSH1 0x17 PUSH1 0x20 MSTORE DUP1 DUP1 DUP4 KECCAK256 SLOAD SWAP3 PUSH1 0x18 PUSH1 0x20 MSTORE KECCAK256 SLOAD SWAP1 PUSH1 0x15 SLOAD SWAP3 DUP2 MLOAD SWAP5 DUP6 MSTORE PUSH1 0x20 DUP6 ADD MSTORE DUP4 ADD MSTORE PUSH1 0x60 DUP3 ADD MSTORE RETURN JUMPDEST POP POP POP CALLVALUE PUSH2 0x32A JUMPI DUP2 PUSH1 0x3 NOT CALLDATASIZE ADD SLT PUSH2 0x32A JUMPI PUSH1 0x20 SWAP1 PUSH1 0xC SLOAD SWAP1 MLOAD SWAP1 DUP2 MSTORE RETURN JUMPDEST POP POP POP CALLVALUE PUSH2 0x32A JUMPI CALLDATASIZE PUSH1 0x3 NOT ADD SLT PUSH2 0x409 JUMPI PUSH2 0x299C PUSH2 0x2EC3 JUMP JUMPDEST PUSH1 0x24 CALLDATALOAD SWAP1 PUSH1 0x1 PUSH1 0x1 PUSH1 0xA0 SHL SUB SWAP1 PUSH2 0x29D6 CALLER PUSH32 0x0 DUP5 AND EQ PUSH2 0x31B0 JUMP JUMPDEST AND PUSH2 0x29E2 DUP2 ISZERO ISZERO PUSH2 0x3225 JUMP JUMPDEST PUSH2 0x29ED DUP3 ISZERO ISZERO PUSH2 0x3263 JUMP JUMPDEST PUSH1 0x1 PUSH1 0x1 PUSH1 0x60 SHL SUB PUSH1 0xA0 SHL PUSH1 0x2 SLOAD AND OR PUSH1 0x2 SSTORE PUSH1 0x6 SSTORE DUP1 RETURN JUMPDEST POP POP POP CALLVALUE PUSH2 0x32A JUMPI DUP1 PUSH1 0x3 NOT CALLDATASIZE ADD SLT PUSH2 0x32A JUMPI PUSH2 0x2A21 PUSH2 0x2EC3 JUMP JUMPDEST SWAP1 PUSH1 0x24 CALLDATALOAD SWAP2 DUP3 ISZERO ISZERO DUP1 DUP5 SUB PUSH2 0x2AB4 JUMPI PUSH32 0xDDA6207409A585801122FB885DCAA8074F9A21F25FF2DEF680C67F01A86C2C9B SWAP3 PUSH1 0x20 SWAP3 PUSH2 0x2AAC SWAP1 PUSH1 0x1 PUSH1 0x1 PUSH1 0xA0 SHL SUB SWAP1 PUSH2 0x2A8F CALLER PUSH32 0x0 DUP5 AND EQ PUSH2 0x31B0 JUMP JUMPDEST AND SWAP6 DUP7 DUP9 MSTORE PUSH1 0x8 DUP6 MSTORE DUP3 DUP9 KECCAK256 SWAP1 PUSH1 0xFF DUP1 NOT DUP4 SLOAD AND SWAP2 ISZERO ISZERO AND OR SWAP1 SSTORE JUMP JUMPDEST MLOAD SWAP1 DUP2 MSTORE LOG2 DUP1 RETURN JUMPDEST DUP5 DUP1 REVERT JUMPDEST DUP3 DUP6 DUP6 DUP2 PUSH1 0x3 NOT CALLDATASIZE ADD SLT PUSH2 0x32A JUMPI CALLER DUP3 MSTORE PUSH1 0x8 PUSH1 0x20 MSTORE PUSH2 0x2ADE PUSH1 0xFF DUP3 DUP5 KECCAK256 SLOAD AND ISZERO PUSH2 0x329F JUMP JUMPDEST CALLVALUE ISZERO SWAP1 PUSH2 0x2AEB DUP3 ISZERO PUSH2 0x32E0 JUMP JUMPDEST DUP3 SLOAD PUSH1 0x1 PUSH1 0x1 PUSH1 0xA0 SHL SUB SWAP1 PUSH2 0x2B03 SWAP1 DUP3 AND ISZERO ISZERO PUSH2 0x331C JUMP JUMPDEST PUSH8 0xDE0B6B3A7640000 DUP1 CALLVALUE MUL SWAP1 CALLVALUE DUP3 DIV EQ DUP5 OR ISZERO PUSH2 0x2BEF JUMPI DUP5 SWAP6 POP PUSH2 0x2B2F PUSH2 0xA5C DUP7 SWAP3 PUSH1 0x3 SLOAD SWAP1 PUSH2 0x3386 JUMP JUMPDEST SWAP4 PUSH2 0x2B39 DUP6 PUSH2 0x3AC7 JUMP JUMPDEST DUP2 SWAP1 PUSH2 0x2BE6 JUMPI JUMPDEST DUP2 DUP1 DUP1 SWAP3 CALLVALUE SWAP1 DUP7 PUSH32 0x0 AND SWAP1 CALL ISZERO PUSH2 0x2BDC JUMPI SWAP1 PUSH2 0x2BBE PUSH32 0x377AADEDB6B2A771959584D10A6A36ECCB5F56B4EB3A48525F76108D2660D8D4 SWAP3 DUP6 SLOAD AND DUP5 DUP4 MLOAD SWAP2 PUSH2 0x2BA6 DUP4 PUSH2 0x306F JUMP JUMPDEST PUSH1 0x3 DUP4 MSTORE PUSH3 0x425559 PUSH1 0xE8 SHL PUSH1 0x20 DUP5 ADD MSTORE CALLVALUE SWAP1 CALLER PUSH2 0x4024 JUMP JUMPDEST MLOAD CALLVALUE DUP2 MSTORE PUSH1 0x20 DUP2 ADD SWAP3 SWAP1 SWAP3 MSTORE TIMESTAMP PUSH1 0x40 DUP4 ADD MSTORE CALLER SWAP2 DUP1 PUSH1 0x60 DUP2 ADD PUSH2 0xABB JUMP JUMPDEST DUP2 MLOAD RETURNDATASIZE DUP6 DUP3 RETURNDATACOPY RETURNDATASIZE SWAP1 REVERT JUMPDEST POP PUSH2 0x8FC PUSH2 0x2B40 JUMP JUMPDEST PUSH4 0x4E487B71 PUSH1 0xE0 SHL DUP6 MSTORE PUSH1 0x11 DUP7 MSTORE PUSH1 0x24 DUP6 REVERT JUMPDEST DUP4 DUP6 DUP5 CALLVALUE PUSH2 0x32A JUMPI PUSH1 0x20 SWAP1 DUP2 PUSH1 0x3 NOT CALLDATASIZE ADD SLT PUSH2 0x2EA JUMPI CALLDATALOAD SWAP3 DUP4 DUP4 MSTORE PUSH1 0xF DUP3 MSTORE PUSH1 0x1 DUP1 PUSH1 0xA0 SHL SUB DUP2 DUP5 KECCAK256 SLOAD AND SWAP3 PUSH2 0x2C39 DUP5 ISZERO ISZERO PUSH2 0x3574 JUMP JUMPDEST PUSH2 0x2C41 PUSH2 0x414C JUMP JUMPDEST DUP2 SWAP6 DUP3 JUMPDEST DUP7 DUP5 MSTORE PUSH1 0xE DUP1 DUP8 MSTORE DUP6 DUP6 KECCAK256 DUP1 SLOAD DUP4 LT ISZERO PUSH2 0x2CC0 JUMPI PUSH2 0x2C64 DUP4 DUP6 SWAP3 PUSH2 0x2FD1 JUMP JUMPDEST POP SLOAD EQ PUSH2 0x2C7A JUMPI POP PUSH2 0x2C75 SWAP1 PUSH2 0x3558 JUMP JUMPDEST PUSH2 0x2C45 JUMP JUMPDEST PUSH1 0x80 SWAP9 POP PUSH2 0x1145 SWAP4 POP DUP6 SWAP2 SWAP3 POP SWAP4 PUSH2 0x2C97 SWAP5 DUP9 DUP3 MSTORE DUP8 MSTORE KECCAK256 PUSH2 0x2FD1 JUMP JUMPDEST SWAP1 PUSH2 0x2CA2 PUSH1 0x1 PUSH2 0x35B7 JUMP JUMPDEST DUP2 MLOAD SWAP4 DUP2 DUP5 DUP5 ADD MLOAD SWAP4 ADD MLOAD SWAP4 DUP3 MLOAD SWAP6 DUP7 MSTORE DUP6 ADD MSTORE DUP4 ADD MSTORE PUSH1 0x60 DUP3 ADD MSTORE RETURN JUMPDEST POP POP POP POP SWAP2 SWAP1 POP PUSH2 0x2CA2 PUSH1 0x80 SWAP6 PUSH2 0x35B7 JUMP JUMPDEST POP POP SWAP1 CALLVALUE PUSH2 0x2EA JUMPI DUP1 PUSH1 0x3 NOT CALLDATASIZE ADD SLT PUSH2 0x2EA JUMPI PUSH2 0x2CED PUSH2 0x2EC3 JUMP JUMPDEST PUSH1 0x24 CALLDATALOAD SWAP1 PUSH32 0x0 PUSH1 0x1 PUSH1 0x1 PUSH1 0xA0 SHL SUB PUSH2 0x2D27 CALLER DUP3 DUP5 AND EQ PUSH2 0x31B0 JUMP JUMPDEST DUP1 DUP8 SLOAD AND SWAP3 AND SWAP2 DUP3 EQ PUSH2 0x2DE2 JUMPI JUMPDEST DUP4 MLOAD PUSH4 0xA9059CBB PUSH1 0xE0 SHL DUP2 MSTORE PUSH1 0x1 PUSH1 0x1 PUSH1 0xA0 SHL SUB SWAP1 SWAP2 AND DUP6 DUP3 ADD SWAP1 DUP2 MSTORE PUSH1 0x20 DUP2 DUP2 ADD SWAP5 SWAP1 SWAP5 MSTORE SWAP1 SWAP3 SWAP2 DUP4 SWAP2 DUP3 SWAP1 DUP9 SWAP1 DUP3 SWAP1 PUSH1 0x40 ADD SUB SWAP3 GAS CALL SWAP1 DUP2 ISZERO PUSH2 0x2DD8 JUMPI DUP5 SWAP2 PUSH2 0x2DBA JUMPI JUMPDEST POP ISZERO PUSH2 0x2D85 JUMPI DUP3 DUP1 RETURN JUMPDEST SWAP1 PUSH1 0x20 PUSH1 0x64 SWAP3 MLOAD SWAP2 PUSH3 0x461BCD PUSH1 0xE5 SHL DUP4 MSTORE DUP3 ADD MSTORE PUSH1 0xF PUSH1 0x24 DUP3 ADD MSTORE PUSH15 0x151C985B9CD9995C8819985A5B1959 PUSH1 0x8A SHL PUSH1 0x44 DUP3 ADD MSTORE REVERT JUMPDEST PUSH2 0x2DD2 SWAP2 POP PUSH1 0x20 RETURNDATASIZE DUP2 GT PUSH2 0xAE7 JUMPI PUSH2 0xAD9 DUP2 DUP4 PUSH2 0x308B JUMP JUMPDEST CODESIZE PUSH2 0x2D7B JUMP JUMPDEST DUP3 MLOAD RETURNDATASIZE DUP7 DUP3 RETURNDATACOPY RETURNDATASIZE SWAP1 REVERT JUMPDEST DUP4 MLOAD PUSH4 0x70A08231 PUSH1 0xE0 SHL DUP2 MSTORE ADDRESS DUP7 DUP3 ADD MSTORE PUSH1 0x20 DUP2 PUSH1 0x24 DUP2 DUP7 GAS STATICCALL DUP1 ISZERO PUSH2 0x2E94 JUMPI DUP8 SWAP1 PUSH2 0x2E61 JUMPI JUMPDEST PUSH2 0x2E17 SWAP2 POP PUSH1 0x10 SLOAD SWAP1 PUSH2 0x3634 JUMP JUMPDEST DUP4 GT ISZERO PUSH2 0x2D35 JUMPI DUP4 MLOAD PUSH3 0x461BCD PUSH1 0xE5 SHL DUP2 MSTORE PUSH1 0x20 DUP2 DUP8 ADD MSTORE PUSH1 0x1D PUSH1 0x24 DUP3 ADD MSTORE PUSH32 0x43616E6E6F74207769746864726177207374616B656420746F6B656E73000000 PUSH1 0x44 DUP3 ADD MSTORE PUSH1 0x64 SWAP1 REVERT JUMPDEST POP PUSH1 0x20 DUP2 RETURNDATASIZE DUP3 GT PUSH2 0x2E8C JUMPI JUMPDEST DUP2 PUSH2 0x2E7A PUSH1 0x20 SWAP4 DUP4 PUSH2 0x308B JUMP JUMPDEST DUP2 ADD SUB SLT PUSH2 0x1508 JUMPI PUSH2 0x2E17 SWAP1 MLOAD PUSH2 0x2E09 JUMP JUMPDEST RETURNDATASIZE SWAP2 POP PUSH2 0x2E6D JUMP JUMPDEST DUP6 MLOAD RETURNDATASIZE DUP10 DUP3 RETURNDATACOPY RETURNDATASIZE SWAP1 REVERT JUMPDEST DUP6 SWAP1 CALLVALUE PUSH2 0x32A JUMPI DUP2 PUSH1 0x3 NOT CALLDATASIZE ADD SLT PUSH2 0x32A JUMPI PUSH1 0x2 SLOAD PUSH1 0x1 PUSH1 0x1 PUSH1 0xA0 SHL SUB AND DUP2 MSTORE PUSH1 0x20 SWAP1 RETURN JUMPDEST PUSH1 0x4 CALLDATALOAD SWAP1 PUSH1 0x1 PUSH1 0x1 PUSH1 0xA0 SHL SUB DUP3 AND DUP3 SUB PUSH2 0x2ED9 JUMPI JUMP JUMPDEST PUSH1 0x0 DUP1 REVERT JUMPDEST SWAP2 SWAP1 DUP3 MLOAD SWAP3 DUP4 DUP3 MSTORE PUSH1 0x0 JUMPDEST DUP5 DUP2 LT PUSH2 0x2F0A JUMPI POP POP DUP3 PUSH1 0x0 PUSH1 0x20 DUP1 SWAP5 SWAP6 DUP5 ADD ADD MSTORE PUSH1 0x1F DUP1 NOT SWAP2 ADD AND ADD ADD SWAP1 JUMP JUMPDEST PUSH1 0x20 DUP2 DUP4 ADD DUP2 ADD MLOAD DUP5 DUP4 ADD DUP3 ADD MSTORE ADD PUSH2 0x2EE9 JUMP JUMPDEST PUSH1 0x20 DUP1 DUP3 ADD SWAP1 DUP1 DUP4 MSTORE DUP4 MLOAD DUP1 SWAP3 MSTORE PUSH1 0x40 SWAP3 DUP4 DUP2 ADD DUP3 DUP6 DUP6 PUSH1 0x5 SHL DUP5 ADD ADD SWAP7 ADD SWAP5 PUSH1 0x0 SWAP3 JUMPDEST DUP6 DUP5 LT PUSH2 0x2F53 JUMPI POP POP POP POP POP POP POP SWAP1 JUMP JUMPDEST SWAP1 SWAP2 SWAP3 SWAP4 SWAP5 SWAP6 SWAP7 DUP6 DUP1 PUSH2 0x2FC0 PUSH1 0x1 SWAP4 PUSH1 0x3F NOT DUP7 DUP3 SUB ADD DUP9 MSTORE DUP12 MLOAD DUP1 MLOAD DUP3 MSTORE DUP6 DUP1 PUSH1 0xA0 SHL SUB DUP1 DUP6 DUP4 ADD MLOAD AND DUP6 DUP5 ADD MSTORE DUP1 DUP10 DUP4 ADD MLOAD AND DUP10 DUP5 ADD MSTORE PUSH1 0x60 SWAP1 DUP2 DUP4 ADD MLOAD AND SWAP1 DUP4 ADD MSTORE PUSH1 0x80 DUP1 DUP3 ADD MLOAD SWAP1 DUP4 ADD MSTORE PUSH1 0xA0 DUP1 DUP3 ADD MLOAD SWAP1 DUP4 ADD MSTORE PUSH1 0xC0 DUP1 SWAP2 ADD MLOAD SWAP2 PUSH1 0xE0 DUP1 SWAP3 DUP3 ADD MSTORE ADD SWAP1 PUSH2 0x2EDE JUMP JUMPDEST SWAP10 ADD SWAP5 ADD SWAP5 ADD SWAP3 SWAP6 SWAP5 SWAP4 SWAP2 SWAP1 PUSH2 0x2F42 JUMP JUMPDEST DUP1 SLOAD DUP3 LT ISZERO PUSH2 0x2FED JUMPI PUSH1 0x0 MSTORE PUSH1 0x7 PUSH1 0x20 PUSH1 0x0 KECCAK256 SWAP2 MUL ADD SWAP1 PUSH1 0x0 SWAP1 JUMP JUMPDEST PUSH4 0x4E487B71 PUSH1 0xE0 SHL PUSH1 0x0 MSTORE PUSH1 0x32 PUSH1 0x4 MSTORE PUSH1 0x24 PUSH1 0x0 REVERT JUMPDEST SWAP1 PUSH1 0x1 DUP3 DUP2 SHR SWAP3 AND DUP1 ISZERO PUSH2 0x3033 JUMPI JUMPDEST PUSH1 0x20 DUP4 LT EQ PUSH2 0x301D JUMPI JUMP JUMPDEST PUSH4 0x4E487B71 PUSH1 0xE0 SHL PUSH1 0x0 MSTORE PUSH1 0x22 PUSH1 0x4 MSTORE PUSH1 0x24 PUSH1 0x0 REVERT JUMPDEST SWAP2 PUSH1 0x7F AND SWAP2 PUSH2 0x3012 JUMP JUMPDEST PUSH1 0xE0 DUP2 ADD SWAP1 DUP2 LT PUSH8 0xFFFFFFFFFFFFFFFF DUP3 GT OR PUSH2 0x3059 JUMPI PUSH1 0x40 MSTORE JUMP JUMPDEST PUSH4 0x4E487B71 PUSH1 0xE0 SHL PUSH1 0x0 MSTORE PUSH1 0x41 PUSH1 0x4 MSTORE PUSH1 0x24 PUSH1 0x0 REVERT JUMPDEST PUSH1 0x40 DUP2 ADD SWAP1 DUP2 LT PUSH8 0xFFFFFFFFFFFFFFFF DUP3 GT OR PUSH2 0x3059 JUMPI PUSH1 0x40 MSTORE JUMP JUMPDEST SWAP1 PUSH1 0x1F DUP1 NOT SWAP2 ADD AND DUP2 ADD SWAP1 DUP2 LT PUSH8 0xFFFFFFFFFFFFFFFF DUP3 GT OR PUSH2 0x3059 JUMPI PUSH1 0x40 MSTORE JUMP JUMPDEST SWAP1 PUSH1 0x40 MLOAD SWAP2 DUP3 PUSH1 0x0 DUP3 SLOAD SWAP3 PUSH2 0x30C1 DUP5 PUSH2 0x3003 JUMP JUMPDEST SWAP1 DUP2 DUP5 MSTORE PUSH1 0x1 SWAP5 DUP6 DUP2 AND SWAP1 DUP2 PUSH1 0x0 EQ PUSH2 0x3130 JUMPI POP PUSH1 0x1 EQ PUSH2 0x30ED JUMPI JUMPDEST POP POP PUSH2 0x30EB SWAP3 POP SUB DUP4 PUSH2 0x308B JUMP JUMPDEST JUMP JUMPDEST SWAP1 SWAP4 SWAP2 POP PUSH1 0x0 MSTORE PUSH1 0x20 SWAP1 DUP2 PUSH1 0x0 KECCAK256 SWAP4 PUSH1 0x0 SWAP2 JUMPDEST DUP2 DUP4 LT PUSH2 0x3118 JUMPI POP POP PUSH2 0x30EB SWAP4 POP DUP3 ADD ADD CODESIZE DUP1 PUSH2 0x30DD JUMP JUMPDEST DUP6 SLOAD DUP9 DUP5 ADD DUP6 ADD MSTORE SWAP5 DUP6 ADD SWAP5 DUP8 SWAP5 POP SWAP2 DUP4 ADD SWAP2 PUSH2 0x3100 JUMP JUMPDEST SWAP2 POP POP PUSH2 0x30EB SWAP5 POP PUSH1 0x20 SWAP3 POP PUSH1 0xFF NOT AND DUP3 DUP5 ADD MSTORE ISZERO ISZERO PUSH1 0x5 SHL DUP3 ADD ADD CODESIZE DUP1 PUSH2 0x30DD JUMP JUMPDEST SWAP4 PUSH1 0xE0 SWAP6 SWAP3 PUSH2 0x3195 SWAP9 SWAP8 SWAP5 SWAP3 DUP7 MSTORE PUSH1 0x1 DUP1 PUSH1 0xA0 SHL SUB SWAP3 DUP4 DUP1 SWAP3 AND PUSH1 0x20 DUP9 ADD MSTORE AND PUSH1 0x40 DUP7 ADD MSTORE AND PUSH1 0x60 DUP5 ADD MSTORE PUSH1 0x80 DUP4 ADD MSTORE PUSH1 0xA0 DUP3 ADD MSTORE DUP2 PUSH1 0xC0 DUP3 ADD MSTORE ADD SWAP1 PUSH2 0x2EDE JUMP JUMPDEST SWAP1 JUMP JUMPDEST DUP1 SLOAD DUP3 LT ISZERO PUSH2 0x2FED JUMPI PUSH1 0x0 MSTORE PUSH1 0x20 PUSH1 0x0 KECCAK256 ADD SWAP1 PUSH1 0x0 SWAP1 JUMP JUMPDEST ISZERO PUSH2 0x31B7 JUMPI JUMP JUMPDEST PUSH1 0x40 MLOAD PUSH3 0x461BCD PUSH1 0xE5 SHL DUP2 MSTORE PUSH1 0x20 PUSH1 0x4 DUP3 ADD MSTORE PUSH1 0xA PUSH1 0x24 DUP3 ADD MSTORE PUSH10 0x27B7363C9037BBB732B9 PUSH1 0xB1 SHL PUSH1 0x44 DUP3 ADD MSTORE PUSH1 0x64 SWAP1 REVERT JUMPDEST ISZERO PUSH2 0x31F0 JUMPI JUMP JUMPDEST PUSH1 0x40 MLOAD PUSH3 0x461BCD PUSH1 0xE5 SHL DUP2 MSTORE PUSH1 0x20 PUSH1 0x4 DUP3 ADD MSTORE PUSH1 0xD PUSH1 0x24 DUP3 ADD MSTORE PUSH13 0x496E76616C6964207072696365 PUSH1 0x98 SHL PUSH1 0x44 DUP3 ADD MSTORE PUSH1 0x64 SWAP1 REVERT JUMPDEST ISZERO PUSH2 0x322C JUMPI JUMP JUMPDEST PUSH1 0x40 MLOAD PUSH3 0x461BCD PUSH1 0xE5 SHL DUP2 MSTORE PUSH1 0x20 PUSH1 0x4 DUP3 ADD MSTORE PUSH1 0xF PUSH1 0x24 DUP3 ADD MSTORE PUSH15 0x496E76616C69642061646472657373 PUSH1 0x88 SHL PUSH1 0x44 DUP3 ADD MSTORE PUSH1 0x64 SWAP1 REVERT JUMPDEST ISZERO PUSH2 0x326A JUMPI JUMP JUMPDEST PUSH1 0x40 MLOAD PUSH3 0x461BCD PUSH1 0xE5 SHL DUP2 MSTORE PUSH1 0x20 PUSH1 0x4 DUP3 ADD MSTORE PUSH1 0xD PUSH1 0x24 DUP3 ADD MSTORE PUSH13 0x496E76616C696420726174696F PUSH1 0x98 SHL PUSH1 0x44 DUP3 ADD MSTORE PUSH1 0x64 SWAP1 REVERT JUMPDEST ISZERO PUSH2 0x32A6 JUMPI JUMP JUMPDEST PUSH1 0x40 MLOAD PUSH3 0x461BCD PUSH1 0xE5 SHL DUP2 MSTORE PUSH1 0x20 PUSH1 0x4 DUP3 ADD MSTORE PUSH1 0x12 PUSH1 0x24 DUP3 ADD MSTORE PUSH18 0x1059191C995CDCC81A5CC8189B1BD8DAD959 PUSH1 0x72 SHL PUSH1 0x44 DUP3 ADD MSTORE PUSH1 0x64 SWAP1 REVERT JUMPDEST ISZERO PUSH2 0x32E7 JUMPI JUMP JUMPDEST PUSH1 0x40 MLOAD PUSH3 0x461BCD PUSH1 0xE5 SHL DUP2 MSTORE PUSH1 0x20 PUSH1 0x4 DUP3 ADD MSTORE PUSH1 0xD PUSH1 0x24 DUP3 ADD MSTORE PUSH13 0x9AEAE6E840E6CADCC8408AA89 PUSH1 0x9B SHL PUSH1 0x44 DUP3 ADD MSTORE PUSH1 0x64 SWAP1 REVERT JUMPDEST ISZERO PUSH2 0x3323 JUMPI JUMP JUMPDEST PUSH1 0x40 MLOAD PUSH3 0x461BCD PUSH1 0xE5 SHL DUP2 MSTORE PUSH1 0x20 PUSH1 0x4 DUP3 ADD MSTORE PUSH1 0x12 PUSH1 0x24 DUP3 ADD MSTORE PUSH18 0x14D85B19481D1BDAD95B881B9BDD081CD95D PUSH1 0x72 SHL PUSH1 0x44 DUP3 ADD MSTORE PUSH1 0x64 SWAP1 REVERT JUMPDEST DUP2 DUP2 MUL SWAP3 SWAP2 DUP2 ISZERO SWAP2 DUP5 DIV EQ OR ISZERO PUSH2 0x3370 JUMPI JUMP JUMPDEST PUSH4 0x4E487B71 PUSH1 0xE0 SHL PUSH1 0x0 MSTORE PUSH1 0x11 PUSH1 0x4 MSTORE PUSH1 0x24 PUSH1 0x0 REVERT JUMPDEST DUP2 ISZERO PUSH2 0x3390 JUMPI DIV SWAP1 JUMP JUMPDEST PUSH4 0x4E487B71 PUSH1 0xE0 SHL PUSH1 0x0 MSTORE PUSH1 0x12 PUSH1 0x4 MSTORE PUSH1 0x24 PUSH1 0x0 REVERT JUMPDEST ISZERO PUSH2 0x33AD JUMPI JUMP JUMPDEST PUSH1 0x40 MLOAD PUSH3 0x461BCD PUSH1 0xE5 SHL DUP2 MSTORE PUSH1 0x20 PUSH1 0x4 DUP3 ADD MSTORE PUSH1 0x1D PUSH1 0x24 DUP3 ADD MSTORE PUSH32 0x416D6F756E74206D7573742062652067726561746572207468616E2030000000 PUSH1 0x44 DUP3 ADD MSTORE PUSH1 0x64 SWAP1 REVERT JUMPDEST ISZERO PUSH2 0x33F9 JUMPI JUMP JUMPDEST PUSH1 0x40 MLOAD PUSH3 0x461BCD PUSH1 0xE5 SHL DUP2 MSTORE PUSH1 0x20 PUSH1 0x4 DUP3 ADD MSTORE PUSH1 0x13 PUSH1 0x24 DUP3 ADD MSTORE PUSH19 0x1554D115081B9BDD0818DBDB999A59DD5C9959 PUSH1 0x6A SHL PUSH1 0x44 DUP3 ADD MSTORE PUSH1 0x64 SWAP1 REVERT JUMPDEST SWAP1 DUP2 PUSH1 0x20 SWAP2 SUB SLT PUSH2 0x2ED9 JUMPI MLOAD DUP1 ISZERO ISZERO DUP2 SUB PUSH2 0x2ED9 JUMPI SWAP1 JUMP JUMPDEST ISZERO PUSH2 0x3453 JUMPI JUMP JUMPDEST PUSH1 0x40 MLOAD PUSH3 0x461BCD PUSH1 0xE5 SHL DUP2 MSTORE PUSH1 0x20 PUSH1 0x4 DUP3 ADD MSTORE PUSH1 0x14 PUSH1 0x24 DUP3 ADD MSTORE PUSH20 0x1554D115081D1C985B9CD9995C8819985A5B1959 PUSH1 0x62 SHL PUSH1 0x44 DUP3 ADD MSTORE PUSH1 0x64 SWAP1 REVERT JUMPDEST ISZERO PUSH2 0x3496 JUMPI JUMP JUMPDEST PUSH1 0x40 MLOAD PUSH3 0x461BCD PUSH1 0xE5 SHL DUP2 MSTORE PUSH1 0x20 PUSH1 0x4 DUP3 ADD MSTORE PUSH1 0x13 PUSH1 0x24 DUP3 ADD MSTORE PUSH19 0x1554D110C81B9BDD0818DBDB999A59DD5C9959 PUSH1 0x6A SHL PUSH1 0x44 DUP3 ADD MSTORE PUSH1 0x64 SWAP1 REVERT JUMPDEST ISZERO PUSH2 0x34D8 JUMPI JUMP JUMPDEST PUSH1 0x40 MLOAD PUSH3 0x461BCD PUSH1 0xE5 SHL DUP2 MSTORE PUSH1 0x20 PUSH1 0x4 DUP3 ADD MSTORE PUSH1 0x14 PUSH1 0x24 DUP3 ADD MSTORE PUSH20 0x1554D110C81D1C985B9CD9995C8819985A5B1959 PUSH1 0x62 SHL PUSH1 0x44 DUP3 ADD MSTORE PUSH1 0x64 SWAP1 REVERT JUMPDEST ISZERO PUSH2 0x351B JUMPI JUMP JUMPDEST PUSH1 0x40 MLOAD PUSH3 0x461BCD PUSH1 0xE5 SHL DUP2 MSTORE PUSH1 0x20 PUSH1 0x4 DUP3 ADD MSTORE PUSH1 0x15 PUSH1 0x24 DUP3 ADD MSTORE PUSH21 0x151BDAD95B881D1C985B9CD9995C8819985A5B1959 PUSH1 0x5A SHL PUSH1 0x44 DUP3 ADD MSTORE PUSH1 0x64 SWAP1 REVERT JUMPDEST PUSH1 0x0 NOT DUP2 EQ PUSH2 0x3370 JUMPI PUSH1 0x1 ADD SWAP1 JUMP JUMPDEST SWAP2 SWAP1 DUP3 ADD DUP1 SWAP3 GT PUSH2 0x3370 JUMPI JUMP JUMPDEST ISZERO PUSH2 0x357B JUMPI JUMP JUMPDEST PUSH1 0x40 MLOAD PUSH3 0x461BCD PUSH1 0xE5 SHL DUP2 MSTORE PUSH1 0x20 PUSH1 0x4 DUP3 ADD MSTORE PUSH1 0x14 PUSH1 0x24 DUP3 ADD MSTORE PUSH20 0x14DD185AD948191BD95CC81B9BDD08195E1A5CDD PUSH1 0x62 SHL PUSH1 0x44 DUP3 ADD MSTORE PUSH1 0x64 SWAP1 REVERT JUMPDEST ISZERO PUSH2 0x35BE JUMPI JUMP JUMPDEST PUSH1 0x40 MLOAD PUSH3 0x461BCD PUSH1 0xE5 SHL DUP2 MSTORE PUSH1 0x20 PUSH1 0x4 DUP3 ADD MSTORE PUSH1 0xF PUSH1 0x24 DUP3 ADD MSTORE PUSH15 0x14DD185AD9481B9BDD08199BDD5B99 PUSH1 0x8A SHL PUSH1 0x44 DUP3 ADD MSTORE PUSH1 0x64 SWAP1 REVERT JUMPDEST ISZERO PUSH2 0x35FC JUMPI JUMP JUMPDEST PUSH1 0x40 MLOAD PUSH3 0x461BCD PUSH1 0xE5 SHL DUP2 MSTORE PUSH1 0x20 PUSH1 0x4 DUP3 ADD MSTORE PUSH1 0x10 PUSH1 0x24 DUP3 ADD MSTORE PUSH16 0x5374616B65206E6F7420616374697665 PUSH1 0x80 SHL PUSH1 0x44 DUP3 ADD MSTORE PUSH1 0x64 SWAP1 REVERT JUMPDEST SWAP2 SWAP1 DUP3 SUB SWAP2 DUP3 GT PUSH2 0x3370 JUMPI JUMP JUMPDEST PUSH1 0x0 DUP2 DUP2 MSTORE PUSH1 0xF PUSH1 0x20 SWAP1 DUP2 MSTORE PUSH1 0x40 DUP1 DUP4 KECCAK256 SLOAD PUSH1 0x1 PUSH1 0x1 PUSH1 0xA0 SHL SUB AND SWAP1 PUSH2 0x3668 DUP3 ISZERO ISZERO PUSH2 0x3574 JUMP JUMPDEST SWAP3 SWAP4 DUP5 SWAP4 SWAP1 DUP5 SWAP1 DUP2 DUP1 DUP1 DUP1 DUP1 JUMPDEST DUP9 DUP12 MSTORE PUSH1 0xE DUP1 DUP12 MSTORE DUP9 DUP13 KECCAK256 DUP1 SLOAD DUP4 LT ISZERO PUSH2 0x3836 JUMPI PUSH2 0x3694 DUP4 DUP10 SWAP3 PUSH2 0x2FD1 JUMP JUMPDEST POP SLOAD EQ PUSH2 0x36AA JUMPI POP PUSH2 0x36A5 SWAP1 PUSH2 0x3558 JUMP JUMPDEST PUSH2 0x3675 JUMP JUMPDEST SWAP7 POP SWAP11 POP POP POP POP POP POP DUP3 DUP6 MSTORE DUP1 DUP5 MSTORE DUP6 DUP3 DUP7 KECCAK256 SWAP1 PUSH2 0x36C7 SWAP2 PUSH2 0x2FD1 JUMP JUMPDEST POP PUSH1 0x5 ADD SLOAD SWAP6 DUP4 DUP7 MSTORE DUP2 DUP6 MSTORE DUP1 DUP4 DUP8 KECCAK256 SWAP1 PUSH2 0x36E1 SWAP2 PUSH2 0x2FD1 JUMP JUMPDEST POP PUSH1 0x4 ADD SLOAD SWAP3 DUP5 DUP8 MSTORE DUP3 DUP7 MSTORE DUP2 DUP2 DUP9 KECCAK256 SWAP1 PUSH2 0x36FB SWAP2 PUSH2 0x2FD1 JUMP JUMPDEST POP SWAP3 PUSH1 0x1 DUP1 SWAP5 ADD SLOAD SWAP7 DUP7 DUP10 MSTORE DUP2 DUP2 MSTORE DUP4 DUP4 DUP11 KECCAK256 SWAP1 PUSH2 0x3718 SWAP2 PUSH2 0x2FD1 JUMP JUMPDEST POP PUSH1 0x3 ADD SLOAD SWAP7 DUP10 MSTORE MSTORE DUP7 KECCAK256 SWAP1 PUSH2 0x372D SWAP2 PUSH2 0x2FD1 JUMP JUMPDEST POP PUSH1 0x6 ADD SLOAD PUSH1 0xFF AND PUSH2 0x3741 PUSH2 0x3746 SWAP3 PUSH2 0x35B7 JUMP JUMPDEST PUSH2 0x35F5 JUMP JUMPDEST TIMESTAMP DUP2 EQ PUSH2 0x382F JUMPI PUSH2 0x3757 SWAP1 TIMESTAMP PUSH2 0x3634 JUMP JUMPDEST SWAP3 PUSH1 0xC SLOAD DUP1 SWAP3 PUSH1 0x5A DUP2 EQ PUSH1 0x0 EQ PUSH2 0x37B5 JUMPI POP POP PUSH1 0x3 DUP3 MUL SWAP2 DUP1 DUP4 DIV PUSH1 0x3 EQ SWAP1 ISZERO OR ISZERO PUSH2 0x37A1 JUMPI POP PUSH2 0x3195 SWAP4 SWAP3 PUSH2 0x3795 PUSH4 0xBBF81E00 SWAP4 PUSH2 0x379A SWAP4 PUSH1 0x1 SHR SWAP1 JUMPDEST PUSH2 0x335D JUMP JUMPDEST DIV SWAP1 PUSH2 0x3567 JUMP JUMPDEST PUSH4 0x4E487B71 PUSH1 0xE0 SHL DUP2 MSTORE PUSH1 0x11 PUSH1 0x4 MSTORE PUSH1 0x24 SWAP1 REVERT JUMPDEST PUSH1 0xB4 DUP2 SUB PUSH2 0x37EB JUMPI POP POP DUP2 PUSH1 0x1 SHL SWAP2 DUP1 DUP4 DIV PUSH1 0x2 EQ SWAP1 ISZERO OR ISZERO PUSH2 0x37A1 JUMPI POP PUSH2 0x3195 SWAP4 SWAP3 PUSH2 0x3795 PUSH4 0xBBF81E00 SWAP4 PUSH2 0x379A SWAP4 SWAP1 PUSH2 0x335D JUMP JUMPDEST PUSH2 0x16D SWAP2 SWAP5 SWAP4 POP EQ PUSH2 0x3810 JUMPI JUMPDEST POP PUSH2 0x3195 SWAP4 SWAP3 PUSH2 0x3795 PUSH4 0xBBF81E00 SWAP4 PUSH2 0x379A SWAP4 PUSH2 0x335D JUMP JUMPDEST PUSH1 0x3 DUP4 SWAP3 SWAP4 MUL SWAP2 DUP1 DUP4 DIV PUSH1 0x3 EQ SWAP1 ISZERO OR ISZERO PUSH2 0x37A1 JUMPI POP SWAP1 PUSH2 0x3195 PUSH2 0x37F8 JUMP JUMPDEST POP POP POP POP SWAP1 JUMP JUMPDEST POP POP POP SWAP7 POP SWAP7 POP SWAP8 SWAP4 POP PUSH2 0x3746 SWAP3 SWAP2 POP PUSH2 0x3741 SWAP1 PUSH2 0x35B7 JUMP JUMPDEST ISZERO PUSH2 0x3856 JUMPI JUMP JUMPDEST PUSH1 0x40 MLOAD PUSH3 0x461BCD PUSH1 0xE5 SHL DUP2 MSTORE PUSH1 0x20 PUSH1 0x4 DUP3 ADD MSTORE PUSH1 0xF PUSH1 0x24 DUP3 ADD MSTORE PUSH15 0x2737BA1039BA30B5B29037BBB732B9 PUSH1 0x89 SHL PUSH1 0x44 DUP3 ADD MSTORE PUSH1 0x64 SWAP1 REVERT JUMPDEST PUSH1 0x0 CALLER DUP2 MSTORE PUSH1 0x20 PUSH1 0x16 DUP2 MSTORE PUSH1 0x1 DUP1 PUSH1 0xA0 SHL SUB SWAP1 PUSH1 0x40 DUP3 DUP2 DUP6 KECCAK256 SLOAD AND SWAP3 DUP4 ISZERO ISZERO DUP1 PUSH2 0x39F9 JUMPI JUMPDEST PUSH2 0x38BE JUMPI POP POP POP POP POP SWAP1 JUMP JUMPDEST PUSH1 0x64 PUSH2 0x38CC PUSH1 0x15 SLOAD DUP9 PUSH2 0x335D JUMP JUMPDEST DUP7 SLOAD DUP5 MLOAD PUSH4 0xA9059CBB PUSH1 0xE0 SHL DUP2 MSTORE PUSH1 0x1 PUSH1 0x1 PUSH1 0xA0 SHL SUB DUP9 AND PUSH1 0x4 DUP3 ADD MSTORE SWAP3 SWAP1 SWAP2 DIV PUSH1 0x24 DUP4 ADD DUP2 SWAP1 MSTORE SWAP7 SWAP2 SWAP1 DUP6 SWAP1 DUP3 SWAP1 PUSH1 0x44 SWAP1 DUP3 SWAP1 DUP7 SWAP1 DUP9 AND GAS CALL SWAP1 DUP2 ISZERO PUSH2 0x39EF JUMPI DUP3 SWAP2 PUSH2 0x39D2 JUMPI JUMPDEST POP ISZERO PUSH2 0x398E JUMPI PUSH32 0x94CCB86446750660EC532B1BEB1FB55F5BA2FFFCA042C4C53F4C080E72595B38 SWAP4 SWAP3 SWAP2 DUP2 DUP7 PUSH2 0x3984 SWAP4 MSTORE PUSH1 0x18 DUP6 MSTORE DUP4 DUP2 KECCAK256 PUSH2 0x3957 DUP10 DUP3 SLOAD PUSH2 0x3567 JUMP JUMPDEST SWAP1 SSTORE SLOAD AND DUP7 DUP9 DUP5 MLOAD SWAP3 PUSH2 0x3969 DUP5 PUSH2 0x306F JUMP JUMPDEST PUSH1 0x8 DUP5 MSTORE PUSH8 0x1491519154949053 PUSH1 0xC2 SHL DUP8 DUP6 ADD MSTORE DUP1 DUP10 PUSH2 0x4083 JUMP JUMPDEST MLOAD SWAP4 DUP5 MSTORE CALLER SWAP4 LOG3 SWAP1 JUMP JUMPDEST DUP3 MLOAD PUSH3 0x461BCD PUSH1 0xE5 SHL DUP2 MSTORE PUSH1 0x4 DUP2 ADD DUP6 SWAP1 MSTORE PUSH1 0x1F PUSH1 0x24 DUP3 ADD MSTORE PUSH32 0x526566657272616C20726577617264207472616E73666572206661696C656400 PUSH1 0x44 DUP3 ADD MSTORE PUSH1 0x64 SWAP1 REVERT JUMPDEST PUSH2 0x39E9 SWAP2 POP DUP6 RETURNDATASIZE DUP8 GT PUSH2 0xAE7 JUMPI PUSH2 0xAD9 DUP2 DUP4 PUSH2 0x308B JUMP JUMPDEST CODESIZE PUSH2 0x3914 JUMP JUMPDEST DUP5 MLOAD RETURNDATASIZE DUP5 DUP3 RETURNDATACOPY RETURNDATASIZE SWAP1 REVERT JUMPDEST POP DUP4 DUP6 MSTORE PUSH1 0x8 DUP4 MSTORE PUSH1 0xFF DUP3 DUP7 KECCAK256 SLOAD AND ISZERO PUSH2 0x38B2 JUMP JUMPDEST PUSH1 0x0 SWAP1 DUP2 JUMPDEST PUSH1 0x1 PUSH1 0x1 PUSH1 0xA0 SHL SUB DUP3 AND PUSH1 0x0 SWAP1 DUP2 MSTORE PUSH1 0xE PUSH1 0x20 MSTORE PUSH1 0x40 SWAP1 KECCAK256 DUP1 SLOAD DUP3 LT ISZERO PUSH2 0x3ABF JUMPI PUSH1 0x6 PUSH2 0x3A42 DUP4 PUSH1 0xFF SWAP4 PUSH2 0x2FD1 JUMP JUMPDEST POP ADD SLOAD AND PUSH2 0x3A58 JUMPI PUSH2 0x3A53 SWAP1 PUSH2 0x3558 JUMP JUMPDEST PUSH2 0x3A13 JUMP JUMPDEST POP SWAP1 POP PUSH1 0x1 JUMPDEST ISZERO DUP1 PUSH2 0x3A9D JUMPI JUMPDEST PUSH2 0x3A6C JUMPI POP JUMP JUMPDEST PUSH1 0x1 PUSH1 0x1 PUSH1 0xA0 SHL SUB AND PUSH1 0x0 SWAP1 DUP2 MSTORE PUSH1 0x14 PUSH1 0x20 MSTORE PUSH1 0x40 SWAP1 KECCAK256 DUP1 SLOAD PUSH1 0xFF NOT AND SWAP1 SSTORE PUSH1 0x12 SLOAD DUP1 ISZERO PUSH2 0x3370 JUMPI PUSH1 0x0 NOT ADD PUSH1 0x12 SSTORE JUMP JUMPDEST POP PUSH1 0x1 PUSH1 0x1 PUSH1 0xA0 SHL SUB DUP2 AND PUSH1 0x0 SWAP1 DUP2 MSTORE PUSH1 0x14 PUSH1 0x20 MSTORE PUSH1 0x40 SWAP1 KECCAK256 SLOAD PUSH1 0xFF AND PUSH2 0x3A65 JUMP JUMPDEST POP POP SWAP1 PUSH2 0x3A5E JUMP JUMPDEST PUSH1 0x0 DUP1 SLOAD PUSH1 0x40 MLOAD PUSH4 0x70A08231 PUSH1 0xE0 SHL DUP2 MSTORE ADDRESS PUSH1 0x4 DUP3 ADD MSTORE SWAP2 SWAP4 SWAP3 SWAP2 PUSH1 0x20 SWAP2 PUSH1 0x1 PUSH1 0x1 PUSH1 0xA0 SHL SUB AND SWAP1 DUP3 DUP2 PUSH1 0x24 DUP2 DUP6 GAS STATICCALL DUP1 ISZERO PUSH2 0x3C02 JUMPI DUP5 SWAP2 DUP8 SWAP2 PUSH2 0x3BCD JUMPI JUMPDEST POP LT PUSH2 0x3B88 JUMPI PUSH1 0x40 MLOAD PUSH4 0xA9059CBB PUSH1 0xE0 SHL DUP2 MSTORE CALLER PUSH1 0x4 DUP3 ADD MSTORE PUSH1 0x24 DUP2 ADD DUP5 SWAP1 MSTORE SWAP1 DUP3 SWAP1 DUP3 SWAP1 PUSH1 0x44 SWAP1 DUP3 SWAP1 DUP10 SWAP1 GAS CALL SWAP2 DUP3 ISZERO PUSH2 0x3B7D JUMPI SWAP1 PUSH2 0x3B53 SWAP3 SWAP2 PUSH2 0x3B5B SWAP6 SWAP7 SWAP3 PUSH2 0x3B60 JUMPI JUMPDEST POP POP PUSH2 0x3514 JUMP JUMPDEST PUSH1 0x7 SLOAD PUSH2 0x3567 JUMP JUMPDEST PUSH1 0x7 SSTORE JUMP JUMPDEST PUSH2 0x3B76 SWAP3 POP DUP1 RETURNDATASIZE LT PUSH2 0xAE7 JUMPI PUSH2 0xAD9 DUP2 DUP4 PUSH2 0x308B JUMP JUMPDEST CODESIZE DUP1 PUSH2 0x3B4C JUMP JUMPDEST PUSH1 0x40 MLOAD RETURNDATASIZE DUP8 DUP3 RETURNDATACOPY RETURNDATASIZE SWAP1 REVERT JUMPDEST PUSH1 0x40 MLOAD PUSH3 0x461BCD PUSH1 0xE5 SHL DUP2 MSTORE PUSH1 0x4 DUP2 ADD DUP4 SWAP1 MSTORE PUSH1 0x1A PUSH1 0x24 DUP3 ADD MSTORE PUSH32 0x496E73756666696369656E7420746F6B656E2062616C616E6365000000000000 PUSH1 0x44 DUP3 ADD MSTORE PUSH1 0x64 SWAP1 REVERT JUMPDEST DUP1 SWAP3 POP DUP5 DUP1 SWAP3 POP RETURNDATASIZE DUP4 GT PUSH2 0x3BFB JUMPI JUMPDEST PUSH2 0x3BE6 DUP2 DUP4 PUSH2 0x308B JUMP JUMPDEST DUP2 ADD SUB SLT PUSH2 0x3BF7 JUMPI DUP4 SWAP1 MLOAD CODESIZE PUSH2 0x3B06 JUMP JUMPDEST DUP6 DUP1 REVERT JUMPDEST POP RETURNDATASIZE PUSH2 0x3BDC JUMP JUMPDEST PUSH1 0x40 MLOAD RETURNDATASIZE DUP9 DUP3 RETURNDATACOPY RETURNDATASIZE SWAP1 REVERT JUMPDEST PUSH1 0xA SLOAD PUSH1 0x1 PUSH1 0x40 SHL DUP2 LT ISZERO PUSH2 0x3059 JUMPI PUSH1 0x1 SWAP1 DUP2 DUP2 ADD DUP1 PUSH1 0xA SSTORE DUP2 LT ISZERO PUSH2 0x2FED JUMPI PUSH1 0x7 PUSH1 0x0 SWAP2 PUSH1 0xA DUP4 MSTORE MUL SWAP2 DUP4 MLOAD DUP4 PUSH32 0xC65A7BB8D6351C1CF70C95A316CC6A92839C986682D98BC35F958F4883F9D2A8 ADD SSTORE PUSH1 0xC0 PUSH32 0xC65A7BB8D6351C1CF70C95A316CC6A92839C986682D98BC35F958F4883F9D2AE PUSH32 0xC65A7BB8D6351C1CF70C95A316CC6A92839C986682D98BC35F958F4883F9D2A9 DUP6 ADD SWAP5 PUSH1 0x1 DUP1 PUSH1 0xA0 SHL SUB PUSH1 0x20 SWAP7 DUP2 DUP9 DUP11 ADD MLOAD AND SWAP1 PUSH1 0x1 PUSH1 0x1 PUSH1 0x60 SHL SUB PUSH1 0xA0 SHL SWAP2 DUP3 DUP3 SLOAD AND OR SWAP1 SSTORE PUSH32 0xC65A7BB8D6351C1CF70C95A316CC6A92839C986682D98BC35F958F4883F9D2AA DUP4 ADD DUP3 PUSH1 0x40 DUP12 ADD MLOAD AND DUP3 DUP3 SLOAD AND OR SWAP1 SSTORE PUSH32 0xC65A7BB8D6351C1CF70C95A316CC6A92839C986682D98BC35F958F4883F9D2AB DUP4 ADD SWAP2 PUSH1 0x60 DUP11 ADD MLOAD AND SWAP1 DUP3 SLOAD AND OR SWAP1 SSTORE PUSH1 0x80 DUP8 ADD MLOAD PUSH32 0xC65A7BB8D6351C1CF70C95A316CC6A92839C986682D98BC35F958F4883F9D2AC DUP3 ADD SSTORE PUSH1 0xA0 DUP8 ADD MLOAD PUSH32 0xC65A7BB8D6351C1CF70C95A316CC6A92839C986682D98BC35F958F4883F9D2AD DUP3 ADD SSTORE ADD SWAP5 ADD MLOAD SWAP2 DUP3 MLOAD SWAP3 PUSH8 0xFFFFFFFFFFFFFFFF DUP5 GT PUSH2 0x3E85 JUMPI PUSH2 0x3D9E DUP7 SLOAD PUSH2 0x3003 JUMP JUMPDEST PUSH1 0x1F DUP2 GT PUSH2 0x3E3F JUMPI JUMPDEST POP DUP5 SWAP2 PUSH1 0x1F DUP6 GT PUSH1 0x1 EQ PUSH2 0x3DE0 JUMPI SWAP4 SWAP5 POP DUP5 SWAP3 SWAP2 SWAP1 DUP4 PUSH2 0x3DD5 JUMPI JUMPDEST POP POP SHL SWAP2 PUSH1 0x0 NOT SWAP1 PUSH1 0x3 SHL SHR NOT AND OR SWAP1 SSTORE JUMP JUMPDEST ADD MLOAD SWAP3 POP CODESIZE DUP1 PUSH2 0x3DC2 JUMP JUMPDEST DUP7 DUP2 MSTORE DUP6 DUP2 KECCAK256 SWAP4 SWAP6 DUP6 SWAP2 PUSH1 0x1F NOT DUP4 AND SWAP2 JUMPDEST DUP9 DUP4 DUP4 LT PUSH2 0x3E25 JUMPI POP POP POP LT PUSH2 0x3E0C JUMPI JUMPDEST POP POP POP DUP2 SHL ADD SWAP1 SSTORE JUMP JUMPDEST ADD MLOAD PUSH1 0x0 NOT PUSH1 0xF8 DUP5 PUSH1 0x3 SHL AND SHR NOT AND SWAP1 SSTORE CODESIZE DUP1 DUP1 PUSH2 0x3E02 JUMP JUMPDEST DUP6 DUP8 ADD MLOAD DUP9 SSTORE SWAP1 SWAP7 ADD SWAP6 SWAP5 DUP6 ADD SWAP5 DUP8 SWAP4 POP SWAP1 DUP2 ADD SWAP1 PUSH2 0x3DF1 JUMP JUMPDEST DUP7 DUP4 MSTORE DUP6 DUP4 KECCAK256 PUSH1 0x1F DUP7 ADD PUSH1 0x5 SHR DUP2 ADD SWAP2 DUP8 DUP8 LT PUSH2 0x3E7B JUMPI JUMPDEST PUSH1 0x1F ADD PUSH1 0x5 SHR ADD SWAP1 DUP5 SWAP1 JUMPDEST DUP3 DUP2 LT PUSH2 0x3E70 JUMPI POP POP PUSH2 0x3DA7 JUMP JUMPDEST DUP5 DUP2 SSTORE ADD DUP5 SWAP1 PUSH2 0x3E62 JUMP JUMPDEST SWAP1 SWAP2 POP DUP2 SWAP1 PUSH2 0x3E57 JUMP JUMPDEST PUSH4 0x4E487B71 PUSH1 0xE0 SHL DUP3 MSTORE PUSH1 0x41 PUSH1 0x4 MSTORE PUSH1 0x24 DUP3 REVERT JUMPDEST DUP1 SLOAD PUSH1 0x1 PUSH1 0x40 SHL DUP2 LT ISZERO PUSH2 0x3059 JUMPI PUSH2 0x3EB8 SWAP1 PUSH1 0x1 SWAP3 DUP4 DUP3 ADD DUP2 SSTORE PUSH2 0x2FD1 JUMP JUMPDEST PUSH2 0x400E JUMPI DUP3 MLOAD DUP2 SSTORE PUSH1 0xC0 PUSH1 0x6 DUP4 DUP4 ADD SWAP3 PUSH1 0x1 DUP1 PUSH1 0xA0 SHL SUB PUSH1 0x20 SWAP5 DUP2 DUP7 DUP10 ADD MLOAD AND SWAP1 PUSH1 0x1 PUSH1 0x1 PUSH1 0x60 SHL SUB PUSH1 0xA0 SHL SWAP2 DUP3 DUP3 SLOAD AND OR SWAP1 SSTORE PUSH1 0x2 DUP4 ADD DUP3 PUSH1 0x40 DUP11 ADD MLOAD AND DUP3 DUP3 SLOAD AND OR SWAP1 SSTORE PUSH1 0x3 DUP4 ADD SWAP2 PUSH1 0x60 DUP10 ADD MLOAD AND SWAP1 DUP3 SLOAD AND OR SWAP1 SSTORE PUSH1 0x80 DUP7 ADD MLOAD PUSH1 0x4 DUP3 ADD SSTORE PUSH1 0xA0 DUP7 ADD MLOAD PUSH1 0x5 DUP3 ADD SSTORE ADD SWAP4 ADD MLOAD SWAP1 DUP2 MLOAD SWAP2 PUSH8 0xFFFFFFFFFFFFFFFF DUP4 GT PUSH2 0x3059 JUMPI PUSH2 0x3F45 DUP6 SLOAD PUSH2 0x3003 JUMP JUMPDEST PUSH1 0x1F DUP2 GT PUSH2 0x3FC5 JUMPI JUMPDEST POP DUP2 PUSH1 0x1F DUP5 GT PUSH1 0x1 EQ PUSH2 0x3F7C JUMPI POP SWAP3 DUP3 SWAP4 SWAP2 DUP4 SWAP3 PUSH1 0x0 SWAP5 PUSH2 0x3DD5 JUMPI POP POP SHL SWAP2 PUSH1 0x0 NOT SWAP1 PUSH1 0x3 SHL SHR NOT AND OR SWAP1 SSTORE JUMP JUMPDEST SWAP2 SWAP1 DUP4 PUSH1 0x1F NOT DUP2 AND DUP8 PUSH1 0x0 MSTORE DUP5 PUSH1 0x0 KECCAK256 SWAP5 PUSH1 0x0 SWAP1 JUMPDEST DUP9 DUP4 DUP4 LT PUSH2 0x3FAB JUMPI POP POP POP LT PUSH2 0x3E0C JUMPI POP POP POP DUP2 SHL ADD SWAP1 SSTORE JUMP JUMPDEST DUP6 DUP8 ADD MLOAD DUP9 SSTORE SWAP1 SWAP7 ADD SWAP6 SWAP5 DUP6 ADD SWAP5 DUP8 SWAP4 POP SWAP1 DUP2 ADD SWAP1 PUSH2 0x3F91 JUMP JUMPDEST PUSH1 0x0 DUP7 DUP2 MSTORE DUP4 DUP2 KECCAK256 PUSH1 0x1F DUP7 ADD PUSH1 0x5 SHR DUP2 ADD SWAP3 DUP6 DUP8 LT PUSH2 0x4004 JUMPI JUMPDEST PUSH1 0x1F ADD PUSH1 0x5 SHR ADD SWAP2 DUP7 SWAP1 JUMPDEST DUP4 DUP2 LT PUSH2 0x3FF9 JUMPI POP POP POP PUSH2 0x3F4E JUMP JUMPDEST DUP3 DUP2 SSTORE ADD DUP7 SWAP1 PUSH2 0x3FEA JUMP JUMPDEST SWAP1 SWAP3 POP DUP3 SWAP1 PUSH2 0x3FDF JUMP JUMPDEST PUSH4 0x4E487B71 PUSH1 0xE0 SHL PUSH1 0x0 MSTORE PUSH1 0x0 PUSH1 0x4 MSTORE PUSH1 0x24 PUSH1 0x0 REVERT JUMPDEST SWAP3 PUSH2 0x30EB SWAP5 SWAP2 SWAP3 PUSH1 0x40 MLOAD SWAP5 PUSH2 0x4038 DUP7 PUSH2 0x303D JUMP JUMPDEST TIMESTAMP DUP7 MSTORE PUSH1 0x1 DUP1 PUSH1 0xA0 SHL SUB DUP1 SWAP2 AND SWAP5 DUP6 PUSH1 0x20 DUP9 ADD MSTORE PUSH1 0x0 PUSH1 0x40 DUP9 ADD MSTORE AND PUSH1 0x60 DUP7 ADD MSTORE PUSH1 0x80 DUP6 ADD MSTORE PUSH1 0xA0 DUP5 ADD MSTORE PUSH1 0xC0 DUP4 ADD MSTORE PUSH1 0x0 MSTORE PUSH1 0x9 PUSH1 0x20 MSTORE PUSH2 0x407E DUP2 PUSH1 0x40 PUSH1 0x0 KECCAK256 PUSH2 0x3E99 JUMP JUMPDEST PUSH2 0x3C0D JUMP JUMPDEST SWAP3 PUSH2 0x30EB SWAP6 SWAP3 SWAP5 SWAP2 SWAP4 PUSH1 0x40 MLOAD SWAP6 PUSH2 0x4099 DUP8 PUSH2 0x303D JUMP JUMPDEST TIMESTAMP DUP8 MSTORE PUSH1 0x1 DUP1 PUSH1 0xA0 SHL SUB DUP1 DUP1 SWAP4 AND SWAP7 DUP8 PUSH1 0x20 DUP11 ADD MSTORE AND PUSH1 0x40 DUP9 ADD MSTORE AND PUSH1 0x60 DUP7 ADD MSTORE PUSH1 0x80 DUP6 ADD MSTORE PUSH1 0xA0 DUP5 ADD MSTORE PUSH1 0xC0 DUP4 ADD MSTORE PUSH1 0x0 MSTORE PUSH1 0x9 PUSH1 0x20 MSTORE PUSH2 0x407E DUP2 PUSH1 0x40 PUSH1 0x0 KECCAK256 PUSH2 0x3E99 JUMP JUMPDEST PUSH8 0xFFFFFFFFFFFFFFFF DUP2 GT PUSH2 0x3059 JUMPI PUSH1 0x5 SHL PUSH1 0x20 ADD SWAP1 JUMP JUMPDEST SWAP1 PUSH1 0x40 MLOAD PUSH2 0x4104 DUP2 PUSH2 0x303D JUMP JUMPDEST PUSH1 0xC0 PUSH1 0xFF PUSH1 0x6 DUP4 SWAP6 DUP1 SLOAD DUP6 MSTORE PUSH1 0x1 DUP2 ADD SLOAD PUSH1 0x20 DUP7 ADD MSTORE PUSH1 0x2 DUP2 ADD SLOAD PUSH1 0x40 DUP7 ADD MSTORE PUSH1 0x3 DUP2 ADD SLOAD PUSH1 0x60 DUP7 ADD MSTORE PUSH1 0x4 DUP2 ADD SLOAD PUSH1 0x80 DUP7 ADD MSTORE PUSH1 0x5 DUP2 ADD SLOAD PUSH1 0xA0 DUP7 ADD MSTORE ADD SLOAD AND ISZERO ISZERO SWAP2 ADD MSTORE JUMP JUMPDEST PUSH1 0x40 MLOAD SWAP1 PUSH2 0x4159 DUP3 PUSH2 0x303D JUMP JUMPDEST DUP2 PUSH1 0xC0 PUSH1 0x0 SWAP2 DUP3 DUP2 MSTORE DUP3 PUSH1 0x20 DUP3 ADD MSTORE DUP3 PUSH1 0x40 DUP3 ADD MSTORE DUP3 PUSH1 0x60 DUP3 ADD MSTORE DUP3 PUSH1 0x80 DUP3 ADD MSTORE DUP3 PUSH1 0xA0 DUP3 ADD MSTORE ADD MSTORE JUMP INVALID LOG2 PUSH5 0x6970667358 0x22 SLT KECCAK256 0xB9 0xB3 XOR PUSH26 0x6797264450951E619E68C28AC9EB39D4FBD81E4EC826CD208221 0xF7 0xD PUSH5 0x736F6C6343 STOP ADDMOD SGT STOP CALLER "},"methodIdentifiers":{"EARLY_WITHDRAWAL_PENALTY_PERCENT()":"9c0fbd05","allTransactions(uint256)":"d7ff0714","baseAPY()":"214405a9","blockedAddresses(address)":"4f93208a","buyUSDC()":"251545da","buyUSDT()":"5b365040","buyWithETH()":"150d283d","buyWithUSDC(uint256)":"aeccf735","buyWithUSDT(uint256)":"a7c60160","calculateRewards(uint256)":"d3ea4350","ethPriceForStablecoin()":"f34a00fb","ethPriceForToken()":"c605af53","getAllTransactions()":"27506f53","getContractInfo()":"7cc1f867","getReferralInfo(address)":"21874ae2","getStakeDetails(uint256)":"963c9dd3","getStakeInfo(uint256)":"09813482","getStakingInfo()":"b40cd21d","getTokenBalances()":"a1dc9031","getTotalPenaltyCollected()":"491cc756","getUserReferrals(address)":"575cea6b","getUserStakes(address)":"842e2981","getUserStakingInfo(address)":"80933608","getUserTransactions(address)":"ef925399","harvestRewards(uint256)":"57126d0d","hasStaked(address)":"c93c8f34","minStakeAmount()":"f1887684","nextStakeId()":"75506c96","owner()":"8da5cb5b","referralRewardPercentage()":"920a253e","referralRewards(address)":"53aaa63b","referrals(address,uint256)":"e697b5d8","referrers(address)":"4a3b68cc","registerReferrer(address)":"9ea7685a","saleToken()":"e985e367","setBlockStatus(address,bool)":"182a676b","setSaleToken(address)":"a29f481c","stakeOwners(uint256)":"fd9a11e5","stakeTokens(uint256,uint256)":"3b7b6188","tokensSold()":"518ab2a8","totalPenaltyCollected()":"2bb38809","totalRewardsDistributed()":"ee172546","totalStaked()":"817b1cd2","totalStakers()":"86989038","unstakeEarly(uint256)":"2fd04c08","unstakeTokens(uint256)":"608e4dd0","updateBaseAPY(uint256)":"71d20fe7","updateMinStakeAmount(uint256)":"d8060cd5","updateReferralPercentage(uint256)":"4cdb312d","updateStablecoinPrice(uint256)":"63219c72","updateTokenPrice(uint256)":"676c0d77","updateUSDC(address,uint256)":"1e37c606","updateUSDT(address,uint256)":"b006984f","usdcAddress()":"02d45457","usdcRatio()":"6f43f373","usdtAddress()":"9ab4a445","usdtRatio()":"83fabe03","userStakes(address,uint256)":"b5d5b5fa","userTransactions(address,uint256)":"b842ec44","withdrawTokens(address,uint256)":"06b091f9"}}}}}