{"contracts/TokenICO.sol":{"TokenICO":{"abi":[{"inputs":[],"stateMutability":"nonpayable","type":"constructor"},{"anonymous":false,"inputs":[{"indexed":false,"internalType":"uint256","name":"oldAPY","type":"uint256"},{"indexed":false,"internalType":"uint256","name":"newAPY","type":"uint256"}],"name":"APYUpdated","type":"event"},{"anonymous":false,"inputs":[{"indexed":true,"internalType":"address","name":"user","type":"address"},{"indexed":false,"internalType":"bool","name":"blocked","type":"bool"}],"name":"AddressBlocked","type":"event"},{"anonymous":false,"inputs":[{"indexed":true,"internalType":"address","name":"user","type":"address"},{"indexed":true,"internalType":"uint256","name":"stakeId","type":"uint256"},{"indexed":false,"internalType":"uint256","name":"amount","type":"uint256"},{"indexed":false,"internalType":"uint256","name":"penalty","type":"uint256"}],"name":"EarlyUnstake","type":"event"},{"anonymous":false,"inputs":[{"indexed":false,"internalType":"uint256","name":"oldMinStake","type":"uint256"},{"indexed":false,"internalType":"uint256","name":"newMinStake","type":"uint256"}],"name":"MinStakeUpdated","type":"event"},{"anonymous":false,"inputs":[{"indexed":false,"internalType":"string","name":"priceType","type":"string"},{"indexed":false,"internalType":"uint256","name":"oldPrice","type":"uint256"},{"indexed":false,"internalType":"uint256","name":"newPrice","type":"uint256"}],"name":"PriceUpdated","type":"event"},{"anonymous":false,"inputs":[{"indexed":false,"internalType":"uint256","name":"oldPercentage","type":"uint256"},{"indexed":false,"internalType":"uint256","name":"newPercentage","type":"uint256"}],"name":"ReferralPercentageUpdated","type":"event"},{"anonymous":false,"inputs":[{"indexed":true,"internalType":"address","name":"referrer","type":"address"},{"indexed":true,"internalType":"address","name":"referee","type":"address"}],"name":"ReferralRegistered","type":"event"},{"anonymous":false,"inputs":[{"indexed":true,"internalType":"address","name":"referrer","type":"address"},{"indexed":true,"internalType":"address","name":"referee","type":"address"},{"indexed":false,"internalType":"uint256","name":"amount","type":"uint256"}],"name":"ReferralRewardPaid","type":"event"},{"anonymous":false,"inputs":[{"indexed":true,"internalType":"address","name":"user","type":"address"},{"indexed":true,"internalType":"uint256","name":"stakeId","type":"uint256"},{"indexed":false,"internalType":"uint256","name":"reward","type":"uint256"}],"name":"RewardHarvested","type":"event"},{"anonymous":false,"inputs":[{"indexed":true,"internalType":"address","name":"buyer","type":"address"},{"indexed":true,"internalType":"address","name":"stablecoin","type":"address"},{"indexed":false,"internalType":"uint256","name":"stablecoinAmount","type":"uint256"},{"indexed":false,"internalType":"uint256","name":"ethPaid","type":"uint256"},{"indexed":false,"internalType":"uint256","name":"timestamp","type":"uint256"}],"name":"StablecoinSold","type":"event"},{"anonymous":false,"inputs":[{"indexed":true,"internalType":"address","name":"user","type":"address"},{"indexed":true,"internalType":"uint256","name":"stakeId","type":"uint256"},{"indexed":false,"internalType":"uint256","name":"amount","type":"uint256"},{"indexed":false,"internalType":"uint256","name":"lockPeriod","type":"uint256"}],"name":"Staked","type":"event"},{"anonymous":false,"inputs":[{"indexed":true,"internalType":"address","name":"buyer","type":"address"},{"indexed":true,"internalType":"address","name":"paymentMethod","type":"address"},{"indexed":false,"internalType":"uint256","name":"amountPaid","type":"uint256"},{"indexed":false,"internalType":"uint256","name":"tokensBought","type":"uint256"},{"indexed":false,"internalType":"uint256","name":"timestamp","type":"uint256"}],"name":"TokensPurchased","type":"event"},{"anonymous":false,"inputs":[{"indexed":true,"internalType":"address","name":"user","type":"address"},{"indexed":true,"internalType":"uint256","name":"stakeId","type":"uint256"},{"indexed":false,"internalType":"uint256","name":"amount","type":"uint256"}],"name":"Unstaked","type":"event"},{"inputs":[],"name":"EARLY_WITHDRAWAL_PENALTY_PERCENT","outputs":[{"internalType":"uint256","name":"","type":"uint256"}],"stateMutability":"view","type":"function"},{"inputs":[{"internalType":"uint256","name":"","type":"uint256"}],"name":"allTransactions","outputs":[{"internalType":"uint256","name":"timestamp","type":"uint256"},{"internalType":"address","name":"user","type":"address"},{"internalType":"address","name":"tokenIn","type":"address"},{"internalType":"address","name":"tokenOut","type":"address"},{"internalType":"uint256","name":"amountIn","type":"uint256"},{"internalType":"uint256","name":"amountOut","type":"uint256"},{"internalType":"string","name":"transactionType","type":"string"}],"stateMutability":"view","type":"function"},{"inputs":[],"name":"baseAPY","outputs":[{"internalType":"uint256","name":"","type":"uint256"}],"stateMutability":"view","type":"function"},{"inputs":[{"internalType":"address","name":"","type":"address"}],"name":"blockedAddresses","outputs":[{"internalType":"bool","name":"","type":"bool"}],"stateMutability":"view","type":"function"},{"inputs":[],"name":"bnbAddress","outputs":[{"internalType":"address","name":"","type":"address"}],"stateMutability":"view","type":"function"},{"inputs":[],"name":"bnbRatio","outputs":[{"internalType":"uint256","name":"","type":"uint256"}],"stateMutability":"view","type":"function"},{"inputs":[],"name":"buyUSDC","outputs":[],"stateMutability":"payable","type":"function"},{"inputs":[],"name":"buyUSDT","outputs":[],"stateMutability":"payable","type":"function"},{"inputs":[{"internalType":"uint256","name":"bnbAmount","type":"uint256"}],"name":"buyWithBNB","outputs":[],"stateMutability":"nonpayable","type":"function"},{"inputs":[],"name":"buyWithETH","outputs":[],"stateMutability":"payable","type":"function"},{"inputs":[{"internalType":"uint256","name":"solAmount","type":"uint256"}],"name":"buyWithSOL","outputs":[],"stateMutability":"nonpayable","type":"function"},{"inputs":[{"internalType":"uint256","name":"usdcAmount","type":"uint256"}],"name":"buyWithUSDC","outputs":[],"stateMutability":"nonpayable","type":"function"},{"inputs":[{"internalType":"uint256","name":"usdtAmount","type":"uint256"}],"name":"buyWithUSDT","outputs":[],"stateMutability":"nonpayable","type":"function"},{"inputs":[{"internalType":"uint256","name":"stakeId","type":"uint256"}],"name":"calculateRewards","outputs":[{"internalType":"uint256","name":"","type":"uint256"}],"stateMutability":"view","type":"function"},{"inputs":[],"name":"ethPriceForStablecoin","outputs":[{"internalType":"uint256","name":"","type":"uint256"}],"stateMutability":"view","type":"function"},{"inputs":[],"name":"ethPriceForToken","outputs":[{"internalType":"uint256","name":"","type":"uint256"}],"stateMutability":"view","type":"function"},{"inputs":[],"name":"getAllTransactions","outputs":[{"components":[{"internalType":"uint256","name":"timestamp","type":"uint256"},{"internalType":"address","name":"user","type":"address"},{"internalType":"address","name":"tokenIn","type":"address"},{"internalType":"address","name":"tokenOut","type":"address"},{"internalType":"uint256","name":"amountIn","type":"uint256"},{"internalType":"uint256","name":"amountOut","type":"uint256"},{"internalType":"string","name":"transactionType","type":"string"}],"internalType":"struct TokenICO.Transaction[]","name":"","type":"tuple[]"}],"stateMutability":"view","type":"function"},{"inputs":[],"name":"getContractInfo","outputs":[{"internalType":"address","name":"tokenAddress","type":"address"},{"internalType":"uint256","name":"tokenBalance","type":"uint256"},{"internalType":"uint256","name":"ethPrice","type":"uint256"},{"internalType":"uint256","name":"stablecoinPrice","type":"uint256"},{"internalType":"uint256","name":"totalSold","type":"uint256"},{"internalType":"address","name":"usdtAddr","type":"address"},{"internalType":"address","name":"usdcAddr","type":"address"},{"internalType":"uint256","name":"usdtTokenRatio","type":"uint256"},{"internalType":"uint256","name":"usdcTokenRatio","type":"uint256"}],"stateMutability":"view","type":"function"},{"inputs":[{"internalType":"address","name":"user","type":"address"}],"name":"getReferralInfo","outputs":[{"internalType":"address","name":"referrer","type":"address"},{"internalType":"uint256","name":"totalReferrals","type":"uint256"},{"internalType":"uint256","name":"totalRewardsEarned","type":"uint256"},{"internalType":"uint256","name":"rewardPercentage","type":"uint256"}],"stateMutability":"view","type":"function"},{"inputs":[{"internalType":"uint256","name":"stakeId","type":"uint256"}],"name":"getStakeDetails","outputs":[{"internalType":"uint256","name":"lockPeriod","type":"uint256"},{"internalType":"uint256","name":"pendingRewards","type":"uint256"},{"internalType":"bool","name":"active","type":"bool"}],"stateMutability":"view","type":"function"},{"inputs":[{"internalType":"uint256","name":"stakeId","type":"uint256"}],"name":"getStakeInfo","outputs":[{"internalType":"uint256","name":"id","type":"uint256"},{"internalType":"address","name":"stakeOwnerAddr","type":"address"},{"internalType":"uint256","name":"amount","type":"uint256"},{"internalType":"uint256","name":"startTime","type":"uint256"}],"stateMutability":"view","type":"function"},{"inputs":[],"name":"getStakingInfo","outputs":[{"internalType":"uint256","name":"baseApyRate","type":"uint256"},{"internalType":"uint256","name":"minStakingAmount","type":"uint256"},{"internalType":"uint256","name":"totalTokensStaked","type":"uint256"},{"internalType":"uint256","name":"totalRewardsPaid","type":"uint256"},{"internalType":"uint256","name":"numberOfStakers","type":"uint256"}],"stateMutability":"view","type":"function"},{"inputs":[],"name":"getTokenBalances","outputs":[{"internalType":"uint256","name":"tokenBalance","type":"uint256"},{"internalType":"uint256","name":"usdtBalance","type":"uint256"},{"internalType":"uint256","name":"usdcBalance","type":"uint256"}],"stateMutability":"view","type":"function"},{"inputs":[],"name":"getTotalPenaltyCollected","outputs":[{"internalType":"uint256","name":"","type":"uint256"}],"stateMutability":"view","type":"function"},{"inputs":[{"internalType":"address","name":"referrer","type":"address"}],"name":"getUserReferrals","outputs":[{"internalType":"address[]","name":"","type":"address[]"}],"stateMutability":"view","type":"function"},{"inputs":[{"internalType":"address","name":"user","type":"address"}],"name":"getUserStakes","outputs":[{"components":[{"internalType":"uint256","name":"id","type":"uint256"},{"internalType":"uint256","name":"amount","type":"uint256"},{"internalType":"uint256","name":"startTime","type":"uint256"},{"internalType":"uint256","name":"lockPeriod","type":"uint256"},{"internalType":"uint256","name":"lastRewardCalculation","type":"uint256"},{"internalType":"uint256","name":"pendingRewards","type":"uint256"},{"internalType":"bool","name":"active","type":"bool"}],"internalType":"struct TokenICO.Stake[]","name":"","type":"tuple[]"}],"stateMutability":"view","type":"function"},{"inputs":[{"internalType":"address","name":"user","type":"address"}],"name":"getUserStakingInfo","outputs":[{"internalType":"uint256","name":"totalUserStaked","type":"uint256"},{"internalType":"uint256","name":"totalPendingRewards","type":"uint256"},{"internalType":"uint256","name":"activeStakesCount","type":"uint256"}],"stateMutability":"view","type":"function"},{"inputs":[{"internalType":"address","name":"user","type":"address"}],"name":"getUserTransactions","outputs":[{"components":[{"internalType":"uint256","name":"timestamp","type":"uint256"},{"internalType":"address","name":"user","type":"address"},{"internalType":"address","name":"tokenIn","type":"address"},{"internalType":"address","name":"tokenOut","type":"address"},{"internalType":"uint256","name":"amountIn","type":"uint256"},{"internalType":"uint256","name":"amountOut","type":"uint256"},{"internalType":"string","name":"transactionType","type":"string"}],"internalType":"struct TokenICO.Transaction[]","name":"","type":"tuple[]"}],"stateMutability":"view","type":"function"},{"inputs":[{"internalType":"uint256","name":"stakeId","type":"uint256"}],"name":"harvestRewards","outputs":[],"stateMutability":"nonpayable","type":"function"},{"inputs":[{"internalType":"address","name":"","type":"address"}],"name":"hasStaked","outputs":[{"internalType":"bool","name":"","type":"bool"}],"stateMutability":"view","type":"function"},{"inputs":[],"name":"minStakeAmount","outputs":[{"internalType":"uint256","name":"","type":"uint256"}],"stateMutability":"view","type":"function"},{"inputs":[],"name":"nextStakeId","outputs":[{"internalType":"uint256","name":"","type":"uint256"}],"stateMutability":"view","type":"function"},{"inputs":[],"name":"owner","outputs":[{"internalType":"address","name":"","type":"address"}],"stateMutability":"view","type":"function"},{"inputs":[],"name":"referralRewardPercentage","outputs":[{"internalType":"uint256","name":"","type":"uint256"}],"stateMutability":"view","type":"function"},{"inputs":[{"internalType":"address","name":"","type":"address"}],"name":"referralRewards","outputs":[{"internalType":"uint256","name":"","type":"uint256"}],"stateMutability":"view","type":"function"},{"inputs":[{"internalType":"address","name":"","type":"address"},{"internalType":"uint256","name":"","type":"uint256"}],"name":"referrals","outputs":[{"internalType":"address","name":"","type":"address"}],"stateMutability":"view","type":"function"},{"inputs":[{"internalType":"address","name":"","type":"address"}],"name":"referrers","outputs":[{"internalType":"address","name":"","type":"address"}],"stateMutability":"view","type":"function"},{"inputs":[{"internalType":"address","name":"referrer","type":"address"}],"name":"registerReferrer","outputs":[],"stateMutability":"nonpayable","type":"function"},{"inputs":[],"name":"saleToken","outputs":[{"internalType":"address","name":"","type":"address"}],"stateMutability":"view","type":"function"},{"inputs":[{"internalType":"address","name":"user","type":"address"},{"internalType":"bool","name":"blocked","type":"bool"}],"name":"setBlockStatus","outputs":[],"stateMutability":"nonpayable","type":"function"},{"inputs":[{"internalType":"address","name":"_token","type":"address"}],"name":"setSaleToken","outputs":[],"stateMutability":"nonpayable","type":"function"},{"inputs":[],"name":"solAddress","outputs":[{"internalType":"address","name":"","type":"address"}],"stateMutability":"view","type":"function"},{"inputs":[],"name":"solRatio","outputs":[{"internalType":"uint256","name":"","type":"uint256"}],"stateMutability":"view","type":"function"},{"inputs":[{"internalType":"uint256","name":"","type":"uint256"}],"name":"stakeOwners","outputs":[{"internalType":"address","name":"","type":"address"}],"stateMutability":"view","type":"function"},{"inputs":[{"internalType":"uint256","name":"amount","type":"uint256"},{"internalType":"uint256","name":"lockPeriodDays","type":"uint256"}],"name":"stakeTokens","outputs":[],"stateMutability":"nonpayable","type":"function"},{"inputs":[],"name":"tokensSold","outputs":[{"internalType":"uint256","name":"","type":"uint256"}],"stateMutability":"view","type":"function"},{"inputs":[],"name":"totalPenaltyCollected","outputs":[{"internalType":"uint256","name":"","type":"uint256"}],"stateMutability":"view","type":"function"},{"inputs":[],"name":"totalRewardsDistributed","outputs":[{"internalType":"uint256","name":"","type":"uint256"}],"stateMutability":"view","type":"function"},{"inputs":[],"name":"totalStaked","outputs":[{"internalType":"uint256","name":"","type":"uint256"}],"stateMutability":"view","type":"function"},{"inputs":[],"name":"totalStakers","outputs":[{"internalType":"uint256","name":"","type":"uint256"}],"stateMutability":"view","type":"function"},{"inputs":[{"internalType":"uint256","name":"stakeId","type":"uint256"}],"name":"unstakeEarly","outputs":[],"stateMutability":"nonpayable","type":"function"},{"inputs":[{"internalType":"uint256","name":"stakeId","type":"uint256"}],"name":"unstakeTokens","outputs":[],"stateMutability":"nonpayable","type":"function"},{"inputs":[{"internalType":"address","name":"newAddress","type":"address"},{"internalType":"uint256","name":"newRatio","type":"uint256"}],"name":"updateBNB","outputs":[],"stateMutability":"nonpayable","type":"function"},{"inputs":[{"internalType":"uint256","name":"newAPY","type":"uint256"}],"name":"updateBaseAPY","outputs":[],"stateMutability":"nonpayable","type":"function"},{"inputs":[{"internalType":"uint256","name":"newMinAmount","type":"uint256"}],"name":"updateMinStakeAmount","outputs":[],"stateMutability":"nonpayable","type":"function"},{"inputs":[{"internalType":"uint256","name":"newPercentage","type":"uint256"}],"name":"updateReferralPercentage","outputs":[],"stateMutability":"nonpayable","type":"function"},{"inputs":[{"internalType":"address","name":"newAddress","type":"address"},{"internalType":"uint256","name":"newRatio","type":"uint256"}],"name":"updateSOL","outputs":[],"stateMutability":"nonpayable","type":"function"},{"inputs":[{"internalType":"uint256","name":"newPrice","type":"uint256"}],"name":"updateStablecoinPrice","outputs":[],"stateMutability":"nonpayable","type":"function"},{"inputs":[{"internalType":"uint256","name":"newPrice","type":"uint256"}],"name":"updateTokenPrice","outputs":[],"stateMutability":"nonpayable","type":"function"},{"inputs":[{"internalType":"address","name":"newAddress","type":"address"},{"internalType":"uint256","name":"newRatio","type":"uint256"}],"name":"updateUSDC","outputs":[],"stateMutability":"nonpayable","type":"function"},{"inputs":[{"internalType":"address","name":"newAddress","type":"address"},{"internalType":"uint256","name":"newRatio","type":"uint256"}],"name":"updateUSDT","outputs":[],"stateMutability":"nonpayable","type":"function"},{"inputs":[],"name":"usdcAddress","outputs":[{"internalType":"address","name":"","type":"address"}],"stateMutability":"view","type":"function"},{"inputs":[],"name":"usdcRatio","outputs":[{"internalType":"uint256","name":"","type":"uint256"}],"stateMutability":"view","type":"function"},{"inputs":[],"name":"usdtAddress","outputs":[{"internalType":"address","name":"","type":"address"}],"stateMutability":"view","type":"function"},{"inputs":[],"name":"usdtRatio","outputs":[{"internalType":"uint256","name":"","type":"uint256"}],"stateMutability":"view","type":"function"},{"inputs":[{"internalType":"address","name":"","type":"address"},{"internalType":"uint256","name":"","type":"uint256"}],"name":"userStakes","outputs":[{"internalType":"uint256","name":"id","type":"uint256"},{"internalType":"uint256","name":"amount","type":"uint256"},{"internalType":"uint256","name":"startTime","type":"uint256"},{"internalType":"uint256","name":"lockPeriod","type":"uint256"},{"internalType":"uint256","name":"lastRewardCalculation","type":"uint256"},{"internalType":"uint256","name":"pendingRewards","type":"uint256"},{"internalType":"bool","name":"active","type":"bool"}],"stateMutability":"view","type":"function"},{"inputs":[{"internalType":"address","name":"","type":"address"},{"internalType":"uint256","name":"","type":"uint256"}],"name":"userTransactions","outputs":[{"internalType":"uint256","name":"timestamp","type":"uint256"},{"internalType":"address","name":"user","type":"address"},{"internalType":"address","name":"tokenIn","type":"address"},{"internalType":"address","name":"tokenOut","type":"address"},{"internalType":"uint256","name":"amountIn","type":"uint256"},{"internalType":"uint256","name":"amountOut","type":"uint256"},{"internalType":"string","name":"transactionType","type":"string"}],"stateMutability":"view","type":"function"},{"inputs":[{"internalType":"address","name":"_token","type":"address"},{"internalType":"uint256","name":"_amount","type":"uint256"}],"name":"withdrawTokens","outputs":[],"stateMutability":"nonpayable","type":"function"}],"evm":{"bytecode":{"linkReferences":{},"object":"60a080604052346100e75766038d7ea4c6800080600555600655600c60105568056bc75e2d6310000060115560016017556005601955336080526014600755601460085560146009556014600a556147dd90816100ed823960805181818161041f0152818161070c015281816107fb01528181610b5101528181610e3401528181610f46015281816111140152818161121b015281816116e801528181611aa101528181611bb101528181611c5901528181612066015281816124de015281816128fc01528181612e2501528181612f7c0152818161305d0152818161313e01526132d60152f35b600080fdfe6080604081815260048036101561001557600080fd5b60009260e08435811c91826302d45457146134a557508163032d975b1461348557816306b091f9146132b557816309813482146131e5578163150d283d146130ad578163182a676b14612ffb5781631ce24e1614612fd35781631e37c60614612f4f578163214405a914612f2f57816321874ae214612ece578163251545da14612d6257816327506f5314612c825781632bb38809146125c35781632fd04c0814612953578163366b17d6146128cf5781633b7b6188146125e3578163491cc756146125c35781634a3b68cc146125875781634cdb312d146124c25781634f93208a14612483578163518ab2a81461246357816353aaa63b1461242a57816357126d0d146121fb578163575cea6b146121505781635b36504014611fa3578163608e4dd014611cc757816363219c7214611c1a578163676c0d7714611b725781636f43f37314611b5257816371d20fe714611a8557816375506c9614611a655781637a9773dc14611a455781637cc1f86714611962578163809336081461187f578163817b1cd21461185f57816383fabe031461183f578163842e29811461173757816386989038146117175781638da5cb5b146116d2578163920a253e146116b2578163963c9dd3146115d75781639ab4a445146115ad5781639c0fbd05146115905781639ea7685a146113d6578163a1dc903114611260578163a29f481c146111f2578163a7c6016014611059578163aeccf73514610e8b578163b006984f14610e07578163b40cd21d14610dc5578163b5d5b5fa14610d3257508063b842ec4414610cb4578063c3333dfb14610aa1578063c605af5314610a82578063c93c8f3414610a44578063d11c583a14610a1b578063d3ea4350146109f4578063d7ff0714146108ac578063d8060cd5146107e0578063e697b5d814610787578063e985e3671461075f578063ebcd3a13146106df578063ee172546146106c0578063ef925399146105e2578063f1887684146105c3578063f30ef2e514610369578063f34a00fb146103465763fd9a11e51461031157600080fd5b346103425760203660031901126103425735825260136020908152918190205490516001600160a01b039091168152f35b8280fd5b5050346103655781600319360112610365576020906006549051908152f35b5080fd5b503461034257602090816003193601126105bf57803590338552600c835261039760ff8587205416156138a6565b8115906103a482156139ad565b85546001600160a01b0392906103bd9084161515613923565b82825416801561058757633b9aca009182860292868404141715610574576103e7600a5486613964565b91670de0b6b3a7640000928381029381850414901517156105615787516323b872dd60e01b8152338582019081526001600160a01b037f0000000000000000000000000000000000000000000000000000000000000000166020820152604081019290925291879183919082908c90829060600103925af190811561055757889161052a575b50156104f1579160008051602061478883398151915293916104c96104946104eb95613e94565b9661049e886140ce565b878585855416868d5416906242555960e81b8d51956104bc87613676565b6003875286015233614686565b5416945191829133954291846040919493926060820195825260208201520152565b0390a380f35b855162461bcd60e51b8152808301869052601360248201527214d3d3081d1c985b9cd9995c8819985a5b1959606a1b6044820152606490fd5b61054a9150863d8811610550575b6105428183613692565b810190613a3b565b3861046d565b503d610538565b87513d8a823e3d90fd5b634e487b7160e01b895260118452602489fd5b634e487b7160e01b885260118352602488fd5b865162461bcd60e51b8152808401879052601260248201527114d3d3081b9bdd0818dbdb999a59dd5c995960721b6044820152606490fd5b8380fd5b5050346103655781600319360112610365576020906011549051908152f35b5082903461036557602091826003193601126106bd576001600160a01b03928361060a6134ca565b168252600d815284822091825493610621856146e2565b9561062e88519788613692565b85875283870194835283832092945b868610610655578851806106518a82613525565b0390f35b6007856001928b5161066681613644565b8754815285858901541683820152856002890154168d820152856003890154166060820152868801546080820152600588015460a08201526106aa600689016136b4565b60c082015281520194019501949261063d565b80fd5b5050346103655781600319360112610365576020906015549051908152f35b50903461034257366003190112610365576106f86134ca565b60243591906001600160a01b0390610733337f00000000000000000000000000000000000000000000000000000000000000008416146137b7565b1661073f81151561382c565b61074a83151561386a565b81546001600160a01b031916179055600a5580f35b505034610365578160031936011261036557905490516001600160a01b039091168152602090f35b5050346103655780600319360112610365576107a16134ca565b6001600160a01b039081168352601b602052818320805460243594908510156106bd57506020936107d19161379f565b92905490519260031b1c168152f35b503461034257602036600319011261034257803590610829337f00000000000000000000000000000000000000000000000000000000000000006001600160a01b0316146137b7565b81156108695750907f171aabb8815c02fd00303450a77058600e3661eb75ce2e77972c0f080bc7099d91601154908060115582519182526020820152a180f35b606490602084519162461bcd60e51b8352820152602060248201527f4d696e207374616b65206d7573742062652067726561746572207468616e20306044820152fd5b50346103425760203660031901126103425735600e5481101561034257600e60079293520290610651827fbb7b4a454dc3493923482f07822329ed19e8244eff582cc204f8554c3620c3fd01549160018060a01b0393847fbb7b4a454dc3493923482f07822329ed19e8244eff582cc204f8554c3620c3fe8201541694807fbb7b4a454dc3493923482f07822329ed19e8244eff582cc204f8554c3620c3ff83015416907fbb7b4a454dc3493923482f07822329ed19e8244eff582cc204f8554c3620c400830154167fbb7b4a454dc3493923482f07822329ed19e8244eff582cc204f8554c3620c401830154916109e97fbb7b4a454dc3493923482f07822329ed19e8244eff582cc204f8554c3620c4037fbb7b4a454dc3493923482f07822329ed19e8244eff582cc204f8554c3620c40286015495016136b4565b94519788978861375a565b5091346106bd5760203660031901126106bd5750610a1460209235613c48565b9051908152f35b50503461036557816003193601126103655760035490516001600160a01b039091168152602090f35b5050346103655760203660031901126103655760209160ff9082906001600160a01b03610a6f6134ca565b1681526018855220541690519015158152f35b5050346103655781600319360112610365576020906005549051908152f35b503461034257602090816003193601126105bf57803590338552600c8352610acf60ff8587205416156138a6565b8115610adb81156139ad565b85546001600160a01b039290610af49084161515613923565b82600354168015610c7c57670de0b6b3a7640000928386029086820485141715610c6957610b2460095487613964565b848102948186041490151715610c695787516323b872dd60e01b8152338482019081526001600160a01b037f0000000000000000000000000000000000000000000000000000000000000000166020820152604081019290925291879183919082908c90829060600103925af1908115610557578891610c4c575b5015610c135750916104eb91610bef610bc660008051602061478883398151915295613e94565b95610bd0876140ce565b86848460035416858c5416906242555960e81b8c51956104bc87613676565b60035416945191829133954291846040919493926060820195825260208201520152565b855162461bcd60e51b81529081018590526013602482015272109390881d1c985b9cd9995c8819985a5b1959606a1b6044820152606490fd5b610c639150863d8811610550576105428183613692565b38610b9f565b634e487b7160e01b895260118352602489fd5b865162461bcd60e51b81528083018790526012602482015271109390881b9bdd0818dbdb999a59dd5c995960721b6044820152606490fd5b50919034610365578060031936011261036557610ccf6134ca565b6001600160a01b039081168352600d60205281832080549193602435928310156106bd57506106519291610d02916135d8565b508054938060018301541695816002840154169160038401541690830154916109e96006600586015495016136b4565b939050346106bd57826003193601126106bd57610d4d6134ca565b6001600160a01b031681526012602052828120805460243592908310156106bd575090610d79916135d8565b5080549260018201549260028301546003840154918401549260ff600660058701549601541695815197885260208801528601526060850152608084015260a0830152151560c0820152f35b5050503461036557816003193601126103655760a090601054906011549060145460155491601654938151958652602086015284015260608301526080820152f35b50505034610365573660031901126106bd57610e216134ca565b602435906001600160a01b0390610e5b337f00000000000000000000000000000000000000000000000000000000000000008416146137b7565b16610e6781151561382c565b610e7282151561386a565b6001600160601b0360a01b600154161760015560075580f35b8285853461036557602080600319360112610342578335338452600c8252610eb960ff8486205416156138a6565b801590610ec682156139ad565b84546001600160a01b0390610ede9082161515613923565b806002541692610eef841515613a96565b620f4240908184029184830414171561104657610f0e60085484613964565b93670de0b6b3a7640000948581029581870414901517156110335786516323b872dd60e01b815233818b019081526001600160a01b037f00000000000000000000000000000000000000000000000000000000000000001660208201526040810193909352949392918691869182908b90829060600103925af193841561102957610fbf6104eb94610fba60008051602061478883398151915297610fe8948c9161100c575b50613ad8565b613e94565b95610fc9876140ce565b86848460025416858c5416906242555960e81b8c51956104bc87613676565b60025416945191829133954291846040919493926060820195825260208201520152565b61102391508a3d8c11610550576105428183613692565b8c610fb4565b86513d89823e3d90fd5b634e487b7160e01b885260118952602488fd5b634e487b7160e01b875260118852602487fd5b8285853461036557602080600319360112610342578335338452600c825261108760ff8486205416156138a6565b80159061109482156139ad565b84546001600160a01b03906110ac9082161515613923565b8060015416926110bd8415156139f9565b620f42409081840291848304141715611046576110dc60075484613964565b93670de0b6b3a7640000948581029581870414901517156110335786516323b872dd60e01b815233818b019081526001600160a01b037f00000000000000000000000000000000000000000000000000000000000000001660208201526040810193909352949392918691869182908b90829060600103925af1938415611029576111886104eb94610fba600080516020614788833981519152976111b1948c916111d5575b50613a53565b95611192876140ce565b86848460015416858c5416906242555960e81b8c51956104bc87613676565b60015416945191829133954291846040919493926060820195825260208201520152565b6111ec91508a3d8c11610550576105428183613692565b8c611182565b84346106bd5760203660031901126106bd5761120c6134ca565b6001600160a01b0390611242337f00000000000000000000000000000000000000000000000000000000000000008416146137b7565b1661124e81151561382c565b81546001600160a01b03191617815580f35b50509034610342578260031936011261034257825481516370a0823160e01b808252308286015290946001600160a01b03946020938490889060249082908a165afa9586156113cc57829661139c575b602497508481600154168751998a809288825230878301525afa978815611392578398611362575b509060248592600254169487519586938492835230908301525afa928315611356578193611323575b5050506106519151938493846040919493926060820195825260208201520152565b9091809350813d831161134f575b61133b8183613692565b810103126106bd5750516106513880611301565b503d611331565b508351903d90823e3d90fd5b9097508481813d831161138b575b61137a8183613692565b8101031261034257519660246112d8565b503d611370565b86513d85823e3d90fd5b95508387813d83116113c5575b6113b38183613692565b810103126103655760249651956112b0565b503d6113a9565b85513d84823e3d90fd5b828585346103655760209081600319360112610342576113f46134ca565b90338452600c835261140c60ff8286205416156138a6565b6001600160a01b0391821692831561154e5733841461151457338552601a81528282862054166114c757338552601a815281852080546001600160a01b03191685179055838552601b90528320805490600160401b8210156114b457906114789160018201815561379f565b819291549060031b9133831b921b191617905533907f5f1ca2fcc108b751843a763e60d2201f593516109d7dbb1b700468f2d4190bb78380a380f35b634e487b7160e01b855260418652602485fd5b8590608492519162461bcd60e51b8352820152602260248201527f416c72656164792072656769737465726564207769746820612072656665727260448201526132b960f11b6064820152fd5b8590606492519162461bcd60e51b8352820152601560248201527421b0b73737ba103932b332b9103cb7bab939b2b63360591b6044820152fd5b8590606492519162461bcd60e51b8352820152601860248201527f496e76616c6964207265666572726572206164647265737300000000000000006044820152fd5b505050346103655781600319360112610365576020905160058152f35b5050503461036557816003193601126103655760015490516001600160a01b039091168152602090f35b50503461034257602090816003193601126105bf573580845260138252828420546001600160a01b031693909290611610851515613b7b565b61161861474f565b8195825b8184526012808752858520805483101561169d5761163b838a926135d8565b505414611651575061164c90613b5f565b61161c565b60609850611674935084869161166e9461168497528852206135d8565b506146fa565b9361167f6001613bbe565b613c48565b60c0858501519401511515928251948552840152820152f35b5050505093611684915061167f606096613bbe565b505050346103655781600319360112610365576020906019549051908152f35b50505034610365578160031936011261036557517f00000000000000000000000000000000000000000000000000000000000000006001600160a01b03168152602090f35b505050346103655781600319360112610365576020906016549051908152f35b91505034610342576020806003193601126105bf5790916001600160a01b0361175e6134ca565b1684526012825280842091825491611775836146e2565b9261178282519485613692565b8084528284018095885283882088915b838310611812575050505080519482860193838752518094528186019496915b8483106117bf5786860387f35b87518051875280850151878601528082015187830152606080820151908801526080808201519088015260a0808201519088015260c09081015115159087015296830196948101946001909201916117b2565b600786600192611829859d999a9b9d9c989c6146fa565b8152019201920191909896959498979397611792565b505050346103655781600319360112610365576020906007549051908152f35b505050346103655781600319360112610365576020906014549051908152f35b8385346106bd57602090816003193601126106bd5761189c6134ca565b9091829182919082906001600160a01b0316815b8186526012808552888720805483101561194a5760ff60066118d3858d946135d8565b500154166118ec575b50506118e790613b5f565b6118b0565b82969461191a839a60016119116118e79761193c968e611942998e8d835252206135d8565b50015490613b6e565b99858a52875261193661192f898d8c206135d8565b5054613c48565b90613b6e565b93613b5f565b9490886118dc565b89518981526020810186905260408101889052606090f35b929050346105bf57836003193601126105bf57835481516370a0823160e01b815230938101939093526001600160a01b039081169390602084602481885afa938415611a3b5786946119ff575b50610120955060055490600654600b54908260015416926002541693600754966008549881519a8b5260208b01528901526060880152608087015260a086015260c0850152830152610100820152f35b9093506020813d8211611a33575b81611a1a60209383613692565b81010312611a2f5761012095505192386119af565b8580fd5b3d9150611a0d565b83513d88823e3d90fd5b50505034610365578160031936011261036557602090600a549051908152f35b505050346103655781600319360112610365576020906017549051908152f35b50503461034257602036600319011261034257803590611acf337f00000000000000000000000000000000000000000000000000000000000000006001600160a01b0316146137b7565b8115611b0f5750907f787a1fca55641ce34a438271930bbb9401df20db2b4f510d4f252227d85df43d91601054908060105582519182526020820152a180f35b606490602084519162461bcd60e51b8352820152601a60248201527f415059206d7573742062652067726561746572207468616e20300000000000006044820152fd5b505050346103655781600319360112610365576020906008549051908152f35b505034610342576020366003190112610342577f6e838f2a03741f5f2aff5480963b672fb0dd8430a4dc75db9b67ce009733c9fe9160a09135611bdf337f00000000000000000000000000000000000000000000000000000000000000006001600160a01b0316146137b7565b611bea8115156137f0565b60055491816005558051926060845260056060850152642a27a5a2a760d91b60808501526020840152820152a180f35b505034610342576020366003190112610342577f6e838f2a03741f5f2aff5480963b672fb0dd8430a4dc75db9b67ce009733c9fe9160a09135611c87337f00000000000000000000000000000000000000000000000000000000000000006001600160a01b0316146137b7565b611c928115156137f0565b600654918160065580519260608452600a60608501526929aa20a12622a1a7a4a760b11b60808501526020840152820152a180f35b5050903461034257602090816003193601126105bf578291923592338552600c815260ff611cfa818488205416156138a6565b84865260138252828620546001600160a01b0390611d1b9082163314613e56565b8694859283805b338b526012808852888c208054831015611f8f579a611d4383829c9d6135d8565b505414611d5c5750611d5490613b5f565b989798611d22565b955097985050338952838552611d85611d7788888c206135d8565b509160068093015416613bfc565b3389528385526002611d9988888c206135d8565b500154338a528486526003611db089898d206135d8565b500154906201518091828102928184041490151715611f7c5790611dd391613b6e565b4210611f4257918491611e368a611e7c95611e18611df08d613c48565b9b3384528988528b611e04828287206135d8565b50946001809601549b3382528a52206135d8565b500160ff1981541690556014611e2f888254613c3b565b9055613bbe565b611e3f33614015565b611e498886613b6e565b8a54885163a9059cbb60e01b8152339381019384526020840192909252909485939091169183918c918391604090910190565b03925af1908115611f385790611e99918891611f1b575b50613b1b565b848415159182611f07575b84519081527f7fc4727e062e336010f2c282598ef5f14facb3de68cf8195c2f23e1454b2b74e843392a3611ed6578480f35b7ff87cfa2d5feaea949ad65bb76a26d8553381bcb6382adbc83dedd48961bf32d991519283523392a3388080808480f35b611f1386601554613b6e565b601555611ea4565b611f329150843d8611610550576105428183613692565b38611e93565b84513d89823e3d90fd5b855162461bcd60e51b8152808301869052601460248201527314dd1a5b1b081a5b881b1bd8dac81c195c9a5bd960621b6044820152606490fd5b634e487b7160e01b8b526011845260248bfd5b505050611e7c93915091611e368693613bbe565b50508260031936011261034257338352600c602052611fc860ff8385205416156138a6565b341590611fd582156138e7565b6001546001600160a01b0390811692611fef8415156139f9565b620f4240803402903482041482171561213d579061201187926006549061398d565b865163a9059cbb60e01b81523386820190815260208181018490529297919291839182908790829060400103925af18015612133576120569184916121155750613a53565b819061210c575b818080923490867f00000000000000000000000000000000000000000000000000000000000000001690f1156120ff576120db7f48a1f8a6c840b32621ceab4439a2ccd00b337e705dfdcdec0b40c49abf3e6be3928483600154168751926120c484613676565b83526314d1531360e21b6020840152349033614627565b600154935192835234602084015242604084015290921691339180606081016104eb565b50505051903d90823e3d90fd5b506108fc61205d565b61212d915060203d8111610550576105428183613692565b38611182565b87513d85823e3d90fd5b634e487b7160e01b875260118452602487fd5b5050503461036557602080600319360112610342576001600160a01b0392836121776134ca565b168152601b825282812091835190818185549182815201908195855282852090855b8181106121e557505050826121af910383613692565b8451948186019282875251809352850193925b8281106121cf5785850386f35b83518716855293810193928101926001016121c2565b82548a1684529284019260019283019201612199565b50503461034257602090816003193601126105bf57803591338552600c815260ff9361222c858288205416156138a6565b83865260138252808620546001600160a01b03939061224e9085163314613e56565b8693875b3389526012808652848a20805483101561241757612271838a926135d8565b505414612287575061228290613b5f565b612252565b96976122b091929394959650338a5287875260066122a784888d206135d8565b50015416613bfc565b6122b987613c48565b9586156123dc57906122ea91338a528087528960056122da848984206135d8565b500155338a5286528489206135d8565b5042908301558654835163a9059cbb60e01b815233818501908152602081018890529092869284928390036040019183918c91165af19081156123d25787916123b5575b501561237b5750907ff87cfa2d5feaea949ad65bb76a26d8553381bcb6382adbc83dedd48961bf32d9916015612365858254613b6e565b9055519283523392a36123786001613bbe565b80f35b82606492519162461bcd60e51b8352820152601660248201527514995dd85c99081d1c985b9cd9995c8819985a5b195960521b6044820152fd5b6123cc9150843d8611610550576105428183613692565b3861232e565b83513d89823e3d90fd5b845162461bcd60e51b81528085018790526015602482015274139bc81c995dd85c991cc81d1bc81a185c9d995cdd605a1b6044820152606490fd5b5050505050505090506123789150613bbe565b505050346103655760203660031901126103655760209181906001600160a01b036124536134ca565b168152601c845220549051908152f35b50505034610365578160031936011261036557602090600b549051908152f35b505050346103655760203660031901126103655760209160ff9082906001600160a01b036124af6134ca565b168152600c855220541690519015158152f35b5050346103425760203660031901126103425780359061250c337f00000000000000000000000000000000000000000000000000000000000000006001600160a01b0316146137b7565b6014821161254e5750907fd968a3cc702265c3ab67356df15ca21d50167b011f198b963e2a868e04e3d5e091601954908060195582519182526020820152a180f35b606490602084519162461bcd60e51b835282015260136024820152720a0cae4c6cadce8c2ceca40e8dede40d0d2ced606b1b6044820152fd5b50505034610365576020366003190112610365576020916001600160a01b03908290826125b26134ca565b168152601a85522054169051908152f35b50505034610365578160031936011261036557602090600f549051908152f35b82858534610365578060031936011261036557823560243591338452602092600c845261261660ff8387205416156138a6565b601154831061288c5784546001600160a01b0316612635811515613923565b601e82148015612882575b8015612878575b801561286d575b156128345782516323b872dd60e01b815233818901908152306020820152604081018690529091869183919082908a90829060600103925af1908115611a3b579061269f9187916128175750613b1b565b601754936126ac85613b5f565b60175582516126ba81613644565b85815281810185815284820142815260608301858152608084019042825260a08501928b845260c086019460018652338d5260128852898d20805490600160401b8210156128035790612712916001820181556135d8565b9790976127f157927fb4caaf29adda3eefee3ad552a8e85058589bf834c7466cae4ee58787f70589ed9b9c9d9e926127819897959260069795518955516001890155516002880155516003870155519085015551600584015551151591019060ff801983541691151516179055565b85875260138152828720336001600160601b0360a01b8254161790556127a985601454613b6e565b60145533875260188152828720805460ff8116156127d2575b505082519485528401523392a380f35b60ff191660011790556016546127e790613b5f565b60165587806127c2565b634e487b7160e01b8e528d8f5260248efd5b8f8f6041602492634e487b7160e01b835252fd5b61282e9150863d8811610550576105428183613692565b88611e93565b825162461bcd60e51b81528088018690526013602482015272125b9d985b1a59081b1bd8dac81c195c9a5bd9606a1b6044820152606490fd5b5061016d821461264e565b5060b48214612647565b50605a8214612640565b815162461bcd60e51b8152808701859052601a60248201527f416d6f756e742062656c6f77206d696e696d756d207374616b650000000000006044820152606490fd5b50505034610365573660031901126106bd576128e96134ca565b602435906001600160a01b0390612923337f00000000000000000000000000000000000000000000000000000000000000008416146137b7565b1661292f81151561382c565b61293a82151561386a565b6001600160601b0360a01b600354161760035560095580f35b505091346106bd576020928360031936011261036557803590338352600c855260ff91612985838686205416156138a6565b80845260138652848420546001600160a01b0396906129a79088163314613e56565b8495855b33875260128084528288208054831015612c6f576129ca8387926135d8565b5054146129e057506129db90613b5f565b6129ab565b9192939495969750338852818452612a0b6129fd82858b206135d8565b509760068099015416613bfc565b3388528184526002612a1f82858b206135d8565b5001543389528285526003612a3683868c206135d8565b500154906201518091828102928184041490151715612c5c5799612a6186928b9c9b98999a9b613b6e565b92612a6b89613c48565b9a338952858452612a7e82888b206135d8565b5091876001809401549a80974210612c02575b90612aa79291612b0798993382528852206135d8565b500160ff1981541690556014612abe898254613c3b565b905598612ad48b612acf878b613c3b565b613b6e565b8c54875163a9059cbb60e01b8152339381019384526020840192909252909485939091169183918e918391604090910190565b03925af1908115612bf85797612b288792612b689a8c91612be15750613b1b565b80612ba1575b50508015612b71577f9c9ec3cfa814b0112b71c20d0b0ab54dead00a99fd389c174df717d2f1d364039282519485528401523392a3613bbe565b61237833614015565b50907f7fc4727e062e336010f2c282598ef5f14facb3de68cf8195c2f23e1454b2b74e91519283523392a3613bbe565b6015612bae828254613b6e565b905583519081527ff87cfa2d5feaea949ad65bb76a26d8553381bcb6382adbc83dedd48961bf32d9853392a38438612b2e565b611f329150873d8911610550576105428183613692565b83513d8b823e3d90fd5b50509193509193506005808902908982041489151715612c495791612aa7889492888f6064612b0799970499600f612c3b8c8254613b6e565b905599985090919250612a91565b634e487b7160e01b8d5260118b5260248dfd5b634e487b7160e01b8a526011885260248afd5b50505050505050509150612b6890613bbe565b505082346106bd57806003193601126106bd5790600e5490612ca3826146e2565b92612cb085519485613692565b828452600e8152906020907fbb7b4a454dc3493923482f07822329ed19e8244eff582cc204f8554c3620c3fd908286015b858510612cf5578751806106518982613525565b6007846001928a51612d0681613644565b86548152848060a01b0380868901541684830152806002890154168d8301526003880154166060820152858701546080820152600587015460a0820152612d4f600688016136b4565b60c0820152815201930194019391612ce1565b50508260031936011261034257338352600c602052612d8760ff8385205416156138a6565b341590612d9482156138e7565b6002546001600160a01b0390811692612dae841515613a96565b620f4240803402903482041482171561213d5790612dd087926006549061398d565b865163a9059cbb60e01b81523386820190815260208181018490529297919291839182908790829060400103925af1801561213357612e15918491612eb05750613ad8565b8190612ea7575b818080923490867f00000000000000000000000000000000000000000000000000000000000000001690f1156120ff57612e837f48a1f8a6c840b32621ceab4439a2ccd00b337e705dfdcdec0b40c49abf3e6be3928483600254168751926120c484613676565b600254935192835234602084015242604084015290921691339180606081016104eb565b506108fc612e1c565b612ec8915060203d8111610550576105428183613692565b38610fb4565b50505034610365576020366003190112610365576080916001600160a01b0380612ef66134ca565b168252601a602052828220541691601b602052808083205492601c60205220549060195492815194855260208501528301526060820152f35b505050346103655781600319360112610365576020906010549051908152f35b50505034610365573660031901126106bd57612f696134ca565b602435906001600160a01b0390612fa3337f00000000000000000000000000000000000000000000000000000000000000008416146137b7565b16612faf81151561382c565b612fba82151561386a565b6001600160601b0360a01b600254161760025560085580f35b5050346103425782600319360112610342575490516001600160a01b03909116815260209150f35b505050346103655780600319360112610365576130166134ca565b90602435918215158084036130a9577fdda6207409a585801122fb885dcaa8074f9a21f25ff2def680c67f01a86c2c9b926020926130a1906001600160a01b0390613084337f00000000000000000000000000000000000000000000000000000000000000008416146137b7565b1695868852600c85528288209060ff801983541691151516179055565b51908152a280f35b8480fd5b8285858160031936011261036557338252600c6020526130d360ff8284205416156138a6565b3415906130e082156138e7565b82546001600160a01b03906130f89082161515613923565b670de0b6b3a764000080340290348204148417156131d257849550613124610fba86926005549061398d565b9361312e856140ce565b81906131c9575b818080923490867f00000000000000000000000000000000000000000000000000000000000000001690f1156131bf57906131a1600080516020614788833981519152928554168483519161318983613676565b600383526242555960e81b6020840152349033614627565b513481526020810192909252426040830152339180606081016104eb565b81513d85823e3d90fd5b506108fc613135565b634e487b7160e01b855260118652602485fd5b8385843461036557602090816003193601126103425735928383526013825260018060a01b0381842054169261321c841515613b7b565b61322461474f565b8195825b868452601280875285852080548310156132a3576132478385926135d8565b50541461325d575061325890613b5f565b613228565b6080985061166e9350859192509361327a948882528752206135d8565b906132856001613bbe565b81519381848401519301519382519586528501528301526060820152f35b50505050919050613285608095613bbe565b505090346103425780600319360112610342576132d06134ca565b602435907f00000000000000000000000000000000000000000000000000000000000000006001600160a01b0361330a33828416146137b7565b8087541692169182146133c5575b835163a9059cbb60e01b81526001600160a01b03909116858201908152602081810194909452909291839182908890829060400103925af19081156133bb57849161339d575b5015613368578280f35b906020606492519162461bcd60e51b8352820152600f60248201526e151c985b9cd9995c8819985a5b1959608a1b6044820152fd5b6133b5915060203d8111610550576105428183613692565b3861335e565b82513d86823e3d90fd5b83516370a0823160e01b81523086820152602081602481865afa801561347b578790613444575b6133fa915060145490613c3b565b83111561331857835162461bcd60e51b8152602081870152601d60248201527f43616e6e6f74207769746864726177207374616b656420746f6b656e730000006044820152606490fd5b506020813d8211613473575b8161345d60209383613692565b8101031261346f576133fa90516133ec565b8680fd5b3d9150613450565b85513d89823e3d90fd5b505050346103655781600319360112610365576020906009549051908152f35b8590346103655781600319360112610365576002546001600160a01b03168152602090f35b600435906001600160a01b03821682036134e057565b600080fd5b919082519283825260005b848110613511575050826000602080949584010152601f8019910116010190565b6020818301810151848301820152016134f0565b602080820190808352835180925260409283810182858560051b8401019601946000925b85841061355a575050505050505090565b9091929394959685806135c7600193603f198682030188528b5180518252858060a01b0380858301511685840152808983015116898401526060908183015116908301526080808201519083015260a0808201519083015260c0809101519160e0809282015201906134e5565b990194019401929594939190613549565b80548210156135f4576000526007602060002091020190600090565b634e487b7160e01b600052603260045260246000fd5b90600182811c9216801561363a575b602083101461362457565b634e487b7160e01b600052602260045260246000fd5b91607f1691613619565b60e0810190811067ffffffffffffffff82111761366057604052565b634e487b7160e01b600052604160045260246000fd5b6040810190811067ffffffffffffffff82111761366057604052565b90601f8019910116810190811067ffffffffffffffff82111761366057604052565b90604051918260008254926136c88461360a565b90818452600194858116908160001461373757506001146136f4575b50506136f292500383613692565b565b9093915060005260209081600020936000915b81831061371f5750506136f2935082010138806136e4565b85548884018501529485019487945091830191613707565b9150506136f294506020925060ff191682840152151560051b82010138806136e4565b9360e0959261379c98979492865260018060a01b0392838092166020880152166040860152166060840152608083015260a08201528160c082015201906134e5565b90565b80548210156135f45760005260206000200190600090565b156137be57565b60405162461bcd60e51b815260206004820152600a60248201526927b7363c9037bbb732b960b11b6044820152606490fd5b156137f757565b60405162461bcd60e51b815260206004820152600d60248201526c496e76616c696420707269636560981b6044820152606490fd5b1561383357565b60405162461bcd60e51b815260206004820152600f60248201526e496e76616c6964206164647265737360881b6044820152606490fd5b1561387157565b60405162461bcd60e51b815260206004820152600d60248201526c496e76616c696420726174696f60981b6044820152606490fd5b156138ad57565b60405162461bcd60e51b81526020600482015260126024820152711059191c995cdcc81a5cc8189b1bd8dad95960721b6044820152606490fd5b156138ee57565b60405162461bcd60e51b815260206004820152600d60248201526c09aeae6e840e6cadcc8408aa89609b1b6044820152606490fd5b1561392a57565b60405162461bcd60e51b815260206004820152601260248201527114d85b19481d1bdad95b881b9bdd081cd95d60721b6044820152606490fd5b8181029291811591840414171561397757565b634e487b7160e01b600052601160045260246000fd5b8115613997570490565b634e487b7160e01b600052601260045260246000fd5b156139b457565b60405162461bcd60e51b815260206004820152601d60248201527f416d6f756e74206d7573742062652067726561746572207468616e20300000006044820152606490fd5b15613a0057565b60405162461bcd60e51b81526020600482015260136024820152721554d115081b9bdd0818dbdb999a59dd5c9959606a1b6044820152606490fd5b908160209103126134e0575180151581036134e05790565b15613a5a57565b60405162461bcd60e51b81526020600482015260146024820152731554d115081d1c985b9cd9995c8819985a5b195960621b6044820152606490fd5b15613a9d57565b60405162461bcd60e51b81526020600482015260136024820152721554d110c81b9bdd0818dbdb999a59dd5c9959606a1b6044820152606490fd5b15613adf57565b60405162461bcd60e51b81526020600482015260146024820152731554d110c81d1c985b9cd9995c8819985a5b195960621b6044820152606490fd5b15613b2257565b60405162461bcd60e51b8152602060048201526015602482015274151bdad95b881d1c985b9cd9995c8819985a5b1959605a1b6044820152606490fd5b60001981146139775760010190565b9190820180921161397757565b15613b8257565b60405162461bcd60e51b815260206004820152601460248201527314dd185ad948191bd95cc81b9bdd08195e1a5cdd60621b6044820152606490fd5b15613bc557565b60405162461bcd60e51b815260206004820152600f60248201526e14dd185ad9481b9bdd08199bdd5b99608a1b6044820152606490fd5b15613c0357565b60405162461bcd60e51b815260206004820152601060248201526f5374616b65206e6f742061637469766560801b6044820152606490fd5b9190820391821161397757565b6000818152601360209081526040808320546001600160a01b031690613c6f821515613b7b565b9293849390849081808080805b888b526012808b52888c208054831015613e3d57613c9b8389926135d8565b505414613cb15750613cac90613b5f565b613c7c565b96509a5050505050508285528084528582862090613cce916135d8565b5060050154958386528185528083872090613ce8916135d8565b5060040154928487528286528181882090613d02916135d8565b50926001809401549686895281815283838a2090613d1f916135d8565b506003015496895252862090613d34916135d8565b506006015460ff16613d48613d4d92613bbe565b613bfc565b428114613e3657613d5e9042613c3b565b926010548092605a8114600014613dbc575050600382029180830460031490151715613da8575061379c9392613d9c63bbf81e0093613da19360011c905b613964565b0490613b6e565b634e487b7160e01b81526011600452602490fd5b60b48103613df25750508160011b9180830460021490151715613da8575061379c9392613d9c63bbf81e0093613da19390613964565b61016d9194935014613e17575b5061379c9392613d9c63bbf81e0093613da193613964565b6003839293029180830460031490151715613da857509061379c613dff565b5050505090565b50505096509650979350613d4d929150613d4890613bbe565b15613e5d57565b60405162461bcd60e51b815260206004820152600f60248201526e2737ba1039ba30b5b29037bbb732b960891b6044820152606490fd5b60003381526020601a815260018060a01b039060408281852054169283151580614000575b613ec557505050505090565b6064613ed360195488613964565b8654845163a9059cbb60e01b81526001600160a01b03881660048201529290910460248301819052969190859082906044908290869088165af1908115613ff6578291613fd9575b5015613f95577f94ccb86446750660ec532b1beb1fb55f5ba2fffca042c4c53f4c080e72595b389392918186613f8b9352601c8552838120613f5e898254613b6e565b905554168688845192613f7084613676565b6008845267149151915494905360c21b878501528089614686565b519384523393a390565b825162461bcd60e51b815260048101859052601f60248201527f526566657272616c20726577617264207472616e73666572206661696c6564006044820152606490fd5b613ff09150853d8711610550576105428183613692565b38613f1b565b84513d84823e3d90fd5b50838552600c835260ff828620541615613eb9565b600090815b6001600160a01b038216600090815260126020526040902080548210156140c65760066140498360ff936135d8565b5001541661405f5761405a90613b5f565b61401a565b50905060015b15806140a4575b6140735750565b6001600160a01b03166000908152601860205260409020805460ff1916905560165480156139775760001901601655565b506001600160a01b03811660009081526018602052604090205460ff1661406c565b505090614065565b600080546040516370a0823160e01b8152306004820152919392916020916001600160a01b0316908281602481855afa801561420557849187916141d4575b501061418f5760405163a9059cbb60e01b8152336004820152602481018490529082908290604490829089905af1918215614184579061415a9291614162959692614167575b5050613b1b565b600b54613b6e565b600b55565b61417d9250803d10610550576105428183613692565b3880614153565b6040513d87823e3d90fd5b60405162461bcd60e51b815260048101839052601a60248201527f496e73756666696369656e7420746f6b656e2062616c616e63650000000000006044820152606490fd5b809250848092503d83116141fe575b6141ed8183613692565b81010312611a2f578390513861410d565b503d6141e3565b6040513d88823e3d90fd5b600e54600160401b8110156136605760019081810180600e558110156135f4576007600091600e835202918351837fbb7b4a454dc3493923482f07822329ed19e8244eff582cc204f8554c3620c3fd015560c07fbb7b4a454dc3493923482f07822329ed19e8244eff582cc204f8554c3620c4037fbb7b4a454dc3493923482f07822329ed19e8244eff582cc204f8554c3620c3fe85019460018060a01b0360209681888a015116906001600160601b0360a01b91828254161790557fbb7b4a454dc3493923482f07822329ed19e8244eff582cc204f8554c3620c3ff83018260408b015116828254161790557fbb7b4a454dc3493923482f07822329ed19e8244eff582cc204f8554c3620c40083019160608a0151169082541617905560808701517fbb7b4a454dc3493923482f07822329ed19e8244eff582cc204f8554c3620c40182015560a08701517fbb7b4a454dc3493923482f07822329ed19e8244eff582cc204f8554c3620c402820155019401519182519267ffffffffffffffff8411614488576143a1865461360a565b601f8111614442575b508491601f85116001146143e35793945084929190836143d8575b50501b916000199060031b1c1916179055565b0151925038806143c5565b86815285812093958591601f198316915b88838310614428575050501061440f575b505050811b019055565b015160001960f88460031b161c19169055388080614405565b8587015188559096019594850194879350908101906143f4565b868352858320601f860160051c81019187871061447e575b601f0160051c019084905b8281106144735750506143aa565b848155018490614465565b909150819061445a565b634e487b7160e01b82526041600452602482fd5b8054600160401b811015613660576144bb9060019283820181556135d8565b614611578251815560c060068383019260018060a01b03602094818689015116906001600160601b0360a01b9182825416179055600283018260408a015116828254161790556003830191606089015116908254161790556080860151600482015560a08601516005820155019301519081519167ffffffffffffffff831161366057614548855461360a565b601f81116145c8575b5081601f841160011461457f57509282939183926000946143d85750501b916000199060031b1c1916179055565b919083601f1981168760005284600020946000905b888383106145ae575050501061440f57505050811b019055565b858701518855909601959485019487935090810190614594565b6000868152838120601f860160051c810192858710614607575b601f0160051c019186905b8381106145fc57505050614551565b8281550186906145ed565b90925082906145e2565b634e487b7160e01b600052600060045260246000fd5b926136f29491926040519461463b86613644565b42865260018060a01b038091169485602088015260006040880152166060860152608085015260a084015260c0830152600052600d60205261468181604060002061449c565b614210565b926136f295929491936040519561469c87613644565b42875260018060a01b0380809316968760208a0152166040880152166060860152608085015260a084015260c0830152600052600d60205261468181604060002061449c565b67ffffffffffffffff81116136605760051b60200190565b9060405161470781613644565b60c060ff600683958054855260018101546020860152600281015460408601526003810154606086015260048101546080860152600581015460a08601520154161515910152565b6040519061475c82613644565b8160c06000918281528260208201528260408201528260608201528260808201528260a0820152015256fe377aadedb6b2a771959584d10a6a36eccb5f56b4eb3a48525f76108d2660d8d4a26469706673582212201ac3c8d51a758b322d70f8661e1fb61490ab1adaf09d7294e47207952ceb9fb464736f6c63430008130033","opcodes":"PUSH1 0xA0 DUP1 PUSH1 0x40 MSTORE CALLVALUE PUSH2 0xE7 JUMPI PUSH7 0x38D7EA4C68000 DUP1 PUSH1 0x5 SSTORE PUSH1 0x6 SSTORE PUSH1 0xC PUSH1 0x10 SSTORE PUSH9 0x56BC75E2D63100000 PUSH1 0x11 SSTORE PUSH1 0x1 PUSH1 0x17 SSTORE PUSH1 0x5 PUSH1 0x19 SSTORE CALLER PUSH1 0x80 MSTORE PUSH1 0x14 PUSH1 0x7 SSTORE PUSH1 0x14 PUSH1 0x8 SSTORE PUSH1 0x14 PUSH1 0x9 SSTORE PUSH1 0x14 PUSH1 0xA SSTORE PUSH2 0x47DD SWAP1 DUP2 PUSH2 0xED DUP3 CODECOPY PUSH1 0x80 MLOAD DUP2 DUP2 DUP2 PUSH2 0x41F ADD MSTORE DUP2 DUP2 PUSH2 0x70C ADD MSTORE DUP2 DUP2 PUSH2 0x7FB ADD MSTORE DUP2 DUP2 PUSH2 0xB51 ADD MSTORE DUP2 DUP2 PUSH2 0xE34 ADD MSTORE DUP2 DUP2 PUSH2 0xF46 ADD MSTORE DUP2 DUP2 PUSH2 0x1114 ADD MSTORE DUP2 DUP2 PUSH2 0x121B ADD MSTORE DUP2 DUP2 PUSH2 0x16E8 ADD MSTORE DUP2 DUP2 PUSH2 0x1AA1 ADD MSTORE DUP2 DUP2 PUSH2 0x1BB1 ADD MSTORE DUP2 DUP2 PUSH2 0x1C59 ADD MSTORE DUP2 DUP2 PUSH2 0x2066 ADD MSTORE DUP2 DUP2 PUSH2 0x24DE ADD MSTORE DUP2 DUP2 PUSH2 0x28FC ADD MSTORE DUP2 DUP2 PUSH2 0x2E25 ADD MSTORE DUP2 DUP2 PUSH2 0x2F7C ADD MSTORE DUP2 DUP2 PUSH2 0x305D ADD MSTORE DUP2 DUP2 PUSH2 0x313E ADD MSTORE PUSH2 0x32D6 ADD MSTORE RETURN JUMPDEST PUSH1 0x0 DUP1 REVERT INVALID PUSH1 0x80 PUSH1 0x40 DUP2 DUP2 MSTORE PUSH1 0x4 DUP1 CALLDATASIZE LT ISZERO PUSH2 0x15 JUMPI PUSH1 0x0 DUP1 REVERT JUMPDEST PUSH1 0x0 SWAP3 PUSH1 0xE0 DUP5 CALLDATALOAD DUP2 SHR SWAP2 DUP3 PUSH4 0x2D45457 EQ PUSH2 0x34A5 JUMPI POP DUP2 PUSH4 0x32D975B EQ PUSH2 0x3485 JUMPI DUP2 PUSH4 0x6B091F9 EQ PUSH2 0x32B5 JUMPI DUP2 PUSH4 0x9813482 EQ PUSH2 0x31E5 JUMPI DUP2 PUSH4 0x150D283D EQ PUSH2 0x30AD JUMPI DUP2 PUSH4 0x182A676B EQ PUSH2 0x2FFB JUMPI DUP2 PUSH4 0x1CE24E16 EQ PUSH2 0x2FD3 JUMPI DUP2 PUSH4 0x1E37C606 EQ PUSH2 0x2F4F JUMPI DUP2 PUSH4 0x214405A9 EQ PUSH2 0x2F2F JUMPI DUP2 PUSH4 0x21874AE2 EQ PUSH2 0x2ECE JUMPI DUP2 PUSH4 0x251545DA EQ PUSH2 0x2D62 JUMPI DUP2 PUSH4 0x27506F53 EQ PUSH2 0x2C82 JUMPI DUP2 PUSH4 0x2BB38809 EQ PUSH2 0x25C3 JUMPI DUP2 PUSH4 0x2FD04C08 EQ PUSH2 0x2953 JUMPI DUP2 PUSH4 0x366B17D6 EQ PUSH2 0x28CF JUMPI DUP2 PUSH4 0x3B7B6188 EQ PUSH2 0x25E3 JUMPI DUP2 PUSH4 0x491CC756 EQ PUSH2 0x25C3 JUMPI DUP2 PUSH4 0x4A3B68CC EQ PUSH2 0x2587 JUMPI DUP2 PUSH4 0x4CDB312D EQ PUSH2 0x24C2 JUMPI DUP2 PUSH4 0x4F93208A EQ PUSH2 0x2483 JUMPI DUP2 PUSH4 0x518AB2A8 EQ PUSH2 0x2463 JUMPI DUP2 PUSH4 0x53AAA63B EQ PUSH2 0x242A JUMPI DUP2 PUSH4 0x57126D0D EQ PUSH2 0x21FB JUMPI DUP2 PUSH4 0x575CEA6B EQ PUSH2 0x2150 JUMPI DUP2 PUSH4 0x5B365040 EQ PUSH2 0x1FA3 JUMPI DUP2 PUSH4 0x608E4DD0 EQ PUSH2 0x1CC7 JUMPI DUP2 PUSH4 0x63219C72 EQ PUSH2 0x1C1A JUMPI DUP2 PUSH4 0x676C0D77 EQ PUSH2 0x1B72 JUMPI DUP2 PUSH4 0x6F43F373 EQ PUSH2 0x1B52 JUMPI DUP2 PUSH4 0x71D20FE7 EQ PUSH2 0x1A85 JUMPI DUP2 PUSH4 0x75506C96 EQ PUSH2 0x1A65 JUMPI DUP2 PUSH4 0x7A9773DC EQ PUSH2 0x1A45 JUMPI DUP2 PUSH4 0x7CC1F867 EQ PUSH2 0x1962 JUMPI DUP2 PUSH4 0x80933608 EQ PUSH2 0x187F JUMPI DUP2 PUSH4 0x817B1CD2 EQ PUSH2 0x185F JUMPI DUP2 PUSH4 0x83FABE03 EQ PUSH2 0x183F JUMPI DUP2 PUSH4 0x842E2981 EQ PUSH2 0x1737 JUMPI DUP2 PUSH4 0x86989038 EQ PUSH2 0x1717 JUMPI DUP2 PUSH4 0x8DA5CB5B EQ PUSH2 0x16D2 JUMPI DUP2 PUSH4 0x920A253E EQ PUSH2 0x16B2 JUMPI DUP2 PUSH4 0x963C9DD3 EQ PUSH2 0x15D7 JUMPI DUP2 PUSH4 0x9AB4A445 EQ PUSH2 0x15AD JUMPI DUP2 PUSH4 0x9C0FBD05 EQ PUSH2 0x1590 JUMPI DUP2 PUSH4 0x9EA7685A EQ PUSH2 0x13D6 JUMPI DUP2 PUSH4 0xA1DC9031 EQ PUSH2 0x1260 JUMPI DUP2 PUSH4 0xA29F481C EQ PUSH2 0x11F2 JUMPI DUP2 PUSH4 0xA7C60160 EQ PUSH2 0x1059 JUMPI DUP2 PUSH4 0xAECCF735 EQ PUSH2 0xE8B JUMPI DUP2 PUSH4 0xB006984F EQ PUSH2 0xE07 JUMPI DUP2 PUSH4 0xB40CD21D EQ PUSH2 0xDC5 JUMPI DUP2 PUSH4 0xB5D5B5FA EQ PUSH2 0xD32 JUMPI POP DUP1 PUSH4 0xB842EC44 EQ PUSH2 0xCB4 JUMPI DUP1 PUSH4 0xC3333DFB EQ PUSH2 0xAA1 JUMPI DUP1 PUSH4 0xC605AF53 EQ PUSH2 0xA82 JUMPI DUP1 PUSH4 0xC93C8F34 EQ PUSH2 0xA44 JUMPI DUP1 PUSH4 0xD11C583A EQ PUSH2 0xA1B JUMPI DUP1 PUSH4 0xD3EA4350 EQ PUSH2 0x9F4 JUMPI DUP1 PUSH4 0xD7FF0714 EQ PUSH2 0x8AC JUMPI DUP1 PUSH4 0xD8060CD5 EQ PUSH2 0x7E0 JUMPI DUP1 PUSH4 0xE697B5D8 EQ PUSH2 0x787 JUMPI DUP1 PUSH4 0xE985E367 EQ PUSH2 0x75F JUMPI DUP1 PUSH4 0xEBCD3A13 EQ PUSH2 0x6DF JUMPI DUP1 PUSH4 0xEE172546 EQ PUSH2 0x6C0 JUMPI DUP1 PUSH4 0xEF925399 EQ PUSH2 0x5E2 JUMPI DUP1 PUSH4 0xF1887684 EQ PUSH2 0x5C3 JUMPI DUP1 PUSH4 0xF30EF2E5 EQ PUSH2 0x369 JUMPI DUP1 PUSH4 0xF34A00FB EQ PUSH2 0x346 JUMPI PUSH4 0xFD9A11E5 EQ PUSH2 0x311 JUMPI PUSH1 0x0 DUP1 REVERT JUMPDEST CALLVALUE PUSH2 0x342 JUMPI PUSH1 0x20 CALLDATASIZE PUSH1 0x3 NOT ADD SLT PUSH2 0x342 JUMPI CALLDATALOAD DUP3 MSTORE PUSH1 0x13 PUSH1 0x20 SWAP1 DUP2 MSTORE SWAP2 DUP2 SWAP1 KECCAK256 SLOAD SWAP1 MLOAD PUSH1 0x1 PUSH1 0x1 PUSH1 0xA0 SHL SUB SWAP1 SWAP2 AND DUP2 MSTORE RETURN JUMPDEST DUP3 DUP1 REVERT JUMPDEST POP POP CALLVALUE PUSH2 0x365 JUMPI DUP2 PUSH1 0x3 NOT CALLDATASIZE ADD SLT PUSH2 0x365 JUMPI PUSH1 0x20 SWAP1 PUSH1 0x6 SLOAD SWAP1 MLOAD SWAP1 DUP2 MSTORE RETURN JUMPDEST POP DUP1 REVERT JUMPDEST POP CALLVALUE PUSH2 0x342 JUMPI PUSH1 0x20 SWAP1 DUP2 PUSH1 0x3 NOT CALLDATASIZE ADD SLT PUSH2 0x5BF JUMPI DUP1 CALLDATALOAD SWAP1 CALLER DUP6 MSTORE PUSH1 0xC DUP4 MSTORE PUSH2 0x397 PUSH1 0xFF DUP6 DUP8 KECCAK256 SLOAD AND ISZERO PUSH2 0x38A6 JUMP JUMPDEST DUP2 ISZERO SWAP1 PUSH2 0x3A4 DUP3 ISZERO PUSH2 0x39AD JUMP JUMPDEST DUP6 SLOAD PUSH1 0x1 PUSH1 0x1 PUSH1 0xA0 SHL SUB SWAP3 SWAP1 PUSH2 0x3BD SWAP1 DUP5 AND ISZERO ISZERO PUSH2 0x3923 JUMP JUMPDEST DUP3 DUP3 SLOAD AND DUP1 ISZERO PUSH2 0x587 JUMPI PUSH4 0x3B9ACA00 SWAP2 DUP3 DUP7 MUL SWAP3 DUP7 DUP5 DIV EQ OR ISZERO PUSH2 0x574 JUMPI PUSH2 0x3E7 PUSH1 0xA SLOAD DUP7 PUSH2 0x3964 JUMP JUMPDEST SWAP2 PUSH8 0xDE0B6B3A7640000 SWAP3 DUP4 DUP2 MUL SWAP4 DUP2 DUP6 DIV EQ SWAP1 ISZERO OR ISZERO PUSH2 0x561 JUMPI DUP8 MLOAD PUSH4 0x23B872DD PUSH1 0xE0 SHL DUP2 MSTORE CALLER DUP6 DUP3 ADD SWAP1 DUP2 MSTORE PUSH1 0x1 PUSH1 0x1 PUSH1 0xA0 SHL SUB PUSH32 0x0 AND PUSH1 0x20 DUP3 ADD MSTORE PUSH1 0x40 DUP2 ADD SWAP3 SWAP1 SWAP3 MSTORE SWAP2 DUP8 SWAP2 DUP4 SWAP2 SWAP1 DUP3 SWAP1 DUP13 SWAP1 DUP3 SWAP1 PUSH1 0x60 ADD SUB SWAP3 GAS CALL SWAP1 DUP2 ISZERO PUSH2 0x557 JUMPI DUP9 SWAP2 PUSH2 0x52A JUMPI JUMPDEST POP ISZERO PUSH2 0x4F1 JUMPI SWAP2 PUSH1 0x0 DUP1 MLOAD PUSH1 0x20 PUSH2 0x4788 DUP4 CODECOPY DUP2 MLOAD SWAP2 MSTORE SWAP4 SWAP2 PUSH2 0x4C9 PUSH2 0x494 PUSH2 0x4EB SWAP6 PUSH2 0x3E94 JUMP JUMPDEST SWAP7 PUSH2 0x49E DUP9 PUSH2 0x40CE JUMP JUMPDEST DUP8 DUP6 DUP6 DUP6 SLOAD AND DUP7 DUP14 SLOAD AND SWAP1 PUSH3 0x425559 PUSH1 0xE8 SHL DUP14 MLOAD SWAP6 PUSH2 0x4BC DUP8 PUSH2 0x3676 JUMP JUMPDEST PUSH1 0x3 DUP8 MSTORE DUP7 ADD MSTORE CALLER PUSH2 0x4686 JUMP JUMPDEST SLOAD AND SWAP5 MLOAD SWAP2 DUP3 SWAP2 CALLER SWAP6 TIMESTAMP SWAP2 DUP5 PUSH1 0x40 SWAP2 SWAP5 SWAP4 SWAP3 PUSH1 0x60 DUP3 ADD SWAP6 DUP3 MSTORE PUSH1 0x20 DUP3 ADD MSTORE ADD MSTORE JUMP JUMPDEST SUB SWAP1 LOG3 DUP1 RETURN JUMPDEST DUP6 MLOAD PUSH3 0x461BCD PUSH1 0xE5 SHL DUP2 MSTORE DUP1 DUP4 ADD DUP7 SWAP1 MSTORE PUSH1 0x13 PUSH1 0x24 DUP3 ADD MSTORE PUSH19 0x14D3D3081D1C985B9CD9995C8819985A5B1959 PUSH1 0x6A SHL PUSH1 0x44 DUP3 ADD MSTORE PUSH1 0x64 SWAP1 REVERT JUMPDEST PUSH2 0x54A SWAP2 POP DUP7 RETURNDATASIZE DUP9 GT PUSH2 0x550 JUMPI JUMPDEST PUSH2 0x542 DUP2 DUP4 PUSH2 0x3692 JUMP JUMPDEST DUP2 ADD SWAP1 PUSH2 0x3A3B JUMP JUMPDEST CODESIZE PUSH2 0x46D JUMP JUMPDEST POP RETURNDATASIZE PUSH2 0x538 JUMP JUMPDEST DUP8 MLOAD RETURNDATASIZE DUP11 DUP3 RETURNDATACOPY RETURNDATASIZE SWAP1 REVERT JUMPDEST PUSH4 0x4E487B71 PUSH1 0xE0 SHL DUP10 MSTORE PUSH1 0x11 DUP5 MSTORE PUSH1 0x24 DUP10 REVERT JUMPDEST PUSH4 0x4E487B71 PUSH1 0xE0 SHL DUP9 MSTORE PUSH1 0x11 DUP4 MSTORE PUSH1 0x24 DUP9 REVERT JUMPDEST DUP7 MLOAD PUSH3 0x461BCD PUSH1 0xE5 SHL DUP2 MSTORE DUP1 DUP5 ADD DUP8 SWAP1 MSTORE PUSH1 0x12 PUSH1 0x24 DUP3 ADD MSTORE PUSH18 0x14D3D3081B9BDD0818DBDB999A59DD5C9959 PUSH1 0x72 SHL PUSH1 0x44 DUP3 ADD MSTORE PUSH1 0x64 SWAP1 REVERT JUMPDEST DUP4 DUP1 REVERT JUMPDEST POP POP CALLVALUE PUSH2 0x365 JUMPI DUP2 PUSH1 0x3 NOT CALLDATASIZE ADD SLT PUSH2 0x365 JUMPI PUSH1 0x20 SWAP1 PUSH1 0x11 SLOAD SWAP1 MLOAD SWAP1 DUP2 MSTORE RETURN JUMPDEST POP DUP3 SWAP1 CALLVALUE PUSH2 0x365 JUMPI PUSH1 0x20 SWAP2 DUP3 PUSH1 0x3 NOT CALLDATASIZE ADD SLT PUSH2 0x6BD JUMPI PUSH1 0x1 PUSH1 0x1 PUSH1 0xA0 SHL SUB SWAP3 DUP4 PUSH2 0x60A PUSH2 0x34CA JUMP JUMPDEST AND DUP3 MSTORE PUSH1 0xD DUP2 MSTORE DUP5 DUP3 KECCAK256 SWAP2 DUP3 SLOAD SWAP4 PUSH2 0x621 DUP6 PUSH2 0x46E2 JUMP JUMPDEST SWAP6 PUSH2 0x62E DUP9 MLOAD SWAP8 DUP9 PUSH2 0x3692 JUMP JUMPDEST DUP6 DUP8 MSTORE DUP4 DUP8 ADD SWAP5 DUP4 MSTORE DUP4 DUP4 KECCAK256 SWAP3 SWAP5 JUMPDEST DUP7 DUP7 LT PUSH2 0x655 JUMPI DUP9 MLOAD DUP1 PUSH2 0x651 DUP11 DUP3 PUSH2 0x3525 JUMP JUMPDEST SUB SWAP1 RETURN JUMPDEST PUSH1 0x7 DUP6 PUSH1 0x1 SWAP3 DUP12 MLOAD PUSH2 0x666 DUP2 PUSH2 0x3644 JUMP JUMPDEST DUP8 SLOAD DUP2 MSTORE DUP6 DUP6 DUP10 ADD SLOAD AND DUP4 DUP3 ADD MSTORE DUP6 PUSH1 0x2 DUP10 ADD SLOAD AND DUP14 DUP3 ADD MSTORE DUP6 PUSH1 0x3 DUP10 ADD SLOAD AND PUSH1 0x60 DUP3 ADD MSTORE DUP7 DUP9 ADD SLOAD PUSH1 0x80 DUP3 ADD MSTORE PUSH1 0x5 DUP9 ADD SLOAD PUSH1 0xA0 DUP3 ADD MSTORE PUSH2 0x6AA PUSH1 0x6 DUP10 ADD PUSH2 0x36B4 JUMP JUMPDEST PUSH1 0xC0 DUP3 ADD MSTORE DUP2 MSTORE ADD SWAP5 ADD SWAP6 ADD SWAP5 SWAP3 PUSH2 0x63D JUMP JUMPDEST DUP1 REVERT JUMPDEST POP POP CALLVALUE PUSH2 0x365 JUMPI DUP2 PUSH1 0x3 NOT CALLDATASIZE ADD SLT PUSH2 0x365 JUMPI PUSH1 0x20 SWAP1 PUSH1 0x15 SLOAD SWAP1 MLOAD SWAP1 DUP2 MSTORE RETURN JUMPDEST POP SWAP1 CALLVALUE PUSH2 0x342 JUMPI CALLDATASIZE PUSH1 0x3 NOT ADD SLT PUSH2 0x365 JUMPI PUSH2 0x6F8 PUSH2 0x34CA JUMP JUMPDEST PUSH1 0x24 CALLDATALOAD SWAP2 SWAP1 PUSH1 0x1 PUSH1 0x1 PUSH1 0xA0 SHL SUB SWAP1 PUSH2 0x733 CALLER PUSH32 0x0 DUP5 AND EQ PUSH2 0x37B7 JUMP JUMPDEST AND PUSH2 0x73F DUP2 ISZERO ISZERO PUSH2 0x382C JUMP JUMPDEST PUSH2 0x74A DUP4 ISZERO ISZERO PUSH2 0x386A JUMP JUMPDEST DUP2 SLOAD PUSH1 0x1 PUSH1 0x1 PUSH1 0xA0 SHL SUB NOT AND OR SWAP1 SSTORE PUSH1 0xA SSTORE DUP1 RETURN JUMPDEST POP POP CALLVALUE PUSH2 0x365 JUMPI DUP2 PUSH1 0x3 NOT CALLDATASIZE ADD SLT PUSH2 0x365 JUMPI SWAP1 SLOAD SWAP1 MLOAD PUSH1 0x1 PUSH1 0x1 PUSH1 0xA0 SHL SUB SWAP1 SWAP2 AND DUP2 MSTORE PUSH1 0x20 SWAP1 RETURN JUMPDEST POP POP CALLVALUE PUSH2 0x365 JUMPI DUP1 PUSH1 0x3 NOT CALLDATASIZE ADD SLT PUSH2 0x365 JUMPI PUSH2 0x7A1 PUSH2 0x34CA JUMP JUMPDEST PUSH1 0x1 PUSH1 0x1 PUSH1 0xA0 SHL SUB SWAP1 DUP2 AND DUP4 MSTORE PUSH1 0x1B PUSH1 0x20 MSTORE DUP2 DUP4 KECCAK256 DUP1 SLOAD PUSH1 0x24 CALLDATALOAD SWAP5 SWAP1 DUP6 LT ISZERO PUSH2 0x6BD JUMPI POP PUSH1 0x20 SWAP4 PUSH2 0x7D1 SWAP2 PUSH2 0x379F JUMP JUMPDEST SWAP3 SWAP1 SLOAD SWAP1 MLOAD SWAP3 PUSH1 0x3 SHL SHR AND DUP2 MSTORE RETURN JUMPDEST POP CALLVALUE PUSH2 0x342 JUMPI PUSH1 0x20 CALLDATASIZE PUSH1 0x3 NOT ADD SLT PUSH2 0x342 JUMPI DUP1 CALLDATALOAD SWAP1 PUSH2 0x829 CALLER PUSH32 0x0 PUSH1 0x1 PUSH1 0x1 PUSH1 0xA0 SHL SUB AND EQ PUSH2 0x37B7 JUMP JUMPDEST DUP2 ISZERO PUSH2 0x869 JUMPI POP SWAP1 PUSH32 0x171AABB8815C02FD00303450A77058600E3661EB75CE2E77972C0F080BC7099D SWAP2 PUSH1 0x11 SLOAD SWAP1 DUP1 PUSH1 0x11 SSTORE DUP3 MLOAD SWAP2 DUP3 MSTORE PUSH1 0x20 DUP3 ADD MSTORE LOG1 DUP1 RETURN JUMPDEST PUSH1 0x64 SWAP1 PUSH1 0x20 DUP5 MLOAD SWAP2 PUSH3 0x461BCD PUSH1 0xE5 SHL DUP4 MSTORE DUP3 ADD MSTORE PUSH1 0x20 PUSH1 0x24 DUP3 ADD MSTORE PUSH32 0x4D696E207374616B65206D7573742062652067726561746572207468616E2030 PUSH1 0x44 DUP3 ADD MSTORE REVERT JUMPDEST POP CALLVALUE PUSH2 0x342 JUMPI PUSH1 0x20 CALLDATASIZE PUSH1 0x3 NOT ADD SLT PUSH2 0x342 JUMPI CALLDATALOAD PUSH1 0xE SLOAD DUP2 LT ISZERO PUSH2 0x342 JUMPI PUSH1 0xE PUSH1 0x7 SWAP3 SWAP4 MSTORE MUL SWAP1 PUSH2 0x651 DUP3 PUSH32 0xBB7B4A454DC3493923482F07822329ED19E8244EFF582CC204F8554C3620C3FD ADD SLOAD SWAP2 PUSH1 0x1 DUP1 PUSH1 0xA0 SHL SUB SWAP4 DUP5 PUSH32 0xBB7B4A454DC3493923482F07822329ED19E8244EFF582CC204F8554C3620C3FE DUP3 ADD SLOAD AND SWAP5 DUP1 PUSH32 0xBB7B4A454DC3493923482F07822329ED19E8244EFF582CC204F8554C3620C3FF DUP4 ADD SLOAD AND SWAP1 PUSH32 0xBB7B4A454DC3493923482F07822329ED19E8244EFF582CC204F8554C3620C400 DUP4 ADD SLOAD AND PUSH32 0xBB7B4A454DC3493923482F07822329ED19E8244EFF582CC204F8554C3620C401 DUP4 ADD SLOAD SWAP2 PUSH2 0x9E9 PUSH32 0xBB7B4A454DC3493923482F07822329ED19E8244EFF582CC204F8554C3620C403 PUSH32 0xBB7B4A454DC3493923482F07822329ED19E8244EFF582CC204F8554C3620C402 DUP7 ADD SLOAD SWAP6 ADD PUSH2 0x36B4 JUMP JUMPDEST SWAP5 MLOAD SWAP8 DUP9 SWAP8 DUP9 PUSH2 0x375A JUMP JUMPDEST POP SWAP2 CALLVALUE PUSH2 0x6BD JUMPI PUSH1 0x20 CALLDATASIZE PUSH1 0x3 NOT ADD SLT PUSH2 0x6BD JUMPI POP PUSH2 0xA14 PUSH1 0x20 SWAP3 CALLDATALOAD PUSH2 0x3C48 JUMP JUMPDEST SWAP1 MLOAD SWAP1 DUP2 MSTORE RETURN JUMPDEST POP POP CALLVALUE PUSH2 0x365 JUMPI DUP2 PUSH1 0x3 NOT CALLDATASIZE ADD SLT PUSH2 0x365 JUMPI PUSH1 0x3 SLOAD SWAP1 MLOAD PUSH1 0x1 PUSH1 0x1 PUSH1 0xA0 SHL SUB SWAP1 SWAP2 AND DUP2 MSTORE PUSH1 0x20 SWAP1 RETURN JUMPDEST POP POP CALLVALUE PUSH2 0x365 JUMPI PUSH1 0x20 CALLDATASIZE PUSH1 0x3 NOT ADD SLT PUSH2 0x365 JUMPI PUSH1 0x20 SWAP2 PUSH1 0xFF SWAP1 DUP3 SWAP1 PUSH1 0x1 PUSH1 0x1 PUSH1 0xA0 SHL SUB PUSH2 0xA6F PUSH2 0x34CA JUMP JUMPDEST AND DUP2 MSTORE PUSH1 0x18 DUP6 MSTORE KECCAK256 SLOAD AND SWAP1 MLOAD SWAP1 ISZERO ISZERO DUP2 MSTORE RETURN JUMPDEST POP POP CALLVALUE PUSH2 0x365 JUMPI DUP2 PUSH1 0x3 NOT CALLDATASIZE ADD SLT PUSH2 0x365 JUMPI PUSH1 0x20 SWAP1 PUSH1 0x5 SLOAD SWAP1 MLOAD SWAP1 DUP2 MSTORE RETURN JUMPDEST POP CALLVALUE PUSH2 0x342 JUMPI PUSH1 0x20 SWAP1 DUP2 PUSH1 0x3 NOT CALLDATASIZE ADD SLT PUSH2 0x5BF JUMPI DUP1 CALLDATALOAD SWAP1 CALLER DUP6 MSTORE PUSH1 0xC DUP4 MSTORE PUSH2 0xACF PUSH1 0xFF DUP6 DUP8 KECCAK256 SLOAD AND ISZERO PUSH2 0x38A6 JUMP JUMPDEST DUP2 ISZERO PUSH2 0xADB DUP2 ISZERO PUSH2 0x39AD JUMP JUMPDEST DUP6 SLOAD PUSH1 0x1 PUSH1 0x1 PUSH1 0xA0 SHL SUB SWAP3 SWAP1 PUSH2 0xAF4 SWAP1 DUP5 AND ISZERO ISZERO PUSH2 0x3923 JUMP JUMPDEST DUP3 PUSH1 0x3 SLOAD AND DUP1 ISZERO PUSH2 0xC7C JUMPI PUSH8 0xDE0B6B3A7640000 SWAP3 DUP4 DUP7 MUL SWAP1 DUP7 DUP3 DIV DUP6 EQ OR ISZERO PUSH2 0xC69 JUMPI PUSH2 0xB24 PUSH1 0x9 SLOAD DUP8 PUSH2 0x3964 JUMP JUMPDEST DUP5 DUP2 MUL SWAP5 DUP2 DUP7 DIV EQ SWAP1 ISZERO OR ISZERO PUSH2 0xC69 JUMPI DUP8 MLOAD PUSH4 0x23B872DD PUSH1 0xE0 SHL DUP2 MSTORE CALLER DUP5 DUP3 ADD SWAP1 DUP2 MSTORE PUSH1 0x1 PUSH1 0x1 PUSH1 0xA0 SHL SUB PUSH32 0x0 AND PUSH1 0x20 DUP3 ADD MSTORE PUSH1 0x40 DUP2 ADD SWAP3 SWAP1 SWAP3 MSTORE SWAP2 DUP8 SWAP2 DUP4 SWAP2 SWAP1 DUP3 SWAP1 DUP13 SWAP1 DUP3 SWAP1 PUSH1 0x60 ADD SUB SWAP3 GAS CALL SWAP1 DUP2 ISZERO PUSH2 0x557 JUMPI DUP9 SWAP2 PUSH2 0xC4C JUMPI JUMPDEST POP ISZERO PUSH2 0xC13 JUMPI POP SWAP2 PUSH2 0x4EB SWAP2 PUSH2 0xBEF PUSH2 0xBC6 PUSH1 0x0 DUP1 MLOAD PUSH1 0x20 PUSH2 0x4788 DUP4 CODECOPY DUP2 MLOAD SWAP2 MSTORE SWAP6 PUSH2 0x3E94 JUMP JUMPDEST SWAP6 PUSH2 0xBD0 DUP8 PUSH2 0x40CE JUMP JUMPDEST DUP7 DUP5 DUP5 PUSH1 0x3 SLOAD AND DUP6 DUP13 SLOAD AND SWAP1 PUSH3 0x425559 PUSH1 0xE8 SHL DUP13 MLOAD SWAP6 PUSH2 0x4BC DUP8 PUSH2 0x3676 JUMP JUMPDEST PUSH1 0x3 SLOAD AND SWAP5 MLOAD SWAP2 DUP3 SWAP2 CALLER SWAP6 TIMESTAMP SWAP2 DUP5 PUSH1 0x40 SWAP2 SWAP5 SWAP4 SWAP3 PUSH1 0x60 DUP3 ADD SWAP6 DUP3 MSTORE PUSH1 0x20 DUP3 ADD MSTORE ADD MSTORE JUMP JUMPDEST DUP6 MLOAD PUSH3 0x461BCD PUSH1 0xE5 SHL DUP2 MSTORE SWAP1 DUP2 ADD DUP6 SWAP1 MSTORE PUSH1 0x13 PUSH1 0x24 DUP3 ADD MSTORE PUSH19 0x109390881D1C985B9CD9995C8819985A5B1959 PUSH1 0x6A SHL PUSH1 0x44 DUP3 ADD MSTORE PUSH1 0x64 SWAP1 REVERT JUMPDEST PUSH2 0xC63 SWAP2 POP DUP7 RETURNDATASIZE DUP9 GT PUSH2 0x550 JUMPI PUSH2 0x542 DUP2 DUP4 PUSH2 0x3692 JUMP JUMPDEST CODESIZE PUSH2 0xB9F JUMP JUMPDEST PUSH4 0x4E487B71 PUSH1 0xE0 SHL DUP10 MSTORE PUSH1 0x11 DUP4 MSTORE PUSH1 0x24 DUP10 REVERT JUMPDEST DUP7 MLOAD PUSH3 0x461BCD PUSH1 0xE5 SHL DUP2 MSTORE DUP1 DUP4 ADD DUP8 SWAP1 MSTORE PUSH1 0x12 PUSH1 0x24 DUP3 ADD MSTORE PUSH18 0x109390881B9BDD0818DBDB999A59DD5C9959 PUSH1 0x72 SHL PUSH1 0x44 DUP3 ADD MSTORE PUSH1 0x64 SWAP1 REVERT JUMPDEST POP SWAP2 SWAP1 CALLVALUE PUSH2 0x365 JUMPI DUP1 PUSH1 0x3 NOT CALLDATASIZE ADD SLT PUSH2 0x365 JUMPI PUSH2 0xCCF PUSH2 0x34CA JUMP JUMPDEST PUSH1 0x1 PUSH1 0x1 PUSH1 0xA0 SHL SUB SWAP1 DUP2 AND DUP4 MSTORE PUSH1 0xD PUSH1 0x20 MSTORE DUP2 DUP4 KECCAK256 DUP1 SLOAD SWAP2 SWAP4 PUSH1 0x24 CALLDATALOAD SWAP3 DUP4 LT ISZERO PUSH2 0x6BD JUMPI POP PUSH2 0x651 SWAP3 SWAP2 PUSH2 0xD02 SWAP2 PUSH2 0x35D8 JUMP JUMPDEST POP DUP1 SLOAD SWAP4 DUP1 PUSH1 0x1 DUP4 ADD SLOAD AND SWAP6 DUP2 PUSH1 0x2 DUP5 ADD SLOAD AND SWAP2 PUSH1 0x3 DUP5 ADD SLOAD AND SWAP1 DUP4 ADD SLOAD SWAP2 PUSH2 0x9E9 PUSH1 0x6 PUSH1 0x5 DUP7 ADD SLOAD SWAP6 ADD PUSH2 0x36B4 JUMP JUMPDEST SWAP4 SWAP1 POP CALLVALUE PUSH2 0x6BD JUMPI DUP3 PUSH1 0x3 NOT CALLDATASIZE ADD SLT PUSH2 0x6BD JUMPI PUSH2 0xD4D PUSH2 0x34CA JUMP JUMPDEST PUSH1 0x1 PUSH1 0x1 PUSH1 0xA0 SHL SUB AND DUP2 MSTORE PUSH1 0x12 PUSH1 0x20 MSTORE DUP3 DUP2 KECCAK256 DUP1 SLOAD PUSH1 0x24 CALLDATALOAD SWAP3 SWAP1 DUP4 LT ISZERO PUSH2 0x6BD JUMPI POP SWAP1 PUSH2 0xD79 SWAP2 PUSH2 0x35D8 JUMP JUMPDEST POP DUP1 SLOAD SWAP3 PUSH1 0x1 DUP3 ADD SLOAD SWAP3 PUSH1 0x2 DUP4 ADD SLOAD PUSH1 0x3 DUP5 ADD SLOAD SWAP2 DUP5 ADD SLOAD SWAP3 PUSH1 0xFF PUSH1 0x6 PUSH1 0x5 DUP8 ADD SLOAD SWAP7 ADD SLOAD AND SWAP6 DUP2 MLOAD SWAP8 DUP9 MSTORE PUSH1 0x20 DUP9 ADD MSTORE DUP7 ADD MSTORE PUSH1 0x60 DUP6 ADD MSTORE PUSH1 0x80 DUP5 ADD MSTORE PUSH1 0xA0 DUP4 ADD MSTORE ISZERO ISZERO PUSH1 0xC0 DUP3 ADD MSTORE RETURN JUMPDEST POP POP POP CALLVALUE PUSH2 0x365 JUMPI DUP2 PUSH1 0x3 NOT CALLDATASIZE ADD SLT PUSH2 0x365 JUMPI PUSH1 0xA0 SWAP1 PUSH1 0x10 SLOAD SWAP1 PUSH1 0x11 SLOAD SWAP1 PUSH1 0x14 SLOAD PUSH1 0x15 SLOAD SWAP2 PUSH1 0x16 SLOAD SWAP4 DUP2 MLOAD SWAP6 DUP7 MSTORE PUSH1 0x20 DUP7 ADD MSTORE DUP5 ADD MSTORE PUSH1 0x60 DUP4 ADD MSTORE PUSH1 0x80 DUP3 ADD MSTORE RETURN JUMPDEST POP POP POP CALLVALUE PUSH2 0x365 JUMPI CALLDATASIZE PUSH1 0x3 NOT ADD SLT PUSH2 0x6BD JUMPI PUSH2 0xE21 PUSH2 0x34CA JUMP JUMPDEST PUSH1 0x24 CALLDATALOAD SWAP1 PUSH1 0x1 PUSH1 0x1 PUSH1 0xA0 SHL SUB SWAP1 PUSH2 0xE5B CALLER PUSH32 0x0 DUP5 AND EQ PUSH2 0x37B7 JUMP JUMPDEST AND PUSH2 0xE67 DUP2 ISZERO ISZERO PUSH2 0x382C JUMP JUMPDEST PUSH2 0xE72 DUP3 ISZERO ISZERO PUSH2 0x386A JUMP JUMPDEST PUSH1 0x1 PUSH1 0x1 PUSH1 0x60 SHL SUB PUSH1 0xA0 SHL PUSH1 0x1 SLOAD AND OR PUSH1 0x1 SSTORE PUSH1 0x7 SSTORE DUP1 RETURN JUMPDEST DUP3 DUP6 DUP6 CALLVALUE PUSH2 0x365 JUMPI PUSH1 0x20 DUP1 PUSH1 0x3 NOT CALLDATASIZE ADD SLT PUSH2 0x342 JUMPI DUP4 CALLDATALOAD CALLER DUP5 MSTORE PUSH1 0xC DUP3 MSTORE PUSH2 0xEB9 PUSH1 0xFF DUP5 DUP7 KECCAK256 SLOAD AND ISZERO PUSH2 0x38A6 JUMP JUMPDEST DUP1 ISZERO SWAP1 PUSH2 0xEC6 DUP3 ISZERO PUSH2 0x39AD JUMP JUMPDEST DUP5 SLOAD PUSH1 0x1 PUSH1 0x1 PUSH1 0xA0 SHL SUB SWAP1 PUSH2 0xEDE SWAP1 DUP3 AND ISZERO ISZERO PUSH2 0x3923 JUMP JUMPDEST DUP1 PUSH1 0x2 SLOAD AND SWAP3 PUSH2 0xEEF DUP5 ISZERO ISZERO PUSH2 0x3A96 JUMP JUMPDEST PUSH3 0xF4240 SWAP1 DUP2 DUP5 MUL SWAP2 DUP5 DUP4 DIV EQ OR ISZERO PUSH2 0x1046 JUMPI PUSH2 0xF0E PUSH1 0x8 SLOAD DUP5 PUSH2 0x3964 JUMP JUMPDEST SWAP4 PUSH8 0xDE0B6B3A7640000 SWAP5 DUP6 DUP2 MUL SWAP6 DUP2 DUP8 DIV EQ SWAP1 ISZERO OR ISZERO PUSH2 0x1033 JUMPI DUP7 MLOAD PUSH4 0x23B872DD PUSH1 0xE0 SHL DUP2 MSTORE CALLER DUP2 DUP12 ADD SWAP1 DUP2 MSTORE PUSH1 0x1 PUSH1 0x1 PUSH1 0xA0 SHL SUB PUSH32 0x0 AND PUSH1 0x20 DUP3 ADD MSTORE PUSH1 0x40 DUP2 ADD SWAP4 SWAP1 SWAP4 MSTORE SWAP5 SWAP4 SWAP3 SWAP2 DUP7 SWAP2 DUP7 SWAP2 DUP3 SWAP1 DUP12 SWAP1 DUP3 SWAP1 PUSH1 0x60 ADD SUB SWAP3 GAS CALL SWAP4 DUP5 ISZERO PUSH2 0x1029 JUMPI PUSH2 0xFBF PUSH2 0x4EB SWAP5 PUSH2 0xFBA PUSH1 0x0 DUP1 MLOAD PUSH1 0x20 PUSH2 0x4788 DUP4 CODECOPY DUP2 MLOAD SWAP2 MSTORE SWAP8 PUSH2 0xFE8 SWAP5 DUP13 SWAP2 PUSH2 0x100C JUMPI JUMPDEST POP PUSH2 0x3AD8 JUMP JUMPDEST PUSH2 0x3E94 JUMP JUMPDEST SWAP6 PUSH2 0xFC9 DUP8 PUSH2 0x40CE JUMP JUMPDEST DUP7 DUP5 DUP5 PUSH1 0x2 SLOAD AND DUP6 DUP13 SLOAD AND SWAP1 PUSH3 0x425559 PUSH1 0xE8 SHL DUP13 MLOAD SWAP6 PUSH2 0x4BC DUP8 PUSH2 0x3676 JUMP JUMPDEST PUSH1 0x2 SLOAD AND SWAP5 MLOAD SWAP2 DUP3 SWAP2 CALLER SWAP6 TIMESTAMP SWAP2 DUP5 PUSH1 0x40 SWAP2 SWAP5 SWAP4 SWAP3 PUSH1 0x60 DUP3 ADD SWAP6 DUP3 MSTORE PUSH1 0x20 DUP3 ADD MSTORE ADD MSTORE JUMP JUMPDEST PUSH2 0x1023 SWAP2 POP DUP11 RETURNDATASIZE DUP13 GT PUSH2 0x550 JUMPI PUSH2 0x542 DUP2 DUP4 PUSH2 0x3692 JUMP JUMPDEST DUP13 PUSH2 0xFB4 JUMP JUMPDEST DUP7 MLOAD RETURNDATASIZE DUP10 DUP3 RETURNDATACOPY RETURNDATASIZE SWAP1 REVERT JUMPDEST PUSH4 0x4E487B71 PUSH1 0xE0 SHL DUP9 MSTORE PUSH1 0x11 DUP10 MSTORE PUSH1 0x24 DUP9 REVERT JUMPDEST PUSH4 0x4E487B71 PUSH1 0xE0 SHL DUP8 MSTORE PUSH1 0x11 DUP9 MSTORE PUSH1 0x24 DUP8 REVERT JUMPDEST DUP3 DUP6 DUP6 CALLVALUE PUSH2 0x365 JUMPI PUSH1 0x20 DUP1 PUSH1 0x3 NOT CALLDATASIZE ADD SLT PUSH2 0x342 JUMPI DUP4 CALLDATALOAD CALLER DUP5 MSTORE PUSH1 0xC DUP3 MSTORE PUSH2 0x1087 PUSH1 0xFF DUP5 DUP7 KECCAK256 SLOAD AND ISZERO PUSH2 0x38A6 JUMP JUMPDEST DUP1 ISZERO SWAP1 PUSH2 0x1094 DUP3 ISZERO PUSH2 0x39AD JUMP JUMPDEST DUP5 SLOAD PUSH1 0x1 PUSH1 0x1 PUSH1 0xA0 SHL SUB SWAP1 PUSH2 0x10AC SWAP1 DUP3 AND ISZERO ISZERO PUSH2 0x3923 JUMP JUMPDEST DUP1 PUSH1 0x1 SLOAD AND SWAP3 PUSH2 0x10BD DUP5 ISZERO ISZERO PUSH2 0x39F9 JUMP JUMPDEST PUSH3 0xF4240 SWAP1 DUP2 DUP5 MUL SWAP2 DUP5 DUP4 DIV EQ OR ISZERO PUSH2 0x1046 JUMPI PUSH2 0x10DC PUSH1 0x7 SLOAD DUP5 PUSH2 0x3964 JUMP JUMPDEST SWAP4 PUSH8 0xDE0B6B3A7640000 SWAP5 DUP6 DUP2 MUL SWAP6 DUP2 DUP8 DIV EQ SWAP1 ISZERO OR ISZERO PUSH2 0x1033 JUMPI DUP7 MLOAD PUSH4 0x23B872DD PUSH1 0xE0 SHL DUP2 MSTORE CALLER DUP2 DUP12 ADD SWAP1 DUP2 MSTORE PUSH1 0x1 PUSH1 0x1 PUSH1 0xA0 SHL SUB PUSH32 0x0 AND PUSH1 0x20 DUP3 ADD MSTORE PUSH1 0x40 DUP2 ADD SWAP4 SWAP1 SWAP4 MSTORE SWAP5 SWAP4 SWAP3 SWAP2 DUP7 SWAP2 DUP7 SWAP2 DUP3 SWAP1 DUP12 SWAP1 DUP3 SWAP1 PUSH1 0x60 ADD SUB SWAP3 GAS CALL SWAP4 DUP5 ISZERO PUSH2 0x1029 JUMPI PUSH2 0x1188 PUSH2 0x4EB SWAP5 PUSH2 0xFBA PUSH1 0x0 DUP1 MLOAD PUSH1 0x20 PUSH2 0x4788 DUP4 CODECOPY DUP2 MLOAD SWAP2 MSTORE SWAP8 PUSH2 0x11B1 SWAP5 DUP13 SWAP2 PUSH2 0x11D5 JUMPI JUMPDEST POP PUSH2 0x3A53 JUMP JUMPDEST SWAP6 PUSH2 0x1192 DUP8 PUSH2 0x40CE JUMP JUMPDEST DUP7 DUP5 DUP5 PUSH1 0x1 SLOAD AND DUP6 DUP13 SLOAD AND SWAP1 PUSH3 0x425559 PUSH1 0xE8 SHL DUP13 MLOAD SWAP6 PUSH2 0x4BC DUP8 PUSH2 0x3676 JUMP JUMPDEST PUSH1 0x1 SLOAD AND SWAP5 MLOAD SWAP2 DUP3 SWAP2 CALLER SWAP6 TIMESTAMP SWAP2 DUP5 PUSH1 0x40 SWAP2 SWAP5 SWAP4 SWAP3 PUSH1 0x60 DUP3 ADD SWAP6 DUP3 MSTORE PUSH1 0x20 DUP3 ADD MSTORE ADD MSTORE JUMP JUMPDEST PUSH2 0x11EC SWAP2 POP DUP11 RETURNDATASIZE DUP13 GT PUSH2 0x550 JUMPI PUSH2 0x542 DUP2 DUP4 PUSH2 0x3692 JUMP JUMPDEST DUP13 PUSH2 0x1182 JUMP JUMPDEST DUP5 CALLVALUE PUSH2 0x6BD JUMPI PUSH1 0x20 CALLDATASIZE PUSH1 0x3 NOT ADD SLT PUSH2 0x6BD JUMPI PUSH2 0x120C PUSH2 0x34CA JUMP JUMPDEST PUSH1 0x1 PUSH1 0x1 PUSH1 0xA0 SHL SUB SWAP1 PUSH2 0x1242 CALLER PUSH32 0x0 DUP5 AND EQ PUSH2 0x37B7 JUMP JUMPDEST AND PUSH2 0x124E DUP2 ISZERO ISZERO PUSH2 0x382C JUMP JUMPDEST DUP2 SLOAD PUSH1 0x1 PUSH1 0x1 PUSH1 0xA0 SHL SUB NOT AND OR DUP2 SSTORE DUP1 RETURN JUMPDEST POP POP SWAP1 CALLVALUE PUSH2 0x342 JUMPI DUP3 PUSH1 0x3 NOT CALLDATASIZE ADD SLT PUSH2 0x342 JUMPI DUP3 SLOAD DUP2 MLOAD PUSH4 0x70A08231 PUSH1 0xE0 SHL DUP1 DUP3 MSTORE ADDRESS DUP3 DUP7 ADD MSTORE SWAP1 SWAP5 PUSH1 0x1 PUSH1 0x1 PUSH1 0xA0 SHL SUB SWAP5 PUSH1 0x20 SWAP4 DUP5 SWAP1 DUP9 SWAP1 PUSH1 0x24 SWAP1 DUP3 SWAP1 DUP11 AND GAS STATICCALL SWAP6 DUP7 ISZERO PUSH2 0x13CC JUMPI DUP3 SWAP7 PUSH2 0x139C JUMPI JUMPDEST PUSH1 0x24 SWAP8 POP DUP5 DUP2 PUSH1 0x1 SLOAD AND DUP8 MLOAD SWAP10 DUP11 DUP1 SWAP3 DUP9 DUP3 MSTORE ADDRESS DUP8 DUP4 ADD MSTORE GAS STATICCALL SWAP8 DUP9 ISZERO PUSH2 0x1392 JUMPI DUP4 SWAP9 PUSH2 0x1362 JUMPI JUMPDEST POP SWAP1 PUSH1 0x24 DUP6 SWAP3 PUSH1 0x2 SLOAD AND SWAP5 DUP8 MLOAD SWAP6 DUP7 SWAP4 DUP5 SWAP3 DUP4 MSTORE ADDRESS SWAP1 DUP4 ADD MSTORE GAS STATICCALL SWAP3 DUP4 ISZERO PUSH2 0x1356 JUMPI DUP2 SWAP4 PUSH2 0x1323 JUMPI JUMPDEST POP POP POP PUSH2 0x651 SWAP2 MLOAD SWAP4 DUP5 SWAP4 DUP5 PUSH1 0x40 SWAP2 SWAP5 SWAP4 SWAP3 PUSH1 0x60 DUP3 ADD SWAP6 DUP3 MSTORE PUSH1 0x20 DUP3 ADD MSTORE ADD MSTORE JUMP JUMPDEST SWAP1 SWAP2 DUP1 SWAP4 POP DUP2 RETURNDATASIZE DUP4 GT PUSH2 0x134F JUMPI JUMPDEST PUSH2 0x133B DUP2 DUP4 PUSH2 0x3692 JUMP JUMPDEST DUP2 ADD SUB SLT PUSH2 0x6BD JUMPI POP MLOAD PUSH2 0x651 CODESIZE DUP1 PUSH2 0x1301 JUMP JUMPDEST POP RETURNDATASIZE PUSH2 0x1331 JUMP JUMPDEST POP DUP4 MLOAD SWAP1 RETURNDATASIZE SWAP1 DUP3 RETURNDATACOPY RETURNDATASIZE SWAP1 REVERT JUMPDEST SWAP1 SWAP8 POP DUP5 DUP2 DUP2 RETURNDATASIZE DUP4 GT PUSH2 0x138B JUMPI JUMPDEST PUSH2 0x137A DUP2 DUP4 PUSH2 0x3692 JUMP JUMPDEST DUP2 ADD SUB SLT PUSH2 0x342 JUMPI MLOAD SWAP7 PUSH1 0x24 PUSH2 0x12D8 JUMP JUMPDEST POP RETURNDATASIZE PUSH2 0x1370 JUMP JUMPDEST DUP7 MLOAD RETURNDATASIZE DUP6 DUP3 RETURNDATACOPY RETURNDATASIZE SWAP1 REVERT JUMPDEST SWAP6 POP DUP4 DUP8 DUP2 RETURNDATASIZE DUP4 GT PUSH2 0x13C5 JUMPI JUMPDEST PUSH2 0x13B3 DUP2 DUP4 PUSH2 0x3692 JUMP JUMPDEST DUP2 ADD SUB SLT PUSH2 0x365 JUMPI PUSH1 0x24 SWAP7 MLOAD SWAP6 PUSH2 0x12B0 JUMP JUMPDEST POP RETURNDATASIZE PUSH2 0x13A9 JUMP JUMPDEST DUP6 MLOAD RETURNDATASIZE DUP5 DUP3 RETURNDATACOPY RETURNDATASIZE SWAP1 REVERT JUMPDEST DUP3 DUP6 DUP6 CALLVALUE PUSH2 0x365 JUMPI PUSH1 0x20 SWAP1 DUP2 PUSH1 0x3 NOT CALLDATASIZE ADD SLT PUSH2 0x342 JUMPI PUSH2 0x13F4 PUSH2 0x34CA JUMP JUMPDEST SWAP1 CALLER DUP5 MSTORE PUSH1 0xC DUP4 MSTORE PUSH2 0x140C PUSH1 0xFF DUP3 DUP7 KECCAK256 SLOAD AND ISZERO PUSH2 0x38A6 JUMP JUMPDEST PUSH1 0x1 PUSH1 0x1 PUSH1 0xA0 SHL SUB SWAP2 DUP3 AND SWAP3 DUP4 ISZERO PUSH2 0x154E JUMPI CALLER DUP5 EQ PUSH2 0x1514 JUMPI CALLER DUP6 MSTORE PUSH1 0x1A DUP2 MSTORE DUP3 DUP3 DUP7 KECCAK256 SLOAD AND PUSH2 0x14C7 JUMPI CALLER DUP6 MSTORE PUSH1 0x1A DUP2 MSTORE DUP2 DUP6 KECCAK256 DUP1 SLOAD PUSH1 0x1 PUSH1 0x1 PUSH1 0xA0 SHL SUB NOT AND DUP6 OR SWAP1 SSTORE DUP4 DUP6 MSTORE PUSH1 0x1B SWAP1 MSTORE DUP4 KECCAK256 DUP1 SLOAD SWAP1 PUSH1 0x1 PUSH1 0x40 SHL DUP3 LT ISZERO PUSH2 0x14B4 JUMPI SWAP1 PUSH2 0x1478 SWAP2 PUSH1 0x1 DUP3 ADD DUP2 SSTORE PUSH2 0x379F JUMP JUMPDEST DUP2 SWAP3 SWAP2 SLOAD SWAP1 PUSH1 0x3 SHL SWAP2 CALLER DUP4 SHL SWAP3 SHL NOT AND OR SWAP1 SSTORE CALLER SWAP1 PUSH32 0x5F1CA2FCC108B751843A763E60D2201F593516109D7DBB1B700468F2D4190BB7 DUP4 DUP1 LOG3 DUP1 RETURN JUMPDEST PUSH4 0x4E487B71 PUSH1 0xE0 SHL DUP6 MSTORE PUSH1 0x41 DUP7 MSTORE PUSH1 0x24 DUP6 REVERT JUMPDEST DUP6 SWAP1 PUSH1 0x84 SWAP3 MLOAD SWAP2 PUSH3 0x461BCD PUSH1 0xE5 SHL DUP4 MSTORE DUP3 ADD MSTORE PUSH1 0x22 PUSH1 0x24 DUP3 ADD MSTORE PUSH32 0x416C726561647920726567697374657265642077697468206120726566657272 PUSH1 0x44 DUP3 ADD MSTORE PUSH2 0x32B9 PUSH1 0xF1 SHL PUSH1 0x64 DUP3 ADD MSTORE REVERT JUMPDEST DUP6 SWAP1 PUSH1 0x64 SWAP3 MLOAD SWAP2 PUSH3 0x461BCD PUSH1 0xE5 SHL DUP4 MSTORE DUP3 ADD MSTORE PUSH1 0x15 PUSH1 0x24 DUP3 ADD MSTORE PUSH21 0x21B0B73737BA103932B332B9103CB7BAB939B2B633 PUSH1 0x59 SHL PUSH1 0x44 DUP3 ADD MSTORE REVERT JUMPDEST DUP6 SWAP1 PUSH1 0x64 SWAP3 MLOAD SWAP2 PUSH3 0x461BCD PUSH1 0xE5 SHL DUP4 MSTORE DUP3 ADD MSTORE PUSH1 0x18 PUSH1 0x24 DUP3 ADD MSTORE PUSH32 0x496E76616C696420726566657272657220616464726573730000000000000000 PUSH1 0x44 DUP3 ADD MSTORE REVERT JUMPDEST POP POP POP CALLVALUE PUSH2 0x365 JUMPI DUP2 PUSH1 0x3 NOT CALLDATASIZE ADD SLT PUSH2 0x365 JUMPI PUSH1 0x20 SWAP1 MLOAD PUSH1 0x5 DUP2 MSTORE RETURN JUMPDEST POP POP POP CALLVALUE PUSH2 0x365 JUMPI DUP2 PUSH1 0x3 NOT CALLDATASIZE ADD SLT PUSH2 0x365 JUMPI PUSH1 0x1 SLOAD SWAP1 MLOAD PUSH1 0x1 PUSH1 0x1 PUSH1 0xA0 SHL SUB SWAP1 SWAP2 AND DUP2 MSTORE PUSH1 0x20 SWAP1 RETURN JUMPDEST POP POP CALLVALUE PUSH2 0x342 JUMPI PUSH1 0x20 SWAP1 DUP2 PUSH1 0x3 NOT CALLDATASIZE ADD SLT PUSH2 0x5BF JUMPI CALLDATALOAD DUP1 DUP5 MSTORE PUSH1 0x13 DUP3 MSTORE DUP3 DUP5 KECCAK256 SLOAD PUSH1 0x1 PUSH1 0x1 PUSH1 0xA0 SHL SUB AND SWAP4 SWAP1 SWAP3 SWAP1 PUSH2 0x1610 DUP6 ISZERO ISZERO PUSH2 0x3B7B JUMP JUMPDEST PUSH2 0x1618 PUSH2 0x474F JUMP JUMPDEST DUP2 SWAP6 DUP3 JUMPDEST DUP2 DUP5 MSTORE PUSH1 0x12 DUP1 DUP8 MSTORE DUP6 DUP6 KECCAK256 DUP1 SLOAD DUP4 LT ISZERO PUSH2 0x169D JUMPI PUSH2 0x163B DUP4 DUP11 SWAP3 PUSH2 0x35D8 JUMP JUMPDEST POP SLOAD EQ PUSH2 0x1651 JUMPI POP PUSH2 0x164C SWAP1 PUSH2 0x3B5F JUMP JUMPDEST PUSH2 0x161C JUMP JUMPDEST PUSH1 0x60 SWAP9 POP PUSH2 0x1674 SWAP4 POP DUP5 DUP7 SWAP2 PUSH2 0x166E SWAP5 PUSH2 0x1684 SWAP8 MSTORE DUP9 MSTORE KECCAK256 PUSH2 0x35D8 JUMP JUMPDEST POP PUSH2 0x46FA JUMP JUMPDEST SWAP4 PUSH2 0x167F PUSH1 0x1 PUSH2 0x3BBE JUMP JUMPDEST PUSH2 0x3C48 JUMP JUMPDEST PUSH1 0xC0 DUP6 DUP6 ADD MLOAD SWAP5 ADD MLOAD ISZERO ISZERO SWAP3 DUP3 MLOAD SWAP5 DUP6 MSTORE DUP5 ADD MSTORE DUP3 ADD MSTORE RETURN JUMPDEST POP POP POP POP SWAP4 PUSH2 0x1684 SWAP2 POP PUSH2 0x167F PUSH1 0x60 SWAP7 PUSH2 0x3BBE JUMP JUMPDEST POP POP POP CALLVALUE PUSH2 0x365 JUMPI DUP2 PUSH1 0x3 NOT CALLDATASIZE ADD SLT PUSH2 0x365 JUMPI PUSH1 0x20 SWAP1 PUSH1 0x19 SLOAD SWAP1 MLOAD SWAP1 DUP2 MSTORE RETURN JUMPDEST POP POP POP CALLVALUE PUSH2 0x365 JUMPI DUP2 PUSH1 0x3 NOT CALLDATASIZE ADD SLT PUSH2 0x365 JUMPI MLOAD PUSH32 0x0 PUSH1 0x1 PUSH1 0x1 PUSH1 0xA0 SHL SUB AND DUP2 MSTORE PUSH1 0x20 SWAP1 RETURN JUMPDEST POP POP POP CALLVALUE PUSH2 0x365 JUMPI DUP2 PUSH1 0x3 NOT CALLDATASIZE ADD SLT PUSH2 0x365 JUMPI PUSH1 0x20 SWAP1 PUSH1 0x16 SLOAD SWAP1 MLOAD SWAP1 DUP2 MSTORE RETURN JUMPDEST SWAP2 POP POP CALLVALUE PUSH2 0x342 JUMPI PUSH1 0x20 DUP1 PUSH1 0x3 NOT CALLDATASIZE ADD SLT PUSH2 0x5BF JUMPI SWAP1 SWAP2 PUSH1 0x1 PUSH1 0x1 PUSH1 0xA0 SHL SUB PUSH2 0x175E PUSH2 0x34CA JUMP JUMPDEST AND DUP5 MSTORE PUSH1 0x12 DUP3 MSTORE DUP1 DUP5 KECCAK256 SWAP2 DUP3 SLOAD SWAP2 PUSH2 0x1775 DUP4 PUSH2 0x46E2 JUMP JUMPDEST SWAP3 PUSH2 0x1782 DUP3 MLOAD SWAP5 DUP6 PUSH2 0x3692 JUMP JUMPDEST DUP1 DUP5 MSTORE DUP3 DUP5 ADD DUP1 SWAP6 DUP9 MSTORE DUP4 DUP9 KECCAK256 DUP9 SWAP2 JUMPDEST DUP4 DUP4 LT PUSH2 0x1812 JUMPI POP POP POP POP DUP1 MLOAD SWAP5 DUP3 DUP7 ADD SWAP4 DUP4 DUP8 MSTORE MLOAD DUP1 SWAP5 MSTORE DUP2 DUP7 ADD SWAP5 SWAP7 SWAP2 JUMPDEST DUP5 DUP4 LT PUSH2 0x17BF JUMPI DUP7 DUP7 SUB DUP8 RETURN JUMPDEST DUP8 MLOAD DUP1 MLOAD DUP8 MSTORE DUP1 DUP6 ADD MLOAD DUP8 DUP7 ADD MSTORE DUP1 DUP3 ADD MLOAD DUP8 DUP4 ADD MSTORE PUSH1 0x60 DUP1 DUP3 ADD MLOAD SWAP1 DUP9 ADD MSTORE PUSH1 0x80 DUP1 DUP3 ADD MLOAD SWAP1 DUP9 ADD MSTORE PUSH1 0xA0 DUP1 DUP3 ADD MLOAD SWAP1 DUP9 ADD MSTORE PUSH1 0xC0 SWAP1 DUP2 ADD MLOAD ISZERO ISZERO SWAP1 DUP8 ADD MSTORE SWAP7 DUP4 ADD SWAP7 SWAP5 DUP2 ADD SWAP5 PUSH1 0x1 SWAP1 SWAP3 ADD SWAP2 PUSH2 0x17B2 JUMP JUMPDEST PUSH1 0x7 DUP7 PUSH1 0x1 SWAP3 PUSH2 0x1829 DUP6 SWAP14 SWAP10 SWAP11 SWAP12 SWAP14 SWAP13 SWAP9 SWAP13 PUSH2 0x46FA JUMP JUMPDEST DUP2 MSTORE ADD SWAP3 ADD SWAP3 ADD SWAP2 SWAP1 SWAP9 SWAP7 SWAP6 SWAP5 SWAP9 SWAP8 SWAP4 SWAP8 PUSH2 0x1792 JUMP JUMPDEST POP POP POP CALLVALUE PUSH2 0x365 JUMPI DUP2 PUSH1 0x3 NOT CALLDATASIZE ADD SLT PUSH2 0x365 JUMPI PUSH1 0x20 SWAP1 PUSH1 0x7 SLOAD SWAP1 MLOAD SWAP1 DUP2 MSTORE RETURN JUMPDEST POP POP POP CALLVALUE PUSH2 0x365 JUMPI DUP2 PUSH1 0x3 NOT CALLDATASIZE ADD SLT PUSH2 0x365 JUMPI PUSH1 0x20 SWAP1 PUSH1 0x14 SLOAD SWAP1 MLOAD SWAP1 DUP2 MSTORE RETURN JUMPDEST DUP4 DUP6 CALLVALUE PUSH2 0x6BD JUMPI PUSH1 0x20 SWAP1 DUP2 PUSH1 0x3 NOT CALLDATASIZE ADD SLT PUSH2 0x6BD JUMPI PUSH2 0x189C PUSH2 0x34CA JUMP JUMPDEST SWAP1 SWAP2 DUP3 SWAP2 DUP3 SWAP2 SWAP1 DUP3 SWAP1 PUSH1 0x1 PUSH1 0x1 PUSH1 0xA0 SHL SUB AND DUP2 JUMPDEST DUP2 DUP7 MSTORE PUSH1 0x12 DUP1 DUP6 MSTORE DUP9 DUP8 KECCAK256 DUP1 SLOAD DUP4 LT ISZERO PUSH2 0x194A JUMPI PUSH1 0xFF PUSH1 0x6 PUSH2 0x18D3 DUP6 DUP14 SWAP5 PUSH2 0x35D8 JUMP JUMPDEST POP ADD SLOAD AND PUSH2 0x18EC JUMPI JUMPDEST POP POP PUSH2 0x18E7 SWAP1 PUSH2 0x3B5F JUMP JUMPDEST PUSH2 0x18B0 JUMP JUMPDEST DUP3 SWAP7 SWAP5 PUSH2 0x191A DUP4 SWAP11 PUSH1 0x1 PUSH2 0x1911 PUSH2 0x18E7 SWAP8 PUSH2 0x193C SWAP7 DUP15 PUSH2 0x1942 SWAP10 DUP15 DUP14 DUP4 MSTORE MSTORE KECCAK256 PUSH2 0x35D8 JUMP JUMPDEST POP ADD SLOAD SWAP1 PUSH2 0x3B6E JUMP JUMPDEST SWAP10 DUP6 DUP11 MSTORE DUP8 MSTORE PUSH2 0x1936 PUSH2 0x192F DUP10 DUP14 DUP13 KECCAK256 PUSH2 0x35D8 JUMP JUMPDEST POP SLOAD PUSH2 0x3C48 JUMP JUMPDEST SWAP1 PUSH2 0x3B6E JUMP JUMPDEST SWAP4 PUSH2 0x3B5F JUMP JUMPDEST SWAP5 SWAP1 DUP9 PUSH2 0x18DC JUMP JUMPDEST DUP10 MLOAD DUP10 DUP2 MSTORE PUSH1 0x20 DUP2 ADD DUP7 SWAP1 MSTORE PUSH1 0x40 DUP2 ADD DUP9 SWAP1 MSTORE PUSH1 0x60 SWAP1 RETURN JUMPDEST SWAP3 SWAP1 POP CALLVALUE PUSH2 0x5BF JUMPI DUP4 PUSH1 0x3 NOT CALLDATASIZE ADD SLT PUSH2 0x5BF JUMPI DUP4 SLOAD DUP2 MLOAD PUSH4 0x70A08231 PUSH1 0xE0 SHL DUP2 MSTORE ADDRESS SWAP4 DUP2 ADD SWAP4 SWAP1 SWAP4 MSTORE PUSH1 0x1 PUSH1 0x1 PUSH1 0xA0 SHL SUB SWAP1 DUP2 AND SWAP4 SWAP1 PUSH1 0x20 DUP5 PUSH1 0x24 DUP2 DUP9 GAS STATICCALL SWAP4 DUP5 ISZERO PUSH2 0x1A3B JUMPI DUP7 SWAP5 PUSH2 0x19FF JUMPI JUMPDEST POP PUSH2 0x120 SWAP6 POP PUSH1 0x5 SLOAD SWAP1 PUSH1 0x6 SLOAD PUSH1 0xB SLOAD SWAP1 DUP3 PUSH1 0x1 SLOAD AND SWAP3 PUSH1 0x2 SLOAD AND SWAP4 PUSH1 0x7 SLOAD SWAP7 PUSH1 0x8 SLOAD SWAP9 DUP2 MLOAD SWAP11 DUP12 MSTORE PUSH1 0x20 DUP12 ADD MSTORE DUP10 ADD MSTORE PUSH1 0x60 DUP9 ADD MSTORE PUSH1 0x80 DUP8 ADD MSTORE PUSH1 0xA0 DUP7 ADD MSTORE PUSH1 0xC0 DUP6 ADD MSTORE DUP4 ADD MSTORE PUSH2 0x100 DUP3 ADD MSTORE RETURN JUMPDEST SWAP1 SWAP4 POP PUSH1 0x20 DUP2 RETURNDATASIZE DUP3 GT PUSH2 0x1A33 JUMPI JUMPDEST DUP2 PUSH2 0x1A1A PUSH1 0x20 SWAP4 DUP4 PUSH2 0x3692 JUMP JUMPDEST DUP2 ADD SUB SLT PUSH2 0x1A2F JUMPI PUSH2 0x120 SWAP6 POP MLOAD SWAP3 CODESIZE PUSH2 0x19AF JUMP JUMPDEST DUP6 DUP1 REVERT JUMPDEST RETURNDATASIZE SWAP2 POP PUSH2 0x1A0D JUMP JUMPDEST DUP4 MLOAD RETURNDATASIZE DUP9 DUP3 RETURNDATACOPY RETURNDATASIZE SWAP1 REVERT JUMPDEST POP POP POP CALLVALUE PUSH2 0x365 JUMPI DUP2 PUSH1 0x3 NOT CALLDATASIZE ADD SLT PUSH2 0x365 JUMPI PUSH1 0x20 SWAP1 PUSH1 0xA SLOAD SWAP1 MLOAD SWAP1 DUP2 MSTORE RETURN JUMPDEST POP POP POP CALLVALUE PUSH2 0x365 JUMPI DUP2 PUSH1 0x3 NOT CALLDATASIZE ADD SLT PUSH2 0x365 JUMPI PUSH1 0x20 SWAP1 PUSH1 0x17 SLOAD SWAP1 MLOAD SWAP1 DUP2 MSTORE RETURN JUMPDEST POP POP CALLVALUE PUSH2 0x342 JUMPI PUSH1 0x20 CALLDATASIZE PUSH1 0x3 NOT ADD SLT PUSH2 0x342 JUMPI DUP1 CALLDATALOAD SWAP1 PUSH2 0x1ACF CALLER PUSH32 0x0 PUSH1 0x1 PUSH1 0x1 PUSH1 0xA0 SHL SUB AND EQ PUSH2 0x37B7 JUMP JUMPDEST DUP2 ISZERO PUSH2 0x1B0F JUMPI POP SWAP1 PUSH32 0x787A1FCA55641CE34A438271930BBB9401DF20DB2B4F510D4F252227D85DF43D SWAP2 PUSH1 0x10 SLOAD SWAP1 DUP1 PUSH1 0x10 SSTORE DUP3 MLOAD SWAP2 DUP3 MSTORE PUSH1 0x20 DUP3 ADD MSTORE LOG1 DUP1 RETURN JUMPDEST PUSH1 0x64 SWAP1 PUSH1 0x20 DUP5 MLOAD SWAP2 PUSH3 0x461BCD PUSH1 0xE5 SHL DUP4 MSTORE DUP3 ADD MSTORE PUSH1 0x1A PUSH1 0x24 DUP3 ADD MSTORE PUSH32 0x415059206D7573742062652067726561746572207468616E2030000000000000 PUSH1 0x44 DUP3 ADD MSTORE REVERT JUMPDEST POP POP POP CALLVALUE PUSH2 0x365 JUMPI DUP2 PUSH1 0x3 NOT CALLDATASIZE ADD SLT PUSH2 0x365 JUMPI PUSH1 0x20 SWAP1 PUSH1 0x8 SLOAD SWAP1 MLOAD SWAP1 DUP2 MSTORE RETURN JUMPDEST POP POP CALLVALUE PUSH2 0x342 JUMPI PUSH1 0x20 CALLDATASIZE PUSH1 0x3 NOT ADD SLT PUSH2 0x342 JUMPI PUSH32 0x6E838F2A03741F5F2AFF5480963B672FB0DD8430A4DC75DB9B67CE009733C9FE SWAP2 PUSH1 0xA0 SWAP2 CALLDATALOAD PUSH2 0x1BDF CALLER PUSH32 0x0 PUSH1 0x1 PUSH1 0x1 PUSH1 0xA0 SHL SUB AND EQ PUSH2 0x37B7 JUMP JUMPDEST PUSH2 0x1BEA DUP2 ISZERO ISZERO PUSH2 0x37F0 JUMP JUMPDEST PUSH1 0x5 SLOAD SWAP2 DUP2 PUSH1 0x5 SSTORE DUP1 MLOAD SWAP3 PUSH1 0x60 DUP5 MSTORE PUSH1 0x5 PUSH1 0x60 DUP6 ADD MSTORE PUSH5 0x2A27A5A2A7 PUSH1 0xD9 SHL PUSH1 0x80 DUP6 ADD MSTORE PUSH1 0x20 DUP5 ADD MSTORE DUP3 ADD MSTORE LOG1 DUP1 RETURN JUMPDEST POP POP CALLVALUE PUSH2 0x342 JUMPI PUSH1 0x20 CALLDATASIZE PUSH1 0x3 NOT ADD SLT PUSH2 0x342 JUMPI PUSH32 0x6E838F2A03741F5F2AFF5480963B672FB0DD8430A4DC75DB9B67CE009733C9FE SWAP2 PUSH1 0xA0 SWAP2 CALLDATALOAD PUSH2 0x1C87 CALLER PUSH32 0x0 PUSH1 0x1 PUSH1 0x1 PUSH1 0xA0 SHL SUB AND EQ PUSH2 0x37B7 JUMP JUMPDEST PUSH2 0x1C92 DUP2 ISZERO ISZERO PUSH2 0x37F0 JUMP JUMPDEST PUSH1 0x6 SLOAD SWAP2 DUP2 PUSH1 0x6 SSTORE DUP1 MLOAD SWAP3 PUSH1 0x60 DUP5 MSTORE PUSH1 0xA PUSH1 0x60 DUP6 ADD MSTORE PUSH10 0x29AA20A12622A1A7A4A7 PUSH1 0xB1 SHL PUSH1 0x80 DUP6 ADD MSTORE PUSH1 0x20 DUP5 ADD MSTORE DUP3 ADD MSTORE LOG1 DUP1 RETURN JUMPDEST POP POP SWAP1 CALLVALUE PUSH2 0x342 JUMPI PUSH1 0x20 SWAP1 DUP2 PUSH1 0x3 NOT CALLDATASIZE ADD SLT PUSH2 0x5BF JUMPI DUP3 SWAP2 SWAP3 CALLDATALOAD SWAP3 CALLER DUP6 MSTORE PUSH1 0xC DUP2 MSTORE PUSH1 0xFF PUSH2 0x1CFA DUP2 DUP5 DUP9 KECCAK256 SLOAD AND ISZERO PUSH2 0x38A6 JUMP JUMPDEST DUP5 DUP7 MSTORE PUSH1 0x13 DUP3 MSTORE DUP3 DUP7 KECCAK256 SLOAD PUSH1 0x1 PUSH1 0x1 PUSH1 0xA0 SHL SUB SWAP1 PUSH2 0x1D1B SWAP1 DUP3 AND CALLER EQ PUSH2 0x3E56 JUMP JUMPDEST DUP7 SWAP5 DUP6 SWAP3 DUP4 DUP1 JUMPDEST CALLER DUP12 MSTORE PUSH1 0x12 DUP1 DUP9 MSTORE DUP9 DUP13 KECCAK256 DUP1 SLOAD DUP4 LT ISZERO PUSH2 0x1F8F JUMPI SWAP11 PUSH2 0x1D43 DUP4 DUP3 SWAP13 SWAP14 PUSH2 0x35D8 JUMP JUMPDEST POP SLOAD EQ PUSH2 0x1D5C JUMPI POP PUSH2 0x1D54 SWAP1 PUSH2 0x3B5F JUMP JUMPDEST SWAP9 SWAP8 SWAP9 PUSH2 0x1D22 JUMP JUMPDEST SWAP6 POP SWAP8 SWAP9 POP POP CALLER DUP10 MSTORE DUP4 DUP6 MSTORE PUSH2 0x1D85 PUSH2 0x1D77 DUP9 DUP9 DUP13 KECCAK256 PUSH2 0x35D8 JUMP JUMPDEST POP SWAP2 PUSH1 0x6 DUP1 SWAP4 ADD SLOAD AND PUSH2 0x3BFC JUMP JUMPDEST CALLER DUP10 MSTORE DUP4 DUP6 MSTORE PUSH1 0x2 PUSH2 0x1D99 DUP9 DUP9 DUP13 KECCAK256 PUSH2 0x35D8 JUMP JUMPDEST POP ADD SLOAD CALLER DUP11 MSTORE DUP5 DUP7 MSTORE PUSH1 0x3 PUSH2 0x1DB0 DUP10 DUP10 DUP14 KECCAK256 PUSH2 0x35D8 JUMP JUMPDEST POP ADD SLOAD SWAP1 PUSH3 0x15180 SWAP2 DUP3 DUP2 MUL SWAP3 DUP2 DUP5 DIV EQ SWAP1 ISZERO OR ISZERO PUSH2 0x1F7C JUMPI SWAP1 PUSH2 0x1DD3 SWAP2 PUSH2 0x3B6E JUMP JUMPDEST TIMESTAMP LT PUSH2 0x1F42 JUMPI SWAP2 DUP5 SWAP2 PUSH2 0x1E36 DUP11 PUSH2 0x1E7C SWAP6 PUSH2 0x1E18 PUSH2 0x1DF0 DUP14 PUSH2 0x3C48 JUMP JUMPDEST SWAP12 CALLER DUP5 MSTORE DUP10 DUP9 MSTORE DUP12 PUSH2 0x1E04 DUP3 DUP3 DUP8 KECCAK256 PUSH2 0x35D8 JUMP JUMPDEST POP SWAP5 PUSH1 0x1 DUP1 SWAP7 ADD SLOAD SWAP12 CALLER DUP3 MSTORE DUP11 MSTORE KECCAK256 PUSH2 0x35D8 JUMP JUMPDEST POP ADD PUSH1 0xFF NOT DUP2 SLOAD AND SWAP1 SSTORE PUSH1 0x14 PUSH2 0x1E2F DUP9 DUP3 SLOAD PUSH2 0x3C3B JUMP JUMPDEST SWAP1 SSTORE PUSH2 0x3BBE JUMP JUMPDEST PUSH2 0x1E3F CALLER PUSH2 0x4015 JUMP JUMPDEST PUSH2 0x1E49 DUP9 DUP7 PUSH2 0x3B6E JUMP JUMPDEST DUP11 SLOAD DUP9 MLOAD PUSH4 0xA9059CBB PUSH1 0xE0 SHL DUP2 MSTORE CALLER SWAP4 DUP2 ADD SWAP4 DUP5 MSTORE PUSH1 0x20 DUP5 ADD SWAP3 SWAP1 SWAP3 MSTORE SWAP1 SWAP5 DUP6 SWAP4 SWAP1 SWAP2 AND SWAP2 DUP4 SWAP2 DUP13 SWAP2 DUP4 SWAP2 PUSH1 0x40 SWAP1 SWAP2 ADD SWAP1 JUMP JUMPDEST SUB SWAP3 GAS CALL SWAP1 DUP2 ISZERO PUSH2 0x1F38 JUMPI SWAP1 PUSH2 0x1E99 SWAP2 DUP9 SWAP2 PUSH2 0x1F1B JUMPI JUMPDEST POP PUSH2 0x3B1B JUMP JUMPDEST DUP5 DUP5 ISZERO ISZERO SWAP2 DUP3 PUSH2 0x1F07 JUMPI JUMPDEST DUP5 MLOAD SWAP1 DUP2 MSTORE PUSH32 0x7FC4727E062E336010F2C282598EF5F14FACB3DE68CF8195C2F23E1454B2B74E DUP5 CALLER SWAP3 LOG3 PUSH2 0x1ED6 JUMPI DUP5 DUP1 RETURN JUMPDEST PUSH32 0xF87CFA2D5FEAEA949AD65BB76A26D8553381BCB6382ADBC83DEDD48961BF32D9 SWAP2 MLOAD SWAP3 DUP4 MSTORE CALLER SWAP3 LOG3 CODESIZE DUP1 DUP1 DUP1 DUP5 DUP1 RETURN JUMPDEST PUSH2 0x1F13 DUP7 PUSH1 0x15 SLOAD PUSH2 0x3B6E JUMP JUMPDEST PUSH1 0x15 SSTORE PUSH2 0x1EA4 JUMP JUMPDEST PUSH2 0x1F32 SWAP2 POP DUP5 RETURNDATASIZE DUP7 GT PUSH2 0x550 JUMPI PUSH2 0x542 DUP2 DUP4 PUSH2 0x3692 JUMP JUMPDEST CODESIZE PUSH2 0x1E93 JUMP JUMPDEST DUP5 MLOAD RETURNDATASIZE DUP10 DUP3 RETURNDATACOPY RETURNDATASIZE SWAP1 REVERT JUMPDEST DUP6 MLOAD PUSH3 0x461BCD PUSH1 0xE5 SHL DUP2 MSTORE DUP1 DUP4 ADD DUP7 SWAP1 MSTORE PUSH1 0x14 PUSH1 0x24 DUP3 ADD MSTORE PUSH20 0x14DD1A5B1B081A5B881B1BD8DAC81C195C9A5BD9 PUSH1 0x62 SHL PUSH1 0x44 DUP3 ADD MSTORE PUSH1 0x64 SWAP1 REVERT JUMPDEST PUSH4 0x4E487B71 PUSH1 0xE0 SHL DUP12 MSTORE PUSH1 0x11 DUP5 MSTORE PUSH1 0x24 DUP12 REVERT JUMPDEST POP POP POP PUSH2 0x1E7C SWAP4 SWAP2 POP SWAP2 PUSH2 0x1E36 DUP7 SWAP4 PUSH2 0x3BBE JUMP JUMPDEST POP POP DUP3 PUSH1 0x3 NOT CALLDATASIZE ADD SLT PUSH2 0x342 JUMPI CALLER DUP4 MSTORE PUSH1 0xC PUSH1 0x20 MSTORE PUSH2 0x1FC8 PUSH1 0xFF DUP4 DUP6 KECCAK256 SLOAD AND ISZERO PUSH2 0x38A6 JUMP JUMPDEST CALLVALUE ISZERO SWAP1 PUSH2 0x1FD5 DUP3 ISZERO PUSH2 0x38E7 JUMP JUMPDEST PUSH1 0x1 SLOAD PUSH1 0x1 PUSH1 0x1 PUSH1 0xA0 SHL SUB SWAP1 DUP2 AND SWAP3 PUSH2 0x1FEF DUP5 ISZERO ISZERO PUSH2 0x39F9 JUMP JUMPDEST PUSH3 0xF4240 DUP1 CALLVALUE MUL SWAP1 CALLVALUE DUP3 DIV EQ DUP3 OR ISZERO PUSH2 0x213D JUMPI SWAP1 PUSH2 0x2011 DUP8 SWAP3 PUSH1 0x6 SLOAD SWAP1 PUSH2 0x398D JUMP JUMPDEST DUP7 MLOAD PUSH4 0xA9059CBB PUSH1 0xE0 SHL DUP2 MSTORE CALLER DUP7 DUP3 ADD SWAP1 DUP2 MSTORE PUSH1 0x20 DUP2 DUP2 ADD DUP5 SWAP1 MSTORE SWAP3 SWAP8 SWAP2 SWAP3 SWAP2 DUP4 SWAP2 DUP3 SWAP1 DUP8 SWAP1 DUP3 SWAP1 PUSH1 0x40 ADD SUB SWAP3 GAS CALL DUP1 ISZERO PUSH2 0x2133 JUMPI PUSH2 0x2056 SWAP2 DUP5 SWAP2 PUSH2 0x2115 JUMPI POP PUSH2 0x3A53 JUMP JUMPDEST DUP2 SWAP1 PUSH2 0x210C JUMPI JUMPDEST DUP2 DUP1 DUP1 SWAP3 CALLVALUE SWAP1 DUP7 PUSH32 0x0 AND SWAP1 CALL ISZERO PUSH2 0x20FF JUMPI PUSH2 0x20DB PUSH32 0x48A1F8A6C840B32621CEAB4439A2CCD00B337E705DFDCDEC0B40C49ABF3E6BE3 SWAP3 DUP5 DUP4 PUSH1 0x1 SLOAD AND DUP8 MLOAD SWAP3 PUSH2 0x20C4 DUP5 PUSH2 0x3676 JUMP JUMPDEST DUP4 MSTORE PUSH4 0x14D15313 PUSH1 0xE2 SHL PUSH1 0x20 DUP5 ADD MSTORE CALLVALUE SWAP1 CALLER PUSH2 0x4627 JUMP JUMPDEST PUSH1 0x1 SLOAD SWAP4 MLOAD SWAP3 DUP4 MSTORE CALLVALUE PUSH1 0x20 DUP5 ADD MSTORE TIMESTAMP PUSH1 0x40 DUP5 ADD MSTORE SWAP1 SWAP3 AND SWAP2 CALLER SWAP2 DUP1 PUSH1 0x60 DUP2 ADD PUSH2 0x4EB JUMP JUMPDEST POP POP POP MLOAD SWAP1 RETURNDATASIZE SWAP1 DUP3 RETURNDATACOPY RETURNDATASIZE SWAP1 REVERT JUMPDEST POP PUSH2 0x8FC PUSH2 0x205D JUMP JUMPDEST PUSH2 0x212D SWAP2 POP PUSH1 0x20 RETURNDATASIZE DUP2 GT PUSH2 0x550 JUMPI PUSH2 0x542 DUP2 DUP4 PUSH2 0x3692 JUMP JUMPDEST CODESIZE PUSH2 0x1182 JUMP JUMPDEST DUP8 MLOAD RETURNDATASIZE DUP6 DUP3 RETURNDATACOPY RETURNDATASIZE SWAP1 REVERT JUMPDEST PUSH4 0x4E487B71 PUSH1 0xE0 SHL DUP8 MSTORE PUSH1 0x11 DUP5 MSTORE PUSH1 0x24 DUP8 REVERT JUMPDEST POP POP POP CALLVALUE PUSH2 0x365 JUMPI PUSH1 0x20 DUP1 PUSH1 0x3 NOT CALLDATASIZE ADD SLT PUSH2 0x342 JUMPI PUSH1 0x1 PUSH1 0x1 PUSH1 0xA0 SHL SUB SWAP3 DUP4 PUSH2 0x2177 PUSH2 0x34CA JUMP JUMPDEST AND DUP2 MSTORE PUSH1 0x1B DUP3 MSTORE DUP3 DUP2 KECCAK256 SWAP2 DUP4 MLOAD SWAP1 DUP2 DUP2 DUP6 SLOAD SWAP2 DUP3 DUP2 MSTORE ADD SWAP1 DUP2 SWAP6 DUP6 MSTORE DUP3 DUP6 KECCAK256 SWAP1 DUP6 JUMPDEST DUP2 DUP2 LT PUSH2 0x21E5 JUMPI POP POP POP DUP3 PUSH2 0x21AF SWAP2 SUB DUP4 PUSH2 0x3692 JUMP JUMPDEST DUP5 MLOAD SWAP5 DUP2 DUP7 ADD SWAP3 DUP3 DUP8 MSTORE MLOAD DUP1 SWAP4 MSTORE DUP6 ADD SWAP4 SWAP3 JUMPDEST DUP3 DUP2 LT PUSH2 0x21CF JUMPI DUP6 DUP6 SUB DUP7 RETURN JUMPDEST DUP4 MLOAD DUP8 AND DUP6 MSTORE SWAP4 DUP2 ADD SWAP4 SWAP3 DUP2 ADD SWAP3 PUSH1 0x1 ADD PUSH2 0x21C2 JUMP JUMPDEST DUP3 SLOAD DUP11 AND DUP5 MSTORE SWAP3 DUP5 ADD SWAP3 PUSH1 0x1 SWAP3 DUP4 ADD SWAP3 ADD PUSH2 0x2199 JUMP JUMPDEST POP POP CALLVALUE PUSH2 0x342 JUMPI PUSH1 0x20 SWAP1 DUP2 PUSH1 0x3 NOT CALLDATASIZE ADD SLT PUSH2 0x5BF JUMPI DUP1 CALLDATALOAD SWAP2 CALLER DUP6 MSTORE PUSH1 0xC DUP2 MSTORE PUSH1 0xFF SWAP4 PUSH2 0x222C DUP6 DUP3 DUP9 KECCAK256 SLOAD AND ISZERO PUSH2 0x38A6 JUMP JUMPDEST DUP4 DUP7 MSTORE PUSH1 0x13 DUP3 MSTORE DUP1 DUP7 KECCAK256 SLOAD PUSH1 0x1 PUSH1 0x1 PUSH1 0xA0 SHL SUB SWAP4 SWAP1 PUSH2 0x224E SWAP1 DUP6 AND CALLER EQ PUSH2 0x3E56 JUMP JUMPDEST DUP7 SWAP4 DUP8 JUMPDEST CALLER DUP10 MSTORE PUSH1 0x12 DUP1 DUP7 MSTORE DUP5 DUP11 KECCAK256 DUP1 SLOAD DUP4 LT ISZERO PUSH2 0x2417 JUMPI PUSH2 0x2271 DUP4 DUP11 SWAP3 PUSH2 0x35D8 JUMP JUMPDEST POP SLOAD EQ PUSH2 0x2287 JUMPI POP PUSH2 0x2282 SWAP1 PUSH2 0x3B5F JUMP JUMPDEST PUSH2 0x2252 JUMP JUMPDEST SWAP7 SWAP8 PUSH2 0x22B0 SWAP2 SWAP3 SWAP4 SWAP5 SWAP6 SWAP7 POP CALLER DUP11 MSTORE DUP8 DUP8 MSTORE PUSH1 0x6 PUSH2 0x22A7 DUP5 DUP9 DUP14 KECCAK256 PUSH2 0x35D8 JUMP JUMPDEST POP ADD SLOAD AND PUSH2 0x3BFC JUMP JUMPDEST PUSH2 0x22B9 DUP8 PUSH2 0x3C48 JUMP JUMPDEST SWAP6 DUP7 ISZERO PUSH2 0x23DC JUMPI SWAP1 PUSH2 0x22EA SWAP2 CALLER DUP11 MSTORE DUP1 DUP8 MSTORE DUP10 PUSH1 0x5 PUSH2 0x22DA DUP5 DUP10 DUP5 KECCAK256 PUSH2 0x35D8 JUMP JUMPDEST POP ADD SSTORE CALLER DUP11 MSTORE DUP7 MSTORE DUP5 DUP10 KECCAK256 PUSH2 0x35D8 JUMP JUMPDEST POP TIMESTAMP SWAP1 DUP4 ADD SSTORE DUP7 SLOAD DUP4 MLOAD PUSH4 0xA9059CBB PUSH1 0xE0 SHL DUP2 MSTORE CALLER DUP2 DUP6 ADD SWAP1 DUP2 MSTORE PUSH1 0x20 DUP2 ADD DUP9 SWAP1 MSTORE SWAP1 SWAP3 DUP7 SWAP3 DUP5 SWAP3 DUP4 SWAP1 SUB PUSH1 0x40 ADD SWAP2 DUP4 SWAP2 DUP13 SWAP2 AND GAS CALL SWAP1 DUP2 ISZERO PUSH2 0x23D2 JUMPI DUP8 SWAP2 PUSH2 0x23B5 JUMPI JUMPDEST POP ISZERO PUSH2 0x237B JUMPI POP SWAP1 PUSH32 0xF87CFA2D5FEAEA949AD65BB76A26D8553381BCB6382ADBC83DEDD48961BF32D9 SWAP2 PUSH1 0x15 PUSH2 0x2365 DUP6 DUP3 SLOAD PUSH2 0x3B6E JUMP JUMPDEST SWAP1 SSTORE MLOAD SWAP3 DUP4 MSTORE CALLER SWAP3 LOG3 PUSH2 0x2378 PUSH1 0x1 PUSH2 0x3BBE JUMP JUMPDEST DUP1 RETURN JUMPDEST DUP3 PUSH1 0x64 SWAP3 MLOAD SWAP2 PUSH3 0x461BCD PUSH1 0xE5 SHL DUP4 MSTORE DUP3 ADD MSTORE PUSH1 0x16 PUSH1 0x24 DUP3 ADD MSTORE PUSH22 0x14995DD85C99081D1C985B9CD9995C8819985A5B1959 PUSH1 0x52 SHL PUSH1 0x44 DUP3 ADD MSTORE REVERT JUMPDEST PUSH2 0x23CC SWAP2 POP DUP5 RETURNDATASIZE DUP7 GT PUSH2 0x550 JUMPI PUSH2 0x542 DUP2 DUP4 PUSH2 0x3692 JUMP JUMPDEST CODESIZE PUSH2 0x232E JUMP JUMPDEST DUP4 MLOAD RETURNDATASIZE DUP10 DUP3 RETURNDATACOPY RETURNDATASIZE SWAP1 REVERT JUMPDEST DUP5 MLOAD PUSH3 0x461BCD PUSH1 0xE5 SHL DUP2 MSTORE DUP1 DUP6 ADD DUP8 SWAP1 MSTORE PUSH1 0x15 PUSH1 0x24 DUP3 ADD MSTORE PUSH21 0x139BC81C995DD85C991CC81D1BC81A185C9D995CDD PUSH1 0x5A SHL PUSH1 0x44 DUP3 ADD MSTORE PUSH1 0x64 SWAP1 REVERT JUMPDEST POP POP POP POP POP POP POP SWAP1 POP PUSH2 0x2378 SWAP2 POP PUSH2 0x3BBE JUMP JUMPDEST POP POP POP CALLVALUE PUSH2 0x365 JUMPI PUSH1 0x20 CALLDATASIZE PUSH1 0x3 NOT ADD SLT PUSH2 0x365 JUMPI PUSH1 0x20 SWAP2 DUP2 SWAP1 PUSH1 0x1 PUSH1 0x1 PUSH1 0xA0 SHL SUB PUSH2 0x2453 PUSH2 0x34CA JUMP JUMPDEST AND DUP2 MSTORE PUSH1 0x1C DUP5 MSTORE KECCAK256 SLOAD SWAP1 MLOAD SWAP1 DUP2 MSTORE RETURN JUMPDEST POP POP POP CALLVALUE PUSH2 0x365 JUMPI DUP2 PUSH1 0x3 NOT CALLDATASIZE ADD SLT PUSH2 0x365 JUMPI PUSH1 0x20 SWAP1 PUSH1 0xB SLOAD SWAP1 MLOAD SWAP1 DUP2 MSTORE RETURN JUMPDEST POP POP POP CALLVALUE PUSH2 0x365 JUMPI PUSH1 0x20 CALLDATASIZE PUSH1 0x3 NOT ADD SLT PUSH2 0x365 JUMPI PUSH1 0x20 SWAP2 PUSH1 0xFF SWAP1 DUP3 SWAP1 PUSH1 0x1 PUSH1 0x1 PUSH1 0xA0 SHL SUB PUSH2 0x24AF PUSH2 0x34CA JUMP JUMPDEST AND DUP2 MSTORE PUSH1 0xC DUP6 MSTORE KECCAK256 SLOAD AND SWAP1 MLOAD SWAP1 ISZERO ISZERO DUP2 MSTORE RETURN JUMPDEST POP POP CALLVALUE PUSH2 0x342 JUMPI PUSH1 0x20 CALLDATASIZE PUSH1 0x3 NOT ADD SLT PUSH2 0x342 JUMPI DUP1 CALLDATALOAD SWAP1 PUSH2 0x250C CALLER PUSH32 0x0 PUSH1 0x1 PUSH1 0x1 PUSH1 0xA0 SHL SUB AND EQ PUSH2 0x37B7 JUMP JUMPDEST PUSH1 0x14 DUP3 GT PUSH2 0x254E JUMPI POP SWAP1 PUSH32 0xD968A3CC702265C3AB67356DF15CA21D50167B011F198B963E2A868E04E3D5E0 SWAP2 PUSH1 0x19 SLOAD SWAP1 DUP1 PUSH1 0x19 SSTORE DUP3 MLOAD SWAP2 DUP3 MSTORE PUSH1 0x20 DUP3 ADD MSTORE LOG1 DUP1 RETURN JUMPDEST PUSH1 0x64 SWAP1 PUSH1 0x20 DUP5 MLOAD SWAP2 PUSH3 0x461BCD PUSH1 0xE5 SHL DUP4 MSTORE DUP3 ADD MSTORE PUSH1 0x13 PUSH1 0x24 DUP3 ADD MSTORE PUSH19 0xA0CAE4C6CADCE8C2CECA40E8DEDE40D0D2CED PUSH1 0x6B SHL PUSH1 0x44 DUP3 ADD MSTORE REVERT JUMPDEST POP POP POP CALLVALUE PUSH2 0x365 JUMPI PUSH1 0x20 CALLDATASIZE PUSH1 0x3 NOT ADD SLT PUSH2 0x365 JUMPI PUSH1 0x20 SWAP2 PUSH1 0x1 PUSH1 0x1 PUSH1 0xA0 SHL SUB SWAP1 DUP3 SWAP1 DUP3 PUSH2 0x25B2 PUSH2 0x34CA JUMP JUMPDEST AND DUP2 MSTORE PUSH1 0x1A DUP6 MSTORE KECCAK256 SLOAD AND SWAP1 MLOAD SWAP1 DUP2 MSTORE RETURN JUMPDEST POP POP POP CALLVALUE PUSH2 0x365 JUMPI DUP2 PUSH1 0x3 NOT CALLDATASIZE ADD SLT PUSH2 0x365 JUMPI PUSH1 0x20 SWAP1 PUSH1 0xF SLOAD SWAP1 MLOAD SWAP1 DUP2 MSTORE RETURN JUMPDEST DUP3 DUP6 DUP6 CALLVALUE PUSH2 0x365 JUMPI DUP1 PUSH1 0x3 NOT CALLDATASIZE ADD SLT PUSH2 0x365 JUMPI DUP3 CALLDATALOAD PUSH1 0x24 CALLDATALOAD SWAP2 CALLER DUP5 MSTORE PUSH1 0x20 SWAP3 PUSH1 0xC DUP5 MSTORE PUSH2 0x2616 PUSH1 0xFF DUP4 DUP8 KECCAK256 SLOAD AND ISZERO PUSH2 0x38A6 JUMP JUMPDEST PUSH1 0x11 SLOAD DUP4 LT PUSH2 0x288C JUMPI DUP5 SLOAD PUSH1 0x1 PUSH1 0x1 PUSH1 0xA0 SHL SUB AND PUSH2 0x2635 DUP2 ISZERO ISZERO PUSH2 0x3923 JUMP JUMPDEST PUSH1 0x1E DUP3 EQ DUP1 ISZERO PUSH2 0x2882 JUMPI JUMPDEST DUP1 ISZERO PUSH2 0x2878 JUMPI JUMPDEST DUP1 ISZERO PUSH2 0x286D JUMPI JUMPDEST ISZERO PUSH2 0x2834 JUMPI DUP3 MLOAD PUSH4 0x23B872DD PUSH1 0xE0 SHL DUP2 MSTORE CALLER DUP2 DUP10 ADD SWAP1 DUP2 MSTORE ADDRESS PUSH1 0x20 DUP3 ADD MSTORE PUSH1 0x40 DUP2 ADD DUP7 SWAP1 MSTORE SWAP1 SWAP2 DUP7 SWAP2 DUP4 SWAP2 SWAP1 DUP3 SWAP1 DUP11 SWAP1 DUP3 SWAP1 PUSH1 0x60 ADD SUB SWAP3 GAS CALL SWAP1 DUP2 ISZERO PUSH2 0x1A3B JUMPI SWAP1 PUSH2 0x269F SWAP2 DUP8 SWAP2 PUSH2 0x2817 JUMPI POP PUSH2 0x3B1B JUMP JUMPDEST PUSH1 0x17 SLOAD SWAP4 PUSH2 0x26AC DUP6 PUSH2 0x3B5F JUMP JUMPDEST PUSH1 0x17 SSTORE DUP3 MLOAD PUSH2 0x26BA DUP2 PUSH2 0x3644 JUMP JUMPDEST DUP6 DUP2 MSTORE DUP2 DUP2 ADD DUP6 DUP2 MSTORE DUP5 DUP3 ADD TIMESTAMP DUP2 MSTORE PUSH1 0x60 DUP4 ADD DUP6 DUP2 MSTORE PUSH1 0x80 DUP5 ADD SWAP1 TIMESTAMP DUP3 MSTORE PUSH1 0xA0 DUP6 ADD SWAP3 DUP12 DUP5 MSTORE PUSH1 0xC0 DUP7 ADD SWAP5 PUSH1 0x1 DUP7 MSTORE CALLER DUP14 MSTORE PUSH1 0x12 DUP9 MSTORE DUP10 DUP14 KECCAK256 DUP1 SLOAD SWAP1 PUSH1 0x1 PUSH1 0x40 SHL DUP3 LT ISZERO PUSH2 0x2803 JUMPI SWAP1 PUSH2 0x2712 SWAP2 PUSH1 0x1 DUP3 ADD DUP2 SSTORE PUSH2 0x35D8 JUMP JUMPDEST SWAP8 SWAP1 SWAP8 PUSH2 0x27F1 JUMPI SWAP3 PUSH32 0xB4CAAF29ADDA3EEFEE3AD552A8E85058589BF834C7466CAE4EE58787F70589ED SWAP12 SWAP13 SWAP14 SWAP15 SWAP3 PUSH2 0x2781 SWAP9 SWAP8 SWAP6 SWAP3 PUSH1 0x6 SWAP8 SWAP6 MLOAD DUP10 SSTORE MLOAD PUSH1 0x1 DUP10 ADD SSTORE MLOAD PUSH1 0x2 DUP9 ADD SSTORE MLOAD PUSH1 0x3 DUP8 ADD SSTORE MLOAD SWAP1 DUP6 ADD SSTORE MLOAD PUSH1 0x5 DUP5 ADD SSTORE MLOAD ISZERO ISZERO SWAP2 ADD SWAP1 PUSH1 0xFF DUP1 NOT DUP4 SLOAD AND SWAP2 ISZERO ISZERO AND OR SWAP1 SSTORE JUMP JUMPDEST DUP6 DUP8 MSTORE PUSH1 0x13 DUP2 MSTORE DUP3 DUP8 KECCAK256 CALLER PUSH1 0x1 PUSH1 0x1 PUSH1 0x60 SHL SUB PUSH1 0xA0 SHL DUP3 SLOAD AND OR SWAP1 SSTORE PUSH2 0x27A9 DUP6 PUSH1 0x14 SLOAD PUSH2 0x3B6E JUMP JUMPDEST PUSH1 0x14 SSTORE CALLER DUP8 MSTORE PUSH1 0x18 DUP2 MSTORE DUP3 DUP8 KECCAK256 DUP1 SLOAD PUSH1 0xFF DUP2 AND ISZERO PUSH2 0x27D2 JUMPI JUMPDEST POP POP DUP3 MLOAD SWAP5 DUP6 MSTORE DUP5 ADD MSTORE CALLER SWAP3 LOG3 DUP1 RETURN JUMPDEST PUSH1 0xFF NOT AND PUSH1 0x1 OR SWAP1 SSTORE PUSH1 0x16 SLOAD PUSH2 0x27E7 SWAP1 PUSH2 0x3B5F JUMP JUMPDEST PUSH1 0x16 SSTORE DUP8 DUP1 PUSH2 0x27C2 JUMP JUMPDEST PUSH4 0x4E487B71 PUSH1 0xE0 SHL DUP15 MSTORE DUP14 DUP16 MSTORE PUSH1 0x24 DUP15 REVERT JUMPDEST DUP16 DUP16 PUSH1 0x41 PUSH1 0x24 SWAP3 PUSH4 0x4E487B71 PUSH1 0xE0 SHL DUP4 MSTORE MSTORE REVERT JUMPDEST PUSH2 0x282E SWAP2 POP DUP7 RETURNDATASIZE DUP9 GT PUSH2 0x550 JUMPI PUSH2 0x542 DUP2 DUP4 PUSH2 0x3692 JUMP JUMPDEST DUP9 PUSH2 0x1E93 JUMP JUMPDEST DUP3 MLOAD PUSH3 0x461BCD PUSH1 0xE5 SHL DUP2 MSTORE DUP1 DUP9 ADD DUP7 SWAP1 MSTORE PUSH1 0x13 PUSH1 0x24 DUP3 ADD MSTORE PUSH19 0x125B9D985B1A59081B1BD8DAC81C195C9A5BD9 PUSH1 0x6A SHL PUSH1 0x44 DUP3 ADD MSTORE PUSH1 0x64 SWAP1 REVERT JUMPDEST POP PUSH2 0x16D DUP3 EQ PUSH2 0x264E JUMP JUMPDEST POP PUSH1 0xB4 DUP3 EQ PUSH2 0x2647 JUMP JUMPDEST POP PUSH1 0x5A DUP3 EQ PUSH2 0x2640 JUMP JUMPDEST DUP2 MLOAD PUSH3 0x461BCD PUSH1 0xE5 SHL DUP2 MSTORE DUP1 DUP8 ADD DUP6 SWAP1 MSTORE PUSH1 0x1A PUSH1 0x24 DUP3 ADD MSTORE PUSH32 0x416D6F756E742062656C6F77206D696E696D756D207374616B65000000000000 PUSH1 0x44 DUP3 ADD MSTORE PUSH1 0x64 SWAP1 REVERT JUMPDEST POP POP POP CALLVALUE PUSH2 0x365 JUMPI CALLDATASIZE PUSH1 0x3 NOT ADD SLT PUSH2 0x6BD JUMPI PUSH2 0x28E9 PUSH2 0x34CA JUMP JUMPDEST PUSH1 0x24 CALLDATALOAD SWAP1 PUSH1 0x1 PUSH1 0x1 PUSH1 0xA0 SHL SUB SWAP1 PUSH2 0x2923 CALLER PUSH32 0x0 DUP5 AND EQ PUSH2 0x37B7 JUMP JUMPDEST AND PUSH2 0x292F DUP2 ISZERO ISZERO PUSH2 0x382C JUMP JUMPDEST PUSH2 0x293A DUP3 ISZERO ISZERO PUSH2 0x386A JUMP JUMPDEST PUSH1 0x1 PUSH1 0x1 PUSH1 0x60 SHL SUB PUSH1 0xA0 SHL PUSH1 0x3 SLOAD AND OR PUSH1 0x3 SSTORE PUSH1 0x9 SSTORE DUP1 RETURN JUMPDEST POP POP SWAP2 CALLVALUE PUSH2 0x6BD JUMPI PUSH1 0x20 SWAP3 DUP4 PUSH1 0x3 NOT CALLDATASIZE ADD SLT PUSH2 0x365 JUMPI DUP1 CALLDATALOAD SWAP1 CALLER DUP4 MSTORE PUSH1 0xC DUP6 MSTORE PUSH1 0xFF SWAP2 PUSH2 0x2985 DUP4 DUP7 DUP7 KECCAK256 SLOAD AND ISZERO PUSH2 0x38A6 JUMP JUMPDEST DUP1 DUP5 MSTORE PUSH1 0x13 DUP7 MSTORE DUP5 DUP5 KECCAK256 SLOAD PUSH1 0x1 PUSH1 0x1 PUSH1 0xA0 SHL SUB SWAP7 SWAP1 PUSH2 0x29A7 SWAP1 DUP9 AND CALLER EQ PUSH2 0x3E56 JUMP JUMPDEST DUP5 SWAP6 DUP6 JUMPDEST CALLER DUP8 MSTORE PUSH1 0x12 DUP1 DUP5 MSTORE DUP3 DUP9 KECCAK256 DUP1 SLOAD DUP4 LT ISZERO PUSH2 0x2C6F JUMPI PUSH2 0x29CA DUP4 DUP8 SWAP3 PUSH2 0x35D8 JUMP JUMPDEST POP SLOAD EQ PUSH2 0x29E0 JUMPI POP PUSH2 0x29DB SWAP1 PUSH2 0x3B5F JUMP JUMPDEST PUSH2 0x29AB JUMP JUMPDEST SWAP2 SWAP3 SWAP4 SWAP5 SWAP6 SWAP7 SWAP8 POP CALLER DUP9 MSTORE DUP2 DUP5 MSTORE PUSH2 0x2A0B PUSH2 0x29FD DUP3 DUP6 DUP12 KECCAK256 PUSH2 0x35D8 JUMP JUMPDEST POP SWAP8 PUSH1 0x6 DUP1 SWAP10 ADD SLOAD AND PUSH2 0x3BFC JUMP JUMPDEST CALLER DUP9 MSTORE DUP2 DUP5 MSTORE PUSH1 0x2 PUSH2 0x2A1F DUP3 DUP6 DUP12 KECCAK256 PUSH2 0x35D8 JUMP JUMPDEST POP ADD SLOAD CALLER DUP10 MSTORE DUP3 DUP6 MSTORE PUSH1 0x3 PUSH2 0x2A36 DUP4 DUP7 DUP13 KECCAK256 PUSH2 0x35D8 JUMP JUMPDEST POP ADD SLOAD SWAP1 PUSH3 0x15180 SWAP2 DUP3 DUP2 MUL SWAP3 DUP2 DUP5 DIV EQ SWAP1 ISZERO OR ISZERO PUSH2 0x2C5C JUMPI SWAP10 PUSH2 0x2A61 DUP7 SWAP3 DUP12 SWAP13 SWAP12 SWAP9 SWAP10 SWAP11 SWAP12 PUSH2 0x3B6E JUMP JUMPDEST SWAP3 PUSH2 0x2A6B DUP10 PUSH2 0x3C48 JUMP JUMPDEST SWAP11 CALLER DUP10 MSTORE DUP6 DUP5 MSTORE PUSH2 0x2A7E DUP3 DUP9 DUP12 KECCAK256 PUSH2 0x35D8 JUMP JUMPDEST POP SWAP2 DUP8 PUSH1 0x1 DUP1 SWAP5 ADD SLOAD SWAP11 DUP1 SWAP8 TIMESTAMP LT PUSH2 0x2C02 JUMPI JUMPDEST SWAP1 PUSH2 0x2AA7 SWAP3 SWAP2 PUSH2 0x2B07 SWAP9 SWAP10 CALLER DUP3 MSTORE DUP9 MSTORE KECCAK256 PUSH2 0x35D8 JUMP JUMPDEST POP ADD PUSH1 0xFF NOT DUP2 SLOAD AND SWAP1 SSTORE PUSH1 0x14 PUSH2 0x2ABE DUP10 DUP3 SLOAD PUSH2 0x3C3B JUMP JUMPDEST SWAP1 SSTORE SWAP9 PUSH2 0x2AD4 DUP12 PUSH2 0x2ACF DUP8 DUP12 PUSH2 0x3C3B JUMP JUMPDEST PUSH2 0x3B6E JUMP JUMPDEST DUP13 SLOAD DUP8 MLOAD PUSH4 0xA9059CBB PUSH1 0xE0 SHL DUP2 MSTORE CALLER SWAP4 DUP2 ADD SWAP4 DUP5 MSTORE PUSH1 0x20 DUP5 ADD SWAP3 SWAP1 SWAP3 MSTORE SWAP1 SWAP5 DUP6 SWAP4 SWAP1 SWAP2 AND SWAP2 DUP4 SWAP2 DUP15 SWAP2 DUP4 SWAP2 PUSH1 0x40 SWAP1 SWAP2 ADD SWAP1 JUMP JUMPDEST SUB SWAP3 GAS CALL SWAP1 DUP2 ISZERO PUSH2 0x2BF8 JUMPI SWAP8 PUSH2 0x2B28 DUP8 SWAP3 PUSH2 0x2B68 SWAP11 DUP13 SWAP2 PUSH2 0x2BE1 JUMPI POP PUSH2 0x3B1B JUMP JUMPDEST DUP1 PUSH2 0x2BA1 JUMPI JUMPDEST POP POP DUP1 ISZERO PUSH2 0x2B71 JUMPI PUSH32 0x9C9EC3CFA814B0112B71C20D0B0AB54DEAD00A99FD389C174DF717D2F1D36403 SWAP3 DUP3 MLOAD SWAP5 DUP6 MSTORE DUP5 ADD MSTORE CALLER SWAP3 LOG3 PUSH2 0x3BBE JUMP JUMPDEST PUSH2 0x2378 CALLER PUSH2 0x4015 JUMP JUMPDEST POP SWAP1 PUSH32 0x7FC4727E062E336010F2C282598EF5F14FACB3DE68CF8195C2F23E1454B2B74E SWAP2 MLOAD SWAP3 DUP4 MSTORE CALLER SWAP3 LOG3 PUSH2 0x3BBE JUMP JUMPDEST PUSH1 0x15 PUSH2 0x2BAE DUP3 DUP3 SLOAD PUSH2 0x3B6E JUMP JUMPDEST SWAP1 SSTORE DUP4 MLOAD SWAP1 DUP2 MSTORE PUSH32 0xF87CFA2D5FEAEA949AD65BB76A26D8553381BCB6382ADBC83DEDD48961BF32D9 DUP6 CALLER SWAP3 LOG3 DUP5 CODESIZE PUSH2 0x2B2E JUMP JUMPDEST PUSH2 0x1F32 SWAP2 POP DUP8 RETURNDATASIZE DUP10 GT PUSH2 0x550 JUMPI PUSH2 0x542 DUP2 DUP4 PUSH2 0x3692 JUMP JUMPDEST DUP4 MLOAD RETURNDATASIZE DUP12 DUP3 RETURNDATACOPY RETURNDATASIZE SWAP1 REVERT JUMPDEST POP POP SWAP2 SWAP4 POP SWAP2 SWAP4 POP PUSH1 0x5 DUP1 DUP10 MUL SWAP1 DUP10 DUP3 DIV EQ DUP10 ISZERO OR ISZERO PUSH2 0x2C49 JUMPI SWAP2 PUSH2 0x2AA7 DUP9 SWAP5 SWAP3 DUP9 DUP16 PUSH1 0x64 PUSH2 0x2B07 SWAP10 SWAP8 DIV SWAP10 PUSH1 0xF PUSH2 0x2C3B DUP13 DUP3 SLOAD PUSH2 0x3B6E JUMP JUMPDEST SWAP1 SSTORE SWAP10 SWAP9 POP SWAP1 SWAP2 SWAP3 POP PUSH2 0x2A91 JUMP JUMPDEST PUSH4 0x4E487B71 PUSH1 0xE0 SHL DUP14 MSTORE PUSH1 0x11 DUP12 MSTORE PUSH1 0x24 DUP14 REVERT JUMPDEST PUSH4 0x4E487B71 PUSH1 0xE0 SHL DUP11 MSTORE PUSH1 0x11 DUP9 MSTORE PUSH1 0x24 DUP11 REVERT JUMPDEST POP POP POP POP POP POP POP POP SWAP2 POP PUSH2 0x2B68 SWAP1 PUSH2 0x3BBE JUMP JUMPDEST POP POP DUP3 CALLVALUE PUSH2 0x6BD JUMPI DUP1 PUSH1 0x3 NOT CALLDATASIZE ADD SLT PUSH2 0x6BD JUMPI SWAP1 PUSH1 0xE SLOAD SWAP1 PUSH2 0x2CA3 DUP3 PUSH2 0x46E2 JUMP JUMPDEST SWAP3 PUSH2 0x2CB0 DUP6 MLOAD SWAP5 DUP6 PUSH2 0x3692 JUMP JUMPDEST DUP3 DUP5 MSTORE PUSH1 0xE DUP2 MSTORE SWAP1 PUSH1 0x20 SWAP1 PUSH32 0xBB7B4A454DC3493923482F07822329ED19E8244EFF582CC204F8554C3620C3FD SWAP1 DUP3 DUP7 ADD JUMPDEST DUP6 DUP6 LT PUSH2 0x2CF5 JUMPI DUP8 MLOAD DUP1 PUSH2 0x651 DUP10 DUP3 PUSH2 0x3525 JUMP JUMPDEST PUSH1 0x7 DUP5 PUSH1 0x1 SWAP3 DUP11 MLOAD PUSH2 0x2D06 DUP2 PUSH2 0x3644 JUMP JUMPDEST DUP7 SLOAD DUP2 MSTORE DUP5 DUP1 PUSH1 0xA0 SHL SUB DUP1 DUP7 DUP10 ADD SLOAD AND DUP5 DUP4 ADD MSTORE DUP1 PUSH1 0x2 DUP10 ADD SLOAD AND DUP14 DUP4 ADD MSTORE PUSH1 0x3 DUP9 ADD SLOAD AND PUSH1 0x60 DUP3 ADD MSTORE DUP6 DUP8 ADD SLOAD PUSH1 0x80 DUP3 ADD MSTORE PUSH1 0x5 DUP8 ADD SLOAD PUSH1 0xA0 DUP3 ADD MSTORE PUSH2 0x2D4F PUSH1 0x6 DUP9 ADD PUSH2 0x36B4 JUMP JUMPDEST PUSH1 0xC0 DUP3 ADD MSTORE DUP2 MSTORE ADD SWAP4 ADD SWAP5 ADD SWAP4 SWAP2 PUSH2 0x2CE1 JUMP JUMPDEST POP POP DUP3 PUSH1 0x3 NOT CALLDATASIZE ADD SLT PUSH2 0x342 JUMPI CALLER DUP4 MSTORE PUSH1 0xC PUSH1 0x20 MSTORE PUSH2 0x2D87 PUSH1 0xFF DUP4 DUP6 KECCAK256 SLOAD AND ISZERO PUSH2 0x38A6 JUMP JUMPDEST CALLVALUE ISZERO SWAP1 PUSH2 0x2D94 DUP3 ISZERO PUSH2 0x38E7 JUMP JUMPDEST PUSH1 0x2 SLOAD PUSH1 0x1 PUSH1 0x1 PUSH1 0xA0 SHL SUB SWAP1 DUP2 AND SWAP3 PUSH2 0x2DAE DUP5 ISZERO ISZERO PUSH2 0x3A96 JUMP JUMPDEST PUSH3 0xF4240 DUP1 CALLVALUE MUL SWAP1 CALLVALUE DUP3 DIV EQ DUP3 OR ISZERO PUSH2 0x213D JUMPI SWAP1 PUSH2 0x2DD0 DUP8 SWAP3 PUSH1 0x6 SLOAD SWAP1 PUSH2 0x398D JUMP JUMPDEST DUP7 MLOAD PUSH4 0xA9059CBB PUSH1 0xE0 SHL DUP2 MSTORE CALLER DUP7 DUP3 ADD SWAP1 DUP2 MSTORE PUSH1 0x20 DUP2 DUP2 ADD DUP5 SWAP1 MSTORE SWAP3 SWAP8 SWAP2 SWAP3 SWAP2 DUP4 SWAP2 DUP3 SWAP1 DUP8 SWAP1 DUP3 SWAP1 PUSH1 0x40 ADD SUB SWAP3 GAS CALL DUP1 ISZERO PUSH2 0x2133 JUMPI PUSH2 0x2E15 SWAP2 DUP5 SWAP2 PUSH2 0x2EB0 JUMPI POP PUSH2 0x3AD8 JUMP JUMPDEST DUP2 SWAP1 PUSH2 0x2EA7 JUMPI JUMPDEST DUP2 DUP1 DUP1 SWAP3 CALLVALUE SWAP1 DUP7 PUSH32 0x0 AND SWAP1 CALL ISZERO PUSH2 0x20FF JUMPI PUSH2 0x2E83 PUSH32 0x48A1F8A6C840B32621CEAB4439A2CCD00B337E705DFDCDEC0B40C49ABF3E6BE3 SWAP3 DUP5 DUP4 PUSH1 0x2 SLOAD AND DUP8 MLOAD SWAP3 PUSH2 0x20C4 DUP5 PUSH2 0x3676 JUMP JUMPDEST PUSH1 0x2 SLOAD SWAP4 MLOAD SWAP3 DUP4 MSTORE CALLVALUE PUSH1 0x20 DUP5 ADD MSTORE TIMESTAMP PUSH1 0x40 DUP5 ADD MSTORE SWAP1 SWAP3 AND SWAP2 CALLER SWAP2 DUP1 PUSH1 0x60 DUP2 ADD PUSH2 0x4EB JUMP JUMPDEST POP PUSH2 0x8FC PUSH2 0x2E1C JUMP JUMPDEST PUSH2 0x2EC8 SWAP2 POP PUSH1 0x20 RETURNDATASIZE DUP2 GT PUSH2 0x550 JUMPI PUSH2 0x542 DUP2 DUP4 PUSH2 0x3692 JUMP JUMPDEST CODESIZE PUSH2 0xFB4 JUMP JUMPDEST POP POP POP CALLVALUE PUSH2 0x365 JUMPI PUSH1 0x20 CALLDATASIZE PUSH1 0x3 NOT ADD SLT PUSH2 0x365 JUMPI PUSH1 0x80 SWAP2 PUSH1 0x1 PUSH1 0x1 PUSH1 0xA0 SHL SUB DUP1 PUSH2 0x2EF6 PUSH2 0x34CA JUMP JUMPDEST AND DUP3 MSTORE PUSH1 0x1A PUSH1 0x20 MSTORE DUP3 DUP3 KECCAK256 SLOAD AND SWAP2 PUSH1 0x1B PUSH1 0x20 MSTORE DUP1 DUP1 DUP4 KECCAK256 SLOAD SWAP3 PUSH1 0x1C PUSH1 0x20 MSTORE KECCAK256 SLOAD SWAP1 PUSH1 0x19 SLOAD SWAP3 DUP2 MLOAD SWAP5 DUP6 MSTORE PUSH1 0x20 DUP6 ADD MSTORE DUP4 ADD MSTORE PUSH1 0x60 DUP3 ADD MSTORE RETURN JUMPDEST POP POP POP CALLVALUE PUSH2 0x365 JUMPI DUP2 PUSH1 0x3 NOT CALLDATASIZE ADD SLT PUSH2 0x365 JUMPI PUSH1 0x20 SWAP1 PUSH1 0x10 SLOAD SWAP1 MLOAD SWAP1 DUP2 MSTORE RETURN JUMPDEST POP POP POP CALLVALUE PUSH2 0x365 JUMPI CALLDATASIZE PUSH1 0x3 NOT ADD SLT PUSH2 0x6BD JUMPI PUSH2 0x2F69 PUSH2 0x34CA JUMP JUMPDEST PUSH1 0x24 CALLDATALOAD SWAP1 PUSH1 0x1 PUSH1 0x1 PUSH1 0xA0 SHL SUB SWAP1 PUSH2 0x2FA3 CALLER PUSH32 0x0 DUP5 AND EQ PUSH2 0x37B7 JUMP JUMPDEST AND PUSH2 0x2FAF DUP2 ISZERO ISZERO PUSH2 0x382C JUMP JUMPDEST PUSH2 0x2FBA DUP3 ISZERO ISZERO PUSH2 0x386A JUMP JUMPDEST PUSH1 0x1 PUSH1 0x1 PUSH1 0x60 SHL SUB PUSH1 0xA0 SHL PUSH1 0x2 SLOAD AND OR PUSH1 0x2 SSTORE PUSH1 0x8 SSTORE DUP1 RETURN JUMPDEST POP POP CALLVALUE PUSH2 0x342 JUMPI DUP3 PUSH1 0x3 NOT CALLDATASIZE ADD SLT PUSH2 0x342 JUMPI SLOAD SWAP1 MLOAD PUSH1 0x1 PUSH1 0x1 PUSH1 0xA0 SHL SUB SWAP1 SWAP2 AND DUP2 MSTORE PUSH1 0x20 SWAP2 POP RETURN JUMPDEST POP POP POP CALLVALUE PUSH2 0x365 JUMPI DUP1 PUSH1 0x3 NOT CALLDATASIZE ADD SLT PUSH2 0x365 JUMPI PUSH2 0x3016 PUSH2 0x34CA JUMP JUMPDEST SWAP1 PUSH1 0x24 CALLDATALOAD SWAP2 DUP3 ISZERO ISZERO DUP1 DUP5 SUB PUSH2 0x30A9 JUMPI PUSH32 0xDDA6207409A585801122FB885DCAA8074F9A21F25FF2DEF680C67F01A86C2C9B SWAP3 PUSH1 0x20 SWAP3 PUSH2 0x30A1 SWAP1 PUSH1 0x1 PUSH1 0x1 PUSH1 0xA0 SHL SUB SWAP1 PUSH2 0x3084 CALLER PUSH32 0x0 DUP5 AND EQ PUSH2 0x37B7 JUMP JUMPDEST AND SWAP6 DUP7 DUP9 MSTORE PUSH1 0xC DUP6 MSTORE DUP3 DUP9 KECCAK256 SWAP1 PUSH1 0xFF DUP1 NOT DUP4 SLOAD AND SWAP2 ISZERO ISZERO AND OR SWAP1 SSTORE JUMP JUMPDEST MLOAD SWAP1 DUP2 MSTORE LOG2 DUP1 RETURN JUMPDEST DUP5 DUP1 REVERT JUMPDEST DUP3 DUP6 DUP6 DUP2 PUSH1 0x3 NOT CALLDATASIZE ADD SLT PUSH2 0x365 JUMPI CALLER DUP3 MSTORE PUSH1 0xC PUSH1 0x20 MSTORE PUSH2 0x30D3 PUSH1 0xFF DUP3 DUP5 KECCAK256 SLOAD AND ISZERO PUSH2 0x38A6 JUMP JUMPDEST CALLVALUE ISZERO SWAP1 PUSH2 0x30E0 DUP3 ISZERO PUSH2 0x38E7 JUMP JUMPDEST DUP3 SLOAD PUSH1 0x1 PUSH1 0x1 PUSH1 0xA0 SHL SUB SWAP1 PUSH2 0x30F8 SWAP1 DUP3 AND ISZERO ISZERO PUSH2 0x3923 JUMP JUMPDEST PUSH8 0xDE0B6B3A7640000 DUP1 CALLVALUE MUL SWAP1 CALLVALUE DUP3 DIV EQ DUP5 OR ISZERO PUSH2 0x31D2 JUMPI DUP5 SWAP6 POP PUSH2 0x3124 PUSH2 0xFBA DUP7 SWAP3 PUSH1 0x5 SLOAD SWAP1 PUSH2 0x398D JUMP JUMPDEST SWAP4 PUSH2 0x312E DUP6 PUSH2 0x40CE JUMP JUMPDEST DUP2 SWAP1 PUSH2 0x31C9 JUMPI JUMPDEST DUP2 DUP1 DUP1 SWAP3 CALLVALUE SWAP1 DUP7 PUSH32 0x0 AND SWAP1 CALL ISZERO PUSH2 0x31BF JUMPI SWAP1 PUSH2 0x31A1 PUSH1 0x0 DUP1 MLOAD PUSH1 0x20 PUSH2 0x4788 DUP4 CODECOPY DUP2 MLOAD SWAP2 MSTORE SWAP3 DUP6 SLOAD AND DUP5 DUP4 MLOAD SWAP2 PUSH2 0x3189 DUP4 PUSH2 0x3676 JUMP JUMPDEST PUSH1 0x3 DUP4 MSTORE PUSH3 0x425559 PUSH1 0xE8 SHL PUSH1 0x20 DUP5 ADD MSTORE CALLVALUE SWAP1 CALLER PUSH2 0x4627 JUMP JUMPDEST MLOAD CALLVALUE DUP2 MSTORE PUSH1 0x20 DUP2 ADD SWAP3 SWAP1 SWAP3 MSTORE TIMESTAMP PUSH1 0x40 DUP4 ADD MSTORE CALLER SWAP2 DUP1 PUSH1 0x60 DUP2 ADD PUSH2 0x4EB JUMP JUMPDEST DUP2 MLOAD RETURNDATASIZE DUP6 DUP3 RETURNDATACOPY RETURNDATASIZE SWAP1 REVERT JUMPDEST POP PUSH2 0x8FC PUSH2 0x3135 JUMP JUMPDEST PUSH4 0x4E487B71 PUSH1 0xE0 SHL DUP6 MSTORE PUSH1 0x11 DUP7 MSTORE PUSH1 0x24 DUP6 REVERT JUMPDEST DUP4 DUP6 DUP5 CALLVALUE PUSH2 0x365 JUMPI PUSH1 0x20 SWAP1 DUP2 PUSH1 0x3 NOT CALLDATASIZE ADD SLT PUSH2 0x342 JUMPI CALLDATALOAD SWAP3 DUP4 DUP4 MSTORE PUSH1 0x13 DUP3 MSTORE PUSH1 0x1 DUP1 PUSH1 0xA0 SHL SUB DUP2 DUP5 KECCAK256 SLOAD AND SWAP3 PUSH2 0x321C DUP5 ISZERO ISZERO PUSH2 0x3B7B JUMP JUMPDEST PUSH2 0x3224 PUSH2 0x474F JUMP JUMPDEST DUP2 SWAP6 DUP3 JUMPDEST DUP7 DUP5 MSTORE PUSH1 0x12 DUP1 DUP8 MSTORE DUP6 DUP6 KECCAK256 DUP1 SLOAD DUP4 LT ISZERO PUSH2 0x32A3 JUMPI PUSH2 0x3247 DUP4 DUP6 SWAP3 PUSH2 0x35D8 JUMP JUMPDEST POP SLOAD EQ PUSH2 0x325D JUMPI POP PUSH2 0x3258 SWAP1 PUSH2 0x3B5F JUMP JUMPDEST PUSH2 0x3228 JUMP JUMPDEST PUSH1 0x80 SWAP9 POP PUSH2 0x166E SWAP4 POP DUP6 SWAP2 SWAP3 POP SWAP4 PUSH2 0x327A SWAP5 DUP9 DUP3 MSTORE DUP8 MSTORE KECCAK256 PUSH2 0x35D8 JUMP JUMPDEST SWAP1 PUSH2 0x3285 PUSH1 0x1 PUSH2 0x3BBE JUMP JUMPDEST DUP2 MLOAD SWAP4 DUP2 DUP5 DUP5 ADD MLOAD SWAP4 ADD MLOAD SWAP4 DUP3 MLOAD SWAP6 DUP7 MSTORE DUP6 ADD MSTORE DUP4 ADD MSTORE PUSH1 0x60 DUP3 ADD MSTORE RETURN JUMPDEST POP POP POP POP SWAP2 SWAP1 POP PUSH2 0x3285 PUSH1 0x80 SWAP6 PUSH2 0x3BBE JUMP JUMPDEST POP POP SWAP1 CALLVALUE PUSH2 0x342 JUMPI DUP1 PUSH1 0x3 NOT CALLDATASIZE ADD SLT PUSH2 0x342 JUMPI PUSH2 0x32D0 PUSH2 0x34CA JUMP JUMPDEST PUSH1 0x24 CALLDATALOAD SWAP1 PUSH32 0x0 PUSH1 0x1 PUSH1 0x1 PUSH1 0xA0 SHL SUB PUSH2 0x330A CALLER DUP3 DUP5 AND EQ PUSH2 0x37B7 JUMP JUMPDEST DUP1 DUP8 SLOAD AND SWAP3 AND SWAP2 DUP3 EQ PUSH2 0x33C5 JUMPI JUMPDEST DUP4 MLOAD PUSH4 0xA9059CBB PUSH1 0xE0 SHL DUP2 MSTORE PUSH1 0x1 PUSH1 0x1 PUSH1 0xA0 SHL SUB SWAP1 SWAP2 AND DUP6 DUP3 ADD SWAP1 DUP2 MSTORE PUSH1 0x20 DUP2 DUP2 ADD SWAP5 SWAP1 SWAP5 MSTORE SWAP1 SWAP3 SWAP2 DUP4 SWAP2 DUP3 SWAP1 DUP9 SWAP1 DUP3 SWAP1 PUSH1 0x40 ADD SUB SWAP3 GAS CALL SWAP1 DUP2 ISZERO PUSH2 0x33BB JUMPI DUP5 SWAP2 PUSH2 0x339D JUMPI JUMPDEST POP ISZERO PUSH2 0x3368 JUMPI DUP3 DUP1 RETURN JUMPDEST SWAP1 PUSH1 0x20 PUSH1 0x64 SWAP3 MLOAD SWAP2 PUSH3 0x461BCD PUSH1 0xE5 SHL DUP4 MSTORE DUP3 ADD MSTORE PUSH1 0xF PUSH1 0x24 DUP3 ADD MSTORE PUSH15 0x151C985B9CD9995C8819985A5B1959 PUSH1 0x8A SHL PUSH1 0x44 DUP3 ADD MSTORE REVERT JUMPDEST PUSH2 0x33B5 SWAP2 POP PUSH1 0x20 RETURNDATASIZE DUP2 GT PUSH2 0x550 JUMPI PUSH2 0x542 DUP2 DUP4 PUSH2 0x3692 JUMP JUMPDEST CODESIZE PUSH2 0x335E JUMP JUMPDEST DUP3 MLOAD RETURNDATASIZE DUP7 DUP3 RETURNDATACOPY RETURNDATASIZE SWAP1 REVERT JUMPDEST DUP4 MLOAD PUSH4 0x70A08231 PUSH1 0xE0 SHL DUP2 MSTORE ADDRESS DUP7 DUP3 ADD MSTORE PUSH1 0x20 DUP2 PUSH1 0x24 DUP2 DUP7 GAS STATICCALL DUP1 ISZERO PUSH2 0x347B JUMPI DUP8 SWAP1 PUSH2 0x3444 JUMPI JUMPDEST PUSH2 0x33FA SWAP2 POP PUSH1 0x14 SLOAD SWAP1 PUSH2 0x3C3B JUMP JUMPDEST DUP4 GT ISZERO PUSH2 0x3318 JUMPI DUP4 MLOAD PUSH3 0x461BCD PUSH1 0xE5 SHL DUP2 MSTORE PUSH1 0x20 DUP2 DUP8 ADD MSTORE PUSH1 0x1D PUSH1 0x24 DUP3 ADD MSTORE PUSH32 0x43616E6E6F74207769746864726177207374616B656420746F6B656E73000000 PUSH1 0x44 DUP3 ADD MSTORE PUSH1 0x64 SWAP1 REVERT JUMPDEST POP PUSH1 0x20 DUP2 RETURNDATASIZE DUP3 GT PUSH2 0x3473 JUMPI JUMPDEST DUP2 PUSH2 0x345D PUSH1 0x20 SWAP4 DUP4 PUSH2 0x3692 JUMP JUMPDEST DUP2 ADD SUB SLT PUSH2 0x346F JUMPI PUSH2 0x33FA SWAP1 MLOAD PUSH2 0x33EC JUMP JUMPDEST DUP7 DUP1 REVERT JUMPDEST RETURNDATASIZE SWAP2 POP PUSH2 0x3450 JUMP JUMPDEST DUP6 MLOAD RETURNDATASIZE DUP10 DUP3 RETURNDATACOPY RETURNDATASIZE SWAP1 REVERT JUMPDEST POP POP POP CALLVALUE PUSH2 0x365 JUMPI DUP2 PUSH1 0x3 NOT CALLDATASIZE ADD SLT PUSH2 0x365 JUMPI PUSH1 0x20 SWAP1 PUSH1 0x9 SLOAD SWAP1 MLOAD SWAP1 DUP2 MSTORE RETURN JUMPDEST DUP6 SWAP1 CALLVALUE PUSH2 0x365 JUMPI DUP2 PUSH1 0x3 NOT CALLDATASIZE ADD SLT PUSH2 0x365 JUMPI PUSH1 0x2 SLOAD PUSH1 0x1 PUSH1 0x1 PUSH1 0xA0 SHL SUB AND DUP2 MSTORE PUSH1 0x20 SWAP1 RETURN JUMPDEST PUSH1 0x4 CALLDATALOAD SWAP1 PUSH1 0x1 PUSH1 0x1 PUSH1 0xA0 SHL SUB DUP3 AND DUP3 SUB PUSH2 0x34E0 JUMPI JUMP JUMPDEST PUSH1 0x0 DUP1 REVERT JUMPDEST SWAP2 SWAP1 DUP3 MLOAD SWAP3 DUP4 DUP3 MSTORE PUSH1 0x0 JUMPDEST DUP5 DUP2 LT PUSH2 0x3511 JUMPI POP POP DUP3 PUSH1 0x0 PUSH1 0x20 DUP1 SWAP5 SWAP6 DUP5 ADD ADD MSTORE PUSH1 0x1F DUP1 NOT SWAP2 ADD AND ADD ADD SWAP1 JUMP JUMPDEST PUSH1 0x20 DUP2 DUP4 ADD DUP2 ADD MLOAD DUP5 DUP4 ADD DUP3 ADD MSTORE ADD PUSH2 0x34F0 JUMP JUMPDEST PUSH1 0x20 DUP1 DUP3 ADD SWAP1 DUP1 DUP4 MSTORE DUP4 MLOAD DUP1 SWAP3 MSTORE PUSH1 0x40 SWAP3 DUP4 DUP2 ADD DUP3 DUP6 DUP6 PUSH1 0x5 SHL DUP5 ADD ADD SWAP7 ADD SWAP5 PUSH1 0x0 SWAP3 JUMPDEST DUP6 DUP5 LT PUSH2 0x355A JUMPI POP POP POP POP POP POP POP SWAP1 JUMP JUMPDEST SWAP1 SWAP2 SWAP3 SWAP4 SWAP5 SWAP6 SWAP7 DUP6 DUP1 PUSH2 0x35C7 PUSH1 0x1 SWAP4 PUSH1 0x3F NOT DUP7 DUP3 SUB ADD DUP9 MSTORE DUP12 MLOAD DUP1 MLOAD DUP3 MSTORE DUP6 DUP1 PUSH1 0xA0 SHL SUB DUP1 DUP6 DUP4 ADD MLOAD AND DUP6 DUP5 ADD MSTORE DUP1 DUP10 DUP4 ADD MLOAD AND DUP10 DUP5 ADD MSTORE PUSH1 0x60 SWAP1 DUP2 DUP4 ADD MLOAD AND SWAP1 DUP4 ADD MSTORE PUSH1 0x80 DUP1 DUP3 ADD MLOAD SWAP1 DUP4 ADD MSTORE PUSH1 0xA0 DUP1 DUP3 ADD MLOAD SWAP1 DUP4 ADD MSTORE PUSH1 0xC0 DUP1 SWAP2 ADD MLOAD SWAP2 PUSH1 0xE0 DUP1 SWAP3 DUP3 ADD MSTORE ADD SWAP1 PUSH2 0x34E5 JUMP JUMPDEST SWAP10 ADD SWAP5 ADD SWAP5 ADD SWAP3 SWAP6 SWAP5 SWAP4 SWAP2 SWAP1 PUSH2 0x3549 JUMP JUMPDEST DUP1 SLOAD DUP3 LT ISZERO PUSH2 0x35F4 JUMPI PUSH1 0x0 MSTORE PUSH1 0x7 PUSH1 0x20 PUSH1 0x0 KECCAK256 SWAP2 MUL ADD SWAP1 PUSH1 0x0 SWAP1 JUMP JUMPDEST PUSH4 0x4E487B71 PUSH1 0xE0 SHL PUSH1 0x0 MSTORE PUSH1 0x32 PUSH1 0x4 MSTORE PUSH1 0x24 PUSH1 0x0 REVERT JUMPDEST SWAP1 PUSH1 0x1 DUP3 DUP2 SHR SWAP3 AND DUP1 ISZERO PUSH2 0x363A JUMPI JUMPDEST PUSH1 0x20 DUP4 LT EQ PUSH2 0x3624 JUMPI JUMP JUMPDEST PUSH4 0x4E487B71 PUSH1 0xE0 SHL PUSH1 0x0 MSTORE PUSH1 0x22 PUSH1 0x4 MSTORE PUSH1 0x24 PUSH1 0x0 REVERT JUMPDEST SWAP2 PUSH1 0x7F AND SWAP2 PUSH2 0x3619 JUMP JUMPDEST PUSH1 0xE0 DUP2 ADD SWAP1 DUP2 LT PUSH8 0xFFFFFFFFFFFFFFFF DUP3 GT OR PUSH2 0x3660 JUMPI PUSH1 0x40 MSTORE JUMP JUMPDEST PUSH4 0x4E487B71 PUSH1 0xE0 SHL PUSH1 0x0 MSTORE PUSH1 0x41 PUSH1 0x4 MSTORE PUSH1 0x24 PUSH1 0x0 REVERT JUMPDEST PUSH1 0x40 DUP2 ADD SWAP1 DUP2 LT PUSH8 0xFFFFFFFFFFFFFFFF DUP3 GT OR PUSH2 0x3660 JUMPI PUSH1 0x40 MSTORE JUMP JUMPDEST SWAP1 PUSH1 0x1F DUP1 NOT SWAP2 ADD AND DUP2 ADD SWAP1 DUP2 LT PUSH8 0xFFFFFFFFFFFFFFFF DUP3 GT OR PUSH2 0x3660 JUMPI PUSH1 0x40 MSTORE JUMP JUMPDEST SWAP1 PUSH1 0x40 MLOAD SWAP2 DUP3 PUSH1 0x0 DUP3 SLOAD SWAP3 PUSH2 0x36C8 DUP5 PUSH2 0x360A JUMP JUMPDEST SWAP1 DUP2 DUP5 MSTORE PUSH1 0x1 SWAP5 DUP6 DUP2 AND SWAP1 DUP2 PUSH1 0x0 EQ PUSH2 0x3737 JUMPI POP PUSH1 0x1 EQ PUSH2 0x36F4 JUMPI JUMPDEST POP POP PUSH2 0x36F2 SWAP3 POP SUB DUP4 PUSH2 0x3692 JUMP JUMPDEST JUMP JUMPDEST SWAP1 SWAP4 SWAP2 POP PUSH1 0x0 MSTORE PUSH1 0x20 SWAP1 DUP2 PUSH1 0x0 KECCAK256 SWAP4 PUSH1 0x0 SWAP2 JUMPDEST DUP2 DUP4 LT PUSH2 0x371F JUMPI POP POP PUSH2 0x36F2 SWAP4 POP DUP3 ADD ADD CODESIZE DUP1 PUSH2 0x36E4 JUMP JUMPDEST DUP6 SLOAD DUP9 DUP5 ADD DUP6 ADD MSTORE SWAP5 DUP6 ADD SWAP5 DUP8 SWAP5 POP SWAP2 DUP4 ADD SWAP2 PUSH2 0x3707 JUMP JUMPDEST SWAP2 POP POP PUSH2 0x36F2 SWAP5 POP PUSH1 0x20 SWAP3 POP PUSH1 0xFF NOT AND DUP3 DUP5 ADD MSTORE ISZERO ISZERO PUSH1 0x5 SHL DUP3 ADD ADD CODESIZE DUP1 PUSH2 0x36E4 JUMP JUMPDEST SWAP4 PUSH1 0xE0 SWAP6 SWAP3 PUSH2 0x379C SWAP9 SWAP8 SWAP5 SWAP3 DUP7 MSTORE PUSH1 0x1 DUP1 PUSH1 0xA0 SHL SUB SWAP3 DUP4 DUP1 SWAP3 AND PUSH1 0x20 DUP9 ADD MSTORE AND PUSH1 0x40 DUP7 ADD MSTORE AND PUSH1 0x60 DUP5 ADD MSTORE PUSH1 0x80 DUP4 ADD MSTORE PUSH1 0xA0 DUP3 ADD MSTORE DUP2 PUSH1 0xC0 DUP3 ADD MSTORE ADD SWAP1 PUSH2 0x34E5 JUMP JUMPDEST SWAP1 JUMP JUMPDEST DUP1 SLOAD DUP3 LT ISZERO PUSH2 0x35F4 JUMPI PUSH1 0x0 MSTORE PUSH1 0x20 PUSH1 0x0 KECCAK256 ADD SWAP1 PUSH1 0x0 SWAP1 JUMP JUMPDEST ISZERO PUSH2 0x37BE JUMPI JUMP JUMPDEST PUSH1 0x40 MLOAD PUSH3 0x461BCD PUSH1 0xE5 SHL DUP2 MSTORE PUSH1 0x20 PUSH1 0x4 DUP3 ADD MSTORE PUSH1 0xA PUSH1 0x24 DUP3 ADD MSTORE PUSH10 0x27B7363C9037BBB732B9 PUSH1 0xB1 SHL PUSH1 0x44 DUP3 ADD MSTORE PUSH1 0x64 SWAP1 REVERT JUMPDEST ISZERO PUSH2 0x37F7 JUMPI JUMP JUMPDEST PUSH1 0x40 MLOAD PUSH3 0x461BCD PUSH1 0xE5 SHL DUP2 MSTORE PUSH1 0x20 PUSH1 0x4 DUP3 ADD MSTORE PUSH1 0xD PUSH1 0x24 DUP3 ADD MSTORE PUSH13 0x496E76616C6964207072696365 PUSH1 0x98 SHL PUSH1 0x44 DUP3 ADD MSTORE PUSH1 0x64 SWAP1 REVERT JUMPDEST ISZERO PUSH2 0x3833 JUMPI JUMP JUMPDEST PUSH1 0x40 MLOAD PUSH3 0x461BCD PUSH1 0xE5 SHL DUP2 MSTORE PUSH1 0x20 PUSH1 0x4 DUP3 ADD MSTORE PUSH1 0xF PUSH1 0x24 DUP3 ADD MSTORE PUSH15 0x496E76616C69642061646472657373 PUSH1 0x88 SHL PUSH1 0x44 DUP3 ADD MSTORE PUSH1 0x64 SWAP1 REVERT JUMPDEST ISZERO PUSH2 0x3871 JUMPI JUMP JUMPDEST PUSH1 0x40 MLOAD PUSH3 0x461BCD PUSH1 0xE5 SHL DUP2 MSTORE PUSH1 0x20 PUSH1 0x4 DUP3 ADD MSTORE PUSH1 0xD PUSH1 0x24 DUP3 ADD MSTORE PUSH13 0x496E76616C696420726174696F PUSH1 0x98 SHL PUSH1 0x44 DUP3 ADD MSTORE PUSH1 0x64 SWAP1 REVERT JUMPDEST ISZERO PUSH2 0x38AD JUMPI JUMP JUMPDEST PUSH1 0x40 MLOAD PUSH3 0x461BCD PUSH1 0xE5 SHL DUP2 MSTORE PUSH1 0x20 PUSH1 0x4 DUP3 ADD MSTORE PUSH1 0x12 PUSH1 0x24 DUP3 ADD MSTORE PUSH18 0x1059191C995CDCC81A5CC8189B1BD8DAD959 PUSH1 0x72 SHL PUSH1 0x44 DUP3 ADD MSTORE PUSH1 0x64 SWAP1 REVERT JUMPDEST ISZERO PUSH2 0x38EE JUMPI JUMP JUMPDEST PUSH1 0x40 MLOAD PUSH3 0x461BCD PUSH1 0xE5 SHL DUP2 MSTORE PUSH1 0x20 PUSH1 0x4 DUP3 ADD MSTORE PUSH1 0xD PUSH1 0x24 DUP3 ADD MSTORE PUSH13 0x9AEAE6E840E6CADCC8408AA89 PUSH1 0x9B SHL PUSH1 0x44 DUP3 ADD MSTORE PUSH1 0x64 SWAP1 REVERT JUMPDEST ISZERO PUSH2 0x392A JUMPI JUMP JUMPDEST PUSH1 0x40 MLOAD PUSH3 0x461BCD PUSH1 0xE5 SHL DUP2 MSTORE PUSH1 0x20 PUSH1 0x4 DUP3 ADD MSTORE PUSH1 0x12 PUSH1 0x24 DUP3 ADD MSTORE PUSH18 0x14D85B19481D1BDAD95B881B9BDD081CD95D PUSH1 0x72 SHL PUSH1 0x44 DUP3 ADD MSTORE PUSH1 0x64 SWAP1 REVERT JUMPDEST DUP2 DUP2 MUL SWAP3 SWAP2 DUP2 ISZERO SWAP2 DUP5 DIV EQ OR ISZERO PUSH2 0x3977 JUMPI JUMP JUMPDEST PUSH4 0x4E487B71 PUSH1 0xE0 SHL PUSH1 0x0 MSTORE PUSH1 0x11 PUSH1 0x4 MSTORE PUSH1 0x24 PUSH1 0x0 REVERT JUMPDEST DUP2 ISZERO PUSH2 0x3997 JUMPI DIV SWAP1 JUMP JUMPDEST PUSH4 0x4E487B71 PUSH1 0xE0 SHL PUSH1 0x0 MSTORE PUSH1 0x12 PUSH1 0x4 MSTORE PUSH1 0x24 PUSH1 0x0 REVERT JUMPDEST ISZERO PUSH2 0x39B4 JUMPI JUMP JUMPDEST PUSH1 0x40 MLOAD PUSH3 0x461BCD PUSH1 0xE5 SHL DUP2 MSTORE PUSH1 0x20 PUSH1 0x4 DUP3 ADD MSTORE PUSH1 0x1D PUSH1 0x24 DUP3 ADD MSTORE PUSH32 0x416D6F756E74206D7573742062652067726561746572207468616E2030000000 PUSH1 0x44 DUP3 ADD MSTORE PUSH1 0x64 SWAP1 REVERT JUMPDEST ISZERO PUSH2 0x3A00 JUMPI JUMP JUMPDEST PUSH1 0x40 MLOAD PUSH3 0x461BCD PUSH1 0xE5 SHL DUP2 MSTORE PUSH1 0x20 PUSH1 0x4 DUP3 ADD MSTORE PUSH1 0x13 PUSH1 0x24 DUP3 ADD MSTORE PUSH19 0x1554D115081B9BDD0818DBDB999A59DD5C9959 PUSH1 0x6A SHL PUSH1 0x44 DUP3 ADD MSTORE PUSH1 0x64 SWAP1 REVERT JUMPDEST SWAP1 DUP2 PUSH1 0x20 SWAP2 SUB SLT PUSH2 0x34E0 JUMPI MLOAD DUP1 ISZERO ISZERO DUP2 SUB PUSH2 0x34E0 JUMPI SWAP1 JUMP JUMPDEST ISZERO PUSH2 0x3A5A JUMPI JUMP JUMPDEST PUSH1 0x40 MLOAD PUSH3 0x461BCD PUSH1 0xE5 SHL DUP2 MSTORE PUSH1 0x20 PUSH1 0x4 DUP3 ADD MSTORE PUSH1 0x14 PUSH1 0x24 DUP3 ADD MSTORE PUSH20 0x1554D115081D1C985B9CD9995C8819985A5B1959 PUSH1 0x62 SHL PUSH1 0x44 DUP3 ADD MSTORE PUSH1 0x64 SWAP1 REVERT JUMPDEST ISZERO PUSH2 0x3A9D JUMPI JUMP JUMPDEST PUSH1 0x40 MLOAD PUSH3 0x461BCD PUSH1 0xE5 SHL DUP2 MSTORE PUSH1 0x20 PUSH1 0x4 DUP3 ADD MSTORE PUSH1 0x13 PUSH1 0x24 DUP3 ADD MSTORE PUSH19 0x1554D110C81B9BDD0818DBDB999A59DD5C9959 PUSH1 0x6A SHL PUSH1 0x44 DUP3 ADD MSTORE PUSH1 0x64 SWAP1 REVERT JUMPDEST ISZERO PUSH2 0x3ADF JUMPI JUMP JUMPDEST PUSH1 0x40 MLOAD PUSH3 0x461BCD PUSH1 0xE5 SHL DUP2 MSTORE PUSH1 0x20 PUSH1 0x4 DUP3 ADD MSTORE PUSH1 0x14 PUSH1 0x24 DUP3 ADD MSTORE PUSH20 0x1554D110C81D1C985B9CD9995C8819985A5B1959 PUSH1 0x62 SHL PUSH1 0x44 DUP3 ADD MSTORE PUSH1 0x64 SWAP1 REVERT JUMPDEST ISZERO PUSH2 0x3B22 JUMPI JUMP JUMPDEST PUSH1 0x40 MLOAD PUSH3 0x461BCD PUSH1 0xE5 SHL DUP2 MSTORE PUSH1 0x20 PUSH1 0x4 DUP3 ADD MSTORE PUSH1 0x15 PUSH1 0x24 DUP3 ADD MSTORE PUSH21 0x151BDAD95B881D1C985B9CD9995C8819985A5B1959 PUSH1 0x5A SHL PUSH1 0x44 DUP3 ADD MSTORE PUSH1 0x64 SWAP1 REVERT JUMPDEST PUSH1 0x0 NOT DUP2 EQ PUSH2 0x3977 JUMPI PUSH1 0x1 ADD SWAP1 JUMP JUMPDEST SWAP2 SWAP1 DUP3 ADD DUP1 SWAP3 GT PUSH2 0x3977 JUMPI JUMP JUMPDEST ISZERO PUSH2 0x3B82 JUMPI JUMP JUMPDEST PUSH1 0x40 MLOAD PUSH3 0x461BCD PUSH1 0xE5 SHL DUP2 MSTORE PUSH1 0x20 PUSH1 0x4 DUP3 ADD MSTORE PUSH1 0x14 PUSH1 0x24 DUP3 ADD MSTORE PUSH20 0x14DD185AD948191BD95CC81B9BDD08195E1A5CDD PUSH1 0x62 SHL PUSH1 0x44 DUP3 ADD MSTORE PUSH1 0x64 SWAP1 REVERT JUMPDEST ISZERO PUSH2 0x3BC5 JUMPI JUMP JUMPDEST PUSH1 0x40 MLOAD PUSH3 0x461BCD PUSH1 0xE5 SHL DUP2 MSTORE PUSH1 0x20 PUSH1 0x4 DUP3 ADD MSTORE PUSH1 0xF PUSH1 0x24 DUP3 ADD MSTORE PUSH15 0x14DD185AD9481B9BDD08199BDD5B99 PUSH1 0x8A SHL PUSH1 0x44 DUP3 ADD MSTORE PUSH1 0x64 SWAP1 REVERT JUMPDEST ISZERO PUSH2 0x3C03 JUMPI JUMP JUMPDEST PUSH1 0x40 MLOAD PUSH3 0x461BCD PUSH1 0xE5 SHL DUP2 MSTORE PUSH1 0x20 PUSH1 0x4 DUP3 ADD MSTORE PUSH1 0x10 PUSH1 0x24 DUP3 ADD MSTORE PUSH16 0x5374616B65206E6F7420616374697665 PUSH1 0x80 SHL PUSH1 0x44 DUP3 ADD MSTORE PUSH1 0x64 SWAP1 REVERT JUMPDEST SWAP2 SWAP1 DUP3 SUB SWAP2 DUP3 GT PUSH2 0x3977 JUMPI JUMP JUMPDEST PUSH1 0x0 DUP2 DUP2 MSTORE PUSH1 0x13 PUSH1 0x20 SWAP1 DUP2 MSTORE PUSH1 0x40 DUP1 DUP4 KECCAK256 SLOAD PUSH1 0x1 PUSH1 0x1 PUSH1 0xA0 SHL SUB AND SWAP1 PUSH2 0x3C6F DUP3 ISZERO ISZERO PUSH2 0x3B7B JUMP JUMPDEST SWAP3 SWAP4 DUP5 SWAP4 SWAP1 DUP5 SWAP1 DUP2 DUP1 DUP1 DUP1 DUP1 JUMPDEST DUP9 DUP12 MSTORE PUSH1 0x12 DUP1 DUP12 MSTORE DUP9 DUP13 KECCAK256 DUP1 SLOAD DUP4 LT ISZERO PUSH2 0x3E3D JUMPI PUSH2 0x3C9B DUP4 DUP10 SWAP3 PUSH2 0x35D8 JUMP JUMPDEST POP SLOAD EQ PUSH2 0x3CB1 JUMPI POP PUSH2 0x3CAC SWAP1 PUSH2 0x3B5F JUMP JUMPDEST PUSH2 0x3C7C JUMP JUMPDEST SWAP7 POP SWAP11 POP POP POP POP POP POP DUP3 DUP6 MSTORE DUP1 DUP5 MSTORE DUP6 DUP3 DUP7 KECCAK256 SWAP1 PUSH2 0x3CCE SWAP2 PUSH2 0x35D8 JUMP JUMPDEST POP PUSH1 0x5 ADD SLOAD SWAP6 DUP4 DUP7 MSTORE DUP2 DUP6 MSTORE DUP1 DUP4 DUP8 KECCAK256 SWAP1 PUSH2 0x3CE8 SWAP2 PUSH2 0x35D8 JUMP JUMPDEST POP PUSH1 0x4 ADD SLOAD SWAP3 DUP5 DUP8 MSTORE DUP3 DUP7 MSTORE DUP2 DUP2 DUP9 KECCAK256 SWAP1 PUSH2 0x3D02 SWAP2 PUSH2 0x35D8 JUMP JUMPDEST POP SWAP3 PUSH1 0x1 DUP1 SWAP5 ADD SLOAD SWAP7 DUP7 DUP10 MSTORE DUP2 DUP2 MSTORE DUP4 DUP4 DUP11 KECCAK256 SWAP1 PUSH2 0x3D1F SWAP2 PUSH2 0x35D8 JUMP JUMPDEST POP PUSH1 0x3 ADD SLOAD SWAP7 DUP10 MSTORE MSTORE DUP7 KECCAK256 SWAP1 PUSH2 0x3D34 SWAP2 PUSH2 0x35D8 JUMP JUMPDEST POP PUSH1 0x6 ADD SLOAD PUSH1 0xFF AND PUSH2 0x3D48 PUSH2 0x3D4D SWAP3 PUSH2 0x3BBE JUMP JUMPDEST PUSH2 0x3BFC JUMP JUMPDEST TIMESTAMP DUP2 EQ PUSH2 0x3E36 JUMPI PUSH2 0x3D5E SWAP1 TIMESTAMP PUSH2 0x3C3B JUMP JUMPDEST SWAP3 PUSH1 0x10 SLOAD DUP1 SWAP3 PUSH1 0x5A DUP2 EQ PUSH1 0x0 EQ PUSH2 0x3DBC JUMPI POP POP PUSH1 0x3 DUP3 MUL SWAP2 DUP1 DUP4 DIV PUSH1 0x3 EQ SWAP1 ISZERO OR ISZERO PUSH2 0x3DA8 JUMPI POP PUSH2 0x379C SWAP4 SWAP3 PUSH2 0x3D9C PUSH4 0xBBF81E00 SWAP4 PUSH2 0x3DA1 SWAP4 PUSH1 0x1 SHR SWAP1 JUMPDEST PUSH2 0x3964 JUMP JUMPDEST DIV SWAP1 PUSH2 0x3B6E JUMP JUMPDEST PUSH4 0x4E487B71 PUSH1 0xE0 SHL DUP2 MSTORE PUSH1 0x11 PUSH1 0x4 MSTORE PUSH1 0x24 SWAP1 REVERT JUMPDEST PUSH1 0xB4 DUP2 SUB PUSH2 0x3DF2 JUMPI POP POP DUP2 PUSH1 0x1 SHL SWAP2 DUP1 DUP4 DIV PUSH1 0x2 EQ SWAP1 ISZERO OR ISZERO PUSH2 0x3DA8 JUMPI POP PUSH2 0x379C SWAP4 SWAP3 PUSH2 0x3D9C PUSH4 0xBBF81E00 SWAP4 PUSH2 0x3DA1 SWAP4 SWAP1 PUSH2 0x3964 JUMP JUMPDEST PUSH2 0x16D SWAP2 SWAP5 SWAP4 POP EQ PUSH2 0x3E17 JUMPI JUMPDEST POP PUSH2 0x379C SWAP4 SWAP3 PUSH2 0x3D9C PUSH4 0xBBF81E00 SWAP4 PUSH2 0x3DA1 SWAP4 PUSH2 0x3964 JUMP JUMPDEST PUSH1 0x3 DUP4 SWAP3 SWAP4 MUL SWAP2 DUP1 DUP4 DIV PUSH1 0x3 EQ SWAP1 ISZERO OR ISZERO PUSH2 0x3DA8 JUMPI POP SWAP1 PUSH2 0x379C PUSH2 0x3DFF JUMP JUMPDEST POP POP POP POP SWAP1 JUMP JUMPDEST POP POP POP SWAP7 POP SWAP7 POP SWAP8 SWAP4 POP PUSH2 0x3D4D SWAP3 SWAP2 POP PUSH2 0x3D48 SWAP1 PUSH2 0x3BBE JUMP JUMPDEST ISZERO PUSH2 0x3E5D JUMPI JUMP JUMPDEST PUSH1 0x40 MLOAD PUSH3 0x461BCD PUSH1 0xE5 SHL DUP2 MSTORE PUSH1 0x20 PUSH1 0x4 DUP3 ADD MSTORE PUSH1 0xF PUSH1 0x24 DUP3 ADD MSTORE PUSH15 0x2737BA1039BA30B5B29037BBB732B9 PUSH1 0x89 SHL PUSH1 0x44 DUP3 ADD MSTORE PUSH1 0x64 SWAP1 REVERT JUMPDEST PUSH1 0x0 CALLER DUP2 MSTORE PUSH1 0x20 PUSH1 0x1A DUP2 MSTORE PUSH1 0x1 DUP1 PUSH1 0xA0 SHL SUB SWAP1 PUSH1 0x40 DUP3 DUP2 DUP6 KECCAK256 SLOAD AND SWAP3 DUP4 ISZERO ISZERO DUP1 PUSH2 0x4000 JUMPI JUMPDEST PUSH2 0x3EC5 JUMPI POP POP POP POP POP SWAP1 JUMP JUMPDEST PUSH1 0x64 PUSH2 0x3ED3 PUSH1 0x19 SLOAD DUP9 PUSH2 0x3964 JUMP JUMPDEST DUP7 SLOAD DUP5 MLOAD PUSH4 0xA9059CBB PUSH1 0xE0 SHL DUP2 MSTORE PUSH1 0x1 PUSH1 0x1 PUSH1 0xA0 SHL SUB DUP9 AND PUSH1 0x4 DUP3 ADD MSTORE SWAP3 SWAP1 SWAP2 DIV PUSH1 0x24 DUP4 ADD DUP2 SWAP1 MSTORE SWAP7 SWAP2 SWAP1 DUP6 SWAP1 DUP3 SWAP1 PUSH1 0x44 SWAP1 DUP3 SWAP1 DUP7 SWAP1 DUP9 AND GAS CALL SWAP1 DUP2 ISZERO PUSH2 0x3FF6 JUMPI DUP3 SWAP2 PUSH2 0x3FD9 JUMPI JUMPDEST POP ISZERO PUSH2 0x3F95 JUMPI PUSH32 0x94CCB86446750660EC532B1BEB1FB55F5BA2FFFCA042C4C53F4C080E72595B38 SWAP4 SWAP3 SWAP2 DUP2 DUP7 PUSH2 0x3F8B SWAP4 MSTORE PUSH1 0x1C DUP6 MSTORE DUP4 DUP2 KECCAK256 PUSH2 0x3F5E DUP10 DUP3 SLOAD PUSH2 0x3B6E JUMP JUMPDEST SWAP1 SSTORE SLOAD AND DUP7 DUP9 DUP5 MLOAD SWAP3 PUSH2 0x3F70 DUP5 PUSH2 0x3676 JUMP JUMPDEST PUSH1 0x8 DUP5 MSTORE PUSH8 0x1491519154949053 PUSH1 0xC2 SHL DUP8 DUP6 ADD MSTORE DUP1 DUP10 PUSH2 0x4686 JUMP JUMPDEST MLOAD SWAP4 DUP5 MSTORE CALLER SWAP4 LOG3 SWAP1 JUMP JUMPDEST DUP3 MLOAD PUSH3 0x461BCD PUSH1 0xE5 SHL DUP2 MSTORE PUSH1 0x4 DUP2 ADD DUP6 SWAP1 MSTORE PUSH1 0x1F PUSH1 0x24 DUP3 ADD MSTORE PUSH32 0x526566657272616C20726577617264207472616E73666572206661696C656400 PUSH1 0x44 DUP3 ADD MSTORE PUSH1 0x64 SWAP1 REVERT JUMPDEST PUSH2 0x3FF0 SWAP2 POP DUP6 RETURNDATASIZE DUP8 GT PUSH2 0x550 JUMPI PUSH2 0x542 DUP2 DUP4 PUSH2 0x3692 JUMP JUMPDEST CODESIZE PUSH2 0x3F1B JUMP JUMPDEST DUP5 MLOAD RETURNDATASIZE DUP5 DUP3 RETURNDATACOPY RETURNDATASIZE SWAP1 REVERT JUMPDEST POP DUP4 DUP6 MSTORE PUSH1 0xC DUP4 MSTORE PUSH1 0xFF DUP3 DUP7 KECCAK256 SLOAD AND ISZERO PUSH2 0x3EB9 JUMP JUMPDEST PUSH1 0x0 SWAP1 DUP2 JUMPDEST PUSH1 0x1 PUSH1 0x1 PUSH1 0xA0 SHL SUB DUP3 AND PUSH1 0x0 SWAP1 DUP2 MSTORE PUSH1 0x12 PUSH1 0x20 MSTORE PUSH1 0x40 SWAP1 KECCAK256 DUP1 SLOAD DUP3 LT ISZERO PUSH2 0x40C6 JUMPI PUSH1 0x6 PUSH2 0x4049 DUP4 PUSH1 0xFF SWAP4 PUSH2 0x35D8 JUMP JUMPDEST POP ADD SLOAD AND PUSH2 0x405F JUMPI PUSH2 0x405A SWAP1 PUSH2 0x3B5F JUMP JUMPDEST PUSH2 0x401A JUMP JUMPDEST POP SWAP1 POP PUSH1 0x1 JUMPDEST ISZERO DUP1 PUSH2 0x40A4 JUMPI JUMPDEST PUSH2 0x4073 JUMPI POP JUMP JUMPDEST PUSH1 0x1 PUSH1 0x1 PUSH1 0xA0 SHL SUB AND PUSH1 0x0 SWAP1 DUP2 MSTORE PUSH1 0x18 PUSH1 0x20 MSTORE PUSH1 0x40 SWAP1 KECCAK256 DUP1 SLOAD PUSH1 0xFF NOT AND SWAP1 SSTORE PUSH1 0x16 SLOAD DUP1 ISZERO PUSH2 0x3977 JUMPI PUSH1 0x0 NOT ADD PUSH1 0x16 SSTORE JUMP JUMPDEST POP PUSH1 0x1 PUSH1 0x1 PUSH1 0xA0 SHL SUB DUP2 AND PUSH1 0x0 SWAP1 DUP2 MSTORE PUSH1 0x18 PUSH1 0x20 MSTORE PUSH1 0x40 SWAP1 KECCAK256 SLOAD PUSH1 0xFF AND PUSH2 0x406C JUMP JUMPDEST POP POP SWAP1 PUSH2 0x4065 JUMP JUMPDEST PUSH1 0x0 DUP1 SLOAD PUSH1 0x40 MLOAD PUSH4 0x70A08231 PUSH1 0xE0 SHL DUP2 MSTORE ADDRESS PUSH1 0x4 DUP3 ADD MSTORE SWAP2 SWAP4 SWAP3 SWAP2 PUSH1 0x20 SWAP2 PUSH1 0x1 PUSH1 0x1 PUSH1 0xA0 SHL SUB AND SWAP1 DUP3 DUP2 PUSH1 0x24 DUP2 DUP6 GAS STATICCALL DUP1 ISZERO PUSH2 0x4205 JUMPI DUP5 SWAP2 DUP8 SWAP2 PUSH2 0x41D4 JUMPI JUMPDEST POP LT PUSH2 0x418F JUMPI PUSH1 0x40 MLOAD PUSH4 0xA9059CBB PUSH1 0xE0 SHL DUP2 MSTORE CALLER PUSH1 0x4 DUP3 ADD MSTORE PUSH1 0x24 DUP2 ADD DUP5 SWAP1 MSTORE SWAP1 DUP3 SWAP1 DUP3 SWAP1 PUSH1 0x44 SWAP1 DUP3 SWAP1 DUP10 SWAP1 GAS CALL SWAP2 DUP3 ISZERO PUSH2 0x4184 JUMPI SWAP1 PUSH2 0x415A SWAP3 SWAP2 PUSH2 0x4162 SWAP6 SWAP7 SWAP3 PUSH2 0x4167 JUMPI JUMPDEST POP POP PUSH2 0x3B1B JUMP JUMPDEST PUSH1 0xB SLOAD PUSH2 0x3B6E JUMP JUMPDEST PUSH1 0xB SSTORE JUMP JUMPDEST PUSH2 0x417D SWAP3 POP DUP1 RETURNDATASIZE LT PUSH2 0x550 JUMPI PUSH2 0x542 DUP2 DUP4 PUSH2 0x3692 JUMP JUMPDEST CODESIZE DUP1 PUSH2 0x4153 JUMP JUMPDEST PUSH1 0x40 MLOAD RETURNDATASIZE DUP8 DUP3 RETURNDATACOPY RETURNDATASIZE SWAP1 REVERT JUMPDEST PUSH1 0x40 MLOAD PUSH3 0x461BCD PUSH1 0xE5 SHL DUP2 MSTORE PUSH1 0x4 DUP2 ADD DUP4 SWAP1 MSTORE PUSH1 0x1A PUSH1 0x24 DUP3 ADD MSTORE PUSH32 0x496E73756666696369656E7420746F6B656E2062616C616E6365000000000000 PUSH1 0x44 DUP3 ADD MSTORE PUSH1 0x64 SWAP1 REVERT JUMPDEST DUP1 SWAP3 POP DUP5 DUP1 SWAP3 POP RETURNDATASIZE DUP4 GT PUSH2 0x41FE JUMPI JUMPDEST PUSH2 0x41ED DUP2 DUP4 PUSH2 0x3692 JUMP JUMPDEST DUP2 ADD SUB SLT PUSH2 0x1A2F JUMPI DUP4 SWAP1 MLOAD CODESIZE PUSH2 0x410D JUMP JUMPDEST POP RETURNDATASIZE PUSH2 0x41E3 JUMP JUMPDEST PUSH1 0x40 MLOAD RETURNDATASIZE DUP9 DUP3 RETURNDATACOPY RETURNDATASIZE SWAP1 REVERT JUMPDEST PUSH1 0xE SLOAD PUSH1 0x1 PUSH1 0x40 SHL DUP2 LT ISZERO PUSH2 0x3660 JUMPI PUSH1 0x1 SWAP1 DUP2 DUP2 ADD DUP1 PUSH1 0xE SSTORE DUP2 LT ISZERO PUSH2 0x35F4 JUMPI PUSH1 0x7 PUSH1 0x0 SWAP2 PUSH1 0xE DUP4 MSTORE MUL SWAP2 DUP4 MLOAD DUP4 PUSH32 0xBB7B4A454DC3493923482F07822329ED19E8244EFF582CC204F8554C3620C3FD ADD SSTORE PUSH1 0xC0 PUSH32 0xBB7B4A454DC3493923482F07822329ED19E8244EFF582CC204F8554C3620C403 PUSH32 0xBB7B4A454DC3493923482F07822329ED19E8244EFF582CC204F8554C3620C3FE DUP6 ADD SWAP5 PUSH1 0x1 DUP1 PUSH1 0xA0 SHL SUB PUSH1 0x20 SWAP7 DUP2 DUP9 DUP11 ADD MLOAD AND SWAP1 PUSH1 0x1 PUSH1 0x1 PUSH1 0x60 SHL SUB PUSH1 0xA0 SHL SWAP2 DUP3 DUP3 SLOAD AND OR SWAP1 SSTORE PUSH32 0xBB7B4A454DC3493923482F07822329ED19E8244EFF582CC204F8554C3620C3FF DUP4 ADD DUP3 PUSH1 0x40 DUP12 ADD MLOAD AND DUP3 DUP3 SLOAD AND OR SWAP1 SSTORE PUSH32 0xBB7B4A454DC3493923482F07822329ED19E8244EFF582CC204F8554C3620C400 DUP4 ADD SWAP2 PUSH1 0x60 DUP11 ADD MLOAD AND SWAP1 DUP3 SLOAD AND OR SWAP1 SSTORE PUSH1 0x80 DUP8 ADD MLOAD PUSH32 0xBB7B4A454DC3493923482F07822329ED19E8244EFF582CC204F8554C3620C401 DUP3 ADD SSTORE PUSH1 0xA0 DUP8 ADD MLOAD PUSH32 0xBB7B4A454DC3493923482F07822329ED19E8244EFF582CC204F8554C3620C402 DUP3 ADD SSTORE ADD SWAP5 ADD MLOAD SWAP2 DUP3 MLOAD SWAP3 PUSH8 0xFFFFFFFFFFFFFFFF DUP5 GT PUSH2 0x4488 JUMPI PUSH2 0x43A1 DUP7 SLOAD PUSH2 0x360A JUMP JUMPDEST PUSH1 0x1F DUP2 GT PUSH2 0x4442 JUMPI JUMPDEST POP DUP5 SWAP2 PUSH1 0x1F DUP6 GT PUSH1 0x1 EQ PUSH2 0x43E3 JUMPI SWAP4 SWAP5 POP DUP5 SWAP3 SWAP2 SWAP1 DUP4 PUSH2 0x43D8 JUMPI JUMPDEST POP POP SHL SWAP2 PUSH1 0x0 NOT SWAP1 PUSH1 0x3 SHL SHR NOT AND OR SWAP1 SSTORE JUMP JUMPDEST ADD MLOAD SWAP3 POP CODESIZE DUP1 PUSH2 0x43C5 JUMP JUMPDEST DUP7 DUP2 MSTORE DUP6 DUP2 KECCAK256 SWAP4 SWAP6 DUP6 SWAP2 PUSH1 0x1F NOT DUP4 AND SWAP2 JUMPDEST DUP9 DUP4 DUP4 LT PUSH2 0x4428 JUMPI POP POP POP LT PUSH2 0x440F JUMPI JUMPDEST POP POP POP DUP2 SHL ADD SWAP1 SSTORE JUMP JUMPDEST ADD MLOAD PUSH1 0x0 NOT PUSH1 0xF8 DUP5 PUSH1 0x3 SHL AND SHR NOT AND SWAP1 SSTORE CODESIZE DUP1 DUP1 PUSH2 0x4405 JUMP JUMPDEST DUP6 DUP8 ADD MLOAD DUP9 SSTORE SWAP1 SWAP7 ADD SWAP6 SWAP5 DUP6 ADD SWAP5 DUP8 SWAP4 POP SWAP1 DUP2 ADD SWAP1 PUSH2 0x43F4 JUMP JUMPDEST DUP7 DUP4 MSTORE DUP6 DUP4 KECCAK256 PUSH1 0x1F DUP7 ADD PUSH1 0x5 SHR DUP2 ADD SWAP2 DUP8 DUP8 LT PUSH2 0x447E JUMPI JUMPDEST PUSH1 0x1F ADD PUSH1 0x5 SHR ADD SWAP1 DUP5 SWAP1 JUMPDEST DUP3 DUP2 LT PUSH2 0x4473 JUMPI POP POP PUSH2 0x43AA JUMP JUMPDEST DUP5 DUP2 SSTORE ADD DUP5 SWAP1 PUSH2 0x4465 JUMP JUMPDEST SWAP1 SWAP2 POP DUP2 SWAP1 PUSH2 0x445A JUMP JUMPDEST PUSH4 0x4E487B71 PUSH1 0xE0 SHL DUP3 MSTORE PUSH1 0x41 PUSH1 0x4 MSTORE PUSH1 0x24 DUP3 REVERT JUMPDEST DUP1 SLOAD PUSH1 0x1 PUSH1 0x40 SHL DUP2 LT ISZERO PUSH2 0x3660 JUMPI PUSH2 0x44BB SWAP1 PUSH1 0x1 SWAP3 DUP4 DUP3 ADD DUP2 SSTORE PUSH2 0x35D8 JUMP JUMPDEST PUSH2 0x4611 JUMPI DUP3 MLOAD DUP2 SSTORE PUSH1 0xC0 PUSH1 0x6 DUP4 DUP4 ADD SWAP3 PUSH1 0x1 DUP1 PUSH1 0xA0 SHL SUB PUSH1 0x20 SWAP5 DUP2 DUP7 DUP10 ADD MLOAD AND SWAP1 PUSH1 0x1 PUSH1 0x1 PUSH1 0x60 SHL SUB PUSH1 0xA0 SHL SWAP2 DUP3 DUP3 SLOAD AND OR SWAP1 SSTORE PUSH1 0x2 DUP4 ADD DUP3 PUSH1 0x40 DUP11 ADD MLOAD AND DUP3 DUP3 SLOAD AND OR SWAP1 SSTORE PUSH1 0x3 DUP4 ADD SWAP2 PUSH1 0x60 DUP10 ADD MLOAD AND SWAP1 DUP3 SLOAD AND OR SWAP1 SSTORE PUSH1 0x80 DUP7 ADD MLOAD PUSH1 0x4 DUP3 ADD SSTORE PUSH1 0xA0 DUP7 ADD MLOAD PUSH1 0x5 DUP3 ADD SSTORE ADD SWAP4 ADD MLOAD SWAP1 DUP2 MLOAD SWAP2 PUSH8 0xFFFFFFFFFFFFFFFF DUP4 GT PUSH2 0x3660 JUMPI PUSH2 0x4548 DUP6 SLOAD PUSH2 0x360A JUMP JUMPDEST PUSH1 0x1F DUP2 GT PUSH2 0x45C8 JUMPI JUMPDEST POP DUP2 PUSH1 0x1F DUP5 GT PUSH1 0x1 EQ PUSH2 0x457F JUMPI POP SWAP3 DUP3 SWAP4 SWAP2 DUP4 SWAP3 PUSH1 0x0 SWAP5 PUSH2 0x43D8 JUMPI POP POP SHL SWAP2 PUSH1 0x0 NOT SWAP1 PUSH1 0x3 SHL SHR NOT AND OR SWAP1 SSTORE JUMP JUMPDEST SWAP2 SWAP1 DUP4 PUSH1 0x1F NOT DUP2 AND DUP8 PUSH1 0x0 MSTORE DUP5 PUSH1 0x0 KECCAK256 SWAP5 PUSH1 0x0 SWAP1 JUMPDEST DUP9 DUP4 DUP4 LT PUSH2 0x45AE JUMPI POP POP POP LT PUSH2 0x440F JUMPI POP POP POP DUP2 SHL ADD SWAP1 SSTORE JUMP JUMPDEST DUP6 DUP8 ADD MLOAD DUP9 SSTORE SWAP1 SWAP7 ADD SWAP6 SWAP5 DUP6 ADD SWAP5 DUP8 SWAP4 POP SWAP1 DUP2 ADD SWAP1 PUSH2 0x4594 JUMP JUMPDEST PUSH1 0x0 DUP7 DUP2 MSTORE DUP4 DUP2 KECCAK256 PUSH1 0x1F DUP7 ADD PUSH1 0x5 SHR DUP2 ADD SWAP3 DUP6 DUP8 LT PUSH2 0x4607 JUMPI JUMPDEST PUSH1 0x1F ADD PUSH1 0x5 SHR ADD SWAP2 DUP7 SWAP1 JUMPDEST DUP4 DUP2 LT PUSH2 0x45FC JUMPI POP POP POP PUSH2 0x4551 JUMP JUMPDEST DUP3 DUP2 SSTORE ADD DUP7 SWAP1 PUSH2 0x45ED JUMP JUMPDEST SWAP1 SWAP3 POP DUP3 SWAP1 PUSH2 0x45E2 JUMP JUMPDEST PUSH4 0x4E487B71 PUSH1 0xE0 SHL PUSH1 0x0 MSTORE PUSH1 0x0 PUSH1 0x4 MSTORE PUSH1 0x24 PUSH1 0x0 REVERT JUMPDEST SWAP3 PUSH2 0x36F2 SWAP5 SWAP2 SWAP3 PUSH1 0x40 MLOAD SWAP5 PUSH2 0x463B DUP7 PUSH2 0x3644 JUMP JUMPDEST TIMESTAMP DUP7 MSTORE PUSH1 0x1 DUP1 PUSH1 0xA0 SHL SUB DUP1 SWAP2 AND SWAP5 DUP6 PUSH1 0x20 DUP9 ADD MSTORE PUSH1 0x0 PUSH1 0x40 DUP9 ADD MSTORE AND PUSH1 0x60 DUP7 ADD MSTORE PUSH1 0x80 DUP6 ADD MSTORE PUSH1 0xA0 DUP5 ADD MSTORE PUSH1 0xC0 DUP4 ADD MSTORE PUSH1 0x0 MSTORE PUSH1 0xD PUSH1 0x20 MSTORE PUSH2 0x4681 DUP2 PUSH1 0x40 PUSH1 0x0 KECCAK256 PUSH2 0x449C JUMP JUMPDEST PUSH2 0x4210 JUMP JUMPDEST SWAP3 PUSH2 0x36F2 SWAP6 SWAP3 SWAP5 SWAP2 SWAP4 PUSH1 0x40 MLOAD SWAP6 PUSH2 0x469C DUP8 PUSH2 0x3644 JUMP JUMPDEST TIMESTAMP DUP8 MSTORE PUSH1 0x1 DUP1 PUSH1 0xA0 SHL SUB DUP1 DUP1 SWAP4 AND SWAP7 DUP8 PUSH1 0x20 DUP11 ADD MSTORE AND PUSH1 0x40 DUP9 ADD MSTORE AND PUSH1 0x60 DUP7 ADD MSTORE PUSH1 0x80 DUP6 ADD MSTORE PUSH1 0xA0 DUP5 ADD MSTORE PUSH1 0xC0 DUP4 ADD MSTORE PUSH1 0x0 MSTORE PUSH1 0xD PUSH1 0x20 MSTORE PUSH2 0x4681 DUP2 PUSH1 0x40 PUSH1 0x0 KECCAK256 PUSH2 0x449C JUMP JUMPDEST PUSH8 0xFFFFFFFFFFFFFFFF DUP2 GT PUSH2 0x3660 JUMPI PUSH1 0x5 SHL PUSH1 0x20 ADD SWAP1 JUMP JUMPDEST SWAP1 PUSH1 0x40 MLOAD PUSH2 0x4707 DUP2 PUSH2 0x3644 JUMP JUMPDEST PUSH1 0xC0 PUSH1 0xFF PUSH1 0x6 DUP4 SWAP6 DUP1 SLOAD DUP6 MSTORE PUSH1 0x1 DUP2 ADD SLOAD PUSH1 0x20 DUP7 ADD MSTORE PUSH1 0x2 DUP2 ADD SLOAD PUSH1 0x40 DUP7 ADD MSTORE PUSH1 0x3 DUP2 ADD SLOAD PUSH1 0x60 DUP7 ADD MSTORE PUSH1 0x4 DUP2 ADD SLOAD PUSH1 0x80 DUP7 ADD MSTORE PUSH1 0x5 DUP2 ADD SLOAD PUSH1 0xA0 DUP7 ADD MSTORE ADD SLOAD AND ISZERO ISZERO SWAP2 ADD MSTORE JUMP JUMPDEST PUSH1 0x40 MLOAD SWAP1 PUSH2 0x475C DUP3 PUSH2 0x3644 JUMP JUMPDEST DUP2 PUSH1 0xC0 PUSH1 0x0 SWAP2 DUP3 DUP2 MSTORE DUP3 PUSH1 0x20 DUP3 ADD MSTORE DUP3 PUSH1 0x40 DUP3 ADD MSTORE DUP3 PUSH1 0x60 DUP3 ADD MSTORE DUP3 PUSH1 0x80 DUP3 ADD MSTORE DUP3 PUSH1 0xA0 DUP3 ADD MSTORE ADD MSTORE JUMP INVALID CALLDATACOPY PUSH27 0xADEDB6B2A771959584D10A6A36ECCB5F56B4EB3A48525F76108D26 PUSH1 0xD8 0xD4 LOG2 PUSH5 0x6970667358 0x22 SLT KECCAK256 BYTE 0xC3 0xC8 0xD5 BYTE PUSH22 0x8B322D70F8661E1FB61490AB1ADAF09D7294E4720795 0x2C 0xEB SWAP16 0xB4 PUSH5 0x736F6C6343 STOP ADDMOD SGT STOP CALLER "},"methodIdentifiers":{"EARLY_WITHDRAWAL_PENALTY_PERCENT()":"9c0fbd05","allTransactions(uint256)":"d7ff0714","baseAPY()":"214405a9","blockedAddresses(address)":"4f93208a","bnbAddress()":"d11c583a","bnbRatio()":"032d975b","buyUSDC()":"251545da","buyUSDT()":"5b365040","buyWithBNB(uint256)":"c3333dfb","buyWithETH()":"150d283d","buyWithSOL(uint256)":"f30ef2e5","buyWithUSDC(uint256)":"aeccf735","buyWithUSDT(uint256)":"a7c60160","calculateRewards(uint256)":"d3ea4350","ethPriceForStablecoin()":"f34a00fb","ethPriceForToken()":"c605af53","getAllTransactions()":"27506f53","getContractInfo()":"7cc1f867","getReferralInfo(address)":"21874ae2","getStakeDetails(uint256)":"963c9dd3","getStakeInfo(uint256)":"09813482","getStakingInfo()":"b40cd21d","getTokenBalances()":"a1dc9031","getTotalPenaltyCollected()":"491cc756","getUserReferrals(address)":"575cea6b","getUserStakes(address)":"842e2981","getUserStakingInfo(address)":"80933608","getUserTransactions(address)":"ef925399","harvestRewards(uint256)":"57126d0d","hasStaked(address)":"c93c8f34","minStakeAmount()":"f1887684","nextStakeId()":"75506c96","owner()":"8da5cb5b","referralRewardPercentage()":"920a253e","referralRewards(address)":"53aaa63b","referrals(address,uint256)":"e697b5d8","referrers(address)":"4a3b68cc","registerReferrer(address)":"9ea7685a","saleToken()":"e985e367","setBlockStatus(address,bool)":"182a676b","setSaleToken(address)":"a29f481c","solAddress()":"1ce24e16","solRatio()":"7a9773dc","stakeOwners(uint256)":"fd9a11e5","stakeTokens(uint256,uint256)":"3b7b6188","tokensSold()":"518ab2a8","totalPenaltyCollected()":"2bb38809","totalRewardsDistributed()":"ee172546","totalStaked()":"817b1cd2","totalStakers()":"86989038","unstakeEarly(uint256)":"2fd04c08","unstakeTokens(uint256)":"608e4dd0","updateBNB(address,uint256)":"366b17d6","updateBaseAPY(uint256)":"71d20fe7","updateMinStakeAmount(uint256)":"d8060cd5","updateReferralPercentage(uint256)":"4cdb312d","updateSOL(address,uint256)":"ebcd3a13","updateStablecoinPrice(uint256)":"63219c72","updateTokenPrice(uint256)":"676c0d77","updateUSDC(address,uint256)":"1e37c606","updateUSDT(address,uint256)":"b006984f","usdcAddress()":"02d45457","usdcRatio()":"6f43f373","usdtAddress()":"9ab4a445","usdtRatio()":"83fabe03","userStakes(address,uint256)":"b5d5b5fa","userTransactions(address,uint256)":"b842ec44","withdrawTokens(address,uint256)":"06b091f9"}}}}}