{"contracts/TokenICO.sol":{"TokenICO":{"abi":[{"inputs":[],"stateMutability":"nonpayable","type":"constructor"},{"anonymous":false,"inputs":[{"indexed":false,"internalType":"uint256","name":"oldAPY","type":"uint256"},{"indexed":false,"internalType":"uint256","name":"newAPY","type":"uint256"}],"name":"APYUpdated","type":"event"},{"anonymous":false,"inputs":[{"indexed":true,"internalType":"address","name":"user","type":"address"},{"indexed":false,"internalType":"bool","name":"blocked","type":"bool"}],"name":"AddressBlocked","type":"event"},{"anonymous":false,"inputs":[{"indexed":true,"internalType":"address","name":"user","type":"address"},{"indexed":true,"internalType":"uint256","name":"stakeId","type":"uint256"},{"indexed":false,"internalType":"uint256","name":"amount","type":"uint256"},{"indexed":false,"internalType":"uint256","name":"penalty","type":"uint256"}],"name":"EarlyUnstake","type":"event"},{"anonymous":false,"inputs":[{"indexed":false,"internalType":"uint256","name":"oldMinStake","type":"uint256"},{"indexed":false,"internalType":"uint256","name":"newMinStake","type":"uint256"}],"name":"MinStakeUpdated","type":"event"},{"anonymous":false,"inputs":[{"indexed":false,"internalType":"string","name":"priceType","type":"string"},{"indexed":false,"internalType":"uint256","name":"oldPrice","type":"uint256"},{"indexed":false,"internalType":"uint256","name":"newPrice","type":"uint256"}],"name":"PriceUpdated","type":"event"},{"anonymous":false,"inputs":[{"indexed":false,"internalType":"uint256","name":"oldPercentage","type":"uint256"},{"indexed":false,"internalType":"uint256","name":"newPercentage","type":"uint256"}],"name":"ReferralPercentageUpdated","type":"event"},{"anonymous":false,"inputs":[{"indexed":true,"internalType":"address","name":"referrer","type":"address"},{"indexed":true,"internalType":"address","name":"referee","type":"address"}],"name":"ReferralRegistered","type":"event"},{"anonymous":false,"inputs":[{"indexed":true,"internalType":"address","name":"referrer","type":"address"},{"indexed":true,"internalType":"address","name":"referee","type":"address"},{"indexed":false,"internalType":"uint256","name":"amount","type":"uint256"}],"name":"ReferralRewardPaid","type":"event"},{"anonymous":false,"inputs":[{"indexed":true,"internalType":"address","name":"user","type":"address"},{"indexed":true,"internalType":"uint256","name":"stakeId","type":"uint256"},{"indexed":false,"internalType":"uint256","name":"reward","type":"uint256"}],"name":"RewardHarvested","type":"event"},{"anonymous":false,"inputs":[{"indexed":true,"internalType":"address","name":"buyer","type":"address"},{"indexed":true,"internalType":"address","name":"stablecoin","type":"address"},{"indexed":false,"internalType":"uint256","name":"stablecoinAmount","type":"uint256"},{"indexed":false,"internalType":"uint256","name":"bnbPaid","type":"uint256"},{"indexed":false,"internalType":"uint256","name":"timestamp","type":"uint256"}],"name":"StablecoinSold","type":"event"},{"anonymous":false,"inputs":[{"indexed":true,"internalType":"address","name":"user","type":"address"},{"indexed":true,"internalType":"uint256","name":"stakeId","type":"uint256"},{"indexed":false,"internalType":"uint256","name":"amount","type":"uint256"},{"indexed":false,"internalType":"uint256","name":"lockPeriod","type":"uint256"}],"name":"Staked","type":"event"},{"anonymous":false,"inputs":[{"indexed":true,"internalType":"address","name":"buyer","type":"address"},{"indexed":true,"internalType":"address","name":"paymentMethod","type":"address"},{"indexed":false,"internalType":"uint256","name":"amountPaid","type":"uint256"},{"indexed":false,"internalType":"uint256","name":"tokensBought","type":"uint256"},{"indexed":false,"internalType":"uint256","name":"timestamp","type":"uint256"}],"name":"TokensPurchased","type":"event"},{"anonymous":false,"inputs":[{"indexed":true,"internalType":"address","name":"user","type":"address"},{"indexed":true,"internalType":"uint256","name":"stakeId","type":"uint256"},{"indexed":false,"internalType":"uint256","name":"amount","type":"uint256"}],"name":"Unstaked","type":"event"},{"inputs":[],"name":"EARLY_WITHDRAWAL_PENALTY_PERCENT","outputs":[{"internalType":"uint256","name":"","type":"uint256"}],"stateMutability":"view","type":"function"},{"inputs":[{"internalType":"uint256","name":"","type":"uint256"}],"name":"allTransactions","outputs":[{"internalType":"uint256","name":"timestamp","type":"uint256"},{"internalType":"address","name":"user","type":"address"},{"internalType":"address","name":"tokenIn","type":"address"},{"internalType":"address","name":"tokenOut","type":"address"},{"internalType":"uint256","name":"amountIn","type":"uint256"},{"internalType":"uint256","name":"amountOut","type":"uint256"},{"internalType":"string","name":"transactionType","type":"string"}],"stateMutability":"view","type":"function"},{"inputs":[],"name":"baseAPY","outputs":[{"internalType":"uint256","name":"","type":"uint256"}],"stateMutability":"view","type":"function"},{"inputs":[{"internalType":"address","name":"","type":"address"}],"name":"blockedAddresses","outputs":[{"internalType":"bool","name":"","type":"bool"}],"stateMutability":"view","type":"function"},{"inputs":[],"name":"bnbPriceForStablecoin","outputs":[{"internalType":"uint256","name":"","type":"uint256"}],"stateMutability":"view","type":"function"},{"inputs":[],"name":"bnbPriceForToken","outputs":[{"internalType":"uint256","name":"","type":"uint256"}],"stateMutability":"view","type":"function"},{"inputs":[],"name":"buyUSDC","outputs":[],"stateMutability":"payable","type":"function"},{"inputs":[],"name":"buyUSDT","outputs":[],"stateMutability":"payable","type":"function"},{"inputs":[],"name":"buyWithBNB","outputs":[],"stateMutability":"payable","type":"function"},{"inputs":[{"internalType":"uint256","name":"ethAmount","type":"uint256"}],"name":"buyWithETH","outputs":[],"stateMutability":"nonpayable","type":"function"},{"inputs":[{"internalType":"uint256","name":"solAmount","type":"uint256"}],"name":"buyWithSOL","outputs":[],"stateMutability":"nonpayable","type":"function"},{"inputs":[{"internalType":"uint256","name":"usdcAmount","type":"uint256"}],"name":"buyWithUSDC","outputs":[],"stateMutability":"nonpayable","type":"function"},{"inputs":[{"internalType":"uint256","name":"usdtAmount","type":"uint256"}],"name":"buyWithUSDT","outputs":[],"stateMutability":"nonpayable","type":"function"},{"inputs":[{"internalType":"uint256","name":"stakeId","type":"uint256"}],"name":"calculateRewards","outputs":[{"internalType":"uint256","name":"","type":"uint256"}],"stateMutability":"view","type":"function"},{"inputs":[],"name":"ethAddress","outputs":[{"internalType":"address","name":"","type":"address"}],"stateMutability":"view","type":"function"},{"inputs":[],"name":"ethRatio","outputs":[{"internalType":"uint256","name":"","type":"uint256"}],"stateMutability":"view","type":"function"},{"inputs":[],"name":"getAllTransactions","outputs":[{"components":[{"internalType":"uint256","name":"timestamp","type":"uint256"},{"internalType":"address","name":"user","type":"address"},{"internalType":"address","name":"tokenIn","type":"address"},{"internalType":"address","name":"tokenOut","type":"address"},{"internalType":"uint256","name":"amountIn","type":"uint256"},{"internalType":"uint256","name":"amountOut","type":"uint256"},{"internalType":"string","name":"transactionType","type":"string"}],"internalType":"struct TokenICO.Transaction[]","name":"","type":"tuple[]"}],"stateMutability":"view","type":"function"},{"inputs":[],"name":"getContractInfo","outputs":[{"internalType":"address","name":"tokenAddress","type":"address"},{"internalType":"uint256","name":"tokenBalance","type":"uint256"},{"internalType":"uint256","name":"bnbPrice","type":"uint256"},{"internalType":"uint256","name":"stablecoinPrice","type":"uint256"},{"internalType":"uint256","name":"totalSold","type":"uint256"},{"internalType":"address","name":"usdtAddr","type":"address"},{"internalType":"address","name":"usdcAddr","type":"address"},{"internalType":"uint256","name":"usdtTokenRatio","type":"uint256"},{"internalType":"uint256","name":"usdcTokenRatio","type":"uint256"}],"stateMutability":"view","type":"function"},{"inputs":[{"internalType":"address","name":"user","type":"address"}],"name":"getReferralInfo","outputs":[{"internalType":"address","name":"referrer","type":"address"},{"internalType":"uint256","name":"totalReferrals","type":"uint256"},{"internalType":"uint256","name":"totalRewardsEarned","type":"uint256"},{"internalType":"uint256","name":"rewardPercentage","type":"uint256"}],"stateMutability":"view","type":"function"},{"inputs":[{"internalType":"uint256","name":"stakeId","type":"uint256"}],"name":"getStakeDetails","outputs":[{"internalType":"uint256","name":"lockPeriod","type":"uint256"},{"internalType":"uint256","name":"pendingRewards","type":"uint256"},{"internalType":"bool","name":"active","type":"bool"}],"stateMutability":"view","type":"function"},{"inputs":[{"internalType":"uint256","name":"stakeId","type":"uint256"}],"name":"getStakeInfo","outputs":[{"internalType":"uint256","name":"id","type":"uint256"},{"internalType":"address","name":"stakeOwnerAddr","type":"address"},{"internalType":"uint256","name":"amount","type":"uint256"},{"internalType":"uint256","name":"startTime","type":"uint256"}],"stateMutability":"view","type":"function"},{"inputs":[],"name":"getStakingInfo","outputs":[{"internalType":"uint256","name":"baseApyRate","type":"uint256"},{"internalType":"uint256","name":"minStakingAmount","type":"uint256"},{"internalType":"uint256","name":"totalTokensStaked","type":"uint256"},{"internalType":"uint256","name":"totalRewardsPaid","type":"uint256"},{"internalType":"uint256","name":"numberOfStakers","type":"uint256"}],"stateMutability":"view","type":"function"},{"inputs":[],"name":"getTokenBalances","outputs":[{"internalType":"uint256","name":"tokenBalance","type":"uint256"},{"internalType":"uint256","name":"usdtBalance","type":"uint256"},{"internalType":"uint256","name":"usdcBalance","type":"uint256"}],"stateMutability":"view","type":"function"},{"inputs":[],"name":"getTotalPenaltyCollected","outputs":[{"internalType":"uint256","name":"","type":"uint256"}],"stateMutability":"view","type":"function"},{"inputs":[{"internalType":"address","name":"referrer","type":"address"}],"name":"getUserReferrals","outputs":[{"internalType":"address[]","name":"","type":"address[]"}],"stateMutability":"view","type":"function"},{"inputs":[{"internalType":"address","name":"user","type":"address"}],"name":"getUserStakes","outputs":[{"components":[{"internalType":"uint256","name":"id","type":"uint256"},{"internalType":"uint256","name":"amount","type":"uint256"},{"internalType":"uint256","name":"startTime","type":"uint256"},{"internalType":"uint256","name":"lockPeriod","type":"uint256"},{"internalType":"uint256","name":"lastRewardCalculation","type":"uint256"},{"internalType":"uint256","name":"pendingRewards","type":"uint256"},{"internalType":"bool","name":"active","type":"bool"}],"internalType":"struct TokenICO.Stake[]","name":"","type":"tuple[]"}],"stateMutability":"view","type":"function"},{"inputs":[{"internalType":"address","name":"user","type":"address"}],"name":"getUserStakingInfo","outputs":[{"internalType":"uint256","name":"totalUserStaked","type":"uint256"},{"internalType":"uint256","name":"totalPendingRewards","type":"uint256"},{"internalType":"uint256","name":"activeStakesCount","type":"uint256"}],"stateMutability":"view","type":"function"},{"inputs":[{"internalType":"address","name":"user","type":"address"}],"name":"getUserTransactions","outputs":[{"components":[{"internalType":"uint256","name":"timestamp","type":"uint256"},{"internalType":"address","name":"user","type":"address"},{"internalType":"address","name":"tokenIn","type":"address"},{"internalType":"address","name":"tokenOut","type":"address"},{"internalType":"uint256","name":"amountIn","type":"uint256"},{"internalType":"uint256","name":"amountOut","type":"uint256"},{"internalType":"string","name":"transactionType","type":"string"}],"internalType":"struct TokenICO.Transaction[]","name":"","type":"tuple[]"}],"stateMutability":"view","type":"function"},{"inputs":[{"internalType":"uint256","name":"stakeId","type":"uint256"}],"name":"harvestRewards","outputs":[],"stateMutability":"nonpayable","type":"function"},{"inputs":[{"internalType":"address","name":"","type":"address"}],"name":"hasStaked","outputs":[{"internalType":"bool","name":"","type":"bool"}],"stateMutability":"view","type":"function"},{"inputs":[],"name":"minStakeAmount","outputs":[{"internalType":"uint256","name":"","type":"uint256"}],"stateMutability":"view","type":"function"},{"inputs":[],"name":"nextStakeId","outputs":[{"internalType":"uint256","name":"","type":"uint256"}],"stateMutability":"view","type":"function"},{"inputs":[],"name":"owner","outputs":[{"internalType":"address","name":"","type":"address"}],"stateMutability":"view","type":"function"},{"inputs":[],"name":"referralRewardPercentage","outputs":[{"internalType":"uint256","name":"","type":"uint256"}],"stateMutability":"view","type":"function"},{"inputs":[{"internalType":"address","name":"","type":"address"}],"name":"referralRewards","outputs":[{"internalType":"uint256","name":"","type":"uint256"}],"stateMutability":"view","type":"function"},{"inputs":[{"internalType":"address","name":"","type":"address"},{"internalType":"uint256","name":"","type":"uint256"}],"name":"referrals","outputs":[{"internalType":"address","name":"","type":"address"}],"stateMutability":"view","type":"function"},{"inputs":[{"internalType":"address","name":"","type":"address"}],"name":"referrers","outputs":[{"internalType":"address","name":"","type":"address"}],"stateMutability":"view","type":"function"},{"inputs":[{"internalType":"address","name":"referrer","type":"address"}],"name":"registerReferrer","outputs":[],"stateMutability":"nonpayable","type":"function"},{"inputs":[],"name":"saleToken","outputs":[{"internalType":"address","name":"","type":"address"}],"stateMutability":"view","type":"function"},{"inputs":[{"internalType":"address","name":"user","type":"address"},{"internalType":"bool","name":"blocked","type":"bool"}],"name":"setBlockStatus","outputs":[],"stateMutability":"nonpayable","type":"function"},{"inputs":[{"internalType":"address","name":"_token","type":"address"}],"name":"setSaleToken","outputs":[],"stateMutability":"nonpayable","type":"function"},{"inputs":[],"name":"solAddress","outputs":[{"internalType":"address","name":"","type":"address"}],"stateMutability":"view","type":"function"},{"inputs":[],"name":"solRatio","outputs":[{"internalType":"uint256","name":"","type":"uint256"}],"stateMutability":"view","type":"function"},{"inputs":[{"internalType":"uint256","name":"","type":"uint256"}],"name":"stakeOwners","outputs":[{"internalType":"address","name":"","type":"address"}],"stateMutability":"view","type":"function"},{"inputs":[{"internalType":"uint256","name":"amount","type":"uint256"},{"internalType":"uint256","name":"lockPeriodDays","type":"uint256"}],"name":"stakeTokens","outputs":[],"stateMutability":"nonpayable","type":"function"},{"inputs":[],"name":"tokensSold","outputs":[{"internalType":"uint256","name":"","type":"uint256"}],"stateMutability":"view","type":"function"},{"inputs":[],"name":"totalPenaltyCollected","outputs":[{"internalType":"uint256","name":"","type":"uint256"}],"stateMutability":"view","type":"function"},{"inputs":[],"name":"totalRewardsDistributed","outputs":[{"internalType":"uint256","name":"","type":"uint256"}],"stateMutability":"view","type":"function"},{"inputs":[],"name":"totalStaked","outputs":[{"internalType":"uint256","name":"","type":"uint256"}],"stateMutability":"view","type":"function"},{"inputs":[],"name":"totalStakers","outputs":[{"internalType":"uint256","name":"","type":"uint256"}],"stateMutability":"view","type":"function"},{"inputs":[{"internalType":"uint256","name":"stakeId","type":"uint256"}],"name":"unstakeEarly","outputs":[],"stateMutability":"nonpayable","type":"function"},{"inputs":[{"internalType":"uint256","name":"stakeId","type":"uint256"}],"name":"unstakeTokens","outputs":[],"stateMutability":"nonpayable","type":"function"},{"inputs":[{"internalType":"uint256","name":"newAPY","type":"uint256"}],"name":"updateBaseAPY","outputs":[],"stateMutability":"nonpayable","type":"function"},{"inputs":[{"internalType":"address","name":"newAddress","type":"address"},{"internalType":"uint256","name":"newRatio","type":"uint256"}],"name":"updateETH","outputs":[],"stateMutability":"nonpayable","type":"function"},{"inputs":[{"internalType":"uint256","name":"newMinAmount","type":"uint256"}],"name":"updateMinStakeAmount","outputs":[],"stateMutability":"nonpayable","type":"function"},{"inputs":[{"internalType":"uint256","name":"newPercentage","type":"uint256"}],"name":"updateReferralPercentage","outputs":[],"stateMutability":"nonpayable","type":"function"},{"inputs":[{"internalType":"address","name":"newAddress","type":"address"},{"internalType":"uint256","name":"newRatio","type":"uint256"}],"name":"updateSOL","outputs":[],"stateMutability":"nonpayable","type":"function"},{"inputs":[{"internalType":"uint256","name":"newPrice","type":"uint256"}],"name":"updateStablecoinPrice","outputs":[],"stateMutability":"nonpayable","type":"function"},{"inputs":[{"internalType":"uint256","name":"newPrice","type":"uint256"}],"name":"updateTokenPrice","outputs":[],"stateMutability":"nonpayable","type":"function"},{"inputs":[{"internalType":"address","name":"newAddress","type":"address"},{"internalType":"uint256","name":"newRatio","type":"uint256"}],"name":"updateUSDC","outputs":[],"stateMutability":"nonpayable","type":"function"},{"inputs":[{"internalType":"address","name":"newAddress","type":"address"},{"internalType":"uint256","name":"newRatio","type":"uint256"}],"name":"updateUSDT","outputs":[],"stateMutability":"nonpayable","type":"function"},{"inputs":[],"name":"usdcAddress","outputs":[{"internalType":"address","name":"","type":"address"}],"stateMutability":"view","type":"function"},{"inputs":[],"name":"usdcRatio","outputs":[{"internalType":"uint256","name":"","type":"uint256"}],"stateMutability":"view","type":"function"},{"inputs":[],"name":"usdtAddress","outputs":[{"internalType":"address","name":"","type":"address"}],"stateMutability":"view","type":"function"},{"inputs":[],"name":"usdtRatio","outputs":[{"internalType":"uint256","name":"","type":"uint256"}],"stateMutability":"view","type":"function"},{"inputs":[{"internalType":"address","name":"","type":"address"},{"internalType":"uint256","name":"","type":"uint256"}],"name":"userStakes","outputs":[{"internalType":"uint256","name":"id","type":"uint256"},{"internalType":"uint256","name":"amount","type":"uint256"},{"internalType":"uint256","name":"startTime","type":"uint256"},{"internalType":"uint256","name":"lockPeriod","type":"uint256"},{"internalType":"uint256","name":"lastRewardCalculation","type":"uint256"},{"internalType":"uint256","name":"pendingRewards","type":"uint256"},{"internalType":"bool","name":"active","type":"bool"}],"stateMutability":"view","type":"function"},{"inputs":[{"internalType":"address","name":"","type":"address"},{"internalType":"uint256","name":"","type":"uint256"}],"name":"userTransactions","outputs":[{"internalType":"uint256","name":"timestamp","type":"uint256"},{"internalType":"address","name":"user","type":"address"},{"internalType":"address","name":"tokenIn","type":"address"},{"internalType":"address","name":"tokenOut","type":"address"},{"internalType":"uint256","name":"amountIn","type":"uint256"},{"internalType":"uint256","name":"amountOut","type":"uint256"},{"internalType":"string","name":"transactionType","type":"string"}],"stateMutability":"view","type":"function"},{"inputs":[{"internalType":"address","name":"_token","type":"address"},{"internalType":"uint256","name":"_amount","type":"uint256"}],"name":"withdrawTokens","outputs":[],"stateMutability":"nonpayable","type":"function"}],"evm":{"bytecode":{"linkReferences":{},"object":"60a080604052346100e75766038d7ea4c6800080600555600655600c60105568056bc75e2d6310000060115560016017556005601955336080526014600755601460085560146009556014600a5561494490816100ed82396080518181816103fa015281816106d8015281816107c701528181610bc401528181610cd601528181610e9901528181610f95015281816114fe0152818161168a01528181611a4301528181611b5301528181611c1b01528181612075015281816125190152818161267501528181612ed7015281816130e60152818161317a0152818161325b015261339c0152f35b600080fdfe6080604081815260048036101561001557600080fd5b60009260e08435811c91826302d454571461354b5750816306b091f91461337b57816309813482146132ab578163182a676b146131f95781631ce24e16146131d15781631e37c6061461314d57816320f1fc6114613048578163214405a91461302857816321874ae214612fc7578163251545da14612dc757816327506f5314612ce75781632bb38809146125fe5781632fd04c08146129b85781633b7b6188146126cc5781633e4e64531461264857816341398b151461261e578163491cc756146125fe5781634a3b68cc146125c25781634cdb312d146124fd5781634f93208a146124be578163518ab2a81461249e57816353aaa63b1461246557816357126d0d14612236578163575cea6b1461218b5781635b36504014611f65578163608e4dd014611c8957816363219c7214611bdc57816364f1d11314611bbc578163676c0d7714611b145781636f43f37314611af457816371d20fe714611a2757816375506c9614611a075781637a9773dc146119e75781637cc1f867146119045781638093360814611821578163817b1cd21461180157816383fabe03146117e1578163842e2981146116d957816386989038146116b95781638da5cb5b14611674578163920a253e1461165457816394dc9cf31461144c578163963c9dd3146113715781639ab4a445146113475781639c0fbd051461132a5781639ea7685a14611170578163a0b3b93014611150578163a1dc903114610fda578163a29f481c14610f6c578163a7c6016014610dde578163aeccf73514610c1b578163b006984f14610b97578163b40cd21d14610b55578163b5d5b5fa14610ac257508063b842ec4414610a44578063bc5894ba14610a25578063c93c8f34146109e7578063d3ea4350146109c0578063d7ff071414610878578063d8060cd5146107ac578063e697b5d814610753578063e985e3671461072b578063ebcd3a13146106ab578063ee1725461461068c578063ef925399146105ae578063f18876841461058b578063f30ef2e5146103465763fd9a11e51461031157600080fd5b346103425760203660031901126103425735825260136020908152918190205490516001600160a01b039091168152f35b8280fd5b50346103425760208060031936011261058757813590338552600c815261037360ff85872054161561394c565b811561037f8115613af4565b85546001600160a01b03929061039890841615156139c9565b82855416801561054f57633b9aca00928386029386850414171561053c576103c2600a5486613a0a565b92670de0b6b3a7640000938481029481860414901517156105295787516323b872dd60e01b8152338882019081526001600160a01b037f0000000000000000000000000000000000000000000000000000000000000000166020820152604081019290925291839183919082908c90829060600103925af190811561051f5788916104f2575b50156104ba5750916104b49161046c6000805160206148ef83398151915294613ffb565b9461047686614235565b610492828254168785858c541661048b613ad5565b93336147ed565b5416945191829133954291846040919493926060820195825260208201520152565b0390a380f35b8460649187519162461bcd60e51b8352820152601360248201527214d3d3081d1c985b9cd9995c8819985a5b1959606a1b6044820152fd5b6105129150823d8411610518575b61050a8183613738565b810190613b82565b38610448565b503d610500565b87513d8a823e3d90fd5b634e487b7160e01b895260118752602489fd5b634e487b7160e01b885260118652602488fd5b865162461bcd60e51b8152808701839052601260248201527114d3d3081b9bdd0818dbdb999a59dd5c995960721b6044820152606490fd5b8380fd5b5050346105aa57816003193601126105aa576020906011549051908152f35b5080fd5b508290346105aa5760209182600319360112610689576001600160a01b0392836105d6613570565b168252600d8152848220918254936105ed85614849565b956105fa88519788613738565b85875283870194835283832092945b8686106106215788518061061d8a826135cb565b0390f35b6007856001928b51610632816136ea565b8754815285858901541683820152856002890154168d820152856003890154166060820152868801546080820152600588015460a08201526106766006890161375a565b60c0820152815201940195019492610609565b80fd5b5050346105aa57816003193601126105aa576020906015549051908152f35b509034610342573660031901126105aa576106c4613570565b60243591906001600160a01b03906106ff337f000000000000000000000000000000000000000000000000000000000000000084161461385d565b1661070b8115156138d2565b610716831515613910565b81546001600160a01b031916179055600a5580f35b5050346105aa57816003193601126105aa57905490516001600160a01b039091168152602090f35b5050346105aa57806003193601126105aa5761076d613570565b6001600160a01b039081168352601b60205281832080546024359490851015610689575060209361079d91613845565b92905490519260031b1c168152f35b5034610342576020366003190112610342578035906107f5337f00000000000000000000000000000000000000000000000000000000000000006001600160a01b03161461385d565b81156108355750907f171aabb8815c02fd00303450a77058600e3661eb75ce2e77972c0f080bc7099d91601154908060115582519182526020820152a180f35b606490602084519162461bcd60e51b8352820152602060248201527f4d696e207374616b65206d7573742062652067726561746572207468616e20306044820152fd5b50346103425760203660031901126103425735600e5481101561034257600e6007929352029061061d827fbb7b4a454dc3493923482f07822329ed19e8244eff582cc204f8554c3620c3fd01549160018060a01b0393847fbb7b4a454dc3493923482f07822329ed19e8244eff582cc204f8554c3620c3fe8201541694807fbb7b4a454dc3493923482f07822329ed19e8244eff582cc204f8554c3620c3ff83015416907fbb7b4a454dc3493923482f07822329ed19e8244eff582cc204f8554c3620c400830154167fbb7b4a454dc3493923482f07822329ed19e8244eff582cc204f8554c3620c401830154916109b57fbb7b4a454dc3493923482f07822329ed19e8244eff582cc204f8554c3620c4037fbb7b4a454dc3493923482f07822329ed19e8244eff582cc204f8554c3620c402860154950161375a565b945197889788613800565b50913461068957602036600319011261068957506109e060209235613daf565b9051908152f35b5050346105aa5760203660031901126105aa5760209160ff9082906001600160a01b03610a12613570565b1681526018855220541690519015158152f35b5050346105aa57816003193601126105aa576020906009549051908152f35b509190346105aa57806003193601126105aa57610a5f613570565b6001600160a01b039081168352600d6020528183208054919360243592831015610689575061061d9291610a929161367e565b508054938060018301541695816002840154169160038401541690830154916109b560066005860154950161375a565b93905034610689578260031936011261068957610add613570565b6001600160a01b03168152601260205282812080546024359290831015610689575090610b099161367e565b5080549260018201549260028301546003840154918401549260ff600660058701549601541695815197885260208801528601526060850152608084015260a0830152151560c0820152f35b505050346105aa57816003193601126105aa5760a090601054906011549060145460155491601654938151958652602086015284015260608301526080820152f35b505050346105aa5736600319011261068957610bb1613570565b602435906001600160a01b0390610beb337f000000000000000000000000000000000000000000000000000000000000000084161461385d565b16610bf78115156138d2565b610c02821515613910565b6001600160601b0360a01b600154161760015560075580f35b50503461034257602036600319011261034257803590338452600c602052610c4960ff84862054161561394c565b811591610c568315613af4565b84546001600160a01b039390610c6f90851615156139c9565b8360025416610c7f811515613bdd565b620f42409182840292848404141715610dcb57610c9e60085484613a0a565b93670de0b6b3a764000094858102958187041490151715610db85786516323b872dd60e01b8152339181019182526001600160a01b037f0000000000000000000000000000000000000000000000000000000000000000166020838101919091526040830194909452939291849182908a90829060600103925af18015610dae576000805160206148ef83398151915293610d47610d4c926104b4958a91610d90575b50613c1f565b613ffb565b93610d5685614235565b610d6c81600254168684848b541661048b613ad5565b60025416945191829133954291846040919493926060820195825260208201520152565b610da8915060203d81116105185761050a8183613738565b38610d41565b85513d88823e3d90fd5b634e487b7160e01b885260119052602487fd5b634e487b7160e01b875260118452602487fd5b50503461034257602036600319011261034257803590338452600c602052610e0c60ff84862054161561394c565b811591610e198315613af4565b84546001600160a01b039390610e3290851615156139c9565b8360015416610e42811515613b40565b620f42409182840292848404141715610dcb57610e6160075484613a0a565b93670de0b6b3a764000094858102958187041490151715610db85786516323b872dd60e01b8152339181019182526001600160a01b037f0000000000000000000000000000000000000000000000000000000000000000166020838101919091526040830194909452939291849182908a90829060600103925af18015610dae576000805160206148ef83398151915293610d47610f0a926104b4958a91610f4e575b50613b9a565b93610f1485614235565b610f2a81600154168684848b541661048b613ad5565b60015416945191829133954291846040919493926060820195825260208201520152565b610f66915060203d81116105185761050a8183613738565b38610f04565b843461068957602036600319011261068957610f86613570565b6001600160a01b0390610fbc337f000000000000000000000000000000000000000000000000000000000000000084161461385d565b16610fc88115156138d2565b81546001600160a01b03191617815580f35b50509034610342578260031936011261034257825481516370a0823160e01b808252308286015290946001600160a01b03946020938490889060249082908a165afa958615611146578296611116575b602497508481600154168751998a809288825230878301525afa97881561110c5783986110dc575b509060248592600254169487519586938492835230908301525afa9283156110d057819361109d575b50505061061d9151938493846040919493926060820195825260208201520152565b9091809350813d83116110c9575b6110b58183613738565b8101031261068957505161061d388061107b565b503d6110ab565b508351903d90823e3d90fd5b9097508481813d8311611105575b6110f48183613738565b810103126103425751966024611052565b503d6110ea565b86513d85823e3d90fd5b95508387813d831161113f575b61112d8183613738565b810103126105aa57602496519561102a565b503d611123565b85513d84823e3d90fd5b505050346105aa57816003193601126105aa576020906005549051908152f35b828585346105aa57602090816003193601126103425761118e613570565b90338452600c83526111a660ff82862054161561394c565b6001600160a01b039182169283156112e8573384146112ae57338552601a815282828620541661126157338552601a815281852080546001600160a01b03191685179055838552601b90528320805490600160401b82101561124e579061121291600182018155613845565b819291549060031b9133831b921b191617905533907f5f1ca2fcc108b751843a763e60d2201f593516109d7dbb1b700468f2d4190bb78380a380f35b634e487b7160e01b855260418652602485fd5b8590608492519162461bcd60e51b8352820152602260248201527f416c72656164792072656769737465726564207769746820612072656665727260448201526132b960f11b6064820152fd5b8590606492519162461bcd60e51b8352820152601560248201527421b0b73737ba103932b332b9103cb7bab939b2b63360591b6044820152fd5b8590606492519162461bcd60e51b8352820152601860248201527f496e76616c6964207265666572726572206164647265737300000000000000006044820152fd5b505050346105aa57816003193601126105aa576020905160058152f35b505050346105aa57816003193601126105aa5760015490516001600160a01b039091168152602090f35b5050346103425760209081600319360112610587573580845260138252828420546001600160a01b0316939092906113aa851515613ce2565b6113b26148b6565b8195825b81845260128087528585208054831015611437576113d5838a9261367e565b5054146113eb57506113e690613cc6565b6113b6565b6060985061140e93508486916114089461141e975288522061367e565b50614861565b936114196001613d25565b613daf565b60c0858501519401511515928251948552840152820152f35b505050509361141e9150611419606096613d25565b505034610342576020908160031936011261058757803590338552600c835261147b60ff85872054161561394c565b8115906114888215613af4565b85546001600160a01b0394906114a190861615156139c9565b8460035416801561161c57670de0b6b3a7640000938486029086820486141715611609576114d160095487613a0a565b8581029581870414901517156116095787516323b872dd60e01b8152338582019081526001600160a01b037f0000000000000000000000000000000000000000000000000000000000000000166020820152604081019290925291839183919082908c90829060600103925af190811561051f5788916115ec575b50156115b45750506000805160206148ef833981519152916115706104b492613ffb565b9361157a85614235565b61159081600354168684848b541661048b613ad5565b60035416945191829133954291846040919493926060820195825260208201520152565b855162461bcd60e51b8152918201526013602482015272115512081d1c985b9cd9995c8819985a5b1959606a1b604482015260649150fd5b6116039150823d84116105185761050a8183613738565b3861154c565b634e487b7160e01b895260118452602489fd5b865162461bcd60e51b81528084018390526012602482015271115512081b9bdd0818dbdb999a59dd5c995960721b6044820152606490fd5b505050346105aa57816003193601126105aa576020906019549051908152f35b505050346105aa57816003193601126105aa57517f00000000000000000000000000000000000000000000000000000000000000006001600160a01b03168152602090f35b505050346105aa57816003193601126105aa576020906016549051908152f35b91505034610342576020806003193601126105875790916001600160a01b03611700613570565b168452601282528084209182549161171783614849565b9261172482519485613738565b8084528284018095885283882088915b8383106117b4575050505080519482860193838752518094528186019496915b8483106117615786860387f35b87518051875280850151878601528082015187830152606080820151908801526080808201519088015260a0808201519088015260c0908101511515908701529683019694810194600190920191611754565b6007866001926117cb859d999a9b9d9c989c614861565b8152019201920191909896959498979397611734565b505050346105aa57816003193601126105aa576020906007549051908152f35b505050346105aa57816003193601126105aa576020906014549051908152f35b83853461068957602090816003193601126106895761183e613570565b9091829182919082906001600160a01b0316815b818652601280855288872080548310156118ec5760ff6006611875858d9461367e565b5001541661188e575b505061188990613cc6565b611852565b8296946118bc839a60016118b3611889976118de968e6118e4998e8d8352522061367e565b50015490613cd5565b99858a5287526118d86118d1898d8c2061367e565b5054613daf565b90613cd5565b93613cc6565b94908861187e565b89518981526020810186905260408101889052606090f35b92905034610587578360031936011261058757835481516370a0823160e01b815230938101939093526001600160a01b039081169390602084602481885afa9384156119dd5786946119a1575b50610120955060055490600654600b54908260015416926002541693600754966008549881519a8b5260208b01528901526060880152608087015260a086015260c0850152830152610100820152f35b9093506020813d82116119d5575b816119bc60209383613738565b810103126119d1576101209550519238611951565b8580fd5b3d91506119af565b83513d88823e3d90fd5b505050346105aa57816003193601126105aa57602090600a549051908152f35b505050346105aa57816003193601126105aa576020906017549051908152f35b50503461034257602036600319011261034257803590611a71337f00000000000000000000000000000000000000000000000000000000000000006001600160a01b03161461385d565b8115611ab15750907f787a1fca55641ce34a438271930bbb9401df20db2b4f510d4f252227d85df43d91601054908060105582519182526020820152a180f35b606490602084519162461bcd60e51b8352820152601a60248201527f415059206d7573742062652067726561746572207468616e20300000000000006044820152fd5b505050346105aa57816003193601126105aa576020906008549051908152f35b505034610342576020366003190112610342577f6e838f2a03741f5f2aff5480963b672fb0dd8430a4dc75db9b67ce009733c9fe9160a09135611b81337f00000000000000000000000000000000000000000000000000000000000000006001600160a01b03161461385d565b611b8c811515613896565b60055491816005558051926060845260056060850152642a27a5a2a760d91b60808501526020840152820152a180f35b505050346105aa57816003193601126105aa576020906006549051908152f35b505034610342576020366003190112610342577f6e838f2a03741f5f2aff5480963b672fb0dd8430a4dc75db9b67ce009733c9fe9160a09135611c49337f00000000000000000000000000000000000000000000000000000000000000006001600160a01b03161461385d565b611c54811515613896565b600654918160065580519260608452600a60608501526929aa20a12622a1a7a4a760b11b60808501526020840152820152a180f35b505090346103425760209081600319360112610587578291923592338552600c815260ff611cbc8184882054161561394c565b84865260138252828620546001600160a01b0390611cdd9082163314613fbd565b8694859283805b338b526012808852888c208054831015611f51579a611d0583829c9d61367e565b505414611d1e5750611d1690613cc6565b989798611ce4565b955097985050338952838552611d47611d3988888c2061367e565b509160068093015416613d63565b3389528385526002611d5b88888c2061367e565b500154338a528486526003611d7289898d2061367e565b500154906201518091828102928184041490151715611f3e5790611d9591613cd5565b4210611f0457918491611df88a611e3e95611dda611db28d613daf565b9b3384528988528b611dc68282872061367e565b50946001809601549b3382528a522061367e565b500160ff1981541690556014611df1888254613da2565b9055613d25565b611e013361417c565b611e0b8886613cd5565b8a54885163a9059cbb60e01b8152339381019384526020840192909252909485939091169183918c918391604090910190565b03925af1908115611efa5790611e5b918891611edd575b50613c82565b848415159182611ec9575b84519081527f7fc4727e062e336010f2c282598ef5f14facb3de68cf8195c2f23e1454b2b74e843392a3611e98578480f35b7ff87cfa2d5feaea949ad65bb76a26d8553381bcb6382adbc83dedd48961bf32d991519283523392a3388080808480f35b611ed586601554613cd5565b601555611e66565b611ef49150843d86116105185761050a8183613738565b38611e55565b84513d89823e3d90fd5b855162461bcd60e51b8152808301869052601460248201527314dd1a5b1b081a5b881b1bd8dac81c195c9a5bd960621b6044820152606490fd5b634e487b7160e01b8b526011845260248bfd5b505050611e3e93915091611df88693613d25565b505082600319360112610342573383526020600c8152611f8b60ff84862054161561394c565b341590611f98821561398d565b6001546001600160a01b039290831690611fb3821515613b40565b620f4240908134029134830414171561217857600654611fd291613a33565b9385516370a0823160e01b815230828201528381602481865afa801561051f5786918991612143575b501061210057855163a9059cbb60e01b81523391810191825260208201869052939291829185919082908a90829060400103925af18015610dae577f48a1f8a6c840b32621ceab4439a2ccd00b337e705dfdcdec0b40c49abf3e6be39361206a9288926120e3575b5050613b9a565b6120a58580808034867f0000000000000000000000000000000000000000000000000000000000000000165af161209f613a53565b50613a93565b6120bf8160015416846120b6613c62565b9134903361478e565b600154935192835234602084015242604084015290921691339180606081016104b4565b6120f99250803d106105185761050a8183613738565b3880612063565b855162461bcd60e51b8152908101839052601b60248201527f496e73756666696369656e742055534454206c697175696469747900000000006044820152606490fd5b809250858092503d8311612171575b61215c8183613738565b8101031261216d5785905138611ffb565b8780fd5b503d612152565b634e487b7160e01b875260118552602487fd5b505050346105aa57602080600319360112610342576001600160a01b0392836121b2613570565b168152601b825282812091835190818185549182815201908195855282852090855b81811061222057505050826121ea910383613738565b8451948186019282875251809352850193925b82811061220a5785850386f35b83518716855293810193928101926001016121fd565b82548a16845292840192600192830192016121d4565b505034610342576020908160031936011261058757803591338552600c815260ff936122678582882054161561394c565b83865260138252808620546001600160a01b0393906122899085163314613fbd565b8693875b3389526012808652848a208054831015612452576122ac838a9261367e565b5054146122c257506122bd90613cc6565b61228d565b96976122eb91929394959650338a5287875260066122e284888d2061367e565b50015416613d63565b6122f487613daf565b958615612417579061232591338a528087528960056123158489842061367e565b500155338a52865284892061367e565b5042908301558654835163a9059cbb60e01b815233818501908152602081018890529092869284928390036040019183918c91165af190811561240d5787916123f0575b50156123b65750907ff87cfa2d5feaea949ad65bb76a26d8553381bcb6382adbc83dedd48961bf32d99160156123a0858254613cd5565b9055519283523392a36123b36001613d25565b80f35b82606492519162461bcd60e51b8352820152601660248201527514995dd85c99081d1c985b9cd9995c8819985a5b195960521b6044820152fd5b6124079150843d86116105185761050a8183613738565b38612369565b83513d89823e3d90fd5b845162461bcd60e51b81528085018790526015602482015274139bc81c995dd85c991cc81d1bc81a185c9d995cdd605a1b6044820152606490fd5b5050505050505090506123b39150613d25565b505050346105aa5760203660031901126105aa5760209181906001600160a01b0361248e613570565b168152601c845220549051908152f35b505050346105aa57816003193601126105aa57602090600b549051908152f35b505050346105aa5760203660031901126105aa5760209160ff9082906001600160a01b036124ea613570565b168152600c855220541690519015158152f35b50503461034257602036600319011261034257803590612547337f00000000000000000000000000000000000000000000000000000000000000006001600160a01b03161461385d565b601482116125895750907fd968a3cc702265c3ab67356df15ca21d50167b011f198b963e2a868e04e3d5e091601954908060195582519182526020820152a180f35b606490602084519162461bcd60e51b835282015260136024820152720a0cae4c6cadce8c2ceca40e8dede40d0d2ced606b1b6044820152fd5b505050346105aa5760203660031901126105aa576020916001600160a01b03908290826125ed613570565b168152601a85522054169051908152f35b505050346105aa57816003193601126105aa57602090600f549051908152f35b505050346105aa57816003193601126105aa5760035490516001600160a01b039091168152602090f35b505050346105aa5736600319011261068957612662613570565b602435906001600160a01b039061269c337f000000000000000000000000000000000000000000000000000000000000000084161461385d565b166126a88115156138d2565b6126b3821515613910565b6001600160601b0360a01b600354161760035560095580f35b828585346105aa57806003193601126105aa57823560243591338452602092600c84526126ff60ff83872054161561394c565b60115483106129755784546001600160a01b031661271e8115156139c9565b601e8214801561296b575b8015612961575b8015612956575b1561291d5782516323b872dd60e01b815233818901908152306020820152604081018690529091869183919082908a90829060600103925af19081156119dd57906127889187916129005750613c82565b6017549361279585613cc6565b60175582516127a3816136ea565b85815281810185815284820142815260608301858152608084019042825260a08501928b845260c086019460018652338d5260128852898d20805490600160401b8210156128ec57906127fb9160018201815561367e565b9790976128da57927fb4caaf29adda3eefee3ad552a8e85058589bf834c7466cae4ee58787f70589ed9b9c9d9e9261286a9897959260069795518955516001890155516002880155516003870155519085015551600584015551151591019060ff801983541691151516179055565b85875260138152828720336001600160601b0360a01b82541617905561289285601454613cd5565b60145533875260188152828720805460ff8116156128bb575b505082519485528401523392a380f35b60ff191660011790556016546128d090613cc6565b60165587806128ab565b634e487b7160e01b8e528d8f5260248efd5b8f8f6041602492634e487b7160e01b835252fd5b6129179150863d88116105185761050a8183613738565b88611e55565b825162461bcd60e51b81528088018690526013602482015272125b9d985b1a59081b1bd8dac81c195c9a5bd9606a1b6044820152606490fd5b5061016d8214612737565b5060b48214612730565b50605a8214612729565b815162461bcd60e51b8152808701859052601a60248201527f416d6f756e742062656c6f77206d696e696d756d207374616b650000000000006044820152606490fd5b5050913461068957602092836003193601126105aa57803590338352600c855260ff916129ea8386862054161561394c565b80845260138652848420546001600160a01b039690612a0c9088163314613fbd565b8495855b33875260128084528288208054831015612cd457612a2f83879261367e565b505414612a455750612a4090613cc6565b612a10565b9192939495969750338852818452612a70612a6282858b2061367e565b509760068099015416613d63565b3388528184526002612a8482858b2061367e565b5001543389528285526003612a9b83868c2061367e565b500154906201518091828102928184041490151715612cc15799612ac686928b9c9b98999a9b613cd5565b92612ad089613daf565b9a338952858452612ae382888b2061367e565b5091876001809401549a80974210612c67575b90612b0c9291612b6c989933825288522061367e565b500160ff1981541690556014612b23898254613da2565b905598612b398b612b34878b613da2565b613cd5565b8c54875163a9059cbb60e01b8152339381019384526020840192909252909485939091169183918e918391604090910190565b03925af1908115612c5d5797612b8d8792612bcd9a8c91612c465750613c82565b80612c06575b50508015612bd6577f9c9ec3cfa814b0112b71c20d0b0ab54dead00a99fd389c174df717d2f1d364039282519485528401523392a3613d25565b6123b33361417c565b50907f7fc4727e062e336010f2c282598ef5f14facb3de68cf8195c2f23e1454b2b74e91519283523392a3613d25565b6015612c13828254613cd5565b905583519081527ff87cfa2d5feaea949ad65bb76a26d8553381bcb6382adbc83dedd48961bf32d9853392a38438612b93565b611ef49150873d89116105185761050a8183613738565b83513d8b823e3d90fd5b50509193509193506005808902908982041489151715612cae5791612b0c889492888f6064612b6c99970499600f612ca08c8254613cd5565b905599985090919250612af6565b634e487b7160e01b8d5260118b5260248dfd5b634e487b7160e01b8a526011885260248afd5b50505050505050509150612bcd90613d25565b5050823461068957806003193601126106895790600e5490612d0882614849565b92612d1585519485613738565b828452600e8152906020907fbb7b4a454dc3493923482f07822329ed19e8244eff582cc204f8554c3620c3fd908286015b858510612d5a5787518061061d89826135cb565b6007846001928a51612d6b816136ea565b86548152848060a01b0380868901541684830152806002890154168d8301526003880154166060820152858701546080820152600587015460a0820152612db46006880161375a565b60c0820152815201930194019391612d46565b505082600319360112610342573383526020600c8152612ded60ff84862054161561394c565b341590612dfa821561398d565b6002546001600160a01b039290831690612e15821515613bdd565b620f4240908134029134830414171561217857600654612e3491613a33565b9385516370a0823160e01b815230828201528381602481865afa801561051f5786918991612f96575b5010612f5357855163a9059cbb60e01b81523391810191825260208201869052939291829185919082908a90829060400103925af18015610dae577f48a1f8a6c840b32621ceab4439a2ccd00b337e705dfdcdec0b40c49abf3e6be393612ecc928892612f36575b5050613c1f565b612f018580808034867f0000000000000000000000000000000000000000000000000000000000000000165af161209f613a53565b612f128160025416846120b6613c62565b600254935192835234602084015242604084015290921691339180606081016104b4565b612f4c9250803d106105185761050a8183613738565b3880612ec5565b855162461bcd60e51b8152908101839052601b60248201527f496e73756666696369656e742055534443206c697175696469747900000000006044820152606490fd5b809250858092503d8311612fc0575b612faf8183613738565b8101031261216d5785905138612e5d565b503d612fa5565b505050346105aa5760203660031901126105aa576080916001600160a01b0380612fef613570565b168252601a602052828220541691601b602052808083205492601c60205220549060195492815194855260208501528301526060820152f35b505050346105aa57816003193601126105aa576020906010549051908152f35b828585816003193601126105aa57338252600c60205261306e60ff82842054161561394c565b34159061307b821561398d565b82546001600160a01b03929061309490841615156139c9565b670de0b6b3a7640000908134029134830414171561313a5783929161311c6130d1610d476000805160206148ef8339815191529460055490613a33565b936130db85614235565b6131108680808034867f0000000000000000000000000000000000000000000000000000000000000000165af161209f613a53565b855416846120b6613ad5565b513481526020810192909252426040830152339180606081016104b4565b634e487b7160e01b845260118552602484fd5b505050346105aa5736600319011261068957613167613570565b602435906001600160a01b03906131a1337f000000000000000000000000000000000000000000000000000000000000000084161461385d565b166131ad8115156138d2565b6131b8821515613910565b6001600160601b0360a01b600254161760025560085580f35b5050346103425782600319360112610342575490516001600160a01b03909116815260209150f35b505050346105aa57806003193601126105aa57613214613570565b90602435918215158084036132a7577fdda6207409a585801122fb885dcaa8074f9a21f25ff2def680c67f01a86c2c9b9260209261329f906001600160a01b0390613282337f000000000000000000000000000000000000000000000000000000000000000084161461385d565b1695868852600c85528288209060ff801983541691151516179055565b51908152a280f35b8480fd5b838584346105aa57602090816003193601126103425735928383526013825260018060a01b038184205416926132e2841515613ce2565b6132ea6148b6565b8195825b868452601280875285852080548310156133695761330d83859261367e565b505414613323575061331e90613cc6565b6132ee565b60809850611408935085919250936133409488825287522061367e565b9061334b6001613d25565b81519381848401519301519382519586528501528301526060820152f35b5050505091905061334b608095613d25565b50509034610342578060031936011261034257613396613570565b602435907f00000000000000000000000000000000000000000000000000000000000000006001600160a01b036133d0338284161461385d565b80875416921691821461348b575b835163a9059cbb60e01b81526001600160a01b03909116858201908152602081810194909452909291839182908890829060400103925af1908115613481578491613463575b501561342e578280f35b906020606492519162461bcd60e51b8352820152600f60248201526e151c985b9cd9995c8819985a5b1959608a1b6044820152fd5b61347b915060203d81116105185761050a8183613738565b38613424565b82513d86823e3d90fd5b83516370a0823160e01b81523086820152602081602481865afa801561354157879061350a575b6134c0915060145490613da2565b8311156133de57835162461bcd60e51b8152602081870152601d60248201527f43616e6e6f74207769746864726177207374616b656420746f6b656e730000006044820152606490fd5b506020813d8211613539575b8161352360209383613738565b81010312613535576134c090516134b2565b8680fd5b3d9150613516565b85513d89823e3d90fd5b8590346105aa57816003193601126105aa576002546001600160a01b03168152602090f35b600435906001600160a01b038216820361358657565b600080fd5b919082519283825260005b8481106135b7575050826000602080949584010152601f8019910116010190565b602081830181015184830182015201613596565b602080820190808352835180925260409283810182858560051b8401019601946000925b858410613600575050505050505090565b90919293949596858061366d600193603f198682030188528b5180518252858060a01b0380858301511685840152808983015116898401526060908183015116908301526080808201519083015260a0808201519083015260c0809101519160e08092820152019061358b565b9901940194019295949391906135ef565b805482101561369a576000526007602060002091020190600090565b634e487b7160e01b600052603260045260246000fd5b90600182811c921680156136e0575b60208310146136ca57565b634e487b7160e01b600052602260045260246000fd5b91607f16916136bf565b60e0810190811067ffffffffffffffff82111761370657604052565b634e487b7160e01b600052604160045260246000fd5b6040810190811067ffffffffffffffff82111761370657604052565b90601f8019910116810190811067ffffffffffffffff82111761370657604052565b906040519182600082549261376e846136b0565b9081845260019485811690816000146137dd575060011461379a575b505061379892500383613738565b565b9093915060005260209081600020936000915b8183106137c55750506137989350820101388061378a565b855488840185015294850194879450918301916137ad565b91505061379894506020925060ff191682840152151560051b820101388061378a565b9360e0959261384298979492865260018060a01b0392838092166020880152166040860152166060840152608083015260a08201528160c0820152019061358b565b90565b805482101561369a5760005260206000200190600090565b1561386457565b60405162461bcd60e51b815260206004820152600a60248201526927b7363c9037bbb732b960b11b6044820152606490fd5b1561389d57565b60405162461bcd60e51b815260206004820152600d60248201526c496e76616c696420707269636560981b6044820152606490fd5b156138d957565b60405162461bcd60e51b815260206004820152600f60248201526e496e76616c6964206164647265737360881b6044820152606490fd5b1561391757565b60405162461bcd60e51b815260206004820152600d60248201526c496e76616c696420726174696f60981b6044820152606490fd5b1561395357565b60405162461bcd60e51b81526020600482015260126024820152711059191c995cdcc81a5cc8189b1bd8dad95960721b6044820152606490fd5b1561399457565b60405162461bcd60e51b815260206004820152600d60248201526c26bab9ba1039b2b7321021272160991b6044820152606490fd5b156139d057565b60405162461bcd60e51b815260206004820152601260248201527114d85b19481d1bdad95b881b9bdd081cd95d60721b6044820152606490fd5b81810292918115918404141715613a1d57565b634e487b7160e01b600052601160045260246000fd5b8115613a3d570490565b634e487b7160e01b600052601260045260246000fd5b3d15613a8e573d9067ffffffffffffffff82116137065760405191613a82601f8201601f191660200184613738565b82523d6000602084013e565b606090565b15613a9a57565b60405162461bcd60e51b8152602060048201526013602482015272109390881d1c985b9cd9995c8819985a5b1959606a1b6044820152606490fd5b60405190613ae28261371c565b600382526242555960e81b6020830152565b15613afb57565b60405162461bcd60e51b815260206004820152601d60248201527f416d6f756e74206d7573742062652067726561746572207468616e20300000006044820152606490fd5b15613b4757565b60405162461bcd60e51b81526020600482015260136024820152721554d115081b9bdd0818dbdb999a59dd5c9959606a1b6044820152606490fd5b90816020910312613586575180151581036135865790565b15613ba157565b60405162461bcd60e51b81526020600482015260146024820152731554d115081d1c985b9cd9995c8819985a5b195960621b6044820152606490fd5b15613be457565b60405162461bcd60e51b81526020600482015260136024820152721554d110c81b9bdd0818dbdb999a59dd5c9959606a1b6044820152606490fd5b15613c2657565b60405162461bcd60e51b81526020600482015260146024820152731554d110c81d1c985b9cd9995c8819985a5b195960621b6044820152606490fd5b60405190613c6f8261371c565b600482526314d1531360e21b6020830152565b15613c8957565b60405162461bcd60e51b8152602060048201526015602482015274151bdad95b881d1c985b9cd9995c8819985a5b1959605a1b6044820152606490fd5b6000198114613a1d5760010190565b91908201809211613a1d57565b15613ce957565b60405162461bcd60e51b815260206004820152601460248201527314dd185ad948191bd95cc81b9bdd08195e1a5cdd60621b6044820152606490fd5b15613d2c57565b60405162461bcd60e51b815260206004820152600f60248201526e14dd185ad9481b9bdd08199bdd5b99608a1b6044820152606490fd5b15613d6a57565b60405162461bcd60e51b815260206004820152601060248201526f5374616b65206e6f742061637469766560801b6044820152606490fd5b91908203918211613a1d57565b6000818152601360209081526040808320546001600160a01b031690613dd6821515613ce2565b9293849390849081808080805b888b526012808b52888c208054831015613fa457613e0283899261367e565b505414613e185750613e1390613cc6565b613de3565b96509a5050505050508285528084528582862090613e359161367e565b5060050154958386528185528083872090613e4f9161367e565b5060040154928487528286528181882090613e699161367e565b50926001809401549686895281815283838a2090613e869161367e565b506003015496895252862090613e9b9161367e565b506006015460ff16613eaf613eb492613d25565b613d63565b428114613f9d57613ec59042613da2565b926010548092605a8114600014613f23575050600382029180830460031490151715613f0f57506138429392613f0363bbf81e0093613f089360011c905b613a0a565b0490613cd5565b634e487b7160e01b81526011600452602490fd5b60b48103613f595750508160011b9180830460021490151715613f0f57506138429392613f0363bbf81e0093613f089390613a0a565b61016d9194935014613f7e575b506138429392613f0363bbf81e0093613f0893613a0a565b6003839293029180830460031490151715613f0f575090613842613f66565b5050505090565b50505096509650979350613eb4929150613eaf90613d25565b15613fc457565b60405162461bcd60e51b815260206004820152600f60248201526e2737ba1039ba30b5b29037bbb732b960891b6044820152606490fd5b60003381526020601a815260018060a01b039060408281852054169283151580614167575b61402c57505050505090565b606461403a60195488613a0a565b8654845163a9059cbb60e01b81526001600160a01b03881660048201529290910460248301819052969190859082906044908290869088165af190811561415d578291614140575b50156140fc577f94ccb86446750660ec532b1beb1fb55f5ba2fffca042c4c53f4c080e72595b3893929181866140f29352601c85528381206140c5898254613cd5565b9055541686888451926140d78461371c565b6008845267149151915494905360c21b8785015280896147ed565b519384523393a390565b825162461bcd60e51b815260048101859052601f60248201527f526566657272616c20726577617264207472616e73666572206661696c6564006044820152606490fd5b6141579150853d87116105185761050a8183613738565b38614082565b84513d84823e3d90fd5b50838552600c835260ff828620541615614020565b600090815b6001600160a01b0382166000908152601260205260409020805482101561422d5760066141b08360ff9361367e565b500154166141c6576141c190613cc6565b614181565b50905060015b158061420b575b6141da5750565b6001600160a01b03166000908152601860205260409020805460ff191690556016548015613a1d5760001901601655565b506001600160a01b03811660009081526018602052604090205460ff166141d3565b5050906141cc565b600080546040516370a0823160e01b8152306004820152919392916020916001600160a01b0316908281602481855afa801561436c578491879161433b575b50106142f65760405163a9059cbb60e01b8152336004820152602481018490529082908290604490829089905af19182156142eb57906142c192916142c99596926142ce575b5050613c82565b600b54613cd5565b600b55565b6142e49250803d106105185761050a8183613738565b38806142ba565b6040513d87823e3d90fd5b60405162461bcd60e51b815260048101839052601a60248201527f496e73756666696369656e7420746f6b656e2062616c616e63650000000000006044820152606490fd5b809250848092503d8311614365575b6143548183613738565b810103126119d15783905138614274565b503d61434a565b6040513d88823e3d90fd5b600e54600160401b8110156137065760019081810180600e5581101561369a576007600091600e835202918351837fbb7b4a454dc3493923482f07822329ed19e8244eff582cc204f8554c3620c3fd015560c07fbb7b4a454dc3493923482f07822329ed19e8244eff582cc204f8554c3620c4037fbb7b4a454dc3493923482f07822329ed19e8244eff582cc204f8554c3620c3fe85019460018060a01b0360209681888a015116906001600160601b0360a01b91828254161790557fbb7b4a454dc3493923482f07822329ed19e8244eff582cc204f8554c3620c3ff83018260408b015116828254161790557fbb7b4a454dc3493923482f07822329ed19e8244eff582cc204f8554c3620c40083019160608a0151169082541617905560808701517fbb7b4a454dc3493923482f07822329ed19e8244eff582cc204f8554c3620c40182015560a08701517fbb7b4a454dc3493923482f07822329ed19e8244eff582cc204f8554c3620c402820155019401519182519267ffffffffffffffff84116145ef5761450886546136b0565b601f81116145a9575b508491601f851160011461454a57939450849291908361453f575b50501b916000199060031b1c1916179055565b01519250388061452c565b86815285812093958591601f198316915b8883831061458f5750505010614576575b505050811b019055565b015160001960f88460031b161c1916905538808061456c565b85870151885590960195948501948793509081019061455b565b868352858320601f860160051c8101918787106145e5575b601f0160051c019084905b8281106145da575050614511565b8481550184906145cc565b90915081906145c1565b634e487b7160e01b82526041600452602482fd5b8054600160401b8110156137065761462290600192838201815561367e565b614778578251815560c060068383019260018060a01b03602094818689015116906001600160601b0360a01b9182825416179055600283018260408a015116828254161790556003830191606089015116908254161790556080860151600482015560a08601516005820155019301519081519167ffffffffffffffff8311613706576146af85546136b0565b601f811161472f575b5081601f84116001146146e6575092829391839260009461453f5750501b916000199060031b1c1916179055565b919083601f1981168760005284600020946000905b88838310614715575050501061457657505050811b019055565b8587015188559096019594850194879350908101906146fb565b6000868152838120601f860160051c81019285871061476e575b601f0160051c019186905b838110614763575050506146b8565b828155018690614754565b9092508290614749565b634e487b7160e01b600052600060045260246000fd5b92613798949192604051946147a2866136ea565b42865260018060a01b038091169485602088015260006040880152166060860152608085015260a084015260c0830152600052600d6020526147e8816040600020614603565b614377565b92613798959294919360405195614803876136ea565b42875260018060a01b0380809316968760208a0152166040880152166060860152608085015260a084015260c0830152600052600d6020526147e8816040600020614603565b67ffffffffffffffff81116137065760051b60200190565b9060405161486e816136ea565b60c060ff600683958054855260018101546020860152600281015460408601526003810154606086015260048101546080860152600581015460a08601520154161515910152565b604051906148c3826136ea565b8160c06000918281528260208201528260408201528260608201528260808201528260a0820152015256fe377aadedb6b2a771959584d10a6a36eccb5f56b4eb3a48525f76108d2660d8d4a2646970667358221220ac727c4e2a77d0e73f0c7c3c3c6ba667b679389abd875651d9f417e37ec3c63864736f6c63430008130033","opcodes":"PUSH1 0xA0 DUP1 PUSH1 0x40 MSTORE CALLVALUE PUSH2 0xE7 JUMPI PUSH7 0x38D7EA4C68000 DUP1 PUSH1 0x5 SSTORE PUSH1 0x6 SSTORE PUSH1 0xC PUSH1 0x10 SSTORE PUSH9 0x56BC75E2D63100000 PUSH1 0x11 SSTORE PUSH1 0x1 PUSH1 0x17 SSTORE PUSH1 0x5 PUSH1 0x19 SSTORE CALLER PUSH1 0x80 MSTORE PUSH1 0x14 PUSH1 0x7 SSTORE PUSH1 0x14 PUSH1 0x8 SSTORE PUSH1 0x14 PUSH1 0x9 SSTORE PUSH1 0x14 PUSH1 0xA SSTORE PUSH2 0x4944 SWAP1 DUP2 PUSH2 0xED DUP3 CODECOPY PUSH1 0x80 MLOAD DUP2 DUP2 DUP2 PUSH2 0x3FA ADD MSTORE DUP2 DUP2 PUSH2 0x6D8 ADD MSTORE DUP2 DUP2 PUSH2 0x7C7 ADD MSTORE DUP2 DUP2 PUSH2 0xBC4 ADD MSTORE DUP2 DUP2 PUSH2 0xCD6 ADD MSTORE DUP2 DUP2 PUSH2 0xE99 ADD MSTORE DUP2 DUP2 PUSH2 0xF95 ADD MSTORE DUP2 DUP2 PUSH2 0x14FE ADD MSTORE DUP2 DUP2 PUSH2 0x168A ADD MSTORE DUP2 DUP2 PUSH2 0x1A43 ADD MSTORE DUP2 DUP2 PUSH2 0x1B53 ADD MSTORE DUP2 DUP2 PUSH2 0x1C1B ADD MSTORE DUP2 DUP2 PUSH2 0x2075 ADD MSTORE DUP2 DUP2 PUSH2 0x2519 ADD MSTORE DUP2 DUP2 PUSH2 0x2675 ADD MSTORE DUP2 DUP2 PUSH2 0x2ED7 ADD MSTORE DUP2 DUP2 PUSH2 0x30E6 ADD MSTORE DUP2 DUP2 PUSH2 0x317A ADD MSTORE DUP2 DUP2 PUSH2 0x325B ADD MSTORE PUSH2 0x339C ADD MSTORE RETURN JUMPDEST PUSH1 0x0 DUP1 REVERT INVALID PUSH1 0x80 PUSH1 0x40 DUP2 DUP2 MSTORE PUSH1 0x4 DUP1 CALLDATASIZE LT ISZERO PUSH2 0x15 JUMPI PUSH1 0x0 DUP1 REVERT JUMPDEST PUSH1 0x0 SWAP3 PUSH1 0xE0 DUP5 CALLDATALOAD DUP2 SHR SWAP2 DUP3 PUSH4 0x2D45457 EQ PUSH2 0x354B JUMPI POP DUP2 PUSH4 0x6B091F9 EQ PUSH2 0x337B JUMPI DUP2 PUSH4 0x9813482 EQ PUSH2 0x32AB JUMPI DUP2 PUSH4 0x182A676B EQ PUSH2 0x31F9 JUMPI DUP2 PUSH4 0x1CE24E16 EQ PUSH2 0x31D1 JUMPI DUP2 PUSH4 0x1E37C606 EQ PUSH2 0x314D JUMPI DUP2 PUSH4 0x20F1FC61 EQ PUSH2 0x3048 JUMPI DUP2 PUSH4 0x214405A9 EQ PUSH2 0x3028 JUMPI DUP2 PUSH4 0x21874AE2 EQ PUSH2 0x2FC7 JUMPI DUP2 PUSH4 0x251545DA EQ PUSH2 0x2DC7 JUMPI DUP2 PUSH4 0x27506F53 EQ PUSH2 0x2CE7 JUMPI DUP2 PUSH4 0x2BB38809 EQ PUSH2 0x25FE JUMPI DUP2 PUSH4 0x2FD04C08 EQ PUSH2 0x29B8 JUMPI DUP2 PUSH4 0x3B7B6188 EQ PUSH2 0x26CC JUMPI DUP2 PUSH4 0x3E4E6453 EQ PUSH2 0x2648 JUMPI DUP2 PUSH4 0x41398B15 EQ PUSH2 0x261E JUMPI DUP2 PUSH4 0x491CC756 EQ PUSH2 0x25FE JUMPI DUP2 PUSH4 0x4A3B68CC EQ PUSH2 0x25C2 JUMPI DUP2 PUSH4 0x4CDB312D EQ PUSH2 0x24FD JUMPI DUP2 PUSH4 0x4F93208A EQ PUSH2 0x24BE JUMPI DUP2 PUSH4 0x518AB2A8 EQ PUSH2 0x249E JUMPI DUP2 PUSH4 0x53AAA63B EQ PUSH2 0x2465 JUMPI DUP2 PUSH4 0x57126D0D EQ PUSH2 0x2236 JUMPI DUP2 PUSH4 0x575CEA6B EQ PUSH2 0x218B JUMPI DUP2 PUSH4 0x5B365040 EQ PUSH2 0x1F65 JUMPI DUP2 PUSH4 0x608E4DD0 EQ PUSH2 0x1C89 JUMPI DUP2 PUSH4 0x63219C72 EQ PUSH2 0x1BDC JUMPI DUP2 PUSH4 0x64F1D113 EQ PUSH2 0x1BBC JUMPI DUP2 PUSH4 0x676C0D77 EQ PUSH2 0x1B14 JUMPI DUP2 PUSH4 0x6F43F373 EQ PUSH2 0x1AF4 JUMPI DUP2 PUSH4 0x71D20FE7 EQ PUSH2 0x1A27 JUMPI DUP2 PUSH4 0x75506C96 EQ PUSH2 0x1A07 JUMPI DUP2 PUSH4 0x7A9773DC EQ PUSH2 0x19E7 JUMPI DUP2 PUSH4 0x7CC1F867 EQ PUSH2 0x1904 JUMPI DUP2 PUSH4 0x80933608 EQ PUSH2 0x1821 JUMPI DUP2 PUSH4 0x817B1CD2 EQ PUSH2 0x1801 JUMPI DUP2 PUSH4 0x83FABE03 EQ PUSH2 0x17E1 JUMPI DUP2 PUSH4 0x842E2981 EQ PUSH2 0x16D9 JUMPI DUP2 PUSH4 0x86989038 EQ PUSH2 0x16B9 JUMPI DUP2 PUSH4 0x8DA5CB5B EQ PUSH2 0x1674 JUMPI DUP2 PUSH4 0x920A253E EQ PUSH2 0x1654 JUMPI DUP2 PUSH4 0x94DC9CF3 EQ PUSH2 0x144C JUMPI DUP2 PUSH4 0x963C9DD3 EQ PUSH2 0x1371 JUMPI DUP2 PUSH4 0x9AB4A445 EQ PUSH2 0x1347 JUMPI DUP2 PUSH4 0x9C0FBD05 EQ PUSH2 0x132A JUMPI DUP2 PUSH4 0x9EA7685A EQ PUSH2 0x1170 JUMPI DUP2 PUSH4 0xA0B3B930 EQ PUSH2 0x1150 JUMPI DUP2 PUSH4 0xA1DC9031 EQ PUSH2 0xFDA JUMPI DUP2 PUSH4 0xA29F481C EQ PUSH2 0xF6C JUMPI DUP2 PUSH4 0xA7C60160 EQ PUSH2 0xDDE JUMPI DUP2 PUSH4 0xAECCF735 EQ PUSH2 0xC1B JUMPI DUP2 PUSH4 0xB006984F EQ PUSH2 0xB97 JUMPI DUP2 PUSH4 0xB40CD21D EQ PUSH2 0xB55 JUMPI DUP2 PUSH4 0xB5D5B5FA EQ PUSH2 0xAC2 JUMPI POP DUP1 PUSH4 0xB842EC44 EQ PUSH2 0xA44 JUMPI DUP1 PUSH4 0xBC5894BA EQ PUSH2 0xA25 JUMPI DUP1 PUSH4 0xC93C8F34 EQ PUSH2 0x9E7 JUMPI DUP1 PUSH4 0xD3EA4350 EQ PUSH2 0x9C0 JUMPI DUP1 PUSH4 0xD7FF0714 EQ PUSH2 0x878 JUMPI DUP1 PUSH4 0xD8060CD5 EQ PUSH2 0x7AC JUMPI DUP1 PUSH4 0xE697B5D8 EQ PUSH2 0x753 JUMPI DUP1 PUSH4 0xE985E367 EQ PUSH2 0x72B JUMPI DUP1 PUSH4 0xEBCD3A13 EQ PUSH2 0x6AB JUMPI DUP1 PUSH4 0xEE172546 EQ PUSH2 0x68C JUMPI DUP1 PUSH4 0xEF925399 EQ PUSH2 0x5AE JUMPI DUP1 PUSH4 0xF1887684 EQ PUSH2 0x58B JUMPI DUP1 PUSH4 0xF30EF2E5 EQ PUSH2 0x346 JUMPI PUSH4 0xFD9A11E5 EQ PUSH2 0x311 JUMPI PUSH1 0x0 DUP1 REVERT JUMPDEST CALLVALUE PUSH2 0x342 JUMPI PUSH1 0x20 CALLDATASIZE PUSH1 0x3 NOT ADD SLT PUSH2 0x342 JUMPI CALLDATALOAD DUP3 MSTORE PUSH1 0x13 PUSH1 0x20 SWAP1 DUP2 MSTORE SWAP2 DUP2 SWAP1 KECCAK256 SLOAD SWAP1 MLOAD PUSH1 0x1 PUSH1 0x1 PUSH1 0xA0 SHL SUB SWAP1 SWAP2 AND DUP2 MSTORE RETURN JUMPDEST DUP3 DUP1 REVERT JUMPDEST POP CALLVALUE PUSH2 0x342 JUMPI PUSH1 0x20 DUP1 PUSH1 0x3 NOT CALLDATASIZE ADD SLT PUSH2 0x587 JUMPI DUP2 CALLDATALOAD SWAP1 CALLER DUP6 MSTORE PUSH1 0xC DUP2 MSTORE PUSH2 0x373 PUSH1 0xFF DUP6 DUP8 KECCAK256 SLOAD AND ISZERO PUSH2 0x394C JUMP JUMPDEST DUP2 ISZERO PUSH2 0x37F DUP2 ISZERO PUSH2 0x3AF4 JUMP JUMPDEST DUP6 SLOAD PUSH1 0x1 PUSH1 0x1 PUSH1 0xA0 SHL SUB SWAP3 SWAP1 PUSH2 0x398 SWAP1 DUP5 AND ISZERO ISZERO PUSH2 0x39C9 JUMP JUMPDEST DUP3 DUP6 SLOAD AND DUP1 ISZERO PUSH2 0x54F JUMPI PUSH4 0x3B9ACA00 SWAP3 DUP4 DUP7 MUL SWAP4 DUP7 DUP6 DIV EQ OR ISZERO PUSH2 0x53C JUMPI PUSH2 0x3C2 PUSH1 0xA SLOAD DUP7 PUSH2 0x3A0A JUMP JUMPDEST SWAP3 PUSH8 0xDE0B6B3A7640000 SWAP4 DUP5 DUP2 MUL SWAP5 DUP2 DUP7 DIV EQ SWAP1 ISZERO OR ISZERO PUSH2 0x529 JUMPI DUP8 MLOAD PUSH4 0x23B872DD PUSH1 0xE0 SHL DUP2 MSTORE CALLER DUP9 DUP3 ADD SWAP1 DUP2 MSTORE PUSH1 0x1 PUSH1 0x1 PUSH1 0xA0 SHL SUB PUSH32 0x0 AND PUSH1 0x20 DUP3 ADD MSTORE PUSH1 0x40 DUP2 ADD SWAP3 SWAP1 SWAP3 MSTORE SWAP2 DUP4 SWAP2 DUP4 SWAP2 SWAP1 DUP3 SWAP1 DUP13 SWAP1 DUP3 SWAP1 PUSH1 0x60 ADD SUB SWAP3 GAS CALL SWAP1 DUP2 ISZERO PUSH2 0x51F JUMPI DUP9 SWAP2 PUSH2 0x4F2 JUMPI JUMPDEST POP ISZERO PUSH2 0x4BA JUMPI POP SWAP2 PUSH2 0x4B4 SWAP2 PUSH2 0x46C PUSH1 0x0 DUP1 MLOAD PUSH1 0x20 PUSH2 0x48EF DUP4 CODECOPY DUP2 MLOAD SWAP2 MSTORE SWAP5 PUSH2 0x3FFB JUMP JUMPDEST SWAP5 PUSH2 0x476 DUP7 PUSH2 0x4235 JUMP JUMPDEST PUSH2 0x492 DUP3 DUP3 SLOAD AND DUP8 DUP6 DUP6 DUP13 SLOAD AND PUSH2 0x48B PUSH2 0x3AD5 JUMP JUMPDEST SWAP4 CALLER PUSH2 0x47ED JUMP JUMPDEST SLOAD AND SWAP5 MLOAD SWAP2 DUP3 SWAP2 CALLER SWAP6 TIMESTAMP SWAP2 DUP5 PUSH1 0x40 SWAP2 SWAP5 SWAP4 SWAP3 PUSH1 0x60 DUP3 ADD SWAP6 DUP3 MSTORE PUSH1 0x20 DUP3 ADD MSTORE ADD MSTORE JUMP JUMPDEST SUB SWAP1 LOG3 DUP1 RETURN JUMPDEST DUP5 PUSH1 0x64 SWAP2 DUP8 MLOAD SWAP2 PUSH3 0x461BCD PUSH1 0xE5 SHL DUP4 MSTORE DUP3 ADD MSTORE PUSH1 0x13 PUSH1 0x24 DUP3 ADD MSTORE PUSH19 0x14D3D3081D1C985B9CD9995C8819985A5B1959 PUSH1 0x6A SHL PUSH1 0x44 DUP3 ADD MSTORE REVERT JUMPDEST PUSH2 0x512 SWAP2 POP DUP3 RETURNDATASIZE DUP5 GT PUSH2 0x518 JUMPI JUMPDEST PUSH2 0x50A DUP2 DUP4 PUSH2 0x3738 JUMP JUMPDEST DUP2 ADD SWAP1 PUSH2 0x3B82 JUMP JUMPDEST CODESIZE PUSH2 0x448 JUMP JUMPDEST POP RETURNDATASIZE PUSH2 0x500 JUMP JUMPDEST DUP8 MLOAD RETURNDATASIZE DUP11 DUP3 RETURNDATACOPY RETURNDATASIZE SWAP1 REVERT JUMPDEST PUSH4 0x4E487B71 PUSH1 0xE0 SHL DUP10 MSTORE PUSH1 0x11 DUP8 MSTORE PUSH1 0x24 DUP10 REVERT JUMPDEST PUSH4 0x4E487B71 PUSH1 0xE0 SHL DUP9 MSTORE PUSH1 0x11 DUP7 MSTORE PUSH1 0x24 DUP9 REVERT JUMPDEST DUP7 MLOAD PUSH3 0x461BCD PUSH1 0xE5 SHL DUP2 MSTORE DUP1 DUP8 ADD DUP4 SWAP1 MSTORE PUSH1 0x12 PUSH1 0x24 DUP3 ADD MSTORE PUSH18 0x14D3D3081B9BDD0818DBDB999A59DD5C9959 PUSH1 0x72 SHL PUSH1 0x44 DUP3 ADD MSTORE PUSH1 0x64 SWAP1 REVERT JUMPDEST DUP4 DUP1 REVERT JUMPDEST POP POP CALLVALUE PUSH2 0x5AA JUMPI DUP2 PUSH1 0x3 NOT CALLDATASIZE ADD SLT PUSH2 0x5AA JUMPI PUSH1 0x20 SWAP1 PUSH1 0x11 SLOAD SWAP1 MLOAD SWAP1 DUP2 MSTORE RETURN JUMPDEST POP DUP1 REVERT JUMPDEST POP DUP3 SWAP1 CALLVALUE PUSH2 0x5AA JUMPI PUSH1 0x20 SWAP2 DUP3 PUSH1 0x3 NOT CALLDATASIZE ADD SLT PUSH2 0x689 JUMPI PUSH1 0x1 PUSH1 0x1 PUSH1 0xA0 SHL SUB SWAP3 DUP4 PUSH2 0x5D6 PUSH2 0x3570 JUMP JUMPDEST AND DUP3 MSTORE PUSH1 0xD DUP2 MSTORE DUP5 DUP3 KECCAK256 SWAP2 DUP3 SLOAD SWAP4 PUSH2 0x5ED DUP6 PUSH2 0x4849 JUMP JUMPDEST SWAP6 PUSH2 0x5FA DUP9 MLOAD SWAP8 DUP9 PUSH2 0x3738 JUMP JUMPDEST DUP6 DUP8 MSTORE DUP4 DUP8 ADD SWAP5 DUP4 MSTORE DUP4 DUP4 KECCAK256 SWAP3 SWAP5 JUMPDEST DUP7 DUP7 LT PUSH2 0x621 JUMPI DUP9 MLOAD DUP1 PUSH2 0x61D DUP11 DUP3 PUSH2 0x35CB JUMP JUMPDEST SUB SWAP1 RETURN JUMPDEST PUSH1 0x7 DUP6 PUSH1 0x1 SWAP3 DUP12 MLOAD PUSH2 0x632 DUP2 PUSH2 0x36EA JUMP JUMPDEST DUP8 SLOAD DUP2 MSTORE DUP6 DUP6 DUP10 ADD SLOAD AND DUP4 DUP3 ADD MSTORE DUP6 PUSH1 0x2 DUP10 ADD SLOAD AND DUP14 DUP3 ADD MSTORE DUP6 PUSH1 0x3 DUP10 ADD SLOAD AND PUSH1 0x60 DUP3 ADD MSTORE DUP7 DUP9 ADD SLOAD PUSH1 0x80 DUP3 ADD MSTORE PUSH1 0x5 DUP9 ADD SLOAD PUSH1 0xA0 DUP3 ADD MSTORE PUSH2 0x676 PUSH1 0x6 DUP10 ADD PUSH2 0x375A JUMP JUMPDEST PUSH1 0xC0 DUP3 ADD MSTORE DUP2 MSTORE ADD SWAP5 ADD SWAP6 ADD SWAP5 SWAP3 PUSH2 0x609 JUMP JUMPDEST DUP1 REVERT JUMPDEST POP POP CALLVALUE PUSH2 0x5AA JUMPI DUP2 PUSH1 0x3 NOT CALLDATASIZE ADD SLT PUSH2 0x5AA JUMPI PUSH1 0x20 SWAP1 PUSH1 0x15 SLOAD SWAP1 MLOAD SWAP1 DUP2 MSTORE RETURN JUMPDEST POP SWAP1 CALLVALUE PUSH2 0x342 JUMPI CALLDATASIZE PUSH1 0x3 NOT ADD SLT PUSH2 0x5AA JUMPI PUSH2 0x6C4 PUSH2 0x3570 JUMP JUMPDEST PUSH1 0x24 CALLDATALOAD SWAP2 SWAP1 PUSH1 0x1 PUSH1 0x1 PUSH1 0xA0 SHL SUB SWAP1 PUSH2 0x6FF CALLER PUSH32 0x0 DUP5 AND EQ PUSH2 0x385D JUMP JUMPDEST AND PUSH2 0x70B DUP2 ISZERO ISZERO PUSH2 0x38D2 JUMP JUMPDEST PUSH2 0x716 DUP4 ISZERO ISZERO PUSH2 0x3910 JUMP JUMPDEST DUP2 SLOAD PUSH1 0x1 PUSH1 0x1 PUSH1 0xA0 SHL SUB NOT AND OR SWAP1 SSTORE PUSH1 0xA SSTORE DUP1 RETURN JUMPDEST POP POP CALLVALUE PUSH2 0x5AA JUMPI DUP2 PUSH1 0x3 NOT CALLDATASIZE ADD SLT PUSH2 0x5AA JUMPI SWAP1 SLOAD SWAP1 MLOAD PUSH1 0x1 PUSH1 0x1 PUSH1 0xA0 SHL SUB SWAP1 SWAP2 AND DUP2 MSTORE PUSH1 0x20 SWAP1 RETURN JUMPDEST POP POP CALLVALUE PUSH2 0x5AA JUMPI DUP1 PUSH1 0x3 NOT CALLDATASIZE ADD SLT PUSH2 0x5AA JUMPI PUSH2 0x76D PUSH2 0x3570 JUMP JUMPDEST PUSH1 0x1 PUSH1 0x1 PUSH1 0xA0 SHL SUB SWAP1 DUP2 AND DUP4 MSTORE PUSH1 0x1B PUSH1 0x20 MSTORE DUP2 DUP4 KECCAK256 DUP1 SLOAD PUSH1 0x24 CALLDATALOAD SWAP5 SWAP1 DUP6 LT ISZERO PUSH2 0x689 JUMPI POP PUSH1 0x20 SWAP4 PUSH2 0x79D SWAP2 PUSH2 0x3845 JUMP JUMPDEST SWAP3 SWAP1 SLOAD SWAP1 MLOAD SWAP3 PUSH1 0x3 SHL SHR AND DUP2 MSTORE RETURN JUMPDEST POP CALLVALUE PUSH2 0x342 JUMPI PUSH1 0x20 CALLDATASIZE PUSH1 0x3 NOT ADD SLT PUSH2 0x342 JUMPI DUP1 CALLDATALOAD SWAP1 PUSH2 0x7F5 CALLER PUSH32 0x0 PUSH1 0x1 PUSH1 0x1 PUSH1 0xA0 SHL SUB AND EQ PUSH2 0x385D JUMP JUMPDEST DUP2 ISZERO PUSH2 0x835 JUMPI POP SWAP1 PUSH32 0x171AABB8815C02FD00303450A77058600E3661EB75CE2E77972C0F080BC7099D SWAP2 PUSH1 0x11 SLOAD SWAP1 DUP1 PUSH1 0x11 SSTORE DUP3 MLOAD SWAP2 DUP3 MSTORE PUSH1 0x20 DUP3 ADD MSTORE LOG1 DUP1 RETURN JUMPDEST PUSH1 0x64 SWAP1 PUSH1 0x20 DUP5 MLOAD SWAP2 PUSH3 0x461BCD PUSH1 0xE5 SHL DUP4 MSTORE DUP3 ADD MSTORE PUSH1 0x20 PUSH1 0x24 DUP3 ADD MSTORE PUSH32 0x4D696E207374616B65206D7573742062652067726561746572207468616E2030 PUSH1 0x44 DUP3 ADD MSTORE REVERT JUMPDEST POP CALLVALUE PUSH2 0x342 JUMPI PUSH1 0x20 CALLDATASIZE PUSH1 0x3 NOT ADD SLT PUSH2 0x342 JUMPI CALLDATALOAD PUSH1 0xE SLOAD DUP2 LT ISZERO PUSH2 0x342 JUMPI PUSH1 0xE PUSH1 0x7 SWAP3 SWAP4 MSTORE MUL SWAP1 PUSH2 0x61D DUP3 PUSH32 0xBB7B4A454DC3493923482F07822329ED19E8244EFF582CC204F8554C3620C3FD ADD SLOAD SWAP2 PUSH1 0x1 DUP1 PUSH1 0xA0 SHL SUB SWAP4 DUP5 PUSH32 0xBB7B4A454DC3493923482F07822329ED19E8244EFF582CC204F8554C3620C3FE DUP3 ADD SLOAD AND SWAP5 DUP1 PUSH32 0xBB7B4A454DC3493923482F07822329ED19E8244EFF582CC204F8554C3620C3FF DUP4 ADD SLOAD AND SWAP1 PUSH32 0xBB7B4A454DC3493923482F07822329ED19E8244EFF582CC204F8554C3620C400 DUP4 ADD SLOAD AND PUSH32 0xBB7B4A454DC3493923482F07822329ED19E8244EFF582CC204F8554C3620C401 DUP4 ADD SLOAD SWAP2 PUSH2 0x9B5 PUSH32 0xBB7B4A454DC3493923482F07822329ED19E8244EFF582CC204F8554C3620C403 PUSH32 0xBB7B4A454DC3493923482F07822329ED19E8244EFF582CC204F8554C3620C402 DUP7 ADD SLOAD SWAP6 ADD PUSH2 0x375A JUMP JUMPDEST SWAP5 MLOAD SWAP8 DUP9 SWAP8 DUP9 PUSH2 0x3800 JUMP JUMPDEST POP SWAP2 CALLVALUE PUSH2 0x689 JUMPI PUSH1 0x20 CALLDATASIZE PUSH1 0x3 NOT ADD SLT PUSH2 0x689 JUMPI POP PUSH2 0x9E0 PUSH1 0x20 SWAP3 CALLDATALOAD PUSH2 0x3DAF JUMP JUMPDEST SWAP1 MLOAD SWAP1 DUP2 MSTORE RETURN JUMPDEST POP POP CALLVALUE PUSH2 0x5AA JUMPI PUSH1 0x20 CALLDATASIZE PUSH1 0x3 NOT ADD SLT PUSH2 0x5AA JUMPI PUSH1 0x20 SWAP2 PUSH1 0xFF SWAP1 DUP3 SWAP1 PUSH1 0x1 PUSH1 0x1 PUSH1 0xA0 SHL SUB PUSH2 0xA12 PUSH2 0x3570 JUMP JUMPDEST AND DUP2 MSTORE PUSH1 0x18 DUP6 MSTORE KECCAK256 SLOAD AND SWAP1 MLOAD SWAP1 ISZERO ISZERO DUP2 MSTORE RETURN JUMPDEST POP POP CALLVALUE PUSH2 0x5AA JUMPI DUP2 PUSH1 0x3 NOT CALLDATASIZE ADD SLT PUSH2 0x5AA JUMPI PUSH1 0x20 SWAP1 PUSH1 0x9 SLOAD SWAP1 MLOAD SWAP1 DUP2 MSTORE RETURN JUMPDEST POP SWAP2 SWAP1 CALLVALUE PUSH2 0x5AA JUMPI DUP1 PUSH1 0x3 NOT CALLDATASIZE ADD SLT PUSH2 0x5AA JUMPI PUSH2 0xA5F PUSH2 0x3570 JUMP JUMPDEST PUSH1 0x1 PUSH1 0x1 PUSH1 0xA0 SHL SUB SWAP1 DUP2 AND DUP4 MSTORE PUSH1 0xD PUSH1 0x20 MSTORE DUP2 DUP4 KECCAK256 DUP1 SLOAD SWAP2 SWAP4 PUSH1 0x24 CALLDATALOAD SWAP3 DUP4 LT ISZERO PUSH2 0x689 JUMPI POP PUSH2 0x61D SWAP3 SWAP2 PUSH2 0xA92 SWAP2 PUSH2 0x367E JUMP JUMPDEST POP DUP1 SLOAD SWAP4 DUP1 PUSH1 0x1 DUP4 ADD SLOAD AND SWAP6 DUP2 PUSH1 0x2 DUP5 ADD SLOAD AND SWAP2 PUSH1 0x3 DUP5 ADD SLOAD AND SWAP1 DUP4 ADD SLOAD SWAP2 PUSH2 0x9B5 PUSH1 0x6 PUSH1 0x5 DUP7 ADD SLOAD SWAP6 ADD PUSH2 0x375A JUMP JUMPDEST SWAP4 SWAP1 POP CALLVALUE PUSH2 0x689 JUMPI DUP3 PUSH1 0x3 NOT CALLDATASIZE ADD SLT PUSH2 0x689 JUMPI PUSH2 0xADD PUSH2 0x3570 JUMP JUMPDEST PUSH1 0x1 PUSH1 0x1 PUSH1 0xA0 SHL SUB AND DUP2 MSTORE PUSH1 0x12 PUSH1 0x20 MSTORE DUP3 DUP2 KECCAK256 DUP1 SLOAD PUSH1 0x24 CALLDATALOAD SWAP3 SWAP1 DUP4 LT ISZERO PUSH2 0x689 JUMPI POP SWAP1 PUSH2 0xB09 SWAP2 PUSH2 0x367E JUMP JUMPDEST POP DUP1 SLOAD SWAP3 PUSH1 0x1 DUP3 ADD SLOAD SWAP3 PUSH1 0x2 DUP4 ADD SLOAD PUSH1 0x3 DUP5 ADD SLOAD SWAP2 DUP5 ADD SLOAD SWAP3 PUSH1 0xFF PUSH1 0x6 PUSH1 0x5 DUP8 ADD SLOAD SWAP7 ADD SLOAD AND SWAP6 DUP2 MLOAD SWAP8 DUP9 MSTORE PUSH1 0x20 DUP9 ADD MSTORE DUP7 ADD MSTORE PUSH1 0x60 DUP6 ADD MSTORE PUSH1 0x80 DUP5 ADD MSTORE PUSH1 0xA0 DUP4 ADD MSTORE ISZERO ISZERO PUSH1 0xC0 DUP3 ADD MSTORE RETURN JUMPDEST POP POP POP CALLVALUE PUSH2 0x5AA JUMPI DUP2 PUSH1 0x3 NOT CALLDATASIZE ADD SLT PUSH2 0x5AA JUMPI PUSH1 0xA0 SWAP1 PUSH1 0x10 SLOAD SWAP1 PUSH1 0x11 SLOAD SWAP1 PUSH1 0x14 SLOAD PUSH1 0x15 SLOAD SWAP2 PUSH1 0x16 SLOAD SWAP4 DUP2 MLOAD SWAP6 DUP7 MSTORE PUSH1 0x20 DUP7 ADD MSTORE DUP5 ADD MSTORE PUSH1 0x60 DUP4 ADD MSTORE PUSH1 0x80 DUP3 ADD MSTORE RETURN JUMPDEST POP POP POP CALLVALUE PUSH2 0x5AA JUMPI CALLDATASIZE PUSH1 0x3 NOT ADD SLT PUSH2 0x689 JUMPI PUSH2 0xBB1 PUSH2 0x3570 JUMP JUMPDEST PUSH1 0x24 CALLDATALOAD SWAP1 PUSH1 0x1 PUSH1 0x1 PUSH1 0xA0 SHL SUB SWAP1 PUSH2 0xBEB CALLER PUSH32 0x0 DUP5 AND EQ PUSH2 0x385D JUMP JUMPDEST AND PUSH2 0xBF7 DUP2 ISZERO ISZERO PUSH2 0x38D2 JUMP JUMPDEST PUSH2 0xC02 DUP3 ISZERO ISZERO PUSH2 0x3910 JUMP JUMPDEST PUSH1 0x1 PUSH1 0x1 PUSH1 0x60 SHL SUB PUSH1 0xA0 SHL PUSH1 0x1 SLOAD AND OR PUSH1 0x1 SSTORE PUSH1 0x7 SSTORE DUP1 RETURN JUMPDEST POP POP CALLVALUE PUSH2 0x342 JUMPI PUSH1 0x20 CALLDATASIZE PUSH1 0x3 NOT ADD SLT PUSH2 0x342 JUMPI DUP1 CALLDATALOAD SWAP1 CALLER DUP5 MSTORE PUSH1 0xC PUSH1 0x20 MSTORE PUSH2 0xC49 PUSH1 0xFF DUP5 DUP7 KECCAK256 SLOAD AND ISZERO PUSH2 0x394C JUMP JUMPDEST DUP2 ISZERO SWAP2 PUSH2 0xC56 DUP4 ISZERO PUSH2 0x3AF4 JUMP JUMPDEST DUP5 SLOAD PUSH1 0x1 PUSH1 0x1 PUSH1 0xA0 SHL SUB SWAP4 SWAP1 PUSH2 0xC6F SWAP1 DUP6 AND ISZERO ISZERO PUSH2 0x39C9 JUMP JUMPDEST DUP4 PUSH1 0x2 SLOAD AND PUSH2 0xC7F DUP2 ISZERO ISZERO PUSH2 0x3BDD JUMP JUMPDEST PUSH3 0xF4240 SWAP2 DUP3 DUP5 MUL SWAP3 DUP5 DUP5 DIV EQ OR ISZERO PUSH2 0xDCB JUMPI PUSH2 0xC9E PUSH1 0x8 SLOAD DUP5 PUSH2 0x3A0A JUMP JUMPDEST SWAP4 PUSH8 0xDE0B6B3A7640000 SWAP5 DUP6 DUP2 MUL SWAP6 DUP2 DUP8 DIV EQ SWAP1 ISZERO OR ISZERO PUSH2 0xDB8 JUMPI DUP7 MLOAD PUSH4 0x23B872DD PUSH1 0xE0 SHL DUP2 MSTORE CALLER SWAP2 DUP2 ADD SWAP2 DUP3 MSTORE PUSH1 0x1 PUSH1 0x1 PUSH1 0xA0 SHL SUB PUSH32 0x0 AND PUSH1 0x20 DUP4 DUP2 ADD SWAP2 SWAP1 SWAP2 MSTORE PUSH1 0x40 DUP4 ADD SWAP5 SWAP1 SWAP5 MSTORE SWAP4 SWAP3 SWAP2 DUP5 SWAP2 DUP3 SWAP1 DUP11 SWAP1 DUP3 SWAP1 PUSH1 0x60 ADD SUB SWAP3 GAS CALL DUP1 ISZERO PUSH2 0xDAE JUMPI PUSH1 0x0 DUP1 MLOAD PUSH1 0x20 PUSH2 0x48EF DUP4 CODECOPY DUP2 MLOAD SWAP2 MSTORE SWAP4 PUSH2 0xD47 PUSH2 0xD4C SWAP3 PUSH2 0x4B4 SWAP6 DUP11 SWAP2 PUSH2 0xD90 JUMPI JUMPDEST POP PUSH2 0x3C1F JUMP JUMPDEST PUSH2 0x3FFB JUMP JUMPDEST SWAP4 PUSH2 0xD56 DUP6 PUSH2 0x4235 JUMP JUMPDEST PUSH2 0xD6C DUP2 PUSH1 0x2 SLOAD AND DUP7 DUP5 DUP5 DUP12 SLOAD AND PUSH2 0x48B PUSH2 0x3AD5 JUMP JUMPDEST PUSH1 0x2 SLOAD AND SWAP5 MLOAD SWAP2 DUP3 SWAP2 CALLER SWAP6 TIMESTAMP SWAP2 DUP5 PUSH1 0x40 SWAP2 SWAP5 SWAP4 SWAP3 PUSH1 0x60 DUP3 ADD SWAP6 DUP3 MSTORE PUSH1 0x20 DUP3 ADD MSTORE ADD MSTORE JUMP JUMPDEST PUSH2 0xDA8 SWAP2 POP PUSH1 0x20 RETURNDATASIZE DUP2 GT PUSH2 0x518 JUMPI PUSH2 0x50A DUP2 DUP4 PUSH2 0x3738 JUMP JUMPDEST CODESIZE PUSH2 0xD41 JUMP JUMPDEST DUP6 MLOAD RETURNDATASIZE DUP9 DUP3 RETURNDATACOPY RETURNDATASIZE SWAP1 REVERT JUMPDEST PUSH4 0x4E487B71 PUSH1 0xE0 SHL DUP9 MSTORE PUSH1 0x11 SWAP1 MSTORE PUSH1 0x24 DUP8 REVERT JUMPDEST PUSH4 0x4E487B71 PUSH1 0xE0 SHL DUP8 MSTORE PUSH1 0x11 DUP5 MSTORE PUSH1 0x24 DUP8 REVERT JUMPDEST POP POP CALLVALUE PUSH2 0x342 JUMPI PUSH1 0x20 CALLDATASIZE PUSH1 0x3 NOT ADD SLT PUSH2 0x342 JUMPI DUP1 CALLDATALOAD SWAP1 CALLER DUP5 MSTORE PUSH1 0xC PUSH1 0x20 MSTORE PUSH2 0xE0C PUSH1 0xFF DUP5 DUP7 KECCAK256 SLOAD AND ISZERO PUSH2 0x394C JUMP JUMPDEST DUP2 ISZERO SWAP2 PUSH2 0xE19 DUP4 ISZERO PUSH2 0x3AF4 JUMP JUMPDEST DUP5 SLOAD PUSH1 0x1 PUSH1 0x1 PUSH1 0xA0 SHL SUB SWAP4 SWAP1 PUSH2 0xE32 SWAP1 DUP6 AND ISZERO ISZERO PUSH2 0x39C9 JUMP JUMPDEST DUP4 PUSH1 0x1 SLOAD AND PUSH2 0xE42 DUP2 ISZERO ISZERO PUSH2 0x3B40 JUMP JUMPDEST PUSH3 0xF4240 SWAP2 DUP3 DUP5 MUL SWAP3 DUP5 DUP5 DIV EQ OR ISZERO PUSH2 0xDCB JUMPI PUSH2 0xE61 PUSH1 0x7 SLOAD DUP5 PUSH2 0x3A0A JUMP JUMPDEST SWAP4 PUSH8 0xDE0B6B3A7640000 SWAP5 DUP6 DUP2 MUL SWAP6 DUP2 DUP8 DIV EQ SWAP1 ISZERO OR ISZERO PUSH2 0xDB8 JUMPI DUP7 MLOAD PUSH4 0x23B872DD PUSH1 0xE0 SHL DUP2 MSTORE CALLER SWAP2 DUP2 ADD SWAP2 DUP3 MSTORE PUSH1 0x1 PUSH1 0x1 PUSH1 0xA0 SHL SUB PUSH32 0x0 AND PUSH1 0x20 DUP4 DUP2 ADD SWAP2 SWAP1 SWAP2 MSTORE PUSH1 0x40 DUP4 ADD SWAP5 SWAP1 SWAP5 MSTORE SWAP4 SWAP3 SWAP2 DUP5 SWAP2 DUP3 SWAP1 DUP11 SWAP1 DUP3 SWAP1 PUSH1 0x60 ADD SUB SWAP3 GAS CALL DUP1 ISZERO PUSH2 0xDAE JUMPI PUSH1 0x0 DUP1 MLOAD PUSH1 0x20 PUSH2 0x48EF DUP4 CODECOPY DUP2 MLOAD SWAP2 MSTORE SWAP4 PUSH2 0xD47 PUSH2 0xF0A SWAP3 PUSH2 0x4B4 SWAP6 DUP11 SWAP2 PUSH2 0xF4E JUMPI JUMPDEST POP PUSH2 0x3B9A JUMP JUMPDEST SWAP4 PUSH2 0xF14 DUP6 PUSH2 0x4235 JUMP JUMPDEST PUSH2 0xF2A DUP2 PUSH1 0x1 SLOAD AND DUP7 DUP5 DUP5 DUP12 SLOAD AND PUSH2 0x48B PUSH2 0x3AD5 JUMP JUMPDEST PUSH1 0x1 SLOAD AND SWAP5 MLOAD SWAP2 DUP3 SWAP2 CALLER SWAP6 TIMESTAMP SWAP2 DUP5 PUSH1 0x40 SWAP2 SWAP5 SWAP4 SWAP3 PUSH1 0x60 DUP3 ADD SWAP6 DUP3 MSTORE PUSH1 0x20 DUP3 ADD MSTORE ADD MSTORE JUMP JUMPDEST PUSH2 0xF66 SWAP2 POP PUSH1 0x20 RETURNDATASIZE DUP2 GT PUSH2 0x518 JUMPI PUSH2 0x50A DUP2 DUP4 PUSH2 0x3738 JUMP JUMPDEST CODESIZE PUSH2 0xF04 JUMP JUMPDEST DUP5 CALLVALUE PUSH2 0x689 JUMPI PUSH1 0x20 CALLDATASIZE PUSH1 0x3 NOT ADD SLT PUSH2 0x689 JUMPI PUSH2 0xF86 PUSH2 0x3570 JUMP JUMPDEST PUSH1 0x1 PUSH1 0x1 PUSH1 0xA0 SHL SUB SWAP1 PUSH2 0xFBC CALLER PUSH32 0x0 DUP5 AND EQ PUSH2 0x385D JUMP JUMPDEST AND PUSH2 0xFC8 DUP2 ISZERO ISZERO PUSH2 0x38D2 JUMP JUMPDEST DUP2 SLOAD PUSH1 0x1 PUSH1 0x1 PUSH1 0xA0 SHL SUB NOT AND OR DUP2 SSTORE DUP1 RETURN JUMPDEST POP POP SWAP1 CALLVALUE PUSH2 0x342 JUMPI DUP3 PUSH1 0x3 NOT CALLDATASIZE ADD SLT PUSH2 0x342 JUMPI DUP3 SLOAD DUP2 MLOAD PUSH4 0x70A08231 PUSH1 0xE0 SHL DUP1 DUP3 MSTORE ADDRESS DUP3 DUP7 ADD MSTORE SWAP1 SWAP5 PUSH1 0x1 PUSH1 0x1 PUSH1 0xA0 SHL SUB SWAP5 PUSH1 0x20 SWAP4 DUP5 SWAP1 DUP9 SWAP1 PUSH1 0x24 SWAP1 DUP3 SWAP1 DUP11 AND GAS STATICCALL SWAP6 DUP7 ISZERO PUSH2 0x1146 JUMPI DUP3 SWAP7 PUSH2 0x1116 JUMPI JUMPDEST PUSH1 0x24 SWAP8 POP DUP5 DUP2 PUSH1 0x1 SLOAD AND DUP8 MLOAD SWAP10 DUP11 DUP1 SWAP3 DUP9 DUP3 MSTORE ADDRESS DUP8 DUP4 ADD MSTORE GAS STATICCALL SWAP8 DUP9 ISZERO PUSH2 0x110C JUMPI DUP4 SWAP9 PUSH2 0x10DC JUMPI JUMPDEST POP SWAP1 PUSH1 0x24 DUP6 SWAP3 PUSH1 0x2 SLOAD AND SWAP5 DUP8 MLOAD SWAP6 DUP7 SWAP4 DUP5 SWAP3 DUP4 MSTORE ADDRESS SWAP1 DUP4 ADD MSTORE GAS STATICCALL SWAP3 DUP4 ISZERO PUSH2 0x10D0 JUMPI DUP2 SWAP4 PUSH2 0x109D JUMPI JUMPDEST POP POP POP PUSH2 0x61D SWAP2 MLOAD SWAP4 DUP5 SWAP4 DUP5 PUSH1 0x40 SWAP2 SWAP5 SWAP4 SWAP3 PUSH1 0x60 DUP3 ADD SWAP6 DUP3 MSTORE PUSH1 0x20 DUP3 ADD MSTORE ADD MSTORE JUMP JUMPDEST SWAP1 SWAP2 DUP1 SWAP4 POP DUP2 RETURNDATASIZE DUP4 GT PUSH2 0x10C9 JUMPI JUMPDEST PUSH2 0x10B5 DUP2 DUP4 PUSH2 0x3738 JUMP JUMPDEST DUP2 ADD SUB SLT PUSH2 0x689 JUMPI POP MLOAD PUSH2 0x61D CODESIZE DUP1 PUSH2 0x107B JUMP JUMPDEST POP RETURNDATASIZE PUSH2 0x10AB JUMP JUMPDEST POP DUP4 MLOAD SWAP1 RETURNDATASIZE SWAP1 DUP3 RETURNDATACOPY RETURNDATASIZE SWAP1 REVERT JUMPDEST SWAP1 SWAP8 POP DUP5 DUP2 DUP2 RETURNDATASIZE DUP4 GT PUSH2 0x1105 JUMPI JUMPDEST PUSH2 0x10F4 DUP2 DUP4 PUSH2 0x3738 JUMP JUMPDEST DUP2 ADD SUB SLT PUSH2 0x342 JUMPI MLOAD SWAP7 PUSH1 0x24 PUSH2 0x1052 JUMP JUMPDEST POP RETURNDATASIZE PUSH2 0x10EA JUMP JUMPDEST DUP7 MLOAD RETURNDATASIZE DUP6 DUP3 RETURNDATACOPY RETURNDATASIZE SWAP1 REVERT JUMPDEST SWAP6 POP DUP4 DUP8 DUP2 RETURNDATASIZE DUP4 GT PUSH2 0x113F JUMPI JUMPDEST PUSH2 0x112D DUP2 DUP4 PUSH2 0x3738 JUMP JUMPDEST DUP2 ADD SUB SLT PUSH2 0x5AA JUMPI PUSH1 0x24 SWAP7 MLOAD SWAP6 PUSH2 0x102A JUMP JUMPDEST POP RETURNDATASIZE PUSH2 0x1123 JUMP JUMPDEST DUP6 MLOAD RETURNDATASIZE DUP5 DUP3 RETURNDATACOPY RETURNDATASIZE SWAP1 REVERT JUMPDEST POP POP POP CALLVALUE PUSH2 0x5AA JUMPI DUP2 PUSH1 0x3 NOT CALLDATASIZE ADD SLT PUSH2 0x5AA JUMPI PUSH1 0x20 SWAP1 PUSH1 0x5 SLOAD SWAP1 MLOAD SWAP1 DUP2 MSTORE RETURN JUMPDEST DUP3 DUP6 DUP6 CALLVALUE PUSH2 0x5AA JUMPI PUSH1 0x20 SWAP1 DUP2 PUSH1 0x3 NOT CALLDATASIZE ADD SLT PUSH2 0x342 JUMPI PUSH2 0x118E PUSH2 0x3570 JUMP JUMPDEST SWAP1 CALLER DUP5 MSTORE PUSH1 0xC DUP4 MSTORE PUSH2 0x11A6 PUSH1 0xFF DUP3 DUP7 KECCAK256 SLOAD AND ISZERO PUSH2 0x394C JUMP JUMPDEST PUSH1 0x1 PUSH1 0x1 PUSH1 0xA0 SHL SUB SWAP2 DUP3 AND SWAP3 DUP4 ISZERO PUSH2 0x12E8 JUMPI CALLER DUP5 EQ PUSH2 0x12AE JUMPI CALLER DUP6 MSTORE PUSH1 0x1A DUP2 MSTORE DUP3 DUP3 DUP7 KECCAK256 SLOAD AND PUSH2 0x1261 JUMPI CALLER DUP6 MSTORE PUSH1 0x1A DUP2 MSTORE DUP2 DUP6 KECCAK256 DUP1 SLOAD PUSH1 0x1 PUSH1 0x1 PUSH1 0xA0 SHL SUB NOT AND DUP6 OR SWAP1 SSTORE DUP4 DUP6 MSTORE PUSH1 0x1B SWAP1 MSTORE DUP4 KECCAK256 DUP1 SLOAD SWAP1 PUSH1 0x1 PUSH1 0x40 SHL DUP3 LT ISZERO PUSH2 0x124E JUMPI SWAP1 PUSH2 0x1212 SWAP2 PUSH1 0x1 DUP3 ADD DUP2 SSTORE PUSH2 0x3845 JUMP JUMPDEST DUP2 SWAP3 SWAP2 SLOAD SWAP1 PUSH1 0x3 SHL SWAP2 CALLER DUP4 SHL SWAP3 SHL NOT AND OR SWAP1 SSTORE CALLER SWAP1 PUSH32 0x5F1CA2FCC108B751843A763E60D2201F593516109D7DBB1B700468F2D4190BB7 DUP4 DUP1 LOG3 DUP1 RETURN JUMPDEST PUSH4 0x4E487B71 PUSH1 0xE0 SHL DUP6 MSTORE PUSH1 0x41 DUP7 MSTORE PUSH1 0x24 DUP6 REVERT JUMPDEST DUP6 SWAP1 PUSH1 0x84 SWAP3 MLOAD SWAP2 PUSH3 0x461BCD PUSH1 0xE5 SHL DUP4 MSTORE DUP3 ADD MSTORE PUSH1 0x22 PUSH1 0x24 DUP3 ADD MSTORE PUSH32 0x416C726561647920726567697374657265642077697468206120726566657272 PUSH1 0x44 DUP3 ADD MSTORE PUSH2 0x32B9 PUSH1 0xF1 SHL PUSH1 0x64 DUP3 ADD MSTORE REVERT JUMPDEST DUP6 SWAP1 PUSH1 0x64 SWAP3 MLOAD SWAP2 PUSH3 0x461BCD PUSH1 0xE5 SHL DUP4 MSTORE DUP3 ADD MSTORE PUSH1 0x15 PUSH1 0x24 DUP3 ADD MSTORE PUSH21 0x21B0B73737BA103932B332B9103CB7BAB939B2B633 PUSH1 0x59 SHL PUSH1 0x44 DUP3 ADD MSTORE REVERT JUMPDEST DUP6 SWAP1 PUSH1 0x64 SWAP3 MLOAD SWAP2 PUSH3 0x461BCD PUSH1 0xE5 SHL DUP4 MSTORE DUP3 ADD MSTORE PUSH1 0x18 PUSH1 0x24 DUP3 ADD MSTORE PUSH32 0x496E76616C696420726566657272657220616464726573730000000000000000 PUSH1 0x44 DUP3 ADD MSTORE REVERT JUMPDEST POP POP POP CALLVALUE PUSH2 0x5AA JUMPI DUP2 PUSH1 0x3 NOT CALLDATASIZE ADD SLT PUSH2 0x5AA JUMPI PUSH1 0x20 SWAP1 MLOAD PUSH1 0x5 DUP2 MSTORE RETURN JUMPDEST POP POP POP CALLVALUE PUSH2 0x5AA JUMPI DUP2 PUSH1 0x3 NOT CALLDATASIZE ADD SLT PUSH2 0x5AA JUMPI PUSH1 0x1 SLOAD SWAP1 MLOAD PUSH1 0x1 PUSH1 0x1 PUSH1 0xA0 SHL SUB SWAP1 SWAP2 AND DUP2 MSTORE PUSH1 0x20 SWAP1 RETURN JUMPDEST POP POP CALLVALUE PUSH2 0x342 JUMPI PUSH1 0x20 SWAP1 DUP2 PUSH1 0x3 NOT CALLDATASIZE ADD SLT PUSH2 0x587 JUMPI CALLDATALOAD DUP1 DUP5 MSTORE PUSH1 0x13 DUP3 MSTORE DUP3 DUP5 KECCAK256 SLOAD PUSH1 0x1 PUSH1 0x1 PUSH1 0xA0 SHL SUB AND SWAP4 SWAP1 SWAP3 SWAP1 PUSH2 0x13AA DUP6 ISZERO ISZERO PUSH2 0x3CE2 JUMP JUMPDEST PUSH2 0x13B2 PUSH2 0x48B6 JUMP JUMPDEST DUP2 SWAP6 DUP3 JUMPDEST DUP2 DUP5 MSTORE PUSH1 0x12 DUP1 DUP8 MSTORE DUP6 DUP6 KECCAK256 DUP1 SLOAD DUP4 LT ISZERO PUSH2 0x1437 JUMPI PUSH2 0x13D5 DUP4 DUP11 SWAP3 PUSH2 0x367E JUMP JUMPDEST POP SLOAD EQ PUSH2 0x13EB JUMPI POP PUSH2 0x13E6 SWAP1 PUSH2 0x3CC6 JUMP JUMPDEST PUSH2 0x13B6 JUMP JUMPDEST PUSH1 0x60 SWAP9 POP PUSH2 0x140E SWAP4 POP DUP5 DUP7 SWAP2 PUSH2 0x1408 SWAP5 PUSH2 0x141E SWAP8 MSTORE DUP9 MSTORE KECCAK256 PUSH2 0x367E JUMP JUMPDEST POP PUSH2 0x4861 JUMP JUMPDEST SWAP4 PUSH2 0x1419 PUSH1 0x1 PUSH2 0x3D25 JUMP JUMPDEST PUSH2 0x3DAF JUMP JUMPDEST PUSH1 0xC0 DUP6 DUP6 ADD MLOAD SWAP5 ADD MLOAD ISZERO ISZERO SWAP3 DUP3 MLOAD SWAP5 DUP6 MSTORE DUP5 ADD MSTORE DUP3 ADD MSTORE RETURN JUMPDEST POP POP POP POP SWAP4 PUSH2 0x141E SWAP2 POP PUSH2 0x1419 PUSH1 0x60 SWAP7 PUSH2 0x3D25 JUMP JUMPDEST POP POP CALLVALUE PUSH2 0x342 JUMPI PUSH1 0x20 SWAP1 DUP2 PUSH1 0x3 NOT CALLDATASIZE ADD SLT PUSH2 0x587 JUMPI DUP1 CALLDATALOAD SWAP1 CALLER DUP6 MSTORE PUSH1 0xC DUP4 MSTORE PUSH2 0x147B PUSH1 0xFF DUP6 DUP8 KECCAK256 SLOAD AND ISZERO PUSH2 0x394C JUMP JUMPDEST DUP2 ISZERO SWAP1 PUSH2 0x1488 DUP3 ISZERO PUSH2 0x3AF4 JUMP JUMPDEST DUP6 SLOAD PUSH1 0x1 PUSH1 0x1 PUSH1 0xA0 SHL SUB SWAP5 SWAP1 PUSH2 0x14A1 SWAP1 DUP7 AND ISZERO ISZERO PUSH2 0x39C9 JUMP JUMPDEST DUP5 PUSH1 0x3 SLOAD AND DUP1 ISZERO PUSH2 0x161C JUMPI PUSH8 0xDE0B6B3A7640000 SWAP4 DUP5 DUP7 MUL SWAP1 DUP7 DUP3 DIV DUP7 EQ OR ISZERO PUSH2 0x1609 JUMPI PUSH2 0x14D1 PUSH1 0x9 SLOAD DUP8 PUSH2 0x3A0A JUMP JUMPDEST DUP6 DUP2 MUL SWAP6 DUP2 DUP8 DIV EQ SWAP1 ISZERO OR ISZERO PUSH2 0x1609 JUMPI DUP8 MLOAD PUSH4 0x23B872DD PUSH1 0xE0 SHL DUP2 MSTORE CALLER DUP6 DUP3 ADD SWAP1 DUP2 MSTORE PUSH1 0x1 PUSH1 0x1 PUSH1 0xA0 SHL SUB PUSH32 0x0 AND PUSH1 0x20 DUP3 ADD MSTORE PUSH1 0x40 DUP2 ADD SWAP3 SWAP1 SWAP3 MSTORE SWAP2 DUP4 SWAP2 DUP4 SWAP2 SWAP1 DUP3 SWAP1 DUP13 SWAP1 DUP3 SWAP1 PUSH1 0x60 ADD SUB SWAP3 GAS CALL SWAP1 DUP2 ISZERO PUSH2 0x51F JUMPI DUP9 SWAP2 PUSH2 0x15EC JUMPI JUMPDEST POP ISZERO PUSH2 0x15B4 JUMPI POP POP PUSH1 0x0 DUP1 MLOAD PUSH1 0x20 PUSH2 0x48EF DUP4 CODECOPY DUP2 MLOAD SWAP2 MSTORE SWAP2 PUSH2 0x1570 PUSH2 0x4B4 SWAP3 PUSH2 0x3FFB JUMP JUMPDEST SWAP4 PUSH2 0x157A DUP6 PUSH2 0x4235 JUMP JUMPDEST PUSH2 0x1590 DUP2 PUSH1 0x3 SLOAD AND DUP7 DUP5 DUP5 DUP12 SLOAD AND PUSH2 0x48B PUSH2 0x3AD5 JUMP JUMPDEST PUSH1 0x3 SLOAD AND SWAP5 MLOAD SWAP2 DUP3 SWAP2 CALLER SWAP6 TIMESTAMP SWAP2 DUP5 PUSH1 0x40 SWAP2 SWAP5 SWAP4 SWAP3 PUSH1 0x60 DUP3 ADD SWAP6 DUP3 MSTORE PUSH1 0x20 DUP3 ADD MSTORE ADD MSTORE JUMP JUMPDEST DUP6 MLOAD PUSH3 0x461BCD PUSH1 0xE5 SHL DUP2 MSTORE SWAP2 DUP3 ADD MSTORE PUSH1 0x13 PUSH1 0x24 DUP3 ADD MSTORE PUSH19 0x115512081D1C985B9CD9995C8819985A5B1959 PUSH1 0x6A SHL PUSH1 0x44 DUP3 ADD MSTORE PUSH1 0x64 SWAP2 POP REVERT JUMPDEST PUSH2 0x1603 SWAP2 POP DUP3 RETURNDATASIZE DUP5 GT PUSH2 0x518 JUMPI PUSH2 0x50A DUP2 DUP4 PUSH2 0x3738 JUMP JUMPDEST CODESIZE PUSH2 0x154C JUMP JUMPDEST PUSH4 0x4E487B71 PUSH1 0xE0 SHL DUP10 MSTORE PUSH1 0x11 DUP5 MSTORE PUSH1 0x24 DUP10 REVERT JUMPDEST DUP7 MLOAD PUSH3 0x461BCD PUSH1 0xE5 SHL DUP2 MSTORE DUP1 DUP5 ADD DUP4 SWAP1 MSTORE PUSH1 0x12 PUSH1 0x24 DUP3 ADD MSTORE PUSH18 0x115512081B9BDD0818DBDB999A59DD5C9959 PUSH1 0x72 SHL PUSH1 0x44 DUP3 ADD MSTORE PUSH1 0x64 SWAP1 REVERT JUMPDEST POP POP POP CALLVALUE PUSH2 0x5AA JUMPI DUP2 PUSH1 0x3 NOT CALLDATASIZE ADD SLT PUSH2 0x5AA JUMPI PUSH1 0x20 SWAP1 PUSH1 0x19 SLOAD SWAP1 MLOAD SWAP1 DUP2 MSTORE RETURN JUMPDEST POP POP POP CALLVALUE PUSH2 0x5AA JUMPI DUP2 PUSH1 0x3 NOT CALLDATASIZE ADD SLT PUSH2 0x5AA JUMPI MLOAD PUSH32 0x0 PUSH1 0x1 PUSH1 0x1 PUSH1 0xA0 SHL SUB AND DUP2 MSTORE PUSH1 0x20 SWAP1 RETURN JUMPDEST POP POP POP CALLVALUE PUSH2 0x5AA JUMPI DUP2 PUSH1 0x3 NOT CALLDATASIZE ADD SLT PUSH2 0x5AA JUMPI PUSH1 0x20 SWAP1 PUSH1 0x16 SLOAD SWAP1 MLOAD SWAP1 DUP2 MSTORE RETURN JUMPDEST SWAP2 POP POP CALLVALUE PUSH2 0x342 JUMPI PUSH1 0x20 DUP1 PUSH1 0x3 NOT CALLDATASIZE ADD SLT PUSH2 0x587 JUMPI SWAP1 SWAP2 PUSH1 0x1 PUSH1 0x1 PUSH1 0xA0 SHL SUB PUSH2 0x1700 PUSH2 0x3570 JUMP JUMPDEST AND DUP5 MSTORE PUSH1 0x12 DUP3 MSTORE DUP1 DUP5 KECCAK256 SWAP2 DUP3 SLOAD SWAP2 PUSH2 0x1717 DUP4 PUSH2 0x4849 JUMP JUMPDEST SWAP3 PUSH2 0x1724 DUP3 MLOAD SWAP5 DUP6 PUSH2 0x3738 JUMP JUMPDEST DUP1 DUP5 MSTORE DUP3 DUP5 ADD DUP1 SWAP6 DUP9 MSTORE DUP4 DUP9 KECCAK256 DUP9 SWAP2 JUMPDEST DUP4 DUP4 LT PUSH2 0x17B4 JUMPI POP POP POP POP DUP1 MLOAD SWAP5 DUP3 DUP7 ADD SWAP4 DUP4 DUP8 MSTORE MLOAD DUP1 SWAP5 MSTORE DUP2 DUP7 ADD SWAP5 SWAP7 SWAP2 JUMPDEST DUP5 DUP4 LT PUSH2 0x1761 JUMPI DUP7 DUP7 SUB DUP8 RETURN JUMPDEST DUP8 MLOAD DUP1 MLOAD DUP8 MSTORE DUP1 DUP6 ADD MLOAD DUP8 DUP7 ADD MSTORE DUP1 DUP3 ADD MLOAD DUP8 DUP4 ADD MSTORE PUSH1 0x60 DUP1 DUP3 ADD MLOAD SWAP1 DUP9 ADD MSTORE PUSH1 0x80 DUP1 DUP3 ADD MLOAD SWAP1 DUP9 ADD MSTORE PUSH1 0xA0 DUP1 DUP3 ADD MLOAD SWAP1 DUP9 ADD MSTORE PUSH1 0xC0 SWAP1 DUP2 ADD MLOAD ISZERO ISZERO SWAP1 DUP8 ADD MSTORE SWAP7 DUP4 ADD SWAP7 SWAP5 DUP2 ADD SWAP5 PUSH1 0x1 SWAP1 SWAP3 ADD SWAP2 PUSH2 0x1754 JUMP JUMPDEST PUSH1 0x7 DUP7 PUSH1 0x1 SWAP3 PUSH2 0x17CB DUP6 SWAP14 SWAP10 SWAP11 SWAP12 SWAP14 SWAP13 SWAP9 SWAP13 PUSH2 0x4861 JUMP JUMPDEST DUP2 MSTORE ADD SWAP3 ADD SWAP3 ADD SWAP2 SWAP1 SWAP9 SWAP7 SWAP6 SWAP5 SWAP9 SWAP8 SWAP4 SWAP8 PUSH2 0x1734 JUMP JUMPDEST POP POP POP CALLVALUE PUSH2 0x5AA JUMPI DUP2 PUSH1 0x3 NOT CALLDATASIZE ADD SLT PUSH2 0x5AA JUMPI PUSH1 0x20 SWAP1 PUSH1 0x7 SLOAD SWAP1 MLOAD SWAP1 DUP2 MSTORE RETURN JUMPDEST POP POP POP CALLVALUE PUSH2 0x5AA JUMPI DUP2 PUSH1 0x3 NOT CALLDATASIZE ADD SLT PUSH2 0x5AA JUMPI PUSH1 0x20 SWAP1 PUSH1 0x14 SLOAD SWAP1 MLOAD SWAP1 DUP2 MSTORE RETURN JUMPDEST DUP4 DUP6 CALLVALUE PUSH2 0x689 JUMPI PUSH1 0x20 SWAP1 DUP2 PUSH1 0x3 NOT CALLDATASIZE ADD SLT PUSH2 0x689 JUMPI PUSH2 0x183E PUSH2 0x3570 JUMP JUMPDEST SWAP1 SWAP2 DUP3 SWAP2 DUP3 SWAP2 SWAP1 DUP3 SWAP1 PUSH1 0x1 PUSH1 0x1 PUSH1 0xA0 SHL SUB AND DUP2 JUMPDEST DUP2 DUP7 MSTORE PUSH1 0x12 DUP1 DUP6 MSTORE DUP9 DUP8 KECCAK256 DUP1 SLOAD DUP4 LT ISZERO PUSH2 0x18EC JUMPI PUSH1 0xFF PUSH1 0x6 PUSH2 0x1875 DUP6 DUP14 SWAP5 PUSH2 0x367E JUMP JUMPDEST POP ADD SLOAD AND PUSH2 0x188E JUMPI JUMPDEST POP POP PUSH2 0x1889 SWAP1 PUSH2 0x3CC6 JUMP JUMPDEST PUSH2 0x1852 JUMP JUMPDEST DUP3 SWAP7 SWAP5 PUSH2 0x18BC DUP4 SWAP11 PUSH1 0x1 PUSH2 0x18B3 PUSH2 0x1889 SWAP8 PUSH2 0x18DE SWAP7 DUP15 PUSH2 0x18E4 SWAP10 DUP15 DUP14 DUP4 MSTORE MSTORE KECCAK256 PUSH2 0x367E JUMP JUMPDEST POP ADD SLOAD SWAP1 PUSH2 0x3CD5 JUMP JUMPDEST SWAP10 DUP6 DUP11 MSTORE DUP8 MSTORE PUSH2 0x18D8 PUSH2 0x18D1 DUP10 DUP14 DUP13 KECCAK256 PUSH2 0x367E JUMP JUMPDEST POP SLOAD PUSH2 0x3DAF JUMP JUMPDEST SWAP1 PUSH2 0x3CD5 JUMP JUMPDEST SWAP4 PUSH2 0x3CC6 JUMP JUMPDEST SWAP5 SWAP1 DUP9 PUSH2 0x187E JUMP JUMPDEST DUP10 MLOAD DUP10 DUP2 MSTORE PUSH1 0x20 DUP2 ADD DUP7 SWAP1 MSTORE PUSH1 0x40 DUP2 ADD DUP9 SWAP1 MSTORE PUSH1 0x60 SWAP1 RETURN JUMPDEST SWAP3 SWAP1 POP CALLVALUE PUSH2 0x587 JUMPI DUP4 PUSH1 0x3 NOT CALLDATASIZE ADD SLT PUSH2 0x587 JUMPI DUP4 SLOAD DUP2 MLOAD PUSH4 0x70A08231 PUSH1 0xE0 SHL DUP2 MSTORE ADDRESS SWAP4 DUP2 ADD SWAP4 SWAP1 SWAP4 MSTORE PUSH1 0x1 PUSH1 0x1 PUSH1 0xA0 SHL SUB SWAP1 DUP2 AND SWAP4 SWAP1 PUSH1 0x20 DUP5 PUSH1 0x24 DUP2 DUP9 GAS STATICCALL SWAP4 DUP5 ISZERO PUSH2 0x19DD JUMPI DUP7 SWAP5 PUSH2 0x19A1 JUMPI JUMPDEST POP PUSH2 0x120 SWAP6 POP PUSH1 0x5 SLOAD SWAP1 PUSH1 0x6 SLOAD PUSH1 0xB SLOAD SWAP1 DUP3 PUSH1 0x1 SLOAD AND SWAP3 PUSH1 0x2 SLOAD AND SWAP4 PUSH1 0x7 SLOAD SWAP7 PUSH1 0x8 SLOAD SWAP9 DUP2 MLOAD SWAP11 DUP12 MSTORE PUSH1 0x20 DUP12 ADD MSTORE DUP10 ADD MSTORE PUSH1 0x60 DUP9 ADD MSTORE PUSH1 0x80 DUP8 ADD MSTORE PUSH1 0xA0 DUP7 ADD MSTORE PUSH1 0xC0 DUP6 ADD MSTORE DUP4 ADD MSTORE PUSH2 0x100 DUP3 ADD MSTORE RETURN JUMPDEST SWAP1 SWAP4 POP PUSH1 0x20 DUP2 RETURNDATASIZE DUP3 GT PUSH2 0x19D5 JUMPI JUMPDEST DUP2 PUSH2 0x19BC PUSH1 0x20 SWAP4 DUP4 PUSH2 0x3738 JUMP JUMPDEST DUP2 ADD SUB SLT PUSH2 0x19D1 JUMPI PUSH2 0x120 SWAP6 POP MLOAD SWAP3 CODESIZE PUSH2 0x1951 JUMP JUMPDEST DUP6 DUP1 REVERT JUMPDEST RETURNDATASIZE SWAP2 POP PUSH2 0x19AF JUMP JUMPDEST DUP4 MLOAD RETURNDATASIZE DUP9 DUP3 RETURNDATACOPY RETURNDATASIZE SWAP1 REVERT JUMPDEST POP POP POP CALLVALUE PUSH2 0x5AA JUMPI DUP2 PUSH1 0x3 NOT CALLDATASIZE ADD SLT PUSH2 0x5AA JUMPI PUSH1 0x20 SWAP1 PUSH1 0xA SLOAD SWAP1 MLOAD SWAP1 DUP2 MSTORE RETURN JUMPDEST POP POP POP CALLVALUE PUSH2 0x5AA JUMPI DUP2 PUSH1 0x3 NOT CALLDATASIZE ADD SLT PUSH2 0x5AA JUMPI PUSH1 0x20 SWAP1 PUSH1 0x17 SLOAD SWAP1 MLOAD SWAP1 DUP2 MSTORE RETURN JUMPDEST POP POP CALLVALUE PUSH2 0x342 JUMPI PUSH1 0x20 CALLDATASIZE PUSH1 0x3 NOT ADD SLT PUSH2 0x342 JUMPI DUP1 CALLDATALOAD SWAP1 PUSH2 0x1A71 CALLER PUSH32 0x0 PUSH1 0x1 PUSH1 0x1 PUSH1 0xA0 SHL SUB AND EQ PUSH2 0x385D JUMP JUMPDEST DUP2 ISZERO PUSH2 0x1AB1 JUMPI POP SWAP1 PUSH32 0x787A1FCA55641CE34A438271930BBB9401DF20DB2B4F510D4F252227D85DF43D SWAP2 PUSH1 0x10 SLOAD SWAP1 DUP1 PUSH1 0x10 SSTORE DUP3 MLOAD SWAP2 DUP3 MSTORE PUSH1 0x20 DUP3 ADD MSTORE LOG1 DUP1 RETURN JUMPDEST PUSH1 0x64 SWAP1 PUSH1 0x20 DUP5 MLOAD SWAP2 PUSH3 0x461BCD PUSH1 0xE5 SHL DUP4 MSTORE DUP3 ADD MSTORE PUSH1 0x1A PUSH1 0x24 DUP3 ADD MSTORE PUSH32 0x415059206D7573742062652067726561746572207468616E2030000000000000 PUSH1 0x44 DUP3 ADD MSTORE REVERT JUMPDEST POP POP POP CALLVALUE PUSH2 0x5AA JUMPI DUP2 PUSH1 0x3 NOT CALLDATASIZE ADD SLT PUSH2 0x5AA JUMPI PUSH1 0x20 SWAP1 PUSH1 0x8 SLOAD SWAP1 MLOAD SWAP1 DUP2 MSTORE RETURN JUMPDEST POP POP CALLVALUE PUSH2 0x342 JUMPI PUSH1 0x20 CALLDATASIZE PUSH1 0x3 NOT ADD SLT PUSH2 0x342 JUMPI PUSH32 0x6E838F2A03741F5F2AFF5480963B672FB0DD8430A4DC75DB9B67CE009733C9FE SWAP2 PUSH1 0xA0 SWAP2 CALLDATALOAD PUSH2 0x1B81 CALLER PUSH32 0x0 PUSH1 0x1 PUSH1 0x1 PUSH1 0xA0 SHL SUB AND EQ PUSH2 0x385D JUMP JUMPDEST PUSH2 0x1B8C DUP2 ISZERO ISZERO PUSH2 0x3896 JUMP JUMPDEST PUSH1 0x5 SLOAD SWAP2 DUP2 PUSH1 0x5 SSTORE DUP1 MLOAD SWAP3 PUSH1 0x60 DUP5 MSTORE PUSH1 0x5 PUSH1 0x60 DUP6 ADD MSTORE PUSH5 0x2A27A5A2A7 PUSH1 0xD9 SHL PUSH1 0x80 DUP6 ADD MSTORE PUSH1 0x20 DUP5 ADD MSTORE DUP3 ADD MSTORE LOG1 DUP1 RETURN JUMPDEST POP POP POP CALLVALUE PUSH2 0x5AA JUMPI DUP2 PUSH1 0x3 NOT CALLDATASIZE ADD SLT PUSH2 0x5AA JUMPI PUSH1 0x20 SWAP1 PUSH1 0x6 SLOAD SWAP1 MLOAD SWAP1 DUP2 MSTORE RETURN JUMPDEST POP POP CALLVALUE PUSH2 0x342 JUMPI PUSH1 0x20 CALLDATASIZE PUSH1 0x3 NOT ADD SLT PUSH2 0x342 JUMPI PUSH32 0x6E838F2A03741F5F2AFF5480963B672FB0DD8430A4DC75DB9B67CE009733C9FE SWAP2 PUSH1 0xA0 SWAP2 CALLDATALOAD PUSH2 0x1C49 CALLER PUSH32 0x0 PUSH1 0x1 PUSH1 0x1 PUSH1 0xA0 SHL SUB AND EQ PUSH2 0x385D JUMP JUMPDEST PUSH2 0x1C54 DUP2 ISZERO ISZERO PUSH2 0x3896 JUMP JUMPDEST PUSH1 0x6 SLOAD SWAP2 DUP2 PUSH1 0x6 SSTORE DUP1 MLOAD SWAP3 PUSH1 0x60 DUP5 MSTORE PUSH1 0xA PUSH1 0x60 DUP6 ADD MSTORE PUSH10 0x29AA20A12622A1A7A4A7 PUSH1 0xB1 SHL PUSH1 0x80 DUP6 ADD MSTORE PUSH1 0x20 DUP5 ADD MSTORE DUP3 ADD MSTORE LOG1 DUP1 RETURN JUMPDEST POP POP SWAP1 CALLVALUE PUSH2 0x342 JUMPI PUSH1 0x20 SWAP1 DUP2 PUSH1 0x3 NOT CALLDATASIZE ADD SLT PUSH2 0x587 JUMPI DUP3 SWAP2 SWAP3 CALLDATALOAD SWAP3 CALLER DUP6 MSTORE PUSH1 0xC DUP2 MSTORE PUSH1 0xFF PUSH2 0x1CBC DUP2 DUP5 DUP9 KECCAK256 SLOAD AND ISZERO PUSH2 0x394C JUMP JUMPDEST DUP5 DUP7 MSTORE PUSH1 0x13 DUP3 MSTORE DUP3 DUP7 KECCAK256 SLOAD PUSH1 0x1 PUSH1 0x1 PUSH1 0xA0 SHL SUB SWAP1 PUSH2 0x1CDD SWAP1 DUP3 AND CALLER EQ PUSH2 0x3FBD JUMP JUMPDEST DUP7 SWAP5 DUP6 SWAP3 DUP4 DUP1 JUMPDEST CALLER DUP12 MSTORE PUSH1 0x12 DUP1 DUP9 MSTORE DUP9 DUP13 KECCAK256 DUP1 SLOAD DUP4 LT ISZERO PUSH2 0x1F51 JUMPI SWAP11 PUSH2 0x1D05 DUP4 DUP3 SWAP13 SWAP14 PUSH2 0x367E JUMP JUMPDEST POP SLOAD EQ PUSH2 0x1D1E JUMPI POP PUSH2 0x1D16 SWAP1 PUSH2 0x3CC6 JUMP JUMPDEST SWAP9 SWAP8 SWAP9 PUSH2 0x1CE4 JUMP JUMPDEST SWAP6 POP SWAP8 SWAP9 POP POP CALLER DUP10 MSTORE DUP4 DUP6 MSTORE PUSH2 0x1D47 PUSH2 0x1D39 DUP9 DUP9 DUP13 KECCAK256 PUSH2 0x367E JUMP JUMPDEST POP SWAP2 PUSH1 0x6 DUP1 SWAP4 ADD SLOAD AND PUSH2 0x3D63 JUMP JUMPDEST CALLER DUP10 MSTORE DUP4 DUP6 MSTORE PUSH1 0x2 PUSH2 0x1D5B DUP9 DUP9 DUP13 KECCAK256 PUSH2 0x367E JUMP JUMPDEST POP ADD SLOAD CALLER DUP11 MSTORE DUP5 DUP7 MSTORE PUSH1 0x3 PUSH2 0x1D72 DUP10 DUP10 DUP14 KECCAK256 PUSH2 0x367E JUMP JUMPDEST POP ADD SLOAD SWAP1 PUSH3 0x15180 SWAP2 DUP3 DUP2 MUL SWAP3 DUP2 DUP5 DIV EQ SWAP1 ISZERO OR ISZERO PUSH2 0x1F3E JUMPI SWAP1 PUSH2 0x1D95 SWAP2 PUSH2 0x3CD5 JUMP JUMPDEST TIMESTAMP LT PUSH2 0x1F04 JUMPI SWAP2 DUP5 SWAP2 PUSH2 0x1DF8 DUP11 PUSH2 0x1E3E SWAP6 PUSH2 0x1DDA PUSH2 0x1DB2 DUP14 PUSH2 0x3DAF JUMP JUMPDEST SWAP12 CALLER DUP5 MSTORE DUP10 DUP9 MSTORE DUP12 PUSH2 0x1DC6 DUP3 DUP3 DUP8 KECCAK256 PUSH2 0x367E JUMP JUMPDEST POP SWAP5 PUSH1 0x1 DUP1 SWAP7 ADD SLOAD SWAP12 CALLER DUP3 MSTORE DUP11 MSTORE KECCAK256 PUSH2 0x367E JUMP JUMPDEST POP ADD PUSH1 0xFF NOT DUP2 SLOAD AND SWAP1 SSTORE PUSH1 0x14 PUSH2 0x1DF1 DUP9 DUP3 SLOAD PUSH2 0x3DA2 JUMP JUMPDEST SWAP1 SSTORE PUSH2 0x3D25 JUMP JUMPDEST PUSH2 0x1E01 CALLER PUSH2 0x417C JUMP JUMPDEST PUSH2 0x1E0B DUP9 DUP7 PUSH2 0x3CD5 JUMP JUMPDEST DUP11 SLOAD DUP9 MLOAD PUSH4 0xA9059CBB PUSH1 0xE0 SHL DUP2 MSTORE CALLER SWAP4 DUP2 ADD SWAP4 DUP5 MSTORE PUSH1 0x20 DUP5 ADD SWAP3 SWAP1 SWAP3 MSTORE SWAP1 SWAP5 DUP6 SWAP4 SWAP1 SWAP2 AND SWAP2 DUP4 SWAP2 DUP13 SWAP2 DUP4 SWAP2 PUSH1 0x40 SWAP1 SWAP2 ADD SWAP1 JUMP JUMPDEST SUB SWAP3 GAS CALL SWAP1 DUP2 ISZERO PUSH2 0x1EFA JUMPI SWAP1 PUSH2 0x1E5B SWAP2 DUP9 SWAP2 PUSH2 0x1EDD JUMPI JUMPDEST POP PUSH2 0x3C82 JUMP JUMPDEST DUP5 DUP5 ISZERO ISZERO SWAP2 DUP3 PUSH2 0x1EC9 JUMPI JUMPDEST DUP5 MLOAD SWAP1 DUP2 MSTORE PUSH32 0x7FC4727E062E336010F2C282598EF5F14FACB3DE68CF8195C2F23E1454B2B74E DUP5 CALLER SWAP3 LOG3 PUSH2 0x1E98 JUMPI DUP5 DUP1 RETURN JUMPDEST PUSH32 0xF87CFA2D5FEAEA949AD65BB76A26D8553381BCB6382ADBC83DEDD48961BF32D9 SWAP2 MLOAD SWAP3 DUP4 MSTORE CALLER SWAP3 LOG3 CODESIZE DUP1 DUP1 DUP1 DUP5 DUP1 RETURN JUMPDEST PUSH2 0x1ED5 DUP7 PUSH1 0x15 SLOAD PUSH2 0x3CD5 JUMP JUMPDEST PUSH1 0x15 SSTORE PUSH2 0x1E66 JUMP JUMPDEST PUSH2 0x1EF4 SWAP2 POP DUP5 RETURNDATASIZE DUP7 GT PUSH2 0x518 JUMPI PUSH2 0x50A DUP2 DUP4 PUSH2 0x3738 JUMP JUMPDEST CODESIZE PUSH2 0x1E55 JUMP JUMPDEST DUP5 MLOAD RETURNDATASIZE DUP10 DUP3 RETURNDATACOPY RETURNDATASIZE SWAP1 REVERT JUMPDEST DUP6 MLOAD PUSH3 0x461BCD PUSH1 0xE5 SHL DUP2 MSTORE DUP1 DUP4 ADD DUP7 SWAP1 MSTORE PUSH1 0x14 PUSH1 0x24 DUP3 ADD MSTORE PUSH20 0x14DD1A5B1B081A5B881B1BD8DAC81C195C9A5BD9 PUSH1 0x62 SHL PUSH1 0x44 DUP3 ADD MSTORE PUSH1 0x64 SWAP1 REVERT JUMPDEST PUSH4 0x4E487B71 PUSH1 0xE0 SHL DUP12 MSTORE PUSH1 0x11 DUP5 MSTORE PUSH1 0x24 DUP12 REVERT JUMPDEST POP POP POP PUSH2 0x1E3E SWAP4 SWAP2 POP SWAP2 PUSH2 0x1DF8 DUP7 SWAP4 PUSH2 0x3D25 JUMP JUMPDEST POP POP DUP3 PUSH1 0x3 NOT CALLDATASIZE ADD SLT PUSH2 0x342 JUMPI CALLER DUP4 MSTORE PUSH1 0x20 PUSH1 0xC DUP2 MSTORE PUSH2 0x1F8B PUSH1 0xFF DUP5 DUP7 KECCAK256 SLOAD AND ISZERO PUSH2 0x394C JUMP JUMPDEST CALLVALUE ISZERO SWAP1 PUSH2 0x1F98 DUP3 ISZERO PUSH2 0x398D JUMP JUMPDEST PUSH1 0x1 SLOAD PUSH1 0x1 PUSH1 0x1 PUSH1 0xA0 SHL SUB SWAP3 SWAP1 DUP4 AND SWAP1 PUSH2 0x1FB3 DUP3 ISZERO ISZERO PUSH2 0x3B40 JUMP JUMPDEST PUSH3 0xF4240 SWAP1 DUP2 CALLVALUE MUL SWAP2 CALLVALUE DUP4 DIV EQ OR ISZERO PUSH2 0x2178 JUMPI PUSH1 0x6 SLOAD PUSH2 0x1FD2 SWAP2 PUSH2 0x3A33 JUMP JUMPDEST SWAP4 DUP6 MLOAD PUSH4 0x70A08231 PUSH1 0xE0 SHL DUP2 MSTORE ADDRESS DUP3 DUP3 ADD MSTORE DUP4 DUP2 PUSH1 0x24 DUP2 DUP7 GAS STATICCALL DUP1 ISZERO PUSH2 0x51F JUMPI DUP7 SWAP2 DUP10 SWAP2 PUSH2 0x2143 JUMPI JUMPDEST POP LT PUSH2 0x2100 JUMPI DUP6 MLOAD PUSH4 0xA9059CBB PUSH1 0xE0 SHL DUP2 MSTORE CALLER SWAP2 DUP2 ADD SWAP2 DUP3 MSTORE PUSH1 0x20 DUP3 ADD DUP7 SWAP1 MSTORE SWAP4 SWAP3 SWAP2 DUP3 SWAP2 DUP6 SWAP2 SWAP1 DUP3 SWAP1 DUP11 SWAP1 DUP3 SWAP1 PUSH1 0x40 ADD SUB SWAP3 GAS CALL DUP1 ISZERO PUSH2 0xDAE JUMPI PUSH32 0x48A1F8A6C840B32621CEAB4439A2CCD00B337E705DFDCDEC0B40C49ABF3E6BE3 SWAP4 PUSH2 0x206A SWAP3 DUP9 SWAP3 PUSH2 0x20E3 JUMPI JUMPDEST POP POP PUSH2 0x3B9A JUMP JUMPDEST PUSH2 0x20A5 DUP6 DUP1 DUP1 DUP1 CALLVALUE DUP7 PUSH32 0x0 AND GAS CALL PUSH2 0x209F PUSH2 0x3A53 JUMP JUMPDEST POP PUSH2 0x3A93 JUMP JUMPDEST PUSH2 0x20BF DUP2 PUSH1 0x1 SLOAD AND DUP5 PUSH2 0x20B6 PUSH2 0x3C62 JUMP JUMPDEST SWAP2 CALLVALUE SWAP1 CALLER PUSH2 0x478E JUMP JUMPDEST PUSH1 0x1 SLOAD SWAP4 MLOAD SWAP3 DUP4 MSTORE CALLVALUE PUSH1 0x20 DUP5 ADD MSTORE TIMESTAMP PUSH1 0x40 DUP5 ADD MSTORE SWAP1 SWAP3 AND SWAP2 CALLER SWAP2 DUP1 PUSH1 0x60 DUP2 ADD PUSH2 0x4B4 JUMP JUMPDEST PUSH2 0x20F9 SWAP3 POP DUP1 RETURNDATASIZE LT PUSH2 0x518 JUMPI PUSH2 0x50A DUP2 DUP4 PUSH2 0x3738 JUMP JUMPDEST CODESIZE DUP1 PUSH2 0x2063 JUMP JUMPDEST DUP6 MLOAD PUSH3 0x461BCD PUSH1 0xE5 SHL DUP2 MSTORE SWAP1 DUP2 ADD DUP4 SWAP1 MSTORE PUSH1 0x1B PUSH1 0x24 DUP3 ADD MSTORE PUSH32 0x496E73756666696369656E742055534454206C69717569646974790000000000 PUSH1 0x44 DUP3 ADD MSTORE PUSH1 0x64 SWAP1 REVERT JUMPDEST DUP1 SWAP3 POP DUP6 DUP1 SWAP3 POP RETURNDATASIZE DUP4 GT PUSH2 0x2171 JUMPI JUMPDEST PUSH2 0x215C DUP2 DUP4 PUSH2 0x3738 JUMP JUMPDEST DUP2 ADD SUB SLT PUSH2 0x216D JUMPI DUP6 SWAP1 MLOAD CODESIZE PUSH2 0x1FFB JUMP JUMPDEST DUP8 DUP1 REVERT JUMPDEST POP RETURNDATASIZE PUSH2 0x2152 JUMP JUMPDEST PUSH4 0x4E487B71 PUSH1 0xE0 SHL DUP8 MSTORE PUSH1 0x11 DUP6 MSTORE PUSH1 0x24 DUP8 REVERT JUMPDEST POP POP POP CALLVALUE PUSH2 0x5AA JUMPI PUSH1 0x20 DUP1 PUSH1 0x3 NOT CALLDATASIZE ADD SLT PUSH2 0x342 JUMPI PUSH1 0x1 PUSH1 0x1 PUSH1 0xA0 SHL SUB SWAP3 DUP4 PUSH2 0x21B2 PUSH2 0x3570 JUMP JUMPDEST AND DUP2 MSTORE PUSH1 0x1B DUP3 MSTORE DUP3 DUP2 KECCAK256 SWAP2 DUP4 MLOAD SWAP1 DUP2 DUP2 DUP6 SLOAD SWAP2 DUP3 DUP2 MSTORE ADD SWAP1 DUP2 SWAP6 DUP6 MSTORE DUP3 DUP6 KECCAK256 SWAP1 DUP6 JUMPDEST DUP2 DUP2 LT PUSH2 0x2220 JUMPI POP POP POP DUP3 PUSH2 0x21EA SWAP2 SUB DUP4 PUSH2 0x3738 JUMP JUMPDEST DUP5 MLOAD SWAP5 DUP2 DUP7 ADD SWAP3 DUP3 DUP8 MSTORE MLOAD DUP1 SWAP4 MSTORE DUP6 ADD SWAP4 SWAP3 JUMPDEST DUP3 DUP2 LT PUSH2 0x220A JUMPI DUP6 DUP6 SUB DUP7 RETURN JUMPDEST DUP4 MLOAD DUP8 AND DUP6 MSTORE SWAP4 DUP2 ADD SWAP4 SWAP3 DUP2 ADD SWAP3 PUSH1 0x1 ADD PUSH2 0x21FD JUMP JUMPDEST DUP3 SLOAD DUP11 AND DUP5 MSTORE SWAP3 DUP5 ADD SWAP3 PUSH1 0x1 SWAP3 DUP4 ADD SWAP3 ADD PUSH2 0x21D4 JUMP JUMPDEST POP POP CALLVALUE PUSH2 0x342 JUMPI PUSH1 0x20 SWAP1 DUP2 PUSH1 0x3 NOT CALLDATASIZE ADD SLT PUSH2 0x587 JUMPI DUP1 CALLDATALOAD SWAP2 CALLER DUP6 MSTORE PUSH1 0xC DUP2 MSTORE PUSH1 0xFF SWAP4 PUSH2 0x2267 DUP6 DUP3 DUP9 KECCAK256 SLOAD AND ISZERO PUSH2 0x394C JUMP JUMPDEST DUP4 DUP7 MSTORE PUSH1 0x13 DUP3 MSTORE DUP1 DUP7 KECCAK256 SLOAD PUSH1 0x1 PUSH1 0x1 PUSH1 0xA0 SHL SUB SWAP4 SWAP1 PUSH2 0x2289 SWAP1 DUP6 AND CALLER EQ PUSH2 0x3FBD JUMP JUMPDEST DUP7 SWAP4 DUP8 JUMPDEST CALLER DUP10 MSTORE PUSH1 0x12 DUP1 DUP7 MSTORE DUP5 DUP11 KECCAK256 DUP1 SLOAD DUP4 LT ISZERO PUSH2 0x2452 JUMPI PUSH2 0x22AC DUP4 DUP11 SWAP3 PUSH2 0x367E JUMP JUMPDEST POP SLOAD EQ PUSH2 0x22C2 JUMPI POP PUSH2 0x22BD SWAP1 PUSH2 0x3CC6 JUMP JUMPDEST PUSH2 0x228D JUMP JUMPDEST SWAP7 SWAP8 PUSH2 0x22EB SWAP2 SWAP3 SWAP4 SWAP5 SWAP6 SWAP7 POP CALLER DUP11 MSTORE DUP8 DUP8 MSTORE PUSH1 0x6 PUSH2 0x22E2 DUP5 DUP9 DUP14 KECCAK256 PUSH2 0x367E JUMP JUMPDEST POP ADD SLOAD AND PUSH2 0x3D63 JUMP JUMPDEST PUSH2 0x22F4 DUP8 PUSH2 0x3DAF JUMP JUMPDEST SWAP6 DUP7 ISZERO PUSH2 0x2417 JUMPI SWAP1 PUSH2 0x2325 SWAP2 CALLER DUP11 MSTORE DUP1 DUP8 MSTORE DUP10 PUSH1 0x5 PUSH2 0x2315 DUP5 DUP10 DUP5 KECCAK256 PUSH2 0x367E JUMP JUMPDEST POP ADD SSTORE CALLER DUP11 MSTORE DUP7 MSTORE DUP5 DUP10 KECCAK256 PUSH2 0x367E JUMP JUMPDEST POP TIMESTAMP SWAP1 DUP4 ADD SSTORE DUP7 SLOAD DUP4 MLOAD PUSH4 0xA9059CBB PUSH1 0xE0 SHL DUP2 MSTORE CALLER DUP2 DUP6 ADD SWAP1 DUP2 MSTORE PUSH1 0x20 DUP2 ADD DUP9 SWAP1 MSTORE SWAP1 SWAP3 DUP7 SWAP3 DUP5 SWAP3 DUP4 SWAP1 SUB PUSH1 0x40 ADD SWAP2 DUP4 SWAP2 DUP13 SWAP2 AND GAS CALL SWAP1 DUP2 ISZERO PUSH2 0x240D JUMPI DUP8 SWAP2 PUSH2 0x23F0 JUMPI JUMPDEST POP ISZERO PUSH2 0x23B6 JUMPI POP SWAP1 PUSH32 0xF87CFA2D5FEAEA949AD65BB76A26D8553381BCB6382ADBC83DEDD48961BF32D9 SWAP2 PUSH1 0x15 PUSH2 0x23A0 DUP6 DUP3 SLOAD PUSH2 0x3CD5 JUMP JUMPDEST SWAP1 SSTORE MLOAD SWAP3 DUP4 MSTORE CALLER SWAP3 LOG3 PUSH2 0x23B3 PUSH1 0x1 PUSH2 0x3D25 JUMP JUMPDEST DUP1 RETURN JUMPDEST DUP3 PUSH1 0x64 SWAP3 MLOAD SWAP2 PUSH3 0x461BCD PUSH1 0xE5 SHL DUP4 MSTORE DUP3 ADD MSTORE PUSH1 0x16 PUSH1 0x24 DUP3 ADD MSTORE PUSH22 0x14995DD85C99081D1C985B9CD9995C8819985A5B1959 PUSH1 0x52 SHL PUSH1 0x44 DUP3 ADD MSTORE REVERT JUMPDEST PUSH2 0x2407 SWAP2 POP DUP5 RETURNDATASIZE DUP7 GT PUSH2 0x518 JUMPI PUSH2 0x50A DUP2 DUP4 PUSH2 0x3738 JUMP JUMPDEST CODESIZE PUSH2 0x2369 JUMP JUMPDEST DUP4 MLOAD RETURNDATASIZE DUP10 DUP3 RETURNDATACOPY RETURNDATASIZE SWAP1 REVERT JUMPDEST DUP5 MLOAD PUSH3 0x461BCD PUSH1 0xE5 SHL DUP2 MSTORE DUP1 DUP6 ADD DUP8 SWAP1 MSTORE PUSH1 0x15 PUSH1 0x24 DUP3 ADD MSTORE PUSH21 0x139BC81C995DD85C991CC81D1BC81A185C9D995CDD PUSH1 0x5A SHL PUSH1 0x44 DUP3 ADD MSTORE PUSH1 0x64 SWAP1 REVERT JUMPDEST POP POP POP POP POP POP POP SWAP1 POP PUSH2 0x23B3 SWAP2 POP PUSH2 0x3D25 JUMP JUMPDEST POP POP POP CALLVALUE PUSH2 0x5AA JUMPI PUSH1 0x20 CALLDATASIZE PUSH1 0x3 NOT ADD SLT PUSH2 0x5AA JUMPI PUSH1 0x20 SWAP2 DUP2 SWAP1 PUSH1 0x1 PUSH1 0x1 PUSH1 0xA0 SHL SUB PUSH2 0x248E PUSH2 0x3570 JUMP JUMPDEST AND DUP2 MSTORE PUSH1 0x1C DUP5 MSTORE KECCAK256 SLOAD SWAP1 MLOAD SWAP1 DUP2 MSTORE RETURN JUMPDEST POP POP POP CALLVALUE PUSH2 0x5AA JUMPI DUP2 PUSH1 0x3 NOT CALLDATASIZE ADD SLT PUSH2 0x5AA JUMPI PUSH1 0x20 SWAP1 PUSH1 0xB SLOAD SWAP1 MLOAD SWAP1 DUP2 MSTORE RETURN JUMPDEST POP POP POP CALLVALUE PUSH2 0x5AA JUMPI PUSH1 0x20 CALLDATASIZE PUSH1 0x3 NOT ADD SLT PUSH2 0x5AA JUMPI PUSH1 0x20 SWAP2 PUSH1 0xFF SWAP1 DUP3 SWAP1 PUSH1 0x1 PUSH1 0x1 PUSH1 0xA0 SHL SUB PUSH2 0x24EA PUSH2 0x3570 JUMP JUMPDEST AND DUP2 MSTORE PUSH1 0xC DUP6 MSTORE KECCAK256 SLOAD AND SWAP1 MLOAD SWAP1 ISZERO ISZERO DUP2 MSTORE RETURN JUMPDEST POP POP CALLVALUE PUSH2 0x342 JUMPI PUSH1 0x20 CALLDATASIZE PUSH1 0x3 NOT ADD SLT PUSH2 0x342 JUMPI DUP1 CALLDATALOAD SWAP1 PUSH2 0x2547 CALLER PUSH32 0x0 PUSH1 0x1 PUSH1 0x1 PUSH1 0xA0 SHL SUB AND EQ PUSH2 0x385D JUMP JUMPDEST PUSH1 0x14 DUP3 GT PUSH2 0x2589 JUMPI POP SWAP1 PUSH32 0xD968A3CC702265C3AB67356DF15CA21D50167B011F198B963E2A868E04E3D5E0 SWAP2 PUSH1 0x19 SLOAD SWAP1 DUP1 PUSH1 0x19 SSTORE DUP3 MLOAD SWAP2 DUP3 MSTORE PUSH1 0x20 DUP3 ADD MSTORE LOG1 DUP1 RETURN JUMPDEST PUSH1 0x64 SWAP1 PUSH1 0x20 DUP5 MLOAD SWAP2 PUSH3 0x461BCD PUSH1 0xE5 SHL DUP4 MSTORE DUP3 ADD MSTORE PUSH1 0x13 PUSH1 0x24 DUP3 ADD MSTORE PUSH19 0xA0CAE4C6CADCE8C2CECA40E8DEDE40D0D2CED PUSH1 0x6B SHL PUSH1 0x44 DUP3 ADD MSTORE REVERT JUMPDEST POP POP POP CALLVALUE PUSH2 0x5AA JUMPI PUSH1 0x20 CALLDATASIZE PUSH1 0x3 NOT ADD SLT PUSH2 0x5AA JUMPI PUSH1 0x20 SWAP2 PUSH1 0x1 PUSH1 0x1 PUSH1 0xA0 SHL SUB SWAP1 DUP3 SWAP1 DUP3 PUSH2 0x25ED PUSH2 0x3570 JUMP JUMPDEST AND DUP2 MSTORE PUSH1 0x1A DUP6 MSTORE KECCAK256 SLOAD AND SWAP1 MLOAD SWAP1 DUP2 MSTORE RETURN JUMPDEST POP POP POP CALLVALUE PUSH2 0x5AA JUMPI DUP2 PUSH1 0x3 NOT CALLDATASIZE ADD SLT PUSH2 0x5AA JUMPI PUSH1 0x20 SWAP1 PUSH1 0xF SLOAD SWAP1 MLOAD SWAP1 DUP2 MSTORE RETURN JUMPDEST POP POP POP CALLVALUE PUSH2 0x5AA JUMPI DUP2 PUSH1 0x3 NOT CALLDATASIZE ADD SLT PUSH2 0x5AA JUMPI PUSH1 0x3 SLOAD SWAP1 MLOAD PUSH1 0x1 PUSH1 0x1 PUSH1 0xA0 SHL SUB SWAP1 SWAP2 AND DUP2 MSTORE PUSH1 0x20 SWAP1 RETURN JUMPDEST POP POP POP CALLVALUE PUSH2 0x5AA JUMPI CALLDATASIZE PUSH1 0x3 NOT ADD SLT PUSH2 0x689 JUMPI PUSH2 0x2662 PUSH2 0x3570 JUMP JUMPDEST PUSH1 0x24 CALLDATALOAD SWAP1 PUSH1 0x1 PUSH1 0x1 PUSH1 0xA0 SHL SUB SWAP1 PUSH2 0x269C CALLER PUSH32 0x0 DUP5 AND EQ PUSH2 0x385D JUMP JUMPDEST AND PUSH2 0x26A8 DUP2 ISZERO ISZERO PUSH2 0x38D2 JUMP JUMPDEST PUSH2 0x26B3 DUP3 ISZERO ISZERO PUSH2 0x3910 JUMP JUMPDEST PUSH1 0x1 PUSH1 0x1 PUSH1 0x60 SHL SUB PUSH1 0xA0 SHL PUSH1 0x3 SLOAD AND OR PUSH1 0x3 SSTORE PUSH1 0x9 SSTORE DUP1 RETURN JUMPDEST DUP3 DUP6 DUP6 CALLVALUE PUSH2 0x5AA JUMPI DUP1 PUSH1 0x3 NOT CALLDATASIZE ADD SLT PUSH2 0x5AA JUMPI DUP3 CALLDATALOAD PUSH1 0x24 CALLDATALOAD SWAP2 CALLER DUP5 MSTORE PUSH1 0x20 SWAP3 PUSH1 0xC DUP5 MSTORE PUSH2 0x26FF PUSH1 0xFF DUP4 DUP8 KECCAK256 SLOAD AND ISZERO PUSH2 0x394C JUMP JUMPDEST PUSH1 0x11 SLOAD DUP4 LT PUSH2 0x2975 JUMPI DUP5 SLOAD PUSH1 0x1 PUSH1 0x1 PUSH1 0xA0 SHL SUB AND PUSH2 0x271E DUP2 ISZERO ISZERO PUSH2 0x39C9 JUMP JUMPDEST PUSH1 0x1E DUP3 EQ DUP1 ISZERO PUSH2 0x296B JUMPI JUMPDEST DUP1 ISZERO PUSH2 0x2961 JUMPI JUMPDEST DUP1 ISZERO PUSH2 0x2956 JUMPI JUMPDEST ISZERO PUSH2 0x291D JUMPI DUP3 MLOAD PUSH4 0x23B872DD PUSH1 0xE0 SHL DUP2 MSTORE CALLER DUP2 DUP10 ADD SWAP1 DUP2 MSTORE ADDRESS PUSH1 0x20 DUP3 ADD MSTORE PUSH1 0x40 DUP2 ADD DUP7 SWAP1 MSTORE SWAP1 SWAP2 DUP7 SWAP2 DUP4 SWAP2 SWAP1 DUP3 SWAP1 DUP11 SWAP1 DUP3 SWAP1 PUSH1 0x60 ADD SUB SWAP3 GAS CALL SWAP1 DUP2 ISZERO PUSH2 0x19DD JUMPI SWAP1 PUSH2 0x2788 SWAP2 DUP8 SWAP2 PUSH2 0x2900 JUMPI POP PUSH2 0x3C82 JUMP JUMPDEST PUSH1 0x17 SLOAD SWAP4 PUSH2 0x2795 DUP6 PUSH2 0x3CC6 JUMP JUMPDEST PUSH1 0x17 SSTORE DUP3 MLOAD PUSH2 0x27A3 DUP2 PUSH2 0x36EA JUMP JUMPDEST DUP6 DUP2 MSTORE DUP2 DUP2 ADD DUP6 DUP2 MSTORE DUP5 DUP3 ADD TIMESTAMP DUP2 MSTORE PUSH1 0x60 DUP4 ADD DUP6 DUP2 MSTORE PUSH1 0x80 DUP5 ADD SWAP1 TIMESTAMP DUP3 MSTORE PUSH1 0xA0 DUP6 ADD SWAP3 DUP12 DUP5 MSTORE PUSH1 0xC0 DUP7 ADD SWAP5 PUSH1 0x1 DUP7 MSTORE CALLER DUP14 MSTORE PUSH1 0x12 DUP9 MSTORE DUP10 DUP14 KECCAK256 DUP1 SLOAD SWAP1 PUSH1 0x1 PUSH1 0x40 SHL DUP3 LT ISZERO PUSH2 0x28EC JUMPI SWAP1 PUSH2 0x27FB SWAP2 PUSH1 0x1 DUP3 ADD DUP2 SSTORE PUSH2 0x367E JUMP JUMPDEST SWAP8 SWAP1 SWAP8 PUSH2 0x28DA JUMPI SWAP3 PUSH32 0xB4CAAF29ADDA3EEFEE3AD552A8E85058589BF834C7466CAE4EE58787F70589ED SWAP12 SWAP13 SWAP14 SWAP15 SWAP3 PUSH2 0x286A SWAP9 SWAP8 SWAP6 SWAP3 PUSH1 0x6 SWAP8 SWAP6 MLOAD DUP10 SSTORE MLOAD PUSH1 0x1 DUP10 ADD SSTORE MLOAD PUSH1 0x2 DUP9 ADD SSTORE MLOAD PUSH1 0x3 DUP8 ADD SSTORE MLOAD SWAP1 DUP6 ADD SSTORE MLOAD PUSH1 0x5 DUP5 ADD SSTORE MLOAD ISZERO ISZERO SWAP2 ADD SWAP1 PUSH1 0xFF DUP1 NOT DUP4 SLOAD AND SWAP2 ISZERO ISZERO AND OR SWAP1 SSTORE JUMP JUMPDEST DUP6 DUP8 MSTORE PUSH1 0x13 DUP2 MSTORE DUP3 DUP8 KECCAK256 CALLER PUSH1 0x1 PUSH1 0x1 PUSH1 0x60 SHL SUB PUSH1 0xA0 SHL DUP3 SLOAD AND OR SWAP1 SSTORE PUSH2 0x2892 DUP6 PUSH1 0x14 SLOAD PUSH2 0x3CD5 JUMP JUMPDEST PUSH1 0x14 SSTORE CALLER DUP8 MSTORE PUSH1 0x18 DUP2 MSTORE DUP3 DUP8 KECCAK256 DUP1 SLOAD PUSH1 0xFF DUP2 AND ISZERO PUSH2 0x28BB JUMPI JUMPDEST POP POP DUP3 MLOAD SWAP5 DUP6 MSTORE DUP5 ADD MSTORE CALLER SWAP3 LOG3 DUP1 RETURN JUMPDEST PUSH1 0xFF NOT AND PUSH1 0x1 OR SWAP1 SSTORE PUSH1 0x16 SLOAD PUSH2 0x28D0 SWAP1 PUSH2 0x3CC6 JUMP JUMPDEST PUSH1 0x16 SSTORE DUP8 DUP1 PUSH2 0x28AB JUMP JUMPDEST PUSH4 0x4E487B71 PUSH1 0xE0 SHL DUP15 MSTORE DUP14 DUP16 MSTORE PUSH1 0x24 DUP15 REVERT JUMPDEST DUP16 DUP16 PUSH1 0x41 PUSH1 0x24 SWAP3 PUSH4 0x4E487B71 PUSH1 0xE0 SHL DUP4 MSTORE MSTORE REVERT JUMPDEST PUSH2 0x2917 SWAP2 POP DUP7 RETURNDATASIZE DUP9 GT PUSH2 0x518 JUMPI PUSH2 0x50A DUP2 DUP4 PUSH2 0x3738 JUMP JUMPDEST DUP9 PUSH2 0x1E55 JUMP JUMPDEST DUP3 MLOAD PUSH3 0x461BCD PUSH1 0xE5 SHL DUP2 MSTORE DUP1 DUP9 ADD DUP7 SWAP1 MSTORE PUSH1 0x13 PUSH1 0x24 DUP3 ADD MSTORE PUSH19 0x125B9D985B1A59081B1BD8DAC81C195C9A5BD9 PUSH1 0x6A SHL PUSH1 0x44 DUP3 ADD MSTORE PUSH1 0x64 SWAP1 REVERT JUMPDEST POP PUSH2 0x16D DUP3 EQ PUSH2 0x2737 JUMP JUMPDEST POP PUSH1 0xB4 DUP3 EQ PUSH2 0x2730 JUMP JUMPDEST POP PUSH1 0x5A DUP3 EQ PUSH2 0x2729 JUMP JUMPDEST DUP2 MLOAD PUSH3 0x461BCD PUSH1 0xE5 SHL DUP2 MSTORE DUP1 DUP8 ADD DUP6 SWAP1 MSTORE PUSH1 0x1A PUSH1 0x24 DUP3 ADD MSTORE PUSH32 0x416D6F756E742062656C6F77206D696E696D756D207374616B65000000000000 PUSH1 0x44 DUP3 ADD MSTORE PUSH1 0x64 SWAP1 REVERT JUMPDEST POP POP SWAP2 CALLVALUE PUSH2 0x689 JUMPI PUSH1 0x20 SWAP3 DUP4 PUSH1 0x3 NOT CALLDATASIZE ADD SLT PUSH2 0x5AA JUMPI DUP1 CALLDATALOAD SWAP1 CALLER DUP4 MSTORE PUSH1 0xC DUP6 MSTORE PUSH1 0xFF SWAP2 PUSH2 0x29EA DUP4 DUP7 DUP7 KECCAK256 SLOAD AND ISZERO PUSH2 0x394C JUMP JUMPDEST DUP1 DUP5 MSTORE PUSH1 0x13 DUP7 MSTORE DUP5 DUP5 KECCAK256 SLOAD PUSH1 0x1 PUSH1 0x1 PUSH1 0xA0 SHL SUB SWAP7 SWAP1 PUSH2 0x2A0C SWAP1 DUP9 AND CALLER EQ PUSH2 0x3FBD JUMP JUMPDEST DUP5 SWAP6 DUP6 JUMPDEST CALLER DUP8 MSTORE PUSH1 0x12 DUP1 DUP5 MSTORE DUP3 DUP9 KECCAK256 DUP1 SLOAD DUP4 LT ISZERO PUSH2 0x2CD4 JUMPI PUSH2 0x2A2F DUP4 DUP8 SWAP3 PUSH2 0x367E JUMP JUMPDEST POP SLOAD EQ PUSH2 0x2A45 JUMPI POP PUSH2 0x2A40 SWAP1 PUSH2 0x3CC6 JUMP JUMPDEST PUSH2 0x2A10 JUMP JUMPDEST SWAP2 SWAP3 SWAP4 SWAP5 SWAP6 SWAP7 SWAP8 POP CALLER DUP9 MSTORE DUP2 DUP5 MSTORE PUSH2 0x2A70 PUSH2 0x2A62 DUP3 DUP6 DUP12 KECCAK256 PUSH2 0x367E JUMP JUMPDEST POP SWAP8 PUSH1 0x6 DUP1 SWAP10 ADD SLOAD AND PUSH2 0x3D63 JUMP JUMPDEST CALLER DUP9 MSTORE DUP2 DUP5 MSTORE PUSH1 0x2 PUSH2 0x2A84 DUP3 DUP6 DUP12 KECCAK256 PUSH2 0x367E JUMP JUMPDEST POP ADD SLOAD CALLER DUP10 MSTORE DUP3 DUP6 MSTORE PUSH1 0x3 PUSH2 0x2A9B DUP4 DUP7 DUP13 KECCAK256 PUSH2 0x367E JUMP JUMPDEST POP ADD SLOAD SWAP1 PUSH3 0x15180 SWAP2 DUP3 DUP2 MUL SWAP3 DUP2 DUP5 DIV EQ SWAP1 ISZERO OR ISZERO PUSH2 0x2CC1 JUMPI SWAP10 PUSH2 0x2AC6 DUP7 SWAP3 DUP12 SWAP13 SWAP12 SWAP9 SWAP10 SWAP11 SWAP12 PUSH2 0x3CD5 JUMP JUMPDEST SWAP3 PUSH2 0x2AD0 DUP10 PUSH2 0x3DAF JUMP JUMPDEST SWAP11 CALLER DUP10 MSTORE DUP6 DUP5 MSTORE PUSH2 0x2AE3 DUP3 DUP9 DUP12 KECCAK256 PUSH2 0x367E JUMP JUMPDEST POP SWAP2 DUP8 PUSH1 0x1 DUP1 SWAP5 ADD SLOAD SWAP11 DUP1 SWAP8 TIMESTAMP LT PUSH2 0x2C67 JUMPI JUMPDEST SWAP1 PUSH2 0x2B0C SWAP3 SWAP2 PUSH2 0x2B6C SWAP9 SWAP10 CALLER DUP3 MSTORE DUP9 MSTORE KECCAK256 PUSH2 0x367E JUMP JUMPDEST POP ADD PUSH1 0xFF NOT DUP2 SLOAD AND SWAP1 SSTORE PUSH1 0x14 PUSH2 0x2B23 DUP10 DUP3 SLOAD PUSH2 0x3DA2 JUMP JUMPDEST SWAP1 SSTORE SWAP9 PUSH2 0x2B39 DUP12 PUSH2 0x2B34 DUP8 DUP12 PUSH2 0x3DA2 JUMP JUMPDEST PUSH2 0x3CD5 JUMP JUMPDEST DUP13 SLOAD DUP8 MLOAD PUSH4 0xA9059CBB PUSH1 0xE0 SHL DUP2 MSTORE CALLER SWAP4 DUP2 ADD SWAP4 DUP5 MSTORE PUSH1 0x20 DUP5 ADD SWAP3 SWAP1 SWAP3 MSTORE SWAP1 SWAP5 DUP6 SWAP4 SWAP1 SWAP2 AND SWAP2 DUP4 SWAP2 DUP15 SWAP2 DUP4 SWAP2 PUSH1 0x40 SWAP1 SWAP2 ADD SWAP1 JUMP JUMPDEST SUB SWAP3 GAS CALL SWAP1 DUP2 ISZERO PUSH2 0x2C5D JUMPI SWAP8 PUSH2 0x2B8D DUP8 SWAP3 PUSH2 0x2BCD SWAP11 DUP13 SWAP2 PUSH2 0x2C46 JUMPI POP PUSH2 0x3C82 JUMP JUMPDEST DUP1 PUSH2 0x2C06 JUMPI JUMPDEST POP POP DUP1 ISZERO PUSH2 0x2BD6 JUMPI PUSH32 0x9C9EC3CFA814B0112B71C20D0B0AB54DEAD00A99FD389C174DF717D2F1D36403 SWAP3 DUP3 MLOAD SWAP5 DUP6 MSTORE DUP5 ADD MSTORE CALLER SWAP3 LOG3 PUSH2 0x3D25 JUMP JUMPDEST PUSH2 0x23B3 CALLER PUSH2 0x417C JUMP JUMPDEST POP SWAP1 PUSH32 0x7FC4727E062E336010F2C282598EF5F14FACB3DE68CF8195C2F23E1454B2B74E SWAP2 MLOAD SWAP3 DUP4 MSTORE CALLER SWAP3 LOG3 PUSH2 0x3D25 JUMP JUMPDEST PUSH1 0x15 PUSH2 0x2C13 DUP3 DUP3 SLOAD PUSH2 0x3CD5 JUMP JUMPDEST SWAP1 SSTORE DUP4 MLOAD SWAP1 DUP2 MSTORE PUSH32 0xF87CFA2D5FEAEA949AD65BB76A26D8553381BCB6382ADBC83DEDD48961BF32D9 DUP6 CALLER SWAP3 LOG3 DUP5 CODESIZE PUSH2 0x2B93 JUMP JUMPDEST PUSH2 0x1EF4 SWAP2 POP DUP8 RETURNDATASIZE DUP10 GT PUSH2 0x518 JUMPI PUSH2 0x50A DUP2 DUP4 PUSH2 0x3738 JUMP JUMPDEST DUP4 MLOAD RETURNDATASIZE DUP12 DUP3 RETURNDATACOPY RETURNDATASIZE SWAP1 REVERT JUMPDEST POP POP SWAP2 SWAP4 POP SWAP2 SWAP4 POP PUSH1 0x5 DUP1 DUP10 MUL SWAP1 DUP10 DUP3 DIV EQ DUP10 ISZERO OR ISZERO PUSH2 0x2CAE JUMPI SWAP2 PUSH2 0x2B0C DUP9 SWAP5 SWAP3 DUP9 DUP16 PUSH1 0x64 PUSH2 0x2B6C SWAP10 SWAP8 DIV SWAP10 PUSH1 0xF PUSH2 0x2CA0 DUP13 DUP3 SLOAD PUSH2 0x3CD5 JUMP JUMPDEST SWAP1 SSTORE SWAP10 SWAP9 POP SWAP1 SWAP2 SWAP3 POP PUSH2 0x2AF6 JUMP JUMPDEST PUSH4 0x4E487B71 PUSH1 0xE0 SHL DUP14 MSTORE PUSH1 0x11 DUP12 MSTORE PUSH1 0x24 DUP14 REVERT JUMPDEST PUSH4 0x4E487B71 PUSH1 0xE0 SHL DUP11 MSTORE PUSH1 0x11 DUP9 MSTORE PUSH1 0x24 DUP11 REVERT JUMPDEST POP POP POP POP POP POP POP POP SWAP2 POP PUSH2 0x2BCD SWAP1 PUSH2 0x3D25 JUMP JUMPDEST POP POP DUP3 CALLVALUE PUSH2 0x689 JUMPI DUP1 PUSH1 0x3 NOT CALLDATASIZE ADD SLT PUSH2 0x689 JUMPI SWAP1 PUSH1 0xE SLOAD SWAP1 PUSH2 0x2D08 DUP3 PUSH2 0x4849 JUMP JUMPDEST SWAP3 PUSH2 0x2D15 DUP6 MLOAD SWAP5 DUP6 PUSH2 0x3738 JUMP JUMPDEST DUP3 DUP5 MSTORE PUSH1 0xE DUP2 MSTORE SWAP1 PUSH1 0x20 SWAP1 PUSH32 0xBB7B4A454DC3493923482F07822329ED19E8244EFF582CC204F8554C3620C3FD SWAP1 DUP3 DUP7 ADD JUMPDEST DUP6 DUP6 LT PUSH2 0x2D5A JUMPI DUP8 MLOAD DUP1 PUSH2 0x61D DUP10 DUP3 PUSH2 0x35CB JUMP JUMPDEST PUSH1 0x7 DUP5 PUSH1 0x1 SWAP3 DUP11 MLOAD PUSH2 0x2D6B DUP2 PUSH2 0x36EA JUMP JUMPDEST DUP7 SLOAD DUP2 MSTORE DUP5 DUP1 PUSH1 0xA0 SHL SUB DUP1 DUP7 DUP10 ADD SLOAD AND DUP5 DUP4 ADD MSTORE DUP1 PUSH1 0x2 DUP10 ADD SLOAD AND DUP14 DUP4 ADD MSTORE PUSH1 0x3 DUP9 ADD SLOAD AND PUSH1 0x60 DUP3 ADD MSTORE DUP6 DUP8 ADD SLOAD PUSH1 0x80 DUP3 ADD MSTORE PUSH1 0x5 DUP8 ADD SLOAD PUSH1 0xA0 DUP3 ADD MSTORE PUSH2 0x2DB4 PUSH1 0x6 DUP9 ADD PUSH2 0x375A JUMP JUMPDEST PUSH1 0xC0 DUP3 ADD MSTORE DUP2 MSTORE ADD SWAP4 ADD SWAP5 ADD SWAP4 SWAP2 PUSH2 0x2D46 JUMP JUMPDEST POP POP DUP3 PUSH1 0x3 NOT CALLDATASIZE ADD SLT PUSH2 0x342 JUMPI CALLER DUP4 MSTORE PUSH1 0x20 PUSH1 0xC DUP2 MSTORE PUSH2 0x2DED PUSH1 0xFF DUP5 DUP7 KECCAK256 SLOAD AND ISZERO PUSH2 0x394C JUMP JUMPDEST CALLVALUE ISZERO SWAP1 PUSH2 0x2DFA DUP3 ISZERO PUSH2 0x398D JUMP JUMPDEST PUSH1 0x2 SLOAD PUSH1 0x1 PUSH1 0x1 PUSH1 0xA0 SHL SUB SWAP3 SWAP1 DUP4 AND SWAP1 PUSH2 0x2E15 DUP3 ISZERO ISZERO PUSH2 0x3BDD JUMP JUMPDEST PUSH3 0xF4240 SWAP1 DUP2 CALLVALUE MUL SWAP2 CALLVALUE DUP4 DIV EQ OR ISZERO PUSH2 0x2178 JUMPI PUSH1 0x6 SLOAD PUSH2 0x2E34 SWAP2 PUSH2 0x3A33 JUMP JUMPDEST SWAP4 DUP6 MLOAD PUSH4 0x70A08231 PUSH1 0xE0 SHL DUP2 MSTORE ADDRESS DUP3 DUP3 ADD MSTORE DUP4 DUP2 PUSH1 0x24 DUP2 DUP7 GAS STATICCALL DUP1 ISZERO PUSH2 0x51F JUMPI DUP7 SWAP2 DUP10 SWAP2 PUSH2 0x2F96 JUMPI JUMPDEST POP LT PUSH2 0x2F53 JUMPI DUP6 MLOAD PUSH4 0xA9059CBB PUSH1 0xE0 SHL DUP2 MSTORE CALLER SWAP2 DUP2 ADD SWAP2 DUP3 MSTORE PUSH1 0x20 DUP3 ADD DUP7 SWAP1 MSTORE SWAP4 SWAP3 SWAP2 DUP3 SWAP2 DUP6 SWAP2 SWAP1 DUP3 SWAP1 DUP11 SWAP1 DUP3 SWAP1 PUSH1 0x40 ADD SUB SWAP3 GAS CALL DUP1 ISZERO PUSH2 0xDAE JUMPI PUSH32 0x48A1F8A6C840B32621CEAB4439A2CCD00B337E705DFDCDEC0B40C49ABF3E6BE3 SWAP4 PUSH2 0x2ECC SWAP3 DUP9 SWAP3 PUSH2 0x2F36 JUMPI JUMPDEST POP POP PUSH2 0x3C1F JUMP JUMPDEST PUSH2 0x2F01 DUP6 DUP1 DUP1 DUP1 CALLVALUE DUP7 PUSH32 0x0 AND GAS CALL PUSH2 0x209F PUSH2 0x3A53 JUMP JUMPDEST PUSH2 0x2F12 DUP2 PUSH1 0x2 SLOAD AND DUP5 PUSH2 0x20B6 PUSH2 0x3C62 JUMP JUMPDEST PUSH1 0x2 SLOAD SWAP4 MLOAD SWAP3 DUP4 MSTORE CALLVALUE PUSH1 0x20 DUP5 ADD MSTORE TIMESTAMP PUSH1 0x40 DUP5 ADD MSTORE SWAP1 SWAP3 AND SWAP2 CALLER SWAP2 DUP1 PUSH1 0x60 DUP2 ADD PUSH2 0x4B4 JUMP JUMPDEST PUSH2 0x2F4C SWAP3 POP DUP1 RETURNDATASIZE LT PUSH2 0x518 JUMPI PUSH2 0x50A DUP2 DUP4 PUSH2 0x3738 JUMP JUMPDEST CODESIZE DUP1 PUSH2 0x2EC5 JUMP JUMPDEST DUP6 MLOAD PUSH3 0x461BCD PUSH1 0xE5 SHL DUP2 MSTORE SWAP1 DUP2 ADD DUP4 SWAP1 MSTORE PUSH1 0x1B PUSH1 0x24 DUP3 ADD MSTORE PUSH32 0x496E73756666696369656E742055534443206C69717569646974790000000000 PUSH1 0x44 DUP3 ADD MSTORE PUSH1 0x64 SWAP1 REVERT JUMPDEST DUP1 SWAP3 POP DUP6 DUP1 SWAP3 POP RETURNDATASIZE DUP4 GT PUSH2 0x2FC0 JUMPI JUMPDEST PUSH2 0x2FAF DUP2 DUP4 PUSH2 0x3738 JUMP JUMPDEST DUP2 ADD SUB SLT PUSH2 0x216D JUMPI DUP6 SWAP1 MLOAD CODESIZE PUSH2 0x2E5D JUMP JUMPDEST POP RETURNDATASIZE PUSH2 0x2FA5 JUMP JUMPDEST POP POP POP CALLVALUE PUSH2 0x5AA JUMPI PUSH1 0x20 CALLDATASIZE PUSH1 0x3 NOT ADD SLT PUSH2 0x5AA JUMPI PUSH1 0x80 SWAP2 PUSH1 0x1 PUSH1 0x1 PUSH1 0xA0 SHL SUB DUP1 PUSH2 0x2FEF PUSH2 0x3570 JUMP JUMPDEST AND DUP3 MSTORE PUSH1 0x1A PUSH1 0x20 MSTORE DUP3 DUP3 KECCAK256 SLOAD AND SWAP2 PUSH1 0x1B PUSH1 0x20 MSTORE DUP1 DUP1 DUP4 KECCAK256 SLOAD SWAP3 PUSH1 0x1C PUSH1 0x20 MSTORE KECCAK256 SLOAD SWAP1 PUSH1 0x19 SLOAD SWAP3 DUP2 MLOAD SWAP5 DUP6 MSTORE PUSH1 0x20 DUP6 ADD MSTORE DUP4 ADD MSTORE PUSH1 0x60 DUP3 ADD MSTORE RETURN JUMPDEST POP POP POP CALLVALUE PUSH2 0x5AA JUMPI DUP2 PUSH1 0x3 NOT CALLDATASIZE ADD SLT PUSH2 0x5AA JUMPI PUSH1 0x20 SWAP1 PUSH1 0x10 SLOAD SWAP1 MLOAD SWAP1 DUP2 MSTORE RETURN JUMPDEST DUP3 DUP6 DUP6 DUP2 PUSH1 0x3 NOT CALLDATASIZE ADD SLT PUSH2 0x5AA JUMPI CALLER DUP3 MSTORE PUSH1 0xC PUSH1 0x20 MSTORE PUSH2 0x306E PUSH1 0xFF DUP3 DUP5 KECCAK256 SLOAD AND ISZERO PUSH2 0x394C JUMP JUMPDEST CALLVALUE ISZERO SWAP1 PUSH2 0x307B DUP3 ISZERO PUSH2 0x398D JUMP JUMPDEST DUP3 SLOAD PUSH1 0x1 PUSH1 0x1 PUSH1 0xA0 SHL SUB SWAP3 SWAP1 PUSH2 0x3094 SWAP1 DUP5 AND ISZERO ISZERO PUSH2 0x39C9 JUMP JUMPDEST PUSH8 0xDE0B6B3A7640000 SWAP1 DUP2 CALLVALUE MUL SWAP2 CALLVALUE DUP4 DIV EQ OR ISZERO PUSH2 0x313A JUMPI DUP4 SWAP3 SWAP2 PUSH2 0x311C PUSH2 0x30D1 PUSH2 0xD47 PUSH1 0x0 DUP1 MLOAD PUSH1 0x20 PUSH2 0x48EF DUP4 CODECOPY DUP2 MLOAD SWAP2 MSTORE SWAP5 PUSH1 0x5 SLOAD SWAP1 PUSH2 0x3A33 JUMP JUMPDEST SWAP4 PUSH2 0x30DB DUP6 PUSH2 0x4235 JUMP JUMPDEST PUSH2 0x3110 DUP7 DUP1 DUP1 DUP1 CALLVALUE DUP7 PUSH32 0x0 AND GAS CALL PUSH2 0x209F PUSH2 0x3A53 JUMP JUMPDEST DUP6 SLOAD AND DUP5 PUSH2 0x20B6 PUSH2 0x3AD5 JUMP JUMPDEST MLOAD CALLVALUE DUP2 MSTORE PUSH1 0x20 DUP2 ADD SWAP3 SWAP1 SWAP3 MSTORE TIMESTAMP PUSH1 0x40 DUP4 ADD MSTORE CALLER SWAP2 DUP1 PUSH1 0x60 DUP2 ADD PUSH2 0x4B4 JUMP JUMPDEST PUSH4 0x4E487B71 PUSH1 0xE0 SHL DUP5 MSTORE PUSH1 0x11 DUP6 MSTORE PUSH1 0x24 DUP5 REVERT JUMPDEST POP POP POP CALLVALUE PUSH2 0x5AA JUMPI CALLDATASIZE PUSH1 0x3 NOT ADD SLT PUSH2 0x689 JUMPI PUSH2 0x3167 PUSH2 0x3570 JUMP JUMPDEST PUSH1 0x24 CALLDATALOAD SWAP1 PUSH1 0x1 PUSH1 0x1 PUSH1 0xA0 SHL SUB SWAP1 PUSH2 0x31A1 CALLER PUSH32 0x0 DUP5 AND EQ PUSH2 0x385D JUMP JUMPDEST AND PUSH2 0x31AD DUP2 ISZERO ISZERO PUSH2 0x38D2 JUMP JUMPDEST PUSH2 0x31B8 DUP3 ISZERO ISZERO PUSH2 0x3910 JUMP JUMPDEST PUSH1 0x1 PUSH1 0x1 PUSH1 0x60 SHL SUB PUSH1 0xA0 SHL PUSH1 0x2 SLOAD AND OR PUSH1 0x2 SSTORE PUSH1 0x8 SSTORE DUP1 RETURN JUMPDEST POP POP CALLVALUE PUSH2 0x342 JUMPI DUP3 PUSH1 0x3 NOT CALLDATASIZE ADD SLT PUSH2 0x342 JUMPI SLOAD SWAP1 MLOAD PUSH1 0x1 PUSH1 0x1 PUSH1 0xA0 SHL SUB SWAP1 SWAP2 AND DUP2 MSTORE PUSH1 0x20 SWAP2 POP RETURN JUMPDEST POP POP POP CALLVALUE PUSH2 0x5AA JUMPI DUP1 PUSH1 0x3 NOT CALLDATASIZE ADD SLT PUSH2 0x5AA JUMPI PUSH2 0x3214 PUSH2 0x3570 JUMP JUMPDEST SWAP1 PUSH1 0x24 CALLDATALOAD SWAP2 DUP3 ISZERO ISZERO DUP1 DUP5 SUB PUSH2 0x32A7 JUMPI PUSH32 0xDDA6207409A585801122FB885DCAA8074F9A21F25FF2DEF680C67F01A86C2C9B SWAP3 PUSH1 0x20 SWAP3 PUSH2 0x329F SWAP1 PUSH1 0x1 PUSH1 0x1 PUSH1 0xA0 SHL SUB SWAP1 PUSH2 0x3282 CALLER PUSH32 0x0 DUP5 AND EQ PUSH2 0x385D JUMP JUMPDEST AND SWAP6 DUP7 DUP9 MSTORE PUSH1 0xC DUP6 MSTORE DUP3 DUP9 KECCAK256 SWAP1 PUSH1 0xFF DUP1 NOT DUP4 SLOAD AND SWAP2 ISZERO ISZERO AND OR SWAP1 SSTORE JUMP JUMPDEST MLOAD SWAP1 DUP2 MSTORE LOG2 DUP1 RETURN JUMPDEST DUP5 DUP1 REVERT JUMPDEST DUP4 DUP6 DUP5 CALLVALUE PUSH2 0x5AA JUMPI PUSH1 0x20 SWAP1 DUP2 PUSH1 0x3 NOT CALLDATASIZE ADD SLT PUSH2 0x342 JUMPI CALLDATALOAD SWAP3 DUP4 DUP4 MSTORE PUSH1 0x13 DUP3 MSTORE PUSH1 0x1 DUP1 PUSH1 0xA0 SHL SUB DUP2 DUP5 KECCAK256 SLOAD AND SWAP3 PUSH2 0x32E2 DUP5 ISZERO ISZERO PUSH2 0x3CE2 JUMP JUMPDEST PUSH2 0x32EA PUSH2 0x48B6 JUMP JUMPDEST DUP2 SWAP6 DUP3 JUMPDEST DUP7 DUP5 MSTORE PUSH1 0x12 DUP1 DUP8 MSTORE DUP6 DUP6 KECCAK256 DUP1 SLOAD DUP4 LT ISZERO PUSH2 0x3369 JUMPI PUSH2 0x330D DUP4 DUP6 SWAP3 PUSH2 0x367E JUMP JUMPDEST POP SLOAD EQ PUSH2 0x3323 JUMPI POP PUSH2 0x331E SWAP1 PUSH2 0x3CC6 JUMP JUMPDEST PUSH2 0x32EE JUMP JUMPDEST PUSH1 0x80 SWAP9 POP PUSH2 0x1408 SWAP4 POP DUP6 SWAP2 SWAP3 POP SWAP4 PUSH2 0x3340 SWAP5 DUP9 DUP3 MSTORE DUP8 MSTORE KECCAK256 PUSH2 0x367E JUMP JUMPDEST SWAP1 PUSH2 0x334B PUSH1 0x1 PUSH2 0x3D25 JUMP JUMPDEST DUP2 MLOAD SWAP4 DUP2 DUP5 DUP5 ADD MLOAD SWAP4 ADD MLOAD SWAP4 DUP3 MLOAD SWAP6 DUP7 MSTORE DUP6 ADD MSTORE DUP4 ADD MSTORE PUSH1 0x60 DUP3 ADD MSTORE RETURN JUMPDEST POP POP POP POP SWAP2 SWAP1 POP PUSH2 0x334B PUSH1 0x80 SWAP6 PUSH2 0x3D25 JUMP JUMPDEST POP POP SWAP1 CALLVALUE PUSH2 0x342 JUMPI DUP1 PUSH1 0x3 NOT CALLDATASIZE ADD SLT PUSH2 0x342 JUMPI PUSH2 0x3396 PUSH2 0x3570 JUMP JUMPDEST PUSH1 0x24 CALLDATALOAD SWAP1 PUSH32 0x0 PUSH1 0x1 PUSH1 0x1 PUSH1 0xA0 SHL SUB PUSH2 0x33D0 CALLER DUP3 DUP5 AND EQ PUSH2 0x385D JUMP JUMPDEST DUP1 DUP8 SLOAD AND SWAP3 AND SWAP2 DUP3 EQ PUSH2 0x348B JUMPI JUMPDEST DUP4 MLOAD PUSH4 0xA9059CBB PUSH1 0xE0 SHL DUP2 MSTORE PUSH1 0x1 PUSH1 0x1 PUSH1 0xA0 SHL SUB SWAP1 SWAP2 AND DUP6 DUP3 ADD SWAP1 DUP2 MSTORE PUSH1 0x20 DUP2 DUP2 ADD SWAP5 SWAP1 SWAP5 MSTORE SWAP1 SWAP3 SWAP2 DUP4 SWAP2 DUP3 SWAP1 DUP9 SWAP1 DUP3 SWAP1 PUSH1 0x40 ADD SUB SWAP3 GAS CALL SWAP1 DUP2 ISZERO PUSH2 0x3481 JUMPI DUP5 SWAP2 PUSH2 0x3463 JUMPI JUMPDEST POP ISZERO PUSH2 0x342E JUMPI DUP3 DUP1 RETURN JUMPDEST SWAP1 PUSH1 0x20 PUSH1 0x64 SWAP3 MLOAD SWAP2 PUSH3 0x461BCD PUSH1 0xE5 SHL DUP4 MSTORE DUP3 ADD MSTORE PUSH1 0xF PUSH1 0x24 DUP3 ADD MSTORE PUSH15 0x151C985B9CD9995C8819985A5B1959 PUSH1 0x8A SHL PUSH1 0x44 DUP3 ADD MSTORE REVERT JUMPDEST PUSH2 0x347B SWAP2 POP PUSH1 0x20 RETURNDATASIZE DUP2 GT PUSH2 0x518 JUMPI PUSH2 0x50A DUP2 DUP4 PUSH2 0x3738 JUMP JUMPDEST CODESIZE PUSH2 0x3424 JUMP JUMPDEST DUP3 MLOAD RETURNDATASIZE DUP7 DUP3 RETURNDATACOPY RETURNDATASIZE SWAP1 REVERT JUMPDEST DUP4 MLOAD PUSH4 0x70A08231 PUSH1 0xE0 SHL DUP2 MSTORE ADDRESS DUP7 DUP3 ADD MSTORE PUSH1 0x20 DUP2 PUSH1 0x24 DUP2 DUP7 GAS STATICCALL DUP1 ISZERO PUSH2 0x3541 JUMPI DUP8 SWAP1 PUSH2 0x350A JUMPI JUMPDEST PUSH2 0x34C0 SWAP2 POP PUSH1 0x14 SLOAD SWAP1 PUSH2 0x3DA2 JUMP JUMPDEST DUP4 GT ISZERO PUSH2 0x33DE JUMPI DUP4 MLOAD PUSH3 0x461BCD PUSH1 0xE5 SHL DUP2 MSTORE PUSH1 0x20 DUP2 DUP8 ADD MSTORE PUSH1 0x1D PUSH1 0x24 DUP3 ADD MSTORE PUSH32 0x43616E6E6F74207769746864726177207374616B656420746F6B656E73000000 PUSH1 0x44 DUP3 ADD MSTORE PUSH1 0x64 SWAP1 REVERT JUMPDEST POP PUSH1 0x20 DUP2 RETURNDATASIZE DUP3 GT PUSH2 0x3539 JUMPI JUMPDEST DUP2 PUSH2 0x3523 PUSH1 0x20 SWAP4 DUP4 PUSH2 0x3738 JUMP JUMPDEST DUP2 ADD SUB SLT PUSH2 0x3535 JUMPI PUSH2 0x34C0 SWAP1 MLOAD PUSH2 0x34B2 JUMP JUMPDEST DUP7 DUP1 REVERT JUMPDEST RETURNDATASIZE SWAP2 POP PUSH2 0x3516 JUMP JUMPDEST DUP6 MLOAD RETURNDATASIZE DUP10 DUP3 RETURNDATACOPY RETURNDATASIZE SWAP1 REVERT JUMPDEST DUP6 SWAP1 CALLVALUE PUSH2 0x5AA JUMPI DUP2 PUSH1 0x3 NOT CALLDATASIZE ADD SLT PUSH2 0x5AA JUMPI PUSH1 0x2 SLOAD PUSH1 0x1 PUSH1 0x1 PUSH1 0xA0 SHL SUB AND DUP2 MSTORE PUSH1 0x20 SWAP1 RETURN JUMPDEST PUSH1 0x4 CALLDATALOAD SWAP1 PUSH1 0x1 PUSH1 0x1 PUSH1 0xA0 SHL SUB DUP3 AND DUP3 SUB PUSH2 0x3586 JUMPI JUMP JUMPDEST PUSH1 0x0 DUP1 REVERT JUMPDEST SWAP2 SWAP1 DUP3 MLOAD SWAP3 DUP4 DUP3 MSTORE PUSH1 0x0 JUMPDEST DUP5 DUP2 LT PUSH2 0x35B7 JUMPI POP POP DUP3 PUSH1 0x0 PUSH1 0x20 DUP1 SWAP5 SWAP6 DUP5 ADD ADD MSTORE PUSH1 0x1F DUP1 NOT SWAP2 ADD AND ADD ADD SWAP1 JUMP JUMPDEST PUSH1 0x20 DUP2 DUP4 ADD DUP2 ADD MLOAD DUP5 DUP4 ADD DUP3 ADD MSTORE ADD PUSH2 0x3596 JUMP JUMPDEST PUSH1 0x20 DUP1 DUP3 ADD SWAP1 DUP1 DUP4 MSTORE DUP4 MLOAD DUP1 SWAP3 MSTORE PUSH1 0x40 SWAP3 DUP4 DUP2 ADD DUP3 DUP6 DUP6 PUSH1 0x5 SHL DUP5 ADD ADD SWAP7 ADD SWAP5 PUSH1 0x0 SWAP3 JUMPDEST DUP6 DUP5 LT PUSH2 0x3600 JUMPI POP POP POP POP POP POP POP SWAP1 JUMP JUMPDEST SWAP1 SWAP2 SWAP3 SWAP4 SWAP5 SWAP6 SWAP7 DUP6 DUP1 PUSH2 0x366D PUSH1 0x1 SWAP4 PUSH1 0x3F NOT DUP7 DUP3 SUB ADD DUP9 MSTORE DUP12 MLOAD DUP1 MLOAD DUP3 MSTORE DUP6 DUP1 PUSH1 0xA0 SHL SUB DUP1 DUP6 DUP4 ADD MLOAD AND DUP6 DUP5 ADD MSTORE DUP1 DUP10 DUP4 ADD MLOAD AND DUP10 DUP5 ADD MSTORE PUSH1 0x60 SWAP1 DUP2 DUP4 ADD MLOAD AND SWAP1 DUP4 ADD MSTORE PUSH1 0x80 DUP1 DUP3 ADD MLOAD SWAP1 DUP4 ADD MSTORE PUSH1 0xA0 DUP1 DUP3 ADD MLOAD SWAP1 DUP4 ADD MSTORE PUSH1 0xC0 DUP1 SWAP2 ADD MLOAD SWAP2 PUSH1 0xE0 DUP1 SWAP3 DUP3 ADD MSTORE ADD SWAP1 PUSH2 0x358B JUMP JUMPDEST SWAP10 ADD SWAP5 ADD SWAP5 ADD SWAP3 SWAP6 SWAP5 SWAP4 SWAP2 SWAP1 PUSH2 0x35EF JUMP JUMPDEST DUP1 SLOAD DUP3 LT ISZERO PUSH2 0x369A JUMPI PUSH1 0x0 MSTORE PUSH1 0x7 PUSH1 0x20 PUSH1 0x0 KECCAK256 SWAP2 MUL ADD SWAP1 PUSH1 0x0 SWAP1 JUMP JUMPDEST PUSH4 0x4E487B71 PUSH1 0xE0 SHL PUSH1 0x0 MSTORE PUSH1 0x32 PUSH1 0x4 MSTORE PUSH1 0x24 PUSH1 0x0 REVERT JUMPDEST SWAP1 PUSH1 0x1 DUP3 DUP2 SHR SWAP3 AND DUP1 ISZERO PUSH2 0x36E0 JUMPI JUMPDEST PUSH1 0x20 DUP4 LT EQ PUSH2 0x36CA JUMPI JUMP JUMPDEST PUSH4 0x4E487B71 PUSH1 0xE0 SHL PUSH1 0x0 MSTORE PUSH1 0x22 PUSH1 0x4 MSTORE PUSH1 0x24 PUSH1 0x0 REVERT JUMPDEST SWAP2 PUSH1 0x7F AND SWAP2 PUSH2 0x36BF JUMP JUMPDEST PUSH1 0xE0 DUP2 ADD SWAP1 DUP2 LT PUSH8 0xFFFFFFFFFFFFFFFF DUP3 GT OR PUSH2 0x3706 JUMPI PUSH1 0x40 MSTORE JUMP JUMPDEST PUSH4 0x4E487B71 PUSH1 0xE0 SHL PUSH1 0x0 MSTORE PUSH1 0x41 PUSH1 0x4 MSTORE PUSH1 0x24 PUSH1 0x0 REVERT JUMPDEST PUSH1 0x40 DUP2 ADD SWAP1 DUP2 LT PUSH8 0xFFFFFFFFFFFFFFFF DUP3 GT OR PUSH2 0x3706 JUMPI PUSH1 0x40 MSTORE JUMP JUMPDEST SWAP1 PUSH1 0x1F DUP1 NOT SWAP2 ADD AND DUP2 ADD SWAP1 DUP2 LT PUSH8 0xFFFFFFFFFFFFFFFF DUP3 GT OR PUSH2 0x3706 JUMPI PUSH1 0x40 MSTORE JUMP JUMPDEST SWAP1 PUSH1 0x40 MLOAD SWAP2 DUP3 PUSH1 0x0 DUP3 SLOAD SWAP3 PUSH2 0x376E DUP5 PUSH2 0x36B0 JUMP JUMPDEST SWAP1 DUP2 DUP5 MSTORE PUSH1 0x1 SWAP5 DUP6 DUP2 AND SWAP1 DUP2 PUSH1 0x0 EQ PUSH2 0x37DD JUMPI POP PUSH1 0x1 EQ PUSH2 0x379A JUMPI JUMPDEST POP POP PUSH2 0x3798 SWAP3 POP SUB DUP4 PUSH2 0x3738 JUMP JUMPDEST JUMP JUMPDEST SWAP1 SWAP4 SWAP2 POP PUSH1 0x0 MSTORE PUSH1 0x20 SWAP1 DUP2 PUSH1 0x0 KECCAK256 SWAP4 PUSH1 0x0 SWAP2 JUMPDEST DUP2 DUP4 LT PUSH2 0x37C5 JUMPI POP POP PUSH2 0x3798 SWAP4 POP DUP3 ADD ADD CODESIZE DUP1 PUSH2 0x378A JUMP JUMPDEST DUP6 SLOAD DUP9 DUP5 ADD DUP6 ADD MSTORE SWAP5 DUP6 ADD SWAP5 DUP8 SWAP5 POP SWAP2 DUP4 ADD SWAP2 PUSH2 0x37AD JUMP JUMPDEST SWAP2 POP POP PUSH2 0x3798 SWAP5 POP PUSH1 0x20 SWAP3 POP PUSH1 0xFF NOT AND DUP3 DUP5 ADD MSTORE ISZERO ISZERO PUSH1 0x5 SHL DUP3 ADD ADD CODESIZE DUP1 PUSH2 0x378A JUMP JUMPDEST SWAP4 PUSH1 0xE0 SWAP6 SWAP3 PUSH2 0x3842 SWAP9 SWAP8 SWAP5 SWAP3 DUP7 MSTORE PUSH1 0x1 DUP1 PUSH1 0xA0 SHL SUB SWAP3 DUP4 DUP1 SWAP3 AND PUSH1 0x20 DUP9 ADD MSTORE AND PUSH1 0x40 DUP7 ADD MSTORE AND PUSH1 0x60 DUP5 ADD MSTORE PUSH1 0x80 DUP4 ADD MSTORE PUSH1 0xA0 DUP3 ADD MSTORE DUP2 PUSH1 0xC0 DUP3 ADD MSTORE ADD SWAP1 PUSH2 0x358B JUMP JUMPDEST SWAP1 JUMP JUMPDEST DUP1 SLOAD DUP3 LT ISZERO PUSH2 0x369A JUMPI PUSH1 0x0 MSTORE PUSH1 0x20 PUSH1 0x0 KECCAK256 ADD SWAP1 PUSH1 0x0 SWAP1 JUMP JUMPDEST ISZERO PUSH2 0x3864 JUMPI JUMP JUMPDEST PUSH1 0x40 MLOAD PUSH3 0x461BCD PUSH1 0xE5 SHL DUP2 MSTORE PUSH1 0x20 PUSH1 0x4 DUP3 ADD MSTORE PUSH1 0xA PUSH1 0x24 DUP3 ADD MSTORE PUSH10 0x27B7363C9037BBB732B9 PUSH1 0xB1 SHL PUSH1 0x44 DUP3 ADD MSTORE PUSH1 0x64 SWAP1 REVERT JUMPDEST ISZERO PUSH2 0x389D JUMPI JUMP JUMPDEST PUSH1 0x40 MLOAD PUSH3 0x461BCD PUSH1 0xE5 SHL DUP2 MSTORE PUSH1 0x20 PUSH1 0x4 DUP3 ADD MSTORE PUSH1 0xD PUSH1 0x24 DUP3 ADD MSTORE PUSH13 0x496E76616C6964207072696365 PUSH1 0x98 SHL PUSH1 0x44 DUP3 ADD MSTORE PUSH1 0x64 SWAP1 REVERT JUMPDEST ISZERO PUSH2 0x38D9 JUMPI JUMP JUMPDEST PUSH1 0x40 MLOAD PUSH3 0x461BCD PUSH1 0xE5 SHL DUP2 MSTORE PUSH1 0x20 PUSH1 0x4 DUP3 ADD MSTORE PUSH1 0xF PUSH1 0x24 DUP3 ADD MSTORE PUSH15 0x496E76616C69642061646472657373 PUSH1 0x88 SHL PUSH1 0x44 DUP3 ADD MSTORE PUSH1 0x64 SWAP1 REVERT JUMPDEST ISZERO PUSH2 0x3917 JUMPI JUMP JUMPDEST PUSH1 0x40 MLOAD PUSH3 0x461BCD PUSH1 0xE5 SHL DUP2 MSTORE PUSH1 0x20 PUSH1 0x4 DUP3 ADD MSTORE PUSH1 0xD PUSH1 0x24 DUP3 ADD MSTORE PUSH13 0x496E76616C696420726174696F PUSH1 0x98 SHL PUSH1 0x44 DUP3 ADD MSTORE PUSH1 0x64 SWAP1 REVERT JUMPDEST ISZERO PUSH2 0x3953 JUMPI JUMP JUMPDEST PUSH1 0x40 MLOAD PUSH3 0x461BCD PUSH1 0xE5 SHL DUP2 MSTORE PUSH1 0x20 PUSH1 0x4 DUP3 ADD MSTORE PUSH1 0x12 PUSH1 0x24 DUP3 ADD MSTORE PUSH18 0x1059191C995CDCC81A5CC8189B1BD8DAD959 PUSH1 0x72 SHL PUSH1 0x44 DUP3 ADD MSTORE PUSH1 0x64 SWAP1 REVERT JUMPDEST ISZERO PUSH2 0x3994 JUMPI JUMP JUMPDEST PUSH1 0x40 MLOAD PUSH3 0x461BCD PUSH1 0xE5 SHL DUP2 MSTORE PUSH1 0x20 PUSH1 0x4 DUP3 ADD MSTORE PUSH1 0xD PUSH1 0x24 DUP3 ADD MSTORE PUSH13 0x26BAB9BA1039B2B73210212721 PUSH1 0x99 SHL PUSH1 0x44 DUP3 ADD MSTORE PUSH1 0x64 SWAP1 REVERT JUMPDEST ISZERO PUSH2 0x39D0 JUMPI JUMP JUMPDEST PUSH1 0x40 MLOAD PUSH3 0x461BCD PUSH1 0xE5 SHL DUP2 MSTORE PUSH1 0x20 PUSH1 0x4 DUP3 ADD MSTORE PUSH1 0x12 PUSH1 0x24 DUP3 ADD MSTORE PUSH18 0x14D85B19481D1BDAD95B881B9BDD081CD95D PUSH1 0x72 SHL PUSH1 0x44 DUP3 ADD MSTORE PUSH1 0x64 SWAP1 REVERT JUMPDEST DUP2 DUP2 MUL SWAP3 SWAP2 DUP2 ISZERO SWAP2 DUP5 DIV EQ OR ISZERO PUSH2 0x3A1D JUMPI JUMP JUMPDEST PUSH4 0x4E487B71 PUSH1 0xE0 SHL PUSH1 0x0 MSTORE PUSH1 0x11 PUSH1 0x4 MSTORE PUSH1 0x24 PUSH1 0x0 REVERT JUMPDEST DUP2 ISZERO PUSH2 0x3A3D JUMPI DIV SWAP1 JUMP JUMPDEST PUSH4 0x4E487B71 PUSH1 0xE0 SHL PUSH1 0x0 MSTORE PUSH1 0x12 PUSH1 0x4 MSTORE PUSH1 0x24 PUSH1 0x0 REVERT JUMPDEST RETURNDATASIZE ISZERO PUSH2 0x3A8E JUMPI RETURNDATASIZE SWAP1 PUSH8 0xFFFFFFFFFFFFFFFF DUP3 GT PUSH2 0x3706 JUMPI PUSH1 0x40 MLOAD SWAP2 PUSH2 0x3A82 PUSH1 0x1F DUP3 ADD PUSH1 0x1F NOT AND PUSH1 0x20 ADD DUP5 PUSH2 0x3738 JUMP JUMPDEST DUP3 MSTORE RETURNDATASIZE PUSH1 0x0 PUSH1 0x20 DUP5 ADD RETURNDATACOPY JUMP JUMPDEST PUSH1 0x60 SWAP1 JUMP JUMPDEST ISZERO PUSH2 0x3A9A JUMPI JUMP JUMPDEST PUSH1 0x40 MLOAD PUSH3 0x461BCD PUSH1 0xE5 SHL DUP2 MSTORE PUSH1 0x20 PUSH1 0x4 DUP3 ADD MSTORE PUSH1 0x13 PUSH1 0x24 DUP3 ADD MSTORE PUSH19 0x109390881D1C985B9CD9995C8819985A5B1959 PUSH1 0x6A SHL PUSH1 0x44 DUP3 ADD MSTORE PUSH1 0x64 SWAP1 REVERT JUMPDEST PUSH1 0x40 MLOAD SWAP1 PUSH2 0x3AE2 DUP3 PUSH2 0x371C JUMP JUMPDEST PUSH1 0x3 DUP3 MSTORE PUSH3 0x425559 PUSH1 0xE8 SHL PUSH1 0x20 DUP4 ADD MSTORE JUMP JUMPDEST ISZERO PUSH2 0x3AFB JUMPI JUMP JUMPDEST PUSH1 0x40 MLOAD PUSH3 0x461BCD PUSH1 0xE5 SHL DUP2 MSTORE PUSH1 0x20 PUSH1 0x4 DUP3 ADD MSTORE PUSH1 0x1D PUSH1 0x24 DUP3 ADD MSTORE PUSH32 0x416D6F756E74206D7573742062652067726561746572207468616E2030000000 PUSH1 0x44 DUP3 ADD MSTORE PUSH1 0x64 SWAP1 REVERT JUMPDEST ISZERO PUSH2 0x3B47 JUMPI JUMP JUMPDEST PUSH1 0x40 MLOAD PUSH3 0x461BCD PUSH1 0xE5 SHL DUP2 MSTORE PUSH1 0x20 PUSH1 0x4 DUP3 ADD MSTORE PUSH1 0x13 PUSH1 0x24 DUP3 ADD MSTORE PUSH19 0x1554D115081B9BDD0818DBDB999A59DD5C9959 PUSH1 0x6A SHL PUSH1 0x44 DUP3 ADD MSTORE PUSH1 0x64 SWAP1 REVERT JUMPDEST SWAP1 DUP2 PUSH1 0x20 SWAP2 SUB SLT PUSH2 0x3586 JUMPI MLOAD DUP1 ISZERO ISZERO DUP2 SUB PUSH2 0x3586 JUMPI SWAP1 JUMP JUMPDEST ISZERO PUSH2 0x3BA1 JUMPI JUMP JUMPDEST PUSH1 0x40 MLOAD PUSH3 0x461BCD PUSH1 0xE5 SHL DUP2 MSTORE PUSH1 0x20 PUSH1 0x4 DUP3 ADD MSTORE PUSH1 0x14 PUSH1 0x24 DUP3 ADD MSTORE PUSH20 0x1554D115081D1C985B9CD9995C8819985A5B1959 PUSH1 0x62 SHL PUSH1 0x44 DUP3 ADD MSTORE PUSH1 0x64 SWAP1 REVERT JUMPDEST ISZERO PUSH2 0x3BE4 JUMPI JUMP JUMPDEST PUSH1 0x40 MLOAD PUSH3 0x461BCD PUSH1 0xE5 SHL DUP2 MSTORE PUSH1 0x20 PUSH1 0x4 DUP3 ADD MSTORE PUSH1 0x13 PUSH1 0x24 DUP3 ADD MSTORE PUSH19 0x1554D110C81B9BDD0818DBDB999A59DD5C9959 PUSH1 0x6A SHL PUSH1 0x44 DUP3 ADD MSTORE PUSH1 0x64 SWAP1 REVERT JUMPDEST ISZERO PUSH2 0x3C26 JUMPI JUMP JUMPDEST PUSH1 0x40 MLOAD PUSH3 0x461BCD PUSH1 0xE5 SHL DUP2 MSTORE PUSH1 0x20 PUSH1 0x4 DUP3 ADD MSTORE PUSH1 0x14 PUSH1 0x24 DUP3 ADD MSTORE PUSH20 0x1554D110C81D1C985B9CD9995C8819985A5B1959 PUSH1 0x62 SHL PUSH1 0x44 DUP3 ADD MSTORE PUSH1 0x64 SWAP1 REVERT JUMPDEST PUSH1 0x40 MLOAD SWAP1 PUSH2 0x3C6F DUP3 PUSH2 0x371C JUMP JUMPDEST PUSH1 0x4 DUP3 MSTORE PUSH4 0x14D15313 PUSH1 0xE2 SHL PUSH1 0x20 DUP4 ADD MSTORE JUMP JUMPDEST ISZERO PUSH2 0x3C89 JUMPI JUMP JUMPDEST PUSH1 0x40 MLOAD PUSH3 0x461BCD PUSH1 0xE5 SHL DUP2 MSTORE PUSH1 0x20 PUSH1 0x4 DUP3 ADD MSTORE PUSH1 0x15 PUSH1 0x24 DUP3 ADD MSTORE PUSH21 0x151BDAD95B881D1C985B9CD9995C8819985A5B1959 PUSH1 0x5A SHL PUSH1 0x44 DUP3 ADD MSTORE PUSH1 0x64 SWAP1 REVERT JUMPDEST PUSH1 0x0 NOT DUP2 EQ PUSH2 0x3A1D JUMPI PUSH1 0x1 ADD SWAP1 JUMP JUMPDEST SWAP2 SWAP1 DUP3 ADD DUP1 SWAP3 GT PUSH2 0x3A1D JUMPI JUMP JUMPDEST ISZERO PUSH2 0x3CE9 JUMPI JUMP JUMPDEST PUSH1 0x40 MLOAD PUSH3 0x461BCD PUSH1 0xE5 SHL DUP2 MSTORE PUSH1 0x20 PUSH1 0x4 DUP3 ADD MSTORE PUSH1 0x14 PUSH1 0x24 DUP3 ADD MSTORE PUSH20 0x14DD185AD948191BD95CC81B9BDD08195E1A5CDD PUSH1 0x62 SHL PUSH1 0x44 DUP3 ADD MSTORE PUSH1 0x64 SWAP1 REVERT JUMPDEST ISZERO PUSH2 0x3D2C JUMPI JUMP JUMPDEST PUSH1 0x40 MLOAD PUSH3 0x461BCD PUSH1 0xE5 SHL DUP2 MSTORE PUSH1 0x20 PUSH1 0x4 DUP3 ADD MSTORE PUSH1 0xF PUSH1 0x24 DUP3 ADD MSTORE PUSH15 0x14DD185AD9481B9BDD08199BDD5B99 PUSH1 0x8A SHL PUSH1 0x44 DUP3 ADD MSTORE PUSH1 0x64 SWAP1 REVERT JUMPDEST ISZERO PUSH2 0x3D6A JUMPI JUMP JUMPDEST PUSH1 0x40 MLOAD PUSH3 0x461BCD PUSH1 0xE5 SHL DUP2 MSTORE PUSH1 0x20 PUSH1 0x4 DUP3 ADD MSTORE PUSH1 0x10 PUSH1 0x24 DUP3 ADD MSTORE PUSH16 0x5374616B65206E6F7420616374697665 PUSH1 0x80 SHL PUSH1 0x44 DUP3 ADD MSTORE PUSH1 0x64 SWAP1 REVERT JUMPDEST SWAP2 SWAP1 DUP3 SUB SWAP2 DUP3 GT PUSH2 0x3A1D JUMPI JUMP JUMPDEST PUSH1 0x0 DUP2 DUP2 MSTORE PUSH1 0x13 PUSH1 0x20 SWAP1 DUP2 MSTORE PUSH1 0x40 DUP1 DUP4 KECCAK256 SLOAD PUSH1 0x1 PUSH1 0x1 PUSH1 0xA0 SHL SUB AND SWAP1 PUSH2 0x3DD6 DUP3 ISZERO ISZERO PUSH2 0x3CE2 JUMP JUMPDEST SWAP3 SWAP4 DUP5 SWAP4 SWAP1 DUP5 SWAP1 DUP2 DUP1 DUP1 DUP1 DUP1 JUMPDEST DUP9 DUP12 MSTORE PUSH1 0x12 DUP1 DUP12 MSTORE DUP9 DUP13 KECCAK256 DUP1 SLOAD DUP4 LT ISZERO PUSH2 0x3FA4 JUMPI PUSH2 0x3E02 DUP4 DUP10 SWAP3 PUSH2 0x367E JUMP JUMPDEST POP SLOAD EQ PUSH2 0x3E18 JUMPI POP PUSH2 0x3E13 SWAP1 PUSH2 0x3CC6 JUMP JUMPDEST PUSH2 0x3DE3 JUMP JUMPDEST SWAP7 POP SWAP11 POP POP POP POP POP POP DUP3 DUP6 MSTORE DUP1 DUP5 MSTORE DUP6 DUP3 DUP7 KECCAK256 SWAP1 PUSH2 0x3E35 SWAP2 PUSH2 0x367E JUMP JUMPDEST POP PUSH1 0x5 ADD SLOAD SWAP6 DUP4 DUP7 MSTORE DUP2 DUP6 MSTORE DUP1 DUP4 DUP8 KECCAK256 SWAP1 PUSH2 0x3E4F SWAP2 PUSH2 0x367E JUMP JUMPDEST POP PUSH1 0x4 ADD SLOAD SWAP3 DUP5 DUP8 MSTORE DUP3 DUP7 MSTORE DUP2 DUP2 DUP9 KECCAK256 SWAP1 PUSH2 0x3E69 SWAP2 PUSH2 0x367E JUMP JUMPDEST POP SWAP3 PUSH1 0x1 DUP1 SWAP5 ADD SLOAD SWAP7 DUP7 DUP10 MSTORE DUP2 DUP2 MSTORE DUP4 DUP4 DUP11 KECCAK256 SWAP1 PUSH2 0x3E86 SWAP2 PUSH2 0x367E JUMP JUMPDEST POP PUSH1 0x3 ADD SLOAD SWAP7 DUP10 MSTORE MSTORE DUP7 KECCAK256 SWAP1 PUSH2 0x3E9B SWAP2 PUSH2 0x367E JUMP JUMPDEST POP PUSH1 0x6 ADD SLOAD PUSH1 0xFF AND PUSH2 0x3EAF PUSH2 0x3EB4 SWAP3 PUSH2 0x3D25 JUMP JUMPDEST PUSH2 0x3D63 JUMP JUMPDEST TIMESTAMP DUP2 EQ PUSH2 0x3F9D JUMPI PUSH2 0x3EC5 SWAP1 TIMESTAMP PUSH2 0x3DA2 JUMP JUMPDEST SWAP3 PUSH1 0x10 SLOAD DUP1 SWAP3 PUSH1 0x5A DUP2 EQ PUSH1 0x0 EQ PUSH2 0x3F23 JUMPI POP POP PUSH1 0x3 DUP3 MUL SWAP2 DUP1 DUP4 DIV PUSH1 0x3 EQ SWAP1 ISZERO OR ISZERO PUSH2 0x3F0F JUMPI POP PUSH2 0x3842 SWAP4 SWAP3 PUSH2 0x3F03 PUSH4 0xBBF81E00 SWAP4 PUSH2 0x3F08 SWAP4 PUSH1 0x1 SHR SWAP1 JUMPDEST PUSH2 0x3A0A JUMP JUMPDEST DIV SWAP1 PUSH2 0x3CD5 JUMP JUMPDEST PUSH4 0x4E487B71 PUSH1 0xE0 SHL DUP2 MSTORE PUSH1 0x11 PUSH1 0x4 MSTORE PUSH1 0x24 SWAP1 REVERT JUMPDEST PUSH1 0xB4 DUP2 SUB PUSH2 0x3F59 JUMPI POP POP DUP2 PUSH1 0x1 SHL SWAP2 DUP1 DUP4 DIV PUSH1 0x2 EQ SWAP1 ISZERO OR ISZERO PUSH2 0x3F0F JUMPI POP PUSH2 0x3842 SWAP4 SWAP3 PUSH2 0x3F03 PUSH4 0xBBF81E00 SWAP4 PUSH2 0x3F08 SWAP4 SWAP1 PUSH2 0x3A0A JUMP JUMPDEST PUSH2 0x16D SWAP2 SWAP5 SWAP4 POP EQ PUSH2 0x3F7E JUMPI JUMPDEST POP PUSH2 0x3842 SWAP4 SWAP3 PUSH2 0x3F03 PUSH4 0xBBF81E00 SWAP4 PUSH2 0x3F08 SWAP4 PUSH2 0x3A0A JUMP JUMPDEST PUSH1 0x3 DUP4 SWAP3 SWAP4 MUL SWAP2 DUP1 DUP4 DIV PUSH1 0x3 EQ SWAP1 ISZERO OR ISZERO PUSH2 0x3F0F JUMPI POP SWAP1 PUSH2 0x3842 PUSH2 0x3F66 JUMP JUMPDEST POP POP POP POP SWAP1 JUMP JUMPDEST POP POP POP SWAP7 POP SWAP7 POP SWAP8 SWAP4 POP PUSH2 0x3EB4 SWAP3 SWAP2 POP PUSH2 0x3EAF SWAP1 PUSH2 0x3D25 JUMP JUMPDEST ISZERO PUSH2 0x3FC4 JUMPI JUMP JUMPDEST PUSH1 0x40 MLOAD PUSH3 0x461BCD PUSH1 0xE5 SHL DUP2 MSTORE PUSH1 0x20 PUSH1 0x4 DUP3 ADD MSTORE PUSH1 0xF PUSH1 0x24 DUP3 ADD MSTORE PUSH15 0x2737BA1039BA30B5B29037BBB732B9 PUSH1 0x89 SHL PUSH1 0x44 DUP3 ADD MSTORE PUSH1 0x64 SWAP1 REVERT JUMPDEST PUSH1 0x0 CALLER DUP2 MSTORE PUSH1 0x20 PUSH1 0x1A DUP2 MSTORE PUSH1 0x1 DUP1 PUSH1 0xA0 SHL SUB SWAP1 PUSH1 0x40 DUP3 DUP2 DUP6 KECCAK256 SLOAD AND SWAP3 DUP4 ISZERO ISZERO DUP1 PUSH2 0x4167 JUMPI JUMPDEST PUSH2 0x402C JUMPI POP POP POP POP POP SWAP1 JUMP JUMPDEST PUSH1 0x64 PUSH2 0x403A PUSH1 0x19 SLOAD DUP9 PUSH2 0x3A0A JUMP JUMPDEST DUP7 SLOAD DUP5 MLOAD PUSH4 0xA9059CBB PUSH1 0xE0 SHL DUP2 MSTORE PUSH1 0x1 PUSH1 0x1 PUSH1 0xA0 SHL SUB DUP9 AND PUSH1 0x4 DUP3 ADD MSTORE SWAP3 SWAP1 SWAP2 DIV PUSH1 0x24 DUP4 ADD DUP2 SWAP1 MSTORE SWAP7 SWAP2 SWAP1 DUP6 SWAP1 DUP3 SWAP1 PUSH1 0x44 SWAP1 DUP3 SWAP1 DUP7 SWAP1 DUP9 AND GAS CALL SWAP1 DUP2 ISZERO PUSH2 0x415D JUMPI DUP3 SWAP2 PUSH2 0x4140 JUMPI JUMPDEST POP ISZERO PUSH2 0x40FC JUMPI PUSH32 0x94CCB86446750660EC532B1BEB1FB55F5BA2FFFCA042C4C53F4C080E72595B38 SWAP4 SWAP3 SWAP2 DUP2 DUP7 PUSH2 0x40F2 SWAP4 MSTORE PUSH1 0x1C DUP6 MSTORE DUP4 DUP2 KECCAK256 PUSH2 0x40C5 DUP10 DUP3 SLOAD PUSH2 0x3CD5 JUMP JUMPDEST SWAP1 SSTORE SLOAD AND DUP7 DUP9 DUP5 MLOAD SWAP3 PUSH2 0x40D7 DUP5 PUSH2 0x371C JUMP JUMPDEST PUSH1 0x8 DUP5 MSTORE PUSH8 0x1491519154949053 PUSH1 0xC2 SHL DUP8 DUP6 ADD MSTORE DUP1 DUP10 PUSH2 0x47ED JUMP JUMPDEST MLOAD SWAP4 DUP5 MSTORE CALLER SWAP4 LOG3 SWAP1 JUMP JUMPDEST DUP3 MLOAD PUSH3 0x461BCD PUSH1 0xE5 SHL DUP2 MSTORE PUSH1 0x4 DUP2 ADD DUP6 SWAP1 MSTORE PUSH1 0x1F PUSH1 0x24 DUP3 ADD MSTORE PUSH32 0x526566657272616C20726577617264207472616E73666572206661696C656400 PUSH1 0x44 DUP3 ADD MSTORE PUSH1 0x64 SWAP1 REVERT JUMPDEST PUSH2 0x4157 SWAP2 POP DUP6 RETURNDATASIZE DUP8 GT PUSH2 0x518 JUMPI PUSH2 0x50A DUP2 DUP4 PUSH2 0x3738 JUMP JUMPDEST CODESIZE PUSH2 0x4082 JUMP JUMPDEST DUP5 MLOAD RETURNDATASIZE DUP5 DUP3 RETURNDATACOPY RETURNDATASIZE SWAP1 REVERT JUMPDEST POP DUP4 DUP6 MSTORE PUSH1 0xC DUP4 MSTORE PUSH1 0xFF DUP3 DUP7 KECCAK256 SLOAD AND ISZERO PUSH2 0x4020 JUMP JUMPDEST PUSH1 0x0 SWAP1 DUP2 JUMPDEST PUSH1 0x1 PUSH1 0x1 PUSH1 0xA0 SHL SUB DUP3 AND PUSH1 0x0 SWAP1 DUP2 MSTORE PUSH1 0x12 PUSH1 0x20 MSTORE PUSH1 0x40 SWAP1 KECCAK256 DUP1 SLOAD DUP3 LT ISZERO PUSH2 0x422D JUMPI PUSH1 0x6 PUSH2 0x41B0 DUP4 PUSH1 0xFF SWAP4 PUSH2 0x367E JUMP JUMPDEST POP ADD SLOAD AND PUSH2 0x41C6 JUMPI PUSH2 0x41C1 SWAP1 PUSH2 0x3CC6 JUMP JUMPDEST PUSH2 0x4181 JUMP JUMPDEST POP SWAP1 POP PUSH1 0x1 JUMPDEST ISZERO DUP1 PUSH2 0x420B JUMPI JUMPDEST PUSH2 0x41DA JUMPI POP JUMP JUMPDEST PUSH1 0x1 PUSH1 0x1 PUSH1 0xA0 SHL SUB AND PUSH1 0x0 SWAP1 DUP2 MSTORE PUSH1 0x18 PUSH1 0x20 MSTORE PUSH1 0x40 SWAP1 KECCAK256 DUP1 SLOAD PUSH1 0xFF NOT AND SWAP1 SSTORE PUSH1 0x16 SLOAD DUP1 ISZERO PUSH2 0x3A1D JUMPI PUSH1 0x0 NOT ADD PUSH1 0x16 SSTORE JUMP JUMPDEST POP PUSH1 0x1 PUSH1 0x1 PUSH1 0xA0 SHL SUB DUP2 AND PUSH1 0x0 SWAP1 DUP2 MSTORE PUSH1 0x18 PUSH1 0x20 MSTORE PUSH1 0x40 SWAP1 KECCAK256 SLOAD PUSH1 0xFF AND PUSH2 0x41D3 JUMP JUMPDEST POP POP SWAP1 PUSH2 0x41CC JUMP JUMPDEST PUSH1 0x0 DUP1 SLOAD PUSH1 0x40 MLOAD PUSH4 0x70A08231 PUSH1 0xE0 SHL DUP2 MSTORE ADDRESS PUSH1 0x4 DUP3 ADD MSTORE SWAP2 SWAP4 SWAP3 SWAP2 PUSH1 0x20 SWAP2 PUSH1 0x1 PUSH1 0x1 PUSH1 0xA0 SHL SUB AND SWAP1 DUP3 DUP2 PUSH1 0x24 DUP2 DUP6 GAS STATICCALL DUP1 ISZERO PUSH2 0x436C JUMPI DUP5 SWAP2 DUP8 SWAP2 PUSH2 0x433B JUMPI JUMPDEST POP LT PUSH2 0x42F6 JUMPI PUSH1 0x40 MLOAD PUSH4 0xA9059CBB PUSH1 0xE0 SHL DUP2 MSTORE CALLER PUSH1 0x4 DUP3 ADD MSTORE PUSH1 0x24 DUP2 ADD DUP5 SWAP1 MSTORE SWAP1 DUP3 SWAP1 DUP3 SWAP1 PUSH1 0x44 SWAP1 DUP3 SWAP1 DUP10 SWAP1 GAS CALL SWAP2 DUP3 ISZERO PUSH2 0x42EB JUMPI SWAP1 PUSH2 0x42C1 SWAP3 SWAP2 PUSH2 0x42C9 SWAP6 SWAP7 SWAP3 PUSH2 0x42CE JUMPI JUMPDEST POP POP PUSH2 0x3C82 JUMP JUMPDEST PUSH1 0xB SLOAD PUSH2 0x3CD5 JUMP JUMPDEST PUSH1 0xB SSTORE JUMP JUMPDEST PUSH2 0x42E4 SWAP3 POP DUP1 RETURNDATASIZE LT PUSH2 0x518 JUMPI PUSH2 0x50A DUP2 DUP4 PUSH2 0x3738 JUMP JUMPDEST CODESIZE DUP1 PUSH2 0x42BA JUMP JUMPDEST PUSH1 0x40 MLOAD RETURNDATASIZE DUP8 DUP3 RETURNDATACOPY RETURNDATASIZE SWAP1 REVERT JUMPDEST PUSH1 0x40 MLOAD PUSH3 0x461BCD PUSH1 0xE5 SHL DUP2 MSTORE PUSH1 0x4 DUP2 ADD DUP4 SWAP1 MSTORE PUSH1 0x1A PUSH1 0x24 DUP3 ADD MSTORE PUSH32 0x496E73756666696369656E7420746F6B656E2062616C616E6365000000000000 PUSH1 0x44 DUP3 ADD MSTORE PUSH1 0x64 SWAP1 REVERT JUMPDEST DUP1 SWAP3 POP DUP5 DUP1 SWAP3 POP RETURNDATASIZE DUP4 GT PUSH2 0x4365 JUMPI JUMPDEST PUSH2 0x4354 DUP2 DUP4 PUSH2 0x3738 JUMP JUMPDEST DUP2 ADD SUB SLT PUSH2 0x19D1 JUMPI DUP4 SWAP1 MLOAD CODESIZE PUSH2 0x4274 JUMP JUMPDEST POP RETURNDATASIZE PUSH2 0x434A JUMP JUMPDEST PUSH1 0x40 MLOAD RETURNDATASIZE DUP9 DUP3 RETURNDATACOPY RETURNDATASIZE SWAP1 REVERT JUMPDEST PUSH1 0xE SLOAD PUSH1 0x1 PUSH1 0x40 SHL DUP2 LT ISZERO PUSH2 0x3706 JUMPI PUSH1 0x1 SWAP1 DUP2 DUP2 ADD DUP1 PUSH1 0xE SSTORE DUP2 LT ISZERO PUSH2 0x369A JUMPI PUSH1 0x7 PUSH1 0x0 SWAP2 PUSH1 0xE DUP4 MSTORE MUL SWAP2 DUP4 MLOAD DUP4 PUSH32 0xBB7B4A454DC3493923482F07822329ED19E8244EFF582CC204F8554C3620C3FD ADD SSTORE PUSH1 0xC0 PUSH32 0xBB7B4A454DC3493923482F07822329ED19E8244EFF582CC204F8554C3620C403 PUSH32 0xBB7B4A454DC3493923482F07822329ED19E8244EFF582CC204F8554C3620C3FE DUP6 ADD SWAP5 PUSH1 0x1 DUP1 PUSH1 0xA0 SHL SUB PUSH1 0x20 SWAP7 DUP2 DUP9 DUP11 ADD MLOAD AND SWAP1 PUSH1 0x1 PUSH1 0x1 PUSH1 0x60 SHL SUB PUSH1 0xA0 SHL SWAP2 DUP3 DUP3 SLOAD AND OR SWAP1 SSTORE PUSH32 0xBB7B4A454DC3493923482F07822329ED19E8244EFF582CC204F8554C3620C3FF DUP4 ADD DUP3 PUSH1 0x40 DUP12 ADD MLOAD AND DUP3 DUP3 SLOAD AND OR SWAP1 SSTORE PUSH32 0xBB7B4A454DC3493923482F07822329ED19E8244EFF582CC204F8554C3620C400 DUP4 ADD SWAP2 PUSH1 0x60 DUP11 ADD MLOAD AND SWAP1 DUP3 SLOAD AND OR SWAP1 SSTORE PUSH1 0x80 DUP8 ADD MLOAD PUSH32 0xBB7B4A454DC3493923482F07822329ED19E8244EFF582CC204F8554C3620C401 DUP3 ADD SSTORE PUSH1 0xA0 DUP8 ADD MLOAD PUSH32 0xBB7B4A454DC3493923482F07822329ED19E8244EFF582CC204F8554C3620C402 DUP3 ADD SSTORE ADD SWAP5 ADD MLOAD SWAP2 DUP3 MLOAD SWAP3 PUSH8 0xFFFFFFFFFFFFFFFF DUP5 GT PUSH2 0x45EF JUMPI PUSH2 0x4508 DUP7 SLOAD PUSH2 0x36B0 JUMP JUMPDEST PUSH1 0x1F DUP2 GT PUSH2 0x45A9 JUMPI JUMPDEST POP DUP5 SWAP2 PUSH1 0x1F DUP6 GT PUSH1 0x1 EQ PUSH2 0x454A JUMPI SWAP4 SWAP5 POP DUP5 SWAP3 SWAP2 SWAP1 DUP4 PUSH2 0x453F JUMPI JUMPDEST POP POP SHL SWAP2 PUSH1 0x0 NOT SWAP1 PUSH1 0x3 SHL SHR NOT AND OR SWAP1 SSTORE JUMP JUMPDEST ADD MLOAD SWAP3 POP CODESIZE DUP1 PUSH2 0x452C JUMP JUMPDEST DUP7 DUP2 MSTORE DUP6 DUP2 KECCAK256 SWAP4 SWAP6 DUP6 SWAP2 PUSH1 0x1F NOT DUP4 AND SWAP2 JUMPDEST DUP9 DUP4 DUP4 LT PUSH2 0x458F JUMPI POP POP POP LT PUSH2 0x4576 JUMPI JUMPDEST POP POP POP DUP2 SHL ADD SWAP1 SSTORE JUMP JUMPDEST ADD MLOAD PUSH1 0x0 NOT PUSH1 0xF8 DUP5 PUSH1 0x3 SHL AND SHR NOT AND SWAP1 SSTORE CODESIZE DUP1 DUP1 PUSH2 0x456C JUMP JUMPDEST DUP6 DUP8 ADD MLOAD DUP9 SSTORE SWAP1 SWAP7 ADD SWAP6 SWAP5 DUP6 ADD SWAP5 DUP8 SWAP4 POP SWAP1 DUP2 ADD SWAP1 PUSH2 0x455B JUMP JUMPDEST DUP7 DUP4 MSTORE DUP6 DUP4 KECCAK256 PUSH1 0x1F DUP7 ADD PUSH1 0x5 SHR DUP2 ADD SWAP2 DUP8 DUP8 LT PUSH2 0x45E5 JUMPI JUMPDEST PUSH1 0x1F ADD PUSH1 0x5 SHR ADD SWAP1 DUP5 SWAP1 JUMPDEST DUP3 DUP2 LT PUSH2 0x45DA JUMPI POP POP PUSH2 0x4511 JUMP JUMPDEST DUP5 DUP2 SSTORE ADD DUP5 SWAP1 PUSH2 0x45CC JUMP JUMPDEST SWAP1 SWAP2 POP DUP2 SWAP1 PUSH2 0x45C1 JUMP JUMPDEST PUSH4 0x4E487B71 PUSH1 0xE0 SHL DUP3 MSTORE PUSH1 0x41 PUSH1 0x4 MSTORE PUSH1 0x24 DUP3 REVERT JUMPDEST DUP1 SLOAD PUSH1 0x1 PUSH1 0x40 SHL DUP2 LT ISZERO PUSH2 0x3706 JUMPI PUSH2 0x4622 SWAP1 PUSH1 0x1 SWAP3 DUP4 DUP3 ADD DUP2 SSTORE PUSH2 0x367E JUMP JUMPDEST PUSH2 0x4778 JUMPI DUP3 MLOAD DUP2 SSTORE PUSH1 0xC0 PUSH1 0x6 DUP4 DUP4 ADD SWAP3 PUSH1 0x1 DUP1 PUSH1 0xA0 SHL SUB PUSH1 0x20 SWAP5 DUP2 DUP7 DUP10 ADD MLOAD AND SWAP1 PUSH1 0x1 PUSH1 0x1 PUSH1 0x60 SHL SUB PUSH1 0xA0 SHL SWAP2 DUP3 DUP3 SLOAD AND OR SWAP1 SSTORE PUSH1 0x2 DUP4 ADD DUP3 PUSH1 0x40 DUP11 ADD MLOAD AND DUP3 DUP3 SLOAD AND OR SWAP1 SSTORE PUSH1 0x3 DUP4 ADD SWAP2 PUSH1 0x60 DUP10 ADD MLOAD AND SWAP1 DUP3 SLOAD AND OR SWAP1 SSTORE PUSH1 0x80 DUP7 ADD MLOAD PUSH1 0x4 DUP3 ADD SSTORE PUSH1 0xA0 DUP7 ADD MLOAD PUSH1 0x5 DUP3 ADD SSTORE ADD SWAP4 ADD MLOAD SWAP1 DUP2 MLOAD SWAP2 PUSH8 0xFFFFFFFFFFFFFFFF DUP4 GT PUSH2 0x3706 JUMPI PUSH2 0x46AF DUP6 SLOAD PUSH2 0x36B0 JUMP JUMPDEST PUSH1 0x1F DUP2 GT PUSH2 0x472F JUMPI JUMPDEST POP DUP2 PUSH1 0x1F DUP5 GT PUSH1 0x1 EQ PUSH2 0x46E6 JUMPI POP SWAP3 DUP3 SWAP4 SWAP2 DUP4 SWAP3 PUSH1 0x0 SWAP5 PUSH2 0x453F JUMPI POP POP SHL SWAP2 PUSH1 0x0 NOT SWAP1 PUSH1 0x3 SHL SHR NOT AND OR SWAP1 SSTORE JUMP JUMPDEST SWAP2 SWAP1 DUP4 PUSH1 0x1F NOT DUP2 AND DUP8 PUSH1 0x0 MSTORE DUP5 PUSH1 0x0 KECCAK256 SWAP5 PUSH1 0x0 SWAP1 JUMPDEST DUP9 DUP4 DUP4 LT PUSH2 0x4715 JUMPI POP POP POP LT PUSH2 0x4576 JUMPI POP POP POP DUP2 SHL ADD SWAP1 SSTORE JUMP JUMPDEST DUP6 DUP8 ADD MLOAD DUP9 SSTORE SWAP1 SWAP7 ADD SWAP6 SWAP5 DUP6 ADD SWAP5 DUP8 SWAP4 POP SWAP1 DUP2 ADD SWAP1 PUSH2 0x46FB JUMP JUMPDEST PUSH1 0x0 DUP7 DUP2 MSTORE DUP4 DUP2 KECCAK256 PUSH1 0x1F DUP7 ADD PUSH1 0x5 SHR DUP2 ADD SWAP3 DUP6 DUP8 LT PUSH2 0x476E JUMPI JUMPDEST PUSH1 0x1F ADD PUSH1 0x5 SHR ADD SWAP2 DUP7 SWAP1 JUMPDEST DUP4 DUP2 LT PUSH2 0x4763 JUMPI POP POP POP PUSH2 0x46B8 JUMP JUMPDEST DUP3 DUP2 SSTORE ADD DUP7 SWAP1 PUSH2 0x4754 JUMP JUMPDEST SWAP1 SWAP3 POP DUP3 SWAP1 PUSH2 0x4749 JUMP JUMPDEST PUSH4 0x4E487B71 PUSH1 0xE0 SHL PUSH1 0x0 MSTORE PUSH1 0x0 PUSH1 0x4 MSTORE PUSH1 0x24 PUSH1 0x0 REVERT JUMPDEST SWAP3 PUSH2 0x3798 SWAP5 SWAP2 SWAP3 PUSH1 0x40 MLOAD SWAP5 PUSH2 0x47A2 DUP7 PUSH2 0x36EA JUMP JUMPDEST TIMESTAMP DUP7 MSTORE PUSH1 0x1 DUP1 PUSH1 0xA0 SHL SUB DUP1 SWAP2 AND SWAP5 DUP6 PUSH1 0x20 DUP9 ADD MSTORE PUSH1 0x0 PUSH1 0x40 DUP9 ADD MSTORE AND PUSH1 0x60 DUP7 ADD MSTORE PUSH1 0x80 DUP6 ADD MSTORE PUSH1 0xA0 DUP5 ADD MSTORE PUSH1 0xC0 DUP4 ADD MSTORE PUSH1 0x0 MSTORE PUSH1 0xD PUSH1 0x20 MSTORE PUSH2 0x47E8 DUP2 PUSH1 0x40 PUSH1 0x0 KECCAK256 PUSH2 0x4603 JUMP JUMPDEST PUSH2 0x4377 JUMP JUMPDEST SWAP3 PUSH2 0x3798 SWAP6 SWAP3 SWAP5 SWAP2 SWAP4 PUSH1 0x40 MLOAD SWAP6 PUSH2 0x4803 DUP8 PUSH2 0x36EA JUMP JUMPDEST TIMESTAMP DUP8 MSTORE PUSH1 0x1 DUP1 PUSH1 0xA0 SHL SUB DUP1 DUP1 SWAP4 AND SWAP7 DUP8 PUSH1 0x20 DUP11 ADD MSTORE AND PUSH1 0x40 DUP9 ADD MSTORE AND PUSH1 0x60 DUP7 ADD MSTORE PUSH1 0x80 DUP6 ADD MSTORE PUSH1 0xA0 DUP5 ADD MSTORE PUSH1 0xC0 DUP4 ADD MSTORE PUSH1 0x0 MSTORE PUSH1 0xD PUSH1 0x20 MSTORE PUSH2 0x47E8 DUP2 PUSH1 0x40 PUSH1 0x0 KECCAK256 PUSH2 0x4603 JUMP JUMPDEST PUSH8 0xFFFFFFFFFFFFFFFF DUP2 GT PUSH2 0x3706 JUMPI PUSH1 0x5 SHL PUSH1 0x20 ADD SWAP1 JUMP JUMPDEST SWAP1 PUSH1 0x40 MLOAD PUSH2 0x486E DUP2 PUSH2 0x36EA JUMP JUMPDEST PUSH1 0xC0 PUSH1 0xFF PUSH1 0x6 DUP4 SWAP6 DUP1 SLOAD DUP6 MSTORE PUSH1 0x1 DUP2 ADD SLOAD PUSH1 0x20 DUP7 ADD MSTORE PUSH1 0x2 DUP2 ADD SLOAD PUSH1 0x40 DUP7 ADD MSTORE PUSH1 0x3 DUP2 ADD SLOAD PUSH1 0x60 DUP7 ADD MSTORE PUSH1 0x4 DUP2 ADD SLOAD PUSH1 0x80 DUP7 ADD MSTORE PUSH1 0x5 DUP2 ADD SLOAD PUSH1 0xA0 DUP7 ADD MSTORE ADD SLOAD AND ISZERO ISZERO SWAP2 ADD MSTORE JUMP JUMPDEST PUSH1 0x40 MLOAD SWAP1 PUSH2 0x48C3 DUP3 PUSH2 0x36EA JUMP JUMPDEST DUP2 PUSH1 0xC0 PUSH1 0x0 SWAP2 DUP3 DUP2 MSTORE DUP3 PUSH1 0x20 DUP3 ADD MSTORE DUP3 PUSH1 0x40 DUP3 ADD MSTORE DUP3 PUSH1 0x60 DUP3 ADD MSTORE DUP3 PUSH1 0x80 DUP3 ADD MSTORE DUP3 PUSH1 0xA0 DUP3 ADD MSTORE ADD MSTORE JUMP INVALID CALLDATACOPY PUSH27 0xADEDB6B2A771959584D10A6A36ECCB5F56B4EB3A48525F76108D26 PUSH1 0xD8 0xD4 LOG2 PUSH5 0x6970667358 0x22 SLT KECCAK256 0xAC PUSH19 0x7C4E2A77D0E73F0C7C3C3C6BA667B679389ABD DUP8 JUMP MLOAD 0xD9 DELEGATECALL OR 0xE3 PUSH31 0xC3C63864736F6C634300081300330000000000000000000000000000000000 "},"methodIdentifiers":{"EARLY_WITHDRAWAL_PENALTY_PERCENT()":"9c0fbd05","allTransactions(uint256)":"d7ff0714","baseAPY()":"214405a9","blockedAddresses(address)":"4f93208a","bnbPriceForStablecoin()":"64f1d113","bnbPriceForToken()":"a0b3b930","buyUSDC()":"251545da","buyUSDT()":"5b365040","buyWithBNB()":"20f1fc61","buyWithETH(uint256)":"94dc9cf3","buyWithSOL(uint256)":"f30ef2e5","buyWithUSDC(uint256)":"aeccf735","buyWithUSDT(uint256)":"a7c60160","calculateRewards(uint256)":"d3ea4350","ethAddress()":"41398b15","ethRatio()":"bc5894ba","getAllTransactions()":"27506f53","getContractInfo()":"7cc1f867","getReferralInfo(address)":"21874ae2","getStakeDetails(uint256)":"963c9dd3","getStakeInfo(uint256)":"09813482","getStakingInfo()":"b40cd21d","getTokenBalances()":"a1dc9031","getTotalPenaltyCollected()":"491cc756","getUserReferrals(address)":"575cea6b","getUserStakes(address)":"842e2981","getUserStakingInfo(address)":"80933608","getUserTransactions(address)":"ef925399","harvestRewards(uint256)":"57126d0d","hasStaked(address)":"c93c8f34","minStakeAmount()":"f1887684","nextStakeId()":"75506c96","owner()":"8da5cb5b","referralRewardPercentage()":"920a253e","referralRewards(address)":"53aaa63b","referrals(address,uint256)":"e697b5d8","referrers(address)":"4a3b68cc","registerReferrer(address)":"9ea7685a","saleToken()":"e985e367","setBlockStatus(address,bool)":"182a676b","setSaleToken(address)":"a29f481c","solAddress()":"1ce24e16","solRatio()":"7a9773dc","stakeOwners(uint256)":"fd9a11e5","stakeTokens(uint256,uint256)":"3b7b6188","tokensSold()":"518ab2a8","totalPenaltyCollected()":"2bb38809","totalRewardsDistributed()":"ee172546","totalStaked()":"817b1cd2","totalStakers()":"86989038","unstakeEarly(uint256)":"2fd04c08","unstakeTokens(uint256)":"608e4dd0","updateBaseAPY(uint256)":"71d20fe7","updateETH(address,uint256)":"3e4e6453","updateMinStakeAmount(uint256)":"d8060cd5","updateReferralPercentage(uint256)":"4cdb312d","updateSOL(address,uint256)":"ebcd3a13","updateStablecoinPrice(uint256)":"63219c72","updateTokenPrice(uint256)":"676c0d77","updateUSDC(address,uint256)":"1e37c606","updateUSDT(address,uint256)":"b006984f","usdcAddress()":"02d45457","usdcRatio()":"6f43f373","usdtAddress()":"9ab4a445","usdtRatio()":"83fabe03","userStakes(address,uint256)":"b5d5b5fa","userTransactions(address,uint256)":"b842ec44","withdrawTokens(address,uint256)":"06b091f9"}}}}}