{"contracts/TokenICO.sol":{"TokenICO":{"abi":[{"inputs":[],"stateMutability":"nonpayable","type":"constructor"},{"anonymous":false,"inputs":[{"indexed":false,"internalType":"uint256","name":"oldAPY","type":"uint256"},{"indexed":false,"internalType":"uint256","name":"newAPY","type":"uint256"}],"name":"APYUpdated","type":"event"},{"anonymous":false,"inputs":[{"indexed":true,"internalType":"address","name":"user","type":"address"},{"indexed":false,"internalType":"bool","name":"blocked","type":"bool"}],"name":"AddressBlocked","type":"event"},{"anonymous":false,"inputs":[{"indexed":true,"internalType":"address","name":"user","type":"address"},{"indexed":true,"internalType":"uint256","name":"stakeId","type":"uint256"},{"indexed":false,"internalType":"uint256","name":"amount","type":"uint256"},{"indexed":false,"internalType":"uint256","name":"penalty","type":"uint256"}],"name":"EarlyUnstake","type":"event"},{"anonymous":false,"inputs":[{"indexed":false,"internalType":"uint256","name":"oldMinStake","type":"uint256"},{"indexed":false,"internalType":"uint256","name":"newMinStake","type":"uint256"}],"name":"MinStakeUpdated","type":"event"},{"anonymous":false,"inputs":[{"indexed":false,"internalType":"string","name":"priceType","type":"string"},{"indexed":false,"internalType":"uint256","name":"oldPrice","type":"uint256"},{"indexed":false,"internalType":"uint256","name":"newPrice","type":"uint256"}],"name":"PriceUpdated","type":"event"},{"anonymous":false,"inputs":[{"indexed":false,"internalType":"uint256","name":"oldPercentage","type":"uint256"},{"indexed":false,"internalType":"uint256","name":"newPercentage","type":"uint256"}],"name":"ReferralPercentageUpdated","type":"event"},{"anonymous":false,"inputs":[{"indexed":true,"internalType":"address","name":"referrer","type":"address"},{"indexed":true,"internalType":"address","name":"referee","type":"address"}],"name":"ReferralRegistered","type":"event"},{"anonymous":false,"inputs":[{"indexed":true,"internalType":"address","name":"referrer","type":"address"},{"indexed":true,"internalType":"address","name":"referee","type":"address"},{"indexed":false,"internalType":"uint256","name":"amount","type":"uint256"}],"name":"ReferralRewardPaid","type":"event"},{"anonymous":false,"inputs":[{"indexed":true,"internalType":"address","name":"user","type":"address"},{"indexed":true,"internalType":"uint256","name":"stakeId","type":"uint256"},{"indexed":false,"internalType":"uint256","name":"reward","type":"uint256"}],"name":"RewardHarvested","type":"event"},{"anonymous":false,"inputs":[{"indexed":true,"internalType":"address","name":"oldSigner","type":"address"},{"indexed":true,"internalType":"address","name":"newSigner","type":"address"}],"name":"SignerUpdated","type":"event"},{"anonymous":false,"inputs":[{"indexed":true,"internalType":"address","name":"buyer","type":"address"},{"indexed":true,"internalType":"address","name":"stablecoin","type":"address"},{"indexed":false,"internalType":"uint256","name":"stablecoinAmount","type":"uint256"},{"indexed":false,"internalType":"uint256","name":"bnbPaid","type":"uint256"},{"indexed":false,"internalType":"uint256","name":"timestamp","type":"uint256"}],"name":"StablecoinSold","type":"event"},{"anonymous":false,"inputs":[{"indexed":true,"internalType":"address","name":"user","type":"address"},{"indexed":true,"internalType":"uint256","name":"stakeId","type":"uint256"},{"indexed":false,"internalType":"uint256","name":"amount","type":"uint256"},{"indexed":false,"internalType":"uint256","name":"lockPeriod","type":"uint256"}],"name":"Staked","type":"event"},{"anonymous":false,"inputs":[{"indexed":true,"internalType":"address","name":"buyer","type":"address"},{"indexed":true,"internalType":"address","name":"paymentMethod","type":"address"},{"indexed":false,"internalType":"uint256","name":"amountPaid","type":"uint256"},{"indexed":false,"internalType":"uint256","name":"tokensBought","type":"uint256"},{"indexed":false,"internalType":"uint256","name":"timestamp","type":"uint256"}],"name":"TokensPurchased","type":"event"},{"anonymous":false,"inputs":[{"indexed":true,"internalType":"address","name":"user","type":"address"},{"indexed":true,"internalType":"uint256","name":"stakeId","type":"uint256"},{"indexed":false,"internalType":"uint256","name":"amount","type":"uint256"}],"name":"Unstaked","type":"event"},{"anonymous":false,"inputs":[{"indexed":true,"internalType":"address","name":"user","type":"address"},{"indexed":false,"internalType":"uint256","name":"nonce","type":"uint256"}],"name":"VoucherConsumed","type":"event"},{"inputs":[],"name":"DOMAIN_SEPARATOR","outputs":[{"internalType":"bytes32","name":"","type":"bytes32"}],"stateMutability":"view","type":"function"},{"inputs":[],"name":"EARLY_WITHDRAWAL_PENALTY_PERCENT","outputs":[{"internalType":"uint256","name":"","type":"uint256"}],"stateMutability":"view","type":"function"},{"inputs":[],"name":"TOTAL_TOKENS_FOR_SALE","outputs":[{"internalType":"uint256","name":"","type":"uint256"}],"stateMutability":"view","type":"function"},{"inputs":[],"name":"WAITLIST_ALLOCATION","outputs":[{"internalType":"uint256","name":"","type":"uint256"}],"stateMutability":"view","type":"function"},{"inputs":[],"name":"WL_REF_TYPEHASH","outputs":[{"internalType":"bytes32","name":"","type":"bytes32"}],"stateMutability":"view","type":"function"},{"inputs":[{"internalType":"uint256","name":"","type":"uint256"}],"name":"allTransactions","outputs":[{"internalType":"uint256","name":"timestamp","type":"uint256"},{"internalType":"address","name":"user","type":"address"},{"internalType":"address","name":"tokenIn","type":"address"},{"internalType":"address","name":"tokenOut","type":"address"},{"internalType":"uint256","name":"amountIn","type":"uint256"},{"internalType":"uint256","name":"amountOut","type":"uint256"},{"internalType":"string","name":"transactionType","type":"string"}],"stateMutability":"view","type":"function"},{"inputs":[],"name":"baseAPY","outputs":[{"internalType":"uint256","name":"","type":"uint256"}],"stateMutability":"view","type":"function"},{"inputs":[{"internalType":"address","name":"","type":"address"}],"name":"blockedAddresses","outputs":[{"internalType":"bool","name":"","type":"bool"}],"stateMutability":"view","type":"function"},{"inputs":[],"name":"bnbPriceForStablecoin","outputs":[{"internalType":"uint256","name":"","type":"uint256"}],"stateMutability":"view","type":"function"},{"inputs":[],"name":"bnbPriceForToken","outputs":[{"internalType":"uint256","name":"","type":"uint256"}],"stateMutability":"view","type":"function"},{"inputs":[],"name":"bnbRatio","outputs":[{"internalType":"uint256","name":"","type":"uint256"}],"stateMutability":"view","type":"function"},{"inputs":[],"name":"btcAddress","outputs":[{"internalType":"address","name":"","type":"address"}],"stateMutability":"view","type":"function"},{"inputs":[],"name":"btcRatio","outputs":[{"internalType":"uint256","name":"","type":"uint256"}],"stateMutability":"view","type":"function"},{"inputs":[],"name":"buyUSDC","outputs":[],"stateMutability":"payable","type":"function"},{"inputs":[],"name":"buyUSDT","outputs":[],"stateMutability":"payable","type":"function"},{"inputs":[],"name":"buyWithBNB","outputs":[],"stateMutability":"payable","type":"function"},{"inputs":[{"components":[{"internalType":"address","name":"user","type":"address"},{"internalType":"address","name":"referrer","type":"address"},{"internalType":"uint256","name":"nonce","type":"uint256"},{"internalType":"uint256","name":"deadline","type":"uint256"}],"internalType":"struct TokenICO.WhitelistRef","name":"v","type":"tuple"},{"internalType":"bytes","name":"sig","type":"bytes"}],"name":"buyWithBNB_Voucher","outputs":[],"stateMutability":"payable","type":"function"},{"inputs":[{"internalType":"uint256","name":"btcAmount","type":"uint256"}],"name":"buyWithBTC","outputs":[],"stateMutability":"nonpayable","type":"function"},{"inputs":[{"components":[{"internalType":"address","name":"user","type":"address"},{"internalType":"address","name":"referrer","type":"address"},{"internalType":"uint256","name":"nonce","type":"uint256"},{"internalType":"uint256","name":"deadline","type":"uint256"}],"internalType":"struct TokenICO.WhitelistRef","name":"v","type":"tuple"},{"internalType":"bytes","name":"sig","type":"bytes"},{"internalType":"uint256","name":"btcAmount","type":"uint256"}],"name":"buyWithBTC_Voucher","outputs":[],"stateMutability":"nonpayable","type":"function"},{"inputs":[{"internalType":"uint256","name":"ethAmount","type":"uint256"}],"name":"buyWithETH","outputs":[],"stateMutability":"nonpayable","type":"function"},{"inputs":[{"components":[{"internalType":"address","name":"user","type":"address"},{"internalType":"address","name":"referrer","type":"address"},{"internalType":"uint256","name":"nonce","type":"uint256"},{"internalType":"uint256","name":"deadline","type":"uint256"}],"internalType":"struct TokenICO.WhitelistRef","name":"v","type":"tuple"},{"internalType":"bytes","name":"sig","type":"bytes"},{"internalType":"uint256","name":"ethAmount","type":"uint256"}],"name":"buyWithETH_Voucher","outputs":[],"stateMutability":"nonpayable","type":"function"},{"inputs":[{"internalType":"uint256","name":"solAmount","type":"uint256"}],"name":"buyWithSOL","outputs":[],"stateMutability":"nonpayable","type":"function"},{"inputs":[{"components":[{"internalType":"address","name":"user","type":"address"},{"internalType":"address","name":"referrer","type":"address"},{"internalType":"uint256","name":"nonce","type":"uint256"},{"internalType":"uint256","name":"deadline","type":"uint256"}],"internalType":"struct TokenICO.WhitelistRef","name":"v","type":"tuple"},{"internalType":"bytes","name":"sig","type":"bytes"},{"internalType":"uint256","name":"solAmount","type":"uint256"}],"name":"buyWithSOL_Voucher","outputs":[],"stateMutability":"nonpayable","type":"function"},{"inputs":[{"internalType":"uint256","name":"usdcAmount","type":"uint256"}],"name":"buyWithUSDC","outputs":[],"stateMutability":"nonpayable","type":"function"},{"inputs":[{"components":[{"internalType":"address","name":"user","type":"address"},{"internalType":"address","name":"referrer","type":"address"},{"internalType":"uint256","name":"nonce","type":"uint256"},{"internalType":"uint256","name":"deadline","type":"uint256"}],"internalType":"struct TokenICO.WhitelistRef","name":"v","type":"tuple"},{"internalType":"bytes","name":"sig","type":"bytes"},{"internalType":"uint256","name":"usdcAmount","type":"uint256"}],"name":"buyWithUSDC_Voucher","outputs":[],"stateMutability":"nonpayable","type":"function"},{"inputs":[{"internalType":"uint256","name":"usdtAmount","type":"uint256"}],"name":"buyWithUSDT","outputs":[],"stateMutability":"nonpayable","type":"function"},{"inputs":[{"components":[{"internalType":"address","name":"user","type":"address"},{"internalType":"address","name":"referrer","type":"address"},{"internalType":"uint256","name":"nonce","type":"uint256"},{"internalType":"uint256","name":"deadline","type":"uint256"}],"internalType":"struct TokenICO.WhitelistRef","name":"v","type":"tuple"},{"internalType":"bytes","name":"sig","type":"bytes"},{"internalType":"uint256","name":"usdtAmount","type":"uint256"}],"name":"buyWithUSDT_Voucher","outputs":[],"stateMutability":"nonpayable","type":"function"},{"inputs":[{"internalType":"uint256","name":"stakeId","type":"uint256"}],"name":"calculateRewards","outputs":[{"internalType":"uint256","name":"","type":"uint256"}],"stateMutability":"view","type":"function"},{"inputs":[],"name":"ethAddress","outputs":[{"internalType":"address","name":"","type":"address"}],"stateMutability":"view","type":"function"},{"inputs":[],"name":"ethRatio","outputs":[{"internalType":"uint256","name":"","type":"uint256"}],"stateMutability":"view","type":"function"},{"inputs":[],"name":"getAllTransactions","outputs":[{"components":[{"internalType":"uint256","name":"timestamp","type":"uint256"},{"internalType":"address","name":"user","type":"address"},{"internalType":"address","name":"tokenIn","type":"address"},{"internalType":"address","name":"tokenOut","type":"address"},{"internalType":"uint256","name":"amountIn","type":"uint256"},{"internalType":"uint256","name":"amountOut","type":"uint256"},{"internalType":"string","name":"transactionType","type":"string"}],"internalType":"struct TokenICO.Transaction[]","name":"","type":"tuple[]"}],"stateMutability":"view","type":"function"},{"inputs":[],"name":"getContractInfo","outputs":[{"internalType":"address","name":"tokenAddress","type":"address"},{"internalType":"uint256","name":"tokenBalance","type":"uint256"},{"internalType":"uint256","name":"bnbPrice","type":"uint256"},{"internalType":"uint256","name":"stablecoinPrice","type":"uint256"},{"internalType":"uint256","name":"totalSold","type":"uint256"},{"internalType":"address","name":"usdtAddr","type":"address"},{"internalType":"address","name":"usdcAddr","type":"address"},{"internalType":"uint256","name":"usdtTokenRatio","type":"uint256"},{"internalType":"uint256","name":"usdcTokenRatio","type":"uint256"}],"stateMutability":"view","type":"function"},{"inputs":[{"internalType":"address","name":"buyer","type":"address"}],"name":"getCurrentPrice","outputs":[{"internalType":"uint256","name":"","type":"uint256"}],"stateMutability":"view","type":"function"},{"inputs":[{"internalType":"address","name":"user","type":"address"}],"name":"getReferralInfo","outputs":[{"internalType":"address","name":"referrer","type":"address"},{"internalType":"uint256","name":"totalReferrals","type":"uint256"},{"internalType":"uint256","name":"totalRewardsEarned","type":"uint256"},{"internalType":"uint256","name":"rewardPercentage","type":"uint256"}],"stateMutability":"view","type":"function"},{"inputs":[{"internalType":"uint256","name":"stakeId","type":"uint256"}],"name":"getStakeDetails","outputs":[{"internalType":"uint256","name":"lockPeriod","type":"uint256"},{"internalType":"uint256","name":"pendingRewards","type":"uint256"},{"internalType":"bool","name":"active","type":"bool"}],"stateMutability":"view","type":"function"},{"inputs":[{"internalType":"uint256","name":"stakeId","type":"uint256"}],"name":"getStakeInfo","outputs":[{"internalType":"uint256","name":"id","type":"uint256"},{"internalType":"address","name":"stakeOwnerAddr","type":"address"},{"internalType":"uint256","name":"amount","type":"uint256"},{"internalType":"uint256","name":"startTime","type":"uint256"}],"stateMutability":"view","type":"function"},{"inputs":[],"name":"getStakingInfo","outputs":[{"internalType":"uint256","name":"baseApyRate","type":"uint256"},{"internalType":"uint256","name":"minStakingAmount","type":"uint256"},{"internalType":"uint256","name":"totalTokensStaked","type":"uint256"},{"internalType":"uint256","name":"totalRewardsPaid","type":"uint256"},{"internalType":"uint256","name":"numberOfStakers","type":"uint256"}],"stateMutability":"view","type":"function"},{"inputs":[],"name":"getTokenBalances","outputs":[{"internalType":"uint256","name":"tokenBalance","type":"uint256"},{"internalType":"uint256","name":"usdtBalance","type":"uint256"},{"internalType":"uint256","name":"usdcBalance","type":"uint256"}],"stateMutability":"view","type":"function"},{"inputs":[],"name":"getTotalPenaltyCollected","outputs":[{"internalType":"uint256","name":"","type":"uint256"}],"stateMutability":"view","type":"function"},{"inputs":[{"internalType":"address","name":"referrer","type":"address"}],"name":"getUserReferrals","outputs":[{"internalType":"address[]","name":"","type":"address[]"}],"stateMutability":"view","type":"function"},{"inputs":[{"internalType":"address","name":"user","type":"address"}],"name":"getUserStakes","outputs":[{"components":[{"internalType":"uint256","name":"id","type":"uint256"},{"internalType":"uint256","name":"amount","type":"uint256"},{"internalType":"uint256","name":"startTime","type":"uint256"},{"internalType":"uint256","name":"lockPeriod","type":"uint256"},{"internalType":"uint256","name":"lastRewardCalculation","type":"uint256"},{"internalType":"uint256","name":"pendingRewards","type":"uint256"},{"internalType":"bool","name":"active","type":"bool"}],"internalType":"struct TokenICO.Stake[]","name":"","type":"tuple[]"}],"stateMutability":"view","type":"function"},{"inputs":[{"internalType":"address","name":"user","type":"address"}],"name":"getUserStakingInfo","outputs":[{"internalType":"uint256","name":"totalUserStaked","type":"uint256"},{"internalType":"uint256","name":"totalPendingRewards","type":"uint256"},{"internalType":"uint256","name":"activeStakesCount","type":"uint256"}],"stateMutability":"view","type":"function"},{"inputs":[{"internalType":"address","name":"user","type":"address"}],"name":"getUserTransactions","outputs":[{"components":[{"internalType":"uint256","name":"timestamp","type":"uint256"},{"internalType":"address","name":"user","type":"address"},{"internalType":"address","name":"tokenIn","type":"address"},{"internalType":"address","name":"tokenOut","type":"address"},{"internalType":"uint256","name":"amountIn","type":"uint256"},{"internalType":"uint256","name":"amountOut","type":"uint256"},{"internalType":"string","name":"transactionType","type":"string"}],"internalType":"struct TokenICO.Transaction[]","name":"","type":"tuple[]"}],"stateMutability":"view","type":"function"},{"inputs":[{"internalType":"uint256","name":"stakeId","type":"uint256"}],"name":"harvestRewards","outputs":[],"stateMutability":"nonpayable","type":"function"},{"inputs":[{"internalType":"address","name":"","type":"address"}],"name":"hasStaked","outputs":[{"internalType":"bool","name":"","type":"bool"}],"stateMutability":"view","type":"function"},{"inputs":[],"name":"minStakeAmount","outputs":[{"internalType":"uint256","name":"","type":"uint256"}],"stateMutability":"view","type":"function"},{"inputs":[],"name":"nextStakeId","outputs":[{"internalType":"uint256","name":"","type":"uint256"}],"stateMutability":"view","type":"function"},{"inputs":[],"name":"owner","outputs":[{"internalType":"address","name":"","type":"address"}],"stateMutability":"view","type":"function"},{"inputs":[],"name":"publicInterval","outputs":[{"internalType":"uint256","name":"","type":"uint256"}],"stateMutability":"view","type":"function"},{"inputs":[],"name":"referralRewardPercentage","outputs":[{"internalType":"uint256","name":"","type":"uint256"}],"stateMutability":"view","type":"function"},{"inputs":[{"internalType":"address","name":"","type":"address"}],"name":"referralRewards","outputs":[{"internalType":"uint256","name":"","type":"uint256"}],"stateMutability":"view","type":"function"},{"inputs":[{"internalType":"address","name":"","type":"address"},{"internalType":"uint256","name":"","type":"uint256"}],"name":"referrals","outputs":[{"internalType":"address","name":"","type":"address"}],"stateMutability":"view","type":"function"},{"inputs":[{"internalType":"address","name":"","type":"address"}],"name":"referrers","outputs":[{"internalType":"address","name":"","type":"address"}],"stateMutability":"view","type":"function"},{"inputs":[{"internalType":"address","name":"referrer","type":"address"}],"name":"registerReferrer","outputs":[],"stateMutability":"nonpayable","type":"function"},{"inputs":[],"name":"saleStartTime","outputs":[{"internalType":"uint256","name":"","type":"uint256"}],"stateMutability":"view","type":"function"},{"inputs":[],"name":"saleToken","outputs":[{"internalType":"address","name":"","type":"address"}],"stateMutability":"view","type":"function"},{"inputs":[{"internalType":"address","name":"user","type":"address"},{"internalType":"bool","name":"blocked","type":"bool"}],"name":"setBlockStatus","outputs":[],"stateMutability":"nonpayable","type":"function"},{"inputs":[{"internalType":"uint256","name":"startTime","type":"uint256"}],"name":"setSaleStartTime","outputs":[],"stateMutability":"nonpayable","type":"function"},{"inputs":[{"internalType":"address","name":"_token","type":"address"}],"name":"setSaleToken","outputs":[],"stateMutability":"nonpayable","type":"function"},{"inputs":[{"internalType":"address","name":"_signer","type":"address"}],"name":"setSigner","outputs":[],"stateMutability":"nonpayable","type":"function"},{"inputs":[{"internalType":"address","name":"user","type":"address"},{"internalType":"bool","name":"status","type":"bool"}],"name":"setWaitlisted","outputs":[],"stateMutability":"nonpayable","type":"function"},{"inputs":[],"name":"signer","outputs":[{"internalType":"address","name":"","type":"address"}],"stateMutability":"view","type":"function"},{"inputs":[],"name":"solAddress","outputs":[{"internalType":"address","name":"","type":"address"}],"stateMutability":"view","type":"function"},{"inputs":[],"name":"solRatio","outputs":[{"internalType":"uint256","name":"","type":"uint256"}],"stateMutability":"view","type":"function"},{"inputs":[],"name":"stablecoinPriceIncrement","outputs":[{"internalType":"uint256","name":"","type":"uint256"}],"stateMutability":"view","type":"function"},{"inputs":[{"internalType":"uint256","name":"","type":"uint256"}],"name":"stakeOwners","outputs":[{"internalType":"address","name":"","type":"address"}],"stateMutability":"view","type":"function"},{"inputs":[{"internalType":"uint256","name":"amount","type":"uint256"},{"internalType":"uint256","name":"lockPeriodDays","type":"uint256"}],"name":"stakeTokens","outputs":[],"stateMutability":"nonpayable","type":"function"},{"inputs":[],"name":"tokensSold","outputs":[{"internalType":"uint256","name":"","type":"uint256"}],"stateMutability":"view","type":"function"},{"inputs":[],"name":"totalPenaltyCollected","outputs":[{"internalType":"uint256","name":"","type":"uint256"}],"stateMutability":"view","type":"function"},{"inputs":[],"name":"totalRewardsDistributed","outputs":[{"internalType":"uint256","name":"","type":"uint256"}],"stateMutability":"view","type":"function"},{"inputs":[],"name":"totalStaked","outputs":[{"internalType":"uint256","name":"","type":"uint256"}],"stateMutability":"view","type":"function"},{"inputs":[],"name":"totalStakers","outputs":[{"internalType":"uint256","name":"","type":"uint256"}],"stateMutability":"view","type":"function"},{"inputs":[{"internalType":"uint256","name":"stakeId","type":"uint256"}],"name":"unstakeEarly","outputs":[],"stateMutability":"nonpayable","type":"function"},{"inputs":[{"internalType":"uint256","name":"stakeId","type":"uint256"}],"name":"unstakeTokens","outputs":[],"stateMutability":"nonpayable","type":"function"},{"inputs":[{"internalType":"address","name":"newAddress","type":"address"},{"internalType":"uint256","name":"newRatio","type":"uint256"}],"name":"updateBTC","outputs":[],"stateMutability":"nonpayable","type":"function"},{"inputs":[{"internalType":"uint256","name":"newAPY","type":"uint256"}],"name":"updateBaseAPY","outputs":[],"stateMutability":"nonpayable","type":"function"},{"inputs":[{"internalType":"address","name":"newAddress","type":"address"},{"internalType":"uint256","name":"newRatio","type":"uint256"}],"name":"updateETH","outputs":[],"stateMutability":"nonpayable","type":"function"},{"inputs":[{"internalType":"uint256","name":"newMinAmount","type":"uint256"}],"name":"updateMinStakeAmount","outputs":[],"stateMutability":"nonpayable","type":"function"},{"inputs":[{"internalType":"uint256","name":"newPercentage","type":"uint256"}],"name":"updateReferralPercentage","outputs":[],"stateMutability":"nonpayable","type":"function"},{"inputs":[{"internalType":"address","name":"newAddress","type":"address"},{"internalType":"uint256","name":"newRatio","type":"uint256"}],"name":"updateSOL","outputs":[],"stateMutability":"nonpayable","type":"function"},{"inputs":[{"internalType":"uint256","name":"newPrice","type":"uint256"}],"name":"updateStablecoinPrice","outputs":[],"stateMutability":"nonpayable","type":"function"},{"inputs":[{"internalType":"uint256","name":"newPrice","type":"uint256"}],"name":"updateTokenPrice","outputs":[],"stateMutability":"nonpayable","type":"function"},{"inputs":[{"internalType":"address","name":"newAddress","type":"address"},{"internalType":"uint256","name":"newRatio","type":"uint256"}],"name":"updateUSDC","outputs":[],"stateMutability":"nonpayable","type":"function"},{"inputs":[{"internalType":"address","name":"newAddress","type":"address"},{"internalType":"uint256","name":"newRatio","type":"uint256"}],"name":"updateUSDT","outputs":[],"stateMutability":"nonpayable","type":"function"},{"inputs":[],"name":"usdcAddress","outputs":[{"internalType":"address","name":"","type":"address"}],"stateMutability":"view","type":"function"},{"inputs":[],"name":"usdcRatio","outputs":[{"internalType":"uint256","name":"","type":"uint256"}],"stateMutability":"view","type":"function"},{"inputs":[],"name":"usdtAddress","outputs":[{"internalType":"address","name":"","type":"address"}],"stateMutability":"view","type":"function"},{"inputs":[],"name":"usdtRatio","outputs":[{"internalType":"uint256","name":"","type":"uint256"}],"stateMutability":"view","type":"function"},{"inputs":[{"internalType":"address","name":"","type":"address"}],"name":"usedNonce","outputs":[{"internalType":"uint256","name":"","type":"uint256"}],"stateMutability":"view","type":"function"},{"inputs":[{"internalType":"address","name":"","type":"address"},{"internalType":"uint256","name":"","type":"uint256"}],"name":"userStakes","outputs":[{"internalType":"uint256","name":"id","type":"uint256"},{"internalType":"uint256","name":"amount","type":"uint256"},{"internalType":"uint256","name":"startTime","type":"uint256"},{"internalType":"uint256","name":"lockPeriod","type":"uint256"},{"internalType":"uint256","name":"lastRewardCalculation","type":"uint256"},{"internalType":"uint256","name":"pendingRewards","type":"uint256"},{"internalType":"bool","name":"active","type":"bool"}],"stateMutability":"view","type":"function"},{"inputs":[{"internalType":"address","name":"","type":"address"},{"internalType":"uint256","name":"","type":"uint256"}],"name":"userTransactions","outputs":[{"internalType":"uint256","name":"timestamp","type":"uint256"},{"internalType":"address","name":"user","type":"address"},{"internalType":"address","name":"tokenIn","type":"address"},{"internalType":"address","name":"tokenOut","type":"address"},{"internalType":"uint256","name":"amountIn","type":"uint256"},{"internalType":"uint256","name":"amountOut","type":"uint256"},{"internalType":"string","name":"transactionType","type":"string"}],"stateMutability":"view","type":"function"},{"inputs":[],"name":"waitlistInterval","outputs":[{"internalType":"uint256","name":"","type":"uint256"}],"stateMutability":"view","type":"function"},{"inputs":[],"name":"waitlistSold","outputs":[{"internalType":"uint256","name":"","type":"uint256"}],"stateMutability":"view","type":"function"},{"inputs":[{"internalType":"address","name":"","type":"address"}],"name":"waitlisted","outputs":[{"internalType":"bool","name":"","type":"bool"}],"stateMutability":"view","type":"function"},{"inputs":[{"internalType":"address","name":"_token","type":"address"},{"internalType":"uint256","name":"_amount","type":"uint256"}],"name":"withdrawTokens","outputs":[],"stateMutability":"nonpayable","type":"function"}],"evm":{"bytecode":{"linkReferences":{},"object":"60a08060405234620001e357602060089166013e52b9abe00060065566038d7ea4c6800060075561c350601255603c6013556014601e8155600c60195568056bc75e2d63100000601a55600183556005602255336080523360018060a01b031960265416176026558084558060095580600a5580600b55600d556200008481620001e8565b8281520167546f6b656e49434f60c01b81522060016020604051620000a981620001e8565b82815201603160f81b815220906040519160208301917f8b73c3c69bb8fe3d512ecc4cf759cc79239f7b179b0ffacaa9a75d522b39400f8352604084015260608301524660808301523060a083015260a0825260c082019180831060018060401b03841117620001cd5782604052519020602755615c689081620002058239608051818181610537015281816107d2015281816108ed01528181610d0a01528181610e36015281816110db015281816116e601528181611a4c01528181611d910152818161213801528181612232015281816122d70152818161239f015281816127f901528181612c1f01528181612ccf01528181612e1a01528181612eec0152818161325b0152818161381501528181613a2901528181613b2e0152613c850152f35b634e487b7160e01b600052604160045260246000fd5b600080fd5b604081019081106001600160401b03821117620001cd5760405256fe6080604081815260048036101561001557600080fd5b60009260e08435811c91826302d4545714613e7d57508163032d975b14613e5d57816306360b8514613e3057816306b091f914613c645781630981348214613b9457816314ce670b14613b80578163182a676b14613aea5781631c042d3514613aca5781631cbaee2d14613aaa5781631ce24e1614613a805781631e37c606146139fc57816320f1fc61146139b0578163214405a91461399057816321874ae21461392f578163238ac93314613905578163251545da1461370557816327506f53146136255781632ba77022146136115781632bb3880914612db45781632fd04c08146132e25781633644e515146132c25781633a5d4175146132ae5781633a94be2d1461322d5781633b7b618814612f435781633e4e645314612ebf5781633e61e9dc14612e8657816341398b1514612e5c57816342e97cb814612df45781634561f1e114612dd4578163491cc75614612db45781634a3b68cc14612d785781634cdb312d14612cb35781634f93208a14612c74578163518ab2a814612c54578163525f8a5c14612c0657816353aaa63b14612bcd57816357126d0d1461299e578163575cea6b146128f35781635b365040146126e9578163608e4dd01461240d57816363219c721461236057816364f1d11314612340578163676c0d77146122985781636c19e783146122095781636f43f373146121e957816371d20fe71461211c57816375506c96146120fd578163776ff66a146120dd578163794a32921461209e5781637a9773dc1461207e5781637cc1f86714611f9f5781637df7418114611b375781637ea61fe3146119a757816380933608146118c4578163817b1cd2146118a457816383fabe0314611884578163842e29811461177c57816384cc315b14611755578163862dd2e21461173557816386989038146117155781638da5cb5b146116d0578163920a253e146116b057816392feb8491461168857816394dc9cf314611580578163963c9dd3146114a55781639ab4a4451461147b5781639c0fbd051461145e5781639ea7685a146112b6578163a0b3b93014611296578163a1dc903114611120578163a29f481c146110b2578163a77c80aa1461107c578163a7c6016014610f30578163aeccf73514610d61578163b006984f14610cdd578163b3b9470614610cbd578163b40cd21d14610c7b578163b5d5b5fa14610be857508063b842ec4414610b6a578063bc5894ba14610b4b578063c93c8f3414610b0d578063d3ea435014610ae6578063d7ff07141461099e578063d8060cd5146108d2578063d8dc286a146108ac578063e697b5d814610851578063e985e36714610829578063ebcd3a13146107a6578063ecb2dd741461076b578063ee1725461461074c578063ef9253991461066e578063f18876841461064b578063f30ef2e514610496578063f7d76ae51461046f5763fd9a11e51461043a57600080fd5b3461046b57602036600319011261046b57358252601c6020908152918190205490516001600160a01b039091168152f35b8280fd5b503461046b578260031936011261046b575490516001600160a01b03909116815260209150f35b503461046b57602036600319011261046b5780359033845260106020526104c360ff848620541615614440565b6104ce8215156145e6565b83546001600160a01b0392906104e790841615156144f8565b82600554166104f781151561485a565b610503600d5483614394565b92633b9aca00938481029481860414901517156106385785516323b872dd60e01b8152339181019182526001600160a01b037f00000000000000000000000000000000000000000000000000000000000000001660208381019190915260408301859052909392909184919082908a90829060600103925af1801561062e57600080516020615c13833981519152936105aa6105af926105fa958a91610600575b5061489b565b6151ba565b936105b9856153f4565b6105d681600554168684848b54166105cf6145c7565b9333615b11565b60055416945191829133954291846040919493926060820195825260208201520152565b0390a380f35b610621915060203d8111610627575b610619818361413d565b810190614674565b386105a4565b503d61060f565b85513d88823e3d90fd5b634e487b7160e01b875260119052602486fd5b50503461066a578160031936011261066a57602090601a549051908152f35b5080fd5b5082903461066a5760209182600319360112610749576001600160a01b039283610696613ea2565b16825260168152848220918254936106ad85615b6d565b956106ba8851978861413d565b85875283870194835283832092945b8686106106e1578851806106dd8a82613f98565b0390f35b6007856001928b516106f2816140b7565b8754815285858901541683820152856002890154168d820152856003890154166060820152868801546080820152600588015460a08201526107366006890161415f565b60c08201528152019401950194926106c9565b80fd5b50503461066a578160031936011261066a57602090601e549051908152f35b50503461066a578160031936011261066a57602090517f91b089318bbdf627bacec662873c12cc3afdc69db73f084d7726e9ce2907280a8152f35b50503461066a57366003190112610749576107bf613ea2565b602435906001600160a01b03906107f9337f0000000000000000000000000000000000000000000000000000000000000000841614614262565b166108058115156142d7565b610810821515614315565b6001600160601b0360a01b6005541617600555600d5580f35b50503461066a578160031936011261066a57905490516001600160a01b039091168152602090f35b50503461066a578060031936011261066a5761086b613ea2565b6001600160a01b0390811683526024602081905282842080549135949091851015610749575060209361089d9161424a565b92905490519260031b1c168152f35b50503461066a578160031936011261066a57602090516a01a784379d99db420000008152f35b503461046b57602036600319011261046b5780359061091b337f00000000000000000000000000000000000000000000000000000000000000006001600160a01b031614614262565b811561095b5750907f171aabb8815c02fd00303450a77058600e3661eb75ce2e77972c0f080bc7099d91601a549080601a5582519182526020820152a180f35b606490602084519162461bcd60e51b8352820152602060248201527f4d696e207374616b65206d7573742062652067726561746572207468616e20306044820152fd5b503461046b57602036600319011261046b573560175481101561046b576017600792935202906106dd827fc624b66cc0138b8fabc209247f72d758e1cf3343756d543badbf24212bed8c1501549160018060a01b0393847fc624b66cc0138b8fabc209247f72d758e1cf3343756d543badbf24212bed8c168201541694807fc624b66cc0138b8fabc209247f72d758e1cf3343756d543badbf24212bed8c1783015416907fc624b66cc0138b8fabc209247f72d758e1cf3343756d543badbf24212bed8c18830154167fc624b66cc0138b8fabc209247f72d758e1cf3343756d543badbf24212bed8c1983015491610adb7fc624b66cc0138b8fabc209247f72d758e1cf3343756d543badbf24212bed8c1b7fc624b66cc0138b8fabc209247f72d758e1cf3343756d543badbf24212bed8c1a860154950161415f565b945197889788614205565b5091346107495760203660031901126107495750610b0660209235614f6e565b9051908152f35b50503461066a57602036600319011261066a5760209160ff9082906001600160a01b03610b38613ea2565b1681526021855220541690519015158152f35b50503461066a578160031936011261066a57602090600b549051908152f35b5091903461066a578060031936011261066a57610b85613ea2565b6001600160a01b0390811683526016602052818320805491936024359283101561074957506106dd9291610bb89161404b565b50805493806001830154169581600284015416916003840154169083015491610adb60066005860154950161415f565b93905034610749578260031936011261074957610c03613ea2565b6001600160a01b03168152601b60205282812080546024359290831015610749575090610c2f9161404b565b5080549260018201549260028301546003840154918401549260ff600660058701549601541695815197885260208801528601526060850152608084015260a0830152151560c0820152f35b5050503461066a578160031936011261066a5760a09060195490601a5490601d54601e5491601f54938151958652602086015284015260608301526080820152f35b5050503461066a578160031936011261066a576020906012549051908152f35b5050503461066a5736600319011261074957610cf7613ea2565b602435906001600160a01b0390610d31337f0000000000000000000000000000000000000000000000000000000000000000841614614262565b16610d3d8115156142d7565b610d48821515614315565b6001600160601b0360a01b600154161760015560085580f35b50503461046b57602036600319011261046b578035903384526010602052610d8f60ff848620541615614440565b811591610d9c83156145e6565b84546001600160a01b039390610db590851615156144f8565b8360025416610dc58115156146cf565b620f42409182840292848404141715610f1d57610de1336143b4565b610ded60075485614394565b670de0b6b3a764000090818102918183041490151715610f0a5791610e19610e76959492602094614374565b88516323b872dd60e01b8152339781019788526001600160a01b037f00000000000000000000000000000000000000000000000000000000000000001660208901526040880193909352959194859283918b918391606090910190565b03925af1801561062e57600080516020615c13833981519152936105aa610ea8926105fa958a91610eec575b50614711565b93610eb2856153f4565b610ec881600254168684848b54166105cf6145c7565b60025416945191829133954291846040919493926060820195825260208201520152565b610f04915060203d811161062757610619818361413d565b38610ea2565b634e487b7160e01b895260118652602489fd5b634e487b7160e01b875260118452602487fd5b50503461046b57602036600319011261046b578035903384526010602052610f5e60ff848620541615614440565b811591610f6b83156145e6565b84546001600160a01b039390610f8490851615156144f8565b8360015416610f94811515614632565b620f42409182840292848404141715610f1d57610fb0336143b4565b610fbc60075485614394565b670de0b6b3a764000090818102918183041490151715610f0a5791610e19610fe8959492602094614374565b03925af1801561062e57600080516020615c13833981519152936105aa61101a926105fa958a9161105e575b5061468c565b93611024856153f4565b61103a81600154168684848b54166105cf6145c7565b60015416945191829133954291846040919493926060820195825260208201520152565b611076915060203d811161062757610619818361413d565b38611014565b50503461046b57610d8f9061109036613eeb565b949291909133885260106020526110ad60ff888a20541615614440565b6148f1565b8434610749576020366003190112610749576110cc613ea2565b6001600160a01b0390611102337f0000000000000000000000000000000000000000000000000000000000000000841614614262565b1661110e8115156142d7565b81546001600160a01b03191617815580f35b5050903461046b578260031936011261046b57825481516370a0823160e01b808252308286015290946001600160a01b03946020938490889060249082908a165afa95861561128c57829661125c575b602497508481600154168751998a809288825230878301525afa978815611252578398611222575b509060248592600254169487519586938492835230908301525afa9283156112165781936111e3575b5050506106dd9151938493846040919493926060820195825260208201520152565b9091809350813d831161120f575b6111fb818361413d565b810103126107495750516106dd38806111c1565b503d6111f1565b508351903d90823e3d90fd5b9097508481813d831161124b575b61123a818361413d565b8101031261046b5751966024611198565b503d611230565b86513d85823e3d90fd5b95508387813d8311611285575b611273818361413d565b8101031261066a576024965195611170565b503d611269565b85513d84823e3d90fd5b5050503461066a578160031936011261066a576020906006549051908152f35b5050903461046b5760208060031936011261145a576112d3613ea2565b92338552601082526112eb60ff848720541615614440565b6001600160a01b03938416938415611418573385146113de57338652602383528386205416611392575060159033855260238152828520846001600160601b0360a01b8254161790558385526024815261134733848720614481565b3385525260018184209160ff1992828482541617905583855284209182541617905533907f5f1ca2fcc108b751843a763e60d2201f593516109d7dbb1b700468f2d4190bb78380a380f35b915162461bcd60e51b815291820152602260248201527f416c72656164792072656769737465726564207769746820612072656665727260448201526132b960f11b6064820152608490fd5b50915162461bcd60e51b815291820152601560248201527421b0b73737ba103932b332b9103cb7bab939b2b63360591b6044820152606490fd5b50915162461bcd60e51b815291820152601860248201527f496e76616c6964207265666572726572206164647265737300000000000000006044820152606490fd5b8380fd5b5050503461066a578160031936011261066a576020905160058152f35b5050503461066a578160031936011261066a5760015490516001600160a01b039091168152602090f35b50503461046b576020908160031936011261145a5735808452601c8252828420546001600160a01b0316939092906114de851515614eae565b6114e6615bda565b8195825b818452601b808752858520805483101561156b57611509838a9261404b565b50541461151f575061151a90614e9f565b6114ea565b60609850611542935084869161153c94611552975288522061404b565b50615b85565b9361154d6001614ef1565b614f6e565b60c0858501519401511515928251948552840152820152f35b5050505093611552915061154d606096614ef1565b50503461046b57602036600319011261046b5780359033845260106020526115ae60ff848620541615614440565b6115b98215156145e6565b83546001600160a01b03926115f4916115d590851615156144f8565b60208185600354166115e8811515614754565b610e19600b5483614394565b03925af1801561062e57600080516020615c13833981519152936105aa611626926105fa958a9161166a575b50614795565b93611630856153f4565b61164681600354168684848b54166105cf6145c7565b60035416945191829133954291846040919493926060820195825260208201520152565b611682915060203d811161062757610619818361413d565b38611620565b5050503461066a578160031936011261066a57602090516b01f04ef12cb04cf1580000008152f35b5050503461066a578160031936011261066a576020906022549051908152f35b5050503461066a578160031936011261066a57517f00000000000000000000000000000000000000000000000000000000000000006001600160a01b03168152602090f35b5050503461066a578160031936011261066a57602090601f549051908152f35b5050503461066a578160031936011261066a576020906013549051908152f35b5050503461066a57602036600319011261066a57602090610b06611777613ea2565b6143b4565b9150503461046b5760208060031936011261145a5790916001600160a01b036117a3613ea2565b168452601b8252808420918254916117ba83615b6d565b926117c78251948561413d565b8084528284018095885283882088915b838310611857575050505080519482860193838752518094528186019496915b8483106118045786860387f35b87518051875280850151878601528082015187830152606080820151908801526080808201519088015260a0808201519088015260c09081015115159087015296830196948101946001909201916117f7565b60078660019261186e859d999a9b9d9c989c615b85565b81520192019201919098969594989793976117d7565b5050503461066a578160031936011261066a576020906008549051908152f35b5050503461066a578160031936011261066a57602090601d549051908152f35b8385346107495760209081600319360112610749576118e1613ea2565b9091829182919082906001600160a01b0316815b818652601b808552888720805483101561198f5760ff6006611918858d9461404b565b50015416611931575b505061192c90614e9f565b6118f5565b82969461195f839a600161195661192c97611981968e611987998e8d8352522061404b565b500154906143a7565b99858a52875261197b611974898d8c2061404b565b5054614f6e565b906143a7565b93614e9f565b949088611921565b89518981526020810186905260408101889052606090f35b50503461046b576119d76119ba36613eeb565b939291909133885260106020526110ad60ff888a20541615614440565b6119e28115156145e6565b83546001600160a01b0391906119fb90831615156144f8565b8183541690611a0b8215156147d7565b611a17600c5482614394565b926402540be40093848102948186041490151715611b245785516323b872dd60e01b8152338682019081526001600160a01b037f000000000000000000000000000000000000000000000000000000000000000016602082810191909152604082018590529194859182908b90829060600103925af18015611b1a57600080516020615c13833981519152946105aa611abb926105fa968b91611afc575b50614818565b94611ac5866153f4565b611ada828254168785858c54166105cf6145c7565b5416945191829133954291846040919493926060820195825260208201520152565b611b14915060203d811161062757610619818361413d565b38611ab5565b86513d89823e3d90fd5b634e487b7160e01b875260118552602487fd5b828585366003190160a0811261046b5760801361066a5760843567ffffffffffffffff811161046b57611b6d9036908501613ebd565b919033845260209060108252611b8960ff848720541615614440565b60643590814211611f6a576001600160a01b03948735868116929190839003611f6657338303611f3057604435923389526028865286892054841115611f00576027549060243595898716809703611efc57885190888201927f91b089318bbdf627bacec662873c12cc3afdc69db73f084d7726e9ce2907280a84528a83015287606083015286608083015260a082015260a08152611c27816140e9565b5190208751908782019261190160f01b84526022830152604282015260428152611c5081614105565b51902090611c5d81614539565b92611c6a8851948561413d565b8184523682820111611ef857918987838694611c909683611c9899013784010152614d74565b919091614c5a565b858060265416911603611ec55733865260288352808487205583519081527fb23e07a4fc171f5f9242d4254c3b66b893beaab2f3787495c0f2d09dd3ef9726833392a28491811515908180611eb8575b80611ea4575b8481611e85575b50611e20575b601590338852528386209260ff1993600185825416179055611e1c57611e07575b50503415611d2a81156144bc565b611d388385541615156144f8565b611d41336143b4565b90670de0b6b3a76400009081340291348304141715611df45791611dd6611d7c6105aa600080516020615c1383398151915294889796614374565b93611d86856153f4565b611dc18680808034867f0000000000000000000000000000000000000000000000000000000000000000165af1611dbb614555565b50614585565b85541684611dcd6145c7565b91349033615ab2565b513481526020810192909252426040830152339180606081016105fa565b634e487b7160e01b855260118652602485fd5b84526001828520918254161790558480611d1c565b8580fd5b92611e1c5733865260238352838620826001600160601b0360a01b82541617905581865260248352611e5433858820614481565b6015869333847f5f1ca2fcc108b751843a763e60d2201f593516109d7dbb1b700468f2d4190bb78a80a39050611cfb565b9050611ea0578287526010815260ff85882054161584611cf5565b8680fd5b503387526023815285858820541615611cee565b5086935033831415611ce8565b835162461bcd60e51b8152808801849052600d60248201526c426164207369676e617475726560981b6044820152606490fd5b8980fd5b8a80fd5b865162461bcd60e51b8152808b01879052600a602482015269139bdb98d9481d5cd95960b21b6044820152606490fd5b855162461bcd60e51b8152808a01869052601060248201526f2737ba103cb7bab9103b37bab1b432b960811b6044820152606490fd5b8780fd5b835162461bcd60e51b8152808801849052600f60248201526e159bdd58da195c88195e1c1a5c9959608a1b6044820152606490fd5b9290503461145a578360031936011261145a57835481516370a0823160e01b815230938101939093526001600160a01b039081169390602084602481885afa93841561207457869461203c575b50610120955060065490600754600e54908260015416926002541693600854966009549881519a8b5260208b01528901526060880152608087015260a086015260c0850152830152610100820152f35b9093506020813d821161206c575b816120576020938361413d565b81010312611e1c576101209550519238611fec565b3d915061204a565b83513d88823e3d90fd5b5050503461066a578160031936011261066a57602090600d549051908152f35b5050503461066a57602036600319011261066a5760209160ff9082906001600160a01b036120ca613ea2565b1681526015855220541690519015158152f35b5050503461066a578160031936011261066a576020906014549051908152f35b5050503461066a578160031936011261066a5760209081549051908152f35b50503461046b57602036600319011261046b57803590612166337f00000000000000000000000000000000000000000000000000000000000000006001600160a01b031614614262565b81156121a65750907f787a1fca55641ce34a438271930bbb9401df20db2b4f510d4f252227d85df43d91601954908060195582519182526020820152a180f35b606490602084519162461bcd60e51b8352820152601a60248201527f415059206d7573742062652067726561746572207468616e20300000000000006044820152fd5b5050503461066a578160031936011261066a576020906009549051908152f35b843461074957602036600319011261074957612223613ea2565b6001600160a01b0390612259337f0000000000000000000000000000000000000000000000000000000000000000841614614262565b816026549116809282167f2d025324f0a785e8c12d0a0d91a9caa49df4ef20ff87e0df7213a1d4f3157beb8580a36001600160a01b0319161760265580f35b50503461046b57602036600319011261046b577f6e838f2a03741f5f2aff5480963b672fb0dd8430a4dc75db9b67ce009733c9fe9160a09135612305337f00000000000000000000000000000000000000000000000000000000000000006001600160a01b031614614262565b61231081151561429b565b60065491816006558051926060845260056060850152642a27a5a2a760d91b60808501526020840152820152a180f35b5050503461066a578160031936011261066a576020906007549051908152f35b50503461046b57602036600319011261046b577f6e838f2a03741f5f2aff5480963b672fb0dd8430a4dc75db9b67ce009733c9fe9160a091356123cd337f00000000000000000000000000000000000000000000000000000000000000006001600160a01b031614614262565b6123d881151561429b565b600754918160075580519260608452600a60608501526929aa20a12622a1a7a4a760b11b60808501526020840152820152a180f35b5050903461046b576020908160031936011261145a5782919235923385526010815260ff61244081848820541615614440565b848652601c8252828620546001600160a01b0390612461908216331461517c565b8694859283805b338b52601b808852888c2080548310156126d5579a61248983829c9d61404b565b5054146124a2575061249a90614e9f565b989798612468565b9550979850503389528385526124cb6124bd88888c2061404b565b509160068093015416614f2f565b33895283855260026124df88888c2061404b565b500154338a5284865260036124f689898d2061404b565b5001549062015180918281029281840414901517156126c25790612519916143a7565b42106126885791849161257c8a6125c29561255e6125368d614f6e565b9b3384528988528b61254a8282872061404b565b50946001809601549b3382528a522061404b565b500160ff198154169055601d612575888254614351565b9055614ef1565b6125853361533b565b61258f88866143a7565b8a54885163a9059cbb60e01b8152339381019384526020840192909252909485939091169183918c918391604090910190565b03925af190811561267e57906125df918891612661575b50614e5b565b84841515918261264d575b84519081527f7fc4727e062e336010f2c282598ef5f14facb3de68cf8195c2f23e1454b2b74e843392a361261c578480f35b7ff87cfa2d5feaea949ad65bb76a26d8553381bcb6382adbc83dedd48961bf32d991519283523392a3388080808480f35b61265986601e546143a7565b601e556125ea565b6126789150843d861161062757610619818361413d565b386125d9565b84513d89823e3d90fd5b855162461bcd60e51b8152808301869052601460248201527314dd1a5b1b081a5b881b1bd8dac81c195c9a5bd960621b6044820152606490fd5b634e487b7160e01b8b526011845260248bfd5b5050506125c29391509161257c8693614ef1565b50508260031936011261046b5733835260206010815261270f60ff848620541615614440565b34159061271c82156144bc565b6001546001600160a01b039290831690612737821515614632565b620f42409081340291348304141715611b245760075461275691614374565b9385516370a0823160e01b815230828201528381602481865afa80156128e957869189916128b8575b501061287557855163a9059cbb60e01b81523391810191825260208201869052939291829185919082908a90829060400103925af1801561062e577f48a1f8a6c840b32621ceab4439a2ccd00b337e705dfdcdec0b40c49abf3e6be3936127ee928892612858575b505061468c565b6128238580808034867f0000000000000000000000000000000000000000000000000000000000000000165af1611dbb614555565b612834816001541684611dcd614e3b565b600154935192835234602084015242604084015290921691339180606081016105fa565b61286e9250803d1061062757610619818361413d565b38806127e7565b855162461bcd60e51b8152908101839052601b60248201527f496e73756666696369656e742055534454206c697175696469747900000000006044820152606490fd5b809250858092503d83116128e2575b6128d1818361413d565b81010312611f66578590513861277f565b503d6128c7565b87513d8a823e3d90fd5b5050503461066a5760208060031936011261046b576001600160a01b03928361291a613ea2565b1681526024825282812091835190818185549182815201908195855282852090855b818110612988575050508261295291038361413d565b8451948186019282875251809352850193925b8281106129725785850386f35b8351871685529381019392810192600101612965565b82548a168452928401926001928301920161293c565b50503461046b576020908160031936011261145a578035913385526010815260ff936129cf85828820541615614440565b838652601c8252808620546001600160a01b0393906129f1908516331461517c565b8693875b338952601b808652848a208054831015612bba57612a14838a9261404b565b505414612a2a5750612a2590614e9f565b6129f5565b9697612a5391929394959650338a528787526006612a4a84888d2061404b565b50015416614f2f565b612a5c87614f6e565b958615612b7f5790612a8d91338a52808752896005612a7d8489842061404b565b500155338a52865284892061404b565b5042908301558654835163a9059cbb60e01b815233818501908152602081018890529092869284928390036040019183918c91165af1908115612b75578791612b58575b5015612b1e5750907ff87cfa2d5feaea949ad65bb76a26d8553381bcb6382adbc83dedd48961bf32d991601e612b088582546143a7565b9055519283523392a3612b1b6001614ef1565b80f35b82606492519162461bcd60e51b8352820152601660248201527514995dd85c99081d1c985b9cd9995c8819985a5b195960521b6044820152fd5b612b6f9150843d861161062757610619818361413d565b38612ad1565b83513d89823e3d90fd5b845162461bcd60e51b81528085018790526015602482015274139bc81c995dd85c991cc81d1bc81a185c9d995cdd605a1b6044820152606490fd5b505050505050509050612b1b9150614ef1565b5050503461066a57602036600319011261066a5760209181906001600160a01b03612bf6613ea2565b1681526025845220549051908152f35b84833461066a57602036600319011261066a57612c4d337f00000000000000000000000000000000000000000000000000000000000000006001600160a01b031614614262565b3560115580f35b5050503461066a578160031936011261066a57602090600e549051908152f35b5050503461066a57602036600319011261066a5760209160ff9082906001600160a01b03612ca0613ea2565b1681526010855220541690519015158152f35b50503461046b57602036600319011261046b57803590612cfd337f00000000000000000000000000000000000000000000000000000000000000006001600160a01b031614614262565b60148211612d3f5750907fd968a3cc702265c3ab67356df15ca21d50167b011f198b963e2a868e04e3d5e091602254908060225582519182526020820152a180f35b606490602084519162461bcd60e51b835282015260136024820152720a0cae4c6cadce8c2ceca40e8dede40d0d2ced606b1b6044820152fd5b5050503461066a57602036600319011261066a576020916001600160a01b0390829082612da3613ea2565b168152602385522054169051908152f35b5050503461066a578160031936011261066a576020906018549051908152f35b5050503461066a578160031936011261066a57602090600f549051908152f35b5050503461066a57612b1b90612e0936613f29565b91906001600160a01b0390612e41337f0000000000000000000000000000000000000000000000000000000000000000841614614262565b168452601560205283209060ff801983541691151516179055565b5050503461066a578160031936011261066a5760035490516001600160a01b039091168152602090f35b5050503461066a57602036600319011261066a5760209181906001600160a01b03612eaf613ea2565b1681526028845220549051908152f35b5050503461066a5736600319011261074957612ed9613ea2565b602435906001600160a01b0390612f13337f0000000000000000000000000000000000000000000000000000000000000000841614614262565b16612f1f8115156142d7565b612f2a821515614315565b6001600160601b0360a01b6003541617600355600b5580f35b8285853461066a578060031936011261066a5782356024359133845260209260108452612f7660ff838720541615614440565b601a5483106131ea5784546001600160a01b0316612f958115156144f8565b601e821480156131e0575b80156131d6575b80156131cb575b156131925782516323b872dd60e01b815233818901908152306020820152604081018690529091869183919082908a90829060600103925af19081156120745790612fff9187916131755750614e5b565b83549361300b85614e9f565b81558251613018816140b7565b85815281810185815284820142815260608301858152608084019042825260a08501928b845260c086019460018652338d52601b8852898d20805490600160401b82101561316157906130709160018201815561404b565b97909761314f57927fb4caaf29adda3eefee3ad552a8e85058589bf834c7466cae4ee58787f70589ed9b9c9d9e926130df9897959260069795518955516001890155516002880155516003870155519085015551600584015551151591019060ff801983541691151516179055565b858752601c8152828720336001600160601b0360a01b82541617905561310785601d546143a7565b601d5533875260218152828720805460ff811615613130575b505082519485528401523392a380f35b60ff19166001179055601f5461314590614e9f565b601f558780613120565b634e487b7160e01b8e528d8f5260248efd5b8f8f6041602492634e487b7160e01b835252fd5b61318c9150863d881161062757610619818361413d565b886125d9565b825162461bcd60e51b81528088018690526013602482015272125b9d985b1a59081b1bd8dac81c195c9a5bd9606a1b6044820152606490fd5b5061016d8214612fae565b5060b48214612fa7565b50605a8214612fa0565b815162461bcd60e51b8152808701859052601a60248201527f416d6f756e742062656c6f77206d696e696d756d207374616b650000000000006044820152606490fd5b5050903461046b5736600319011261066a57613247613ea2565b60243591906001600160a01b0390613282337f0000000000000000000000000000000000000000000000000000000000000000841614614262565b1661328e8115156142d7565b613299831515614315565b81546001600160a01b031916179055600c5580f35b50503461046b576115ae9061109036613eeb565b5050503461066a578160031936011261066a576020906027549051908152f35b50509134610749576020928360031936011261066a578035903383526010855260ff9161331483868620541615614440565b808452601c8652848420546001600160a01b039690613336908816331461517c565b8495855b338752601b80845282882080548310156135fe5761335983879261404b565b50541461336f575061336a90614e9f565b61333a565b919293949596975033885281845261339a61338c82858b2061404b565b509760068099015416614f2f565b33885281845260026133ae82858b2061404b565b50015433895282855260036133c583868c2061404b565b5001549062015180918281029281840414901517156135eb57996133f086928b9c9b98999a9b6143a7565b926133fa89614f6e565b9a33895285845261340d82888b2061404b565b5091876001809401549a80974210613591575b906134369291613496989933825288522061404b565b500160ff198154169055601d61344d898254614351565b9055986134638b61345e878b614351565b6143a7565b8c54875163a9059cbb60e01b8152339381019384526020840192909252909485939091169183918e918391604090910190565b03925af190811561358757976134b787926134f79a8c916135705750614e5b565b80613530575b50508015613500577f9c9ec3cfa814b0112b71c20d0b0ab54dead00a99fd389c174df717d2f1d364039282519485528401523392a3614ef1565b612b1b3361533b565b50907f7fc4727e062e336010f2c282598ef5f14facb3de68cf8195c2f23e1454b2b74e91519283523392a3614ef1565b601e61353d8282546143a7565b905583519081527ff87cfa2d5feaea949ad65bb76a26d8553381bcb6382adbc83dedd48961bf32d9853392a384386134bd565b6126789150873d891161062757610619818361413d565b83513d8b823e3d90fd5b505091935091935060058089029089820414891517156135d85791613436889492888f60646134969997049960186135ca8c82546143a7565b905599985090919250613420565b634e487b7160e01b8d5260118b5260248dfd5b634e487b7160e01b8a526011885260248afd5b505050505050505091506134f790614ef1565b50503461046b57610f5e9061109036613eeb565b50508234610749578060031936011261074957906017549061364682615b6d565b926136538551948561413d565b82845260178152906020907fc624b66cc0138b8fabc209247f72d758e1cf3343756d543badbf24212bed8c15908286015b858510613698578751806106dd8982613f98565b6007846001928a516136a9816140b7565b86548152848060a01b0380868901541684830152806002890154168d8301526003880154166060820152858701546080820152600587015460a08201526136f26006880161415f565b60c0820152815201930194019391613684565b50508260031936011261046b5733835260206010815261372b60ff848620541615614440565b34159061373882156144bc565b6002546001600160a01b0392908316906137538215156146cf565b620f42409081340291348304141715611b245760075461377291614374565b9385516370a0823160e01b815230828201528381602481865afa80156128e957869189916138d4575b501061389157855163a9059cbb60e01b81523391810191825260208201869052939291829185919082908a90829060400103925af1801561062e577f48a1f8a6c840b32621ceab4439a2ccd00b337e705dfdcdec0b40c49abf3e6be39361380a928892613874575b5050614711565b61383f8580808034867f0000000000000000000000000000000000000000000000000000000000000000165af1611dbb614555565b613850816002541684611dcd614e3b565b600254935192835234602084015242604084015290921691339180606081016105fa565b61388a9250803d1061062757610619818361413d565b3880613803565b855162461bcd60e51b8152908101839052601b60248201527f496e73756666696369656e742055534443206c697175696469747900000000006044820152606490fd5b809250858092503d83116138fe575b6138ed818361413d565b81010312611f66578590513861379b565b503d6138e3565b5050503461066a578160031936011261066a5760265490516001600160a01b039091168152602090f35b5050503461066a57602036600319011261066a576080916001600160a01b0380613957613ea2565b16825260236020528282205416916024602052808083205492602560205220549060225492815194855260208501528301526060820152f35b5050503461066a578160031936011261066a576020906019549051908152f35b8285858160031936011261066a5733825260106020526139d660ff828420541615614440565b3415906139e382156144bc565b82546001600160a01b039290611d3890841615156144f8565b5050503461066a5736600319011261074957613a16613ea2565b602435906001600160a01b0390613a50337f0000000000000000000000000000000000000000000000000000000000000000841614614262565b16613a5c8115156142d7565b613a67821515614315565b6001600160601b0360a01b600254161760025560095580f35b5050503461066a578160031936011261066a5760055490516001600160a01b039091168152602090f35b5050503461066a578160031936011261066a576020906011549051908152f35b5050503461066a578160031936011261066a57602090600c549051908152f35b5050503461066a577fdda6207409a585801122fb885dcaa8074f9a21f25ff2def680c67f01a86c2c9b6020613b1e36613f29565b906001600160a01b0390613b55337f0000000000000000000000000000000000000000000000000000000000000000841614614262565b169384865260108352613b76828288209060ff801983541691151516179055565b519015158152a280f35b50503461046b576104c39061109036613eeb565b8385843461066a576020908160031936011261046b573592838352601c825260018060a01b03818420541692613bcb841515614eae565b613bd3615bda565b8195825b868452601b8087528585208054831015613c5257613bf683859261404b565b505414613c0c5750613c0790614e9f565b613bd7565b6080985061153c93508591925093613c299488825287522061404b565b90613c346001614ef1565b81519381848401519301519382519586528501528301526060820152f35b50505050919050613c34608095614ef1565b5050903461046b578060031936011261046b57613c7f613ea2565b602435907f00000000000000000000000000000000000000000000000000000000000000006001600160a01b03613cb93382841614614262565b808754169216918214613d74575b835163a9059cbb60e01b81526001600160a01b03909116858201908152602081810194909452909291839182908890829060400103925af1908115613d6a578491613d4c575b5015613d17578280f35b906020606492519162461bcd60e51b8352820152600f60248201526e151c985b9cd9995c8819985a5b1959608a1b6044820152fd5b613d64915060203d811161062757610619818361413d565b38613d0d565b82513d86823e3d90fd5b83516370a0823160e01b81523086820152602081602481865afa8015613e26578790613df3575b613da99150601d5490614351565b831115613cc757835162461bcd60e51b8152602081870152601d60248201527f43616e6e6f74207769746864726177207374616b656420746f6b656e730000006044820152606490fd5b506020813d8211613e1e575b81613e0c6020938361413d565b81010312611ea057613da99051613d9b565b3d9150613dff565b85513d89823e3d90fd5b50503461046b57602036600319011261046b57803533845260106020526119d760ff848620541615614440565b5050503461066a578160031936011261066a57602090600a549051908152f35b85903461066a578160031936011261066a576002546001600160a01b03168152602090f35b600435906001600160a01b0382168203613eb857565b600080fd5b9181601f84011215613eb85782359167ffffffffffffffff8311613eb85760208381860195010111613eb857565b90600319820160c08112613eb857608013613eb8576004916084359067ffffffffffffffff8211613eb857613f21918401613ebd565b909160a43590565b6040906003190112613eb8576004356001600160a01b0381168103613eb857906024358015158103613eb85790565b919082519283825260005b848110613f84575050826000602080949584010152601f8019910116010190565b602081830181015184830182015201613f63565b602080820190808352835180925260409283810182858560051b8401019601946000925b858410613fcd575050505050505090565b90919293949596858061403a600193603f198682030188528b5180518252858060a01b0380858301511685840152808983015116898401526060908183015116908301526080808201519083015260a0808201519083015260c0809101519160e080928201520190613f58565b990194019401929594939190613fbc565b8054821015614067576000526007602060002091020190600090565b634e487b7160e01b600052603260045260246000fd5b90600182811c921680156140ad575b602083101461409757565b634e487b7160e01b600052602260045260246000fd5b91607f169161408c565b60e0810190811067ffffffffffffffff8211176140d357604052565b634e487b7160e01b600052604160045260246000fd5b60c0810190811067ffffffffffffffff8211176140d357604052565b6080810190811067ffffffffffffffff8211176140d357604052565b6040810190811067ffffffffffffffff8211176140d357604052565b90601f8019910116810190811067ffffffffffffffff8211176140d357604052565b90604051918260008254926141738461407d565b9081845260019485811690816000146141e2575060011461419f575b505061419d9250038361413d565b565b9093915060005260209081600020936000915b8183106141ca57505061419d9350820101388061418f565b855488840185015294850194879450918301916141b2565b91505061419d94506020925060ff191682840152151560051b820101388061418f565b9360e0959261424798979492865260018060a01b0392838092166020880152166040860152166060840152608083015260a08201528160c08201520190613f58565b90565b80548210156140675760005260206000200190600090565b1561426957565b60405162461bcd60e51b815260206004820152600a60248201526927b7363c9037bbb732b960b11b6044820152606490fd5b156142a257565b60405162461bcd60e51b815260206004820152600d60248201526c496e76616c696420707269636560981b6044820152606490fd5b156142de57565b60405162461bcd60e51b815260206004820152600f60248201526e496e76616c6964206164647265737360881b6044820152606490fd5b1561431c57565b60405162461bcd60e51b815260206004820152600d60248201526c496e76616c696420726174696f60981b6044820152606490fd5b9190820391821161435e57565b634e487b7160e01b600052601160045260246000fd5b811561437e570490565b634e487b7160e01b600052601260045260246000fd5b8181029291811591840414171561435e57565b9190820180921161435e57565b6011549081158015614437575b614426576001600160a01b031660009081526015602052604090205460ff161561442e57601354905b811561442657614247916144016144069242614351565b614374565b61197b620f424061441c60125460075490614394565b0460065492614394565b505060065490565b601454906143ea565b508142106143c1565b1561444757565b60405162461bcd60e51b81526020600482015260126024820152711059191c995cdcc81a5cc8189b1bd8dad95960721b6044820152606490fd5b8054600160401b8110156140d35761449e9160018201815561424a565b819291549060031b9160018060a01b03809116831b921b1916179055565b156144c357565b60405162461bcd60e51b815260206004820152600d60248201526c26bab9ba1039b2b7321021272160991b6044820152606490fd5b156144ff57565b60405162461bcd60e51b815260206004820152601260248201527114d85b19481d1bdad95b881b9bdd081cd95d60721b6044820152606490fd5b67ffffffffffffffff81116140d357601f01601f191660200190565b3d15614580573d9061456682614539565b91614574604051938461413d565b82523d6000602084013e565b606090565b1561458c57565b60405162461bcd60e51b8152602060048201526013602482015272109390881d1c985b9cd9995c8819985a5b1959606a1b6044820152606490fd5b604051906145d482614121565b600382526242555960e81b6020830152565b156145ed57565b60405162461bcd60e51b815260206004820152601d60248201527f416d6f756e74206d7573742062652067726561746572207468616e20300000006044820152606490fd5b1561463957565b60405162461bcd60e51b81526020600482015260136024820152721554d115081b9bdd0818dbdb999a59dd5c9959606a1b6044820152606490fd5b90816020910312613eb857518015158103613eb85790565b1561469357565b60405162461bcd60e51b81526020600482015260146024820152731554d115081d1c985b9cd9995c8819985a5b195960621b6044820152606490fd5b156146d657565b60405162461bcd60e51b81526020600482015260136024820152721554d110c81b9bdd0818dbdb999a59dd5c9959606a1b6044820152606490fd5b1561471857565b60405162461bcd60e51b81526020600482015260146024820152731554d110c81d1c985b9cd9995c8819985a5b195960621b6044820152606490fd5b1561475b57565b60405162461bcd60e51b8152602060048201526012602482015271115512081b9bdd0818dbdb999a59dd5c995960721b6044820152606490fd5b1561479c57565b60405162461bcd60e51b8152602060048201526013602482015272115512081d1c985b9cd9995c8819985a5b1959606a1b6044820152606490fd5b156147de57565b60405162461bcd60e51b8152602060048201526012602482015271109510c81b9bdd0818dbdb999a59dd5c995960721b6044820152606490fd5b1561481f57565b60405162461bcd60e51b8152602060048201526013602482015272109510c81d1c985b9cd9995c8819985a5b1959606a1b6044820152606490fd5b1561486157565b60405162461bcd60e51b815260206004820152601260248201527114d3d3081b9bdd0818dbdb999a59dd5c995960721b6044820152606490fd5b156148a257565b60405162461bcd60e51b815260206004820152601360248201527214d3d3081d1c985b9cd9995c8819985a5b1959606a1b6044820152606490fd5b356001600160a01b0381168103613eb85790565b9190606083013591824211614c2357614909846148dd565b6001600160a01b0394903390861603614beb5760409283820135906000933385526020936028855286862054841115614bba57602754908561494a826148dd565b9101986149568a6148dd565b908b8a5192818a8501957f91b089318bbdf627bacec662873c12cc3afdc69db73f084d7726e9ce2907280a8752168c85015216606083015286608083015260a082015260a081526149a6816140e9565b5190208751908682019261190160f01b845260228301526042820152604281526149cf81614105565b519020906149dc81614539565b926149e98851948561413d565b8184523682820111611ea057918686838694611c909683614a0f99013784010152614d74565b868060265416911603614b86579060159133845260288252808585205584519081527fb23e07a4fc171f5f9242d4254c3b66b893beaab2f3787495c0f2d09dd3ef9726823392a285614a60866148dd565b16151580614b72575b80614b5e575b80614b3f575b614ac6575b338352528181209360ff199460018682541617905580614a99856148dd565b16614aa6575b5050505050565b614ab16001946148dd565b16815220918254161790553880808080614a9f565b614acf856148dd565b338452602382528685852091166001600160601b0360a01b82541617905585614af7866148dd565b16835260248152614b0a33858520614481565b3386614b15876148dd565b167f5f1ca2fcc108b751843a763e60d2201f593516109d7dbb1b700468f2d4190bb78580a3614a7a565b5085614b4a866148dd565b1683526010815260ff848420541615614a75565b503383526023815285848420541615614a6f565b503386614b7e876148dd565b161415614a69565b835162461bcd60e51b815260048101839052600d60248201526c426164207369676e617475726560981b6044820152606490fd5b865162461bcd60e51b815260048101869052600a602482015269139bdb98d9481d5cd95960b21b6044820152606490fd5b60405162461bcd60e51b815260206004820152601060248201526f2737ba103cb7bab9103b37bab1b432b960811b6044820152606490fd5b60405162461bcd60e51b815260206004820152600f60248201526e159bdd58da195c88195e1c1a5c9959608a1b6044820152606490fd5b6005811015614d5e5780614c6b5750565b60018103614cb85760405162461bcd60e51b815260206004820152601860248201527f45434453413a20696e76616c6964207369676e617475726500000000000000006044820152606490fd5b60028103614d055760405162461bcd60e51b815260206004820152601f60248201527f45434453413a20696e76616c6964207369676e6174757265206c656e677468006044820152606490fd5b600314614d0e57565b60405162461bcd60e51b815260206004820152602260248201527f45434453413a20696e76616c6964207369676e6174757265202773272076616c604482015261756560f01b6064820152608490fd5b634e487b7160e01b600052602160045260246000fd5b906041815114600014614da257614d9e916020820151906060604084015193015160001a90614dac565b9091565b5050600090600290565b9291907f7fffffffffffffffffffffffffffffff5d576e7357a4501ddfe92f46681b20a08311614e2f5791608094939160ff602094604051948552168484015260408301526060820152600093849182805260015afa15614e225781516001600160a01b03811615614e1c579190565b50600190565b50604051903d90823e3d90fd5b50505050600090600390565b60405190614e4882614121565b600482526314d1531360e21b6020830152565b15614e6257565b60405162461bcd60e51b8152602060048201526015602482015274151bdad95b881d1c985b9cd9995c8819985a5b1959605a1b6044820152606490fd5b600019811461435e5760010190565b15614eb557565b60405162461bcd60e51b815260206004820152601460248201527314dd185ad948191bd95cc81b9bdd08195e1a5cdd60621b6044820152606490fd5b15614ef857565b60405162461bcd60e51b815260206004820152600f60248201526e14dd185ad9481b9bdd08199bdd5b99608a1b6044820152606490fd5b15614f3657565b60405162461bcd60e51b815260206004820152601060248201526f5374616b65206e6f742061637469766560801b6044820152606490fd5b6000818152601c60209081526040808320546001600160a01b031690614f95821515614eae565b9293849390849081808080805b888b52601b808b52888c20805483101561516357614fc183899261404b565b505414614fd75750614fd290614e9f565b614fa2565b96509a5050505050508285528084528582862090614ff49161404b565b506005015495838652818552808387209061500e9161404b565b50600401549284875282865281818820906150289161404b565b50926001809401549686895281815283838a20906150459161404b565b50600301549689525286209061505a9161404b565b506006015460ff1661506e61507392614ef1565b614f2f565b42811461515c576150849042614351565b926019548092605a81146000146150e25750506003820291808304600314901517156150ce575061424793926150c263bbf81e00936150c79360011c905b614394565b04906143a7565b634e487b7160e01b81526011600452602490fd5b60b481036151185750508160011b91808304600214901517156150ce575061424793926150c263bbf81e00936150c79390614394565b61016d919493501461513d575b5061424793926150c263bbf81e00936150c793614394565b60038392930291808304600314901517156150ce575090614247615125565b5050505090565b5050509650965097935061507392915061506e90614ef1565b1561518357565b60405162461bcd60e51b815260206004820152600f60248201526e2737ba1039ba30b5b29037bbb732b960891b6044820152606490fd5b600033815260206023815260018060a01b039060408281852054169283151580615326575b6151eb57505050505090565b60646151f960225488614394565b8654845163a9059cbb60e01b81526001600160a01b03881660048201529290910460248301819052969190859082906044908290869088165af190811561531c5782916152ff575b50156152bb577f94ccb86446750660ec532b1beb1fb55f5ba2fffca042c4c53f4c080e72595b3893929181866152b19352602585528381206152848982546143a7565b90555416868884519261529684614121565b6008845267149151915494905360c21b878501528089615b11565b519384523393a390565b825162461bcd60e51b815260048101859052601f60248201527f526566657272616c20726577617264207472616e73666572206661696c6564006044820152606490fd5b6153169150853d871161062757610619818361413d565b38615241565b84513d84823e3d90fd5b508385526010835260ff8286205416156151df565b600090815b6001600160a01b0382166000908152601b6020526040902080548210156153ec57600661536f8360ff9361404b565b500154166153855761538090614e9f565b615340565b50905060015b15806153ca575b6153995750565b6001600160a01b03166000908152602160205260409020805460ff19169055601f54801561435e5760001901601f55565b506001600160a01b03811660009081526021602052604090205460ff16615392565b50509061538b565b60008054604080516370a0823160e01b81523060048083019190915293959491936020936001600160a01b0316918481602481865afa908115615691579084918991615660575b501061561d57600e546b01f04ef12cb04cf15800000061545b85836143a7565b116155e45783903389526015865260ff878a205416600014615570575050600f546a01a784379d99db4200000061549285836143a7565b1161552d579183916154a986956154e997956143a7565b600f555b6154b983600e546143a7565b600e55865163a9059cbb60e01b81523391810191825260208201939093529194859283918a918391604090910190565b03925af1928315615524575061419d939492615507575b5050614e5b565b61551d9250803d1061062757610619818361413d565b3880615500565b513d86823e3d90fd5b855162461bcd60e51b8152808301869052601b60248201527f4578636565647320776169746c69737420616c6c6f636174696f6e00000000006044820152606490fd5b6b01eea76cf512b316160000009161345e61558e92600f5490614351565b116155a157918392916154e994926154ad565b845162461bcd60e51b8152908101849052601960248201527f45786365656473207075626c696320616c6c6f636174696f6e000000000000006044820152606490fd5b855162461bcd60e51b81528083018690526013602482015272457863656564732073616c6520737570706c7960681b6044820152606490fd5b845162461bcd60e51b8152908101849052601a60248201527f496e73756666696369656e7420746f6b656e2062616c616e63650000000000006044820152606490fd5b809250868092503d831161568a575b615679818361413d565b81010312611f66578390513861543b565b503d61566f565b86513d8a823e3d90fd5b601754600160401b8110156140d357600190818101806017558110156140675760076000916017835202918351837fc624b66cc0138b8fabc209247f72d758e1cf3343756d543badbf24212bed8c15015560c07fc624b66cc0138b8fabc209247f72d758e1cf3343756d543badbf24212bed8c1b7fc624b66cc0138b8fabc209247f72d758e1cf3343756d543badbf24212bed8c1685019460018060a01b0360209681888a015116906001600160601b0360a01b91828254161790557fc624b66cc0138b8fabc209247f72d758e1cf3343756d543badbf24212bed8c1783018260408b015116828254161790557fc624b66cc0138b8fabc209247f72d758e1cf3343756d543badbf24212bed8c1883019160608a0151169082541617905560808701517fc624b66cc0138b8fabc209247f72d758e1cf3343756d543badbf24212bed8c1982015560a08701517fc624b66cc0138b8fabc209247f72d758e1cf3343756d543badbf24212bed8c1a820155019401519182519267ffffffffffffffff84116159135761582c865461407d565b601f81116158cd575b508491601f851160011461586e579394508492919083615863575b50501b916000199060031b1c1916179055565b015192503880615850565b86815285812093958591601f198316915b888383106158b3575050501061589a575b505050811b019055565b015160001960f88460031b161c19169055388080615890565b85870151885590960195948501948793509081019061587f565b868352858320601f860160051c810191878710615909575b601f0160051c019084905b8281106158fe575050615835565b8481550184906158f0565b90915081906158e5565b634e487b7160e01b82526041600452602482fd5b8054600160401b8110156140d35761594690600192838201815561404b565b615a9c578251815560c060068383019260018060a01b03602094818689015116906001600160601b0360a01b9182825416179055600283018260408a015116828254161790556003830191606089015116908254161790556080860151600482015560a08601516005820155019301519081519167ffffffffffffffff83116140d3576159d3855461407d565b601f8111615a53575b5081601f8411600114615a0a57509282939183926000946158635750501b916000199060031b1c1916179055565b919083601f1981168760005284600020946000905b88838310615a39575050501061589a57505050811b019055565b858701518855909601959485019487935090810190615a1f565b6000868152838120601f860160051c810192858710615a92575b601f0160051c019186905b838110615a87575050506159dc565b828155018690615a78565b9092508290615a6d565b634e487b7160e01b600052600060045260246000fd5b9261419d94919260405194615ac6866140b7565b42865260018060a01b038091169485602088015260006040880152166060860152608085015260a084015260c08301526000526016602052615b0c816040600020615927565b61569b565b9261419d959294919360405195615b27876140b7565b42875260018060a01b0380809316968760208a0152166040880152166060860152608085015260a084015260c08301526000526016602052615b0c816040600020615927565b67ffffffffffffffff81116140d35760051b60200190565b90604051615b92816140b7565b60c060ff600683958054855260018101546020860152600281015460408601526003810154606086015260048101546080860152600581015460a08601520154161515910152565b60405190615be7826140b7565b8160c06000918281528260208201528260408201528260608201528260808201528260a0820152015256fe377aadedb6b2a771959584d10a6a36eccb5f56b4eb3a48525f76108d2660d8d4a26469706673582212202cac7dd618724efcf1c8b0610de98a7c1a2e1934753c78a69b3e3bfb37eb0f5864736f6c63430008130033","opcodes":"PUSH1 0xA0 DUP1 PUSH1 0x40 MSTORE CALLVALUE PUSH3 0x1E3 JUMPI PUSH1 0x20 PUSH1 0x8 SWAP2 PUSH7 0x13E52B9ABE000 PUSH1 0x6 SSTORE PUSH7 0x38D7EA4C68000 PUSH1 0x7 SSTORE PUSH2 0xC350 PUSH1 0x12 SSTORE PUSH1 0x3C PUSH1 0x13 SSTORE PUSH1 0x14 PUSH1 0x1E DUP2 SSTORE PUSH1 0xC PUSH1 0x19 SSTORE PUSH9 0x56BC75E2D63100000 PUSH1 0x1A SSTORE PUSH1 0x1 DUP4 SSTORE PUSH1 0x5 PUSH1 0x22 SSTORE CALLER PUSH1 0x80 MSTORE CALLER PUSH1 0x1 DUP1 PUSH1 0xA0 SHL SUB NOT PUSH1 0x26 SLOAD AND OR PUSH1 0x26 SSTORE DUP1 DUP5 SSTORE DUP1 PUSH1 0x9 SSTORE DUP1 PUSH1 0xA SSTORE DUP1 PUSH1 0xB SSTORE PUSH1 0xD SSTORE PUSH3 0x84 DUP2 PUSH3 0x1E8 JUMP JUMPDEST DUP3 DUP2 MSTORE ADD PUSH8 0x546F6B656E49434F PUSH1 0xC0 SHL DUP2 MSTORE KECCAK256 PUSH1 0x1 PUSH1 0x20 PUSH1 0x40 MLOAD PUSH3 0xA9 DUP2 PUSH3 0x1E8 JUMP JUMPDEST DUP3 DUP2 MSTORE ADD PUSH1 0x31 PUSH1 0xF8 SHL DUP2 MSTORE KECCAK256 SWAP1 PUSH1 0x40 MLOAD SWAP2 PUSH1 0x20 DUP4 ADD SWAP2 PUSH32 0x8B73C3C69BB8FE3D512ECC4CF759CC79239F7B179B0FFACAA9A75D522B39400F DUP4 MSTORE PUSH1 0x40 DUP5 ADD MSTORE PUSH1 0x60 DUP4 ADD MSTORE CHAINID PUSH1 0x80 DUP4 ADD MSTORE ADDRESS PUSH1 0xA0 DUP4 ADD MSTORE PUSH1 0xA0 DUP3 MSTORE PUSH1 0xC0 DUP3 ADD SWAP2 DUP1 DUP4 LT PUSH1 0x1 DUP1 PUSH1 0x40 SHL SUB DUP5 GT OR PUSH3 0x1CD JUMPI DUP3 PUSH1 0x40 MSTORE MLOAD SWAP1 KECCAK256 PUSH1 0x27 SSTORE PUSH2 0x5C68 SWAP1 DUP2 PUSH3 0x205 DUP3 CODECOPY PUSH1 0x80 MLOAD DUP2 DUP2 DUP2 PUSH2 0x537 ADD MSTORE DUP2 DUP2 PUSH2 0x7D2 ADD MSTORE DUP2 DUP2 PUSH2 0x8ED ADD MSTORE DUP2 DUP2 PUSH2 0xD0A ADD MSTORE DUP2 DUP2 PUSH2 0xE36 ADD MSTORE DUP2 DUP2 PUSH2 0x10DB ADD MSTORE DUP2 DUP2 PUSH2 0x16E6 ADD MSTORE DUP2 DUP2 PUSH2 0x1A4C ADD MSTORE DUP2 DUP2 PUSH2 0x1D91 ADD MSTORE DUP2 DUP2 PUSH2 0x2138 ADD MSTORE DUP2 DUP2 PUSH2 0x2232 ADD MSTORE DUP2 DUP2 PUSH2 0x22D7 ADD MSTORE DUP2 DUP2 PUSH2 0x239F ADD MSTORE DUP2 DUP2 PUSH2 0x27F9 ADD MSTORE DUP2 DUP2 PUSH2 0x2C1F ADD MSTORE DUP2 DUP2 PUSH2 0x2CCF ADD MSTORE DUP2 DUP2 PUSH2 0x2E1A ADD MSTORE DUP2 DUP2 PUSH2 0x2EEC ADD MSTORE DUP2 DUP2 PUSH2 0x325B ADD MSTORE DUP2 DUP2 PUSH2 0x3815 ADD MSTORE DUP2 DUP2 PUSH2 0x3A29 ADD MSTORE DUP2 DUP2 PUSH2 0x3B2E ADD MSTORE PUSH2 0x3C85 ADD MSTORE RETURN JUMPDEST PUSH4 0x4E487B71 PUSH1 0xE0 SHL PUSH1 0x0 MSTORE PUSH1 0x41 PUSH1 0x4 MSTORE PUSH1 0x24 PUSH1 0x0 REVERT JUMPDEST PUSH1 0x0 DUP1 REVERT JUMPDEST PUSH1 0x40 DUP2 ADD SWAP1 DUP2 LT PUSH1 0x1 PUSH1 0x1 PUSH1 0x40 SHL SUB DUP3 GT OR PUSH3 0x1CD JUMPI PUSH1 0x40 MSTORE JUMP INVALID PUSH1 0x80 PUSH1 0x40 DUP2 DUP2 MSTORE PUSH1 0x4 DUP1 CALLDATASIZE LT ISZERO PUSH2 0x15 JUMPI PUSH1 0x0 DUP1 REVERT JUMPDEST PUSH1 0x0 SWAP3 PUSH1 0xE0 DUP5 CALLDATALOAD DUP2 SHR SWAP2 DUP3 PUSH4 0x2D45457 EQ PUSH2 0x3E7D JUMPI POP DUP2 PUSH4 0x32D975B EQ PUSH2 0x3E5D JUMPI DUP2 PUSH4 0x6360B85 EQ PUSH2 0x3E30 JUMPI DUP2 PUSH4 0x6B091F9 EQ PUSH2 0x3C64 JUMPI DUP2 PUSH4 0x9813482 EQ PUSH2 0x3B94 JUMPI DUP2 PUSH4 0x14CE670B EQ PUSH2 0x3B80 JUMPI DUP2 PUSH4 0x182A676B EQ PUSH2 0x3AEA JUMPI DUP2 PUSH4 0x1C042D35 EQ PUSH2 0x3ACA JUMPI DUP2 PUSH4 0x1CBAEE2D EQ PUSH2 0x3AAA JUMPI DUP2 PUSH4 0x1CE24E16 EQ PUSH2 0x3A80 JUMPI DUP2 PUSH4 0x1E37C606 EQ PUSH2 0x39FC JUMPI DUP2 PUSH4 0x20F1FC61 EQ PUSH2 0x39B0 JUMPI DUP2 PUSH4 0x214405A9 EQ PUSH2 0x3990 JUMPI DUP2 PUSH4 0x21874AE2 EQ PUSH2 0x392F JUMPI DUP2 PUSH4 0x238AC933 EQ PUSH2 0x3905 JUMPI DUP2 PUSH4 0x251545DA EQ PUSH2 0x3705 JUMPI DUP2 PUSH4 0x27506F53 EQ PUSH2 0x3625 JUMPI DUP2 PUSH4 0x2BA77022 EQ PUSH2 0x3611 JUMPI DUP2 PUSH4 0x2BB38809 EQ PUSH2 0x2DB4 JUMPI DUP2 PUSH4 0x2FD04C08 EQ PUSH2 0x32E2 JUMPI DUP2 PUSH4 0x3644E515 EQ PUSH2 0x32C2 JUMPI DUP2 PUSH4 0x3A5D4175 EQ PUSH2 0x32AE JUMPI DUP2 PUSH4 0x3A94BE2D EQ PUSH2 0x322D JUMPI DUP2 PUSH4 0x3B7B6188 EQ PUSH2 0x2F43 JUMPI DUP2 PUSH4 0x3E4E6453 EQ PUSH2 0x2EBF JUMPI DUP2 PUSH4 0x3E61E9DC EQ PUSH2 0x2E86 JUMPI DUP2 PUSH4 0x41398B15 EQ PUSH2 0x2E5C JUMPI DUP2 PUSH4 0x42E97CB8 EQ PUSH2 0x2DF4 JUMPI DUP2 PUSH4 0x4561F1E1 EQ PUSH2 0x2DD4 JUMPI DUP2 PUSH4 0x491CC756 EQ PUSH2 0x2DB4 JUMPI DUP2 PUSH4 0x4A3B68CC EQ PUSH2 0x2D78 JUMPI DUP2 PUSH4 0x4CDB312D EQ PUSH2 0x2CB3 JUMPI DUP2 PUSH4 0x4F93208A EQ PUSH2 0x2C74 JUMPI DUP2 PUSH4 0x518AB2A8 EQ PUSH2 0x2C54 JUMPI DUP2 PUSH4 0x525F8A5C EQ PUSH2 0x2C06 JUMPI DUP2 PUSH4 0x53AAA63B EQ PUSH2 0x2BCD JUMPI DUP2 PUSH4 0x57126D0D EQ PUSH2 0x299E JUMPI DUP2 PUSH4 0x575CEA6B EQ PUSH2 0x28F3 JUMPI DUP2 PUSH4 0x5B365040 EQ PUSH2 0x26E9 JUMPI DUP2 PUSH4 0x608E4DD0 EQ PUSH2 0x240D JUMPI DUP2 PUSH4 0x63219C72 EQ PUSH2 0x2360 JUMPI DUP2 PUSH4 0x64F1D113 EQ PUSH2 0x2340 JUMPI DUP2 PUSH4 0x676C0D77 EQ PUSH2 0x2298 JUMPI DUP2 PUSH4 0x6C19E783 EQ PUSH2 0x2209 JUMPI DUP2 PUSH4 0x6F43F373 EQ PUSH2 0x21E9 JUMPI DUP2 PUSH4 0x71D20FE7 EQ PUSH2 0x211C JUMPI DUP2 PUSH4 0x75506C96 EQ PUSH2 0x20FD JUMPI DUP2 PUSH4 0x776FF66A EQ PUSH2 0x20DD JUMPI DUP2 PUSH4 0x794A3292 EQ PUSH2 0x209E JUMPI DUP2 PUSH4 0x7A9773DC EQ PUSH2 0x207E JUMPI DUP2 PUSH4 0x7CC1F867 EQ PUSH2 0x1F9F JUMPI DUP2 PUSH4 0x7DF74181 EQ PUSH2 0x1B37 JUMPI DUP2 PUSH4 0x7EA61FE3 EQ PUSH2 0x19A7 JUMPI DUP2 PUSH4 0x80933608 EQ PUSH2 0x18C4 JUMPI DUP2 PUSH4 0x817B1CD2 EQ PUSH2 0x18A4 JUMPI DUP2 PUSH4 0x83FABE03 EQ PUSH2 0x1884 JUMPI DUP2 PUSH4 0x842E2981 EQ PUSH2 0x177C JUMPI DUP2 PUSH4 0x84CC315B EQ PUSH2 0x1755 JUMPI DUP2 PUSH4 0x862DD2E2 EQ PUSH2 0x1735 JUMPI DUP2 PUSH4 0x86989038 EQ PUSH2 0x1715 JUMPI DUP2 PUSH4 0x8DA5CB5B EQ PUSH2 0x16D0 JUMPI DUP2 PUSH4 0x920A253E EQ PUSH2 0x16B0 JUMPI DUP2 PUSH4 0x92FEB849 EQ PUSH2 0x1688 JUMPI DUP2 PUSH4 0x94DC9CF3 EQ PUSH2 0x1580 JUMPI DUP2 PUSH4 0x963C9DD3 EQ PUSH2 0x14A5 JUMPI DUP2 PUSH4 0x9AB4A445 EQ PUSH2 0x147B JUMPI DUP2 PUSH4 0x9C0FBD05 EQ PUSH2 0x145E JUMPI DUP2 PUSH4 0x9EA7685A EQ PUSH2 0x12B6 JUMPI DUP2 PUSH4 0xA0B3B930 EQ PUSH2 0x1296 JUMPI DUP2 PUSH4 0xA1DC9031 EQ PUSH2 0x1120 JUMPI DUP2 PUSH4 0xA29F481C EQ PUSH2 0x10B2 JUMPI DUP2 PUSH4 0xA77C80AA EQ PUSH2 0x107C JUMPI DUP2 PUSH4 0xA7C60160 EQ PUSH2 0xF30 JUMPI DUP2 PUSH4 0xAECCF735 EQ PUSH2 0xD61 JUMPI DUP2 PUSH4 0xB006984F EQ PUSH2 0xCDD JUMPI DUP2 PUSH4 0xB3B94706 EQ PUSH2 0xCBD JUMPI DUP2 PUSH4 0xB40CD21D EQ PUSH2 0xC7B JUMPI DUP2 PUSH4 0xB5D5B5FA EQ PUSH2 0xBE8 JUMPI POP DUP1 PUSH4 0xB842EC44 EQ PUSH2 0xB6A JUMPI DUP1 PUSH4 0xBC5894BA EQ PUSH2 0xB4B JUMPI DUP1 PUSH4 0xC93C8F34 EQ PUSH2 0xB0D JUMPI DUP1 PUSH4 0xD3EA4350 EQ PUSH2 0xAE6 JUMPI DUP1 PUSH4 0xD7FF0714 EQ PUSH2 0x99E JUMPI DUP1 PUSH4 0xD8060CD5 EQ PUSH2 0x8D2 JUMPI DUP1 PUSH4 0xD8DC286A EQ PUSH2 0x8AC JUMPI DUP1 PUSH4 0xE697B5D8 EQ PUSH2 0x851 JUMPI DUP1 PUSH4 0xE985E367 EQ PUSH2 0x829 JUMPI DUP1 PUSH4 0xEBCD3A13 EQ PUSH2 0x7A6 JUMPI DUP1 PUSH4 0xECB2DD74 EQ PUSH2 0x76B JUMPI DUP1 PUSH4 0xEE172546 EQ PUSH2 0x74C JUMPI DUP1 PUSH4 0xEF925399 EQ PUSH2 0x66E JUMPI DUP1 PUSH4 0xF1887684 EQ PUSH2 0x64B JUMPI DUP1 PUSH4 0xF30EF2E5 EQ PUSH2 0x496 JUMPI DUP1 PUSH4 0xF7D76AE5 EQ PUSH2 0x46F JUMPI PUSH4 0xFD9A11E5 EQ PUSH2 0x43A JUMPI PUSH1 0x0 DUP1 REVERT JUMPDEST CALLVALUE PUSH2 0x46B JUMPI PUSH1 0x20 CALLDATASIZE PUSH1 0x3 NOT ADD SLT PUSH2 0x46B JUMPI CALLDATALOAD DUP3 MSTORE PUSH1 0x1C PUSH1 0x20 SWAP1 DUP2 MSTORE SWAP2 DUP2 SWAP1 KECCAK256 SLOAD SWAP1 MLOAD PUSH1 0x1 PUSH1 0x1 PUSH1 0xA0 SHL SUB SWAP1 SWAP2 AND DUP2 MSTORE RETURN JUMPDEST DUP3 DUP1 REVERT JUMPDEST POP CALLVALUE PUSH2 0x46B JUMPI DUP3 PUSH1 0x3 NOT CALLDATASIZE ADD SLT PUSH2 0x46B JUMPI SLOAD SWAP1 MLOAD PUSH1 0x1 PUSH1 0x1 PUSH1 0xA0 SHL SUB SWAP1 SWAP2 AND DUP2 MSTORE PUSH1 0x20 SWAP2 POP RETURN JUMPDEST POP CALLVALUE PUSH2 0x46B JUMPI PUSH1 0x20 CALLDATASIZE PUSH1 0x3 NOT ADD SLT PUSH2 0x46B JUMPI DUP1 CALLDATALOAD SWAP1 CALLER DUP5 MSTORE PUSH1 0x10 PUSH1 0x20 MSTORE PUSH2 0x4C3 PUSH1 0xFF DUP5 DUP7 KECCAK256 SLOAD AND ISZERO PUSH2 0x4440 JUMP JUMPDEST PUSH2 0x4CE DUP3 ISZERO ISZERO PUSH2 0x45E6 JUMP JUMPDEST DUP4 SLOAD PUSH1 0x1 PUSH1 0x1 PUSH1 0xA0 SHL SUB SWAP3 SWAP1 PUSH2 0x4E7 SWAP1 DUP5 AND ISZERO ISZERO PUSH2 0x44F8 JUMP JUMPDEST DUP3 PUSH1 0x5 SLOAD AND PUSH2 0x4F7 DUP2 ISZERO ISZERO PUSH2 0x485A JUMP JUMPDEST PUSH2 0x503 PUSH1 0xD SLOAD DUP4 PUSH2 0x4394 JUMP JUMPDEST SWAP3 PUSH4 0x3B9ACA00 SWAP4 DUP5 DUP2 MUL SWAP5 DUP2 DUP7 DIV EQ SWAP1 ISZERO OR ISZERO PUSH2 0x638 JUMPI DUP6 MLOAD PUSH4 0x23B872DD PUSH1 0xE0 SHL DUP2 MSTORE CALLER SWAP2 DUP2 ADD SWAP2 DUP3 MSTORE PUSH1 0x1 PUSH1 0x1 PUSH1 0xA0 SHL SUB PUSH32 0x0 AND PUSH1 0x20 DUP4 DUP2 ADD SWAP2 SWAP1 SWAP2 MSTORE PUSH1 0x40 DUP4 ADD DUP6 SWAP1 MSTORE SWAP1 SWAP4 SWAP3 SWAP1 SWAP2 DUP5 SWAP2 SWAP1 DUP3 SWAP1 DUP11 SWAP1 DUP3 SWAP1 PUSH1 0x60 ADD SUB SWAP3 GAS CALL DUP1 ISZERO PUSH2 0x62E JUMPI PUSH1 0x0 DUP1 MLOAD PUSH1 0x20 PUSH2 0x5C13 DUP4 CODECOPY DUP2 MLOAD SWAP2 MSTORE SWAP4 PUSH2 0x5AA PUSH2 0x5AF SWAP3 PUSH2 0x5FA SWAP6 DUP11 SWAP2 PUSH2 0x600 JUMPI JUMPDEST POP PUSH2 0x489B JUMP JUMPDEST PUSH2 0x51BA JUMP JUMPDEST SWAP4 PUSH2 0x5B9 DUP6 PUSH2 0x53F4 JUMP JUMPDEST PUSH2 0x5D6 DUP2 PUSH1 0x5 SLOAD AND DUP7 DUP5 DUP5 DUP12 SLOAD AND PUSH2 0x5CF PUSH2 0x45C7 JUMP JUMPDEST SWAP4 CALLER PUSH2 0x5B11 JUMP JUMPDEST PUSH1 0x5 SLOAD AND SWAP5 MLOAD SWAP2 DUP3 SWAP2 CALLER SWAP6 TIMESTAMP SWAP2 DUP5 PUSH1 0x40 SWAP2 SWAP5 SWAP4 SWAP3 PUSH1 0x60 DUP3 ADD SWAP6 DUP3 MSTORE PUSH1 0x20 DUP3 ADD MSTORE ADD MSTORE JUMP JUMPDEST SUB SWAP1 LOG3 DUP1 RETURN JUMPDEST PUSH2 0x621 SWAP2 POP PUSH1 0x20 RETURNDATASIZE DUP2 GT PUSH2 0x627 JUMPI JUMPDEST PUSH2 0x619 DUP2 DUP4 PUSH2 0x413D JUMP JUMPDEST DUP2 ADD SWAP1 PUSH2 0x4674 JUMP JUMPDEST CODESIZE PUSH2 0x5A4 JUMP JUMPDEST POP RETURNDATASIZE PUSH2 0x60F JUMP JUMPDEST DUP6 MLOAD RETURNDATASIZE DUP9 DUP3 RETURNDATACOPY RETURNDATASIZE SWAP1 REVERT JUMPDEST PUSH4 0x4E487B71 PUSH1 0xE0 SHL DUP8 MSTORE PUSH1 0x11 SWAP1 MSTORE PUSH1 0x24 DUP7 REVERT JUMPDEST POP POP CALLVALUE PUSH2 0x66A JUMPI DUP2 PUSH1 0x3 NOT CALLDATASIZE ADD SLT PUSH2 0x66A JUMPI PUSH1 0x20 SWAP1 PUSH1 0x1A SLOAD SWAP1 MLOAD SWAP1 DUP2 MSTORE RETURN JUMPDEST POP DUP1 REVERT JUMPDEST POP DUP3 SWAP1 CALLVALUE PUSH2 0x66A JUMPI PUSH1 0x20 SWAP2 DUP3 PUSH1 0x3 NOT CALLDATASIZE ADD SLT PUSH2 0x749 JUMPI PUSH1 0x1 PUSH1 0x1 PUSH1 0xA0 SHL SUB SWAP3 DUP4 PUSH2 0x696 PUSH2 0x3EA2 JUMP JUMPDEST AND DUP3 MSTORE PUSH1 0x16 DUP2 MSTORE DUP5 DUP3 KECCAK256 SWAP2 DUP3 SLOAD SWAP4 PUSH2 0x6AD DUP6 PUSH2 0x5B6D JUMP JUMPDEST SWAP6 PUSH2 0x6BA DUP9 MLOAD SWAP8 DUP9 PUSH2 0x413D JUMP JUMPDEST DUP6 DUP8 MSTORE DUP4 DUP8 ADD SWAP5 DUP4 MSTORE DUP4 DUP4 KECCAK256 SWAP3 SWAP5 JUMPDEST DUP7 DUP7 LT PUSH2 0x6E1 JUMPI DUP9 MLOAD DUP1 PUSH2 0x6DD DUP11 DUP3 PUSH2 0x3F98 JUMP JUMPDEST SUB SWAP1 RETURN JUMPDEST PUSH1 0x7 DUP6 PUSH1 0x1 SWAP3 DUP12 MLOAD PUSH2 0x6F2 DUP2 PUSH2 0x40B7 JUMP JUMPDEST DUP8 SLOAD DUP2 MSTORE DUP6 DUP6 DUP10 ADD SLOAD AND DUP4 DUP3 ADD MSTORE DUP6 PUSH1 0x2 DUP10 ADD SLOAD AND DUP14 DUP3 ADD MSTORE DUP6 PUSH1 0x3 DUP10 ADD SLOAD AND PUSH1 0x60 DUP3 ADD MSTORE DUP7 DUP9 ADD SLOAD PUSH1 0x80 DUP3 ADD MSTORE PUSH1 0x5 DUP9 ADD SLOAD PUSH1 0xA0 DUP3 ADD MSTORE PUSH2 0x736 PUSH1 0x6 DUP10 ADD PUSH2 0x415F JUMP JUMPDEST PUSH1 0xC0 DUP3 ADD MSTORE DUP2 MSTORE ADD SWAP5 ADD SWAP6 ADD SWAP5 SWAP3 PUSH2 0x6C9 JUMP JUMPDEST DUP1 REVERT JUMPDEST POP POP CALLVALUE PUSH2 0x66A JUMPI DUP2 PUSH1 0x3 NOT CALLDATASIZE ADD SLT PUSH2 0x66A JUMPI PUSH1 0x20 SWAP1 PUSH1 0x1E SLOAD SWAP1 MLOAD SWAP1 DUP2 MSTORE RETURN JUMPDEST POP POP CALLVALUE PUSH2 0x66A JUMPI DUP2 PUSH1 0x3 NOT CALLDATASIZE ADD SLT PUSH2 0x66A JUMPI PUSH1 0x20 SWAP1 MLOAD PUSH32 0x91B089318BBDF627BACEC662873C12CC3AFDC69DB73F084D7726E9CE2907280A DUP2 MSTORE RETURN JUMPDEST POP POP CALLVALUE PUSH2 0x66A JUMPI CALLDATASIZE PUSH1 0x3 NOT ADD SLT PUSH2 0x749 JUMPI PUSH2 0x7BF PUSH2 0x3EA2 JUMP JUMPDEST PUSH1 0x24 CALLDATALOAD SWAP1 PUSH1 0x1 PUSH1 0x1 PUSH1 0xA0 SHL SUB SWAP1 PUSH2 0x7F9 CALLER PUSH32 0x0 DUP5 AND EQ PUSH2 0x4262 JUMP JUMPDEST AND PUSH2 0x805 DUP2 ISZERO ISZERO PUSH2 0x42D7 JUMP JUMPDEST PUSH2 0x810 DUP3 ISZERO ISZERO PUSH2 0x4315 JUMP JUMPDEST PUSH1 0x1 PUSH1 0x1 PUSH1 0x60 SHL SUB PUSH1 0xA0 SHL PUSH1 0x5 SLOAD AND OR PUSH1 0x5 SSTORE PUSH1 0xD SSTORE DUP1 RETURN JUMPDEST POP POP CALLVALUE PUSH2 0x66A JUMPI DUP2 PUSH1 0x3 NOT CALLDATASIZE ADD SLT PUSH2 0x66A JUMPI SWAP1 SLOAD SWAP1 MLOAD PUSH1 0x1 PUSH1 0x1 PUSH1 0xA0 SHL SUB SWAP1 SWAP2 AND DUP2 MSTORE PUSH1 0x20 SWAP1 RETURN JUMPDEST POP POP CALLVALUE PUSH2 0x66A JUMPI DUP1 PUSH1 0x3 NOT CALLDATASIZE ADD SLT PUSH2 0x66A JUMPI PUSH2 0x86B PUSH2 0x3EA2 JUMP JUMPDEST PUSH1 0x1 PUSH1 0x1 PUSH1 0xA0 SHL SUB SWAP1 DUP2 AND DUP4 MSTORE PUSH1 0x24 PUSH1 0x20 DUP2 SWAP1 MSTORE DUP3 DUP5 KECCAK256 DUP1 SLOAD SWAP2 CALLDATALOAD SWAP5 SWAP1 SWAP2 DUP6 LT ISZERO PUSH2 0x749 JUMPI POP PUSH1 0x20 SWAP4 PUSH2 0x89D SWAP2 PUSH2 0x424A JUMP JUMPDEST SWAP3 SWAP1 SLOAD SWAP1 MLOAD SWAP3 PUSH1 0x3 SHL SHR AND DUP2 MSTORE RETURN JUMPDEST POP POP CALLVALUE PUSH2 0x66A JUMPI DUP2 PUSH1 0x3 NOT CALLDATASIZE ADD SLT PUSH2 0x66A JUMPI PUSH1 0x20 SWAP1 MLOAD PUSH11 0x1A784379D99DB42000000 DUP2 MSTORE RETURN JUMPDEST POP CALLVALUE PUSH2 0x46B JUMPI PUSH1 0x20 CALLDATASIZE PUSH1 0x3 NOT ADD SLT PUSH2 0x46B JUMPI DUP1 CALLDATALOAD SWAP1 PUSH2 0x91B CALLER PUSH32 0x0 PUSH1 0x1 PUSH1 0x1 PUSH1 0xA0 SHL SUB AND EQ PUSH2 0x4262 JUMP JUMPDEST DUP2 ISZERO PUSH2 0x95B JUMPI POP SWAP1 PUSH32 0x171AABB8815C02FD00303450A77058600E3661EB75CE2E77972C0F080BC7099D SWAP2 PUSH1 0x1A SLOAD SWAP1 DUP1 PUSH1 0x1A SSTORE DUP3 MLOAD SWAP2 DUP3 MSTORE PUSH1 0x20 DUP3 ADD MSTORE LOG1 DUP1 RETURN JUMPDEST PUSH1 0x64 SWAP1 PUSH1 0x20 DUP5 MLOAD SWAP2 PUSH3 0x461BCD PUSH1 0xE5 SHL DUP4 MSTORE DUP3 ADD MSTORE PUSH1 0x20 PUSH1 0x24 DUP3 ADD MSTORE PUSH32 0x4D696E207374616B65206D7573742062652067726561746572207468616E2030 PUSH1 0x44 DUP3 ADD MSTORE REVERT JUMPDEST POP CALLVALUE PUSH2 0x46B JUMPI PUSH1 0x20 CALLDATASIZE PUSH1 0x3 NOT ADD SLT PUSH2 0x46B JUMPI CALLDATALOAD PUSH1 0x17 SLOAD DUP2 LT ISZERO PUSH2 0x46B JUMPI PUSH1 0x17 PUSH1 0x7 SWAP3 SWAP4 MSTORE MUL SWAP1 PUSH2 0x6DD DUP3 PUSH32 0xC624B66CC0138B8FABC209247F72D758E1CF3343756D543BADBF24212BED8C15 ADD SLOAD SWAP2 PUSH1 0x1 DUP1 PUSH1 0xA0 SHL SUB SWAP4 DUP5 PUSH32 0xC624B66CC0138B8FABC209247F72D758E1CF3343756D543BADBF24212BED8C16 DUP3 ADD SLOAD AND SWAP5 DUP1 PUSH32 0xC624B66CC0138B8FABC209247F72D758E1CF3343756D543BADBF24212BED8C17 DUP4 ADD SLOAD AND SWAP1 PUSH32 0xC624B66CC0138B8FABC209247F72D758E1CF3343756D543BADBF24212BED8C18 DUP4 ADD SLOAD AND PUSH32 0xC624B66CC0138B8FABC209247F72D758E1CF3343756D543BADBF24212BED8C19 DUP4 ADD SLOAD SWAP2 PUSH2 0xADB PUSH32 0xC624B66CC0138B8FABC209247F72D758E1CF3343756D543BADBF24212BED8C1B PUSH32 0xC624B66CC0138B8FABC209247F72D758E1CF3343756D543BADBF24212BED8C1A DUP7 ADD SLOAD SWAP6 ADD PUSH2 0x415F JUMP JUMPDEST SWAP5 MLOAD SWAP8 DUP9 SWAP8 DUP9 PUSH2 0x4205 JUMP JUMPDEST POP SWAP2 CALLVALUE PUSH2 0x749 JUMPI PUSH1 0x20 CALLDATASIZE PUSH1 0x3 NOT ADD SLT PUSH2 0x749 JUMPI POP PUSH2 0xB06 PUSH1 0x20 SWAP3 CALLDATALOAD PUSH2 0x4F6E JUMP JUMPDEST SWAP1 MLOAD SWAP1 DUP2 MSTORE RETURN JUMPDEST POP POP CALLVALUE PUSH2 0x66A JUMPI PUSH1 0x20 CALLDATASIZE PUSH1 0x3 NOT ADD SLT PUSH2 0x66A JUMPI PUSH1 0x20 SWAP2 PUSH1 0xFF SWAP1 DUP3 SWAP1 PUSH1 0x1 PUSH1 0x1 PUSH1 0xA0 SHL SUB PUSH2 0xB38 PUSH2 0x3EA2 JUMP JUMPDEST AND DUP2 MSTORE PUSH1 0x21 DUP6 MSTORE KECCAK256 SLOAD AND SWAP1 MLOAD SWAP1 ISZERO ISZERO DUP2 MSTORE RETURN JUMPDEST POP POP CALLVALUE PUSH2 0x66A JUMPI DUP2 PUSH1 0x3 NOT CALLDATASIZE ADD SLT PUSH2 0x66A JUMPI PUSH1 0x20 SWAP1 PUSH1 0xB SLOAD SWAP1 MLOAD SWAP1 DUP2 MSTORE RETURN JUMPDEST POP SWAP2 SWAP1 CALLVALUE PUSH2 0x66A JUMPI DUP1 PUSH1 0x3 NOT CALLDATASIZE ADD SLT PUSH2 0x66A JUMPI PUSH2 0xB85 PUSH2 0x3EA2 JUMP JUMPDEST PUSH1 0x1 PUSH1 0x1 PUSH1 0xA0 SHL SUB SWAP1 DUP2 AND DUP4 MSTORE PUSH1 0x16 PUSH1 0x20 MSTORE DUP2 DUP4 KECCAK256 DUP1 SLOAD SWAP2 SWAP4 PUSH1 0x24 CALLDATALOAD SWAP3 DUP4 LT ISZERO PUSH2 0x749 JUMPI POP PUSH2 0x6DD SWAP3 SWAP2 PUSH2 0xBB8 SWAP2 PUSH2 0x404B JUMP JUMPDEST POP DUP1 SLOAD SWAP4 DUP1 PUSH1 0x1 DUP4 ADD SLOAD AND SWAP6 DUP2 PUSH1 0x2 DUP5 ADD SLOAD AND SWAP2 PUSH1 0x3 DUP5 ADD SLOAD AND SWAP1 DUP4 ADD SLOAD SWAP2 PUSH2 0xADB PUSH1 0x6 PUSH1 0x5 DUP7 ADD SLOAD SWAP6 ADD PUSH2 0x415F JUMP JUMPDEST SWAP4 SWAP1 POP CALLVALUE PUSH2 0x749 JUMPI DUP3 PUSH1 0x3 NOT CALLDATASIZE ADD SLT PUSH2 0x749 JUMPI PUSH2 0xC03 PUSH2 0x3EA2 JUMP JUMPDEST PUSH1 0x1 PUSH1 0x1 PUSH1 0xA0 SHL SUB AND DUP2 MSTORE PUSH1 0x1B PUSH1 0x20 MSTORE DUP3 DUP2 KECCAK256 DUP1 SLOAD PUSH1 0x24 CALLDATALOAD SWAP3 SWAP1 DUP4 LT ISZERO PUSH2 0x749 JUMPI POP SWAP1 PUSH2 0xC2F SWAP2 PUSH2 0x404B JUMP JUMPDEST POP DUP1 SLOAD SWAP3 PUSH1 0x1 DUP3 ADD SLOAD SWAP3 PUSH1 0x2 DUP4 ADD SLOAD PUSH1 0x3 DUP5 ADD SLOAD SWAP2 DUP5 ADD SLOAD SWAP3 PUSH1 0xFF PUSH1 0x6 PUSH1 0x5 DUP8 ADD SLOAD SWAP7 ADD SLOAD AND SWAP6 DUP2 MLOAD SWAP8 DUP9 MSTORE PUSH1 0x20 DUP9 ADD MSTORE DUP7 ADD MSTORE PUSH1 0x60 DUP6 ADD MSTORE PUSH1 0x80 DUP5 ADD MSTORE PUSH1 0xA0 DUP4 ADD MSTORE ISZERO ISZERO PUSH1 0xC0 DUP3 ADD MSTORE RETURN JUMPDEST POP POP POP CALLVALUE PUSH2 0x66A JUMPI DUP2 PUSH1 0x3 NOT CALLDATASIZE ADD SLT PUSH2 0x66A JUMPI PUSH1 0xA0 SWAP1 PUSH1 0x19 SLOAD SWAP1 PUSH1 0x1A SLOAD SWAP1 PUSH1 0x1D SLOAD PUSH1 0x1E SLOAD SWAP2 PUSH1 0x1F SLOAD SWAP4 DUP2 MLOAD SWAP6 DUP7 MSTORE PUSH1 0x20 DUP7 ADD MSTORE DUP5 ADD MSTORE PUSH1 0x60 DUP4 ADD MSTORE PUSH1 0x80 DUP3 ADD MSTORE RETURN JUMPDEST POP POP POP CALLVALUE PUSH2 0x66A JUMPI DUP2 PUSH1 0x3 NOT CALLDATASIZE ADD SLT PUSH2 0x66A JUMPI PUSH1 0x20 SWAP1 PUSH1 0x12 SLOAD SWAP1 MLOAD SWAP1 DUP2 MSTORE RETURN JUMPDEST POP POP POP CALLVALUE PUSH2 0x66A JUMPI CALLDATASIZE PUSH1 0x3 NOT ADD SLT PUSH2 0x749 JUMPI PUSH2 0xCF7 PUSH2 0x3EA2 JUMP JUMPDEST PUSH1 0x24 CALLDATALOAD SWAP1 PUSH1 0x1 PUSH1 0x1 PUSH1 0xA0 SHL SUB SWAP1 PUSH2 0xD31 CALLER PUSH32 0x0 DUP5 AND EQ PUSH2 0x4262 JUMP JUMPDEST AND PUSH2 0xD3D DUP2 ISZERO ISZERO PUSH2 0x42D7 JUMP JUMPDEST PUSH2 0xD48 DUP3 ISZERO ISZERO PUSH2 0x4315 JUMP JUMPDEST PUSH1 0x1 PUSH1 0x1 PUSH1 0x60 SHL SUB PUSH1 0xA0 SHL PUSH1 0x1 SLOAD AND OR PUSH1 0x1 SSTORE PUSH1 0x8 SSTORE DUP1 RETURN JUMPDEST POP POP CALLVALUE PUSH2 0x46B JUMPI PUSH1 0x20 CALLDATASIZE PUSH1 0x3 NOT ADD SLT PUSH2 0x46B JUMPI DUP1 CALLDATALOAD SWAP1 CALLER DUP5 MSTORE PUSH1 0x10 PUSH1 0x20 MSTORE PUSH2 0xD8F PUSH1 0xFF DUP5 DUP7 KECCAK256 SLOAD AND ISZERO PUSH2 0x4440 JUMP JUMPDEST DUP2 ISZERO SWAP2 PUSH2 0xD9C DUP4 ISZERO PUSH2 0x45E6 JUMP JUMPDEST DUP5 SLOAD PUSH1 0x1 PUSH1 0x1 PUSH1 0xA0 SHL SUB SWAP4 SWAP1 PUSH2 0xDB5 SWAP1 DUP6 AND ISZERO ISZERO PUSH2 0x44F8 JUMP JUMPDEST DUP4 PUSH1 0x2 SLOAD AND PUSH2 0xDC5 DUP2 ISZERO ISZERO PUSH2 0x46CF JUMP JUMPDEST PUSH3 0xF4240 SWAP2 DUP3 DUP5 MUL SWAP3 DUP5 DUP5 DIV EQ OR ISZERO PUSH2 0xF1D JUMPI PUSH2 0xDE1 CALLER PUSH2 0x43B4 JUMP JUMPDEST PUSH2 0xDED PUSH1 0x7 SLOAD DUP6 PUSH2 0x4394 JUMP JUMPDEST PUSH8 0xDE0B6B3A7640000 SWAP1 DUP2 DUP2 MUL SWAP2 DUP2 DUP4 DIV EQ SWAP1 ISZERO OR ISZERO PUSH2 0xF0A JUMPI SWAP2 PUSH2 0xE19 PUSH2 0xE76 SWAP6 SWAP5 SWAP3 PUSH1 0x20 SWAP5 PUSH2 0x4374 JUMP JUMPDEST DUP9 MLOAD PUSH4 0x23B872DD PUSH1 0xE0 SHL DUP2 MSTORE CALLER SWAP8 DUP2 ADD SWAP8 DUP9 MSTORE PUSH1 0x1 PUSH1 0x1 PUSH1 0xA0 SHL SUB PUSH32 0x0 AND PUSH1 0x20 DUP10 ADD MSTORE PUSH1 0x40 DUP9 ADD SWAP4 SWAP1 SWAP4 MSTORE SWAP6 SWAP2 SWAP5 DUP6 SWAP3 DUP4 SWAP2 DUP12 SWAP2 DUP4 SWAP2 PUSH1 0x60 SWAP1 SWAP2 ADD SWAP1 JUMP JUMPDEST SUB SWAP3 GAS CALL DUP1 ISZERO PUSH2 0x62E JUMPI PUSH1 0x0 DUP1 MLOAD PUSH1 0x20 PUSH2 0x5C13 DUP4 CODECOPY DUP2 MLOAD SWAP2 MSTORE SWAP4 PUSH2 0x5AA PUSH2 0xEA8 SWAP3 PUSH2 0x5FA SWAP6 DUP11 SWAP2 PUSH2 0xEEC JUMPI JUMPDEST POP PUSH2 0x4711 JUMP JUMPDEST SWAP4 PUSH2 0xEB2 DUP6 PUSH2 0x53F4 JUMP JUMPDEST PUSH2 0xEC8 DUP2 PUSH1 0x2 SLOAD AND DUP7 DUP5 DUP5 DUP12 SLOAD AND PUSH2 0x5CF PUSH2 0x45C7 JUMP JUMPDEST PUSH1 0x2 SLOAD AND SWAP5 MLOAD SWAP2 DUP3 SWAP2 CALLER SWAP6 TIMESTAMP SWAP2 DUP5 PUSH1 0x40 SWAP2 SWAP5 SWAP4 SWAP3 PUSH1 0x60 DUP3 ADD SWAP6 DUP3 MSTORE PUSH1 0x20 DUP3 ADD MSTORE ADD MSTORE JUMP JUMPDEST PUSH2 0xF04 SWAP2 POP PUSH1 0x20 RETURNDATASIZE DUP2 GT PUSH2 0x627 JUMPI PUSH2 0x619 DUP2 DUP4 PUSH2 0x413D JUMP JUMPDEST CODESIZE PUSH2 0xEA2 JUMP JUMPDEST PUSH4 0x4E487B71 PUSH1 0xE0 SHL DUP10 MSTORE PUSH1 0x11 DUP7 MSTORE PUSH1 0x24 DUP10 REVERT JUMPDEST PUSH4 0x4E487B71 PUSH1 0xE0 SHL DUP8 MSTORE PUSH1 0x11 DUP5 MSTORE PUSH1 0x24 DUP8 REVERT JUMPDEST POP POP CALLVALUE PUSH2 0x46B JUMPI PUSH1 0x20 CALLDATASIZE PUSH1 0x3 NOT ADD SLT PUSH2 0x46B JUMPI DUP1 CALLDATALOAD SWAP1 CALLER DUP5 MSTORE PUSH1 0x10 PUSH1 0x20 MSTORE PUSH2 0xF5E PUSH1 0xFF DUP5 DUP7 KECCAK256 SLOAD AND ISZERO PUSH2 0x4440 JUMP JUMPDEST DUP2 ISZERO SWAP2 PUSH2 0xF6B DUP4 ISZERO PUSH2 0x45E6 JUMP JUMPDEST DUP5 SLOAD PUSH1 0x1 PUSH1 0x1 PUSH1 0xA0 SHL SUB SWAP4 SWAP1 PUSH2 0xF84 SWAP1 DUP6 AND ISZERO ISZERO PUSH2 0x44F8 JUMP JUMPDEST DUP4 PUSH1 0x1 SLOAD AND PUSH2 0xF94 DUP2 ISZERO ISZERO PUSH2 0x4632 JUMP JUMPDEST PUSH3 0xF4240 SWAP2 DUP3 DUP5 MUL SWAP3 DUP5 DUP5 DIV EQ OR ISZERO PUSH2 0xF1D JUMPI PUSH2 0xFB0 CALLER PUSH2 0x43B4 JUMP JUMPDEST PUSH2 0xFBC PUSH1 0x7 SLOAD DUP6 PUSH2 0x4394 JUMP JUMPDEST PUSH8 0xDE0B6B3A7640000 SWAP1 DUP2 DUP2 MUL SWAP2 DUP2 DUP4 DIV EQ SWAP1 ISZERO OR ISZERO PUSH2 0xF0A JUMPI SWAP2 PUSH2 0xE19 PUSH2 0xFE8 SWAP6 SWAP5 SWAP3 PUSH1 0x20 SWAP5 PUSH2 0x4374 JUMP JUMPDEST SUB SWAP3 GAS CALL DUP1 ISZERO PUSH2 0x62E JUMPI PUSH1 0x0 DUP1 MLOAD PUSH1 0x20 PUSH2 0x5C13 DUP4 CODECOPY DUP2 MLOAD SWAP2 MSTORE SWAP4 PUSH2 0x5AA PUSH2 0x101A SWAP3 PUSH2 0x5FA SWAP6 DUP11 SWAP2 PUSH2 0x105E JUMPI JUMPDEST POP PUSH2 0x468C JUMP JUMPDEST SWAP4 PUSH2 0x1024 DUP6 PUSH2 0x53F4 JUMP JUMPDEST PUSH2 0x103A DUP2 PUSH1 0x1 SLOAD AND DUP7 DUP5 DUP5 DUP12 SLOAD AND PUSH2 0x5CF PUSH2 0x45C7 JUMP JUMPDEST PUSH1 0x1 SLOAD AND SWAP5 MLOAD SWAP2 DUP3 SWAP2 CALLER SWAP6 TIMESTAMP SWAP2 DUP5 PUSH1 0x40 SWAP2 SWAP5 SWAP4 SWAP3 PUSH1 0x60 DUP3 ADD SWAP6 DUP3 MSTORE PUSH1 0x20 DUP3 ADD MSTORE ADD MSTORE JUMP JUMPDEST PUSH2 0x1076 SWAP2 POP PUSH1 0x20 RETURNDATASIZE DUP2 GT PUSH2 0x627 JUMPI PUSH2 0x619 DUP2 DUP4 PUSH2 0x413D JUMP JUMPDEST CODESIZE PUSH2 0x1014 JUMP JUMPDEST POP POP CALLVALUE PUSH2 0x46B JUMPI PUSH2 0xD8F SWAP1 PUSH2 0x1090 CALLDATASIZE PUSH2 0x3EEB JUMP JUMPDEST SWAP5 SWAP3 SWAP2 SWAP1 SWAP2 CALLER DUP9 MSTORE PUSH1 0x10 PUSH1 0x20 MSTORE PUSH2 0x10AD PUSH1 0xFF DUP9 DUP11 KECCAK256 SLOAD AND ISZERO PUSH2 0x4440 JUMP JUMPDEST PUSH2 0x48F1 JUMP JUMPDEST DUP5 CALLVALUE PUSH2 0x749 JUMPI PUSH1 0x20 CALLDATASIZE PUSH1 0x3 NOT ADD SLT PUSH2 0x749 JUMPI PUSH2 0x10CC PUSH2 0x3EA2 JUMP JUMPDEST PUSH1 0x1 PUSH1 0x1 PUSH1 0xA0 SHL SUB SWAP1 PUSH2 0x1102 CALLER PUSH32 0x0 DUP5 AND EQ PUSH2 0x4262 JUMP JUMPDEST AND PUSH2 0x110E DUP2 ISZERO ISZERO PUSH2 0x42D7 JUMP JUMPDEST DUP2 SLOAD PUSH1 0x1 PUSH1 0x1 PUSH1 0xA0 SHL SUB NOT AND OR DUP2 SSTORE DUP1 RETURN JUMPDEST POP POP SWAP1 CALLVALUE PUSH2 0x46B JUMPI DUP3 PUSH1 0x3 NOT CALLDATASIZE ADD SLT PUSH2 0x46B JUMPI DUP3 SLOAD DUP2 MLOAD PUSH4 0x70A08231 PUSH1 0xE0 SHL DUP1 DUP3 MSTORE ADDRESS DUP3 DUP7 ADD MSTORE SWAP1 SWAP5 PUSH1 0x1 PUSH1 0x1 PUSH1 0xA0 SHL SUB SWAP5 PUSH1 0x20 SWAP4 DUP5 SWAP1 DUP9 SWAP1 PUSH1 0x24 SWAP1 DUP3 SWAP1 DUP11 AND GAS STATICCALL SWAP6 DUP7 ISZERO PUSH2 0x128C JUMPI DUP3 SWAP7 PUSH2 0x125C JUMPI JUMPDEST PUSH1 0x24 SWAP8 POP DUP5 DUP2 PUSH1 0x1 SLOAD AND DUP8 MLOAD SWAP10 DUP11 DUP1 SWAP3 DUP9 DUP3 MSTORE ADDRESS DUP8 DUP4 ADD MSTORE GAS STATICCALL SWAP8 DUP9 ISZERO PUSH2 0x1252 JUMPI DUP4 SWAP9 PUSH2 0x1222 JUMPI JUMPDEST POP SWAP1 PUSH1 0x24 DUP6 SWAP3 PUSH1 0x2 SLOAD AND SWAP5 DUP8 MLOAD SWAP6 DUP7 SWAP4 DUP5 SWAP3 DUP4 MSTORE ADDRESS SWAP1 DUP4 ADD MSTORE GAS STATICCALL SWAP3 DUP4 ISZERO PUSH2 0x1216 JUMPI DUP2 SWAP4 PUSH2 0x11E3 JUMPI JUMPDEST POP POP POP PUSH2 0x6DD SWAP2 MLOAD SWAP4 DUP5 SWAP4 DUP5 PUSH1 0x40 SWAP2 SWAP5 SWAP4 SWAP3 PUSH1 0x60 DUP3 ADD SWAP6 DUP3 MSTORE PUSH1 0x20 DUP3 ADD MSTORE ADD MSTORE JUMP JUMPDEST SWAP1 SWAP2 DUP1 SWAP4 POP DUP2 RETURNDATASIZE DUP4 GT PUSH2 0x120F JUMPI JUMPDEST PUSH2 0x11FB DUP2 DUP4 PUSH2 0x413D JUMP JUMPDEST DUP2 ADD SUB SLT PUSH2 0x749 JUMPI POP MLOAD PUSH2 0x6DD CODESIZE DUP1 PUSH2 0x11C1 JUMP JUMPDEST POP RETURNDATASIZE PUSH2 0x11F1 JUMP JUMPDEST POP DUP4 MLOAD SWAP1 RETURNDATASIZE SWAP1 DUP3 RETURNDATACOPY RETURNDATASIZE SWAP1 REVERT JUMPDEST SWAP1 SWAP8 POP DUP5 DUP2 DUP2 RETURNDATASIZE DUP4 GT PUSH2 0x124B JUMPI JUMPDEST PUSH2 0x123A DUP2 DUP4 PUSH2 0x413D JUMP JUMPDEST DUP2 ADD SUB SLT PUSH2 0x46B JUMPI MLOAD SWAP7 PUSH1 0x24 PUSH2 0x1198 JUMP JUMPDEST POP RETURNDATASIZE PUSH2 0x1230 JUMP JUMPDEST DUP7 MLOAD RETURNDATASIZE DUP6 DUP3 RETURNDATACOPY RETURNDATASIZE SWAP1 REVERT JUMPDEST SWAP6 POP DUP4 DUP8 DUP2 RETURNDATASIZE DUP4 GT PUSH2 0x1285 JUMPI JUMPDEST PUSH2 0x1273 DUP2 DUP4 PUSH2 0x413D JUMP JUMPDEST DUP2 ADD SUB SLT PUSH2 0x66A JUMPI PUSH1 0x24 SWAP7 MLOAD SWAP6 PUSH2 0x1170 JUMP JUMPDEST POP RETURNDATASIZE PUSH2 0x1269 JUMP JUMPDEST DUP6 MLOAD RETURNDATASIZE DUP5 DUP3 RETURNDATACOPY RETURNDATASIZE SWAP1 REVERT JUMPDEST POP POP POP CALLVALUE PUSH2 0x66A JUMPI DUP2 PUSH1 0x3 NOT CALLDATASIZE ADD SLT PUSH2 0x66A JUMPI PUSH1 0x20 SWAP1 PUSH1 0x6 SLOAD SWAP1 MLOAD SWAP1 DUP2 MSTORE RETURN JUMPDEST POP POP SWAP1 CALLVALUE PUSH2 0x46B JUMPI PUSH1 0x20 DUP1 PUSH1 0x3 NOT CALLDATASIZE ADD SLT PUSH2 0x145A JUMPI PUSH2 0x12D3 PUSH2 0x3EA2 JUMP JUMPDEST SWAP3 CALLER DUP6 MSTORE PUSH1 0x10 DUP3 MSTORE PUSH2 0x12EB PUSH1 0xFF DUP5 DUP8 KECCAK256 SLOAD AND ISZERO PUSH2 0x4440 JUMP JUMPDEST PUSH1 0x1 PUSH1 0x1 PUSH1 0xA0 SHL SUB SWAP4 DUP5 AND SWAP4 DUP5 ISZERO PUSH2 0x1418 JUMPI CALLER DUP6 EQ PUSH2 0x13DE JUMPI CALLER DUP7 MSTORE PUSH1 0x23 DUP4 MSTORE DUP4 DUP7 KECCAK256 SLOAD AND PUSH2 0x1392 JUMPI POP PUSH1 0x15 SWAP1 CALLER DUP6 MSTORE PUSH1 0x23 DUP2 MSTORE DUP3 DUP6 KECCAK256 DUP5 PUSH1 0x1 PUSH1 0x1 PUSH1 0x60 SHL SUB PUSH1 0xA0 SHL DUP3 SLOAD AND OR SWAP1 SSTORE DUP4 DUP6 MSTORE PUSH1 0x24 DUP2 MSTORE PUSH2 0x1347 CALLER DUP5 DUP8 KECCAK256 PUSH2 0x4481 JUMP JUMPDEST CALLER DUP6 MSTORE MSTORE PUSH1 0x1 DUP2 DUP5 KECCAK256 SWAP2 PUSH1 0xFF NOT SWAP3 DUP3 DUP5 DUP3 SLOAD AND OR SWAP1 SSTORE DUP4 DUP6 MSTORE DUP5 KECCAK256 SWAP2 DUP3 SLOAD AND OR SWAP1 SSTORE CALLER SWAP1 PUSH32 0x5F1CA2FCC108B751843A763E60D2201F593516109D7DBB1B700468F2D4190BB7 DUP4 DUP1 LOG3 DUP1 RETURN JUMPDEST SWAP2 MLOAD PUSH3 0x461BCD PUSH1 0xE5 SHL DUP2 MSTORE SWAP2 DUP3 ADD MSTORE PUSH1 0x22 PUSH1 0x24 DUP3 ADD MSTORE PUSH32 0x416C726561647920726567697374657265642077697468206120726566657272 PUSH1 0x44 DUP3 ADD MSTORE PUSH2 0x32B9 PUSH1 0xF1 SHL PUSH1 0x64 DUP3 ADD MSTORE PUSH1 0x84 SWAP1 REVERT JUMPDEST POP SWAP2 MLOAD PUSH3 0x461BCD PUSH1 0xE5 SHL DUP2 MSTORE SWAP2 DUP3 ADD MSTORE PUSH1 0x15 PUSH1 0x24 DUP3 ADD MSTORE PUSH21 0x21B0B73737BA103932B332B9103CB7BAB939B2B633 PUSH1 0x59 SHL PUSH1 0x44 DUP3 ADD MSTORE PUSH1 0x64 SWAP1 REVERT JUMPDEST POP SWAP2 MLOAD PUSH3 0x461BCD PUSH1 0xE5 SHL DUP2 MSTORE SWAP2 DUP3 ADD MSTORE PUSH1 0x18 PUSH1 0x24 DUP3 ADD MSTORE PUSH32 0x496E76616C696420726566657272657220616464726573730000000000000000 PUSH1 0x44 DUP3 ADD MSTORE PUSH1 0x64 SWAP1 REVERT JUMPDEST DUP4 DUP1 REVERT JUMPDEST POP POP POP CALLVALUE PUSH2 0x66A JUMPI DUP2 PUSH1 0x3 NOT CALLDATASIZE ADD SLT PUSH2 0x66A JUMPI PUSH1 0x20 SWAP1 MLOAD PUSH1 0x5 DUP2 MSTORE RETURN JUMPDEST POP POP POP CALLVALUE PUSH2 0x66A JUMPI DUP2 PUSH1 0x3 NOT CALLDATASIZE ADD SLT PUSH2 0x66A JUMPI PUSH1 0x1 SLOAD SWAP1 MLOAD PUSH1 0x1 PUSH1 0x1 PUSH1 0xA0 SHL SUB SWAP1 SWAP2 AND DUP2 MSTORE PUSH1 0x20 SWAP1 RETURN JUMPDEST POP POP CALLVALUE PUSH2 0x46B JUMPI PUSH1 0x20 SWAP1 DUP2 PUSH1 0x3 NOT CALLDATASIZE ADD SLT PUSH2 0x145A JUMPI CALLDATALOAD DUP1 DUP5 MSTORE PUSH1 0x1C DUP3 MSTORE DUP3 DUP5 KECCAK256 SLOAD PUSH1 0x1 PUSH1 0x1 PUSH1 0xA0 SHL SUB AND SWAP4 SWAP1 SWAP3 SWAP1 PUSH2 0x14DE DUP6 ISZERO ISZERO PUSH2 0x4EAE JUMP JUMPDEST PUSH2 0x14E6 PUSH2 0x5BDA JUMP JUMPDEST DUP2 SWAP6 DUP3 JUMPDEST DUP2 DUP5 MSTORE PUSH1 0x1B DUP1 DUP8 MSTORE DUP6 DUP6 KECCAK256 DUP1 SLOAD DUP4 LT ISZERO PUSH2 0x156B JUMPI PUSH2 0x1509 DUP4 DUP11 SWAP3 PUSH2 0x404B JUMP JUMPDEST POP SLOAD EQ PUSH2 0x151F JUMPI POP PUSH2 0x151A SWAP1 PUSH2 0x4E9F JUMP JUMPDEST PUSH2 0x14EA JUMP JUMPDEST PUSH1 0x60 SWAP9 POP PUSH2 0x1542 SWAP4 POP DUP5 DUP7 SWAP2 PUSH2 0x153C SWAP5 PUSH2 0x1552 SWAP8 MSTORE DUP9 MSTORE KECCAK256 PUSH2 0x404B JUMP JUMPDEST POP PUSH2 0x5B85 JUMP JUMPDEST SWAP4 PUSH2 0x154D PUSH1 0x1 PUSH2 0x4EF1 JUMP JUMPDEST PUSH2 0x4F6E JUMP JUMPDEST PUSH1 0xC0 DUP6 DUP6 ADD MLOAD SWAP5 ADD MLOAD ISZERO ISZERO SWAP3 DUP3 MLOAD SWAP5 DUP6 MSTORE DUP5 ADD MSTORE DUP3 ADD MSTORE RETURN JUMPDEST POP POP POP POP SWAP4 PUSH2 0x1552 SWAP2 POP PUSH2 0x154D PUSH1 0x60 SWAP7 PUSH2 0x4EF1 JUMP JUMPDEST POP POP CALLVALUE PUSH2 0x46B JUMPI PUSH1 0x20 CALLDATASIZE PUSH1 0x3 NOT ADD SLT PUSH2 0x46B JUMPI DUP1 CALLDATALOAD SWAP1 CALLER DUP5 MSTORE PUSH1 0x10 PUSH1 0x20 MSTORE PUSH2 0x15AE PUSH1 0xFF DUP5 DUP7 KECCAK256 SLOAD AND ISZERO PUSH2 0x4440 JUMP JUMPDEST PUSH2 0x15B9 DUP3 ISZERO ISZERO PUSH2 0x45E6 JUMP JUMPDEST DUP4 SLOAD PUSH1 0x1 PUSH1 0x1 PUSH1 0xA0 SHL SUB SWAP3 PUSH2 0x15F4 SWAP2 PUSH2 0x15D5 SWAP1 DUP6 AND ISZERO ISZERO PUSH2 0x44F8 JUMP JUMPDEST PUSH1 0x20 DUP2 DUP6 PUSH1 0x3 SLOAD AND PUSH2 0x15E8 DUP2 ISZERO ISZERO PUSH2 0x4754 JUMP JUMPDEST PUSH2 0xE19 PUSH1 0xB SLOAD DUP4 PUSH2 0x4394 JUMP JUMPDEST SUB SWAP3 GAS CALL DUP1 ISZERO PUSH2 0x62E JUMPI PUSH1 0x0 DUP1 MLOAD PUSH1 0x20 PUSH2 0x5C13 DUP4 CODECOPY DUP2 MLOAD SWAP2 MSTORE SWAP4 PUSH2 0x5AA PUSH2 0x1626 SWAP3 PUSH2 0x5FA SWAP6 DUP11 SWAP2 PUSH2 0x166A JUMPI JUMPDEST POP PUSH2 0x4795 JUMP JUMPDEST SWAP4 PUSH2 0x1630 DUP6 PUSH2 0x53F4 JUMP JUMPDEST PUSH2 0x1646 DUP2 PUSH1 0x3 SLOAD AND DUP7 DUP5 DUP5 DUP12 SLOAD AND PUSH2 0x5CF PUSH2 0x45C7 JUMP JUMPDEST PUSH1 0x3 SLOAD AND SWAP5 MLOAD SWAP2 DUP3 SWAP2 CALLER SWAP6 TIMESTAMP SWAP2 DUP5 PUSH1 0x40 SWAP2 SWAP5 SWAP4 SWAP3 PUSH1 0x60 DUP3 ADD SWAP6 DUP3 MSTORE PUSH1 0x20 DUP3 ADD MSTORE ADD MSTORE JUMP JUMPDEST PUSH2 0x1682 SWAP2 POP PUSH1 0x20 RETURNDATASIZE DUP2 GT PUSH2 0x627 JUMPI PUSH2 0x619 DUP2 DUP4 PUSH2 0x413D JUMP JUMPDEST CODESIZE PUSH2 0x1620 JUMP JUMPDEST POP POP POP CALLVALUE PUSH2 0x66A JUMPI DUP2 PUSH1 0x3 NOT CALLDATASIZE ADD SLT PUSH2 0x66A JUMPI PUSH1 0x20 SWAP1 MLOAD PUSH12 0x1F04EF12CB04CF158000000 DUP2 MSTORE RETURN JUMPDEST POP POP POP CALLVALUE PUSH2 0x66A JUMPI DUP2 PUSH1 0x3 NOT CALLDATASIZE ADD SLT PUSH2 0x66A JUMPI PUSH1 0x20 SWAP1 PUSH1 0x22 SLOAD SWAP1 MLOAD SWAP1 DUP2 MSTORE RETURN JUMPDEST POP POP POP CALLVALUE PUSH2 0x66A JUMPI DUP2 PUSH1 0x3 NOT CALLDATASIZE ADD SLT PUSH2 0x66A JUMPI MLOAD PUSH32 0x0 PUSH1 0x1 PUSH1 0x1 PUSH1 0xA0 SHL SUB AND DUP2 MSTORE PUSH1 0x20 SWAP1 RETURN JUMPDEST POP POP POP CALLVALUE PUSH2 0x66A JUMPI DUP2 PUSH1 0x3 NOT CALLDATASIZE ADD SLT PUSH2 0x66A JUMPI PUSH1 0x20 SWAP1 PUSH1 0x1F SLOAD SWAP1 MLOAD SWAP1 DUP2 MSTORE RETURN JUMPDEST POP POP POP CALLVALUE PUSH2 0x66A JUMPI DUP2 PUSH1 0x3 NOT CALLDATASIZE ADD SLT PUSH2 0x66A JUMPI PUSH1 0x20 SWAP1 PUSH1 0x13 SLOAD SWAP1 MLOAD SWAP1 DUP2 MSTORE RETURN JUMPDEST POP POP POP CALLVALUE PUSH2 0x66A JUMPI PUSH1 0x20 CALLDATASIZE PUSH1 0x3 NOT ADD SLT PUSH2 0x66A JUMPI PUSH1 0x20 SWAP1 PUSH2 0xB06 PUSH2 0x1777 PUSH2 0x3EA2 JUMP JUMPDEST PUSH2 0x43B4 JUMP JUMPDEST SWAP2 POP POP CALLVALUE PUSH2 0x46B JUMPI PUSH1 0x20 DUP1 PUSH1 0x3 NOT CALLDATASIZE ADD SLT PUSH2 0x145A JUMPI SWAP1 SWAP2 PUSH1 0x1 PUSH1 0x1 PUSH1 0xA0 SHL SUB PUSH2 0x17A3 PUSH2 0x3EA2 JUMP JUMPDEST AND DUP5 MSTORE PUSH1 0x1B DUP3 MSTORE DUP1 DUP5 KECCAK256 SWAP2 DUP3 SLOAD SWAP2 PUSH2 0x17BA DUP4 PUSH2 0x5B6D JUMP JUMPDEST SWAP3 PUSH2 0x17C7 DUP3 MLOAD SWAP5 DUP6 PUSH2 0x413D JUMP JUMPDEST DUP1 DUP5 MSTORE DUP3 DUP5 ADD DUP1 SWAP6 DUP9 MSTORE DUP4 DUP9 KECCAK256 DUP9 SWAP2 JUMPDEST DUP4 DUP4 LT PUSH2 0x1857 JUMPI POP POP POP POP DUP1 MLOAD SWAP5 DUP3 DUP7 ADD SWAP4 DUP4 DUP8 MSTORE MLOAD DUP1 SWAP5 MSTORE DUP2 DUP7 ADD SWAP5 SWAP7 SWAP2 JUMPDEST DUP5 DUP4 LT PUSH2 0x1804 JUMPI DUP7 DUP7 SUB DUP8 RETURN JUMPDEST DUP8 MLOAD DUP1 MLOAD DUP8 MSTORE DUP1 DUP6 ADD MLOAD DUP8 DUP7 ADD MSTORE DUP1 DUP3 ADD MLOAD DUP8 DUP4 ADD MSTORE PUSH1 0x60 DUP1 DUP3 ADD MLOAD SWAP1 DUP9 ADD MSTORE PUSH1 0x80 DUP1 DUP3 ADD MLOAD SWAP1 DUP9 ADD MSTORE PUSH1 0xA0 DUP1 DUP3 ADD MLOAD SWAP1 DUP9 ADD MSTORE PUSH1 0xC0 SWAP1 DUP2 ADD MLOAD ISZERO ISZERO SWAP1 DUP8 ADD MSTORE SWAP7 DUP4 ADD SWAP7 SWAP5 DUP2 ADD SWAP5 PUSH1 0x1 SWAP1 SWAP3 ADD SWAP2 PUSH2 0x17F7 JUMP JUMPDEST PUSH1 0x7 DUP7 PUSH1 0x1 SWAP3 PUSH2 0x186E DUP6 SWAP14 SWAP10 SWAP11 SWAP12 SWAP14 SWAP13 SWAP9 SWAP13 PUSH2 0x5B85 JUMP JUMPDEST DUP2 MSTORE ADD SWAP3 ADD SWAP3 ADD SWAP2 SWAP1 SWAP9 SWAP7 SWAP6 SWAP5 SWAP9 SWAP8 SWAP4 SWAP8 PUSH2 0x17D7 JUMP JUMPDEST POP POP POP CALLVALUE PUSH2 0x66A JUMPI DUP2 PUSH1 0x3 NOT CALLDATASIZE ADD SLT PUSH2 0x66A JUMPI PUSH1 0x20 SWAP1 PUSH1 0x8 SLOAD SWAP1 MLOAD SWAP1 DUP2 MSTORE RETURN JUMPDEST POP POP POP CALLVALUE PUSH2 0x66A JUMPI DUP2 PUSH1 0x3 NOT CALLDATASIZE ADD SLT PUSH2 0x66A JUMPI PUSH1 0x20 SWAP1 PUSH1 0x1D SLOAD SWAP1 MLOAD SWAP1 DUP2 MSTORE RETURN JUMPDEST DUP4 DUP6 CALLVALUE PUSH2 0x749 JUMPI PUSH1 0x20 SWAP1 DUP2 PUSH1 0x3 NOT CALLDATASIZE ADD SLT PUSH2 0x749 JUMPI PUSH2 0x18E1 PUSH2 0x3EA2 JUMP JUMPDEST SWAP1 SWAP2 DUP3 SWAP2 DUP3 SWAP2 SWAP1 DUP3 SWAP1 PUSH1 0x1 PUSH1 0x1 PUSH1 0xA0 SHL SUB AND DUP2 JUMPDEST DUP2 DUP7 MSTORE PUSH1 0x1B DUP1 DUP6 MSTORE DUP9 DUP8 KECCAK256 DUP1 SLOAD DUP4 LT ISZERO PUSH2 0x198F JUMPI PUSH1 0xFF PUSH1 0x6 PUSH2 0x1918 DUP6 DUP14 SWAP5 PUSH2 0x404B JUMP JUMPDEST POP ADD SLOAD AND PUSH2 0x1931 JUMPI JUMPDEST POP POP PUSH2 0x192C SWAP1 PUSH2 0x4E9F JUMP JUMPDEST PUSH2 0x18F5 JUMP JUMPDEST DUP3 SWAP7 SWAP5 PUSH2 0x195F DUP4 SWAP11 PUSH1 0x1 PUSH2 0x1956 PUSH2 0x192C SWAP8 PUSH2 0x1981 SWAP7 DUP15 PUSH2 0x1987 SWAP10 DUP15 DUP14 DUP4 MSTORE MSTORE KECCAK256 PUSH2 0x404B JUMP JUMPDEST POP ADD SLOAD SWAP1 PUSH2 0x43A7 JUMP JUMPDEST SWAP10 DUP6 DUP11 MSTORE DUP8 MSTORE PUSH2 0x197B PUSH2 0x1974 DUP10 DUP14 DUP13 KECCAK256 PUSH2 0x404B JUMP JUMPDEST POP SLOAD PUSH2 0x4F6E JUMP JUMPDEST SWAP1 PUSH2 0x43A7 JUMP JUMPDEST SWAP4 PUSH2 0x4E9F JUMP JUMPDEST SWAP5 SWAP1 DUP9 PUSH2 0x1921 JUMP JUMPDEST DUP10 MLOAD DUP10 DUP2 MSTORE PUSH1 0x20 DUP2 ADD DUP7 SWAP1 MSTORE PUSH1 0x40 DUP2 ADD DUP9 SWAP1 MSTORE PUSH1 0x60 SWAP1 RETURN JUMPDEST POP POP CALLVALUE PUSH2 0x46B JUMPI PUSH2 0x19D7 PUSH2 0x19BA CALLDATASIZE PUSH2 0x3EEB JUMP JUMPDEST SWAP4 SWAP3 SWAP2 SWAP1 SWAP2 CALLER DUP9 MSTORE PUSH1 0x10 PUSH1 0x20 MSTORE PUSH2 0x10AD PUSH1 0xFF DUP9 DUP11 KECCAK256 SLOAD AND ISZERO PUSH2 0x4440 JUMP JUMPDEST PUSH2 0x19E2 DUP2 ISZERO ISZERO PUSH2 0x45E6 JUMP JUMPDEST DUP4 SLOAD PUSH1 0x1 PUSH1 0x1 PUSH1 0xA0 SHL SUB SWAP2 SWAP1 PUSH2 0x19FB SWAP1 DUP4 AND ISZERO ISZERO PUSH2 0x44F8 JUMP JUMPDEST DUP2 DUP4 SLOAD AND SWAP1 PUSH2 0x1A0B DUP3 ISZERO ISZERO PUSH2 0x47D7 JUMP JUMPDEST PUSH2 0x1A17 PUSH1 0xC SLOAD DUP3 PUSH2 0x4394 JUMP JUMPDEST SWAP3 PUSH5 0x2540BE400 SWAP4 DUP5 DUP2 MUL SWAP5 DUP2 DUP7 DIV EQ SWAP1 ISZERO OR ISZERO PUSH2 0x1B24 JUMPI DUP6 MLOAD PUSH4 0x23B872DD PUSH1 0xE0 SHL DUP2 MSTORE CALLER DUP7 DUP3 ADD SWAP1 DUP2 MSTORE PUSH1 0x1 PUSH1 0x1 PUSH1 0xA0 SHL SUB PUSH32 0x0 AND PUSH1 0x20 DUP3 DUP2 ADD SWAP2 SWAP1 SWAP2 MSTORE PUSH1 0x40 DUP3 ADD DUP6 SWAP1 MSTORE SWAP2 SWAP5 DUP6 SWAP2 DUP3 SWAP1 DUP12 SWAP1 DUP3 SWAP1 PUSH1 0x60 ADD SUB SWAP3 GAS CALL DUP1 ISZERO PUSH2 0x1B1A JUMPI PUSH1 0x0 DUP1 MLOAD PUSH1 0x20 PUSH2 0x5C13 DUP4 CODECOPY DUP2 MLOAD SWAP2 MSTORE SWAP5 PUSH2 0x5AA PUSH2 0x1ABB SWAP3 PUSH2 0x5FA SWAP7 DUP12 SWAP2 PUSH2 0x1AFC JUMPI JUMPDEST POP PUSH2 0x4818 JUMP JUMPDEST SWAP5 PUSH2 0x1AC5 DUP7 PUSH2 0x53F4 JUMP JUMPDEST PUSH2 0x1ADA DUP3 DUP3 SLOAD AND DUP8 DUP6 DUP6 DUP13 SLOAD AND PUSH2 0x5CF PUSH2 0x45C7 JUMP JUMPDEST SLOAD AND SWAP5 MLOAD SWAP2 DUP3 SWAP2 CALLER SWAP6 TIMESTAMP SWAP2 DUP5 PUSH1 0x40 SWAP2 SWAP5 SWAP4 SWAP3 PUSH1 0x60 DUP3 ADD SWAP6 DUP3 MSTORE PUSH1 0x20 DUP3 ADD MSTORE ADD MSTORE JUMP JUMPDEST PUSH2 0x1B14 SWAP2 POP PUSH1 0x20 RETURNDATASIZE DUP2 GT PUSH2 0x627 JUMPI PUSH2 0x619 DUP2 DUP4 PUSH2 0x413D JUMP JUMPDEST CODESIZE PUSH2 0x1AB5 JUMP JUMPDEST DUP7 MLOAD RETURNDATASIZE DUP10 DUP3 RETURNDATACOPY RETURNDATASIZE SWAP1 REVERT JUMPDEST PUSH4 0x4E487B71 PUSH1 0xE0 SHL DUP8 MSTORE PUSH1 0x11 DUP6 MSTORE PUSH1 0x24 DUP8 REVERT JUMPDEST DUP3 DUP6 DUP6 CALLDATASIZE PUSH1 0x3 NOT ADD PUSH1 0xA0 DUP2 SLT PUSH2 0x46B JUMPI PUSH1 0x80 SGT PUSH2 0x66A JUMPI PUSH1 0x84 CALLDATALOAD PUSH8 0xFFFFFFFFFFFFFFFF DUP2 GT PUSH2 0x46B JUMPI PUSH2 0x1B6D SWAP1 CALLDATASIZE SWAP1 DUP6 ADD PUSH2 0x3EBD JUMP JUMPDEST SWAP2 SWAP1 CALLER DUP5 MSTORE PUSH1 0x20 SWAP1 PUSH1 0x10 DUP3 MSTORE PUSH2 0x1B89 PUSH1 0xFF DUP5 DUP8 KECCAK256 SLOAD AND ISZERO PUSH2 0x4440 JUMP JUMPDEST PUSH1 0x64 CALLDATALOAD SWAP1 DUP2 TIMESTAMP GT PUSH2 0x1F6A JUMPI PUSH1 0x1 PUSH1 0x1 PUSH1 0xA0 SHL SUB SWAP5 DUP8 CALLDATALOAD DUP7 DUP2 AND SWAP3 SWAP2 SWAP1 DUP4 SWAP1 SUB PUSH2 0x1F66 JUMPI CALLER DUP4 SUB PUSH2 0x1F30 JUMPI PUSH1 0x44 CALLDATALOAD SWAP3 CALLER DUP10 MSTORE PUSH1 0x28 DUP7 MSTORE DUP7 DUP10 KECCAK256 SLOAD DUP5 GT ISZERO PUSH2 0x1F00 JUMPI PUSH1 0x27 SLOAD SWAP1 PUSH1 0x24 CALLDATALOAD SWAP6 DUP10 DUP8 AND DUP1 SWAP8 SUB PUSH2 0x1EFC JUMPI DUP9 MLOAD SWAP1 DUP9 DUP3 ADD SWAP3 PUSH32 0x91B089318BBDF627BACEC662873C12CC3AFDC69DB73F084D7726E9CE2907280A DUP5 MSTORE DUP11 DUP4 ADD MSTORE DUP8 PUSH1 0x60 DUP4 ADD MSTORE DUP7 PUSH1 0x80 DUP4 ADD MSTORE PUSH1 0xA0 DUP3 ADD MSTORE PUSH1 0xA0 DUP2 MSTORE PUSH2 0x1C27 DUP2 PUSH2 0x40E9 JUMP JUMPDEST MLOAD SWAP1 KECCAK256 DUP8 MLOAD SWAP1 DUP8 DUP3 ADD SWAP3 PUSH2 0x1901 PUSH1 0xF0 SHL DUP5 MSTORE PUSH1 0x22 DUP4 ADD MSTORE PUSH1 0x42 DUP3 ADD MSTORE PUSH1 0x42 DUP2 MSTORE PUSH2 0x1C50 DUP2 PUSH2 0x4105 JUMP JUMPDEST MLOAD SWAP1 KECCAK256 SWAP1 PUSH2 0x1C5D DUP2 PUSH2 0x4539 JUMP JUMPDEST SWAP3 PUSH2 0x1C6A DUP9 MLOAD SWAP5 DUP6 PUSH2 0x413D JUMP JUMPDEST DUP2 DUP5 MSTORE CALLDATASIZE DUP3 DUP3 ADD GT PUSH2 0x1EF8 JUMPI SWAP2 DUP10 DUP8 DUP4 DUP7 SWAP5 PUSH2 0x1C90 SWAP7 DUP4 PUSH2 0x1C98 SWAP10 ADD CALLDATACOPY DUP5 ADD ADD MSTORE PUSH2 0x4D74 JUMP JUMPDEST SWAP2 SWAP1 SWAP2 PUSH2 0x4C5A JUMP JUMPDEST DUP6 DUP1 PUSH1 0x26 SLOAD AND SWAP2 AND SUB PUSH2 0x1EC5 JUMPI CALLER DUP7 MSTORE PUSH1 0x28 DUP4 MSTORE DUP1 DUP5 DUP8 KECCAK256 SSTORE DUP4 MLOAD SWAP1 DUP2 MSTORE PUSH32 0xB23E07A4FC171F5F9242D4254C3B66B893BEAAB2F3787495C0F2D09DD3EF9726 DUP4 CALLER SWAP3 LOG2 DUP5 SWAP2 DUP2 ISZERO ISZERO SWAP1 DUP2 DUP1 PUSH2 0x1EB8 JUMPI JUMPDEST DUP1 PUSH2 0x1EA4 JUMPI JUMPDEST DUP5 DUP2 PUSH2 0x1E85 JUMPI JUMPDEST POP PUSH2 0x1E20 JUMPI JUMPDEST PUSH1 0x15 SWAP1 CALLER DUP9 MSTORE MSTORE DUP4 DUP7 KECCAK256 SWAP3 PUSH1 0xFF NOT SWAP4 PUSH1 0x1 DUP6 DUP3 SLOAD AND OR SWAP1 SSTORE PUSH2 0x1E1C JUMPI PUSH2 0x1E07 JUMPI JUMPDEST POP POP CALLVALUE ISZERO PUSH2 0x1D2A DUP2 ISZERO PUSH2 0x44BC JUMP JUMPDEST PUSH2 0x1D38 DUP4 DUP6 SLOAD AND ISZERO ISZERO PUSH2 0x44F8 JUMP JUMPDEST PUSH2 0x1D41 CALLER PUSH2 0x43B4 JUMP JUMPDEST SWAP1 PUSH8 0xDE0B6B3A7640000 SWAP1 DUP2 CALLVALUE MUL SWAP2 CALLVALUE DUP4 DIV EQ OR ISZERO PUSH2 0x1DF4 JUMPI SWAP2 PUSH2 0x1DD6 PUSH2 0x1D7C PUSH2 0x5AA PUSH1 0x0 DUP1 MLOAD PUSH1 0x20 PUSH2 0x5C13 DUP4 CODECOPY DUP2 MLOAD SWAP2 MSTORE SWAP5 DUP9 SWAP8 SWAP7 PUSH2 0x4374 JUMP JUMPDEST SWAP4 PUSH2 0x1D86 DUP6 PUSH2 0x53F4 JUMP JUMPDEST PUSH2 0x1DC1 DUP7 DUP1 DUP1 DUP1 CALLVALUE DUP7 PUSH32 0x0 AND GAS CALL PUSH2 0x1DBB PUSH2 0x4555 JUMP JUMPDEST POP PUSH2 0x4585 JUMP JUMPDEST DUP6 SLOAD AND DUP5 PUSH2 0x1DCD PUSH2 0x45C7 JUMP JUMPDEST SWAP2 CALLVALUE SWAP1 CALLER PUSH2 0x5AB2 JUMP JUMPDEST MLOAD CALLVALUE DUP2 MSTORE PUSH1 0x20 DUP2 ADD SWAP3 SWAP1 SWAP3 MSTORE TIMESTAMP PUSH1 0x40 DUP4 ADD MSTORE CALLER SWAP2 DUP1 PUSH1 0x60 DUP2 ADD PUSH2 0x5FA JUMP JUMPDEST PUSH4 0x4E487B71 PUSH1 0xE0 SHL DUP6 MSTORE PUSH1 0x11 DUP7 MSTORE PUSH1 0x24 DUP6 REVERT JUMPDEST DUP5 MSTORE PUSH1 0x1 DUP3 DUP6 KECCAK256 SWAP2 DUP3 SLOAD AND OR SWAP1 SSTORE DUP5 DUP1 PUSH2 0x1D1C JUMP JUMPDEST DUP6 DUP1 REVERT JUMPDEST SWAP3 PUSH2 0x1E1C JUMPI CALLER DUP7 MSTORE PUSH1 0x23 DUP4 MSTORE DUP4 DUP7 KECCAK256 DUP3 PUSH1 0x1 PUSH1 0x1 PUSH1 0x60 SHL SUB PUSH1 0xA0 SHL DUP3 SLOAD AND OR SWAP1 SSTORE DUP2 DUP7 MSTORE PUSH1 0x24 DUP4 MSTORE PUSH2 0x1E54 CALLER DUP6 DUP9 KECCAK256 PUSH2 0x4481 JUMP JUMPDEST PUSH1 0x15 DUP7 SWAP4 CALLER DUP5 PUSH32 0x5F1CA2FCC108B751843A763E60D2201F593516109D7DBB1B700468F2D4190BB7 DUP11 DUP1 LOG3 SWAP1 POP PUSH2 0x1CFB JUMP JUMPDEST SWAP1 POP PUSH2 0x1EA0 JUMPI DUP3 DUP8 MSTORE PUSH1 0x10 DUP2 MSTORE PUSH1 0xFF DUP6 DUP9 KECCAK256 SLOAD AND ISZERO DUP5 PUSH2 0x1CF5 JUMP JUMPDEST DUP7 DUP1 REVERT JUMPDEST POP CALLER DUP8 MSTORE PUSH1 0x23 DUP2 MSTORE DUP6 DUP6 DUP9 KECCAK256 SLOAD AND ISZERO PUSH2 0x1CEE JUMP JUMPDEST POP DUP7 SWAP4 POP CALLER DUP4 EQ ISZERO PUSH2 0x1CE8 JUMP JUMPDEST DUP4 MLOAD PUSH3 0x461BCD PUSH1 0xE5 SHL DUP2 MSTORE DUP1 DUP9 ADD DUP5 SWAP1 MSTORE PUSH1 0xD PUSH1 0x24 DUP3 ADD MSTORE PUSH13 0x426164207369676E6174757265 PUSH1 0x98 SHL PUSH1 0x44 DUP3 ADD MSTORE PUSH1 0x64 SWAP1 REVERT JUMPDEST DUP10 DUP1 REVERT JUMPDEST DUP11 DUP1 REVERT JUMPDEST DUP7 MLOAD PUSH3 0x461BCD PUSH1 0xE5 SHL DUP2 MSTORE DUP1 DUP12 ADD DUP8 SWAP1 MSTORE PUSH1 0xA PUSH1 0x24 DUP3 ADD MSTORE PUSH10 0x139BDB98D9481D5CD959 PUSH1 0xB2 SHL PUSH1 0x44 DUP3 ADD MSTORE PUSH1 0x64 SWAP1 REVERT JUMPDEST DUP6 MLOAD PUSH3 0x461BCD PUSH1 0xE5 SHL DUP2 MSTORE DUP1 DUP11 ADD DUP7 SWAP1 MSTORE PUSH1 0x10 PUSH1 0x24 DUP3 ADD MSTORE PUSH16 0x2737BA103CB7BAB9103B37BAB1B432B9 PUSH1 0x81 SHL PUSH1 0x44 DUP3 ADD MSTORE PUSH1 0x64 SWAP1 REVERT JUMPDEST DUP8 DUP1 REVERT JUMPDEST DUP4 MLOAD PUSH3 0x461BCD PUSH1 0xE5 SHL DUP2 MSTORE DUP1 DUP9 ADD DUP5 SWAP1 MSTORE PUSH1 0xF PUSH1 0x24 DUP3 ADD MSTORE PUSH15 0x159BDD58DA195C88195E1C1A5C9959 PUSH1 0x8A SHL PUSH1 0x44 DUP3 ADD MSTORE PUSH1 0x64 SWAP1 REVERT JUMPDEST SWAP3 SWAP1 POP CALLVALUE PUSH2 0x145A JUMPI DUP4 PUSH1 0x3 NOT CALLDATASIZE ADD SLT PUSH2 0x145A JUMPI DUP4 SLOAD DUP2 MLOAD PUSH4 0x70A08231 PUSH1 0xE0 SHL DUP2 MSTORE ADDRESS SWAP4 DUP2 ADD SWAP4 SWAP1 SWAP4 MSTORE PUSH1 0x1 PUSH1 0x1 PUSH1 0xA0 SHL SUB SWAP1 DUP2 AND SWAP4 SWAP1 PUSH1 0x20 DUP5 PUSH1 0x24 DUP2 DUP9 GAS STATICCALL SWAP4 DUP5 ISZERO PUSH2 0x2074 JUMPI DUP7 SWAP5 PUSH2 0x203C JUMPI JUMPDEST POP PUSH2 0x120 SWAP6 POP PUSH1 0x6 SLOAD SWAP1 PUSH1 0x7 SLOAD PUSH1 0xE SLOAD SWAP1 DUP3 PUSH1 0x1 SLOAD AND SWAP3 PUSH1 0x2 SLOAD AND SWAP4 PUSH1 0x8 SLOAD SWAP7 PUSH1 0x9 SLOAD SWAP9 DUP2 MLOAD SWAP11 DUP12 MSTORE PUSH1 0x20 DUP12 ADD MSTORE DUP10 ADD MSTORE PUSH1 0x60 DUP9 ADD MSTORE PUSH1 0x80 DUP8 ADD MSTORE PUSH1 0xA0 DUP7 ADD MSTORE PUSH1 0xC0 DUP6 ADD MSTORE DUP4 ADD MSTORE PUSH2 0x100 DUP3 ADD MSTORE RETURN JUMPDEST SWAP1 SWAP4 POP PUSH1 0x20 DUP2 RETURNDATASIZE DUP3 GT PUSH2 0x206C JUMPI JUMPDEST DUP2 PUSH2 0x2057 PUSH1 0x20 SWAP4 DUP4 PUSH2 0x413D JUMP JUMPDEST DUP2 ADD SUB SLT PUSH2 0x1E1C JUMPI PUSH2 0x120 SWAP6 POP MLOAD SWAP3 CODESIZE PUSH2 0x1FEC JUMP JUMPDEST RETURNDATASIZE SWAP2 POP PUSH2 0x204A JUMP JUMPDEST DUP4 MLOAD RETURNDATASIZE DUP9 DUP3 RETURNDATACOPY RETURNDATASIZE SWAP1 REVERT JUMPDEST POP POP POP CALLVALUE PUSH2 0x66A JUMPI DUP2 PUSH1 0x3 NOT CALLDATASIZE ADD SLT PUSH2 0x66A JUMPI PUSH1 0x20 SWAP1 PUSH1 0xD SLOAD SWAP1 MLOAD SWAP1 DUP2 MSTORE RETURN JUMPDEST POP POP POP CALLVALUE PUSH2 0x66A JUMPI PUSH1 0x20 CALLDATASIZE PUSH1 0x3 NOT ADD SLT PUSH2 0x66A JUMPI PUSH1 0x20 SWAP2 PUSH1 0xFF SWAP1 DUP3 SWAP1 PUSH1 0x1 PUSH1 0x1 PUSH1 0xA0 SHL SUB PUSH2 0x20CA PUSH2 0x3EA2 JUMP JUMPDEST AND DUP2 MSTORE PUSH1 0x15 DUP6 MSTORE KECCAK256 SLOAD AND SWAP1 MLOAD SWAP1 ISZERO ISZERO DUP2 MSTORE RETURN JUMPDEST POP POP POP CALLVALUE PUSH2 0x66A JUMPI DUP2 PUSH1 0x3 NOT CALLDATASIZE ADD SLT PUSH2 0x66A JUMPI PUSH1 0x20 SWAP1 PUSH1 0x14 SLOAD SWAP1 MLOAD SWAP1 DUP2 MSTORE RETURN JUMPDEST POP POP POP CALLVALUE PUSH2 0x66A JUMPI DUP2 PUSH1 0x3 NOT CALLDATASIZE ADD SLT PUSH2 0x66A JUMPI PUSH1 0x20 SWAP1 DUP2 SLOAD SWAP1 MLOAD SWAP1 DUP2 MSTORE RETURN JUMPDEST POP POP CALLVALUE PUSH2 0x46B JUMPI PUSH1 0x20 CALLDATASIZE PUSH1 0x3 NOT ADD SLT PUSH2 0x46B JUMPI DUP1 CALLDATALOAD SWAP1 PUSH2 0x2166 CALLER PUSH32 0x0 PUSH1 0x1 PUSH1 0x1 PUSH1 0xA0 SHL SUB AND EQ PUSH2 0x4262 JUMP JUMPDEST DUP2 ISZERO PUSH2 0x21A6 JUMPI POP SWAP1 PUSH32 0x787A1FCA55641CE34A438271930BBB9401DF20DB2B4F510D4F252227D85DF43D SWAP2 PUSH1 0x19 SLOAD SWAP1 DUP1 PUSH1 0x19 SSTORE DUP3 MLOAD SWAP2 DUP3 MSTORE PUSH1 0x20 DUP3 ADD MSTORE LOG1 DUP1 RETURN JUMPDEST PUSH1 0x64 SWAP1 PUSH1 0x20 DUP5 MLOAD SWAP2 PUSH3 0x461BCD PUSH1 0xE5 SHL DUP4 MSTORE DUP3 ADD MSTORE PUSH1 0x1A PUSH1 0x24 DUP3 ADD MSTORE PUSH32 0x415059206D7573742062652067726561746572207468616E2030000000000000 PUSH1 0x44 DUP3 ADD MSTORE REVERT JUMPDEST POP POP POP CALLVALUE PUSH2 0x66A JUMPI DUP2 PUSH1 0x3 NOT CALLDATASIZE ADD SLT PUSH2 0x66A JUMPI PUSH1 0x20 SWAP1 PUSH1 0x9 SLOAD SWAP1 MLOAD SWAP1 DUP2 MSTORE RETURN JUMPDEST DUP5 CALLVALUE PUSH2 0x749 JUMPI PUSH1 0x20 CALLDATASIZE PUSH1 0x3 NOT ADD SLT PUSH2 0x749 JUMPI PUSH2 0x2223 PUSH2 0x3EA2 JUMP JUMPDEST PUSH1 0x1 PUSH1 0x1 PUSH1 0xA0 SHL SUB SWAP1 PUSH2 0x2259 CALLER PUSH32 0x0 DUP5 AND EQ PUSH2 0x4262 JUMP JUMPDEST DUP2 PUSH1 0x26 SLOAD SWAP2 AND DUP1 SWAP3 DUP3 AND PUSH32 0x2D025324F0A785E8C12D0A0D91A9CAA49DF4EF20FF87E0DF7213A1D4F3157BEB DUP6 DUP1 LOG3 PUSH1 0x1 PUSH1 0x1 PUSH1 0xA0 SHL SUB NOT AND OR PUSH1 0x26 SSTORE DUP1 RETURN JUMPDEST POP POP CALLVALUE PUSH2 0x46B JUMPI PUSH1 0x20 CALLDATASIZE PUSH1 0x3 NOT ADD SLT PUSH2 0x46B JUMPI PUSH32 0x6E838F2A03741F5F2AFF5480963B672FB0DD8430A4DC75DB9B67CE009733C9FE SWAP2 PUSH1 0xA0 SWAP2 CALLDATALOAD PUSH2 0x2305 CALLER PUSH32 0x0 PUSH1 0x1 PUSH1 0x1 PUSH1 0xA0 SHL SUB AND EQ PUSH2 0x4262 JUMP JUMPDEST PUSH2 0x2310 DUP2 ISZERO ISZERO PUSH2 0x429B JUMP JUMPDEST PUSH1 0x6 SLOAD SWAP2 DUP2 PUSH1 0x6 SSTORE DUP1 MLOAD SWAP3 PUSH1 0x60 DUP5 MSTORE PUSH1 0x5 PUSH1 0x60 DUP6 ADD MSTORE PUSH5 0x2A27A5A2A7 PUSH1 0xD9 SHL PUSH1 0x80 DUP6 ADD MSTORE PUSH1 0x20 DUP5 ADD MSTORE DUP3 ADD MSTORE LOG1 DUP1 RETURN JUMPDEST POP POP POP CALLVALUE PUSH2 0x66A JUMPI DUP2 PUSH1 0x3 NOT CALLDATASIZE ADD SLT PUSH2 0x66A JUMPI PUSH1 0x20 SWAP1 PUSH1 0x7 SLOAD SWAP1 MLOAD SWAP1 DUP2 MSTORE RETURN JUMPDEST POP POP CALLVALUE PUSH2 0x46B JUMPI PUSH1 0x20 CALLDATASIZE PUSH1 0x3 NOT ADD SLT PUSH2 0x46B JUMPI PUSH32 0x6E838F2A03741F5F2AFF5480963B672FB0DD8430A4DC75DB9B67CE009733C9FE SWAP2 PUSH1 0xA0 SWAP2 CALLDATALOAD PUSH2 0x23CD CALLER PUSH32 0x0 PUSH1 0x1 PUSH1 0x1 PUSH1 0xA0 SHL SUB AND EQ PUSH2 0x4262 JUMP JUMPDEST PUSH2 0x23D8 DUP2 ISZERO ISZERO PUSH2 0x429B JUMP JUMPDEST PUSH1 0x7 SLOAD SWAP2 DUP2 PUSH1 0x7 SSTORE DUP1 MLOAD SWAP3 PUSH1 0x60 DUP5 MSTORE PUSH1 0xA PUSH1 0x60 DUP6 ADD MSTORE PUSH10 0x29AA20A12622A1A7A4A7 PUSH1 0xB1 SHL PUSH1 0x80 DUP6 ADD MSTORE PUSH1 0x20 DUP5 ADD MSTORE DUP3 ADD MSTORE LOG1 DUP1 RETURN JUMPDEST POP POP SWAP1 CALLVALUE PUSH2 0x46B JUMPI PUSH1 0x20 SWAP1 DUP2 PUSH1 0x3 NOT CALLDATASIZE ADD SLT PUSH2 0x145A JUMPI DUP3 SWAP2 SWAP3 CALLDATALOAD SWAP3 CALLER DUP6 MSTORE PUSH1 0x10 DUP2 MSTORE PUSH1 0xFF PUSH2 0x2440 DUP2 DUP5 DUP9 KECCAK256 SLOAD AND ISZERO PUSH2 0x4440 JUMP JUMPDEST DUP5 DUP7 MSTORE PUSH1 0x1C DUP3 MSTORE DUP3 DUP7 KECCAK256 SLOAD PUSH1 0x1 PUSH1 0x1 PUSH1 0xA0 SHL SUB SWAP1 PUSH2 0x2461 SWAP1 DUP3 AND CALLER EQ PUSH2 0x517C JUMP JUMPDEST DUP7 SWAP5 DUP6 SWAP3 DUP4 DUP1 JUMPDEST CALLER DUP12 MSTORE PUSH1 0x1B DUP1 DUP9 MSTORE DUP9 DUP13 KECCAK256 DUP1 SLOAD DUP4 LT ISZERO PUSH2 0x26D5 JUMPI SWAP11 PUSH2 0x2489 DUP4 DUP3 SWAP13 SWAP14 PUSH2 0x404B JUMP JUMPDEST POP SLOAD EQ PUSH2 0x24A2 JUMPI POP PUSH2 0x249A SWAP1 PUSH2 0x4E9F JUMP JUMPDEST SWAP9 SWAP8 SWAP9 PUSH2 0x2468 JUMP JUMPDEST SWAP6 POP SWAP8 SWAP9 POP POP CALLER DUP10 MSTORE DUP4 DUP6 MSTORE PUSH2 0x24CB PUSH2 0x24BD DUP9 DUP9 DUP13 KECCAK256 PUSH2 0x404B JUMP JUMPDEST POP SWAP2 PUSH1 0x6 DUP1 SWAP4 ADD SLOAD AND PUSH2 0x4F2F JUMP JUMPDEST CALLER DUP10 MSTORE DUP4 DUP6 MSTORE PUSH1 0x2 PUSH2 0x24DF DUP9 DUP9 DUP13 KECCAK256 PUSH2 0x404B JUMP JUMPDEST POP ADD SLOAD CALLER DUP11 MSTORE DUP5 DUP7 MSTORE PUSH1 0x3 PUSH2 0x24F6 DUP10 DUP10 DUP14 KECCAK256 PUSH2 0x404B JUMP JUMPDEST POP ADD SLOAD SWAP1 PUSH3 0x15180 SWAP2 DUP3 DUP2 MUL SWAP3 DUP2 DUP5 DIV EQ SWAP1 ISZERO OR ISZERO PUSH2 0x26C2 JUMPI SWAP1 PUSH2 0x2519 SWAP2 PUSH2 0x43A7 JUMP JUMPDEST TIMESTAMP LT PUSH2 0x2688 JUMPI SWAP2 DUP5 SWAP2 PUSH2 0x257C DUP11 PUSH2 0x25C2 SWAP6 PUSH2 0x255E PUSH2 0x2536 DUP14 PUSH2 0x4F6E JUMP JUMPDEST SWAP12 CALLER DUP5 MSTORE DUP10 DUP9 MSTORE DUP12 PUSH2 0x254A DUP3 DUP3 DUP8 KECCAK256 PUSH2 0x404B JUMP JUMPDEST POP SWAP5 PUSH1 0x1 DUP1 SWAP7 ADD SLOAD SWAP12 CALLER DUP3 MSTORE DUP11 MSTORE KECCAK256 PUSH2 0x404B JUMP JUMPDEST POP ADD PUSH1 0xFF NOT DUP2 SLOAD AND SWAP1 SSTORE PUSH1 0x1D PUSH2 0x2575 DUP9 DUP3 SLOAD PUSH2 0x4351 JUMP JUMPDEST SWAP1 SSTORE PUSH2 0x4EF1 JUMP JUMPDEST PUSH2 0x2585 CALLER PUSH2 0x533B JUMP JUMPDEST PUSH2 0x258F DUP9 DUP7 PUSH2 0x43A7 JUMP JUMPDEST DUP11 SLOAD DUP9 MLOAD PUSH4 0xA9059CBB PUSH1 0xE0 SHL DUP2 MSTORE CALLER SWAP4 DUP2 ADD SWAP4 DUP5 MSTORE PUSH1 0x20 DUP5 ADD SWAP3 SWAP1 SWAP3 MSTORE SWAP1 SWAP5 DUP6 SWAP4 SWAP1 SWAP2 AND SWAP2 DUP4 SWAP2 DUP13 SWAP2 DUP4 SWAP2 PUSH1 0x40 SWAP1 SWAP2 ADD SWAP1 JUMP JUMPDEST SUB SWAP3 GAS CALL SWAP1 DUP2 ISZERO PUSH2 0x267E JUMPI SWAP1 PUSH2 0x25DF SWAP2 DUP9 SWAP2 PUSH2 0x2661 JUMPI JUMPDEST POP PUSH2 0x4E5B JUMP JUMPDEST DUP5 DUP5 ISZERO ISZERO SWAP2 DUP3 PUSH2 0x264D JUMPI JUMPDEST DUP5 MLOAD SWAP1 DUP2 MSTORE PUSH32 0x7FC4727E062E336010F2C282598EF5F14FACB3DE68CF8195C2F23E1454B2B74E DUP5 CALLER SWAP3 LOG3 PUSH2 0x261C JUMPI DUP5 DUP1 RETURN JUMPDEST PUSH32 0xF87CFA2D5FEAEA949AD65BB76A26D8553381BCB6382ADBC83DEDD48961BF32D9 SWAP2 MLOAD SWAP3 DUP4 MSTORE CALLER SWAP3 LOG3 CODESIZE DUP1 DUP1 DUP1 DUP5 DUP1 RETURN JUMPDEST PUSH2 0x2659 DUP7 PUSH1 0x1E SLOAD PUSH2 0x43A7 JUMP JUMPDEST PUSH1 0x1E SSTORE PUSH2 0x25EA JUMP JUMPDEST PUSH2 0x2678 SWAP2 POP DUP5 RETURNDATASIZE DUP7 GT PUSH2 0x627 JUMPI PUSH2 0x619 DUP2 DUP4 PUSH2 0x413D JUMP JUMPDEST CODESIZE PUSH2 0x25D9 JUMP JUMPDEST DUP5 MLOAD RETURNDATASIZE DUP10 DUP3 RETURNDATACOPY RETURNDATASIZE SWAP1 REVERT JUMPDEST DUP6 MLOAD PUSH3 0x461BCD PUSH1 0xE5 SHL DUP2 MSTORE DUP1 DUP4 ADD DUP7 SWAP1 MSTORE PUSH1 0x14 PUSH1 0x24 DUP3 ADD MSTORE PUSH20 0x14DD1A5B1B081A5B881B1BD8DAC81C195C9A5BD9 PUSH1 0x62 SHL PUSH1 0x44 DUP3 ADD MSTORE PUSH1 0x64 SWAP1 REVERT JUMPDEST PUSH4 0x4E487B71 PUSH1 0xE0 SHL DUP12 MSTORE PUSH1 0x11 DUP5 MSTORE PUSH1 0x24 DUP12 REVERT JUMPDEST POP POP POP PUSH2 0x25C2 SWAP4 SWAP2 POP SWAP2 PUSH2 0x257C DUP7 SWAP4 PUSH2 0x4EF1 JUMP JUMPDEST POP POP DUP3 PUSH1 0x3 NOT CALLDATASIZE ADD SLT PUSH2 0x46B JUMPI CALLER DUP4 MSTORE PUSH1 0x20 PUSH1 0x10 DUP2 MSTORE PUSH2 0x270F PUSH1 0xFF DUP5 DUP7 KECCAK256 SLOAD AND ISZERO PUSH2 0x4440 JUMP JUMPDEST CALLVALUE ISZERO SWAP1 PUSH2 0x271C DUP3 ISZERO PUSH2 0x44BC JUMP JUMPDEST PUSH1 0x1 SLOAD PUSH1 0x1 PUSH1 0x1 PUSH1 0xA0 SHL SUB SWAP3 SWAP1 DUP4 AND SWAP1 PUSH2 0x2737 DUP3 ISZERO ISZERO PUSH2 0x4632 JUMP JUMPDEST PUSH3 0xF4240 SWAP1 DUP2 CALLVALUE MUL SWAP2 CALLVALUE DUP4 DIV EQ OR ISZERO PUSH2 0x1B24 JUMPI PUSH1 0x7 SLOAD PUSH2 0x2756 SWAP2 PUSH2 0x4374 JUMP JUMPDEST SWAP4 DUP6 MLOAD PUSH4 0x70A08231 PUSH1 0xE0 SHL DUP2 MSTORE ADDRESS DUP3 DUP3 ADD MSTORE DUP4 DUP2 PUSH1 0x24 DUP2 DUP7 GAS STATICCALL DUP1 ISZERO PUSH2 0x28E9 JUMPI DUP7 SWAP2 DUP10 SWAP2 PUSH2 0x28B8 JUMPI JUMPDEST POP LT PUSH2 0x2875 JUMPI DUP6 MLOAD PUSH4 0xA9059CBB PUSH1 0xE0 SHL DUP2 MSTORE CALLER SWAP2 DUP2 ADD SWAP2 DUP3 MSTORE PUSH1 0x20 DUP3 ADD DUP7 SWAP1 MSTORE SWAP4 SWAP3 SWAP2 DUP3 SWAP2 DUP6 SWAP2 SWAP1 DUP3 SWAP1 DUP11 SWAP1 DUP3 SWAP1 PUSH1 0x40 ADD SUB SWAP3 GAS CALL DUP1 ISZERO PUSH2 0x62E JUMPI PUSH32 0x48A1F8A6C840B32621CEAB4439A2CCD00B337E705DFDCDEC0B40C49ABF3E6BE3 SWAP4 PUSH2 0x27EE SWAP3 DUP9 SWAP3 PUSH2 0x2858 JUMPI JUMPDEST POP POP PUSH2 0x468C JUMP JUMPDEST PUSH2 0x2823 DUP6 DUP1 DUP1 DUP1 CALLVALUE DUP7 PUSH32 0x0 AND GAS CALL PUSH2 0x1DBB PUSH2 0x4555 JUMP JUMPDEST PUSH2 0x2834 DUP2 PUSH1 0x1 SLOAD AND DUP5 PUSH2 0x1DCD PUSH2 0x4E3B JUMP JUMPDEST PUSH1 0x1 SLOAD SWAP4 MLOAD SWAP3 DUP4 MSTORE CALLVALUE PUSH1 0x20 DUP5 ADD MSTORE TIMESTAMP PUSH1 0x40 DUP5 ADD MSTORE SWAP1 SWAP3 AND SWAP2 CALLER SWAP2 DUP1 PUSH1 0x60 DUP2 ADD PUSH2 0x5FA JUMP JUMPDEST PUSH2 0x286E SWAP3 POP DUP1 RETURNDATASIZE LT PUSH2 0x627 JUMPI PUSH2 0x619 DUP2 DUP4 PUSH2 0x413D JUMP JUMPDEST CODESIZE DUP1 PUSH2 0x27E7 JUMP JUMPDEST DUP6 MLOAD PUSH3 0x461BCD PUSH1 0xE5 SHL DUP2 MSTORE SWAP1 DUP2 ADD DUP4 SWAP1 MSTORE PUSH1 0x1B PUSH1 0x24 DUP3 ADD MSTORE PUSH32 0x496E73756666696369656E742055534454206C69717569646974790000000000 PUSH1 0x44 DUP3 ADD MSTORE PUSH1 0x64 SWAP1 REVERT JUMPDEST DUP1 SWAP3 POP DUP6 DUP1 SWAP3 POP RETURNDATASIZE DUP4 GT PUSH2 0x28E2 JUMPI JUMPDEST PUSH2 0x28D1 DUP2 DUP4 PUSH2 0x413D JUMP JUMPDEST DUP2 ADD SUB SLT PUSH2 0x1F66 JUMPI DUP6 SWAP1 MLOAD CODESIZE PUSH2 0x277F JUMP JUMPDEST POP RETURNDATASIZE PUSH2 0x28C7 JUMP JUMPDEST DUP8 MLOAD RETURNDATASIZE DUP11 DUP3 RETURNDATACOPY RETURNDATASIZE SWAP1 REVERT JUMPDEST POP POP POP CALLVALUE PUSH2 0x66A JUMPI PUSH1 0x20 DUP1 PUSH1 0x3 NOT CALLDATASIZE ADD SLT PUSH2 0x46B JUMPI PUSH1 0x1 PUSH1 0x1 PUSH1 0xA0 SHL SUB SWAP3 DUP4 PUSH2 0x291A PUSH2 0x3EA2 JUMP JUMPDEST AND DUP2 MSTORE PUSH1 0x24 DUP3 MSTORE DUP3 DUP2 KECCAK256 SWAP2 DUP4 MLOAD SWAP1 DUP2 DUP2 DUP6 SLOAD SWAP2 DUP3 DUP2 MSTORE ADD SWAP1 DUP2 SWAP6 DUP6 MSTORE DUP3 DUP6 KECCAK256 SWAP1 DUP6 JUMPDEST DUP2 DUP2 LT PUSH2 0x2988 JUMPI POP POP POP DUP3 PUSH2 0x2952 SWAP2 SUB DUP4 PUSH2 0x413D JUMP JUMPDEST DUP5 MLOAD SWAP5 DUP2 DUP7 ADD SWAP3 DUP3 DUP8 MSTORE MLOAD DUP1 SWAP4 MSTORE DUP6 ADD SWAP4 SWAP3 JUMPDEST DUP3 DUP2 LT PUSH2 0x2972 JUMPI DUP6 DUP6 SUB DUP7 RETURN JUMPDEST DUP4 MLOAD DUP8 AND DUP6 MSTORE SWAP4 DUP2 ADD SWAP4 SWAP3 DUP2 ADD SWAP3 PUSH1 0x1 ADD PUSH2 0x2965 JUMP JUMPDEST DUP3 SLOAD DUP11 AND DUP5 MSTORE SWAP3 DUP5 ADD SWAP3 PUSH1 0x1 SWAP3 DUP4 ADD SWAP3 ADD PUSH2 0x293C JUMP JUMPDEST POP POP CALLVALUE PUSH2 0x46B JUMPI PUSH1 0x20 SWAP1 DUP2 PUSH1 0x3 NOT CALLDATASIZE ADD SLT PUSH2 0x145A JUMPI DUP1 CALLDATALOAD SWAP2 CALLER DUP6 MSTORE PUSH1 0x10 DUP2 MSTORE PUSH1 0xFF SWAP4 PUSH2 0x29CF DUP6 DUP3 DUP9 KECCAK256 SLOAD AND ISZERO PUSH2 0x4440 JUMP JUMPDEST DUP4 DUP7 MSTORE PUSH1 0x1C DUP3 MSTORE DUP1 DUP7 KECCAK256 SLOAD PUSH1 0x1 PUSH1 0x1 PUSH1 0xA0 SHL SUB SWAP4 SWAP1 PUSH2 0x29F1 SWAP1 DUP6 AND CALLER EQ PUSH2 0x517C JUMP JUMPDEST DUP7 SWAP4 DUP8 JUMPDEST CALLER DUP10 MSTORE PUSH1 0x1B DUP1 DUP7 MSTORE DUP5 DUP11 KECCAK256 DUP1 SLOAD DUP4 LT ISZERO PUSH2 0x2BBA JUMPI PUSH2 0x2A14 DUP4 DUP11 SWAP3 PUSH2 0x404B JUMP JUMPDEST POP SLOAD EQ PUSH2 0x2A2A JUMPI POP PUSH2 0x2A25 SWAP1 PUSH2 0x4E9F JUMP JUMPDEST PUSH2 0x29F5 JUMP JUMPDEST SWAP7 SWAP8 PUSH2 0x2A53 SWAP2 SWAP3 SWAP4 SWAP5 SWAP6 SWAP7 POP CALLER DUP11 MSTORE DUP8 DUP8 MSTORE PUSH1 0x6 PUSH2 0x2A4A DUP5 DUP9 DUP14 KECCAK256 PUSH2 0x404B JUMP JUMPDEST POP ADD SLOAD AND PUSH2 0x4F2F JUMP JUMPDEST PUSH2 0x2A5C DUP8 PUSH2 0x4F6E JUMP JUMPDEST SWAP6 DUP7 ISZERO PUSH2 0x2B7F JUMPI SWAP1 PUSH2 0x2A8D SWAP2 CALLER DUP11 MSTORE DUP1 DUP8 MSTORE DUP10 PUSH1 0x5 PUSH2 0x2A7D DUP5 DUP10 DUP5 KECCAK256 PUSH2 0x404B JUMP JUMPDEST POP ADD SSTORE CALLER DUP11 MSTORE DUP7 MSTORE DUP5 DUP10 KECCAK256 PUSH2 0x404B JUMP JUMPDEST POP TIMESTAMP SWAP1 DUP4 ADD SSTORE DUP7 SLOAD DUP4 MLOAD PUSH4 0xA9059CBB PUSH1 0xE0 SHL DUP2 MSTORE CALLER DUP2 DUP6 ADD SWAP1 DUP2 MSTORE PUSH1 0x20 DUP2 ADD DUP9 SWAP1 MSTORE SWAP1 SWAP3 DUP7 SWAP3 DUP5 SWAP3 DUP4 SWAP1 SUB PUSH1 0x40 ADD SWAP2 DUP4 SWAP2 DUP13 SWAP2 AND GAS CALL SWAP1 DUP2 ISZERO PUSH2 0x2B75 JUMPI DUP8 SWAP2 PUSH2 0x2B58 JUMPI JUMPDEST POP ISZERO PUSH2 0x2B1E JUMPI POP SWAP1 PUSH32 0xF87CFA2D5FEAEA949AD65BB76A26D8553381BCB6382ADBC83DEDD48961BF32D9 SWAP2 PUSH1 0x1E PUSH2 0x2B08 DUP6 DUP3 SLOAD PUSH2 0x43A7 JUMP JUMPDEST SWAP1 SSTORE MLOAD SWAP3 DUP4 MSTORE CALLER SWAP3 LOG3 PUSH2 0x2B1B PUSH1 0x1 PUSH2 0x4EF1 JUMP JUMPDEST DUP1 RETURN JUMPDEST DUP3 PUSH1 0x64 SWAP3 MLOAD SWAP2 PUSH3 0x461BCD PUSH1 0xE5 SHL DUP4 MSTORE DUP3 ADD MSTORE PUSH1 0x16 PUSH1 0x24 DUP3 ADD MSTORE PUSH22 0x14995DD85C99081D1C985B9CD9995C8819985A5B1959 PUSH1 0x52 SHL PUSH1 0x44 DUP3 ADD MSTORE REVERT JUMPDEST PUSH2 0x2B6F SWAP2 POP DUP5 RETURNDATASIZE DUP7 GT PUSH2 0x627 JUMPI PUSH2 0x619 DUP2 DUP4 PUSH2 0x413D JUMP JUMPDEST CODESIZE PUSH2 0x2AD1 JUMP JUMPDEST DUP4 MLOAD RETURNDATASIZE DUP10 DUP3 RETURNDATACOPY RETURNDATASIZE SWAP1 REVERT JUMPDEST DUP5 MLOAD PUSH3 0x461BCD PUSH1 0xE5 SHL DUP2 MSTORE DUP1 DUP6 ADD DUP8 SWAP1 MSTORE PUSH1 0x15 PUSH1 0x24 DUP3 ADD MSTORE PUSH21 0x139BC81C995DD85C991CC81D1BC81A185C9D995CDD PUSH1 0x5A SHL PUSH1 0x44 DUP3 ADD MSTORE PUSH1 0x64 SWAP1 REVERT JUMPDEST POP POP POP POP POP POP POP SWAP1 POP PUSH2 0x2B1B SWAP2 POP PUSH2 0x4EF1 JUMP JUMPDEST POP POP POP CALLVALUE PUSH2 0x66A JUMPI PUSH1 0x20 CALLDATASIZE PUSH1 0x3 NOT ADD SLT PUSH2 0x66A JUMPI PUSH1 0x20 SWAP2 DUP2 SWAP1 PUSH1 0x1 PUSH1 0x1 PUSH1 0xA0 SHL SUB PUSH2 0x2BF6 PUSH2 0x3EA2 JUMP JUMPDEST AND DUP2 MSTORE PUSH1 0x25 DUP5 MSTORE KECCAK256 SLOAD SWAP1 MLOAD SWAP1 DUP2 MSTORE RETURN JUMPDEST DUP5 DUP4 CALLVALUE PUSH2 0x66A JUMPI PUSH1 0x20 CALLDATASIZE PUSH1 0x3 NOT ADD SLT PUSH2 0x66A JUMPI PUSH2 0x2C4D CALLER PUSH32 0x0 PUSH1 0x1 PUSH1 0x1 PUSH1 0xA0 SHL SUB AND EQ PUSH2 0x4262 JUMP JUMPDEST CALLDATALOAD PUSH1 0x11 SSTORE DUP1 RETURN JUMPDEST POP POP POP CALLVALUE PUSH2 0x66A JUMPI DUP2 PUSH1 0x3 NOT CALLDATASIZE ADD SLT PUSH2 0x66A JUMPI PUSH1 0x20 SWAP1 PUSH1 0xE SLOAD SWAP1 MLOAD SWAP1 DUP2 MSTORE RETURN JUMPDEST POP POP POP CALLVALUE PUSH2 0x66A JUMPI PUSH1 0x20 CALLDATASIZE PUSH1 0x3 NOT ADD SLT PUSH2 0x66A JUMPI PUSH1 0x20 SWAP2 PUSH1 0xFF SWAP1 DUP3 SWAP1 PUSH1 0x1 PUSH1 0x1 PUSH1 0xA0 SHL SUB PUSH2 0x2CA0 PUSH2 0x3EA2 JUMP JUMPDEST AND DUP2 MSTORE PUSH1 0x10 DUP6 MSTORE KECCAK256 SLOAD AND SWAP1 MLOAD SWAP1 ISZERO ISZERO DUP2 MSTORE RETURN JUMPDEST POP POP CALLVALUE PUSH2 0x46B JUMPI PUSH1 0x20 CALLDATASIZE PUSH1 0x3 NOT ADD SLT PUSH2 0x46B JUMPI DUP1 CALLDATALOAD SWAP1 PUSH2 0x2CFD CALLER PUSH32 0x0 PUSH1 0x1 PUSH1 0x1 PUSH1 0xA0 SHL SUB AND EQ PUSH2 0x4262 JUMP JUMPDEST PUSH1 0x14 DUP3 GT PUSH2 0x2D3F JUMPI POP SWAP1 PUSH32 0xD968A3CC702265C3AB67356DF15CA21D50167B011F198B963E2A868E04E3D5E0 SWAP2 PUSH1 0x22 SLOAD SWAP1 DUP1 PUSH1 0x22 SSTORE DUP3 MLOAD SWAP2 DUP3 MSTORE PUSH1 0x20 DUP3 ADD MSTORE LOG1 DUP1 RETURN JUMPDEST PUSH1 0x64 SWAP1 PUSH1 0x20 DUP5 MLOAD SWAP2 PUSH3 0x461BCD PUSH1 0xE5 SHL DUP4 MSTORE DUP3 ADD MSTORE PUSH1 0x13 PUSH1 0x24 DUP3 ADD MSTORE PUSH19 0xA0CAE4C6CADCE8C2CECA40E8DEDE40D0D2CED PUSH1 0x6B SHL PUSH1 0x44 DUP3 ADD MSTORE REVERT JUMPDEST POP POP POP CALLVALUE PUSH2 0x66A JUMPI PUSH1 0x20 CALLDATASIZE PUSH1 0x3 NOT ADD SLT PUSH2 0x66A JUMPI PUSH1 0x20 SWAP2 PUSH1 0x1 PUSH1 0x1 PUSH1 0xA0 SHL SUB SWAP1 DUP3 SWAP1 DUP3 PUSH2 0x2DA3 PUSH2 0x3EA2 JUMP JUMPDEST AND DUP2 MSTORE PUSH1 0x23 DUP6 MSTORE KECCAK256 SLOAD AND SWAP1 MLOAD SWAP1 DUP2 MSTORE RETURN JUMPDEST POP POP POP CALLVALUE PUSH2 0x66A JUMPI DUP2 PUSH1 0x3 NOT CALLDATASIZE ADD SLT PUSH2 0x66A JUMPI PUSH1 0x20 SWAP1 PUSH1 0x18 SLOAD SWAP1 MLOAD SWAP1 DUP2 MSTORE RETURN JUMPDEST POP POP POP CALLVALUE PUSH2 0x66A JUMPI DUP2 PUSH1 0x3 NOT CALLDATASIZE ADD SLT PUSH2 0x66A JUMPI PUSH1 0x20 SWAP1 PUSH1 0xF SLOAD SWAP1 MLOAD SWAP1 DUP2 MSTORE RETURN JUMPDEST POP POP POP CALLVALUE PUSH2 0x66A JUMPI PUSH2 0x2B1B SWAP1 PUSH2 0x2E09 CALLDATASIZE PUSH2 0x3F29 JUMP JUMPDEST SWAP2 SWAP1 PUSH1 0x1 PUSH1 0x1 PUSH1 0xA0 SHL SUB SWAP1 PUSH2 0x2E41 CALLER PUSH32 0x0 DUP5 AND EQ PUSH2 0x4262 JUMP JUMPDEST AND DUP5 MSTORE PUSH1 0x15 PUSH1 0x20 MSTORE DUP4 KECCAK256 SWAP1 PUSH1 0xFF DUP1 NOT DUP4 SLOAD AND SWAP2 ISZERO ISZERO AND OR SWAP1 SSTORE JUMP JUMPDEST POP POP POP CALLVALUE PUSH2 0x66A JUMPI DUP2 PUSH1 0x3 NOT CALLDATASIZE ADD SLT PUSH2 0x66A JUMPI PUSH1 0x3 SLOAD SWAP1 MLOAD PUSH1 0x1 PUSH1 0x1 PUSH1 0xA0 SHL SUB SWAP1 SWAP2 AND DUP2 MSTORE PUSH1 0x20 SWAP1 RETURN JUMPDEST POP POP POP CALLVALUE PUSH2 0x66A JUMPI PUSH1 0x20 CALLDATASIZE PUSH1 0x3 NOT ADD SLT PUSH2 0x66A JUMPI PUSH1 0x20 SWAP2 DUP2 SWAP1 PUSH1 0x1 PUSH1 0x1 PUSH1 0xA0 SHL SUB PUSH2 0x2EAF PUSH2 0x3EA2 JUMP JUMPDEST AND DUP2 MSTORE PUSH1 0x28 DUP5 MSTORE KECCAK256 SLOAD SWAP1 MLOAD SWAP1 DUP2 MSTORE RETURN JUMPDEST POP POP POP CALLVALUE PUSH2 0x66A JUMPI CALLDATASIZE PUSH1 0x3 NOT ADD SLT PUSH2 0x749 JUMPI PUSH2 0x2ED9 PUSH2 0x3EA2 JUMP JUMPDEST PUSH1 0x24 CALLDATALOAD SWAP1 PUSH1 0x1 PUSH1 0x1 PUSH1 0xA0 SHL SUB SWAP1 PUSH2 0x2F13 CALLER PUSH32 0x0 DUP5 AND EQ PUSH2 0x4262 JUMP JUMPDEST AND PUSH2 0x2F1F DUP2 ISZERO ISZERO PUSH2 0x42D7 JUMP JUMPDEST PUSH2 0x2F2A DUP3 ISZERO ISZERO PUSH2 0x4315 JUMP JUMPDEST PUSH1 0x1 PUSH1 0x1 PUSH1 0x60 SHL SUB PUSH1 0xA0 SHL PUSH1 0x3 SLOAD AND OR PUSH1 0x3 SSTORE PUSH1 0xB SSTORE DUP1 RETURN JUMPDEST DUP3 DUP6 DUP6 CALLVALUE PUSH2 0x66A JUMPI DUP1 PUSH1 0x3 NOT CALLDATASIZE ADD SLT PUSH2 0x66A JUMPI DUP3 CALLDATALOAD PUSH1 0x24 CALLDATALOAD SWAP2 CALLER DUP5 MSTORE PUSH1 0x20 SWAP3 PUSH1 0x10 DUP5 MSTORE PUSH2 0x2F76 PUSH1 0xFF DUP4 DUP8 KECCAK256 SLOAD AND ISZERO PUSH2 0x4440 JUMP JUMPDEST PUSH1 0x1A SLOAD DUP4 LT PUSH2 0x31EA JUMPI DUP5 SLOAD PUSH1 0x1 PUSH1 0x1 PUSH1 0xA0 SHL SUB AND PUSH2 0x2F95 DUP2 ISZERO ISZERO PUSH2 0x44F8 JUMP JUMPDEST PUSH1 0x1E DUP3 EQ DUP1 ISZERO PUSH2 0x31E0 JUMPI JUMPDEST DUP1 ISZERO PUSH2 0x31D6 JUMPI JUMPDEST DUP1 ISZERO PUSH2 0x31CB JUMPI JUMPDEST ISZERO PUSH2 0x3192 JUMPI DUP3 MLOAD PUSH4 0x23B872DD PUSH1 0xE0 SHL DUP2 MSTORE CALLER DUP2 DUP10 ADD SWAP1 DUP2 MSTORE ADDRESS PUSH1 0x20 DUP3 ADD MSTORE PUSH1 0x40 DUP2 ADD DUP7 SWAP1 MSTORE SWAP1 SWAP2 DUP7 SWAP2 DUP4 SWAP2 SWAP1 DUP3 SWAP1 DUP11 SWAP1 DUP3 SWAP1 PUSH1 0x60 ADD SUB SWAP3 GAS CALL SWAP1 DUP2 ISZERO PUSH2 0x2074 JUMPI SWAP1 PUSH2 0x2FFF SWAP2 DUP8 SWAP2 PUSH2 0x3175 JUMPI POP PUSH2 0x4E5B JUMP JUMPDEST DUP4 SLOAD SWAP4 PUSH2 0x300B DUP6 PUSH2 0x4E9F JUMP JUMPDEST DUP2 SSTORE DUP3 MLOAD PUSH2 0x3018 DUP2 PUSH2 0x40B7 JUMP JUMPDEST DUP6 DUP2 MSTORE DUP2 DUP2 ADD DUP6 DUP2 MSTORE DUP5 DUP3 ADD TIMESTAMP DUP2 MSTORE PUSH1 0x60 DUP4 ADD DUP6 DUP2 MSTORE PUSH1 0x80 DUP5 ADD SWAP1 TIMESTAMP DUP3 MSTORE PUSH1 0xA0 DUP6 ADD SWAP3 DUP12 DUP5 MSTORE PUSH1 0xC0 DUP7 ADD SWAP5 PUSH1 0x1 DUP7 MSTORE CALLER DUP14 MSTORE PUSH1 0x1B DUP9 MSTORE DUP10 DUP14 KECCAK256 DUP1 SLOAD SWAP1 PUSH1 0x1 PUSH1 0x40 SHL DUP3 LT ISZERO PUSH2 0x3161 JUMPI SWAP1 PUSH2 0x3070 SWAP2 PUSH1 0x1 DUP3 ADD DUP2 SSTORE PUSH2 0x404B JUMP JUMPDEST SWAP8 SWAP1 SWAP8 PUSH2 0x314F JUMPI SWAP3 PUSH32 0xB4CAAF29ADDA3EEFEE3AD552A8E85058589BF834C7466CAE4EE58787F70589ED SWAP12 SWAP13 SWAP14 SWAP15 SWAP3 PUSH2 0x30DF SWAP9 SWAP8 SWAP6 SWAP3 PUSH1 0x6 SWAP8 SWAP6 MLOAD DUP10 SSTORE MLOAD PUSH1 0x1 DUP10 ADD SSTORE MLOAD PUSH1 0x2 DUP9 ADD SSTORE MLOAD PUSH1 0x3 DUP8 ADD SSTORE MLOAD SWAP1 DUP6 ADD SSTORE MLOAD PUSH1 0x5 DUP5 ADD SSTORE MLOAD ISZERO ISZERO SWAP2 ADD SWAP1 PUSH1 0xFF DUP1 NOT DUP4 SLOAD AND SWAP2 ISZERO ISZERO AND OR SWAP1 SSTORE JUMP JUMPDEST DUP6 DUP8 MSTORE PUSH1 0x1C DUP2 MSTORE DUP3 DUP8 KECCAK256 CALLER PUSH1 0x1 PUSH1 0x1 PUSH1 0x60 SHL SUB PUSH1 0xA0 SHL DUP3 SLOAD AND OR SWAP1 SSTORE PUSH2 0x3107 DUP6 PUSH1 0x1D SLOAD PUSH2 0x43A7 JUMP JUMPDEST PUSH1 0x1D SSTORE CALLER DUP8 MSTORE PUSH1 0x21 DUP2 MSTORE DUP3 DUP8 KECCAK256 DUP1 SLOAD PUSH1 0xFF DUP2 AND ISZERO PUSH2 0x3130 JUMPI JUMPDEST POP POP DUP3 MLOAD SWAP5 DUP6 MSTORE DUP5 ADD MSTORE CALLER SWAP3 LOG3 DUP1 RETURN JUMPDEST PUSH1 0xFF NOT AND PUSH1 0x1 OR SWAP1 SSTORE PUSH1 0x1F SLOAD PUSH2 0x3145 SWAP1 PUSH2 0x4E9F JUMP JUMPDEST PUSH1 0x1F SSTORE DUP8 DUP1 PUSH2 0x3120 JUMP JUMPDEST PUSH4 0x4E487B71 PUSH1 0xE0 SHL DUP15 MSTORE DUP14 DUP16 MSTORE PUSH1 0x24 DUP15 REVERT JUMPDEST DUP16 DUP16 PUSH1 0x41 PUSH1 0x24 SWAP3 PUSH4 0x4E487B71 PUSH1 0xE0 SHL DUP4 MSTORE MSTORE REVERT JUMPDEST PUSH2 0x318C SWAP2 POP DUP7 RETURNDATASIZE DUP9 GT PUSH2 0x627 JUMPI PUSH2 0x619 DUP2 DUP4 PUSH2 0x413D JUMP JUMPDEST DUP9 PUSH2 0x25D9 JUMP JUMPDEST DUP3 MLOAD PUSH3 0x461BCD PUSH1 0xE5 SHL DUP2 MSTORE DUP1 DUP9 ADD DUP7 SWAP1 MSTORE PUSH1 0x13 PUSH1 0x24 DUP3 ADD MSTORE PUSH19 0x125B9D985B1A59081B1BD8DAC81C195C9A5BD9 PUSH1 0x6A SHL PUSH1 0x44 DUP3 ADD MSTORE PUSH1 0x64 SWAP1 REVERT JUMPDEST POP PUSH2 0x16D DUP3 EQ PUSH2 0x2FAE JUMP JUMPDEST POP PUSH1 0xB4 DUP3 EQ PUSH2 0x2FA7 JUMP JUMPDEST POP PUSH1 0x5A DUP3 EQ PUSH2 0x2FA0 JUMP JUMPDEST DUP2 MLOAD PUSH3 0x461BCD PUSH1 0xE5 SHL DUP2 MSTORE DUP1 DUP8 ADD DUP6 SWAP1 MSTORE PUSH1 0x1A PUSH1 0x24 DUP3 ADD MSTORE PUSH32 0x416D6F756E742062656C6F77206D696E696D756D207374616B65000000000000 PUSH1 0x44 DUP3 ADD MSTORE PUSH1 0x64 SWAP1 REVERT JUMPDEST POP POP SWAP1 CALLVALUE PUSH2 0x46B JUMPI CALLDATASIZE PUSH1 0x3 NOT ADD SLT PUSH2 0x66A JUMPI PUSH2 0x3247 PUSH2 0x3EA2 JUMP JUMPDEST PUSH1 0x24 CALLDATALOAD SWAP2 SWAP1 PUSH1 0x1 PUSH1 0x1 PUSH1 0xA0 SHL SUB SWAP1 PUSH2 0x3282 CALLER PUSH32 0x0 DUP5 AND EQ PUSH2 0x4262 JUMP JUMPDEST AND PUSH2 0x328E DUP2 ISZERO ISZERO PUSH2 0x42D7 JUMP JUMPDEST PUSH2 0x3299 DUP4 ISZERO ISZERO PUSH2 0x4315 JUMP JUMPDEST DUP2 SLOAD PUSH1 0x1 PUSH1 0x1 PUSH1 0xA0 SHL SUB NOT AND OR SWAP1 SSTORE PUSH1 0xC SSTORE DUP1 RETURN JUMPDEST POP POP CALLVALUE PUSH2 0x46B JUMPI PUSH2 0x15AE SWAP1 PUSH2 0x1090 CALLDATASIZE PUSH2 0x3EEB JUMP JUMPDEST POP POP POP CALLVALUE PUSH2 0x66A JUMPI DUP2 PUSH1 0x3 NOT CALLDATASIZE ADD SLT PUSH2 0x66A JUMPI PUSH1 0x20 SWAP1 PUSH1 0x27 SLOAD SWAP1 MLOAD SWAP1 DUP2 MSTORE RETURN JUMPDEST POP POP SWAP2 CALLVALUE PUSH2 0x749 JUMPI PUSH1 0x20 SWAP3 DUP4 PUSH1 0x3 NOT CALLDATASIZE ADD SLT PUSH2 0x66A JUMPI DUP1 CALLDATALOAD SWAP1 CALLER DUP4 MSTORE PUSH1 0x10 DUP6 MSTORE PUSH1 0xFF SWAP2 PUSH2 0x3314 DUP4 DUP7 DUP7 KECCAK256 SLOAD AND ISZERO PUSH2 0x4440 JUMP JUMPDEST DUP1 DUP5 MSTORE PUSH1 0x1C DUP7 MSTORE DUP5 DUP5 KECCAK256 SLOAD PUSH1 0x1 PUSH1 0x1 PUSH1 0xA0 SHL SUB SWAP7 SWAP1 PUSH2 0x3336 SWAP1 DUP9 AND CALLER EQ PUSH2 0x517C JUMP JUMPDEST DUP5 SWAP6 DUP6 JUMPDEST CALLER DUP8 MSTORE PUSH1 0x1B DUP1 DUP5 MSTORE DUP3 DUP9 KECCAK256 DUP1 SLOAD DUP4 LT ISZERO PUSH2 0x35FE JUMPI PUSH2 0x3359 DUP4 DUP8 SWAP3 PUSH2 0x404B JUMP JUMPDEST POP SLOAD EQ PUSH2 0x336F JUMPI POP PUSH2 0x336A SWAP1 PUSH2 0x4E9F JUMP JUMPDEST PUSH2 0x333A JUMP JUMPDEST SWAP2 SWAP3 SWAP4 SWAP5 SWAP6 SWAP7 SWAP8 POP CALLER DUP9 MSTORE DUP2 DUP5 MSTORE PUSH2 0x339A PUSH2 0x338C DUP3 DUP6 DUP12 KECCAK256 PUSH2 0x404B JUMP JUMPDEST POP SWAP8 PUSH1 0x6 DUP1 SWAP10 ADD SLOAD AND PUSH2 0x4F2F JUMP JUMPDEST CALLER DUP9 MSTORE DUP2 DUP5 MSTORE PUSH1 0x2 PUSH2 0x33AE DUP3 DUP6 DUP12 KECCAK256 PUSH2 0x404B JUMP JUMPDEST POP ADD SLOAD CALLER DUP10 MSTORE DUP3 DUP6 MSTORE PUSH1 0x3 PUSH2 0x33C5 DUP4 DUP7 DUP13 KECCAK256 PUSH2 0x404B JUMP JUMPDEST POP ADD SLOAD SWAP1 PUSH3 0x15180 SWAP2 DUP3 DUP2 MUL SWAP3 DUP2 DUP5 DIV EQ SWAP1 ISZERO OR ISZERO PUSH2 0x35EB JUMPI SWAP10 PUSH2 0x33F0 DUP7 SWAP3 DUP12 SWAP13 SWAP12 SWAP9 SWAP10 SWAP11 SWAP12 PUSH2 0x43A7 JUMP JUMPDEST SWAP3 PUSH2 0x33FA DUP10 PUSH2 0x4F6E JUMP JUMPDEST SWAP11 CALLER DUP10 MSTORE DUP6 DUP5 MSTORE PUSH2 0x340D DUP3 DUP9 DUP12 KECCAK256 PUSH2 0x404B JUMP JUMPDEST POP SWAP2 DUP8 PUSH1 0x1 DUP1 SWAP5 ADD SLOAD SWAP11 DUP1 SWAP8 TIMESTAMP LT PUSH2 0x3591 JUMPI JUMPDEST SWAP1 PUSH2 0x3436 SWAP3 SWAP2 PUSH2 0x3496 SWAP9 SWAP10 CALLER DUP3 MSTORE DUP9 MSTORE KECCAK256 PUSH2 0x404B JUMP JUMPDEST POP ADD PUSH1 0xFF NOT DUP2 SLOAD AND SWAP1 SSTORE PUSH1 0x1D PUSH2 0x344D DUP10 DUP3 SLOAD PUSH2 0x4351 JUMP JUMPDEST SWAP1 SSTORE SWAP9 PUSH2 0x3463 DUP12 PUSH2 0x345E DUP8 DUP12 PUSH2 0x4351 JUMP JUMPDEST PUSH2 0x43A7 JUMP JUMPDEST DUP13 SLOAD DUP8 MLOAD PUSH4 0xA9059CBB PUSH1 0xE0 SHL DUP2 MSTORE CALLER SWAP4 DUP2 ADD SWAP4 DUP5 MSTORE PUSH1 0x20 DUP5 ADD SWAP3 SWAP1 SWAP3 MSTORE SWAP1 SWAP5 DUP6 SWAP4 SWAP1 SWAP2 AND SWAP2 DUP4 SWAP2 DUP15 SWAP2 DUP4 SWAP2 PUSH1 0x40 SWAP1 SWAP2 ADD SWAP1 JUMP JUMPDEST SUB SWAP3 GAS CALL SWAP1 DUP2 ISZERO PUSH2 0x3587 JUMPI SWAP8 PUSH2 0x34B7 DUP8 SWAP3 PUSH2 0x34F7 SWAP11 DUP13 SWAP2 PUSH2 0x3570 JUMPI POP PUSH2 0x4E5B JUMP JUMPDEST DUP1 PUSH2 0x3530 JUMPI JUMPDEST POP POP DUP1 ISZERO PUSH2 0x3500 JUMPI PUSH32 0x9C9EC3CFA814B0112B71C20D0B0AB54DEAD00A99FD389C174DF717D2F1D36403 SWAP3 DUP3 MLOAD SWAP5 DUP6 MSTORE DUP5 ADD MSTORE CALLER SWAP3 LOG3 PUSH2 0x4EF1 JUMP JUMPDEST PUSH2 0x2B1B CALLER PUSH2 0x533B JUMP JUMPDEST POP SWAP1 PUSH32 0x7FC4727E062E336010F2C282598EF5F14FACB3DE68CF8195C2F23E1454B2B74E SWAP2 MLOAD SWAP3 DUP4 MSTORE CALLER SWAP3 LOG3 PUSH2 0x4EF1 JUMP JUMPDEST PUSH1 0x1E PUSH2 0x353D DUP3 DUP3 SLOAD PUSH2 0x43A7 JUMP JUMPDEST SWAP1 SSTORE DUP4 MLOAD SWAP1 DUP2 MSTORE PUSH32 0xF87CFA2D5FEAEA949AD65BB76A26D8553381BCB6382ADBC83DEDD48961BF32D9 DUP6 CALLER SWAP3 LOG3 DUP5 CODESIZE PUSH2 0x34BD JUMP JUMPDEST PUSH2 0x2678 SWAP2 POP DUP8 RETURNDATASIZE DUP10 GT PUSH2 0x627 JUMPI PUSH2 0x619 DUP2 DUP4 PUSH2 0x413D JUMP JUMPDEST DUP4 MLOAD RETURNDATASIZE DUP12 DUP3 RETURNDATACOPY RETURNDATASIZE SWAP1 REVERT JUMPDEST POP POP SWAP2 SWAP4 POP SWAP2 SWAP4 POP PUSH1 0x5 DUP1 DUP10 MUL SWAP1 DUP10 DUP3 DIV EQ DUP10 ISZERO OR ISZERO PUSH2 0x35D8 JUMPI SWAP2 PUSH2 0x3436 DUP9 SWAP5 SWAP3 DUP9 DUP16 PUSH1 0x64 PUSH2 0x3496 SWAP10 SWAP8 DIV SWAP10 PUSH1 0x18 PUSH2 0x35CA DUP13 DUP3 SLOAD PUSH2 0x43A7 JUMP JUMPDEST SWAP1 SSTORE SWAP10 SWAP9 POP SWAP1 SWAP2 SWAP3 POP PUSH2 0x3420 JUMP JUMPDEST PUSH4 0x4E487B71 PUSH1 0xE0 SHL DUP14 MSTORE PUSH1 0x11 DUP12 MSTORE PUSH1 0x24 DUP14 REVERT JUMPDEST PUSH4 0x4E487B71 PUSH1 0xE0 SHL DUP11 MSTORE PUSH1 0x11 DUP9 MSTORE PUSH1 0x24 DUP11 REVERT JUMPDEST POP POP POP POP POP POP POP POP SWAP2 POP PUSH2 0x34F7 SWAP1 PUSH2 0x4EF1 JUMP JUMPDEST POP POP CALLVALUE PUSH2 0x46B JUMPI PUSH2 0xF5E SWAP1 PUSH2 0x1090 CALLDATASIZE PUSH2 0x3EEB JUMP JUMPDEST POP POP DUP3 CALLVALUE PUSH2 0x749 JUMPI DUP1 PUSH1 0x3 NOT CALLDATASIZE ADD SLT PUSH2 0x749 JUMPI SWAP1 PUSH1 0x17 SLOAD SWAP1 PUSH2 0x3646 DUP3 PUSH2 0x5B6D JUMP JUMPDEST SWAP3 PUSH2 0x3653 DUP6 MLOAD SWAP5 DUP6 PUSH2 0x413D JUMP JUMPDEST DUP3 DUP5 MSTORE PUSH1 0x17 DUP2 MSTORE SWAP1 PUSH1 0x20 SWAP1 PUSH32 0xC624B66CC0138B8FABC209247F72D758E1CF3343756D543BADBF24212BED8C15 SWAP1 DUP3 DUP7 ADD JUMPDEST DUP6 DUP6 LT PUSH2 0x3698 JUMPI DUP8 MLOAD DUP1 PUSH2 0x6DD DUP10 DUP3 PUSH2 0x3F98 JUMP JUMPDEST PUSH1 0x7 DUP5 PUSH1 0x1 SWAP3 DUP11 MLOAD PUSH2 0x36A9 DUP2 PUSH2 0x40B7 JUMP JUMPDEST DUP7 SLOAD DUP2 MSTORE DUP5 DUP1 PUSH1 0xA0 SHL SUB DUP1 DUP7 DUP10 ADD SLOAD AND DUP5 DUP4 ADD MSTORE DUP1 PUSH1 0x2 DUP10 ADD SLOAD AND DUP14 DUP4 ADD MSTORE PUSH1 0x3 DUP9 ADD SLOAD AND PUSH1 0x60 DUP3 ADD MSTORE DUP6 DUP8 ADD SLOAD PUSH1 0x80 DUP3 ADD MSTORE PUSH1 0x5 DUP8 ADD SLOAD PUSH1 0xA0 DUP3 ADD MSTORE PUSH2 0x36F2 PUSH1 0x6 DUP9 ADD PUSH2 0x415F JUMP JUMPDEST PUSH1 0xC0 DUP3 ADD MSTORE DUP2 MSTORE ADD SWAP4 ADD SWAP5 ADD SWAP4 SWAP2 PUSH2 0x3684 JUMP JUMPDEST POP POP DUP3 PUSH1 0x3 NOT CALLDATASIZE ADD SLT PUSH2 0x46B JUMPI CALLER DUP4 MSTORE PUSH1 0x20 PUSH1 0x10 DUP2 MSTORE PUSH2 0x372B PUSH1 0xFF DUP5 DUP7 KECCAK256 SLOAD AND ISZERO PUSH2 0x4440 JUMP JUMPDEST CALLVALUE ISZERO SWAP1 PUSH2 0x3738 DUP3 ISZERO PUSH2 0x44BC JUMP JUMPDEST PUSH1 0x2 SLOAD PUSH1 0x1 PUSH1 0x1 PUSH1 0xA0 SHL SUB SWAP3 SWAP1 DUP4 AND SWAP1 PUSH2 0x3753 DUP3 ISZERO ISZERO PUSH2 0x46CF JUMP JUMPDEST PUSH3 0xF4240 SWAP1 DUP2 CALLVALUE MUL SWAP2 CALLVALUE DUP4 DIV EQ OR ISZERO PUSH2 0x1B24 JUMPI PUSH1 0x7 SLOAD PUSH2 0x3772 SWAP2 PUSH2 0x4374 JUMP JUMPDEST SWAP4 DUP6 MLOAD PUSH4 0x70A08231 PUSH1 0xE0 SHL DUP2 MSTORE ADDRESS DUP3 DUP3 ADD MSTORE DUP4 DUP2 PUSH1 0x24 DUP2 DUP7 GAS STATICCALL DUP1 ISZERO PUSH2 0x28E9 JUMPI DUP7 SWAP2 DUP10 SWAP2 PUSH2 0x38D4 JUMPI JUMPDEST POP LT PUSH2 0x3891 JUMPI DUP6 MLOAD PUSH4 0xA9059CBB PUSH1 0xE0 SHL DUP2 MSTORE CALLER SWAP2 DUP2 ADD SWAP2 DUP3 MSTORE PUSH1 0x20 DUP3 ADD DUP7 SWAP1 MSTORE SWAP4 SWAP3 SWAP2 DUP3 SWAP2 DUP6 SWAP2 SWAP1 DUP3 SWAP1 DUP11 SWAP1 DUP3 SWAP1 PUSH1 0x40 ADD SUB SWAP3 GAS CALL DUP1 ISZERO PUSH2 0x62E JUMPI PUSH32 0x48A1F8A6C840B32621CEAB4439A2CCD00B337E705DFDCDEC0B40C49ABF3E6BE3 SWAP4 PUSH2 0x380A SWAP3 DUP9 SWAP3 PUSH2 0x3874 JUMPI JUMPDEST POP POP PUSH2 0x4711 JUMP JUMPDEST PUSH2 0x383F DUP6 DUP1 DUP1 DUP1 CALLVALUE DUP7 PUSH32 0x0 AND GAS CALL PUSH2 0x1DBB PUSH2 0x4555 JUMP JUMPDEST PUSH2 0x3850 DUP2 PUSH1 0x2 SLOAD AND DUP5 PUSH2 0x1DCD PUSH2 0x4E3B JUMP JUMPDEST PUSH1 0x2 SLOAD SWAP4 MLOAD SWAP3 DUP4 MSTORE CALLVALUE PUSH1 0x20 DUP5 ADD MSTORE TIMESTAMP PUSH1 0x40 DUP5 ADD MSTORE SWAP1 SWAP3 AND SWAP2 CALLER SWAP2 DUP1 PUSH1 0x60 DUP2 ADD PUSH2 0x5FA JUMP JUMPDEST PUSH2 0x388A SWAP3 POP DUP1 RETURNDATASIZE LT PUSH2 0x627 JUMPI PUSH2 0x619 DUP2 DUP4 PUSH2 0x413D JUMP JUMPDEST CODESIZE DUP1 PUSH2 0x3803 JUMP JUMPDEST DUP6 MLOAD PUSH3 0x461BCD PUSH1 0xE5 SHL DUP2 MSTORE SWAP1 DUP2 ADD DUP4 SWAP1 MSTORE PUSH1 0x1B PUSH1 0x24 DUP3 ADD MSTORE PUSH32 0x496E73756666696369656E742055534443206C69717569646974790000000000 PUSH1 0x44 DUP3 ADD MSTORE PUSH1 0x64 SWAP1 REVERT JUMPDEST DUP1 SWAP3 POP DUP6 DUP1 SWAP3 POP RETURNDATASIZE DUP4 GT PUSH2 0x38FE JUMPI JUMPDEST PUSH2 0x38ED DUP2 DUP4 PUSH2 0x413D JUMP JUMPDEST DUP2 ADD SUB SLT PUSH2 0x1F66 JUMPI DUP6 SWAP1 MLOAD CODESIZE PUSH2 0x379B JUMP JUMPDEST POP RETURNDATASIZE PUSH2 0x38E3 JUMP JUMPDEST POP POP POP CALLVALUE PUSH2 0x66A JUMPI DUP2 PUSH1 0x3 NOT CALLDATASIZE ADD SLT PUSH2 0x66A JUMPI PUSH1 0x26 SLOAD SWAP1 MLOAD PUSH1 0x1 PUSH1 0x1 PUSH1 0xA0 SHL SUB SWAP1 SWAP2 AND DUP2 MSTORE PUSH1 0x20 SWAP1 RETURN JUMPDEST POP POP POP CALLVALUE PUSH2 0x66A JUMPI PUSH1 0x20 CALLDATASIZE PUSH1 0x3 NOT ADD SLT PUSH2 0x66A JUMPI PUSH1 0x80 SWAP2 PUSH1 0x1 PUSH1 0x1 PUSH1 0xA0 SHL SUB DUP1 PUSH2 0x3957 PUSH2 0x3EA2 JUMP JUMPDEST AND DUP3 MSTORE PUSH1 0x23 PUSH1 0x20 MSTORE DUP3 DUP3 KECCAK256 SLOAD AND SWAP2 PUSH1 0x24 PUSH1 0x20 MSTORE DUP1 DUP1 DUP4 KECCAK256 SLOAD SWAP3 PUSH1 0x25 PUSH1 0x20 MSTORE KECCAK256 SLOAD SWAP1 PUSH1 0x22 SLOAD SWAP3 DUP2 MLOAD SWAP5 DUP6 MSTORE PUSH1 0x20 DUP6 ADD MSTORE DUP4 ADD MSTORE PUSH1 0x60 DUP3 ADD MSTORE RETURN JUMPDEST POP POP POP CALLVALUE PUSH2 0x66A JUMPI DUP2 PUSH1 0x3 NOT CALLDATASIZE ADD SLT PUSH2 0x66A JUMPI PUSH1 0x20 SWAP1 PUSH1 0x19 SLOAD SWAP1 MLOAD SWAP1 DUP2 MSTORE RETURN JUMPDEST DUP3 DUP6 DUP6 DUP2 PUSH1 0x3 NOT CALLDATASIZE ADD SLT PUSH2 0x66A JUMPI CALLER DUP3 MSTORE PUSH1 0x10 PUSH1 0x20 MSTORE PUSH2 0x39D6 PUSH1 0xFF DUP3 DUP5 KECCAK256 SLOAD AND ISZERO PUSH2 0x4440 JUMP JUMPDEST CALLVALUE ISZERO SWAP1 PUSH2 0x39E3 DUP3 ISZERO PUSH2 0x44BC JUMP JUMPDEST DUP3 SLOAD PUSH1 0x1 PUSH1 0x1 PUSH1 0xA0 SHL SUB SWAP3 SWAP1 PUSH2 0x1D38 SWAP1 DUP5 AND ISZERO ISZERO PUSH2 0x44F8 JUMP JUMPDEST POP POP POP CALLVALUE PUSH2 0x66A JUMPI CALLDATASIZE PUSH1 0x3 NOT ADD SLT PUSH2 0x749 JUMPI PUSH2 0x3A16 PUSH2 0x3EA2 JUMP JUMPDEST PUSH1 0x24 CALLDATALOAD SWAP1 PUSH1 0x1 PUSH1 0x1 PUSH1 0xA0 SHL SUB SWAP1 PUSH2 0x3A50 CALLER PUSH32 0x0 DUP5 AND EQ PUSH2 0x4262 JUMP JUMPDEST AND PUSH2 0x3A5C DUP2 ISZERO ISZERO PUSH2 0x42D7 JUMP JUMPDEST PUSH2 0x3A67 DUP3 ISZERO ISZERO PUSH2 0x4315 JUMP JUMPDEST PUSH1 0x1 PUSH1 0x1 PUSH1 0x60 SHL SUB PUSH1 0xA0 SHL PUSH1 0x2 SLOAD AND OR PUSH1 0x2 SSTORE PUSH1 0x9 SSTORE DUP1 RETURN JUMPDEST POP POP POP CALLVALUE PUSH2 0x66A JUMPI DUP2 PUSH1 0x3 NOT CALLDATASIZE ADD SLT PUSH2 0x66A JUMPI PUSH1 0x5 SLOAD SWAP1 MLOAD PUSH1 0x1 PUSH1 0x1 PUSH1 0xA0 SHL SUB SWAP1 SWAP2 AND DUP2 MSTORE PUSH1 0x20 SWAP1 RETURN JUMPDEST POP POP POP CALLVALUE PUSH2 0x66A JUMPI DUP2 PUSH1 0x3 NOT CALLDATASIZE ADD SLT PUSH2 0x66A JUMPI PUSH1 0x20 SWAP1 PUSH1 0x11 SLOAD SWAP1 MLOAD SWAP1 DUP2 MSTORE RETURN JUMPDEST POP POP POP CALLVALUE PUSH2 0x66A JUMPI DUP2 PUSH1 0x3 NOT CALLDATASIZE ADD SLT PUSH2 0x66A JUMPI PUSH1 0x20 SWAP1 PUSH1 0xC SLOAD SWAP1 MLOAD SWAP1 DUP2 MSTORE RETURN JUMPDEST POP POP POP CALLVALUE PUSH2 0x66A JUMPI PUSH32 0xDDA6207409A585801122FB885DCAA8074F9A21F25FF2DEF680C67F01A86C2C9B PUSH1 0x20 PUSH2 0x3B1E CALLDATASIZE PUSH2 0x3F29 JUMP JUMPDEST SWAP1 PUSH1 0x1 PUSH1 0x1 PUSH1 0xA0 SHL SUB SWAP1 PUSH2 0x3B55 CALLER PUSH32 0x0 DUP5 AND EQ PUSH2 0x4262 JUMP JUMPDEST AND SWAP4 DUP5 DUP7 MSTORE PUSH1 0x10 DUP4 MSTORE PUSH2 0x3B76 DUP3 DUP3 DUP9 KECCAK256 SWAP1 PUSH1 0xFF DUP1 NOT DUP4 SLOAD AND SWAP2 ISZERO ISZERO AND OR SWAP1 SSTORE JUMP JUMPDEST MLOAD SWAP1 ISZERO ISZERO DUP2 MSTORE LOG2 DUP1 RETURN JUMPDEST POP POP CALLVALUE PUSH2 0x46B JUMPI PUSH2 0x4C3 SWAP1 PUSH2 0x1090 CALLDATASIZE PUSH2 0x3EEB JUMP JUMPDEST DUP4 DUP6 DUP5 CALLVALUE PUSH2 0x66A JUMPI PUSH1 0x20 SWAP1 DUP2 PUSH1 0x3 NOT CALLDATASIZE ADD SLT PUSH2 0x46B JUMPI CALLDATALOAD SWAP3 DUP4 DUP4 MSTORE PUSH1 0x1C DUP3 MSTORE PUSH1 0x1 DUP1 PUSH1 0xA0 SHL SUB DUP2 DUP5 KECCAK256 SLOAD AND SWAP3 PUSH2 0x3BCB DUP5 ISZERO ISZERO PUSH2 0x4EAE JUMP JUMPDEST PUSH2 0x3BD3 PUSH2 0x5BDA JUMP JUMPDEST DUP2 SWAP6 DUP3 JUMPDEST DUP7 DUP5 MSTORE PUSH1 0x1B DUP1 DUP8 MSTORE DUP6 DUP6 KECCAK256 DUP1 SLOAD DUP4 LT ISZERO PUSH2 0x3C52 JUMPI PUSH2 0x3BF6 DUP4 DUP6 SWAP3 PUSH2 0x404B JUMP JUMPDEST POP SLOAD EQ PUSH2 0x3C0C JUMPI POP PUSH2 0x3C07 SWAP1 PUSH2 0x4E9F JUMP JUMPDEST PUSH2 0x3BD7 JUMP JUMPDEST PUSH1 0x80 SWAP9 POP PUSH2 0x153C SWAP4 POP DUP6 SWAP2 SWAP3 POP SWAP4 PUSH2 0x3C29 SWAP5 DUP9 DUP3 MSTORE DUP8 MSTORE KECCAK256 PUSH2 0x404B JUMP JUMPDEST SWAP1 PUSH2 0x3C34 PUSH1 0x1 PUSH2 0x4EF1 JUMP JUMPDEST DUP2 MLOAD SWAP4 DUP2 DUP5 DUP5 ADD MLOAD SWAP4 ADD MLOAD SWAP4 DUP3 MLOAD SWAP6 DUP7 MSTORE DUP6 ADD MSTORE DUP4 ADD MSTORE PUSH1 0x60 DUP3 ADD MSTORE RETURN JUMPDEST POP POP POP POP SWAP2 SWAP1 POP PUSH2 0x3C34 PUSH1 0x80 SWAP6 PUSH2 0x4EF1 JUMP JUMPDEST POP POP SWAP1 CALLVALUE PUSH2 0x46B JUMPI DUP1 PUSH1 0x3 NOT CALLDATASIZE ADD SLT PUSH2 0x46B JUMPI PUSH2 0x3C7F PUSH2 0x3EA2 JUMP JUMPDEST PUSH1 0x24 CALLDATALOAD SWAP1 PUSH32 0x0 PUSH1 0x1 PUSH1 0x1 PUSH1 0xA0 SHL SUB PUSH2 0x3CB9 CALLER DUP3 DUP5 AND EQ PUSH2 0x4262 JUMP JUMPDEST DUP1 DUP8 SLOAD AND SWAP3 AND SWAP2 DUP3 EQ PUSH2 0x3D74 JUMPI JUMPDEST DUP4 MLOAD PUSH4 0xA9059CBB PUSH1 0xE0 SHL DUP2 MSTORE PUSH1 0x1 PUSH1 0x1 PUSH1 0xA0 SHL SUB SWAP1 SWAP2 AND DUP6 DUP3 ADD SWAP1 DUP2 MSTORE PUSH1 0x20 DUP2 DUP2 ADD SWAP5 SWAP1 SWAP5 MSTORE SWAP1 SWAP3 SWAP2 DUP4 SWAP2 DUP3 SWAP1 DUP9 SWAP1 DUP3 SWAP1 PUSH1 0x40 ADD SUB SWAP3 GAS CALL SWAP1 DUP2 ISZERO PUSH2 0x3D6A JUMPI DUP5 SWAP2 PUSH2 0x3D4C JUMPI JUMPDEST POP ISZERO PUSH2 0x3D17 JUMPI DUP3 DUP1 RETURN JUMPDEST SWAP1 PUSH1 0x20 PUSH1 0x64 SWAP3 MLOAD SWAP2 PUSH3 0x461BCD PUSH1 0xE5 SHL DUP4 MSTORE DUP3 ADD MSTORE PUSH1 0xF PUSH1 0x24 DUP3 ADD MSTORE PUSH15 0x151C985B9CD9995C8819985A5B1959 PUSH1 0x8A SHL PUSH1 0x44 DUP3 ADD MSTORE REVERT JUMPDEST PUSH2 0x3D64 SWAP2 POP PUSH1 0x20 RETURNDATASIZE DUP2 GT PUSH2 0x627 JUMPI PUSH2 0x619 DUP2 DUP4 PUSH2 0x413D JUMP JUMPDEST CODESIZE PUSH2 0x3D0D JUMP JUMPDEST DUP3 MLOAD RETURNDATASIZE DUP7 DUP3 RETURNDATACOPY RETURNDATASIZE SWAP1 REVERT JUMPDEST DUP4 MLOAD PUSH4 0x70A08231 PUSH1 0xE0 SHL DUP2 MSTORE ADDRESS DUP7 DUP3 ADD MSTORE PUSH1 0x20 DUP2 PUSH1 0x24 DUP2 DUP7 GAS STATICCALL DUP1 ISZERO PUSH2 0x3E26 JUMPI DUP8 SWAP1 PUSH2 0x3DF3 JUMPI JUMPDEST PUSH2 0x3DA9 SWAP2 POP PUSH1 0x1D SLOAD SWAP1 PUSH2 0x4351 JUMP JUMPDEST DUP4 GT ISZERO PUSH2 0x3CC7 JUMPI DUP4 MLOAD PUSH3 0x461BCD PUSH1 0xE5 SHL DUP2 MSTORE PUSH1 0x20 DUP2 DUP8 ADD MSTORE PUSH1 0x1D PUSH1 0x24 DUP3 ADD MSTORE PUSH32 0x43616E6E6F74207769746864726177207374616B656420746F6B656E73000000 PUSH1 0x44 DUP3 ADD MSTORE PUSH1 0x64 SWAP1 REVERT JUMPDEST POP PUSH1 0x20 DUP2 RETURNDATASIZE DUP3 GT PUSH2 0x3E1E JUMPI JUMPDEST DUP2 PUSH2 0x3E0C PUSH1 0x20 SWAP4 DUP4 PUSH2 0x413D JUMP JUMPDEST DUP2 ADD SUB SLT PUSH2 0x1EA0 JUMPI PUSH2 0x3DA9 SWAP1 MLOAD PUSH2 0x3D9B JUMP JUMPDEST RETURNDATASIZE SWAP2 POP PUSH2 0x3DFF JUMP JUMPDEST DUP6 MLOAD RETURNDATASIZE DUP10 DUP3 RETURNDATACOPY RETURNDATASIZE SWAP1 REVERT JUMPDEST POP POP CALLVALUE PUSH2 0x46B JUMPI PUSH1 0x20 CALLDATASIZE PUSH1 0x3 NOT ADD SLT PUSH2 0x46B JUMPI DUP1 CALLDATALOAD CALLER DUP5 MSTORE PUSH1 0x10 PUSH1 0x20 MSTORE PUSH2 0x19D7 PUSH1 0xFF DUP5 DUP7 KECCAK256 SLOAD AND ISZERO PUSH2 0x4440 JUMP JUMPDEST POP POP POP CALLVALUE PUSH2 0x66A JUMPI DUP2 PUSH1 0x3 NOT CALLDATASIZE ADD SLT PUSH2 0x66A JUMPI PUSH1 0x20 SWAP1 PUSH1 0xA SLOAD SWAP1 MLOAD SWAP1 DUP2 MSTORE RETURN JUMPDEST DUP6 SWAP1 CALLVALUE PUSH2 0x66A JUMPI DUP2 PUSH1 0x3 NOT CALLDATASIZE ADD SLT PUSH2 0x66A JUMPI PUSH1 0x2 SLOAD PUSH1 0x1 PUSH1 0x1 PUSH1 0xA0 SHL SUB AND DUP2 MSTORE PUSH1 0x20 SWAP1 RETURN JUMPDEST PUSH1 0x4 CALLDATALOAD SWAP1 PUSH1 0x1 PUSH1 0x1 PUSH1 0xA0 SHL SUB DUP3 AND DUP3 SUB PUSH2 0x3EB8 JUMPI JUMP JUMPDEST PUSH1 0x0 DUP1 REVERT JUMPDEST SWAP2 DUP2 PUSH1 0x1F DUP5 ADD SLT ISZERO PUSH2 0x3EB8 JUMPI DUP3 CALLDATALOAD SWAP2 PUSH8 0xFFFFFFFFFFFFFFFF DUP4 GT PUSH2 0x3EB8 JUMPI PUSH1 0x20 DUP4 DUP2 DUP7 ADD SWAP6 ADD ADD GT PUSH2 0x3EB8 JUMPI JUMP JUMPDEST SWAP1 PUSH1 0x3 NOT DUP3 ADD PUSH1 0xC0 DUP2 SLT PUSH2 0x3EB8 JUMPI PUSH1 0x80 SGT PUSH2 0x3EB8 JUMPI PUSH1 0x4 SWAP2 PUSH1 0x84 CALLDATALOAD SWAP1 PUSH8 0xFFFFFFFFFFFFFFFF DUP3 GT PUSH2 0x3EB8 JUMPI PUSH2 0x3F21 SWAP2 DUP5 ADD PUSH2 0x3EBD JUMP JUMPDEST SWAP1 SWAP2 PUSH1 0xA4 CALLDATALOAD SWAP1 JUMP JUMPDEST PUSH1 0x40 SWAP1 PUSH1 0x3 NOT ADD SLT PUSH2 0x3EB8 JUMPI PUSH1 0x4 CALLDATALOAD PUSH1 0x1 PUSH1 0x1 PUSH1 0xA0 SHL SUB DUP2 AND DUP2 SUB PUSH2 0x3EB8 JUMPI SWAP1 PUSH1 0x24 CALLDATALOAD DUP1 ISZERO ISZERO DUP2 SUB PUSH2 0x3EB8 JUMPI SWAP1 JUMP JUMPDEST SWAP2 SWAP1 DUP3 MLOAD SWAP3 DUP4 DUP3 MSTORE PUSH1 0x0 JUMPDEST DUP5 DUP2 LT PUSH2 0x3F84 JUMPI POP POP DUP3 PUSH1 0x0 PUSH1 0x20 DUP1 SWAP5 SWAP6 DUP5 ADD ADD MSTORE PUSH1 0x1F DUP1 NOT SWAP2 ADD AND ADD ADD SWAP1 JUMP JUMPDEST PUSH1 0x20 DUP2 DUP4 ADD DUP2 ADD MLOAD DUP5 DUP4 ADD DUP3 ADD MSTORE ADD PUSH2 0x3F63 JUMP JUMPDEST PUSH1 0x20 DUP1 DUP3 ADD SWAP1 DUP1 DUP4 MSTORE DUP4 MLOAD DUP1 SWAP3 MSTORE PUSH1 0x40 SWAP3 DUP4 DUP2 ADD DUP3 DUP6 DUP6 PUSH1 0x5 SHL DUP5 ADD ADD SWAP7 ADD SWAP5 PUSH1 0x0 SWAP3 JUMPDEST DUP6 DUP5 LT PUSH2 0x3FCD JUMPI POP POP POP POP POP POP POP SWAP1 JUMP JUMPDEST SWAP1 SWAP2 SWAP3 SWAP4 SWAP5 SWAP6 SWAP7 DUP6 DUP1 PUSH2 0x403A PUSH1 0x1 SWAP4 PUSH1 0x3F NOT DUP7 DUP3 SUB ADD DUP9 MSTORE DUP12 MLOAD DUP1 MLOAD DUP3 MSTORE DUP6 DUP1 PUSH1 0xA0 SHL SUB DUP1 DUP6 DUP4 ADD MLOAD AND DUP6 DUP5 ADD MSTORE DUP1 DUP10 DUP4 ADD MLOAD AND DUP10 DUP5 ADD MSTORE PUSH1 0x60 SWAP1 DUP2 DUP4 ADD MLOAD AND SWAP1 DUP4 ADD MSTORE PUSH1 0x80 DUP1 DUP3 ADD MLOAD SWAP1 DUP4 ADD MSTORE PUSH1 0xA0 DUP1 DUP3 ADD MLOAD SWAP1 DUP4 ADD MSTORE PUSH1 0xC0 DUP1 SWAP2 ADD MLOAD SWAP2 PUSH1 0xE0 DUP1 SWAP3 DUP3 ADD MSTORE ADD SWAP1 PUSH2 0x3F58 JUMP JUMPDEST SWAP10 ADD SWAP5 ADD SWAP5 ADD SWAP3 SWAP6 SWAP5 SWAP4 SWAP2 SWAP1 PUSH2 0x3FBC JUMP JUMPDEST DUP1 SLOAD DUP3 LT ISZERO PUSH2 0x4067 JUMPI PUSH1 0x0 MSTORE PUSH1 0x7 PUSH1 0x20 PUSH1 0x0 KECCAK256 SWAP2 MUL ADD SWAP1 PUSH1 0x0 SWAP1 JUMP JUMPDEST PUSH4 0x4E487B71 PUSH1 0xE0 SHL PUSH1 0x0 MSTORE PUSH1 0x32 PUSH1 0x4 MSTORE PUSH1 0x24 PUSH1 0x0 REVERT JUMPDEST SWAP1 PUSH1 0x1 DUP3 DUP2 SHR SWAP3 AND DUP1 ISZERO PUSH2 0x40AD JUMPI JUMPDEST PUSH1 0x20 DUP4 LT EQ PUSH2 0x4097 JUMPI JUMP JUMPDEST PUSH4 0x4E487B71 PUSH1 0xE0 SHL PUSH1 0x0 MSTORE PUSH1 0x22 PUSH1 0x4 MSTORE PUSH1 0x24 PUSH1 0x0 REVERT JUMPDEST SWAP2 PUSH1 0x7F AND SWAP2 PUSH2 0x408C JUMP JUMPDEST PUSH1 0xE0 DUP2 ADD SWAP1 DUP2 LT PUSH8 0xFFFFFFFFFFFFFFFF DUP3 GT OR PUSH2 0x40D3 JUMPI PUSH1 0x40 MSTORE JUMP JUMPDEST PUSH4 0x4E487B71 PUSH1 0xE0 SHL PUSH1 0x0 MSTORE PUSH1 0x41 PUSH1 0x4 MSTORE PUSH1 0x24 PUSH1 0x0 REVERT JUMPDEST PUSH1 0xC0 DUP2 ADD SWAP1 DUP2 LT PUSH8 0xFFFFFFFFFFFFFFFF DUP3 GT OR PUSH2 0x40D3 JUMPI PUSH1 0x40 MSTORE JUMP JUMPDEST PUSH1 0x80 DUP2 ADD SWAP1 DUP2 LT PUSH8 0xFFFFFFFFFFFFFFFF DUP3 GT OR PUSH2 0x40D3 JUMPI PUSH1 0x40 MSTORE JUMP JUMPDEST PUSH1 0x40 DUP2 ADD SWAP1 DUP2 LT PUSH8 0xFFFFFFFFFFFFFFFF DUP3 GT OR PUSH2 0x40D3 JUMPI PUSH1 0x40 MSTORE JUMP JUMPDEST SWAP1 PUSH1 0x1F DUP1 NOT SWAP2 ADD AND DUP2 ADD SWAP1 DUP2 LT PUSH8 0xFFFFFFFFFFFFFFFF DUP3 GT OR PUSH2 0x40D3 JUMPI PUSH1 0x40 MSTORE JUMP JUMPDEST SWAP1 PUSH1 0x40 MLOAD SWAP2 DUP3 PUSH1 0x0 DUP3 SLOAD SWAP3 PUSH2 0x4173 DUP5 PUSH2 0x407D JUMP JUMPDEST SWAP1 DUP2 DUP5 MSTORE PUSH1 0x1 SWAP5 DUP6 DUP2 AND SWAP1 DUP2 PUSH1 0x0 EQ PUSH2 0x41E2 JUMPI POP PUSH1 0x1 EQ PUSH2 0x419F JUMPI JUMPDEST POP POP PUSH2 0x419D SWAP3 POP SUB DUP4 PUSH2 0x413D JUMP JUMPDEST JUMP JUMPDEST SWAP1 SWAP4 SWAP2 POP PUSH1 0x0 MSTORE PUSH1 0x20 SWAP1 DUP2 PUSH1 0x0 KECCAK256 SWAP4 PUSH1 0x0 SWAP2 JUMPDEST DUP2 DUP4 LT PUSH2 0x41CA JUMPI POP POP PUSH2 0x419D SWAP4 POP DUP3 ADD ADD CODESIZE DUP1 PUSH2 0x418F JUMP JUMPDEST DUP6 SLOAD DUP9 DUP5 ADD DUP6 ADD MSTORE SWAP5 DUP6 ADD SWAP5 DUP8 SWAP5 POP SWAP2 DUP4 ADD SWAP2 PUSH2 0x41B2 JUMP JUMPDEST SWAP2 POP POP PUSH2 0x419D SWAP5 POP PUSH1 0x20 SWAP3 POP PUSH1 0xFF NOT AND DUP3 DUP5 ADD MSTORE ISZERO ISZERO PUSH1 0x5 SHL DUP3 ADD ADD CODESIZE DUP1 PUSH2 0x418F JUMP JUMPDEST SWAP4 PUSH1 0xE0 SWAP6 SWAP3 PUSH2 0x4247 SWAP9 SWAP8 SWAP5 SWAP3 DUP7 MSTORE PUSH1 0x1 DUP1 PUSH1 0xA0 SHL SUB SWAP3 DUP4 DUP1 SWAP3 AND PUSH1 0x20 DUP9 ADD MSTORE AND PUSH1 0x40 DUP7 ADD MSTORE AND PUSH1 0x60 DUP5 ADD MSTORE PUSH1 0x80 DUP4 ADD MSTORE PUSH1 0xA0 DUP3 ADD MSTORE DUP2 PUSH1 0xC0 DUP3 ADD MSTORE ADD SWAP1 PUSH2 0x3F58 JUMP JUMPDEST SWAP1 JUMP JUMPDEST DUP1 SLOAD DUP3 LT ISZERO PUSH2 0x4067 JUMPI PUSH1 0x0 MSTORE PUSH1 0x20 PUSH1 0x0 KECCAK256 ADD SWAP1 PUSH1 0x0 SWAP1 JUMP JUMPDEST ISZERO PUSH2 0x4269 JUMPI JUMP JUMPDEST PUSH1 0x40 MLOAD PUSH3 0x461BCD PUSH1 0xE5 SHL DUP2 MSTORE PUSH1 0x20 PUSH1 0x4 DUP3 ADD MSTORE PUSH1 0xA PUSH1 0x24 DUP3 ADD MSTORE PUSH10 0x27B7363C9037BBB732B9 PUSH1 0xB1 SHL PUSH1 0x44 DUP3 ADD MSTORE PUSH1 0x64 SWAP1 REVERT JUMPDEST ISZERO PUSH2 0x42A2 JUMPI JUMP JUMPDEST PUSH1 0x40 MLOAD PUSH3 0x461BCD PUSH1 0xE5 SHL DUP2 MSTORE PUSH1 0x20 PUSH1 0x4 DUP3 ADD MSTORE PUSH1 0xD PUSH1 0x24 DUP3 ADD MSTORE PUSH13 0x496E76616C6964207072696365 PUSH1 0x98 SHL PUSH1 0x44 DUP3 ADD MSTORE PUSH1 0x64 SWAP1 REVERT JUMPDEST ISZERO PUSH2 0x42DE JUMPI JUMP JUMPDEST PUSH1 0x40 MLOAD PUSH3 0x461BCD PUSH1 0xE5 SHL DUP2 MSTORE PUSH1 0x20 PUSH1 0x4 DUP3 ADD MSTORE PUSH1 0xF PUSH1 0x24 DUP3 ADD MSTORE PUSH15 0x496E76616C69642061646472657373 PUSH1 0x88 SHL PUSH1 0x44 DUP3 ADD MSTORE PUSH1 0x64 SWAP1 REVERT JUMPDEST ISZERO PUSH2 0x431C JUMPI JUMP JUMPDEST PUSH1 0x40 MLOAD PUSH3 0x461BCD PUSH1 0xE5 SHL DUP2 MSTORE PUSH1 0x20 PUSH1 0x4 DUP3 ADD MSTORE PUSH1 0xD PUSH1 0x24 DUP3 ADD MSTORE PUSH13 0x496E76616C696420726174696F PUSH1 0x98 SHL PUSH1 0x44 DUP3 ADD MSTORE PUSH1 0x64 SWAP1 REVERT JUMPDEST SWAP2 SWAP1 DUP3 SUB SWAP2 DUP3 GT PUSH2 0x435E JUMPI JUMP JUMPDEST PUSH4 0x4E487B71 PUSH1 0xE0 SHL PUSH1 0x0 MSTORE PUSH1 0x11 PUSH1 0x4 MSTORE PUSH1 0x24 PUSH1 0x0 REVERT JUMPDEST DUP2 ISZERO PUSH2 0x437E JUMPI DIV SWAP1 JUMP JUMPDEST PUSH4 0x4E487B71 PUSH1 0xE0 SHL PUSH1 0x0 MSTORE PUSH1 0x12 PUSH1 0x4 MSTORE PUSH1 0x24 PUSH1 0x0 REVERT JUMPDEST DUP2 DUP2 MUL SWAP3 SWAP2 DUP2 ISZERO SWAP2 DUP5 DIV EQ OR ISZERO PUSH2 0x435E JUMPI JUMP JUMPDEST SWAP2 SWAP1 DUP3 ADD DUP1 SWAP3 GT PUSH2 0x435E JUMPI JUMP JUMPDEST PUSH1 0x11 SLOAD SWAP1 DUP2 ISZERO DUP1 ISZERO PUSH2 0x4437 JUMPI JUMPDEST PUSH2 0x4426 JUMPI PUSH1 0x1 PUSH1 0x1 PUSH1 0xA0 SHL SUB AND PUSH1 0x0 SWAP1 DUP2 MSTORE PUSH1 0x15 PUSH1 0x20 MSTORE PUSH1 0x40 SWAP1 KECCAK256 SLOAD PUSH1 0xFF AND ISZERO PUSH2 0x442E JUMPI PUSH1 0x13 SLOAD SWAP1 JUMPDEST DUP2 ISZERO PUSH2 0x4426 JUMPI PUSH2 0x4247 SWAP2 PUSH2 0x4401 PUSH2 0x4406 SWAP3 TIMESTAMP PUSH2 0x4351 JUMP JUMPDEST PUSH2 0x4374 JUMP JUMPDEST PUSH2 0x197B PUSH3 0xF4240 PUSH2 0x441C PUSH1 0x12 SLOAD PUSH1 0x7 SLOAD SWAP1 PUSH2 0x4394 JUMP JUMPDEST DIV PUSH1 0x6 SLOAD SWAP3 PUSH2 0x4394 JUMP JUMPDEST POP POP PUSH1 0x6 SLOAD SWAP1 JUMP JUMPDEST PUSH1 0x14 SLOAD SWAP1 PUSH2 0x43EA JUMP JUMPDEST POP DUP2 TIMESTAMP LT PUSH2 0x43C1 JUMP JUMPDEST ISZERO PUSH2 0x4447 JUMPI JUMP JUMPDEST PUSH1 0x40 MLOAD PUSH3 0x461BCD PUSH1 0xE5 SHL DUP2 MSTORE PUSH1 0x20 PUSH1 0x4 DUP3 ADD MSTORE PUSH1 0x12 PUSH1 0x24 DUP3 ADD MSTORE PUSH18 0x1059191C995CDCC81A5CC8189B1BD8DAD959 PUSH1 0x72 SHL PUSH1 0x44 DUP3 ADD MSTORE PUSH1 0x64 SWAP1 REVERT JUMPDEST DUP1 SLOAD PUSH1 0x1 PUSH1 0x40 SHL DUP2 LT ISZERO PUSH2 0x40D3 JUMPI PUSH2 0x449E SWAP2 PUSH1 0x1 DUP3 ADD DUP2 SSTORE PUSH2 0x424A JUMP JUMPDEST DUP2 SWAP3 SWAP2 SLOAD SWAP1 PUSH1 0x3 SHL SWAP2 PUSH1 0x1 DUP1 PUSH1 0xA0 SHL SUB DUP1 SWAP2 AND DUP4 SHL SWAP3 SHL NOT AND OR SWAP1 SSTORE JUMP JUMPDEST ISZERO PUSH2 0x44C3 JUMPI JUMP JUMPDEST PUSH1 0x40 MLOAD PUSH3 0x461BCD PUSH1 0xE5 SHL DUP2 MSTORE PUSH1 0x20 PUSH1 0x4 DUP3 ADD MSTORE PUSH1 0xD PUSH1 0x24 DUP3 ADD MSTORE PUSH13 0x26BAB9BA1039B2B73210212721 PUSH1 0x99 SHL PUSH1 0x44 DUP3 ADD MSTORE PUSH1 0x64 SWAP1 REVERT JUMPDEST ISZERO PUSH2 0x44FF JUMPI JUMP JUMPDEST PUSH1 0x40 MLOAD PUSH3 0x461BCD PUSH1 0xE5 SHL DUP2 MSTORE PUSH1 0x20 PUSH1 0x4 DUP3 ADD MSTORE PUSH1 0x12 PUSH1 0x24 DUP3 ADD MSTORE PUSH18 0x14D85B19481D1BDAD95B881B9BDD081CD95D PUSH1 0x72 SHL PUSH1 0x44 DUP3 ADD MSTORE PUSH1 0x64 SWAP1 REVERT JUMPDEST PUSH8 0xFFFFFFFFFFFFFFFF DUP2 GT PUSH2 0x40D3 JUMPI PUSH1 0x1F ADD PUSH1 0x1F NOT AND PUSH1 0x20 ADD SWAP1 JUMP JUMPDEST RETURNDATASIZE ISZERO PUSH2 0x4580 JUMPI RETURNDATASIZE SWAP1 PUSH2 0x4566 DUP3 PUSH2 0x4539 JUMP JUMPDEST SWAP2 PUSH2 0x4574 PUSH1 0x40 MLOAD SWAP4 DUP5 PUSH2 0x413D JUMP JUMPDEST DUP3 MSTORE RETURNDATASIZE PUSH1 0x0 PUSH1 0x20 DUP5 ADD RETURNDATACOPY JUMP JUMPDEST PUSH1 0x60 SWAP1 JUMP JUMPDEST ISZERO PUSH2 0x458C JUMPI JUMP JUMPDEST PUSH1 0x40 MLOAD PUSH3 0x461BCD PUSH1 0xE5 SHL DUP2 MSTORE PUSH1 0x20 PUSH1 0x4 DUP3 ADD MSTORE PUSH1 0x13 PUSH1 0x24 DUP3 ADD MSTORE PUSH19 0x109390881D1C985B9CD9995C8819985A5B1959 PUSH1 0x6A SHL PUSH1 0x44 DUP3 ADD MSTORE PUSH1 0x64 SWAP1 REVERT JUMPDEST PUSH1 0x40 MLOAD SWAP1 PUSH2 0x45D4 DUP3 PUSH2 0x4121 JUMP JUMPDEST PUSH1 0x3 DUP3 MSTORE PUSH3 0x425559 PUSH1 0xE8 SHL PUSH1 0x20 DUP4 ADD MSTORE JUMP JUMPDEST ISZERO PUSH2 0x45ED JUMPI JUMP JUMPDEST PUSH1 0x40 MLOAD PUSH3 0x461BCD PUSH1 0xE5 SHL DUP2 MSTORE PUSH1 0x20 PUSH1 0x4 DUP3 ADD MSTORE PUSH1 0x1D PUSH1 0x24 DUP3 ADD MSTORE PUSH32 0x416D6F756E74206D7573742062652067726561746572207468616E2030000000 PUSH1 0x44 DUP3 ADD MSTORE PUSH1 0x64 SWAP1 REVERT JUMPDEST ISZERO PUSH2 0x4639 JUMPI JUMP JUMPDEST PUSH1 0x40 MLOAD PUSH3 0x461BCD PUSH1 0xE5 SHL DUP2 MSTORE PUSH1 0x20 PUSH1 0x4 DUP3 ADD MSTORE PUSH1 0x13 PUSH1 0x24 DUP3 ADD MSTORE PUSH19 0x1554D115081B9BDD0818DBDB999A59DD5C9959 PUSH1 0x6A SHL PUSH1 0x44 DUP3 ADD MSTORE PUSH1 0x64 SWAP1 REVERT JUMPDEST SWAP1 DUP2 PUSH1 0x20 SWAP2 SUB SLT PUSH2 0x3EB8 JUMPI MLOAD DUP1 ISZERO ISZERO DUP2 SUB PUSH2 0x3EB8 JUMPI SWAP1 JUMP JUMPDEST ISZERO PUSH2 0x4693 JUMPI JUMP JUMPDEST PUSH1 0x40 MLOAD PUSH3 0x461BCD PUSH1 0xE5 SHL DUP2 MSTORE PUSH1 0x20 PUSH1 0x4 DUP3 ADD MSTORE PUSH1 0x14 PUSH1 0x24 DUP3 ADD MSTORE PUSH20 0x1554D115081D1C985B9CD9995C8819985A5B1959 PUSH1 0x62 SHL PUSH1 0x44 DUP3 ADD MSTORE PUSH1 0x64 SWAP1 REVERT JUMPDEST ISZERO PUSH2 0x46D6 JUMPI JUMP JUMPDEST PUSH1 0x40 MLOAD PUSH3 0x461BCD PUSH1 0xE5 SHL DUP2 MSTORE PUSH1 0x20 PUSH1 0x4 DUP3 ADD MSTORE PUSH1 0x13 PUSH1 0x24 DUP3 ADD MSTORE PUSH19 0x1554D110C81B9BDD0818DBDB999A59DD5C9959 PUSH1 0x6A SHL PUSH1 0x44 DUP3 ADD MSTORE PUSH1 0x64 SWAP1 REVERT JUMPDEST ISZERO PUSH2 0x4718 JUMPI JUMP JUMPDEST PUSH1 0x40 MLOAD PUSH3 0x461BCD PUSH1 0xE5 SHL DUP2 MSTORE PUSH1 0x20 PUSH1 0x4 DUP3 ADD MSTORE PUSH1 0x14 PUSH1 0x24 DUP3 ADD MSTORE PUSH20 0x1554D110C81D1C985B9CD9995C8819985A5B1959 PUSH1 0x62 SHL PUSH1 0x44 DUP3 ADD MSTORE PUSH1 0x64 SWAP1 REVERT JUMPDEST ISZERO PUSH2 0x475B JUMPI JUMP JUMPDEST PUSH1 0x40 MLOAD PUSH3 0x461BCD PUSH1 0xE5 SHL DUP2 MSTORE PUSH1 0x20 PUSH1 0x4 DUP3 ADD MSTORE PUSH1 0x12 PUSH1 0x24 DUP3 ADD MSTORE PUSH18 0x115512081B9BDD0818DBDB999A59DD5C9959 PUSH1 0x72 SHL PUSH1 0x44 DUP3 ADD MSTORE PUSH1 0x64 SWAP1 REVERT JUMPDEST ISZERO PUSH2 0x479C JUMPI JUMP JUMPDEST PUSH1 0x40 MLOAD PUSH3 0x461BCD PUSH1 0xE5 SHL DUP2 MSTORE PUSH1 0x20 PUSH1 0x4 DUP3 ADD MSTORE PUSH1 0x13 PUSH1 0x24 DUP3 ADD MSTORE PUSH19 0x115512081D1C985B9CD9995C8819985A5B1959 PUSH1 0x6A SHL PUSH1 0x44 DUP3 ADD MSTORE PUSH1 0x64 SWAP1 REVERT JUMPDEST ISZERO PUSH2 0x47DE JUMPI JUMP JUMPDEST PUSH1 0x40 MLOAD PUSH3 0x461BCD PUSH1 0xE5 SHL DUP2 MSTORE PUSH1 0x20 PUSH1 0x4 DUP3 ADD MSTORE PUSH1 0x12 PUSH1 0x24 DUP3 ADD MSTORE PUSH18 0x109510C81B9BDD0818DBDB999A59DD5C9959 PUSH1 0x72 SHL PUSH1 0x44 DUP3 ADD MSTORE PUSH1 0x64 SWAP1 REVERT JUMPDEST ISZERO PUSH2 0x481F JUMPI JUMP JUMPDEST PUSH1 0x40 MLOAD PUSH3 0x461BCD PUSH1 0xE5 SHL DUP2 MSTORE PUSH1 0x20 PUSH1 0x4 DUP3 ADD MSTORE PUSH1 0x13 PUSH1 0x24 DUP3 ADD MSTORE PUSH19 0x109510C81D1C985B9CD9995C8819985A5B1959 PUSH1 0x6A SHL PUSH1 0x44 DUP3 ADD MSTORE PUSH1 0x64 SWAP1 REVERT JUMPDEST ISZERO PUSH2 0x4861 JUMPI JUMP JUMPDEST PUSH1 0x40 MLOAD PUSH3 0x461BCD PUSH1 0xE5 SHL DUP2 MSTORE PUSH1 0x20 PUSH1 0x4 DUP3 ADD MSTORE PUSH1 0x12 PUSH1 0x24 DUP3 ADD MSTORE PUSH18 0x14D3D3081B9BDD0818DBDB999A59DD5C9959 PUSH1 0x72 SHL PUSH1 0x44 DUP3 ADD MSTORE PUSH1 0x64 SWAP1 REVERT JUMPDEST ISZERO PUSH2 0x48A2 JUMPI JUMP JUMPDEST PUSH1 0x40 MLOAD PUSH3 0x461BCD PUSH1 0xE5 SHL DUP2 MSTORE PUSH1 0x20 PUSH1 0x4 DUP3 ADD MSTORE PUSH1 0x13 PUSH1 0x24 DUP3 ADD MSTORE PUSH19 0x14D3D3081D1C985B9CD9995C8819985A5B1959 PUSH1 0x6A SHL PUSH1 0x44 DUP3 ADD MSTORE PUSH1 0x64 SWAP1 REVERT JUMPDEST CALLDATALOAD PUSH1 0x1 PUSH1 0x1 PUSH1 0xA0 SHL SUB DUP2 AND DUP2 SUB PUSH2 0x3EB8 JUMPI SWAP1 JUMP JUMPDEST SWAP2 SWAP1 PUSH1 0x60 DUP4 ADD CALLDATALOAD SWAP2 DUP3 TIMESTAMP GT PUSH2 0x4C23 JUMPI PUSH2 0x4909 DUP5 PUSH2 0x48DD JUMP JUMPDEST PUSH1 0x1 PUSH1 0x1 PUSH1 0xA0 SHL SUB SWAP5 SWAP1 CALLER SWAP1 DUP7 AND SUB PUSH2 0x4BEB JUMPI PUSH1 0x40 SWAP3 DUP4 DUP3 ADD CALLDATALOAD SWAP1 PUSH1 0x0 SWAP4 CALLER DUP6 MSTORE PUSH1 0x20 SWAP4 PUSH1 0x28 DUP6 MSTORE DUP7 DUP7 KECCAK256 SLOAD DUP5 GT ISZERO PUSH2 0x4BBA JUMPI PUSH1 0x27 SLOAD SWAP1 DUP6 PUSH2 0x494A DUP3 PUSH2 0x48DD JUMP JUMPDEST SWAP2 ADD SWAP9 PUSH2 0x4956 DUP11 PUSH2 0x48DD JUMP JUMPDEST SWAP1 DUP12 DUP11 MLOAD SWAP3 DUP2 DUP11 DUP6 ADD SWAP6 PUSH32 0x91B089318BBDF627BACEC662873C12CC3AFDC69DB73F084D7726E9CE2907280A DUP8 MSTORE AND DUP13 DUP6 ADD MSTORE AND PUSH1 0x60 DUP4 ADD MSTORE DUP7 PUSH1 0x80 DUP4 ADD MSTORE PUSH1 0xA0 DUP3 ADD MSTORE PUSH1 0xA0 DUP2 MSTORE PUSH2 0x49A6 DUP2 PUSH2 0x40E9 JUMP JUMPDEST MLOAD SWAP1 KECCAK256 DUP8 MLOAD SWAP1 DUP7 DUP3 ADD SWAP3 PUSH2 0x1901 PUSH1 0xF0 SHL DUP5 MSTORE PUSH1 0x22 DUP4 ADD MSTORE PUSH1 0x42 DUP3 ADD MSTORE PUSH1 0x42 DUP2 MSTORE PUSH2 0x49CF DUP2 PUSH2 0x4105 JUMP JUMPDEST MLOAD SWAP1 KECCAK256 SWAP1 PUSH2 0x49DC DUP2 PUSH2 0x4539 JUMP JUMPDEST SWAP3 PUSH2 0x49E9 DUP9 MLOAD SWAP5 DUP6 PUSH2 0x413D JUMP JUMPDEST DUP2 DUP5 MSTORE CALLDATASIZE DUP3 DUP3 ADD GT PUSH2 0x1EA0 JUMPI SWAP2 DUP7 DUP7 DUP4 DUP7 SWAP5 PUSH2 0x1C90 SWAP7 DUP4 PUSH2 0x4A0F SWAP10 ADD CALLDATACOPY DUP5 ADD ADD MSTORE PUSH2 0x4D74 JUMP JUMPDEST DUP7 DUP1 PUSH1 0x26 SLOAD AND SWAP2 AND SUB PUSH2 0x4B86 JUMPI SWAP1 PUSH1 0x15 SWAP2 CALLER DUP5 MSTORE PUSH1 0x28 DUP3 MSTORE DUP1 DUP6 DUP6 KECCAK256 SSTORE DUP5 MLOAD SWAP1 DUP2 MSTORE PUSH32 0xB23E07A4FC171F5F9242D4254C3B66B893BEAAB2F3787495C0F2D09DD3EF9726 DUP3 CALLER SWAP3 LOG2 DUP6 PUSH2 0x4A60 DUP7 PUSH2 0x48DD JUMP JUMPDEST AND ISZERO ISZERO DUP1 PUSH2 0x4B72 JUMPI JUMPDEST DUP1 PUSH2 0x4B5E JUMPI JUMPDEST DUP1 PUSH2 0x4B3F JUMPI JUMPDEST PUSH2 0x4AC6 JUMPI JUMPDEST CALLER DUP4 MSTORE MSTORE DUP2 DUP2 KECCAK256 SWAP4 PUSH1 0xFF NOT SWAP5 PUSH1 0x1 DUP7 DUP3 SLOAD AND OR SWAP1 SSTORE DUP1 PUSH2 0x4A99 DUP6 PUSH2 0x48DD JUMP JUMPDEST AND PUSH2 0x4AA6 JUMPI JUMPDEST POP POP POP POP POP JUMP JUMPDEST PUSH2 0x4AB1 PUSH1 0x1 SWAP5 PUSH2 0x48DD JUMP JUMPDEST AND DUP2 MSTORE KECCAK256 SWAP2 DUP3 SLOAD AND OR SWAP1 SSTORE CODESIZE DUP1 DUP1 DUP1 DUP1 PUSH2 0x4A9F JUMP JUMPDEST PUSH2 0x4ACF DUP6 PUSH2 0x48DD JUMP JUMPDEST CALLER DUP5 MSTORE PUSH1 0x23 DUP3 MSTORE DUP7 DUP6 DUP6 KECCAK256 SWAP2 AND PUSH1 0x1 PUSH1 0x1 PUSH1 0x60 SHL SUB PUSH1 0xA0 SHL DUP3 SLOAD AND OR SWAP1 SSTORE DUP6 PUSH2 0x4AF7 DUP7 PUSH2 0x48DD JUMP JUMPDEST AND DUP4 MSTORE PUSH1 0x24 DUP2 MSTORE PUSH2 0x4B0A CALLER DUP6 DUP6 KECCAK256 PUSH2 0x4481 JUMP JUMPDEST CALLER DUP7 PUSH2 0x4B15 DUP8 PUSH2 0x48DD JUMP JUMPDEST AND PUSH32 0x5F1CA2FCC108B751843A763E60D2201F593516109D7DBB1B700468F2D4190BB7 DUP6 DUP1 LOG3 PUSH2 0x4A7A JUMP JUMPDEST POP DUP6 PUSH2 0x4B4A DUP7 PUSH2 0x48DD JUMP JUMPDEST AND DUP4 MSTORE PUSH1 0x10 DUP2 MSTORE PUSH1 0xFF DUP5 DUP5 KECCAK256 SLOAD AND ISZERO PUSH2 0x4A75 JUMP JUMPDEST POP CALLER DUP4 MSTORE PUSH1 0x23 DUP2 MSTORE DUP6 DUP5 DUP5 KECCAK256 SLOAD AND ISZERO PUSH2 0x4A6F JUMP JUMPDEST POP CALLER DUP7 PUSH2 0x4B7E DUP8 PUSH2 0x48DD JUMP JUMPDEST AND EQ ISZERO PUSH2 0x4A69 JUMP JUMPDEST DUP4 MLOAD PUSH3 0x461BCD PUSH1 0xE5 SHL DUP2 MSTORE PUSH1 0x4 DUP2 ADD DUP4 SWAP1 MSTORE PUSH1 0xD PUSH1 0x24 DUP3 ADD MSTORE PUSH13 0x426164207369676E6174757265 PUSH1 0x98 SHL PUSH1 0x44 DUP3 ADD MSTORE PUSH1 0x64 SWAP1 REVERT JUMPDEST DUP7 MLOAD PUSH3 0x461BCD PUSH1 0xE5 SHL DUP2 MSTORE PUSH1 0x4 DUP2 ADD DUP7 SWAP1 MSTORE PUSH1 0xA PUSH1 0x24 DUP3 ADD MSTORE PUSH10 0x139BDB98D9481D5CD959 PUSH1 0xB2 SHL PUSH1 0x44 DUP3 ADD MSTORE PUSH1 0x64 SWAP1 REVERT JUMPDEST PUSH1 0x40 MLOAD PUSH3 0x461BCD PUSH1 0xE5 SHL DUP2 MSTORE PUSH1 0x20 PUSH1 0x4 DUP3 ADD MSTORE PUSH1 0x10 PUSH1 0x24 DUP3 ADD MSTORE PUSH16 0x2737BA103CB7BAB9103B37BAB1B432B9 PUSH1 0x81 SHL PUSH1 0x44 DUP3 ADD MSTORE PUSH1 0x64 SWAP1 REVERT JUMPDEST PUSH1 0x40 MLOAD PUSH3 0x461BCD PUSH1 0xE5 SHL DUP2 MSTORE PUSH1 0x20 PUSH1 0x4 DUP3 ADD MSTORE PUSH1 0xF PUSH1 0x24 DUP3 ADD MSTORE PUSH15 0x159BDD58DA195C88195E1C1A5C9959 PUSH1 0x8A SHL PUSH1 0x44 DUP3 ADD MSTORE PUSH1 0x64 SWAP1 REVERT JUMPDEST PUSH1 0x5 DUP2 LT ISZERO PUSH2 0x4D5E JUMPI DUP1 PUSH2 0x4C6B JUMPI POP JUMP JUMPDEST PUSH1 0x1 DUP2 SUB PUSH2 0x4CB8 JUMPI PUSH1 0x40 MLOAD PUSH3 0x461BCD PUSH1 0xE5 SHL DUP2 MSTORE PUSH1 0x20 PUSH1 0x4 DUP3 ADD MSTORE PUSH1 0x18 PUSH1 0x24 DUP3 ADD MSTORE PUSH32 0x45434453413A20696E76616C6964207369676E61747572650000000000000000 PUSH1 0x44 DUP3 ADD MSTORE PUSH1 0x64 SWAP1 REVERT JUMPDEST PUSH1 0x2 DUP2 SUB PUSH2 0x4D05 JUMPI PUSH1 0x40 MLOAD PUSH3 0x461BCD PUSH1 0xE5 SHL DUP2 MSTORE PUSH1 0x20 PUSH1 0x4 DUP3 ADD MSTORE PUSH1 0x1F PUSH1 0x24 DUP3 ADD MSTORE PUSH32 0x45434453413A20696E76616C6964207369676E6174757265206C656E67746800 PUSH1 0x44 DUP3 ADD MSTORE PUSH1 0x64 SWAP1 REVERT JUMPDEST PUSH1 0x3 EQ PUSH2 0x4D0E JUMPI JUMP JUMPDEST PUSH1 0x40 MLOAD PUSH3 0x461BCD PUSH1 0xE5 SHL DUP2 MSTORE PUSH1 0x20 PUSH1 0x4 DUP3 ADD MSTORE PUSH1 0x22 PUSH1 0x24 DUP3 ADD MSTORE PUSH32 0x45434453413A20696E76616C6964207369676E6174757265202773272076616C PUSH1 0x44 DUP3 ADD MSTORE PUSH2 0x7565 PUSH1 0xF0 SHL PUSH1 0x64 DUP3 ADD MSTORE PUSH1 0x84 SWAP1 REVERT JUMPDEST PUSH4 0x4E487B71 PUSH1 0xE0 SHL PUSH1 0x0 MSTORE PUSH1 0x21 PUSH1 0x4 MSTORE PUSH1 0x24 PUSH1 0x0 REVERT JUMPDEST SWAP1 PUSH1 0x41 DUP2 MLOAD EQ PUSH1 0x0 EQ PUSH2 0x4DA2 JUMPI PUSH2 0x4D9E SWAP2 PUSH1 0x20 DUP3 ADD MLOAD SWAP1 PUSH1 0x60 PUSH1 0x40 DUP5 ADD MLOAD SWAP4 ADD MLOAD PUSH1 0x0 BYTE SWAP1 PUSH2 0x4DAC JUMP JUMPDEST SWAP1 SWAP2 JUMP JUMPDEST POP POP PUSH1 0x0 SWAP1 PUSH1 0x2 SWAP1 JUMP JUMPDEST SWAP3 SWAP2 SWAP1 PUSH32 0x7FFFFFFFFFFFFFFFFFFFFFFFFFFFFFFF5D576E7357A4501DDFE92F46681B20A0 DUP4 GT PUSH2 0x4E2F JUMPI SWAP2 PUSH1 0x80 SWAP5 SWAP4 SWAP2 PUSH1 0xFF PUSH1 0x20 SWAP5 PUSH1 0x40 MLOAD SWAP5 DUP6 MSTORE AND DUP5 DUP5 ADD MSTORE PUSH1 0x40 DUP4 ADD MSTORE PUSH1 0x60 DUP3 ADD MSTORE PUSH1 0x0 SWAP4 DUP5 SWAP2 DUP3 DUP1 MSTORE PUSH1 0x1 GAS STATICCALL ISZERO PUSH2 0x4E22 JUMPI DUP2 MLOAD PUSH1 0x1 PUSH1 0x1 PUSH1 0xA0 SHL SUB DUP2 AND ISZERO PUSH2 0x4E1C JUMPI SWAP2 SWAP1 JUMP JUMPDEST POP PUSH1 0x1 SWAP1 JUMP JUMPDEST POP PUSH1 0x40 MLOAD SWAP1 RETURNDATASIZE SWAP1 DUP3 RETURNDATACOPY RETURNDATASIZE SWAP1 REVERT JUMPDEST POP POP POP POP PUSH1 0x0 SWAP1 PUSH1 0x3 SWAP1 JUMP JUMPDEST PUSH1 0x40 MLOAD SWAP1 PUSH2 0x4E48 DUP3 PUSH2 0x4121 JUMP JUMPDEST PUSH1 0x4 DUP3 MSTORE PUSH4 0x14D15313 PUSH1 0xE2 SHL PUSH1 0x20 DUP4 ADD MSTORE JUMP JUMPDEST ISZERO PUSH2 0x4E62 JUMPI JUMP JUMPDEST PUSH1 0x40 MLOAD PUSH3 0x461BCD PUSH1 0xE5 SHL DUP2 MSTORE PUSH1 0x20 PUSH1 0x4 DUP3 ADD MSTORE PUSH1 0x15 PUSH1 0x24 DUP3 ADD MSTORE PUSH21 0x151BDAD95B881D1C985B9CD9995C8819985A5B1959 PUSH1 0x5A SHL PUSH1 0x44 DUP3 ADD MSTORE PUSH1 0x64 SWAP1 REVERT JUMPDEST PUSH1 0x0 NOT DUP2 EQ PUSH2 0x435E JUMPI PUSH1 0x1 ADD SWAP1 JUMP JUMPDEST ISZERO PUSH2 0x4EB5 JUMPI JUMP JUMPDEST PUSH1 0x40 MLOAD PUSH3 0x461BCD PUSH1 0xE5 SHL DUP2 MSTORE PUSH1 0x20 PUSH1 0x4 DUP3 ADD MSTORE PUSH1 0x14 PUSH1 0x24 DUP3 ADD MSTORE PUSH20 0x14DD185AD948191BD95CC81B9BDD08195E1A5CDD PUSH1 0x62 SHL PUSH1 0x44 DUP3 ADD MSTORE PUSH1 0x64 SWAP1 REVERT JUMPDEST ISZERO PUSH2 0x4EF8 JUMPI JUMP JUMPDEST PUSH1 0x40 MLOAD PUSH3 0x461BCD PUSH1 0xE5 SHL DUP2 MSTORE PUSH1 0x20 PUSH1 0x4 DUP3 ADD MSTORE PUSH1 0xF PUSH1 0x24 DUP3 ADD MSTORE PUSH15 0x14DD185AD9481B9BDD08199BDD5B99 PUSH1 0x8A SHL PUSH1 0x44 DUP3 ADD MSTORE PUSH1 0x64 SWAP1 REVERT JUMPDEST ISZERO PUSH2 0x4F36 JUMPI JUMP JUMPDEST PUSH1 0x40 MLOAD PUSH3 0x461BCD PUSH1 0xE5 SHL DUP2 MSTORE PUSH1 0x20 PUSH1 0x4 DUP3 ADD MSTORE PUSH1 0x10 PUSH1 0x24 DUP3 ADD MSTORE PUSH16 0x5374616B65206E6F7420616374697665 PUSH1 0x80 SHL PUSH1 0x44 DUP3 ADD MSTORE PUSH1 0x64 SWAP1 REVERT JUMPDEST PUSH1 0x0 DUP2 DUP2 MSTORE PUSH1 0x1C PUSH1 0x20 SWAP1 DUP2 MSTORE PUSH1 0x40 DUP1 DUP4 KECCAK256 SLOAD PUSH1 0x1 PUSH1 0x1 PUSH1 0xA0 SHL SUB AND SWAP1 PUSH2 0x4F95 DUP3 ISZERO ISZERO PUSH2 0x4EAE JUMP JUMPDEST SWAP3 SWAP4 DUP5 SWAP4 SWAP1 DUP5 SWAP1 DUP2 DUP1 DUP1 DUP1 DUP1 JUMPDEST DUP9 DUP12 MSTORE PUSH1 0x1B DUP1 DUP12 MSTORE DUP9 DUP13 KECCAK256 DUP1 SLOAD DUP4 LT ISZERO PUSH2 0x5163 JUMPI PUSH2 0x4FC1 DUP4 DUP10 SWAP3 PUSH2 0x404B JUMP JUMPDEST POP SLOAD EQ PUSH2 0x4FD7 JUMPI POP PUSH2 0x4FD2 SWAP1 PUSH2 0x4E9F JUMP JUMPDEST PUSH2 0x4FA2 JUMP JUMPDEST SWAP7 POP SWAP11 POP POP POP POP POP POP DUP3 DUP6 MSTORE DUP1 DUP5 MSTORE DUP6 DUP3 DUP7 KECCAK256 SWAP1 PUSH2 0x4FF4 SWAP2 PUSH2 0x404B JUMP JUMPDEST POP PUSH1 0x5 ADD SLOAD SWAP6 DUP4 DUP7 MSTORE DUP2 DUP6 MSTORE DUP1 DUP4 DUP8 KECCAK256 SWAP1 PUSH2 0x500E SWAP2 PUSH2 0x404B JUMP JUMPDEST POP PUSH1 0x4 ADD SLOAD SWAP3 DUP5 DUP8 MSTORE DUP3 DUP7 MSTORE DUP2 DUP2 DUP9 KECCAK256 SWAP1 PUSH2 0x5028 SWAP2 PUSH2 0x404B JUMP JUMPDEST POP SWAP3 PUSH1 0x1 DUP1 SWAP5 ADD SLOAD SWAP7 DUP7 DUP10 MSTORE DUP2 DUP2 MSTORE DUP4 DUP4 DUP11 KECCAK256 SWAP1 PUSH2 0x5045 SWAP2 PUSH2 0x404B JUMP JUMPDEST POP PUSH1 0x3 ADD SLOAD SWAP7 DUP10 MSTORE MSTORE DUP7 KECCAK256 SWAP1 PUSH2 0x505A SWAP2 PUSH2 0x404B JUMP JUMPDEST POP PUSH1 0x6 ADD SLOAD PUSH1 0xFF AND PUSH2 0x506E PUSH2 0x5073 SWAP3 PUSH2 0x4EF1 JUMP JUMPDEST PUSH2 0x4F2F JUMP JUMPDEST TIMESTAMP DUP2 EQ PUSH2 0x515C JUMPI PUSH2 0x5084 SWAP1 TIMESTAMP PUSH2 0x4351 JUMP JUMPDEST SWAP3 PUSH1 0x19 SLOAD DUP1 SWAP3 PUSH1 0x5A DUP2 EQ PUSH1 0x0 EQ PUSH2 0x50E2 JUMPI POP POP PUSH1 0x3 DUP3 MUL SWAP2 DUP1 DUP4 DIV PUSH1 0x3 EQ SWAP1 ISZERO OR ISZERO PUSH2 0x50CE JUMPI POP PUSH2 0x4247 SWAP4 SWAP3 PUSH2 0x50C2 PUSH4 0xBBF81E00 SWAP4 PUSH2 0x50C7 SWAP4 PUSH1 0x1 SHR SWAP1 JUMPDEST PUSH2 0x4394 JUMP JUMPDEST DIV SWAP1 PUSH2 0x43A7 JUMP JUMPDEST PUSH4 0x4E487B71 PUSH1 0xE0 SHL DUP2 MSTORE PUSH1 0x11 PUSH1 0x4 MSTORE PUSH1 0x24 SWAP1 REVERT JUMPDEST PUSH1 0xB4 DUP2 SUB PUSH2 0x5118 JUMPI POP POP DUP2 PUSH1 0x1 SHL SWAP2 DUP1 DUP4 DIV PUSH1 0x2 EQ SWAP1 ISZERO OR ISZERO PUSH2 0x50CE JUMPI POP PUSH2 0x4247 SWAP4 SWAP3 PUSH2 0x50C2 PUSH4 0xBBF81E00 SWAP4 PUSH2 0x50C7 SWAP4 SWAP1 PUSH2 0x4394 JUMP JUMPDEST PUSH2 0x16D SWAP2 SWAP5 SWAP4 POP EQ PUSH2 0x513D JUMPI JUMPDEST POP PUSH2 0x4247 SWAP4 SWAP3 PUSH2 0x50C2 PUSH4 0xBBF81E00 SWAP4 PUSH2 0x50C7 SWAP4 PUSH2 0x4394 JUMP JUMPDEST PUSH1 0x3 DUP4 SWAP3 SWAP4 MUL SWAP2 DUP1 DUP4 DIV PUSH1 0x3 EQ SWAP1 ISZERO OR ISZERO PUSH2 0x50CE JUMPI POP SWAP1 PUSH2 0x4247 PUSH2 0x5125 JUMP JUMPDEST POP POP POP POP SWAP1 JUMP JUMPDEST POP POP POP SWAP7 POP SWAP7 POP SWAP8 SWAP4 POP PUSH2 0x5073 SWAP3 SWAP2 POP PUSH2 0x506E SWAP1 PUSH2 0x4EF1 JUMP JUMPDEST ISZERO PUSH2 0x5183 JUMPI JUMP JUMPDEST PUSH1 0x40 MLOAD PUSH3 0x461BCD PUSH1 0xE5 SHL DUP2 MSTORE PUSH1 0x20 PUSH1 0x4 DUP3 ADD MSTORE PUSH1 0xF PUSH1 0x24 DUP3 ADD MSTORE PUSH15 0x2737BA1039BA30B5B29037BBB732B9 PUSH1 0x89 SHL PUSH1 0x44 DUP3 ADD MSTORE PUSH1 0x64 SWAP1 REVERT JUMPDEST PUSH1 0x0 CALLER DUP2 MSTORE PUSH1 0x20 PUSH1 0x23 DUP2 MSTORE PUSH1 0x1 DUP1 PUSH1 0xA0 SHL SUB SWAP1 PUSH1 0x40 DUP3 DUP2 DUP6 KECCAK256 SLOAD AND SWAP3 DUP4 ISZERO ISZERO DUP1 PUSH2 0x5326 JUMPI JUMPDEST PUSH2 0x51EB JUMPI POP POP POP POP POP SWAP1 JUMP JUMPDEST PUSH1 0x64 PUSH2 0x51F9 PUSH1 0x22 SLOAD DUP9 PUSH2 0x4394 JUMP JUMPDEST DUP7 SLOAD DUP5 MLOAD PUSH4 0xA9059CBB PUSH1 0xE0 SHL DUP2 MSTORE PUSH1 0x1 PUSH1 0x1 PUSH1 0xA0 SHL SUB DUP9 AND PUSH1 0x4 DUP3 ADD MSTORE SWAP3 SWAP1 SWAP2 DIV PUSH1 0x24 DUP4 ADD DUP2 SWAP1 MSTORE SWAP7 SWAP2 SWAP1 DUP6 SWAP1 DUP3 SWAP1 PUSH1 0x44 SWAP1 DUP3 SWAP1 DUP7 SWAP1 DUP9 AND GAS CALL SWAP1 DUP2 ISZERO PUSH2 0x531C JUMPI DUP3 SWAP2 PUSH2 0x52FF JUMPI JUMPDEST POP ISZERO PUSH2 0x52BB JUMPI PUSH32 0x94CCB86446750660EC532B1BEB1FB55F5BA2FFFCA042C4C53F4C080E72595B38 SWAP4 SWAP3 SWAP2 DUP2 DUP7 PUSH2 0x52B1 SWAP4 MSTORE PUSH1 0x25 DUP6 MSTORE DUP4 DUP2 KECCAK256 PUSH2 0x5284 DUP10 DUP3 SLOAD PUSH2 0x43A7 JUMP JUMPDEST SWAP1 SSTORE SLOAD AND DUP7 DUP9 DUP5 MLOAD SWAP3 PUSH2 0x5296 DUP5 PUSH2 0x4121 JUMP JUMPDEST PUSH1 0x8 DUP5 MSTORE PUSH8 0x1491519154949053 PUSH1 0xC2 SHL DUP8 DUP6 ADD MSTORE DUP1 DUP10 PUSH2 0x5B11 JUMP JUMPDEST MLOAD SWAP4 DUP5 MSTORE CALLER SWAP4 LOG3 SWAP1 JUMP JUMPDEST DUP3 MLOAD PUSH3 0x461BCD PUSH1 0xE5 SHL DUP2 MSTORE PUSH1 0x4 DUP2 ADD DUP6 SWAP1 MSTORE PUSH1 0x1F PUSH1 0x24 DUP3 ADD MSTORE PUSH32 0x526566657272616C20726577617264207472616E73666572206661696C656400 PUSH1 0x44 DUP3 ADD MSTORE PUSH1 0x64 SWAP1 REVERT JUMPDEST PUSH2 0x5316 SWAP2 POP DUP6 RETURNDATASIZE DUP8 GT PUSH2 0x627 JUMPI PUSH2 0x619 DUP2 DUP4 PUSH2 0x413D JUMP JUMPDEST CODESIZE PUSH2 0x5241 JUMP JUMPDEST DUP5 MLOAD RETURNDATASIZE DUP5 DUP3 RETURNDATACOPY RETURNDATASIZE SWAP1 REVERT JUMPDEST POP DUP4 DUP6 MSTORE PUSH1 0x10 DUP4 MSTORE PUSH1 0xFF DUP3 DUP7 KECCAK256 SLOAD AND ISZERO PUSH2 0x51DF JUMP JUMPDEST PUSH1 0x0 SWAP1 DUP2 JUMPDEST PUSH1 0x1 PUSH1 0x1 PUSH1 0xA0 SHL SUB DUP3 AND PUSH1 0x0 SWAP1 DUP2 MSTORE PUSH1 0x1B PUSH1 0x20 MSTORE PUSH1 0x40 SWAP1 KECCAK256 DUP1 SLOAD DUP3 LT ISZERO PUSH2 0x53EC JUMPI PUSH1 0x6 PUSH2 0x536F DUP4 PUSH1 0xFF SWAP4 PUSH2 0x404B JUMP JUMPDEST POP ADD SLOAD AND PUSH2 0x5385 JUMPI PUSH2 0x5380 SWAP1 PUSH2 0x4E9F JUMP JUMPDEST PUSH2 0x5340 JUMP JUMPDEST POP SWAP1 POP PUSH1 0x1 JUMPDEST ISZERO DUP1 PUSH2 0x53CA JUMPI JUMPDEST PUSH2 0x5399 JUMPI POP JUMP JUMPDEST PUSH1 0x1 PUSH1 0x1 PUSH1 0xA0 SHL SUB AND PUSH1 0x0 SWAP1 DUP2 MSTORE PUSH1 0x21 PUSH1 0x20 MSTORE PUSH1 0x40 SWAP1 KECCAK256 DUP1 SLOAD PUSH1 0xFF NOT AND SWAP1 SSTORE PUSH1 0x1F SLOAD DUP1 ISZERO PUSH2 0x435E JUMPI PUSH1 0x0 NOT ADD PUSH1 0x1F SSTORE JUMP JUMPDEST POP PUSH1 0x1 PUSH1 0x1 PUSH1 0xA0 SHL SUB DUP2 AND PUSH1 0x0 SWAP1 DUP2 MSTORE PUSH1 0x21 PUSH1 0x20 MSTORE PUSH1 0x40 SWAP1 KECCAK256 SLOAD PUSH1 0xFF AND PUSH2 0x5392 JUMP JUMPDEST POP POP SWAP1 PUSH2 0x538B JUMP JUMPDEST PUSH1 0x0 DUP1 SLOAD PUSH1 0x40 DUP1 MLOAD PUSH4 0x70A08231 PUSH1 0xE0 SHL DUP2 MSTORE ADDRESS PUSH1 0x4 DUP1 DUP4 ADD SWAP2 SWAP1 SWAP2 MSTORE SWAP4 SWAP6 SWAP5 SWAP2 SWAP4 PUSH1 0x20 SWAP4 PUSH1 0x1 PUSH1 0x1 PUSH1 0xA0 SHL SUB AND SWAP2 DUP5 DUP2 PUSH1 0x24 DUP2 DUP7 GAS STATICCALL SWAP1 DUP2 ISZERO PUSH2 0x5691 JUMPI SWAP1 DUP5 SWAP2 DUP10 SWAP2 PUSH2 0x5660 JUMPI JUMPDEST POP LT PUSH2 0x561D JUMPI PUSH1 0xE SLOAD PUSH12 0x1F04EF12CB04CF158000000 PUSH2 0x545B DUP6 DUP4 PUSH2 0x43A7 JUMP JUMPDEST GT PUSH2 0x55E4 JUMPI DUP4 SWAP1 CALLER DUP10 MSTORE PUSH1 0x15 DUP7 MSTORE PUSH1 0xFF DUP8 DUP11 KECCAK256 SLOAD AND PUSH1 0x0 EQ PUSH2 0x5570 JUMPI POP POP PUSH1 0xF SLOAD PUSH11 0x1A784379D99DB42000000 PUSH2 0x5492 DUP6 DUP4 PUSH2 0x43A7 JUMP JUMPDEST GT PUSH2 0x552D JUMPI SWAP2 DUP4 SWAP2 PUSH2 0x54A9 DUP7 SWAP6 PUSH2 0x54E9 SWAP8 SWAP6 PUSH2 0x43A7 JUMP JUMPDEST PUSH1 0xF SSTORE JUMPDEST PUSH2 0x54B9 DUP4 PUSH1 0xE SLOAD PUSH2 0x43A7 JUMP JUMPDEST PUSH1 0xE SSTORE DUP7 MLOAD PUSH4 0xA9059CBB PUSH1 0xE0 SHL DUP2 MSTORE CALLER SWAP2 DUP2 ADD SWAP2 DUP3 MSTORE PUSH1 0x20 DUP3 ADD SWAP4 SWAP1 SWAP4 MSTORE SWAP2 SWAP5 DUP6 SWAP3 DUP4 SWAP2 DUP11 SWAP2 DUP4 SWAP2 PUSH1 0x40 SWAP1 SWAP2 ADD SWAP1 JUMP JUMPDEST SUB SWAP3 GAS CALL SWAP3 DUP4 ISZERO PUSH2 0x5524 JUMPI POP PUSH2 0x419D SWAP4 SWAP5 SWAP3 PUSH2 0x5507 JUMPI JUMPDEST POP POP PUSH2 0x4E5B JUMP JUMPDEST PUSH2 0x551D SWAP3 POP DUP1 RETURNDATASIZE LT PUSH2 0x627 JUMPI PUSH2 0x619 DUP2 DUP4 PUSH2 0x413D JUMP JUMPDEST CODESIZE DUP1 PUSH2 0x5500 JUMP JUMPDEST MLOAD RETURNDATASIZE DUP7 DUP3 RETURNDATACOPY RETURNDATASIZE SWAP1 REVERT JUMPDEST DUP6 MLOAD PUSH3 0x461BCD PUSH1 0xE5 SHL DUP2 MSTORE DUP1 DUP4 ADD DUP7 SWAP1 MSTORE PUSH1 0x1B PUSH1 0x24 DUP3 ADD MSTORE PUSH32 0x4578636565647320776169746C69737420616C6C6F636174696F6E0000000000 PUSH1 0x44 DUP3 ADD MSTORE PUSH1 0x64 SWAP1 REVERT JUMPDEST PUSH12 0x1EEA76CF512B31616000000 SWAP2 PUSH2 0x345E PUSH2 0x558E SWAP3 PUSH1 0xF SLOAD SWAP1 PUSH2 0x4351 JUMP JUMPDEST GT PUSH2 0x55A1 JUMPI SWAP2 DUP4 SWAP3 SWAP2 PUSH2 0x54E9 SWAP5 SWAP3 PUSH2 0x54AD JUMP JUMPDEST DUP5 MLOAD PUSH3 0x461BCD PUSH1 0xE5 SHL DUP2 MSTORE SWAP1 DUP2 ADD DUP5 SWAP1 MSTORE PUSH1 0x19 PUSH1 0x24 DUP3 ADD MSTORE PUSH32 0x45786365656473207075626C696320616C6C6F636174696F6E00000000000000 PUSH1 0x44 DUP3 ADD MSTORE PUSH1 0x64 SWAP1 REVERT JUMPDEST DUP6 MLOAD PUSH3 0x461BCD PUSH1 0xE5 SHL DUP2 MSTORE DUP1 DUP4 ADD DUP7 SWAP1 MSTORE PUSH1 0x13 PUSH1 0x24 DUP3 ADD MSTORE PUSH19 0x457863656564732073616C6520737570706C79 PUSH1 0x68 SHL PUSH1 0x44 DUP3 ADD MSTORE PUSH1 0x64 SWAP1 REVERT JUMPDEST DUP5 MLOAD PUSH3 0x461BCD PUSH1 0xE5 SHL DUP2 MSTORE SWAP1 DUP2 ADD DUP5 SWAP1 MSTORE PUSH1 0x1A PUSH1 0x24 DUP3 ADD MSTORE PUSH32 0x496E73756666696369656E7420746F6B656E2062616C616E6365000000000000 PUSH1 0x44 DUP3 ADD MSTORE PUSH1 0x64 SWAP1 REVERT JUMPDEST DUP1 SWAP3 POP DUP7 DUP1 SWAP3 POP RETURNDATASIZE DUP4 GT PUSH2 0x568A JUMPI JUMPDEST PUSH2 0x5679 DUP2 DUP4 PUSH2 0x413D JUMP JUMPDEST DUP2 ADD SUB SLT PUSH2 0x1F66 JUMPI DUP4 SWAP1 MLOAD CODESIZE PUSH2 0x543B JUMP JUMPDEST POP RETURNDATASIZE PUSH2 0x566F JUMP JUMPDEST DUP7 MLOAD RETURNDATASIZE DUP11 DUP3 RETURNDATACOPY RETURNDATASIZE SWAP1 REVERT JUMPDEST PUSH1 0x17 SLOAD PUSH1 0x1 PUSH1 0x40 SHL DUP2 LT ISZERO PUSH2 0x40D3 JUMPI PUSH1 0x1 SWAP1 DUP2 DUP2 ADD DUP1 PUSH1 0x17 SSTORE DUP2 LT ISZERO PUSH2 0x4067 JUMPI PUSH1 0x7 PUSH1 0x0 SWAP2 PUSH1 0x17 DUP4 MSTORE MUL SWAP2 DUP4 MLOAD DUP4 PUSH32 0xC624B66CC0138B8FABC209247F72D758E1CF3343756D543BADBF24212BED8C15 ADD SSTORE PUSH1 0xC0 PUSH32 0xC624B66CC0138B8FABC209247F72D758E1CF3343756D543BADBF24212BED8C1B PUSH32 0xC624B66CC0138B8FABC209247F72D758E1CF3343756D543BADBF24212BED8C16 DUP6 ADD SWAP5 PUSH1 0x1 DUP1 PUSH1 0xA0 SHL SUB PUSH1 0x20 SWAP7 DUP2 DUP9 DUP11 ADD MLOAD AND SWAP1 PUSH1 0x1 PUSH1 0x1 PUSH1 0x60 SHL SUB PUSH1 0xA0 SHL SWAP2 DUP3 DUP3 SLOAD AND OR SWAP1 SSTORE PUSH32 0xC624B66CC0138B8FABC209247F72D758E1CF3343756D543BADBF24212BED8C17 DUP4 ADD DUP3 PUSH1 0x40 DUP12 ADD MLOAD AND DUP3 DUP3 SLOAD AND OR SWAP1 SSTORE PUSH32 0xC624B66CC0138B8FABC209247F72D758E1CF3343756D543BADBF24212BED8C18 DUP4 ADD SWAP2 PUSH1 0x60 DUP11 ADD MLOAD AND SWAP1 DUP3 SLOAD AND OR SWAP1 SSTORE PUSH1 0x80 DUP8 ADD MLOAD PUSH32 0xC624B66CC0138B8FABC209247F72D758E1CF3343756D543BADBF24212BED8C19 DUP3 ADD SSTORE PUSH1 0xA0 DUP8 ADD MLOAD PUSH32 0xC624B66CC0138B8FABC209247F72D758E1CF3343756D543BADBF24212BED8C1A DUP3 ADD SSTORE ADD SWAP5 ADD MLOAD SWAP2 DUP3 MLOAD SWAP3 PUSH8 0xFFFFFFFFFFFFFFFF DUP5 GT PUSH2 0x5913 JUMPI PUSH2 0x582C DUP7 SLOAD PUSH2 0x407D JUMP JUMPDEST PUSH1 0x1F DUP2 GT PUSH2 0x58CD JUMPI JUMPDEST POP DUP5 SWAP2 PUSH1 0x1F DUP6 GT PUSH1 0x1 EQ PUSH2 0x586E JUMPI SWAP4 SWAP5 POP DUP5 SWAP3 SWAP2 SWAP1 DUP4 PUSH2 0x5863 JUMPI JUMPDEST POP POP SHL SWAP2 PUSH1 0x0 NOT SWAP1 PUSH1 0x3 SHL SHR NOT AND OR SWAP1 SSTORE JUMP JUMPDEST ADD MLOAD SWAP3 POP CODESIZE DUP1 PUSH2 0x5850 JUMP JUMPDEST DUP7 DUP2 MSTORE DUP6 DUP2 KECCAK256 SWAP4 SWAP6 DUP6 SWAP2 PUSH1 0x1F NOT DUP4 AND SWAP2 JUMPDEST DUP9 DUP4 DUP4 LT PUSH2 0x58B3 JUMPI POP POP POP LT PUSH2 0x589A JUMPI JUMPDEST POP POP POP DUP2 SHL ADD SWAP1 SSTORE JUMP JUMPDEST ADD MLOAD PUSH1 0x0 NOT PUSH1 0xF8 DUP5 PUSH1 0x3 SHL AND SHR NOT AND SWAP1 SSTORE CODESIZE DUP1 DUP1 PUSH2 0x5890 JUMP JUMPDEST DUP6 DUP8 ADD MLOAD DUP9 SSTORE SWAP1 SWAP7 ADD SWAP6 SWAP5 DUP6 ADD SWAP5 DUP8 SWAP4 POP SWAP1 DUP2 ADD SWAP1 PUSH2 0x587F JUMP JUMPDEST DUP7 DUP4 MSTORE DUP6 DUP4 KECCAK256 PUSH1 0x1F DUP7 ADD PUSH1 0x5 SHR DUP2 ADD SWAP2 DUP8 DUP8 LT PUSH2 0x5909 JUMPI JUMPDEST PUSH1 0x1F ADD PUSH1 0x5 SHR ADD SWAP1 DUP5 SWAP1 JUMPDEST DUP3 DUP2 LT PUSH2 0x58FE JUMPI POP POP PUSH2 0x5835 JUMP JUMPDEST DUP5 DUP2 SSTORE ADD DUP5 SWAP1 PUSH2 0x58F0 JUMP JUMPDEST SWAP1 SWAP2 POP DUP2 SWAP1 PUSH2 0x58E5 JUMP JUMPDEST PUSH4 0x4E487B71 PUSH1 0xE0 SHL DUP3 MSTORE PUSH1 0x41 PUSH1 0x4 MSTORE PUSH1 0x24 DUP3 REVERT JUMPDEST DUP1 SLOAD PUSH1 0x1 PUSH1 0x40 SHL DUP2 LT ISZERO PUSH2 0x40D3 JUMPI PUSH2 0x5946 SWAP1 PUSH1 0x1 SWAP3 DUP4 DUP3 ADD DUP2 SSTORE PUSH2 0x404B JUMP JUMPDEST PUSH2 0x5A9C JUMPI DUP3 MLOAD DUP2 SSTORE PUSH1 0xC0 PUSH1 0x6 DUP4 DUP4 ADD SWAP3 PUSH1 0x1 DUP1 PUSH1 0xA0 SHL SUB PUSH1 0x20 SWAP5 DUP2 DUP7 DUP10 ADD MLOAD AND SWAP1 PUSH1 0x1 PUSH1 0x1 PUSH1 0x60 SHL SUB PUSH1 0xA0 SHL SWAP2 DUP3 DUP3 SLOAD AND OR SWAP1 SSTORE PUSH1 0x2 DUP4 ADD DUP3 PUSH1 0x40 DUP11 ADD MLOAD AND DUP3 DUP3 SLOAD AND OR SWAP1 SSTORE PUSH1 0x3 DUP4 ADD SWAP2 PUSH1 0x60 DUP10 ADD MLOAD AND SWAP1 DUP3 SLOAD AND OR SWAP1 SSTORE PUSH1 0x80 DUP7 ADD MLOAD PUSH1 0x4 DUP3 ADD SSTORE PUSH1 0xA0 DUP7 ADD MLOAD PUSH1 0x5 DUP3 ADD SSTORE ADD SWAP4 ADD MLOAD SWAP1 DUP2 MLOAD SWAP2 PUSH8 0xFFFFFFFFFFFFFFFF DUP4 GT PUSH2 0x40D3 JUMPI PUSH2 0x59D3 DUP6 SLOAD PUSH2 0x407D JUMP JUMPDEST PUSH1 0x1F DUP2 GT PUSH2 0x5A53 JUMPI JUMPDEST POP DUP2 PUSH1 0x1F DUP5 GT PUSH1 0x1 EQ PUSH2 0x5A0A JUMPI POP SWAP3 DUP3 SWAP4 SWAP2 DUP4 SWAP3 PUSH1 0x0 SWAP5 PUSH2 0x5863 JUMPI POP POP SHL SWAP2 PUSH1 0x0 NOT SWAP1 PUSH1 0x3 SHL SHR NOT AND OR SWAP1 SSTORE JUMP JUMPDEST SWAP2 SWAP1 DUP4 PUSH1 0x1F NOT DUP2 AND DUP8 PUSH1 0x0 MSTORE DUP5 PUSH1 0x0 KECCAK256 SWAP5 PUSH1 0x0 SWAP1 JUMPDEST DUP9 DUP4 DUP4 LT PUSH2 0x5A39 JUMPI POP POP POP LT PUSH2 0x589A JUMPI POP POP POP DUP2 SHL ADD SWAP1 SSTORE JUMP JUMPDEST DUP6 DUP8 ADD MLOAD DUP9 SSTORE SWAP1 SWAP7 ADD SWAP6 SWAP5 DUP6 ADD SWAP5 DUP8 SWAP4 POP SWAP1 DUP2 ADD SWAP1 PUSH2 0x5A1F JUMP JUMPDEST PUSH1 0x0 DUP7 DUP2 MSTORE DUP4 DUP2 KECCAK256 PUSH1 0x1F DUP7 ADD PUSH1 0x5 SHR DUP2 ADD SWAP3 DUP6 DUP8 LT PUSH2 0x5A92 JUMPI JUMPDEST PUSH1 0x1F ADD PUSH1 0x5 SHR ADD SWAP2 DUP7 SWAP1 JUMPDEST DUP4 DUP2 LT PUSH2 0x5A87 JUMPI POP POP POP PUSH2 0x59DC JUMP JUMPDEST DUP3 DUP2 SSTORE ADD DUP7 SWAP1 PUSH2 0x5A78 JUMP JUMPDEST SWAP1 SWAP3 POP DUP3 SWAP1 PUSH2 0x5A6D JUMP JUMPDEST PUSH4 0x4E487B71 PUSH1 0xE0 SHL PUSH1 0x0 MSTORE PUSH1 0x0 PUSH1 0x4 MSTORE PUSH1 0x24 PUSH1 0x0 REVERT JUMPDEST SWAP3 PUSH2 0x419D SWAP5 SWAP2 SWAP3 PUSH1 0x40 MLOAD SWAP5 PUSH2 0x5AC6 DUP7 PUSH2 0x40B7 JUMP JUMPDEST TIMESTAMP DUP7 MSTORE PUSH1 0x1 DUP1 PUSH1 0xA0 SHL SUB DUP1 SWAP2 AND SWAP5 DUP6 PUSH1 0x20 DUP9 ADD MSTORE PUSH1 0x0 PUSH1 0x40 DUP9 ADD MSTORE AND PUSH1 0x60 DUP7 ADD MSTORE PUSH1 0x80 DUP6 ADD MSTORE PUSH1 0xA0 DUP5 ADD MSTORE PUSH1 0xC0 DUP4 ADD MSTORE PUSH1 0x0 MSTORE PUSH1 0x16 PUSH1 0x20 MSTORE PUSH2 0x5B0C DUP2 PUSH1 0x40 PUSH1 0x0 KECCAK256 PUSH2 0x5927 JUMP JUMPDEST PUSH2 0x569B JUMP JUMPDEST SWAP3 PUSH2 0x419D SWAP6 SWAP3 SWAP5 SWAP2 SWAP4 PUSH1 0x40 MLOAD SWAP6 PUSH2 0x5B27 DUP8 PUSH2 0x40B7 JUMP JUMPDEST TIMESTAMP DUP8 MSTORE PUSH1 0x1 DUP1 PUSH1 0xA0 SHL SUB DUP1 DUP1 SWAP4 AND SWAP7 DUP8 PUSH1 0x20 DUP11 ADD MSTORE AND PUSH1 0x40 DUP9 ADD MSTORE AND PUSH1 0x60 DUP7 ADD MSTORE PUSH1 0x80 DUP6 ADD MSTORE PUSH1 0xA0 DUP5 ADD MSTORE PUSH1 0xC0 DUP4 ADD MSTORE PUSH1 0x0 MSTORE PUSH1 0x16 PUSH1 0x20 MSTORE PUSH2 0x5B0C DUP2 PUSH1 0x40 PUSH1 0x0 KECCAK256 PUSH2 0x5927 JUMP JUMPDEST PUSH8 0xFFFFFFFFFFFFFFFF DUP2 GT PUSH2 0x40D3 JUMPI PUSH1 0x5 SHL PUSH1 0x20 ADD SWAP1 JUMP JUMPDEST SWAP1 PUSH1 0x40 MLOAD PUSH2 0x5B92 DUP2 PUSH2 0x40B7 JUMP JUMPDEST PUSH1 0xC0 PUSH1 0xFF PUSH1 0x6 DUP4 SWAP6 DUP1 SLOAD DUP6 MSTORE PUSH1 0x1 DUP2 ADD SLOAD PUSH1 0x20 DUP7 ADD MSTORE PUSH1 0x2 DUP2 ADD SLOAD PUSH1 0x40 DUP7 ADD MSTORE PUSH1 0x3 DUP2 ADD SLOAD PUSH1 0x60 DUP7 ADD MSTORE PUSH1 0x4 DUP2 ADD SLOAD PUSH1 0x80 DUP7 ADD MSTORE PUSH1 0x5 DUP2 ADD SLOAD PUSH1 0xA0 DUP7 ADD MSTORE ADD SLOAD AND ISZERO ISZERO SWAP2 ADD MSTORE JUMP JUMPDEST PUSH1 0x40 MLOAD SWAP1 PUSH2 0x5BE7 DUP3 PUSH2 0x40B7 JUMP JUMPDEST DUP2 PUSH1 0xC0 PUSH1 0x0 SWAP2 DUP3 DUP2 MSTORE DUP3 PUSH1 0x20 DUP3 ADD MSTORE DUP3 PUSH1 0x40 DUP3 ADD MSTORE DUP3 PUSH1 0x60 DUP3 ADD MSTORE DUP3 PUSH1 0x80 DUP3 ADD MSTORE DUP3 PUSH1 0xA0 DUP3 ADD MSTORE ADD MSTORE JUMP INVALID CALLDATACOPY PUSH27 0xADEDB6B2A771959584D10A6A36ECCB5F56B4EB3A48525F76108D26 PUSH1 0xD8 0xD4 LOG2 PUSH5 0x6970667358 0x22 SLT KECCAK256 0x2C 0xAC PUSH30 0xD618724EFCF1C8B0610DE98A7C1A2E1934753C78A69B3E3BFB37EB0F5864 PUSH20 0x6F6C634300081300330000000000000000000000 "},"methodIdentifiers":{"DOMAIN_SEPARATOR()":"3644e515","EARLY_WITHDRAWAL_PENALTY_PERCENT()":"9c0fbd05","TOTAL_TOKENS_FOR_SALE()":"92feb849","WAITLIST_ALLOCATION()":"d8dc286a","WL_REF_TYPEHASH()":"ecb2dd74","allTransactions(uint256)":"d7ff0714","baseAPY()":"214405a9","blockedAddresses(address)":"4f93208a","bnbPriceForStablecoin()":"64f1d113","bnbPriceForToken()":"a0b3b930","bnbRatio()":"032d975b","btcAddress()":"f7d76ae5","btcRatio()":"1c042d35","buyUSDC()":"251545da","buyUSDT()":"5b365040","buyWithBNB()":"20f1fc61","buyWithBNB_Voucher((address,address,uint256,uint256),bytes)":"7df74181","buyWithBTC(uint256)":"06360b85","buyWithBTC_Voucher((address,address,uint256,uint256),bytes,uint256)":"7ea61fe3","buyWithETH(uint256)":"94dc9cf3","buyWithETH_Voucher((address,address,uint256,uint256),bytes,uint256)":"3a5d4175","buyWithSOL(uint256)":"f30ef2e5","buyWithSOL_Voucher((address,address,uint256,uint256),bytes,uint256)":"14ce670b","buyWithUSDC(uint256)":"aeccf735","buyWithUSDC_Voucher((address,address,uint256,uint256),bytes,uint256)":"a77c80aa","buyWithUSDT(uint256)":"a7c60160","buyWithUSDT_Voucher((address,address,uint256,uint256),bytes,uint256)":"2ba77022","calculateRewards(uint256)":"d3ea4350","ethAddress()":"41398b15","ethRatio()":"bc5894ba","getAllTransactions()":"27506f53","getContractInfo()":"7cc1f867","getCurrentPrice(address)":"84cc315b","getReferralInfo(address)":"21874ae2","getStakeDetails(uint256)":"963c9dd3","getStakeInfo(uint256)":"09813482","getStakingInfo()":"b40cd21d","getTokenBalances()":"a1dc9031","getTotalPenaltyCollected()":"491cc756","getUserReferrals(address)":"575cea6b","getUserStakes(address)":"842e2981","getUserStakingInfo(address)":"80933608","getUserTransactions(address)":"ef925399","harvestRewards(uint256)":"57126d0d","hasStaked(address)":"c93c8f34","minStakeAmount()":"f1887684","nextStakeId()":"75506c96","owner()":"8da5cb5b","publicInterval()":"776ff66a","referralRewardPercentage()":"920a253e","referralRewards(address)":"53aaa63b","referrals(address,uint256)":"e697b5d8","referrers(address)":"4a3b68cc","registerReferrer(address)":"9ea7685a","saleStartTime()":"1cbaee2d","saleToken()":"e985e367","setBlockStatus(address,bool)":"182a676b","setSaleStartTime(uint256)":"525f8a5c","setSaleToken(address)":"a29f481c","setSigner(address)":"6c19e783","setWaitlisted(address,bool)":"42e97cb8","signer()":"238ac933","solAddress()":"1ce24e16","solRatio()":"7a9773dc","stablecoinPriceIncrement()":"b3b94706","stakeOwners(uint256)":"fd9a11e5","stakeTokens(uint256,uint256)":"3b7b6188","tokensSold()":"518ab2a8","totalPenaltyCollected()":"2bb38809","totalRewardsDistributed()":"ee172546","totalStaked()":"817b1cd2","totalStakers()":"86989038","unstakeEarly(uint256)":"2fd04c08","unstakeTokens(uint256)":"608e4dd0","updateBTC(address,uint256)":"3a94be2d","updateBaseAPY(uint256)":"71d20fe7","updateETH(address,uint256)":"3e4e6453","updateMinStakeAmount(uint256)":"d8060cd5","updateReferralPercentage(uint256)":"4cdb312d","updateSOL(address,uint256)":"ebcd3a13","updateStablecoinPrice(uint256)":"63219c72","updateTokenPrice(uint256)":"676c0d77","updateUSDC(address,uint256)":"1e37c606","updateUSDT(address,uint256)":"b006984f","usdcAddress()":"02d45457","usdcRatio()":"6f43f373","usdtAddress()":"9ab4a445","usdtRatio()":"83fabe03","usedNonce(address)":"3e61e9dc","userStakes(address,uint256)":"b5d5b5fa","userTransactions(address,uint256)":"b842ec44","waitlistInterval()":"862dd2e2","waitlistSold()":"4561f1e1","waitlisted(address)":"794a3292","withdrawTokens(address,uint256)":"06b091f9"}}}}}