{"contracts/TokenICO.sol":{"TokenICO":{"abi":[{"inputs":[],"stateMutability":"nonpayable","type":"constructor"},{"anonymous":false,"inputs":[{"indexed":false,"internalType":"uint256","name":"oldAPY","type":"uint256"},{"indexed":false,"internalType":"uint256","name":"newAPY","type":"uint256"}],"name":"APYUpdated","type":"event"},{"anonymous":false,"inputs":[{"indexed":true,"internalType":"address","name":"user","type":"address"},{"indexed":false,"internalType":"bool","name":"blocked","type":"bool"}],"name":"AddressBlocked","type":"event"},{"anonymous":false,"inputs":[{"indexed":true,"internalType":"address","name":"user","type":"address"},{"indexed":true,"internalType":"uint256","name":"stakeId","type":"uint256"},{"indexed":false,"internalType":"uint256","name":"amount","type":"uint256"},{"indexed":false,"internalType":"uint256","name":"penalty","type":"uint256"}],"name":"EarlyUnstake","type":"event"},{"anonymous":false,"inputs":[{"indexed":false,"internalType":"uint256","name":"oldMinStake","type":"uint256"},{"indexed":false,"internalType":"uint256","name":"newMinStake","type":"uint256"}],"name":"MinStakeUpdated","type":"event"},{"anonymous":false,"inputs":[{"indexed":false,"internalType":"string","name":"priceType","type":"string"},{"indexed":false,"internalType":"uint256","name":"oldPrice","type":"uint256"},{"indexed":false,"internalType":"uint256","name":"newPrice","type":"uint256"}],"name":"PriceUpdated","type":"event"},{"anonymous":false,"inputs":[{"indexed":false,"internalType":"uint256","name":"oldPercentage","type":"uint256"},{"indexed":false,"internalType":"uint256","name":"newPercentage","type":"uint256"}],"name":"ReferralPercentageUpdated","type":"event"},{"anonymous":false,"inputs":[{"indexed":true,"internalType":"address","name":"referrer","type":"address"},{"indexed":true,"internalType":"address","name":"referee","type":"address"}],"name":"ReferralRegistered","type":"event"},{"anonymous":false,"inputs":[{"indexed":true,"internalType":"address","name":"referrer","type":"address"},{"indexed":true,"internalType":"address","name":"referee","type":"address"},{"indexed":false,"internalType":"uint256","name":"amount","type":"uint256"}],"name":"ReferralRewardPaid","type":"event"},{"anonymous":false,"inputs":[{"indexed":true,"internalType":"address","name":"user","type":"address"},{"indexed":true,"internalType":"uint256","name":"stakeId","type":"uint256"},{"indexed":false,"internalType":"uint256","name":"reward","type":"uint256"}],"name":"RewardHarvested","type":"event"},{"anonymous":false,"inputs":[{"indexed":true,"internalType":"address","name":"buyer","type":"address"},{"indexed":true,"internalType":"address","name":"stablecoin","type":"address"},{"indexed":false,"internalType":"uint256","name":"stablecoinAmount","type":"uint256"},{"indexed":false,"internalType":"uint256","name":"ethPaid","type":"uint256"},{"indexed":false,"internalType":"uint256","name":"timestamp","type":"uint256"}],"name":"StablecoinSold","type":"event"},{"anonymous":false,"inputs":[{"indexed":true,"internalType":"address","name":"user","type":"address"},{"indexed":true,"internalType":"uint256","name":"stakeId","type":"uint256"},{"indexed":false,"internalType":"uint256","name":"amount","type":"uint256"},{"indexed":false,"internalType":"uint256","name":"lockPeriod","type":"uint256"}],"name":"Staked","type":"event"},{"anonymous":false,"inputs":[{"indexed":true,"internalType":"address","name":"buyer","type":"address"},{"indexed":true,"internalType":"address","name":"paymentMethod","type":"address"},{"indexed":false,"internalType":"uint256","name":"amountPaid","type":"uint256"},{"indexed":false,"internalType":"uint256","name":"tokensBought","type":"uint256"},{"indexed":false,"internalType":"uint256","name":"timestamp","type":"uint256"}],"name":"TokensPurchased","type":"event"},{"anonymous":false,"inputs":[{"indexed":true,"internalType":"address","name":"user","type":"address"},{"indexed":true,"internalType":"uint256","name":"stakeId","type":"uint256"},{"indexed":false,"internalType":"uint256","name":"amount","type":"uint256"}],"name":"Unstaked","type":"event"},{"inputs":[],"name":"EARLY_WITHDRAWAL_PENALTY_PERCENT","outputs":[{"internalType":"uint256","name":"","type":"uint256"}],"stateMutability":"view","type":"function"},{"inputs":[{"internalType":"uint256","name":"","type":"uint256"}],"name":"allTransactions","outputs":[{"internalType":"uint256","name":"timestamp","type":"uint256"},{"internalType":"address","name":"user","type":"address"},{"internalType":"address","name":"tokenIn","type":"address"},{"internalType":"address","name":"tokenOut","type":"address"},{"internalType":"uint256","name":"amountIn","type":"uint256"},{"internalType":"uint256","name":"amountOut","type":"uint256"},{"internalType":"string","name":"transactionType","type":"string"}],"stateMutability":"view","type":"function"},{"inputs":[],"name":"baseAPY","outputs":[{"internalType":"uint256","name":"","type":"uint256"}],"stateMutability":"view","type":"function"},{"inputs":[{"internalType":"address","name":"","type":"address"}],"name":"blockedAddresses","outputs":[{"internalType":"bool","name":"","type":"bool"}],"stateMutability":"view","type":"function"},{"inputs":[],"name":"bnbAddress","outputs":[{"internalType":"address","name":"","type":"address"}],"stateMutability":"view","type":"function"},{"inputs":[],"name":"bnbRatio","outputs":[{"internalType":"uint256","name":"","type":"uint256"}],"stateMutability":"view","type":"function"},{"inputs":[],"name":"btcAddress","outputs":[{"internalType":"address","name":"","type":"address"}],"stateMutability":"view","type":"function"},{"inputs":[],"name":"btcRatio","outputs":[{"internalType":"uint256","name":"","type":"uint256"}],"stateMutability":"view","type":"function"},{"inputs":[],"name":"buyUSDC","outputs":[],"stateMutability":"payable","type":"function"},{"inputs":[],"name":"buyUSDT","outputs":[],"stateMutability":"payable","type":"function"},{"inputs":[{"internalType":"uint256","name":"bnbAmount","type":"uint256"}],"name":"buyWithBNB","outputs":[],"stateMutability":"nonpayable","type":"function"},{"inputs":[{"internalType":"uint256","name":"btcAmount","type":"uint256"}],"name":"buyWithBTC","outputs":[],"stateMutability":"nonpayable","type":"function"},{"inputs":[],"name":"buyWithETH","outputs":[],"stateMutability":"payable","type":"function"},{"inputs":[{"internalType":"uint256","name":"solAmount","type":"uint256"}],"name":"buyWithSOL","outputs":[],"stateMutability":"nonpayable","type":"function"},{"inputs":[{"internalType":"uint256","name":"usdcAmount","type":"uint256"}],"name":"buyWithUSDC","outputs":[],"stateMutability":"nonpayable","type":"function"},{"inputs":[{"internalType":"uint256","name":"usdtAmount","type":"uint256"}],"name":"buyWithUSDT","outputs":[],"stateMutability":"nonpayable","type":"function"},{"inputs":[{"internalType":"uint256","name":"stakeId","type":"uint256"}],"name":"calculateRewards","outputs":[{"internalType":"uint256","name":"","type":"uint256"}],"stateMutability":"view","type":"function"},{"inputs":[],"name":"ethPriceForStablecoin","outputs":[{"internalType":"uint256","name":"","type":"uint256"}],"stateMutability":"view","type":"function"},{"inputs":[],"name":"ethPriceForToken","outputs":[{"internalType":"uint256","name":"","type":"uint256"}],"stateMutability":"view","type":"function"},{"inputs":[],"name":"getAllTransactions","outputs":[{"components":[{"internalType":"uint256","name":"timestamp","type":"uint256"},{"internalType":"address","name":"user","type":"address"},{"internalType":"address","name":"tokenIn","type":"address"},{"internalType":"address","name":"tokenOut","type":"address"},{"internalType":"uint256","name":"amountIn","type":"uint256"},{"internalType":"uint256","name":"amountOut","type":"uint256"},{"internalType":"string","name":"transactionType","type":"string"}],"internalType":"struct TokenICO.Transaction[]","name":"","type":"tuple[]"}],"stateMutability":"view","type":"function"},{"inputs":[],"name":"getContractInfo","outputs":[{"internalType":"address","name":"tokenAddress","type":"address"},{"internalType":"uint256","name":"tokenBalance","type":"uint256"},{"internalType":"uint256","name":"ethPrice","type":"uint256"},{"internalType":"uint256","name":"stablecoinPrice","type":"uint256"},{"internalType":"uint256","name":"totalSold","type":"uint256"},{"internalType":"address","name":"usdtAddr","type":"address"},{"internalType":"address","name":"usdcAddr","type":"address"},{"internalType":"uint256","name":"usdtTokenRatio","type":"uint256"},{"internalType":"uint256","name":"usdcTokenRatio","type":"uint256"}],"stateMutability":"view","type":"function"},{"inputs":[{"internalType":"address","name":"user","type":"address"}],"name":"getReferralInfo","outputs":[{"internalType":"address","name":"referrer","type":"address"},{"internalType":"uint256","name":"totalReferrals","type":"uint256"},{"internalType":"uint256","name":"totalRewardsEarned","type":"uint256"},{"internalType":"uint256","name":"rewardPercentage","type":"uint256"}],"stateMutability":"view","type":"function"},{"inputs":[{"internalType":"uint256","name":"stakeId","type":"uint256"}],"name":"getStakeDetails","outputs":[{"internalType":"uint256","name":"lockPeriod","type":"uint256"},{"internalType":"uint256","name":"pendingRewards","type":"uint256"},{"internalType":"bool","name":"active","type":"bool"}],"stateMutability":"view","type":"function"},{"inputs":[{"internalType":"uint256","name":"stakeId","type":"uint256"}],"name":"getStakeInfo","outputs":[{"internalType":"uint256","name":"id","type":"uint256"},{"internalType":"address","name":"stakeOwnerAddr","type":"address"},{"internalType":"uint256","name":"amount","type":"uint256"},{"internalType":"uint256","name":"startTime","type":"uint256"}],"stateMutability":"view","type":"function"},{"inputs":[],"name":"getStakingInfo","outputs":[{"internalType":"uint256","name":"baseApyRate","type":"uint256"},{"internalType":"uint256","name":"minStakingAmount","type":"uint256"},{"internalType":"uint256","name":"totalTokensStaked","type":"uint256"},{"internalType":"uint256","name":"totalRewardsPaid","type":"uint256"},{"internalType":"uint256","name":"numberOfStakers","type":"uint256"}],"stateMutability":"view","type":"function"},{"inputs":[],"name":"getTokenBalances","outputs":[{"internalType":"uint256","name":"tokenBalance","type":"uint256"},{"internalType":"uint256","name":"usdtBalance","type":"uint256"},{"internalType":"uint256","name":"usdcBalance","type":"uint256"}],"stateMutability":"view","type":"function"},{"inputs":[],"name":"getTotalPenaltyCollected","outputs":[{"internalType":"uint256","name":"","type":"uint256"}],"stateMutability":"view","type":"function"},{"inputs":[{"internalType":"address","name":"referrer","type":"address"}],"name":"getUserReferrals","outputs":[{"internalType":"address[]","name":"","type":"address[]"}],"stateMutability":"view","type":"function"},{"inputs":[{"internalType":"address","name":"user","type":"address"}],"name":"getUserStakes","outputs":[{"components":[{"internalType":"uint256","name":"id","type":"uint256"},{"internalType":"uint256","name":"amount","type":"uint256"},{"internalType":"uint256","name":"startTime","type":"uint256"},{"internalType":"uint256","name":"lockPeriod","type":"uint256"},{"internalType":"uint256","name":"lastRewardCalculation","type":"uint256"},{"internalType":"uint256","name":"pendingRewards","type":"uint256"},{"internalType":"bool","name":"active","type":"bool"}],"internalType":"struct TokenICO.Stake[]","name":"","type":"tuple[]"}],"stateMutability":"view","type":"function"},{"inputs":[{"internalType":"address","name":"user","type":"address"}],"name":"getUserStakingInfo","outputs":[{"internalType":"uint256","name":"totalUserStaked","type":"uint256"},{"internalType":"uint256","name":"totalPendingRewards","type":"uint256"},{"internalType":"uint256","name":"activeStakesCount","type":"uint256"}],"stateMutability":"view","type":"function"},{"inputs":[{"internalType":"address","name":"user","type":"address"}],"name":"getUserTransactions","outputs":[{"components":[{"internalType":"uint256","name":"timestamp","type":"uint256"},{"internalType":"address","name":"user","type":"address"},{"internalType":"address","name":"tokenIn","type":"address"},{"internalType":"address","name":"tokenOut","type":"address"},{"internalType":"uint256","name":"amountIn","type":"uint256"},{"internalType":"uint256","name":"amountOut","type":"uint256"},{"internalType":"string","name":"transactionType","type":"string"}],"internalType":"struct TokenICO.Transaction[]","name":"","type":"tuple[]"}],"stateMutability":"view","type":"function"},{"inputs":[{"internalType":"uint256","name":"stakeId","type":"uint256"}],"name":"harvestRewards","outputs":[],"stateMutability":"nonpayable","type":"function"},{"inputs":[{"internalType":"address","name":"","type":"address"}],"name":"hasStaked","outputs":[{"internalType":"bool","name":"","type":"bool"}],"stateMutability":"view","type":"function"},{"inputs":[],"name":"minStakeAmount","outputs":[{"internalType":"uint256","name":"","type":"uint256"}],"stateMutability":"view","type":"function"},{"inputs":[],"name":"nextStakeId","outputs":[{"internalType":"uint256","name":"","type":"uint256"}],"stateMutability":"view","type":"function"},{"inputs":[],"name":"owner","outputs":[{"internalType":"address","name":"","type":"address"}],"stateMutability":"view","type":"function"},{"inputs":[],"name":"referralRewardPercentage","outputs":[{"internalType":"uint256","name":"","type":"uint256"}],"stateMutability":"view","type":"function"},{"inputs":[{"internalType":"address","name":"","type":"address"}],"name":"referralRewards","outputs":[{"internalType":"uint256","name":"","type":"uint256"}],"stateMutability":"view","type":"function"},{"inputs":[{"internalType":"address","name":"","type":"address"},{"internalType":"uint256","name":"","type":"uint256"}],"name":"referrals","outputs":[{"internalType":"address","name":"","type":"address"}],"stateMutability":"view","type":"function"},{"inputs":[{"internalType":"address","name":"","type":"address"}],"name":"referrers","outputs":[{"internalType":"address","name":"","type":"address"}],"stateMutability":"view","type":"function"},{"inputs":[{"internalType":"address","name":"referrer","type":"address"}],"name":"registerReferrer","outputs":[],"stateMutability":"nonpayable","type":"function"},{"inputs":[],"name":"saleToken","outputs":[{"internalType":"address","name":"","type":"address"}],"stateMutability":"view","type":"function"},{"inputs":[{"internalType":"address","name":"user","type":"address"},{"internalType":"bool","name":"blocked","type":"bool"}],"name":"setBlockStatus","outputs":[],"stateMutability":"nonpayable","type":"function"},{"inputs":[{"internalType":"address","name":"_token","type":"address"}],"name":"setSaleToken","outputs":[],"stateMutability":"nonpayable","type":"function"},{"inputs":[],"name":"solAddress","outputs":[{"internalType":"address","name":"","type":"address"}],"stateMutability":"view","type":"function"},{"inputs":[],"name":"solRatio","outputs":[{"internalType":"uint256","name":"","type":"uint256"}],"stateMutability":"view","type":"function"},{"inputs":[{"internalType":"uint256","name":"","type":"uint256"}],"name":"stakeOwners","outputs":[{"internalType":"address","name":"","type":"address"}],"stateMutability":"view","type":"function"},{"inputs":[{"internalType":"uint256","name":"amount","type":"uint256"},{"internalType":"uint256","name":"lockPeriodDays","type":"uint256"}],"name":"stakeTokens","outputs":[],"stateMutability":"nonpayable","type":"function"},{"inputs":[],"name":"tokensSold","outputs":[{"internalType":"uint256","name":"","type":"uint256"}],"stateMutability":"view","type":"function"},{"inputs":[],"name":"totalPenaltyCollected","outputs":[{"internalType":"uint256","name":"","type":"uint256"}],"stateMutability":"view","type":"function"},{"inputs":[],"name":"totalRewardsDistributed","outputs":[{"internalType":"uint256","name":"","type":"uint256"}],"stateMutability":"view","type":"function"},{"inputs":[],"name":"totalStaked","outputs":[{"internalType":"uint256","name":"","type":"uint256"}],"stateMutability":"view","type":"function"},{"inputs":[],"name":"totalStakers","outputs":[{"internalType":"uint256","name":"","type":"uint256"}],"stateMutability":"view","type":"function"},{"inputs":[{"internalType":"uint256","name":"stakeId","type":"uint256"}],"name":"unstakeEarly","outputs":[],"stateMutability":"nonpayable","type":"function"},{"inputs":[{"internalType":"uint256","name":"stakeId","type":"uint256"}],"name":"unstakeTokens","outputs":[],"stateMutability":"nonpayable","type":"function"},{"inputs":[{"internalType":"address","name":"newAddress","type":"address"},{"internalType":"uint256","name":"newRatio","type":"uint256"}],"name":"updateBNB","outputs":[],"stateMutability":"nonpayable","type":"function"},{"inputs":[{"internalType":"address","name":"newAddress","type":"address"},{"internalType":"uint256","name":"newRatio","type":"uint256"}],"name":"updateBTC","outputs":[],"stateMutability":"nonpayable","type":"function"},{"inputs":[{"internalType":"uint256","name":"newAPY","type":"uint256"}],"name":"updateBaseAPY","outputs":[],"stateMutability":"nonpayable","type":"function"},{"inputs":[{"internalType":"uint256","name":"newMinAmount","type":"uint256"}],"name":"updateMinStakeAmount","outputs":[],"stateMutability":"nonpayable","type":"function"},{"inputs":[{"internalType":"uint256","name":"newPercentage","type":"uint256"}],"name":"updateReferralPercentage","outputs":[],"stateMutability":"nonpayable","type":"function"},{"inputs":[{"internalType":"address","name":"newAddress","type":"address"},{"internalType":"uint256","name":"newRatio","type":"uint256"}],"name":"updateSOL","outputs":[],"stateMutability":"nonpayable","type":"function"},{"inputs":[{"internalType":"uint256","name":"newPrice","type":"uint256"}],"name":"updateStablecoinPrice","outputs":[],"stateMutability":"nonpayable","type":"function"},{"inputs":[{"internalType":"uint256","name":"newPrice","type":"uint256"}],"name":"updateTokenPrice","outputs":[],"stateMutability":"nonpayable","type":"function"},{"inputs":[{"internalType":"address","name":"newAddress","type":"address"},{"internalType":"uint256","name":"newRatio","type":"uint256"}],"name":"updateUSDC","outputs":[],"stateMutability":"nonpayable","type":"function"},{"inputs":[{"internalType":"address","name":"newAddress","type":"address"},{"internalType":"uint256","name":"newRatio","type":"uint256"}],"name":"updateUSDT","outputs":[],"stateMutability":"nonpayable","type":"function"},{"inputs":[],"name":"usdcAddress","outputs":[{"internalType":"address","name":"","type":"address"}],"stateMutability":"view","type":"function"},{"inputs":[],"name":"usdcRatio","outputs":[{"internalType":"uint256","name":"","type":"uint256"}],"stateMutability":"view","type":"function"},{"inputs":[],"name":"usdtAddress","outputs":[{"internalType":"address","name":"","type":"address"}],"stateMutability":"view","type":"function"},{"inputs":[],"name":"usdtRatio","outputs":[{"internalType":"uint256","name":"","type":"uint256"}],"stateMutability":"view","type":"function"},{"inputs":[{"internalType":"address","name":"","type":"address"},{"internalType":"uint256","name":"","type":"uint256"}],"name":"userStakes","outputs":[{"internalType":"uint256","name":"id","type":"uint256"},{"internalType":"uint256","name":"amount","type":"uint256"},{"internalType":"uint256","name":"startTime","type":"uint256"},{"internalType":"uint256","name":"lockPeriod","type":"uint256"},{"internalType":"uint256","name":"lastRewardCalculation","type":"uint256"},{"internalType":"uint256","name":"pendingRewards","type":"uint256"},{"internalType":"bool","name":"active","type":"bool"}],"stateMutability":"view","type":"function"},{"inputs":[{"internalType":"address","name":"","type":"address"},{"internalType":"uint256","name":"","type":"uint256"}],"name":"userTransactions","outputs":[{"internalType":"uint256","name":"timestamp","type":"uint256"},{"internalType":"address","name":"user","type":"address"},{"internalType":"address","name":"tokenIn","type":"address"},{"internalType":"address","name":"tokenOut","type":"address"},{"internalType":"uint256","name":"amountIn","type":"uint256"},{"internalType":"uint256","name":"amountOut","type":"uint256"},{"internalType":"string","name":"transactionType","type":"string"}],"stateMutability":"view","type":"function"},{"inputs":[{"internalType":"address","name":"_token","type":"address"},{"internalType":"uint256","name":"_amount","type":"uint256"}],"name":"withdrawTokens","outputs":[],"stateMutability":"nonpayable","type":"function"}],"evm":{"bytecode":{"linkReferences":{},"object":"60a080604052346100f55766038d7ea4c6800080600655600755600c60125568056bc75e2d6310000060135560016019556005601b5533608052601460085560146009556014600a556014600c55614bc390816100fb8239608051818181610459015281816107210152818161081401528181610b4001528181610e0301528181610f15015281816110d8015281816111d4015281816116a101528181611a5a01528181611b6a01528181611c120152818161206a0152818161250f0152818161292e015281816129ae01528181612f24015281816130c2015281816131c5015281816132b30152818161340b01526136580152f35b600080fdfe6080604081815260048036101561001557600080fd5b60009260e08435811c91826302d45457146137ca57508163032d975b146137aa57816306360b85146135ba57816306b091f9146133ea578163098134821461331a578163150d283d14613215578163182a676b146131635781631c042d35146131435781631ce24e16146131195781631e37c60614613095578163214405a91461307557816321874ae214613014578163251545da14612e1457816327506f5314612d345781632bb38809146125f45781632fd04c0814612a05578163366b17d6146129815781633a94be2d146129005781633b7b618814612614578163491cc756146125f45781634a3b68cc146125b85781634cdb312d146124f35781634f93208a146124b4578163518ab2a81461249457816353aaa63b1461245b57816357126d0d1461222b578163575cea6b146121805781635b36504014611f5a578163608e4dd014611c8057816363219c7214611bd3578163676c0d7714611b2b5781636f43f37314611b0b57816371d20fe714611a3e57816375506c9614611a1e5781637a9773dc146119fe5781637cc1f8671461191b5781638093360814611838578163817b1cd21461181857816383fabe03146117f8578163842e2981146116f057816386989038146116d05781638da5cb5b1461168b578163920a253e1461166b578163963c9dd3146115905781639ab4a445146115665781639c0fbd05146115495781639ea7685a1461138f578163a1dc903114611219578163a29f481c146111ab578163a7c601601461101d578163aeccf73514610e5a578163b006984f14610dd6578163b40cd21d14610d94578163b5d5b5fa14610d0157508063b842ec4414610c83578063c3333dfb14610aba578063c605af5314610a9b578063c93c8f3414610a5d578063d11c583a14610a34578063d3ea435014610a0d578063d7ff0714146108c5578063d8060cd5146107f9578063e697b5d8146107a0578063e985e36714610778578063ebcd3a13146106f5578063ee172546146106d6578063ef925399146105f8578063f1887684146105d9578063f30ef2e5146103bc578063f34a00fb14610399578063f7d76ae5146103725763fd9a11e51461033d57600080fd5b3461036e57602036600319011261036e5735825260156020908152918190205490516001600160a01b039091168152f35b8280fd5b503461036e578260031936011261036e575490516001600160a01b03909116815260209150f35b5050346103b857816003193601126103b8576020906007549051908152f35b5080fd5b503461036e576020806003193601126105d557813590338552600e81526103e960ff858720541615613bcb565b6103f4821515613d73565b84546001600160a01b03939061040d9085161515613c48565b836005541691821561059e57610425600c5485613c89565b92633b9aca009384810294818604149015171561058b5786516323b872dd60e01b8152338482019081526001600160a01b037f0000000000000000000000000000000000000000000000000000000000000000166020820152604081018790529091839183919082908c90829060600103925af1908115610581578891610554575b501561051c575050600080516020614b6e833981519152916104cb6105169261427a565b936104d5856144b4565b6104f281600554168684848b54166104eb613d54565b9333614a6c565b60055416945191829133954291846040919493926060820195825260208201520152565b0390a380f35b855162461bcd60e51b815291820152601360248201527214d3d3081d1c985b9cd9995c8819985a5b1959606a1b604482015260649150fd5b6105749150823d841161057a575b61056c81836139b7565b810190613e01565b386104a7565b503d610562565b87513d8a823e3d90fd5b634e487b7160e01b885260118352602488fd5b855162461bcd60e51b815291820152601260248201527114d3d3081b9bdd0818dbdb999a59dd5c995960721b604482015260649150fd5b8380fd5b5050346103b857816003193601126103b8576020906013549051908152f35b508290346103b857602091826003193601126106d3576001600160a01b0392836106206137ef565b168252600f81528482209182549361063785614ac8565b95610644885197886139b7565b85875283870194835283832092945b86861061066b578851806106678a8261384a565b0390f35b6007856001928b5161067c81613969565b8754815285858901541683820152856002890154168d820152856003890154166060820152868801546080820152600588015460a08201526106c0600689016139d9565b60c0820152815201940195019492610653565b80fd5b5050346103b857816003193601126103b8576020906017549051908152f35b5050346103b8573660031901126106d35761070e6137ef565b602435906001600160a01b0390610748337f0000000000000000000000000000000000000000000000000000000000000000841614613adc565b16610754811515613b51565b61075f821515613b8f565b6001600160601b0360a01b6005541617600555600c5580f35b5050346103b857816003193601126103b857905490516001600160a01b039091168152602090f35b5050346103b857806003193601126103b8576107ba6137ef565b6001600160a01b039081168352601d602052818320805460243594908510156106d357506020936107ea91613ac4565b92905490519260031b1c168152f35b503461036e57602036600319011261036e57803590610842337f00000000000000000000000000000000000000000000000000000000000000006001600160a01b031614613adc565b81156108825750907f171aabb8815c02fd00303450a77058600e3661eb75ce2e77972c0f080bc7099d91601354908060135582519182526020820152a180f35b606490602084519162461bcd60e51b8352820152602060248201527f4d696e207374616b65206d7573742062652067726561746572207468616e20306044820152fd5b503461036e57602036600319011261036e573560105481101561036e57601060079293520290610667827f1b6847dc741a1b0cd08d278845f9d819d87b734759afb55fe2de5cb82a9ae67201549160018060a01b0393847f1b6847dc741a1b0cd08d278845f9d819d87b734759afb55fe2de5cb82a9ae6738201541694807f1b6847dc741a1b0cd08d278845f9d819d87b734759afb55fe2de5cb82a9ae67483015416907f1b6847dc741a1b0cd08d278845f9d819d87b734759afb55fe2de5cb82a9ae675830154167f1b6847dc741a1b0cd08d278845f9d819d87b734759afb55fe2de5cb82a9ae67683015491610a027f1b6847dc741a1b0cd08d278845f9d819d87b734759afb55fe2de5cb82a9ae6787f1b6847dc741a1b0cd08d278845f9d819d87b734759afb55fe2de5cb82a9ae67786015495016139d9565b945197889788613a7f565b5091346106d35760203660031901126106d35750610a2d6020923561402e565b9051908152f35b5050346103b857816003193601126103b85760035490516001600160a01b039091168152602090f35b5050346103b85760203660031901126103b85760209160ff9082906001600160a01b03610a886137ef565b168152601a855220541690519015158152f35b5050346103b857816003193601126103b8576020906006549051908152f35b503461036e576020806003193601126105d557813590338552600e8152610ae760ff858720541615613bcb565b610af2821515613d73565b84546001600160a01b039390610b0b9085161515613c48565b8360035416918215610c4c57610b23600a5485613c89565b86516323b872dd60e01b8152338482019081526001600160a01b037f000000000000000000000000000000000000000000000000000000000000000016602082015260408101879052919490918391839182908c90829060600103925af1908115610581578891610c2f575b5015610bf7575050600080516020614b6e83398151915291610bb36105169261427a565b93610bbd856144b4565b610bd381600354168684848b54166104eb613d54565b60035416945191829133954291846040919493926060820195825260208201520152565b855162461bcd60e51b8152918201526013602482015272109390881d1c985b9cd9995c8819985a5b1959606a1b604482015260649150fd5b610c469150823d841161057a5761056c81836139b7565b38610b8f565b855162461bcd60e51b8152918201526012602482015271109390881b9bdd0818dbdb999a59dd5c995960721b604482015260649150fd5b509190346103b857806003193601126103b857610c9e6137ef565b6001600160a01b039081168352600f60205281832080549193602435928310156106d357506106679291610cd1916138fd565b50805493806001830154169581600284015416916003840154169083015491610a026006600586015495016139d9565b939050346106d357826003193601126106d357610d1c6137ef565b6001600160a01b031681526014602052828120805460243592908310156106d3575090610d48916138fd565b5080549260018201549260028301546003840154918401549260ff600660058701549601541695815197885260208801528601526060850152608084015260a0830152151560c0820152f35b505050346103b857816003193601126103b85760a090601254906013549060165460175491601854938151958652602086015284015260608301526080820152f35b505050346103b8573660031901126106d357610df06137ef565b602435906001600160a01b0390610e2a337f0000000000000000000000000000000000000000000000000000000000000000841614613adc565b16610e36811515613b51565b610e41821515613b8f565b6001600160601b0360a01b600154161760015560085580f35b50503461036e57602036600319011261036e57803590338452600e602052610e8860ff848620541615613bcb565b811591610e958315613d73565b84546001600160a01b039390610eae9085161515613c48565b8360025416610ebe811515613e5c565b620f4240918284029284840414171561100a57610edd60095484613c89565b93670de0b6b3a764000094858102958187041490151715610ff75786516323b872dd60e01b8152339181019182526001600160a01b037f0000000000000000000000000000000000000000000000000000000000000000166020838101919091526040830194909452939291849182908a90829060600103925af18015610fed57600080516020614b6e83398151915293610f86610f8b92610516958a91610fcf575b50613e9e565b61427a565b93610f95856144b4565b610fab81600254168684848b54166104eb613d54565b60025416945191829133954291846040919493926060820195825260208201520152565b610fe7915060203d811161057a5761056c81836139b7565b38610f80565b85513d88823e3d90fd5b634e487b7160e01b885260119052602487fd5b634e487b7160e01b875260118452602487fd5b50503461036e57602036600319011261036e57803590338452600e60205261104b60ff848620541615613bcb565b8115916110588315613d73565b84546001600160a01b0393906110719085161515613c48565b8360015416611081811515613dbf565b620f4240918284029284840414171561100a576110a060085484613c89565b93670de0b6b3a764000094858102958187041490151715610ff75786516323b872dd60e01b8152339181019182526001600160a01b037f0000000000000000000000000000000000000000000000000000000000000000166020838101919091526040830194909452939291849182908a90829060600103925af18015610fed57600080516020614b6e83398151915293610f8661114992610516958a9161118d575b50613e19565b93611153856144b4565b61116981600154168684848b54166104eb613d54565b60015416945191829133954291846040919493926060820195825260208201520152565b6111a5915060203d811161057a5761056c81836139b7565b38611143565b84346106d35760203660031901126106d3576111c56137ef565b6001600160a01b03906111fb337f0000000000000000000000000000000000000000000000000000000000000000841614613adc565b16611207811515613b51565b81546001600160a01b03191617815580f35b5050903461036e578260031936011261036e57825481516370a0823160e01b808252308286015290946001600160a01b03946020938490889060249082908a165afa958615611385578296611355575b602497508481600154168751998a809288825230878301525afa97881561134b57839861131b575b509060248592600254169487519586938492835230908301525afa92831561130f5781936112dc575b5050506106679151938493846040919493926060820195825260208201520152565b9091809350813d8311611308575b6112f481836139b7565b810103126106d357505161066738806112ba565b503d6112ea565b508351903d90823e3d90fd5b9097508481813d8311611344575b61133381836139b7565b8101031261036e5751966024611291565b503d611329565b86513d85823e3d90fd5b95508387813d831161137e575b61136c81836139b7565b810103126103b8576024965195611269565b503d611362565b85513d84823e3d90fd5b828585346103b8576020908160031936011261036e576113ad6137ef565b90338452600e83526113c560ff828620541615613bcb565b6001600160a01b03918216928315611507573384146114cd57338552601c815282828620541661148057338552601c815281852080546001600160a01b03191685179055838552601d90528320805490600160401b82101561146d579061143191600182018155613ac4565b819291549060031b9133831b921b191617905533907f5f1ca2fcc108b751843a763e60d2201f593516109d7dbb1b700468f2d4190bb78380a380f35b634e487b7160e01b855260418652602485fd5b8590608492519162461bcd60e51b8352820152602260248201527f416c72656164792072656769737465726564207769746820612072656665727260448201526132b960f11b6064820152fd5b8590606492519162461bcd60e51b8352820152601560248201527421b0b73737ba103932b332b9103cb7bab939b2b63360591b6044820152fd5b8590606492519162461bcd60e51b8352820152601860248201527f496e76616c6964207265666572726572206164647265737300000000000000006044820152fd5b505050346103b857816003193601126103b8576020905160058152f35b505050346103b857816003193601126103b85760015490516001600160a01b039091168152602090f35b50503461036e57602090816003193601126105d5573580845260158252828420546001600160a01b0316939092906115c9851515613f61565b6115d1614b35565b8195825b81845260148087528585208054831015611656576115f4838a926138fd565b50541461160a575061160590613f45565b6115d5565b6060985061162d93508486916116279461163d97528852206138fd565b50614ae0565b936116386001613fa4565b61402e565b60c0858501519401511515928251948552840152820152f35b505050509361163d9150611638606096613fa4565b505050346103b857816003193601126103b857602090601b549051908152f35b505050346103b857816003193601126103b857517f00000000000000000000000000000000000000000000000000000000000000006001600160a01b03168152602090f35b505050346103b857816003193601126103b8576020906018549051908152f35b9150503461036e576020806003193601126105d55790916001600160a01b036117176137ef565b168452601482528084209182549161172e83614ac8565b9261173b825194856139b7565b8084528284018095885283882088915b8383106117cb575050505080519482860193838752518094528186019496915b8483106117785786860387f35b87518051875280850151878601528082015187830152606080820151908801526080808201519088015260a0808201519088015260c090810151151590870152968301969481019460019092019161176b565b6007866001926117e2859d999a9b9d9c989c614ae0565b815201920192019190989695949897939761174b565b505050346103b857816003193601126103b8576020906008549051908152f35b505050346103b857816003193601126103b8576020906016549051908152f35b8385346106d357602090816003193601126106d3576118556137ef565b9091829182919082906001600160a01b0316815b818652601480855288872080548310156119035760ff600661188c858d946138fd565b500154166118a5575b50506118a090613f45565b611869565b8296946118d3839a60016118ca6118a0976118f5968e6118fb998e8d835252206138fd565b50015490613f54565b99858a5287526118ef6118e8898d8c206138fd565b505461402e565b90613f54565b93613f45565b949088611895565b89518981526020810186905260408101889052606090f35b929050346105d557836003193601126105d557835481516370a0823160e01b815230938101939093526001600160a01b039081169390602084602481885afa9384156119f45786946119b8575b50610120955060065490600754600d54908260015416926002541693600854966009549881519a8b5260208b01528901526060880152608087015260a086015260c0850152830152610100820152f35b9093506020813d82116119ec575b816119d3602093836139b7565b810103126119e8576101209550519238611968565b8580fd5b3d91506119c6565b83513d88823e3d90fd5b505050346103b857816003193601126103b857602090600c549051908152f35b505050346103b857816003193601126103b8576020906019549051908152f35b50503461036e57602036600319011261036e57803590611a88337f00000000000000000000000000000000000000000000000000000000000000006001600160a01b031614613adc565b8115611ac85750907f787a1fca55641ce34a438271930bbb9401df20db2b4f510d4f252227d85df43d91601254908060125582519182526020820152a180f35b606490602084519162461bcd60e51b8352820152601a60248201527f415059206d7573742062652067726561746572207468616e20300000000000006044820152fd5b505050346103b857816003193601126103b8576020906009549051908152f35b50503461036e57602036600319011261036e577f6e838f2a03741f5f2aff5480963b672fb0dd8430a4dc75db9b67ce009733c9fe9160a09135611b98337f00000000000000000000000000000000000000000000000000000000000000006001600160a01b031614613adc565b611ba3811515613b15565b60065491816006558051926060845260056060850152642a27a5a2a760d91b60808501526020840152820152a180f35b50503461036e57602036600319011261036e577f6e838f2a03741f5f2aff5480963b672fb0dd8430a4dc75db9b67ce009733c9fe9160a09135611c40337f00000000000000000000000000000000000000000000000000000000000000006001600160a01b031614613adc565b611c4b811515613b15565b600754918160075580519260608452600a60608501526929aa20a12622a1a7a4a760b11b60808501526020840152820152a180f35b5050903461036e57602090816003193601126105d5578291923592338552600e815260ff611cb381848820541615613bcb565b84865260158252828620546001600160a01b0390611cd4908216331461423c565b8694859283805b338b526014808852888c208054831015611f46579a611cfc83829c9d6138fd565b505414611d155750611d0d90613f45565b989798611cdb565b955097985050338952838552611d3e611d3088888c206138fd565b509160068093015416613fe2565b3389528385526002611d5288888c206138fd565b500154338a528486526003611d6989898d206138fd565b500154906201518091828102928184041490151715611f335790611d8c91613f54565b4210611efb57918491611def8a611e3595611dd1611da98d61402e565b9b3384528988528b611dbd828287206138fd565b50946001809601549b3382528a52206138fd565b500160ff1981541690556016611de8888254614021565b9055613fa4565b611df8336143fb565b611e028886613f54565b8a54885163a9059cbb60e01b8152339381019384526020840192909252909485939091169183918c918391604090910190565b03925af1908115611ef15790611e52918891611ed4575b50613f01565b848415159182611ec0575b84519081527f7fc4727e062e336010f2c282598ef5f14facb3de68cf8195c2f23e1454b2b74e843392a3611e8f578480f35b7ff87cfa2d5feaea949ad65bb76a26d8553381bcb6382adbc83dedd48961bf32d991519283523392a3388080808480f35b611ecc86601754613f54565b601755611e5d565b611eeb9150843d861161057a5761056c81836139b7565b38611e4c565b84513d89823e3d90fd5b606482858789519262461bcd60e51b845283015260248201527314dd1a5b1b081a5b881b1bd8dac81c195c9a5bd960621b6044820152fd5b634e487b7160e01b8b526011845260248bfd5b505050611e3593915091611def8693613fa4565b50508260031936011261036e573383526020600e8152611f8060ff848620541615613bcb565b341590611f8d8215613c0c565b6001546001600160a01b039290831690611fa8821515613dbf565b620f4240908134029134830414171561216d57600754611fc791613cb2565b9385516370a0823160e01b815230828201528381602481865afa80156105815786918991612138575b50106120f557855163a9059cbb60e01b81523391810191825260208201869052939291829185919082908a90829060400103925af18015610fed577f48a1f8a6c840b32621ceab4439a2ccd00b337e705dfdcdec0b40c49abf3e6be39361205f9288926120d8575b5050613e19565b61209a8580808034867f0000000000000000000000000000000000000000000000000000000000000000165af1612094613cd2565b50613d12565b6120b48160015416846120ab613ee1565b91349033614a0d565b60015493519283523460208401524260408401529092169133918060608101610516565b6120ee9250803d1061057a5761056c81836139b7565b3880612058565b855162461bcd60e51b8152908101839052601b60248201527f496e73756666696369656e742055534454206c697175696469747900000000006044820152606490fd5b809250858092503d8311612166575b61215181836139b7565b810103126121625785905138611ff0565b8780fd5b503d612147565b634e487b7160e01b875260118552602487fd5b505050346103b85760208060031936011261036e576001600160a01b0392836121a76137ef565b168152601d825282812091835190818185549182815201908195855282852090855b81811061221557505050826121df9103836139b7565b8451948186019282875251809352850193925b8281106121ff5785850386f35b83518716855293810193928101926001016121f2565b82548a16845292840192600192830192016121c9565b838584346103b8576020908160031936011261036e57803591338452600e815260ff9461225d86828720541615613bcb565b83855260159283835260018060a01b0361227d3382858a2054161461423c565b86875b3389526014808752858a2080548310156124465761229f838b926138fd565b5054146122b557506122b090613f45565b612280565b915091929394959697986122e09060066122d785898e338152878d52206138fd565b50015416613fe2565b6122e98861402e565b96871561240d57509061231b91338a5280875289600561230b848984206138fd565b500155338a5286528489206138fd565b5042908301558654835163a9059cbb60e01b815233818501908152602081018890529092869284928390036040019183918c91165af19081156124035787916123e6575b50156123ac5750907ff87cfa2d5feaea949ad65bb76a26d8553381bcb6382adbc83dedd48961bf32d9916017612396858254613f54565b9055519283523392a36123a96001613fa4565b80f35b82606492519162461bcd60e51b8352820152601660248201527514995dd85c99081d1c985b9cd9995c8819985a5b195960521b6044820152fd5b6123fd9150843d861161057a5761056c81836139b7565b8761235f565b83513d89823e3d90fd5b846064918888519262461bcd60e51b8452830152602482015274139bc81c995dd85c991cc81d1bc81a185c9d995cdd605a1b6044820152fd5b505050955050505050506123a9919250613fa4565b505050346103b85760203660031901126103b85760209181906001600160a01b036124846137ef565b168152601e845220549051908152f35b505050346103b857816003193601126103b857602090600d549051908152f35b505050346103b85760203660031901126103b85760209160ff9082906001600160a01b036124e06137ef565b168152600e855220541690519015158152f35b50503461036e57602036600319011261036e5780359061253d337f00000000000000000000000000000000000000000000000000000000000000006001600160a01b031614613adc565b6014821161257f5750907fd968a3cc702265c3ab67356df15ca21d50167b011f198b963e2a868e04e3d5e091601b549080601b5582519182526020820152a180f35b606490602084519162461bcd60e51b835282015260136024820152720a0cae4c6cadce8c2ceca40e8dede40d0d2ced606b1b6044820152fd5b505050346103b85760203660031901126103b8576020916001600160a01b03908290826125e36137ef565b168152601c85522054169051908152f35b505050346103b857816003193601126103b8576020906011549051908152f35b828585346103b857806003193601126103b857823560243591338452602092600e845261264760ff838720541615613bcb565b60135483106128bd5784546001600160a01b0316612666811515613c48565b601e821480156128b3575b80156128a9575b801561289e575b156128655782516323b872dd60e01b815233818901908152306020820152604081018690529091869183919082908a90829060600103925af19081156119f457906126d09187916128485750613f01565b601954936126dd85613f45565b60195582516126eb81613969565b85815281810185815284820142815260608301858152608084019042825260a08501928b845260c086019460018652338d5260148852898d20805490600160401b8210156128345790612743916001820181556138fd565b97909761282257927fb4caaf29adda3eefee3ad552a8e85058589bf834c7466cae4ee58787f70589ed9b9c9d9e926127b29897959260069795518955516001890155516002880155516003870155519085015551600584015551151591019060ff801983541691151516179055565b85875260158152828720336001600160601b0360a01b8254161790556127da85601654613f54565b601655338752601a8152828720805460ff811615612803575b505082519485528401523392a380f35b60ff1916600117905560185461281890613f45565b60185587806127f3565b634e487b7160e01b8e528d8f5260248efd5b8f8f6041602492634e487b7160e01b835252fd5b61285f9150863d881161057a5761056c81836139b7565b88611e4c565b825162461bcd60e51b81528088018690526013602482015272125b9d985b1a59081b1bd8dac81c195c9a5bd9606a1b6044820152606490fd5b5061016d821461267f565b5060b48214612678565b50605a8214612671565b815162461bcd60e51b8152808701859052601a60248201527f416d6f756e742062656c6f77206d696e696d756d207374616b650000000000006044820152606490fd5b5050903461036e573660031901126103b85761291a6137ef565b60243591906001600160a01b0390612955337f0000000000000000000000000000000000000000000000000000000000000000841614613adc565b16612961811515613b51565b61296c831515613b8f565b81546001600160a01b031916179055600b5580f35b505050346103b8573660031901126106d35761299b6137ef565b602435906001600160a01b03906129d5337f0000000000000000000000000000000000000000000000000000000000000000841614613adc565b166129e1811515613b51565b6129ec821515613b8f565b6001600160601b0360a01b6003541617600355600a5580f35b505091346106d357602092836003193601126103b857803590338352600e855260ff91612a3783868620541615613bcb565b80845260158652848420546001600160a01b039690612a59908816331461423c565b8495855b33875260148084528288208054831015612d2157612a7c8387926138fd565b505414612a925750612a8d90613f45565b612a5d565b9192939495969750338852818452612abd612aaf82858b206138fd565b509760068099015416613fe2565b3388528184526002612ad182858b206138fd565b5001543389528285526003612ae883868c206138fd565b500154906201518091828102928184041490151715612d0e5799612b1386928b9c9b98999a9b613f54565b92612b1d8961402e565b9a338952858452612b3082888b206138fd565b5091876001809401549a80974210612cb4575b90612b599291612bb998993382528852206138fd565b500160ff1981541690556016612b70898254614021565b905598612b868b612b81878b614021565b613f54565b8c54875163a9059cbb60e01b8152339381019384526020840192909252909485939091169183918e918391604090910190565b03925af1908115612caa5797612bda8792612c1a9a8c91612c935750613f01565b80612c53575b50508015612c23577f9c9ec3cfa814b0112b71c20d0b0ab54dead00a99fd389c174df717d2f1d364039282519485528401523392a3613fa4565b6123a9336143fb565b50907f7fc4727e062e336010f2c282598ef5f14facb3de68cf8195c2f23e1454b2b74e91519283523392a3613fa4565b6017612c60828254613f54565b905583519081527ff87cfa2d5feaea949ad65bb76a26d8553381bcb6382adbc83dedd48961bf32d9853392a38438612be0565b611eeb9150873d891161057a5761056c81836139b7565b83513d8b823e3d90fd5b50509193509193506005808902908982041489151715612cfb5791612b59889492888f6064612bb9999704996011612ced8c8254613f54565b905599985090919250612b43565b634e487b7160e01b8d5260118b5260248dfd5b634e487b7160e01b8a526011885260248afd5b50505050505050509150612c1a90613fa4565b505082346106d357806003193601126106d3579060105490612d5582614ac8565b92612d62855194856139b7565b82845260108152906020907f1b6847dc741a1b0cd08d278845f9d819d87b734759afb55fe2de5cb82a9ae672908286015b858510612da757875180610667898261384a565b6007846001928a51612db881613969565b86548152848060a01b0380868901541684830152806002890154168d8301526003880154166060820152858701546080820152600587015460a0820152612e01600688016139d9565b60c0820152815201930194019391612d93565b50508260031936011261036e573383526020600e8152612e3a60ff848620541615613bcb565b341590612e478215613c0c565b6002546001600160a01b039290831690612e62821515613e5c565b620f4240908134029134830414171561216d57600754612e8191613cb2565b9385516370a0823160e01b815230828201528381602481865afa80156105815786918991612fe3575b5010612fa057855163a9059cbb60e01b81523391810191825260208201869052939291829185919082908a90829060400103925af18015610fed577f48a1f8a6c840b32621ceab4439a2ccd00b337e705dfdcdec0b40c49abf3e6be393612f19928892612f83575b5050613e9e565b612f4e8580808034867f0000000000000000000000000000000000000000000000000000000000000000165af1612094613cd2565b612f5f8160025416846120ab613ee1565b60025493519283523460208401524260408401529092169133918060608101610516565b612f999250803d1061057a5761056c81836139b7565b3880612f12565b855162461bcd60e51b8152908101839052601b60248201527f496e73756666696369656e742055534443206c697175696469747900000000006044820152606490fd5b809250858092503d831161300d575b612ffc81836139b7565b810103126121625785905138612eaa565b503d612ff2565b505050346103b85760203660031901126103b8576080916001600160a01b038061303c6137ef565b168252601c602052828220541691601d602052808083205492601e602052205490601b5492815194855260208501528301526060820152f35b505050346103b857816003193601126103b8576020906012549051908152f35b505050346103b8573660031901126106d3576130af6137ef565b602435906001600160a01b03906130e9337f0000000000000000000000000000000000000000000000000000000000000000841614613adc565b166130f5811515613b51565b613100821515613b8f565b6001600160601b0360a01b600254161760025560095580f35b505050346103b857816003193601126103b85760055490516001600160a01b039091168152602090f35b505050346103b857816003193601126103b857602090600b549051908152f35b505050346103b857806003193601126103b85761317e6137ef565b9060243591821515808403613211577fdda6207409a585801122fb885dcaa8074f9a21f25ff2def680c67f01a86c2c9b92602092613209906001600160a01b03906131ec337f0000000000000000000000000000000000000000000000000000000000000000841614613adc565b1695868852600e85528288209060ff801983541691151516179055565b51908152a280f35b8480fd5b828585816003193601126103b857338252600e60205261323b60ff828420541615613bcb565b3415906132488215613c0c565b82546001600160a01b0392906132619084161515613c48565b670de0b6b3a76400009081340291348304141715613307578392916132e961329e610f86600080516020614b6e8339815191529460065490613cb2565b936132a8856144b4565b6132dd8680808034867f0000000000000000000000000000000000000000000000000000000000000000165af1612094613cd2565b855416846120ab613d54565b51348152602081019290925242604083015233918060608101610516565b634e487b7160e01b845260118552602484fd5b838584346103b8576020908160031936011261036e5735928383526015825260018060a01b03818420541692613351841515613f61565b613359614b35565b8195825b868452601480875285852080548310156133d85761337c8385926138fd565b505414613392575061338d90613f45565b61335d565b60809850611627935085919250936133af948882528752206138fd565b906133ba6001613fa4565b81519381848401519301519382519586528501528301526060820152f35b505050509190506133ba608095613fa4565b5050903461036e578060031936011261036e576134056137ef565b602435907f00000000000000000000000000000000000000000000000000000000000000006001600160a01b0361343f3382841614613adc565b8087541692169182146134fa575b835163a9059cbb60e01b81526001600160a01b03909116858201908152602081810194909452909291839182908890829060400103925af19081156134f05784916134d2575b501561349d578280f35b906020606492519162461bcd60e51b8352820152600f60248201526e151c985b9cd9995c8819985a5b1959608a1b6044820152fd5b6134ea915060203d811161057a5761056c81836139b7565b38613493565b82513d86823e3d90fd5b83516370a0823160e01b81523086820152602081602481865afa80156135b0578790613579575b61352f915060165490614021565b83111561344d57835162461bcd60e51b8152602081870152601d60248201527f43616e6e6f74207769746864726177207374616b656420746f6b656e730000006044820152606490fd5b506020813d82116135a8575b81613592602093836139b7565b810103126135a45761352f9051613521565b8680fd5b3d9150613585565b85513d89823e3d90fd5b50503461036e576020806003193601126105d557813590338552600e81526135e860ff858720541615613bcb565b6135f3821515613d73565b84546001600160a01b03919061360c9083161515613c48565b8184541690811561377357613623600b5485613c89565b916402540be400928381029381850414901517156137605786516323b872dd60e01b8152338782019081526001600160a01b037f0000000000000000000000000000000000000000000000000000000000000000166020820152604081018790529091839183919082908c90829060600103925af1908115610581578891613743575b501561370b575091610516916136ca600080516020614b6e8339815191529461427a565b946136d4866144b4565b6136e9828254168785858c54166104eb613d54565b5416945191829133954291846040919493926060820195825260208201520152565b8460649187519162461bcd60e51b83528201526013602482015272109510c81d1c985b9cd9995c8819985a5b1959606a1b6044820152fd5b61375a9150823d841161057a5761056c81836139b7565b386136a6565b634e487b7160e01b885260118652602488fd5b8460649187519162461bcd60e51b83528201526012602482015271109510c81b9bdd0818dbdb999a59dd5c995960721b6044820152fd5b505050346103b857816003193601126103b857602090600a549051908152f35b8590346103b857816003193601126103b8576002546001600160a01b03168152602090f35b600435906001600160a01b038216820361380557565b600080fd5b919082519283825260005b848110613836575050826000602080949584010152601f8019910116010190565b602081830181015184830182015201613815565b602080820190808352835180925260409283810182858560051b8401019601946000925b85841061387f575050505050505090565b9091929394959685806138ec600193603f198682030188528b5180518252858060a01b0380858301511685840152808983015116898401526060908183015116908301526080808201519083015260a0808201519083015260c0809101519160e08092820152019061380a565b99019401940192959493919061386e565b8054821015613919576000526007602060002091020190600090565b634e487b7160e01b600052603260045260246000fd5b90600182811c9216801561395f575b602083101461394957565b634e487b7160e01b600052602260045260246000fd5b91607f169161393e565b60e0810190811067ffffffffffffffff82111761398557604052565b634e487b7160e01b600052604160045260246000fd5b6040810190811067ffffffffffffffff82111761398557604052565b90601f8019910116810190811067ffffffffffffffff82111761398557604052565b90604051918260008254926139ed8461392f565b908184526001948581169081600014613a5c5750600114613a19575b5050613a17925003836139b7565b565b9093915060005260209081600020936000915b818310613a44575050613a1793508201013880613a09565b85548884018501529485019487945091830191613a2c565b915050613a1794506020925060ff191682840152151560051b8201013880613a09565b9360e09592613ac198979492865260018060a01b0392838092166020880152166040860152166060840152608083015260a08201528160c0820152019061380a565b90565b80548210156139195760005260206000200190600090565b15613ae357565b60405162461bcd60e51b815260206004820152600a60248201526927b7363c9037bbb732b960b11b6044820152606490fd5b15613b1c57565b60405162461bcd60e51b815260206004820152600d60248201526c496e76616c696420707269636560981b6044820152606490fd5b15613b5857565b60405162461bcd60e51b815260206004820152600f60248201526e496e76616c6964206164647265737360881b6044820152606490fd5b15613b9657565b60405162461bcd60e51b815260206004820152600d60248201526c496e76616c696420726174696f60981b6044820152606490fd5b15613bd257565b60405162461bcd60e51b81526020600482015260126024820152711059191c995cdcc81a5cc8189b1bd8dad95960721b6044820152606490fd5b15613c1357565b60405162461bcd60e51b815260206004820152600d60248201526c09aeae6e840e6cadcc8408aa89609b1b6044820152606490fd5b15613c4f57565b60405162461bcd60e51b815260206004820152601260248201527114d85b19481d1bdad95b881b9bdd081cd95d60721b6044820152606490fd5b81810292918115918404141715613c9c57565b634e487b7160e01b600052601160045260246000fd5b8115613cbc570490565b634e487b7160e01b600052601260045260246000fd5b3d15613d0d573d9067ffffffffffffffff82116139855760405191613d01601f8201601f1916602001846139b7565b82523d6000602084013e565b606090565b15613d1957565b60405162461bcd60e51b8152602060048201526013602482015272115512081d1c985b9cd9995c8819985a5b1959606a1b6044820152606490fd5b60405190613d618261399b565b600382526242555960e81b6020830152565b15613d7a57565b60405162461bcd60e51b815260206004820152601d60248201527f416d6f756e74206d7573742062652067726561746572207468616e20300000006044820152606490fd5b15613dc657565b60405162461bcd60e51b81526020600482015260136024820152721554d115081b9bdd0818dbdb999a59dd5c9959606a1b6044820152606490fd5b90816020910312613805575180151581036138055790565b15613e2057565b60405162461bcd60e51b81526020600482015260146024820152731554d115081d1c985b9cd9995c8819985a5b195960621b6044820152606490fd5b15613e6357565b60405162461bcd60e51b81526020600482015260136024820152721554d110c81b9bdd0818dbdb999a59dd5c9959606a1b6044820152606490fd5b15613ea557565b60405162461bcd60e51b81526020600482015260146024820152731554d110c81d1c985b9cd9995c8819985a5b195960621b6044820152606490fd5b60405190613eee8261399b565b600482526314d1531360e21b6020830152565b15613f0857565b60405162461bcd60e51b8152602060048201526015602482015274151bdad95b881d1c985b9cd9995c8819985a5b1959605a1b6044820152606490fd5b6000198114613c9c5760010190565b91908201809211613c9c57565b15613f6857565b60405162461bcd60e51b815260206004820152601460248201527314dd185ad948191bd95cc81b9bdd08195e1a5cdd60621b6044820152606490fd5b15613fab57565b60405162461bcd60e51b815260206004820152600f60248201526e14dd185ad9481b9bdd08199bdd5b99608a1b6044820152606490fd5b15613fe957565b60405162461bcd60e51b815260206004820152601060248201526f5374616b65206e6f742061637469766560801b6044820152606490fd5b91908203918211613c9c57565b6000818152601560209081526040808320546001600160a01b031690614055821515613f61565b9293849390849081808080805b888b526014808b52888c208054831015614223576140818389926138fd565b505414614097575061409290613f45565b614062565b96509a50505050505082855280845285828620906140b4916138fd565b50600501549583865281855280838720906140ce916138fd565b50600401549284875282865281818820906140e8916138fd565b50926001809401549686895281815283838a2090614105916138fd565b50600301549689525286209061411a916138fd565b506006015460ff1661412e61413392613fa4565b613fe2565b42811461421c576141449042614021565b926012548092605a81146000146141a257505060038202918083046003149015171561418e5750613ac1939261418263bbf81e00936141879360011c905b613c89565b0490613f54565b634e487b7160e01b81526011600452602490fd5b60b481036141d85750508160011b918083046002149015171561418e5750613ac1939261418263bbf81e00936141879390613c89565b61016d91949350146141fd575b50613ac1939261418263bbf81e009361418793613c89565b600383929302918083046003149015171561418e575090613ac16141e5565b5050505090565b5050509650965097935061413392915061412e90613fa4565b1561424357565b60405162461bcd60e51b815260206004820152600f60248201526e2737ba1039ba30b5b29037bbb732b960891b6044820152606490fd5b60003381526020601c815260018060a01b0390604082818520541692831515806143e6575b6142ab57505050505090565b60646142b9601b5488613c89565b8654845163a9059cbb60e01b81526001600160a01b03881660048201529290910460248301819052969190859082906044908290869088165af19081156143dc5782916143bf575b501561437b577f94ccb86446750660ec532b1beb1fb55f5ba2fffca042c4c53f4c080e72595b3893929181866143719352601e8552838120614344898254613f54565b9055541686888451926143568461399b565b6008845267149151915494905360c21b878501528089614a6c565b519384523393a390565b825162461bcd60e51b815260048101859052601f60248201527f526566657272616c20726577617264207472616e73666572206661696c6564006044820152606490fd5b6143d69150853d871161057a5761056c81836139b7565b38614301565b84513d84823e3d90fd5b50838552600e835260ff82862054161561429f565b600090815b6001600160a01b038216600090815260146020526040902080548210156144ac57600661442f8360ff936138fd565b500154166144455761444090613f45565b614400565b50905060015b158061448a575b6144595750565b6001600160a01b03166000908152601a60205260409020805460ff191690556018548015613c9c5760001901601855565b506001600160a01b0381166000908152601a602052604090205460ff16614452565b50509061444b565b600080546040516370a0823160e01b8152306004820152919392916020916001600160a01b0316908281602481855afa80156145eb57849187916145ba575b50106145755760405163a9059cbb60e01b8152336004820152602481018490529082908290604490829089905af191821561456a5790614540929161454895969261454d575b5050613f01565b600d54613f54565b600d55565b6145639250803d1061057a5761056c81836139b7565b3880614539565b6040513d87823e3d90fd5b60405162461bcd60e51b815260048101839052601a60248201527f496e73756666696369656e7420746f6b656e2062616c616e63650000000000006044820152606490fd5b809250848092503d83116145e4575b6145d381836139b7565b810103126119e857839051386144f3565b503d6145c9565b6040513d88823e3d90fd5b601054600160401b81101561398557600190818101806010558110156139195760076000916010835202918351837f1b6847dc741a1b0cd08d278845f9d819d87b734759afb55fe2de5cb82a9ae672015560c07f1b6847dc741a1b0cd08d278845f9d819d87b734759afb55fe2de5cb82a9ae6787f1b6847dc741a1b0cd08d278845f9d819d87b734759afb55fe2de5cb82a9ae67385019460018060a01b0360209681888a015116906001600160601b0360a01b91828254161790557f1b6847dc741a1b0cd08d278845f9d819d87b734759afb55fe2de5cb82a9ae67483018260408b015116828254161790557f1b6847dc741a1b0cd08d278845f9d819d87b734759afb55fe2de5cb82a9ae67583019160608a0151169082541617905560808701517f1b6847dc741a1b0cd08d278845f9d819d87b734759afb55fe2de5cb82a9ae67682015560a08701517f1b6847dc741a1b0cd08d278845f9d819d87b734759afb55fe2de5cb82a9ae677820155019401519182519267ffffffffffffffff841161486e57614787865461392f565b601f8111614828575b508491601f85116001146147c95793945084929190836147be575b50501b916000199060031b1c1916179055565b0151925038806147ab565b86815285812093958591601f198316915b8883831061480e57505050106147f5575b505050811b019055565b015160001960f88460031b161c191690553880806147eb565b8587015188559096019594850194879350908101906147da565b868352858320601f860160051c810191878710614864575b601f0160051c019084905b828110614859575050614790565b84815501849061484b565b9091508190614840565b634e487b7160e01b82526041600452602482fd5b8054600160401b811015613985576148a19060019283820181556138fd565b6149f7578251815560c060068383019260018060a01b03602094818689015116906001600160601b0360a01b9182825416179055600283018260408a015116828254161790556003830191606089015116908254161790556080860151600482015560a08601516005820155019301519081519167ffffffffffffffff83116139855761492e855461392f565b601f81116149ae575b5081601f841160011461496557509282939183926000946147be5750501b916000199060031b1c1916179055565b919083601f1981168760005284600020946000905b8883831061499457505050106147f557505050811b019055565b85870151885590960195948501948793509081019061497a565b6000868152838120601f860160051c8101928587106149ed575b601f0160051c019186905b8381106149e257505050614937565b8281550186906149d3565b90925082906149c8565b634e487b7160e01b600052600060045260246000fd5b92613a1794919260405194614a2186613969565b42865260018060a01b038091169485602088015260006040880152166060860152608085015260a084015260c0830152600052600f602052614a67816040600020614882565b6145f6565b92613a17959294919360405195614a8287613969565b42875260018060a01b0380809316968760208a0152166040880152166060860152608085015260a084015260c0830152600052600f602052614a67816040600020614882565b67ffffffffffffffff81116139855760051b60200190565b90604051614aed81613969565b60c060ff600683958054855260018101546020860152600281015460408601526003810154606086015260048101546080860152600581015460a08601520154161515910152565b60405190614b4282613969565b8160c06000918281528260208201528260408201528260608201528260808201528260a0820152015256fe377aadedb6b2a771959584d10a6a36eccb5f56b4eb3a48525f76108d2660d8d4a26469706673582212205da32b7ef5ea136d76079b9196d00b84813b21fc00c865253655f8da19ef42b664736f6c63430008130033","opcodes":"PUSH1 0xA0 DUP1 PUSH1 0x40 MSTORE CALLVALUE PUSH2 0xF5 JUMPI PUSH7 0x38D7EA4C68000 DUP1 PUSH1 0x6 SSTORE PUSH1 0x7 SSTORE PUSH1 0xC PUSH1 0x12 SSTORE PUSH9 0x56BC75E2D63100000 PUSH1 0x13 SSTORE PUSH1 0x1 PUSH1 0x19 SSTORE PUSH1 0x5 PUSH1 0x1B SSTORE CALLER PUSH1 0x80 MSTORE PUSH1 0x14 PUSH1 0x8 SSTORE PUSH1 0x14 PUSH1 0x9 SSTORE PUSH1 0x14 PUSH1 0xA SSTORE PUSH1 0x14 PUSH1 0xC SSTORE PUSH2 0x4BC3 SWAP1 DUP2 PUSH2 0xFB DUP3 CODECOPY PUSH1 0x80 MLOAD DUP2 DUP2 DUP2 PUSH2 0x459 ADD MSTORE DUP2 DUP2 PUSH2 0x721 ADD MSTORE DUP2 DUP2 PUSH2 0x814 ADD MSTORE DUP2 DUP2 PUSH2 0xB40 ADD MSTORE DUP2 DUP2 PUSH2 0xE03 ADD MSTORE DUP2 DUP2 PUSH2 0xF15 ADD MSTORE DUP2 DUP2 PUSH2 0x10D8 ADD MSTORE DUP2 DUP2 PUSH2 0x11D4 ADD MSTORE DUP2 DUP2 PUSH2 0x16A1 ADD MSTORE DUP2 DUP2 PUSH2 0x1A5A ADD MSTORE DUP2 DUP2 PUSH2 0x1B6A ADD MSTORE DUP2 DUP2 PUSH2 0x1C12 ADD MSTORE DUP2 DUP2 PUSH2 0x206A ADD MSTORE DUP2 DUP2 PUSH2 0x250F ADD MSTORE DUP2 DUP2 PUSH2 0x292E ADD MSTORE DUP2 DUP2 PUSH2 0x29AE ADD MSTORE DUP2 DUP2 PUSH2 0x2F24 ADD MSTORE DUP2 DUP2 PUSH2 0x30C2 ADD MSTORE DUP2 DUP2 PUSH2 0x31C5 ADD MSTORE DUP2 DUP2 PUSH2 0x32B3 ADD MSTORE DUP2 DUP2 PUSH2 0x340B ADD MSTORE PUSH2 0x3658 ADD MSTORE RETURN JUMPDEST PUSH1 0x0 DUP1 REVERT INVALID PUSH1 0x80 PUSH1 0x40 DUP2 DUP2 MSTORE PUSH1 0x4 DUP1 CALLDATASIZE LT ISZERO PUSH2 0x15 JUMPI PUSH1 0x0 DUP1 REVERT JUMPDEST PUSH1 0x0 SWAP3 PUSH1 0xE0 DUP5 CALLDATALOAD DUP2 SHR SWAP2 DUP3 PUSH4 0x2D45457 EQ PUSH2 0x37CA JUMPI POP DUP2 PUSH4 0x32D975B EQ PUSH2 0x37AA JUMPI DUP2 PUSH4 0x6360B85 EQ PUSH2 0x35BA JUMPI DUP2 PUSH4 0x6B091F9 EQ PUSH2 0x33EA JUMPI DUP2 PUSH4 0x9813482 EQ PUSH2 0x331A JUMPI DUP2 PUSH4 0x150D283D EQ PUSH2 0x3215 JUMPI DUP2 PUSH4 0x182A676B EQ PUSH2 0x3163 JUMPI DUP2 PUSH4 0x1C042D35 EQ PUSH2 0x3143 JUMPI DUP2 PUSH4 0x1CE24E16 EQ PUSH2 0x3119 JUMPI DUP2 PUSH4 0x1E37C606 EQ PUSH2 0x3095 JUMPI DUP2 PUSH4 0x214405A9 EQ PUSH2 0x3075 JUMPI DUP2 PUSH4 0x21874AE2 EQ PUSH2 0x3014 JUMPI DUP2 PUSH4 0x251545DA EQ PUSH2 0x2E14 JUMPI DUP2 PUSH4 0x27506F53 EQ PUSH2 0x2D34 JUMPI DUP2 PUSH4 0x2BB38809 EQ PUSH2 0x25F4 JUMPI DUP2 PUSH4 0x2FD04C08 EQ PUSH2 0x2A05 JUMPI DUP2 PUSH4 0x366B17D6 EQ PUSH2 0x2981 JUMPI DUP2 PUSH4 0x3A94BE2D EQ PUSH2 0x2900 JUMPI DUP2 PUSH4 0x3B7B6188 EQ PUSH2 0x2614 JUMPI DUP2 PUSH4 0x491CC756 EQ PUSH2 0x25F4 JUMPI DUP2 PUSH4 0x4A3B68CC EQ PUSH2 0x25B8 JUMPI DUP2 PUSH4 0x4CDB312D EQ PUSH2 0x24F3 JUMPI DUP2 PUSH4 0x4F93208A EQ PUSH2 0x24B4 JUMPI DUP2 PUSH4 0x518AB2A8 EQ PUSH2 0x2494 JUMPI DUP2 PUSH4 0x53AAA63B EQ PUSH2 0x245B JUMPI DUP2 PUSH4 0x57126D0D EQ PUSH2 0x222B JUMPI DUP2 PUSH4 0x575CEA6B EQ PUSH2 0x2180 JUMPI DUP2 PUSH4 0x5B365040 EQ PUSH2 0x1F5A JUMPI DUP2 PUSH4 0x608E4DD0 EQ PUSH2 0x1C80 JUMPI DUP2 PUSH4 0x63219C72 EQ PUSH2 0x1BD3 JUMPI DUP2 PUSH4 0x676C0D77 EQ PUSH2 0x1B2B JUMPI DUP2 PUSH4 0x6F43F373 EQ PUSH2 0x1B0B JUMPI DUP2 PUSH4 0x71D20FE7 EQ PUSH2 0x1A3E JUMPI DUP2 PUSH4 0x75506C96 EQ PUSH2 0x1A1E JUMPI DUP2 PUSH4 0x7A9773DC EQ PUSH2 0x19FE JUMPI DUP2 PUSH4 0x7CC1F867 EQ PUSH2 0x191B JUMPI DUP2 PUSH4 0x80933608 EQ PUSH2 0x1838 JUMPI DUP2 PUSH4 0x817B1CD2 EQ PUSH2 0x1818 JUMPI DUP2 PUSH4 0x83FABE03 EQ PUSH2 0x17F8 JUMPI DUP2 PUSH4 0x842E2981 EQ PUSH2 0x16F0 JUMPI DUP2 PUSH4 0x86989038 EQ PUSH2 0x16D0 JUMPI DUP2 PUSH4 0x8DA5CB5B EQ PUSH2 0x168B JUMPI DUP2 PUSH4 0x920A253E EQ PUSH2 0x166B JUMPI DUP2 PUSH4 0x963C9DD3 EQ PUSH2 0x1590 JUMPI DUP2 PUSH4 0x9AB4A445 EQ PUSH2 0x1566 JUMPI DUP2 PUSH4 0x9C0FBD05 EQ PUSH2 0x1549 JUMPI DUP2 PUSH4 0x9EA7685A EQ PUSH2 0x138F JUMPI DUP2 PUSH4 0xA1DC9031 EQ PUSH2 0x1219 JUMPI DUP2 PUSH4 0xA29F481C EQ PUSH2 0x11AB JUMPI DUP2 PUSH4 0xA7C60160 EQ PUSH2 0x101D JUMPI DUP2 PUSH4 0xAECCF735 EQ PUSH2 0xE5A JUMPI DUP2 PUSH4 0xB006984F EQ PUSH2 0xDD6 JUMPI DUP2 PUSH4 0xB40CD21D EQ PUSH2 0xD94 JUMPI DUP2 PUSH4 0xB5D5B5FA EQ PUSH2 0xD01 JUMPI POP DUP1 PUSH4 0xB842EC44 EQ PUSH2 0xC83 JUMPI DUP1 PUSH4 0xC3333DFB EQ PUSH2 0xABA JUMPI DUP1 PUSH4 0xC605AF53 EQ PUSH2 0xA9B JUMPI DUP1 PUSH4 0xC93C8F34 EQ PUSH2 0xA5D JUMPI DUP1 PUSH4 0xD11C583A EQ PUSH2 0xA34 JUMPI DUP1 PUSH4 0xD3EA4350 EQ PUSH2 0xA0D JUMPI DUP1 PUSH4 0xD7FF0714 EQ PUSH2 0x8C5 JUMPI DUP1 PUSH4 0xD8060CD5 EQ PUSH2 0x7F9 JUMPI DUP1 PUSH4 0xE697B5D8 EQ PUSH2 0x7A0 JUMPI DUP1 PUSH4 0xE985E367 EQ PUSH2 0x778 JUMPI DUP1 PUSH4 0xEBCD3A13 EQ PUSH2 0x6F5 JUMPI DUP1 PUSH4 0xEE172546 EQ PUSH2 0x6D6 JUMPI DUP1 PUSH4 0xEF925399 EQ PUSH2 0x5F8 JUMPI DUP1 PUSH4 0xF1887684 EQ PUSH2 0x5D9 JUMPI DUP1 PUSH4 0xF30EF2E5 EQ PUSH2 0x3BC JUMPI DUP1 PUSH4 0xF34A00FB EQ PUSH2 0x399 JUMPI DUP1 PUSH4 0xF7D76AE5 EQ PUSH2 0x372 JUMPI PUSH4 0xFD9A11E5 EQ PUSH2 0x33D JUMPI PUSH1 0x0 DUP1 REVERT JUMPDEST CALLVALUE PUSH2 0x36E JUMPI PUSH1 0x20 CALLDATASIZE PUSH1 0x3 NOT ADD SLT PUSH2 0x36E JUMPI CALLDATALOAD DUP3 MSTORE PUSH1 0x15 PUSH1 0x20 SWAP1 DUP2 MSTORE SWAP2 DUP2 SWAP1 KECCAK256 SLOAD SWAP1 MLOAD PUSH1 0x1 PUSH1 0x1 PUSH1 0xA0 SHL SUB SWAP1 SWAP2 AND DUP2 MSTORE RETURN JUMPDEST DUP3 DUP1 REVERT JUMPDEST POP CALLVALUE PUSH2 0x36E JUMPI DUP3 PUSH1 0x3 NOT CALLDATASIZE ADD SLT PUSH2 0x36E JUMPI SLOAD SWAP1 MLOAD PUSH1 0x1 PUSH1 0x1 PUSH1 0xA0 SHL SUB SWAP1 SWAP2 AND DUP2 MSTORE PUSH1 0x20 SWAP2 POP RETURN JUMPDEST POP POP CALLVALUE PUSH2 0x3B8 JUMPI DUP2 PUSH1 0x3 NOT CALLDATASIZE ADD SLT PUSH2 0x3B8 JUMPI PUSH1 0x20 SWAP1 PUSH1 0x7 SLOAD SWAP1 MLOAD SWAP1 DUP2 MSTORE RETURN JUMPDEST POP DUP1 REVERT JUMPDEST POP CALLVALUE PUSH2 0x36E JUMPI PUSH1 0x20 DUP1 PUSH1 0x3 NOT CALLDATASIZE ADD SLT PUSH2 0x5D5 JUMPI DUP2 CALLDATALOAD SWAP1 CALLER DUP6 MSTORE PUSH1 0xE DUP2 MSTORE PUSH2 0x3E9 PUSH1 0xFF DUP6 DUP8 KECCAK256 SLOAD AND ISZERO PUSH2 0x3BCB JUMP JUMPDEST PUSH2 0x3F4 DUP3 ISZERO ISZERO PUSH2 0x3D73 JUMP JUMPDEST DUP5 SLOAD PUSH1 0x1 PUSH1 0x1 PUSH1 0xA0 SHL SUB SWAP4 SWAP1 PUSH2 0x40D SWAP1 DUP6 AND ISZERO ISZERO PUSH2 0x3C48 JUMP JUMPDEST DUP4 PUSH1 0x5 SLOAD AND SWAP2 DUP3 ISZERO PUSH2 0x59E JUMPI PUSH2 0x425 PUSH1 0xC SLOAD DUP6 PUSH2 0x3C89 JUMP JUMPDEST SWAP3 PUSH4 0x3B9ACA00 SWAP4 DUP5 DUP2 MUL SWAP5 DUP2 DUP7 DIV EQ SWAP1 ISZERO OR ISZERO PUSH2 0x58B JUMPI DUP7 MLOAD PUSH4 0x23B872DD PUSH1 0xE0 SHL DUP2 MSTORE CALLER DUP5 DUP3 ADD SWAP1 DUP2 MSTORE PUSH1 0x1 PUSH1 0x1 PUSH1 0xA0 SHL SUB PUSH32 0x0 AND PUSH1 0x20 DUP3 ADD MSTORE PUSH1 0x40 DUP2 ADD DUP8 SWAP1 MSTORE SWAP1 SWAP2 DUP4 SWAP2 DUP4 SWAP2 SWAP1 DUP3 SWAP1 DUP13 SWAP1 DUP3 SWAP1 PUSH1 0x60 ADD SUB SWAP3 GAS CALL SWAP1 DUP2 ISZERO PUSH2 0x581 JUMPI DUP9 SWAP2 PUSH2 0x554 JUMPI JUMPDEST POP ISZERO PUSH2 0x51C JUMPI POP POP PUSH1 0x0 DUP1 MLOAD PUSH1 0x20 PUSH2 0x4B6E DUP4 CODECOPY DUP2 MLOAD SWAP2 MSTORE SWAP2 PUSH2 0x4CB PUSH2 0x516 SWAP3 PUSH2 0x427A JUMP JUMPDEST SWAP4 PUSH2 0x4D5 DUP6 PUSH2 0x44B4 JUMP JUMPDEST PUSH2 0x4F2 DUP2 PUSH1 0x5 SLOAD AND DUP7 DUP5 DUP5 DUP12 SLOAD AND PUSH2 0x4EB PUSH2 0x3D54 JUMP JUMPDEST SWAP4 CALLER PUSH2 0x4A6C JUMP JUMPDEST PUSH1 0x5 SLOAD AND SWAP5 MLOAD SWAP2 DUP3 SWAP2 CALLER SWAP6 TIMESTAMP SWAP2 DUP5 PUSH1 0x40 SWAP2 SWAP5 SWAP4 SWAP3 PUSH1 0x60 DUP3 ADD SWAP6 DUP3 MSTORE PUSH1 0x20 DUP3 ADD MSTORE ADD MSTORE JUMP JUMPDEST SUB SWAP1 LOG3 DUP1 RETURN JUMPDEST DUP6 MLOAD PUSH3 0x461BCD PUSH1 0xE5 SHL DUP2 MSTORE SWAP2 DUP3 ADD MSTORE PUSH1 0x13 PUSH1 0x24 DUP3 ADD MSTORE PUSH19 0x14D3D3081D1C985B9CD9995C8819985A5B1959 PUSH1 0x6A SHL PUSH1 0x44 DUP3 ADD MSTORE PUSH1 0x64 SWAP2 POP REVERT JUMPDEST PUSH2 0x574 SWAP2 POP DUP3 RETURNDATASIZE DUP5 GT PUSH2 0x57A JUMPI JUMPDEST PUSH2 0x56C DUP2 DUP4 PUSH2 0x39B7 JUMP JUMPDEST DUP2 ADD SWAP1 PUSH2 0x3E01 JUMP JUMPDEST CODESIZE PUSH2 0x4A7 JUMP JUMPDEST POP RETURNDATASIZE PUSH2 0x562 JUMP JUMPDEST DUP8 MLOAD RETURNDATASIZE DUP11 DUP3 RETURNDATACOPY RETURNDATASIZE SWAP1 REVERT JUMPDEST PUSH4 0x4E487B71 PUSH1 0xE0 SHL DUP9 MSTORE PUSH1 0x11 DUP4 MSTORE PUSH1 0x24 DUP9 REVERT JUMPDEST DUP6 MLOAD PUSH3 0x461BCD PUSH1 0xE5 SHL DUP2 MSTORE SWAP2 DUP3 ADD MSTORE PUSH1 0x12 PUSH1 0x24 DUP3 ADD MSTORE PUSH18 0x14D3D3081B9BDD0818DBDB999A59DD5C9959 PUSH1 0x72 SHL PUSH1 0x44 DUP3 ADD MSTORE PUSH1 0x64 SWAP2 POP REVERT JUMPDEST DUP4 DUP1 REVERT JUMPDEST POP POP CALLVALUE PUSH2 0x3B8 JUMPI DUP2 PUSH1 0x3 NOT CALLDATASIZE ADD SLT PUSH2 0x3B8 JUMPI PUSH1 0x20 SWAP1 PUSH1 0x13 SLOAD SWAP1 MLOAD SWAP1 DUP2 MSTORE RETURN JUMPDEST POP DUP3 SWAP1 CALLVALUE PUSH2 0x3B8 JUMPI PUSH1 0x20 SWAP2 DUP3 PUSH1 0x3 NOT CALLDATASIZE ADD SLT PUSH2 0x6D3 JUMPI PUSH1 0x1 PUSH1 0x1 PUSH1 0xA0 SHL SUB SWAP3 DUP4 PUSH2 0x620 PUSH2 0x37EF JUMP JUMPDEST AND DUP3 MSTORE PUSH1 0xF DUP2 MSTORE DUP5 DUP3 KECCAK256 SWAP2 DUP3 SLOAD SWAP4 PUSH2 0x637 DUP6 PUSH2 0x4AC8 JUMP JUMPDEST SWAP6 PUSH2 0x644 DUP9 MLOAD SWAP8 DUP9 PUSH2 0x39B7 JUMP JUMPDEST DUP6 DUP8 MSTORE DUP4 DUP8 ADD SWAP5 DUP4 MSTORE DUP4 DUP4 KECCAK256 SWAP3 SWAP5 JUMPDEST DUP7 DUP7 LT PUSH2 0x66B JUMPI DUP9 MLOAD DUP1 PUSH2 0x667 DUP11 DUP3 PUSH2 0x384A JUMP JUMPDEST SUB SWAP1 RETURN JUMPDEST PUSH1 0x7 DUP6 PUSH1 0x1 SWAP3 DUP12 MLOAD PUSH2 0x67C DUP2 PUSH2 0x3969 JUMP JUMPDEST DUP8 SLOAD DUP2 MSTORE DUP6 DUP6 DUP10 ADD SLOAD AND DUP4 DUP3 ADD MSTORE DUP6 PUSH1 0x2 DUP10 ADD SLOAD AND DUP14 DUP3 ADD MSTORE DUP6 PUSH1 0x3 DUP10 ADD SLOAD AND PUSH1 0x60 DUP3 ADD MSTORE DUP7 DUP9 ADD SLOAD PUSH1 0x80 DUP3 ADD MSTORE PUSH1 0x5 DUP9 ADD SLOAD PUSH1 0xA0 DUP3 ADD MSTORE PUSH2 0x6C0 PUSH1 0x6 DUP10 ADD PUSH2 0x39D9 JUMP JUMPDEST PUSH1 0xC0 DUP3 ADD MSTORE DUP2 MSTORE ADD SWAP5 ADD SWAP6 ADD SWAP5 SWAP3 PUSH2 0x653 JUMP JUMPDEST DUP1 REVERT JUMPDEST POP POP CALLVALUE PUSH2 0x3B8 JUMPI DUP2 PUSH1 0x3 NOT CALLDATASIZE ADD SLT PUSH2 0x3B8 JUMPI PUSH1 0x20 SWAP1 PUSH1 0x17 SLOAD SWAP1 MLOAD SWAP1 DUP2 MSTORE RETURN JUMPDEST POP POP CALLVALUE PUSH2 0x3B8 JUMPI CALLDATASIZE PUSH1 0x3 NOT ADD SLT PUSH2 0x6D3 JUMPI PUSH2 0x70E PUSH2 0x37EF JUMP JUMPDEST PUSH1 0x24 CALLDATALOAD SWAP1 PUSH1 0x1 PUSH1 0x1 PUSH1 0xA0 SHL SUB SWAP1 PUSH2 0x748 CALLER PUSH32 0x0 DUP5 AND EQ PUSH2 0x3ADC JUMP JUMPDEST AND PUSH2 0x754 DUP2 ISZERO ISZERO PUSH2 0x3B51 JUMP JUMPDEST PUSH2 0x75F DUP3 ISZERO ISZERO PUSH2 0x3B8F JUMP JUMPDEST PUSH1 0x1 PUSH1 0x1 PUSH1 0x60 SHL SUB PUSH1 0xA0 SHL PUSH1 0x5 SLOAD AND OR PUSH1 0x5 SSTORE PUSH1 0xC SSTORE DUP1 RETURN JUMPDEST POP POP CALLVALUE PUSH2 0x3B8 JUMPI DUP2 PUSH1 0x3 NOT CALLDATASIZE ADD SLT PUSH2 0x3B8 JUMPI SWAP1 SLOAD SWAP1 MLOAD PUSH1 0x1 PUSH1 0x1 PUSH1 0xA0 SHL SUB SWAP1 SWAP2 AND DUP2 MSTORE PUSH1 0x20 SWAP1 RETURN JUMPDEST POP POP CALLVALUE PUSH2 0x3B8 JUMPI DUP1 PUSH1 0x3 NOT CALLDATASIZE ADD SLT PUSH2 0x3B8 JUMPI PUSH2 0x7BA PUSH2 0x37EF JUMP JUMPDEST PUSH1 0x1 PUSH1 0x1 PUSH1 0xA0 SHL SUB SWAP1 DUP2 AND DUP4 MSTORE PUSH1 0x1D PUSH1 0x20 MSTORE DUP2 DUP4 KECCAK256 DUP1 SLOAD PUSH1 0x24 CALLDATALOAD SWAP5 SWAP1 DUP6 LT ISZERO PUSH2 0x6D3 JUMPI POP PUSH1 0x20 SWAP4 PUSH2 0x7EA SWAP2 PUSH2 0x3AC4 JUMP JUMPDEST SWAP3 SWAP1 SLOAD SWAP1 MLOAD SWAP3 PUSH1 0x3 SHL SHR AND DUP2 MSTORE RETURN JUMPDEST POP CALLVALUE PUSH2 0x36E JUMPI PUSH1 0x20 CALLDATASIZE PUSH1 0x3 NOT ADD SLT PUSH2 0x36E JUMPI DUP1 CALLDATALOAD SWAP1 PUSH2 0x842 CALLER PUSH32 0x0 PUSH1 0x1 PUSH1 0x1 PUSH1 0xA0 SHL SUB AND EQ PUSH2 0x3ADC JUMP JUMPDEST DUP2 ISZERO PUSH2 0x882 JUMPI POP SWAP1 PUSH32 0x171AABB8815C02FD00303450A77058600E3661EB75CE2E77972C0F080BC7099D SWAP2 PUSH1 0x13 SLOAD SWAP1 DUP1 PUSH1 0x13 SSTORE DUP3 MLOAD SWAP2 DUP3 MSTORE PUSH1 0x20 DUP3 ADD MSTORE LOG1 DUP1 RETURN JUMPDEST PUSH1 0x64 SWAP1 PUSH1 0x20 DUP5 MLOAD SWAP2 PUSH3 0x461BCD PUSH1 0xE5 SHL DUP4 MSTORE DUP3 ADD MSTORE PUSH1 0x20 PUSH1 0x24 DUP3 ADD MSTORE PUSH32 0x4D696E207374616B65206D7573742062652067726561746572207468616E2030 PUSH1 0x44 DUP3 ADD MSTORE REVERT JUMPDEST POP CALLVALUE PUSH2 0x36E JUMPI PUSH1 0x20 CALLDATASIZE PUSH1 0x3 NOT ADD SLT PUSH2 0x36E JUMPI CALLDATALOAD PUSH1 0x10 SLOAD DUP2 LT ISZERO PUSH2 0x36E JUMPI PUSH1 0x10 PUSH1 0x7 SWAP3 SWAP4 MSTORE MUL SWAP1 PUSH2 0x667 DUP3 PUSH32 0x1B6847DC741A1B0CD08D278845F9D819D87B734759AFB55FE2DE5CB82A9AE672 ADD SLOAD SWAP2 PUSH1 0x1 DUP1 PUSH1 0xA0 SHL SUB SWAP4 DUP5 PUSH32 0x1B6847DC741A1B0CD08D278845F9D819D87B734759AFB55FE2DE5CB82A9AE673 DUP3 ADD SLOAD AND SWAP5 DUP1 PUSH32 0x1B6847DC741A1B0CD08D278845F9D819D87B734759AFB55FE2DE5CB82A9AE674 DUP4 ADD SLOAD AND SWAP1 PUSH32 0x1B6847DC741A1B0CD08D278845F9D819D87B734759AFB55FE2DE5CB82A9AE675 DUP4 ADD SLOAD AND PUSH32 0x1B6847DC741A1B0CD08D278845F9D819D87B734759AFB55FE2DE5CB82A9AE676 DUP4 ADD SLOAD SWAP2 PUSH2 0xA02 PUSH32 0x1B6847DC741A1B0CD08D278845F9D819D87B734759AFB55FE2DE5CB82A9AE678 PUSH32 0x1B6847DC741A1B0CD08D278845F9D819D87B734759AFB55FE2DE5CB82A9AE677 DUP7 ADD SLOAD SWAP6 ADD PUSH2 0x39D9 JUMP JUMPDEST SWAP5 MLOAD SWAP8 DUP9 SWAP8 DUP9 PUSH2 0x3A7F JUMP JUMPDEST POP SWAP2 CALLVALUE PUSH2 0x6D3 JUMPI PUSH1 0x20 CALLDATASIZE PUSH1 0x3 NOT ADD SLT PUSH2 0x6D3 JUMPI POP PUSH2 0xA2D PUSH1 0x20 SWAP3 CALLDATALOAD PUSH2 0x402E JUMP JUMPDEST SWAP1 MLOAD SWAP1 DUP2 MSTORE RETURN JUMPDEST POP POP CALLVALUE PUSH2 0x3B8 JUMPI DUP2 PUSH1 0x3 NOT CALLDATASIZE ADD SLT PUSH2 0x3B8 JUMPI PUSH1 0x3 SLOAD SWAP1 MLOAD PUSH1 0x1 PUSH1 0x1 PUSH1 0xA0 SHL SUB SWAP1 SWAP2 AND DUP2 MSTORE PUSH1 0x20 SWAP1 RETURN JUMPDEST POP POP CALLVALUE PUSH2 0x3B8 JUMPI PUSH1 0x20 CALLDATASIZE PUSH1 0x3 NOT ADD SLT PUSH2 0x3B8 JUMPI PUSH1 0x20 SWAP2 PUSH1 0xFF SWAP1 DUP3 SWAP1 PUSH1 0x1 PUSH1 0x1 PUSH1 0xA0 SHL SUB PUSH2 0xA88 PUSH2 0x37EF JUMP JUMPDEST AND DUP2 MSTORE PUSH1 0x1A DUP6 MSTORE KECCAK256 SLOAD AND SWAP1 MLOAD SWAP1 ISZERO ISZERO DUP2 MSTORE RETURN JUMPDEST POP POP CALLVALUE PUSH2 0x3B8 JUMPI DUP2 PUSH1 0x3 NOT CALLDATASIZE ADD SLT PUSH2 0x3B8 JUMPI PUSH1 0x20 SWAP1 PUSH1 0x6 SLOAD SWAP1 MLOAD SWAP1 DUP2 MSTORE RETURN JUMPDEST POP CALLVALUE PUSH2 0x36E JUMPI PUSH1 0x20 DUP1 PUSH1 0x3 NOT CALLDATASIZE ADD SLT PUSH2 0x5D5 JUMPI DUP2 CALLDATALOAD SWAP1 CALLER DUP6 MSTORE PUSH1 0xE DUP2 MSTORE PUSH2 0xAE7 PUSH1 0xFF DUP6 DUP8 KECCAK256 SLOAD AND ISZERO PUSH2 0x3BCB JUMP JUMPDEST PUSH2 0xAF2 DUP3 ISZERO ISZERO PUSH2 0x3D73 JUMP JUMPDEST DUP5 SLOAD PUSH1 0x1 PUSH1 0x1 PUSH1 0xA0 SHL SUB SWAP4 SWAP1 PUSH2 0xB0B SWAP1 DUP6 AND ISZERO ISZERO PUSH2 0x3C48 JUMP JUMPDEST DUP4 PUSH1 0x3 SLOAD AND SWAP2 DUP3 ISZERO PUSH2 0xC4C JUMPI PUSH2 0xB23 PUSH1 0xA SLOAD DUP6 PUSH2 0x3C89 JUMP JUMPDEST DUP7 MLOAD PUSH4 0x23B872DD PUSH1 0xE0 SHL DUP2 MSTORE CALLER DUP5 DUP3 ADD SWAP1 DUP2 MSTORE PUSH1 0x1 PUSH1 0x1 PUSH1 0xA0 SHL SUB PUSH32 0x0 AND PUSH1 0x20 DUP3 ADD MSTORE PUSH1 0x40 DUP2 ADD DUP8 SWAP1 MSTORE SWAP2 SWAP5 SWAP1 SWAP2 DUP4 SWAP2 DUP4 SWAP2 DUP3 SWAP1 DUP13 SWAP1 DUP3 SWAP1 PUSH1 0x60 ADD SUB SWAP3 GAS CALL SWAP1 DUP2 ISZERO PUSH2 0x581 JUMPI DUP9 SWAP2 PUSH2 0xC2F JUMPI JUMPDEST POP ISZERO PUSH2 0xBF7 JUMPI POP POP PUSH1 0x0 DUP1 MLOAD PUSH1 0x20 PUSH2 0x4B6E DUP4 CODECOPY DUP2 MLOAD SWAP2 MSTORE SWAP2 PUSH2 0xBB3 PUSH2 0x516 SWAP3 PUSH2 0x427A JUMP JUMPDEST SWAP4 PUSH2 0xBBD DUP6 PUSH2 0x44B4 JUMP JUMPDEST PUSH2 0xBD3 DUP2 PUSH1 0x3 SLOAD AND DUP7 DUP5 DUP5 DUP12 SLOAD AND PUSH2 0x4EB PUSH2 0x3D54 JUMP JUMPDEST PUSH1 0x3 SLOAD AND SWAP5 MLOAD SWAP2 DUP3 SWAP2 CALLER SWAP6 TIMESTAMP SWAP2 DUP5 PUSH1 0x40 SWAP2 SWAP5 SWAP4 SWAP3 PUSH1 0x60 DUP3 ADD SWAP6 DUP3 MSTORE PUSH1 0x20 DUP3 ADD MSTORE ADD MSTORE JUMP JUMPDEST DUP6 MLOAD PUSH3 0x461BCD PUSH1 0xE5 SHL DUP2 MSTORE SWAP2 DUP3 ADD MSTORE PUSH1 0x13 PUSH1 0x24 DUP3 ADD MSTORE PUSH19 0x109390881D1C985B9CD9995C8819985A5B1959 PUSH1 0x6A SHL PUSH1 0x44 DUP3 ADD MSTORE PUSH1 0x64 SWAP2 POP REVERT JUMPDEST PUSH2 0xC46 SWAP2 POP DUP3 RETURNDATASIZE DUP5 GT PUSH2 0x57A JUMPI PUSH2 0x56C DUP2 DUP4 PUSH2 0x39B7 JUMP JUMPDEST CODESIZE PUSH2 0xB8F JUMP JUMPDEST DUP6 MLOAD PUSH3 0x461BCD PUSH1 0xE5 SHL DUP2 MSTORE SWAP2 DUP3 ADD MSTORE PUSH1 0x12 PUSH1 0x24 DUP3 ADD MSTORE PUSH18 0x109390881B9BDD0818DBDB999A59DD5C9959 PUSH1 0x72 SHL PUSH1 0x44 DUP3 ADD MSTORE PUSH1 0x64 SWAP2 POP REVERT JUMPDEST POP SWAP2 SWAP1 CALLVALUE PUSH2 0x3B8 JUMPI DUP1 PUSH1 0x3 NOT CALLDATASIZE ADD SLT PUSH2 0x3B8 JUMPI PUSH2 0xC9E PUSH2 0x37EF JUMP JUMPDEST PUSH1 0x1 PUSH1 0x1 PUSH1 0xA0 SHL SUB SWAP1 DUP2 AND DUP4 MSTORE PUSH1 0xF PUSH1 0x20 MSTORE DUP2 DUP4 KECCAK256 DUP1 SLOAD SWAP2 SWAP4 PUSH1 0x24 CALLDATALOAD SWAP3 DUP4 LT ISZERO PUSH2 0x6D3 JUMPI POP PUSH2 0x667 SWAP3 SWAP2 PUSH2 0xCD1 SWAP2 PUSH2 0x38FD JUMP JUMPDEST POP DUP1 SLOAD SWAP4 DUP1 PUSH1 0x1 DUP4 ADD SLOAD AND SWAP6 DUP2 PUSH1 0x2 DUP5 ADD SLOAD AND SWAP2 PUSH1 0x3 DUP5 ADD SLOAD AND SWAP1 DUP4 ADD SLOAD SWAP2 PUSH2 0xA02 PUSH1 0x6 PUSH1 0x5 DUP7 ADD SLOAD SWAP6 ADD PUSH2 0x39D9 JUMP JUMPDEST SWAP4 SWAP1 POP CALLVALUE PUSH2 0x6D3 JUMPI DUP3 PUSH1 0x3 NOT CALLDATASIZE ADD SLT PUSH2 0x6D3 JUMPI PUSH2 0xD1C PUSH2 0x37EF JUMP JUMPDEST PUSH1 0x1 PUSH1 0x1 PUSH1 0xA0 SHL SUB AND DUP2 MSTORE PUSH1 0x14 PUSH1 0x20 MSTORE DUP3 DUP2 KECCAK256 DUP1 SLOAD PUSH1 0x24 CALLDATALOAD SWAP3 SWAP1 DUP4 LT ISZERO PUSH2 0x6D3 JUMPI POP SWAP1 PUSH2 0xD48 SWAP2 PUSH2 0x38FD JUMP JUMPDEST POP DUP1 SLOAD SWAP3 PUSH1 0x1 DUP3 ADD SLOAD SWAP3 PUSH1 0x2 DUP4 ADD SLOAD PUSH1 0x3 DUP5 ADD SLOAD SWAP2 DUP5 ADD SLOAD SWAP3 PUSH1 0xFF PUSH1 0x6 PUSH1 0x5 DUP8 ADD SLOAD SWAP7 ADD SLOAD AND SWAP6 DUP2 MLOAD SWAP8 DUP9 MSTORE PUSH1 0x20 DUP9 ADD MSTORE DUP7 ADD MSTORE PUSH1 0x60 DUP6 ADD MSTORE PUSH1 0x80 DUP5 ADD MSTORE PUSH1 0xA0 DUP4 ADD MSTORE ISZERO ISZERO PUSH1 0xC0 DUP3 ADD MSTORE RETURN JUMPDEST POP POP POP CALLVALUE PUSH2 0x3B8 JUMPI DUP2 PUSH1 0x3 NOT CALLDATASIZE ADD SLT PUSH2 0x3B8 JUMPI PUSH1 0xA0 SWAP1 PUSH1 0x12 SLOAD SWAP1 PUSH1 0x13 SLOAD SWAP1 PUSH1 0x16 SLOAD PUSH1 0x17 SLOAD SWAP2 PUSH1 0x18 SLOAD SWAP4 DUP2 MLOAD SWAP6 DUP7 MSTORE PUSH1 0x20 DUP7 ADD MSTORE DUP5 ADD MSTORE PUSH1 0x60 DUP4 ADD MSTORE PUSH1 0x80 DUP3 ADD MSTORE RETURN JUMPDEST POP POP POP CALLVALUE PUSH2 0x3B8 JUMPI CALLDATASIZE PUSH1 0x3 NOT ADD SLT PUSH2 0x6D3 JUMPI PUSH2 0xDF0 PUSH2 0x37EF JUMP JUMPDEST PUSH1 0x24 CALLDATALOAD SWAP1 PUSH1 0x1 PUSH1 0x1 PUSH1 0xA0 SHL SUB SWAP1 PUSH2 0xE2A CALLER PUSH32 0x0 DUP5 AND EQ PUSH2 0x3ADC JUMP JUMPDEST AND PUSH2 0xE36 DUP2 ISZERO ISZERO PUSH2 0x3B51 JUMP JUMPDEST PUSH2 0xE41 DUP3 ISZERO ISZERO PUSH2 0x3B8F JUMP JUMPDEST PUSH1 0x1 PUSH1 0x1 PUSH1 0x60 SHL SUB PUSH1 0xA0 SHL PUSH1 0x1 SLOAD AND OR PUSH1 0x1 SSTORE PUSH1 0x8 SSTORE DUP1 RETURN JUMPDEST POP POP CALLVALUE PUSH2 0x36E JUMPI PUSH1 0x20 CALLDATASIZE PUSH1 0x3 NOT ADD SLT PUSH2 0x36E JUMPI DUP1 CALLDATALOAD SWAP1 CALLER DUP5 MSTORE PUSH1 0xE PUSH1 0x20 MSTORE PUSH2 0xE88 PUSH1 0xFF DUP5 DUP7 KECCAK256 SLOAD AND ISZERO PUSH2 0x3BCB JUMP JUMPDEST DUP2 ISZERO SWAP2 PUSH2 0xE95 DUP4 ISZERO PUSH2 0x3D73 JUMP JUMPDEST DUP5 SLOAD PUSH1 0x1 PUSH1 0x1 PUSH1 0xA0 SHL SUB SWAP4 SWAP1 PUSH2 0xEAE SWAP1 DUP6 AND ISZERO ISZERO PUSH2 0x3C48 JUMP JUMPDEST DUP4 PUSH1 0x2 SLOAD AND PUSH2 0xEBE DUP2 ISZERO ISZERO PUSH2 0x3E5C JUMP JUMPDEST PUSH3 0xF4240 SWAP2 DUP3 DUP5 MUL SWAP3 DUP5 DUP5 DIV EQ OR ISZERO PUSH2 0x100A JUMPI PUSH2 0xEDD PUSH1 0x9 SLOAD DUP5 PUSH2 0x3C89 JUMP JUMPDEST SWAP4 PUSH8 0xDE0B6B3A7640000 SWAP5 DUP6 DUP2 MUL SWAP6 DUP2 DUP8 DIV EQ SWAP1 ISZERO OR ISZERO PUSH2 0xFF7 JUMPI DUP7 MLOAD PUSH4 0x23B872DD PUSH1 0xE0 SHL DUP2 MSTORE CALLER SWAP2 DUP2 ADD SWAP2 DUP3 MSTORE PUSH1 0x1 PUSH1 0x1 PUSH1 0xA0 SHL SUB PUSH32 0x0 AND PUSH1 0x20 DUP4 DUP2 ADD SWAP2 SWAP1 SWAP2 MSTORE PUSH1 0x40 DUP4 ADD SWAP5 SWAP1 SWAP5 MSTORE SWAP4 SWAP3 SWAP2 DUP5 SWAP2 DUP3 SWAP1 DUP11 SWAP1 DUP3 SWAP1 PUSH1 0x60 ADD SUB SWAP3 GAS CALL DUP1 ISZERO PUSH2 0xFED JUMPI PUSH1 0x0 DUP1 MLOAD PUSH1 0x20 PUSH2 0x4B6E DUP4 CODECOPY DUP2 MLOAD SWAP2 MSTORE SWAP4 PUSH2 0xF86 PUSH2 0xF8B SWAP3 PUSH2 0x516 SWAP6 DUP11 SWAP2 PUSH2 0xFCF JUMPI JUMPDEST POP PUSH2 0x3E9E JUMP JUMPDEST PUSH2 0x427A JUMP JUMPDEST SWAP4 PUSH2 0xF95 DUP6 PUSH2 0x44B4 JUMP JUMPDEST PUSH2 0xFAB DUP2 PUSH1 0x2 SLOAD AND DUP7 DUP5 DUP5 DUP12 SLOAD AND PUSH2 0x4EB PUSH2 0x3D54 JUMP JUMPDEST PUSH1 0x2 SLOAD AND SWAP5 MLOAD SWAP2 DUP3 SWAP2 CALLER SWAP6 TIMESTAMP SWAP2 DUP5 PUSH1 0x40 SWAP2 SWAP5 SWAP4 SWAP3 PUSH1 0x60 DUP3 ADD SWAP6 DUP3 MSTORE PUSH1 0x20 DUP3 ADD MSTORE ADD MSTORE JUMP JUMPDEST PUSH2 0xFE7 SWAP2 POP PUSH1 0x20 RETURNDATASIZE DUP2 GT PUSH2 0x57A JUMPI PUSH2 0x56C DUP2 DUP4 PUSH2 0x39B7 JUMP JUMPDEST CODESIZE PUSH2 0xF80 JUMP JUMPDEST DUP6 MLOAD RETURNDATASIZE DUP9 DUP3 RETURNDATACOPY RETURNDATASIZE SWAP1 REVERT JUMPDEST PUSH4 0x4E487B71 PUSH1 0xE0 SHL DUP9 MSTORE PUSH1 0x11 SWAP1 MSTORE PUSH1 0x24 DUP8 REVERT JUMPDEST PUSH4 0x4E487B71 PUSH1 0xE0 SHL DUP8 MSTORE PUSH1 0x11 DUP5 MSTORE PUSH1 0x24 DUP8 REVERT JUMPDEST POP POP CALLVALUE PUSH2 0x36E JUMPI PUSH1 0x20 CALLDATASIZE PUSH1 0x3 NOT ADD SLT PUSH2 0x36E JUMPI DUP1 CALLDATALOAD SWAP1 CALLER DUP5 MSTORE PUSH1 0xE PUSH1 0x20 MSTORE PUSH2 0x104B PUSH1 0xFF DUP5 DUP7 KECCAK256 SLOAD AND ISZERO PUSH2 0x3BCB JUMP JUMPDEST DUP2 ISZERO SWAP2 PUSH2 0x1058 DUP4 ISZERO PUSH2 0x3D73 JUMP JUMPDEST DUP5 SLOAD PUSH1 0x1 PUSH1 0x1 PUSH1 0xA0 SHL SUB SWAP4 SWAP1 PUSH2 0x1071 SWAP1 DUP6 AND ISZERO ISZERO PUSH2 0x3C48 JUMP JUMPDEST DUP4 PUSH1 0x1 SLOAD AND PUSH2 0x1081 DUP2 ISZERO ISZERO PUSH2 0x3DBF JUMP JUMPDEST PUSH3 0xF4240 SWAP2 DUP3 DUP5 MUL SWAP3 DUP5 DUP5 DIV EQ OR ISZERO PUSH2 0x100A JUMPI PUSH2 0x10A0 PUSH1 0x8 SLOAD DUP5 PUSH2 0x3C89 JUMP JUMPDEST SWAP4 PUSH8 0xDE0B6B3A7640000 SWAP5 DUP6 DUP2 MUL SWAP6 DUP2 DUP8 DIV EQ SWAP1 ISZERO OR ISZERO PUSH2 0xFF7 JUMPI DUP7 MLOAD PUSH4 0x23B872DD PUSH1 0xE0 SHL DUP2 MSTORE CALLER SWAP2 DUP2 ADD SWAP2 DUP3 MSTORE PUSH1 0x1 PUSH1 0x1 PUSH1 0xA0 SHL SUB PUSH32 0x0 AND PUSH1 0x20 DUP4 DUP2 ADD SWAP2 SWAP1 SWAP2 MSTORE PUSH1 0x40 DUP4 ADD SWAP5 SWAP1 SWAP5 MSTORE SWAP4 SWAP3 SWAP2 DUP5 SWAP2 DUP3 SWAP1 DUP11 SWAP1 DUP3 SWAP1 PUSH1 0x60 ADD SUB SWAP3 GAS CALL DUP1 ISZERO PUSH2 0xFED JUMPI PUSH1 0x0 DUP1 MLOAD PUSH1 0x20 PUSH2 0x4B6E DUP4 CODECOPY DUP2 MLOAD SWAP2 MSTORE SWAP4 PUSH2 0xF86 PUSH2 0x1149 SWAP3 PUSH2 0x516 SWAP6 DUP11 SWAP2 PUSH2 0x118D JUMPI JUMPDEST POP PUSH2 0x3E19 JUMP JUMPDEST SWAP4 PUSH2 0x1153 DUP6 PUSH2 0x44B4 JUMP JUMPDEST PUSH2 0x1169 DUP2 PUSH1 0x1 SLOAD AND DUP7 DUP5 DUP5 DUP12 SLOAD AND PUSH2 0x4EB PUSH2 0x3D54 JUMP JUMPDEST PUSH1 0x1 SLOAD AND SWAP5 MLOAD SWAP2 DUP3 SWAP2 CALLER SWAP6 TIMESTAMP SWAP2 DUP5 PUSH1 0x40 SWAP2 SWAP5 SWAP4 SWAP3 PUSH1 0x60 DUP3 ADD SWAP6 DUP3 MSTORE PUSH1 0x20 DUP3 ADD MSTORE ADD MSTORE JUMP JUMPDEST PUSH2 0x11A5 SWAP2 POP PUSH1 0x20 RETURNDATASIZE DUP2 GT PUSH2 0x57A JUMPI PUSH2 0x56C DUP2 DUP4 PUSH2 0x39B7 JUMP JUMPDEST CODESIZE PUSH2 0x1143 JUMP JUMPDEST DUP5 CALLVALUE PUSH2 0x6D3 JUMPI PUSH1 0x20 CALLDATASIZE PUSH1 0x3 NOT ADD SLT PUSH2 0x6D3 JUMPI PUSH2 0x11C5 PUSH2 0x37EF JUMP JUMPDEST PUSH1 0x1 PUSH1 0x1 PUSH1 0xA0 SHL SUB SWAP1 PUSH2 0x11FB CALLER PUSH32 0x0 DUP5 AND EQ PUSH2 0x3ADC JUMP JUMPDEST AND PUSH2 0x1207 DUP2 ISZERO ISZERO PUSH2 0x3B51 JUMP JUMPDEST DUP2 SLOAD PUSH1 0x1 PUSH1 0x1 PUSH1 0xA0 SHL SUB NOT AND OR DUP2 SSTORE DUP1 RETURN JUMPDEST POP POP SWAP1 CALLVALUE PUSH2 0x36E JUMPI DUP3 PUSH1 0x3 NOT CALLDATASIZE ADD SLT PUSH2 0x36E JUMPI DUP3 SLOAD DUP2 MLOAD PUSH4 0x70A08231 PUSH1 0xE0 SHL DUP1 DUP3 MSTORE ADDRESS DUP3 DUP7 ADD MSTORE SWAP1 SWAP5 PUSH1 0x1 PUSH1 0x1 PUSH1 0xA0 SHL SUB SWAP5 PUSH1 0x20 SWAP4 DUP5 SWAP1 DUP9 SWAP1 PUSH1 0x24 SWAP1 DUP3 SWAP1 DUP11 AND GAS STATICCALL SWAP6 DUP7 ISZERO PUSH2 0x1385 JUMPI DUP3 SWAP7 PUSH2 0x1355 JUMPI JUMPDEST PUSH1 0x24 SWAP8 POP DUP5 DUP2 PUSH1 0x1 SLOAD AND DUP8 MLOAD SWAP10 DUP11 DUP1 SWAP3 DUP9 DUP3 MSTORE ADDRESS DUP8 DUP4 ADD MSTORE GAS STATICCALL SWAP8 DUP9 ISZERO PUSH2 0x134B JUMPI DUP4 SWAP9 PUSH2 0x131B JUMPI JUMPDEST POP SWAP1 PUSH1 0x24 DUP6 SWAP3 PUSH1 0x2 SLOAD AND SWAP5 DUP8 MLOAD SWAP6 DUP7 SWAP4 DUP5 SWAP3 DUP4 MSTORE ADDRESS SWAP1 DUP4 ADD MSTORE GAS STATICCALL SWAP3 DUP4 ISZERO PUSH2 0x130F JUMPI DUP2 SWAP4 PUSH2 0x12DC JUMPI JUMPDEST POP POP POP PUSH2 0x667 SWAP2 MLOAD SWAP4 DUP5 SWAP4 DUP5 PUSH1 0x40 SWAP2 SWAP5 SWAP4 SWAP3 PUSH1 0x60 DUP3 ADD SWAP6 DUP3 MSTORE PUSH1 0x20 DUP3 ADD MSTORE ADD MSTORE JUMP JUMPDEST SWAP1 SWAP2 DUP1 SWAP4 POP DUP2 RETURNDATASIZE DUP4 GT PUSH2 0x1308 JUMPI JUMPDEST PUSH2 0x12F4 DUP2 DUP4 PUSH2 0x39B7 JUMP JUMPDEST DUP2 ADD SUB SLT PUSH2 0x6D3 JUMPI POP MLOAD PUSH2 0x667 CODESIZE DUP1 PUSH2 0x12BA JUMP JUMPDEST POP RETURNDATASIZE PUSH2 0x12EA JUMP JUMPDEST POP DUP4 MLOAD SWAP1 RETURNDATASIZE SWAP1 DUP3 RETURNDATACOPY RETURNDATASIZE SWAP1 REVERT JUMPDEST SWAP1 SWAP8 POP DUP5 DUP2 DUP2 RETURNDATASIZE DUP4 GT PUSH2 0x1344 JUMPI JUMPDEST PUSH2 0x1333 DUP2 DUP4 PUSH2 0x39B7 JUMP JUMPDEST DUP2 ADD SUB SLT PUSH2 0x36E JUMPI MLOAD SWAP7 PUSH1 0x24 PUSH2 0x1291 JUMP JUMPDEST POP RETURNDATASIZE PUSH2 0x1329 JUMP JUMPDEST DUP7 MLOAD RETURNDATASIZE DUP6 DUP3 RETURNDATACOPY RETURNDATASIZE SWAP1 REVERT JUMPDEST SWAP6 POP DUP4 DUP8 DUP2 RETURNDATASIZE DUP4 GT PUSH2 0x137E JUMPI JUMPDEST PUSH2 0x136C DUP2 DUP4 PUSH2 0x39B7 JUMP JUMPDEST DUP2 ADD SUB SLT PUSH2 0x3B8 JUMPI PUSH1 0x24 SWAP7 MLOAD SWAP6 PUSH2 0x1269 JUMP JUMPDEST POP RETURNDATASIZE PUSH2 0x1362 JUMP JUMPDEST DUP6 MLOAD RETURNDATASIZE DUP5 DUP3 RETURNDATACOPY RETURNDATASIZE SWAP1 REVERT JUMPDEST DUP3 DUP6 DUP6 CALLVALUE PUSH2 0x3B8 JUMPI PUSH1 0x20 SWAP1 DUP2 PUSH1 0x3 NOT CALLDATASIZE ADD SLT PUSH2 0x36E JUMPI PUSH2 0x13AD PUSH2 0x37EF JUMP JUMPDEST SWAP1 CALLER DUP5 MSTORE PUSH1 0xE DUP4 MSTORE PUSH2 0x13C5 PUSH1 0xFF DUP3 DUP7 KECCAK256 SLOAD AND ISZERO PUSH2 0x3BCB JUMP JUMPDEST PUSH1 0x1 PUSH1 0x1 PUSH1 0xA0 SHL SUB SWAP2 DUP3 AND SWAP3 DUP4 ISZERO PUSH2 0x1507 JUMPI CALLER DUP5 EQ PUSH2 0x14CD JUMPI CALLER DUP6 MSTORE PUSH1 0x1C DUP2 MSTORE DUP3 DUP3 DUP7 KECCAK256 SLOAD AND PUSH2 0x1480 JUMPI CALLER DUP6 MSTORE PUSH1 0x1C DUP2 MSTORE DUP2 DUP6 KECCAK256 DUP1 SLOAD PUSH1 0x1 PUSH1 0x1 PUSH1 0xA0 SHL SUB NOT AND DUP6 OR SWAP1 SSTORE DUP4 DUP6 MSTORE PUSH1 0x1D SWAP1 MSTORE DUP4 KECCAK256 DUP1 SLOAD SWAP1 PUSH1 0x1 PUSH1 0x40 SHL DUP3 LT ISZERO PUSH2 0x146D JUMPI SWAP1 PUSH2 0x1431 SWAP2 PUSH1 0x1 DUP3 ADD DUP2 SSTORE PUSH2 0x3AC4 JUMP JUMPDEST DUP2 SWAP3 SWAP2 SLOAD SWAP1 PUSH1 0x3 SHL SWAP2 CALLER DUP4 SHL SWAP3 SHL NOT AND OR SWAP1 SSTORE CALLER SWAP1 PUSH32 0x5F1CA2FCC108B751843A763E60D2201F593516109D7DBB1B700468F2D4190BB7 DUP4 DUP1 LOG3 DUP1 RETURN JUMPDEST PUSH4 0x4E487B71 PUSH1 0xE0 SHL DUP6 MSTORE PUSH1 0x41 DUP7 MSTORE PUSH1 0x24 DUP6 REVERT JUMPDEST DUP6 SWAP1 PUSH1 0x84 SWAP3 MLOAD SWAP2 PUSH3 0x461BCD PUSH1 0xE5 SHL DUP4 MSTORE DUP3 ADD MSTORE PUSH1 0x22 PUSH1 0x24 DUP3 ADD MSTORE PUSH32 0x416C726561647920726567697374657265642077697468206120726566657272 PUSH1 0x44 DUP3 ADD MSTORE PUSH2 0x32B9 PUSH1 0xF1 SHL PUSH1 0x64 DUP3 ADD MSTORE REVERT JUMPDEST DUP6 SWAP1 PUSH1 0x64 SWAP3 MLOAD SWAP2 PUSH3 0x461BCD PUSH1 0xE5 SHL DUP4 MSTORE DUP3 ADD MSTORE PUSH1 0x15 PUSH1 0x24 DUP3 ADD MSTORE PUSH21 0x21B0B73737BA103932B332B9103CB7BAB939B2B633 PUSH1 0x59 SHL PUSH1 0x44 DUP3 ADD MSTORE REVERT JUMPDEST DUP6 SWAP1 PUSH1 0x64 SWAP3 MLOAD SWAP2 PUSH3 0x461BCD PUSH1 0xE5 SHL DUP4 MSTORE DUP3 ADD MSTORE PUSH1 0x18 PUSH1 0x24 DUP3 ADD MSTORE PUSH32 0x496E76616C696420726566657272657220616464726573730000000000000000 PUSH1 0x44 DUP3 ADD MSTORE REVERT JUMPDEST POP POP POP CALLVALUE PUSH2 0x3B8 JUMPI DUP2 PUSH1 0x3 NOT CALLDATASIZE ADD SLT PUSH2 0x3B8 JUMPI PUSH1 0x20 SWAP1 MLOAD PUSH1 0x5 DUP2 MSTORE RETURN JUMPDEST POP POP POP CALLVALUE PUSH2 0x3B8 JUMPI DUP2 PUSH1 0x3 NOT CALLDATASIZE ADD SLT PUSH2 0x3B8 JUMPI PUSH1 0x1 SLOAD SWAP1 MLOAD PUSH1 0x1 PUSH1 0x1 PUSH1 0xA0 SHL SUB SWAP1 SWAP2 AND DUP2 MSTORE PUSH1 0x20 SWAP1 RETURN JUMPDEST POP POP CALLVALUE PUSH2 0x36E JUMPI PUSH1 0x20 SWAP1 DUP2 PUSH1 0x3 NOT CALLDATASIZE ADD SLT PUSH2 0x5D5 JUMPI CALLDATALOAD DUP1 DUP5 MSTORE PUSH1 0x15 DUP3 MSTORE DUP3 DUP5 KECCAK256 SLOAD PUSH1 0x1 PUSH1 0x1 PUSH1 0xA0 SHL SUB AND SWAP4 SWAP1 SWAP3 SWAP1 PUSH2 0x15C9 DUP6 ISZERO ISZERO PUSH2 0x3F61 JUMP JUMPDEST PUSH2 0x15D1 PUSH2 0x4B35 JUMP JUMPDEST DUP2 SWAP6 DUP3 JUMPDEST DUP2 DUP5 MSTORE PUSH1 0x14 DUP1 DUP8 MSTORE DUP6 DUP6 KECCAK256 DUP1 SLOAD DUP4 LT ISZERO PUSH2 0x1656 JUMPI PUSH2 0x15F4 DUP4 DUP11 SWAP3 PUSH2 0x38FD JUMP JUMPDEST POP SLOAD EQ PUSH2 0x160A JUMPI POP PUSH2 0x1605 SWAP1 PUSH2 0x3F45 JUMP JUMPDEST PUSH2 0x15D5 JUMP JUMPDEST PUSH1 0x60 SWAP9 POP PUSH2 0x162D SWAP4 POP DUP5 DUP7 SWAP2 PUSH2 0x1627 SWAP5 PUSH2 0x163D SWAP8 MSTORE DUP9 MSTORE KECCAK256 PUSH2 0x38FD JUMP JUMPDEST POP PUSH2 0x4AE0 JUMP JUMPDEST SWAP4 PUSH2 0x1638 PUSH1 0x1 PUSH2 0x3FA4 JUMP JUMPDEST PUSH2 0x402E JUMP JUMPDEST PUSH1 0xC0 DUP6 DUP6 ADD MLOAD SWAP5 ADD MLOAD ISZERO ISZERO SWAP3 DUP3 MLOAD SWAP5 DUP6 MSTORE DUP5 ADD MSTORE DUP3 ADD MSTORE RETURN JUMPDEST POP POP POP POP SWAP4 PUSH2 0x163D SWAP2 POP PUSH2 0x1638 PUSH1 0x60 SWAP7 PUSH2 0x3FA4 JUMP JUMPDEST POP POP POP CALLVALUE PUSH2 0x3B8 JUMPI DUP2 PUSH1 0x3 NOT CALLDATASIZE ADD SLT PUSH2 0x3B8 JUMPI PUSH1 0x20 SWAP1 PUSH1 0x1B SLOAD SWAP1 MLOAD SWAP1 DUP2 MSTORE RETURN JUMPDEST POP POP POP CALLVALUE PUSH2 0x3B8 JUMPI DUP2 PUSH1 0x3 NOT CALLDATASIZE ADD SLT PUSH2 0x3B8 JUMPI MLOAD PUSH32 0x0 PUSH1 0x1 PUSH1 0x1 PUSH1 0xA0 SHL SUB AND DUP2 MSTORE PUSH1 0x20 SWAP1 RETURN JUMPDEST POP POP POP CALLVALUE PUSH2 0x3B8 JUMPI DUP2 PUSH1 0x3 NOT CALLDATASIZE ADD SLT PUSH2 0x3B8 JUMPI PUSH1 0x20 SWAP1 PUSH1 0x18 SLOAD SWAP1 MLOAD SWAP1 DUP2 MSTORE RETURN JUMPDEST SWAP2 POP POP CALLVALUE PUSH2 0x36E JUMPI PUSH1 0x20 DUP1 PUSH1 0x3 NOT CALLDATASIZE ADD SLT PUSH2 0x5D5 JUMPI SWAP1 SWAP2 PUSH1 0x1 PUSH1 0x1 PUSH1 0xA0 SHL SUB PUSH2 0x1717 PUSH2 0x37EF JUMP JUMPDEST AND DUP5 MSTORE PUSH1 0x14 DUP3 MSTORE DUP1 DUP5 KECCAK256 SWAP2 DUP3 SLOAD SWAP2 PUSH2 0x172E DUP4 PUSH2 0x4AC8 JUMP JUMPDEST SWAP3 PUSH2 0x173B DUP3 MLOAD SWAP5 DUP6 PUSH2 0x39B7 JUMP JUMPDEST DUP1 DUP5 MSTORE DUP3 DUP5 ADD DUP1 SWAP6 DUP9 MSTORE DUP4 DUP9 KECCAK256 DUP9 SWAP2 JUMPDEST DUP4 DUP4 LT PUSH2 0x17CB JUMPI POP POP POP POP DUP1 MLOAD SWAP5 DUP3 DUP7 ADD SWAP4 DUP4 DUP8 MSTORE MLOAD DUP1 SWAP5 MSTORE DUP2 DUP7 ADD SWAP5 SWAP7 SWAP2 JUMPDEST DUP5 DUP4 LT PUSH2 0x1778 JUMPI DUP7 DUP7 SUB DUP8 RETURN JUMPDEST DUP8 MLOAD DUP1 MLOAD DUP8 MSTORE DUP1 DUP6 ADD MLOAD DUP8 DUP7 ADD MSTORE DUP1 DUP3 ADD MLOAD DUP8 DUP4 ADD MSTORE PUSH1 0x60 DUP1 DUP3 ADD MLOAD SWAP1 DUP9 ADD MSTORE PUSH1 0x80 DUP1 DUP3 ADD MLOAD SWAP1 DUP9 ADD MSTORE PUSH1 0xA0 DUP1 DUP3 ADD MLOAD SWAP1 DUP9 ADD MSTORE PUSH1 0xC0 SWAP1 DUP2 ADD MLOAD ISZERO ISZERO SWAP1 DUP8 ADD MSTORE SWAP7 DUP4 ADD SWAP7 SWAP5 DUP2 ADD SWAP5 PUSH1 0x1 SWAP1 SWAP3 ADD SWAP2 PUSH2 0x176B JUMP JUMPDEST PUSH1 0x7 DUP7 PUSH1 0x1 SWAP3 PUSH2 0x17E2 DUP6 SWAP14 SWAP10 SWAP11 SWAP12 SWAP14 SWAP13 SWAP9 SWAP13 PUSH2 0x4AE0 JUMP JUMPDEST DUP2 MSTORE ADD SWAP3 ADD SWAP3 ADD SWAP2 SWAP1 SWAP9 SWAP7 SWAP6 SWAP5 SWAP9 SWAP8 SWAP4 SWAP8 PUSH2 0x174B JUMP JUMPDEST POP POP POP CALLVALUE PUSH2 0x3B8 JUMPI DUP2 PUSH1 0x3 NOT CALLDATASIZE ADD SLT PUSH2 0x3B8 JUMPI PUSH1 0x20 SWAP1 PUSH1 0x8 SLOAD SWAP1 MLOAD SWAP1 DUP2 MSTORE RETURN JUMPDEST POP POP POP CALLVALUE PUSH2 0x3B8 JUMPI DUP2 PUSH1 0x3 NOT CALLDATASIZE ADD SLT PUSH2 0x3B8 JUMPI PUSH1 0x20 SWAP1 PUSH1 0x16 SLOAD SWAP1 MLOAD SWAP1 DUP2 MSTORE RETURN JUMPDEST DUP4 DUP6 CALLVALUE PUSH2 0x6D3 JUMPI PUSH1 0x20 SWAP1 DUP2 PUSH1 0x3 NOT CALLDATASIZE ADD SLT PUSH2 0x6D3 JUMPI PUSH2 0x1855 PUSH2 0x37EF JUMP JUMPDEST SWAP1 SWAP2 DUP3 SWAP2 DUP3 SWAP2 SWAP1 DUP3 SWAP1 PUSH1 0x1 PUSH1 0x1 PUSH1 0xA0 SHL SUB AND DUP2 JUMPDEST DUP2 DUP7 MSTORE PUSH1 0x14 DUP1 DUP6 MSTORE DUP9 DUP8 KECCAK256 DUP1 SLOAD DUP4 LT ISZERO PUSH2 0x1903 JUMPI PUSH1 0xFF PUSH1 0x6 PUSH2 0x188C DUP6 DUP14 SWAP5 PUSH2 0x38FD JUMP JUMPDEST POP ADD SLOAD AND PUSH2 0x18A5 JUMPI JUMPDEST POP POP PUSH2 0x18A0 SWAP1 PUSH2 0x3F45 JUMP JUMPDEST PUSH2 0x1869 JUMP JUMPDEST DUP3 SWAP7 SWAP5 PUSH2 0x18D3 DUP4 SWAP11 PUSH1 0x1 PUSH2 0x18CA PUSH2 0x18A0 SWAP8 PUSH2 0x18F5 SWAP7 DUP15 PUSH2 0x18FB SWAP10 DUP15 DUP14 DUP4 MSTORE MSTORE KECCAK256 PUSH2 0x38FD JUMP JUMPDEST POP ADD SLOAD SWAP1 PUSH2 0x3F54 JUMP JUMPDEST SWAP10 DUP6 DUP11 MSTORE DUP8 MSTORE PUSH2 0x18EF PUSH2 0x18E8 DUP10 DUP14 DUP13 KECCAK256 PUSH2 0x38FD JUMP JUMPDEST POP SLOAD PUSH2 0x402E JUMP JUMPDEST SWAP1 PUSH2 0x3F54 JUMP JUMPDEST SWAP4 PUSH2 0x3F45 JUMP JUMPDEST SWAP5 SWAP1 DUP9 PUSH2 0x1895 JUMP JUMPDEST DUP10 MLOAD DUP10 DUP2 MSTORE PUSH1 0x20 DUP2 ADD DUP7 SWAP1 MSTORE PUSH1 0x40 DUP2 ADD DUP9 SWAP1 MSTORE PUSH1 0x60 SWAP1 RETURN JUMPDEST SWAP3 SWAP1 POP CALLVALUE PUSH2 0x5D5 JUMPI DUP4 PUSH1 0x3 NOT CALLDATASIZE ADD SLT PUSH2 0x5D5 JUMPI DUP4 SLOAD DUP2 MLOAD PUSH4 0x70A08231 PUSH1 0xE0 SHL DUP2 MSTORE ADDRESS SWAP4 DUP2 ADD SWAP4 SWAP1 SWAP4 MSTORE PUSH1 0x1 PUSH1 0x1 PUSH1 0xA0 SHL SUB SWAP1 DUP2 AND SWAP4 SWAP1 PUSH1 0x20 DUP5 PUSH1 0x24 DUP2 DUP9 GAS STATICCALL SWAP4 DUP5 ISZERO PUSH2 0x19F4 JUMPI DUP7 SWAP5 PUSH2 0x19B8 JUMPI JUMPDEST POP PUSH2 0x120 SWAP6 POP PUSH1 0x6 SLOAD SWAP1 PUSH1 0x7 SLOAD PUSH1 0xD SLOAD SWAP1 DUP3 PUSH1 0x1 SLOAD AND SWAP3 PUSH1 0x2 SLOAD AND SWAP4 PUSH1 0x8 SLOAD SWAP7 PUSH1 0x9 SLOAD SWAP9 DUP2 MLOAD SWAP11 DUP12 MSTORE PUSH1 0x20 DUP12 ADD MSTORE DUP10 ADD MSTORE PUSH1 0x60 DUP9 ADD MSTORE PUSH1 0x80 DUP8 ADD MSTORE PUSH1 0xA0 DUP7 ADD MSTORE PUSH1 0xC0 DUP6 ADD MSTORE DUP4 ADD MSTORE PUSH2 0x100 DUP3 ADD MSTORE RETURN JUMPDEST SWAP1 SWAP4 POP PUSH1 0x20 DUP2 RETURNDATASIZE DUP3 GT PUSH2 0x19EC JUMPI JUMPDEST DUP2 PUSH2 0x19D3 PUSH1 0x20 SWAP4 DUP4 PUSH2 0x39B7 JUMP JUMPDEST DUP2 ADD SUB SLT PUSH2 0x19E8 JUMPI PUSH2 0x120 SWAP6 POP MLOAD SWAP3 CODESIZE PUSH2 0x1968 JUMP JUMPDEST DUP6 DUP1 REVERT JUMPDEST RETURNDATASIZE SWAP2 POP PUSH2 0x19C6 JUMP JUMPDEST DUP4 MLOAD RETURNDATASIZE DUP9 DUP3 RETURNDATACOPY RETURNDATASIZE SWAP1 REVERT JUMPDEST POP POP POP CALLVALUE PUSH2 0x3B8 JUMPI DUP2 PUSH1 0x3 NOT CALLDATASIZE ADD SLT PUSH2 0x3B8 JUMPI PUSH1 0x20 SWAP1 PUSH1 0xC SLOAD SWAP1 MLOAD SWAP1 DUP2 MSTORE RETURN JUMPDEST POP POP POP CALLVALUE PUSH2 0x3B8 JUMPI DUP2 PUSH1 0x3 NOT CALLDATASIZE ADD SLT PUSH2 0x3B8 JUMPI PUSH1 0x20 SWAP1 PUSH1 0x19 SLOAD SWAP1 MLOAD SWAP1 DUP2 MSTORE RETURN JUMPDEST POP POP CALLVALUE PUSH2 0x36E JUMPI PUSH1 0x20 CALLDATASIZE PUSH1 0x3 NOT ADD SLT PUSH2 0x36E JUMPI DUP1 CALLDATALOAD SWAP1 PUSH2 0x1A88 CALLER PUSH32 0x0 PUSH1 0x1 PUSH1 0x1 PUSH1 0xA0 SHL SUB AND EQ PUSH2 0x3ADC JUMP JUMPDEST DUP2 ISZERO PUSH2 0x1AC8 JUMPI POP SWAP1 PUSH32 0x787A1FCA55641CE34A438271930BBB9401DF20DB2B4F510D4F252227D85DF43D SWAP2 PUSH1 0x12 SLOAD SWAP1 DUP1 PUSH1 0x12 SSTORE DUP3 MLOAD SWAP2 DUP3 MSTORE PUSH1 0x20 DUP3 ADD MSTORE LOG1 DUP1 RETURN JUMPDEST PUSH1 0x64 SWAP1 PUSH1 0x20 DUP5 MLOAD SWAP2 PUSH3 0x461BCD PUSH1 0xE5 SHL DUP4 MSTORE DUP3 ADD MSTORE PUSH1 0x1A PUSH1 0x24 DUP3 ADD MSTORE PUSH32 0x415059206D7573742062652067726561746572207468616E2030000000000000 PUSH1 0x44 DUP3 ADD MSTORE REVERT JUMPDEST POP POP POP CALLVALUE PUSH2 0x3B8 JUMPI DUP2 PUSH1 0x3 NOT CALLDATASIZE ADD SLT PUSH2 0x3B8 JUMPI PUSH1 0x20 SWAP1 PUSH1 0x9 SLOAD SWAP1 MLOAD SWAP1 DUP2 MSTORE RETURN JUMPDEST POP POP CALLVALUE PUSH2 0x36E JUMPI PUSH1 0x20 CALLDATASIZE PUSH1 0x3 NOT ADD SLT PUSH2 0x36E JUMPI PUSH32 0x6E838F2A03741F5F2AFF5480963B672FB0DD8430A4DC75DB9B67CE009733C9FE SWAP2 PUSH1 0xA0 SWAP2 CALLDATALOAD PUSH2 0x1B98 CALLER PUSH32 0x0 PUSH1 0x1 PUSH1 0x1 PUSH1 0xA0 SHL SUB AND EQ PUSH2 0x3ADC JUMP JUMPDEST PUSH2 0x1BA3 DUP2 ISZERO ISZERO PUSH2 0x3B15 JUMP JUMPDEST PUSH1 0x6 SLOAD SWAP2 DUP2 PUSH1 0x6 SSTORE DUP1 MLOAD SWAP3 PUSH1 0x60 DUP5 MSTORE PUSH1 0x5 PUSH1 0x60 DUP6 ADD MSTORE PUSH5 0x2A27A5A2A7 PUSH1 0xD9 SHL PUSH1 0x80 DUP6 ADD MSTORE PUSH1 0x20 DUP5 ADD MSTORE DUP3 ADD MSTORE LOG1 DUP1 RETURN JUMPDEST POP POP CALLVALUE PUSH2 0x36E JUMPI PUSH1 0x20 CALLDATASIZE PUSH1 0x3 NOT ADD SLT PUSH2 0x36E JUMPI PUSH32 0x6E838F2A03741F5F2AFF5480963B672FB0DD8430A4DC75DB9B67CE009733C9FE SWAP2 PUSH1 0xA0 SWAP2 CALLDATALOAD PUSH2 0x1C40 CALLER PUSH32 0x0 PUSH1 0x1 PUSH1 0x1 PUSH1 0xA0 SHL SUB AND EQ PUSH2 0x3ADC JUMP JUMPDEST PUSH2 0x1C4B DUP2 ISZERO ISZERO PUSH2 0x3B15 JUMP JUMPDEST PUSH1 0x7 SLOAD SWAP2 DUP2 PUSH1 0x7 SSTORE DUP1 MLOAD SWAP3 PUSH1 0x60 DUP5 MSTORE PUSH1 0xA PUSH1 0x60 DUP6 ADD MSTORE PUSH10 0x29AA20A12622A1A7A4A7 PUSH1 0xB1 SHL PUSH1 0x80 DUP6 ADD MSTORE PUSH1 0x20 DUP5 ADD MSTORE DUP3 ADD MSTORE LOG1 DUP1 RETURN JUMPDEST POP POP SWAP1 CALLVALUE PUSH2 0x36E JUMPI PUSH1 0x20 SWAP1 DUP2 PUSH1 0x3 NOT CALLDATASIZE ADD SLT PUSH2 0x5D5 JUMPI DUP3 SWAP2 SWAP3 CALLDATALOAD SWAP3 CALLER DUP6 MSTORE PUSH1 0xE DUP2 MSTORE PUSH1 0xFF PUSH2 0x1CB3 DUP2 DUP5 DUP9 KECCAK256 SLOAD AND ISZERO PUSH2 0x3BCB JUMP JUMPDEST DUP5 DUP7 MSTORE PUSH1 0x15 DUP3 MSTORE DUP3 DUP7 KECCAK256 SLOAD PUSH1 0x1 PUSH1 0x1 PUSH1 0xA0 SHL SUB SWAP1 PUSH2 0x1CD4 SWAP1 DUP3 AND CALLER EQ PUSH2 0x423C JUMP JUMPDEST DUP7 SWAP5 DUP6 SWAP3 DUP4 DUP1 JUMPDEST CALLER DUP12 MSTORE PUSH1 0x14 DUP1 DUP9 MSTORE DUP9 DUP13 KECCAK256 DUP1 SLOAD DUP4 LT ISZERO PUSH2 0x1F46 JUMPI SWAP11 PUSH2 0x1CFC DUP4 DUP3 SWAP13 SWAP14 PUSH2 0x38FD JUMP JUMPDEST POP SLOAD EQ PUSH2 0x1D15 JUMPI POP PUSH2 0x1D0D SWAP1 PUSH2 0x3F45 JUMP JUMPDEST SWAP9 SWAP8 SWAP9 PUSH2 0x1CDB JUMP JUMPDEST SWAP6 POP SWAP8 SWAP9 POP POP CALLER DUP10 MSTORE DUP4 DUP6 MSTORE PUSH2 0x1D3E PUSH2 0x1D30 DUP9 DUP9 DUP13 KECCAK256 PUSH2 0x38FD JUMP JUMPDEST POP SWAP2 PUSH1 0x6 DUP1 SWAP4 ADD SLOAD AND PUSH2 0x3FE2 JUMP JUMPDEST CALLER DUP10 MSTORE DUP4 DUP6 MSTORE PUSH1 0x2 PUSH2 0x1D52 DUP9 DUP9 DUP13 KECCAK256 PUSH2 0x38FD JUMP JUMPDEST POP ADD SLOAD CALLER DUP11 MSTORE DUP5 DUP7 MSTORE PUSH1 0x3 PUSH2 0x1D69 DUP10 DUP10 DUP14 KECCAK256 PUSH2 0x38FD JUMP JUMPDEST POP ADD SLOAD SWAP1 PUSH3 0x15180 SWAP2 DUP3 DUP2 MUL SWAP3 DUP2 DUP5 DIV EQ SWAP1 ISZERO OR ISZERO PUSH2 0x1F33 JUMPI SWAP1 PUSH2 0x1D8C SWAP2 PUSH2 0x3F54 JUMP JUMPDEST TIMESTAMP LT PUSH2 0x1EFB JUMPI SWAP2 DUP5 SWAP2 PUSH2 0x1DEF DUP11 PUSH2 0x1E35 SWAP6 PUSH2 0x1DD1 PUSH2 0x1DA9 DUP14 PUSH2 0x402E JUMP JUMPDEST SWAP12 CALLER DUP5 MSTORE DUP10 DUP9 MSTORE DUP12 PUSH2 0x1DBD DUP3 DUP3 DUP8 KECCAK256 PUSH2 0x38FD JUMP JUMPDEST POP SWAP5 PUSH1 0x1 DUP1 SWAP7 ADD SLOAD SWAP12 CALLER DUP3 MSTORE DUP11 MSTORE KECCAK256 PUSH2 0x38FD JUMP JUMPDEST POP ADD PUSH1 0xFF NOT DUP2 SLOAD AND SWAP1 SSTORE PUSH1 0x16 PUSH2 0x1DE8 DUP9 DUP3 SLOAD PUSH2 0x4021 JUMP JUMPDEST SWAP1 SSTORE PUSH2 0x3FA4 JUMP JUMPDEST PUSH2 0x1DF8 CALLER PUSH2 0x43FB JUMP JUMPDEST PUSH2 0x1E02 DUP9 DUP7 PUSH2 0x3F54 JUMP JUMPDEST DUP11 SLOAD DUP9 MLOAD PUSH4 0xA9059CBB PUSH1 0xE0 SHL DUP2 MSTORE CALLER SWAP4 DUP2 ADD SWAP4 DUP5 MSTORE PUSH1 0x20 DUP5 ADD SWAP3 SWAP1 SWAP3 MSTORE SWAP1 SWAP5 DUP6 SWAP4 SWAP1 SWAP2 AND SWAP2 DUP4 SWAP2 DUP13 SWAP2 DUP4 SWAP2 PUSH1 0x40 SWAP1 SWAP2 ADD SWAP1 JUMP JUMPDEST SUB SWAP3 GAS CALL SWAP1 DUP2 ISZERO PUSH2 0x1EF1 JUMPI SWAP1 PUSH2 0x1E52 SWAP2 DUP9 SWAP2 PUSH2 0x1ED4 JUMPI JUMPDEST POP PUSH2 0x3F01 JUMP JUMPDEST DUP5 DUP5 ISZERO ISZERO SWAP2 DUP3 PUSH2 0x1EC0 JUMPI JUMPDEST DUP5 MLOAD SWAP1 DUP2 MSTORE PUSH32 0x7FC4727E062E336010F2C282598EF5F14FACB3DE68CF8195C2F23E1454B2B74E DUP5 CALLER SWAP3 LOG3 PUSH2 0x1E8F JUMPI DUP5 DUP1 RETURN JUMPDEST PUSH32 0xF87CFA2D5FEAEA949AD65BB76A26D8553381BCB6382ADBC83DEDD48961BF32D9 SWAP2 MLOAD SWAP3 DUP4 MSTORE CALLER SWAP3 LOG3 CODESIZE DUP1 DUP1 DUP1 DUP5 DUP1 RETURN JUMPDEST PUSH2 0x1ECC DUP7 PUSH1 0x17 SLOAD PUSH2 0x3F54 JUMP JUMPDEST PUSH1 0x17 SSTORE PUSH2 0x1E5D JUMP JUMPDEST PUSH2 0x1EEB SWAP2 POP DUP5 RETURNDATASIZE DUP7 GT PUSH2 0x57A JUMPI PUSH2 0x56C DUP2 DUP4 PUSH2 0x39B7 JUMP JUMPDEST CODESIZE PUSH2 0x1E4C JUMP JUMPDEST DUP5 MLOAD RETURNDATASIZE DUP10 DUP3 RETURNDATACOPY RETURNDATASIZE SWAP1 REVERT JUMPDEST PUSH1 0x64 DUP3 DUP6 DUP8 DUP10 MLOAD SWAP3 PUSH3 0x461BCD PUSH1 0xE5 SHL DUP5 MSTORE DUP4 ADD MSTORE PUSH1 0x24 DUP3 ADD MSTORE PUSH20 0x14DD1A5B1B081A5B881B1BD8DAC81C195C9A5BD9 PUSH1 0x62 SHL PUSH1 0x44 DUP3 ADD MSTORE REVERT JUMPDEST PUSH4 0x4E487B71 PUSH1 0xE0 SHL DUP12 MSTORE PUSH1 0x11 DUP5 MSTORE PUSH1 0x24 DUP12 REVERT JUMPDEST POP POP POP PUSH2 0x1E35 SWAP4 SWAP2 POP SWAP2 PUSH2 0x1DEF DUP7 SWAP4 PUSH2 0x3FA4 JUMP JUMPDEST POP POP DUP3 PUSH1 0x3 NOT CALLDATASIZE ADD SLT PUSH2 0x36E JUMPI CALLER DUP4 MSTORE PUSH1 0x20 PUSH1 0xE DUP2 MSTORE PUSH2 0x1F80 PUSH1 0xFF DUP5 DUP7 KECCAK256 SLOAD AND ISZERO PUSH2 0x3BCB JUMP JUMPDEST CALLVALUE ISZERO SWAP1 PUSH2 0x1F8D DUP3 ISZERO PUSH2 0x3C0C JUMP JUMPDEST PUSH1 0x1 SLOAD PUSH1 0x1 PUSH1 0x1 PUSH1 0xA0 SHL SUB SWAP3 SWAP1 DUP4 AND SWAP1 PUSH2 0x1FA8 DUP3 ISZERO ISZERO PUSH2 0x3DBF JUMP JUMPDEST PUSH3 0xF4240 SWAP1 DUP2 CALLVALUE MUL SWAP2 CALLVALUE DUP4 DIV EQ OR ISZERO PUSH2 0x216D JUMPI PUSH1 0x7 SLOAD PUSH2 0x1FC7 SWAP2 PUSH2 0x3CB2 JUMP JUMPDEST SWAP4 DUP6 MLOAD PUSH4 0x70A08231 PUSH1 0xE0 SHL DUP2 MSTORE ADDRESS DUP3 DUP3 ADD MSTORE DUP4 DUP2 PUSH1 0x24 DUP2 DUP7 GAS STATICCALL DUP1 ISZERO PUSH2 0x581 JUMPI DUP7 SWAP2 DUP10 SWAP2 PUSH2 0x2138 JUMPI JUMPDEST POP LT PUSH2 0x20F5 JUMPI DUP6 MLOAD PUSH4 0xA9059CBB PUSH1 0xE0 SHL DUP2 MSTORE CALLER SWAP2 DUP2 ADD SWAP2 DUP3 MSTORE PUSH1 0x20 DUP3 ADD DUP7 SWAP1 MSTORE SWAP4 SWAP3 SWAP2 DUP3 SWAP2 DUP6 SWAP2 SWAP1 DUP3 SWAP1 DUP11 SWAP1 DUP3 SWAP1 PUSH1 0x40 ADD SUB SWAP3 GAS CALL DUP1 ISZERO PUSH2 0xFED JUMPI PUSH32 0x48A1F8A6C840B32621CEAB4439A2CCD00B337E705DFDCDEC0B40C49ABF3E6BE3 SWAP4 PUSH2 0x205F SWAP3 DUP9 SWAP3 PUSH2 0x20D8 JUMPI JUMPDEST POP POP PUSH2 0x3E19 JUMP JUMPDEST PUSH2 0x209A DUP6 DUP1 DUP1 DUP1 CALLVALUE DUP7 PUSH32 0x0 AND GAS CALL PUSH2 0x2094 PUSH2 0x3CD2 JUMP JUMPDEST POP PUSH2 0x3D12 JUMP JUMPDEST PUSH2 0x20B4 DUP2 PUSH1 0x1 SLOAD AND DUP5 PUSH2 0x20AB PUSH2 0x3EE1 JUMP JUMPDEST SWAP2 CALLVALUE SWAP1 CALLER PUSH2 0x4A0D JUMP JUMPDEST PUSH1 0x1 SLOAD SWAP4 MLOAD SWAP3 DUP4 MSTORE CALLVALUE PUSH1 0x20 DUP5 ADD MSTORE TIMESTAMP PUSH1 0x40 DUP5 ADD MSTORE SWAP1 SWAP3 AND SWAP2 CALLER SWAP2 DUP1 PUSH1 0x60 DUP2 ADD PUSH2 0x516 JUMP JUMPDEST PUSH2 0x20EE SWAP3 POP DUP1 RETURNDATASIZE LT PUSH2 0x57A JUMPI PUSH2 0x56C DUP2 DUP4 PUSH2 0x39B7 JUMP JUMPDEST CODESIZE DUP1 PUSH2 0x2058 JUMP JUMPDEST DUP6 MLOAD PUSH3 0x461BCD PUSH1 0xE5 SHL DUP2 MSTORE SWAP1 DUP2 ADD DUP4 SWAP1 MSTORE PUSH1 0x1B PUSH1 0x24 DUP3 ADD MSTORE PUSH32 0x496E73756666696369656E742055534454206C69717569646974790000000000 PUSH1 0x44 DUP3 ADD MSTORE PUSH1 0x64 SWAP1 REVERT JUMPDEST DUP1 SWAP3 POP DUP6 DUP1 SWAP3 POP RETURNDATASIZE DUP4 GT PUSH2 0x2166 JUMPI JUMPDEST PUSH2 0x2151 DUP2 DUP4 PUSH2 0x39B7 JUMP JUMPDEST DUP2 ADD SUB SLT PUSH2 0x2162 JUMPI DUP6 SWAP1 MLOAD CODESIZE PUSH2 0x1FF0 JUMP JUMPDEST DUP8 DUP1 REVERT JUMPDEST POP RETURNDATASIZE PUSH2 0x2147 JUMP JUMPDEST PUSH4 0x4E487B71 PUSH1 0xE0 SHL DUP8 MSTORE PUSH1 0x11 DUP6 MSTORE PUSH1 0x24 DUP8 REVERT JUMPDEST POP POP POP CALLVALUE PUSH2 0x3B8 JUMPI PUSH1 0x20 DUP1 PUSH1 0x3 NOT CALLDATASIZE ADD SLT PUSH2 0x36E JUMPI PUSH1 0x1 PUSH1 0x1 PUSH1 0xA0 SHL SUB SWAP3 DUP4 PUSH2 0x21A7 PUSH2 0x37EF JUMP JUMPDEST AND DUP2 MSTORE PUSH1 0x1D DUP3 MSTORE DUP3 DUP2 KECCAK256 SWAP2 DUP4 MLOAD SWAP1 DUP2 DUP2 DUP6 SLOAD SWAP2 DUP3 DUP2 MSTORE ADD SWAP1 DUP2 SWAP6 DUP6 MSTORE DUP3 DUP6 KECCAK256 SWAP1 DUP6 JUMPDEST DUP2 DUP2 LT PUSH2 0x2215 JUMPI POP POP POP DUP3 PUSH2 0x21DF SWAP2 SUB DUP4 PUSH2 0x39B7 JUMP JUMPDEST DUP5 MLOAD SWAP5 DUP2 DUP7 ADD SWAP3 DUP3 DUP8 MSTORE MLOAD DUP1 SWAP4 MSTORE DUP6 ADD SWAP4 SWAP3 JUMPDEST DUP3 DUP2 LT PUSH2 0x21FF JUMPI DUP6 DUP6 SUB DUP7 RETURN JUMPDEST DUP4 MLOAD DUP8 AND DUP6 MSTORE SWAP4 DUP2 ADD SWAP4 SWAP3 DUP2 ADD SWAP3 PUSH1 0x1 ADD PUSH2 0x21F2 JUMP JUMPDEST DUP3 SLOAD DUP11 AND DUP5 MSTORE SWAP3 DUP5 ADD SWAP3 PUSH1 0x1 SWAP3 DUP4 ADD SWAP3 ADD PUSH2 0x21C9 JUMP JUMPDEST DUP4 DUP6 DUP5 CALLVALUE PUSH2 0x3B8 JUMPI PUSH1 0x20 SWAP1 DUP2 PUSH1 0x3 NOT CALLDATASIZE ADD SLT PUSH2 0x36E JUMPI DUP1 CALLDATALOAD SWAP2 CALLER DUP5 MSTORE PUSH1 0xE DUP2 MSTORE PUSH1 0xFF SWAP5 PUSH2 0x225D DUP7 DUP3 DUP8 KECCAK256 SLOAD AND ISZERO PUSH2 0x3BCB JUMP JUMPDEST DUP4 DUP6 MSTORE PUSH1 0x15 SWAP3 DUP4 DUP4 MSTORE PUSH1 0x1 DUP1 PUSH1 0xA0 SHL SUB PUSH2 0x227D CALLER DUP3 DUP6 DUP11 KECCAK256 SLOAD AND EQ PUSH2 0x423C JUMP JUMPDEST DUP7 DUP8 JUMPDEST CALLER DUP10 MSTORE PUSH1 0x14 DUP1 DUP8 MSTORE DUP6 DUP11 KECCAK256 DUP1 SLOAD DUP4 LT ISZERO PUSH2 0x2446 JUMPI PUSH2 0x229F DUP4 DUP12 SWAP3 PUSH2 0x38FD JUMP JUMPDEST POP SLOAD EQ PUSH2 0x22B5 JUMPI POP PUSH2 0x22B0 SWAP1 PUSH2 0x3F45 JUMP JUMPDEST PUSH2 0x2280 JUMP JUMPDEST SWAP2 POP SWAP2 SWAP3 SWAP4 SWAP5 SWAP6 SWAP7 SWAP8 SWAP9 PUSH2 0x22E0 SWAP1 PUSH1 0x6 PUSH2 0x22D7 DUP6 DUP10 DUP15 CALLER DUP2 MSTORE DUP8 DUP14 MSTORE KECCAK256 PUSH2 0x38FD JUMP JUMPDEST POP ADD SLOAD AND PUSH2 0x3FE2 JUMP JUMPDEST PUSH2 0x22E9 DUP9 PUSH2 0x402E JUMP JUMPDEST SWAP7 DUP8 ISZERO PUSH2 0x240D JUMPI POP SWAP1 PUSH2 0x231B SWAP2 CALLER DUP11 MSTORE DUP1 DUP8 MSTORE DUP10 PUSH1 0x5 PUSH2 0x230B DUP5 DUP10 DUP5 KECCAK256 PUSH2 0x38FD JUMP JUMPDEST POP ADD SSTORE CALLER DUP11 MSTORE DUP7 MSTORE DUP5 DUP10 KECCAK256 PUSH2 0x38FD JUMP JUMPDEST POP TIMESTAMP SWAP1 DUP4 ADD SSTORE DUP7 SLOAD DUP4 MLOAD PUSH4 0xA9059CBB PUSH1 0xE0 SHL DUP2 MSTORE CALLER DUP2 DUP6 ADD SWAP1 DUP2 MSTORE PUSH1 0x20 DUP2 ADD DUP9 SWAP1 MSTORE SWAP1 SWAP3 DUP7 SWAP3 DUP5 SWAP3 DUP4 SWAP1 SUB PUSH1 0x40 ADD SWAP2 DUP4 SWAP2 DUP13 SWAP2 AND GAS CALL SWAP1 DUP2 ISZERO PUSH2 0x2403 JUMPI DUP8 SWAP2 PUSH2 0x23E6 JUMPI JUMPDEST POP ISZERO PUSH2 0x23AC JUMPI POP SWAP1 PUSH32 0xF87CFA2D5FEAEA949AD65BB76A26D8553381BCB6382ADBC83DEDD48961BF32D9 SWAP2 PUSH1 0x17 PUSH2 0x2396 DUP6 DUP3 SLOAD PUSH2 0x3F54 JUMP JUMPDEST SWAP1 SSTORE MLOAD SWAP3 DUP4 MSTORE CALLER SWAP3 LOG3 PUSH2 0x23A9 PUSH1 0x1 PUSH2 0x3FA4 JUMP JUMPDEST DUP1 RETURN JUMPDEST DUP3 PUSH1 0x64 SWAP3 MLOAD SWAP2 PUSH3 0x461BCD PUSH1 0xE5 SHL DUP4 MSTORE DUP3 ADD MSTORE PUSH1 0x16 PUSH1 0x24 DUP3 ADD MSTORE PUSH22 0x14995DD85C99081D1C985B9CD9995C8819985A5B1959 PUSH1 0x52 SHL PUSH1 0x44 DUP3 ADD MSTORE REVERT JUMPDEST PUSH2 0x23FD SWAP2 POP DUP5 RETURNDATASIZE DUP7 GT PUSH2 0x57A JUMPI PUSH2 0x56C DUP2 DUP4 PUSH2 0x39B7 JUMP JUMPDEST DUP8 PUSH2 0x235F JUMP JUMPDEST DUP4 MLOAD RETURNDATASIZE DUP10 DUP3 RETURNDATACOPY RETURNDATASIZE SWAP1 REVERT JUMPDEST DUP5 PUSH1 0x64 SWAP2 DUP9 DUP9 MLOAD SWAP3 PUSH3 0x461BCD PUSH1 0xE5 SHL DUP5 MSTORE DUP4 ADD MSTORE PUSH1 0x24 DUP3 ADD MSTORE PUSH21 0x139BC81C995DD85C991CC81D1BC81A185C9D995CDD PUSH1 0x5A SHL PUSH1 0x44 DUP3 ADD MSTORE REVERT JUMPDEST POP POP POP SWAP6 POP POP POP POP POP POP PUSH2 0x23A9 SWAP2 SWAP3 POP PUSH2 0x3FA4 JUMP JUMPDEST POP POP POP CALLVALUE PUSH2 0x3B8 JUMPI PUSH1 0x20 CALLDATASIZE PUSH1 0x3 NOT ADD SLT PUSH2 0x3B8 JUMPI PUSH1 0x20 SWAP2 DUP2 SWAP1 PUSH1 0x1 PUSH1 0x1 PUSH1 0xA0 SHL SUB PUSH2 0x2484 PUSH2 0x37EF JUMP JUMPDEST AND DUP2 MSTORE PUSH1 0x1E DUP5 MSTORE KECCAK256 SLOAD SWAP1 MLOAD SWAP1 DUP2 MSTORE RETURN JUMPDEST POP POP POP CALLVALUE PUSH2 0x3B8 JUMPI DUP2 PUSH1 0x3 NOT CALLDATASIZE ADD SLT PUSH2 0x3B8 JUMPI PUSH1 0x20 SWAP1 PUSH1 0xD SLOAD SWAP1 MLOAD SWAP1 DUP2 MSTORE RETURN JUMPDEST POP POP POP CALLVALUE PUSH2 0x3B8 JUMPI PUSH1 0x20 CALLDATASIZE PUSH1 0x3 NOT ADD SLT PUSH2 0x3B8 JUMPI PUSH1 0x20 SWAP2 PUSH1 0xFF SWAP1 DUP3 SWAP1 PUSH1 0x1 PUSH1 0x1 PUSH1 0xA0 SHL SUB PUSH2 0x24E0 PUSH2 0x37EF JUMP JUMPDEST AND DUP2 MSTORE PUSH1 0xE DUP6 MSTORE KECCAK256 SLOAD AND SWAP1 MLOAD SWAP1 ISZERO ISZERO DUP2 MSTORE RETURN JUMPDEST POP POP CALLVALUE PUSH2 0x36E JUMPI PUSH1 0x20 CALLDATASIZE PUSH1 0x3 NOT ADD SLT PUSH2 0x36E JUMPI DUP1 CALLDATALOAD SWAP1 PUSH2 0x253D CALLER PUSH32 0x0 PUSH1 0x1 PUSH1 0x1 PUSH1 0xA0 SHL SUB AND EQ PUSH2 0x3ADC JUMP JUMPDEST PUSH1 0x14 DUP3 GT PUSH2 0x257F JUMPI POP SWAP1 PUSH32 0xD968A3CC702265C3AB67356DF15CA21D50167B011F198B963E2A868E04E3D5E0 SWAP2 PUSH1 0x1B SLOAD SWAP1 DUP1 PUSH1 0x1B SSTORE DUP3 MLOAD SWAP2 DUP3 MSTORE PUSH1 0x20 DUP3 ADD MSTORE LOG1 DUP1 RETURN JUMPDEST PUSH1 0x64 SWAP1 PUSH1 0x20 DUP5 MLOAD SWAP2 PUSH3 0x461BCD PUSH1 0xE5 SHL DUP4 MSTORE DUP3 ADD MSTORE PUSH1 0x13 PUSH1 0x24 DUP3 ADD MSTORE PUSH19 0xA0CAE4C6CADCE8C2CECA40E8DEDE40D0D2CED PUSH1 0x6B SHL PUSH1 0x44 DUP3 ADD MSTORE REVERT JUMPDEST POP POP POP CALLVALUE PUSH2 0x3B8 JUMPI PUSH1 0x20 CALLDATASIZE PUSH1 0x3 NOT ADD SLT PUSH2 0x3B8 JUMPI PUSH1 0x20 SWAP2 PUSH1 0x1 PUSH1 0x1 PUSH1 0xA0 SHL SUB SWAP1 DUP3 SWAP1 DUP3 PUSH2 0x25E3 PUSH2 0x37EF JUMP JUMPDEST AND DUP2 MSTORE PUSH1 0x1C DUP6 MSTORE KECCAK256 SLOAD AND SWAP1 MLOAD SWAP1 DUP2 MSTORE RETURN JUMPDEST POP POP POP CALLVALUE PUSH2 0x3B8 JUMPI DUP2 PUSH1 0x3 NOT CALLDATASIZE ADD SLT PUSH2 0x3B8 JUMPI PUSH1 0x20 SWAP1 PUSH1 0x11 SLOAD SWAP1 MLOAD SWAP1 DUP2 MSTORE RETURN JUMPDEST DUP3 DUP6 DUP6 CALLVALUE PUSH2 0x3B8 JUMPI DUP1 PUSH1 0x3 NOT CALLDATASIZE ADD SLT PUSH2 0x3B8 JUMPI DUP3 CALLDATALOAD PUSH1 0x24 CALLDATALOAD SWAP2 CALLER DUP5 MSTORE PUSH1 0x20 SWAP3 PUSH1 0xE DUP5 MSTORE PUSH2 0x2647 PUSH1 0xFF DUP4 DUP8 KECCAK256 SLOAD AND ISZERO PUSH2 0x3BCB JUMP JUMPDEST PUSH1 0x13 SLOAD DUP4 LT PUSH2 0x28BD JUMPI DUP5 SLOAD PUSH1 0x1 PUSH1 0x1 PUSH1 0xA0 SHL SUB AND PUSH2 0x2666 DUP2 ISZERO ISZERO PUSH2 0x3C48 JUMP JUMPDEST PUSH1 0x1E DUP3 EQ DUP1 ISZERO PUSH2 0x28B3 JUMPI JUMPDEST DUP1 ISZERO PUSH2 0x28A9 JUMPI JUMPDEST DUP1 ISZERO PUSH2 0x289E JUMPI JUMPDEST ISZERO PUSH2 0x2865 JUMPI DUP3 MLOAD PUSH4 0x23B872DD PUSH1 0xE0 SHL DUP2 MSTORE CALLER DUP2 DUP10 ADD SWAP1 DUP2 MSTORE ADDRESS PUSH1 0x20 DUP3 ADD MSTORE PUSH1 0x40 DUP2 ADD DUP7 SWAP1 MSTORE SWAP1 SWAP2 DUP7 SWAP2 DUP4 SWAP2 SWAP1 DUP3 SWAP1 DUP11 SWAP1 DUP3 SWAP1 PUSH1 0x60 ADD SUB SWAP3 GAS CALL SWAP1 DUP2 ISZERO PUSH2 0x19F4 JUMPI SWAP1 PUSH2 0x26D0 SWAP2 DUP8 SWAP2 PUSH2 0x2848 JUMPI POP PUSH2 0x3F01 JUMP JUMPDEST PUSH1 0x19 SLOAD SWAP4 PUSH2 0x26DD DUP6 PUSH2 0x3F45 JUMP JUMPDEST PUSH1 0x19 SSTORE DUP3 MLOAD PUSH2 0x26EB DUP2 PUSH2 0x3969 JUMP JUMPDEST DUP6 DUP2 MSTORE DUP2 DUP2 ADD DUP6 DUP2 MSTORE DUP5 DUP3 ADD TIMESTAMP DUP2 MSTORE PUSH1 0x60 DUP4 ADD DUP6 DUP2 MSTORE PUSH1 0x80 DUP5 ADD SWAP1 TIMESTAMP DUP3 MSTORE PUSH1 0xA0 DUP6 ADD SWAP3 DUP12 DUP5 MSTORE PUSH1 0xC0 DUP7 ADD SWAP5 PUSH1 0x1 DUP7 MSTORE CALLER DUP14 MSTORE PUSH1 0x14 DUP9 MSTORE DUP10 DUP14 KECCAK256 DUP1 SLOAD SWAP1 PUSH1 0x1 PUSH1 0x40 SHL DUP3 LT ISZERO PUSH2 0x2834 JUMPI SWAP1 PUSH2 0x2743 SWAP2 PUSH1 0x1 DUP3 ADD DUP2 SSTORE PUSH2 0x38FD JUMP JUMPDEST SWAP8 SWAP1 SWAP8 PUSH2 0x2822 JUMPI SWAP3 PUSH32 0xB4CAAF29ADDA3EEFEE3AD552A8E85058589BF834C7466CAE4EE58787F70589ED SWAP12 SWAP13 SWAP14 SWAP15 SWAP3 PUSH2 0x27B2 SWAP9 SWAP8 SWAP6 SWAP3 PUSH1 0x6 SWAP8 SWAP6 MLOAD DUP10 SSTORE MLOAD PUSH1 0x1 DUP10 ADD SSTORE MLOAD PUSH1 0x2 DUP9 ADD SSTORE MLOAD PUSH1 0x3 DUP8 ADD SSTORE MLOAD SWAP1 DUP6 ADD SSTORE MLOAD PUSH1 0x5 DUP5 ADD SSTORE MLOAD ISZERO ISZERO SWAP2 ADD SWAP1 PUSH1 0xFF DUP1 NOT DUP4 SLOAD AND SWAP2 ISZERO ISZERO AND OR SWAP1 SSTORE JUMP JUMPDEST DUP6 DUP8 MSTORE PUSH1 0x15 DUP2 MSTORE DUP3 DUP8 KECCAK256 CALLER PUSH1 0x1 PUSH1 0x1 PUSH1 0x60 SHL SUB PUSH1 0xA0 SHL DUP3 SLOAD AND OR SWAP1 SSTORE PUSH2 0x27DA DUP6 PUSH1 0x16 SLOAD PUSH2 0x3F54 JUMP JUMPDEST PUSH1 0x16 SSTORE CALLER DUP8 MSTORE PUSH1 0x1A DUP2 MSTORE DUP3 DUP8 KECCAK256 DUP1 SLOAD PUSH1 0xFF DUP2 AND ISZERO PUSH2 0x2803 JUMPI JUMPDEST POP POP DUP3 MLOAD SWAP5 DUP6 MSTORE DUP5 ADD MSTORE CALLER SWAP3 LOG3 DUP1 RETURN JUMPDEST PUSH1 0xFF NOT AND PUSH1 0x1 OR SWAP1 SSTORE PUSH1 0x18 SLOAD PUSH2 0x2818 SWAP1 PUSH2 0x3F45 JUMP JUMPDEST PUSH1 0x18 SSTORE DUP8 DUP1 PUSH2 0x27F3 JUMP JUMPDEST PUSH4 0x4E487B71 PUSH1 0xE0 SHL DUP15 MSTORE DUP14 DUP16 MSTORE PUSH1 0x24 DUP15 REVERT JUMPDEST DUP16 DUP16 PUSH1 0x41 PUSH1 0x24 SWAP3 PUSH4 0x4E487B71 PUSH1 0xE0 SHL DUP4 MSTORE MSTORE REVERT JUMPDEST PUSH2 0x285F SWAP2 POP DUP7 RETURNDATASIZE DUP9 GT PUSH2 0x57A JUMPI PUSH2 0x56C DUP2 DUP4 PUSH2 0x39B7 JUMP JUMPDEST DUP9 PUSH2 0x1E4C JUMP JUMPDEST DUP3 MLOAD PUSH3 0x461BCD PUSH1 0xE5 SHL DUP2 MSTORE DUP1 DUP9 ADD DUP7 SWAP1 MSTORE PUSH1 0x13 PUSH1 0x24 DUP3 ADD MSTORE PUSH19 0x125B9D985B1A59081B1BD8DAC81C195C9A5BD9 PUSH1 0x6A SHL PUSH1 0x44 DUP3 ADD MSTORE PUSH1 0x64 SWAP1 REVERT JUMPDEST POP PUSH2 0x16D DUP3 EQ PUSH2 0x267F JUMP JUMPDEST POP PUSH1 0xB4 DUP3 EQ PUSH2 0x2678 JUMP JUMPDEST POP PUSH1 0x5A DUP3 EQ PUSH2 0x2671 JUMP JUMPDEST DUP2 MLOAD PUSH3 0x461BCD PUSH1 0xE5 SHL DUP2 MSTORE DUP1 DUP8 ADD DUP6 SWAP1 MSTORE PUSH1 0x1A PUSH1 0x24 DUP3 ADD MSTORE PUSH32 0x416D6F756E742062656C6F77206D696E696D756D207374616B65000000000000 PUSH1 0x44 DUP3 ADD MSTORE PUSH1 0x64 SWAP1 REVERT JUMPDEST POP POP SWAP1 CALLVALUE PUSH2 0x36E JUMPI CALLDATASIZE PUSH1 0x3 NOT ADD SLT PUSH2 0x3B8 JUMPI PUSH2 0x291A PUSH2 0x37EF JUMP JUMPDEST PUSH1 0x24 CALLDATALOAD SWAP2 SWAP1 PUSH1 0x1 PUSH1 0x1 PUSH1 0xA0 SHL SUB SWAP1 PUSH2 0x2955 CALLER PUSH32 0x0 DUP5 AND EQ PUSH2 0x3ADC JUMP JUMPDEST AND PUSH2 0x2961 DUP2 ISZERO ISZERO PUSH2 0x3B51 JUMP JUMPDEST PUSH2 0x296C DUP4 ISZERO ISZERO PUSH2 0x3B8F JUMP JUMPDEST DUP2 SLOAD PUSH1 0x1 PUSH1 0x1 PUSH1 0xA0 SHL SUB NOT AND OR SWAP1 SSTORE PUSH1 0xB SSTORE DUP1 RETURN JUMPDEST POP POP POP CALLVALUE PUSH2 0x3B8 JUMPI CALLDATASIZE PUSH1 0x3 NOT ADD SLT PUSH2 0x6D3 JUMPI PUSH2 0x299B PUSH2 0x37EF JUMP JUMPDEST PUSH1 0x24 CALLDATALOAD SWAP1 PUSH1 0x1 PUSH1 0x1 PUSH1 0xA0 SHL SUB SWAP1 PUSH2 0x29D5 CALLER PUSH32 0x0 DUP5 AND EQ PUSH2 0x3ADC JUMP JUMPDEST AND PUSH2 0x29E1 DUP2 ISZERO ISZERO PUSH2 0x3B51 JUMP JUMPDEST PUSH2 0x29EC DUP3 ISZERO ISZERO PUSH2 0x3B8F JUMP JUMPDEST PUSH1 0x1 PUSH1 0x1 PUSH1 0x60 SHL SUB PUSH1 0xA0 SHL PUSH1 0x3 SLOAD AND OR PUSH1 0x3 SSTORE PUSH1 0xA SSTORE DUP1 RETURN JUMPDEST POP POP SWAP2 CALLVALUE PUSH2 0x6D3 JUMPI PUSH1 0x20 SWAP3 DUP4 PUSH1 0x3 NOT CALLDATASIZE ADD SLT PUSH2 0x3B8 JUMPI DUP1 CALLDATALOAD SWAP1 CALLER DUP4 MSTORE PUSH1 0xE DUP6 MSTORE PUSH1 0xFF SWAP2 PUSH2 0x2A37 DUP4 DUP7 DUP7 KECCAK256 SLOAD AND ISZERO PUSH2 0x3BCB JUMP JUMPDEST DUP1 DUP5 MSTORE PUSH1 0x15 DUP7 MSTORE DUP5 DUP5 KECCAK256 SLOAD PUSH1 0x1 PUSH1 0x1 PUSH1 0xA0 SHL SUB SWAP7 SWAP1 PUSH2 0x2A59 SWAP1 DUP9 AND CALLER EQ PUSH2 0x423C JUMP JUMPDEST DUP5 SWAP6 DUP6 JUMPDEST CALLER DUP8 MSTORE PUSH1 0x14 DUP1 DUP5 MSTORE DUP3 DUP9 KECCAK256 DUP1 SLOAD DUP4 LT ISZERO PUSH2 0x2D21 JUMPI PUSH2 0x2A7C DUP4 DUP8 SWAP3 PUSH2 0x38FD JUMP JUMPDEST POP SLOAD EQ PUSH2 0x2A92 JUMPI POP PUSH2 0x2A8D SWAP1 PUSH2 0x3F45 JUMP JUMPDEST PUSH2 0x2A5D JUMP JUMPDEST SWAP2 SWAP3 SWAP4 SWAP5 SWAP6 SWAP7 SWAP8 POP CALLER DUP9 MSTORE DUP2 DUP5 MSTORE PUSH2 0x2ABD PUSH2 0x2AAF DUP3 DUP6 DUP12 KECCAK256 PUSH2 0x38FD JUMP JUMPDEST POP SWAP8 PUSH1 0x6 DUP1 SWAP10 ADD SLOAD AND PUSH2 0x3FE2 JUMP JUMPDEST CALLER DUP9 MSTORE DUP2 DUP5 MSTORE PUSH1 0x2 PUSH2 0x2AD1 DUP3 DUP6 DUP12 KECCAK256 PUSH2 0x38FD JUMP JUMPDEST POP ADD SLOAD CALLER DUP10 MSTORE DUP3 DUP6 MSTORE PUSH1 0x3 PUSH2 0x2AE8 DUP4 DUP7 DUP13 KECCAK256 PUSH2 0x38FD JUMP JUMPDEST POP ADD SLOAD SWAP1 PUSH3 0x15180 SWAP2 DUP3 DUP2 MUL SWAP3 DUP2 DUP5 DIV EQ SWAP1 ISZERO OR ISZERO PUSH2 0x2D0E JUMPI SWAP10 PUSH2 0x2B13 DUP7 SWAP3 DUP12 SWAP13 SWAP12 SWAP9 SWAP10 SWAP11 SWAP12 PUSH2 0x3F54 JUMP JUMPDEST SWAP3 PUSH2 0x2B1D DUP10 PUSH2 0x402E JUMP JUMPDEST SWAP11 CALLER DUP10 MSTORE DUP6 DUP5 MSTORE PUSH2 0x2B30 DUP3 DUP9 DUP12 KECCAK256 PUSH2 0x38FD JUMP JUMPDEST POP SWAP2 DUP8 PUSH1 0x1 DUP1 SWAP5 ADD SLOAD SWAP11 DUP1 SWAP8 TIMESTAMP LT PUSH2 0x2CB4 JUMPI JUMPDEST SWAP1 PUSH2 0x2B59 SWAP3 SWAP2 PUSH2 0x2BB9 SWAP9 SWAP10 CALLER DUP3 MSTORE DUP9 MSTORE KECCAK256 PUSH2 0x38FD JUMP JUMPDEST POP ADD PUSH1 0xFF NOT DUP2 SLOAD AND SWAP1 SSTORE PUSH1 0x16 PUSH2 0x2B70 DUP10 DUP3 SLOAD PUSH2 0x4021 JUMP JUMPDEST SWAP1 SSTORE SWAP9 PUSH2 0x2B86 DUP12 PUSH2 0x2B81 DUP8 DUP12 PUSH2 0x4021 JUMP JUMPDEST PUSH2 0x3F54 JUMP JUMPDEST DUP13 SLOAD DUP8 MLOAD PUSH4 0xA9059CBB PUSH1 0xE0 SHL DUP2 MSTORE CALLER SWAP4 DUP2 ADD SWAP4 DUP5 MSTORE PUSH1 0x20 DUP5 ADD SWAP3 SWAP1 SWAP3 MSTORE SWAP1 SWAP5 DUP6 SWAP4 SWAP1 SWAP2 AND SWAP2 DUP4 SWAP2 DUP15 SWAP2 DUP4 SWAP2 PUSH1 0x40 SWAP1 SWAP2 ADD SWAP1 JUMP JUMPDEST SUB SWAP3 GAS CALL SWAP1 DUP2 ISZERO PUSH2 0x2CAA JUMPI SWAP8 PUSH2 0x2BDA DUP8 SWAP3 PUSH2 0x2C1A SWAP11 DUP13 SWAP2 PUSH2 0x2C93 JUMPI POP PUSH2 0x3F01 JUMP JUMPDEST DUP1 PUSH2 0x2C53 JUMPI JUMPDEST POP POP DUP1 ISZERO PUSH2 0x2C23 JUMPI PUSH32 0x9C9EC3CFA814B0112B71C20D0B0AB54DEAD00A99FD389C174DF717D2F1D36403 SWAP3 DUP3 MLOAD SWAP5 DUP6 MSTORE DUP5 ADD MSTORE CALLER SWAP3 LOG3 PUSH2 0x3FA4 JUMP JUMPDEST PUSH2 0x23A9 CALLER PUSH2 0x43FB JUMP JUMPDEST POP SWAP1 PUSH32 0x7FC4727E062E336010F2C282598EF5F14FACB3DE68CF8195C2F23E1454B2B74E SWAP2 MLOAD SWAP3 DUP4 MSTORE CALLER SWAP3 LOG3 PUSH2 0x3FA4 JUMP JUMPDEST PUSH1 0x17 PUSH2 0x2C60 DUP3 DUP3 SLOAD PUSH2 0x3F54 JUMP JUMPDEST SWAP1 SSTORE DUP4 MLOAD SWAP1 DUP2 MSTORE PUSH32 0xF87CFA2D5FEAEA949AD65BB76A26D8553381BCB6382ADBC83DEDD48961BF32D9 DUP6 CALLER SWAP3 LOG3 DUP5 CODESIZE PUSH2 0x2BE0 JUMP JUMPDEST PUSH2 0x1EEB SWAP2 POP DUP8 RETURNDATASIZE DUP10 GT PUSH2 0x57A JUMPI PUSH2 0x56C DUP2 DUP4 PUSH2 0x39B7 JUMP JUMPDEST DUP4 MLOAD RETURNDATASIZE DUP12 DUP3 RETURNDATACOPY RETURNDATASIZE SWAP1 REVERT JUMPDEST POP POP SWAP2 SWAP4 POP SWAP2 SWAP4 POP PUSH1 0x5 DUP1 DUP10 MUL SWAP1 DUP10 DUP3 DIV EQ DUP10 ISZERO OR ISZERO PUSH2 0x2CFB JUMPI SWAP2 PUSH2 0x2B59 DUP9 SWAP5 SWAP3 DUP9 DUP16 PUSH1 0x64 PUSH2 0x2BB9 SWAP10 SWAP8 DIV SWAP10 PUSH1 0x11 PUSH2 0x2CED DUP13 DUP3 SLOAD PUSH2 0x3F54 JUMP JUMPDEST SWAP1 SSTORE SWAP10 SWAP9 POP SWAP1 SWAP2 SWAP3 POP PUSH2 0x2B43 JUMP JUMPDEST PUSH4 0x4E487B71 PUSH1 0xE0 SHL DUP14 MSTORE PUSH1 0x11 DUP12 MSTORE PUSH1 0x24 DUP14 REVERT JUMPDEST PUSH4 0x4E487B71 PUSH1 0xE0 SHL DUP11 MSTORE PUSH1 0x11 DUP9 MSTORE PUSH1 0x24 DUP11 REVERT JUMPDEST POP POP POP POP POP POP POP POP SWAP2 POP PUSH2 0x2C1A SWAP1 PUSH2 0x3FA4 JUMP JUMPDEST POP POP DUP3 CALLVALUE PUSH2 0x6D3 JUMPI DUP1 PUSH1 0x3 NOT CALLDATASIZE ADD SLT PUSH2 0x6D3 JUMPI SWAP1 PUSH1 0x10 SLOAD SWAP1 PUSH2 0x2D55 DUP3 PUSH2 0x4AC8 JUMP JUMPDEST SWAP3 PUSH2 0x2D62 DUP6 MLOAD SWAP5 DUP6 PUSH2 0x39B7 JUMP JUMPDEST DUP3 DUP5 MSTORE PUSH1 0x10 DUP2 MSTORE SWAP1 PUSH1 0x20 SWAP1 PUSH32 0x1B6847DC741A1B0CD08D278845F9D819D87B734759AFB55FE2DE5CB82A9AE672 SWAP1 DUP3 DUP7 ADD JUMPDEST DUP6 DUP6 LT PUSH2 0x2DA7 JUMPI DUP8 MLOAD DUP1 PUSH2 0x667 DUP10 DUP3 PUSH2 0x384A JUMP JUMPDEST PUSH1 0x7 DUP5 PUSH1 0x1 SWAP3 DUP11 MLOAD PUSH2 0x2DB8 DUP2 PUSH2 0x3969 JUMP JUMPDEST DUP7 SLOAD DUP2 MSTORE DUP5 DUP1 PUSH1 0xA0 SHL SUB DUP1 DUP7 DUP10 ADD SLOAD AND DUP5 DUP4 ADD MSTORE DUP1 PUSH1 0x2 DUP10 ADD SLOAD AND DUP14 DUP4 ADD MSTORE PUSH1 0x3 DUP9 ADD SLOAD AND PUSH1 0x60 DUP3 ADD MSTORE DUP6 DUP8 ADD SLOAD PUSH1 0x80 DUP3 ADD MSTORE PUSH1 0x5 DUP8 ADD SLOAD PUSH1 0xA0 DUP3 ADD MSTORE PUSH2 0x2E01 PUSH1 0x6 DUP9 ADD PUSH2 0x39D9 JUMP JUMPDEST PUSH1 0xC0 DUP3 ADD MSTORE DUP2 MSTORE ADD SWAP4 ADD SWAP5 ADD SWAP4 SWAP2 PUSH2 0x2D93 JUMP JUMPDEST POP POP DUP3 PUSH1 0x3 NOT CALLDATASIZE ADD SLT PUSH2 0x36E JUMPI CALLER DUP4 MSTORE PUSH1 0x20 PUSH1 0xE DUP2 MSTORE PUSH2 0x2E3A PUSH1 0xFF DUP5 DUP7 KECCAK256 SLOAD AND ISZERO PUSH2 0x3BCB JUMP JUMPDEST CALLVALUE ISZERO SWAP1 PUSH2 0x2E47 DUP3 ISZERO PUSH2 0x3C0C JUMP JUMPDEST PUSH1 0x2 SLOAD PUSH1 0x1 PUSH1 0x1 PUSH1 0xA0 SHL SUB SWAP3 SWAP1 DUP4 AND SWAP1 PUSH2 0x2E62 DUP3 ISZERO ISZERO PUSH2 0x3E5C JUMP JUMPDEST PUSH3 0xF4240 SWAP1 DUP2 CALLVALUE MUL SWAP2 CALLVALUE DUP4 DIV EQ OR ISZERO PUSH2 0x216D JUMPI PUSH1 0x7 SLOAD PUSH2 0x2E81 SWAP2 PUSH2 0x3CB2 JUMP JUMPDEST SWAP4 DUP6 MLOAD PUSH4 0x70A08231 PUSH1 0xE0 SHL DUP2 MSTORE ADDRESS DUP3 DUP3 ADD MSTORE DUP4 DUP2 PUSH1 0x24 DUP2 DUP7 GAS STATICCALL DUP1 ISZERO PUSH2 0x581 JUMPI DUP7 SWAP2 DUP10 SWAP2 PUSH2 0x2FE3 JUMPI JUMPDEST POP LT PUSH2 0x2FA0 JUMPI DUP6 MLOAD PUSH4 0xA9059CBB PUSH1 0xE0 SHL DUP2 MSTORE CALLER SWAP2 DUP2 ADD SWAP2 DUP3 MSTORE PUSH1 0x20 DUP3 ADD DUP7 SWAP1 MSTORE SWAP4 SWAP3 SWAP2 DUP3 SWAP2 DUP6 SWAP2 SWAP1 DUP3 SWAP1 DUP11 SWAP1 DUP3 SWAP1 PUSH1 0x40 ADD SUB SWAP3 GAS CALL DUP1 ISZERO PUSH2 0xFED JUMPI PUSH32 0x48A1F8A6C840B32621CEAB4439A2CCD00B337E705DFDCDEC0B40C49ABF3E6BE3 SWAP4 PUSH2 0x2F19 SWAP3 DUP9 SWAP3 PUSH2 0x2F83 JUMPI JUMPDEST POP POP PUSH2 0x3E9E JUMP JUMPDEST PUSH2 0x2F4E DUP6 DUP1 DUP1 DUP1 CALLVALUE DUP7 PUSH32 0x0 AND GAS CALL PUSH2 0x2094 PUSH2 0x3CD2 JUMP JUMPDEST PUSH2 0x2F5F DUP2 PUSH1 0x2 SLOAD AND DUP5 PUSH2 0x20AB PUSH2 0x3EE1 JUMP JUMPDEST PUSH1 0x2 SLOAD SWAP4 MLOAD SWAP3 DUP4 MSTORE CALLVALUE PUSH1 0x20 DUP5 ADD MSTORE TIMESTAMP PUSH1 0x40 DUP5 ADD MSTORE SWAP1 SWAP3 AND SWAP2 CALLER SWAP2 DUP1 PUSH1 0x60 DUP2 ADD PUSH2 0x516 JUMP JUMPDEST PUSH2 0x2F99 SWAP3 POP DUP1 RETURNDATASIZE LT PUSH2 0x57A JUMPI PUSH2 0x56C DUP2 DUP4 PUSH2 0x39B7 JUMP JUMPDEST CODESIZE DUP1 PUSH2 0x2F12 JUMP JUMPDEST DUP6 MLOAD PUSH3 0x461BCD PUSH1 0xE5 SHL DUP2 MSTORE SWAP1 DUP2 ADD DUP4 SWAP1 MSTORE PUSH1 0x1B PUSH1 0x24 DUP3 ADD MSTORE PUSH32 0x496E73756666696369656E742055534443206C69717569646974790000000000 PUSH1 0x44 DUP3 ADD MSTORE PUSH1 0x64 SWAP1 REVERT JUMPDEST DUP1 SWAP3 POP DUP6 DUP1 SWAP3 POP RETURNDATASIZE DUP4 GT PUSH2 0x300D JUMPI JUMPDEST PUSH2 0x2FFC DUP2 DUP4 PUSH2 0x39B7 JUMP JUMPDEST DUP2 ADD SUB SLT PUSH2 0x2162 JUMPI DUP6 SWAP1 MLOAD CODESIZE PUSH2 0x2EAA JUMP JUMPDEST POP RETURNDATASIZE PUSH2 0x2FF2 JUMP JUMPDEST POP POP POP CALLVALUE PUSH2 0x3B8 JUMPI PUSH1 0x20 CALLDATASIZE PUSH1 0x3 NOT ADD SLT PUSH2 0x3B8 JUMPI PUSH1 0x80 SWAP2 PUSH1 0x1 PUSH1 0x1 PUSH1 0xA0 SHL SUB DUP1 PUSH2 0x303C PUSH2 0x37EF JUMP JUMPDEST AND DUP3 MSTORE PUSH1 0x1C PUSH1 0x20 MSTORE DUP3 DUP3 KECCAK256 SLOAD AND SWAP2 PUSH1 0x1D PUSH1 0x20 MSTORE DUP1 DUP1 DUP4 KECCAK256 SLOAD SWAP3 PUSH1 0x1E PUSH1 0x20 MSTORE KECCAK256 SLOAD SWAP1 PUSH1 0x1B SLOAD SWAP3 DUP2 MLOAD SWAP5 DUP6 MSTORE PUSH1 0x20 DUP6 ADD MSTORE DUP4 ADD MSTORE PUSH1 0x60 DUP3 ADD MSTORE RETURN JUMPDEST POP POP POP CALLVALUE PUSH2 0x3B8 JUMPI DUP2 PUSH1 0x3 NOT CALLDATASIZE ADD SLT PUSH2 0x3B8 JUMPI PUSH1 0x20 SWAP1 PUSH1 0x12 SLOAD SWAP1 MLOAD SWAP1 DUP2 MSTORE RETURN JUMPDEST POP POP POP CALLVALUE PUSH2 0x3B8 JUMPI CALLDATASIZE PUSH1 0x3 NOT ADD SLT PUSH2 0x6D3 JUMPI PUSH2 0x30AF PUSH2 0x37EF JUMP JUMPDEST PUSH1 0x24 CALLDATALOAD SWAP1 PUSH1 0x1 PUSH1 0x1 PUSH1 0xA0 SHL SUB SWAP1 PUSH2 0x30E9 CALLER PUSH32 0x0 DUP5 AND EQ PUSH2 0x3ADC JUMP JUMPDEST AND PUSH2 0x30F5 DUP2 ISZERO ISZERO PUSH2 0x3B51 JUMP JUMPDEST PUSH2 0x3100 DUP3 ISZERO ISZERO PUSH2 0x3B8F JUMP JUMPDEST PUSH1 0x1 PUSH1 0x1 PUSH1 0x60 SHL SUB PUSH1 0xA0 SHL PUSH1 0x2 SLOAD AND OR PUSH1 0x2 SSTORE PUSH1 0x9 SSTORE DUP1 RETURN JUMPDEST POP POP POP CALLVALUE PUSH2 0x3B8 JUMPI DUP2 PUSH1 0x3 NOT CALLDATASIZE ADD SLT PUSH2 0x3B8 JUMPI PUSH1 0x5 SLOAD SWAP1 MLOAD PUSH1 0x1 PUSH1 0x1 PUSH1 0xA0 SHL SUB SWAP1 SWAP2 AND DUP2 MSTORE PUSH1 0x20 SWAP1 RETURN JUMPDEST POP POP POP CALLVALUE PUSH2 0x3B8 JUMPI DUP2 PUSH1 0x3 NOT CALLDATASIZE ADD SLT PUSH2 0x3B8 JUMPI PUSH1 0x20 SWAP1 PUSH1 0xB SLOAD SWAP1 MLOAD SWAP1 DUP2 MSTORE RETURN JUMPDEST POP POP POP CALLVALUE PUSH2 0x3B8 JUMPI DUP1 PUSH1 0x3 NOT CALLDATASIZE ADD SLT PUSH2 0x3B8 JUMPI PUSH2 0x317E PUSH2 0x37EF JUMP JUMPDEST SWAP1 PUSH1 0x24 CALLDATALOAD SWAP2 DUP3 ISZERO ISZERO DUP1 DUP5 SUB PUSH2 0x3211 JUMPI PUSH32 0xDDA6207409A585801122FB885DCAA8074F9A21F25FF2DEF680C67F01A86C2C9B SWAP3 PUSH1 0x20 SWAP3 PUSH2 0x3209 SWAP1 PUSH1 0x1 PUSH1 0x1 PUSH1 0xA0 SHL SUB SWAP1 PUSH2 0x31EC CALLER PUSH32 0x0 DUP5 AND EQ PUSH2 0x3ADC JUMP JUMPDEST AND SWAP6 DUP7 DUP9 MSTORE PUSH1 0xE DUP6 MSTORE DUP3 DUP9 KECCAK256 SWAP1 PUSH1 0xFF DUP1 NOT DUP4 SLOAD AND SWAP2 ISZERO ISZERO AND OR SWAP1 SSTORE JUMP JUMPDEST MLOAD SWAP1 DUP2 MSTORE LOG2 DUP1 RETURN JUMPDEST DUP5 DUP1 REVERT JUMPDEST DUP3 DUP6 DUP6 DUP2 PUSH1 0x3 NOT CALLDATASIZE ADD SLT PUSH2 0x3B8 JUMPI CALLER DUP3 MSTORE PUSH1 0xE PUSH1 0x20 MSTORE PUSH2 0x323B PUSH1 0xFF DUP3 DUP5 KECCAK256 SLOAD AND ISZERO PUSH2 0x3BCB JUMP JUMPDEST CALLVALUE ISZERO SWAP1 PUSH2 0x3248 DUP3 ISZERO PUSH2 0x3C0C JUMP JUMPDEST DUP3 SLOAD PUSH1 0x1 PUSH1 0x1 PUSH1 0xA0 SHL SUB SWAP3 SWAP1 PUSH2 0x3261 SWAP1 DUP5 AND ISZERO ISZERO PUSH2 0x3C48 JUMP JUMPDEST PUSH8 0xDE0B6B3A7640000 SWAP1 DUP2 CALLVALUE MUL SWAP2 CALLVALUE DUP4 DIV EQ OR ISZERO PUSH2 0x3307 JUMPI DUP4 SWAP3 SWAP2 PUSH2 0x32E9 PUSH2 0x329E PUSH2 0xF86 PUSH1 0x0 DUP1 MLOAD PUSH1 0x20 PUSH2 0x4B6E DUP4 CODECOPY DUP2 MLOAD SWAP2 MSTORE SWAP5 PUSH1 0x6 SLOAD SWAP1 PUSH2 0x3CB2 JUMP JUMPDEST SWAP4 PUSH2 0x32A8 DUP6 PUSH2 0x44B4 JUMP JUMPDEST PUSH2 0x32DD DUP7 DUP1 DUP1 DUP1 CALLVALUE DUP7 PUSH32 0x0 AND GAS CALL PUSH2 0x2094 PUSH2 0x3CD2 JUMP JUMPDEST DUP6 SLOAD AND DUP5 PUSH2 0x20AB PUSH2 0x3D54 JUMP JUMPDEST MLOAD CALLVALUE DUP2 MSTORE PUSH1 0x20 DUP2 ADD SWAP3 SWAP1 SWAP3 MSTORE TIMESTAMP PUSH1 0x40 DUP4 ADD MSTORE CALLER SWAP2 DUP1 PUSH1 0x60 DUP2 ADD PUSH2 0x516 JUMP JUMPDEST PUSH4 0x4E487B71 PUSH1 0xE0 SHL DUP5 MSTORE PUSH1 0x11 DUP6 MSTORE PUSH1 0x24 DUP5 REVERT JUMPDEST DUP4 DUP6 DUP5 CALLVALUE PUSH2 0x3B8 JUMPI PUSH1 0x20 SWAP1 DUP2 PUSH1 0x3 NOT CALLDATASIZE ADD SLT PUSH2 0x36E JUMPI CALLDATALOAD SWAP3 DUP4 DUP4 MSTORE PUSH1 0x15 DUP3 MSTORE PUSH1 0x1 DUP1 PUSH1 0xA0 SHL SUB DUP2 DUP5 KECCAK256 SLOAD AND SWAP3 PUSH2 0x3351 DUP5 ISZERO ISZERO PUSH2 0x3F61 JUMP JUMPDEST PUSH2 0x3359 PUSH2 0x4B35 JUMP JUMPDEST DUP2 SWAP6 DUP3 JUMPDEST DUP7 DUP5 MSTORE PUSH1 0x14 DUP1 DUP8 MSTORE DUP6 DUP6 KECCAK256 DUP1 SLOAD DUP4 LT ISZERO PUSH2 0x33D8 JUMPI PUSH2 0x337C DUP4 DUP6 SWAP3 PUSH2 0x38FD JUMP JUMPDEST POP SLOAD EQ PUSH2 0x3392 JUMPI POP PUSH2 0x338D SWAP1 PUSH2 0x3F45 JUMP JUMPDEST PUSH2 0x335D JUMP JUMPDEST PUSH1 0x80 SWAP9 POP PUSH2 0x1627 SWAP4 POP DUP6 SWAP2 SWAP3 POP SWAP4 PUSH2 0x33AF SWAP5 DUP9 DUP3 MSTORE DUP8 MSTORE KECCAK256 PUSH2 0x38FD JUMP JUMPDEST SWAP1 PUSH2 0x33BA PUSH1 0x1 PUSH2 0x3FA4 JUMP JUMPDEST DUP2 MLOAD SWAP4 DUP2 DUP5 DUP5 ADD MLOAD SWAP4 ADD MLOAD SWAP4 DUP3 MLOAD SWAP6 DUP7 MSTORE DUP6 ADD MSTORE DUP4 ADD MSTORE PUSH1 0x60 DUP3 ADD MSTORE RETURN JUMPDEST POP POP POP POP SWAP2 SWAP1 POP PUSH2 0x33BA PUSH1 0x80 SWAP6 PUSH2 0x3FA4 JUMP JUMPDEST POP POP SWAP1 CALLVALUE PUSH2 0x36E JUMPI DUP1 PUSH1 0x3 NOT CALLDATASIZE ADD SLT PUSH2 0x36E JUMPI PUSH2 0x3405 PUSH2 0x37EF JUMP JUMPDEST PUSH1 0x24 CALLDATALOAD SWAP1 PUSH32 0x0 PUSH1 0x1 PUSH1 0x1 PUSH1 0xA0 SHL SUB PUSH2 0x343F CALLER DUP3 DUP5 AND EQ PUSH2 0x3ADC JUMP JUMPDEST DUP1 DUP8 SLOAD AND SWAP3 AND SWAP2 DUP3 EQ PUSH2 0x34FA JUMPI JUMPDEST DUP4 MLOAD PUSH4 0xA9059CBB PUSH1 0xE0 SHL DUP2 MSTORE PUSH1 0x1 PUSH1 0x1 PUSH1 0xA0 SHL SUB SWAP1 SWAP2 AND DUP6 DUP3 ADD SWAP1 DUP2 MSTORE PUSH1 0x20 DUP2 DUP2 ADD SWAP5 SWAP1 SWAP5 MSTORE SWAP1 SWAP3 SWAP2 DUP4 SWAP2 DUP3 SWAP1 DUP9 SWAP1 DUP3 SWAP1 PUSH1 0x40 ADD SUB SWAP3 GAS CALL SWAP1 DUP2 ISZERO PUSH2 0x34F0 JUMPI DUP5 SWAP2 PUSH2 0x34D2 JUMPI JUMPDEST POP ISZERO PUSH2 0x349D JUMPI DUP3 DUP1 RETURN JUMPDEST SWAP1 PUSH1 0x20 PUSH1 0x64 SWAP3 MLOAD SWAP2 PUSH3 0x461BCD PUSH1 0xE5 SHL DUP4 MSTORE DUP3 ADD MSTORE PUSH1 0xF PUSH1 0x24 DUP3 ADD MSTORE PUSH15 0x151C985B9CD9995C8819985A5B1959 PUSH1 0x8A SHL PUSH1 0x44 DUP3 ADD MSTORE REVERT JUMPDEST PUSH2 0x34EA SWAP2 POP PUSH1 0x20 RETURNDATASIZE DUP2 GT PUSH2 0x57A JUMPI PUSH2 0x56C DUP2 DUP4 PUSH2 0x39B7 JUMP JUMPDEST CODESIZE PUSH2 0x3493 JUMP JUMPDEST DUP3 MLOAD RETURNDATASIZE DUP7 DUP3 RETURNDATACOPY RETURNDATASIZE SWAP1 REVERT JUMPDEST DUP4 MLOAD PUSH4 0x70A08231 PUSH1 0xE0 SHL DUP2 MSTORE ADDRESS DUP7 DUP3 ADD MSTORE PUSH1 0x20 DUP2 PUSH1 0x24 DUP2 DUP7 GAS STATICCALL DUP1 ISZERO PUSH2 0x35B0 JUMPI DUP8 SWAP1 PUSH2 0x3579 JUMPI JUMPDEST PUSH2 0x352F SWAP2 POP PUSH1 0x16 SLOAD SWAP1 PUSH2 0x4021 JUMP JUMPDEST DUP4 GT ISZERO PUSH2 0x344D JUMPI DUP4 MLOAD PUSH3 0x461BCD PUSH1 0xE5 SHL DUP2 MSTORE PUSH1 0x20 DUP2 DUP8 ADD MSTORE PUSH1 0x1D PUSH1 0x24 DUP3 ADD MSTORE PUSH32 0x43616E6E6F74207769746864726177207374616B656420746F6B656E73000000 PUSH1 0x44 DUP3 ADD MSTORE PUSH1 0x64 SWAP1 REVERT JUMPDEST POP PUSH1 0x20 DUP2 RETURNDATASIZE DUP3 GT PUSH2 0x35A8 JUMPI JUMPDEST DUP2 PUSH2 0x3592 PUSH1 0x20 SWAP4 DUP4 PUSH2 0x39B7 JUMP JUMPDEST DUP2 ADD SUB SLT PUSH2 0x35A4 JUMPI PUSH2 0x352F SWAP1 MLOAD PUSH2 0x3521 JUMP JUMPDEST DUP7 DUP1 REVERT JUMPDEST RETURNDATASIZE SWAP2 POP PUSH2 0x3585 JUMP JUMPDEST DUP6 MLOAD RETURNDATASIZE DUP10 DUP3 RETURNDATACOPY RETURNDATASIZE SWAP1 REVERT JUMPDEST POP POP CALLVALUE PUSH2 0x36E JUMPI PUSH1 0x20 DUP1 PUSH1 0x3 NOT CALLDATASIZE ADD SLT PUSH2 0x5D5 JUMPI DUP2 CALLDATALOAD SWAP1 CALLER DUP6 MSTORE PUSH1 0xE DUP2 MSTORE PUSH2 0x35E8 PUSH1 0xFF DUP6 DUP8 KECCAK256 SLOAD AND ISZERO PUSH2 0x3BCB JUMP JUMPDEST PUSH2 0x35F3 DUP3 ISZERO ISZERO PUSH2 0x3D73 JUMP JUMPDEST DUP5 SLOAD PUSH1 0x1 PUSH1 0x1 PUSH1 0xA0 SHL SUB SWAP2 SWAP1 PUSH2 0x360C SWAP1 DUP4 AND ISZERO ISZERO PUSH2 0x3C48 JUMP JUMPDEST DUP2 DUP5 SLOAD AND SWAP1 DUP2 ISZERO PUSH2 0x3773 JUMPI PUSH2 0x3623 PUSH1 0xB SLOAD DUP6 PUSH2 0x3C89 JUMP JUMPDEST SWAP2 PUSH5 0x2540BE400 SWAP3 DUP4 DUP2 MUL SWAP4 DUP2 DUP6 DIV EQ SWAP1 ISZERO OR ISZERO PUSH2 0x3760 JUMPI DUP7 MLOAD PUSH4 0x23B872DD PUSH1 0xE0 SHL DUP2 MSTORE CALLER DUP8 DUP3 ADD SWAP1 DUP2 MSTORE PUSH1 0x1 PUSH1 0x1 PUSH1 0xA0 SHL SUB PUSH32 0x0 AND PUSH1 0x20 DUP3 ADD MSTORE PUSH1 0x40 DUP2 ADD DUP8 SWAP1 MSTORE SWAP1 SWAP2 DUP4 SWAP2 DUP4 SWAP2 SWAP1 DUP3 SWAP1 DUP13 SWAP1 DUP3 SWAP1 PUSH1 0x60 ADD SUB SWAP3 GAS CALL SWAP1 DUP2 ISZERO PUSH2 0x581 JUMPI DUP9 SWAP2 PUSH2 0x3743 JUMPI JUMPDEST POP ISZERO PUSH2 0x370B JUMPI POP SWAP2 PUSH2 0x516 SWAP2 PUSH2 0x36CA PUSH1 0x0 DUP1 MLOAD PUSH1 0x20 PUSH2 0x4B6E DUP4 CODECOPY DUP2 MLOAD SWAP2 MSTORE SWAP5 PUSH2 0x427A JUMP JUMPDEST SWAP5 PUSH2 0x36D4 DUP7 PUSH2 0x44B4 JUMP JUMPDEST PUSH2 0x36E9 DUP3 DUP3 SLOAD AND DUP8 DUP6 DUP6 DUP13 SLOAD AND PUSH2 0x4EB PUSH2 0x3D54 JUMP JUMPDEST SLOAD AND SWAP5 MLOAD SWAP2 DUP3 SWAP2 CALLER SWAP6 TIMESTAMP SWAP2 DUP5 PUSH1 0x40 SWAP2 SWAP5 SWAP4 SWAP3 PUSH1 0x60 DUP3 ADD SWAP6 DUP3 MSTORE PUSH1 0x20 DUP3 ADD MSTORE ADD MSTORE JUMP JUMPDEST DUP5 PUSH1 0x64 SWAP2 DUP8 MLOAD SWAP2 PUSH3 0x461BCD PUSH1 0xE5 SHL DUP4 MSTORE DUP3 ADD MSTORE PUSH1 0x13 PUSH1 0x24 DUP3 ADD MSTORE PUSH19 0x109510C81D1C985B9CD9995C8819985A5B1959 PUSH1 0x6A SHL PUSH1 0x44 DUP3 ADD MSTORE REVERT JUMPDEST PUSH2 0x375A SWAP2 POP DUP3 RETURNDATASIZE DUP5 GT PUSH2 0x57A JUMPI PUSH2 0x56C DUP2 DUP4 PUSH2 0x39B7 JUMP JUMPDEST CODESIZE PUSH2 0x36A6 JUMP JUMPDEST PUSH4 0x4E487B71 PUSH1 0xE0 SHL DUP9 MSTORE PUSH1 0x11 DUP7 MSTORE PUSH1 0x24 DUP9 REVERT JUMPDEST DUP5 PUSH1 0x64 SWAP2 DUP8 MLOAD SWAP2 PUSH3 0x461BCD PUSH1 0xE5 SHL DUP4 MSTORE DUP3 ADD MSTORE PUSH1 0x12 PUSH1 0x24 DUP3 ADD MSTORE PUSH18 0x109510C81B9BDD0818DBDB999A59DD5C9959 PUSH1 0x72 SHL PUSH1 0x44 DUP3 ADD MSTORE REVERT JUMPDEST POP POP POP CALLVALUE PUSH2 0x3B8 JUMPI DUP2 PUSH1 0x3 NOT CALLDATASIZE ADD SLT PUSH2 0x3B8 JUMPI PUSH1 0x20 SWAP1 PUSH1 0xA SLOAD SWAP1 MLOAD SWAP1 DUP2 MSTORE RETURN JUMPDEST DUP6 SWAP1 CALLVALUE PUSH2 0x3B8 JUMPI DUP2 PUSH1 0x3 NOT CALLDATASIZE ADD SLT PUSH2 0x3B8 JUMPI PUSH1 0x2 SLOAD PUSH1 0x1 PUSH1 0x1 PUSH1 0xA0 SHL SUB AND DUP2 MSTORE PUSH1 0x20 SWAP1 RETURN JUMPDEST PUSH1 0x4 CALLDATALOAD SWAP1 PUSH1 0x1 PUSH1 0x1 PUSH1 0xA0 SHL SUB DUP3 AND DUP3 SUB PUSH2 0x3805 JUMPI JUMP JUMPDEST PUSH1 0x0 DUP1 REVERT JUMPDEST SWAP2 SWAP1 DUP3 MLOAD SWAP3 DUP4 DUP3 MSTORE PUSH1 0x0 JUMPDEST DUP5 DUP2 LT PUSH2 0x3836 JUMPI POP POP DUP3 PUSH1 0x0 PUSH1 0x20 DUP1 SWAP5 SWAP6 DUP5 ADD ADD MSTORE PUSH1 0x1F DUP1 NOT SWAP2 ADD AND ADD ADD SWAP1 JUMP JUMPDEST PUSH1 0x20 DUP2 DUP4 ADD DUP2 ADD MLOAD DUP5 DUP4 ADD DUP3 ADD MSTORE ADD PUSH2 0x3815 JUMP JUMPDEST PUSH1 0x20 DUP1 DUP3 ADD SWAP1 DUP1 DUP4 MSTORE DUP4 MLOAD DUP1 SWAP3 MSTORE PUSH1 0x40 SWAP3 DUP4 DUP2 ADD DUP3 DUP6 DUP6 PUSH1 0x5 SHL DUP5 ADD ADD SWAP7 ADD SWAP5 PUSH1 0x0 SWAP3 JUMPDEST DUP6 DUP5 LT PUSH2 0x387F JUMPI POP POP POP POP POP POP POP SWAP1 JUMP JUMPDEST SWAP1 SWAP2 SWAP3 SWAP4 SWAP5 SWAP6 SWAP7 DUP6 DUP1 PUSH2 0x38EC PUSH1 0x1 SWAP4 PUSH1 0x3F NOT DUP7 DUP3 SUB ADD DUP9 MSTORE DUP12 MLOAD DUP1 MLOAD DUP3 MSTORE DUP6 DUP1 PUSH1 0xA0 SHL SUB DUP1 DUP6 DUP4 ADD MLOAD AND DUP6 DUP5 ADD MSTORE DUP1 DUP10 DUP4 ADD MLOAD AND DUP10 DUP5 ADD MSTORE PUSH1 0x60 SWAP1 DUP2 DUP4 ADD MLOAD AND SWAP1 DUP4 ADD MSTORE PUSH1 0x80 DUP1 DUP3 ADD MLOAD SWAP1 DUP4 ADD MSTORE PUSH1 0xA0 DUP1 DUP3 ADD MLOAD SWAP1 DUP4 ADD MSTORE PUSH1 0xC0 DUP1 SWAP2 ADD MLOAD SWAP2 PUSH1 0xE0 DUP1 SWAP3 DUP3 ADD MSTORE ADD SWAP1 PUSH2 0x380A JUMP JUMPDEST SWAP10 ADD SWAP5 ADD SWAP5 ADD SWAP3 SWAP6 SWAP5 SWAP4 SWAP2 SWAP1 PUSH2 0x386E JUMP JUMPDEST DUP1 SLOAD DUP3 LT ISZERO PUSH2 0x3919 JUMPI PUSH1 0x0 MSTORE PUSH1 0x7 PUSH1 0x20 PUSH1 0x0 KECCAK256 SWAP2 MUL ADD SWAP1 PUSH1 0x0 SWAP1 JUMP JUMPDEST PUSH4 0x4E487B71 PUSH1 0xE0 SHL PUSH1 0x0 MSTORE PUSH1 0x32 PUSH1 0x4 MSTORE PUSH1 0x24 PUSH1 0x0 REVERT JUMPDEST SWAP1 PUSH1 0x1 DUP3 DUP2 SHR SWAP3 AND DUP1 ISZERO PUSH2 0x395F JUMPI JUMPDEST PUSH1 0x20 DUP4 LT EQ PUSH2 0x3949 JUMPI JUMP JUMPDEST PUSH4 0x4E487B71 PUSH1 0xE0 SHL PUSH1 0x0 MSTORE PUSH1 0x22 PUSH1 0x4 MSTORE PUSH1 0x24 PUSH1 0x0 REVERT JUMPDEST SWAP2 PUSH1 0x7F AND SWAP2 PUSH2 0x393E JUMP JUMPDEST PUSH1 0xE0 DUP2 ADD SWAP1 DUP2 LT PUSH8 0xFFFFFFFFFFFFFFFF DUP3 GT OR PUSH2 0x3985 JUMPI PUSH1 0x40 MSTORE JUMP JUMPDEST PUSH4 0x4E487B71 PUSH1 0xE0 SHL PUSH1 0x0 MSTORE PUSH1 0x41 PUSH1 0x4 MSTORE PUSH1 0x24 PUSH1 0x0 REVERT JUMPDEST PUSH1 0x40 DUP2 ADD SWAP1 DUP2 LT PUSH8 0xFFFFFFFFFFFFFFFF DUP3 GT OR PUSH2 0x3985 JUMPI PUSH1 0x40 MSTORE JUMP JUMPDEST SWAP1 PUSH1 0x1F DUP1 NOT SWAP2 ADD AND DUP2 ADD SWAP1 DUP2 LT PUSH8 0xFFFFFFFFFFFFFFFF DUP3 GT OR PUSH2 0x3985 JUMPI PUSH1 0x40 MSTORE JUMP JUMPDEST SWAP1 PUSH1 0x40 MLOAD SWAP2 DUP3 PUSH1 0x0 DUP3 SLOAD SWAP3 PUSH2 0x39ED DUP5 PUSH2 0x392F JUMP JUMPDEST SWAP1 DUP2 DUP5 MSTORE PUSH1 0x1 SWAP5 DUP6 DUP2 AND SWAP1 DUP2 PUSH1 0x0 EQ PUSH2 0x3A5C JUMPI POP PUSH1 0x1 EQ PUSH2 0x3A19 JUMPI JUMPDEST POP POP PUSH2 0x3A17 SWAP3 POP SUB DUP4 PUSH2 0x39B7 JUMP JUMPDEST JUMP JUMPDEST SWAP1 SWAP4 SWAP2 POP PUSH1 0x0 MSTORE PUSH1 0x20 SWAP1 DUP2 PUSH1 0x0 KECCAK256 SWAP4 PUSH1 0x0 SWAP2 JUMPDEST DUP2 DUP4 LT PUSH2 0x3A44 JUMPI POP POP PUSH2 0x3A17 SWAP4 POP DUP3 ADD ADD CODESIZE DUP1 PUSH2 0x3A09 JUMP JUMPDEST DUP6 SLOAD DUP9 DUP5 ADD DUP6 ADD MSTORE SWAP5 DUP6 ADD SWAP5 DUP8 SWAP5 POP SWAP2 DUP4 ADD SWAP2 PUSH2 0x3A2C JUMP JUMPDEST SWAP2 POP POP PUSH2 0x3A17 SWAP5 POP PUSH1 0x20 SWAP3 POP PUSH1 0xFF NOT AND DUP3 DUP5 ADD MSTORE ISZERO ISZERO PUSH1 0x5 SHL DUP3 ADD ADD CODESIZE DUP1 PUSH2 0x3A09 JUMP JUMPDEST SWAP4 PUSH1 0xE0 SWAP6 SWAP3 PUSH2 0x3AC1 SWAP9 SWAP8 SWAP5 SWAP3 DUP7 MSTORE PUSH1 0x1 DUP1 PUSH1 0xA0 SHL SUB SWAP3 DUP4 DUP1 SWAP3 AND PUSH1 0x20 DUP9 ADD MSTORE AND PUSH1 0x40 DUP7 ADD MSTORE AND PUSH1 0x60 DUP5 ADD MSTORE PUSH1 0x80 DUP4 ADD MSTORE PUSH1 0xA0 DUP3 ADD MSTORE DUP2 PUSH1 0xC0 DUP3 ADD MSTORE ADD SWAP1 PUSH2 0x380A JUMP JUMPDEST SWAP1 JUMP JUMPDEST DUP1 SLOAD DUP3 LT ISZERO PUSH2 0x3919 JUMPI PUSH1 0x0 MSTORE PUSH1 0x20 PUSH1 0x0 KECCAK256 ADD SWAP1 PUSH1 0x0 SWAP1 JUMP JUMPDEST ISZERO PUSH2 0x3AE3 JUMPI JUMP JUMPDEST PUSH1 0x40 MLOAD PUSH3 0x461BCD PUSH1 0xE5 SHL DUP2 MSTORE PUSH1 0x20 PUSH1 0x4 DUP3 ADD MSTORE PUSH1 0xA PUSH1 0x24 DUP3 ADD MSTORE PUSH10 0x27B7363C9037BBB732B9 PUSH1 0xB1 SHL PUSH1 0x44 DUP3 ADD MSTORE PUSH1 0x64 SWAP1 REVERT JUMPDEST ISZERO PUSH2 0x3B1C JUMPI JUMP JUMPDEST PUSH1 0x40 MLOAD PUSH3 0x461BCD PUSH1 0xE5 SHL DUP2 MSTORE PUSH1 0x20 PUSH1 0x4 DUP3 ADD MSTORE PUSH1 0xD PUSH1 0x24 DUP3 ADD MSTORE PUSH13 0x496E76616C6964207072696365 PUSH1 0x98 SHL PUSH1 0x44 DUP3 ADD MSTORE PUSH1 0x64 SWAP1 REVERT JUMPDEST ISZERO PUSH2 0x3B58 JUMPI JUMP JUMPDEST PUSH1 0x40 MLOAD PUSH3 0x461BCD PUSH1 0xE5 SHL DUP2 MSTORE PUSH1 0x20 PUSH1 0x4 DUP3 ADD MSTORE PUSH1 0xF PUSH1 0x24 DUP3 ADD MSTORE PUSH15 0x496E76616C69642061646472657373 PUSH1 0x88 SHL PUSH1 0x44 DUP3 ADD MSTORE PUSH1 0x64 SWAP1 REVERT JUMPDEST ISZERO PUSH2 0x3B96 JUMPI JUMP JUMPDEST PUSH1 0x40 MLOAD PUSH3 0x461BCD PUSH1 0xE5 SHL DUP2 MSTORE PUSH1 0x20 PUSH1 0x4 DUP3 ADD MSTORE PUSH1 0xD PUSH1 0x24 DUP3 ADD MSTORE PUSH13 0x496E76616C696420726174696F PUSH1 0x98 SHL PUSH1 0x44 DUP3 ADD MSTORE PUSH1 0x64 SWAP1 REVERT JUMPDEST ISZERO PUSH2 0x3BD2 JUMPI JUMP JUMPDEST PUSH1 0x40 MLOAD PUSH3 0x461BCD PUSH1 0xE5 SHL DUP2 MSTORE PUSH1 0x20 PUSH1 0x4 DUP3 ADD MSTORE PUSH1 0x12 PUSH1 0x24 DUP3 ADD MSTORE PUSH18 0x1059191C995CDCC81A5CC8189B1BD8DAD959 PUSH1 0x72 SHL PUSH1 0x44 DUP3 ADD MSTORE PUSH1 0x64 SWAP1 REVERT JUMPDEST ISZERO PUSH2 0x3C13 JUMPI JUMP JUMPDEST PUSH1 0x40 MLOAD PUSH3 0x461BCD PUSH1 0xE5 SHL DUP2 MSTORE PUSH1 0x20 PUSH1 0x4 DUP3 ADD MSTORE PUSH1 0xD PUSH1 0x24 DUP3 ADD MSTORE PUSH13 0x9AEAE6E840E6CADCC8408AA89 PUSH1 0x9B SHL PUSH1 0x44 DUP3 ADD MSTORE PUSH1 0x64 SWAP1 REVERT JUMPDEST ISZERO PUSH2 0x3C4F JUMPI JUMP JUMPDEST PUSH1 0x40 MLOAD PUSH3 0x461BCD PUSH1 0xE5 SHL DUP2 MSTORE PUSH1 0x20 PUSH1 0x4 DUP3 ADD MSTORE PUSH1 0x12 PUSH1 0x24 DUP3 ADD MSTORE PUSH18 0x14D85B19481D1BDAD95B881B9BDD081CD95D PUSH1 0x72 SHL PUSH1 0x44 DUP3 ADD MSTORE PUSH1 0x64 SWAP1 REVERT JUMPDEST DUP2 DUP2 MUL SWAP3 SWAP2 DUP2 ISZERO SWAP2 DUP5 DIV EQ OR ISZERO PUSH2 0x3C9C JUMPI JUMP JUMPDEST PUSH4 0x4E487B71 PUSH1 0xE0 SHL PUSH1 0x0 MSTORE PUSH1 0x11 PUSH1 0x4 MSTORE PUSH1 0x24 PUSH1 0x0 REVERT JUMPDEST DUP2 ISZERO PUSH2 0x3CBC JUMPI DIV SWAP1 JUMP JUMPDEST PUSH4 0x4E487B71 PUSH1 0xE0 SHL PUSH1 0x0 MSTORE PUSH1 0x12 PUSH1 0x4 MSTORE PUSH1 0x24 PUSH1 0x0 REVERT JUMPDEST RETURNDATASIZE ISZERO PUSH2 0x3D0D JUMPI RETURNDATASIZE SWAP1 PUSH8 0xFFFFFFFFFFFFFFFF DUP3 GT PUSH2 0x3985 JUMPI PUSH1 0x40 MLOAD SWAP2 PUSH2 0x3D01 PUSH1 0x1F DUP3 ADD PUSH1 0x1F NOT AND PUSH1 0x20 ADD DUP5 PUSH2 0x39B7 JUMP JUMPDEST DUP3 MSTORE RETURNDATASIZE PUSH1 0x0 PUSH1 0x20 DUP5 ADD RETURNDATACOPY JUMP JUMPDEST PUSH1 0x60 SWAP1 JUMP JUMPDEST ISZERO PUSH2 0x3D19 JUMPI JUMP JUMPDEST PUSH1 0x40 MLOAD PUSH3 0x461BCD PUSH1 0xE5 SHL DUP2 MSTORE PUSH1 0x20 PUSH1 0x4 DUP3 ADD MSTORE PUSH1 0x13 PUSH1 0x24 DUP3 ADD MSTORE PUSH19 0x115512081D1C985B9CD9995C8819985A5B1959 PUSH1 0x6A SHL PUSH1 0x44 DUP3 ADD MSTORE PUSH1 0x64 SWAP1 REVERT JUMPDEST PUSH1 0x40 MLOAD SWAP1 PUSH2 0x3D61 DUP3 PUSH2 0x399B JUMP JUMPDEST PUSH1 0x3 DUP3 MSTORE PUSH3 0x425559 PUSH1 0xE8 SHL PUSH1 0x20 DUP4 ADD MSTORE JUMP JUMPDEST ISZERO PUSH2 0x3D7A JUMPI JUMP JUMPDEST PUSH1 0x40 MLOAD PUSH3 0x461BCD PUSH1 0xE5 SHL DUP2 MSTORE PUSH1 0x20 PUSH1 0x4 DUP3 ADD MSTORE PUSH1 0x1D PUSH1 0x24 DUP3 ADD MSTORE PUSH32 0x416D6F756E74206D7573742062652067726561746572207468616E2030000000 PUSH1 0x44 DUP3 ADD MSTORE PUSH1 0x64 SWAP1 REVERT JUMPDEST ISZERO PUSH2 0x3DC6 JUMPI JUMP JUMPDEST PUSH1 0x40 MLOAD PUSH3 0x461BCD PUSH1 0xE5 SHL DUP2 MSTORE PUSH1 0x20 PUSH1 0x4 DUP3 ADD MSTORE PUSH1 0x13 PUSH1 0x24 DUP3 ADD MSTORE PUSH19 0x1554D115081B9BDD0818DBDB999A59DD5C9959 PUSH1 0x6A SHL PUSH1 0x44 DUP3 ADD MSTORE PUSH1 0x64 SWAP1 REVERT JUMPDEST SWAP1 DUP2 PUSH1 0x20 SWAP2 SUB SLT PUSH2 0x3805 JUMPI MLOAD DUP1 ISZERO ISZERO DUP2 SUB PUSH2 0x3805 JUMPI SWAP1 JUMP JUMPDEST ISZERO PUSH2 0x3E20 JUMPI JUMP JUMPDEST PUSH1 0x40 MLOAD PUSH3 0x461BCD PUSH1 0xE5 SHL DUP2 MSTORE PUSH1 0x20 PUSH1 0x4 DUP3 ADD MSTORE PUSH1 0x14 PUSH1 0x24 DUP3 ADD MSTORE PUSH20 0x1554D115081D1C985B9CD9995C8819985A5B1959 PUSH1 0x62 SHL PUSH1 0x44 DUP3 ADD MSTORE PUSH1 0x64 SWAP1 REVERT JUMPDEST ISZERO PUSH2 0x3E63 JUMPI JUMP JUMPDEST PUSH1 0x40 MLOAD PUSH3 0x461BCD PUSH1 0xE5 SHL DUP2 MSTORE PUSH1 0x20 PUSH1 0x4 DUP3 ADD MSTORE PUSH1 0x13 PUSH1 0x24 DUP3 ADD MSTORE PUSH19 0x1554D110C81B9BDD0818DBDB999A59DD5C9959 PUSH1 0x6A SHL PUSH1 0x44 DUP3 ADD MSTORE PUSH1 0x64 SWAP1 REVERT JUMPDEST ISZERO PUSH2 0x3EA5 JUMPI JUMP JUMPDEST PUSH1 0x40 MLOAD PUSH3 0x461BCD PUSH1 0xE5 SHL DUP2 MSTORE PUSH1 0x20 PUSH1 0x4 DUP3 ADD MSTORE PUSH1 0x14 PUSH1 0x24 DUP3 ADD MSTORE PUSH20 0x1554D110C81D1C985B9CD9995C8819985A5B1959 PUSH1 0x62 SHL PUSH1 0x44 DUP3 ADD MSTORE PUSH1 0x64 SWAP1 REVERT JUMPDEST PUSH1 0x40 MLOAD SWAP1 PUSH2 0x3EEE DUP3 PUSH2 0x399B JUMP JUMPDEST PUSH1 0x4 DUP3 MSTORE PUSH4 0x14D15313 PUSH1 0xE2 SHL PUSH1 0x20 DUP4 ADD MSTORE JUMP JUMPDEST ISZERO PUSH2 0x3F08 JUMPI JUMP JUMPDEST PUSH1 0x40 MLOAD PUSH3 0x461BCD PUSH1 0xE5 SHL DUP2 MSTORE PUSH1 0x20 PUSH1 0x4 DUP3 ADD MSTORE PUSH1 0x15 PUSH1 0x24 DUP3 ADD MSTORE PUSH21 0x151BDAD95B881D1C985B9CD9995C8819985A5B1959 PUSH1 0x5A SHL PUSH1 0x44 DUP3 ADD MSTORE PUSH1 0x64 SWAP1 REVERT JUMPDEST PUSH1 0x0 NOT DUP2 EQ PUSH2 0x3C9C JUMPI PUSH1 0x1 ADD SWAP1 JUMP JUMPDEST SWAP2 SWAP1 DUP3 ADD DUP1 SWAP3 GT PUSH2 0x3C9C JUMPI JUMP JUMPDEST ISZERO PUSH2 0x3F68 JUMPI JUMP JUMPDEST PUSH1 0x40 MLOAD PUSH3 0x461BCD PUSH1 0xE5 SHL DUP2 MSTORE PUSH1 0x20 PUSH1 0x4 DUP3 ADD MSTORE PUSH1 0x14 PUSH1 0x24 DUP3 ADD MSTORE PUSH20 0x14DD185AD948191BD95CC81B9BDD08195E1A5CDD PUSH1 0x62 SHL PUSH1 0x44 DUP3 ADD MSTORE PUSH1 0x64 SWAP1 REVERT JUMPDEST ISZERO PUSH2 0x3FAB JUMPI JUMP JUMPDEST PUSH1 0x40 MLOAD PUSH3 0x461BCD PUSH1 0xE5 SHL DUP2 MSTORE PUSH1 0x20 PUSH1 0x4 DUP3 ADD MSTORE PUSH1 0xF PUSH1 0x24 DUP3 ADD MSTORE PUSH15 0x14DD185AD9481B9BDD08199BDD5B99 PUSH1 0x8A SHL PUSH1 0x44 DUP3 ADD MSTORE PUSH1 0x64 SWAP1 REVERT JUMPDEST ISZERO PUSH2 0x3FE9 JUMPI JUMP JUMPDEST PUSH1 0x40 MLOAD PUSH3 0x461BCD PUSH1 0xE5 SHL DUP2 MSTORE PUSH1 0x20 PUSH1 0x4 DUP3 ADD MSTORE PUSH1 0x10 PUSH1 0x24 DUP3 ADD MSTORE PUSH16 0x5374616B65206E6F7420616374697665 PUSH1 0x80 SHL PUSH1 0x44 DUP3 ADD MSTORE PUSH1 0x64 SWAP1 REVERT JUMPDEST SWAP2 SWAP1 DUP3 SUB SWAP2 DUP3 GT PUSH2 0x3C9C JUMPI JUMP JUMPDEST PUSH1 0x0 DUP2 DUP2 MSTORE PUSH1 0x15 PUSH1 0x20 SWAP1 DUP2 MSTORE PUSH1 0x40 DUP1 DUP4 KECCAK256 SLOAD PUSH1 0x1 PUSH1 0x1 PUSH1 0xA0 SHL SUB AND SWAP1 PUSH2 0x4055 DUP3 ISZERO ISZERO PUSH2 0x3F61 JUMP JUMPDEST SWAP3 SWAP4 DUP5 SWAP4 SWAP1 DUP5 SWAP1 DUP2 DUP1 DUP1 DUP1 DUP1 JUMPDEST DUP9 DUP12 MSTORE PUSH1 0x14 DUP1 DUP12 MSTORE DUP9 DUP13 KECCAK256 DUP1 SLOAD DUP4 LT ISZERO PUSH2 0x4223 JUMPI PUSH2 0x4081 DUP4 DUP10 SWAP3 PUSH2 0x38FD JUMP JUMPDEST POP SLOAD EQ PUSH2 0x4097 JUMPI POP PUSH2 0x4092 SWAP1 PUSH2 0x3F45 JUMP JUMPDEST PUSH2 0x4062 JUMP JUMPDEST SWAP7 POP SWAP11 POP POP POP POP POP POP DUP3 DUP6 MSTORE DUP1 DUP5 MSTORE DUP6 DUP3 DUP7 KECCAK256 SWAP1 PUSH2 0x40B4 SWAP2 PUSH2 0x38FD JUMP JUMPDEST POP PUSH1 0x5 ADD SLOAD SWAP6 DUP4 DUP7 MSTORE DUP2 DUP6 MSTORE DUP1 DUP4 DUP8 KECCAK256 SWAP1 PUSH2 0x40CE SWAP2 PUSH2 0x38FD JUMP JUMPDEST POP PUSH1 0x4 ADD SLOAD SWAP3 DUP5 DUP8 MSTORE DUP3 DUP7 MSTORE DUP2 DUP2 DUP9 KECCAK256 SWAP1 PUSH2 0x40E8 SWAP2 PUSH2 0x38FD JUMP JUMPDEST POP SWAP3 PUSH1 0x1 DUP1 SWAP5 ADD SLOAD SWAP7 DUP7 DUP10 MSTORE DUP2 DUP2 MSTORE DUP4 DUP4 DUP11 KECCAK256 SWAP1 PUSH2 0x4105 SWAP2 PUSH2 0x38FD JUMP JUMPDEST POP PUSH1 0x3 ADD SLOAD SWAP7 DUP10 MSTORE MSTORE DUP7 KECCAK256 SWAP1 PUSH2 0x411A SWAP2 PUSH2 0x38FD JUMP JUMPDEST POP PUSH1 0x6 ADD SLOAD PUSH1 0xFF AND PUSH2 0x412E PUSH2 0x4133 SWAP3 PUSH2 0x3FA4 JUMP JUMPDEST PUSH2 0x3FE2 JUMP JUMPDEST TIMESTAMP DUP2 EQ PUSH2 0x421C JUMPI PUSH2 0x4144 SWAP1 TIMESTAMP PUSH2 0x4021 JUMP JUMPDEST SWAP3 PUSH1 0x12 SLOAD DUP1 SWAP3 PUSH1 0x5A DUP2 EQ PUSH1 0x0 EQ PUSH2 0x41A2 JUMPI POP POP PUSH1 0x3 DUP3 MUL SWAP2 DUP1 DUP4 DIV PUSH1 0x3 EQ SWAP1 ISZERO OR ISZERO PUSH2 0x418E JUMPI POP PUSH2 0x3AC1 SWAP4 SWAP3 PUSH2 0x4182 PUSH4 0xBBF81E00 SWAP4 PUSH2 0x4187 SWAP4 PUSH1 0x1 SHR SWAP1 JUMPDEST PUSH2 0x3C89 JUMP JUMPDEST DIV SWAP1 PUSH2 0x3F54 JUMP JUMPDEST PUSH4 0x4E487B71 PUSH1 0xE0 SHL DUP2 MSTORE PUSH1 0x11 PUSH1 0x4 MSTORE PUSH1 0x24 SWAP1 REVERT JUMPDEST PUSH1 0xB4 DUP2 SUB PUSH2 0x41D8 JUMPI POP POP DUP2 PUSH1 0x1 SHL SWAP2 DUP1 DUP4 DIV PUSH1 0x2 EQ SWAP1 ISZERO OR ISZERO PUSH2 0x418E JUMPI POP PUSH2 0x3AC1 SWAP4 SWAP3 PUSH2 0x4182 PUSH4 0xBBF81E00 SWAP4 PUSH2 0x4187 SWAP4 SWAP1 PUSH2 0x3C89 JUMP JUMPDEST PUSH2 0x16D SWAP2 SWAP5 SWAP4 POP EQ PUSH2 0x41FD JUMPI JUMPDEST POP PUSH2 0x3AC1 SWAP4 SWAP3 PUSH2 0x4182 PUSH4 0xBBF81E00 SWAP4 PUSH2 0x4187 SWAP4 PUSH2 0x3C89 JUMP JUMPDEST PUSH1 0x3 DUP4 SWAP3 SWAP4 MUL SWAP2 DUP1 DUP4 DIV PUSH1 0x3 EQ SWAP1 ISZERO OR ISZERO PUSH2 0x418E JUMPI POP SWAP1 PUSH2 0x3AC1 PUSH2 0x41E5 JUMP JUMPDEST POP POP POP POP SWAP1 JUMP JUMPDEST POP POP POP SWAP7 POP SWAP7 POP SWAP8 SWAP4 POP PUSH2 0x4133 SWAP3 SWAP2 POP PUSH2 0x412E SWAP1 PUSH2 0x3FA4 JUMP JUMPDEST ISZERO PUSH2 0x4243 JUMPI JUMP JUMPDEST PUSH1 0x40 MLOAD PUSH3 0x461BCD PUSH1 0xE5 SHL DUP2 MSTORE PUSH1 0x20 PUSH1 0x4 DUP3 ADD MSTORE PUSH1 0xF PUSH1 0x24 DUP3 ADD MSTORE PUSH15 0x2737BA1039BA30B5B29037BBB732B9 PUSH1 0x89 SHL PUSH1 0x44 DUP3 ADD MSTORE PUSH1 0x64 SWAP1 REVERT JUMPDEST PUSH1 0x0 CALLER DUP2 MSTORE PUSH1 0x20 PUSH1 0x1C DUP2 MSTORE PUSH1 0x1 DUP1 PUSH1 0xA0 SHL SUB SWAP1 PUSH1 0x40 DUP3 DUP2 DUP6 KECCAK256 SLOAD AND SWAP3 DUP4 ISZERO ISZERO DUP1 PUSH2 0x43E6 JUMPI JUMPDEST PUSH2 0x42AB JUMPI POP POP POP POP POP SWAP1 JUMP JUMPDEST PUSH1 0x64 PUSH2 0x42B9 PUSH1 0x1B SLOAD DUP9 PUSH2 0x3C89 JUMP JUMPDEST DUP7 SLOAD DUP5 MLOAD PUSH4 0xA9059CBB PUSH1 0xE0 SHL DUP2 MSTORE PUSH1 0x1 PUSH1 0x1 PUSH1 0xA0 SHL SUB DUP9 AND PUSH1 0x4 DUP3 ADD MSTORE SWAP3 SWAP1 SWAP2 DIV PUSH1 0x24 DUP4 ADD DUP2 SWAP1 MSTORE SWAP7 SWAP2 SWAP1 DUP6 SWAP1 DUP3 SWAP1 PUSH1 0x44 SWAP1 DUP3 SWAP1 DUP7 SWAP1 DUP9 AND GAS CALL SWAP1 DUP2 ISZERO PUSH2 0x43DC JUMPI DUP3 SWAP2 PUSH2 0x43BF JUMPI JUMPDEST POP ISZERO PUSH2 0x437B JUMPI PUSH32 0x94CCB86446750660EC532B1BEB1FB55F5BA2FFFCA042C4C53F4C080E72595B38 SWAP4 SWAP3 SWAP2 DUP2 DUP7 PUSH2 0x4371 SWAP4 MSTORE PUSH1 0x1E DUP6 MSTORE DUP4 DUP2 KECCAK256 PUSH2 0x4344 DUP10 DUP3 SLOAD PUSH2 0x3F54 JUMP JUMPDEST SWAP1 SSTORE SLOAD AND DUP7 DUP9 DUP5 MLOAD SWAP3 PUSH2 0x4356 DUP5 PUSH2 0x399B JUMP JUMPDEST PUSH1 0x8 DUP5 MSTORE PUSH8 0x1491519154949053 PUSH1 0xC2 SHL DUP8 DUP6 ADD MSTORE DUP1 DUP10 PUSH2 0x4A6C JUMP JUMPDEST MLOAD SWAP4 DUP5 MSTORE CALLER SWAP4 LOG3 SWAP1 JUMP JUMPDEST DUP3 MLOAD PUSH3 0x461BCD PUSH1 0xE5 SHL DUP2 MSTORE PUSH1 0x4 DUP2 ADD DUP6 SWAP1 MSTORE PUSH1 0x1F PUSH1 0x24 DUP3 ADD MSTORE PUSH32 0x526566657272616C20726577617264207472616E73666572206661696C656400 PUSH1 0x44 DUP3 ADD MSTORE PUSH1 0x64 SWAP1 REVERT JUMPDEST PUSH2 0x43D6 SWAP2 POP DUP6 RETURNDATASIZE DUP8 GT PUSH2 0x57A JUMPI PUSH2 0x56C DUP2 DUP4 PUSH2 0x39B7 JUMP JUMPDEST CODESIZE PUSH2 0x4301 JUMP JUMPDEST DUP5 MLOAD RETURNDATASIZE DUP5 DUP3 RETURNDATACOPY RETURNDATASIZE SWAP1 REVERT JUMPDEST POP DUP4 DUP6 MSTORE PUSH1 0xE DUP4 MSTORE PUSH1 0xFF DUP3 DUP7 KECCAK256 SLOAD AND ISZERO PUSH2 0x429F JUMP JUMPDEST PUSH1 0x0 SWAP1 DUP2 JUMPDEST PUSH1 0x1 PUSH1 0x1 PUSH1 0xA0 SHL SUB DUP3 AND PUSH1 0x0 SWAP1 DUP2 MSTORE PUSH1 0x14 PUSH1 0x20 MSTORE PUSH1 0x40 SWAP1 KECCAK256 DUP1 SLOAD DUP3 LT ISZERO PUSH2 0x44AC JUMPI PUSH1 0x6 PUSH2 0x442F DUP4 PUSH1 0xFF SWAP4 PUSH2 0x38FD JUMP JUMPDEST POP ADD SLOAD AND PUSH2 0x4445 JUMPI PUSH2 0x4440 SWAP1 PUSH2 0x3F45 JUMP JUMPDEST PUSH2 0x4400 JUMP JUMPDEST POP SWAP1 POP PUSH1 0x1 JUMPDEST ISZERO DUP1 PUSH2 0x448A JUMPI JUMPDEST PUSH2 0x4459 JUMPI POP JUMP JUMPDEST PUSH1 0x1 PUSH1 0x1 PUSH1 0xA0 SHL SUB AND PUSH1 0x0 SWAP1 DUP2 MSTORE PUSH1 0x1A PUSH1 0x20 MSTORE PUSH1 0x40 SWAP1 KECCAK256 DUP1 SLOAD PUSH1 0xFF NOT AND SWAP1 SSTORE PUSH1 0x18 SLOAD DUP1 ISZERO PUSH2 0x3C9C JUMPI PUSH1 0x0 NOT ADD PUSH1 0x18 SSTORE JUMP JUMPDEST POP PUSH1 0x1 PUSH1 0x1 PUSH1 0xA0 SHL SUB DUP2 AND PUSH1 0x0 SWAP1 DUP2 MSTORE PUSH1 0x1A PUSH1 0x20 MSTORE PUSH1 0x40 SWAP1 KECCAK256 SLOAD PUSH1 0xFF AND PUSH2 0x4452 JUMP JUMPDEST POP POP SWAP1 PUSH2 0x444B JUMP JUMPDEST PUSH1 0x0 DUP1 SLOAD PUSH1 0x40 MLOAD PUSH4 0x70A08231 PUSH1 0xE0 SHL DUP2 MSTORE ADDRESS PUSH1 0x4 DUP3 ADD MSTORE SWAP2 SWAP4 SWAP3 SWAP2 PUSH1 0x20 SWAP2 PUSH1 0x1 PUSH1 0x1 PUSH1 0xA0 SHL SUB AND SWAP1 DUP3 DUP2 PUSH1 0x24 DUP2 DUP6 GAS STATICCALL DUP1 ISZERO PUSH2 0x45EB JUMPI DUP5 SWAP2 DUP8 SWAP2 PUSH2 0x45BA JUMPI JUMPDEST POP LT PUSH2 0x4575 JUMPI PUSH1 0x40 MLOAD PUSH4 0xA9059CBB PUSH1 0xE0 SHL DUP2 MSTORE CALLER PUSH1 0x4 DUP3 ADD MSTORE PUSH1 0x24 DUP2 ADD DUP5 SWAP1 MSTORE SWAP1 DUP3 SWAP1 DUP3 SWAP1 PUSH1 0x44 SWAP1 DUP3 SWAP1 DUP10 SWAP1 GAS CALL SWAP2 DUP3 ISZERO PUSH2 0x456A JUMPI SWAP1 PUSH2 0x4540 SWAP3 SWAP2 PUSH2 0x4548 SWAP6 SWAP7 SWAP3 PUSH2 0x454D JUMPI JUMPDEST POP POP PUSH2 0x3F01 JUMP JUMPDEST PUSH1 0xD SLOAD PUSH2 0x3F54 JUMP JUMPDEST PUSH1 0xD SSTORE JUMP JUMPDEST PUSH2 0x4563 SWAP3 POP DUP1 RETURNDATASIZE LT PUSH2 0x57A JUMPI PUSH2 0x56C DUP2 DUP4 PUSH2 0x39B7 JUMP JUMPDEST CODESIZE DUP1 PUSH2 0x4539 JUMP JUMPDEST PUSH1 0x40 MLOAD RETURNDATASIZE DUP8 DUP3 RETURNDATACOPY RETURNDATASIZE SWAP1 REVERT JUMPDEST PUSH1 0x40 MLOAD PUSH3 0x461BCD PUSH1 0xE5 SHL DUP2 MSTORE PUSH1 0x4 DUP2 ADD DUP4 SWAP1 MSTORE PUSH1 0x1A PUSH1 0x24 DUP3 ADD MSTORE PUSH32 0x496E73756666696369656E7420746F6B656E2062616C616E6365000000000000 PUSH1 0x44 DUP3 ADD MSTORE PUSH1 0x64 SWAP1 REVERT JUMPDEST DUP1 SWAP3 POP DUP5 DUP1 SWAP3 POP RETURNDATASIZE DUP4 GT PUSH2 0x45E4 JUMPI JUMPDEST PUSH2 0x45D3 DUP2 DUP4 PUSH2 0x39B7 JUMP JUMPDEST DUP2 ADD SUB SLT PUSH2 0x19E8 JUMPI DUP4 SWAP1 MLOAD CODESIZE PUSH2 0x44F3 JUMP JUMPDEST POP RETURNDATASIZE PUSH2 0x45C9 JUMP JUMPDEST PUSH1 0x40 MLOAD RETURNDATASIZE DUP9 DUP3 RETURNDATACOPY RETURNDATASIZE SWAP1 REVERT JUMPDEST PUSH1 0x10 SLOAD PUSH1 0x1 PUSH1 0x40 SHL DUP2 LT ISZERO PUSH2 0x3985 JUMPI PUSH1 0x1 SWAP1 DUP2 DUP2 ADD DUP1 PUSH1 0x10 SSTORE DUP2 LT ISZERO PUSH2 0x3919 JUMPI PUSH1 0x7 PUSH1 0x0 SWAP2 PUSH1 0x10 DUP4 MSTORE MUL SWAP2 DUP4 MLOAD DUP4 PUSH32 0x1B6847DC741A1B0CD08D278845F9D819D87B734759AFB55FE2DE5CB82A9AE672 ADD SSTORE PUSH1 0xC0 PUSH32 0x1B6847DC741A1B0CD08D278845F9D819D87B734759AFB55FE2DE5CB82A9AE678 PUSH32 0x1B6847DC741A1B0CD08D278845F9D819D87B734759AFB55FE2DE5CB82A9AE673 DUP6 ADD SWAP5 PUSH1 0x1 DUP1 PUSH1 0xA0 SHL SUB PUSH1 0x20 SWAP7 DUP2 DUP9 DUP11 ADD MLOAD AND SWAP1 PUSH1 0x1 PUSH1 0x1 PUSH1 0x60 SHL SUB PUSH1 0xA0 SHL SWAP2 DUP3 DUP3 SLOAD AND OR SWAP1 SSTORE PUSH32 0x1B6847DC741A1B0CD08D278845F9D819D87B734759AFB55FE2DE5CB82A9AE674 DUP4 ADD DUP3 PUSH1 0x40 DUP12 ADD MLOAD AND DUP3 DUP3 SLOAD AND OR SWAP1 SSTORE PUSH32 0x1B6847DC741A1B0CD08D278845F9D819D87B734759AFB55FE2DE5CB82A9AE675 DUP4 ADD SWAP2 PUSH1 0x60 DUP11 ADD MLOAD AND SWAP1 DUP3 SLOAD AND OR SWAP1 SSTORE PUSH1 0x80 DUP8 ADD MLOAD PUSH32 0x1B6847DC741A1B0CD08D278845F9D819D87B734759AFB55FE2DE5CB82A9AE676 DUP3 ADD SSTORE PUSH1 0xA0 DUP8 ADD MLOAD PUSH32 0x1B6847DC741A1B0CD08D278845F9D819D87B734759AFB55FE2DE5CB82A9AE677 DUP3 ADD SSTORE ADD SWAP5 ADD MLOAD SWAP2 DUP3 MLOAD SWAP3 PUSH8 0xFFFFFFFFFFFFFFFF DUP5 GT PUSH2 0x486E JUMPI PUSH2 0x4787 DUP7 SLOAD PUSH2 0x392F JUMP JUMPDEST PUSH1 0x1F DUP2 GT PUSH2 0x4828 JUMPI JUMPDEST POP DUP5 SWAP2 PUSH1 0x1F DUP6 GT PUSH1 0x1 EQ PUSH2 0x47C9 JUMPI SWAP4 SWAP5 POP DUP5 SWAP3 SWAP2 SWAP1 DUP4 PUSH2 0x47BE JUMPI JUMPDEST POP POP SHL SWAP2 PUSH1 0x0 NOT SWAP1 PUSH1 0x3 SHL SHR NOT AND OR SWAP1 SSTORE JUMP JUMPDEST ADD MLOAD SWAP3 POP CODESIZE DUP1 PUSH2 0x47AB JUMP JUMPDEST DUP7 DUP2 MSTORE DUP6 DUP2 KECCAK256 SWAP4 SWAP6 DUP6 SWAP2 PUSH1 0x1F NOT DUP4 AND SWAP2 JUMPDEST DUP9 DUP4 DUP4 LT PUSH2 0x480E JUMPI POP POP POP LT PUSH2 0x47F5 JUMPI JUMPDEST POP POP POP DUP2 SHL ADD SWAP1 SSTORE JUMP JUMPDEST ADD MLOAD PUSH1 0x0 NOT PUSH1 0xF8 DUP5 PUSH1 0x3 SHL AND SHR NOT AND SWAP1 SSTORE CODESIZE DUP1 DUP1 PUSH2 0x47EB JUMP JUMPDEST DUP6 DUP8 ADD MLOAD DUP9 SSTORE SWAP1 SWAP7 ADD SWAP6 SWAP5 DUP6 ADD SWAP5 DUP8 SWAP4 POP SWAP1 DUP2 ADD SWAP1 PUSH2 0x47DA JUMP JUMPDEST DUP7 DUP4 MSTORE DUP6 DUP4 KECCAK256 PUSH1 0x1F DUP7 ADD PUSH1 0x5 SHR DUP2 ADD SWAP2 DUP8 DUP8 LT PUSH2 0x4864 JUMPI JUMPDEST PUSH1 0x1F ADD PUSH1 0x5 SHR ADD SWAP1 DUP5 SWAP1 JUMPDEST DUP3 DUP2 LT PUSH2 0x4859 JUMPI POP POP PUSH2 0x4790 JUMP JUMPDEST DUP5 DUP2 SSTORE ADD DUP5 SWAP1 PUSH2 0x484B JUMP JUMPDEST SWAP1 SWAP2 POP DUP2 SWAP1 PUSH2 0x4840 JUMP JUMPDEST PUSH4 0x4E487B71 PUSH1 0xE0 SHL DUP3 MSTORE PUSH1 0x41 PUSH1 0x4 MSTORE PUSH1 0x24 DUP3 REVERT JUMPDEST DUP1 SLOAD PUSH1 0x1 PUSH1 0x40 SHL DUP2 LT ISZERO PUSH2 0x3985 JUMPI PUSH2 0x48A1 SWAP1 PUSH1 0x1 SWAP3 DUP4 DUP3 ADD DUP2 SSTORE PUSH2 0x38FD JUMP JUMPDEST PUSH2 0x49F7 JUMPI DUP3 MLOAD DUP2 SSTORE PUSH1 0xC0 PUSH1 0x6 DUP4 DUP4 ADD SWAP3 PUSH1 0x1 DUP1 PUSH1 0xA0 SHL SUB PUSH1 0x20 SWAP5 DUP2 DUP7 DUP10 ADD MLOAD AND SWAP1 PUSH1 0x1 PUSH1 0x1 PUSH1 0x60 SHL SUB PUSH1 0xA0 SHL SWAP2 DUP3 DUP3 SLOAD AND OR SWAP1 SSTORE PUSH1 0x2 DUP4 ADD DUP3 PUSH1 0x40 DUP11 ADD MLOAD AND DUP3 DUP3 SLOAD AND OR SWAP1 SSTORE PUSH1 0x3 DUP4 ADD SWAP2 PUSH1 0x60 DUP10 ADD MLOAD AND SWAP1 DUP3 SLOAD AND OR SWAP1 SSTORE PUSH1 0x80 DUP7 ADD MLOAD PUSH1 0x4 DUP3 ADD SSTORE PUSH1 0xA0 DUP7 ADD MLOAD PUSH1 0x5 DUP3 ADD SSTORE ADD SWAP4 ADD MLOAD SWAP1 DUP2 MLOAD SWAP2 PUSH8 0xFFFFFFFFFFFFFFFF DUP4 GT PUSH2 0x3985 JUMPI PUSH2 0x492E DUP6 SLOAD PUSH2 0x392F JUMP JUMPDEST PUSH1 0x1F DUP2 GT PUSH2 0x49AE JUMPI JUMPDEST POP DUP2 PUSH1 0x1F DUP5 GT PUSH1 0x1 EQ PUSH2 0x4965 JUMPI POP SWAP3 DUP3 SWAP4 SWAP2 DUP4 SWAP3 PUSH1 0x0 SWAP5 PUSH2 0x47BE JUMPI POP POP SHL SWAP2 PUSH1 0x0 NOT SWAP1 PUSH1 0x3 SHL SHR NOT AND OR SWAP1 SSTORE JUMP JUMPDEST SWAP2 SWAP1 DUP4 PUSH1 0x1F NOT DUP2 AND DUP8 PUSH1 0x0 MSTORE DUP5 PUSH1 0x0 KECCAK256 SWAP5 PUSH1 0x0 SWAP1 JUMPDEST DUP9 DUP4 DUP4 LT PUSH2 0x4994 JUMPI POP POP POP LT PUSH2 0x47F5 JUMPI POP POP POP DUP2 SHL ADD SWAP1 SSTORE JUMP JUMPDEST DUP6 DUP8 ADD MLOAD DUP9 SSTORE SWAP1 SWAP7 ADD SWAP6 SWAP5 DUP6 ADD SWAP5 DUP8 SWAP4 POP SWAP1 DUP2 ADD SWAP1 PUSH2 0x497A JUMP JUMPDEST PUSH1 0x0 DUP7 DUP2 MSTORE DUP4 DUP2 KECCAK256 PUSH1 0x1F DUP7 ADD PUSH1 0x5 SHR DUP2 ADD SWAP3 DUP6 DUP8 LT PUSH2 0x49ED JUMPI JUMPDEST PUSH1 0x1F ADD PUSH1 0x5 SHR ADD SWAP2 DUP7 SWAP1 JUMPDEST DUP4 DUP2 LT PUSH2 0x49E2 JUMPI POP POP POP PUSH2 0x4937 JUMP JUMPDEST DUP3 DUP2 SSTORE ADD DUP7 SWAP1 PUSH2 0x49D3 JUMP JUMPDEST SWAP1 SWAP3 POP DUP3 SWAP1 PUSH2 0x49C8 JUMP JUMPDEST PUSH4 0x4E487B71 PUSH1 0xE0 SHL PUSH1 0x0 MSTORE PUSH1 0x0 PUSH1 0x4 MSTORE PUSH1 0x24 PUSH1 0x0 REVERT JUMPDEST SWAP3 PUSH2 0x3A17 SWAP5 SWAP2 SWAP3 PUSH1 0x40 MLOAD SWAP5 PUSH2 0x4A21 DUP7 PUSH2 0x3969 JUMP JUMPDEST TIMESTAMP DUP7 MSTORE PUSH1 0x1 DUP1 PUSH1 0xA0 SHL SUB DUP1 SWAP2 AND SWAP5 DUP6 PUSH1 0x20 DUP9 ADD MSTORE PUSH1 0x0 PUSH1 0x40 DUP9 ADD MSTORE AND PUSH1 0x60 DUP7 ADD MSTORE PUSH1 0x80 DUP6 ADD MSTORE PUSH1 0xA0 DUP5 ADD MSTORE PUSH1 0xC0 DUP4 ADD MSTORE PUSH1 0x0 MSTORE PUSH1 0xF PUSH1 0x20 MSTORE PUSH2 0x4A67 DUP2 PUSH1 0x40 PUSH1 0x0 KECCAK256 PUSH2 0x4882 JUMP JUMPDEST PUSH2 0x45F6 JUMP JUMPDEST SWAP3 PUSH2 0x3A17 SWAP6 SWAP3 SWAP5 SWAP2 SWAP4 PUSH1 0x40 MLOAD SWAP6 PUSH2 0x4A82 DUP8 PUSH2 0x3969 JUMP JUMPDEST TIMESTAMP DUP8 MSTORE PUSH1 0x1 DUP1 PUSH1 0xA0 SHL SUB DUP1 DUP1 SWAP4 AND SWAP7 DUP8 PUSH1 0x20 DUP11 ADD MSTORE AND PUSH1 0x40 DUP9 ADD MSTORE AND PUSH1 0x60 DUP7 ADD MSTORE PUSH1 0x80 DUP6 ADD MSTORE PUSH1 0xA0 DUP5 ADD MSTORE PUSH1 0xC0 DUP4 ADD MSTORE PUSH1 0x0 MSTORE PUSH1 0xF PUSH1 0x20 MSTORE PUSH2 0x4A67 DUP2 PUSH1 0x40 PUSH1 0x0 KECCAK256 PUSH2 0x4882 JUMP JUMPDEST PUSH8 0xFFFFFFFFFFFFFFFF DUP2 GT PUSH2 0x3985 JUMPI PUSH1 0x5 SHL PUSH1 0x20 ADD SWAP1 JUMP JUMPDEST SWAP1 PUSH1 0x40 MLOAD PUSH2 0x4AED DUP2 PUSH2 0x3969 JUMP JUMPDEST PUSH1 0xC0 PUSH1 0xFF PUSH1 0x6 DUP4 SWAP6 DUP1 SLOAD DUP6 MSTORE PUSH1 0x1 DUP2 ADD SLOAD PUSH1 0x20 DUP7 ADD MSTORE PUSH1 0x2 DUP2 ADD SLOAD PUSH1 0x40 DUP7 ADD MSTORE PUSH1 0x3 DUP2 ADD SLOAD PUSH1 0x60 DUP7 ADD MSTORE PUSH1 0x4 DUP2 ADD SLOAD PUSH1 0x80 DUP7 ADD MSTORE PUSH1 0x5 DUP2 ADD SLOAD PUSH1 0xA0 DUP7 ADD MSTORE ADD SLOAD AND ISZERO ISZERO SWAP2 ADD MSTORE JUMP JUMPDEST PUSH1 0x40 MLOAD SWAP1 PUSH2 0x4B42 DUP3 PUSH2 0x3969 JUMP JUMPDEST DUP2 PUSH1 0xC0 PUSH1 0x0 SWAP2 DUP3 DUP2 MSTORE DUP3 PUSH1 0x20 DUP3 ADD MSTORE DUP3 PUSH1 0x40 DUP3 ADD MSTORE DUP3 PUSH1 0x60 DUP3 ADD MSTORE DUP3 PUSH1 0x80 DUP3 ADD MSTORE DUP3 PUSH1 0xA0 DUP3 ADD MSTORE ADD MSTORE JUMP INVALID CALLDATACOPY PUSH27 0xADEDB6B2A771959584D10A6A36ECCB5F56B4EB3A48525F76108D26 PUSH1 0xD8 0xD4 LOG2 PUSH5 0x6970667358 0x22 SLT KECCAK256 0x5D LOG3 0x2B PUSH31 0xF5EA136D76079B9196D00B84813B21FC00C865253655F8DA19EF42B664736F PUSH13 0x63430008130033000000000000 "},"methodIdentifiers":{"EARLY_WITHDRAWAL_PENALTY_PERCENT()":"9c0fbd05","allTransactions(uint256)":"d7ff0714","baseAPY()":"214405a9","blockedAddresses(address)":"4f93208a","bnbAddress()":"d11c583a","bnbRatio()":"032d975b","btcAddress()":"f7d76ae5","btcRatio()":"1c042d35","buyUSDC()":"251545da","buyUSDT()":"5b365040","buyWithBNB(uint256)":"c3333dfb","buyWithBTC(uint256)":"06360b85","buyWithETH()":"150d283d","buyWithSOL(uint256)":"f30ef2e5","buyWithUSDC(uint256)":"aeccf735","buyWithUSDT(uint256)":"a7c60160","calculateRewards(uint256)":"d3ea4350","ethPriceForStablecoin()":"f34a00fb","ethPriceForToken()":"c605af53","getAllTransactions()":"27506f53","getContractInfo()":"7cc1f867","getReferralInfo(address)":"21874ae2","getStakeDetails(uint256)":"963c9dd3","getStakeInfo(uint256)":"09813482","getStakingInfo()":"b40cd21d","getTokenBalances()":"a1dc9031","getTotalPenaltyCollected()":"491cc756","getUserReferrals(address)":"575cea6b","getUserStakes(address)":"842e2981","getUserStakingInfo(address)":"80933608","getUserTransactions(address)":"ef925399","harvestRewards(uint256)":"57126d0d","hasStaked(address)":"c93c8f34","minStakeAmount()":"f1887684","nextStakeId()":"75506c96","owner()":"8da5cb5b","referralRewardPercentage()":"920a253e","referralRewards(address)":"53aaa63b","referrals(address,uint256)":"e697b5d8","referrers(address)":"4a3b68cc","registerReferrer(address)":"9ea7685a","saleToken()":"e985e367","setBlockStatus(address,bool)":"182a676b","setSaleToken(address)":"a29f481c","solAddress()":"1ce24e16","solRatio()":"7a9773dc","stakeOwners(uint256)":"fd9a11e5","stakeTokens(uint256,uint256)":"3b7b6188","tokensSold()":"518ab2a8","totalPenaltyCollected()":"2bb38809","totalRewardsDistributed()":"ee172546","totalStaked()":"817b1cd2","totalStakers()":"86989038","unstakeEarly(uint256)":"2fd04c08","unstakeTokens(uint256)":"608e4dd0","updateBNB(address,uint256)":"366b17d6","updateBTC(address,uint256)":"3a94be2d","updateBaseAPY(uint256)":"71d20fe7","updateMinStakeAmount(uint256)":"d8060cd5","updateReferralPercentage(uint256)":"4cdb312d","updateSOL(address,uint256)":"ebcd3a13","updateStablecoinPrice(uint256)":"63219c72","updateTokenPrice(uint256)":"676c0d77","updateUSDC(address,uint256)":"1e37c606","updateUSDT(address,uint256)":"b006984f","usdcAddress()":"02d45457","usdcRatio()":"6f43f373","usdtAddress()":"9ab4a445","usdtRatio()":"83fabe03","userStakes(address,uint256)":"b5d5b5fa","userTransactions(address,uint256)":"b842ec44","withdrawTokens(address,uint256)":"06b091f9"}}}}}