{
  "_format": "hh-sol-artifact-1",
  "contractName": "SavitriCoin",
  "sourceName": "contracts/mock/SavitriCoin.sol",
  "abi": [
    {
      "inputs": [],
      "stateMutability": "nonpayable",
      "type": "constructor"
    },
    {
      "anonymous": false,
      "inputs": [
        {
          "indexed": true,
          "internalType": "address",
          "name": "user",
          "type": "address"
        },
        {
          "indexed": false,
          "internalType": "bool",
          "name": "blocked",
          "type": "bool"
        }
      ],
      "name": "AddressBlocked",
      "type": "event"
    },
    {
      "anonymous": false,
      "inputs": [
        {
          "indexed": true,
          "internalType": "address",
          "name": "owner",
          "type": "address"
        },
        {
          "indexed": true,
          "internalType": "address",
          "name": "spender",
          "type": "address"
        },
        {
          "indexed": false,
          "internalType": "uint256",
          "name": "value",
          "type": "uint256"
        }
      ],
      "name": "Approval",
      "type": "event"
    },
    {
      "anonymous": false,
      "inputs": [
        {
          "indexed": true,
          "internalType": "address",
          "name": "previousOwner",
          "type": "address"
        },
        {
          "indexed": true,
          "internalType": "address",
          "name": "newOwner",
          "type": "address"
        }
      ],
      "name": "OwnershipTransferred",
      "type": "event"
    },
    {
      "anonymous": false,
      "inputs": [
        {
          "indexed": true,
          "internalType": "address",
          "name": "from",
          "type": "address"
        },
        {
          "indexed": true,
          "internalType": "address",
          "name": "to",
          "type": "address"
        },
        {
          "indexed": false,
          "internalType": "uint256",
          "name": "value",
          "type": "uint256"
        }
      ],
      "name": "Transfer",
      "type": "event"
    },
    {
      "inputs": [
        {
          "internalType": "address",
          "name": "owner",
          "type": "address"
        },
        {
          "internalType": "address",
          "name": "spender",
          "type": "address"
        }
      ],
      "name": "allowance",
      "outputs": [
        {
          "internalType": "uint256",
          "name": "",
          "type": "uint256"
        }
      ],
      "stateMutability": "view",
      "type": "function"
    },
    {
      "inputs": [
        {
          "internalType": "address",
          "name": "",
          "type": "address"
        }
      ],
      "name": "allowedSenders",
      "outputs": [
        {
          "internalType": "bool",
          "name": "",
          "type": "bool"
        }
      ],
      "stateMutability": "view",
      "type": "function"
    },
    {
      "inputs": [
        {
          "internalType": "address",
          "name": "spender",
          "type": "address"
        },
        {
          "internalType": "uint256",
          "name": "amount",
          "type": "uint256"
        }
      ],
      "name": "approve",
      "outputs": [
        {
          "internalType": "bool",
          "name": "",
          "type": "bool"
        }
      ],
      "stateMutability": "nonpayable",
      "type": "function"
    },
    {
      "inputs": [
        {
          "internalType": "address",
          "name": "account",
          "type": "address"
        }
      ],
      "name": "balanceOf",
      "outputs": [
        {
          "internalType": "uint256",
          "name": "",
          "type": "uint256"
        }
      ],
      "stateMutability": "view",
      "type": "function"
    },
    {
      "inputs": [
        {
          "internalType": "address",
          "name": "",
          "type": "address"
        }
      ],
      "name": "blockedAddresses",
      "outputs": [
        {
          "internalType": "bool",
          "name": "",
          "type": "bool"
        }
      ],
      "stateMutability": "view",
      "type": "function"
    },
    {
      "inputs": [],
      "name": "decimals",
      "outputs": [
        {
          "internalType": "uint8",
          "name": "",
          "type": "uint8"
        }
      ],
      "stateMutability": "view",
      "type": "function"
    },
    {
      "inputs": [
        {
          "internalType": "address",
          "name": "spender",
          "type": "address"
        },
        {
          "internalType": "uint256",
          "name": "subtractedValue",
          "type": "uint256"
        }
      ],
      "name": "decreaseAllowance",
      "outputs": [
        {
          "internalType": "bool",
          "name": "",
          "type": "bool"
        }
      ],
      "stateMutability": "nonpayable",
      "type": "function"
    },
    {
      "inputs": [
        {
          "internalType": "address",
          "name": "spender",
          "type": "address"
        },
        {
          "internalType": "uint256",
          "name": "addedValue",
          "type": "uint256"
        }
      ],
      "name": "increaseAllowance",
      "outputs": [
        {
          "internalType": "bool",
          "name": "",
          "type": "bool"
        }
      ],
      "stateMutability": "nonpayable",
      "type": "function"
    },
    {
      "inputs": [],
      "name": "name",
      "outputs": [
        {
          "internalType": "string",
          "name": "",
          "type": "string"
        }
      ],
      "stateMutability": "view",
      "type": "function"
    },
    {
      "inputs": [],
      "name": "owner",
      "outputs": [
        {
          "internalType": "address",
          "name": "",
          "type": "address"
        }
      ],
      "stateMutability": "view",
      "type": "function"
    },
    {
      "inputs": [],
      "name": "renounceOwnership",
      "outputs": [],
      "stateMutability": "nonpayable",
      "type": "function"
    },
    {
      "inputs": [
        {
          "internalType": "address",
          "name": "user",
          "type": "address"
        },
        {
          "internalType": "bool",
          "name": "allowed",
          "type": "bool"
        }
      ],
      "name": "setAllowedSender",
      "outputs": [],
      "stateMutability": "nonpayable",
      "type": "function"
    },
    {
      "inputs": [
        {
          "internalType": "address",
          "name": "user",
          "type": "address"
        },
        {
          "internalType": "bool",
          "name": "blocked",
          "type": "bool"
        }
      ],
      "name": "setBlockStatus",
      "outputs": [],
      "stateMutability": "nonpayable",
      "type": "function"
    },
    {
      "inputs": [
        {
          "internalType": "bool",
          "name": "enabled",
          "type": "bool"
        }
      ],
      "name": "setTransfersEnabled",
      "outputs": [],
      "stateMutability": "nonpayable",
      "type": "function"
    },
    {
      "inputs": [],
      "name": "symbol",
      "outputs": [
        {
          "internalType": "string",
          "name": "",
          "type": "string"
        }
      ],
      "stateMutability": "view",
      "type": "function"
    },
    {
      "inputs": [],
      "name": "totalSupply",
      "outputs": [
        {
          "internalType": "uint256",
          "name": "",
          "type": "uint256"
        }
      ],
      "stateMutability": "view",
      "type": "function"
    },
    {
      "inputs": [
        {
          "internalType": "address",
          "name": "to",
          "type": "address"
        },
        {
          "internalType": "uint256",
          "name": "amount",
          "type": "uint256"
        }
      ],
      "name": "transfer",
      "outputs": [
        {
          "internalType": "bool",
          "name": "",
          "type": "bool"
        }
      ],
      "stateMutability": "nonpayable",
      "type": "function"
    },
    {
      "inputs": [
        {
          "internalType": "address",
          "name": "from",
          "type": "address"
        },
        {
          "internalType": "address",
          "name": "to",
          "type": "address"
        },
        {
          "internalType": "uint256",
          "name": "amount",
          "type": "uint256"
        }
      ],
      "name": "transferFrom",
      "outputs": [
        {
          "internalType": "bool",
          "name": "",
          "type": "bool"
        }
      ],
      "stateMutability": "nonpayable",
      "type": "function"
    },
    {
      "inputs": [
        {
          "internalType": "address",
          "name": "newOwner",
          "type": "address"
        }
      ],
      "name": "transferOwnership",
      "outputs": [],
      "stateMutability": "nonpayable",
      "type": "function"
    },
    {
      "inputs": [],
      "name": "transfersEnabled",
      "outputs": [
        {
          "internalType": "bool",
          "name": "",
          "type": "bool"
        }
      ],
      "stateMutability": "view",
      "type": "function"
    }
  ],
  "bytecode": "0x60803462000200576001600160401b039060409080820183811182821017620002f6578252600c815260206b29b0bb34ba39349021b7b4b760a11b8183015282519383850185811082821117620002f657845260038086526229a0ab60e91b838701528351828111620002f6578154906001958683811c93168015620003eb575b86841014620003d5578190601f938481116200037f575b50869084831160011462000318576000926200030c575b505060001982851b1c191690861b1782555b8651928311620002f65760049687548681811c91168015620002eb575b86821014620002d65790818386959493116200027c575b5085918411600114620002115760009362000205575b505082851b92600019911b1c19161784555b60058054336001600160a01b031982168117909255845191906001600160a01b03167f8be0079c531659141344cd1fd0a4f28419497f9722a3daafe3b4186f6b6457e0600080a3331562000200576002546b01f04ef12cb04cf15800000090818101809111620001eb57600794959650600255336000526000835285600020818154019055815260007fddf252ad1be2c89b69c2b068fc378daa952ba7f163c4a11628f55a4df523b3ef833393a33360005252816000209060ff19825416179055516109629081620003f78239f35b601187634e487b7160e01b6000525260246000fd5b600080fd5b0151915038806200010a565b9190869450601f1984169289600052866000209360005b888282106200026557505085116200024a575b50505050811b0184556200011c565b01519060f884600019921b161c19169055388080806200023b565b8385015187558a9890960195938401930162000228565b909192935088600052856000208380870160051c820192888810620002cc575b9189918897969594930160051c01915b828110620002bc575050620000f4565b60008155879650899101620002ac565b925081926200029c565b602289634e487b7160e01b6000525260246000fd5b90607f1690620000dd565b634e487b7160e01b600052604160045260246000fd5b015190503880620000ae565b90889350601f1983169186600052886000209260005b8a8282106200036857505084116200034f575b505050811b018255620000c0565b015160001983871b60f8161c1916905538808062000341565b8385015186558c979095019493840193016200032e565b90915084600052866000208480850160051c820192898610620003cb575b918a91869594930160051c01915b828110620003bb57505062000097565b600081558594508a9101620003ab565b925081926200039d565b634e487b7160e01b600052602260045260246000fd5b92607f16926200008056fe608060408181526004918236101561001657600080fd5b600092833560e01c91826306fdde03146106dc57508163095ea7b3146106b257816318160ddd14610693578163182a676b1461061857816323b872dd1461059157816326b9ce131461055a578163313ce5671461053e57816339509351146104d75781634b52ffb0146104825781634f93208a1461044457816370a082311461040d578163715018a6146103c25781638da5cb5b1461039957816395d89b411461029857508063a457c2d714610241578063a9059cbb14610211578063bef97c87146101ee578063dd62ed3e146101a6578063f2fde38b146101415763fadbcf481461010157600080fd5b3461013d57602036600319011261013d5760209160ff9082906001600160a01b0361012a6107df565b1681526007855220541690519015158152f35b5080fd5b82346101a35760203660031901126101a35761015b6107df565b61016361081f565b6001600160a01b0390811690811561019f57600580546001600160a01b031981168417909155166000805160206109368339815191528380a380f35b8280fd5b80fd5b503461013d578060031936011261013d57806020926101c36107df565b6101cb6107fa565b6001600160a01b0391821683526001865283832091168252845220549051908152f35b503461013d578160031936011261013d5760209060ff6008541690519015158152f35b503461013d578060031936011261013d5760209061023a6102306107df565b6024359033610833565b5160018152f35b503461013d578060031936011261013d5761025a6107df565b338352600160209081528284206001600160a01b0383168552905281832054909260243591908282106101a357509261023a916020940390336108d4565b83833461013d578160031936011261013d57805190828454600181811c9080831692831561038f575b602093848410811461037c578388529081156103605750600114610328575b505050829003601f01601f19168201926001600160401b038411838510176103155750829182610311925282610796565b0390f35b634e487b7160e01b815260418552602490fd5b919250868652828620918387935b83851061034c57505050508301018580806102e0565b805488860183015293019284908201610336565b60ff1916878501525050151560051b84010190508580806102e0565b634e487b7160e01b895260228a52602489fd5b91607f16916102c1565b50503461013d578160031936011261013d5760055490516001600160a01b039091168152602090f35b83346101a357806003193601126101a3576103db61081f565b600580546001600160a01b0319811690915581906001600160a01b03166000805160206109368339815191528280a380f35b50503461013d57602036600319011261013d5760209181906001600160a01b036104356107df565b16815280845220549051908152f35b50503461013d57602036600319011261013d5760209160ff9082906001600160a01b0361046f6107df565b1681526006855220541690519015158152f35b50503461013d578060031936011261013d576104d4906104a06107df565b906104a9610810565b916104b261081f565b60018060a01b03168452600760205283209060ff801983541691151516179055565b80f35b8284346101a357816003193601126101a3576104f16107df565b338252600160209081528383206001600160a01b038316845290528282205460243581019290831061052b5760208461023a8585336108d4565b634e487b7160e01b815260118552602490fd5b50503461013d578160031936011261013d576020905160128152f35b83903461013d57602036600319011261013d573580151580910361013d5761058061081f565b60ff80196008541691161760085580f35b50503461013d57606036600319011261013d576105ac6107df565b6105b46107fa565b6001600160a01b03821684526001602081815284862033875290528385205460443595929392909182016105f1575b60208561023a888787610833565b8582106101a3575091849161060e60209661023a950333836108d4565b91948193506105e3565b50503461013d578060031936011261013d577fdda6207409a585801122fb885dcaa8074f9a21f25ff2def680c67f01a86c2c9b60206106556107df565b61065d610810565b9061066661081f565b6001600160a01b031680865260068352848620805460ff191660ff8415151617905593519015158152a280f35b50503461013d578160031936011261013d576020906002549051908152f35b50503461013d578060031936011261013d5760209061023a6106d26107df565b60243590336108d4565b8490843461019f578260031936011261019f5782600354600181811c9080831692831561078c575b602093848410811461037c57838852908115610360575060011461075357505050829003601f01601f19168201926001600160401b038411838510176103155750829182610311925282610796565b91925060038652828620918387935b83851061077857505050508301018580806102e0565b805488860183015293019284908201610762565b91607f1691610704565b6020808252825181830181905290939260005b8281106107cb57505060409293506000838284010152601f8019910116010190565b8181018601518482016040015285016107a9565b600435906001600160a01b03821682036107f557565b600080fd5b602435906001600160a01b03821682036107f557565b6024359081151582036107f557565b6005546001600160a01b031633036107f557565b6001600160a01b039081169182156107f557169182156107f5576000828152600660205260ff6040822054166101a35760ff60085416156108c0575b8060205260408120805483811061019f5760209284927fddf252ad1be2c89b69c2b068fc378daa952ba7f163c4a11628f55a4df523b3ef9560409303905586815220818154019055604051908152a3565b600760205260ff60408220541661086f5780fd5b6001600160a01b039081169182156107f557169182156107f55760207f8c5be1e5ebec7d5bd14f71427d1e84f3dd0314c0f7b2291e5b200ac8c7c3b925918360005260018252604060002085600052825280604060002055604051908152a356fe8be0079c531659141344cd1fd0a4f28419497f9722a3daafe3b4186f6b6457e0a164736f6c6343000813000a",
  "linkReferences": {},
  "deployedLinkReferences": {}
}